{
  "_format": "hh-sol-artifact-1",
  "contractName": "LiquidityPool",
  "sourceName": "contracts/LiquidityPool.sol",
  "abi": [
    {
      "inputs": [],
      "stateMutability": "nonpayable",
      "type": "constructor"
    },
    {
      "anonymous": false,
      "inputs": [
        {
          "indexed": true,
          "internalType": "address",
          "name": "borrower",
          "type": "address"
        },
        {
          "indexed": false,
          "internalType": "uint256",
          "name": "amount",
          "type": "uint256"
        },
        {
          "indexed": false,
          "internalType": "uint256",
          "name": "timestamp",
          "type": "uint256"
        }
      ],
      "name": "Borrowed",
      "type": "event"
    },
    {
      "anonymous": false,
      "inputs": [
        {
          "indexed": true,
          "internalType": "address",
          "name": "payer",
          "type": "address"
        },
        {
          "indexed": false,
          "internalType": "uint256",
          "name": "amount",
          "type": "uint256"
        },
        {
          "indexed": false,
          "internalType": "uint256",
          "name": "timestamp",
          "type": "uint256"
        }
      ],
      "name": "Repaid",
      "type": "event"
    },
    {
      "inputs": [
        {
          "internalType": "uint256",
          "name": "amount",
          "type": "uint256"
        }
      ],
      "name": "borrow",
      "outputs": [],
      "stateMutability": "nonpayable",
      "type": "function"
    },
    {
      "inputs": [
        {
          "internalType": "address",
          "name": "",
          "type": "address"
        }
      ],
      "name": "borrowTimestamp",
      "outputs": [
        {
          "internalType": "uint256",
          "name": "",
          "type": "uint256"
        }
      ],
      "stateMutability": "view",
      "type": "function"
    },
    {
      "inputs": [
        {
          "internalType": "address",
          "name": "",
          "type": "address"
        }
      ],
      "name": "creditScore",
      "outputs": [
        {
          "internalType": "uint8",
          "name": "",
          "type": "uint8"
        }
      ],
      "stateMutability": "view",
      "type": "function"
    },
    {
      "inputs": [
        {
          "internalType": "uint256",
          "name": "amount",
          "type": "uint256"
        }
      ],
      "name": "extract",
      "outputs": [],
      "stateMutability": "nonpayable",
      "type": "function"
    },
    {
      "inputs": [],
      "name": "getBalance",
      "outputs": [
        {
          "internalType": "uint256",
          "name": "",
          "type": "uint256"
        }
      ],
      "stateMutability": "view",
      "type": "function"
    },
    {
      "inputs": [],
      "name": "getMyDebt",
      "outputs": [
        {
          "internalType": "uint256",
          "name": "",
          "type": "uint256"
        }
      ],
      "stateMutability": "view",
      "type": "function"
    },
    {
      "inputs": [],
      "name": "locked",
      "outputs": [
        {
          "internalType": "bool",
          "name": "",
          "type": "bool"
        }
      ],
      "stateMutability": "view",
      "type": "function"
    },
    {
      "inputs": [],
      "name": "owner",
      "outputs": [
        {
          "internalType": "address",
          "name": "",
          "type": "address"
        }
      ],
      "stateMutability": "view",
      "type": "function"
    },
    {
      "inputs": [],
      "name": "repay",
      "outputs": [],
      "stateMutability": "payable",
      "type": "function"
    },
    {
      "inputs": [
        {
          "internalType": "address",
          "name": "user",
          "type": "address"
        },
        {
          "internalType": "uint8",
          "name": "score",
          "type": "uint8"
        }
      ],
      "name": "setCreditScore",
      "outputs": [],
      "stateMutability": "nonpayable",
      "type": "function"
    },
    {
      "inputs": [],
      "name": "totalFunds",
      "outputs": [
        {
          "internalType": "uint256",
          "name": "",
          "type": "uint256"
        }
      ],
      "stateMutability": "view",
      "type": "function"
    },
    {
      "inputs": [
        {
          "internalType": "address",
          "name": "newOwner",
          "type": "address"
        }
      ],
      "name": "transferOwnership",
      "outputs": [],
      "stateMutability": "nonpayable",
      "type": "function"
    },
    {
      "inputs": [
        {
          "internalType": "address",
          "name": "",
          "type": "address"
        }
      ],
      "name": "userDebt",
      "outputs": [
        {
          "internalType": "uint256",
          "name": "",
          "type": "uint256"
        }
      ],
      "stateMutability": "view",
      "type": "function"
    },
    {
      "stateMutability": "payable",
      "type": "receive"
    }
  ],
  "bytecode": "0x6080604052348015600f57600080fd5b50600080546001600160a01b03191633179055610add806100316000396000f3fe6080604052600436106100c65760003560e01c8063968ed6001161007f578063cf30901211610059578063cf30901214610213578063d29255f91461023d578063f2fde38b1461026a578063f7e590ee1461028a57600080fd5b8063968ed600146101b0578063b69e5c77146101c6578063c5ebeaec146101f357600080fd5b806312065fe0146100ea578063402d88831461010c578063450a375a146101165780635ca63fb11461013857806385b39782146101585780638da5cb5b1461017857600080fd5b366100e55734600160008282546100dd91906109a2565b925050819055005b600080fd5b3480156100f657600080fd5b50475b6040519081526020015b60405180910390f35b6101146102cc565b005b34801561012257600080fd5b50336000908152600360205260409020546100f9565b34801561014457600080fd5b506101146101533660046109d7565b610418565b34801561016457600080fd5b50610114610173366004610a14565b610562565b34801561018457600080fd5b50600054610198906001600160a01b031681565b6040516001600160a01b039091168152602001610103565b3480156101bc57600080fd5b506100f960015481565b3480156101d257600080fd5b506100f96101e1366004610a2d565b60036020526000908152604090205481565b3480156101ff57600080fd5b5061011461020e366004610a14565b610681565b34801561021f57600080fd5b5060025461022d9060ff1681565b6040519015158152602001610103565b34801561024957600080fd5b506100f9610258366004610a2d565b60056020526000908152604090205481565b34801561027657600080fd5b50610114610285366004610a2d565b610898565b34801561029657600080fd5b506102ba6102a5366004610a2d565b60046020526000908152604090205460ff1681565b60405160ff9091168152602001610103565b336000908152600360205260409020546103235760405162461bcd60e51b8152602060048201526013602482015272139bc81bdd5d1cdd185b991a5b99c81919589d606a1b60448201526064015b60405180910390fd5b6000341161036c5760405162461bcd60e51b81526020600482015260166024820152754d7573742073656e642045544820746f20726570617960501b604482015260640161031a565b3360009081526003602052604081205434116103885734610399565b336000908152600360205260409020545b336000908152600360205260408120805492935083929091906103bd908490610a4f565b9250508190555080600160008282546103d691906109a2565b90915550506040805182815242602082015233917f1b8cd61ed43bec7c6bdad3a18ffee613f99c853d16c50678d248d879e1b43438910160405180910390a250565b6000546001600160a01b031633146104425760405162461bcd60e51b815260040161031a90610a62565b816001600160a01b0381166104995760405162461bcd60e51b815260206004820152601d60248201527f496e76616c696420616464726573733a207a65726f2061646472657373000000604482015260640161031a565b306001600160a01b038216036104e95760405162461bcd60e51b815260206004820152601560248201527424b73b30b634b21030b2323932b9b99d1039b2b63360591b604482015260640161031a565b60648260ff1611156105345760405162461bcd60e51b8152602060048201526014602482015273496e76616c6964206372656469742073636f726560601b604482015260640161031a565b506001600160a01b03919091166000908152600460205260409020805460ff191660ff909216919091179055565b6000546001600160a01b0316331461058c5760405162461bcd60e51b815260040161031a90610a62565b60025460ff16156105cf5760405162461bcd60e51b815260206004820152600d60248201526c4e6f207265656e7472616e637960981b604482015260640161031a565b6002805460ff19166001179055478111156106235760405162461bcd60e51b8152602060048201526014602482015273496e73756666696369656e742062616c616e636560601b604482015260640161031a565b80600160008282546106359190610a4f565b9091555050600080546040516001600160a01b039091169183156108fc02918491818181858888f19350505050158015610673573d6000803e3d6000fd5b50506002805460ff19169055565b60025460ff16156106c45760405162461bcd60e51b815260206004820152600d60248201526c4e6f207265656e7472616e637960981b604482015260640161031a565b6002805460ff191660011790558061071e5760405162461bcd60e51b815260206004820152601d60248201527f416d6f756e74206d7573742062652067726561746572207468616e2030000000604482015260640161031a565b33600090815260046020526040902054603c60ff909116101561077a5760405162461bcd60e51b81526020600482015260146024820152734372656469742073636f726520746f6f206c6f7760601b604482015260640161031a565b60026001546107899190610a85565b8111156107d85760405162461bcd60e51b815260206004820152601e60248201527f496e73756666696369656e742066756e647320696e2074686520706f6f6c0000604482015260640161031a565b33600090815260036020526040812080548392906107f79084906109a2565b9250508190555080600160008282546108109190610a4f565b9091555050336000818152600560205260408082204290555183156108fc0291849190818181858888f19350505050158015610850573d6000803e3d6000fd5b506040805182815242602082015233917feae9cfbc77fdd40ca899f36b608256063b2bc9d8178b0220f7ad513e178d6730910160405180910390a2506002805460ff19169055565b6000546001600160a01b031633146108c25760405162461bcd60e51b815260040161031a90610a62565b806001600160a01b0381166109195760405162461bcd60e51b815260206004820152601d60248201527f496e76616c696420616464726573733a207a65726f2061646472657373000000604482015260640161031a565b306001600160a01b038216036109695760405162461bcd60e51b815260206004820152601560248201527424b73b30b634b21030b2323932b9b99d1039b2b63360591b604482015260640161031a565b50600080546001600160a01b0319166001600160a01b0392909216919091179055565b634e487b7160e01b600052601160045260246000fd5b808201808211156109b5576109b561098c565b92915050565b80356001600160a01b03811681146109d257600080fd5b919050565b600080604083850312156109ea57600080fd5b6109f3836109bb565b9150602083013560ff81168114610a0957600080fd5b809150509250929050565b600060208284031215610a2657600080fd5b5035919050565b600060208284031215610a3f57600080fd5b610a48826109bb565b9392505050565b818103818111156109b5576109b561098c565b6020808252600990820152682737ba1037bbb732b960b91b604082015260600190565b600082610aa257634e487b7160e01b600052601260045260246000fd5b50049056fea2646970667358221220571d2ee03f24be8912b095c8f41f9e4c858e76ba4bfe0c4668ae04eb95b39cdf64736f6c634300081c0033",
  "linkReferences": {},
  "deployedLinkReferences": {}
}