{
  "_format": "hh-sol-artifact-1",
  "contractName": "InterestRateModel",
  "sourceName": "contracts/InterestRateModel.sol",
  "abi": [
    {
      "inputs": [
        {
          "internalType": "address",
          "name": "_owner",
          "type": "address"
        },
        {
          "internalType": "address",
          "name": "_ethUsdOracle",
          "type": "address"
        },
        {
          "components": [
            {
              "internalType": "uint256",
              "name": "baseRate",
              "type": "uint256"
            },
            {
              "internalType": "uint256",
              "name": "kink",
              "type": "uint256"
            },
            {
              "internalType": "uint256",
              "name": "slope1",
              "type": "uint256"
            },
            {
              "internalType": "uint256",
              "name": "slope2",
              "type": "uint256"
            },
            {
              "internalType": "uint256",
              "name": "reserveFactor",
              "type": "uint256"
            },
            {
              "internalType": "uint256",
              "name": "maxBorrowRate",
              "type": "uint256"
            },
            {
              "internalType": "uint256",
              "name": "maxRateChange",
              "type": "uint256"
            },
            {
              "internalType": "uint256",
              "name": "ethPriceRiskPremium",
              "type": "uint256"
            },
            {
              "internalType": "uint256",
              "name": "ethVolatilityThreshold",
              "type": "uint256"
            },
            {
              "internalType": "uint256",
              "name": "oracleStalenessWindow",
              "type": "uint256"
            }
          ],
          "internalType": "struct InterestRateModel.RateParams",
          "name": "params",
          "type": "tuple"
        }
      ],
      "stateMutability": "nonpayable",
      "type": "constructor"
    },
    {
      "inputs": [
        {
          "internalType": "address",
          "name": "owner",
          "type": "address"
        }
      ],
      "name": "OwnableInvalidOwner",
      "type": "error"
    },
    {
      "inputs": [
        {
          "internalType": "address",
          "name": "account",
          "type": "address"
        }
      ],
      "name": "OwnableUnauthorizedAccount",
      "type": "error"
    },
    {
      "anonymous": false,
      "inputs": [
        {
          "indexed": true,
          "internalType": "address",
          "name": "newOracle",
          "type": "address"
        }
      ],
      "name": "OracleUpdated",
      "type": "event"
    },
    {
      "anonymous": false,
      "inputs": [
        {
          "indexed": true,
          "internalType": "address",
          "name": "previousOwner",
          "type": "address"
        },
        {
          "indexed": true,
          "internalType": "address",
          "name": "newOwner",
          "type": "address"
        }
      ],
      "name": "OwnershipTransferred",
      "type": "event"
    },
    {
      "anonymous": false,
      "inputs": [],
      "name": "ParametersUpdated",
      "type": "event"
    },
    {
      "anonymous": false,
      "inputs": [
        {
          "indexed": false,
          "internalType": "uint256",
          "name": "cappedRate",
          "type": "uint256"
        }
      ],
      "name": "RatesCapped",
      "type": "event"
    },
    {
      "inputs": [],
      "name": "baseRate",
      "outputs": [
        {
          "internalType": "uint256",
          "name": "",
          "type": "uint256"
        }
      ],
      "stateMutability": "view",
      "type": "function"
    },
    {
      "inputs": [],
      "name": "ethPriceRiskPremium",
      "outputs": [
        {
          "internalType": "uint256",
          "name": "",
          "type": "uint256"
        }
      ],
      "stateMutability": "view",
      "type": "function"
    },
    {
      "inputs": [],
      "name": "ethUsdOracle",
      "outputs": [
        {
          "internalType": "address",
          "name": "",
          "type": "address"
        }
      ],
      "stateMutability": "view",
      "type": "function"
    },
    {
      "inputs": [],
      "name": "ethVolatilityThreshold",
      "outputs": [
        {
          "internalType": "uint256",
          "name": "",
          "type": "uint256"
        }
      ],
      "stateMutability": "view",
      "type": "function"
    },
    {
      "inputs": [],
      "name": "kink",
      "outputs": [
        {
          "internalType": "uint256",
          "name": "",
          "type": "uint256"
        }
      ],
      "stateMutability": "view",
      "type": "function"
    },
    {
      "inputs": [],
      "name": "lastBorrowRate",
      "outputs": [
        {
          "internalType": "uint256",
          "name": "",
          "type": "uint256"
        }
      ],
      "stateMutability": "view",
      "type": "function"
    },
    {
      "inputs": [],
      "name": "lastEthPrice",
      "outputs": [
        {
          "internalType": "uint256",
          "name": "",
          "type": "uint256"
        }
      ],
      "stateMutability": "view",
      "type": "function"
    },
    {
      "inputs": [],
      "name": "lastEthPriceTimestamp",
      "outputs": [
        {
          "internalType": "uint256",
          "name": "",
          "type": "uint256"
        }
      ],
      "stateMutability": "view",
      "type": "function"
    },
    {
      "inputs": [],
      "name": "lastUpdateTimestamp",
      "outputs": [
        {
          "internalType": "uint256",
          "name": "",
          "type": "uint256"
        }
      ],
      "stateMutability": "view",
      "type": "function"
    },
    {
      "inputs": [],
      "name": "maxBorrowRate",
      "outputs": [
        {
          "internalType": "uint256",
          "name": "",
          "type": "uint256"
        }
      ],
      "stateMutability": "view",
      "type": "function"
    },
    {
      "inputs": [],
      "name": "maxRateChange",
      "outputs": [
        {
          "internalType": "uint256",
          "name": "",
          "type": "uint256"
        }
      ],
      "stateMutability": "view",
      "type": "function"
    },
    {
      "inputs": [],
      "name": "oracleStalenessWindow",
      "outputs": [
        {
          "internalType": "uint256",
          "name": "",
          "type": "uint256"
        }
      ],
      "stateMutability": "view",
      "type": "function"
    },
    {
      "inputs": [],
      "name": "owner",
      "outputs": [
        {
          "internalType": "address",
          "name": "",
          "type": "address"
        }
      ],
      "stateMutability": "view",
      "type": "function"
    },
    {
      "inputs": [],
      "name": "protocolRiskAdjustment",
      "outputs": [
        {
          "internalType": "int256",
          "name": "",
          "type": "int256"
        }
      ],
      "stateMutability": "view",
      "type": "function"
    },
    {
      "inputs": [],
      "name": "renounceOwnership",
      "outputs": [],
      "stateMutability": "nonpayable",
      "type": "function"
    },
    {
      "inputs": [],
      "name": "reserveFactor",
      "outputs": [
        {
          "internalType": "uint256",
          "name": "",
          "type": "uint256"
        }
      ],
      "stateMutability": "view",
      "type": "function"
    },
    {
      "inputs": [],
      "name": "slope1",
      "outputs": [
        {
          "internalType": "uint256",
          "name": "",
          "type": "uint256"
        }
      ],
      "stateMutability": "view",
      "type": "function"
    },
    {
      "inputs": [],
      "name": "slope2",
      "outputs": [
        {
          "internalType": "uint256",
          "name": "",
          "type": "uint256"
        }
      ],
      "stateMutability": "view",
      "type": "function"
    },
    {
      "inputs": [
        {
          "internalType": "address",
          "name": "newOwner",
          "type": "address"
        }
      ],
      "name": "transferOwnership",
      "outputs": [],
      "stateMutability": "nonpayable",
      "type": "function"
    }
  ],
  "bytecode": "0x6080346101c257601f61062c38819003918201601f19168301926001600160401b0392909190838511838610176101ac57808392604096875283398101039261018084126101c257610050826101c7565b9361005d602084016101c7565b6101408092603f1901126101c257825194828601908111868210176101ac57835282840151855260608401519460208101958652608085015184820190815260a08601516060830190815260c0870151916080840192835260e08801519360a0810194855261010097888a01519660c083019788526101606101209b8c8101519a60e086019b8c528101519b85019b8c5201519a83019a8b5260018060a01b03809d16801561019457600080546001600160a01b03198082168417835594519f939291908416907f8be0079c531659141344cd1fd0a4f28419497f9722a3daafe3b4186f6b6457e09080a31690600d541617600d55519889600155516002555160035551600455516005555160065551600755516008555160095551600c556000601055600a5542600b5561045090816101dc8239f35b8251631e4fbdf760e01b815260006004820152602490fd5b634e487b7160e01b600052604160045260246000fd5b600080fd5b51906001600160a01b03821682036101c25756fe60806040818152600436101561001457600080fd5b600091823560e01c9081630730eb56146103d2575080630fa42b5a146103b457806314bcec9f146103965780631f68f20a146103785780634322b7141461035a5780637038fc4e1461033c578063715018a6146102df57806377398f48146102c15780638a97f9c9146102995780638da5cb5b14610272578063a52e39ab14610254578063a62b75a814610236578063c0f2c3c314610218578063d0134cb7146101fa578063e178dc5c146101dc578063e28aa8f8146101be578063e57ba155146101a0578063f2fde38b146101145763fd2da339146100f357600080fd5b346101105781600319360112610110576020906002549051908152f35b5080fd5b5034610110576020366003190112610110576001600160a01b03600435818116929083900361019c576101456103ee565b8215610185575082546001600160a01b0319811683178455167f8be0079c531659141344cd1fd0a4f28419497f9722a3daafe3b4186f6b6457e08380a380f35b51631e4fbdf760e01b815260048101849052602490fd5b8380fd5b5034610110578160031936011261011057602090600f549051908152f35b50346101105781600319360112610110576020906010549051908152f35b50346101105781600319360112610110576020906009549051908152f35b50346101105781600319360112610110576020906004549051908152f35b50346101105781600319360112610110576020906007549051908152f35b50346101105781600319360112610110576020906003549051908152f35b5034610110578160031936011261011057602090600c549051908152f35b5034610110578160031936011261011057905490516001600160a01b039091168152602090f35b5034610110578160031936011261011057600d5490516001600160a01b039091168152602090f35b50346101105781600319360112610110576020906008549051908152f35b82346103395780600319360112610339576102f86103ee565b80546001600160a01b03198116825581906001600160a01b03167f8be0079c531659141344cd1fd0a4f28419497f9722a3daafe3b4186f6b6457e08280a380f35b80fd5b5034610110578160031936011261011057602090600e549051908152f35b50346101105781600319360112610110576020906005549051908152f35b50346101105781600319360112610110576020906001549051908152f35b5034610110578160031936011261011057602090600b549051908152f35b50346101105781600319360112610110576020906006549051908152f35b839034610110578160031936011261011057602090600a548152f35b6000546001600160a01b0316330361040257565b60405163118cdaa760e01b8152336004820152602490fdfea2646970667358221220551d3f65d65a9ee6928fc7c2e606270bb352e08c5224b3588dc7483d6109a12564736f6c63430008140033",
  "linkReferences": {},
  "deployedLinkReferences": {}
}