{
  "_format": "hh-sol-artifact-1",
  "contractName": "LiquidityPoolV3",
  "sourceName": "contracts/LiquidityPoolV3.sol",
  "abi": [
    {
      "inputs": [],
      "name": "InvalidInitialization",
      "type": "error"
    },
    {
      "inputs": [],
      "name": "NotInitializing",
      "type": "error"
    },
    {
      "inputs": [
        {
          "internalType": "address",
          "name": "owner",
          "type": "address"
        }
      ],
      "name": "OwnableInvalidOwner",
      "type": "error"
    },
    {
      "inputs": [
        {
          "internalType": "address",
          "name": "account",
          "type": "address"
        }
      ],
      "name": "OwnableUnauthorizedAccount",
      "type": "error"
    },
    {
      "anonymous": false,
      "inputs": [
        {
          "indexed": true,
          "internalType": "address",
          "name": "user",
          "type": "address"
        },
        {
          "indexed": false,
          "internalType": "uint256",
          "name": "amount",
          "type": "uint256"
        }
      ],
      "name": "Borrowed",
      "type": "event"
    },
    {
      "anonymous": false,
      "inputs": [
        {
          "indexed": true,
          "internalType": "address",
          "name": "user",
          "type": "address"
        },
        {
          "indexed": true,
          "internalType": "address",
          "name": "token",
          "type": "address"
        },
        {
          "indexed": false,
          "internalType": "uint256",
          "name": "amount",
          "type": "uint256"
        }
      ],
      "name": "CollateralDeposited",
      "type": "event"
    },
    {
      "anonymous": false,
      "inputs": [
        {
          "indexed": true,
          "internalType": "address",
          "name": "token",
          "type": "address"
        },
        {
          "indexed": false,
          "internalType": "bool",
          "name": "isAllowed",
          "type": "bool"
        }
      ],
      "name": "CollateralTokenStatusChanged",
      "type": "event"
    },
    {
      "anonymous": false,
      "inputs": [
        {
          "indexed": true,
          "internalType": "address",
          "name": "user",
          "type": "address"
        },
        {
          "indexed": true,
          "internalType": "address",
          "name": "token",
          "type": "address"
        },
        {
          "indexed": false,
          "internalType": "uint256",
          "name": "amount",
          "type": "uint256"
        }
      ],
      "name": "CollateralWithdrawn",
      "type": "event"
    },
    {
      "anonymous": false,
      "inputs": [
        {
          "indexed": true,
          "internalType": "address",
          "name": "user",
          "type": "address"
        },
        {
          "indexed": false,
          "internalType": "uint256",
          "name": "score",
          "type": "uint256"
        }
      ],
      "name": "CreditScoreAssigned",
      "type": "event"
    },
    {
      "anonymous": false,
      "inputs": [
        {
          "indexed": true,
          "internalType": "address",
          "name": "owner",
          "type": "address"
        },
        {
          "indexed": false,
          "internalType": "uint256",
          "name": "amount",
          "type": "uint256"
        }
      ],
      "name": "Extracted",
      "type": "event"
    },
    {
      "anonymous": false,
      "inputs": [
        {
          "indexed": true,
          "internalType": "address",
          "name": "user",
          "type": "address"
        },
        {
          "indexed": false,
          "internalType": "uint256",
          "name": "newDeadline",
          "type": "uint256"
        }
      ],
      "name": "GracePeriodExtended",
      "type": "event"
    },
    {
      "anonymous": false,
      "inputs": [
        {
          "indexed": false,
          "internalType": "uint64",
          "name": "version",
          "type": "uint64"
        }
      ],
      "name": "Initialized",
      "type": "event"
    },
    {
      "anonymous": false,
      "inputs": [
        {
          "indexed": true,
          "internalType": "address",
          "name": "user",
          "type": "address"
        },
        {
          "indexed": true,
          "internalType": "address",
          "name": "liquidator",
          "type": "address"
        },
        {
          "indexed": false,
          "internalType": "uint256",
          "name": "amount",
          "type": "uint256"
        }
      ],
      "name": "LiquidationExecuted",
      "type": "event"
    },
    {
      "anonymous": false,
      "inputs": [
        {
          "indexed": true,
          "internalType": "address",
          "name": "user",
          "type": "address"
        }
      ],
      "name": "LiquidationStarted",
      "type": "event"
    },
    {
      "anonymous": false,
      "inputs": [
        {
          "indexed": true,
          "internalType": "address",
          "name": "previousOwner",
          "type": "address"
        },
        {
          "indexed": true,
          "internalType": "address",
          "name": "newOwner",
          "type": "address"
        }
      ],
      "name": "OwnershipTransferred",
      "type": "event"
    },
    {
      "anonymous": false,
      "inputs": [
        {
          "indexed": true,
          "internalType": "address",
          "name": "user",
          "type": "address"
        },
        {
          "indexed": false,
          "internalType": "uint256",
          "name": "amount",
          "type": "uint256"
        }
      ],
      "name": "Repaid",
      "type": "event"
    },
    {
      "inputs": [],
      "name": "DEFAULT_LIQUIDATION_THRESHOLD",
      "outputs": [
        {
          "internalType": "uint256",
          "name": "",
          "type": "uint256"
        }
      ],
      "stateMutability": "view",
      "type": "function"
    },
    {
      "inputs": [],
      "name": "GRACE_PERIOD",
      "outputs": [
        {
          "internalType": "uint256",
          "name": "",
          "type": "uint256"
        }
      ],
      "stateMutability": "view",
      "type": "function"
    },
    {
      "inputs": [],
      "name": "LIQUIDATION_PENALTY",
      "outputs": [
        {
          "internalType": "uint256",
          "name": "",
          "type": "uint256"
        }
      ],
      "stateMutability": "view",
      "type": "function"
    },
    {
      "inputs": [
        {
          "internalType": "uint256",
          "name": "amount",
          "type": "uint256"
        }
      ],
      "name": "borrow",
      "outputs": [],
      "stateMutability": "nonpayable",
      "type": "function"
    },
    {
      "inputs": [
        {
          "internalType": "address",
          "name": "",
          "type": "address"
        }
      ],
      "name": "borrowTimestamp",
      "outputs": [
        {
          "internalType": "uint256",
          "name": "",
          "type": "uint256"
        }
      ],
      "stateMutability": "view",
      "type": "function"
    },
    {
      "inputs": [
        {
          "internalType": "address",
          "name": "user",
          "type": "address"
        }
      ],
      "name": "checkCollateralization",
      "outputs": [
        {
          "internalType": "bool",
          "name": "isHealthy",
          "type": "bool"
        },
        {
          "internalType": "uint256",
          "name": "ratio",
          "type": "uint256"
        }
      ],
      "stateMutability": "view",
      "type": "function"
    },
    {
      "inputs": [
        {
          "internalType": "address",
          "name": "",
          "type": "address"
        },
        {
          "internalType": "address",
          "name": "",
          "type": "address"
        }
      ],
      "name": "collateralBalance",
      "outputs": [
        {
          "internalType": "uint256",
          "name": "",
          "type": "uint256"
        }
      ],
      "stateMutability": "view",
      "type": "function"
    },
    {
      "inputs": [
        {
          "internalType": "uint256",
          "name": "",
          "type": "uint256"
        }
      ],
      "name": "collateralTokenList",
      "outputs": [
        {
          "internalType": "address",
          "name": "",
          "type": "address"
        }
      ],
      "stateMutability": "view",
      "type": "function"
    },
    {
      "inputs": [
        {
          "internalType": "address",
          "name": "",
          "type": "address"
        }
      ],
      "name": "creditScore",
      "outputs": [
        {
          "internalType": "uint256",
          "name": "",
          "type": "uint256"
        }
      ],
      "stateMutability": "view",
      "type": "function"
    },
    {
      "inputs": [
        {
          "internalType": "address",
          "name": "token",
          "type": "address"
        },
        {
          "internalType": "uint256",
          "name": "amount",
          "type": "uint256"
        }
      ],
      "name": "depositCollateral",
      "outputs": [],
      "stateMutability": "nonpayable",
      "type": "function"
    },
    {
      "inputs": [
        {
          "internalType": "address",
          "name": "user",
          "type": "address"
        }
      ],
      "name": "executeLiquidation",
      "outputs": [],
      "stateMutability": "nonpayable",
      "type": "function"
    },
    {
      "inputs": [
        {
          "internalType": "uint256",
          "name": "amount",
          "type": "uint256"
        }
      ],
      "name": "extract",
      "outputs": [],
      "stateMutability": "nonpayable",
      "type": "function"
    },
    {
      "inputs": [],
      "name": "getAllowedCollateralTokens",
      "outputs": [
        {
          "internalType": "address[]",
          "name": "",
          "type": "address[]"
        }
      ],
      "stateMutability": "view",
      "type": "function"
    },
    {
      "inputs": [],
      "name": "getBalance",
      "outputs": [
        {
          "internalType": "uint256",
          "name": "",
          "type": "uint256"
        }
      ],
      "stateMutability": "view",
      "type": "function"
    },
    {
      "inputs": [
        {
          "internalType": "address",
          "name": "user",
          "type": "address"
        },
        {
          "internalType": "address",
          "name": "token",
          "type": "address"
        }
      ],
      "name": "getCollateral",
      "outputs": [
        {
          "internalType": "uint256",
          "name": "",
          "type": "uint256"
        }
      ],
      "stateMutability": "view",
      "type": "function"
    },
    {
      "inputs": [
        {
          "internalType": "address",
          "name": "token",
          "type": "address"
        }
      ],
      "name": "getLiquidationThreshold",
      "outputs": [
        {
          "internalType": "uint256",
          "name": "",
          "type": "uint256"
        }
      ],
      "stateMutability": "view",
      "type": "function"
    },
    {
      "inputs": [
        {
          "internalType": "address",
          "name": "user",
          "type": "address"
        }
      ],
      "name": "getMinCollateralRatio",
      "outputs": [
        {
          "internalType": "uint256",
          "name": "",
          "type": "uint256"
        }
      ],
      "stateMutability": "view",
      "type": "function"
    },
    {
      "inputs": [],
      "name": "getMyDebt",
      "outputs": [
        {
          "internalType": "uint256",
          "name": "",
          "type": "uint256"
        }
      ],
      "stateMutability": "view",
      "type": "function"
    },
    {
      "inputs": [
        {
          "internalType": "address",
          "name": "token",
          "type": "address"
        }
      ],
      "name": "getTokenValue",
      "outputs": [
        {
          "internalType": "uint256",
          "name": "",
          "type": "uint256"
        }
      ],
      "stateMutability": "view",
      "type": "function"
    },
    {
      "inputs": [
        {
          "internalType": "address",
          "name": "user",
          "type": "address"
        }
      ],
      "name": "getTotalCollateralValue",
      "outputs": [
        {
          "internalType": "uint256",
          "name": "",
          "type": "uint256"
        }
      ],
      "stateMutability": "view",
      "type": "function"
    },
    {
      "inputs": [
        {
          "internalType": "address",
          "name": "initialOwner",
          "type": "address"
        }
      ],
      "name": "initialize",
      "outputs": [],
      "stateMutability": "nonpayable",
      "type": "function"
    },
    {
      "inputs": [
        {
          "internalType": "address",
          "name": "",
          "type": "address"
        }
      ],
      "name": "isAllowedCollateral",
      "outputs": [
        {
          "internalType": "bool",
          "name": "",
          "type": "bool"
        }
      ],
      "stateMutability": "view",
      "type": "function"
    },
    {
      "inputs": [
        {
          "internalType": "address",
          "name": "",
          "type": "address"
        }
      ],
      "name": "isLiquidatable",
      "outputs": [
        {
          "internalType": "bool",
          "name": "",
          "type": "bool"
        }
      ],
      "stateMutability": "view",
      "type": "function"
    },
    {
      "inputs": [
        {
          "internalType": "address",
          "name": "",
          "type": "address"
        }
      ],
      "name": "liquidationStartTime",
      "outputs": [
        {
          "internalType": "uint256",
          "name": "",
          "type": "uint256"
        }
      ],
      "stateMutability": "view",
      "type": "function"
    },
    {
      "inputs": [
        {
          "internalType": "address",
          "name": "",
          "type": "address"
        }
      ],
      "name": "liquidationThreshold",
      "outputs": [
        {
          "internalType": "uint256",
          "name": "",
          "type": "uint256"
        }
      ],
      "stateMutability": "view",
      "type": "function"
    },
    {
      "inputs": [],
      "name": "owner",
      "outputs": [
        {
          "internalType": "address",
          "name": "",
          "type": "address"
        }
      ],
      "stateMutability": "view",
      "type": "function"
    },
    {
      "inputs": [
        {
          "internalType": "address",
          "name": "",
          "type": "address"
        }
      ],
      "name": "priceFeed",
      "outputs": [
        {
          "internalType": "address",
          "name": "",
          "type": "address"
        }
      ],
      "stateMutability": "view",
      "type": "function"
    },
    {
      "inputs": [
        {
          "internalType": "address",
          "name": "token",
          "type": "address"
        },
        {
          "internalType": "uint256",
          "name": "amount",
          "type": "uint256"
        }
      ],
      "name": "recoverFromLiquidation",
      "outputs": [],
      "stateMutability": "nonpayable",
      "type": "function"
    },
    {
      "inputs": [],
      "name": "renounceOwnership",
      "outputs": [],
      "stateMutability": "nonpayable",
      "type": "function"
    },
    {
      "inputs": [],
      "name": "repay",
      "outputs": [],
      "stateMutability": "payable",
      "type": "function"
    },
    {
      "inputs": [
        {
          "internalType": "address",
          "name": "token",
          "type": "address"
        },
        {
          "internalType": "bool",
          "name": "allowed",
          "type": "bool"
        }
      ],
      "name": "setAllowedCollateral",
      "outputs": [],
      "stateMutability": "nonpayable",
      "type": "function"
    },
    {
      "inputs": [
        {
          "internalType": "address",
          "name": "user",
          "type": "address"
        },
        {
          "internalType": "uint256",
          "name": "score",
          "type": "uint256"
        }
      ],
      "name": "setCreditScore",
      "outputs": [],
      "stateMutability": "nonpayable",
      "type": "function"
    },
    {
      "inputs": [
        {
          "internalType": "address",
          "name": "token",
          "type": "address"
        },
        {
          "internalType": "uint256",
          "name": "threshold",
          "type": "uint256"
        }
      ],
      "name": "setLiquidationThreshold",
      "outputs": [],
      "stateMutability": "nonpayable",
      "type": "function"
    },
    {
      "inputs": [
        {
          "internalType": "address",
          "name": "token",
          "type": "address"
        },
        {
          "internalType": "address",
          "name": "feed",
          "type": "address"
        }
      ],
      "name": "setPriceFeed",
      "outputs": [],
      "stateMutability": "nonpayable",
      "type": "function"
    },
    {
      "inputs": [
        {
          "internalType": "address",
          "name": "user",
          "type": "address"
        }
      ],
      "name": "startLiquidation",
      "outputs": [],
      "stateMutability": "nonpayable",
      "type": "function"
    },
    {
      "inputs": [],
      "name": "totalFunds",
      "outputs": [
        {
          "internalType": "uint256",
          "name": "",
          "type": "uint256"
        }
      ],
      "stateMutability": "view",
      "type": "function"
    },
    {
      "inputs": [
        {
          "internalType": "address",
          "name": "newOwner",
          "type": "address"
        }
      ],
      "name": "transferOwnership",
      "outputs": [],
      "stateMutability": "nonpayable",
      "type": "function"
    },
    {
      "inputs": [
        {
          "internalType": "address",
          "name": "",
          "type": "address"
        }
      ],
      "name": "userDebt",
      "outputs": [
        {
          "internalType": "uint256",
          "name": "",
          "type": "uint256"
        }
      ],
      "stateMutability": "view",
      "type": "function"
    },
    {
      "inputs": [
        {
          "internalType": "address",
          "name": "token",
          "type": "address"
        },
        {
          "internalType": "uint256",
          "name": "amount",
          "type": "uint256"
        }
      ],
      "name": "withdrawCollateral",
      "outputs": [],
      "stateMutability": "nonpayable",
      "type": "function"
    },
    {
      "stateMutability": "payable",
      "type": "receive"
    }
  ],
  "bytecode": "0x6080604052348015600f57600080fd5b5061453c8061001f6000396000f3fe6080604052600436106102345760003560e01c806397ed81cf1161012e578063c4d66de8116100ab578063e2e296791161006f578063e2e29679146108ae578063e7602b9d146108d7578063f1c5d6c214610914578063f2fde38b14610951578063f7e590ee1461097a57610253565b8063c4d66de8146107cb578063c5ebeaec146107f4578063cf1762251461081d578063d29255f914610848578063e1c501001461088557610253565b8063b69e5c77116100f2578063b69e5c77146106be578063bc53b762146106fb578063c129d50414610738578063c1a287e214610763578063c23c69d51461078e57610253565b806397ed81cf146105c75780639b8621d5146105f0578063a5d5db0c1461061b578063b1732b2514610644578063b3a5a0a21461068157610253565b806355f4d9e2116101bc5780637b86e42c116101805780637b86e42c146104cd57806385b397821461050a5780638da5cb5b146105335780638e6b53bc1461055e578063968ed6001461059c57610253565b806355f4d9e2146103ea5780636c648fc414610413578063715018a6146104505780637346f4861461046757806376e11286146104a457610253565b80631fd48b9a116102035780631fd48b9a14610312578063350c35e91461034f578063402d888314610378578063450a375a1461038257806352226ef0146103ad57610253565b8063042e02cf14610258578063080d9c2b146102955780630e30428d146102be57806312065fe0146102e757610253565b366102535734600a600082825461024b91906132c4565b925050819055005b600080fd5b34801561026457600080fd5b5061027f600480360381019061027a919061335b565b6109b7565b60405161028c91906133a3565b60405180910390f35b3480156102a157600080fd5b506102bc60048036038101906102b791906133ea565b6109d7565b005b3480156102ca57600080fd5b506102e560048036038101906102e091906133ea565b610c2d565b005b3480156102f357600080fd5b506102fc610d4c565b6040516103099190613439565b60405180910390f35b34801561031e57600080fd5b506103396004803603810190610334919061335b565b610d54565b6040516103469190613463565b60405180910390f35b34801561035b57600080fd5b50610376600480360381019061037191906133ea565b610d87565b005b6103806111b8565b005b34801561038e57600080fd5b5061039761149f565b6040516103a49190613439565b60405180910390f35b3480156103b957600080fd5b506103d460048036038101906103cf919061347e565b6114e6565b6040516103e19190613439565b60405180910390f35b3480156103f657600080fd5b50610411600480360381019061040c91906134ea565b61156c565b005b34801561041f57600080fd5b5061043a6004803603810190610435919061335b565b61172b565b6040516104479190613439565b60405180910390f35b34801561045c57600080fd5b50610465611841565b005b34801561047357600080fd5b5061048e6004803603810190610489919061335b565b611855565b60405161049b91906133a3565b60405180910390f35b3480156104b057600080fd5b506104cb60048036038101906104c6919061347e565b611875565b005b3480156104d957600080fd5b506104f460048036038101906104ef919061335b565b61198b565b6040516105019190613439565b60405180910390f35b34801561051657600080fd5b50610531600480360381019061052c919061352a565b6119e9565b005b34801561053f57600080fd5b50610548611af3565b6040516105559190613463565b60405180910390f35b34801561056a57600080fd5b506105856004803603810190610580919061335b565b611b2b565b604051610593929190613557565b60405180910390f35b3480156105a857600080fd5b506105b1611be5565b6040516105be9190613439565b60405180910390f35b3480156105d357600080fd5b506105ee60048036038101906105e991906133ea565b611beb565b005b3480156105fc57600080fd5b50610605611ccd565b6040516106129190613439565b60405180910390f35b34801561062757600080fd5b50610642600480360381019061063d91906133ea565b611cd2565b005b34801561065057600080fd5b5061066b6004803603810190610666919061335b565b611faa565b6040516106789190613439565b60405180910390f35b34801561068d57600080fd5b506106a860048036038101906106a3919061352a565b611fc2565b6040516106b59190613463565b60405180910390f35b3480156106ca57600080fd5b506106e560048036038101906106e0919061335b565b612001565b6040516106f29190613439565b60405180910390f35b34801561070757600080fd5b50610722600480360381019061071d919061335b565b612019565b60405161072f9190613439565b60405180910390f35b34801561074457600080fd5b5061074d612024565b60405161075a9190613439565b60405180910390f35b34801561076f57600080fd5b50610778612029565b6040516107859190613439565b60405180910390f35b34801561079a57600080fd5b506107b560048036038101906107b0919061335b565b612030565b6040516107c29190613439565b60405180910390f35b3480156107d757600080fd5b506107f260048036038101906107ed919061335b565b612048565b005b34801561080057600080fd5b5061081b6004803603810190610816919061352a565b6121d7565b005b34801561082957600080fd5b50610832612425565b60405161083f919061363e565b60405180910390f35b34801561085457600080fd5b5061086f600480360381019061086a919061335b565b61264d565b60405161087c9190613439565b60405180910390f35b34801561089157600080fd5b506108ac60048036038101906108a7919061335b565b612665565b005b3480156108ba57600080fd5b506108d560048036038101906108d0919061335b565b612824565b005b3480156108e357600080fd5b506108fe60048036038101906108f9919061347e565b612d15565b60405161090b9190613439565b60405180910390f35b34801561092057600080fd5b5061093b6004803603810190610936919061335b565b612d3a565b6040516109489190613439565b60405180910390f35b34801561095d57600080fd5b506109786004803603810190610973919061335b565b612f26565b005b34801561098657600080fd5b506109a1600480360381019061099c919061335b565b612fac565b6040516109ae9190613439565b60405180910390f35b60056020528060005260406000206000915054906101000a900460ff1681565b600560003373ffffffffffffffffffffffffffffffffffffffff1673ffffffffffffffffffffffffffffffffffffffff16815260200190815260200160002060009054906101000a900460ff16610a63576040517f08c379a0000000000000000000000000000000000000000000000000000000008152600401610a5a906136bd565b60405180910390fd5b8173ffffffffffffffffffffffffffffffffffffffff166323b872dd3330846040518463ffffffff1660e01b8152600401610aa0939291906136dd565b6020604051808303816000875af1158015610abf573d6000803e3d6000fd5b505050506040513d601f19601f82011682018060405250810190610ae39190613729565b50806000808473ffffffffffffffffffffffffffffffffffffffff1673ffffffffffffffffffffffffffffffffffffffff16815260200190815260200160002060003373ffffffffffffffffffffffffffffffffffffffff1673ffffffffffffffffffffffffffffffffffffffff1681526020019081526020016000206000828254610b6f91906132c4565b925050819055506000610b8133611b2b565b5090508015610c28576000600560003373ffffffffffffffffffffffffffffffffffffffff1673ffffffffffffffffffffffffffffffffffffffff16815260200190815260200160002060006101000a81548160ff0219169083151502179055506000600660003373ffffffffffffffffffffffffffffffffffffffff1673ffffffffffffffffffffffffffffffffffffffff168152602001908152602001600020819055505b505050565b610c35612fc4565b600160008373ffffffffffffffffffffffffffffffffffffffff1673ffffffffffffffffffffffffffffffffffffffff16815260200190815260200160002060009054906101000a900460ff16610cc1576040517f08c379a0000000000000000000000000000000000000000000000000000000008152600401610cb8906137a2565b60405180910390fd5b60648111610d04576040517f08c379a0000000000000000000000000000000000000000000000000000000008152600401610cfb9061380e565b60405180910390fd5b80600760008473ffffffffffffffffffffffffffffffffffffffff1673ffffffffffffffffffffffffffffffffffffffff168152602001908152602001600020819055505050565b600047905090565b60086020528060005260406000206000915054906101000a900473ffffffffffffffffffffffffffffffffffffffff1681565b600160008373ffffffffffffffffffffffffffffffffffffffff1673ffffffffffffffffffffffffffffffffffffffff16815260200190815260200160002060009054906101000a900460ff16610e13576040517f08c379a0000000000000000000000000000000000000000000000000000000008152600401610e0a9061387a565b60405180910390fd5b806000808473ffffffffffffffffffffffffffffffffffffffff1673ffffffffffffffffffffffffffffffffffffffff16815260200190815260200160002060003373ffffffffffffffffffffffffffffffffffffffff1673ffffffffffffffffffffffffffffffffffffffff168152602001908152602001600020541015610ed1576040517f08c379a0000000000000000000000000000000000000000000000000000000008152600401610ec8906138e6565b60405180910390fd5b600560003373ffffffffffffffffffffffffffffffffffffffff1673ffffffffffffffffffffffffffffffffffffffff16815260200190815260200160002060009054906101000a900460ff1615610f5e576040517f08c379a0000000000000000000000000000000000000000000000000000000008152600401610f5590613952565b60405180910390fd5b6000670de0b6b3a7640000610f7284612d3a565b83610f7d9190613972565b610f8791906139e3565b610f903361172b565b610f9a9190613a14565b9050610fa58361198b565b600360003373ffffffffffffffffffffffffffffffffffffffff1673ffffffffffffffffffffffffffffffffffffffff16815260200190815260200160002054610fef9190613972565b606482610ffc9190613972565b101561103d576040517f08c379a000000000000000000000000000000000000000000000000000000000815260040161103490613aba565b60405180910390fd5b816000808573ffffffffffffffffffffffffffffffffffffffff1673ffffffffffffffffffffffffffffffffffffffff16815260200190815260200160002060003373ffffffffffffffffffffffffffffffffffffffff1673ffffffffffffffffffffffffffffffffffffffff16815260200190815260200160002060008282546110c89190613a14565b925050819055508273ffffffffffffffffffffffffffffffffffffffff1663a9059cbb33846040518363ffffffff1660e01b815260040161110a929190613ada565b6020604051808303816000875af1158015611129573d6000803e3d6000fd5b505050506040513d601f19601f8201168201806040525081019061114d9190613729565b508273ffffffffffffffffffffffffffffffffffffffff163373ffffffffffffffffffffffffffffffffffffffff167f45892a46e6cef329bb642da6d69846d324db43d19008edc141ed82382eda1bee846040516111ab9190613439565b60405180910390a3505050565b6000600360003373ffffffffffffffffffffffffffffffffffffffff1673ffffffffffffffffffffffffffffffffffffffff168152602001908152602001600020541161123a576040517f08c379a000000000000000000000000000000000000000000000000000000000815260040161123190613b4f565b60405180910390fd5b600360003373ffffffffffffffffffffffffffffffffffffffff1673ffffffffffffffffffffffffffffffffffffffff168152602001908152602001600020543410156112bc576040517f08c379a00000000000000000000000000000000000000000000000000000000081526004016112b390613bbb565b60405180910390fd5b34600a60008282546112ce91906132c4565b925050819055503373ffffffffffffffffffffffffffffffffffffffff167f0516911bcc3a0a7412a44601057c0a0a1ec628bde049a84284bc4288665344883460405161131b9190613439565b60405180910390a26000600360003373ffffffffffffffffffffffffffffffffffffffff1673ffffffffffffffffffffffffffffffffffffffff168152602001908152602001600020819055506000600460003373ffffffffffffffffffffffffffffffffffffffff1673ffffffffffffffffffffffffffffffffffffffff16815260200190815260200160002081905550600560003373ffffffffffffffffffffffffffffffffffffffff1673ffffffffffffffffffffffffffffffffffffffff16815260200190815260200160002060009054906101000a900460ff161561149d576000600560003373ffffffffffffffffffffffffffffffffffffffff1673ffffffffffffffffffffffffffffffffffffffff16815260200190815260200160002060006101000a81548160ff0219169083151502179055506000600660003373ffffffffffffffffffffffffffffffffffffffff1673ffffffffffffffffffffffffffffffffffffffff168152602001908152602001600020819055505b565b6000600360003373ffffffffffffffffffffffffffffffffffffffff1673ffffffffffffffffffffffffffffffffffffffff16815260200190815260200160002054905090565b60008060008373ffffffffffffffffffffffffffffffffffffffff1673ffffffffffffffffffffffffffffffffffffffff16815260200190815260200160002060008473ffffffffffffffffffffffffffffffffffffffff1673ffffffffffffffffffffffffffffffffffffffff16815260200190815260200160002054905092915050565b611574612fc4565b80600160008473ffffffffffffffffffffffffffffffffffffffff1673ffffffffffffffffffffffffffffffffffffffff16815260200190815260200160002060006101000a81548160ff0219169083151502179055506000805b600980549050811015611663578373ffffffffffffffffffffffffffffffffffffffff166009828154811061160757611606613bdb565b5b9060005260206000200160009054906101000a900473ffffffffffffffffffffffffffffffffffffffff1673ffffffffffffffffffffffffffffffffffffffff16036116565760019150611663565b80806001019150506115cf565b5081801561166f575080155b156116d8576009839080600181540180825580915050600190039060005260206000200160009091909190916101000a81548173ffffffffffffffffffffffffffffffffffffffff021916908373ffffffffffffffffffffffffffffffffffffffff1602179055505b8273ffffffffffffffffffffffffffffffffffffffff167f15f5cc64ca777db85f6c05fdba671568758b38329616d4d4b43bb8b092fe9a8d8360405161171e91906133a3565b60405180910390a2505050565b60008060009050600061173c612425565b905060005b815181101561183657600082828151811061175f5761175e613bdb565b5b6020026020010151905060008060008373ffffffffffffffffffffffffffffffffffffffff1673ffffffffffffffffffffffffffffffffffffffff16815260200190815260200160002060008873ffffffffffffffffffffffffffffffffffffffff1673ffffffffffffffffffffffffffffffffffffffff168152602001908152602001600020549050600081111561182757670de0b6b3a764000061180483612d3a565b8261180f9190613972565b61181991906139e3565b8561182491906132c4565b94505b50508080600101915050611741565b508192505050919050565b611849612fc4565b611853600061304b565b565b60016020528060005260406000206000915054906101000a900460ff1681565b61187d612fc4565b600160008373ffffffffffffffffffffffffffffffffffffffff1673ffffffffffffffffffffffffffffffffffffffff16815260200190815260200160002060009054906101000a900460ff16611909576040517f08c379a0000000000000000000000000000000000000000000000000000000008152600401611900906137a2565b60405180910390fd5b80600860008473ffffffffffffffffffffffffffffffffffffffff1673ffffffffffffffffffffffffffffffffffffffff16815260200190815260200160002060006101000a81548173ffffffffffffffffffffffffffffffffffffffff021916908373ffffffffffffffffffffffffffffffffffffffff1602179055505050565b600080600760008473ffffffffffffffffffffffffffffffffffffffff1673ffffffffffffffffffffffffffffffffffffffff168152602001908152602001600020549050600081116119df5760826119e1565b805b915050919050565b6119f1612fc4565b47811115611a34576040517f08c379a0000000000000000000000000000000000000000000000000000000008152600401611a2b90613c56565b60405180910390fd5b80600a6000828254611a469190613a14565b92505081905550611a55611af3565b73ffffffffffffffffffffffffffffffffffffffff166108fc829081150290604051600060405180830381858888f19350505050158015611a9a573d6000803e3d6000fd5b50611aa3611af3565b73ffffffffffffffffffffffffffffffffffffffff167f69c169e5c85af54e1ca7e16608ccc812437821387924fb3353a7d053264ddaa082604051611ae89190613439565b60405180910390a250565b600080611afe613122565b90508060000160009054906101000a900473ffffffffffffffffffffffffffffffffffffffff1691505090565b6000806000611b398461172b565b90506000600360008673ffffffffffffffffffffffffffffffffffffffff1673ffffffffffffffffffffffffffffffffffffffff16815260200190815260200160002054905060008103611bb55760017fffffffffffffffffffffffffffffffffffffffffffffffffffffffffffffffff935093505050611be0565b80606483611bc39190613972565b611bcd91906139e3565b9250611bd885612019565b831015935050505b915091565b600a5481565b611bf3612fc4565b6064811115611c37576040517f08c379a0000000000000000000000000000000000000000000000000000000008152600401611c2e90613cc2565b60405180910390fd5b80600260008473ffffffffffffffffffffffffffffffffffffffff1673ffffffffffffffffffffffffffffffffffffffff168152602001908152602001600020819055508173ffffffffffffffffffffffffffffffffffffffff167f4afae6838a181695abc7978598380d73bc2144eb38580c130f86e4b1e6531e1582604051611cc19190613439565b60405180910390a25050565b600581565b600160008373ffffffffffffffffffffffffffffffffffffffff1673ffffffffffffffffffffffffffffffffffffffff16815260200190815260200160002060009054906101000a900460ff16611d5e576040517f08c379a0000000000000000000000000000000000000000000000000000000008152600401611d559061387a565b60405180910390fd5b60008111611da1576040517f08c379a0000000000000000000000000000000000000000000000000000000008152600401611d9890613d2e565b60405180910390fd5b600560003373ffffffffffffffffffffffffffffffffffffffff1673ffffffffffffffffffffffffffffffffffffffff16815260200190815260200160002060009054906101000a900460ff1615611e2e576040517f08c379a0000000000000000000000000000000000000000000000000000000008152600401611e2590613952565b60405180910390fd5b8173ffffffffffffffffffffffffffffffffffffffff166323b872dd3330846040518463ffffffff1660e01b8152600401611e6b939291906136dd565b6020604051808303816000875af1158015611e8a573d6000803e3d6000fd5b505050506040513d601f19601f82011682018060405250810190611eae9190613729565b50806000808473ffffffffffffffffffffffffffffffffffffffff1673ffffffffffffffffffffffffffffffffffffffff16815260200190815260200160002060003373ffffffffffffffffffffffffffffffffffffffff1673ffffffffffffffffffffffffffffffffffffffff1681526020019081526020016000206000828254611f3a91906132c4565b925050819055508173ffffffffffffffffffffffffffffffffffffffff163373ffffffffffffffffffffffffffffffffffffffff167ff1c0dd7e9b98bbff859029005ef89b127af049cd18df1a8d79f0b7e019911e5683604051611f9e9190613439565b60405180910390a35050565b60076020528060005260406000206000915090505481565b60098181548110611fd257600080fd5b906000526020600020016000915054906101000a900473ffffffffffffffffffffffffffffffffffffffff1681565b60036020528060005260406000206000915090505481565b600060829050919050565b608281565b6203f48081565b60066020528060005260406000206000915090505481565b600061205261314a565b905060008160000160089054906101000a900460ff1615905060008260000160009054906101000a900467ffffffffffffffff1690506000808267ffffffffffffffff161480156120a05750825b9050600060018367ffffffffffffffff161480156120d5575060003073ffffffffffffffffffffffffffffffffffffffff163b145b9050811580156120e3575080155b1561211a576040517ff92ee8a900000000000000000000000000000000000000000000000000000000815260040160405180910390fd5b60018560000160006101000a81548167ffffffffffffffff021916908367ffffffffffffffff160217905550831561216a5760018560000160086101000a81548160ff0219169083151502179055505b6121738661315e565b83156121cf5760008560000160086101000a81548160ff0219169083151502179055507fc7f505b2f371ae2175ee4913f4499e1f2633a7b5936321eed1cdaeb6115181d260016040516121c69190613da7565b60405180910390a15b505050505050565b4781111561221a576040517f08c379a000000000000000000000000000000000000000000000000000000000815260040161221190613e0e565b60405180910390fd5b6000600360003373ffffffffffffffffffffffffffffffffffffffff1673ffffffffffffffffffffffffffffffffffffffff168152602001908152602001600020541461229c576040517f08c379a000000000000000000000000000000000000000000000000000000000815260040161229390613e7a565b60405180910390fd5b60006122a73361172b565b90506082826122b69190613972565b6064826122c39190613972565b1015612304576040517f08c379a00000000000000000000000000000000000000000000000000000000081526004016122fb90613f0c565b60405180910390fd5b81600360003373ffffffffffffffffffffffffffffffffffffffff1673ffffffffffffffffffffffffffffffffffffffff1681526020019081526020016000208190555042600460003373ffffffffffffffffffffffffffffffffffffffff1673ffffffffffffffffffffffffffffffffffffffff168152602001908152602001600020819055503373ffffffffffffffffffffffffffffffffffffffff166108fc839081150290604051600060405180830381858888f193505050501580156123d2573d6000803e3d6000fd5b503373ffffffffffffffffffffffffffffffffffffffff167fac59582e5396aca512fa873a2047e7f4c80f8f55d4a06cb34a78a0187f62719f836040516124199190613439565b60405180910390a25050565b60606000805b6009805490508110156124e45760016000600983815481106124505761244f613bdb565b5b9060005260206000200160009054906101000a900473ffffffffffffffffffffffffffffffffffffffff1673ffffffffffffffffffffffffffffffffffffffff1673ffffffffffffffffffffffffffffffffffffffff16815260200190815260200160002060009054906101000a900460ff16156124d75781806124d390613f2c565b9250505b808060010191505061242b565b5060008167ffffffffffffffff81111561250157612500613f74565b5b60405190808252806020026020018201604052801561252f5781602001602082028036833780820191505090505b5090506000805b6009805490508110156126435760006009828154811061255957612558613bdb565b5b9060005260206000200160009054906101000a900473ffffffffffffffffffffffffffffffffffffffff169050600160008273ffffffffffffffffffffffffffffffffffffffff1673ffffffffffffffffffffffffffffffffffffffff16815260200190815260200160002060009054906101000a900460ff161561263557808484815181106125ec576125eb613bdb565b5b602002602001019073ffffffffffffffffffffffffffffffffffffffff16908173ffffffffffffffffffffffffffffffffffffffff1681525050828061263190613f2c565b9350505b508080600101915050612536565b5081935050505090565b60046020528060005260406000206000915090505481565b600061267082611b2b565b50905080156126b4576040517f08c379a00000000000000000000000000000000000000000000000000000000081526004016126ab90613fef565b60405180910390fd5b600560008373ffffffffffffffffffffffffffffffffffffffff1673ffffffffffffffffffffffffffffffffffffffff16815260200190815260200160002060009054906101000a900460ff1615612741576040517f08c379a00000000000000000000000000000000000000000000000000000000081526004016127389061405b565b60405180910390fd5b6001600560008473ffffffffffffffffffffffffffffffffffffffff1673ffffffffffffffffffffffffffffffffffffffff16815260200190815260200160002060006101000a81548160ff02191690831515021790555042600660008473ffffffffffffffffffffffffffffffffffffffff1673ffffffffffffffffffffffffffffffffffffffff168152602001908152602001600020819055508173ffffffffffffffffffffffffffffffffffffffff167f7f62ed89ea2c6fb057e4ea77729c1d3f18056339791fce29ac89760197b45b2960405160405180910390a25050565b600560008273ffffffffffffffffffffffffffffffffffffffff1673ffffffffffffffffffffffffffffffffffffffff16815260200190815260200160002060009054906101000a900460ff166128b0576040517f08c379a00000000000000000000000000000000000000000000000000000000081526004016128a7906140ed565b60405180910390fd5b6203f480600660008373ffffffffffffffffffffffffffffffffffffffff1673ffffffffffffffffffffffffffffffffffffffff168152602001908152602001600020546128fe91906132c4565b421015612940576040517f08c379a000000000000000000000000000000000000000000000000000000000815260040161293790614159565b60405180910390fd5b6000600360008373ffffffffffffffffffffffffffffffffffffffff1673ffffffffffffffffffffffffffffffffffffffff168152602001908152602001600020549050600060646005836129959190613972565b61299f91906139e3565b9050600081836129af91906132c4565b905060006129bb612425565b905060005b8151811015612b815760008282815181106129de576129dd613bdb565b5b6020026020010151905060008060008373ffffffffffffffffffffffffffffffffffffffff1673ffffffffffffffffffffffffffffffffffffffff16815260200190815260200160002060008973ffffffffffffffffffffffffffffffffffffffff1673ffffffffffffffffffffffffffffffffffffffff1681526020019081526020016000205490506000811115612b725760008060008473ffffffffffffffffffffffffffffffffffffffff1673ffffffffffffffffffffffffffffffffffffffff16815260200190815260200160002060008a73ffffffffffffffffffffffffffffffffffffffff1673ffffffffffffffffffffffffffffffffffffffff168152602001908152602001600020819055508173ffffffffffffffffffffffffffffffffffffffff1663a9059cbb33836040518363ffffffff1660e01b8152600401612b2d929190613ada565b6020604051808303816000875af1158015612b4c573d6000803e3d6000fd5b505050506040513d601f19601f82011682018060405250810190612b709190613729565b505b505080806001019150506129c0565b506000600360008773ffffffffffffffffffffffffffffffffffffffff1673ffffffffffffffffffffffffffffffffffffffff168152602001908152602001600020819055506000600460008773ffffffffffffffffffffffffffffffffffffffff1673ffffffffffffffffffffffffffffffffffffffff168152602001908152602001600020819055506000600560008773ffffffffffffffffffffffffffffffffffffffff1673ffffffffffffffffffffffffffffffffffffffff16815260200190815260200160002060006101000a81548160ff0219169083151502179055506000600660008773ffffffffffffffffffffffffffffffffffffffff1673ffffffffffffffffffffffffffffffffffffffff168152602001908152602001600020819055503373ffffffffffffffffffffffffffffffffffffffff168573ffffffffffffffffffffffffffffffffffffffff167f1175522017e08c2f400d7e516608eff60816ee9e8319158d174321234b60263184604051612d069190613439565b60405180910390a35050505050565b6000602052816000526040600020602052806000526040600020600091509150505481565b600080600860008473ffffffffffffffffffffffffffffffffffffffff1673ffffffffffffffffffffffffffffffffffffffff16815260200190815260200160002060009054906101000a900473ffffffffffffffffffffffffffffffffffffffff169050600073ffffffffffffffffffffffffffffffffffffffff168173ffffffffffffffffffffffffffffffffffffffff1603612e0e576040517f08c379a0000000000000000000000000000000000000000000000000000000008152600401612e05906141c5565b60405180910390fd5b600081905060008173ffffffffffffffffffffffffffffffffffffffff1663feaf968c6040518163ffffffff1660e01b815260040160a060405180830381865afa158015612e60573d6000803e3d6000fd5b505050506040513d601f19601f82011682018060405250810190612e849190614272565b5050509150508173ffffffffffffffffffffffffffffffffffffffff1663313ce5676040518163ffffffff1660e01b8152600401602060405180830381865afa158015612ed5573d6000803e3d6000fd5b505050506040513d601f19601f82011682018060405250810190612ef99190614326565b6012612f059190614353565b600a612f1191906144bb565b81612f1c9190613972565b9350505050919050565b612f2e612fc4565b600073ffffffffffffffffffffffffffffffffffffffff168173ffffffffffffffffffffffffffffffffffffffff1603612fa05760006040517f1e4fbdf7000000000000000000000000000000000000000000000000000000008152600401612f979190613463565b60405180910390fd5b612fa98161304b565b50565b60026020528060005260406000206000915090505481565b612fcc613172565b73ffffffffffffffffffffffffffffffffffffffff16612fea611af3565b73ffffffffffffffffffffffffffffffffffffffff16146130495761300d613172565b6040517f118cdaa70000000000000000000000000000000000000000000000000000000081526004016130409190613463565b60405180910390fd5b565b6000613055613122565b905060008160000160009054906101000a900473ffffffffffffffffffffffffffffffffffffffff169050828260000160006101000a81548173ffffffffffffffffffffffffffffffffffffffff021916908373ffffffffffffffffffffffffffffffffffffffff1602179055508273ffffffffffffffffffffffffffffffffffffffff168173ffffffffffffffffffffffffffffffffffffffff167f8be0079c531659141344cd1fd0a4f28419497f9722a3daafe3b4186f6b6457e060405160405180910390a3505050565b60007f9016d09d72d40fdae2fd8ceac6b6234c7706214fd39c1cd1e609a0528c199300905090565b60008061315561317a565b90508091505090565b6131666131a5565b61316f816131e5565b50565b600033905090565b60007ff0c57e16840df040f15088dc2f81fe391c3923bec73e23a9662efc9c229c6a0060001b905090565b6131ad61326b565b6131e3576040517fd7e6bcf800000000000000000000000000000000000000000000000000000000815260040160405180910390fd5b565b6131ed6131a5565b600073ffffffffffffffffffffffffffffffffffffffff168173ffffffffffffffffffffffffffffffffffffffff160361325f5760006040517f1e4fbdf70000000000000000000000000000000000000000000000000000000081526004016132569190613463565b60405180910390fd5b6132688161304b565b50565b600061327561314a565b60000160089054906101000a900460ff16905090565b6000819050919050565b7f4e487b7100000000000000000000000000000000000000000000000000000000600052601160045260246000fd5b60006132cf8261328b565b91506132da8361328b565b92508282019050808211156132f2576132f1613295565b5b92915050565b600080fd5b600073ffffffffffffffffffffffffffffffffffffffff82169050919050565b6000613328826132fd565b9050919050565b6133388161331d565b811461334357600080fd5b50565b6000813590506133558161332f565b92915050565b600060208284031215613371576133706132f8565b5b600061337f84828501613346565b91505092915050565b60008115159050919050565b61339d81613388565b82525050565b60006020820190506133b86000830184613394565b92915050565b6133c78161328b565b81146133d257600080fd5b50565b6000813590506133e4816133be565b92915050565b60008060408385031215613401576134006132f8565b5b600061340f85828601613346565b9250506020613420858286016133d5565b9150509250929050565b6134338161328b565b82525050565b600060208201905061344e600083018461342a565b92915050565b61345d8161331d565b82525050565b60006020820190506134786000830184613454565b92915050565b60008060408385031215613495576134946132f8565b5b60006134a385828601613346565b92505060206134b485828601613346565b9150509250929050565b6134c781613388565b81146134d257600080fd5b50565b6000813590506134e4816134be565b92915050565b60008060408385031215613501576135006132f8565b5b600061350f85828601613346565b9250506020613520858286016134d5565b9150509250929050565b6000602082840312156135405761353f6132f8565b5b600061354e848285016133d5565b91505092915050565b600060408201905061356c6000830185613394565b613579602083018461342a565b9392505050565b600081519050919050565b600082825260208201905092915050565b6000819050602082019050919050565b6135b58161331d565b82525050565b60006135c783836135ac565b60208301905092915050565b6000602082019050919050565b60006135eb82613580565b6135f5818561358b565b93506136008361359c565b8060005b8381101561363157815161361888826135bb565b9750613623836135d3565b925050600181019050613604565b5085935050505092915050565b6000602082019050818103600083015261365881846135e0565b905092915050565b600082825260208201905092915050565b7f4163636f756e74206e6f7420696e206c69717569646174696f6e000000000000600082015250565b60006136a7601a83613660565b91506136b282613671565b602082019050919050565b600060208201905081810360008301526136d68161369a565b9050919050565b60006060820190506136f26000830186613454565b6136ff6020830185613454565b61370c604083018461342a565b949350505050565b600081519050613723816134be565b92915050565b60006020828403121561373f5761373e6132f8565b5b600061374d84828501613714565b91505092915050565b7f546f6b656e206e6f7420616c6c6f77656420617320636f6c6c61746572616c00600082015250565b600061378c601f83613660565b915061379782613756565b602082019050919050565b600060208201905081810360008301526137bb8161377f565b9050919050565b7f5468726573686f6c64206d757374206265203e20313030250000000000000000600082015250565b60006137f8601883613660565b9150613803826137c2565b602082019050919050565b60006020820190508181036000830152613827816137eb565b9050919050565b7f546f6b656e206e6f7420616c6c6f776564000000000000000000000000000000600082015250565b6000613864601183613660565b915061386f8261382e565b602082019050919050565b6000602082019050818103600083015261389381613857565b9050919050565b7f496e73756666696369656e742062616c616e6365000000000000000000000000600082015250565b60006138d0601483613660565b91506138db8261389a565b602082019050919050565b600060208201905081810360008301526138ff816138c3565b9050919050565b7f4163636f756e7420697320696e206c69717569646174696f6e00000000000000600082015250565b600061393c601983613660565b915061394782613906565b602082019050919050565b6000602082019050818103600083015261396b8161392f565b9050919050565b600061397d8261328b565b91506139888361328b565b92508282026139968161328b565b915082820484148315176139ad576139ac613295565b5b5092915050565b7f4e487b7100000000000000000000000000000000000000000000000000000000600052601260045260246000fd5b60006139ee8261328b565b91506139f98361328b565b925082613a0957613a086139b4565b5b828204905092915050565b6000613a1f8261328b565b9150613a2a8361328b565b9250828203905081811115613a4257613a41613295565b5b92915050565b7f5769746864726177616c20776f756c64206d616b6520706f736974696f6e207560008201527f6e646572636f6c6c61746572616c697a65640000000000000000000000000000602082015250565b6000613aa4603283613660565b9150613aaf82613a48565b604082019050919050565b60006020820190508181036000830152613ad381613a97565b9050919050565b6000604082019050613aef6000830185613454565b613afc602083018461342a565b9392505050565b7f4e6f206163746976652064656274000000000000000000000000000000000000600082015250565b6000613b39600e83613660565b9150613b4482613b03565b602082019050919050565b60006020820190508181036000830152613b6881613b2c565b9050919050565b7f52657061796d656e7420746f6f206c6f77000000000000000000000000000000600082015250565b6000613ba5601183613660565b9150613bb082613b6f565b602082019050919050565b60006020820190508181036000830152613bd481613b98565b9050919050565b7f4e487b7100000000000000000000000000000000000000000000000000000000600052603260045260246000fd5b7f496e73756666696369656e7420636f6e74726163742062616c616e6365000000600082015250565b6000613c40601d83613660565b9150613c4b82613c0a565b602082019050919050565b60006020820190508181036000830152613c6f81613c33565b9050919050565b7f53636f7265206f7574206f662072616e67650000000000000000000000000000600082015250565b6000613cac601283613660565b9150613cb782613c76565b602082019050919050565b60006020820190508181036000830152613cdb81613c9f565b9050919050565b7f416d6f756e74206d757374206265203e20300000000000000000000000000000600082015250565b6000613d18601283613660565b9150613d2382613ce2565b602082019050919050565b60006020820190508181036000830152613d4781613d0b565b9050919050565b6000819050919050565b600067ffffffffffffffff82169050919050565b6000819050919050565b6000613d91613d8c613d8784613d4e565b613d6c565b613d58565b9050919050565b613da181613d76565b82525050565b6000602082019050613dbc6000830184613d98565b92915050565b7f496e73756666696369656e7420706f6f6c206c69717569646974790000000000600082015250565b6000613df8601b83613660565b9150613e0382613dc2565b602082019050919050565b60006020820190508181036000830152613e2781613deb565b9050919050565b7f526570617920796f7572206578697374696e6720646562742066697273740000600082015250565b6000613e64601e83613660565b9150613e6f82613e2e565b602082019050919050565b60006020820190508181036000830152613e9381613e57565b9050919050565b7f496e73756666696369656e7420636f6c6c61746572616c20666f72207468697360008201527f206c6f616e000000000000000000000000000000000000000000000000000000602082015250565b6000613ef6602583613660565b9150613f0182613e9a565b604082019050919050565b60006020820190508181036000830152613f2581613ee9565b9050919050565b6000613f378261328b565b91507fffffffffffffffffffffffffffffffffffffffffffffffffffffffffffffffff8203613f6957613f68613295565b5b600182019050919050565b7f4e487b7100000000000000000000000000000000000000000000000000000000600052604160045260246000fd5b7f506f736974696f6e206973206865616c74687900000000000000000000000000600082015250565b6000613fd9601383613660565b9150613fe482613fa3565b602082019050919050565b6000602082019050818103600083015261400881613fcc565b9050919050565b7f4c69717569646174696f6e20616c726561647920737461727465640000000000600082015250565b6000614045601b83613660565b91506140508261400f565b602082019050919050565b6000602082019050818103600083015261407481614038565b9050919050565b7f4163636f756e74206e6f74206d61726b656420666f72206c697175696461746960008201527f6f6e000000000000000000000000000000000000000000000000000000000000602082015250565b60006140d7602283613660565b91506140e28261407b565b604082019050919050565b60006020820190508181036000830152614106816140ca565b9050919050565b7f477261636520706572696f64206e6f7420656e64656400000000000000000000600082015250565b6000614143601683613660565b915061414e8261410d565b602082019050919050565b6000602082019050818103600083015261417281614136565b9050919050565b7f50726963652066656564206e6f74207365740000000000000000000000000000600082015250565b60006141af601283613660565b91506141ba82614179565b602082019050919050565b600060208201905081810360008301526141de816141a2565b9050919050565b600069ffffffffffffffffffff82169050919050565b614204816141e5565b811461420f57600080fd5b50565b600081519050614221816141fb565b92915050565b6000819050919050565b61423a81614227565b811461424557600080fd5b50565b60008151905061425781614231565b92915050565b60008151905061426c816133be565b92915050565b600080600080600060a0868803121561428e5761428d6132f8565b5b600061429c88828901614212565b95505060206142ad88828901614248565b94505060406142be8882890161425d565b93505060606142cf8882890161425d565b92505060806142e088828901614212565b9150509295509295909350565b600060ff82169050919050565b614303816142ed565b811461430e57600080fd5b50565b600081519050614320816142fa565b92915050565b60006020828403121561433c5761433b6132f8565b5b600061434a84828501614311565b91505092915050565b600061435e826142ed565b9150614369836142ed565b9250828203905060ff81111561438257614381613295565b5b92915050565b60008160011c9050919050565b6000808291508390505b60018511156143df578086048111156143bb576143ba613295565b5b60018516156143ca5780820291505b80810290506143d885614388565b945061439f565b94509492505050565b6000826143f857600190506144b4565b8161440657600090506144b4565b816001811461441c576002811461442657614455565b60019150506144b4565b60ff84111561443857614437613295565b5b8360020a91508482111561444f5761444e613295565b5b506144b4565b5060208310610133831016604e8410600b841016171561448a5782820a90508381111561448557614484613295565b5b6144b4565b6144978484846001614395565b925090508184048111156144ae576144ad613295565b5b81810290505b9392505050565b60006144c68261328b565b91506144d1836142ed565b92506144fe7fffffffffffffffffffffffffffffffffffffffffffffffffffffffffffffffff84846143e8565b90509291505056fea264697066735822122069e37ff71b193452619ee6ffcd8e28d733bb859083c697e475d0bd2e36cd3b2a64736f6c634300081c0033",
  "linkReferences": {},
  "deployedLinkReferences": {}
}