{
  "_format": "hh-sol-artifact-1",
  "contractName": "LiquidityPoolV2",
  "sourceName": "contracts/LiquidityPoolV2.sol",
  "abi": [
    {
      "inputs": [],
      "name": "InvalidInitialization",
      "type": "error"
    },
    {
      "inputs": [],
      "name": "NotInitializing",
      "type": "error"
    },
    {
      "inputs": [
        {
          "internalType": "address",
          "name": "owner",
          "type": "address"
        }
      ],
      "name": "OwnableInvalidOwner",
      "type": "error"
    },
    {
      "inputs": [
        {
          "internalType": "address",
          "name": "account",
          "type": "address"
        }
      ],
      "name": "OwnableUnauthorizedAccount",
      "type": "error"
    },
    {
      "anonymous": false,
      "inputs": [
        {
          "indexed": true,
          "internalType": "address",
          "name": "user",
          "type": "address"
        },
        {
          "indexed": false,
          "internalType": "uint256",
          "name": "amount",
          "type": "uint256"
        }
      ],
      "name": "Borrowed",
      "type": "event"
    },
    {
      "anonymous": false,
      "inputs": [
        {
          "indexed": true,
          "internalType": "address",
          "name": "user",
          "type": "address"
        },
        {
          "indexed": true,
          "internalType": "address",
          "name": "token",
          "type": "address"
        },
        {
          "indexed": false,
          "internalType": "uint256",
          "name": "amount",
          "type": "uint256"
        }
      ],
      "name": "CollateralDeposited",
      "type": "event"
    },
    {
      "anonymous": false,
      "inputs": [
        {
          "indexed": true,
          "internalType": "address",
          "name": "token",
          "type": "address"
        },
        {
          "indexed": false,
          "internalType": "bool",
          "name": "isAllowed",
          "type": "bool"
        }
      ],
      "name": "CollateralTokenStatusChanged",
      "type": "event"
    },
    {
      "anonymous": false,
      "inputs": [
        {
          "indexed": true,
          "internalType": "address",
          "name": "user",
          "type": "address"
        },
        {
          "indexed": true,
          "internalType": "address",
          "name": "token",
          "type": "address"
        },
        {
          "indexed": false,
          "internalType": "uint256",
          "name": "amount",
          "type": "uint256"
        }
      ],
      "name": "CollateralWithdrawn",
      "type": "event"
    },
    {
      "anonymous": false,
      "inputs": [
        {
          "indexed": true,
          "internalType": "address",
          "name": "user",
          "type": "address"
        },
        {
          "indexed": false,
          "internalType": "uint256",
          "name": "score",
          "type": "uint256"
        }
      ],
      "name": "CreditScoreAssigned",
      "type": "event"
    },
    {
      "anonymous": false,
      "inputs": [
        {
          "indexed": true,
          "internalType": "address",
          "name": "owner",
          "type": "address"
        },
        {
          "indexed": false,
          "internalType": "uint256",
          "name": "amount",
          "type": "uint256"
        }
      ],
      "name": "Extracted",
      "type": "event"
    },
    {
      "anonymous": false,
      "inputs": [
        {
          "indexed": false,
          "internalType": "uint64",
          "name": "version",
          "type": "uint64"
        }
      ],
      "name": "Initialized",
      "type": "event"
    },
    {
      "anonymous": false,
      "inputs": [
        {
          "indexed": true,
          "internalType": "address",
          "name": "previousOwner",
          "type": "address"
        },
        {
          "indexed": true,
          "internalType": "address",
          "name": "newOwner",
          "type": "address"
        }
      ],
      "name": "OwnershipTransferred",
      "type": "event"
    },
    {
      "anonymous": false,
      "inputs": [
        {
          "indexed": true,
          "internalType": "address",
          "name": "user",
          "type": "address"
        },
        {
          "indexed": false,
          "internalType": "uint256",
          "name": "amount",
          "type": "uint256"
        }
      ],
      "name": "Repaid",
      "type": "event"
    },
    {
      "inputs": [
        {
          "internalType": "uint256",
          "name": "amount",
          "type": "uint256"
        }
      ],
      "name": "borrow",
      "outputs": [],
      "stateMutability": "nonpayable",
      "type": "function"
    },
    {
      "inputs": [
        {
          "internalType": "address",
          "name": "",
          "type": "address"
        }
      ],
      "name": "borrowTimestamp",
      "outputs": [
        {
          "internalType": "uint256",
          "name": "",
          "type": "uint256"
        }
      ],
      "stateMutability": "view",
      "type": "function"
    },
    {
      "inputs": [
        {
          "internalType": "address",
          "name": "",
          "type": "address"
        },
        {
          "internalType": "address",
          "name": "",
          "type": "address"
        }
      ],
      "name": "collateralBalance",
      "outputs": [
        {
          "internalType": "uint256",
          "name": "",
          "type": "uint256"
        }
      ],
      "stateMutability": "view",
      "type": "function"
    },
    {
      "inputs": [
        {
          "internalType": "address",
          "name": "",
          "type": "address"
        }
      ],
      "name": "creditScore",
      "outputs": [
        {
          "internalType": "uint256",
          "name": "",
          "type": "uint256"
        }
      ],
      "stateMutability": "view",
      "type": "function"
    },
    {
      "inputs": [
        {
          "internalType": "address",
          "name": "token",
          "type": "address"
        },
        {
          "internalType": "uint256",
          "name": "amount",
          "type": "uint256"
        }
      ],
      "name": "depositCollateral",
      "outputs": [],
      "stateMutability": "nonpayable",
      "type": "function"
    },
    {
      "inputs": [
        {
          "internalType": "uint256",
          "name": "amount",
          "type": "uint256"
        }
      ],
      "name": "extract",
      "outputs": [],
      "stateMutability": "nonpayable",
      "type": "function"
    },
    {
      "inputs": [],
      "name": "getBalance",
      "outputs": [
        {
          "internalType": "uint256",
          "name": "",
          "type": "uint256"
        }
      ],
      "stateMutability": "view",
      "type": "function"
    },
    {
      "inputs": [
        {
          "internalType": "address",
          "name": "user",
          "type": "address"
        },
        {
          "internalType": "address",
          "name": "token",
          "type": "address"
        }
      ],
      "name": "getCollateral",
      "outputs": [
        {
          "internalType": "uint256",
          "name": "",
          "type": "uint256"
        }
      ],
      "stateMutability": "view",
      "type": "function"
    },
    {
      "inputs": [],
      "name": "getMyDebt",
      "outputs": [
        {
          "internalType": "uint256",
          "name": "",
          "type": "uint256"
        }
      ],
      "stateMutability": "view",
      "type": "function"
    },
    {
      "inputs": [
        {
          "internalType": "address",
          "name": "initialOwner",
          "type": "address"
        }
      ],
      "name": "initialize",
      "outputs": [],
      "stateMutability": "nonpayable",
      "type": "function"
    },
    {
      "inputs": [
        {
          "internalType": "address",
          "name": "",
          "type": "address"
        }
      ],
      "name": "isAllowedCollateral",
      "outputs": [
        {
          "internalType": "bool",
          "name": "",
          "type": "bool"
        }
      ],
      "stateMutability": "view",
      "type": "function"
    },
    {
      "inputs": [],
      "name": "owner",
      "outputs": [
        {
          "internalType": "address",
          "name": "",
          "type": "address"
        }
      ],
      "stateMutability": "view",
      "type": "function"
    },
    {
      "inputs": [],
      "name": "renounceOwnership",
      "outputs": [],
      "stateMutability": "nonpayable",
      "type": "function"
    },
    {
      "inputs": [],
      "name": "repay",
      "outputs": [],
      "stateMutability": "payable",
      "type": "function"
    },
    {
      "inputs": [
        {
          "internalType": "address",
          "name": "token",
          "type": "address"
        },
        {
          "internalType": "bool",
          "name": "allowed",
          "type": "bool"
        }
      ],
      "name": "setAllowedCollateral",
      "outputs": [],
      "stateMutability": "nonpayable",
      "type": "function"
    },
    {
      "inputs": [
        {
          "internalType": "address",
          "name": "user",
          "type": "address"
        },
        {
          "internalType": "uint256",
          "name": "score",
          "type": "uint256"
        }
      ],
      "name": "setCreditScore",
      "outputs": [],
      "stateMutability": "nonpayable",
      "type": "function"
    },
    {
      "inputs": [],
      "name": "totalFunds",
      "outputs": [
        {
          "internalType": "uint256",
          "name": "",
          "type": "uint256"
        }
      ],
      "stateMutability": "view",
      "type": "function"
    },
    {
      "inputs": [
        {
          "internalType": "address",
          "name": "newOwner",
          "type": "address"
        }
      ],
      "name": "transferOwnership",
      "outputs": [],
      "stateMutability": "nonpayable",
      "type": "function"
    },
    {
      "inputs": [
        {
          "internalType": "address",
          "name": "",
          "type": "address"
        }
      ],
      "name": "userDebt",
      "outputs": [
        {
          "internalType": "uint256",
          "name": "",
          "type": "uint256"
        }
      ],
      "stateMutability": "view",
      "type": "function"
    },
    {
      "inputs": [
        {
          "internalType": "address",
          "name": "token",
          "type": "address"
        },
        {
          "internalType": "uint256",
          "name": "amount",
          "type": "uint256"
        }
      ],
      "name": "withdrawCollateral",
      "outputs": [],
      "stateMutability": "nonpayable",
      "type": "function"
    },
    {
      "stateMutability": "payable",
      "type": "receive"
    }
  ],
  "bytecode": "0x6080604052348015600f57600080fd5b50611fbb8061001f6000396000f3fe6080604052600436106101235760003560e01c8063968ed600116100a0578063c5ebeaec11610064578063c5ebeaec146103c1578063d29255f9146103ea578063e7602b9d14610427578063f2fde38b14610464578063f7e590ee1461048d57610142565b8063968ed600146102de57806397ed81cf14610309578063a5d5db0c14610332578063b69e5c771461035b578063c4d66de81461039857610142565b806355f4d9e2116100e757806355f4d9e21461020d578063715018a6146102365780637346f4861461024d57806385b397821461028a5780638da5cb5b146102b357610142565b806312065fe014610147578063350c35e914610172578063402d88831461019b578063450a375a146101a557806352226ef0146101d057610142565b3661014257346005600082825461013a919061175f565b925050819055005b600080fd5b34801561015357600080fd5b5061015c6104ca565b60405161016991906117a2565b60405180910390f35b34801561017e57600080fd5b506101996004803603810190610194919061184c565b6104d2565b005b6101a36107da565b005b3480156101b157600080fd5b506101ba6109d1565b6040516101c791906117a2565b60405180910390f35b3480156101dc57600080fd5b506101f760048036038101906101f2919061188c565b610a18565b60405161020491906117a2565b60405180910390f35b34801561021957600080fd5b50610234600480360381019061022f9190611904565b610a9e565b005b34801561024257600080fd5b5061024b610b4f565b005b34801561025957600080fd5b50610274600480360381019061026f9190611944565b610b63565b6040516102819190611980565b60405180910390f35b34801561029657600080fd5b506102b160048036038101906102ac919061199b565b610b83565b005b3480156102bf57600080fd5b506102c8610c8d565b6040516102d591906119d7565b60405180910390f35b3480156102ea57600080fd5b506102f3610cc5565b60405161030091906117a2565b60405180910390f35b34801561031557600080fd5b50610330600480360381019061032b919061184c565b610ccb565b005b34801561033e57600080fd5b506103596004803603810190610354919061184c565b610dad565b005b34801561036757600080fd5b50610382600480360381019061037d9190611944565b610ff8565b60405161038f91906117a2565b60405180910390f35b3480156103a457600080fd5b506103bf60048036038101906103ba9190611944565b611010565b005b3480156103cd57600080fd5b506103e860048036038101906103e3919061199b565b61119f565b005b3480156103f657600080fd5b50610411600480360381019061040c9190611944565b611384565b60405161041e91906117a2565b60405180910390f35b34801561043357600080fd5b5061044e6004803603810190610449919061188c565b61139c565b60405161045b91906117a2565b60405180910390f35b34801561047057600080fd5b5061048b60048036038101906104869190611944565b6113c1565b005b34801561049957600080fd5b506104b460048036038101906104af9190611944565b611447565b6040516104c191906117a2565b60405180910390f35b600047905090565b600160008373ffffffffffffffffffffffffffffffffffffffff1673ffffffffffffffffffffffffffffffffffffffff16815260200190815260200160002060009054906101000a900460ff1661055e576040517f08c379a000000000000000000000000000000000000000000000000000000000815260040161055590611a4f565b60405180910390fd5b806000808473ffffffffffffffffffffffffffffffffffffffff1673ffffffffffffffffffffffffffffffffffffffff16815260200190815260200160002060003373ffffffffffffffffffffffffffffffffffffffff1673ffffffffffffffffffffffffffffffffffffffff16815260200190815260200160002054101561061c576040517f08c379a000000000000000000000000000000000000000000000000000000000815260040161061390611abb565b60405180910390fd5b806000808473ffffffffffffffffffffffffffffffffffffffff1673ffffffffffffffffffffffffffffffffffffffff16815260200190815260200160002060003373ffffffffffffffffffffffffffffffffffffffff1673ffffffffffffffffffffffffffffffffffffffff16815260200190815260200160002060008282546106a79190611adb565b9250508190555060008273ffffffffffffffffffffffffffffffffffffffff1663a9059cbb33846040518363ffffffff1660e01b81526004016106eb929190611b0f565b6020604051808303816000875af115801561070a573d6000803e3d6000fd5b505050506040513d601f19601f8201168201806040525081019061072e9190611b4d565b905080610770576040517f08c379a000000000000000000000000000000000000000000000000000000000815260040161076790611bc6565b60405180910390fd5b8273ffffffffffffffffffffffffffffffffffffffff163373ffffffffffffffffffffffffffffffffffffffff167f45892a46e6cef329bb642da6d69846d324db43d19008edc141ed82382eda1bee846040516107cd91906117a2565b60405180910390a3505050565b6000600360003373ffffffffffffffffffffffffffffffffffffffff1673ffffffffffffffffffffffffffffffffffffffff168152602001908152602001600020541161085c576040517f08c379a000000000000000000000000000000000000000000000000000000000815260040161085390611c32565b60405180910390fd5b600360003373ffffffffffffffffffffffffffffffffffffffff1673ffffffffffffffffffffffffffffffffffffffff168152602001908152602001600020543410156108de576040517f08c379a00000000000000000000000000000000000000000000000000000000081526004016108d590611c9e565b60405180910390fd5b34600560008282546108f0919061175f565b925050819055503373ffffffffffffffffffffffffffffffffffffffff167f0516911bcc3a0a7412a44601057c0a0a1ec628bde049a84284bc4288665344883460405161093d91906117a2565b60405180910390a26000600360003373ffffffffffffffffffffffffffffffffffffffff1673ffffffffffffffffffffffffffffffffffffffff168152602001908152602001600020819055506000600460003373ffffffffffffffffffffffffffffffffffffffff1673ffffffffffffffffffffffffffffffffffffffff16815260200190815260200160002081905550565b6000600360003373ffffffffffffffffffffffffffffffffffffffff1673ffffffffffffffffffffffffffffffffffffffff16815260200190815260200160002054905090565b60008060008373ffffffffffffffffffffffffffffffffffffffff1673ffffffffffffffffffffffffffffffffffffffff16815260200190815260200160002060008473ffffffffffffffffffffffffffffffffffffffff1673ffffffffffffffffffffffffffffffffffffffff16815260200190815260200160002054905092915050565b610aa661145f565b80600160008473ffffffffffffffffffffffffffffffffffffffff1673ffffffffffffffffffffffffffffffffffffffff16815260200190815260200160002060006101000a81548160ff0219169083151502179055508173ffffffffffffffffffffffffffffffffffffffff167f15f5cc64ca777db85f6c05fdba671568758b38329616d4d4b43bb8b092fe9a8d82604051610b439190611980565b60405180910390a25050565b610b5761145f565b610b6160006114e6565b565b60016020528060005260406000206000915054906101000a900460ff1681565b610b8b61145f565b47811115610bce576040517f08c379a0000000000000000000000000000000000000000000000000000000008152600401610bc590611d0a565b60405180910390fd5b8060056000828254610be09190611adb565b92505081905550610bef610c8d565b73ffffffffffffffffffffffffffffffffffffffff166108fc829081150290604051600060405180830381858888f19350505050158015610c34573d6000803e3d6000fd5b50610c3d610c8d565b73ffffffffffffffffffffffffffffffffffffffff167f69c169e5c85af54e1ca7e16608ccc812437821387924fb3353a7d053264ddaa082604051610c8291906117a2565b60405180910390a250565b600080610c986115bd565b90508060000160009054906101000a900473ffffffffffffffffffffffffffffffffffffffff1691505090565b60055481565b610cd361145f565b6064811115610d17576040517f08c379a0000000000000000000000000000000000000000000000000000000008152600401610d0e90611d76565b60405180910390fd5b80600260008473ffffffffffffffffffffffffffffffffffffffff1673ffffffffffffffffffffffffffffffffffffffff168152602001908152602001600020819055508173ffffffffffffffffffffffffffffffffffffffff167f4afae6838a181695abc7978598380d73bc2144eb38580c130f86e4b1e6531e1582604051610da191906117a2565b60405180910390a25050565b600160008373ffffffffffffffffffffffffffffffffffffffff1673ffffffffffffffffffffffffffffffffffffffff16815260200190815260200160002060009054906101000a900460ff16610e39576040517f08c379a0000000000000000000000000000000000000000000000000000000008152600401610e3090611a4f565b60405180910390fd5b60008111610e7c576040517f08c379a0000000000000000000000000000000000000000000000000000000008152600401610e7390611de2565b60405180910390fd5b8173ffffffffffffffffffffffffffffffffffffffff166323b872dd3330846040518463ffffffff1660e01b8152600401610eb993929190611e02565b6020604051808303816000875af1158015610ed8573d6000803e3d6000fd5b505050506040513d601f19601f82011682018060405250810190610efc9190611b4d565b50806000808473ffffffffffffffffffffffffffffffffffffffff1673ffffffffffffffffffffffffffffffffffffffff16815260200190815260200160002060003373ffffffffffffffffffffffffffffffffffffffff1673ffffffffffffffffffffffffffffffffffffffff1681526020019081526020016000206000828254610f88919061175f565b925050819055508173ffffffffffffffffffffffffffffffffffffffff163373ffffffffffffffffffffffffffffffffffffffff167ff1c0dd7e9b98bbff859029005ef89b127af049cd18df1a8d79f0b7e019911e5683604051610fec91906117a2565b60405180910390a35050565b60036020528060005260406000206000915090505481565b600061101a6115e5565b905060008160000160089054906101000a900460ff1615905060008260000160009054906101000a900467ffffffffffffffff1690506000808267ffffffffffffffff161480156110685750825b9050600060018367ffffffffffffffff1614801561109d575060003073ffffffffffffffffffffffffffffffffffffffff163b145b9050811580156110ab575080155b156110e2576040517ff92ee8a900000000000000000000000000000000000000000000000000000000815260040160405180910390fd5b60018560000160006101000a81548167ffffffffffffffff021916908367ffffffffffffffff16021790555083156111325760018560000160086101000a81548160ff0219169083151502179055505b61113b866115f9565b83156111975760008560000160086101000a81548160ff0219169083151502179055507fc7f505b2f371ae2175ee4913f4499e1f2633a7b5936321eed1cdaeb6115181d2600160405161118e9190611e92565b60405180910390a15b505050505050565b478111156111e2576040517f08c379a00000000000000000000000000000000000000000000000000000000081526004016111d990611ef9565b60405180910390fd5b6000600360003373ffffffffffffffffffffffffffffffffffffffff1673ffffffffffffffffffffffffffffffffffffffff1681526020019081526020016000205414611264576040517f08c379a000000000000000000000000000000000000000000000000000000000815260040161125b90611f65565b60405180910390fd5b80600360003373ffffffffffffffffffffffffffffffffffffffff1673ffffffffffffffffffffffffffffffffffffffff1681526020019081526020016000208190555042600460003373ffffffffffffffffffffffffffffffffffffffff1673ffffffffffffffffffffffffffffffffffffffff168152602001908152602001600020819055503373ffffffffffffffffffffffffffffffffffffffff166108fc829081150290604051600060405180830381858888f19350505050158015611332573d6000803e3d6000fd5b503373ffffffffffffffffffffffffffffffffffffffff167fac59582e5396aca512fa873a2047e7f4c80f8f55d4a06cb34a78a0187f62719f8260405161137991906117a2565b60405180910390a250565b60046020528060005260406000206000915090505481565b6000602052816000526040600020602052806000526040600020600091509150505481565b6113c961145f565b600073ffffffffffffffffffffffffffffffffffffffff168173ffffffffffffffffffffffffffffffffffffffff160361143b5760006040517f1e4fbdf700000000000000000000000000000000000000000000000000000000815260040161143291906119d7565b60405180910390fd5b611444816114e6565b50565b60026020528060005260406000206000915090505481565b61146761160d565b73ffffffffffffffffffffffffffffffffffffffff16611485610c8d565b73ffffffffffffffffffffffffffffffffffffffff16146114e4576114a861160d565b6040517f118cdaa70000000000000000000000000000000000000000000000000000000081526004016114db91906119d7565b60405180910390fd5b565b60006114f06115bd565b905060008160000160009054906101000a900473ffffffffffffffffffffffffffffffffffffffff169050828260000160006101000a81548173ffffffffffffffffffffffffffffffffffffffff021916908373ffffffffffffffffffffffffffffffffffffffff1602179055508273ffffffffffffffffffffffffffffffffffffffff168173ffffffffffffffffffffffffffffffffffffffff167f8be0079c531659141344cd1fd0a4f28419497f9722a3daafe3b4186f6b6457e060405160405180910390a3505050565b60007f9016d09d72d40fdae2fd8ceac6b6234c7706214fd39c1cd1e609a0528c199300905090565b6000806115f0611615565b90508091505090565b611601611640565b61160a81611680565b50565b600033905090565b60007ff0c57e16840df040f15088dc2f81fe391c3923bec73e23a9662efc9c229c6a0060001b905090565b611648611706565b61167e576040517fd7e6bcf800000000000000000000000000000000000000000000000000000000815260040160405180910390fd5b565b611688611640565b600073ffffffffffffffffffffffffffffffffffffffff168173ffffffffffffffffffffffffffffffffffffffff16036116fa5760006040517f1e4fbdf70000000000000000000000000000000000000000000000000000000081526004016116f191906119d7565b60405180910390fd5b611703816114e6565b50565b60006117106115e5565b60000160089054906101000a900460ff16905090565b6000819050919050565b7f4e487b7100000000000000000000000000000000000000000000000000000000600052601160045260246000fd5b600061176a82611726565b915061177583611726565b925082820190508082111561178d5761178c611730565b5b92915050565b61179c81611726565b82525050565b60006020820190506117b76000830184611793565b92915050565b600080fd5b600073ffffffffffffffffffffffffffffffffffffffff82169050919050565b60006117ed826117c2565b9050919050565b6117fd816117e2565b811461180857600080fd5b50565b60008135905061181a816117f4565b92915050565b61182981611726565b811461183457600080fd5b50565b60008135905061184681611820565b92915050565b60008060408385031215611863576118626117bd565b5b60006118718582860161180b565b925050602061188285828601611837565b9150509250929050565b600080604083850312156118a3576118a26117bd565b5b60006118b18582860161180b565b92505060206118c28582860161180b565b9150509250929050565b60008115159050919050565b6118e1816118cc565b81146118ec57600080fd5b50565b6000813590506118fe816118d8565b92915050565b6000806040838503121561191b5761191a6117bd565b5b60006119298582860161180b565b925050602061193a858286016118ef565b9150509250929050565b60006020828403121561195a576119596117bd565b5b60006119688482850161180b565b91505092915050565b61197a816118cc565b82525050565b60006020820190506119956000830184611971565b92915050565b6000602082840312156119b1576119b06117bd565b5b60006119bf84828501611837565b91505092915050565b6119d1816117e2565b82525050565b60006020820190506119ec60008301846119c8565b92915050565b600082825260208201905092915050565b7f546f6b656e206e6f7420616c6c6f776564000000000000000000000000000000600082015250565b6000611a396011836119f2565b9150611a4482611a03565b602082019050919050565b60006020820190508181036000830152611a6881611a2c565b9050919050565b7f496e73756666696369656e742062616c616e6365000000000000000000000000600082015250565b6000611aa56014836119f2565b9150611ab082611a6f565b602082019050919050565b60006020820190508181036000830152611ad481611a98565b9050919050565b6000611ae682611726565b9150611af183611726565b9250828203905081811115611b0957611b08611730565b5b92915050565b6000604082019050611b2460008301856119c8565b611b316020830184611793565b9392505050565b600081519050611b47816118d8565b92915050565b600060208284031215611b6357611b626117bd565b5b6000611b7184828501611b38565b91505092915050565b7f5769746864726177206661696c65640000000000000000000000000000000000600082015250565b6000611bb0600f836119f2565b9150611bbb82611b7a565b602082019050919050565b60006020820190508181036000830152611bdf81611ba3565b9050919050565b7f4e6f206163746976652064656274000000000000000000000000000000000000600082015250565b6000611c1c600e836119f2565b9150611c2782611be6565b602082019050919050565b60006020820190508181036000830152611c4b81611c0f565b9050919050565b7f52657061796d656e7420746f6f206c6f77000000000000000000000000000000600082015250565b6000611c886011836119f2565b9150611c9382611c52565b602082019050919050565b60006020820190508181036000830152611cb781611c7b565b9050919050565b7f496e73756666696369656e7420636f6e74726163742062616c616e6365000000600082015250565b6000611cf4601d836119f2565b9150611cff82611cbe565b602082019050919050565b60006020820190508181036000830152611d2381611ce7565b9050919050565b7f53636f7265206f7574206f662072616e67650000000000000000000000000000600082015250565b6000611d606012836119f2565b9150611d6b82611d2a565b602082019050919050565b60006020820190508181036000830152611d8f81611d53565b9050919050565b7f416d6f756e74206d757374206265203e20300000000000000000000000000000600082015250565b6000611dcc6012836119f2565b9150611dd782611d96565b602082019050919050565b60006020820190508181036000830152611dfb81611dbf565b9050919050565b6000606082019050611e1760008301866119c8565b611e2460208301856119c8565b611e316040830184611793565b949350505050565b6000819050919050565b600067ffffffffffffffff82169050919050565b6000819050919050565b6000611e7c611e77611e7284611e39565b611e57565b611e43565b9050919050565b611e8c81611e61565b82525050565b6000602082019050611ea76000830184611e83565b92915050565b7f496e73756666696369656e7420706f6f6c206c69717569646974790000000000600082015250565b6000611ee3601b836119f2565b9150611eee82611ead565b602082019050919050565b60006020820190508181036000830152611f1281611ed6565b9050919050565b7f526570617920796f7572206578697374696e6720646562742066697273740000600082015250565b6000611f4f601e836119f2565b9150611f5a82611f19565b602082019050919050565b60006020820190508181036000830152611f7e81611f42565b905091905056fea26469706673582212209da125bb580c390b6ed780aace3fe31b356343fa34f77026f5d68f02846ef99d64736f6c634300081c0033",
  "linkReferences": {},
  "deployedLinkReferences": {}
}