{
    "contractName": "LiquidityPoolV3",
    "abi": [
        {
            "inputs": [],
            "name": "AccessControlBadConfirmation",
            "type": "error"
        },
        {
            "inputs": [
                {
                    "internalType": "address",
                    "name": "account",
                    "type": "address"
                },
                {
                    "internalType": "bytes32",
                    "name": "neededRole",
                    "type": "bytes32"
                }
            ],
            "name": "AccessControlUnauthorizedAccount",
            "type": "error"
        },
        {
            "inputs": [],
            "name": "InvalidInitialization",
            "type": "error"
        },
        {
            "inputs": [],
            "name": "NotInitializing",
            "type": "error"
        },
        {
            "inputs": [
                {
                    "internalType": "address",
                    "name": "owner",
                    "type": "address"
                }
            ],
            "name": "OwnableInvalidOwner",
            "type": "error"
        },
        {
            "inputs": [
                {
                    "internalType": "address",
                    "name": "account",
                    "type": "address"
                }
            ],
            "name": "OwnableUnauthorizedAccount",
            "type": "error"
        },
        {
            "anonymous": false,
            "inputs": [
                {
                    "indexed": true,
                    "internalType": "address",
                    "name": "user",
                    "type": "address"
                },
                {
                    "indexed": false,
                    "internalType": "uint256",
                    "name": "amount",
                    "type": "uint256"
                }
            ],
            "name": "Borrowed",
            "type": "event"
        },
        {
            "anonymous": false,
            "inputs": [
                {
                    "indexed": true,
                    "internalType": "address",
                    "name": "user",
                    "type": "address"
                },
                {
                    "indexed": true,
                    "internalType": "address",
                    "name": "token",
                    "type": "address"
                },
                {
                    "indexed": false,
                    "internalType": "uint256",
                    "name": "amount",
                    "type": "uint256"
                }
            ],
            "name": "CollateralDeposited",
            "type": "event"
        },
        {
            "anonymous": false,
            "inputs": [
                {
                    "indexed": true,
                    "internalType": "address",
                    "name": "token",
                    "type": "address"
                },
                {
                    "indexed": false,
                    "internalType": "bool",
                    "name": "isAllowed",
                    "type": "bool"
                }
            ],
            "name": "CollateralTokenStatusChanged",
            "type": "event"
        },
        {
            "anonymous": false,
            "inputs": [
                {
                    "indexed": true,
                    "internalType": "address",
                    "name": "user",
                    "type": "address"
                },
                {
                    "indexed": true,
                    "internalType": "address",
                    "name": "token",
                    "type": "address"
                },
                {
                    "indexed": false,
                    "internalType": "uint256",
                    "name": "amount",
                    "type": "uint256"
                }
            ],
            "name": "CollateralWithdrawn",
            "type": "event"
        },
        {
            "anonymous": false,
            "inputs": [
                {
                    "indexed": true,
                    "internalType": "address",
                    "name": "user",
                    "type": "address"
                },
                {
                    "indexed": false,
                    "internalType": "uint256",
                    "name": "score",
                    "type": "uint256"
                }
            ],
            "name": "CreditScoreAssigned",
            "type": "event"
        },
        {
            "anonymous": false,
            "inputs": [
                {
                    "indexed": false,
                    "internalType": "bool",
                    "name": "isPaused",
                    "type": "bool"
                }
            ],
            "name": "EmergencyPaused",
            "type": "event"
        },
        {
            "anonymous": false,
            "inputs": [
                {
                    "indexed": true,
                    "internalType": "address",
                    "name": "owner",
                    "type": "address"
                },
                {
                    "indexed": false,
                    "internalType": "uint256",
                    "name": "amount",
                    "type": "uint256"
                }
            ],
            "name": "Extracted",
            "type": "event"
        },
        {
            "anonymous": false,
            "inputs": [
                {
                    "indexed": true,
                    "internalType": "address",
                    "name": "user",
                    "type": "address"
                },
                {
                    "indexed": false,
                    "internalType": "uint256",
                    "name": "newDeadline",
                    "type": "uint256"
                }
            ],
            "name": "GracePeriodExtended",
            "type": "event"
        },
        {
            "anonymous": false,
            "inputs": [
                {
                    "indexed": false,
                    "internalType": "uint64",
                    "name": "version",
                    "type": "uint64"
                }
            ],
            "name": "Initialized",
            "type": "event"
        },
        {
            "anonymous": false,
            "inputs": [
                {
                    "indexed": true,
                    "internalType": "address",
                    "name": "user",
                    "type": "address"
                },
                {
                    "indexed": true,
                    "internalType": "address",
                    "name": "liquidator",
                    "type": "address"
                },
                {
                    "indexed": false,
                    "internalType": "uint256",
                    "name": "amount",
                    "type": "uint256"
                }
            ],
            "name": "LiquidationExecuted",
            "type": "event"
        },
        {
            "anonymous": false,
            "inputs": [
                {
                    "indexed": true,
                    "internalType": "address",
                    "name": "user",
                    "type": "address"
                }
            ],
            "name": "LiquidationStarted",
            "type": "event"
        },
        {
            "anonymous": false,
            "inputs": [
                {
                    "indexed": true,
                    "internalType": "address",
                    "name": "previousOwner",
                    "type": "address"
                },
                {
                    "indexed": true,
                    "internalType": "address",
                    "name": "newOwner",
                    "type": "address"
                }
            ],
            "name": "OwnershipTransferred",
            "type": "event"
        },
        {
            "anonymous": false,
            "inputs": [
                {
                    "indexed": true,
                    "internalType": "address",
                    "name": "user",
                    "type": "address"
                },
                {
                    "indexed": false,
                    "internalType": "uint256",
                    "name": "amount",
                    "type": "uint256"
                }
            ],
            "name": "Repaid",
            "type": "event"
        },
        {
            "anonymous": false,
            "inputs": [
                {
                    "indexed": true,
                    "internalType": "bytes32",
                    "name": "role",
                    "type": "bytes32"
                },
                {
                    "indexed": true,
                    "internalType": "bytes32",
                    "name": "previousAdminRole",
                    "type": "bytes32"
                },
                {
                    "indexed": true,
                    "internalType": "bytes32",
                    "name": "newAdminRole",
                    "type": "bytes32"
                }
            ],
            "name": "RoleAdminChanged",
            "type": "event"
        },
        {
            "anonymous": false,
            "inputs": [
                {
                    "indexed": true,
                    "internalType": "bytes32",
                    "name": "role",
                    "type": "bytes32"
                },
                {
                    "indexed": true,
                    "internalType": "address",
                    "name": "account",
                    "type": "address"
                },
                {
                    "indexed": true,
                    "internalType": "address",
                    "name": "sender",
                    "type": "address"
                }
            ],
            "name": "RoleGranted",
            "type": "event"
        },
        {
            "anonymous": false,
            "inputs": [
                {
                    "indexed": true,
                    "internalType": "bytes32",
                    "name": "role",
                    "type": "bytes32"
                },
                {
                    "indexed": true,
                    "internalType": "address",
                    "name": "account",
                    "type": "address"
                },
                {
                    "indexed": true,
                    "internalType": "address",
                    "name": "sender",
                    "type": "address"
                }
            ],
            "name": "RoleRevoked",
            "type": "event"
        },
        {
            "inputs": [],
            "name": "DEFAULT_ADMIN_ROLE",
            "outputs": [
                {
                    "internalType": "bytes32",
                    "name": "",
                    "type": "bytes32"
                }
            ],
            "stateMutability": "view",
            "type": "function"
        },
        {
            "inputs": [],
            "name": "DEFAULT_LIQUIDATION_THRESHOLD",
            "outputs": [
                {
                    "internalType": "uint256",
                    "name": "",
                    "type": "uint256"
                }
            ],
            "stateMutability": "view",
            "type": "function"
        },
        {
            "inputs": [],
            "name": "GRACE_PERIOD",
            "outputs": [
                {
                    "internalType": "uint256",
                    "name": "",
                    "type": "uint256"
                }
            ],
            "stateMutability": "view",
            "type": "function"
        },
        {
            "inputs": [],
            "name": "LIQUIDATION_PENALTY",
            "outputs": [
                {
                    "internalType": "uint256",
                    "name": "",
                    "type": "uint256"
                }
            ],
            "stateMutability": "view",
            "type": "function"
        },
        {
            "inputs": [
                {
                    "internalType": "uint256",
                    "name": "amount",
                    "type": "uint256"
                }
            ],
            "name": "borrow",
            "outputs": [],
            "stateMutability": "nonpayable",
            "type": "function"
        },
        {
            "inputs": [
                {
                    "internalType": "address",
                    "name": "",
                    "type": "address"
                }
            ],
            "name": "borrowTimestamp",
            "outputs": [
                {
                    "internalType": "uint256",
                    "name": "",
                    "type": "uint256"
                }
            ],
            "stateMutability": "view",
            "type": "function"
        },
        {
            "inputs": [
                {
                    "internalType": "address",
                    "name": "user",
                    "type": "address"
                }
            ],
            "name": "checkCollateralization",
            "outputs": [
                {
                    "internalType": "bool",
                    "name": "isHealthy",
                    "type": "bool"
                },
                {
                    "internalType": "uint256",
                    "name": "ratio",
                    "type": "uint256"
                }
            ],
            "stateMutability": "view",
            "type": "function"
        },
        {
            "inputs": [
                {
                    "internalType": "bytes",
                    "name": "",
                    "type": "bytes"
                }
            ],
            "name": "checkUpkeep",
            "outputs": [
                {
                    "internalType": "bool",
                    "name": "upkeepNeeded",
                    "type": "bool"
                },
                {
                    "internalType": "bytes",
                    "name": "performData",
                    "type": "bytes"
                }
            ],
            "stateMutability": "view",
            "type": "function"
        },
        {
            "inputs": [
                {
                    "internalType": "address",
                    "name": "",
                    "type": "address"
                },
                {
                    "internalType": "address",
                    "name": "",
                    "type": "address"
                }
            ],
            "name": "collateralBalance",
            "outputs": [
                {
                    "internalType": "uint256",
                    "name": "",
                    "type": "uint256"
                }
            ],
            "stateMutability": "view",
            "type": "function"
        },
        {
            "inputs": [
                {
                    "internalType": "uint256",
                    "name": "",
                    "type": "uint256"
                }
            ],
            "name": "collateralTokenList",
            "outputs": [
                {
                    "internalType": "address",
                    "name": "",
                    "type": "address"
                }
            ],
            "stateMutability": "view",
            "type": "function"
        },
        {
            "inputs": [
                {
                    "internalType": "address",
                    "name": "",
                    "type": "address"
                }
            ],
            "name": "creditScore",
            "outputs": [
                {
                    "internalType": "uint256",
                    "name": "",
                    "type": "uint256"
                }
            ],
            "stateMutability": "view",
            "type": "function"
        },
        {
            "inputs": [
                {
                    "internalType": "address",
                    "name": "token",
                    "type": "address"
                },
                {
                    "internalType": "uint256",
                    "name": "amount",
                    "type": "uint256"
                }
            ],
            "name": "depositCollateral",
            "outputs": [],
            "stateMutability": "nonpayable",
            "type": "function"
        },
        {
            "inputs": [
                {
                    "internalType": "address",
                    "name": "user",
                    "type": "address"
                }
            ],
            "name": "executeLiquidation",
            "outputs": [],
            "stateMutability": "nonpayable",
            "type": "function"
        },
        {
            "inputs": [
                {
                    "internalType": "uint256",
                    "name": "amount",
                    "type": "uint256"
                }
            ],
            "name": "extract",
            "outputs": [],
            "stateMutability": "nonpayable",
            "type": "function"
        },
        {
            "inputs": [],
            "name": "getAdmin",
            "outputs": [
                {
                    "internalType": "address",
                    "name": "",
                    "type": "address"
                }
            ],
            "stateMutability": "view",
            "type": "function"
        },
        {
            "inputs": [],
            "name": "getAllUsers",
            "outputs": [
                {
                    "internalType": "address[]",
                    "name": "",
                    "type": "address[]"
                }
            ],
            "stateMutability": "view",
            "type": "function"
        },
        {
            "inputs": [],
            "name": "getAllowedCollateralTokens",
            "outputs": [
                {
                    "internalType": "address[]",
                    "name": "",
                    "type": "address[]"
                }
            ],
            "stateMutability": "view",
            "type": "function"
        },
        {
            "inputs": [],
            "name": "getBalance",
            "outputs": [
                {
                    "internalType": "uint256",
                    "name": "",
                    "type": "uint256"
                }
            ],
            "stateMutability": "view",
            "type": "function"
        },
        {
            "inputs": [
                {
                    "internalType": "address",
                    "name": "user",
                    "type": "address"
                },
                {
                    "internalType": "address",
                    "name": "token",
                    "type": "address"
                }
            ],
            "name": "getCollateral",
            "outputs": [
                {
                    "internalType": "uint256",
                    "name": "",
                    "type": "uint256"
                }
            ],
            "stateMutability": "view",
            "type": "function"
        },
        {
            "inputs": [
                {
                    "internalType": "address",
                    "name": "user",
                    "type": "address"
                }
            ],
            "name": "getCreditScore",
            "outputs": [
                {
                    "internalType": "uint256",
                    "name": "",
                    "type": "uint256"
                }
            ],
            "stateMutability": "view",
            "type": "function"
        },
        {
            "inputs": [],
            "name": "getInterestRate",
            "outputs": [
                {
                    "internalType": "uint256",
                    "name": "",
                    "type": "uint256"
                }
            ],
            "stateMutability": "view",
            "type": "function"
        },
        {
            "inputs": [
                {
                    "internalType": "address",
                    "name": "token",
                    "type": "address"
                }
            ],
            "name": "getLiquidationThreshold",
            "outputs": [
                {
                    "internalType": "uint256",
                    "name": "",
                    "type": "uint256"
                }
            ],
            "stateMutability": "view",
            "type": "function"
        },
        {
            "inputs": [],
            "name": "getMaxBorrowAmount",
            "outputs": [
                {
                    "internalType": "uint256",
                    "name": "",
                    "type": "uint256"
                }
            ],
            "stateMutability": "view",
            "type": "function"
        },
        {
            "inputs": [],
            "name": "getMaxCollateralAmount",
            "outputs": [
                {
                    "internalType": "uint256",
                    "name": "",
                    "type": "uint256"
                }
            ],
            "stateMutability": "view",
            "type": "function"
        },
        {
            "inputs": [],
            "name": "getMaxLiquidationAmount",
            "outputs": [
                {
                    "internalType": "uint256",
                    "name": "",
                    "type": "uint256"
                }
            ],
            "stateMutability": "view",
            "type": "function"
        },
        {
            "inputs": [],
            "name": "getMaxLiquidationBonus",
            "outputs": [
                {
                    "internalType": "uint256",
                    "name": "",
                    "type": "uint256"
                }
            ],
            "stateMutability": "view",
            "type": "function"
        },
        {
            "inputs": [],
            "name": "getMaxLiquidationDelay",
            "outputs": [
                {
                    "internalType": "uint256",
                    "name": "",
                    "type": "uint256"
                }
            ],
            "stateMutability": "view",
            "type": "function"
        },
        {
            "inputs": [],
            "name": "getMaxLiquidationGracePeriod",
            "outputs": [
                {
                    "internalType": "uint256",
                    "name": "",
                    "type": "uint256"
                }
            ],
            "stateMutability": "view",
            "type": "function"
        },
        {
            "inputs": [],
            "name": "getMaxLiquidationPenalty",
            "outputs": [
                {
                    "internalType": "uint256",
                    "name": "",
                    "type": "uint256"
                }
            ],
            "stateMutability": "view",
            "type": "function"
        },
        {
            "inputs": [],
            "name": "getMaxLiquidationRatio",
            "outputs": [
                {
                    "internalType": "uint256",
                    "name": "",
                    "type": "uint256"
                }
            ],
            "stateMutability": "view",
            "type": "function"
        },
        {
            "inputs": [],
            "name": "getMaxLiquidationThreshold",
            "outputs": [
                {
                    "internalType": "uint256",
                    "name": "",
                    "type": "uint256"
                }
            ],
            "stateMutability": "view",
            "type": "function"
        },
        {
            "inputs": [],
            "name": "getMaxLiquidationTime",
            "outputs": [
                {
                    "internalType": "uint256",
                    "name": "",
                    "type": "uint256"
                }
            ],
            "stateMutability": "view",
            "type": "function"
        },
        {
            "inputs": [],
            "name": "getMinCollateralRatio",
            "outputs": [
                {
                    "internalType": "uint256",
                    "name": "",
                    "type": "uint256"
                }
            ],
            "stateMutability": "view",
            "type": "function"
        },
        {
            "inputs": [],
            "name": "getMyDebt",
            "outputs": [
                {
                    "internalType": "uint256",
                    "name": "",
                    "type": "uint256"
                }
            ],
            "stateMutability": "view",
            "type": "function"
        },
        {
            "inputs": [
                {
                    "internalType": "bytes32",
                    "name": "role",
                    "type": "bytes32"
                }
            ],
            "name": "getRoleAdmin",
            "outputs": [
                {
                    "internalType": "bytes32",
                    "name": "",
                    "type": "bytes32"
                }
            ],
            "stateMutability": "view",
            "type": "function"
        },
        {
            "inputs": [
                {
                    "internalType": "address",
                    "name": "token",
                    "type": "address"
                }
            ],
            "name": "getTokenValue",
            "outputs": [
                {
                    "internalType": "uint256",
                    "name": "",
                    "type": "uint256"
                }
            ],
            "stateMutability": "view",
            "type": "function"
        },
        {
            "inputs": [
                {
                    "internalType": "address",
                    "name": "user",
                    "type": "address"
                }
            ],
            "name": "getTotalCollateralValue",
            "outputs": [
                {
                    "internalType": "uint256",
                    "name": "",
                    "type": "uint256"
                }
            ],
            "stateMutability": "view",
            "type": "function"
        },
        {
            "inputs": [
                {
                    "internalType": "bytes32",
                    "name": "role",
                    "type": "bytes32"
                },
                {
                    "internalType": "address",
                    "name": "account",
                    "type": "address"
                }
            ],
            "name": "grantRole",
            "outputs": [],
            "stateMutability": "nonpayable",
            "type": "function"
        },
        {
            "inputs": [
                {
                    "internalType": "bytes32",
                    "name": "role",
                    "type": "bytes32"
                },
                {
                    "internalType": "address",
                    "name": "account",
                    "type": "address"
                }
            ],
            "name": "hasRole",
            "outputs": [
                {
                    "internalType": "bool",
                    "name": "",
                    "type": "bool"
                }
            ],
            "stateMutability": "view",
            "type": "function"
        },
        {
            "inputs": [
                {
                    "internalType": "address",
                    "name": "initialOwner",
                    "type": "address"
                }
            ],
            "name": "initialize",
            "outputs": [],
            "stateMutability": "nonpayable",
            "type": "function"
        },
        {
            "inputs": [],
            "name": "interestRate",
            "outputs": [
                {
                    "internalType": "uint256",
                    "name": "",
                    "type": "uint256"
                }
            ],
            "stateMutability": "view",
            "type": "function"
        },
        {
            "inputs": [
                {
                    "internalType": "address",
                    "name": "",
                    "type": "address"
                }
            ],
            "name": "isAllowedCollateral",
            "outputs": [
                {
                    "internalType": "bool",
                    "name": "",
                    "type": "bool"
                }
            ],
            "stateMutability": "view",
            "type": "function"
        },
        {
            "inputs": [
                {
                    "internalType": "address",
                    "name": "",
                    "type": "address"
                }
            ],
            "name": "isKnownUser",
            "outputs": [
                {
                    "internalType": "bool",
                    "name": "",
                    "type": "bool"
                }
            ],
            "stateMutability": "view",
            "type": "function"
        },
        {
            "inputs": [
                {
                    "internalType": "address",
                    "name": "",
                    "type": "address"
                }
            ],
            "name": "isLiquidatable",
            "outputs": [
                {
                    "internalType": "bool",
                    "name": "",
                    "type": "bool"
                }
            ],
            "stateMutability": "view",
            "type": "function"
        },
        {
            "inputs": [],
            "name": "isPaused",
            "outputs": [
                {
                    "internalType": "bool",
                    "name": "",
                    "type": "bool"
                }
            ],
            "stateMutability": "view",
            "type": "function"
        },
        {
            "inputs": [
                {
                    "internalType": "address",
                    "name": "",
                    "type": "address"
                }
            ],
            "name": "liquidationStartTime",
            "outputs": [
                {
                    "internalType": "uint256",
                    "name": "",
                    "type": "uint256"
                }
            ],
            "stateMutability": "view",
            "type": "function"
        },
        {
            "inputs": [
                {
                    "internalType": "address",
                    "name": "",
                    "type": "address"
                }
            ],
            "name": "liquidationThreshold",
            "outputs": [
                {
                    "internalType": "uint256",
                    "name": "",
                    "type": "uint256"
                }
            ],
            "stateMutability": "view",
            "type": "function"
        },
        {
            "inputs": [],
            "name": "liquidator",
            "outputs": [
                {
                    "internalType": "address",
                    "name": "",
                    "type": "address"
                }
            ],
            "stateMutability": "view",
            "type": "function"
        },
        {
            "inputs": [],
            "name": "locked",
            "outputs": [
                {
                    "internalType": "bool",
                    "name": "",
                    "type": "bool"
                }
            ],
            "stateMutability": "view",
            "type": "function"
        },
        {
            "inputs": [],
            "name": "maxBorrowAmount",
            "outputs": [
                {
                    "internalType": "uint256",
                    "name": "",
                    "type": "uint256"
                }
            ],
            "stateMutability": "view",
            "type": "function"
        },
        {
            "inputs": [],
            "name": "maxCollateralAmount",
            "outputs": [
                {
                    "internalType": "uint256",
                    "name": "",
                    "type": "uint256"
                }
            ],
            "stateMutability": "view",
            "type": "function"
        },
        {
            "inputs": [],
            "name": "maxLiquidationAmount",
            "outputs": [
                {
                    "internalType": "uint256",
                    "name": "",
                    "type": "uint256"
                }
            ],
            "stateMutability": "view",
            "type": "function"
        },
        {
            "inputs": [],
            "name": "maxLiquidationBonus",
            "outputs": [
                {
                    "internalType": "uint256",
                    "name": "",
                    "type": "uint256"
                }
            ],
            "stateMutability": "view",
            "type": "function"
        },
        {
            "inputs": [],
            "name": "maxLiquidationDelay",
            "outputs": [
                {
                    "internalType": "uint256",
                    "name": "",
                    "type": "uint256"
                }
            ],
            "stateMutability": "view",
            "type": "function"
        },
        {
            "inputs": [],
            "name": "maxLiquidationGracePeriod",
            "outputs": [
                {
                    "internalType": "uint256",
                    "name": "",
                    "type": "uint256"
                }
            ],
            "stateMutability": "view",
            "type": "function"
        },
        {
            "inputs": [],
            "name": "maxLiquidationPenalty",
            "outputs": [
                {
                    "internalType": "uint256",
                    "name": "",
                    "type": "uint256"
                }
            ],
            "stateMutability": "view",
            "type": "function"
        },
        {
            "inputs": [],
            "name": "maxLiquidationRatio",
            "outputs": [
                {
                    "internalType": "uint256",
                    "name": "",
                    "type": "uint256"
                }
            ],
            "stateMutability": "view",
            "type": "function"
        },
        {
            "inputs": [],
            "name": "maxLiquidationThreshold",
            "outputs": [
                {
                    "internalType": "uint256",
                    "name": "",
                    "type": "uint256"
                }
            ],
            "stateMutability": "view",
            "type": "function"
        },
        {
            "inputs": [],
            "name": "maxLiquidationTime",
            "outputs": [
                {
                    "internalType": "uint256",
                    "name": "",
                    "type": "uint256"
                }
            ],
            "stateMutability": "view",
            "type": "function"
        },
        {
            "inputs": [],
            "name": "owner",
            "outputs": [
                {
                    "internalType": "address",
                    "name": "",
                    "type": "address"
                }
            ],
            "stateMutability": "view",
            "type": "function"
        },
        {
            "inputs": [],
            "name": "paused",
            "outputs": [
                {
                    "internalType": "bool",
                    "name": "",
                    "type": "bool"
                }
            ],
            "stateMutability": "view",
            "type": "function"
        },
        {
            "inputs": [
                {
                    "internalType": "bytes",
                    "name": "performData",
                    "type": "bytes"
                }
            ],
            "name": "performUpkeep",
            "outputs": [],
            "stateMutability": "nonpayable",
            "type": "function"
        },
        {
            "inputs": [
                {
                    "internalType": "address",
                    "name": "",
                    "type": "address"
                }
            ],
            "name": "priceFeed",
            "outputs": [
                {
                    "internalType": "address",
                    "name": "",
                    "type": "address"
                }
            ],
            "stateMutability": "view",
            "type": "function"
        },
        {
            "inputs": [
                {
                    "internalType": "address",
                    "name": "token",
                    "type": "address"
                },
                {
                    "internalType": "uint256",
                    "name": "amount",
                    "type": "uint256"
                }
            ],
            "name": "recoverFromLiquidation",
            "outputs": [],
            "stateMutability": "nonpayable",
            "type": "function"
        },
        {
            "inputs": [],
            "name": "renounceOwnership",
            "outputs": [],
            "stateMutability": "nonpayable",
            "type": "function"
        },
        {
            "inputs": [
                {
                    "internalType": "bytes32",
                    "name": "role",
                    "type": "bytes32"
                },
                {
                    "internalType": "address",
                    "name": "callerConfirmation",
                    "type": "address"
                }
            ],
            "name": "renounceRole",
            "outputs": [],
            "stateMutability": "nonpayable",
            "type": "function"
        },
        {
            "inputs": [],
            "name": "repay",
            "outputs": [],
            "stateMutability": "payable",
            "type": "function"
        },
        {
            "inputs": [
                {
                    "internalType": "bytes32",
                    "name": "role",
                    "type": "bytes32"
                },
                {
                    "internalType": "address",
                    "name": "account",
                    "type": "address"
                }
            ],
            "name": "revokeRole",
            "outputs": [],
            "stateMutability": "nonpayable",
            "type": "function"
        },
        {
            "inputs": [
                {
                    "internalType": "address",
                    "name": "newAdmin",
                    "type": "address"
                }
            ],
            "name": "setAdmin",
            "outputs": [],
            "stateMutability": "nonpayable",
            "type": "function"
        },
        {
            "inputs": [
                {
                    "internalType": "address",
                    "name": "token",
                    "type": "address"
                },
                {
                    "internalType": "bool",
                    "name": "allowed",
                    "type": "bool"
                }
            ],
            "name": "setAllowedCollateral",
            "outputs": [],
            "stateMutability": "nonpayable",
            "type": "function"
        },
        {
            "inputs": [
                {
                    "internalType": "address",
                    "name": "user",
                    "type": "address"
                },
                {
                    "internalType": "uint256",
                    "name": "score",
                    "type": "uint256"
                }
            ],
            "name": "setCreditScore",
            "outputs": [],
            "stateMutability": "nonpayable",
            "type": "function"
        },
        {
            "inputs": [
                {
                    "internalType": "uint256",
                    "name": "newRate",
                    "type": "uint256"
                }
            ],
            "name": "setInterestRate",
            "outputs": [],
            "stateMutability": "nonpayable",
            "type": "function"
        },
        {
            "inputs": [
                {
                    "internalType": "address",
                    "name": "token",
                    "type": "address"
                },
                {
                    "internalType": "uint256",
                    "name": "threshold",
                    "type": "uint256"
                }
            ],
            "name": "setLiquidationThreshold",
            "outputs": [],
            "stateMutability": "nonpayable",
            "type": "function"
        },
        {
            "inputs": [
                {
                    "internalType": "address",
                    "name": "_liquidator",
                    "type": "address"
                }
            ],
            "name": "setLiquidator",
            "outputs": [],
            "stateMutability": "nonpayable",
            "type": "function"
        },
        {
            "inputs": [
                {
                    "internalType": "uint256",
                    "name": "newMax",
                    "type": "uint256"
                }
            ],
            "name": "setMaxBorrowAmount",
            "outputs": [],
            "stateMutability": "nonpayable",
            "type": "function"
        },
        {
            "inputs": [
                {
                    "internalType": "uint256",
                    "name": "newMax",
                    "type": "uint256"
                }
            ],
            "name": "setMaxCollateralAmount",
            "outputs": [],
            "stateMutability": "nonpayable",
            "type": "function"
        },
        {
            "inputs": [
                {
                    "internalType": "uint256",
                    "name": "newAmount",
                    "type": "uint256"
                }
            ],
            "name": "setMaxLiquidationAmount",
            "outputs": [],
            "stateMutability": "nonpayable",
            "type": "function"
        },
        {
            "inputs": [
                {
                    "internalType": "uint256",
                    "name": "newBonus",
                    "type": "uint256"
                }
            ],
            "name": "setMaxLiquidationBonus",
            "outputs": [],
            "stateMutability": "nonpayable",
            "type": "function"
        },
        {
            "inputs": [
                {
                    "internalType": "uint256",
                    "name": "newDelay",
                    "type": "uint256"
                }
            ],
            "name": "setMaxLiquidationDelay",
            "outputs": [],
            "stateMutability": "nonpayable",
            "type": "function"
        },
        {
            "inputs": [
                {
                    "internalType": "uint256",
                    "name": "newPeriod",
                    "type": "uint256"
                }
            ],
            "name": "setMaxLiquidationGracePeriod",
            "outputs": [],
            "stateMutability": "nonpayable",
            "type": "function"
        },
        {
            "inputs": [
                {
                    "internalType": "uint256",
                    "name": "newPenalty",
                    "type": "uint256"
                }
            ],
            "name": "setMaxLiquidationPenalty",
            "outputs": [],
            "stateMutability": "nonpayable",
            "type": "function"
        },
        {
            "inputs": [
                {
                    "internalType": "uint256",
                    "name": "newRatio",
                    "type": "uint256"
                }
            ],
            "name": "setMaxLiquidationRatio",
            "outputs": [],
            "stateMutability": "nonpayable",
            "type": "function"
        },
        {
            "inputs": [
                {
                    "internalType": "uint256",
                    "name": "newThreshold",
                    "type": "uint256"
                }
            ],
            "name": "setMaxLiquidationThreshold",
            "outputs": [],
            "stateMutability": "nonpayable",
            "type": "function"
        },
        {
            "inputs": [
                {
                    "internalType": "uint256",
                    "name": "newTime",
                    "type": "uint256"
                }
            ],
            "name": "setMaxLiquidationTime",
            "outputs": [],
            "stateMutability": "nonpayable",
            "type": "function"
        },
        {
            "inputs": [
                {
                    "internalType": "address",
                    "name": "token",
                    "type": "address"
                },
                {
                    "internalType": "address",
                    "name": "feed",
                    "type": "address"
                }
            ],
            "name": "setPriceFeed",
            "outputs": [],
            "stateMutability": "nonpayable",
            "type": "function"
        },
        {
            "inputs": [
                {
                    "internalType": "address",
                    "name": "user",
                    "type": "address"
                }
            ],
            "name": "startLiquidation",
            "outputs": [],
            "stateMutability": "nonpayable",
            "type": "function"
        },
        {
            "inputs": [
                {
                    "internalType": "bytes4",
                    "name": "interfaceId",
                    "type": "bytes4"
                }
            ],
            "name": "supportsInterface",
            "outputs": [
                {
                    "internalType": "bool",
                    "name": "",
                    "type": "bool"
                }
            ],
            "stateMutability": "view",
            "type": "function"
        },
        {
            "inputs": [],
            "name": "togglePause",
            "outputs": [],
            "stateMutability": "nonpayable",
            "type": "function"
        },
        {
            "inputs": [],
            "name": "totalFunds",
            "outputs": [
                {
                    "internalType": "uint256",
                    "name": "",
                    "type": "uint256"
                }
            ],
            "stateMutability": "view",
            "type": "function"
        },
        {
            "inputs": [
                {
                    "internalType": "address",
                    "name": "newOwner",
                    "type": "address"
                }
            ],
            "name": "transferOwnership",
            "outputs": [],
            "stateMutability": "nonpayable",
            "type": "function"
        },
        {
            "inputs": [
                {
                    "internalType": "address",
                    "name": "",
                    "type": "address"
                }
            ],
            "name": "userDebt",
            "outputs": [
                {
                    "internalType": "uint256",
                    "name": "",
                    "type": "uint256"
                }
            ],
            "stateMutability": "view",
            "type": "function"
        },
        {
            "inputs": [
                {
                    "internalType": "uint256",
                    "name": "",
                    "type": "uint256"
                }
            ],
            "name": "users",
            "outputs": [
                {
                    "internalType": "address",
                    "name": "",
                    "type": "address"
                }
            ],
            "stateMutability": "view",
            "type": "function"
        },
        {
            "inputs": [
                {
                    "internalType": "address",
                    "name": "token",
                    "type": "address"
                },
                {
                    "internalType": "uint256",
                    "name": "amount",
                    "type": "uint256"
                }
            ],
            "name": "withdrawCollateral",
            "outputs": [],
            "stateMutability": "nonpayable",
            "type": "function"
        },
        {
            "stateMutability": "payable",
            "type": "receive"
        }
    ],
    "bytecode": "60808060405234601557613419908161001a8239f35b5f80fdfe60806040526004361015610029575b3615610018575f80fd5b61002434600c54612846565b600c55005b5f3560e01c806301c76f81146126a457806301ffc9a71461264e578063042e02cf14612611578063048851151461159c578063080d9c2b146124de5780630a26d59d146124bd5780630e30428d146123d15780630fc0bbab14610eac57806312065fe0146123b65780631328a1d7146114055780631fd48b9a14612376578063248a9ca31461233f5780632f2ff15d146122f5578063350c35e9146120de57806336568abe1461209a578063365b98b214612022578063402d888314611e585780634046ebae14611e2c5780634484404114611dcb578063450a375a14611da45780634585e33b14611ca057806345d08913146115f95780634c8f35ab14611c865780634e385429146107e757806352226ef014611c355780635257b566146115b957806355f4d9e214611adb578063561f425114611a7c5780635c975abb14610f815780635f84f30214611a1557806367749834146119f45780636c648fc4146119d15780636ce835f21461196f5780636e04ff0d146117b65780636e9960c314611453578063704b6c0214611733578063715018a6146116cc5780637346f4861461168f57806376e112861461161657806376e98949146115f95780637b86e42c146115d65780637c2e42321461042d5780637c3a00fd146115b95780637d795d5d1461159c57806385b39782146114875780638da5cb5b146114535780638e6b53bc146114225780638ee6eadc146114055780638f9de408146113e457806391d148541461138f5780639490a51e14611352578063968ed6001461133557806397ed81cf146111fb5780639b8621d5146111e0578063a217fddf146111c6578063a5d5db0c1461103c578063a8409cd214610fde578063ac911bd814610705578063b1732b2514610fa6578063b187bd2614610f81578063b3a5a0a214610f3f578063b4e6e85e14610eea578063b69e5c7714610f07578063b859791c14610eea578063bb50911d14610ec9578063bf8a1e1314610eac578063c129d50414610e91578063c1a287e214610e74578063c23c69d514610e3c578063c4ae316814610dd3578063c4d66de814610bd6578063c5ebeaec14610862578063cc07854514610486578063cf17622514610847578063cf30901214610825578063cfdd0a6714610804578063d277bbe6146107e7578063d29255f9146107af578063d3dd2bdf1461044e578063d547741f14610760578063d69e905314610743578063d77d5ed614610743578063d937952114610722578063e0498f5214610705578063e1c50100146105f5578063e2842d7914610568578063e2e2967914610547578063e7602b9d146104f9578063f1c5d6c2146104ce578063f2fde38b146104a3578063f797900614610486578063f7e590ee1461044e5763ff778bc00361000e575b3461044a575f36600319011261044a576020601654604051908152f35b5f80fd5b3461044a57602036600319011261044a576001600160a01b0361046f612720565b165f526002602052602060405f2054604051908152f35b3461044a575f36600319011261044a576020601354604051908152f35b3461044a57602036600319011261044a576104cc6104bf612720565b6104c7613066565b612ff3565b005b3461044a57602036600319011261044a5760206104f16104ec612720565b612e91565b604051908152f35b3461044a57604036600319011261044a57610512612720565b61051a612736565b6001600160a01b039182165f90815260208181526040808320949093168252928352819020549051908152f35b3461044a57602036600319011261044a576104cc610563612720565b612c51565b3461044a575f36600319011261044a57604051806020600a54918281520190600a5f527fc65a7bb8d6351c1cf70c95a316cc6a92839c986682d98bc35f958f4883f9d2a8905f5b8181106105d6576105d2856105c68187038261280c565b604051918291826127ca565b0390f35b82546001600160a01b03168452602090930192600192830192016105af565b3461044a57602036600319011261044a5761060e612720565b61061781612b39565b506106ca576001600160a01b03165f8181526005602052604090205460ff1661068557805f52600560205260405f20600160ff19825416179055805f5260066020524260405f20557f7f62ed89ea2c6fb057e4ea77729c1d3f18056339791fce29ac89760197b45b295f80a2005b60405162461bcd60e51b815260206004820152601b60248201527f4c69717569646174696f6e20616c7265616479207374617274656400000000006044820152606490fd5b60405162461bcd60e51b8152602060048201526013602482015272506f736974696f6e206973206865616c74687960681b6044820152606490fd5b3461044a575f36600319011261044a576020600e54604051908152f35b3461044a57602036600319011261044a5761073b613066565b600435600f55005b3461044a575f36600319011261044a576020601754604051908152f35b3461044a57604036600319011261044a576104cc60043561077f612736565b906107aa6107a5825f525f5160206133a45f395f51905f52602052600160405f20015490565b613020565b613248565b3461044a57602036600319011261044a576001600160a01b036107d0612720565b165f526004602052602060405f2054604051908152f35b3461044a575f36600319011261044a576020601254604051908152f35b3461044a57602036600319011261044a5761081d613066565b600435601355005b3461044a575f36600319011261044a57602060ff600d54166040519015158152f35b3461044a575f36600319011261044a576105d26105c6612b8e565b3461044a57602036600319011261044a576004356001600d5461088b60ff8260081c161561294b565b61089860ff821615612afd565b60ff191617600d558015610b9157335f526002602052603c60405f205410610b5557600c5460011c8111610b1057600e548111610acb57335f52600360205260405f2054610a8657335f52600b60205260ff60405f20541615610a61575b6108ff33612a0f565b600f548111610a1c57606481029080820460641490151715610a08576082820290828204608203610a0857106109b557335f52600360205260405f20610946828254612846565b905561095481600c5461293e565b600c55335f5260046020524260405f20555f808080843382f1156109aa576040519081527fac59582e5396aca512fa873a2047e7f4c80f8f55d4a06cb34a78a0187f62719f60203392a2600d805460ff19169055005b6040513d5f823e3d90fd5b60405162461bcd60e51b815260206004820152602560248201527f496e73756666696369656e7420636f6c6c61746572616c20666f722074686973604482015264103637b0b760d91b6064820152608490fd5b634e487b7160e01b5f52601160045260245ffd5b60405162461bcd60e51b815260206004820152601d60248201527f45786365656473206d617820636f6c6c61746572616c20616d6f756e740000006044820152606490fd5b335f52600b60205260405f20600160ff19825416179055610a81336129ca565b6108f6565b60405162461bcd60e51b815260206004820152601e60248201527f526570617920796f7572206578697374696e67206465627420666972737400006044820152606490fd5b60405162461bcd60e51b815260206004820152601960248201527f45786365656473206d617820626f72726f7720616d6f756e74000000000000006044820152606490fd5b60405162461bcd60e51b815260206004820152601e60248201527f496e73756666696369656e742066756e647320696e2074686520706f6f6c00006044820152606490fd5b60405162461bcd60e51b81526020600482015260146024820152734372656469742073636f726520746f6f206c6f7760601b6044820152606490fd5b60405162461bcd60e51b815260206004820152601d60248201527f416d6f756e74206d7573742062652067726561746572207468616e20300000006044820152606490fd5b3461044a57602036600319011261044a57610bef612720565b5f5160206133c45f395f51905f525460ff8160401c16159167ffffffffffffffff821680159081610dcb575b6001149081610dc1575b159081610db8575b50610da95767ffffffffffffffff1982166001175f5160206133c45f395f51905f5255610ce29183610d7d575b50610c63613338565b610c6b613338565b610c7481612ff3565b610c7c613338565b5f8080525f5160206133a45f395f51905f526020527fb7db2dd08fcb62d0c9e08c51941cae53c267786a0b75803fb7960902fc8ef97e805490829055817fbd79b86ffe0ab8e8776151514217cd7cacd52c909f66475c3af44e129f0b00ff8180a4613099565b505f19600e555f19600f556014601055600a601155609660125562093a806013555f1960145560966015556202a3006016556203f4806017556005601855610d2657005b68ff0000000000000000195f5160206133c45f395f51905f5254165f5160206133c45f395f51905f52557fc7f505b2f371ae2175ee4913f4499e1f2633a7b5936321eed1cdaeb6115181d2602060405160018152a1005b68ffffffffffffffffff191668010000000000000001175f5160206133c45f395f51905f525583610c5a565b63f92ee8a960e01b5f5260045ffd5b90501584610c2d565b303b159150610c25565b849150610c1b565b3461044a575f36600319011261044a57610deb613066565b7f228f455d7bc3d0b24a3a08d7847f391c3e78fc8aeb83acf226b7a96ee162b8ac6020600d5461ff0060ff8260081c161560081b169061ff0019161780600d5560ff6040519160081c1615158152a1005b3461044a57602036600319011261044a576001600160a01b03610e5d612720565b165f526006602052602060405f2054604051908152f35b3461044a575f36600319011261044a5760206040516203f4808152f35b3461044a575f36600319011261044a57602060405160828152f35b3461044a575f36600319011261044a576020601454604051908152f35b3461044a57602036600319011261044a57610ee2613066565b600435601755005b3461044a575f36600319011261044a576020601054604051908152f35b3461044a57602036600319011261044a576001600160a01b03610f28612720565b165f526003602052602060405f2054604051908152f35b3461044a57602036600319011261044a5760043560095481101561044a57610f6860209161274c565b905460405160039290921b1c6001600160a01b03168152f35b3461044a575f36600319011261044a57602060ff600d5460081c166040519015158152f35b3461044a57602036600319011261044a576001600160a01b03610fc7612720565b165f526007602052602060405f2054604051908152f35b3461044a57602036600319011261044a57600435610ffa613066565b6064811061100757601555005b60405162461bcd60e51b815260206004820152600d60248201526c526174696f20746f6f206c6f7760981b6044820152606490fd5b3461044a57604036600319011261044a57611055612720565b6001600160a01b03165f818152600160205260409020546024359061107c9060ff1661289f565b801561118c57335f52600560205261109b60ff60405f205416156128df565b335f52600b60205260ff60405f20541615611167575b6040516323b872dd60e01b8152336004820152306024820152604481018290526020816064815f875af180156109aa5761113a575b505f828152602081815260408083203384529091529020805461110a908390612846565b90556040519081527ff1c0dd7e9b98bbff859029005ef89b127af049cd18df1a8d79f0b7e019911e5660203392a3005b61115b9060203d602011611160575b611153818361280c565b81019061282e565b6110e6565b503d611149565b335f52600b60205260405f20600160ff19825416179055611187336129ca565b6110b1565b60405162461bcd60e51b81526020600482015260126024820152710416d6f756e74206d757374206265203e20360741b6044820152606490fd5b3461044a575f36600319011261044a5760206040515f8152f35b3461044a575f36600319011261044a57602060405160058152f35b3461044a57604036600319011261044a57611214612720565b60243590611220613066565b6001600160a01b03169081156112f0573082146112b357606481116112795760207f4afae6838a181695abc7978598380d73bc2144eb38580c130f86e4b1e6531e1591835f52600282528060405f2055604051908152a2005b60405162461bcd60e51b815260206004820152601260248201527153636f7265206f7574206f662072616e676560701b6044820152606490fd5b60405162461bcd60e51b815260206004820152601560248201527424b73b30b634b21030b2323932b9b99d1039b2b63360591b6044820152606490fd5b60405162461bcd60e51b815260206004820152601d60248201527f496e76616c696420616464726573733a207a65726f20616464726573730000006044820152606490fd5b3461044a575f36600319011261044a576020600c54604051908152f35b3461044a57602036600319011261044a576001600160a01b03611373612720565b165f52600b602052602060ff60405f2054166040519015158152f35b3461044a57604036600319011261044a576113a8612736565b6004355f525f5160206133a45f395f51905f5260205260405f209060018060a01b03165f52602052602060ff60405f2054166040519015158152f35b3461044a57602036600319011261044a576113fd613066565b600435601455005b3461044a575f36600319011261044a576020601154604051908152f35b3461044a57602036600319011261044a576040611445611440612720565b612b39565b825191151582526020820152f35b3461044a575f36600319011261044a575f5160206133645f395f51905f52546040516001600160a01b039091168152602090f35b3461044a57602036600319011261044a576004356114a3613066565b6001600d546114b560ff821615612afd565b60ff191617600d55478111611557576114d081600c5461293e565b600c555f8080808460018060a01b035f5160206133645f395f51905f52541682821561154e575bf1156109aa575f5160206133645f395f51905f52546040519182526001600160a01b0316907f69c169e5c85af54e1ca7e16608ccc812437821387924fb3353a7d053264ddaa090602090a2600d805460ff19169055005b506108fc6114f7565b60405162461bcd60e51b815260206004820152601d60248201527f496e73756666696369656e7420636f6e74726163742062616c616e63650000006044820152606490fd5b3461044a575f36600319011261044a576020600f54604051908152f35b3461044a575f36600319011261044a576020601854604051908152f35b3461044a57602036600319011261044a5760206104f16115f4612720565b612add565b3461044a575f36600319011261044a576020601554604051908152f35b3461044a57604036600319011261044a5761162f612720565b611637612736565b90611640613066565b6001600160a01b03165f818152600160205260409020546116639060ff16612853565b5f90815260086020526040902080546001600160a01b0319166001600160a01b03909216919091179055005b3461044a57602036600319011261044a576001600160a01b036116b0612720565b165f526001602052602060ff60405f2054166040519015158152f35b3461044a575f36600319011261044a576116e4613066565b5f5160206133645f395f51905f5280546001600160a01b031981169091555f906001600160a01b03167f8be0079c531659141344cd1fd0a4f28419497f9722a3daafe3b4186f6b6457e08280a3005b3461044a57602036600319011261044a5761174c612720565b611754613066565b6001600160a01b0381161561177f5780611770611775926132e4565b613099565b506104cc336131c6565b60405162461bcd60e51b815260206004820152600f60248201526e496e76616c6964206164647265737360881b6044820152606490fd5b3461044a576117c436612779565b5050606060405180816020600a549283815201600a5f527fc65a7bb8d6351c1cf70c95a316cc6a92839c986682d98bc35f958f4883f9d2a8925f5b81811061194d5750506118149250038261280c565b61181e8151612a9d565b5f5f5b835181101561189a576001600160a01b0361183c82866129a4565b5116805f52600560205260ff60405f20541661185c575b50600101611821565b805f52600660205261187560405f205460175490612846565b421061185357826118939161188d60019495876129a4565b52612acf565b9190611853565b5083811561194257506118ac81612a9d565b915f5b82811061191a5750505060606118d36118e1600193604051928391602083016127ca565b03601f19810183528261280c565b915b6020604051938492151583526040828401528051918291826040860152018484015e5f828201840152601f01601f19168101030190f35b6001906001600160a01b0361192f82856129a4565b511661193b82876129a4565b52016118af565b91505060605f6118e3565b84546001600160a01b03168352600194850194869450602090930192016117ff565b3461044a57602036600319011261044a5760043561198b613066565b6064811061199857601255005b60405162461bcd60e51b81526020600482015260116024820152705468726573686f6c6420746f6f206c6f7760781b6044820152606490fd5b3461044a57602036600319011261044a5760206104f16119ef612720565b612a0f565b3461044a57602036600319011261044a57611a0d613066565b600435600e55005b3461044a57602036600319011261044a57600435611a31613066565b60648111611a3e57601855005b60405162461bcd60e51b8152602060048201526016602482015275092dce8cae4cae6e840e4c2e8ca40e8dede40d0d2ced60531b6044820152606490fd5b3461044a57602036600319011261044a57600435611a98613066565b60648111611aa557601055005b60405162461bcd60e51b815260206004820152600e60248201526d084dedceae640e8dede40d0d2ced60931b6044820152606490fd5b3461044a57604036600319011261044a57611af4612720565b602435908115159081830361044a57611b0b613066565b6001600160a01b03165f818152600160205260408120805460ff191660ff8516179055600954919391815b818110611c00575b505081611bf7575b50611b79575b60207f15f5cc64ca777db85f6c05fdba671568758b38329616d4d4b43bb8b092fe9a8d91604051908152a2005b600954600160401b811015611be3577f15f5cc64ca777db85f6c05fdba671568758b38329616d4d4b43bb8b092fe9a8d91611bbe826001602094016009556009612764565b81546001600160a01b0360039290921b91821b19169086901b1790559150611b4c9050565b634e487b7160e01b5f52604160045260245ffd5b90501583611b46565b85611c0a8261274c565b905460039190911b1c6001600160a01b031614611c2957600101611b36565b50505060018480611b3e565b3461044a57604036600319011261044a57611c4e612720565b6001600160a01b03611c5e612736565b165f525f60205260405f209060018060a01b03165f52602052602060405f2054604051908152f35b3461044a575f36600319011261044a5760206104f16129b8565b3461044a57611cae36612779565b81019060208183031261044a5780359067ffffffffffffffff821161044a57019080601f8301121561044a57813590611ce68261298c565b92611cf4604051948561280c565b82845260208085019360051b82010191821161044a57602001915b818310611d8457835f5b600a548110156104cc576001906001600160a01b03611d3882856129a4565b5116805f52600560205260ff60405f205416611d56575b5001611d19565b805f526006602052611d6f60405f205460175490612846565b4210611d4f57611d7e90612c51565b83611d4f565b82356001600160a01b038116810361044a57815260209283019201611d0f565b3461044a575f36600319011261044a57335f526003602052602060405f2054604051908152f35b3461044a57602036600319011261044a57600435611de7613066565b60648111611df457601155005b60405162461bcd60e51b815260206004820152601060248201526f0a0cadcc2d8e8f240e8dede40d0d2ced60831b6044820152606490fd5b3461044a575f36600319011261044a57600d5460405160109190911c6001600160a01b03168152602090f35b5f36600319011261044a57611e7560ff600d5460081c161561294b565b335f52600360205260405f205415611fe757335f52600360205260405f20543410611fae573415611f6957335f52600360205260405f205434115f14611f6357335f52600360205260405f20545b335f52600360205260405f20611eda82825461293e565b9055611ee881600c54612846565b600c55335f5260046020525f6040812055335f52600560205260ff60405f205416611f3c575b6040519081527f0516911bcc3a0a7412a44601057c0a0a1ec628bde049a84284bc42886653448860203392a2005b335f52600560205260405f2060ff198154169055335f5260066020525f6040812055611f0e565b34611ec3565b60405162461bcd60e51b815260206004820152601860248201527f4d7573742073656e642066756e647320746f20726570617900000000000000006044820152606490fd5b60405162461bcd60e51b815260206004820152601160248201527052657061796d656e7420746f6f206c6f7760781b6044820152606490fd5b60405162461bcd60e51b8152602060048201526013602482015272139bc81bdd5d1cdd185b991a5b99c81919589d606a1b6044820152606490fd5b3461044a57602036600319011261044a57600435600a5481101561044a57600a5481101561208657600a5f527fc65a7bb8d6351c1cf70c95a316cc6a92839c986682d98bc35f958f4883f9d2a801546040516001600160a01b039091168152602090f35b634e487b7160e01b5f52603260045260245ffd5b3461044a57604036600319011261044a576120b3612736565b336001600160a01b038216036120cf576104cc90600435613248565b63334bd91960e11b5f5260045ffd5b3461044a57604036600319011261044a576120f7612720565b60243560018060a01b03821691825f52600160205261211c60ff60405f20541661289f565b5f8381526020818152604080832033845290915290205482116122b957335f52600560205261215260ff60405f205416156128df565b61218061215e33612a0f565b670de0b6b3a764000061217961217385612e91565b8661292b565b049061293e565b90606482029180830460641490151715610a08576121b490335f5260036020526121ae60405f205491612add565b9061292b565b11612259575f82815260208181526040808320338452909152902080546121dc90839061293e565b905560405163a9059cbb60e01b8152336004820152602481018290526020816044815f875af180156109aa5761223c575b506040519081527f45892a46e6cef329bb642da6d69846d324db43d19008edc141ed82382eda1bee60203392a3005b6122549060203d60201161116057611153818361280c565b61220d565b60405162461bcd60e51b815260206004820152603260248201527f5769746864726177616c20776f756c64206d616b6520706f736974696f6e20756044820152711b99195c98dbdb1b185d195c985b1a5e995960721b6064820152608490fd5b60405162461bcd60e51b8152602060048201526014602482015273496e73756666696369656e742062616c616e636560601b6044820152606490fd5b3461044a57604036600319011261044a576104cc600435612314612736565b9061233a6107a5825f525f5160206133a45f395f51905f52602052600160405f20015490565b613122565b3461044a57602036600319011261044a5760206104f16004355f525f5160206133a45f395f51905f52602052600160405f20015490565b3461044a57602036600319011261044a576001600160a01b03612397612720565b165f526008602052602060018060a01b0360405f205416604051908152f35b3461044a575f36600319011261044a57602047604051908152f35b3461044a57604036600319011261044a576123ea612720565b602435906123f6613066565b6001600160a01b03165f818152600160205260409020546124199060ff16612853565b601254821161248057606482111561243b575f52600760205260405f20555f80f35b60405162461bcd60e51b815260206004820152601860248201527f5468726573686f6c64206d757374206265203e203130302500000000000000006044820152606490fd5b60405162461bcd60e51b8152602060048201526015602482015274115e18d959591cc81b585e081d1a1c995cda1bdb19605a1b6044820152606490fd5b3461044a57602036600319011261044a576124d6613066565b600435601655005b3461044a57604036600319011261044a576124f7612720565b60243590335f52600560205260ff60405f205416156125cc576040516323b872dd60e01b8152336004820152306024820152604481018390526001600160a01b0391909116906020816064815f865af180156109aa576125af575b505f525f60205260405f2060018060a01b0333165f5260205261257a60405f20918254612846565b905561258533612b39565b5061258c57005b335f908152600560209081526040808320805460ff191690556006909152812055005b6125c79060203d60201161116057611153818361280c565b612552565b60405162461bcd60e51b815260206004820152601a60248201527f4163636f756e74206e6f7420696e206c69717569646174696f6e0000000000006044820152606490fd5b3461044a57602036600319011261044a576001600160a01b03612632612720565b165f526005602052602060ff60405f2054166040519015158152f35b3461044a57602036600319011261044a5760043563ffffffff60e01b811680910361044a57602090637965db0b60e01b8114908115612693575b506040519015158152f35b6301ffc9a760e01b14905082612688565b3461044a57602036600319011261044a576126bd612720565b335f9081525f5160206133845f395f51905f52602052604090205460ff161561270957600d805462010000600160b01b03191660109290921b62010000600160b01b0316919091179055005b63e2517d3f60e01b5f52336004525f60245260445ffd5b600435906001600160a01b038216820361044a57565b602435906001600160a01b038216820361044a57565b6009548110156120865760095f5260205f2001905f90565b8054821015612086575f5260205f2001905f90565b90602060031983011261044a5760043567ffffffffffffffff811161044a578260238201121561044a5780600401359267ffffffffffffffff841161044a576024848301011161044a576024019190565b60206040818301928281528451809452019201905f5b8181106127ed5750505090565b82516001600160a01b03168452602093840193909201916001016127e0565b90601f8019910116810190811067ffffffffffffffff821117611be357604052565b9081602091031261044a5751801515810361044a5790565b91908201809211610a0857565b1561285a57565b60405162461bcd60e51b815260206004820152601f60248201527f546f6b656e206e6f7420616c6c6f77656420617320636f6c6c61746572616c006044820152606490fd5b156128a657565b60405162461bcd60e51b8152602060048201526011602482015270151bdad95b881b9bdd08185b1b1bddd959607a1b6044820152606490fd5b156128e657565b60405162461bcd60e51b815260206004820152601960248201527f4163636f756e7420697320696e206c69717569646174696f6e000000000000006044820152606490fd5b81810292918115918404141715610a0857565b91908203918211610a0857565b1561295257565b60405162461bcd60e51b815260206004820152601260248201527110dbdb9d1c9858dd081a5cc81c185d5cd95960721b6044820152606490fd5b67ffffffffffffffff8111611be35760051b60200190565b80518210156120865760209160051b010190565b60125480156129c45790565b50608290565b600a54600160401b811015611be3578060016129eb9201600a55600a612764565b81546001600160a01b0393841660039290921b91821b9390911b1916919091179055565b5f90612a19612b8e565b915f5b8351811015612a96576001600160a01b03612a3782866129a4565b51165f818152602081815260408083206001600160a01b03881684529091529020549081612a6a575b5050600101612a1c565b92670de0b6b3a7640000612a87612a8e936121ae60019697612e91565b0490612846565b91905f612a60565b5091505090565b90612aa78261298c565b612ab4604051918261280c565b8281528092612ac5601f199161298c565b0190602036910137565b5f198114610a085760010190565b6001600160a01b03165f9081526007602052604090205480156129c45790565b15612b0457565b60405162461bcd60e51b815260206004820152600d60248201526c4e6f207265656e7472616e637960981b6044820152606490fd5b612b4281612a0f565b6001600160a01b039091165f90815260036020526040902054908115612b8457606481029080820460641490151715610a08570480612b7f6129b8565b111591565b506001915f199150565b6009545f805b828110612c095750612ba590612a9d565b905f5f5b828110612bb65750505090565b612bbf8161274c565b905460039190911b1c6001600160a01b03165f8181526001602052604090205460ff16612bf0575b50600101612ba9565b82612c029161188d60019495886129a4565b9190612be7565b612c128161274c565b60018060a01b0391549060031b1c165f52600160205260ff60405f205416612c3d575b600101612b94565b90612c49600191612acf565b919050612c35565b6001600160a01b03165f8181526005602052604090205490919060ff1615612e2a57815f52600660205260405f20546203f4808101809111610a08574210612dec57815f52600360205260405f2054600581029080820460051481151715610a08576064612cc0920490612846565b90612cc9612b8e565b905f5b8251811015612d7c576001600160a01b03612ce782856129a4565b511690815f525f60205260405f20865f5260205260405f205480612d11575b506001915001612ccc565b5f838152602081815260408083208a845282528083208390555163a9059cbb60e01b81523360048201526024810193909352919384916044918391905af19182156109aa5760019215612d0657612d759060203d811161116057611153818361280c565b505f612d06565b50929050805f5260036020525f6040812055805f5260046020525f6040812055805f52600560205260405f2060ff198154169055805f5260066020525f60408120556040519182527f1175522017e08c2f400d7e516608eff60816ee9e8319158d174321234b60263160203393a3565b60405162461bcd60e51b815260206004820152601660248201527511dc9858d9481c195c9a5bd9081b9bdd08195b99195960521b6044820152606490fd5b60405162461bcd60e51b815260206004820152602260248201527f4163636f756e74206e6f74206d61726b656420666f72206c697175696461746960448201526137b760f11b6064820152608490fd5b519069ffffffffffffffffffff8216820361044a57565b6001600160a01b039081165f90815260086020526040902054168015612fb957604051633fabe5a360e21b81529060a082600481845afa9182156109aa575f92612f65575b5060206004916040519283809263313ce56760e01b82525afa80156109aa575f90612f28575b60ff91501660120360ff8111610a085760ff1690604d8211610a0857612f2591600a0a9061292b565b90565b506020813d602011612f5d575b81612f426020938361280c565b8101031261044a575160ff8116810361044a5760ff90612efc565b3d9150612f35565b90915060a0813d60a011612fb1575b81612f8160a0938361280c565b8101031261044a57602081612f97600493612e7a565b50612fa86080838301519201612e7a565b50929150612ed6565b3d9150612f74565b60405162461bcd60e51b8152602060048201526012602482015271141c9a58d94819995959081b9bdd081cd95d60721b6044820152606490fd5b6001600160a01b0381161561300d5761300b906132e4565b565b631e4fbdf760e01b5f525f60045260245ffd5b5f8181525f5160206133a45f395f51905f526020908152604080832033845290915290205460ff16156130505750565b63e2517d3f60e01b5f523360045260245260445ffd5b5f5160206133645f395f51905f52546001600160a01b0316330361308657565b63118cdaa760e01b5f523360045260245ffd5b6001600160a01b0381165f9081525f5160206133845f395f51905f52602052604090205460ff1661311d576001600160a01b03165f8181525f5160206133845f395f51905f5260205260408120805460ff191660011790553391907f2f8788117e7eff1d82e926ec794901d17c78024a50270940304540a733656f0d8180a4600190565b505f90565b5f8181525f5160206133a45f395f51905f52602090815260408083206001600160a01b038616845290915290205460ff166131c0575f8181525f5160206133a45f395f51905f52602090815260408083206001600160a01b0395909516808452949091528120805460ff19166001179055339291907f2f8788117e7eff1d82e926ec794901d17c78024a50270940304540a733656f0d9080a4600190565b50505f90565b6001600160a01b0381165f9081525f5160206133845f395f51905f52602052604090205460ff161561311d576001600160a01b03165f8181525f5160206133845f395f51905f5260205260408120805460ff191690553391907ff6391f5c32d9c69d2a47ea670b442974b53935d1edc7fd64eb21e047a839171b8180a4600190565b5f8181525f5160206133a45f395f51905f52602090815260408083206001600160a01b038616845290915290205460ff16156131c0575f8181525f5160206133a45f395f51905f52602090815260408083206001600160a01b0395909516808452949091528120805460ff19169055339291907ff6391f5c32d9c69d2a47ea670b442974b53935d1edc7fd64eb21e047a839171b9080a4600190565b5f5160206133645f395f51905f5280546001600160a01b039283166001600160a01b0319821681179092559091167f8be0079c531659141344cd1fd0a4f28419497f9722a3daafe3b4186f6b6457e05f80a3565b60ff5f5160206133c45f395f51905f525460401c161561335457565b631afcd79f60e31b5f5260045ffdfe9016d09d72d40fdae2fd8ceac6b6234c7706214fd39c1cd1e609a0528c199300b7db2dd08fcb62d0c9e08c51941cae53c267786a0b75803fb7960902fc8ef97d02dd7bc7dec4dceedda775e58dd541e08a116c6c53815c0bd028192f7b626800f0c57e16840df040f15088dc2f81fe391c3923bec73e23a9662efc9c229c6a00a2646970667358221220f6724fb9e718a9ddf1a907c48d8a3db9c9c0e045492b85273f841205cc3f6bf164736f6c634300081e0033",
    "sourcePath": "c:/Users/Baki Berkay Uzel/Desktop/MonoRepo/blockchain-prototyping-sose2025/Lending (BC) + frontend/loan-management/backend/contracts/LiquidityPoolV3.sol",
    "compiler": {
        "name": "solc",
        "version": "0.8.30+commit.73712a01"
    },
    "functionHashes": {
        "DEFAULT_ADMIN_ROLE()": "a217fddf",
        "DEFAULT_LIQUIDATION_THRESHOLD()": "c129d504",
        "GRACE_PERIOD()": "c1a287e2",
        "LIQUIDATION_PENALTY()": "9b8621d5",
        "borrow(uint256)": "c5ebeaec",
        "borrowTimestamp(address)": "d29255f9",
        "checkCollateralization(address)": "8e6b53bc",
        "checkUpkeep(bytes)": "6e04ff0d",
        "collateralBalance(address,address)": "e7602b9d",
        "collateralTokenList(uint256)": "b3a5a0a2",
        "creditScore(address)": "f7e590ee",
        "depositCollateral(address,uint256)": "a5d5db0c",
        "executeLiquidation(address)": "e2e29679",
        "extract(uint256)": "85b39782",
        "getAdmin()": "6e9960c3",
        "getAllUsers()": "e2842d79",
        "getAllowedCollateralTokens()": "cf176225",
        "getBalance()": "12065fe0",
        "getCollateral(address,address)": "52226ef0",
        "getCreditScore(address)": "d3dd2bdf",
        "getInterestRate()": "5257b566",
        "getLiquidationThreshold(address)": "7b86e42c",
        "getMaxBorrowAmount()": "e0498f52",
        "getMaxCollateralAmount()": "7d795d5d",
        "getMaxLiquidationAmount()": "bf8a1e13",
        "getMaxLiquidationBonus()": "b859791c",
        "getMaxLiquidationDelay()": "7c2e4232",
        "getMaxLiquidationGracePeriod()": "d77d5ed6",
        "getMaxLiquidationPenalty()": "8ee6eadc",
        "getMaxLiquidationRatio()": "76e98949",
        "getMaxLiquidationThreshold()": "d277bbe6",
        "getMaxLiquidationTime()": "f7979006",
        "getMinCollateralRatio()": "4c8f35ab",
        "getMyDebt()": "450a375a",
        "getRoleAdmin(bytes32)": "248a9ca3",
        "getTokenValue(address)": "f1c5d6c2",
        "getTotalCollateralValue(address)": "6c648fc4",
        "grantRole(bytes32,address)": "2f2ff15d",
        "hasRole(bytes32,address)": "91d14854",
        "initialize(address)": "c4d66de8",
        "interestRate()": "7c3a00fd",
        "isAllowedCollateral(address)": "7346f486",
        "isKnownUser(address)": "9490a51e",
        "isLiquidatable(address)": "042e02cf",
        "isPaused()": "b187bd26",
        "liquidationStartTime(address)": "c23c69d5",
        "liquidationThreshold(address)": "b1732b25",
        "liquidator()": "4046ebae",
        "locked()": "cf309012",
        "maxBorrowAmount()": "ac911bd8",
        "maxCollateralAmount()": "04885115",
        "maxLiquidationAmount()": "0fc0bbab",
        "maxLiquidationBonus()": "b4e6e85e",
        "maxLiquidationDelay()": "ff778bc0",
        "maxLiquidationGracePeriod()": "d69e9053",
        "maxLiquidationPenalty()": "1328a1d7",
        "maxLiquidationRatio()": "45d08913",
        "maxLiquidationThreshold()": "4e385429",
        "maxLiquidationTime()": "cc078545",
        "owner()": "8da5cb5b",
        "paused()": "5c975abb",
        "performUpkeep(bytes)": "4585e33b",
        "priceFeed(address)": "1fd48b9a",
        "recoverFromLiquidation(address,uint256)": "080d9c2b",
        "renounceOwnership()": "715018a6",
        "renounceRole(bytes32,address)": "36568abe",
        "repay()": "402d8883",
        "revokeRole(bytes32,address)": "d547741f",
        "setAdmin(address)": "704b6c02",
        "setAllowedCollateral(address,bool)": "55f4d9e2",
        "setCreditScore(address,uint256)": "97ed81cf",
        "setInterestRate(uint256)": "5f84f302",
        "setLiquidationThreshold(address,uint256)": "0e30428d",
        "setLiquidator(address)": "01c76f81",
        "setMaxBorrowAmount(uint256)": "67749834",
        "setMaxCollateralAmount(uint256)": "d9379521",
        "setMaxLiquidationAmount(uint256)": "8f9de408",
        "setMaxLiquidationBonus(uint256)": "561f4251",
        "setMaxLiquidationDelay(uint256)": "0a26d59d",
        "setMaxLiquidationGracePeriod(uint256)": "bb50911d",
        "setMaxLiquidationPenalty(uint256)": "44844041",
        "setMaxLiquidationRatio(uint256)": "a8409cd2",
        "setMaxLiquidationThreshold(uint256)": "6ce835f2",
        "setMaxLiquidationTime(uint256)": "cfdd0a67",
        "setPriceFeed(address,address)": "76e11286",
        "startLiquidation(address)": "e1c50100",
        "supportsInterface(bytes4)": "01ffc9a7",
        "togglePause()": "c4ae3168",
        "totalFunds()": "968ed600",
        "transferOwnership(address)": "f2fde38b",
        "userDebt(address)": "b69e5c77",
        "users(uint256)": "365b98b2",
        "withdrawCollateral(address,uint256)": "350c35e9"
    },
    "gasEstimates": {
        "creation": {
            "codeDepositCost": "2667400",
            "executionCost": "2905",
            "totalCost": "2670305"
        },
        "external": {
            "DEFAULT_ADMIN_ROLE()": "1332",
            "DEFAULT_LIQUIDATION_THRESHOLD()": "1597",
            "GRACE_PERIOD()": "1619",
            "LIQUIDATION_PENALTY()": "1311",
            "borrow(uint256)": "infinite",
            "borrowTimestamp(address)": "4092",
            "checkCollateralization(address)": "infinite",
            "checkUpkeep(bytes)": "infinite",
            "collateralBalance(address,address)": "4476",
            "collateralTokenList(uint256)": "7945",
            "creditScore(address)": "4400",
            "depositCollateral(address,uint256)": "infinite",
            "executeLiquidation(address)": "infinite",
            "extract(uint256)": "infinite",
            "getAdmin()": "infinite",
            "getAllUsers()": "infinite",
            "getAllowedCollateralTokens()": "infinite",
            "getBalance()": "326",
            "getCollateral(address,address)": "3077",
            "getCreditScore(address)": "4114",
            "getInterestRate()": "2798",
            "getLiquidationThreshold(address)": "3337",
            "getMaxBorrowAmount()": "4074",
            "getMaxCollateralAmount()": "3194",
            "getMaxLiquidationAmount()": "3678",
            "getMaxLiquidationBonus()": "3634",
            "getMaxLiquidationDelay()": "3150",
            "getMaxLiquidationGracePeriod()": "4030",
            "getMaxLiquidationPenalty()": "3282",
            "getMaxLiquidationRatio()": "3106",
            "getMaxLiquidationThreshold()": "3920",
            "getMaxLiquidationTime()": "4228",
            "getMinCollateralRatio()": "2784",
            "getMyDebt()": "2726",
            "getRoleAdmin(bytes32)": "infinite",
            "getTokenValue(address)": "infinite",
            "getTotalCollateralValue(address)": "infinite",
            "grantRole(bytes32,address)": "33649",
            "hasRole(bytes32,address)": "infinite",
            "initialize(address)": "infinite",
            "interestRate()": "3172",
            "isAllowedCollateral(address)": "3224",
            "isKnownUser(address)": "3510",
            "isLiquidatable(address)": "2454",
            "isPaused()": "3564",
            "liquidationStartTime(address)": "3894",
            "liquidationThreshold(address)": "3674",
            "liquidator()": "2655",
            "locked()": "3888",
            "maxBorrowAmount()": "3502",
            "maxCollateralAmount()": "2314",
            "maxLiquidationAmount()": "2402",
            "maxLiquidationBonus()": "3590",
            "maxLiquidationDelay()": "4269",
            "maxLiquidationGracePeriod()": "4008",
            "maxLiquidationPenalty()": "2446",
            "maxLiquidationRatio()": "2710",
            "maxLiquidationThreshold()": "2754",
            "maxLiquidationTime()": "3832",
            "owner()": "infinite",
            "paused()": "2882",
            "performUpkeep(bytes)": "infinite",
            "priceFeed(address)": "2636",
            "recoverFromLiquidation(address,uint256)": "infinite",
            "renounceOwnership()": "28902",
            "renounceRole(bytes32,address)": "29199",
            "repay()": "80859",
            "revokeRole(bytes32,address)": "35120",
            "setAdmin(address)": "infinite",
            "setAllowedCollateral(address,bool)": "infinite",
            "setCreditScore(address,uint256)": "infinite",
            "setInterestRate(uint256)": "infinite",
            "setLiquidationThreshold(address,uint256)": "infinite",
            "setLiquidator(address)": "26691",
            "setMaxBorrowAmount(uint256)": "25083",
            "setMaxCollateralAmount(uint256)": "26227",
            "setMaxLiquidationAmount(uint256)": "25479",
            "setMaxLiquidationBonus(uint256)": "infinite",
            "setMaxLiquidationDelay(uint256)": "24533",
            "setMaxLiquidationGracePeriod(uint256)": "25831",
            "setMaxLiquidationPenalty(uint256)": "infinite",
            "setMaxLiquidationRatio(uint256)": "infinite",
            "setMaxLiquidationThreshold(uint256)": "infinite",
            "setMaxLiquidationTime(uint256)": "26073",
            "setPriceFeed(address,address)": "infinite",
            "startLiquidation(address)": "infinite",
            "supportsInterface(bytes4)": "292",
            "togglePause()": "infinite",
            "totalFunds()": "3370",
            "transferOwnership(address)": "30245",
            "userDebt(address)": "3762",
            "users(uint256)": "6870",
            "withdrawCollateral(address,uint256)": "infinite"
        }
    }
}