{
  "_format": "hh-sol-artifact-1",
  "contractName": "InterestRateModel",
  "sourceName": "contracts/InterestRateModel.sol",
  "abi": [
    {
      "inputs": [
        {
          "internalType": "address",
          "name": "_owner",
          "type": "address"
        },
        {
          "internalType": "address",
          "name": "_ethUsdOracle",
          "type": "address"
        },
        {
          "components": [
            {
              "internalType": "uint256",
              "name": "baseRate",
              "type": "uint256"
            },
            {
              "internalType": "uint256",
              "name": "kink",
              "type": "uint256"
            },
            {
              "internalType": "uint256",
              "name": "slope1",
              "type": "uint256"
            },
            {
              "internalType": "uint256",
              "name": "slope2",
              "type": "uint256"
            },
            {
              "internalType": "uint256",
              "name": "reserveFactor",
              "type": "uint256"
            },
            {
              "internalType": "uint256",
              "name": "maxBorrowRate",
              "type": "uint256"
            },
            {
              "internalType": "uint256",
              "name": "maxRateChange",
              "type": "uint256"
            },
            {
              "internalType": "uint256",
              "name": "ethPriceRiskPremium",
              "type": "uint256"
            },
            {
              "internalType": "uint256",
              "name": "ethVolatilityThreshold",
              "type": "uint256"
            },
            {
              "internalType": "uint256",
              "name": "oracleStalenessWindow",
              "type": "uint256"
            }
          ],
          "internalType": "struct InterestRateModel.RateParams",
          "name": "params",
          "type": "tuple"
        }
      ],
      "stateMutability": "nonpayable",
      "type": "constructor"
    },
    {
      "inputs": [
        {
          "internalType": "address",
          "name": "owner",
          "type": "address"
        }
      ],
      "name": "OwnableInvalidOwner",
      "type": "error"
    },
    {
      "inputs": [
        {
          "internalType": "address",
          "name": "account",
          "type": "address"
        }
      ],
      "name": "OwnableUnauthorizedAccount",
      "type": "error"
    },
    {
      "anonymous": false,
      "inputs": [
        {
          "indexed": true,
          "internalType": "address",
          "name": "newOracle",
          "type": "address"
        }
      ],
      "name": "OracleUpdated",
      "type": "event"
    },
    {
      "anonymous": false,
      "inputs": [
        {
          "indexed": true,
          "internalType": "address",
          "name": "previousOwner",
          "type": "address"
        },
        {
          "indexed": true,
          "internalType": "address",
          "name": "newOwner",
          "type": "address"
        }
      ],
      "name": "OwnershipTransferred",
      "type": "event"
    },
    {
      "anonymous": false,
      "inputs": [],
      "name": "ParametersUpdated",
      "type": "event"
    },
    {
      "anonymous": false,
      "inputs": [
        {
          "indexed": false,
          "internalType": "uint256",
          "name": "cappedRate",
          "type": "uint256"
        }
      ],
      "name": "RatesCapped",
      "type": "event"
    },
    {
      "inputs": [],
      "name": "baseRate",
      "outputs": [
        {
          "internalType": "uint256",
          "name": "",
          "type": "uint256"
        }
      ],
      "stateMutability": "view",
      "type": "function"
    },
    {
      "inputs": [],
      "name": "ethPriceRiskPremium",
      "outputs": [
        {
          "internalType": "uint256",
          "name": "",
          "type": "uint256"
        }
      ],
      "stateMutability": "view",
      "type": "function"
    },
    {
      "inputs": [],
      "name": "ethUsdOracle",
      "outputs": [
        {
          "internalType": "address",
          "name": "",
          "type": "address"
        }
      ],
      "stateMutability": "view",
      "type": "function"
    },
    {
      "inputs": [],
      "name": "ethVolatilityThreshold",
      "outputs": [
        {
          "internalType": "uint256",
          "name": "",
          "type": "uint256"
        }
      ],
      "stateMutability": "view",
      "type": "function"
    },
    {
      "inputs": [
        {
          "internalType": "uint256",
          "name": "utilization",
          "type": "uint256"
        }
      ],
      "name": "getBorrowRate",
      "outputs": [
        {
          "internalType": "uint256",
          "name": "",
          "type": "uint256"
        }
      ],
      "stateMutability": "view",
      "type": "function"
    },
    {
      "inputs": [
        {
          "internalType": "uint256",
          "name": "riskTier",
          "type": "uint256"
        }
      ],
      "name": "getBorrowerRate",
      "outputs": [
        {
          "internalType": "uint256",
          "name": "",
          "type": "uint256"
        }
      ],
      "stateMutability": "view",
      "type": "function"
    },
    {
      "inputs": [
        {
          "internalType": "uint256",
          "name": "totalBorrowed",
          "type": "uint256"
        },
        {
          "internalType": "uint256",
          "name": "totalSupplied",
          "type": "uint256"
        }
      ],
      "name": "getCurrentRates",
      "outputs": [
        {
          "internalType": "uint256",
          "name": "",
          "type": "uint256"
        },
        {
          "internalType": "uint256",
          "name": "",
          "type": "uint256"
        }
      ],
      "stateMutability": "view",
      "type": "function"
    },
    {
      "inputs": [],
      "name": "getEthPrice",
      "outputs": [
        {
          "internalType": "uint256",
          "name": "price",
          "type": "uint256"
        },
        {
          "internalType": "uint256",
          "name": "updatedAt",
          "type": "uint256"
        }
      ],
      "stateMutability": "view",
      "type": "function"
    },
    {
      "inputs": [
        {
          "internalType": "uint256",
          "name": "utilization",
          "type": "uint256"
        },
        {
          "internalType": "uint256",
          "name": "borrowRate",
          "type": "uint256"
        }
      ],
      "name": "getSupplyRate",
      "outputs": [
        {
          "internalType": "uint256",
          "name": "",
          "type": "uint256"
        }
      ],
      "stateMutability": "view",
      "type": "function"
    },
    {
      "inputs": [],
      "name": "kink",
      "outputs": [
        {
          "internalType": "uint256",
          "name": "",
          "type": "uint256"
        }
      ],
      "stateMutability": "view",
      "type": "function"
    },
    {
      "inputs": [],
      "name": "lastBorrowRate",
      "outputs": [
        {
          "internalType": "uint256",
          "name": "",
          "type": "uint256"
        }
      ],
      "stateMutability": "view",
      "type": "function"
    },
    {
      "inputs": [],
      "name": "lastEthPrice",
      "outputs": [
        {
          "internalType": "uint256",
          "name": "",
          "type": "uint256"
        }
      ],
      "stateMutability": "view",
      "type": "function"
    },
    {
      "inputs": [],
      "name": "lastEthPriceTimestamp",
      "outputs": [
        {
          "internalType": "uint256",
          "name": "",
          "type": "uint256"
        }
      ],
      "stateMutability": "view",
      "type": "function"
    },
    {
      "inputs": [],
      "name": "lastUpdateTimestamp",
      "outputs": [
        {
          "internalType": "uint256",
          "name": "",
          "type": "uint256"
        }
      ],
      "stateMutability": "view",
      "type": "function"
    },
    {
      "inputs": [],
      "name": "maxBorrowRate",
      "outputs": [
        {
          "internalType": "uint256",
          "name": "",
          "type": "uint256"
        }
      ],
      "stateMutability": "view",
      "type": "function"
    },
    {
      "inputs": [],
      "name": "maxRateChange",
      "outputs": [
        {
          "internalType": "uint256",
          "name": "",
          "type": "uint256"
        }
      ],
      "stateMutability": "view",
      "type": "function"
    },
    {
      "inputs": [],
      "name": "oracleStalenessWindow",
      "outputs": [
        {
          "internalType": "uint256",
          "name": "",
          "type": "uint256"
        }
      ],
      "stateMutability": "view",
      "type": "function"
    },
    {
      "inputs": [],
      "name": "owner",
      "outputs": [
        {
          "internalType": "address",
          "name": "",
          "type": "address"
        }
      ],
      "stateMutability": "view",
      "type": "function"
    },
    {
      "inputs": [],
      "name": "protocolRiskAdjustment",
      "outputs": [
        {
          "internalType": "int256",
          "name": "",
          "type": "int256"
        }
      ],
      "stateMutability": "view",
      "type": "function"
    },
    {
      "inputs": [],
      "name": "renounceOwnership",
      "outputs": [],
      "stateMutability": "nonpayable",
      "type": "function"
    },
    {
      "inputs": [],
      "name": "reserveFactor",
      "outputs": [
        {
          "internalType": "uint256",
          "name": "",
          "type": "uint256"
        }
      ],
      "stateMutability": "view",
      "type": "function"
    },
    {
      "inputs": [
        {
          "internalType": "address",
          "name": "newOracle",
          "type": "address"
        }
      ],
      "name": "setOracle",
      "outputs": [],
      "stateMutability": "nonpayable",
      "type": "function"
    },
    {
      "inputs": [
        {
          "internalType": "uint256",
          "name": "_baseRate",
          "type": "uint256"
        },
        {
          "internalType": "uint256",
          "name": "_kink",
          "type": "uint256"
        },
        {
          "internalType": "uint256",
          "name": "_slope1",
          "type": "uint256"
        },
        {
          "internalType": "uint256",
          "name": "_slope2",
          "type": "uint256"
        },
        {
          "internalType": "uint256",
          "name": "_reserveFactor",
          "type": "uint256"
        },
        {
          "internalType": "uint256",
          "name": "_maxBorrowRate",
          "type": "uint256"
        },
        {
          "internalType": "uint256",
          "name": "_maxRateChange",
          "type": "uint256"
        },
        {
          "internalType": "uint256",
          "name": "_ethPriceRiskPremium",
          "type": "uint256"
        },
        {
          "internalType": "uint256",
          "name": "_ethVolatilityThreshold",
          "type": "uint256"
        },
        {
          "internalType": "uint256",
          "name": "_oracleStalenessWindow",
          "type": "uint256"
        }
      ],
      "name": "setParameters",
      "outputs": [],
      "stateMutability": "nonpayable",
      "type": "function"
    },
    {
      "inputs": [
        {
          "internalType": "int256",
          "name": "adjustment",
          "type": "int256"
        }
      ],
      "name": "setProtocolRiskAdjustment",
      "outputs": [],
      "stateMutability": "nonpayable",
      "type": "function"
    },
    {
      "inputs": [
        {
          "internalType": "uint256",
          "name": "utilization",
          "type": "uint256"
        }
      ],
      "name": "simulateRates",
      "outputs": [
        {
          "internalType": "uint256",
          "name": "",
          "type": "uint256"
        },
        {
          "internalType": "uint256",
          "name": "",
          "type": "uint256"
        }
      ],
      "stateMutability": "view",
      "type": "function"
    },
    {
      "inputs": [],
      "name": "slope1",
      "outputs": [
        {
          "internalType": "uint256",
          "name": "",
          "type": "uint256"
        }
      ],
      "stateMutability": "view",
      "type": "function"
    },
    {
      "inputs": [],
      "name": "slope2",
      "outputs": [
        {
          "internalType": "uint256",
          "name": "",
          "type": "uint256"
        }
      ],
      "stateMutability": "view",
      "type": "function"
    },
    {
      "inputs": [
        {
          "internalType": "address",
          "name": "newOwner",
          "type": "address"
        }
      ],
      "name": "transferOwnership",
      "outputs": [],
      "stateMutability": "nonpayable",
      "type": "function"
    }
  ],
  "bytecode": "0x608060405234801561001057600080fd5b50604051610d67380380610d6783398101604081905261002f91610190565b826001600160a01b03811661005e57604051631e4fbdf760e01b81526000600482015260240160405180910390fd5b610067816100ed565b50600d80546001600160a01b0319166001600160a01b03939093169290921790915580516001819055602082015160025560408201516003556060820151600455608082015160055560a082015160065560c082015160075560e082015160085561010082015160095561012090910151600c556000601055600a555042600b55610262565b600080546001600160a01b038381166001600160a01b0319831681178455604051919092169283917f8be0079c531659141344cd1fd0a4f28419497f9722a3daafe3b4186f6b6457e09190a35050565b80516001600160a01b038116811461015457600080fd5b919050565b60405161014081016001600160401b038111828210171561018a57634e487b7160e01b600052604160045260246000fd5b60405290565b60008060008385036101808112156101a757600080fd5b6101b08561013d565b93506101be6020860161013d565b9250610140603f19820112156101d357600080fd5b506101dc610159565b604085810151825260608087015160208401526080808801519284019290925260a0808801519184019190915260c0808801519284019290925260e0808801519184019190915261010080880151928401929092526101208088015191840191909152610140870151918301919091526101609095015194810194909452509093909250565b610af6806102716000396000f3fe608060405234801561001057600080fd5b50600436106101c45760003560e01c80639b9066ca116100f9578063e178dc5c11610097578063f2e1409011610071578063f2e140901461032f578063f2fde38b14610342578063fd2da33914610355578063fe98a3601461035e57600080fd5b8063e178dc5c14610314578063e28aa8f81461031d578063e57ba1551461032657600080fd5b8063a62b75a8116100d3578063a62b75a8146102e6578063c0798fe4146102ef578063c0f2c3c314610302578063d0134cb71461030b57600080fd5b80639b9066ca146102b75780639fa83b5a146102ca578063a52e39ab146102dd57600080fd5b806367c9b0171161016657806377398f481161014057806377398f481461025f5780637adbf973146102685780638a97f9c91461027b5780638da5cb5b146102a657600080fd5b806367c9b017146102445780637038fc4e1461024c578063715018a61461025557600080fd5b80631f68f20a116101a25780631f68f20a146101f75780632a11a8a0146102005780634322b714146102135780634bdc9eaa1461021c57600080fd5b80630730eb56146101c95780630fa42b5a146101e557806314bcec9f146101ee575b600080fd5b6101d2600a5481565b6040519081526020015b60405180910390f35b6101d260065481565b6101d2600b5481565b6101d260015481565b6101d261020e3660046108b6565b610371565b6101d260055481565b61022f61022a3660046108d8565b6103c5565b604080519283526020830191909152016101dc565b61022f6103ed565b6101d2600e5481565b61025d610511565b005b6101d260085481565b61025d6102763660046108f1565b610525565b600d5461028e906001600160a01b031681565b6040516001600160a01b0390911681526020016101dc565b6000546001600160a01b031661028e565b61022f6102c53660046108b6565b610599565b6101d26102d83660046108d8565b6105f9565b6101d2600c5481565b6101d260035481565b6101d26102fd3660046108d8565b6106ef565b6101d260075481565b6101d260045481565b6101d260095481565b6101d260105481565b6101d2600f5481565b61025d61033d366004610921565b61070f565b61025d6103503660046108f1565b6107a0565b6101d260025481565b61025d61036c3660046108d8565b6107de565b600080600554670de0b6b3a764000061038a919061099f565b90506ec097ce7bc90715b34b9f1000000000816103a785876109b2565b6103b191906109b2565b6103bb91906109c9565b9150505b92915050565b60008060006103d3846105f9565b905060006103e18583610371565b91959194509092505050565b600d5460009081906001600160a01b03166104405760405162461bcd60e51b815260206004820152600e60248201526d13dc9858db19481b9bdd081cd95d60921b60448201526064015b60405180910390fd5b600d5460408051633fabe5a360e21b815290516001600160a01b03909216916000918291849163feaf968c9160048083019260a09291908290030181865afa158015610490573d6000803e3d6000fd5b505050506040513d601f19601f820116820180604052508101906104b49190610a0a565b50935050925050600c5481426104ca919061099f565b11156105075760405162461bcd60e51b815260206004820152600c60248201526b5374616c65206f7261636c6560a01b6044820152606401610437565b9094909350915050565b610519610839565b6105236000610866565b565b6000546001600160a01b0316331461054f5760405162461bcd60e51b815260040161043790610a5c565b600d80546001600160a01b0319166001600160a01b0383169081179091556040517f3df77beb5db05fcdd70a30fc8adf3f83f9501b68579455adbd100b818094039490600090a250565b600080826000036105af575060009050806105f2565b6000836105c486670de0b6b3a76400006109b2565b6105ce91906109c9565b905060006105db826105f9565b905060006105e98383610371565b91945090925050505b9250929050565b6000806002548311610634576002548360035461061691906109b2565b61062091906109c9565b60015461062d9190610a91565b9050610698565b600060025484610644919061099f565b90506000600254670de0b6b3a764000061065e919061099f565b9050808260045461066f91906109b2565b61067991906109c9565b6003546001546106899190610a91565b6106939190610a91565b925050505b600060105413156106b7576010546106b09082610a91565b90506106db565b600060105412156106db576010546106ce90610aa4565b6106d8908261099f565b90505b6006548111156103bf575060065492915050565b600061070282662386f26fc100006109b2565b6001546103bf9190610a91565b6000546001600160a01b031633146107395760405162461bcd60e51b815260040161043790610a5c565b60018a905560028990556003889055600487905560058690556006859055600784905560088390556009829055600c8190556040517f1e75f48d565290d5600a063ae01f58a35d4cd270ef71d444bbeb914224ca5d7790600090a150505050505050505050565b6107a8610839565b6001600160a01b0381166107d257604051631e4fbdf760e01b815260006004820152602401610437565b6107db81610866565b50565b6000546001600160a01b031633146108085760405162461bcd60e51b815260040161043790610a5c565b60108190556040517f1e75f48d565290d5600a063ae01f58a35d4cd270ef71d444bbeb914224ca5d7790600090a150565b6000546001600160a01b031633146105235760405163118cdaa760e01b8152336004820152602401610437565b600080546001600160a01b038381166001600160a01b0319831681178455604051919092169283917f8be0079c531659141344cd1fd0a4f28419497f9722a3daafe3b4186f6b6457e09190a35050565b600080604083850312156108c957600080fd5b50508035926020909101359150565b6000602082840312156108ea57600080fd5b5035919050565b60006020828403121561090357600080fd5b81356001600160a01b038116811461091a57600080fd5b9392505050565b6000806000806000806000806000806101408b8d03121561094157600080fd5b505088359a60208a01359a5060408a013599606081013599506080810135985060a0810135975060c0810135965060e081013595506101008101359450610120013592509050565b634e487b7160e01b600052601160045260246000fd5b818103818111156103bf576103bf610989565b80820281158282048414176103bf576103bf610989565b6000826109e657634e487b7160e01b600052601260045260246000fd5b500490565b805169ffffffffffffffffffff81168114610a0557600080fd5b919050565b600080600080600060a08688031215610a2257600080fd5b610a2b866109eb565b60208701516040880151606089015192975090955093509150610a50608087016109eb565b90509295509295909350565b6020808252818101527f4f776e61626c653a2063616c6c6572206973206e6f7420746865206f776e6572604082015260600190565b808201808211156103bf576103bf610989565b6000600160ff1b8201610ab957610ab9610989565b506000039056fea264697066735822122086446c454d880473e564c37135cf4fdd267125a8aa7299f9c08749131987c0cf64736f6c634300081c0033",
  "linkReferences": {},
  "deployedLinkReferences": {}
}