{
  "_format": "hh-sol-artifact-1",
  "contractName": "LendingManager",
  "sourceName": "contracts/LendingManager.sol",
  "abi": [
    {
      "inputs": [
        {
          "internalType": "address",
          "name": "initialOwner",
          "type": "address"
        },
        {
          "internalType": "address",
          "name": "_liquidityPool",
          "type": "address"
        }
      ],
      "stateMutability": "nonpayable",
      "type": "constructor"
    },
    {
      "inputs": [
        {
          "internalType": "address",
          "name": "owner",
          "type": "address"
        }
      ],
      "name": "OwnableInvalidOwner",
      "type": "error"
    },
    {
      "inputs": [
        {
          "internalType": "address",
          "name": "account",
          "type": "address"
        }
      ],
      "name": "OwnableUnauthorizedAccount",
      "type": "error"
    },
    {
      "anonymous": false,
      "inputs": [
        {
          "indexed": true,
          "internalType": "address",
          "name": "lender",
          "type": "address"
        },
        {
          "indexed": false,
          "internalType": "uint256",
          "name": "penaltyAmount",
          "type": "uint256"
        }
      ],
      "name": "EarlyWithdrawalPenalty",
      "type": "event"
    },
    {
      "anonymous": false,
      "inputs": [
        {
          "indexed": true,
          "internalType": "address",
          "name": "lender",
          "type": "address"
        },
        {
          "indexed": false,
          "internalType": "uint256",
          "name": "amount",
          "type": "uint256"
        }
      ],
      "name": "FundsDeposited",
      "type": "event"
    },
    {
      "anonymous": false,
      "inputs": [
        {
          "indexed": true,
          "internalType": "address",
          "name": "lender",
          "type": "address"
        },
        {
          "indexed": false,
          "internalType": "uint256",
          "name": "amount",
          "type": "uint256"
        },
        {
          "indexed": false,
          "internalType": "uint256",
          "name": "penalty",
          "type": "uint256"
        }
      ],
      "name": "FundsWithdrawn",
      "type": "event"
    },
    {
      "anonymous": false,
      "inputs": [
        {
          "indexed": true,
          "internalType": "address",
          "name": "lender",
          "type": "address"
        },
        {
          "indexed": false,
          "internalType": "uint256",
          "name": "amount",
          "type": "uint256"
        }
      ],
      "name": "InterestAvailable",
      "type": "event"
    },
    {
      "anonymous": false,
      "inputs": [
        {
          "indexed": true,
          "internalType": "address",
          "name": "lender",
          "type": "address"
        },
        {
          "indexed": false,
          "internalType": "uint256",
          "name": "interest",
          "type": "uint256"
        }
      ],
      "name": "InterestClaimed",
      "type": "event"
    },
    {
      "anonymous": false,
      "inputs": [
        {
          "indexed": true,
          "internalType": "address",
          "name": "lender",
          "type": "address"
        },
        {
          "indexed": false,
          "internalType": "uint256",
          "name": "interest",
          "type": "uint256"
        }
      ],
      "name": "InterestCredited",
      "type": "event"
    },
    {
      "anonymous": false,
      "inputs": [
        {
          "indexed": true,
          "internalType": "address",
          "name": "previousOwner",
          "type": "address"
        },
        {
          "indexed": true,
          "internalType": "address",
          "name": "newOwner",
          "type": "address"
        }
      ],
      "name": "OwnershipTransferred",
      "type": "event"
    },
    {
      "anonymous": false,
      "inputs": [
        {
          "indexed": true,
          "internalType": "address",
          "name": "lender",
          "type": "address"
        },
        {
          "indexed": false,
          "internalType": "uint256",
          "name": "amount",
          "type": "uint256"
        },
        {
          "indexed": false,
          "internalType": "uint256",
          "name": "unlockTime",
          "type": "uint256"
        }
      ],
      "name": "PrincipalWithdrawalRequested",
      "type": "event"
    },
    {
      "anonymous": false,
      "inputs": [
        {
          "indexed": true,
          "internalType": "address",
          "name": "lender",
          "type": "address"
        },
        {
          "indexed": false,
          "internalType": "uint256",
          "name": "amount",
          "type": "uint256"
        }
      ],
      "name": "WithdrawalCancelled",
      "type": "event"
    },
    {
      "anonymous": false,
      "inputs": [
        {
          "indexed": true,
          "internalType": "address",
          "name": "lender",
          "type": "address"
        },
        {
          "indexed": false,
          "internalType": "uint256",
          "name": "amount",
          "type": "uint256"
        },
        {
          "indexed": false,
          "internalType": "uint256",
          "name": "unlockTime",
          "type": "uint256"
        }
      ],
      "name": "WithdrawalRequested",
      "type": "event"
    },
    {
      "inputs": [],
      "name": "EARLY_WITHDRAWAL_PENALTY",
      "outputs": [
        {
          "internalType": "uint256",
          "name": "",
          "type": "uint256"
        }
      ],
      "stateMutability": "view",
      "type": "function"
    },
    {
      "inputs": [],
      "name": "MAX_DEPOSIT_AMOUNT",
      "outputs": [
        {
          "internalType": "uint256",
          "name": "",
          "type": "uint256"
        }
      ],
      "stateMutability": "view",
      "type": "function"
    },
    {
      "inputs": [],
      "name": "MIN_DEPOSIT_AMOUNT",
      "outputs": [
        {
          "internalType": "uint256",
          "name": "",
          "type": "uint256"
        }
      ],
      "stateMutability": "view",
      "type": "function"
    },
    {
      "inputs": [],
      "name": "SECONDS_PER_DAY",
      "outputs": [
        {
          "internalType": "uint256",
          "name": "",
          "type": "uint256"
        }
      ],
      "stateMutability": "view",
      "type": "function"
    },
    {
      "inputs": [],
      "name": "WITHDRAWAL_COOLDOWN",
      "outputs": [
        {
          "internalType": "uint256",
          "name": "",
          "type": "uint256"
        }
      ],
      "stateMutability": "view",
      "type": "function"
    },
    {
      "inputs": [
        {
          "internalType": "address",
          "name": "lender",
          "type": "address"
        }
      ],
      "name": "calculateInterest",
      "outputs": [
        {
          "internalType": "uint256",
          "name": "interest",
          "type": "uint256"
        }
      ],
      "stateMutability": "view",
      "type": "function"
    },
    {
      "inputs": [
        {
          "internalType": "uint256",
          "name": "amount",
          "type": "uint256"
        },
        {
          "internalType": "uint256",
          "name": "numDays",
          "type": "uint256"
        }
      ],
      "name": "calculatePotentialInterest",
      "outputs": [
        {
          "internalType": "uint256",
          "name": "",
          "type": "uint256"
        }
      ],
      "stateMutability": "view",
      "type": "function"
    },
    {
      "inputs": [
        {
          "internalType": "address",
          "name": "lender",
          "type": "address"
        }
      ],
      "name": "canCompleteWithdrawal",
      "outputs": [
        {
          "internalType": "bool",
          "name": "",
          "type": "bool"
        }
      ],
      "stateMutability": "view",
      "type": "function"
    },
    {
      "inputs": [],
      "name": "cancelPrincipalWithdrawal",
      "outputs": [],
      "stateMutability": "nonpayable",
      "type": "function"
    },
    {
      "inputs": [],
      "name": "claimInterest",
      "outputs": [],
      "stateMutability": "nonpayable",
      "type": "function"
    },
    {
      "inputs": [],
      "name": "completeWithdrawal",
      "outputs": [],
      "stateMutability": "nonpayable",
      "type": "function"
    },
    {
      "inputs": [],
      "name": "currentDailyRate",
      "outputs": [
        {
          "internalType": "uint256",
          "name": "",
          "type": "uint256"
        }
      ],
      "stateMutability": "view",
      "type": "function"
    },
    {
      "inputs": [
        {
          "internalType": "uint256",
          "name": "",
          "type": "uint256"
        }
      ],
      "name": "dailyInterestRate",
      "outputs": [
        {
          "internalType": "uint256",
          "name": "",
          "type": "uint256"
        }
      ],
      "stateMutability": "view",
      "type": "function"
    },
    {
      "inputs": [],
      "name": "depositFunds",
      "outputs": [],
      "stateMutability": "payable",
      "type": "function"
    },
    {
      "inputs": [
        {
          "internalType": "address",
          "name": "lender",
          "type": "address"
        }
      ],
      "name": "getAvailableInterest",
      "outputs": [
        {
          "internalType": "uint256",
          "name": "",
          "type": "uint256"
        }
      ],
      "stateMutability": "view",
      "type": "function"
    },
    {
      "inputs": [
        {
          "internalType": "uint256",
          "name": "amount",
          "type": "uint256"
        }
      ],
      "name": "getInterestRate",
      "outputs": [
        {
          "internalType": "uint256",
          "name": "",
          "type": "uint256"
        }
      ],
      "stateMutability": "view",
      "type": "function"
    },
    {
      "inputs": [
        {
          "internalType": "uint256",
          "name": "index",
          "type": "uint256"
        }
      ],
      "name": "getInterestTier",
      "outputs": [
        {
          "internalType": "uint256",
          "name": "minAmount",
          "type": "uint256"
        },
        {
          "internalType": "uint256",
          "name": "rate",
          "type": "uint256"
        }
      ],
      "stateMutability": "view",
      "type": "function"
    },
    {
      "inputs": [],
      "name": "getInterestTierCount",
      "outputs": [
        {
          "internalType": "uint256",
          "name": "",
          "type": "uint256"
        }
      ],
      "stateMutability": "view",
      "type": "function"
    },
    {
      "inputs": [
        {
          "internalType": "address",
          "name": "lender",
          "type": "address"
        }
      ],
      "name": "getLenderInfo",
      "outputs": [
        {
          "internalType": "uint256",
          "name": "balance",
          "type": "uint256"
        },
        {
          "internalType": "uint256",
          "name": "pendingInterest",
          "type": "uint256"
        },
        {
          "internalType": "uint256",
          "name": "earnedInterest",
          "type": "uint256"
        },
        {
          "internalType": "uint256",
          "name": "nextInterestUpdate",
          "type": "uint256"
        },
        {
          "internalType": "uint256",
          "name": "penaltyFreeWithdrawalTime",
          "type": "uint256"
        },
        {
          "internalType": "uint256",
          "name": "lastDistributionTime",
          "type": "uint256"
        }
      ],
      "stateMutability": "view",
      "type": "function"
    },
    {
      "inputs": [
        {
          "internalType": "address",
          "name": "lender",
          "type": "address"
        }
      ],
      "name": "getWithdrawalStatus",
      "outputs": [
        {
          "internalType": "uint256",
          "name": "availableAt",
          "type": "uint256"
        },
        {
          "internalType": "uint256",
          "name": "penaltyIfWithdrawnNow",
          "type": "uint256"
        },
        {
          "internalType": "bool",
          "name": "isAvailableWithoutPenalty",
          "type": "bool"
        },
        {
          "internalType": "uint256",
          "name": "nextInterestDistribution",
          "type": "uint256"
        },
        {
          "internalType": "uint256",
          "name": "availableInterest",
          "type": "uint256"
        }
      ],
      "stateMutability": "view",
      "type": "function"
    },
    {
      "inputs": [
        {
          "internalType": "uint256",
          "name": "",
          "type": "uint256"
        }
      ],
      "name": "interestTiers",
      "outputs": [
        {
          "internalType": "uint256",
          "name": "minAmount",
          "type": "uint256"
        },
        {
          "internalType": "uint256",
          "name": "rate",
          "type": "uint256"
        }
      ],
      "stateMutability": "view",
      "type": "function"
    },
    {
      "inputs": [],
      "name": "lastRateUpdateDay",
      "outputs": [
        {
          "internalType": "uint256",
          "name": "",
          "type": "uint256"
        }
      ],
      "stateMutability": "view",
      "type": "function"
    },
    {
      "inputs": [
        {
          "internalType": "address",
          "name": "",
          "type": "address"
        }
      ],
      "name": "lenders",
      "outputs": [
        {
          "internalType": "uint256",
          "name": "balance",
          "type": "uint256"
        },
        {
          "internalType": "uint256",
          "name": "depositTimestamp",
          "type": "uint256"
        },
        {
          "internalType": "uint256",
          "name": "lastInterestUpdate",
          "type": "uint256"
        },
        {
          "internalType": "uint256",
          "name": "interestIndex",
          "type": "uint256"
        },
        {
          "internalType": "uint256",
          "name": "earnedInterest",
          "type": "uint256"
        },
        {
          "internalType": "uint256",
          "name": "pendingPrincipalWithdrawal",
          "type": "uint256"
        },
        {
          "internalType": "uint256",
          "name": "withdrawalRequestTime",
          "type": "uint256"
        },
        {
          "internalType": "uint256",
          "name": "lastInterestDistribution",
          "type": "uint256"
        },
        {
          "internalType": "uint256",
          "name": "lastWithdrawalTime",
          "type": "uint256"
        }
      ],
      "stateMutability": "view",
      "type": "function"
    },
    {
      "inputs": [],
      "name": "liquidityPool",
      "outputs": [
        {
          "internalType": "address",
          "name": "",
          "type": "address"
        }
      ],
      "stateMutability": "view",
      "type": "function"
    },
    {
      "inputs": [],
      "name": "owner",
      "outputs": [
        {
          "internalType": "address",
          "name": "",
          "type": "address"
        }
      ],
      "stateMutability": "view",
      "type": "function"
    },
    {
      "inputs": [],
      "name": "renounceOwnership",
      "outputs": [],
      "stateMutability": "nonpayable",
      "type": "function"
    },
    {
      "inputs": [
        {
          "internalType": "uint256",
          "name": "amount",
          "type": "uint256"
        }
      ],
      "name": "requestWithdrawal",
      "outputs": [],
      "stateMutability": "nonpayable",
      "type": "function"
    },
    {
      "inputs": [
        {
          "internalType": "uint256",
          "name": "newRate",
          "type": "uint256"
        }
      ],
      "name": "setCurrentDailyRate",
      "outputs": [],
      "stateMutability": "nonpayable",
      "type": "function"
    },
    {
      "inputs": [
        {
          "internalType": "uint256",
          "name": "newPenalty",
          "type": "uint256"
        }
      ],
      "name": "setEarlyWithdrawalPenalty",
      "outputs": [],
      "stateMutability": "nonpayable",
      "type": "function"
    },
    {
      "inputs": [
        {
          "internalType": "uint256",
          "name": "index",
          "type": "uint256"
        },
        {
          "internalType": "uint256",
          "name": "minAmount",
          "type": "uint256"
        },
        {
          "internalType": "uint256",
          "name": "rate",
          "type": "uint256"
        }
      ],
      "name": "setInterestTier",
      "outputs": [],
      "stateMutability": "nonpayable",
      "type": "function"
    },
    {
      "inputs": [],
      "name": "totalLent",
      "outputs": [
        {
          "internalType": "uint256",
          "name": "",
          "type": "uint256"
        }
      ],
      "stateMutability": "view",
      "type": "function"
    },
    {
      "inputs": [
        {
          "internalType": "address",
          "name": "newOwner",
          "type": "address"
        }
      ],
      "name": "transferOwnership",
      "outputs": [],
      "stateMutability": "nonpayable",
      "type": "function"
    },
    {
      "stateMutability": "payable",
      "type": "receive"
    }
  ],
  "bytecode": "0x608060405234801561001057600080fd5b50604051611f4a380380611f4a83398101604081905261002f9161021d565b816001600160a01b03811661005e57604051631e4fbdf760e01b81526000600482015260240160405180910390fd5b610067816101b1565b50600880546001600160a01b0319166001600160a01b0383161790556005600755670de12d4cc511c0006003556100a16201518042610250565b6004555050604080518082018252678ac7230489e800008152670de13f20401b6000602080830191825260068054600181810183556000838152955160029283027ff652222313e28459528d920b65115c16c04f3efc82aaedc97be59f3f377c0d3f8181019290925595517ff652222313e28459528d920b65115c16c04f3efc82aaedc97be59f3f377c0d409687015587518089018952674563918244f400008152670de13607f1a8c00081870190815285548085018755868a5291519185028084019290925551908701558751808901909852670de0b6b3a76400008852670de12d4cc511c0009488019485528354918201845592909552945193909402938401929092559051910155610272565b600080546001600160a01b038381166001600160a01b0319831681178455604051919092169283917f8be0079c531659141344cd1fd0a4f28419497f9722a3daafe3b4186f6b6457e09190a35050565b80516001600160a01b038116811461021857600080fd5b919050565b6000806040838503121561023057600080fd5b61023983610201565b915061024760208401610201565b90509250929050565b60008261026d57634e487b7160e01b600052601260045260246000fd5b500490565b611cc9806102816000396000f3fe6080604052600436106101e75760003560e01c806382ee21fc11610102578063cca4391611610095578063e2c41dbc11610064578063e2c41dbc1461063c578063f2fde38b14610644578063fccf6a1e14610664578063feedab00146104a957600080fd5b8063cca43916146105c2578063d7047310146105d7578063e03ff7cb14610607578063e11932cf1461061c57600080fd5b80639ee679e8116100d15780639ee679e81461052a578063ab19f0951461054a578063ade2854d14610597578063b918ee25146105ac57600080fd5b806382ee21fc146104c05780638a2e98f3146104d65780638da5cb5b146104f657806394e95da31461051457600080fd5b806335981fd81161017a5780636d7c218b116101495780636d7c218b1461042f578063715018a6146104455780637491687e1461045a57806374f0314f146104a957600080fd5b806335981fd8146103a55780634c34a982146103ba578063537dd93a146103d7578063665a11ca146103f757600080fd5b806321bf8985116101b657806321bf89851461028357806328fd10d7146102b857806332aa9b681461036557806333ec339e1461038557600080fd5b80630c196a74146101f35780631876b415146102265780631a3f61cd146102465780631ea30fef1461026857600080fd5b366101ee57005b600080fd5b3480156101ff57600080fd5b5061021361020e366004611ae7565b610691565b6040519081526020015b60405180910390f35b34801561023257600080fd5b50610213610241366004611b00565b6106a2565b34801561025257600080fd5b50610266610261366004611ae7565b610710565b005b34801561027457600080fd5b50610213662386f26fc1000081565b34801561028f57600080fd5b506102a361029e366004611ae7565b610781565b6040805192835260208301919091520161021d565b3480156102c457600080fd5b506103216102d3366004611b22565b60016020528060005260406000206000915090508060000154908060010154908060020154908060030154908060040154908060050154908060060154908060070154908060080154905089565b60408051998a5260208a0198909852968801959095526060870193909352608086019190915260a085015260c084015260e08301526101008201526101200161021d565b34801561037157600080fd5b50610213610380366004611b22565b6107af565b34801561039157600080fd5b506102666103a0366004611b4b565b610876565b3480156103b157600080fd5b50610266610998565b3480156103c657600080fd5b5061021368056bc75e2d6310000081565b3480156103e357600080fd5b506102a36103f2366004611ae7565b610b81565b34801561040357600080fd5b50600854610417906001600160a01b031681565b6040516001600160a01b03909116815260200161021d565b34801561043b57600080fd5b5061021360025481565b34801561045157600080fd5b50610266610c19565b34801561046657600080fd5b5061047a610475366004611b22565b610c2d565b60405161021d959493929190948552602085019390935290151560408401526060830152608082015260a00190565b3480156104b557600080fd5b506102136201518081565b3480156104cc57600080fd5b5061021360035481565b3480156104e257600080fd5b506102666104f1366004611ae7565b610da8565b34801561050257600080fd5b506000546001600160a01b0316610417565b34801561052057600080fd5b5061021360045481565b34801561053657600080fd5b50610266610545366004611ae7565b610df9565b34801561055657600080fd5b5061056a610565366004611b22565b610f22565b604080519687526020870195909552938501929092526060840152608083015260a082015260c00161021d565b3480156105a357600080fd5b50600654610213565b3480156105b857600080fd5b5061021360075481565b3480156105ce57600080fd5b50610266611015565b3480156105e357600080fd5b506105f76105f2366004611b22565b6110be565b604051901515815260200161021d565b34801561061357600080fd5b50610266611166565b34801561062857600080fd5b50610213610637366004611b22565b6113b1565b6102666114d4565b34801561065057600080fd5b5061026661065f366004611b22565b6116f8565b34801561067057600080fd5b5061021361067f366004611ae7565b60056020526000908152604090205481565b600061069c82611736565b92915050565b6000806106ad6117cb565b90508060005b848110156106e657670de0b6b3a7640000600354836106d29190611b8d565b6106dc9190611ba4565b91506001016106b3565b5084826106f38383611b8d565b6106fd9190611ba4565b6107079190611bc6565b95945050505050565b610718611871565b670de0b6b3a76400008110156107695760405162461bcd60e51b815260206004820152601160248201527052617465206d757374206265203e3d203160781b60448201526064015b60405180910390fd5b600381905561077b6201518042611ba4565b60045550565b6006818154811061079157600080fd5b60009182526020909120600290910201805460019091015490915082565b6001600160a01b0381166000908152600160208181526040808420815161012081018352815480825294820154938101939093526002810154918301919091526003810154606083015260048101546080830152600581015460a0830152600681015460c0830152600781015460e08301526008015461010082015290820361083b5750600092915050565b60006108456117cb565b825160608401519192509061085a8383611b8d565b6108649190611ba4565b61086e9190611bc6565b949350505050565b61087e611871565b670de0b6b3a76400008110156108ca5760405162461bcd60e51b815260206004820152601160248201527052617465206d757374206265203e3d203160781b6044820152606401610760565b600654831061094c5760408051808201909152918252602082019081526006805460018101825560009190915291517ff652222313e28459528d920b65115c16c04f3efc82aaedc97be59f3f377c0d3f600290930292830155517ff652222313e28459528d920b65115c16c04f3efc82aaedc97be59f3f377c0d409091015550565b6040518060400160405280838152602001828152506006848154811061097457610974611bd9565b60009182526020918290208351600290920201908155910151600190910155505050565b33600090815260016020526040812080549091036109ed5760405162461bcd60e51b8152602060048201526012602482015271139bc8199d5b991cc819195c1bdcda5d195960721b6044820152606401610760565b6109f63361189e565b60048101546000819003610a435760405162461bcd60e51b81526020600482015260146024820152734e6f20696e74657265737420746f20636c61696d60601b6044820152606401610760565b600082600401819055508060026000828254610a5f9190611bc6565b9091555050600854604051602481018390526000916001600160a01b03169060440160408051601f198184030181529181526020820180516001600160e01b031663e19fb8f560e01b17905251610ab69190611bef565b6000604051808303816000865af19150503d8060008114610af3576040519150601f19603f3d011682016040523d82523d6000602084013e610af8565b606091505b5050905080610b195760405162461bcd60e51b815260040161076090611c1e565b604051339083156108fc029084906000818181858888f19350505050158015610b46573d6000803e3d6000fd5b5060405182815233907ff9984c8173c4b4ff9cc454f76ed19c053f4490ccb224fd9ddffeb4ef4bea35309060200160405180910390a2505050565b60065460009081908310610bcc5760405162461bcd60e51b8152602060048201526012602482015271092dcecc2d8d2c840e8d2cae440d2dcc8caf60731b6044820152606401610760565b600060068481548110610be157610be1611bd9565b600091825260209182902060408051808201909152600290920201805480835260019091015491909201819052909590945092505050565b610c21611871565b610c2b60006119a0565b565b6001600160a01b038116600090815260016020818152604080842081516101208101835281548152938101549284018390526002810154918401919091526003810154606084015260048101546080840152600581015460a0840152600681015460c0840152600781015460e0840152600801546101008301528291829182918291610cbd906201518090611c69565b9550854210610ccd576000610ce8565b6007548151606491610cde91611b8d565b610ce89190611ba4565b945085421015935060008160e00151600003610d1257610d0b6201518042611c69565b9050610d28565b620151808260e00151610d259190611c69565b90505b610d36620151806002611b8d565b610d409042611c69565b811115610d5b57610d546201518042611c69565b9350610d5f565b8093505b815115610d9d576000610d706117cb565b8351606085015191925090610d858383611b8d565b610d8f9190611ba4565b610d999190611bc6565b9350505b505091939590929450565b610db0611871565b6064811115610df45760405162461bcd60e51b815260206004820152601060248201526f0a0cadcc2d8e8f240e8dede40d0d2ced60831b6044820152606401610760565b600755565b3360009081526001602052604090206008810154610e1b906201518090611c69565b421015610e6a5760405162461bcd60e51b815260206004820152601d60248201527f4d757374207761697420666f7220636f6f6c646f776e20706572696f640000006044820152606401610760565b8054821115610eb25760405162461bcd60e51b8152602060048201526014602482015273496e73756666696369656e742062616c616e636560601b6044820152606401610760565b610ebb3361189e565b6005810182905542600682018190556008820181905533907f24b91f4f47caf44230a57777a9be744924e82bf666f2d5702faf97df35e60f9f908490610f05906201518090611c69565b604080519283526020830191909152015b60405180910390a25050565b6001600160a01b038116600090815260016020818152604080842081516101208101835281548082529482015493810184905260028201549281019290925260038101546060830152600481015460808301819052600582015460a0840152600682015460c0840152600782015460e08401526008909101546101008301529293929183918291829190610fba906201518090611c69565b60e082015190935091508615611000576000610fd46117cb565b9050878260600151828a610fe89190611b8d565b610ff29190611ba4565b610ffc9190611bc6565b9650505b611009886119f0565b93505091939550919395565b33600090815260016020526040812060058101549091036110785760405162461bcd60e51b815260206004820152601f60248201527f4e6f2070656e64696e67207769746864726177616c20746f2063616e63656c006044820152606401610760565b600581018054600091829055600683019190915560405181815233907f2eed97477f07c07ec48f8f678f4e84f7c0de55bf33f51c3dc989b1335308031990602001610f16565b6001600160a01b03811660009081526001602081815260408084208151610120810183528154815293810154928401929092526002820154908301526003810154606083015260048101546080830152600581015460a08301819052600682015460c0840152600782015460e084015260089091015461010083015282036111495750600092915050565b620151808160c0015161115c9190611c69565b4210159392505050565b33600090815260016020526040812060058101549091036111c15760405162461bcd60e51b8152602060048201526015602482015274139bc81c195b991a5b99c81dda5d1a191c985dd85b605a1b6044820152606401610760565b600581015460018201546000906111dc906201518090611c69565b421015611242576064600754836111f39190611b8d565b6111fd9190611ba4565b90506112098183611bc6565b60405182815290925033907fb6a45448c8250adf8d836e047d46f96410d632c7089720e3aed88fcb76644ded9060200160405180910390a25b61124c8183611c69565b83600001600082825461125f9190611bc6565b9091555061126f90508183611c69565b600260008282546112809190611bc6565b9091555050600060058401819055600854604051602481018590526001600160a01b039091169060440160408051601f198184030181529181526020820180516001600160e01b031663e19fb8f560e01b179052516112df9190611bef565b6000604051808303816000865af19150503d806000811461131c576040519150601f19603f3d011682016040523d82523d6000602084013e611321565b606091505b50509050806113425760405162461bcd60e51b815260040161076090611c1e565b604051339084156108fc029085906000818181858888f1935050505015801561136f573d6000803e3d6000fd5b50604080518481526020810184905233917ffbc3a599b784fe88772fc5abcc07223f64ca0b13acc341f4fb1e46bef0510eb4910160405180910390a250505050565b6001600160a01b0381166000908152600160208181526040808420815161012081018352815480825294820154938101939093526002810154918301919091526003810154606083015260048101546080830152600581015460a0830152600681015460c0830152600781015460e08301526008015461010082015290820361143d5750600092915050565b60006114476117cb565b905060006201518083604001514261145f9190611bc6565b6114699190611ba4565b905080156114cc57825160608401516114828483611b8d565b61148c9190611ba4565b6114969190611bc6565b935060005b818110156114ca57670de0b6b3a76400006114b68487611b8d565b6114c09190611ba4565b945060010161149b565b505b505050919050565b662386f26fc100003410156115245760405162461bcd60e51b81526020600482015260166024820152754465706f73697420616d6f756e7420746f6f206c6f7760501b6044820152606401610760565b3360009081526001602052604090205468056bc75e2d63100000906115499034611c69565b11156115a25760405162461bcd60e51b815260206004820152602260248201527f4465706f73697420776f756c6420657863656564206d6178696d756d206c696d6044820152611a5d60f21b6064820152608401610760565b6008546040516000916001600160a01b03169034908381818185875af1925050503d80600081146115ef576040519150601f19603f3d011682016040523d82523d6000602084013e6115f4565b606091505b50509050806116575760405162461bcd60e51b815260206004820152602960248201527f4661696c656420746f20666f72776172642066756e647320746f206c69717569604482015268191a5d1e481c1bdbdb60ba1b6064820152608401610760565b336000818152600160205260409020906116709061189e565b8054600003611694576116816117cb565b6003820155426001820181905560078201555b348160000160008282546116a89190611c69565b9250508190555034600260008282546116c19190611c69565b909155505060405134815233907f543ba50a5eec5e6178218e364b1d0f396157b3c8fa278522c2cb7fd99407d47490602001610f16565b611700611871565b6001600160a01b03811661172a57604051631e4fbdf760e01b815260006004820152602401610760565b611733816119a0565b50565b6006546000905b80156117c1576006611750600183611bc6565b8154811061176057611760611bd9565b90600052602060002090600202016000015483106117af576006611785600183611bc6565b8154811061179557611795611bd9565b906000526020600020906002020160010154915050919050565b806117b981611c7c565b91505061173d565b5050600354919050565b6000806117db6201518042611ba4565b90506000600454826117ed9190611bc6565b9050806000036118295760008281526005602052604090205461181257600354611822565b6000828152600560205260409020545b9250505090565b60035460005b8281101561186957670de0b6b3a764000061184b600254611736565b6118559084611b8d565b61185f9190611ba4565b915060010161182f565b509392505050565b6000546001600160a01b03163314610c2b5760405163118cdaa760e01b8152336004820152602401610760565b6001600160a01b038116600090815260016020526040812080549091036118c3575050565b60006118cd6117cb565b825460038401549192506000916118e48483611b8d565b6118ee9190611ba4565b6118f89190611bc6565b9050801561199057808360040160008282546119149190611c69565b909155505082548190849060009061192d908490611c69565b9250508190555080600260008282546119469190611c69565b90915550504260078401556040518181526001600160a01b038516907f65724bab62e2b372c625ed834016c4e1750f8074aad18b22844457f35ea61d739060200160405180910390a25b5060038201554260029091015550565b600080546001600160a01b038381166001600160a01b0319831681178455604051919092169283917f8be0079c531659141344cd1fd0a4f28419497f9722a3daafe3b4186f6b6457e09190a35050565b6001600160a01b0381166000908152600160208181526040808420815161012081018352815480825294820154938101939093526002810154918301919091526003810154606083015260048101546080830152600581015460a0830152600681015460c0830152600781015460e083015260080154610100820152908203611a7c5750600092915050565b60008160e00151600003611a9e57611a976201518042611c69565b9050611ab4565b620151808260e00151611ab19190611c69565b90505b611ac2620151806002611b8d565b611acc9042611c69565b811115611ae05761086e6201518042611c69565b9392505050565b600060208284031215611af957600080fd5b5035919050565b60008060408385031215611b1357600080fd5b50508035926020909101359150565b600060208284031215611b3457600080fd5b81356001600160a01b0381168114611ae057600080fd5b600080600060608486031215611b6057600080fd5b505081359360208301359350604090920135919050565b634e487b7160e01b600052601160045260246000fd5b808202811582820484141761069c5761069c611b77565b600082611bc157634e487b7160e01b600052601260045260246000fd5b500490565b8181038181111561069c5761069c611b77565b634e487b7160e01b600052603260045260246000fd5b6000825160005b81811015611c105760208186018101518583015201611bf6565b506000920191825250919050565b6020808252602b908201527f4661696c656420746f20657874726163742066756e64732066726f6d206c697160408201526a1d5a591a5d1e481c1bdbdb60aa1b606082015260800190565b8082018082111561069c5761069c611b77565b600081611c8b57611c8b611b77565b50600019019056fea2646970667358221220e0642d9980e9c42c186bb2a488345f61c00dfd56bf15ee64bf87f9ef8471531764736f6c634300081c0033",
  "linkReferences": {},
  "deployedLinkReferences": {}
}