{
  "_format": "hh-sol-artifact-1",
  "contractName": "LendingManager",
  "sourceName": "contracts/LendingManager.sol",
  "abi": [
    {
      "inputs": [
        {
          "internalType": "address",
          "name": "initialOwner",
          "type": "address"
        },
        {
          "internalType": "address",
          "name": "_liquidityPool",
          "type": "address"
        }
      ],
      "stateMutability": "nonpayable",
      "type": "constructor"
    },
    {
      "inputs": [
        {
          "internalType": "address",
          "name": "owner",
          "type": "address"
        }
      ],
      "name": "OwnableInvalidOwner",
      "type": "error"
    },
    {
      "inputs": [
        {
          "internalType": "address",
          "name": "account",
          "type": "address"
        }
      ],
      "name": "OwnableUnauthorizedAccount",
      "type": "error"
    },
    {
      "anonymous": false,
      "inputs": [
        {
          "indexed": true,
          "internalType": "address",
          "name": "lender",
          "type": "address"
        },
        {
          "indexed": false,
          "internalType": "uint256",
          "name": "penaltyAmount",
          "type": "uint256"
        }
      ],
      "name": "EarlyWithdrawalPenalty",
      "type": "event"
    },
    {
      "anonymous": false,
      "inputs": [
        {
          "indexed": true,
          "internalType": "address",
          "name": "lender",
          "type": "address"
        },
        {
          "indexed": false,
          "internalType": "uint256",
          "name": "amount",
          "type": "uint256"
        }
      ],
      "name": "FundsDeposited",
      "type": "event"
    },
    {
      "anonymous": false,
      "inputs": [
        {
          "indexed": true,
          "internalType": "address",
          "name": "lender",
          "type": "address"
        },
        {
          "indexed": false,
          "internalType": "uint256",
          "name": "amount",
          "type": "uint256"
        },
        {
          "indexed": false,
          "internalType": "uint256",
          "name": "penalty",
          "type": "uint256"
        }
      ],
      "name": "FundsWithdrawn",
      "type": "event"
    },
    {
      "anonymous": false,
      "inputs": [
        {
          "indexed": true,
          "internalType": "address",
          "name": "lender",
          "type": "address"
        },
        {
          "indexed": false,
          "internalType": "uint256",
          "name": "amount",
          "type": "uint256"
        }
      ],
      "name": "InterestAvailable",
      "type": "event"
    },
    {
      "anonymous": false,
      "inputs": [
        {
          "indexed": true,
          "internalType": "address",
          "name": "lender",
          "type": "address"
        },
        {
          "indexed": false,
          "internalType": "uint256",
          "name": "interest",
          "type": "uint256"
        }
      ],
      "name": "InterestClaimed",
      "type": "event"
    },
    {
      "anonymous": false,
      "inputs": [
        {
          "indexed": true,
          "internalType": "address",
          "name": "lender",
          "type": "address"
        },
        {
          "indexed": false,
          "internalType": "uint256",
          "name": "interest",
          "type": "uint256"
        }
      ],
      "name": "InterestCredited",
      "type": "event"
    },
    {
      "anonymous": false,
      "inputs": [
        {
          "indexed": true,
          "internalType": "address",
          "name": "previousOwner",
          "type": "address"
        },
        {
          "indexed": true,
          "internalType": "address",
          "name": "newOwner",
          "type": "address"
        }
      ],
      "name": "OwnershipTransferred",
      "type": "event"
    },
    {
      "anonymous": false,
      "inputs": [
        {
          "indexed": true,
          "internalType": "address",
          "name": "lender",
          "type": "address"
        },
        {
          "indexed": false,
          "internalType": "uint256",
          "name": "amount",
          "type": "uint256"
        },
        {
          "indexed": false,
          "internalType": "uint256",
          "name": "unlockTime",
          "type": "uint256"
        }
      ],
      "name": "PrincipalWithdrawalRequested",
      "type": "event"
    },
    {
      "anonymous": false,
      "inputs": [
        {
          "indexed": true,
          "internalType": "address",
          "name": "lender",
          "type": "address"
        },
        {
          "indexed": false,
          "internalType": "uint256",
          "name": "amount",
          "type": "uint256"
        }
      ],
      "name": "WithdrawalCancelled",
      "type": "event"
    },
    {
      "anonymous": false,
      "inputs": [
        {
          "indexed": true,
          "internalType": "address",
          "name": "lender",
          "type": "address"
        },
        {
          "indexed": false,
          "internalType": "uint256",
          "name": "amount",
          "type": "uint256"
        },
        {
          "indexed": false,
          "internalType": "uint256",
          "name": "unlockTime",
          "type": "uint256"
        }
      ],
      "name": "WithdrawalRequested",
      "type": "event"
    },
    {
      "inputs": [],
      "name": "EARLY_WITHDRAWAL_PENALTY",
      "outputs": [
        {
          "internalType": "uint256",
          "name": "",
          "type": "uint256"
        }
      ],
      "stateMutability": "view",
      "type": "function"
    },
    {
      "inputs": [],
      "name": "MAX_DEPOSIT_AMOUNT",
      "outputs": [
        {
          "internalType": "uint256",
          "name": "",
          "type": "uint256"
        }
      ],
      "stateMutability": "view",
      "type": "function"
    },
    {
      "inputs": [],
      "name": "MIN_DEPOSIT_AMOUNT",
      "outputs": [
        {
          "internalType": "uint256",
          "name": "",
          "type": "uint256"
        }
      ],
      "stateMutability": "view",
      "type": "function"
    },
    {
      "inputs": [],
      "name": "SECONDS_PER_DAY",
      "outputs": [
        {
          "internalType": "uint256",
          "name": "",
          "type": "uint256"
        }
      ],
      "stateMutability": "view",
      "type": "function"
    },
    {
      "inputs": [],
      "name": "WITHDRAWAL_COOLDOWN",
      "outputs": [
        {
          "internalType": "uint256",
          "name": "",
          "type": "uint256"
        }
      ],
      "stateMutability": "view",
      "type": "function"
    },
    {
      "inputs": [
        {
          "internalType": "address",
          "name": "lender",
          "type": "address"
        }
      ],
      "name": "calculateInterest",
      "outputs": [
        {
          "internalType": "uint256",
          "name": "interest",
          "type": "uint256"
        }
      ],
      "stateMutability": "view",
      "type": "function"
    },
    {
      "inputs": [
        {
          "internalType": "uint256",
          "name": "amount",
          "type": "uint256"
        },
        {
          "internalType": "uint256",
          "name": "numDays",
          "type": "uint256"
        }
      ],
      "name": "calculatePotentialInterest",
      "outputs": [
        {
          "internalType": "uint256",
          "name": "",
          "type": "uint256"
        }
      ],
      "stateMutability": "view",
      "type": "function"
    },
    {
      "inputs": [
        {
          "internalType": "address",
          "name": "lender",
          "type": "address"
        }
      ],
      "name": "canCompleteWithdrawal",
      "outputs": [
        {
          "internalType": "bool",
          "name": "",
          "type": "bool"
        }
      ],
      "stateMutability": "view",
      "type": "function"
    },
    {
      "inputs": [],
      "name": "cancelPrincipalWithdrawal",
      "outputs": [],
      "stateMutability": "nonpayable",
      "type": "function"
    },
    {
      "inputs": [],
      "name": "claimInterest",
      "outputs": [],
      "stateMutability": "nonpayable",
      "type": "function"
    },
    {
      "inputs": [],
      "name": "completeWithdrawal",
      "outputs": [],
      "stateMutability": "nonpayable",
      "type": "function"
    },
    {
      "inputs": [],
      "name": "currentDailyRate",
      "outputs": [
        {
          "internalType": "uint256",
          "name": "",
          "type": "uint256"
        }
      ],
      "stateMutability": "view",
      "type": "function"
    },
    {
      "inputs": [
        {
          "internalType": "uint256",
          "name": "",
          "type": "uint256"
        }
      ],
      "name": "dailyInterestRate",
      "outputs": [
        {
          "internalType": "uint256",
          "name": "",
          "type": "uint256"
        }
      ],
      "stateMutability": "view",
      "type": "function"
    },
    {
      "inputs": [],
      "name": "depositFunds",
      "outputs": [],
      "stateMutability": "payable",
      "type": "function"
    },
    {
      "inputs": [
        {
          "internalType": "address",
          "name": "lender",
          "type": "address"
        }
      ],
      "name": "getAvailableInterest",
      "outputs": [
        {
          "internalType": "uint256",
          "name": "",
          "type": "uint256"
        }
      ],
      "stateMutability": "view",
      "type": "function"
    },
    {
      "inputs": [
        {
          "internalType": "uint256",
          "name": "index",
          "type": "uint256"
        }
      ],
      "name": "getInterestTier",
      "outputs": [
        {
          "internalType": "uint256",
          "name": "minAmount",
          "type": "uint256"
        },
        {
          "internalType": "uint256",
          "name": "rate",
          "type": "uint256"
        }
      ],
      "stateMutability": "view",
      "type": "function"
    },
    {
      "inputs": [],
      "name": "getInterestTierCount",
      "outputs": [
        {
          "internalType": "uint256",
          "name": "",
          "type": "uint256"
        }
      ],
      "stateMutability": "view",
      "type": "function"
    },
    {
      "inputs": [
        {
          "internalType": "address",
          "name": "lender",
          "type": "address"
        }
      ],
      "name": "getLenderInfo",
      "outputs": [
        {
          "internalType": "uint256",
          "name": "balance",
          "type": "uint256"
        },
        {
          "internalType": "uint256",
          "name": "pendingInterest",
          "type": "uint256"
        },
        {
          "internalType": "uint256",
          "name": "earnedInterest",
          "type": "uint256"
        },
        {
          "internalType": "uint256",
          "name": "nextInterestUpdate",
          "type": "uint256"
        },
        {
          "internalType": "uint256",
          "name": "penaltyFreeWithdrawalTime",
          "type": "uint256"
        },
        {
          "internalType": "uint256",
          "name": "lastDistributionTime",
          "type": "uint256"
        }
      ],
      "stateMutability": "view",
      "type": "function"
    },
    {
      "inputs": [
        {
          "internalType": "address",
          "name": "lender",
          "type": "address"
        }
      ],
      "name": "getWithdrawalStatus",
      "outputs": [
        {
          "internalType": "uint256",
          "name": "availableAt",
          "type": "uint256"
        },
        {
          "internalType": "uint256",
          "name": "penaltyIfWithdrawnNow",
          "type": "uint256"
        },
        {
          "internalType": "bool",
          "name": "isAvailableWithoutPenalty",
          "type": "bool"
        },
        {
          "internalType": "uint256",
          "name": "nextInterestDistribution",
          "type": "uint256"
        },
        {
          "internalType": "uint256",
          "name": "availableInterest",
          "type": "uint256"
        }
      ],
      "stateMutability": "view",
      "type": "function"
    },
    {
      "inputs": [
        {
          "internalType": "uint256",
          "name": "",
          "type": "uint256"
        }
      ],
      "name": "interestTiers",
      "outputs": [
        {
          "internalType": "uint256",
          "name": "minAmount",
          "type": "uint256"
        },
        {
          "internalType": "uint256",
          "name": "rate",
          "type": "uint256"
        }
      ],
      "stateMutability": "view",
      "type": "function"
    },
    {
      "inputs": [],
      "name": "lastRateUpdateDay",
      "outputs": [
        {
          "internalType": "uint256",
          "name": "",
          "type": "uint256"
        }
      ],
      "stateMutability": "view",
      "type": "function"
    },
    {
      "inputs": [
        {
          "internalType": "address",
          "name": "",
          "type": "address"
        }
      ],
      "name": "lenders",
      "outputs": [
        {
          "internalType": "uint256",
          "name": "balance",
          "type": "uint256"
        },
        {
          "internalType": "uint256",
          "name": "depositTimestamp",
          "type": "uint256"
        },
        {
          "internalType": "uint256",
          "name": "lastInterestUpdate",
          "type": "uint256"
        },
        {
          "internalType": "uint256",
          "name": "interestIndex",
          "type": "uint256"
        },
        {
          "internalType": "uint256",
          "name": "earnedInterest",
          "type": "uint256"
        },
        {
          "internalType": "uint256",
          "name": "pendingPrincipalWithdrawal",
          "type": "uint256"
        },
        {
          "internalType": "uint256",
          "name": "withdrawalRequestTime",
          "type": "uint256"
        },
        {
          "internalType": "uint256",
          "name": "lastInterestDistribution",
          "type": "uint256"
        },
        {
          "internalType": "uint256",
          "name": "lastWithdrawalTime",
          "type": "uint256"
        }
      ],
      "stateMutability": "view",
      "type": "function"
    },
    {
      "inputs": [],
      "name": "liquidityPool",
      "outputs": [
        {
          "internalType": "address",
          "name": "",
          "type": "address"
        }
      ],
      "stateMutability": "view",
      "type": "function"
    },
    {
      "inputs": [],
      "name": "owner",
      "outputs": [
        {
          "internalType": "address",
          "name": "",
          "type": "address"
        }
      ],
      "stateMutability": "view",
      "type": "function"
    },
    {
      "inputs": [],
      "name": "renounceOwnership",
      "outputs": [],
      "stateMutability": "nonpayable",
      "type": "function"
    },
    {
      "inputs": [
        {
          "internalType": "uint256",
          "name": "amount",
          "type": "uint256"
        }
      ],
      "name": "requestWithdrawal",
      "outputs": [],
      "stateMutability": "nonpayable",
      "type": "function"
    },
    {
      "inputs": [
        {
          "internalType": "uint256",
          "name": "newRate",
          "type": "uint256"
        }
      ],
      "name": "setCurrentDailyRate",
      "outputs": [],
      "stateMutability": "nonpayable",
      "type": "function"
    },
    {
      "inputs": [
        {
          "internalType": "uint256",
          "name": "newPenalty",
          "type": "uint256"
        }
      ],
      "name": "setEarlyWithdrawalPenalty",
      "outputs": [],
      "stateMutability": "nonpayable",
      "type": "function"
    },
    {
      "inputs": [
        {
          "internalType": "uint256",
          "name": "index",
          "type": "uint256"
        },
        {
          "internalType": "uint256",
          "name": "minAmount",
          "type": "uint256"
        },
        {
          "internalType": "uint256",
          "name": "rate",
          "type": "uint256"
        }
      ],
      "name": "setInterestTier",
      "outputs": [],
      "stateMutability": "nonpayable",
      "type": "function"
    },
    {
      "inputs": [],
      "name": "totalLent",
      "outputs": [
        {
          "internalType": "uint256",
          "name": "",
          "type": "uint256"
        }
      ],
      "stateMutability": "view",
      "type": "function"
    },
    {
      "inputs": [
        {
          "internalType": "address",
          "name": "newOwner",
          "type": "address"
        }
      ],
      "name": "transferOwnership",
      "outputs": [],
      "stateMutability": "nonpayable",
      "type": "function"
    },
    {
      "stateMutability": "payable",
      "type": "receive"
    }
  ],
  "bytecode": "0x608060405234801561001057600080fd5b50604051611e5e380380611e5e83398101604081905261002f9161021d565b816001600160a01b03811661005e57604051631e4fbdf760e01b81526000600482015260240160405180910390fd5b610067816101b1565b50600880546001600160a01b0319166001600160a01b0383161790556005600755670de12d4cc511c0006003556100a16201518042610250565b6004555050604080518082018252678ac7230489e800008152670de13f20401b6000602080830191825260068054600181810183556000838152955160029283027ff652222313e28459528d920b65115c16c04f3efc82aaedc97be59f3f377c0d3f8181019290925595517ff652222313e28459528d920b65115c16c04f3efc82aaedc97be59f3f377c0d409687015587518089018952674563918244f400008152670de13607f1a8c00081870190815285548085018755868a5291519185028084019290925551908701558751808901909852670de0b6b3a76400008852670de12d4cc511c0009488019485528354918201845592909552945193909402938401929092559051910155610272565b600080546001600160a01b038381166001600160a01b0319831681178455604051919092169283917f8be0079c531659141344cd1fd0a4f28419497f9722a3daafe3b4186f6b6457e09190a35050565b80516001600160a01b038116811461021857600080fd5b919050565b6000806040838503121561023057600080fd5b61023983610201565b915061024760208401610201565b90509250929050565b60008261026d57634e487b7160e01b600052601260045260246000fd5b500490565b611bdd806102816000396000f3fe6080604052600436106101dc5760003560e01c806382ee21fc11610102578063cca4391611610095578063e2c41dbc11610064578063e2c41dbc14610611578063f2fde38b14610619578063fccf6a1e14610639578063feedab001461047e57600080fd5b8063cca4391614610597578063d7047310146105ac578063e03ff7cb146105dc578063e11932cf146105f157600080fd5b80639ee679e8116100d15780639ee679e8146104ff578063ab19f0951461051f578063ade2854d1461056c578063b918ee251461058157600080fd5b806382ee21fc146104955780638a2e98f3146104ab5780638da5cb5b146104cb57806394e95da3146104e957600080fd5b806335981fd81161017a5780636d7c218b116101495780636d7c218b14610404578063715018a61461041a5780637491687e1461042f57806374f0314f1461047e57600080fd5b806335981fd81461037a5780634c34a9821461038f578063537dd93a146103ac578063665a11ca146103cc57600080fd5b806321bf8985116101b657806321bf89851461025857806328fd10d71461028d57806332aa9b681461033a57806333ec339e1461035a57600080fd5b80631876b415146101e85780631a3f61cd1461021b5780631ea30fef1461023d57600080fd5b366101e357005b600080fd5b3480156101f457600080fd5b506102086102033660046119fb565b610666565b6040519081526020015b60405180910390f35b34801561022757600080fd5b5061023b610236366004611a1d565b6106d6565b005b34801561024957600080fd5b50610208662386f26fc1000081565b34801561026457600080fd5b50610278610273366004611a1d565b610747565b60408051928352602083019190915201610212565b34801561029957600080fd5b506102f66102a8366004611a36565b60016020528060005260406000206000915090508060000154908060010154908060020154908060030154908060040154908060050154908060060154908060070154908060080154905089565b60408051998a5260208a0198909852968801959095526060870193909352608086019190915260a085015260c084015260e083015261010082015261012001610212565b34801561034657600080fd5b50610208610355366004611a36565b610775565b34801561036657600080fd5b5061023b610375366004611a5f565b61083c565b34801561038657600080fd5b5061023b61095e565b34801561039b57600080fd5b5061020868056bc75e2d6310000081565b3480156103b857600080fd5b506102786103c7366004611a1d565b610b47565b3480156103d857600080fd5b506008546103ec906001600160a01b031681565b6040516001600160a01b039091168152602001610212565b34801561041057600080fd5b5061020860025481565b34801561042657600080fd5b5061023b610bdf565b34801561043b57600080fd5b5061044f61044a366004611a36565b610bf3565b604051610212959493929190948552602085019390935290151560408401526060830152608082015260a00190565b34801561048a57600080fd5b506102086201518081565b3480156104a157600080fd5b5061020860035481565b3480156104b757600080fd5b5061023b6104c6366004611a1d565b610d14565b3480156104d757600080fd5b506000546001600160a01b03166103ec565b3480156104f557600080fd5b5061020860045481565b34801561050b57600080fd5b5061023b61051a366004611a1d565b610d65565b34801561052b57600080fd5b5061053f61053a366004611a36565b610e8e565b604080519687526020870195909552938501929092526060840152608083015260a082015260c001610212565b34801561057857600080fd5b50600654610208565b34801561058d57600080fd5b5061020860075481565b3480156105a357600080fd5b5061023b610f81565b3480156105b857600080fd5b506105cc6105c7366004611a36565b61102a565b6040519015158152602001610212565b3480156105e857600080fd5b5061023b6110d2565b3480156105fd57600080fd5b5061020861060c366004611a36565b61131d565b61023b611440565b34801561062557600080fd5b5061023b610634366004611a36565b61165d565b34801561064557600080fd5b50610208610654366004611a1d565b60056020526000908152604090205481565b60008061067161169b565b90508060005b848110156106aa57670de0b6b3a7640000600354836106969190611aa1565b6106a09190611ab8565b9150600101610677565b5084826106b78383611aa1565b6106c19190611ab8565b6106cb9190611ada565b925050505b92915050565b6106de611741565b670de0b6b3a764000081101561072f5760405162461bcd60e51b815260206004820152601160248201527052617465206d757374206265203e3d203160781b60448201526064015b60405180910390fd5b60038190556107416201518042611ab8565b60045550565b6006818154811061075757600080fd5b60009182526020909120600290910201805460019091015490915082565b6001600160a01b0381166000908152600160208181526040808420815161012081018352815480825294820154938101939093526002810154918301919091526003810154606083015260048101546080830152600581015460a0830152600681015460c0830152600781015460e0830152600801546101008201529082036108015750600092915050565b600061080b61169b565b82516060840151919250906108208383611aa1565b61082a9190611ab8565b6108349190611ada565b949350505050565b610844611741565b670de0b6b3a76400008110156108905760405162461bcd60e51b815260206004820152601160248201527052617465206d757374206265203e3d203160781b6044820152606401610726565b60065483106109125760408051808201909152918252602082019081526006805460018101825560009190915291517ff652222313e28459528d920b65115c16c04f3efc82aaedc97be59f3f377c0d3f600290930292830155517ff652222313e28459528d920b65115c16c04f3efc82aaedc97be59f3f377c0d409091015550565b6040518060400160405280838152602001828152506006848154811061093a5761093a611aed565b60009182526020918290208351600290920201908155910151600190910155505050565b33600090815260016020526040812080549091036109b35760405162461bcd60e51b8152602060048201526012602482015271139bc8199d5b991cc819195c1bdcda5d195960721b6044820152606401610726565b6109bc3361176e565b60048101546000819003610a095760405162461bcd60e51b81526020600482015260146024820152734e6f20696e74657265737420746f20636c61696d60601b6044820152606401610726565b600082600401819055508060026000828254610a259190611ada565b9091555050600854604051602481018390526000916001600160a01b03169060440160408051601f198184030181529181526020820180516001600160e01b031663e19fb8f560e01b17905251610a7c9190611b03565b6000604051808303816000865af19150503d8060008114610ab9576040519150601f19603f3d011682016040523d82523d6000602084013e610abe565b606091505b5050905080610adf5760405162461bcd60e51b815260040161072690611b32565b604051339083156108fc029084906000818181858888f19350505050158015610b0c573d6000803e3d6000fd5b5060405182815233907ff9984c8173c4b4ff9cc454f76ed19c053f4490ccb224fd9ddffeb4ef4bea35309060200160405180910390a2505050565b60065460009081908310610b925760405162461bcd60e51b8152602060048201526012602482015271092dcecc2d8d2c840e8d2cae440d2dcc8caf60731b6044820152606401610726565b600060068481548110610ba757610ba7611aed565b600091825260209182902060408051808201909152600290920201805480835260019091015491909201819052909590945092505050565b610be7611741565b610bf16000611870565b565b6001600160a01b038116600090815260016020818152604080842081516101208101835281548152938101549284018390526002810154918401919091526003810154606084015260048101546080840152600581015460a0840152600681015460c0840152600781015460e0840152600801546101008301528291829182918291610c83906201518090611b7d565b9550854210610c93576000610cae565b6007548151606491610ca491611aa1565b610cae9190611ab8565b9450854210159350620151808160e00151610cc99190611b7d565b815190935015610d0a576000610cdd61169b565b8251606084015191925090610cf28383611aa1565b610cfc9190611ab8565b610d069190611ada565b9250505b5091939590929450565b610d1c611741565b6064811115610d605760405162461bcd60e51b815260206004820152601060248201526f0a0cadcc2d8e8f240e8dede40d0d2ced60831b6044820152606401610726565b600755565b3360009081526001602052604090206008810154610d87906201518090611b7d565b421015610dd65760405162461bcd60e51b815260206004820152601d60248201527f4d757374207761697420666f7220636f6f6c646f776e20706572696f640000006044820152606401610726565b8054821115610e1e5760405162461bcd60e51b8152602060048201526014602482015273496e73756666696369656e742062616c616e636560601b6044820152606401610726565b610e273361176e565b6005810182905542600682018190556008820181905533907f24b91f4f47caf44230a57777a9be744924e82bf666f2d5702faf97df35e60f9f908490610e71906201518090611b7d565b604080519283526020830191909152015b60405180910390a25050565b6001600160a01b038116600090815260016020818152604080842081516101208101835281548082529482015493810184905260028201549281019290925260038101546060830152600481015460808301819052600582015460a0840152600682015460c0840152600782015460e08401526008909101546101008301529293929183918291829190610f26906201518090611b7d565b60e082015190935091508615610f6c576000610f4061169b565b9050878260600151828a610f549190611aa1565b610f5e9190611ab8565b610f689190611ada565b9650505b610f75886118c0565b93505091939550919395565b3360009081526001602052604081206005810154909103610fe45760405162461bcd60e51b815260206004820152601f60248201527f4e6f2070656e64696e67207769746864726177616c20746f2063616e63656c006044820152606401610726565b600581018054600091829055600683019190915560405181815233907f2eed97477f07c07ec48f8f678f4e84f7c0de55bf33f51c3dc989b1335308031990602001610e82565b6001600160a01b03811660009081526001602081815260408084208151610120810183528154815293810154928401929092526002820154908301526003810154606083015260048101546080830152600581015460a08301819052600682015460c0840152600782015460e084015260089091015461010083015282036110b55750600092915050565b620151808160c001516110c89190611b7d565b4210159392505050565b336000908152600160205260408120600581015490910361112d5760405162461bcd60e51b8152602060048201526015602482015274139bc81c195b991a5b99c81dda5d1a191c985dd85b605a1b6044820152606401610726565b60058101546001820154600090611148906201518090611b7d565b4210156111ae5760646007548361115f9190611aa1565b6111699190611ab8565b90506111758183611ada565b60405182815290925033907fb6a45448c8250adf8d836e047d46f96410d632c7089720e3aed88fcb76644ded9060200160405180910390a25b6111b88183611b7d565b8360000160008282546111cb9190611ada565b909155506111db90508183611b7d565b600260008282546111ec9190611ada565b9091555050600060058401819055600854604051602481018590526001600160a01b039091169060440160408051601f198184030181529181526020820180516001600160e01b031663e19fb8f560e01b1790525161124b9190611b03565b6000604051808303816000865af19150503d8060008114611288576040519150601f19603f3d011682016040523d82523d6000602084013e61128d565b606091505b50509050806112ae5760405162461bcd60e51b815260040161072690611b32565b604051339084156108fc029085906000818181858888f193505050501580156112db573d6000803e3d6000fd5b50604080518481526020810184905233917ffbc3a599b784fe88772fc5abcc07223f64ca0b13acc341f4fb1e46bef0510eb4910160405180910390a250505050565b6001600160a01b0381166000908152600160208181526040808420815161012081018352815480825294820154938101939093526002810154918301919091526003810154606083015260048101546080830152600581015460a0830152600681015460c0830152600781015460e0830152600801546101008201529082036113a95750600092915050565b60006113b361169b565b90506000620151808360400151426113cb9190611ada565b6113d59190611ab8565b9050801561143857825160608401516113ee8483611aa1565b6113f89190611ab8565b6114029190611ada565b935060005b8181101561143657670de0b6b3a76400006114228487611aa1565b61142c9190611ab8565b9450600101611407565b505b505050919050565b662386f26fc100003410156114905760405162461bcd60e51b81526020600482015260166024820152754465706f73697420616d6f756e7420746f6f206c6f7760501b6044820152606401610726565b3360009081526001602052604090205468056bc75e2d63100000906114b59034611b7d565b111561150e5760405162461bcd60e51b815260206004820152602260248201527f4465706f73697420776f756c6420657863656564206d6178696d756d206c696d6044820152611a5d60f21b6064820152608401610726565b6008546040516000916001600160a01b03169034908381818185875af1925050503d806000811461155b576040519150601f19603f3d011682016040523d82523d6000602084013e611560565b606091505b50509050806115c35760405162461bcd60e51b815260206004820152602960248201527f4661696c656420746f20666f72776172642066756e647320746f206c69717569604482015268191a5d1e481c1bdbdb60ba1b6064820152608401610726565b336000818152600160205260409020906115dc9061176e565b80546000036115f9576115ed61169b565b60038201554260018201555b3481600001600082825461160d9190611b7d565b9250508190555034600260008282546116269190611b7d565b909155505060405134815233907f543ba50a5eec5e6178218e364b1d0f396157b3c8fa278522c2cb7fd99407d47490602001610e82565b611665611741565b6001600160a01b03811661168f57604051631e4fbdf760e01b815260006004820152602401610726565b61169881611870565b50565b6000806116ab6201518042611ab8565b90506000600454826116bd9190611ada565b9050806000036116f9576000828152600560205260409020546116e2576003546116f2565b6000828152600560205260409020545b9250505090565b60035460005b8281101561173957670de0b6b3a764000061171b600254611966565b6117259084611aa1565b61172f9190611ab8565b91506001016116ff565b509392505050565b6000546001600160a01b03163314610bf15760405163118cdaa760e01b8152336004820152602401610726565b6001600160a01b03811660009081526001602052604081208054909103611793575050565b600061179d61169b565b825460038401549192506000916117b48483611aa1565b6117be9190611ab8565b6117c89190611ada565b9050801561186057808360040160008282546117e49190611b7d565b90915550508254819084906000906117fd908490611b7d565b9250508190555080600260008282546118169190611b7d565b90915550504260078401556040518181526001600160a01b038516907f65724bab62e2b372c625ed834016c4e1750f8074aad18b22844457f35ea61d739060200160405180910390a25b5060038201554260029091015550565b600080546001600160a01b038381166001600160a01b0319831681178455604051919092169283917f8be0079c531659141344cd1fd0a4f28419497f9722a3daafe3b4186f6b6457e09190a35050565b6001600160a01b0381166000908152600160208181526040808420815161012081018352815480825294820154938101939093526002810154918301919091526003810154606083015260048101546080830152600581015460a0830152600681015460c0830152600781015460e08301526008015461010082015290820361194c5750600092915050565b620151808160e0015161195f9190611b7d565b9392505050565b6006546000905b80156119f1576006611980600183611ada565b8154811061199057611990611aed565b90600052602060002090600202016000015483106119df5760066119b5600183611ada565b815481106119c5576119c5611aed565b906000526020600020906002020160010154915050919050565b806119e981611b90565b91505061196d565b5050600354919050565b60008060408385031215611a0e57600080fd5b50508035926020909101359150565b600060208284031215611a2f57600080fd5b5035919050565b600060208284031215611a4857600080fd5b81356001600160a01b038116811461195f57600080fd5b600080600060608486031215611a7457600080fd5b505081359360208301359350604090920135919050565b634e487b7160e01b600052601160045260246000fd5b80820281158282048414176106d0576106d0611a8b565b600082611ad557634e487b7160e01b600052601260045260246000fd5b500490565b818103818111156106d0576106d0611a8b565b634e487b7160e01b600052603260045260246000fd5b6000825160005b81811015611b245760208186018101518583015201611b0a565b506000920191825250919050565b6020808252602b908201527f4661696c656420746f20657874726163742066756e64732066726f6d206c697160408201526a1d5a591a5d1e481c1bdbdb60aa1b606082015260800190565b808201808211156106d0576106d0611a8b565b600081611b9f57611b9f611a8b565b50600019019056fea264697066735822122096753b0dc6cc763dfc6058b80de205e661ae2dc24941812942480bfb61dc8b8064736f6c634300081c0033",
  "linkReferences": {},
  "deployedLinkReferences": {}
}