{
  "_format": "hh-sol-artifact-1",
  "contractName": "LendingManager",
  "sourceName": "contracts/LendingManager.sol",
  "abi": [
    {
      "inputs": [
        {
          "internalType": "address",
          "name": "initialOwner",
          "type": "address"
        },
        {
          "internalType": "address",
          "name": "_liquidityPool",
          "type": "address"
        }
      ],
      "stateMutability": "nonpayable",
      "type": "constructor"
    },
    {
      "inputs": [
        {
          "internalType": "address",
          "name": "owner",
          "type": "address"
        }
      ],
      "name": "OwnableInvalidOwner",
      "type": "error"
    },
    {
      "inputs": [
        {
          "internalType": "address",
          "name": "account",
          "type": "address"
        }
      ],
      "name": "OwnableUnauthorizedAccount",
      "type": "error"
    },
    {
      "anonymous": false,
      "inputs": [
        {
          "indexed": true,
          "internalType": "address",
          "name": "lender",
          "type": "address"
        },
        {
          "indexed": false,
          "internalType": "uint256",
          "name": "penaltyAmount",
          "type": "uint256"
        }
      ],
      "name": "EarlyWithdrawalPenalty",
      "type": "event"
    },
    {
      "anonymous": false,
      "inputs": [
        {
          "indexed": true,
          "internalType": "address",
          "name": "user",
          "type": "address"
        },
        {
          "indexed": false,
          "internalType": "uint256",
          "name": "amount",
          "type": "uint256"
        },
        {
          "indexed": false,
          "internalType": "string",
          "name": "feeType",
          "type": "string"
        },
        {
          "indexed": false,
          "internalType": "uint256",
          "name": "tier",
          "type": "uint256"
        }
      ],
      "name": "FeeCollected",
      "type": "event"
    },
    {
      "anonymous": false,
      "inputs": [
        {
          "indexed": false,
          "internalType": "uint256",
          "name": "originationFee",
          "type": "uint256"
        },
        {
          "indexed": false,
          "internalType": "uint256",
          "name": "lateFee",
          "type": "uint256"
        }
      ],
      "name": "FeeParametersUpdated",
      "type": "event"
    },
    {
      "anonymous": false,
      "inputs": [
        {
          "indexed": true,
          "internalType": "address",
          "name": "lender",
          "type": "address"
        },
        {
          "indexed": false,
          "internalType": "uint256",
          "name": "amount",
          "type": "uint256"
        }
      ],
      "name": "FundsDeposited",
      "type": "event"
    },
    {
      "anonymous": false,
      "inputs": [
        {
          "indexed": true,
          "internalType": "address",
          "name": "lender",
          "type": "address"
        },
        {
          "indexed": false,
          "internalType": "uint256",
          "name": "amount",
          "type": "uint256"
        },
        {
          "indexed": false,
          "internalType": "uint256",
          "name": "penalty",
          "type": "uint256"
        }
      ],
      "name": "FundsWithdrawn",
      "type": "event"
    },
    {
      "anonymous": false,
      "inputs": [
        {
          "indexed": true,
          "internalType": "address",
          "name": "lender",
          "type": "address"
        },
        {
          "indexed": false,
          "internalType": "uint256",
          "name": "amount",
          "type": "uint256"
        }
      ],
      "name": "InterestAvailable",
      "type": "event"
    },
    {
      "anonymous": false,
      "inputs": [
        {
          "indexed": true,
          "internalType": "address",
          "name": "lender",
          "type": "address"
        },
        {
          "indexed": false,
          "internalType": "uint256",
          "name": "interest",
          "type": "uint256"
        }
      ],
      "name": "InterestClaimed",
      "type": "event"
    },
    {
      "anonymous": false,
      "inputs": [
        {
          "indexed": true,
          "internalType": "address",
          "name": "lender",
          "type": "address"
        },
        {
          "indexed": false,
          "internalType": "uint256",
          "name": "interest",
          "type": "uint256"
        }
      ],
      "name": "InterestCredited",
      "type": "event"
    },
    {
      "anonymous": false,
      "inputs": [
        {
          "indexed": true,
          "internalType": "address",
          "name": "previousOwner",
          "type": "address"
        },
        {
          "indexed": true,
          "internalType": "address",
          "name": "newOwner",
          "type": "address"
        }
      ],
      "name": "OwnershipTransferred",
      "type": "event"
    },
    {
      "anonymous": false,
      "inputs": [
        {
          "indexed": true,
          "internalType": "address",
          "name": "lender",
          "type": "address"
        },
        {
          "indexed": false,
          "internalType": "uint256",
          "name": "amount",
          "type": "uint256"
        },
        {
          "indexed": false,
          "internalType": "uint256",
          "name": "unlockTime",
          "type": "uint256"
        }
      ],
      "name": "PrincipalWithdrawalRequested",
      "type": "event"
    },
    {
      "anonymous": false,
      "inputs": [
        {
          "indexed": true,
          "internalType": "address",
          "name": "newReserve",
          "type": "address"
        }
      ],
      "name": "ReserveAddressUpdated",
      "type": "event"
    },
    {
      "anonymous": false,
      "inputs": [
        {
          "indexed": true,
          "internalType": "address",
          "name": "lender",
          "type": "address"
        },
        {
          "indexed": false,
          "internalType": "uint256",
          "name": "amount",
          "type": "uint256"
        }
      ],
      "name": "WithdrawalCancelled",
      "type": "event"
    },
    {
      "anonymous": false,
      "inputs": [
        {
          "indexed": true,
          "internalType": "address",
          "name": "lender",
          "type": "address"
        },
        {
          "indexed": false,
          "internalType": "uint256",
          "name": "amount",
          "type": "uint256"
        },
        {
          "indexed": false,
          "internalType": "uint256",
          "name": "unlockTime",
          "type": "uint256"
        }
      ],
      "name": "WithdrawalRequested",
      "type": "event"
    },
    {
      "inputs": [],
      "name": "EARLY_WITHDRAWAL_PENALTY",
      "outputs": [
        {
          "internalType": "uint256",
          "name": "",
          "type": "uint256"
        }
      ],
      "stateMutability": "view",
      "type": "function"
    },
    {
      "inputs": [],
      "name": "MAX_DEPOSIT_AMOUNT",
      "outputs": [
        {
          "internalType": "uint256",
          "name": "",
          "type": "uint256"
        }
      ],
      "stateMutability": "view",
      "type": "function"
    },
    {
      "inputs": [],
      "name": "MIN_DEPOSIT_AMOUNT",
      "outputs": [
        {
          "internalType": "uint256",
          "name": "",
          "type": "uint256"
        }
      ],
      "stateMutability": "view",
      "type": "function"
    },
    {
      "inputs": [],
      "name": "SECONDS_PER_DAY",
      "outputs": [
        {
          "internalType": "uint256",
          "name": "",
          "type": "uint256"
        }
      ],
      "stateMutability": "view",
      "type": "function"
    },
    {
      "inputs": [],
      "name": "WITHDRAWAL_COOLDOWN",
      "outputs": [
        {
          "internalType": "uint256",
          "name": "",
          "type": "uint256"
        }
      ],
      "stateMutability": "view",
      "type": "function"
    },
    {
      "inputs": [
        {
          "internalType": "address",
          "name": "lender",
          "type": "address"
        }
      ],
      "name": "calculateInterest",
      "outputs": [
        {
          "internalType": "uint256",
          "name": "interest",
          "type": "uint256"
        }
      ],
      "stateMutability": "view",
      "type": "function"
    },
    {
      "inputs": [
        {
          "internalType": "uint256",
          "name": "amount",
          "type": "uint256"
        },
        {
          "internalType": "uint256",
          "name": "numDays",
          "type": "uint256"
        }
      ],
      "name": "calculatePotentialInterest",
      "outputs": [
        {
          "internalType": "uint256",
          "name": "",
          "type": "uint256"
        }
      ],
      "stateMutability": "view",
      "type": "function"
    },
    {
      "inputs": [
        {
          "internalType": "address",
          "name": "lender",
          "type": "address"
        }
      ],
      "name": "canCompleteWithdrawal",
      "outputs": [
        {
          "internalType": "bool",
          "name": "",
          "type": "bool"
        }
      ],
      "stateMutability": "view",
      "type": "function"
    },
    {
      "inputs": [],
      "name": "cancelPrincipalWithdrawal",
      "outputs": [],
      "stateMutability": "nonpayable",
      "type": "function"
    },
    {
      "inputs": [],
      "name": "claimInterest",
      "outputs": [],
      "stateMutability": "nonpayable",
      "type": "function"
    },
    {
      "inputs": [
        {
          "internalType": "address",
          "name": "user",
          "type": "address"
        },
        {
          "internalType": "uint256",
          "name": "amount",
          "type": "uint256"
        },
        {
          "internalType": "uint256",
          "name": "tier",
          "type": "uint256"
        },
        {
          "internalType": "uint256",
          "name": "fee",
          "type": "uint256"
        }
      ],
      "name": "collectLateFee",
      "outputs": [],
      "stateMutability": "payable",
      "type": "function"
    },
    {
      "inputs": [
        {
          "internalType": "address",
          "name": "user",
          "type": "address"
        },
        {
          "internalType": "uint256",
          "name": "amount",
          "type": "uint256"
        },
        {
          "internalType": "uint256",
          "name": "tier",
          "type": "uint256"
        },
        {
          "internalType": "uint256",
          "name": "fee",
          "type": "uint256"
        }
      ],
      "name": "collectOriginationFee",
      "outputs": [],
      "stateMutability": "payable",
      "type": "function"
    },
    {
      "inputs": [],
      "name": "completeWithdrawal",
      "outputs": [],
      "stateMutability": "nonpayable",
      "type": "function"
    },
    {
      "inputs": [],
      "name": "currentDailyRate",
      "outputs": [
        {
          "internalType": "uint256",
          "name": "",
          "type": "uint256"
        }
      ],
      "stateMutability": "view",
      "type": "function"
    },
    {
      "inputs": [
        {
          "internalType": "uint256",
          "name": "",
          "type": "uint256"
        }
      ],
      "name": "dailyInterestRate",
      "outputs": [
        {
          "internalType": "uint256",
          "name": "",
          "type": "uint256"
        }
      ],
      "stateMutability": "view",
      "type": "function"
    },
    {
      "inputs": [],
      "name": "depositFunds",
      "outputs": [],
      "stateMutability": "payable",
      "type": "function"
    },
    {
      "inputs": [
        {
          "internalType": "address",
          "name": "lender",
          "type": "address"
        }
      ],
      "name": "getAvailableInterest",
      "outputs": [
        {
          "internalType": "uint256",
          "name": "",
          "type": "uint256"
        }
      ],
      "stateMutability": "view",
      "type": "function"
    },
    {
      "inputs": [
        {
          "internalType": "uint256",
          "name": "amount",
          "type": "uint256"
        }
      ],
      "name": "getInterestRate",
      "outputs": [
        {
          "internalType": "uint256",
          "name": "",
          "type": "uint256"
        }
      ],
      "stateMutability": "view",
      "type": "function"
    },
    {
      "inputs": [
        {
          "internalType": "uint256",
          "name": "index",
          "type": "uint256"
        }
      ],
      "name": "getInterestTier",
      "outputs": [
        {
          "internalType": "uint256",
          "name": "minAmount",
          "type": "uint256"
        },
        {
          "internalType": "uint256",
          "name": "rate",
          "type": "uint256"
        }
      ],
      "stateMutability": "view",
      "type": "function"
    },
    {
      "inputs": [],
      "name": "getInterestTierCount",
      "outputs": [
        {
          "internalType": "uint256",
          "name": "",
          "type": "uint256"
        }
      ],
      "stateMutability": "view",
      "type": "function"
    },
    {
      "inputs": [
        {
          "internalType": "address",
          "name": "lender",
          "type": "address"
        }
      ],
      "name": "getLenderInfo",
      "outputs": [
        {
          "internalType": "uint256",
          "name": "balance",
          "type": "uint256"
        },
        {
          "internalType": "uint256",
          "name": "pendingInterest",
          "type": "uint256"
        },
        {
          "internalType": "uint256",
          "name": "earnedInterest",
          "type": "uint256"
        },
        {
          "internalType": "uint256",
          "name": "nextInterestUpdate",
          "type": "uint256"
        },
        {
          "internalType": "uint256",
          "name": "penaltyFreeWithdrawalTime",
          "type": "uint256"
        },
        {
          "internalType": "uint256",
          "name": "lastDistributionTime",
          "type": "uint256"
        }
      ],
      "stateMutability": "view",
      "type": "function"
    },
    {
      "inputs": [
        {
          "internalType": "address",
          "name": "lender",
          "type": "address"
        }
      ],
      "name": "getWithdrawalStatus",
      "outputs": [
        {
          "internalType": "uint256",
          "name": "availableAt",
          "type": "uint256"
        },
        {
          "internalType": "uint256",
          "name": "penaltyIfWithdrawnNow",
          "type": "uint256"
        },
        {
          "internalType": "bool",
          "name": "isAvailableWithoutPenalty",
          "type": "bool"
        },
        {
          "internalType": "uint256",
          "name": "nextInterestDistribution",
          "type": "uint256"
        },
        {
          "internalType": "uint256",
          "name": "availableInterest",
          "type": "uint256"
        }
      ],
      "stateMutability": "view",
      "type": "function"
    },
    {
      "inputs": [
        {
          "internalType": "uint256",
          "name": "",
          "type": "uint256"
        }
      ],
      "name": "interestTiers",
      "outputs": [
        {
          "internalType": "uint256",
          "name": "minAmount",
          "type": "uint256"
        },
        {
          "internalType": "uint256",
          "name": "rate",
          "type": "uint256"
        }
      ],
      "stateMutability": "view",
      "type": "function"
    },
    {
      "inputs": [],
      "name": "lastRateUpdateDay",
      "outputs": [
        {
          "internalType": "uint256",
          "name": "",
          "type": "uint256"
        }
      ],
      "stateMutability": "view",
      "type": "function"
    },
    {
      "inputs": [],
      "name": "lateFee",
      "outputs": [
        {
          "internalType": "uint256",
          "name": "",
          "type": "uint256"
        }
      ],
      "stateMutability": "view",
      "type": "function"
    },
    {
      "inputs": [
        {
          "internalType": "address",
          "name": "",
          "type": "address"
        }
      ],
      "name": "lenders",
      "outputs": [
        {
          "internalType": "uint256",
          "name": "balance",
          "type": "uint256"
        },
        {
          "internalType": "uint256",
          "name": "depositTimestamp",
          "type": "uint256"
        },
        {
          "internalType": "uint256",
          "name": "lastInterestUpdate",
          "type": "uint256"
        },
        {
          "internalType": "uint256",
          "name": "interestIndex",
          "type": "uint256"
        },
        {
          "internalType": "uint256",
          "name": "earnedInterest",
          "type": "uint256"
        },
        {
          "internalType": "uint256",
          "name": "pendingPrincipalWithdrawal",
          "type": "uint256"
        },
        {
          "internalType": "uint256",
          "name": "withdrawalRequestTime",
          "type": "uint256"
        },
        {
          "internalType": "uint256",
          "name": "lastInterestDistribution",
          "type": "uint256"
        },
        {
          "internalType": "uint256",
          "name": "lastWithdrawalTime",
          "type": "uint256"
        }
      ],
      "stateMutability": "view",
      "type": "function"
    },
    {
      "inputs": [],
      "name": "liquidityPool",
      "outputs": [
        {
          "internalType": "address",
          "name": "",
          "type": "address"
        }
      ],
      "stateMutability": "view",
      "type": "function"
    },
    {
      "inputs": [],
      "name": "originationFee",
      "outputs": [
        {
          "internalType": "uint256",
          "name": "",
          "type": "uint256"
        }
      ],
      "stateMutability": "view",
      "type": "function"
    },
    {
      "inputs": [],
      "name": "owner",
      "outputs": [
        {
          "internalType": "address",
          "name": "",
          "type": "address"
        }
      ],
      "stateMutability": "view",
      "type": "function"
    },
    {
      "inputs": [],
      "name": "renounceOwnership",
      "outputs": [],
      "stateMutability": "nonpayable",
      "type": "function"
    },
    {
      "inputs": [
        {
          "internalType": "uint256",
          "name": "amount",
          "type": "uint256"
        }
      ],
      "name": "requestWithdrawal",
      "outputs": [],
      "stateMutability": "nonpayable",
      "type": "function"
    },
    {
      "inputs": [],
      "name": "reserveAddress",
      "outputs": [
        {
          "internalType": "address",
          "name": "",
          "type": "address"
        }
      ],
      "stateMutability": "view",
      "type": "function"
    },
    {
      "inputs": [
        {
          "internalType": "uint256",
          "name": "newRate",
          "type": "uint256"
        }
      ],
      "name": "setCurrentDailyRate",
      "outputs": [],
      "stateMutability": "nonpayable",
      "type": "function"
    },
    {
      "inputs": [
        {
          "internalType": "uint256",
          "name": "newPenalty",
          "type": "uint256"
        }
      ],
      "name": "setEarlyWithdrawalPenalty",
      "outputs": [],
      "stateMutability": "nonpayable",
      "type": "function"
    },
    {
      "inputs": [
        {
          "internalType": "uint256",
          "name": "_originationFee",
          "type": "uint256"
        },
        {
          "internalType": "uint256",
          "name": "_lateFee",
          "type": "uint256"
        }
      ],
      "name": "setFeeParameters",
      "outputs": [],
      "stateMutability": "nonpayable",
      "type": "function"
    },
    {
      "inputs": [
        {
          "internalType": "uint256",
          "name": "index",
          "type": "uint256"
        },
        {
          "internalType": "uint256",
          "name": "minAmount",
          "type": "uint256"
        },
        {
          "internalType": "uint256",
          "name": "rate",
          "type": "uint256"
        }
      ],
      "name": "setInterestTier",
      "outputs": [],
      "stateMutability": "nonpayable",
      "type": "function"
    },
    {
      "inputs": [
        {
          "internalType": "address",
          "name": "_reserve",
          "type": "address"
        }
      ],
      "name": "setReserveAddress",
      "outputs": [],
      "stateMutability": "nonpayable",
      "type": "function"
    },
    {
      "inputs": [],
      "name": "totalLent",
      "outputs": [
        {
          "internalType": "uint256",
          "name": "",
          "type": "uint256"
        }
      ],
      "stateMutability": "view",
      "type": "function"
    },
    {
      "inputs": [
        {
          "internalType": "address",
          "name": "newOwner",
          "type": "address"
        }
      ],
      "name": "transferOwnership",
      "outputs": [],
      "stateMutability": "nonpayable",
      "type": "function"
    },
    {
      "stateMutability": "payable",
      "type": "receive"
    }
  ],
  "bytecode": "0x608060405234801561001057600080fd5b5060405161243f38038061243f83398101604081905261002f9161021d565b816001600160a01b03811661005e57604051631e4fbdf760e01b81526000600482015260240160405180910390fd5b610067816101b1565b50600880546001600160a01b0319166001600160a01b0383161790556005600755670de12d4cc511c0006003556100a16201518042610250565b6004555050604080518082018252678ac7230489e800008152670de13f20401b6000602080830191825260068054600181810183556000838152955160029283027ff652222313e28459528d920b65115c16c04f3efc82aaedc97be59f3f377c0d3f8181019290925595517ff652222313e28459528d920b65115c16c04f3efc82aaedc97be59f3f377c0d409687015587518089018952674563918244f400008152670de13607f1a8c00081870190815285548085018755868a5291519185028084019290925551908701558751808901909852670de0b6b3a76400008852670de12d4cc511c0009488019485528354918201845592909552945193909402938401929092559051910155610272565b600080546001600160a01b038381166001600160a01b0319831681178455604051919092169283917f8be0079c531659141344cd1fd0a4f28419497f9722a3daafe3b4186f6b6457e09190a35050565b80516001600160a01b038116811461021857600080fd5b919050565b6000806040838503121561023057600080fd5b61023983610201565b915061024760208401610201565b90509250929050565b60008261026d57634e487b7160e01b600052601260045260246000fd5b500490565b6121be806102816000396000f3fe6080604052600436106102345760003560e01c806374f0314f1161012e578063cca43916116100ab578063e50649d11161006f578063e50649d114610710578063f2fde38b14610723578063f79ed94b14610743578063fccf6a1e14610763578063feedab001461055f57600080fd5b8063cca439161461068e578063d7047310146106a3578063e03ff7cb146106d3578063e11932cf146106e8578063e2c41dbc1461070857600080fd5b80639ee679e8116100f25780639ee679e8146105e0578063ab19f09514610600578063ade2854d1461064d578063b8bb5c4214610662578063b918ee251461067857600080fd5b806374f0314f1461055f57806382ee21fc146105765780638a2e98f31461058c5780638da5cb5b146105ac57806394e95da3146105ca57600080fd5b806335981fd8116101bc578063537dd93a11610180578063537dd93a1461048d578063665a11ca146104ad5780636d7c218b146104e5578063715018a6146104fb5780637491687e1461051057600080fd5b806335981fd8146104125780633f4de62f14610427578063480d1aee1461043d5780634c34a982146104505780634d56022f1461046d57600080fd5b80631ea30fef116102035780631ea30fef146102d557806321bf8985146102f057806328fd10d71461032557806332aa9b68146103d257806333ec339e146103f257600080fd5b80630c196a741461024057806314673d31146102735780631876b415146102955780631a3f61cd146102b557600080fd5b3661023b57005b600080fd5b34801561024c57600080fd5b5061026061025b366004611f95565b610790565b6040519081526020015b60405180910390f35b34801561027f57600080fd5b5061029361028e366004611fca565b6107a1565b005b3480156102a157600080fd5b506102606102b0366004611fe5565b61084e565b3480156102c157600080fd5b506102936102d0366004611f95565b6108bc565b3480156102e157600080fd5b50610260662386f26fc1000081565b3480156102fc57600080fd5b5061031061030b366004611f95565b610928565b6040805192835260208301919091520161026a565b34801561033157600080fd5b5061038e610340366004611fca565b60016020528060005260406000206000915090508060000154908060010154908060020154908060030154908060040154908060050154908060060154908060070154908060080154905089565b60408051998a5260208a0198909852968801959095526060870193909352608086019190915260a085015260c084015260e08301526101008201526101200161026a565b3480156103de57600080fd5b506102606103ed366004611fca565b610956565b3480156103fe57600080fd5b5061029361040d366004612007565b610a1d565b34801561041e57600080fd5b50610293610b3f565b34801561043357600080fd5b50610260600b5481565b61029361044b366004612033565b610d28565b34801561045c57600080fd5b5061026068056bc75e2d6310000081565b34801561047957600080fd5b50610293610488366004611fe5565b610e6a565b34801561049957600080fd5b506103106104a8366004611f95565b610f08565b3480156104b957600080fd5b506008546104cd906001600160a01b031681565b6040516001600160a01b03909116815260200161026a565b3480156104f157600080fd5b5061026060025481565b34801561050757600080fd5b50610293610fa0565b34801561051c57600080fd5b5061053061052b366004611fca565b610fb4565b60405161026a959493929190948552602085019390935290151560408401526060830152608082015260a00190565b34801561056b57600080fd5b506102606201518081565b34801561058257600080fd5b5061026060035481565b34801561059857600080fd5b506102936105a7366004611f95565b61112f565b3480156105b857600080fd5b506000546001600160a01b03166104cd565b3480156105d657600080fd5b5061026060045481565b3480156105ec57600080fd5b506102936105fb366004611f95565b611180565b34801561060c57600080fd5b5061062061061b366004611fca565b6112a9565b604080519687526020870195909552938501929092526060840152608083015260a082015260c00161026a565b34801561065957600080fd5b50600654610260565b34801561066e57600080fd5b50610260600a5481565b34801561068457600080fd5b5061026060075481565b34801561069a57600080fd5b5061029361139c565b3480156106af57600080fd5b506106c36106be366004611fca565b611445565b604051901515815260200161026a565b3480156106df57600080fd5b506102936114ed565b3480156106f457600080fd5b50610260610703366004611fca565b61172f565b610293611852565b61029361071e366004612033565b611a76565b34801561072f57600080fd5b5061029361073e366004611fca565b611ba6565b34801561074f57600080fd5b506009546104cd906001600160a01b031681565b34801561076f57600080fd5b5061026061077e366004611f95565b60056020526000908152604090205481565b600061079b82611be4565b92915050565b6107a9611c79565b6001600160a01b0381166108045760405162461bcd60e51b815260206004820152601760248201527f496e76616c69642072657365727665206164647265737300000000000000000060448201526064015b60405180910390fd5b600980546001600160a01b0319166001600160a01b0383169081179091556040517f279ea638680bba6a87fddd8bcdbc37d94eee92841e1dfec2ab0f79662c70931190600090a250565b600080610859611ca6565b90508060005b8481101561089257670de0b6b3a76400006003548361087e9190612082565b6108889190612099565b915060010161085f565b50848261089f8383612082565b6108a99190612099565b6108b391906120bb565b95945050505050565b6108c4611c79565b670de0b6b3a76400008110156109105760405162461bcd60e51b815260206004820152601160248201527052617465206d757374206265203e3d203160781b60448201526064016107fb565b60038190556109226201518042612099565b60045550565b6006818154811061093857600080fd5b60009182526020909120600290910201805460019091015490915082565b6001600160a01b0381166000908152600160208181526040808420815161012081018352815480825294820154938101939093526002810154918301919091526003810154606083015260048101546080830152600581015460a0830152600681015460c0830152600781015460e0830152600801546101008201529082036109e25750600092915050565b60006109ec611ca6565b8251606084015191925090610a018383612082565b610a0b9190612099565b610a1591906120bb565b949350505050565b610a25611c79565b670de0b6b3a7640000811015610a715760405162461bcd60e51b815260206004820152601160248201527052617465206d757374206265203e3d203160781b60448201526064016107fb565b6006548310610af35760408051808201909152918252602082019081526006805460018101825560009190915291517ff652222313e28459528d920b65115c16c04f3efc82aaedc97be59f3f377c0d3f600290930292830155517ff652222313e28459528d920b65115c16c04f3efc82aaedc97be59f3f377c0d409091015550565b60405180604001604052808381526020018281525060068481548110610b1b57610b1b6120ce565b60009182526020918290208351600290920201908155910151600190910155505050565b3360009081526001602052604081208054909103610b945760405162461bcd60e51b8152602060048201526012602482015271139bc8199d5b991cc819195c1bdcda5d195960721b60448201526064016107fb565b610b9d33611d4c565b60048101546000819003610bea5760405162461bcd60e51b81526020600482015260146024820152734e6f20696e74657265737420746f20636c61696d60601b60448201526064016107fb565b600082600401819055508060026000828254610c0691906120bb565b9091555050600854604051602481018390526000916001600160a01b03169060440160408051601f198184030181529181526020820180516001600160e01b031663e19fb8f560e01b17905251610c5d91906120e4565b6000604051808303816000865af19150503d8060008114610c9a576040519150601f19603f3d011682016040523d82523d6000602084013e610c9f565b606091505b5050905080610cc05760405162461bcd60e51b81526004016107fb90612113565b604051339083156108fc029084906000818181858888f19350505050158015610ced573d6000803e3d6000fd5b5060405182815233907ff9984c8173c4b4ff9cc454f76ed19c053f4490ccb224fd9ddffeb4ef4bea35309060200160405180910390a2505050565b6008546001600160a01b03163314610d6e5760405162461bcd60e51b815260206004820152600960248201526813db9b1e481c1bdbdb60ba1b60448201526064016107fb565b8015610e645780341015610dbf5760405162461bcd60e51b8152602060048201526018602482015277125b9cdd59999a58da595b9d08199959481c185e5b595b9d60421b60448201526064016107fb565b6009546040516001600160a01b039091169082156108fc029083906000818181858888f19350505050158015610df9573d6000803e3d6000fd5b5060408051828152606060208201819052600b908201526a37b934b3b4b730ba34b7b760a91b60808201529081018390526001600160a01b038516907f66aecc579aa1ef463c0ed1547c2cb6163370e6311a60cba815252acbb398f2139060a0015b60405180910390a25b50505050565b610e72611c79565b6127108211158015610e8657506127108111155b610ec15760405162461bcd60e51b815260206004820152600c60248201526b08ccaca40e8dede40d0d2ced60a31b60448201526064016107fb565b600a829055600b81905560408051838152602081018390527f1ad8b45a83c0b03428f4eb1fc49e5e9e4ee40bea305c8dfde416980ea7d90c98910160405180910390a15050565b60065460009081908310610f535760405162461bcd60e51b8152602060048201526012602482015271092dcecc2d8d2c840e8d2cae440d2dcc8caf60731b60448201526064016107fb565b600060068481548110610f6857610f686120ce565b600091825260209182902060408051808201909152600290920201805480835260019091015491909201819052909590945092505050565b610fa8611c79565b610fb26000611e4e565b565b6001600160a01b038116600090815260016020818152604080842081516101208101835281548152938101549284018390526002810154918401919091526003810154606084015260048101546080840152600581015460a0840152600681015460c0840152600781015460e084015260080154610100830152829182918291829161104490620151809061215e565b955085421061105457600061106f565b600754815160649161106591612082565b61106f9190612099565b945085421015935060008160e0015160000361109957611092620151804261215e565b90506110af565b620151808260e001516110ac919061215e565b90505b6110bd620151806002612082565b6110c7904261215e565b8111156110e2576110db620151804261215e565b93506110e6565b8093505b8151156111245760006110f7611ca6565b835160608501519192509061110c8383612082565b6111169190612099565b61112091906120bb565b9350505b505091939590929450565b611137611c79565b606481111561117b5760405162461bcd60e51b815260206004820152601060248201526f0a0cadcc2d8e8f240e8dede40d0d2ced60831b60448201526064016107fb565b600755565b33600090815260016020526040902060088101546111a290620151809061215e565b4210156111f15760405162461bcd60e51b815260206004820152601d60248201527f4d757374207761697420666f7220636f6f6c646f776e20706572696f6400000060448201526064016107fb565b80548211156112395760405162461bcd60e51b8152602060048201526014602482015273496e73756666696369656e742062616c616e636560601b60448201526064016107fb565b61124233611d4c565b6005810182905542600682018190556008820181905533907f24b91f4f47caf44230a57777a9be744924e82bf666f2d5702faf97df35e60f9f90849061128c90620151809061215e565b604080519283526020830191909152015b60405180910390a25050565b6001600160a01b038116600090815260016020818152604080842081516101208101835281548082529482015493810184905260028201549281019290925260038101546060830152600481015460808301819052600582015460a0840152600682015460c0840152600782015460e0840152600890910154610100830152929392918391829182919061134190620151809061215e565b60e08201519093509150861561138757600061135b611ca6565b9050878260600151828a61136f9190612082565b6113799190612099565b61138391906120bb565b9650505b61139088611e9e565b93505091939550919395565b33600090815260016020526040812060058101549091036113ff5760405162461bcd60e51b815260206004820152601f60248201527f4e6f2070656e64696e67207769746864726177616c20746f2063616e63656c0060448201526064016107fb565b600581018054600091829055600683019190915560405181815233907f2eed97477f07c07ec48f8f678f4e84f7c0de55bf33f51c3dc989b133530803199060200161129d565b6001600160a01b03811660009081526001602081815260408084208151610120810183528154815293810154928401929092526002820154908301526003810154606083015260048101546080830152600581015460a08301819052600682015460c0840152600782015460e084015260089091015461010083015282036114d05750600092915050565b620151808160c001516114e3919061215e565b4210159392505050565b33600090815260016020526040812060058101549091036115485760405162461bcd60e51b8152602060048201526015602482015274139bc81c195b991a5b99c81dda5d1a191c985dd85b605a1b60448201526064016107fb565b6005810154600182015460009061156390620151809061215e565b4210156115c95760646007548361157a9190612082565b6115849190612099565b905061159081836120bb565b60405182815290925033907fb6a45448c8250adf8d836e047d46f96410d632c7089720e3aed88fcb76644ded9060200160405180910390a25b6115d3818361215e565b8360000160008282546115e691906120bb565b909155506115f69050818361215e565b6002600082825461160791906120bb565b9091555050600060058401819055600854604051602481018590526001600160a01b039091169060440160408051601f198184030181529181526020820180516001600160e01b031663e19fb8f560e01b1790525161166691906120e4565b6000604051808303816000865af19150503d80600081146116a3576040519150601f19603f3d011682016040523d82523d6000602084013e6116a8565b606091505b50509050806116c95760405162461bcd60e51b81526004016107fb90612113565b604051339084156108fc029085906000818181858888f193505050501580156116f6573d6000803e3d6000fd5b50604080518481526020810184905233917ffbc3a599b784fe88772fc5abcc07223f64ca0b13acc341f4fb1e46bef0510eb49101610e5b565b6001600160a01b0381166000908152600160208181526040808420815161012081018352815480825294820154938101939093526002810154918301919091526003810154606083015260048101546080830152600581015460a0830152600681015460c0830152600781015460e0830152600801546101008201529082036117bb5750600092915050565b60006117c5611ca6565b90506000620151808360400151426117dd91906120bb565b6117e79190612099565b9050801561184a57825160608401516118008483612082565b61180a9190612099565b61181491906120bb565b935060005b8181101561184857670de0b6b3a76400006118348487612082565b61183e9190612099565b9450600101611819565b505b505050919050565b662386f26fc100003410156118a25760405162461bcd60e51b81526020600482015260166024820152754465706f73697420616d6f756e7420746f6f206c6f7760501b60448201526064016107fb565b3360009081526001602052604090205468056bc75e2d63100000906118c7903461215e565b11156119205760405162461bcd60e51b815260206004820152602260248201527f4465706f73697420776f756c6420657863656564206d6178696d756d206c696d6044820152611a5d60f21b60648201526084016107fb565b6008546040516000916001600160a01b03169034908381818185875af1925050503d806000811461196d576040519150601f19603f3d011682016040523d82523d6000602084013e611972565b606091505b50509050806119d55760405162461bcd60e51b815260206004820152602960248201527f4661696c656420746f20666f72776172642066756e647320746f206c69717569604482015268191a5d1e481c1bdbdb60ba1b60648201526084016107fb565b336000818152600160205260409020906119ee90611d4c565b8054600003611a12576119ff611ca6565b6003820155426001820181905560078201555b34816000016000828254611a26919061215e565b925050819055503460026000828254611a3f919061215e565b909155505060405134815233907f543ba50a5eec5e6178218e364b1d0f396157b3c8fa278522c2cb7fd99407d4749060200161129d565b6008546001600160a01b03163314611abc5760405162461bcd60e51b815260206004820152600960248201526813db9b1e481c1bdbdb60ba1b60448201526064016107fb565b8015610e645780341015611b0d5760405162461bcd60e51b8152602060048201526018602482015277125b9cdd59999a58da595b9d08199959481c185e5b595b9d60421b60448201526064016107fb565b6009546040516001600160a01b039091169082156108fc029083906000818181858888f19350505050158015611b47573d6000803e3d6000fd5b5060408051828152606060208201819052600490820152636c61746560e01b60808201529081018390526001600160a01b038516907f66aecc579aa1ef463c0ed1547c2cb6163370e6311a60cba815252acbb398f2139060a001610e5b565b611bae611c79565b6001600160a01b038116611bd857604051631e4fbdf760e01b8152600060048201526024016107fb565b611be181611e4e565b50565b6006546000905b8015611c6f576006611bfe6001836120bb565b81548110611c0e57611c0e6120ce565b9060005260206000209060020201600001548310611c5d576006611c336001836120bb565b81548110611c4357611c436120ce565b906000526020600020906002020160010154915050919050565b80611c6781612171565b915050611beb565b5050600354919050565b6000546001600160a01b03163314610fb25760405163118cdaa760e01b81523360048201526024016107fb565b600080611cb66201518042612099565b9050600060045482611cc891906120bb565b905080600003611d0457600082815260056020526040902054611ced57600354611cfd565b6000828152600560205260409020545b9250505090565b60035460005b82811015611d4457670de0b6b3a7640000611d26600254611be4565b611d309084612082565b611d3a9190612099565b9150600101611d0a565b509392505050565b6001600160a01b03811660009081526001602052604081208054909103611d71575050565b6000611d7b611ca6565b82546003840154919250600091611d928483612082565b611d9c9190612099565b611da691906120bb565b90508015611e3e5780836004016000828254611dc2919061215e565b9091555050825481908490600090611ddb90849061215e565b925050819055508060026000828254611df4919061215e565b90915550504260078401556040518181526001600160a01b038516907f65724bab62e2b372c625ed834016c4e1750f8074aad18b22844457f35ea61d739060200160405180910390a25b5060038201554260029091015550565b600080546001600160a01b038381166001600160a01b0319831681178455604051919092169283917f8be0079c531659141344cd1fd0a4f28419497f9722a3daafe3b4186f6b6457e09190a35050565b6001600160a01b0381166000908152600160208181526040808420815161012081018352815480825294820154938101939093526002810154918301919091526003810154606083015260048101546080830152600581015460a0830152600681015460c0830152600781015460e083015260080154610100820152908203611f2a5750600092915050565b60008160e00151600003611f4c57611f45620151804261215e565b9050611f62565b620151808260e00151611f5f919061215e565b90505b611f70620151806002612082565b611f7a904261215e565b811115611f8e57610a15620151804261215e565b9392505050565b600060208284031215611fa757600080fd5b5035919050565b80356001600160a01b0381168114611fc557600080fd5b919050565b600060208284031215611fdc57600080fd5b611f8e82611fae565b60008060408385031215611ff857600080fd5b50508035926020909101359150565b60008060006060848603121561201c57600080fd5b505081359360208301359350604090920135919050565b6000806000806080858703121561204957600080fd5b61205285611fae565b966020860135965060408601359560600135945092505050565b634e487b7160e01b600052601160045260246000fd5b808202811582820484141761079b5761079b61206c565b6000826120b657634e487b7160e01b600052601260045260246000fd5b500490565b8181038181111561079b5761079b61206c565b634e487b7160e01b600052603260045260246000fd5b6000825160005b8181101561210557602081860181015185830152016120eb565b506000920191825250919050565b6020808252602b908201527f4661696c656420746f20657874726163742066756e64732066726f6d206c697160408201526a1d5a591a5d1e481c1bdbdb60aa1b606082015260800190565b8082018082111561079b5761079b61206c565b6000816121805761218061206c565b50600019019056fea2646970667358221220f66e8757927138ae19e847150c1052cf4553b04c76d4f547086e12859d2ef69c64736f6c634300081c0033",
  "linkReferences": {},
  "deployedLinkReferences": {}
}