{
  "_format": "hh-sol-artifact-1",
  "contractName": "LiquidityPoolV3",
  "sourceName": "contracts/LiquidityPoolV3.sol",
  "abi": [
    {
      "inputs": [],
      "name": "AccessControlBadConfirmation",
      "type": "error"
    },
    {
      "inputs": [
        {
          "internalType": "address",
          "name": "account",
          "type": "address"
        },
        {
          "internalType": "bytes32",
          "name": "neededRole",
          "type": "bytes32"
        }
      ],
      "name": "AccessControlUnauthorizedAccount",
      "type": "error"
    },
    {
      "inputs": [],
      "name": "InvalidInitialization",
      "type": "error"
    },
    {
      "inputs": [],
      "name": "NotInitializing",
      "type": "error"
    },
    {
      "inputs": [
        {
          "internalType": "address",
          "name": "owner",
          "type": "address"
        }
      ],
      "name": "OwnableInvalidOwner",
      "type": "error"
    },
    {
      "inputs": [
        {
          "internalType": "address",
          "name": "account",
          "type": "address"
        }
      ],
      "name": "OwnableUnauthorizedAccount",
      "type": "error"
    },
    {
      "anonymous": false,
      "inputs": [
        {
          "indexed": true,
          "internalType": "address",
          "name": "user",
          "type": "address"
        },
        {
          "indexed": false,
          "internalType": "uint256",
          "name": "amount",
          "type": "uint256"
        }
      ],
      "name": "Borrowed",
      "type": "event"
    },
    {
      "anonymous": false,
      "inputs": [
        {
          "indexed": true,
          "internalType": "address",
          "name": "user",
          "type": "address"
        },
        {
          "indexed": true,
          "internalType": "address",
          "name": "token",
          "type": "address"
        },
        {
          "indexed": false,
          "internalType": "uint256",
          "name": "amount",
          "type": "uint256"
        }
      ],
      "name": "CollateralDeposited",
      "type": "event"
    },
    {
      "anonymous": false,
      "inputs": [
        {
          "indexed": true,
          "internalType": "address",
          "name": "token",
          "type": "address"
        },
        {
          "indexed": false,
          "internalType": "bool",
          "name": "isAllowed",
          "type": "bool"
        }
      ],
      "name": "CollateralTokenStatusChanged",
      "type": "event"
    },
    {
      "anonymous": false,
      "inputs": [
        {
          "indexed": true,
          "internalType": "address",
          "name": "user",
          "type": "address"
        },
        {
          "indexed": true,
          "internalType": "address",
          "name": "token",
          "type": "address"
        },
        {
          "indexed": false,
          "internalType": "uint256",
          "name": "amount",
          "type": "uint256"
        }
      ],
      "name": "CollateralWithdrawn",
      "type": "event"
    },
    {
      "anonymous": false,
      "inputs": [
        {
          "indexed": true,
          "internalType": "address",
          "name": "user",
          "type": "address"
        },
        {
          "indexed": false,
          "internalType": "uint256",
          "name": "score",
          "type": "uint256"
        }
      ],
      "name": "CreditScoreAssigned",
      "type": "event"
    },
    {
      "anonymous": false,
      "inputs": [
        {
          "indexed": false,
          "internalType": "bool",
          "name": "isPaused",
          "type": "bool"
        }
      ],
      "name": "EmergencyPaused",
      "type": "event"
    },
    {
      "anonymous": false,
      "inputs": [
        {
          "indexed": true,
          "internalType": "address",
          "name": "owner",
          "type": "address"
        },
        {
          "indexed": false,
          "internalType": "uint256",
          "name": "amount",
          "type": "uint256"
        }
      ],
      "name": "Extracted",
      "type": "event"
    },
    {
      "anonymous": false,
      "inputs": [
        {
          "indexed": true,
          "internalType": "address",
          "name": "user",
          "type": "address"
        },
        {
          "indexed": false,
          "internalType": "uint256",
          "name": "newDeadline",
          "type": "uint256"
        }
      ],
      "name": "GracePeriodExtended",
      "type": "event"
    },
    {
      "anonymous": false,
      "inputs": [
        {
          "indexed": false,
          "internalType": "uint64",
          "name": "version",
          "type": "uint64"
        }
      ],
      "name": "Initialized",
      "type": "event"
    },
    {
      "anonymous": false,
      "inputs": [
        {
          "indexed": true,
          "internalType": "address",
          "name": "user",
          "type": "address"
        },
        {
          "indexed": true,
          "internalType": "address",
          "name": "liquidator",
          "type": "address"
        },
        {
          "indexed": false,
          "internalType": "uint256",
          "name": "amount",
          "type": "uint256"
        }
      ],
      "name": "LiquidationExecuted",
      "type": "event"
    },
    {
      "anonymous": false,
      "inputs": [
        {
          "indexed": true,
          "internalType": "address",
          "name": "user",
          "type": "address"
        }
      ],
      "name": "LiquidationStarted",
      "type": "event"
    },
    {
      "anonymous": false,
      "inputs": [
        {
          "indexed": true,
          "internalType": "address",
          "name": "previousOwner",
          "type": "address"
        },
        {
          "indexed": true,
          "internalType": "address",
          "name": "newOwner",
          "type": "address"
        }
      ],
      "name": "OwnershipTransferred",
      "type": "event"
    },
    {
      "anonymous": false,
      "inputs": [
        {
          "indexed": true,
          "internalType": "address",
          "name": "user",
          "type": "address"
        },
        {
          "indexed": false,
          "internalType": "uint256",
          "name": "amount",
          "type": "uint256"
        }
      ],
      "name": "Repaid",
      "type": "event"
    },
    {
      "anonymous": false,
      "inputs": [
        {
          "indexed": true,
          "internalType": "bytes32",
          "name": "role",
          "type": "bytes32"
        },
        {
          "indexed": true,
          "internalType": "bytes32",
          "name": "previousAdminRole",
          "type": "bytes32"
        },
        {
          "indexed": true,
          "internalType": "bytes32",
          "name": "newAdminRole",
          "type": "bytes32"
        }
      ],
      "name": "RoleAdminChanged",
      "type": "event"
    },
    {
      "anonymous": false,
      "inputs": [
        {
          "indexed": true,
          "internalType": "bytes32",
          "name": "role",
          "type": "bytes32"
        },
        {
          "indexed": true,
          "internalType": "address",
          "name": "account",
          "type": "address"
        },
        {
          "indexed": true,
          "internalType": "address",
          "name": "sender",
          "type": "address"
        }
      ],
      "name": "RoleGranted",
      "type": "event"
    },
    {
      "anonymous": false,
      "inputs": [
        {
          "indexed": true,
          "internalType": "bytes32",
          "name": "role",
          "type": "bytes32"
        },
        {
          "indexed": true,
          "internalType": "address",
          "name": "account",
          "type": "address"
        },
        {
          "indexed": true,
          "internalType": "address",
          "name": "sender",
          "type": "address"
        }
      ],
      "name": "RoleRevoked",
      "type": "event"
    },
    {
      "inputs": [],
      "name": "DEFAULT_ADMIN_ROLE",
      "outputs": [
        {
          "internalType": "bytes32",
          "name": "",
          "type": "bytes32"
        }
      ],
      "stateMutability": "view",
      "type": "function"
    },
    {
      "inputs": [],
      "name": "DEFAULT_LIQUIDATION_THRESHOLD",
      "outputs": [
        {
          "internalType": "uint256",
          "name": "",
          "type": "uint256"
        }
      ],
      "stateMutability": "view",
      "type": "function"
    },
    {
      "inputs": [],
      "name": "GRACE_PERIOD",
      "outputs": [
        {
          "internalType": "uint256",
          "name": "",
          "type": "uint256"
        }
      ],
      "stateMutability": "view",
      "type": "function"
    },
    {
      "inputs": [],
      "name": "LIQUIDATION_PENALTY",
      "outputs": [
        {
          "internalType": "uint256",
          "name": "",
          "type": "uint256"
        }
      ],
      "stateMutability": "view",
      "type": "function"
    },
    {
      "inputs": [
        {
          "internalType": "uint256",
          "name": "amount",
          "type": "uint256"
        }
      ],
      "name": "borrow",
      "outputs": [],
      "stateMutability": "nonpayable",
      "type": "function"
    },
    {
      "inputs": [
        {
          "internalType": "address",
          "name": "",
          "type": "address"
        }
      ],
      "name": "borrowTimestamp",
      "outputs": [
        {
          "internalType": "uint256",
          "name": "",
          "type": "uint256"
        }
      ],
      "stateMutability": "view",
      "type": "function"
    },
    {
      "inputs": [
        {
          "internalType": "address",
          "name": "user",
          "type": "address"
        }
      ],
      "name": "checkCollateralization",
      "outputs": [
        {
          "internalType": "bool",
          "name": "isHealthy",
          "type": "bool"
        },
        {
          "internalType": "uint256",
          "name": "ratio",
          "type": "uint256"
        }
      ],
      "stateMutability": "view",
      "type": "function"
    },
    {
      "inputs": [
        {
          "internalType": "address",
          "name": "",
          "type": "address"
        },
        {
          "internalType": "address",
          "name": "",
          "type": "address"
        }
      ],
      "name": "collateralBalance",
      "outputs": [
        {
          "internalType": "uint256",
          "name": "",
          "type": "uint256"
        }
      ],
      "stateMutability": "view",
      "type": "function"
    },
    {
      "inputs": [
        {
          "internalType": "uint256",
          "name": "",
          "type": "uint256"
        }
      ],
      "name": "collateralTokenList",
      "outputs": [
        {
          "internalType": "address",
          "name": "",
          "type": "address"
        }
      ],
      "stateMutability": "view",
      "type": "function"
    },
    {
      "inputs": [
        {
          "internalType": "address",
          "name": "",
          "type": "address"
        }
      ],
      "name": "creditScore",
      "outputs": [
        {
          "internalType": "uint256",
          "name": "",
          "type": "uint256"
        }
      ],
      "stateMutability": "view",
      "type": "function"
    },
    {
      "inputs": [
        {
          "internalType": "address",
          "name": "token",
          "type": "address"
        },
        {
          "internalType": "uint256",
          "name": "amount",
          "type": "uint256"
        }
      ],
      "name": "depositCollateral",
      "outputs": [],
      "stateMutability": "nonpayable",
      "type": "function"
    },
    {
      "inputs": [
        {
          "internalType": "address",
          "name": "user",
          "type": "address"
        }
      ],
      "name": "executeLiquidation",
      "outputs": [],
      "stateMutability": "nonpayable",
      "type": "function"
    },
    {
      "inputs": [
        {
          "internalType": "uint256",
          "name": "amount",
          "type": "uint256"
        }
      ],
      "name": "extract",
      "outputs": [],
      "stateMutability": "nonpayable",
      "type": "function"
    },
    {
      "inputs": [],
      "name": "getAdmin",
      "outputs": [
        {
          "internalType": "address",
          "name": "",
          "type": "address"
        }
      ],
      "stateMutability": "view",
      "type": "function"
    },
    {
      "inputs": [],
      "name": "getAllowedCollateralTokens",
      "outputs": [
        {
          "internalType": "address[]",
          "name": "",
          "type": "address[]"
        }
      ],
      "stateMutability": "view",
      "type": "function"
    },
    {
      "inputs": [],
      "name": "getBalance",
      "outputs": [
        {
          "internalType": "uint256",
          "name": "",
          "type": "uint256"
        }
      ],
      "stateMutability": "view",
      "type": "function"
    },
    {
      "inputs": [
        {
          "internalType": "address",
          "name": "user",
          "type": "address"
        },
        {
          "internalType": "address",
          "name": "token",
          "type": "address"
        }
      ],
      "name": "getCollateral",
      "outputs": [
        {
          "internalType": "uint256",
          "name": "",
          "type": "uint256"
        }
      ],
      "stateMutability": "view",
      "type": "function"
    },
    {
      "inputs": [
        {
          "internalType": "address",
          "name": "user",
          "type": "address"
        }
      ],
      "name": "getCreditScore",
      "outputs": [
        {
          "internalType": "uint256",
          "name": "",
          "type": "uint256"
        }
      ],
      "stateMutability": "view",
      "type": "function"
    },
    {
      "inputs": [],
      "name": "getInterestRate",
      "outputs": [
        {
          "internalType": "uint256",
          "name": "",
          "type": "uint256"
        }
      ],
      "stateMutability": "view",
      "type": "function"
    },
    {
      "inputs": [
        {
          "internalType": "address",
          "name": "token",
          "type": "address"
        }
      ],
      "name": "getLiquidationThreshold",
      "outputs": [
        {
          "internalType": "uint256",
          "name": "",
          "type": "uint256"
        }
      ],
      "stateMutability": "view",
      "type": "function"
    },
    {
      "inputs": [],
      "name": "getMaxBorrowAmount",
      "outputs": [
        {
          "internalType": "uint256",
          "name": "",
          "type": "uint256"
        }
      ],
      "stateMutability": "view",
      "type": "function"
    },
    {
      "inputs": [],
      "name": "getMaxCollateralAmount",
      "outputs": [
        {
          "internalType": "uint256",
          "name": "",
          "type": "uint256"
        }
      ],
      "stateMutability": "view",
      "type": "function"
    },
    {
      "inputs": [],
      "name": "getMaxLiquidationAmount",
      "outputs": [
        {
          "internalType": "uint256",
          "name": "",
          "type": "uint256"
        }
      ],
      "stateMutability": "view",
      "type": "function"
    },
    {
      "inputs": [],
      "name": "getMaxLiquidationBonus",
      "outputs": [
        {
          "internalType": "uint256",
          "name": "",
          "type": "uint256"
        }
      ],
      "stateMutability": "view",
      "type": "function"
    },
    {
      "inputs": [],
      "name": "getMaxLiquidationDelay",
      "outputs": [
        {
          "internalType": "uint256",
          "name": "",
          "type": "uint256"
        }
      ],
      "stateMutability": "view",
      "type": "function"
    },
    {
      "inputs": [],
      "name": "getMaxLiquidationGracePeriod",
      "outputs": [
        {
          "internalType": "uint256",
          "name": "",
          "type": "uint256"
        }
      ],
      "stateMutability": "view",
      "type": "function"
    },
    {
      "inputs": [],
      "name": "getMaxLiquidationPenalty",
      "outputs": [
        {
          "internalType": "uint256",
          "name": "",
          "type": "uint256"
        }
      ],
      "stateMutability": "view",
      "type": "function"
    },
    {
      "inputs": [],
      "name": "getMaxLiquidationRatio",
      "outputs": [
        {
          "internalType": "uint256",
          "name": "",
          "type": "uint256"
        }
      ],
      "stateMutability": "view",
      "type": "function"
    },
    {
      "inputs": [],
      "name": "getMaxLiquidationThreshold",
      "outputs": [
        {
          "internalType": "uint256",
          "name": "",
          "type": "uint256"
        }
      ],
      "stateMutability": "view",
      "type": "function"
    },
    {
      "inputs": [],
      "name": "getMaxLiquidationTime",
      "outputs": [
        {
          "internalType": "uint256",
          "name": "",
          "type": "uint256"
        }
      ],
      "stateMutability": "view",
      "type": "function"
    },
    {
      "inputs": [],
      "name": "getMinCollateralRatio",
      "outputs": [
        {
          "internalType": "uint256",
          "name": "",
          "type": "uint256"
        }
      ],
      "stateMutability": "view",
      "type": "function"
    },
    {
      "inputs": [],
      "name": "getMyDebt",
      "outputs": [
        {
          "internalType": "uint256",
          "name": "",
          "type": "uint256"
        }
      ],
      "stateMutability": "view",
      "type": "function"
    },
    {
      "inputs": [
        {
          "internalType": "bytes32",
          "name": "role",
          "type": "bytes32"
        }
      ],
      "name": "getRoleAdmin",
      "outputs": [
        {
          "internalType": "bytes32",
          "name": "",
          "type": "bytes32"
        }
      ],
      "stateMutability": "view",
      "type": "function"
    },
    {
      "inputs": [
        {
          "internalType": "address",
          "name": "token",
          "type": "address"
        }
      ],
      "name": "getTokenValue",
      "outputs": [
        {
          "internalType": "uint256",
          "name": "",
          "type": "uint256"
        }
      ],
      "stateMutability": "view",
      "type": "function"
    },
    {
      "inputs": [
        {
          "internalType": "address",
          "name": "user",
          "type": "address"
        }
      ],
      "name": "getTotalCollateralValue",
      "outputs": [
        {
          "internalType": "uint256",
          "name": "",
          "type": "uint256"
        }
      ],
      "stateMutability": "view",
      "type": "function"
    },
    {
      "inputs": [
        {
          "internalType": "bytes32",
          "name": "role",
          "type": "bytes32"
        },
        {
          "internalType": "address",
          "name": "account",
          "type": "address"
        }
      ],
      "name": "grantRole",
      "outputs": [],
      "stateMutability": "nonpayable",
      "type": "function"
    },
    {
      "inputs": [
        {
          "internalType": "bytes32",
          "name": "role",
          "type": "bytes32"
        },
        {
          "internalType": "address",
          "name": "account",
          "type": "address"
        }
      ],
      "name": "hasRole",
      "outputs": [
        {
          "internalType": "bool",
          "name": "",
          "type": "bool"
        }
      ],
      "stateMutability": "view",
      "type": "function"
    },
    {
      "inputs": [
        {
          "internalType": "address",
          "name": "initialOwner",
          "type": "address"
        }
      ],
      "name": "initialize",
      "outputs": [],
      "stateMutability": "nonpayable",
      "type": "function"
    },
    {
      "inputs": [],
      "name": "interestRate",
      "outputs": [
        {
          "internalType": "uint256",
          "name": "",
          "type": "uint256"
        }
      ],
      "stateMutability": "view",
      "type": "function"
    },
    {
      "inputs": [
        {
          "internalType": "address",
          "name": "",
          "type": "address"
        }
      ],
      "name": "isAllowedCollateral",
      "outputs": [
        {
          "internalType": "bool",
          "name": "",
          "type": "bool"
        }
      ],
      "stateMutability": "view",
      "type": "function"
    },
    {
      "inputs": [
        {
          "internalType": "address",
          "name": "",
          "type": "address"
        }
      ],
      "name": "isLiquidatable",
      "outputs": [
        {
          "internalType": "bool",
          "name": "",
          "type": "bool"
        }
      ],
      "stateMutability": "view",
      "type": "function"
    },
    {
      "inputs": [],
      "name": "isPaused",
      "outputs": [
        {
          "internalType": "bool",
          "name": "",
          "type": "bool"
        }
      ],
      "stateMutability": "view",
      "type": "function"
    },
    {
      "inputs": [
        {
          "internalType": "address",
          "name": "",
          "type": "address"
        }
      ],
      "name": "liquidationStartTime",
      "outputs": [
        {
          "internalType": "uint256",
          "name": "",
          "type": "uint256"
        }
      ],
      "stateMutability": "view",
      "type": "function"
    },
    {
      "inputs": [
        {
          "internalType": "address",
          "name": "",
          "type": "address"
        }
      ],
      "name": "liquidationThreshold",
      "outputs": [
        {
          "internalType": "uint256",
          "name": "",
          "type": "uint256"
        }
      ],
      "stateMutability": "view",
      "type": "function"
    },
    {
      "inputs": [],
      "name": "liquidator",
      "outputs": [
        {
          "internalType": "address",
          "name": "",
          "type": "address"
        }
      ],
      "stateMutability": "view",
      "type": "function"
    },
    {
      "inputs": [],
      "name": "locked",
      "outputs": [
        {
          "internalType": "bool",
          "name": "",
          "type": "bool"
        }
      ],
      "stateMutability": "view",
      "type": "function"
    },
    {
      "inputs": [],
      "name": "maxBorrowAmount",
      "outputs": [
        {
          "internalType": "uint256",
          "name": "",
          "type": "uint256"
        }
      ],
      "stateMutability": "view",
      "type": "function"
    },
    {
      "inputs": [],
      "name": "maxCollateralAmount",
      "outputs": [
        {
          "internalType": "uint256",
          "name": "",
          "type": "uint256"
        }
      ],
      "stateMutability": "view",
      "type": "function"
    },
    {
      "inputs": [],
      "name": "maxLiquidationAmount",
      "outputs": [
        {
          "internalType": "uint256",
          "name": "",
          "type": "uint256"
        }
      ],
      "stateMutability": "view",
      "type": "function"
    },
    {
      "inputs": [],
      "name": "maxLiquidationBonus",
      "outputs": [
        {
          "internalType": "uint256",
          "name": "",
          "type": "uint256"
        }
      ],
      "stateMutability": "view",
      "type": "function"
    },
    {
      "inputs": [],
      "name": "maxLiquidationDelay",
      "outputs": [
        {
          "internalType": "uint256",
          "name": "",
          "type": "uint256"
        }
      ],
      "stateMutability": "view",
      "type": "function"
    },
    {
      "inputs": [],
      "name": "maxLiquidationGracePeriod",
      "outputs": [
        {
          "internalType": "uint256",
          "name": "",
          "type": "uint256"
        }
      ],
      "stateMutability": "view",
      "type": "function"
    },
    {
      "inputs": [],
      "name": "maxLiquidationPenalty",
      "outputs": [
        {
          "internalType": "uint256",
          "name": "",
          "type": "uint256"
        }
      ],
      "stateMutability": "view",
      "type": "function"
    },
    {
      "inputs": [],
      "name": "maxLiquidationRatio",
      "outputs": [
        {
          "internalType": "uint256",
          "name": "",
          "type": "uint256"
        }
      ],
      "stateMutability": "view",
      "type": "function"
    },
    {
      "inputs": [],
      "name": "maxLiquidationThreshold",
      "outputs": [
        {
          "internalType": "uint256",
          "name": "",
          "type": "uint256"
        }
      ],
      "stateMutability": "view",
      "type": "function"
    },
    {
      "inputs": [],
      "name": "maxLiquidationTime",
      "outputs": [
        {
          "internalType": "uint256",
          "name": "",
          "type": "uint256"
        }
      ],
      "stateMutability": "view",
      "type": "function"
    },
    {
      "inputs": [],
      "name": "owner",
      "outputs": [
        {
          "internalType": "address",
          "name": "",
          "type": "address"
        }
      ],
      "stateMutability": "view",
      "type": "function"
    },
    {
      "inputs": [],
      "name": "paused",
      "outputs": [
        {
          "internalType": "bool",
          "name": "",
          "type": "bool"
        }
      ],
      "stateMutability": "view",
      "type": "function"
    },
    {
      "inputs": [
        {
          "internalType": "address",
          "name": "",
          "type": "address"
        }
      ],
      "name": "priceFeed",
      "outputs": [
        {
          "internalType": "address",
          "name": "",
          "type": "address"
        }
      ],
      "stateMutability": "view",
      "type": "function"
    },
    {
      "inputs": [
        {
          "internalType": "address",
          "name": "token",
          "type": "address"
        },
        {
          "internalType": "uint256",
          "name": "amount",
          "type": "uint256"
        }
      ],
      "name": "recoverFromLiquidation",
      "outputs": [],
      "stateMutability": "nonpayable",
      "type": "function"
    },
    {
      "inputs": [],
      "name": "renounceOwnership",
      "outputs": [],
      "stateMutability": "nonpayable",
      "type": "function"
    },
    {
      "inputs": [
        {
          "internalType": "bytes32",
          "name": "role",
          "type": "bytes32"
        },
        {
          "internalType": "address",
          "name": "callerConfirmation",
          "type": "address"
        }
      ],
      "name": "renounceRole",
      "outputs": [],
      "stateMutability": "nonpayable",
      "type": "function"
    },
    {
      "inputs": [],
      "name": "repay",
      "outputs": [],
      "stateMutability": "payable",
      "type": "function"
    },
    {
      "inputs": [
        {
          "internalType": "bytes32",
          "name": "role",
          "type": "bytes32"
        },
        {
          "internalType": "address",
          "name": "account",
          "type": "address"
        }
      ],
      "name": "revokeRole",
      "outputs": [],
      "stateMutability": "nonpayable",
      "type": "function"
    },
    {
      "inputs": [
        {
          "internalType": "address",
          "name": "newAdmin",
          "type": "address"
        }
      ],
      "name": "setAdmin",
      "outputs": [],
      "stateMutability": "nonpayable",
      "type": "function"
    },
    {
      "inputs": [
        {
          "internalType": "address",
          "name": "token",
          "type": "address"
        },
        {
          "internalType": "bool",
          "name": "allowed",
          "type": "bool"
        }
      ],
      "name": "setAllowedCollateral",
      "outputs": [],
      "stateMutability": "nonpayable",
      "type": "function"
    },
    {
      "inputs": [
        {
          "internalType": "address",
          "name": "user",
          "type": "address"
        },
        {
          "internalType": "uint256",
          "name": "score",
          "type": "uint256"
        }
      ],
      "name": "setCreditScore",
      "outputs": [],
      "stateMutability": "nonpayable",
      "type": "function"
    },
    {
      "inputs": [
        {
          "internalType": "uint256",
          "name": "newRate",
          "type": "uint256"
        }
      ],
      "name": "setInterestRate",
      "outputs": [],
      "stateMutability": "nonpayable",
      "type": "function"
    },
    {
      "inputs": [
        {
          "internalType": "address",
          "name": "token",
          "type": "address"
        },
        {
          "internalType": "uint256",
          "name": "threshold",
          "type": "uint256"
        }
      ],
      "name": "setLiquidationThreshold",
      "outputs": [],
      "stateMutability": "nonpayable",
      "type": "function"
    },
    {
      "inputs": [
        {
          "internalType": "address",
          "name": "_liquidator",
          "type": "address"
        }
      ],
      "name": "setLiquidator",
      "outputs": [],
      "stateMutability": "nonpayable",
      "type": "function"
    },
    {
      "inputs": [
        {
          "internalType": "uint256",
          "name": "newMax",
          "type": "uint256"
        }
      ],
      "name": "setMaxBorrowAmount",
      "outputs": [],
      "stateMutability": "nonpayable",
      "type": "function"
    },
    {
      "inputs": [
        {
          "internalType": "uint256",
          "name": "newMax",
          "type": "uint256"
        }
      ],
      "name": "setMaxCollateralAmount",
      "outputs": [],
      "stateMutability": "nonpayable",
      "type": "function"
    },
    {
      "inputs": [
        {
          "internalType": "uint256",
          "name": "newAmount",
          "type": "uint256"
        }
      ],
      "name": "setMaxLiquidationAmount",
      "outputs": [],
      "stateMutability": "nonpayable",
      "type": "function"
    },
    {
      "inputs": [
        {
          "internalType": "uint256",
          "name": "newBonus",
          "type": "uint256"
        }
      ],
      "name": "setMaxLiquidationBonus",
      "outputs": [],
      "stateMutability": "nonpayable",
      "type": "function"
    },
    {
      "inputs": [
        {
          "internalType": "uint256",
          "name": "newDelay",
          "type": "uint256"
        }
      ],
      "name": "setMaxLiquidationDelay",
      "outputs": [],
      "stateMutability": "nonpayable",
      "type": "function"
    },
    {
      "inputs": [
        {
          "internalType": "uint256",
          "name": "newPeriod",
          "type": "uint256"
        }
      ],
      "name": "setMaxLiquidationGracePeriod",
      "outputs": [],
      "stateMutability": "nonpayable",
      "type": "function"
    },
    {
      "inputs": [
        {
          "internalType": "uint256",
          "name": "newPenalty",
          "type": "uint256"
        }
      ],
      "name": "setMaxLiquidationPenalty",
      "outputs": [],
      "stateMutability": "nonpayable",
      "type": "function"
    },
    {
      "inputs": [
        {
          "internalType": "uint256",
          "name": "newRatio",
          "type": "uint256"
        }
      ],
      "name": "setMaxLiquidationRatio",
      "outputs": [],
      "stateMutability": "nonpayable",
      "type": "function"
    },
    {
      "inputs": [
        {
          "internalType": "uint256",
          "name": "newThreshold",
          "type": "uint256"
        }
      ],
      "name": "setMaxLiquidationThreshold",
      "outputs": [],
      "stateMutability": "nonpayable",
      "type": "function"
    },
    {
      "inputs": [
        {
          "internalType": "uint256",
          "name": "newTime",
          "type": "uint256"
        }
      ],
      "name": "setMaxLiquidationTime",
      "outputs": [],
      "stateMutability": "nonpayable",
      "type": "function"
    },
    {
      "inputs": [
        {
          "internalType": "address",
          "name": "token",
          "type": "address"
        },
        {
          "internalType": "address",
          "name": "feed",
          "type": "address"
        }
      ],
      "name": "setPriceFeed",
      "outputs": [],
      "stateMutability": "nonpayable",
      "type": "function"
    },
    {
      "inputs": [
        {
          "internalType": "address",
          "name": "user",
          "type": "address"
        }
      ],
      "name": "startLiquidation",
      "outputs": [],
      "stateMutability": "nonpayable",
      "type": "function"
    },
    {
      "inputs": [
        {
          "internalType": "bytes4",
          "name": "interfaceId",
          "type": "bytes4"
        }
      ],
      "name": "supportsInterface",
      "outputs": [
        {
          "internalType": "bool",
          "name": "",
          "type": "bool"
        }
      ],
      "stateMutability": "view",
      "type": "function"
    },
    {
      "inputs": [],
      "name": "togglePause",
      "outputs": [],
      "stateMutability": "nonpayable",
      "type": "function"
    },
    {
      "inputs": [],
      "name": "totalFunds",
      "outputs": [
        {
          "internalType": "uint256",
          "name": "",
          "type": "uint256"
        }
      ],
      "stateMutability": "view",
      "type": "function"
    },
    {
      "inputs": [
        {
          "internalType": "address",
          "name": "newOwner",
          "type": "address"
        }
      ],
      "name": "transferOwnership",
      "outputs": [],
      "stateMutability": "nonpayable",
      "type": "function"
    },
    {
      "inputs": [
        {
          "internalType": "address",
          "name": "",
          "type": "address"
        }
      ],
      "name": "userDebt",
      "outputs": [
        {
          "internalType": "uint256",
          "name": "",
          "type": "uint256"
        }
      ],
      "stateMutability": "view",
      "type": "function"
    },
    {
      "inputs": [
        {
          "internalType": "address",
          "name": "token",
          "type": "address"
        },
        {
          "internalType": "uint256",
          "name": "amount",
          "type": "uint256"
        }
      ],
      "name": "withdrawCollateral",
      "outputs": [],
      "stateMutability": "nonpayable",
      "type": "function"
    },
    {
      "stateMutability": "payable",
      "type": "receive"
    }
  ],
  "bytecode": "0x6080604052348015600f57600080fd5b506136538061001f6000396000f3fe6080604052600436106104cf5760003560e01c80638ee6eadc11610276578063c4d66de81161014f578063d77d5ed6116100c1578063e7602b9d11610085578063e7602b9d14610eca578063f1c5d6c214610eff578063f2fde38b14610f1f578063f797900614610f3f578063f7e590ee14610f54578063ff778bc014610f8157600080fd5b8063d77d5ed614610e40578063d937952114610e55578063e0498f5214610e75578063e1c5010014610e8a578063e2e2967914610eaa57600080fd5b8063cfdd0a6711610113578063cfdd0a6714610d72578063d277bbe614610d92578063d29255f914610da7578063d3dd2bdf14610dd4578063d547741f14610e0a578063d69e905314610e2a57600080fd5b8063c4d66de814610ce0578063c5ebeaec14610d00578063cc07854514610d20578063cf17622514610d36578063cf30901214610d5857600080fd5b8063b187bd26116101e8578063bb50911d116101ac578063bb50911d14610c3d578063bf8a1e1314610c5d578063c129d50414610c72578063c1a287e214610c87578063c23c69d514610c9e578063c4ae316814610ccb57600080fd5b8063b187bd2614610ba8578063b3a5a0a214610bc5578063b4e6e85e14610be5578063b69e5c7714610bfb578063b859791c14610c2857600080fd5b80639b8621d51161023a5780639b8621d514610afb578063a217fddf14610b10578063a5d5db0c14610b25578063a8409cd214610b45578063ac911bd814610b65578063b1732b2514610b7b57600080fd5b80638ee6eadc14610a705780638f9de40814610a8557806391d1485414610aa5578063968ed60014610ac557806397ed81cf14610adb57600080fd5b806352226ef0116103a8578063715018a61161031a5780637c2e4232116102de5780637c2e4232146109c45780637c3a00fd146109d95780637d795d5d146109ef57806385b3978214610a045780638da5cb5b14610a245780638e6b53bc14610a3957600080fd5b8063715018a61461092a5780637346f4861461093f57806376e112861461096f57806376e989491461098f5780637b86e42c146109a457600080fd5b80635f84f3021161036c5780635f84f3021461087557806367749834146108955780636c648fc4146108b55780636ce835f2146108d55780636e9960c3146108f5578063704b6c021461090a57600080fd5b806352226ef0146107bc5780635257b5661461080157806355f4d9e214610816578063561f4251146108365780635c975abb1461085657600080fd5b8063248a9ca3116104415780634046ebae116104055780634046ebae146107135780634484404114610739578063450a375a1461075957806345d089131461077b5780634c8f35ab146107915780634e385429146107a657600080fd5b8063248a9ca31461068b5780632f2ff15d146106ab578063350c35e9146106cb57806336568abe146106eb578063402d88831461070b57600080fd5b80630a26d59d116104935780630a26d59d146105be5780630e30428d146105de5780630fc0bbab146105fe57806312065fe0146106145780631328a1d7146106275780631fd48b9a1461063d57600080fd5b806301c76f81146104f357806301ffc9a714610515578063042e02cf1461054a578063048851151461057a578063080d9c2b1461059e57600080fd5b366104ee5734600a60008282546104e69190613213565b925050819055005b600080fd5b3480156104ff57600080fd5b5061051361050e366004613242565b610f97565b005b34801561052157600080fd5b5061053561053036600461325d565b610fcd565b60405190151581526020015b60405180910390f35b34801561055657600080fd5b50610535610565366004613242565b60056020526000908152604090205460ff1681565b34801561058657600080fd5b50610590600d5481565b604051908152602001610541565b3480156105aa57600080fd5b506105136105b9366004613287565b611004565b3480156105ca57600080fd5b506105136105d93660046132b1565b611153565b3480156105ea57600080fd5b506105136105f9366004613287565b611160565b34801561060a57600080fd5b5061059060125481565b34801561062057600080fd5b5047610590565b34801561063357600080fd5b50610590600f5481565b34801561064957600080fd5b50610673610658366004613242565b6008602052600090815260409020546001600160a01b031681565b6040516001600160a01b039091168152602001610541565b34801561069757600080fd5b506105906106a63660046132b1565b611286565b3480156106b757600080fd5b506105136106c63660046132ca565b6112a8565b3480156106d757600080fd5b506105136106e6366004613287565b6112ca565b3480156106f757600080fd5b506105136107063660046132ca565b6115ab565b6105136115de565b34801561071f57600080fd5b50600b54610673906201000090046001600160a01b031681565b34801561074557600080fd5b506105136107543660046132b1565b61180f565b34801561076557600080fd5b5033600090815260036020526040902054610590565b34801561078757600080fd5b5061059060135481565b34801561079d57600080fd5b50610590611860565b3480156107b257600080fd5b5061059060105481565b3480156107c857600080fd5b506105906107d73660046132f6565b6001600160a01b038082166000908152602081815260408083209386168352929052205492915050565b34801561080d57600080fd5b50601654610590565b34801561082257600080fd5b5061051361083136600461332e565b61187a565b34801561084257600080fd5b506105136108513660046132b1565b6119a1565b34801561086257600080fd5b50600b5461053590610100900460ff1681565b34801561088157600080fd5b506105136108903660046132b1565b6119f0565b3480156108a157600080fd5b506105136108b03660046132b1565b611a47565b3480156108c157600080fd5b506105906108d0366004613242565b611a54565b3480156108e157600080fd5b506105136108f03660046132b1565b611b02565b34801561090157600080fd5b50610673611b54565b34801561091657600080fd5b50610513610925366004613242565b611b5e565b34801561093657600080fd5b50610513611bd2565b34801561094b57600080fd5b5061053561095a366004613242565b60016020526000908152604090205460ff1681565b34801561097b57600080fd5b5061051361098a3660046132f6565b611be6565b34801561099b57600080fd5b50601354610590565b3480156109b057600080fd5b506105906109bf366004613242565b611c84565b3480156109d057600080fd5b50601454610590565b3480156109e557600080fd5b5061059060165481565b3480156109fb57600080fd5b50600d54610590565b348015610a1057600080fd5b50610513610a1f3660046132b1565b611cb2565b348015610a3057600080fd5b50610673611e0a565b348015610a4557600080fd5b50610a59610a54366004613242565b611e38565b604080519215158352602083019190915201610541565b348015610a7c57600080fd5b50600f54610590565b348015610a9157600080fd5b50610513610aa03660046132b1565b611ea4565b348015610ab157600080fd5b50610535610ac03660046132ca565b611eb1565b348015610ad157600080fd5b50610590600a5481565b348015610ae757600080fd5b50610513610af6366004613287565b611ee9565b348015610b0757600080fd5b50610590600581565b348015610b1c57600080fd5b50610590600081565b348015610b3157600080fd5b50610513610b40366004613287565b61202b565b348015610b5157600080fd5b50610513610b603660046132b1565b61221a565b348015610b7157600080fd5b50610590600c5481565b348015610b8757600080fd5b50610590610b96366004613242565b60076020526000908152604090205481565b348015610bb457600080fd5b50600b54610100900460ff16610535565b348015610bd157600080fd5b50610673610be03660046132b1565b612268565b348015610bf157600080fd5b50610590600e5481565b348015610c0757600080fd5b50610590610c16366004613242565b60036020526000908152604090205481565b348015610c3457600080fd5b50600e54610590565b348015610c4957600080fd5b50610513610c583660046132b1565b612292565b348015610c6957600080fd5b50601254610590565b348015610c7e57600080fd5b50610590608281565b348015610c9357600080fd5b506105906203f48081565b348015610caa57600080fd5b50610590610cb9366004613242565b60066020526000908152604090205481565b348015610cd757600080fd5b5061051361229f565b348015610cec57600080fd5b50610513610cfb366004613242565b612309565b348015610d0c57600080fd5b50610513610d1b3660046132b1565b612469565b348015610d2c57600080fd5b5061059060115481565b348015610d4257600080fd5b50610d4b612844565b6040516105419190613365565b348015610d6457600080fd5b50600b546105359060ff1681565b348015610d7e57600080fd5b50610513610d8d3660046132b1565b61298b565b348015610d9e57600080fd5b50601054610590565b348015610db357600080fd5b50610590610dc2366004613242565b60046020526000908152604090205481565b348015610de057600080fd5b50610590610def366004613242565b6001600160a01b031660009081526002602052604090205490565b348015610e1657600080fd5b50610513610e253660046132ca565b612998565b348015610e3657600080fd5b5061059060155481565b348015610e4c57600080fd5b50601554610590565b348015610e6157600080fd5b50610513610e703660046132b1565b6129b4565b348015610e8157600080fd5b50600c54610590565b348015610e9657600080fd5b50610513610ea5366004613242565b6129c1565b348015610eb657600080fd5b50610513610ec5366004613242565b612ad6565b348015610ed657600080fd5b50610590610ee53660046132f6565b600060208181529281526040808220909352908152205481565b348015610f0b57600080fd5b50610590610f1a366004613242565b612d73565b348015610f2b57600080fd5b50610513610f3a366004613242565b612ecc565b348015610f4b57600080fd5b50601154610590565b348015610f6057600080fd5b50610590610f6f366004613242565b60026020526000908152604090205481565b348015610f8d57600080fd5b5061059060145481565b6000610fa281612f0a565b50600b80546001600160a01b03909216620100000262010000600160b01b0319909216919091179055565b60006001600160e01b03198216637965db0b60e01b1480610ffe57506301ffc9a760e01b6001600160e01b03198316145b92915050565b3360009081526005602052604090205460ff166110685760405162461bcd60e51b815260206004820152601a60248201527f4163636f756e74206e6f7420696e206c69717569646174696f6e00000000000060448201526064015b60405180910390fd5b6040516323b872dd60e01b8152336004820152306024820152604481018290526001600160a01b038316906323b872dd906064016020604051808303816000875af11580156110bb573d6000803e3d6000fd5b505050506040513d601f19601f820116820180604052508101906110df91906133b1565b506001600160a01b03821660009081526020818152604080832033845290915281208054839290611111908490613213565b909155506000905061112233611e38565b509050801561114e57336000908152600560209081526040808320805460ff1916905560069091528120555b505050565b61115b612f14565b601455565b611168612f14565b6001600160a01b03821660009081526001602052604090205460ff166111d05760405162461bcd60e51b815260206004820152601f60248201527f546f6b656e206e6f7420616c6c6f77656420617320636f6c6c61746572616c00604482015260640161105f565b60105481111561121a5760405162461bcd60e51b8152602060048201526015602482015274115e18d959591cc81b585e081d1a1c995cda1bdb19605a1b604482015260640161105f565b6064811161126a5760405162461bcd60e51b815260206004820152601860248201527f5468726573686f6c64206d757374206265203e20313030250000000000000000604482015260640161105f565b6001600160a01b03909116600090815260076020526040902055565b60009081526000805160206135fe833981519152602052604090206001015490565b6112b182611286565b6112ba81612f0a565b6112c48383612f46565b50505050565b6001600160a01b03821660009081526001602052604090205460ff166113265760405162461bcd60e51b8152602060048201526011602482015270151bdad95b881b9bdd08185b1b1bddd959607a1b604482015260640161105f565b6001600160a01b03821660009081526020818152604080832033845290915290205481111561138e5760405162461bcd60e51b8152602060048201526014602482015273496e73756666696369656e742062616c616e636560601b604482015260640161105f565b3360009081526005602052604090205460ff16156113ea5760405162461bcd60e51b815260206004820152601960248201527820b1b1b7bab73a1034b99034b7103634b8bab4b230ba34b7b760391b604482015260640161105f565b6000670de0b6b3a76400006113fe84612d73565b61140890846133ce565b61141291906133e5565b61141b33611a54565b6114259190613407565b905061143083611c84565b3360009081526003602052604090205461144a91906133ce565b6114558260646133ce565b10156114be5760405162461bcd60e51b815260206004820152603260248201527f5769746864726177616c20776f756c64206d616b6520706f736974696f6e20756044820152711b99195c98dbdb1b185d195c985b1a5e995960721b606482015260840161105f565b6001600160a01b038316600090815260208181526040808320338452909152812080548492906114ef908490613407565b909155505060405163a9059cbb60e01b8152336004820152602481018390526001600160a01b0384169063a9059cbb906044016020604051808303816000875af1158015611541573d6000803e3d6000fd5b505050506040513d601f19601f8201168201806040525081019061156591906133b1565b506040518281526001600160a01b0384169033907f45892a46e6cef329bb642da6d69846d324db43d19008edc141ed82382eda1bee9060200160405180910390a3505050565b6001600160a01b03811633146115d45760405163334bd91960e11b815260040160405180910390fd5b61114e8282612feb565b600b54610100900460ff161561162b5760405162461bcd60e51b815260206004820152601260248201527110dbdb9d1c9858dd081a5cc81c185d5cd95960721b604482015260640161105f565b3360009081526003602052604090205461167d5760405162461bcd60e51b8152602060048201526013602482015272139bc81bdd5d1cdd185b991a5b99c81919589d606a1b604482015260640161105f565b336000908152600360205260409020543410156116d05760405162461bcd60e51b815260206004820152601160248201527052657061796d656e7420746f6f206c6f7760781b604482015260640161105f565b600034116117205760405162461bcd60e51b815260206004820152601860248201527f4d7573742073656e642066756e647320746f2072657061790000000000000000604482015260640161105f565b33600090815260036020526040812054341161173c573461174d565b336000908152600360205260409020545b33600090815260036020526040812080549293508392909190611771908490613407565b9250508190555080600a600082825461178a9190613213565b9091555050336000908152600460209081526040808320839055600590915290205460ff16156117d757336000908152600560209081526040808320805460ff1916905560069091528120555b60405181815233907f0516911bcc3a0a7412a44601057c0a0a1ec628bde049a84284bc4288665344889060200160405180910390a250565b611817612f14565b606481111561185b5760405162461bcd60e51b815260206004820152601060248201526f0a0cadcc2d8e8f240e8dede40d0d2ced60831b604482015260640161105f565b600f55565b600080601054116118715750608290565b6010545b905090565b611882612f14565b6001600160a01b0382166000908152600160205260408120805460ff1916831515179055805b6009548110156118fa57836001600160a01b0316600982815481106118cf576118cf61341a565b6000918252602090912001546001600160a01b0316036118f257600191506118fa565b6001016118a8565b50818015611906575080155b1561195757600980546001810182556000919091527f6e1540171b6c0c960b71a7020d9f60077f6af931a8bbf590da0223dacf75c7af0180546001600160a01b0319166001600160a01b0385161790555b826001600160a01b03167f15f5cc64ca777db85f6c05fdba671568758b38329616d4d4b43bb8b092fe9a8d83604051611994911515815260200190565b60405180910390a2505050565b6119a9612f14565b60648111156119eb5760405162461bcd60e51b815260206004820152600e60248201526d084dedceae640e8dede40d0d2ced60931b604482015260640161105f565b600e55565b6119f8612f14565b6064811115611a425760405162461bcd60e51b8152602060048201526016602482015275092dce8cae4cae6e840e4c2e8ca40e8dede40d0d2ced60531b604482015260640161105f565b601655565b611a4f612f14565b600c55565b60008080611a60612844565b905060005b8151811015611af9576000828281518110611a8257611a8261341a565b6020908102919091018101516001600160a01b0380821660009081528084526040808220928b16825291909352909120549091508015611aef57670de0b6b3a7640000611ace83612d73565b611ad890836133ce565b611ae291906133e5565b611aec9086613213565b94505b5050600101611a65565b50909392505050565b611b0a612f14565b6064811015611b4f5760405162461bcd60e51b81526020600482015260116024820152705468726573686f6c6420746f6f206c6f7760781b604482015260640161105f565b601055565b6000611875611e0a565b611b66612f14565b6001600160a01b038116611bae5760405162461bcd60e51b815260206004820152600f60248201526e496e76616c6964206164647265737360881b604482015260640161105f565b611bb781613067565b611bc2600082612f46565b50611bce600033612feb565b5050565b611bda612f14565b611be46000613067565b565b611bee612f14565b6001600160a01b03821660009081526001602052604090205460ff16611c565760405162461bcd60e51b815260206004820152601f60248201527f546f6b656e206e6f7420616c6c6f77656420617320636f6c6c61746572616c00604482015260640161105f565b6001600160a01b03918216600090815260086020526040902080546001600160a01b03191691909216179055565b6001600160a01b03811660009081526007602052604081205480611ca9576082611cab565b805b9392505050565b611cba612f14565b600b5460ff1615611cfd5760405162461bcd60e51b815260206004820152600d60248201526c4e6f207265656e7472616e637960981b604482015260640161105f565b600b805460ff1916600117905547811115611d5a5760405162461bcd60e51b815260206004820152601d60248201527f496e73756666696369656e7420636f6e74726163742062616c616e6365000000604482015260640161105f565b80600a6000828254611d6c9190613407565b90915550611d7a9050611e0a565b6001600160a01b03166108fc829081150290604051600060405180830381858888f19350505050158015611db2573d6000803e3d6000fd5b50611dbb611e0a565b6001600160a01b03167f69c169e5c85af54e1ca7e16608ccc812437821387924fb3353a7d053264ddaa082604051611df591815260200190565b60405180910390a250600b805460ff19169055565b7f9016d09d72d40fdae2fd8ceac6b6234c7706214fd39c1cd1e609a0528c199300546001600160a01b031690565b6000806000611e4684611a54565b6001600160a01b038516600090815260036020526040812054919250819003611e785750600194600019945092505050565b80611e848360646133ce565b611e8e91906133e5565b9250611e98611860565b83101593505050915091565b611eac612f14565b601255565b60009182526000805160206135fe833981519152602090815260408084206001600160a01b0393909316845291905290205460ff1690565b611ef1612f14565b816001600160a01b038116611f485760405162461bcd60e51b815260206004820152601d60248201527f496e76616c696420616464726573733a207a65726f2061646472657373000000604482015260640161105f565b306001600160a01b03821603611f985760405162461bcd60e51b815260206004820152601560248201527424b73b30b634b21030b2323932b9b99d1039b2b63360591b604482015260640161105f565b6064821115611fde5760405162461bcd60e51b815260206004820152601260248201527153636f7265206f7574206f662072616e676560701b604482015260640161105f565b6001600160a01b03831660008181526002602052604090819020849055517f4afae6838a181695abc7978598380d73bc2144eb38580c130f86e4b1e6531e15906119949085815260200190565b6001600160a01b03821660009081526001602052604090205460ff166120875760405162461bcd60e51b8152602060048201526011602482015270151bdad95b881b9bdd08185b1b1bddd959607a1b604482015260640161105f565b600081116120cc5760405162461bcd60e51b81526020600482015260126024820152710416d6f756e74206d757374206265203e20360741b604482015260640161105f565b3360009081526005602052604090205460ff16156121285760405162461bcd60e51b815260206004820152601960248201527820b1b1b7bab73a1034b99034b7103634b8bab4b230ba34b7b760391b604482015260640161105f565b6040516323b872dd60e01b8152336004820152306024820152604481018290526001600160a01b038316906323b872dd906064016020604051808303816000875af115801561217b573d6000803e3d6000fd5b505050506040513d601f19601f8201168201806040525081019061219f91906133b1565b506001600160a01b038216600090815260208181526040808320338452909152812080548392906121d1908490613213565b90915550506040518181526001600160a01b0383169033907ff1c0dd7e9b98bbff859029005ef89b127af049cd18df1a8d79f0b7e019911e569060200160405180910390a35050565b612222612f14565b60648110156122635760405162461bcd60e51b815260206004820152600d60248201526c526174696f20746f6f206c6f7760981b604482015260640161105f565b601355565b6009818154811061227857600080fd5b6000918252602090912001546001600160a01b0316905081565b61229a612f14565b601555565b6122a7612f14565b600b805460ff610100808304821615810261ff001990931692909217928390556040517f228f455d7bc3d0b24a3a08d7847f391c3e78fc8aeb83acf226b7a96ee162b8ac936122ff9390049091161515815260200190565b60405180910390a1565b60006123136130d8565b805490915060ff600160401b820416159067ffffffffffffffff1660008115801561233b5750825b905060008267ffffffffffffffff1660011480156123585750303b155b905081158015612366575080155b156123845760405163f92ee8a960e01b815260040160405180910390fd5b845467ffffffffffffffff1916600117855583156123ae57845460ff60401b1916600160401b1785555b6123b786613101565b6123bf613112565b6123ca60008061311a565b6123d5600087612f46565b50600019600c819055600d8190556014600e819055600a600f556096601081905562093a806011556012929092556013919091556202a30090556203f4806015556005601655831561246157845460ff60401b19168555604051600181527fc7f505b2f371ae2175ee4913f4499e1f2633a7b5936321eed1cdaeb6115181d29060200160405180910390a15b505050505050565b600b54610100900460ff16156124b65760405162461bcd60e51b815260206004820152601260248201527110dbdb9d1c9858dd081a5cc81c185d5cd95960721b604482015260640161105f565b600b5460ff16156124f95760405162461bcd60e51b815260206004820152600d60248201526c4e6f207265656e7472616e637960981b604482015260640161105f565b600b805460ff19166001179055806125535760405162461bcd60e51b815260206004820152601d60248201527f416d6f756e74206d7573742062652067726561746572207468616e2030000000604482015260640161105f565b33600090815260026020526040902054603c11156125aa5760405162461bcd60e51b81526020600482015260146024820152734372656469742073636f726520746f6f206c6f7760601b604482015260640161105f565b6002600a546125b991906133e5565b8111156126085760405162461bcd60e51b815260206004820152601e60248201527f496e73756666696369656e742066756e647320696e2074686520706f6f6c0000604482015260640161105f565b600c5481111561265a5760405162461bcd60e51b815260206004820152601960248201527f45786365656473206d617820626f72726f7720616d6f756e7400000000000000604482015260640161105f565b33600090815260036020526040902054156126b75760405162461bcd60e51b815260206004820152601e60248201527f526570617920796f7572206578697374696e6720646562742066697273740000604482015260640161105f565b60006126c233611a54565b9050600d548111156127165760405162461bcd60e51b815260206004820152601d60248201527f45786365656473206d617820636f6c6c61746572616c20616d6f756e74000000604482015260640161105f565b6127216082836133ce565b61272c8260646133ce565b10156127885760405162461bcd60e51b815260206004820152602560248201527f496e73756666696369656e7420636f6c6c61746572616c20666f722074686973604482015264103637b0b760d91b606482015260840161105f565b33600090815260036020526040812080548492906127a7908490613213565b9250508190555081600a60008282546127c09190613407565b9091555050336000818152600460205260408082204290555184156108fc0291859190818181858888f19350505050158015612800573d6000803e3d6000fd5b5060405182815233907fac59582e5396aca512fa873a2047e7f4c80f8f55d4a06cb34a78a0187f62719f9060200160405180910390a25050600b805460ff19169055565b60606000805b6009548110156128ae57600160006009838154811061286b5761286b61341a565b60009182526020808320909101546001600160a01b0316835282019290925260400190205460ff16156128a657816128a281613430565b9250505b60010161284a565b5060008167ffffffffffffffff8111156128ca576128ca613449565b6040519080825280602002602001820160405280156128f3578160200160208202803683370190505b5090506000805b600954811015611af9576000600982815481106129195761291961341a565b60009182526020808320909101546001600160a01b0316808352600190915260409091205490915060ff1615612982578084848151811061295c5761295c61341a565b6001600160a01b03909216602092830291909101909101528261297e81613430565b9350505b506001016128fa565b612993612f14565b601155565b6129a182611286565b6129aa81612f0a565b6112c48383612feb565b6129bc612f14565b600d55565b60006129cc82611e38565b5090508015612a135760405162461bcd60e51b8152602060048201526013602482015272506f736974696f6e206973206865616c74687960681b604482015260640161105f565b6001600160a01b03821660009081526005602052604090205460ff1615612a7c5760405162461bcd60e51b815260206004820152601b60248201527f4c69717569646174696f6e20616c726561647920737461727465640000000000604482015260640161105f565b6001600160a01b0382166000818152600560209081526040808320805460ff191660011790556006909152808220429055517f7f62ed89ea2c6fb057e4ea77729c1d3f18056339791fce29ac89760197b45b299190a25050565b6001600160a01b03811660009081526005602052604090205460ff16612b495760405162461bcd60e51b815260206004820152602260248201527f4163636f756e74206e6f74206d61726b656420666f72206c697175696461746960448201526137b760f11b606482015260840161105f565b6001600160a01b038116600090815260066020526040902054612b70906203f48090613213565b421015612bb85760405162461bcd60e51b815260206004820152601660248201527511dc9858d9481c195c9a5bd9081b9bdd08195b99195960521b604482015260640161105f565b6001600160a01b038116600090815260036020526040812054906064612bdf6005846133ce565b612be991906133e5565b90506000612bf78284613213565b90506000612c03612844565b905060005b8151811015612cf6576000828281518110612c2557612c2561341a565b6020908102919091018101516001600160a01b0380821660009081528084526040808220928c16825291909352909120549091508015612cec576001600160a01b03828116600081815260208181526040808320948d16835293905282812055905163a9059cbb60e01b81523360048201526024810183905263a9059cbb906044016020604051808303816000875af1158015612cc6573d6000803e3d6000fd5b505050506040513d601f19601f82011682018060405250810190612cea91906133b1565b505b5050600101612c08565b506001600160a01b03851660008181526003602090815260408083208390556004825280832083905560058252808320805460ff19169055600682528083209290925590518481523392917f1175522017e08c2f400d7e516608eff60816ee9e8319158d174321234b602631910160405180910390a35050505050565b6001600160a01b0380821660009081526008602052604081205490911680612dd25760405162461bcd60e51b8152602060048201526012602482015271141c9a58d94819995959081b9bdd081cd95d60721b604482015260640161105f565b60008190506000816001600160a01b031663feaf968c6040518163ffffffff1660e01b815260040160a060405180830381865afa158015612e17573d6000803e3d6000fd5b505050506040513d601f19601f82011682018060405250810190612e3b9190613479565b505050915050816001600160a01b031663313ce5676040518163ffffffff1660e01b8152600401602060405180830381865afa158015612e7f573d6000803e3d6000fd5b505050506040513d601f19601f82011682018060405250810190612ea391906134cb565b612eae9060126134ee565b612eb990600a6135ee565b612ec390826133ce565b95945050505050565b612ed4612f14565b6001600160a01b038116612efe57604051631e4fbdf760e01b81526000600482015260240161105f565b612f0781613067565b50565b612f07813361317d565b33612f1d611e0a565b6001600160a01b031614611be45760405163118cdaa760e01b815233600482015260240161105f565b60006000805160206135fe833981519152612f618484611eb1565b612fe1576000848152602082815260408083206001600160a01b03871684529091529020805460ff19166001179055612f973390565b6001600160a01b0316836001600160a01b0316857f2f8788117e7eff1d82e926ec794901d17c78024a50270940304540a733656f0d60405160405180910390a46001915050610ffe565b6000915050610ffe565b60006000805160206135fe8339815191526130068484611eb1565b15612fe1576000848152602082815260408083206001600160a01b0387168085529252808320805460ff1916905551339287917ff6391f5c32d9c69d2a47ea670b442974b53935d1edc7fd64eb21e047a839171b9190a46001915050610ffe565b7f9016d09d72d40fdae2fd8ceac6b6234c7706214fd39c1cd1e609a0528c19930080546001600160a01b031981166001600160a01b03848116918217845560405192169182907f8be0079c531659141344cd1fd0a4f28419497f9722a3daafe3b4186f6b6457e090600090a3505050565b6000807ff0c57e16840df040f15088dc2f81fe391c3923bec73e23a9662efc9c229c6a00610ffe565b6131096131b6565b612f07816131db565b611be46131b6565b6000805160206135fe833981519152600061313484611286565b600085815260208490526040808220600101869055519192508491839187917fbd79b86ffe0ab8e8776151514217cd7cacd52c909f66475c3af44e129f0b00ff9190a450505050565b6131878282611eb1565b611bce5760405163e2517d3f60e01b81526001600160a01b03821660048201526024810183905260440161105f565b6131be6131e3565b611be457604051631afcd79f60e31b815260040160405180910390fd5b612ed46131b6565b60006131ed6130d8565b54600160401b900460ff16919050565b634e487b7160e01b600052601160045260246000fd5b80820180821115610ffe57610ffe6131fd565b80356001600160a01b038116811461323d57600080fd5b919050565b60006020828403121561325457600080fd5b611cab82613226565b60006020828403121561326f57600080fd5b81356001600160e01b031981168114611cab57600080fd5b6000806040838503121561329a57600080fd5b6132a383613226565b946020939093013593505050565b6000602082840312156132c357600080fd5b5035919050565b600080604083850312156132dd57600080fd5b823591506132ed60208401613226565b90509250929050565b6000806040838503121561330957600080fd5b61331283613226565b91506132ed60208401613226565b8015158114612f0757600080fd5b6000806040838503121561334157600080fd5b61334a83613226565b9150602083013561335a81613320565b809150509250929050565b602080825282518282018190526000918401906040840190835b818110156133a65783516001600160a01b031683526020938401939092019160010161337f565b509095945050505050565b6000602082840312156133c357600080fd5b8151611cab81613320565b8082028115828204841417610ffe57610ffe6131fd565b60008261340257634e487b7160e01b600052601260045260246000fd5b500490565b81810381811115610ffe57610ffe6131fd565b634e487b7160e01b600052603260045260246000fd5b600060018201613442576134426131fd565b5060010190565b634e487b7160e01b600052604160045260246000fd5b805169ffffffffffffffffffff8116811461323d57600080fd5b600080600080600060a0868803121561349157600080fd5b61349a8661345f565b602087015160408801516060890151929750909550935091506134bf6080870161345f565b90509295509295909350565b6000602082840312156134dd57600080fd5b815160ff81168114611cab57600080fd5b60ff8281168282160390811115610ffe57610ffe6131fd565b6001815b600184111561354257808504811115613526576135266131fd565b600184161561353457908102905b60019390931c92800261350b565b935093915050565b60008261355957506001610ffe565b8161356657506000610ffe565b816001811461357c5760028114613586576135a2565b6001915050610ffe565b60ff841115613597576135976131fd565b50506001821b610ffe565b5060208310610133831016604e8410600b84101617156135c5575081810a610ffe565b6135d26000198484613507565b80600019048211156135e6576135e66131fd565b029392505050565b6000611cab60ff84168361354a56fe02dd7bc7dec4dceedda775e58dd541e08a116c6c53815c0bd028192f7b626800a264697066735822122034655e093bb0b61d86ce91371dec3e760821cbdc56719f522e5cc1bd15257d5864736f6c634300081c0033",
  "linkReferences": {},
  "deployedLinkReferences": {}
}