{
  "_format": "hh-sol-artifact-1",
  "contractName": "LiquidityPoolV3",
  "sourceName": "contracts/LiquidityPoolV3.sol",
  "abi": [
    {
      "inputs": [],
      "name": "InvalidInitialization",
      "type": "error"
    },
    {
      "inputs": [],
      "name": "NotInitializing",
      "type": "error"
    },
    {
      "inputs": [
        {
          "internalType": "address",
          "name": "owner",
          "type": "address"
        }
      ],
      "name": "OwnableInvalidOwner",
      "type": "error"
    },
    {
      "inputs": [
        {
          "internalType": "address",
          "name": "account",
          "type": "address"
        }
      ],
      "name": "OwnableUnauthorizedAccount",
      "type": "error"
    },
    {
      "anonymous": false,
      "inputs": [
        {
          "indexed": true,
          "internalType": "address",
          "name": "user",
          "type": "address"
        },
        {
          "indexed": false,
          "internalType": "uint256",
          "name": "amount",
          "type": "uint256"
        }
      ],
      "name": "Borrowed",
      "type": "event"
    },
    {
      "anonymous": false,
      "inputs": [
        {
          "indexed": true,
          "internalType": "address",
          "name": "user",
          "type": "address"
        },
        {
          "indexed": true,
          "internalType": "address",
          "name": "token",
          "type": "address"
        },
        {
          "indexed": false,
          "internalType": "uint256",
          "name": "amount",
          "type": "uint256"
        }
      ],
      "name": "CollateralDeposited",
      "type": "event"
    },
    {
      "anonymous": false,
      "inputs": [
        {
          "indexed": true,
          "internalType": "address",
          "name": "token",
          "type": "address"
        },
        {
          "indexed": false,
          "internalType": "bool",
          "name": "isAllowed",
          "type": "bool"
        }
      ],
      "name": "CollateralTokenStatusChanged",
      "type": "event"
    },
    {
      "anonymous": false,
      "inputs": [
        {
          "indexed": true,
          "internalType": "address",
          "name": "user",
          "type": "address"
        },
        {
          "indexed": true,
          "internalType": "address",
          "name": "token",
          "type": "address"
        },
        {
          "indexed": false,
          "internalType": "uint256",
          "name": "amount",
          "type": "uint256"
        }
      ],
      "name": "CollateralWithdrawn",
      "type": "event"
    },
    {
      "anonymous": false,
      "inputs": [
        {
          "indexed": true,
          "internalType": "address",
          "name": "user",
          "type": "address"
        },
        {
          "indexed": false,
          "internalType": "uint256",
          "name": "score",
          "type": "uint256"
        }
      ],
      "name": "CreditScoreAssigned",
      "type": "event"
    },
    {
      "anonymous": false,
      "inputs": [
        {
          "indexed": false,
          "internalType": "bool",
          "name": "isPaused",
          "type": "bool"
        }
      ],
      "name": "EmergencyPaused",
      "type": "event"
    },
    {
      "anonymous": false,
      "inputs": [
        {
          "indexed": true,
          "internalType": "address",
          "name": "owner",
          "type": "address"
        },
        {
          "indexed": false,
          "internalType": "uint256",
          "name": "amount",
          "type": "uint256"
        }
      ],
      "name": "Extracted",
      "type": "event"
    },
    {
      "anonymous": false,
      "inputs": [
        {
          "indexed": true,
          "internalType": "address",
          "name": "user",
          "type": "address"
        },
        {
          "indexed": false,
          "internalType": "uint256",
          "name": "newDeadline",
          "type": "uint256"
        }
      ],
      "name": "GracePeriodExtended",
      "type": "event"
    },
    {
      "anonymous": false,
      "inputs": [
        {
          "indexed": false,
          "internalType": "uint64",
          "name": "version",
          "type": "uint64"
        }
      ],
      "name": "Initialized",
      "type": "event"
    },
    {
      "anonymous": false,
      "inputs": [
        {
          "indexed": true,
          "internalType": "address",
          "name": "user",
          "type": "address"
        },
        {
          "indexed": true,
          "internalType": "address",
          "name": "liquidator",
          "type": "address"
        },
        {
          "indexed": false,
          "internalType": "uint256",
          "name": "amount",
          "type": "uint256"
        }
      ],
      "name": "LiquidationExecuted",
      "type": "event"
    },
    {
      "anonymous": false,
      "inputs": [
        {
          "indexed": true,
          "internalType": "address",
          "name": "user",
          "type": "address"
        }
      ],
      "name": "LiquidationStarted",
      "type": "event"
    },
    {
      "anonymous": false,
      "inputs": [
        {
          "indexed": true,
          "internalType": "address",
          "name": "previousOwner",
          "type": "address"
        },
        {
          "indexed": true,
          "internalType": "address",
          "name": "newOwner",
          "type": "address"
        }
      ],
      "name": "OwnershipTransferred",
      "type": "event"
    },
    {
      "anonymous": false,
      "inputs": [
        {
          "indexed": true,
          "internalType": "address",
          "name": "user",
          "type": "address"
        },
        {
          "indexed": false,
          "internalType": "uint256",
          "name": "amount",
          "type": "uint256"
        }
      ],
      "name": "Repaid",
      "type": "event"
    },
    {
      "inputs": [],
      "name": "DEFAULT_LIQUIDATION_THRESHOLD",
      "outputs": [
        {
          "internalType": "uint256",
          "name": "",
          "type": "uint256"
        }
      ],
      "stateMutability": "view",
      "type": "function"
    },
    {
      "inputs": [],
      "name": "GRACE_PERIOD",
      "outputs": [
        {
          "internalType": "uint256",
          "name": "",
          "type": "uint256"
        }
      ],
      "stateMutability": "view",
      "type": "function"
    },
    {
      "inputs": [],
      "name": "LIQUIDATION_PENALTY",
      "outputs": [
        {
          "internalType": "uint256",
          "name": "",
          "type": "uint256"
        }
      ],
      "stateMutability": "view",
      "type": "function"
    },
    {
      "inputs": [
        {
          "internalType": "uint256",
          "name": "amount",
          "type": "uint256"
        }
      ],
      "name": "borrow",
      "outputs": [],
      "stateMutability": "nonpayable",
      "type": "function"
    },
    {
      "inputs": [
        {
          "internalType": "address",
          "name": "",
          "type": "address"
        }
      ],
      "name": "borrowTimestamp",
      "outputs": [
        {
          "internalType": "uint256",
          "name": "",
          "type": "uint256"
        }
      ],
      "stateMutability": "view",
      "type": "function"
    },
    {
      "inputs": [
        {
          "internalType": "address",
          "name": "user",
          "type": "address"
        }
      ],
      "name": "checkCollateralization",
      "outputs": [
        {
          "internalType": "bool",
          "name": "isHealthy",
          "type": "bool"
        },
        {
          "internalType": "uint256",
          "name": "ratio",
          "type": "uint256"
        }
      ],
      "stateMutability": "view",
      "type": "function"
    },
    {
      "inputs": [
        {
          "internalType": "address",
          "name": "",
          "type": "address"
        },
        {
          "internalType": "address",
          "name": "",
          "type": "address"
        }
      ],
      "name": "collateralBalance",
      "outputs": [
        {
          "internalType": "uint256",
          "name": "",
          "type": "uint256"
        }
      ],
      "stateMutability": "view",
      "type": "function"
    },
    {
      "inputs": [
        {
          "internalType": "uint256",
          "name": "",
          "type": "uint256"
        }
      ],
      "name": "collateralTokenList",
      "outputs": [
        {
          "internalType": "address",
          "name": "",
          "type": "address"
        }
      ],
      "stateMutability": "view",
      "type": "function"
    },
    {
      "inputs": [
        {
          "internalType": "address",
          "name": "",
          "type": "address"
        }
      ],
      "name": "creditScore",
      "outputs": [
        {
          "internalType": "uint256",
          "name": "",
          "type": "uint256"
        }
      ],
      "stateMutability": "view",
      "type": "function"
    },
    {
      "inputs": [
        {
          "internalType": "address",
          "name": "token",
          "type": "address"
        },
        {
          "internalType": "uint256",
          "name": "amount",
          "type": "uint256"
        }
      ],
      "name": "depositCollateral",
      "outputs": [],
      "stateMutability": "nonpayable",
      "type": "function"
    },
    {
      "inputs": [
        {
          "internalType": "address",
          "name": "user",
          "type": "address"
        }
      ],
      "name": "executeLiquidation",
      "outputs": [],
      "stateMutability": "nonpayable",
      "type": "function"
    },
    {
      "inputs": [
        {
          "internalType": "uint256",
          "name": "amount",
          "type": "uint256"
        }
      ],
      "name": "extract",
      "outputs": [],
      "stateMutability": "nonpayable",
      "type": "function"
    },
    {
      "inputs": [],
      "name": "getAllowedCollateralTokens",
      "outputs": [
        {
          "internalType": "address[]",
          "name": "",
          "type": "address[]"
        }
      ],
      "stateMutability": "view",
      "type": "function"
    },
    {
      "inputs": [],
      "name": "getBalance",
      "outputs": [
        {
          "internalType": "uint256",
          "name": "",
          "type": "uint256"
        }
      ],
      "stateMutability": "view",
      "type": "function"
    },
    {
      "inputs": [
        {
          "internalType": "address",
          "name": "user",
          "type": "address"
        },
        {
          "internalType": "address",
          "name": "token",
          "type": "address"
        }
      ],
      "name": "getCollateral",
      "outputs": [
        {
          "internalType": "uint256",
          "name": "",
          "type": "uint256"
        }
      ],
      "stateMutability": "view",
      "type": "function"
    },
    {
      "inputs": [
        {
          "internalType": "address",
          "name": "token",
          "type": "address"
        }
      ],
      "name": "getLiquidationThreshold",
      "outputs": [
        {
          "internalType": "uint256",
          "name": "",
          "type": "uint256"
        }
      ],
      "stateMutability": "view",
      "type": "function"
    },
    {
      "inputs": [],
      "name": "getMinCollateralRatio",
      "outputs": [
        {
          "internalType": "uint256",
          "name": "",
          "type": "uint256"
        }
      ],
      "stateMutability": "pure",
      "type": "function"
    },
    {
      "inputs": [],
      "name": "getMyDebt",
      "outputs": [
        {
          "internalType": "uint256",
          "name": "",
          "type": "uint256"
        }
      ],
      "stateMutability": "view",
      "type": "function"
    },
    {
      "inputs": [
        {
          "internalType": "address",
          "name": "token",
          "type": "address"
        }
      ],
      "name": "getTokenValue",
      "outputs": [
        {
          "internalType": "uint256",
          "name": "",
          "type": "uint256"
        }
      ],
      "stateMutability": "view",
      "type": "function"
    },
    {
      "inputs": [
        {
          "internalType": "address",
          "name": "user",
          "type": "address"
        }
      ],
      "name": "getTotalCollateralValue",
      "outputs": [
        {
          "internalType": "uint256",
          "name": "",
          "type": "uint256"
        }
      ],
      "stateMutability": "view",
      "type": "function"
    },
    {
      "inputs": [
        {
          "internalType": "address",
          "name": "initialOwner",
          "type": "address"
        }
      ],
      "name": "initialize",
      "outputs": [],
      "stateMutability": "nonpayable",
      "type": "function"
    },
    {
      "inputs": [
        {
          "internalType": "address",
          "name": "",
          "type": "address"
        }
      ],
      "name": "isAllowedCollateral",
      "outputs": [
        {
          "internalType": "bool",
          "name": "",
          "type": "bool"
        }
      ],
      "stateMutability": "view",
      "type": "function"
    },
    {
      "inputs": [
        {
          "internalType": "address",
          "name": "",
          "type": "address"
        }
      ],
      "name": "isLiquidatable",
      "outputs": [
        {
          "internalType": "bool",
          "name": "",
          "type": "bool"
        }
      ],
      "stateMutability": "view",
      "type": "function"
    },
    {
      "inputs": [],
      "name": "isPaused",
      "outputs": [
        {
          "internalType": "bool",
          "name": "",
          "type": "bool"
        }
      ],
      "stateMutability": "view",
      "type": "function"
    },
    {
      "inputs": [
        {
          "internalType": "address",
          "name": "",
          "type": "address"
        }
      ],
      "name": "liquidationStartTime",
      "outputs": [
        {
          "internalType": "uint256",
          "name": "",
          "type": "uint256"
        }
      ],
      "stateMutability": "view",
      "type": "function"
    },
    {
      "inputs": [
        {
          "internalType": "address",
          "name": "",
          "type": "address"
        }
      ],
      "name": "liquidationThreshold",
      "outputs": [
        {
          "internalType": "uint256",
          "name": "",
          "type": "uint256"
        }
      ],
      "stateMutability": "view",
      "type": "function"
    },
    {
      "inputs": [],
      "name": "locked",
      "outputs": [
        {
          "internalType": "bool",
          "name": "",
          "type": "bool"
        }
      ],
      "stateMutability": "view",
      "type": "function"
    },
    {
      "inputs": [],
      "name": "owner",
      "outputs": [
        {
          "internalType": "address",
          "name": "",
          "type": "address"
        }
      ],
      "stateMutability": "view",
      "type": "function"
    },
    {
      "inputs": [],
      "name": "paused",
      "outputs": [
        {
          "internalType": "bool",
          "name": "",
          "type": "bool"
        }
      ],
      "stateMutability": "view",
      "type": "function"
    },
    {
      "inputs": [
        {
          "internalType": "address",
          "name": "",
          "type": "address"
        }
      ],
      "name": "priceFeed",
      "outputs": [
        {
          "internalType": "address",
          "name": "",
          "type": "address"
        }
      ],
      "stateMutability": "view",
      "type": "function"
    },
    {
      "inputs": [
        {
          "internalType": "address",
          "name": "token",
          "type": "address"
        },
        {
          "internalType": "uint256",
          "name": "amount",
          "type": "uint256"
        }
      ],
      "name": "recoverFromLiquidation",
      "outputs": [],
      "stateMutability": "nonpayable",
      "type": "function"
    },
    {
      "inputs": [],
      "name": "renounceOwnership",
      "outputs": [],
      "stateMutability": "nonpayable",
      "type": "function"
    },
    {
      "inputs": [],
      "name": "repay",
      "outputs": [],
      "stateMutability": "payable",
      "type": "function"
    },
    {
      "inputs": [
        {
          "internalType": "address",
          "name": "token",
          "type": "address"
        },
        {
          "internalType": "bool",
          "name": "allowed",
          "type": "bool"
        }
      ],
      "name": "setAllowedCollateral",
      "outputs": [],
      "stateMutability": "nonpayable",
      "type": "function"
    },
    {
      "inputs": [
        {
          "internalType": "address",
          "name": "user",
          "type": "address"
        },
        {
          "internalType": "uint256",
          "name": "score",
          "type": "uint256"
        }
      ],
      "name": "setCreditScore",
      "outputs": [],
      "stateMutability": "nonpayable",
      "type": "function"
    },
    {
      "inputs": [
        {
          "internalType": "address",
          "name": "token",
          "type": "address"
        },
        {
          "internalType": "uint256",
          "name": "threshold",
          "type": "uint256"
        }
      ],
      "name": "setLiquidationThreshold",
      "outputs": [],
      "stateMutability": "nonpayable",
      "type": "function"
    },
    {
      "inputs": [
        {
          "internalType": "address",
          "name": "token",
          "type": "address"
        },
        {
          "internalType": "address",
          "name": "feed",
          "type": "address"
        }
      ],
      "name": "setPriceFeed",
      "outputs": [],
      "stateMutability": "nonpayable",
      "type": "function"
    },
    {
      "inputs": [
        {
          "internalType": "address",
          "name": "user",
          "type": "address"
        }
      ],
      "name": "startLiquidation",
      "outputs": [],
      "stateMutability": "nonpayable",
      "type": "function"
    },
    {
      "inputs": [],
      "name": "togglePause",
      "outputs": [],
      "stateMutability": "nonpayable",
      "type": "function"
    },
    {
      "inputs": [],
      "name": "totalFunds",
      "outputs": [
        {
          "internalType": "uint256",
          "name": "",
          "type": "uint256"
        }
      ],
      "stateMutability": "view",
      "type": "function"
    },
    {
      "inputs": [
        {
          "internalType": "address",
          "name": "newOwner",
          "type": "address"
        }
      ],
      "name": "transferOwnership",
      "outputs": [],
      "stateMutability": "nonpayable",
      "type": "function"
    },
    {
      "inputs": [
        {
          "internalType": "address",
          "name": "",
          "type": "address"
        }
      ],
      "name": "userDebt",
      "outputs": [
        {
          "internalType": "uint256",
          "name": "",
          "type": "uint256"
        }
      ],
      "stateMutability": "view",
      "type": "function"
    },
    {
      "inputs": [
        {
          "internalType": "address",
          "name": "token",
          "type": "address"
        },
        {
          "internalType": "uint256",
          "name": "amount",
          "type": "uint256"
        }
      ],
      "name": "withdrawCollateral",
      "outputs": [],
      "stateMutability": "nonpayable",
      "type": "function"
    },
    {
      "stateMutability": "payable",
      "type": "receive"
    }
  ],
  "bytecode": "0x6080604052348015600f57600080fd5b506127dd8061001f6000396000f3fe6080604052600436106102605760003560e01c806397ed81cf11610144578063c4d66de8116100b6578063e1c501001161007a578063e1c501001461075d578063e2e296791461077d578063e7602b9d1461079d578063f1c5d6c2146107d2578063f2fde38b146107f2578063f7e590ee1461081257600080fd5b8063c4d66de8146106b4578063c5ebeaec146106d4578063cf176225146106f4578063cf30901214610716578063d29255f91461073057600080fd5b8063b3a5a0a211610108578063b3a5a0a2146105f9578063b69e5c7714610619578063c129d50414610646578063c1a287e21461065b578063c23c69d514610672578063c4ae31681461069f57600080fd5b806397ed81cf1461055a5780639b8621d51461057a578063a5d5db0c1461058f578063b1732b25146105af578063b187bd26146105dc57600080fd5b806355f4d9e2116101dd57806376e11286116101a157806376e11286146104985780637b86e42c146104b857806385b39782146104d85780638da5cb5b146104f85780638e6b53bc1461050d578063968ed6001461054457600080fd5b806355f4d9e2146103f45780635c975abb146104145780636c648fc414610433578063715018a6146104535780637346f4861461046857600080fd5b8063350c35e911610224578063350c35e914610376578063402d888314610396578063450a375a1461039e5780634c8f35ab146103c057806352226ef0146103d457600080fd5b8063042e02cf14610284578063080d9c2b146102c95780630e30428d146102eb57806312065fe01461030b5780631fd48b9a1461032857600080fd5b3661027f5734600a6000828254610277919061240a565b925050819055005b600080fd5b34801561029057600080fd5b506102b461029f366004612439565b60056020526000908152604090205460ff1681565b60405190151581526020015b60405180910390f35b3480156102d557600080fd5b506102e96102e4366004612454565b61083f565b005b3480156102f757600080fd5b506102e9610306366004612454565b61098e565b34801561031757600080fd5b50475b6040519081526020016102c0565b34801561033457600080fd5b5061035e610343366004612439565b6008602052600090815260409020546001600160a01b031681565b6040516001600160a01b0390911681526020016102c0565b34801561038257600080fd5b506102e9610391366004612454565b610a6a565b6102e9610d4b565b3480156103aa57600080fd5b503360009081526003602052604090205461031a565b3480156103cc57600080fd5b50608261031a565b3480156103e057600080fd5b5061031a6103ef36600461247e565b610f7c565b34801561040057600080fd5b506102e961040f3660046124bf565b610fa7565b34801561042057600080fd5b50600b546102b490610100900460ff1681565b34801561043f57600080fd5b5061031a61044e366004612439565b6110ce565b34801561045f57600080fd5b506102e961117c565b34801561047457600080fd5b506102b4610483366004612439565b60016020526000908152604090205460ff1681565b3480156104a457600080fd5b506102e96104b336600461247e565b611190565b3480156104c457600080fd5b5061031a6104d3366004612439565b61122e565b3480156104e457600080fd5b506102e96104f33660046124f6565b61125c565b34801561050457600080fd5b5061035e6113b4565b34801561051957600080fd5b5061052d610528366004612439565b6113e2565b6040805192151583526020830191909152016102c0565b34801561055057600080fd5b5061031a600a5481565b34801561056657600080fd5b506102e9610575366004612454565b611448565b34801561058657600080fd5b5061031a600581565b34801561059b57600080fd5b506102e96105aa366004612454565b61158a565b3480156105bb57600080fd5b5061031a6105ca366004612439565b60076020526000908152604090205481565b3480156105e857600080fd5b50600b54610100900460ff166102b4565b34801561060557600080fd5b5061035e6106143660046124f6565b611779565b34801561062557600080fd5b5061031a610634366004612439565b60036020526000908152604090205481565b34801561065257600080fd5b5061031a608281565b34801561066757600080fd5b5061031a6203f48081565b34801561067e57600080fd5b5061031a61068d366004612439565b60066020526000908152604090205481565b3480156106ab57600080fd5b506102e96117a3565b3480156106c057600080fd5b506102e96106cf366004612439565b61180d565b3480156106e057600080fd5b506102e96106ef3660046124f6565b611909565b34801561070057600080fd5b50610709611c40565b6040516102c0919061250f565b34801561072257600080fd5b50600b546102b49060ff1681565b34801561073c57600080fd5b5061031a61074b366004612439565b60046020526000908152604090205481565b34801561076957600080fd5b506102e9610778366004612439565b611d87565b34801561078957600080fd5b506102e9610798366004612439565b611e9c565b3480156107a957600080fd5b5061031a6107b836600461247e565b600060208181529281526040808220909352908152205481565b3480156107de57600080fd5b5061031a6107ed366004612439565b612139565b3480156107fe57600080fd5b506102e961080d366004612439565b612292565b34801561081e57600080fd5b5061031a61082d366004612439565b60026020526000908152604090205481565b3360009081526005602052604090205460ff166108a35760405162461bcd60e51b815260206004820152601a60248201527f4163636f756e74206e6f7420696e206c69717569646174696f6e00000000000060448201526064015b60405180910390fd5b6040516323b872dd60e01b8152336004820152306024820152604481018290526001600160a01b038316906323b872dd906064016020604051808303816000875af11580156108f6573d6000803e3d6000fd5b505050506040513d601f19601f8201168201806040525081019061091a919061255b565b506001600160a01b0382166000908152602081815260408083203384529091528120805483929061094c90849061240a565b909155506000905061095d336113e2565b509050801561098957336000908152600560209081526040808320805460ff1916905560069091528120555b505050565b6109966122d0565b6001600160a01b03821660009081526001602052604090205460ff166109fe5760405162461bcd60e51b815260206004820152601f60248201527f546f6b656e206e6f7420616c6c6f77656420617320636f6c6c61746572616c00604482015260640161089a565b60648111610a4e5760405162461bcd60e51b815260206004820152601860248201527f5468726573686f6c64206d757374206265203e20313030250000000000000000604482015260640161089a565b6001600160a01b03909116600090815260076020526040902055565b6001600160a01b03821660009081526001602052604090205460ff16610ac65760405162461bcd60e51b8152602060048201526011602482015270151bdad95b881b9bdd08185b1b1bddd959607a1b604482015260640161089a565b6001600160a01b038216600090815260208181526040808320338452909152902054811115610b2e5760405162461bcd60e51b8152602060048201526014602482015273496e73756666696369656e742062616c616e636560601b604482015260640161089a565b3360009081526005602052604090205460ff1615610b8a5760405162461bcd60e51b815260206004820152601960248201527820b1b1b7bab73a1034b99034b7103634b8bab4b230ba34b7b760391b604482015260640161089a565b6000670de0b6b3a7640000610b9e84612139565b610ba89084612578565b610bb2919061258f565b610bbb336110ce565b610bc591906125b1565b9050610bd08361122e565b33600090815260036020526040902054610bea9190612578565b610bf5826064612578565b1015610c5e5760405162461bcd60e51b815260206004820152603260248201527f5769746864726177616c20776f756c64206d616b6520706f736974696f6e20756044820152711b99195c98dbdb1b185d195c985b1a5e995960721b606482015260840161089a565b6001600160a01b03831660009081526020818152604080832033845290915281208054849290610c8f9084906125b1565b909155505060405163a9059cbb60e01b8152336004820152602481018390526001600160a01b0384169063a9059cbb906044016020604051808303816000875af1158015610ce1573d6000803e3d6000fd5b505050506040513d601f19601f82011682018060405250810190610d05919061255b565b506040518281526001600160a01b0384169033907f45892a46e6cef329bb642da6d69846d324db43d19008edc141ed82382eda1bee9060200160405180910390a3505050565b600b54610100900460ff1615610d985760405162461bcd60e51b815260206004820152601260248201527110dbdb9d1c9858dd081a5cc81c185d5cd95960721b604482015260640161089a565b33600090815260036020526040902054610dea5760405162461bcd60e51b8152602060048201526013602482015272139bc81bdd5d1cdd185b991a5b99c81919589d606a1b604482015260640161089a565b33600090815260036020526040902054341015610e3d5760405162461bcd60e51b815260206004820152601160248201527052657061796d656e7420746f6f206c6f7760781b604482015260640161089a565b60003411610e8d5760405162461bcd60e51b815260206004820152601860248201527f4d7573742073656e642066756e647320746f2072657061790000000000000000604482015260640161089a565b336000908152600360205260408120543411610ea95734610eba565b336000908152600360205260409020545b33600090815260036020526040812080549293508392909190610ede9084906125b1565b9250508190555080600a6000828254610ef7919061240a565b9091555050336000908152600460209081526040808320839055600590915290205460ff1615610f4457336000908152600560209081526040808320805460ff1916905560069091528120555b60405181815233907f0516911bcc3a0a7412a44601057c0a0a1ec628bde049a84284bc4288665344889060200160405180910390a250565b6001600160a01b03808216600090815260208181526040808320938616835292905220545b92915050565b610faf6122d0565b6001600160a01b0382166000908152600160205260408120805460ff1916831515179055805b60095481101561102757836001600160a01b031660098281548110610ffc57610ffc6125c4565b6000918252602090912001546001600160a01b03160361101f5760019150611027565b600101610fd5565b50818015611033575080155b1561108457600980546001810182556000919091527f6e1540171b6c0c960b71a7020d9f60077f6af931a8bbf590da0223dacf75c7af0180546001600160a01b0319166001600160a01b0385161790555b826001600160a01b03167f15f5cc64ca777db85f6c05fdba671568758b38329616d4d4b43bb8b092fe9a8d836040516110c1911515815260200190565b60405180910390a2505050565b600080806110da611c40565b905060005b81518110156111735760008282815181106110fc576110fc6125c4565b6020908102919091018101516001600160a01b0380821660009081528084526040808220928b1682529190935290912054909150801561116957670de0b6b3a764000061114883612139565b6111529083612578565b61115c919061258f565b611166908661240a565b94505b50506001016110df565b50909392505050565b6111846122d0565b61118e6000612302565b565b6111986122d0565b6001600160a01b03821660009081526001602052604090205460ff166112005760405162461bcd60e51b815260206004820152601f60248201527f546f6b656e206e6f7420616c6c6f77656420617320636f6c6c61746572616c00604482015260640161089a565b6001600160a01b03918216600090815260086020526040902080546001600160a01b03191691909216179055565b6001600160a01b03811660009081526007602052604081205480611253576082611255565b805b9392505050565b6112646122d0565b600b5460ff16156112a75760405162461bcd60e51b815260206004820152600d60248201526c4e6f207265656e7472616e637960981b604482015260640161089a565b600b805460ff19166001179055478111156113045760405162461bcd60e51b815260206004820152601d60248201527f496e73756666696369656e7420636f6e74726163742062616c616e6365000000604482015260640161089a565b80600a600082825461131691906125b1565b9091555061132490506113b4565b6001600160a01b03166108fc829081150290604051600060405180830381858888f1935050505015801561135c573d6000803e3d6000fd5b506113656113b4565b6001600160a01b03167f69c169e5c85af54e1ca7e16608ccc812437821387924fb3353a7d053264ddaa08260405161139f91815260200190565b60405180910390a250600b805460ff19169055565b7f9016d09d72d40fdae2fd8ceac6b6234c7706214fd39c1cd1e609a0528c199300546001600160a01b031690565b60008060006113f0846110ce565b6001600160a01b0385166000908152600360205260408120549192508190036114225750600194600019945092505050565b8061142e836064612578565b611438919061258f565b9250608283101593505050915091565b6114506122d0565b816001600160a01b0381166114a75760405162461bcd60e51b815260206004820152601d60248201527f496e76616c696420616464726573733a207a65726f2061646472657373000000604482015260640161089a565b306001600160a01b038216036114f75760405162461bcd60e51b815260206004820152601560248201527424b73b30b634b21030b2323932b9b99d1039b2b63360591b604482015260640161089a565b606482111561153d5760405162461bcd60e51b815260206004820152601260248201527153636f7265206f7574206f662072616e676560701b604482015260640161089a565b6001600160a01b03831660008181526002602052604090819020849055517f4afae6838a181695abc7978598380d73bc2144eb38580c130f86e4b1e6531e15906110c19085815260200190565b6001600160a01b03821660009081526001602052604090205460ff166115e65760405162461bcd60e51b8152602060048201526011602482015270151bdad95b881b9bdd08185b1b1bddd959607a1b604482015260640161089a565b6000811161162b5760405162461bcd60e51b81526020600482015260126024820152710416d6f756e74206d757374206265203e20360741b604482015260640161089a565b3360009081526005602052604090205460ff16156116875760405162461bcd60e51b815260206004820152601960248201527820b1b1b7bab73a1034b99034b7103634b8bab4b230ba34b7b760391b604482015260640161089a565b6040516323b872dd60e01b8152336004820152306024820152604481018290526001600160a01b038316906323b872dd906064016020604051808303816000875af11580156116da573d6000803e3d6000fd5b505050506040513d601f19601f820116820180604052508101906116fe919061255b565b506001600160a01b0382166000908152602081815260408083203384529091528120805483929061173090849061240a565b90915550506040518181526001600160a01b0383169033907ff1c0dd7e9b98bbff859029005ef89b127af049cd18df1a8d79f0b7e019911e569060200160405180910390a35050565b6009818154811061178957600080fd5b6000918252602090912001546001600160a01b0316905081565b6117ab6122d0565b600b805460ff610100808304821615810261ff001990931692909217928390556040517f228f455d7bc3d0b24a3a08d7847f391c3e78fc8aeb83acf226b7a96ee162b8ac936118039390049091161515815260200190565b60405180910390a1565b6000611817612373565b805490915060ff600160401b820416159067ffffffffffffffff1660008115801561183f5750825b905060008267ffffffffffffffff16600114801561185c5750303b155b90508115801561186a575080155b156118885760405163f92ee8a960e01b815260040160405180910390fd5b845467ffffffffffffffff1916600117855583156118b257845460ff60401b1916600160401b1785555b6118bb8661239c565b831561190157845460ff60401b19168555604051600181527fc7f505b2f371ae2175ee4913f4499e1f2633a7b5936321eed1cdaeb6115181d29060200160405180910390a15b505050505050565b600b54610100900460ff16156119565760405162461bcd60e51b815260206004820152601260248201527110dbdb9d1c9858dd081a5cc81c185d5cd95960721b604482015260640161089a565b600b5460ff16156119995760405162461bcd60e51b815260206004820152600d60248201526c4e6f207265656e7472616e637960981b604482015260640161089a565b600b805460ff19166001179055806119f35760405162461bcd60e51b815260206004820152601d60248201527f416d6f756e74206d7573742062652067726561746572207468616e2030000000604482015260640161089a565b33600090815260026020526040902054603c1115611a4a5760405162461bcd60e51b81526020600482015260146024820152734372656469742073636f726520746f6f206c6f7760601b604482015260640161089a565b6002600a54611a59919061258f565b811115611aa85760405162461bcd60e51b815260206004820152601e60248201527f496e73756666696369656e742066756e647320696e2074686520706f6f6c0000604482015260640161089a565b3360009081526003602052604090205415611b055760405162461bcd60e51b815260206004820152601e60248201527f526570617920796f7572206578697374696e6720646562742066697273740000604482015260640161089a565b6000611b10336110ce565b9050611b1d608283612578565b611b28826064612578565b1015611b845760405162461bcd60e51b815260206004820152602560248201527f496e73756666696369656e7420636f6c6c61746572616c20666f722074686973604482015264103637b0b760d91b606482015260840161089a565b3360009081526003602052604081208054849290611ba390849061240a565b9250508190555081600a6000828254611bbc91906125b1565b9091555050336000818152600460205260408082204290555184156108fc0291859190818181858888f19350505050158015611bfc573d6000803e3d6000fd5b5060405182815233907fac59582e5396aca512fa873a2047e7f4c80f8f55d4a06cb34a78a0187f62719f9060200160405180910390a25050600b805460ff19169055565b60606000805b600954811015611caa576001600060098381548110611c6757611c676125c4565b60009182526020808320909101546001600160a01b0316835282019290925260400190205460ff1615611ca25781611c9e816125da565b9250505b600101611c46565b5060008167ffffffffffffffff811115611cc657611cc66125f3565b604051908082528060200260200182016040528015611cef578160200160208202803683370190505b5090506000805b60095481101561117357600060098281548110611d1557611d156125c4565b60009182526020808320909101546001600160a01b0316808352600190915260409091205490915060ff1615611d7e5780848481518110611d5857611d586125c4565b6001600160a01b039092166020928302919091019091015282611d7a816125da565b9350505b50600101611cf6565b6000611d92826113e2565b5090508015611dd95760405162461bcd60e51b8152602060048201526013602482015272506f736974696f6e206973206865616c74687960681b604482015260640161089a565b6001600160a01b03821660009081526005602052604090205460ff1615611e425760405162461bcd60e51b815260206004820152601b60248201527f4c69717569646174696f6e20616c726561647920737461727465640000000000604482015260640161089a565b6001600160a01b0382166000818152600560209081526040808320805460ff191660011790556006909152808220429055517f7f62ed89ea2c6fb057e4ea77729c1d3f18056339791fce29ac89760197b45b299190a25050565b6001600160a01b03811660009081526005602052604090205460ff16611f0f5760405162461bcd60e51b815260206004820152602260248201527f4163636f756e74206e6f74206d61726b656420666f72206c697175696461746960448201526137b760f11b606482015260840161089a565b6001600160a01b038116600090815260066020526040902054611f36906203f4809061240a565b421015611f7e5760405162461bcd60e51b815260206004820152601660248201527511dc9858d9481c195c9a5bd9081b9bdd08195b99195960521b604482015260640161089a565b6001600160a01b038116600090815260036020526040812054906064611fa5600584612578565b611faf919061258f565b90506000611fbd828461240a565b90506000611fc9611c40565b905060005b81518110156120bc576000828281518110611feb57611feb6125c4565b6020908102919091018101516001600160a01b0380821660009081528084526040808220928c168252919093529091205490915080156120b2576001600160a01b03828116600081815260208181526040808320948d16835293905282812055905163a9059cbb60e01b81523360048201526024810183905263a9059cbb906044016020604051808303816000875af115801561208c573d6000803e3d6000fd5b505050506040513d601f19601f820116820180604052508101906120b0919061255b565b505b5050600101611fce565b506001600160a01b03851660008181526003602090815260408083208390556004825280832083905560058252808320805460ff19169055600682528083209290925590518481523392917f1175522017e08c2f400d7e516608eff60816ee9e8319158d174321234b602631910160405180910390a35050505050565b6001600160a01b03808216600090815260086020526040812054909116806121985760405162461bcd60e51b8152602060048201526012602482015271141c9a58d94819995959081b9bdd081cd95d60721b604482015260640161089a565b60008190506000816001600160a01b031663feaf968c6040518163ffffffff1660e01b815260040160a060405180830381865afa1580156121dd573d6000803e3d6000fd5b505050506040513d601f19601f820116820180604052508101906122019190612623565b505050915050816001600160a01b031663313ce5676040518163ffffffff1660e01b8152600401602060405180830381865afa158015612245573d6000803e3d6000fd5b505050506040513d601f19601f820116820180604052508101906122699190612675565b612274906012612698565b61227f90600a612798565b6122899082612578565b95945050505050565b61229a6122d0565b6001600160a01b0381166122c457604051631e4fbdf760e01b81526000600482015260240161089a565b6122cd81612302565b50565b336122d96113b4565b6001600160a01b03161461118e5760405163118cdaa760e01b815233600482015260240161089a565b7f9016d09d72d40fdae2fd8ceac6b6234c7706214fd39c1cd1e609a0528c19930080546001600160a01b031981166001600160a01b03848116918217845560405192169182907f8be0079c531659141344cd1fd0a4f28419497f9722a3daafe3b4186f6b6457e090600090a3505050565b6000807ff0c57e16840df040f15088dc2f81fe391c3923bec73e23a9662efc9c229c6a00610fa1565b6123a46123ad565b6122cd816123d2565b6123b56123da565b61118e57604051631afcd79f60e31b815260040160405180910390fd5b61229a6123ad565b60006123e4612373565b54600160401b900460ff16919050565b634e487b7160e01b600052601160045260246000fd5b80820180821115610fa157610fa16123f4565b80356001600160a01b038116811461243457600080fd5b919050565b60006020828403121561244b57600080fd5b6112558261241d565b6000806040838503121561246757600080fd5b6124708361241d565b946020939093013593505050565b6000806040838503121561249157600080fd5b61249a8361241d565b91506124a86020840161241d565b90509250929050565b80151581146122cd57600080fd5b600080604083850312156124d257600080fd5b6124db8361241d565b915060208301356124eb816124b1565b809150509250929050565b60006020828403121561250857600080fd5b5035919050565b602080825282518282018190526000918401906040840190835b818110156125505783516001600160a01b0316835260209384019390920191600101612529565b509095945050505050565b60006020828403121561256d57600080fd5b8151611255816124b1565b8082028115828204841417610fa157610fa16123f4565b6000826125ac57634e487b7160e01b600052601260045260246000fd5b500490565b81810381811115610fa157610fa16123f4565b634e487b7160e01b600052603260045260246000fd5b6000600182016125ec576125ec6123f4565b5060010190565b634e487b7160e01b600052604160045260246000fd5b805169ffffffffffffffffffff8116811461243457600080fd5b600080600080600060a0868803121561263b57600080fd5b61264486612609565b6020870151604088015160608901519297509095509350915061266960808701612609565b90509295509295909350565b60006020828403121561268757600080fd5b815160ff8116811461125557600080fd5b60ff8281168282160390811115610fa157610fa16123f4565b6001815b60018411156126ec578085048111156126d0576126d06123f4565b60018416156126de57908102905b60019390931c9280026126b5565b935093915050565b60008261270357506001610fa1565b8161271057506000610fa1565b816001811461272657600281146127305761274c565b6001915050610fa1565b60ff841115612741576127416123f4565b50506001821b610fa1565b5060208310610133831016604e8410600b841016171561276f575081810a610fa1565b61277c60001984846126b1565b8060001904821115612790576127906123f4565b029392505050565b600061125560ff8416836126f456fea26469706673582212201aa936f39545307223f5617e6d79c636697ab5a703221e4bbe6cf98a8bb0cb0364736f6c634300081c0033",
  "linkReferences": {},
  "deployedLinkReferences": {}
}