{
  "_format": "hh-sol-artifact-1",
  "contractName": "LiquidityPoolV3",
  "sourceName": "contracts/LiquidityPoolV3.sol",
  "abi": [
    {
      "inputs": [],
      "name": "AccessControlBadConfirmation",
      "type": "error"
    },
    {
      "inputs": [
        {
          "internalType": "address",
          "name": "account",
          "type": "address"
        },
        {
          "internalType": "bytes32",
          "name": "neededRole",
          "type": "bytes32"
        }
      ],
      "name": "AccessControlUnauthorizedAccount",
      "type": "error"
    },
    {
      "inputs": [],
      "name": "InvalidInitialization",
      "type": "error"
    },
    {
      "inputs": [],
      "name": "NotInitializing",
      "type": "error"
    },
    {
      "inputs": [
        {
          "internalType": "address",
          "name": "owner",
          "type": "address"
        }
      ],
      "name": "OwnableInvalidOwner",
      "type": "error"
    },
    {
      "inputs": [
        {
          "internalType": "address",
          "name": "account",
          "type": "address"
        }
      ],
      "name": "OwnableUnauthorizedAccount",
      "type": "error"
    },
    {
      "anonymous": false,
      "inputs": [
        {
          "indexed": true,
          "internalType": "address",
          "name": "user",
          "type": "address"
        },
        {
          "indexed": false,
          "internalType": "uint256",
          "name": "amount",
          "type": "uint256"
        }
      ],
      "name": "Borrowed",
      "type": "event"
    },
    {
      "anonymous": false,
      "inputs": [
        {
          "indexed": true,
          "internalType": "address",
          "name": "user",
          "type": "address"
        },
        {
          "indexed": true,
          "internalType": "address",
          "name": "token",
          "type": "address"
        },
        {
          "indexed": false,
          "internalType": "uint256",
          "name": "amount",
          "type": "uint256"
        }
      ],
      "name": "CollateralDeposited",
      "type": "event"
    },
    {
      "anonymous": false,
      "inputs": [
        {
          "indexed": true,
          "internalType": "address",
          "name": "token",
          "type": "address"
        },
        {
          "indexed": false,
          "internalType": "bool",
          "name": "isAllowed",
          "type": "bool"
        }
      ],
      "name": "CollateralTokenStatusChanged",
      "type": "event"
    },
    {
      "anonymous": false,
      "inputs": [
        {
          "indexed": true,
          "internalType": "address",
          "name": "user",
          "type": "address"
        },
        {
          "indexed": true,
          "internalType": "address",
          "name": "token",
          "type": "address"
        },
        {
          "indexed": false,
          "internalType": "uint256",
          "name": "amount",
          "type": "uint256"
        }
      ],
      "name": "CollateralWithdrawn",
      "type": "event"
    },
    {
      "anonymous": false,
      "inputs": [
        {
          "indexed": true,
          "internalType": "address",
          "name": "user",
          "type": "address"
        },
        {
          "indexed": false,
          "internalType": "uint256",
          "name": "score",
          "type": "uint256"
        }
      ],
      "name": "CreditScoreAssigned",
      "type": "event"
    },
    {
      "anonymous": false,
      "inputs": [
        {
          "indexed": true,
          "internalType": "address",
          "name": "lender",
          "type": "address"
        },
        {
          "indexed": false,
          "internalType": "uint256",
          "name": "penaltyAmount",
          "type": "uint256"
        }
      ],
      "name": "EarlyWithdrawalPenalty",
      "type": "event"
    },
    {
      "anonymous": false,
      "inputs": [
        {
          "indexed": false,
          "internalType": "bool",
          "name": "isPaused",
          "type": "bool"
        }
      ],
      "name": "EmergencyPaused",
      "type": "event"
    },
    {
      "anonymous": false,
      "inputs": [
        {
          "indexed": true,
          "internalType": "address",
          "name": "owner",
          "type": "address"
        },
        {
          "indexed": false,
          "internalType": "uint256",
          "name": "amount",
          "type": "uint256"
        }
      ],
      "name": "Extracted",
      "type": "event"
    },
    {
      "anonymous": false,
      "inputs": [
        {
          "indexed": true,
          "internalType": "address",
          "name": "lender",
          "type": "address"
        },
        {
          "indexed": false,
          "internalType": "uint256",
          "name": "amount",
          "type": "uint256"
        }
      ],
      "name": "FundsDeposited",
      "type": "event"
    },
    {
      "anonymous": false,
      "inputs": [
        {
          "indexed": true,
          "internalType": "address",
          "name": "lender",
          "type": "address"
        },
        {
          "indexed": false,
          "internalType": "uint256",
          "name": "amount",
          "type": "uint256"
        },
        {
          "indexed": false,
          "internalType": "uint256",
          "name": "penalty",
          "type": "uint256"
        }
      ],
      "name": "FundsWithdrawn",
      "type": "event"
    },
    {
      "anonymous": false,
      "inputs": [
        {
          "indexed": true,
          "internalType": "address",
          "name": "user",
          "type": "address"
        },
        {
          "indexed": false,
          "internalType": "uint256",
          "name": "newDeadline",
          "type": "uint256"
        }
      ],
      "name": "GracePeriodExtended",
      "type": "event"
    },
    {
      "anonymous": false,
      "inputs": [
        {
          "indexed": false,
          "internalType": "uint64",
          "name": "version",
          "type": "uint64"
        }
      ],
      "name": "Initialized",
      "type": "event"
    },
    {
      "anonymous": false,
      "inputs": [
        {
          "indexed": true,
          "internalType": "address",
          "name": "lender",
          "type": "address"
        },
        {
          "indexed": false,
          "internalType": "uint256",
          "name": "amount",
          "type": "uint256"
        }
      ],
      "name": "InterestAvailable",
      "type": "event"
    },
    {
      "anonymous": false,
      "inputs": [
        {
          "indexed": true,
          "internalType": "address",
          "name": "lender",
          "type": "address"
        },
        {
          "indexed": false,
          "internalType": "uint256",
          "name": "interest",
          "type": "uint256"
        }
      ],
      "name": "InterestClaimed",
      "type": "event"
    },
    {
      "anonymous": false,
      "inputs": [
        {
          "indexed": true,
          "internalType": "address",
          "name": "lender",
          "type": "address"
        },
        {
          "indexed": false,
          "internalType": "uint256",
          "name": "interest",
          "type": "uint256"
        }
      ],
      "name": "InterestCredited",
      "type": "event"
    },
    {
      "anonymous": false,
      "inputs": [
        {
          "indexed": true,
          "internalType": "address",
          "name": "user",
          "type": "address"
        },
        {
          "indexed": true,
          "internalType": "address",
          "name": "liquidator",
          "type": "address"
        },
        {
          "indexed": false,
          "internalType": "uint256",
          "name": "amount",
          "type": "uint256"
        }
      ],
      "name": "LiquidationExecuted",
      "type": "event"
    },
    {
      "anonymous": false,
      "inputs": [
        {
          "indexed": true,
          "internalType": "address",
          "name": "user",
          "type": "address"
        }
      ],
      "name": "LiquidationStarted",
      "type": "event"
    },
    {
      "anonymous": false,
      "inputs": [
        {
          "indexed": true,
          "internalType": "address",
          "name": "previousOwner",
          "type": "address"
        },
        {
          "indexed": true,
          "internalType": "address",
          "name": "newOwner",
          "type": "address"
        }
      ],
      "name": "OwnershipTransferred",
      "type": "event"
    },
    {
      "anonymous": false,
      "inputs": [
        {
          "indexed": true,
          "internalType": "address",
          "name": "lender",
          "type": "address"
        },
        {
          "indexed": false,
          "internalType": "uint256",
          "name": "amount",
          "type": "uint256"
        },
        {
          "indexed": false,
          "internalType": "uint256",
          "name": "unlockTime",
          "type": "uint256"
        }
      ],
      "name": "PrincipalWithdrawalRequested",
      "type": "event"
    },
    {
      "anonymous": false,
      "inputs": [
        {
          "indexed": true,
          "internalType": "address",
          "name": "user",
          "type": "address"
        },
        {
          "indexed": false,
          "internalType": "uint256",
          "name": "amount",
          "type": "uint256"
        }
      ],
      "name": "Repaid",
      "type": "event"
    },
    {
      "anonymous": false,
      "inputs": [
        {
          "indexed": true,
          "internalType": "bytes32",
          "name": "role",
          "type": "bytes32"
        },
        {
          "indexed": true,
          "internalType": "bytes32",
          "name": "previousAdminRole",
          "type": "bytes32"
        },
        {
          "indexed": true,
          "internalType": "bytes32",
          "name": "newAdminRole",
          "type": "bytes32"
        }
      ],
      "name": "RoleAdminChanged",
      "type": "event"
    },
    {
      "anonymous": false,
      "inputs": [
        {
          "indexed": true,
          "internalType": "bytes32",
          "name": "role",
          "type": "bytes32"
        },
        {
          "indexed": true,
          "internalType": "address",
          "name": "account",
          "type": "address"
        },
        {
          "indexed": true,
          "internalType": "address",
          "name": "sender",
          "type": "address"
        }
      ],
      "name": "RoleGranted",
      "type": "event"
    },
    {
      "anonymous": false,
      "inputs": [
        {
          "indexed": true,
          "internalType": "bytes32",
          "name": "role",
          "type": "bytes32"
        },
        {
          "indexed": true,
          "internalType": "address",
          "name": "account",
          "type": "address"
        },
        {
          "indexed": true,
          "internalType": "address",
          "name": "sender",
          "type": "address"
        }
      ],
      "name": "RoleRevoked",
      "type": "event"
    },
    {
      "anonymous": false,
      "inputs": [
        {
          "indexed": true,
          "internalType": "address",
          "name": "user",
          "type": "address"
        },
        {
          "indexed": false,
          "internalType": "string",
          "name": "message",
          "type": "string"
        }
      ],
      "name": "UserError",
      "type": "event"
    },
    {
      "anonymous": false,
      "inputs": [
        {
          "indexed": true,
          "internalType": "address",
          "name": "lender",
          "type": "address"
        },
        {
          "indexed": false,
          "internalType": "uint256",
          "name": "amount",
          "type": "uint256"
        }
      ],
      "name": "WithdrawalCancelled",
      "type": "event"
    },
    {
      "anonymous": false,
      "inputs": [
        {
          "indexed": true,
          "internalType": "address",
          "name": "lender",
          "type": "address"
        },
        {
          "indexed": false,
          "internalType": "uint256",
          "name": "amount",
          "type": "uint256"
        },
        {
          "indexed": false,
          "internalType": "uint256",
          "name": "unlockTime",
          "type": "uint256"
        }
      ],
      "name": "WithdrawalRequested",
      "type": "event"
    },
    {
      "inputs": [],
      "name": "DEFAULT_ADMIN_ROLE",
      "outputs": [
        {
          "internalType": "bytes32",
          "name": "",
          "type": "bytes32"
        }
      ],
      "stateMutability": "view",
      "type": "function"
    },
    {
      "inputs": [],
      "name": "DEFAULT_LIQUIDATION_THRESHOLD",
      "outputs": [
        {
          "internalType": "uint256",
          "name": "",
          "type": "uint256"
        }
      ],
      "stateMutability": "view",
      "type": "function"
    },
    {
      "inputs": [],
      "name": "EARLY_WITHDRAWAL_PENALTY",
      "outputs": [
        {
          "internalType": "uint256",
          "name": "",
          "type": "uint256"
        }
      ],
      "stateMutability": "view",
      "type": "function"
    },
    {
      "inputs": [],
      "name": "GRACE_PERIOD",
      "outputs": [
        {
          "internalType": "uint256",
          "name": "",
          "type": "uint256"
        }
      ],
      "stateMutability": "view",
      "type": "function"
    },
    {
      "inputs": [],
      "name": "LIQUIDATION_PENALTY",
      "outputs": [
        {
          "internalType": "uint256",
          "name": "",
          "type": "uint256"
        }
      ],
      "stateMutability": "view",
      "type": "function"
    },
    {
      "inputs": [],
      "name": "MAX_DEPOSIT_AMOUNT",
      "outputs": [
        {
          "internalType": "uint256",
          "name": "",
          "type": "uint256"
        }
      ],
      "stateMutability": "view",
      "type": "function"
    },
    {
      "inputs": [],
      "name": "MIN_DEPOSIT_AMOUNT",
      "outputs": [
        {
          "internalType": "uint256",
          "name": "",
          "type": "uint256"
        }
      ],
      "stateMutability": "view",
      "type": "function"
    },
    {
      "inputs": [],
      "name": "SECONDS_PER_DAY",
      "outputs": [
        {
          "internalType": "uint256",
          "name": "",
          "type": "uint256"
        }
      ],
      "stateMutability": "view",
      "type": "function"
    },
    {
      "inputs": [],
      "name": "WITHDRAWAL_COOLDOWN",
      "outputs": [
        {
          "internalType": "uint256",
          "name": "",
          "type": "uint256"
        }
      ],
      "stateMutability": "view",
      "type": "function"
    },
    {
      "inputs": [
        {
          "internalType": "uint256",
          "name": "amount",
          "type": "uint256"
        }
      ],
      "name": "borrow",
      "outputs": [],
      "stateMutability": "nonpayable",
      "type": "function"
    },
    {
      "inputs": [
        {
          "internalType": "address",
          "name": "",
          "type": "address"
        }
      ],
      "name": "borrowTimestamp",
      "outputs": [
        {
          "internalType": "uint256",
          "name": "",
          "type": "uint256"
        }
      ],
      "stateMutability": "view",
      "type": "function"
    },
    {
      "inputs": [
        {
          "internalType": "address",
          "name": "lender",
          "type": "address"
        }
      ],
      "name": "calculateInterest",
      "outputs": [
        {
          "internalType": "uint256",
          "name": "interest",
          "type": "uint256"
        }
      ],
      "stateMutability": "view",
      "type": "function"
    },
    {
      "inputs": [
        {
          "internalType": "uint256",
          "name": "amount",
          "type": "uint256"
        },
        {
          "internalType": "uint256",
          "name": "numDays",
          "type": "uint256"
        }
      ],
      "name": "calculatePotentialInterest",
      "outputs": [
        {
          "internalType": "uint256",
          "name": "",
          "type": "uint256"
        }
      ],
      "stateMutability": "view",
      "type": "function"
    },
    {
      "inputs": [
        {
          "internalType": "address",
          "name": "lender",
          "type": "address"
        }
      ],
      "name": "canCompleteWithdrawal",
      "outputs": [
        {
          "internalType": "bool",
          "name": "",
          "type": "bool"
        }
      ],
      "stateMutability": "view",
      "type": "function"
    },
    {
      "inputs": [],
      "name": "cancelPrincipalWithdrawal",
      "outputs": [],
      "stateMutability": "nonpayable",
      "type": "function"
    },
    {
      "inputs": [
        {
          "internalType": "address",
          "name": "user",
          "type": "address"
        }
      ],
      "name": "checkCollateralization",
      "outputs": [
        {
          "internalType": "bool",
          "name": "isHealthy",
          "type": "bool"
        },
        {
          "internalType": "uint256",
          "name": "ratio",
          "type": "uint256"
        }
      ],
      "stateMutability": "view",
      "type": "function"
    },
    {
      "inputs": [
        {
          "internalType": "bytes",
          "name": "",
          "type": "bytes"
        }
      ],
      "name": "checkUpkeep",
      "outputs": [
        {
          "internalType": "bool",
          "name": "upkeepNeeded",
          "type": "bool"
        },
        {
          "internalType": "bytes",
          "name": "performData",
          "type": "bytes"
        }
      ],
      "stateMutability": "view",
      "type": "function"
    },
    {
      "inputs": [],
      "name": "claimInterest",
      "outputs": [],
      "stateMutability": "nonpayable",
      "type": "function"
    },
    {
      "inputs": [
        {
          "internalType": "address",
          "name": "",
          "type": "address"
        },
        {
          "internalType": "address",
          "name": "",
          "type": "address"
        }
      ],
      "name": "collateralBalance",
      "outputs": [
        {
          "internalType": "uint256",
          "name": "",
          "type": "uint256"
        }
      ],
      "stateMutability": "view",
      "type": "function"
    },
    {
      "inputs": [
        {
          "internalType": "uint256",
          "name": "",
          "type": "uint256"
        }
      ],
      "name": "collateralTokenList",
      "outputs": [
        {
          "internalType": "address",
          "name": "",
          "type": "address"
        }
      ],
      "stateMutability": "view",
      "type": "function"
    },
    {
      "inputs": [],
      "name": "completeWithdrawal",
      "outputs": [],
      "stateMutability": "nonpayable",
      "type": "function"
    },
    {
      "inputs": [
        {
          "internalType": "address",
          "name": "",
          "type": "address"
        }
      ],
      "name": "creditScore",
      "outputs": [
        {
          "internalType": "uint256",
          "name": "",
          "type": "uint256"
        }
      ],
      "stateMutability": "view",
      "type": "function"
    },
    {
      "inputs": [],
      "name": "currentDailyRate",
      "outputs": [
        {
          "internalType": "uint256",
          "name": "",
          "type": "uint256"
        }
      ],
      "stateMutability": "view",
      "type": "function"
    },
    {
      "inputs": [
        {
          "internalType": "uint256",
          "name": "",
          "type": "uint256"
        }
      ],
      "name": "dailyInterestRate",
      "outputs": [
        {
          "internalType": "uint256",
          "name": "",
          "type": "uint256"
        }
      ],
      "stateMutability": "view",
      "type": "function"
    },
    {
      "inputs": [
        {
          "internalType": "address",
          "name": "token",
          "type": "address"
        },
        {
          "internalType": "uint256",
          "name": "amount",
          "type": "uint256"
        }
      ],
      "name": "depositCollateral",
      "outputs": [],
      "stateMutability": "nonpayable",
      "type": "function"
    },
    {
      "inputs": [],
      "name": "depositFunds",
      "outputs": [],
      "stateMutability": "payable",
      "type": "function"
    },
    {
      "inputs": [
        {
          "internalType": "address",
          "name": "user",
          "type": "address"
        }
      ],
      "name": "executeLiquidation",
      "outputs": [],
      "stateMutability": "nonpayable",
      "type": "function"
    },
    {
      "inputs": [
        {
          "internalType": "uint256",
          "name": "amount",
          "type": "uint256"
        }
      ],
      "name": "extract",
      "outputs": [],
      "stateMutability": "nonpayable",
      "type": "function"
    },
    {
      "inputs": [],
      "name": "getAdmin",
      "outputs": [
        {
          "internalType": "address",
          "name": "",
          "type": "address"
        }
      ],
      "stateMutability": "view",
      "type": "function"
    },
    {
      "inputs": [],
      "name": "getAllUsers",
      "outputs": [
        {
          "internalType": "address[]",
          "name": "",
          "type": "address[]"
        }
      ],
      "stateMutability": "view",
      "type": "function"
    },
    {
      "inputs": [],
      "name": "getAllowedCollateralTokens",
      "outputs": [
        {
          "internalType": "address[]",
          "name": "",
          "type": "address[]"
        }
      ],
      "stateMutability": "view",
      "type": "function"
    },
    {
      "inputs": [
        {
          "internalType": "address",
          "name": "lender",
          "type": "address"
        }
      ],
      "name": "getAvailableInterest",
      "outputs": [
        {
          "internalType": "uint256",
          "name": "",
          "type": "uint256"
        }
      ],
      "stateMutability": "view",
      "type": "function"
    },
    {
      "inputs": [],
      "name": "getBalance",
      "outputs": [
        {
          "internalType": "uint256",
          "name": "",
          "type": "uint256"
        }
      ],
      "stateMutability": "view",
      "type": "function"
    },
    {
      "inputs": [
        {
          "internalType": "address",
          "name": "user",
          "type": "address"
        },
        {
          "internalType": "address",
          "name": "token",
          "type": "address"
        }
      ],
      "name": "getCollateral",
      "outputs": [
        {
          "internalType": "uint256",
          "name": "",
          "type": "uint256"
        }
      ],
      "stateMutability": "view",
      "type": "function"
    },
    {
      "inputs": [
        {
          "internalType": "address",
          "name": "user",
          "type": "address"
        }
      ],
      "name": "getCreditScore",
      "outputs": [
        {
          "internalType": "uint256",
          "name": "",
          "type": "uint256"
        }
      ],
      "stateMutability": "view",
      "type": "function"
    },
    {
      "inputs": [
        {
          "internalType": "uint256",
          "name": "startDay",
          "type": "uint256"
        },
        {
          "internalType": "uint256",
          "name": "endDay",
          "type": "uint256"
        }
      ],
      "name": "getHistoricalRates",
      "outputs": [
        {
          "internalType": "uint256[]",
          "name": "rates",
          "type": "uint256[]"
        }
      ],
      "stateMutability": "view",
      "type": "function"
    },
    {
      "inputs": [],
      "name": "getInterestRate",
      "outputs": [
        {
          "internalType": "uint256",
          "name": "",
          "type": "uint256"
        }
      ],
      "stateMutability": "view",
      "type": "function"
    },
    {
      "inputs": [
        {
          "internalType": "uint256",
          "name": "index",
          "type": "uint256"
        }
      ],
      "name": "getInterestTier",
      "outputs": [
        {
          "internalType": "uint256",
          "name": "minAmount",
          "type": "uint256"
        },
        {
          "internalType": "uint256",
          "name": "rate",
          "type": "uint256"
        }
      ],
      "stateMutability": "view",
      "type": "function"
    },
    {
      "inputs": [],
      "name": "getInterestTierCount",
      "outputs": [
        {
          "internalType": "uint256",
          "name": "",
          "type": "uint256"
        }
      ],
      "stateMutability": "view",
      "type": "function"
    },
    {
      "inputs": [
        {
          "internalType": "address",
          "name": "lender",
          "type": "address"
        }
      ],
      "name": "getLenderInfo",
      "outputs": [
        {
          "internalType": "uint256",
          "name": "balance",
          "type": "uint256"
        },
        {
          "internalType": "uint256",
          "name": "pendingInterest",
          "type": "uint256"
        },
        {
          "internalType": "uint256",
          "name": "earnedInterest",
          "type": "uint256"
        },
        {
          "internalType": "uint256",
          "name": "nextInterestUpdate",
          "type": "uint256"
        },
        {
          "internalType": "uint256",
          "name": "penaltyFreeWithdrawalTime",
          "type": "uint256"
        },
        {
          "internalType": "uint256",
          "name": "lastDistributionTime",
          "type": "uint256"
        }
      ],
      "stateMutability": "view",
      "type": "function"
    },
    {
      "inputs": [
        {
          "internalType": "address",
          "name": "token",
          "type": "address"
        }
      ],
      "name": "getLiquidationThreshold",
      "outputs": [
        {
          "internalType": "uint256",
          "name": "",
          "type": "uint256"
        }
      ],
      "stateMutability": "view",
      "type": "function"
    },
    {
      "inputs": [],
      "name": "getMaxBorrowAmount",
      "outputs": [
        {
          "internalType": "uint256",
          "name": "",
          "type": "uint256"
        }
      ],
      "stateMutability": "view",
      "type": "function"
    },
    {
      "inputs": [],
      "name": "getMaxCollateralAmount",
      "outputs": [
        {
          "internalType": "uint256",
          "name": "",
          "type": "uint256"
        }
      ],
      "stateMutability": "view",
      "type": "function"
    },
    {
      "inputs": [],
      "name": "getMaxLiquidationAmount",
      "outputs": [
        {
          "internalType": "uint256",
          "name": "",
          "type": "uint256"
        }
      ],
      "stateMutability": "view",
      "type": "function"
    },
    {
      "inputs": [],
      "name": "getMaxLiquidationBonus",
      "outputs": [
        {
          "internalType": "uint256",
          "name": "",
          "type": "uint256"
        }
      ],
      "stateMutability": "view",
      "type": "function"
    },
    {
      "inputs": [],
      "name": "getMaxLiquidationDelay",
      "outputs": [
        {
          "internalType": "uint256",
          "name": "",
          "type": "uint256"
        }
      ],
      "stateMutability": "view",
      "type": "function"
    },
    {
      "inputs": [],
      "name": "getMaxLiquidationGracePeriod",
      "outputs": [
        {
          "internalType": "uint256",
          "name": "",
          "type": "uint256"
        }
      ],
      "stateMutability": "view",
      "type": "function"
    },
    {
      "inputs": [],
      "name": "getMaxLiquidationPenalty",
      "outputs": [
        {
          "internalType": "uint256",
          "name": "",
          "type": "uint256"
        }
      ],
      "stateMutability": "view",
      "type": "function"
    },
    {
      "inputs": [],
      "name": "getMaxLiquidationRatio",
      "outputs": [
        {
          "internalType": "uint256",
          "name": "",
          "type": "uint256"
        }
      ],
      "stateMutability": "view",
      "type": "function"
    },
    {
      "inputs": [],
      "name": "getMaxLiquidationThreshold",
      "outputs": [
        {
          "internalType": "uint256",
          "name": "",
          "type": "uint256"
        }
      ],
      "stateMutability": "view",
      "type": "function"
    },
    {
      "inputs": [],
      "name": "getMaxLiquidationTime",
      "outputs": [
        {
          "internalType": "uint256",
          "name": "",
          "type": "uint256"
        }
      ],
      "stateMutability": "view",
      "type": "function"
    },
    {
      "inputs": [],
      "name": "getMinCollateralRatio",
      "outputs": [
        {
          "internalType": "uint256",
          "name": "",
          "type": "uint256"
        }
      ],
      "stateMutability": "view",
      "type": "function"
    },
    {
      "inputs": [],
      "name": "getMyDebt",
      "outputs": [
        {
          "internalType": "uint256",
          "name": "",
          "type": "uint256"
        }
      ],
      "stateMutability": "view",
      "type": "function"
    },
    {
      "inputs": [
        {
          "internalType": "address",
          "name": "token",
          "type": "address"
        }
      ],
      "name": "getPriceFeed",
      "outputs": [
        {
          "internalType": "address",
          "name": "",
          "type": "address"
        }
      ],
      "stateMutability": "view",
      "type": "function"
    },
    {
      "inputs": [
        {
          "internalType": "bytes32",
          "name": "role",
          "type": "bytes32"
        }
      ],
      "name": "getRoleAdmin",
      "outputs": [
        {
          "internalType": "bytes32",
          "name": "",
          "type": "bytes32"
        }
      ],
      "stateMutability": "view",
      "type": "function"
    },
    {
      "inputs": [
        {
          "internalType": "address",
          "name": "token",
          "type": "address"
        }
      ],
      "name": "getTokenValue",
      "outputs": [
        {
          "internalType": "uint256",
          "name": "",
          "type": "uint256"
        }
      ],
      "stateMutability": "view",
      "type": "function"
    },
    {
      "inputs": [
        {
          "internalType": "address",
          "name": "user",
          "type": "address"
        }
      ],
      "name": "getTotalCollateralValue",
      "outputs": [
        {
          "internalType": "uint256",
          "name": "",
          "type": "uint256"
        }
      ],
      "stateMutability": "view",
      "type": "function"
    },
    {
      "inputs": [
        {
          "internalType": "address",
          "name": "lender",
          "type": "address"
        }
      ],
      "name": "getWithdrawalStatus",
      "outputs": [
        {
          "internalType": "uint256",
          "name": "availableAt",
          "type": "uint256"
        },
        {
          "internalType": "uint256",
          "name": "penaltyIfWithdrawnNow",
          "type": "uint256"
        },
        {
          "internalType": "bool",
          "name": "isAvailableWithoutPenalty",
          "type": "bool"
        },
        {
          "internalType": "uint256",
          "name": "nextInterestDistribution",
          "type": "uint256"
        },
        {
          "internalType": "uint256",
          "name": "availableInterest",
          "type": "uint256"
        }
      ],
      "stateMutability": "view",
      "type": "function"
    },
    {
      "inputs": [
        {
          "internalType": "bytes32",
          "name": "role",
          "type": "bytes32"
        },
        {
          "internalType": "address",
          "name": "account",
          "type": "address"
        }
      ],
      "name": "grantRole",
      "outputs": [],
      "stateMutability": "nonpayable",
      "type": "function"
    },
    {
      "inputs": [
        {
          "internalType": "bytes32",
          "name": "role",
          "type": "bytes32"
        },
        {
          "internalType": "address",
          "name": "account",
          "type": "address"
        }
      ],
      "name": "hasRole",
      "outputs": [
        {
          "internalType": "bool",
          "name": "",
          "type": "bool"
        }
      ],
      "stateMutability": "view",
      "type": "function"
    },
    {
      "inputs": [
        {
          "internalType": "address",
          "name": "initialOwner",
          "type": "address"
        }
      ],
      "name": "initialize",
      "outputs": [],
      "stateMutability": "nonpayable",
      "type": "function"
    },
    {
      "inputs": [],
      "name": "interestRate",
      "outputs": [
        {
          "internalType": "uint256",
          "name": "",
          "type": "uint256"
        }
      ],
      "stateMutability": "view",
      "type": "function"
    },
    {
      "inputs": [
        {
          "internalType": "uint256",
          "name": "",
          "type": "uint256"
        }
      ],
      "name": "interestTiers",
      "outputs": [
        {
          "internalType": "uint256",
          "name": "minAmount",
          "type": "uint256"
        },
        {
          "internalType": "uint256",
          "name": "rate",
          "type": "uint256"
        }
      ],
      "stateMutability": "view",
      "type": "function"
    },
    {
      "inputs": [
        {
          "internalType": "address",
          "name": "",
          "type": "address"
        }
      ],
      "name": "isAllowedCollateral",
      "outputs": [
        {
          "internalType": "bool",
          "name": "",
          "type": "bool"
        }
      ],
      "stateMutability": "view",
      "type": "function"
    },
    {
      "inputs": [
        {
          "internalType": "address",
          "name": "",
          "type": "address"
        }
      ],
      "name": "isKnownUser",
      "outputs": [
        {
          "internalType": "bool",
          "name": "",
          "type": "bool"
        }
      ],
      "stateMutability": "view",
      "type": "function"
    },
    {
      "inputs": [
        {
          "internalType": "address",
          "name": "",
          "type": "address"
        }
      ],
      "name": "isLiquidatable",
      "outputs": [
        {
          "internalType": "bool",
          "name": "",
          "type": "bool"
        }
      ],
      "stateMutability": "view",
      "type": "function"
    },
    {
      "inputs": [],
      "name": "isPaused",
      "outputs": [
        {
          "internalType": "bool",
          "name": "",
          "type": "bool"
        }
      ],
      "stateMutability": "view",
      "type": "function"
    },
    {
      "inputs": [],
      "name": "lastRateUpdateDay",
      "outputs": [
        {
          "internalType": "uint256",
          "name": "",
          "type": "uint256"
        }
      ],
      "stateMutability": "view",
      "type": "function"
    },
    {
      "inputs": [
        {
          "internalType": "address",
          "name": "",
          "type": "address"
        }
      ],
      "name": "lenders",
      "outputs": [
        {
          "internalType": "uint256",
          "name": "balance",
          "type": "uint256"
        },
        {
          "internalType": "uint256",
          "name": "depositTimestamp",
          "type": "uint256"
        },
        {
          "internalType": "uint256",
          "name": "lastInterestUpdate",
          "type": "uint256"
        },
        {
          "internalType": "uint256",
          "name": "interestIndex",
          "type": "uint256"
        },
        {
          "internalType": "uint256",
          "name": "earnedInterest",
          "type": "uint256"
        },
        {
          "internalType": "uint256",
          "name": "pendingPrincipalWithdrawal",
          "type": "uint256"
        },
        {
          "internalType": "uint256",
          "name": "withdrawalRequestTime",
          "type": "uint256"
        },
        {
          "internalType": "uint256",
          "name": "lastInterestDistribution",
          "type": "uint256"
        },
        {
          "internalType": "uint256",
          "name": "lastWithdrawalTime",
          "type": "uint256"
        }
      ],
      "stateMutability": "view",
      "type": "function"
    },
    {
      "inputs": [
        {
          "internalType": "address",
          "name": "",
          "type": "address"
        }
      ],
      "name": "liquidationStartTime",
      "outputs": [
        {
          "internalType": "uint256",
          "name": "",
          "type": "uint256"
        }
      ],
      "stateMutability": "view",
      "type": "function"
    },
    {
      "inputs": [
        {
          "internalType": "address",
          "name": "",
          "type": "address"
        }
      ],
      "name": "liquidationThreshold",
      "outputs": [
        {
          "internalType": "uint256",
          "name": "",
          "type": "uint256"
        }
      ],
      "stateMutability": "view",
      "type": "function"
    },
    {
      "inputs": [],
      "name": "liquidator",
      "outputs": [
        {
          "internalType": "address",
          "name": "",
          "type": "address"
        }
      ],
      "stateMutability": "view",
      "type": "function"
    },
    {
      "inputs": [],
      "name": "locked",
      "outputs": [
        {
          "internalType": "bool",
          "name": "",
          "type": "bool"
        }
      ],
      "stateMutability": "view",
      "type": "function"
    },
    {
      "inputs": [],
      "name": "maxBorrowAmount",
      "outputs": [
        {
          "internalType": "uint256",
          "name": "",
          "type": "uint256"
        }
      ],
      "stateMutability": "view",
      "type": "function"
    },
    {
      "inputs": [],
      "name": "maxCollateralAmount",
      "outputs": [
        {
          "internalType": "uint256",
          "name": "",
          "type": "uint256"
        }
      ],
      "stateMutability": "view",
      "type": "function"
    },
    {
      "inputs": [],
      "name": "maxLiquidationAmount",
      "outputs": [
        {
          "internalType": "uint256",
          "name": "",
          "type": "uint256"
        }
      ],
      "stateMutability": "view",
      "type": "function"
    },
    {
      "inputs": [],
      "name": "maxLiquidationBonus",
      "outputs": [
        {
          "internalType": "uint256",
          "name": "",
          "type": "uint256"
        }
      ],
      "stateMutability": "view",
      "type": "function"
    },
    {
      "inputs": [],
      "name": "maxLiquidationDelay",
      "outputs": [
        {
          "internalType": "uint256",
          "name": "",
          "type": "uint256"
        }
      ],
      "stateMutability": "view",
      "type": "function"
    },
    {
      "inputs": [],
      "name": "maxLiquidationGracePeriod",
      "outputs": [
        {
          "internalType": "uint256",
          "name": "",
          "type": "uint256"
        }
      ],
      "stateMutability": "view",
      "type": "function"
    },
    {
      "inputs": [],
      "name": "maxLiquidationPenalty",
      "outputs": [
        {
          "internalType": "uint256",
          "name": "",
          "type": "uint256"
        }
      ],
      "stateMutability": "view",
      "type": "function"
    },
    {
      "inputs": [],
      "name": "maxLiquidationRatio",
      "outputs": [
        {
          "internalType": "uint256",
          "name": "",
          "type": "uint256"
        }
      ],
      "stateMutability": "view",
      "type": "function"
    },
    {
      "inputs": [],
      "name": "maxLiquidationThreshold",
      "outputs": [
        {
          "internalType": "uint256",
          "name": "",
          "type": "uint256"
        }
      ],
      "stateMutability": "view",
      "type": "function"
    },
    {
      "inputs": [],
      "name": "maxLiquidationTime",
      "outputs": [
        {
          "internalType": "uint256",
          "name": "",
          "type": "uint256"
        }
      ],
      "stateMutability": "view",
      "type": "function"
    },
    {
      "inputs": [],
      "name": "owner",
      "outputs": [
        {
          "internalType": "address",
          "name": "",
          "type": "address"
        }
      ],
      "stateMutability": "view",
      "type": "function"
    },
    {
      "inputs": [],
      "name": "paused",
      "outputs": [
        {
          "internalType": "bool",
          "name": "",
          "type": "bool"
        }
      ],
      "stateMutability": "view",
      "type": "function"
    },
    {
      "inputs": [
        {
          "internalType": "bytes",
          "name": "performData",
          "type": "bytes"
        }
      ],
      "name": "performUpkeep",
      "outputs": [],
      "stateMutability": "nonpayable",
      "type": "function"
    },
    {
      "inputs": [
        {
          "internalType": "address",
          "name": "",
          "type": "address"
        }
      ],
      "name": "priceFeed",
      "outputs": [
        {
          "internalType": "address",
          "name": "",
          "type": "address"
        }
      ],
      "stateMutability": "view",
      "type": "function"
    },
    {
      "inputs": [
        {
          "internalType": "address",
          "name": "token",
          "type": "address"
        },
        {
          "internalType": "uint256",
          "name": "amount",
          "type": "uint256"
        }
      ],
      "name": "recoverFromLiquidation",
      "outputs": [],
      "stateMutability": "nonpayable",
      "type": "function"
    },
    {
      "inputs": [],
      "name": "renounceOwnership",
      "outputs": [],
      "stateMutability": "nonpayable",
      "type": "function"
    },
    {
      "inputs": [
        {
          "internalType": "bytes32",
          "name": "role",
          "type": "bytes32"
        },
        {
          "internalType": "address",
          "name": "callerConfirmation",
          "type": "address"
        }
      ],
      "name": "renounceRole",
      "outputs": [],
      "stateMutability": "nonpayable",
      "type": "function"
    },
    {
      "inputs": [],
      "name": "repay",
      "outputs": [],
      "stateMutability": "payable",
      "type": "function"
    },
    {
      "inputs": [
        {
          "internalType": "uint256",
          "name": "amount",
          "type": "uint256"
        }
      ],
      "name": "requestWithdrawal",
      "outputs": [],
      "stateMutability": "nonpayable",
      "type": "function"
    },
    {
      "inputs": [
        {
          "internalType": "bytes32",
          "name": "role",
          "type": "bytes32"
        },
        {
          "internalType": "address",
          "name": "account",
          "type": "address"
        }
      ],
      "name": "revokeRole",
      "outputs": [],
      "stateMutability": "nonpayable",
      "type": "function"
    },
    {
      "inputs": [
        {
          "internalType": "address",
          "name": "newAdmin",
          "type": "address"
        }
      ],
      "name": "setAdmin",
      "outputs": [],
      "stateMutability": "nonpayable",
      "type": "function"
    },
    {
      "inputs": [
        {
          "internalType": "address",
          "name": "token",
          "type": "address"
        },
        {
          "internalType": "bool",
          "name": "allowed",
          "type": "bool"
        }
      ],
      "name": "setAllowedCollateral",
      "outputs": [],
      "stateMutability": "nonpayable",
      "type": "function"
    },
    {
      "inputs": [
        {
          "internalType": "address",
          "name": "user",
          "type": "address"
        },
        {
          "internalType": "uint256",
          "name": "score",
          "type": "uint256"
        }
      ],
      "name": "setCreditScore",
      "outputs": [],
      "stateMutability": "nonpayable",
      "type": "function"
    },
    {
      "inputs": [
        {
          "internalType": "uint256",
          "name": "newRate",
          "type": "uint256"
        }
      ],
      "name": "setInterestRate",
      "outputs": [],
      "stateMutability": "nonpayable",
      "type": "function"
    },
    {
      "inputs": [
        {
          "internalType": "uint256",
          "name": "index",
          "type": "uint256"
        },
        {
          "internalType": "uint256",
          "name": "minAmount",
          "type": "uint256"
        },
        {
          "internalType": "uint256",
          "name": "rate",
          "type": "uint256"
        }
      ],
      "name": "setInterestTier",
      "outputs": [],
      "stateMutability": "nonpayable",
      "type": "function"
    },
    {
      "inputs": [
        {
          "internalType": "address",
          "name": "token",
          "type": "address"
        },
        {
          "internalType": "uint256",
          "name": "threshold",
          "type": "uint256"
        }
      ],
      "name": "setLiquidationThreshold",
      "outputs": [],
      "stateMutability": "nonpayable",
      "type": "function"
    },
    {
      "inputs": [
        {
          "internalType": "address",
          "name": "_liquidator",
          "type": "address"
        }
      ],
      "name": "setLiquidator",
      "outputs": [],
      "stateMutability": "nonpayable",
      "type": "function"
    },
    {
      "inputs": [
        {
          "internalType": "uint256",
          "name": "newMax",
          "type": "uint256"
        }
      ],
      "name": "setMaxBorrowAmount",
      "outputs": [],
      "stateMutability": "nonpayable",
      "type": "function"
    },
    {
      "inputs": [
        {
          "internalType": "uint256",
          "name": "newMax",
          "type": "uint256"
        }
      ],
      "name": "setMaxCollateralAmount",
      "outputs": [],
      "stateMutability": "nonpayable",
      "type": "function"
    },
    {
      "inputs": [
        {
          "internalType": "uint256",
          "name": "newAmount",
          "type": "uint256"
        }
      ],
      "name": "setMaxLiquidationAmount",
      "outputs": [],
      "stateMutability": "nonpayable",
      "type": "function"
    },
    {
      "inputs": [
        {
          "internalType": "uint256",
          "name": "newBonus",
          "type": "uint256"
        }
      ],
      "name": "setMaxLiquidationBonus",
      "outputs": [],
      "stateMutability": "nonpayable",
      "type": "function"
    },
    {
      "inputs": [
        {
          "internalType": "uint256",
          "name": "newDelay",
          "type": "uint256"
        }
      ],
      "name": "setMaxLiquidationDelay",
      "outputs": [],
      "stateMutability": "nonpayable",
      "type": "function"
    },
    {
      "inputs": [
        {
          "internalType": "uint256",
          "name": "newPeriod",
          "type": "uint256"
        }
      ],
      "name": "setMaxLiquidationGracePeriod",
      "outputs": [],
      "stateMutability": "nonpayable",
      "type": "function"
    },
    {
      "inputs": [
        {
          "internalType": "uint256",
          "name": "newPenalty",
          "type": "uint256"
        }
      ],
      "name": "setMaxLiquidationPenalty",
      "outputs": [],
      "stateMutability": "nonpayable",
      "type": "function"
    },
    {
      "inputs": [
        {
          "internalType": "uint256",
          "name": "newRatio",
          "type": "uint256"
        }
      ],
      "name": "setMaxLiquidationRatio",
      "outputs": [],
      "stateMutability": "nonpayable",
      "type": "function"
    },
    {
      "inputs": [
        {
          "internalType": "uint256",
          "name": "newThreshold",
          "type": "uint256"
        }
      ],
      "name": "setMaxLiquidationThreshold",
      "outputs": [],
      "stateMutability": "nonpayable",
      "type": "function"
    },
    {
      "inputs": [
        {
          "internalType": "uint256",
          "name": "newTime",
          "type": "uint256"
        }
      ],
      "name": "setMaxLiquidationTime",
      "outputs": [],
      "stateMutability": "nonpayable",
      "type": "function"
    },
    {
      "inputs": [
        {
          "internalType": "address",
          "name": "token",
          "type": "address"
        },
        {
          "internalType": "address",
          "name": "feed",
          "type": "address"
        }
      ],
      "name": "setPriceFeed",
      "outputs": [],
      "stateMutability": "nonpayable",
      "type": "function"
    },
    {
      "inputs": [
        {
          "internalType": "address",
          "name": "user",
          "type": "address"
        }
      ],
      "name": "startLiquidation",
      "outputs": [],
      "stateMutability": "nonpayable",
      "type": "function"
    },
    {
      "inputs": [
        {
          "internalType": "bytes4",
          "name": "interfaceId",
          "type": "bytes4"
        }
      ],
      "name": "supportsInterface",
      "outputs": [
        {
          "internalType": "bool",
          "name": "",
          "type": "bool"
        }
      ],
      "stateMutability": "view",
      "type": "function"
    },
    {
      "inputs": [],
      "name": "togglePause",
      "outputs": [],
      "stateMutability": "nonpayable",
      "type": "function"
    },
    {
      "inputs": [],
      "name": "totalFunds",
      "outputs": [
        {
          "internalType": "uint256",
          "name": "",
          "type": "uint256"
        }
      ],
      "stateMutability": "view",
      "type": "function"
    },
    {
      "inputs": [],
      "name": "totalLent",
      "outputs": [
        {
          "internalType": "uint256",
          "name": "",
          "type": "uint256"
        }
      ],
      "stateMutability": "view",
      "type": "function"
    },
    {
      "inputs": [
        {
          "internalType": "address",
          "name": "newOwner",
          "type": "address"
        }
      ],
      "name": "transferOwnership",
      "outputs": [],
      "stateMutability": "nonpayable",
      "type": "function"
    },
    {
      "inputs": [
        {
          "internalType": "address",
          "name": "",
          "type": "address"
        }
      ],
      "name": "userDebt",
      "outputs": [
        {
          "internalType": "uint256",
          "name": "",
          "type": "uint256"
        }
      ],
      "stateMutability": "view",
      "type": "function"
    },
    {
      "inputs": [
        {
          "internalType": "uint256",
          "name": "",
          "type": "uint256"
        }
      ],
      "name": "users",
      "outputs": [
        {
          "internalType": "address",
          "name": "",
          "type": "address"
        }
      ],
      "stateMutability": "view",
      "type": "function"
    },
    {
      "inputs": [
        {
          "internalType": "address",
          "name": "token",
          "type": "address"
        },
        {
          "internalType": "uint256",
          "name": "amount",
          "type": "uint256"
        }
      ],
      "name": "withdrawCollateral",
      "outputs": [],
      "stateMutability": "nonpayable",
      "type": "function"
    },
    {
      "stateMutability": "payable",
      "type": "receive"
    }
  ],
  "bytecode": "0x6080604052348015600f57600080fd5b50615f108061001f6000396000f3fe60806040526004361061072f5760003560e01c80638da5cb5b116103a6578063c4d66de8116101e7578063e03ff7cb1161010d578063e7602b9d116100ab578063f7e590ee1161007a578063f7e590ee14611615578063fccf6a1e14611642578063feedab0014610e9e578063ff778bc01461166f57600080fd5b8063e7602b9d1461158b578063f1c5d6c2146115c0578063f2fde38b146115e0578063f79790061461160057600080fd5b8063e1c50100116100e7578063e1c501001461152e578063e2842d791461154e578063e2c41dbc14611563578063e2e296791461156b57600080fd5b8063e03ff7cb146114e4578063e0498f52146114f9578063e11932cf1461150e57600080fd5b8063d277bbe611610185578063d69e905311610154578063d69e905314611479578063d70473101461148f578063d77d5ed6146114af578063d9379521146114c457600080fd5b8063d277bbe6146113e1578063d29255f9146113f6578063d3dd2bdf14611423578063d547741f1461145957600080fd5b8063cca43916116101c1578063cca4391614611370578063cf17622514611385578063cf309012146113a7578063cfdd0a67146113c157600080fd5b8063c4d66de81461131a578063c5ebeaec1461133a578063cc0785451461135a57600080fd5b8063ac911bd8116102cc578063b859791c1161026a578063c129d50411610239578063c129d504146112ac578063c1a287e2146112c1578063c23c69d5146112d8578063c4ae31681461130557600080fd5b8063b859791c1461124c578063b918ee2514611261578063bb50911d14611277578063bf8a1e131461129757600080fd5b8063b187bd26116102a6578063b187bd26146111cc578063b3a5a0a2146111e9578063b4e6e85e14611209578063b69e5c771461121f57600080fd5b8063ac911bd814611174578063ade2854d1461118a578063b1732b251461119f57600080fd5b8063968ed60011610344578063a217fddf11610313578063a217fddf146110d2578063a5d5db0c146110e7578063a8409cd214611107578063ab19f0951461112757600080fd5b8063968ed6001461106757806397ed81cf1461107d5780639b8621d51461109d5780639ee679e8146110b257600080fd5b80638f9de408116103805780638f9de40814610fe157806391d14854146110015780639490a51e1461102157806394e95da31461105157600080fd5b80638da5cb5b14610f805780638e6b53bc14610f955780638ee6eadc14610fcc57600080fd5b80634c8f35ab116105705780636e04ff0d1161049657806376e11286116104345780637c3a00fd116104035780637c3a00fd14610f1f5780637d795d5d14610f3557806382ee21fc14610f4a57806385b3978214610f6057600080fd5b806376e1128614610eb557806376e9894914610ed55780637b86e42c14610eea5780637c2e423214610f0a57600080fd5b8063715018a611610470578063715018a614610e0a5780637346f48614610e1f5780637491687e14610e4f57806374f0314f14610e9e57600080fd5b80636e04ff0d14610da75780636e9960c314610dd5578063704b6c0214610dea57600080fd5b80635b6cca801161050e578063696a0393116104dd578063696a039314610d245780636c648fc414610d515780636ce835f214610d715780636d7c218b14610d9157600080fd5b80635b6cca8014610ca55780635c975abb14610cc55780635f84f30214610ce45780636774983414610d0457600080fd5b80635257b5661161054a5780635257b56614610c30578063537dd93a14610c4557806355f4d9e214610c65578063561f425114610c8557600080fd5b80634c8f35ab14610bc05780634e38542914610bd557806352226ef014610beb57600080fd5b806328fd10d711610655578063365b98b2116105f3578063450a375a116105c2578063450a375a14610b4b5780634585e33b14610b6d57806345d0891314610b8d5780634c34a98214610ba357600080fd5b8063365b98b214610add578063402d888314610afd5780634046ebae14610b055780634484404114610b2b57600080fd5b806333ec339e1161062f57806333ec339e14610a68578063350c35e914610a8857806335981fd814610aa857806336568abe14610abd57600080fd5b806328fd10d71461097b5780632f2ff15d14610a2857806332aa9b6814610a4857600080fd5b80630fc0bbab116106cd5780631ea30fef1161069c5780631ea30fef146108bd5780631fd48b9a146108d857806321bf898514610926578063248a9ca31461095b57600080fd5b80630fc0bbab1461085e57806312065fe0146108745780631328a1d7146108875780631876b4151461089d57600080fd5b8063048851151161070957806304885115146107da578063080d9c2b146107fe5780630a26d59d1461081e5780630e30428d1461083e57600080fd5b806301c76f811461075357806301ffc9a714610775578063042e02cf146107aa57600080fd5b3661074e5734600a600082825461074691906155f4565b925050819055005b600080fd5b34801561075f57600080fd5b5061077361076e366004615623565b611685565b005b34801561078157600080fd5b5061079561079036600461563e565b6116bb565b60405190151581526020015b60405180910390f35b3480156107b657600080fd5b506107956107c5366004615623565b60056020526000908152604090205460ff1681565b3480156107e657600080fd5b506107f0600d5481565b6040519081526020016107a1565b34801561080a57600080fd5b50610773610819366004615668565b6116f2565b34801561082a57600080fd5b50610773610839366004615692565b611841565b34801561084a57600080fd5b50610773610859366004615668565b61184e565b34801561086a57600080fd5b506107f060125481565b34801561088057600080fd5b50476107f0565b34801561089357600080fd5b506107f0600f5481565b3480156108a957600080fd5b506107f06108b83660046156ab565b611944565b3480156108c957600080fd5b506107f0662386f26fc1000081565b3480156108e457600080fd5b5061090e6108f3366004615623565b6008602052600090815260409020546001600160a01b031681565b6040516001600160a01b0390911681526020016107a1565b34801561093257600080fd5b50610946610941366004615692565b6119b2565b604080519283526020830191909152016107a1565b34801561096757600080fd5b506107f0610976366004615692565b6119e0565b34801561098757600080fd5b506109e4610996366004615623565b60186020528060005260406000206000915090508060000154908060010154908060020154908060030154908060040154908060050154908060060154908060070154908060080154905089565b60408051998a5260208a0198909852968801959095526060870193909352608086019190915260a085015260c084015260e0830152610100820152610120016107a1565b348015610a3457600080fd5b50610773610a433660046156cd565b611a02565b348015610a5457600080fd5b506107f0610a63366004615623565b611a24565b348015610a7457600080fd5b50610773610a833660046156f9565b611aec565b348015610a9457600080fd5b50610773610aa3366004615668565b611c0e565b348015610ab457600080fd5b50610773611ee1565b348015610ac957600080fd5b50610773610ad83660046156cd565b612100565b348015610ae957600080fd5b5061090e610af8366004615692565b612133565b61077361215d565b348015610b1157600080fd5b50600b5461090e906201000090046001600160a01b031681565b348015610b3757600080fd5b50610773610b46366004615692565b6124ee565b348015610b5757600080fd5b50336000908152600360205260409020546107f0565b348015610b7957600080fd5b50610773610b88366004615725565b61253f565b348015610b9957600080fd5b506107f060135481565b348015610baf57600080fd5b506107f068056bc75e2d6310000081565b348015610bcc57600080fd5b506107f06125f7565b348015610be157600080fd5b506107f060105481565b348015610bf757600080fd5b506107f0610c06366004615799565b6001600160a01b038082166000908152602081815260408083209386168352929052205492915050565b348015610c3c57600080fd5b506016546107f0565b348015610c5157600080fd5b50610946610c60366004615692565b612611565b348015610c7157600080fd5b50610773610c803660046157d1565b6126a9565b348015610c9157600080fd5b50610773610ca0366004615692565b6127c3565b348015610cb157600080fd5b5061090e610cc0366004615623565b612812565b348015610cd157600080fd5b50600b5461079590610100900460ff1681565b348015610cf057600080fd5b50610773610cff366004615692565b612869565b348015610d1057600080fd5b50610773610d1f366004615692565b6128c0565b348015610d3057600080fd5b50610d44610d3f3660046156ab565b6128cd565b6040516107a19190615808565b348015610d5d57600080fd5b506107f0610d6c366004615623565b6129d3565b348015610d7d57600080fd5b50610773610d8c366004615692565b612a81565b348015610d9d57600080fd5b506107f060195481565b348015610db357600080fd5b50610dc7610dc2366004615725565b612ad3565b6040516107a192919061584b565b348015610de157600080fd5b5061090e612cf0565b348015610df657600080fd5b50610773610e05366004615623565b612cfa565b348015610e1657600080fd5b50610773612d6e565b348015610e2b57600080fd5b50610795610e3a366004615623565b60016020526000908152604090205460ff1681565b348015610e5b57600080fd5b50610e6f610e6a366004615623565b612d82565b6040516107a1959493929190948552602085019390935290151560408401526060830152608082015260a00190565b348015610eaa57600080fd5b506107f06201518081565b348015610ec157600080fd5b50610773610ed0366004615799565b612ea5565b348015610ee157600080fd5b506013546107f0565b348015610ef657600080fd5b506107f0610f05366004615623565b612f13565b348015610f1657600080fd5b506014546107f0565b348015610f2b57600080fd5b506107f060165481565b348015610f4157600080fd5b50600d546107f0565b348015610f5657600080fd5b506107f0601a5481565b348015610f6c57600080fd5b50610773610f7b366004615692565b612f41565b348015610f8c57600080fd5b5061090e613079565b348015610fa157600080fd5b50610fb5610fb0366004615623565b6130a7565b6040805192151583526020830191909152016107a1565b348015610fd857600080fd5b50600f546107f0565b348015610fed57600080fd5b50610773610ffc366004615692565b613128565b34801561100d57600080fd5b5061079561101c3660046156cd565b613135565b34801561102d57600080fd5b5061079561103c366004615623565b601f6020526000908152604090205460ff1681565b34801561105d57600080fd5b506107f0601b5481565b34801561107357600080fd5b506107f0600a5481565b34801561108957600080fd5b50610773611098366004615668565b61316d565b3480156110a957600080fd5b506107f0600581565b3480156110be57600080fd5b506107736110cd366004615692565b6132af565b3480156110de57600080fd5b506107f0600081565b3480156110f357600080fd5b50610773611102366004615668565b61343d565b34801561111357600080fd5b50610773611122366004615692565b6136be565b34801561113357600080fd5b50611147611142366004615623565b61370c565b604080519687526020870195909552938501929092526060840152608083015260a082015260c0016107a1565b34801561118057600080fd5b506107f0600c5481565b34801561119657600080fd5b50601d546107f0565b3480156111ab57600080fd5b506107f06111ba366004615623565b60076020526000908152604090205481565b3480156111d857600080fd5b50600b54610100900460ff16610795565b3480156111f557600080fd5b5061090e611204366004615692565b6137ff565b34801561121557600080fd5b506107f0600e5481565b34801561122b57600080fd5b506107f061123a366004615623565b60036020526000908152604090205481565b34801561125857600080fd5b50600e546107f0565b34801561126d57600080fd5b506107f060175481565b34801561128357600080fd5b50610773611292366004615692565b61380f565b3480156112a357600080fd5b506012546107f0565b3480156112b857600080fd5b506107f0608281565b3480156112cd57600080fd5b506107f06203f48081565b3480156112e457600080fd5b506107f06112f3366004615623565b60066020526000908152604090205481565b34801561131157600080fd5b5061077361381c565b34801561132657600080fd5b50610773611335366004615623565b613886565b34801561134657600080fd5b50610773611355366004615692565b613b0d565b34801561136657600080fd5b506107f060115481565b34801561137c57600080fd5b506107736140ea565b34801561139157600080fd5b5061139a61421a565b6040516107a191906158e7565b3480156113b357600080fd5b50600b546107959060ff1681565b3480156113cd57600080fd5b506107736113dc366004615692565b614361565b3480156113ed57600080fd5b506010546107f0565b34801561140257600080fd5b506107f0611411366004615623565b60046020526000908152604090205481565b34801561142f57600080fd5b506107f061143e366004615623565b6001600160a01b031660009081526002602052604090205490565b34801561146557600080fd5b506107736114743660046156cd565b61436e565b34801561148557600080fd5b506107f060155481565b34801561149b57600080fd5b506107956114aa366004615623565b61438a565b3480156114bb57600080fd5b506015546107f0565b3480156114d057600080fd5b506107736114df366004615692565b614436565b3480156114f057600080fd5b50610773614443565b34801561150557600080fd5b50600c546107f0565b34801561151a57600080fd5b506107f0611529366004615623565b6146a9565b34801561153a57600080fd5b50610773611549366004615623565b6147cd565b34801561155a57600080fd5b5061139a6148e2565b610773614944565b34801561157757600080fd5b50610773611586366004615623565b614bb0565b34801561159757600080fd5b506107f06115a6366004615799565b600060208181529281526040808220909352908152205481565b3480156115cc57600080fd5b506107f06115db366004615623565b614e4d565b3480156115ec57600080fd5b506107736115fb366004615623565b614f9d565b34801561160c57600080fd5b506011546107f0565b34801561162157600080fd5b506107f0611630366004615623565b60026020526000908152604090205481565b34801561164e57600080fd5b506107f061165d366004615692565b601c6020526000908152604090205481565b34801561167b57600080fd5b506107f060145481565b600061169081614fdb565b50600b80546001600160a01b03909216620100000262010000600160b01b0319909216919091179055565b60006001600160e01b03198216637965db0b60e01b14806116ec57506301ffc9a760e01b6001600160e01b03198316145b92915050565b3360009081526005602052604090205460ff166117565760405162461bcd60e51b815260206004820152601a60248201527f4163636f756e74206e6f7420696e206c69717569646174696f6e00000000000060448201526064015b60405180910390fd5b6040516323b872dd60e01b8152336004820152306024820152604481018290526001600160a01b038316906323b872dd906064016020604051808303816000875af11580156117a9573d6000803e3d6000fd5b505050506040513d601f19601f820116820180604052508101906117cd91906158fa565b506001600160a01b038216600090815260208181526040808320338452909152812080548392906117ff9084906155f4565b9091555060009050611810336130a7565b509050801561183c57336000908152600560209081526040808320805460ff1916905560069091528120555b505050565b611849614fe5565b601455565b611856614fe5565b6001600160a01b03821660009081526001602052604090205460ff1661188e5760405162461bcd60e51b815260040161174d90615917565b6010548111156118d85760405162461bcd60e51b8152602060048201526015602482015274115e18d959591cc81b585e081d1a1c995cda1bdb19605a1b604482015260640161174d565b606481116119285760405162461bcd60e51b815260206004820152601860248201527f5468726573686f6c64206d757374206265203e20313030250000000000000000604482015260640161174d565b6001600160a01b03909116600090815260076020526040902055565b60008061194f615017565b90508060005b8481101561198857670de0b6b3a7640000601a5483611974919061594e565b61197e9190615965565b9150600101611955565b508482611995838361594e565b61199f9190615965565b6119a99190615987565b95945050505050565b601d81815481106119c257600080fd5b60009182526020909120600290910201805460019091015490915082565b6000908152600080516020615ebb833981519152602052604090206001015490565b611a0b826119e0565b611a1481614fdb565b611a1e83836150bd565b50505050565b6001600160a01b038116600090815260186020908152604080832081516101208101835281548082526001830154948201949094526002820154928101929092526003810154606083015260048101546080830152600581015460a0830152600681015460c0830152600781015460e083015260080154610100820152908203611ab15750600092915050565b6000611abb615017565b8251606084015191925090611ad0838361594e565b611ada9190615965565b611ae49190615987565b949350505050565b611af4614fe5565b670de0b6b3a7640000811015611b405760405162461bcd60e51b815260206004820152601160248201527052617465206d757374206265203e3d203160781b604482015260640161174d565b601d548310611bc2576040805180820190915291825260208201908152601d805460018101825560009190915291517f6d4407e7be21f808e6509aa9fa9143369579dd7d760fe20a2c09680fc146134f600290930292830155517f6d4407e7be21f808e6509aa9fa9143369579dd7d760fe20a2c09680fc14613509091015550565b604051806040016040528083815260200182815250601d8481548110611bea57611bea61599a565b60009182526020918290208351600290920201908155910151600190910155505050565b6001600160a01b03821660009081526001602052604090205460ff16611c7357336001600160a01b0316600080516020615e9b833981519152604051611c53906159b0565b60405180910390a260405162461bcd60e51b815260040161174d906159b0565b6001600160a01b038216600090815260208181526040808320338452909152902054811115611ce157336001600160a01b0316600080516020615e9b833981519152604051611cc1906159db565b60405180910390a260405162461bcd60e51b815260040161174d906159db565b3360009081526005602052604090205460ff1615611d3e57336001600160a01b0316600080516020615e9b833981519152604051611d1e90615a09565b60405180910390a260405162461bcd60e51b815260040161174d90615a09565b6000670de0b6b3a7640000611d5284614e4d565b611d5c908461594e565b611d669190615965565b611d6f336129d3565b611d799190615987565b9050611d8483612f13565b33600090815260036020526040902054611d9e919061594e565b611da982606461594e565b1015611df457336001600160a01b0316600080516020615e9b833981519152604051611dd490615a40565b60405180910390a260405162461bcd60e51b815260040161174d90615a40565b6001600160a01b03831660009081526020818152604080832033845290915281208054849290611e25908490615987565b909155505060405163a9059cbb60e01b8152336004820152602481018390526001600160a01b0384169063a9059cbb906044016020604051808303816000875af1158015611e77573d6000803e3d6000fd5b505050506040513d601f19601f82011682018060405250810190611e9b91906158fa565b506040518281526001600160a01b0384169033907f45892a46e6cef329bb642da6d69846d324db43d19008edc141ed82382eda1bee9060200160405180910390a3505050565b600b54610100900460ff1615611f095760405162461bcd60e51b815260040161174d90615a92565b3360009081526018602052604081208054909103611fb257336001600160a01b0316600080516020615e9b833981519152604051611f6d90602080825260129082015271139bc8199d5b991cc819195c1bdcda5d195960721b604082015260600190565b60405180910390a260405162461bcd60e51b8152602060048201526012602482015271139bc8199d5b991cc819195c1bdcda5d195960721b604482015260640161174d565b611fbb33615162565b6004810154600081900361205e57336001600160a01b0316600080516020615e9b833981519152604051612017906020808252601490820152734e6f20696e74657265737420746f20636c61696d60601b604082015260600190565b60405180910390a260405162461bcd60e51b81526020600482015260146024820152734e6f20696e74657265737420746f20636c61696d60601b604482015260640161174d565b60008260040181905550806019600082825461207a9190615987565b9250508190555080600a60008282546120939190615987565b9091555050604051339082156108fc029083906000818181858888f193505050501580156120c5573d6000803e3d6000fd5b5060405181815233907ff9984c8173c4b4ff9cc454f76ed19c053f4490ccb224fd9ddffeb4ef4bea3530906020015b60405180910390a25050565b6001600160a01b03811633146121295760405163334bd91960e11b815260040160405180910390fd5b61183c8282615264565b601e818154811061214357600080fd5b6000918252602090912001546001600160a01b0316905081565b600b54610100900460ff16156121855760405162461bcd60e51b815260040161174d90615a92565b33600090815260036020526040812054900361222e57336001600160a01b0316600080516020615e9b8339815191526040516121e890602080825260139082015272139bc81bdd5d1cdd185b991a5b99c81919589d606a1b604082015260600190565b60405180910390a260405162461bcd60e51b8152602060048201526013602482015272139bc81bdd5d1cdd185b991a5b99c81919589d606a1b604482015260640161174d565b346000036122d357336001600160a01b0316600080516020615e9b833981519152604051612288906020808252601890820152774d7573742073656e642066756e647320746f20726570617960401b604082015260600190565b60405180910390a260405162461bcd60e51b81526020600482015260186024820152774d7573742073656e642066756e647320746f20726570617960401b604482015260640161174d565b60006122de336146a9565b33600090815260036020526040812054919250906122fd9083906155f4565b9050803411156123ae57336001600160a01b0316600080516020615e9b83398151915260405161235e906020808252601c908201527f52657061796d656e74206578636565647320746f74616c206465627400000000604082015260600190565b60405180910390a260405162461bcd60e51b815260206004820152601c60248201527f52657061796d656e74206578636565647320746f74616c206465627400000000604482015260640161174d565b6123b66152e0565b3482156123f65760008382116123cc57816123ce565b835b905080601960008282546123e291906155f4565b909155506123f290508183615987565b9150505b801561243a57336000908152600360205260408120805483929061241b908490615987565b92505081905550806019600082825461243491906155f4565b90915550505b34600a600082825461244c91906155f4565b909155505033600090815260036020526040812054900361247857336000908152600460205260408120555b3360009081526005602052604090205460ff16156124b357336000908152600560209081526040808320805460ff1916905560069091528120555b60405134815233907f0516911bcc3a0a7412a44601057c0a0a1ec628bde049a84284bc428866534488906020015b60405180910390a2505050565b6124f6614fe5565b606481111561253a5760405162461bcd60e51b815260206004820152601060248201526f0a0cadcc2d8e8f240e8dede40d0d2ced60831b604482015260640161174d565b600f55565b60008061254e83850185615ad4565b9150915060005b82518110156125e75760008382815181106125725761257261599a565b6020908102919091018101516001600160a01b0381166000908152600590925260409091205490915060ff16156125de576015546001600160a01b03821660009081526006602052604081205490916125ca916155f4565b90508042106125dc576125dc82614bb0565b505b50600101612555565b50804210611a1e57611a1e6152e0565b600080601054116126085750608290565b6010545b905090565b601d546000908190831061265c5760405162461bcd60e51b8152602060048201526012602482015271092dcecc2d8d2c840e8d2cae440d2dcc8caf60731b604482015260640161174d565b6000601d84815481106126715761267161599a565b600091825260209182902060408051808201909152600290920201805480835260019091015491909201819052909590945092505050565b6126b1614fe5565b6001600160a01b0382166000908152600160205260408120805460ff1916831515179055805b60095481101561272957836001600160a01b0316600982815481106126fe576126fe61599a565b6000918252602090912001546001600160a01b0316036127215760019150612729565b6001016126d7565b50818015612735575080155b1561278657600980546001810182556000919091527f6e1540171b6c0c960b71a7020d9f60077f6af931a8bbf590da0223dacf75c7af0180546001600160a01b0319166001600160a01b0385161790555b826001600160a01b03167f15f5cc64ca777db85f6c05fdba671568758b38329616d4d4b43bb8b092fe9a8d836040516124e1911515815260200190565b6127cb614fe5565b606481111561280d5760405162461bcd60e51b815260206004820152600e60248201526d084dedceae640e8dede40d0d2ced60931b604482015260640161174d565b600e55565b6001600160a01b03811660009081526001602052604081205460ff1661284a5760405162461bcd60e51b815260040161174d90615917565b506001600160a01b039081166000908152600860205260409020541690565b612871614fe5565b60648111156128bb5760405162461bcd60e51b8152602060048201526016602482015275092dce8cae4cae6e840e4c2e8ca40e8dede40d0d2ced60531b604482015260640161174d565b601655565b6128c8614fe5565b600c55565b6060828210156129145760405162461bcd60e51b8152602060048201526012602482015271496e76616c696420646174652072616e676560701b604482015260640161174d565b61291e8383615987565b6129299060016155f4565b67ffffffffffffffff81111561294157612941615abe565b60405190808252806020026020018201604052801561296a578160200160208202803683370190505b50905060005b61297a8484615987565b81116129cc57601c600061298e83876155f4565b8152602001908152602001600020548282815181106129af576129af61599a565b6020908102919091010152806129c481615bac565b915050612970565b5092915050565b600080806129df61421a565b905060005b8151811015612a78576000828281518110612a0157612a0161599a565b6020908102919091018101516001600160a01b0380821660009081528084526040808220928b16825291909352909120549091508015612a6e57670de0b6b3a7640000612a4d83614e4d565b612a57908361594e565b612a619190615965565b612a6b90866155f4565b94505b50506001016129e4565b50909392505050565b612a89614fe5565b6064811015612ace5760405162461bcd60e51b81526020600482015260116024820152705468726573686f6c6420746f6f206c6f7760781b604482015260640161174d565b601055565b600060606000612ae16148e2565b90506000815167ffffffffffffffff811115612aff57612aff615abe565b604051908082528060200260200182016040528015612b28578160200160208202803683370190505b5090506000805b8351811015612bf1576000848281518110612b4c57612b4c61599a565b6020908102919091018101516001600160a01b0381166000908152600590925260409091205490915060ff1615612be8576015546001600160a01b0382166000908152600660205260408120549091612ba4916155f4565b9050804210612be65781858581518110612bc057612bc061599a565b6001600160a01b039092166020928302919091019091015283612be281615bac565b9450505b505b50600101612b2f565b506000612bfc615317565b90504281111582151580612c0d5750805b15612cdf5760008367ffffffffffffffff811115612c2d57612c2d615abe565b604051908082528060200260200182016040528015612c56578160200160208202803683370190505b50905060005b84811015612cb057858181518110612c7657612c7661599a565b6020026020010151828281518110612c9057612c9061599a565b6001600160a01b0390921660209283029190910190910152600101612c5c565b50600197508083604051602001612cc8929190615bc5565b604051602081830303815290604052965050612ce4565b600096505b50505050509250929050565b600061260c613079565b612d02614fe5565b6001600160a01b038116612d4a5760405162461bcd60e51b815260206004820152600f60248201526e496e76616c6964206164647265737360881b604482015260640161174d565b612d53816153b3565b612d5e6000826150bd565b50612d6a600033615264565b5050565b612d76614fe5565b612d8060006153b3565b565b6001600160a01b03811660009081526018602090815260408083208151610120810183528154815260018201549381018490526002820154928101929092526003810154606083015260048101546080830152600581015460a0830152600681015460c0830152600781015460e083015260080154610100820152829182918291829190612e149062015180906155f4565b9550854210612e24576000612e3f565b6017548151606491612e359161594e565b612e3f9190615965565b9450854210159350620151808160e00151612e5a91906155f4565b815190935015612e9b576000612e6e615017565b8251606084015191925090612e83838361594e565b612e8d9190615965565b612e979190615987565b9250505b5091939590929450565b612ead614fe5565b6001600160a01b03821660009081526001602052604090205460ff16612ee55760405162461bcd60e51b815260040161174d90615917565b6001600160a01b03918216600090815260086020526040902080546001600160a01b03191691909216179055565b6001600160a01b03811660009081526007602052604081205480612f38576082612f3a565b805b9392505050565b612f49614fe5565b600b5460ff1615612f6c5760405162461bcd60e51b815260040161174d90615be7565b600b805460ff1916600117905547811115612fc95760405162461bcd60e51b815260206004820152601d60248201527f496e73756666696369656e7420636f6e74726163742062616c616e6365000000604482015260640161174d565b80600a6000828254612fdb9190615987565b90915550612fe99050613079565b6001600160a01b03166108fc829081150290604051600060405180830381858888f19350505050158015613021573d6000803e3d6000fd5b5061302a613079565b6001600160a01b03167f69c169e5c85af54e1ca7e16608ccc812437821387924fb3353a7d053264ddaa08260405161306491815260200190565b60405180910390a250600b805460ff19169055565b7f9016d09d72d40fdae2fd8ceac6b6234c7706214fd39c1cd1e609a0528c199300546001600160a01b031690565b60008060006130b5846129d3565b6001600160a01b0385166000908152600360205260408120549192508190036130e75750600194600019945092505050565b816000036130fc575060009485945092505050565b8061310883606461594e565b6131129190615965565b925061311c6125f7565b83101593505050915091565b613130614fe5565b601255565b6000918252600080516020615ebb833981519152602090815260408084206001600160a01b0393909316845291905290205460ff1690565b613175614fe5565b816001600160a01b0381166131cc5760405162461bcd60e51b815260206004820152601d60248201527f496e76616c696420616464726573733a207a65726f2061646472657373000000604482015260640161174d565b306001600160a01b0382160361321c5760405162461bcd60e51b815260206004820152601560248201527424b73b30b634b21030b2323932b9b99d1039b2b63360591b604482015260640161174d565b60648211156132625760405162461bcd60e51b815260206004820152601260248201527153636f7265206f7574206f662072616e676560701b604482015260640161174d565b6001600160a01b03831660008181526002602052604090819020849055517f4afae6838a181695abc7978598380d73bc2144eb38580c130f86e4b1e6531e15906124e19085815260200190565b600b54610100900460ff16156132d75760405162461bcd60e51b815260040161174d90615a92565b33600090815260186020526040902060088101546132f99062015180906155f4565b4210156133a757336001600160a01b0316600080516020615e9b833981519152604051613357906020808252601d908201527f4d757374207761697420666f7220636f6f6c646f776e20706572696f64000000604082015260600190565b60405180910390a260405162461bcd60e51b815260206004820152601d60248201527f4d757374207761697420666f7220636f6f6c646f776e20706572696f64000000604482015260640161174d565b80548211156133d557336001600160a01b0316600080516020615e9b833981519152604051611cc1906159db565b6133de33615162565b6005810182905542600682018190556008820181905533907f24b91f4f47caf44230a57777a9be744924e82bf666f2d5702faf97df35e60f9f9084906134289062015180906155f4565b604080519283526020830191909152016120f4565b6001600160a01b03821660009081526001602052604090205460ff1661348257336001600160a01b0316600080516020615e9b833981519152604051611c53906159b0565b8060000361351b57336001600160a01b0316600080516020615e9b8339815191526040516134d6906020808252601290820152710416d6f756e74206d757374206265203e20360741b604082015260600190565b60405180910390a260405162461bcd60e51b81526020600482015260126024820152710416d6f756e74206d757374206265203e20360741b604482015260640161174d565b3360009081526005602052604090205460ff161561355857336001600160a01b0316600080516020615e9b833981519152604051611d1e90615a09565b336000908152601f602052604090205460ff166135cc57336000818152601f60205260408120805460ff19166001908117909155601e805491820181559091527f50bb669a95c7b50b7e8a6f09454034b2b14cf2b85c730dca9a539ca82cb6e3500180546001600160a01b03191690911790555b6040516323b872dd60e01b8152336004820152306024820152604481018290526001600160a01b038316906323b872dd906064016020604051808303816000875af115801561361f573d6000803e3d6000fd5b505050506040513d601f19601f8201168201806040525081019061364391906158fa565b506001600160a01b038216600090815260208181526040808320338452909152812080548392906136759084906155f4565b90915550506040518181526001600160a01b0383169033907ff1c0dd7e9b98bbff859029005ef89b127af049cd18df1a8d79f0b7e019911e569060200160405180910390a35050565b6136c6614fe5565b60648110156137075760405162461bcd60e51b815260206004820152600d60248201526c526174696f20746f6f206c6f7760981b604482015260640161174d565b601355565b6001600160a01b03811660009081526018602090815260408083208151610120810183528154808252600183015494820185905260028301549382019390935260038201546060820152600482015460808201819052600583015460a0830152600683015460c0830152600783015460e083015260089092015461010082015291939290918391829182916137a59062015180906155f4565b60e0820151909350915086156137eb5760006137bf615017565b9050878260600151828a6137d3919061594e565b6137dd9190615965565b6137e79190615987565b9650505b6137f3615317565b93505091939550919395565b6009818154811061214357600080fd5b613817614fe5565b601555565b613824614fe5565b600b805460ff610100808304821615810261ff001990931692909217928390556040517f228f455d7bc3d0b24a3a08d7847f391c3e78fc8aeb83acf226b7a96ee162b8ac9361387c9390049091161515815260200190565b60405180910390a1565b6000613890615424565b805490915060ff600160401b820416159067ffffffffffffffff166000811580156138b85750825b905060008267ffffffffffffffff1660011480156138d55750303b155b9050811580156138e3575080155b156139015760405163f92ee8a960e01b815260040160405180910390fd5b845467ffffffffffffffff19166001178555831561392b57845460ff60401b1916600160401b1785555b6139348661544d565b61393c61545e565b613947600080615466565b6139526000876150bd565b50600019600c819055600d8190556014600e819055600a600f556096601081905562093a806011556012929092556013919091556202a30090556203f4806015556005601655670de12d4cc511c000601a556139b16201518042615965565b601b556005601755604080518082018252678ac7230489e800008152670de13f20401b60006020808301918252601d8054600181810183556000838152955160029283027f6d4407e7be21f808e6509aa9fa9143369579dd7d760fe20a2c09680fc146134f8181019290925595517f6d4407e7be21f808e6509aa9fa9143369579dd7d760fe20a2c09680fc14613509687015587518089018952674563918244f400008152670de13607f1a8c00081870190815285548085018755868a5291519185028084019290925551908701558751808901909852670de0b6b3a76400008852670de12d4cc511c00094880194855283549182018455929095529451939094029384019290925590519101558315613b0557845460ff60401b19168555604051600181527fc7f505b2f371ae2175ee4913f4499e1f2633a7b5936321eed1cdaeb6115181d29060200160405180910390a15b505050505050565b600b54610100900460ff1615613b355760405162461bcd60e51b815260040161174d90615a92565b600b5460ff1615613b585760405162461bcd60e51b815260040161174d90615be7565b600b805460ff191660011790556000819003613c1557336001600160a01b0316600080516020615e9b833981519152604051613bc5906020808252601d908201527f416d6f756e74206d7573742062652067726561746572207468616e2030000000604082015260600190565b60405180910390a260405162461bcd60e51b815260206004820152601d60248201527f416d6f756e74206d7573742062652067726561746572207468616e2030000000604482015260640161174d565b33600090815260026020526040902054603c1115613cc257336001600160a01b0316600080516020615e9b833981519152604051613c7b906020808252601490820152734372656469742073636f726520746f6f206c6f7760601b604082015260600190565b60405180910390a260405162461bcd60e51b81526020600482015260146024820152734372656469742073636f726520746f6f206c6f7760601b604482015260640161174d565b6002600a54613cd19190615965565b811115613d1d57336001600160a01b0316600080516020615e9b833981519152604051613cfd90615c0e565b60405180910390a260405162461bcd60e51b815260040161174d90615c0e565b600c54811115613dc657336001600160a01b0316600080516020615e9b833981519152604051613d7a90602080825260199082015278115e18d959591cc81b585e08189bdc9c9bddc8185b5bdd5b9d603a1b604082015260600190565b60405180910390a260405162461bcd60e51b8152602060048201526019602482015278115e18d959591cc81b585e08189bdc9c9bddc8185b5bdd5b9d603a1b604482015260640161174d565b3360009081526003602052604090205415613e8257336001600160a01b0316600080516020615e9b833981519152604051613e32906020808252601e908201527f526570617920796f7572206578697374696e6720646562742066697273740000604082015260600190565b60405180910390a260405162461bcd60e51b815260206004820152601e60248201527f526570617920796f7572206578697374696e6720646562742066697273740000604482015260640161174d565b336000908152601f602052604090205460ff16613ef657336000818152601f60205260408120805460ff19166001908117909155601e805491820181559091527f50bb669a95c7b50b7e8a6f09454034b2b14cf2b85c730dca9a539ca82cb6e3500180546001600160a01b03191690911790555b6000613f01336129d3565b9050600d54811115613fb457336001600160a01b0316600080516020615e9b833981519152604051613f64906020808252601d908201527f45786365656473206d617820636f6c6c61746572616c20616d6f756e74000000604082015260600190565b60405180910390a260405162461bcd60e51b815260206004820152601d60248201527f45786365656473206d617820636f6c6c61746572616c20616d6f756e74000000604482015260640161174d565b613fbf60828361594e565b613fca82606461594e565b101561401557336001600160a01b0316600080516020615e9b833981519152604051613ff590615c5e565b60405180910390a260405162461bcd60e51b815260040161174d90615c5e565b33600090815260036020526040812080548492906140349084906155f4565b92505081905550816019600082825461404d9190615987565b9250508190555081600a60008282546140669190615987565b9091555050336000818152600460205260408082204290555184156108fc0291859190818181858888f193505050501580156140a6573d6000803e3d6000fd5b5060405182815233907fac59582e5396aca512fa873a2047e7f4c80f8f55d4a06cb34a78a0187f62719f9060200160405180910390a25050600b805460ff19169055565b600b54610100900460ff16156141125760405162461bcd60e51b815260040161174d90615a92565b33600090815260186020526040812060058101549091036141d457336001600160a01b0316600080516020615e9b833981519152604051614184906020808252601f908201527f4e6f2070656e64696e67207769746864726177616c20746f2063616e63656c00604082015260600190565b60405180910390a260405162461bcd60e51b815260206004820152601f60248201527f4e6f2070656e64696e67207769746864726177616c20746f2063616e63656c00604482015260640161174d565b600581018054600091829055600683019190915560405181815233907f2eed97477f07c07ec48f8f678f4e84f7c0de55bf33f51c3dc989b13353080319906020016120f4565b60606000805b6009548110156142845760016000600983815481106142415761424161599a565b60009182526020808320909101546001600160a01b0316835282019290925260400190205460ff161561427c578161427881615bac565b9250505b600101614220565b5060008167ffffffffffffffff8111156142a0576142a0615abe565b6040519080825280602002602001820160405280156142c9578160200160208202803683370190505b5090506000805b600954811015612a78576000600982815481106142ef576142ef61599a565b60009182526020808320909101546001600160a01b0316808352600190915260409091205490915060ff161561435857808484815181106143325761433261599a565b6001600160a01b03909216602092830291909101909101528261435481615bac565b9350505b506001016142d0565b614369614fe5565b601155565b614377826119e0565b61438081614fdb565b611a1e8383615264565b6001600160a01b0381166000908152601860209081526040808320815161012081018352815481526001820154938101939093526002810154918301919091526003810154606083015260048101546080830152600581015460a08301819052600682015460c0840152600782015460e084015260089091015461010083015282036144195750600092915050565b620151808160c0015161442c91906155f4565b4210159392505050565b61443e614fe5565b600d55565b600b54610100900460ff161561446b5760405162461bcd60e51b815260040161174d90615a92565b600b5460ff161561448e5760405162461bcd60e51b815260040161174d90615be7565b600b805460ff19166001179055336000908152601860205260408120600581015490910361454d57336001600160a01b0316600080516020615e9b83398151915260405161450590602080825260159082015274139bc81c195b991a5b99c81dda5d1a191c985dd85b605a1b604082015260600190565b60405180910390a260405162461bcd60e51b8152602060048201526015602482015274139bc81c195b991a5b99c81dda5d1a191c985dd85b605a1b604482015260640161174d565b600581015460018201546000906145689062015180906155f4565b4210156145ce5760646017548361457f919061594e565b6145899190615965565b90506145958183615987565b60405182815290925033907fb6a45448c8250adf8d836e047d46f96410d632c7089720e3aed88fcb76644ded9060200160405180910390a25b6145d881836155f4565b8360000160008282546145eb9190615987565b909155506145fb905081836155f4565b6019600082825461460c9190615987565b9250508190555081600a60008282546146259190615987565b9091555050600060058401819055604051339184156108fc02918591818181858888f1935050505015801561465e573d6000803e3d6000fd5b50604080518381526020810183905233917ffbc3a599b784fe88772fc5abcc07223f64ca0b13acc341f4fb1e46bef0510eb4910160405180910390a25050600b805460ff1916905550565b6001600160a01b038116600090815260186020908152604080832081516101208101835281548082526001830154948201949094526002820154928101929092526003810154606083015260048101546080830152600581015460a0830152600681015460c0830152600781015460e0830152600801546101008201529082036147365750600092915050565b6000614740615017565b90506000620151808360400151426147589190615987565b6147629190615965565b905080156147c5578251606084015161477b848361594e565b6147859190615965565b61478f9190615987565b935060005b818110156147c357670de0b6b3a76400006147af848761594e565b6147b99190615965565b9450600101614794565b505b505050919050565b60006147d8826130a7565b509050801561481f5760405162461bcd60e51b8152602060048201526013602482015272506f736974696f6e206973206865616c74687960681b604482015260640161174d565b6001600160a01b03821660009081526005602052604090205460ff16156148885760405162461bcd60e51b815260206004820152601b60248201527f4c69717569646174696f6e20616c726561647920737461727465640000000000604482015260640161174d565b6001600160a01b0382166000818152600560209081526040808320805460ff191660011790556006909152808220429055517f7f62ed89ea2c6fb057e4ea77729c1d3f18056339791fce29ac89760197b45b299190a25050565b6060601e80548060200260200160405190810160405280929190818152602001828054801561493a57602002820191906000526020600020905b81546001600160a01b0316815260019091019060200180831161491c575b5050505050905090565b600b54610100900460ff161561496c5760405162461bcd60e51b815260040161174d90615a92565b662386f26fc10000341015614a1457336001600160a01b0316600080516020615e9b8339815191526040516149cb906020808252601690820152754465706f73697420616d6f756e7420746f6f206c6f7760501b604082015260600190565b60405180910390a260405162461bcd60e51b81526020600482015260166024820152754465706f73697420616d6f756e7420746f6f206c6f7760501b604482015260640161174d565b3360009081526018602052604090205468056bc75e2d6310000090614a3990346155f4565b1115614a8457336001600160a01b0316600080516020615e9b833981519152604051614a6490615ca3565b60405180910390a260405162461bcd60e51b815260040161174d90615ca3565b33600081815260186020526040902090614a9d90615162565b8054600003614b2d57614aae615017565b6003820155426001820155336000908152601f602052604090205460ff16614b2d57336000818152601f60205260408120805460ff19166001908117909155601e805491820181559091527f50bb669a95c7b50b7e8a6f09454034b2b14cf2b85c730dca9a539ca82cb6e3500180546001600160a01b03191690911790555b34816000016000828254614b4191906155f4565b925050819055503460196000828254614b5a91906155f4565b9250508190555034600a6000828254614b7391906155f4565b909155505060405134815233907f543ba50a5eec5e6178218e364b1d0f396157b3c8fa278522c2cb7fd99407d4749060200160405180910390a250565b6001600160a01b03811660009081526005602052604090205460ff16614c235760405162461bcd60e51b815260206004820152602260248201527f4163636f756e74206e6f74206d61726b656420666f72206c697175696461746960448201526137b760f11b606482015260840161174d565b6001600160a01b038116600090815260066020526040902054614c4a906203f480906155f4565b421015614c925760405162461bcd60e51b815260206004820152601660248201527511dc9858d9481c195c9a5bd9081b9bdd08195b99195960521b604482015260640161174d565b6001600160a01b038116600090815260036020526040812054906064614cb960058461594e565b614cc39190615965565b90506000614cd182846155f4565b90506000614cdd61421a565b905060005b8151811015614dd0576000828281518110614cff57614cff61599a565b6020908102919091018101516001600160a01b0380821660009081528084526040808220928c16825291909352909120549091508015614dc6576001600160a01b03828116600081815260208181526040808320948d16835293905282812055905163a9059cbb60e01b81523360048201526024810183905263a9059cbb906044016020604051808303816000875af1158015614da0573d6000803e3d6000fd5b505050506040513d601f19601f82011682018060405250810190614dc491906158fa565b505b5050600101614ce2565b506001600160a01b03851660008181526003602090815260408083208390556004825280832083905560058252808320805460ff19169055600682528083209290925590518481523392917f1175522017e08c2f400d7e516608eff60816ee9e8319158d174321234b602631910160405180910390a35050505050565b6001600160a01b0380821660009081526008602052604081205490911680614eac5760405162461bcd60e51b8152602060048201526012602482015271141c9a58d94819995959081b9bdd081cd95d60721b604482015260640161174d565b60008190506000816001600160a01b031663feaf968c6040518163ffffffff1660e01b815260040160a060405180830381865afa158015614ef1573d6000803e3d6000fd5b505050506040513d601f19601f82011682018060405250810190614f159190615cff565b505050915050816001600160a01b031663313ce5676040518163ffffffff1660e01b8152600401602060405180830381865afa158015614f59573d6000803e3d6000fd5b505050506040513d601f19601f82011682018060405250810190614f7d9190615d51565b614f88906012615d74565b614f9390600a615e74565b6119a9908261594e565b614fa5614fe5565b6001600160a01b038116614fcf57604051631e4fbdf760e01b81526000600482015260240161174d565b614fd8816153b3565b50565b614fd881336154c9565b33614fee613079565b6001600160a01b031614612d805760405163118cdaa760e01b815233600482015260240161174d565b6000806150276201518042615965565b90506000601b54826150399190615987565b905080600003615075576000828152601c602052604090205461505e57601a5461506e565b6000828152601c60205260409020545b9250505090565b601a5460005b828110156150b557670de0b6b3a7640000615097601954615502565b6150a1908461594e565b6150ab9190615965565b915060010161507b565b509392505050565b6000600080516020615ebb8339815191526150d88484613135565b615158576000848152602082815260408083206001600160a01b03871684529091529020805460ff1916600117905561510e3390565b6001600160a01b0316836001600160a01b0316857f2f8788117e7eff1d82e926ec794901d17c78024a50270940304540a733656f0d60405160405180910390a460019150506116ec565b60009150506116ec565b6001600160a01b03811660009081526018602052604081208054909103615187575050565b6000615191615017565b825460038401549192506000916151a8848361594e565b6151b29190615965565b6151bc9190615987565b9050801561525457808360040160008282546151d891906155f4565b90915550508254819084906000906151f19084906155f4565b92505081905550806019600082825461520a91906155f4565b90915550504260078401556040518181526001600160a01b038516907f65724bab62e2b372c625ed834016c4e1750f8074aad18b22844457f35ea61d739060200160405180910390a25b5060038201554260029091015550565b6000600080516020615ebb83398151915261527f8484613135565b15615158576000848152602082815260408083206001600160a01b0387168085529252808320805460ff1916905551339287917ff6391f5c32d9c69d2a47ea670b442974b53935d1edc7fd64eb21e047a839171b9190a460019150506116ec565b60006152ef6201518042615965565b9050601b54811115614fd857615303615017565b6000828152601c6020526040902055601b55565b33600090815260186020908152604080832081516101208101835281548082526001830154948201949094526002820154928101929092526003810154606083015260048101546080830152600581015460a0830152600681015460c0830152600781015460e08301526008015461010082015290820361539a57600091505090565b620151808160e001516153ad91906155f4565b91505090565b7f9016d09d72d40fdae2fd8ceac6b6234c7706214fd39c1cd1e609a0528c19930080546001600160a01b031981166001600160a01b03848116918217845560405192169182907f8be0079c531659141344cd1fd0a4f28419497f9722a3daafe3b4186f6b6457e090600090a3505050565b6000807ff0c57e16840df040f15088dc2f81fe391c3923bec73e23a9662efc9c229c6a006116ec565b615455615597565b614fd8816155bc565b612d80615597565b600080516020615ebb8339815191526000615480846119e0565b600085815260208490526040808220600101869055519192508491839187917fbd79b86ffe0ab8e8776151514217cd7cacd52c909f66475c3af44e129f0b00ff9190a450505050565b6154d38282613135565b612d6a5760405163e2517d3f60e01b81526001600160a01b03821660048201526024810183905260440161174d565b601d546000905b801561558d57601d61551c600183615987565b8154811061552c5761552c61599a565b906000526020600020906002020160000154831061557b57601d615551600183615987565b815481106155615761556161599a565b906000526020600020906002020160010154915050919050565b8061558581615e83565b915050615509565b5050601a54919050565b61559f6155c4565b612d8057604051631afcd79f60e31b815260040160405180910390fd5b614fa5615597565b60006155ce615424565b54600160401b900460ff16919050565b634e487b7160e01b600052601160045260246000fd5b808201808211156116ec576116ec6155de565b80356001600160a01b038116811461561e57600080fd5b919050565b60006020828403121561563557600080fd5b612f3a82615607565b60006020828403121561565057600080fd5b81356001600160e01b031981168114612f3a57600080fd5b6000806040838503121561567b57600080fd5b61568483615607565b946020939093013593505050565b6000602082840312156156a457600080fd5b5035919050565b600080604083850312156156be57600080fd5b50508035926020909101359150565b600080604083850312156156e057600080fd5b823591506156f060208401615607565b90509250929050565b60008060006060848603121561570e57600080fd5b505081359360208301359350604090920135919050565b6000806020838503121561573857600080fd5b823567ffffffffffffffff81111561574f57600080fd5b8301601f8101851361576057600080fd5b803567ffffffffffffffff81111561577757600080fd5b85602082840101111561578957600080fd5b6020919091019590945092505050565b600080604083850312156157ac57600080fd5b6157b583615607565b91506156f060208401615607565b8015158114614fd857600080fd5b600080604083850312156157e457600080fd5b6157ed83615607565b915060208301356157fd816157c3565b809150509250929050565b602080825282518282018190526000918401906040840190835b81811015615840578351835260209384019390920191600101615822565b509095945050505050565b8215158152604060208201526000825180604084015260005b818110156158815760208186018101516060868401015201615864565b506000606082850101526060601f19601f8301168401019150509392505050565b600081518084526020840193506020830160005b828110156158dd5781516001600160a01b03168652602095860195909101906001016158b6565b5093949350505050565b602081526000612f3a60208301846158a2565b60006020828403121561590c57600080fd5b8151612f3a816157c3565b6020808252601f908201527f546f6b656e206e6f7420616c6c6f77656420617320636f6c6c61746572616c00604082015260600190565b80820281158282048414176116ec576116ec6155de565b60008261598257634e487b7160e01b600052601260045260246000fd5b500490565b818103818111156116ec576116ec6155de565b634e487b7160e01b600052603260045260246000fd5b602080825260119082015270151bdad95b881b9bdd08185b1b1bddd959607a1b604082015260600190565b602080825260149082015273496e73756666696369656e742062616c616e636560601b604082015260600190565b60208082526019908201527f4163636f756e7420697320696e206c69717569646174696f6e00000000000000604082015260600190565b60208082526032908201527f5769746864726177616c20776f756c64206d616b6520706f736974696f6e20756040820152711b99195c98dbdb1b185d195c985b1a5e995960721b606082015260800190565b60208082526012908201527110dbdb9d1c9858dd081a5cc81c185d5cd95960721b604082015260600190565b634e487b7160e01b600052604160045260246000fd5b60008060408385031215615ae757600080fd5b823567ffffffffffffffff811115615afe57600080fd5b8301601f81018513615b0f57600080fd5b803567ffffffffffffffff811115615b2957615b29615abe565b8060051b604051601f19603f830116810181811067ffffffffffffffff82111715615b5657615b56615abe565b604052918252602081840181019290810188841115615b7457600080fd5b6020850194505b83851015615b9a57615b8c85615607565b815260209485019401615b7b565b50976020969096013596505050505050565b600060018201615bbe57615bbe6155de565b5060010190565b604081526000615bd860408301856158a2565b90508260208301529392505050565b6020808252600d908201526c4e6f207265656e7472616e637960981b604082015260600190565b60208082526030908201527f426f72726f7720616d6f756e74206578636565647320617661696c61626c652060408201526f6c656e64696e6720636170616369747960801b606082015260800190565b60208082526025908201527f496e73756666696369656e7420636f6c6c61746572616c20666f722074686973604082015264103637b0b760d91b606082015260800190565b60208082526022908201527f4465706f73697420776f756c6420657863656564206d6178696d756d206c696d6040820152611a5d60f21b606082015260800190565b805169ffffffffffffffffffff8116811461561e57600080fd5b600080600080600060a08688031215615d1757600080fd5b615d2086615ce5565b60208701516040880151606089015192975090955093509150615d4560808701615ce5565b90509295509295909350565b600060208284031215615d6357600080fd5b815160ff81168114612f3a57600080fd5b60ff82811682821603908111156116ec576116ec6155de565b6001815b6001841115615dc857808504811115615dac57615dac6155de565b6001841615615dba57908102905b60019390931c928002615d91565b935093915050565b600082615ddf575060016116ec565b81615dec575060006116ec565b8160018114615e025760028114615e0c57615e28565b60019150506116ec565b60ff841115615e1d57615e1d6155de565b50506001821b6116ec565b5060208310610133831016604e8410600b8410161715615e4b575081810a6116ec565b615e586000198484615d8d565b8060001904821115615e6c57615e6c6155de565b029392505050565b6000612f3a60ff841683615dd0565b600081615e9257615e926155de565b50600019019056fe3c364b9decdac59fbe037e99687219ac0feed46572bfbcbd5284b6b8e67f402d02dd7bc7dec4dceedda775e58dd541e08a116c6c53815c0bd028192f7b626800a2646970667358221220ad999ab60d31fb6d4bb73d5efe8fbf9ea166b35f518618eb15cc3d0f9a758c0664736f6c634300081c0033",
  "linkReferences": {},
  "deployedLinkReferences": {}
}