{
  "_format": "hh-sol-artifact-1",
  "contractName": "LiquidityPoolV3",
  "sourceName": "contracts/LiquidityPoolV3.sol",
  "abi": [
    {
      "inputs": [],
      "name": "AccessControlBadConfirmation",
      "type": "error"
    },
    {
      "inputs": [
        {
          "internalType": "address",
          "name": "account",
          "type": "address"
        },
        {
          "internalType": "bytes32",
          "name": "neededRole",
          "type": "bytes32"
        }
      ],
      "name": "AccessControlUnauthorizedAccount",
      "type": "error"
    },
    {
      "inputs": [],
      "name": "InvalidInitialization",
      "type": "error"
    },
    {
      "inputs": [],
      "name": "NotInitializing",
      "type": "error"
    },
    {
      "inputs": [
        {
          "internalType": "address",
          "name": "owner",
          "type": "address"
        }
      ],
      "name": "OwnableInvalidOwner",
      "type": "error"
    },
    {
      "inputs": [
        {
          "internalType": "address",
          "name": "account",
          "type": "address"
        }
      ],
      "name": "OwnableUnauthorizedAccount",
      "type": "error"
    },
    {
      "anonymous": false,
      "inputs": [
        {
          "indexed": true,
          "internalType": "address",
          "name": "user",
          "type": "address"
        },
        {
          "indexed": false,
          "internalType": "uint256",
          "name": "amount",
          "type": "uint256"
        }
      ],
      "name": "Borrowed",
      "type": "event"
    },
    {
      "anonymous": false,
      "inputs": [
        {
          "indexed": true,
          "internalType": "address",
          "name": "user",
          "type": "address"
        },
        {
          "indexed": true,
          "internalType": "address",
          "name": "token",
          "type": "address"
        },
        {
          "indexed": false,
          "internalType": "uint256",
          "name": "amount",
          "type": "uint256"
        }
      ],
      "name": "CollateralDeposited",
      "type": "event"
    },
    {
      "anonymous": false,
      "inputs": [
        {
          "indexed": true,
          "internalType": "address",
          "name": "token",
          "type": "address"
        },
        {
          "indexed": false,
          "internalType": "bool",
          "name": "isAllowed",
          "type": "bool"
        }
      ],
      "name": "CollateralTokenStatusChanged",
      "type": "event"
    },
    {
      "anonymous": false,
      "inputs": [
        {
          "indexed": true,
          "internalType": "address",
          "name": "user",
          "type": "address"
        },
        {
          "indexed": true,
          "internalType": "address",
          "name": "token",
          "type": "address"
        },
        {
          "indexed": false,
          "internalType": "uint256",
          "name": "amount",
          "type": "uint256"
        }
      ],
      "name": "CollateralWithdrawn",
      "type": "event"
    },
    {
      "anonymous": false,
      "inputs": [
        {
          "indexed": true,
          "internalType": "address",
          "name": "user",
          "type": "address"
        },
        {
          "indexed": false,
          "internalType": "uint256",
          "name": "score",
          "type": "uint256"
        }
      ],
      "name": "CreditScoreAssigned",
      "type": "event"
    },
    {
      "anonymous": false,
      "inputs": [
        {
          "indexed": false,
          "internalType": "bool",
          "name": "isPaused",
          "type": "bool"
        }
      ],
      "name": "EmergencyPaused",
      "type": "event"
    },
    {
      "anonymous": false,
      "inputs": [
        {
          "indexed": true,
          "internalType": "address",
          "name": "owner",
          "type": "address"
        },
        {
          "indexed": false,
          "internalType": "uint256",
          "name": "amount",
          "type": "uint256"
        }
      ],
      "name": "Extracted",
      "type": "event"
    },
    {
      "anonymous": false,
      "inputs": [
        {
          "indexed": true,
          "internalType": "address",
          "name": "user",
          "type": "address"
        },
        {
          "indexed": false,
          "internalType": "uint256",
          "name": "newDeadline",
          "type": "uint256"
        }
      ],
      "name": "GracePeriodExtended",
      "type": "event"
    },
    {
      "anonymous": false,
      "inputs": [
        {
          "indexed": false,
          "internalType": "uint64",
          "name": "version",
          "type": "uint64"
        }
      ],
      "name": "Initialized",
      "type": "event"
    },
    {
      "anonymous": false,
      "inputs": [
        {
          "indexed": true,
          "internalType": "address",
          "name": "user",
          "type": "address"
        },
        {
          "indexed": true,
          "internalType": "address",
          "name": "liquidator",
          "type": "address"
        },
        {
          "indexed": false,
          "internalType": "uint256",
          "name": "amount",
          "type": "uint256"
        }
      ],
      "name": "LiquidationExecuted",
      "type": "event"
    },
    {
      "anonymous": false,
      "inputs": [
        {
          "indexed": true,
          "internalType": "address",
          "name": "user",
          "type": "address"
        }
      ],
      "name": "LiquidationStarted",
      "type": "event"
    },
    {
      "anonymous": false,
      "inputs": [
        {
          "indexed": true,
          "internalType": "address",
          "name": "previousOwner",
          "type": "address"
        },
        {
          "indexed": true,
          "internalType": "address",
          "name": "newOwner",
          "type": "address"
        }
      ],
      "name": "OwnershipTransferred",
      "type": "event"
    },
    {
      "anonymous": false,
      "inputs": [
        {
          "indexed": true,
          "internalType": "address",
          "name": "user",
          "type": "address"
        },
        {
          "indexed": false,
          "internalType": "uint256",
          "name": "amount",
          "type": "uint256"
        }
      ],
      "name": "Repaid",
      "type": "event"
    },
    {
      "anonymous": false,
      "inputs": [
        {
          "indexed": true,
          "internalType": "bytes32",
          "name": "role",
          "type": "bytes32"
        },
        {
          "indexed": true,
          "internalType": "bytes32",
          "name": "previousAdminRole",
          "type": "bytes32"
        },
        {
          "indexed": true,
          "internalType": "bytes32",
          "name": "newAdminRole",
          "type": "bytes32"
        }
      ],
      "name": "RoleAdminChanged",
      "type": "event"
    },
    {
      "anonymous": false,
      "inputs": [
        {
          "indexed": true,
          "internalType": "bytes32",
          "name": "role",
          "type": "bytes32"
        },
        {
          "indexed": true,
          "internalType": "address",
          "name": "account",
          "type": "address"
        },
        {
          "indexed": true,
          "internalType": "address",
          "name": "sender",
          "type": "address"
        }
      ],
      "name": "RoleGranted",
      "type": "event"
    },
    {
      "anonymous": false,
      "inputs": [
        {
          "indexed": true,
          "internalType": "bytes32",
          "name": "role",
          "type": "bytes32"
        },
        {
          "indexed": true,
          "internalType": "address",
          "name": "account",
          "type": "address"
        },
        {
          "indexed": true,
          "internalType": "address",
          "name": "sender",
          "type": "address"
        }
      ],
      "name": "RoleRevoked",
      "type": "event"
    },
    {
      "anonymous": false,
      "inputs": [
        {
          "indexed": true,
          "internalType": "address",
          "name": "user",
          "type": "address"
        },
        {
          "indexed": false,
          "internalType": "string",
          "name": "message",
          "type": "string"
        }
      ],
      "name": "UserError",
      "type": "event"
    },
    {
      "inputs": [],
      "name": "DEFAULT_ADMIN_ROLE",
      "outputs": [
        {
          "internalType": "bytes32",
          "name": "",
          "type": "bytes32"
        }
      ],
      "stateMutability": "view",
      "type": "function"
    },
    {
      "inputs": [],
      "name": "DEFAULT_LIQUIDATION_THRESHOLD",
      "outputs": [
        {
          "internalType": "uint256",
          "name": "",
          "type": "uint256"
        }
      ],
      "stateMutability": "view",
      "type": "function"
    },
    {
      "inputs": [],
      "name": "GRACE_PERIOD",
      "outputs": [
        {
          "internalType": "uint256",
          "name": "",
          "type": "uint256"
        }
      ],
      "stateMutability": "view",
      "type": "function"
    },
    {
      "inputs": [],
      "name": "LIQUIDATION_PENALTY",
      "outputs": [
        {
          "internalType": "uint256",
          "name": "",
          "type": "uint256"
        }
      ],
      "stateMutability": "view",
      "type": "function"
    },
    {
      "inputs": [
        {
          "internalType": "uint256",
          "name": "amount",
          "type": "uint256"
        }
      ],
      "name": "borrow",
      "outputs": [],
      "stateMutability": "nonpayable",
      "type": "function"
    },
    {
      "inputs": [
        {
          "internalType": "address",
          "name": "",
          "type": "address"
        }
      ],
      "name": "borrowTimestamp",
      "outputs": [
        {
          "internalType": "uint256",
          "name": "",
          "type": "uint256"
        }
      ],
      "stateMutability": "view",
      "type": "function"
    },
    {
      "inputs": [
        {
          "internalType": "address",
          "name": "user",
          "type": "address"
        }
      ],
      "name": "checkCollateralization",
      "outputs": [
        {
          "internalType": "bool",
          "name": "isHealthy",
          "type": "bool"
        },
        {
          "internalType": "uint256",
          "name": "ratio",
          "type": "uint256"
        }
      ],
      "stateMutability": "view",
      "type": "function"
    },
    {
      "inputs": [
        {
          "internalType": "bytes",
          "name": "",
          "type": "bytes"
        }
      ],
      "name": "checkUpkeep",
      "outputs": [
        {
          "internalType": "bool",
          "name": "upkeepNeeded",
          "type": "bool"
        },
        {
          "internalType": "bytes",
          "name": "performData",
          "type": "bytes"
        }
      ],
      "stateMutability": "view",
      "type": "function"
    },
    {
      "inputs": [
        {
          "internalType": "address",
          "name": "",
          "type": "address"
        },
        {
          "internalType": "address",
          "name": "",
          "type": "address"
        }
      ],
      "name": "collateralBalance",
      "outputs": [
        {
          "internalType": "uint256",
          "name": "",
          "type": "uint256"
        }
      ],
      "stateMutability": "view",
      "type": "function"
    },
    {
      "inputs": [
        {
          "internalType": "uint256",
          "name": "",
          "type": "uint256"
        }
      ],
      "name": "collateralTokenList",
      "outputs": [
        {
          "internalType": "address",
          "name": "",
          "type": "address"
        }
      ],
      "stateMutability": "view",
      "type": "function"
    },
    {
      "inputs": [
        {
          "internalType": "address",
          "name": "",
          "type": "address"
        }
      ],
      "name": "creditScore",
      "outputs": [
        {
          "internalType": "uint256",
          "name": "",
          "type": "uint256"
        }
      ],
      "stateMutability": "view",
      "type": "function"
    },
    {
      "inputs": [
        {
          "internalType": "address",
          "name": "token",
          "type": "address"
        },
        {
          "internalType": "uint256",
          "name": "amount",
          "type": "uint256"
        }
      ],
      "name": "depositCollateral",
      "outputs": [],
      "stateMutability": "nonpayable",
      "type": "function"
    },
    {
      "inputs": [
        {
          "internalType": "address",
          "name": "user",
          "type": "address"
        }
      ],
      "name": "executeLiquidation",
      "outputs": [],
      "stateMutability": "nonpayable",
      "type": "function"
    },
    {
      "inputs": [
        {
          "internalType": "uint256",
          "name": "amount",
          "type": "uint256"
        }
      ],
      "name": "extract",
      "outputs": [],
      "stateMutability": "nonpayable",
      "type": "function"
    },
    {
      "inputs": [],
      "name": "getAdmin",
      "outputs": [
        {
          "internalType": "address",
          "name": "",
          "type": "address"
        }
      ],
      "stateMutability": "view",
      "type": "function"
    },
    {
      "inputs": [],
      "name": "getAllUsers",
      "outputs": [
        {
          "internalType": "address[]",
          "name": "",
          "type": "address[]"
        }
      ],
      "stateMutability": "view",
      "type": "function"
    },
    {
      "inputs": [],
      "name": "getAllowedCollateralTokens",
      "outputs": [
        {
          "internalType": "address[]",
          "name": "",
          "type": "address[]"
        }
      ],
      "stateMutability": "view",
      "type": "function"
    },
    {
      "inputs": [],
      "name": "getBalance",
      "outputs": [
        {
          "internalType": "uint256",
          "name": "",
          "type": "uint256"
        }
      ],
      "stateMutability": "view",
      "type": "function"
    },
    {
      "inputs": [
        {
          "internalType": "address",
          "name": "user",
          "type": "address"
        },
        {
          "internalType": "address",
          "name": "token",
          "type": "address"
        }
      ],
      "name": "getCollateral",
      "outputs": [
        {
          "internalType": "uint256",
          "name": "",
          "type": "uint256"
        }
      ],
      "stateMutability": "view",
      "type": "function"
    },
    {
      "inputs": [
        {
          "internalType": "address",
          "name": "user",
          "type": "address"
        }
      ],
      "name": "getCreditScore",
      "outputs": [
        {
          "internalType": "uint256",
          "name": "",
          "type": "uint256"
        }
      ],
      "stateMutability": "view",
      "type": "function"
    },
    {
      "inputs": [
        {
          "internalType": "address",
          "name": "token",
          "type": "address"
        }
      ],
      "name": "getLiquidationThreshold",
      "outputs": [
        {
          "internalType": "uint256",
          "name": "",
          "type": "uint256"
        }
      ],
      "stateMutability": "view",
      "type": "function"
    },
    {
      "inputs": [
        {
          "internalType": "address",
          "name": "user",
          "type": "address"
        },
        {
          "internalType": "address",
          "name": "token",
          "type": "address"
        }
      ],
      "name": "getMaxBorrowAmount",
      "outputs": [
        {
          "internalType": "uint256",
          "name": "",
          "type": "uint256"
        }
      ],
      "stateMutability": "view",
      "type": "function"
    },
    {
      "inputs": [],
      "name": "getMinCollateralRatio",
      "outputs": [
        {
          "internalType": "uint256",
          "name": "",
          "type": "uint256"
        }
      ],
      "stateMutability": "pure",
      "type": "function"
    },
    {
      "inputs": [],
      "name": "getMyDebt",
      "outputs": [
        {
          "internalType": "uint256",
          "name": "",
          "type": "uint256"
        }
      ],
      "stateMutability": "view",
      "type": "function"
    },
    {
      "inputs": [
        {
          "internalType": "address",
          "name": "token",
          "type": "address"
        }
      ],
      "name": "getPriceFeed",
      "outputs": [
        {
          "internalType": "address",
          "name": "",
          "type": "address"
        }
      ],
      "stateMutability": "view",
      "type": "function"
    },
    {
      "inputs": [
        {
          "internalType": "bytes32",
          "name": "role",
          "type": "bytes32"
        }
      ],
      "name": "getRoleAdmin",
      "outputs": [
        {
          "internalType": "bytes32",
          "name": "",
          "type": "bytes32"
        }
      ],
      "stateMutability": "view",
      "type": "function"
    },
    {
      "inputs": [
        {
          "internalType": "address",
          "name": "token",
          "type": "address"
        }
      ],
      "name": "getTokenValue",
      "outputs": [
        {
          "internalType": "uint256",
          "name": "",
          "type": "uint256"
        }
      ],
      "stateMutability": "view",
      "type": "function"
    },
    {
      "inputs": [
        {
          "internalType": "address",
          "name": "user",
          "type": "address"
        }
      ],
      "name": "getTotalCollateralValue",
      "outputs": [
        {
          "internalType": "uint256",
          "name": "",
          "type": "uint256"
        }
      ],
      "stateMutability": "view",
      "type": "function"
    },
    {
      "inputs": [
        {
          "internalType": "bytes32",
          "name": "role",
          "type": "bytes32"
        },
        {
          "internalType": "address",
          "name": "account",
          "type": "address"
        }
      ],
      "name": "grantRole",
      "outputs": [],
      "stateMutability": "nonpayable",
      "type": "function"
    },
    {
      "inputs": [
        {
          "internalType": "bytes32",
          "name": "role",
          "type": "bytes32"
        },
        {
          "internalType": "address",
          "name": "account",
          "type": "address"
        }
      ],
      "name": "hasRole",
      "outputs": [
        {
          "internalType": "bool",
          "name": "",
          "type": "bool"
        }
      ],
      "stateMutability": "view",
      "type": "function"
    },
    {
      "inputs": [
        {
          "internalType": "address",
          "name": "initialOwner",
          "type": "address"
        },
        {
          "internalType": "address",
          "name": "_stablecoinManager",
          "type": "address"
        },
        {
          "internalType": "address",
          "name": "_lendingManager",
          "type": "address"
        }
      ],
      "name": "initialize",
      "outputs": [],
      "stateMutability": "nonpayable",
      "type": "function"
    },
    {
      "inputs": [
        {
          "internalType": "address",
          "name": "",
          "type": "address"
        }
      ],
      "name": "isAllowedCollateral",
      "outputs": [
        {
          "internalType": "bool",
          "name": "",
          "type": "bool"
        }
      ],
      "stateMutability": "view",
      "type": "function"
    },
    {
      "inputs": [
        {
          "internalType": "address",
          "name": "",
          "type": "address"
        }
      ],
      "name": "isKnownUser",
      "outputs": [
        {
          "internalType": "bool",
          "name": "",
          "type": "bool"
        }
      ],
      "stateMutability": "view",
      "type": "function"
    },
    {
      "inputs": [
        {
          "internalType": "address",
          "name": "",
          "type": "address"
        }
      ],
      "name": "isLiquidatable",
      "outputs": [
        {
          "internalType": "bool",
          "name": "",
          "type": "bool"
        }
      ],
      "stateMutability": "view",
      "type": "function"
    },
    {
      "inputs": [],
      "name": "isPaused",
      "outputs": [
        {
          "internalType": "bool",
          "name": "",
          "type": "bool"
        }
      ],
      "stateMutability": "view",
      "type": "function"
    },
    {
      "inputs": [],
      "name": "lendingManager",
      "outputs": [
        {
          "internalType": "contract LendingManager",
          "name": "",
          "type": "address"
        }
      ],
      "stateMutability": "view",
      "type": "function"
    },
    {
      "inputs": [
        {
          "internalType": "address",
          "name": "",
          "type": "address"
        }
      ],
      "name": "liquidationStartTime",
      "outputs": [
        {
          "internalType": "uint256",
          "name": "",
          "type": "uint256"
        }
      ],
      "stateMutability": "view",
      "type": "function"
    },
    {
      "inputs": [
        {
          "internalType": "address",
          "name": "",
          "type": "address"
        }
      ],
      "name": "liquidationThreshold",
      "outputs": [
        {
          "internalType": "uint256",
          "name": "",
          "type": "uint256"
        }
      ],
      "stateMutability": "view",
      "type": "function"
    },
    {
      "inputs": [],
      "name": "liquidator",
      "outputs": [
        {
          "internalType": "address",
          "name": "",
          "type": "address"
        }
      ],
      "stateMutability": "view",
      "type": "function"
    },
    {
      "inputs": [],
      "name": "locked",
      "outputs": [
        {
          "internalType": "bool",
          "name": "",
          "type": "bool"
        }
      ],
      "stateMutability": "view",
      "type": "function"
    },
    {
      "inputs": [],
      "name": "owner",
      "outputs": [
        {
          "internalType": "address",
          "name": "",
          "type": "address"
        }
      ],
      "stateMutability": "view",
      "type": "function"
    },
    {
      "inputs": [],
      "name": "paused",
      "outputs": [
        {
          "internalType": "bool",
          "name": "",
          "type": "bool"
        }
      ],
      "stateMutability": "view",
      "type": "function"
    },
    {
      "inputs": [
        {
          "internalType": "bytes",
          "name": "performData",
          "type": "bytes"
        }
      ],
      "name": "performUpkeep",
      "outputs": [],
      "stateMutability": "nonpayable",
      "type": "function"
    },
    {
      "inputs": [
        {
          "internalType": "address",
          "name": "",
          "type": "address"
        }
      ],
      "name": "priceFeed",
      "outputs": [
        {
          "internalType": "address",
          "name": "",
          "type": "address"
        }
      ],
      "stateMutability": "view",
      "type": "function"
    },
    {
      "inputs": [
        {
          "internalType": "address",
          "name": "token",
          "type": "address"
        },
        {
          "internalType": "uint256",
          "name": "amount",
          "type": "uint256"
        }
      ],
      "name": "recoverFromLiquidation",
      "outputs": [],
      "stateMutability": "nonpayable",
      "type": "function"
    },
    {
      "inputs": [],
      "name": "renounceOwnership",
      "outputs": [],
      "stateMutability": "nonpayable",
      "type": "function"
    },
    {
      "inputs": [
        {
          "internalType": "bytes32",
          "name": "role",
          "type": "bytes32"
        },
        {
          "internalType": "address",
          "name": "callerConfirmation",
          "type": "address"
        }
      ],
      "name": "renounceRole",
      "outputs": [],
      "stateMutability": "nonpayable",
      "type": "function"
    },
    {
      "inputs": [],
      "name": "repay",
      "outputs": [],
      "stateMutability": "payable",
      "type": "function"
    },
    {
      "inputs": [
        {
          "internalType": "bytes32",
          "name": "role",
          "type": "bytes32"
        },
        {
          "internalType": "address",
          "name": "account",
          "type": "address"
        }
      ],
      "name": "revokeRole",
      "outputs": [],
      "stateMutability": "nonpayable",
      "type": "function"
    },
    {
      "inputs": [
        {
          "internalType": "address",
          "name": "newAdmin",
          "type": "address"
        }
      ],
      "name": "setAdmin",
      "outputs": [],
      "stateMutability": "nonpayable",
      "type": "function"
    },
    {
      "inputs": [
        {
          "internalType": "address",
          "name": "token",
          "type": "address"
        },
        {
          "internalType": "bool",
          "name": "allowed",
          "type": "bool"
        }
      ],
      "name": "setAllowedCollateral",
      "outputs": [],
      "stateMutability": "nonpayable",
      "type": "function"
    },
    {
      "inputs": [
        {
          "internalType": "address",
          "name": "user",
          "type": "address"
        },
        {
          "internalType": "uint256",
          "name": "score",
          "type": "uint256"
        }
      ],
      "name": "setCreditScore",
      "outputs": [],
      "stateMutability": "nonpayable",
      "type": "function"
    },
    {
      "inputs": [
        {
          "internalType": "address",
          "name": "_lendingManager",
          "type": "address"
        }
      ],
      "name": "setLendingManager",
      "outputs": [],
      "stateMutability": "nonpayable",
      "type": "function"
    },
    {
      "inputs": [
        {
          "internalType": "address",
          "name": "token",
          "type": "address"
        },
        {
          "internalType": "uint256",
          "name": "threshold",
          "type": "uint256"
        }
      ],
      "name": "setLiquidationThreshold",
      "outputs": [],
      "stateMutability": "nonpayable",
      "type": "function"
    },
    {
      "inputs": [
        {
          "internalType": "address",
          "name": "_liquidator",
          "type": "address"
        }
      ],
      "name": "setLiquidator",
      "outputs": [],
      "stateMutability": "nonpayable",
      "type": "function"
    },
    {
      "inputs": [
        {
          "internalType": "address",
          "name": "token",
          "type": "address"
        },
        {
          "internalType": "address",
          "name": "feed",
          "type": "address"
        }
      ],
      "name": "setPriceFeed",
      "outputs": [],
      "stateMutability": "nonpayable",
      "type": "function"
    },
    {
      "inputs": [],
      "name": "stablecoinManager",
      "outputs": [
        {
          "internalType": "contract StablecoinManager",
          "name": "",
          "type": "address"
        }
      ],
      "stateMutability": "view",
      "type": "function"
    },
    {
      "inputs": [
        {
          "internalType": "address",
          "name": "user",
          "type": "address"
        }
      ],
      "name": "startLiquidation",
      "outputs": [],
      "stateMutability": "nonpayable",
      "type": "function"
    },
    {
      "inputs": [
        {
          "internalType": "bytes4",
          "name": "interfaceId",
          "type": "bytes4"
        }
      ],
      "name": "supportsInterface",
      "outputs": [
        {
          "internalType": "bool",
          "name": "",
          "type": "bool"
        }
      ],
      "stateMutability": "view",
      "type": "function"
    },
    {
      "inputs": [],
      "name": "togglePause",
      "outputs": [],
      "stateMutability": "nonpayable",
      "type": "function"
    },
    {
      "inputs": [],
      "name": "totalFunds",
      "outputs": [
        {
          "internalType": "uint256",
          "name": "",
          "type": "uint256"
        }
      ],
      "stateMutability": "view",
      "type": "function"
    },
    {
      "inputs": [
        {
          "internalType": "address",
          "name": "newOwner",
          "type": "address"
        }
      ],
      "name": "transferOwnership",
      "outputs": [],
      "stateMutability": "nonpayable",
      "type": "function"
    },
    {
      "inputs": [
        {
          "internalType": "address",
          "name": "",
          "type": "address"
        }
      ],
      "name": "userDebt",
      "outputs": [
        {
          "internalType": "uint256",
          "name": "",
          "type": "uint256"
        }
      ],
      "stateMutability": "view",
      "type": "function"
    },
    {
      "inputs": [
        {
          "internalType": "uint256",
          "name": "",
          "type": "uint256"
        }
      ],
      "name": "users",
      "outputs": [
        {
          "internalType": "address",
          "name": "",
          "type": "address"
        }
      ],
      "stateMutability": "view",
      "type": "function"
    },
    {
      "inputs": [
        {
          "internalType": "address",
          "name": "token",
          "type": "address"
        },
        {
          "internalType": "uint256",
          "name": "amount",
          "type": "uint256"
        }
      ],
      "name": "withdrawCollateral",
      "outputs": [],
      "stateMutability": "nonpayable",
      "type": "function"
    },
    {
      "inputs": [
        {
          "internalType": "uint256",
          "name": "amount",
          "type": "uint256"
        }
      ],
      "name": "withdrawForLendingManager",
      "outputs": [],
      "stateMutability": "nonpayable",
      "type": "function"
    },
    {
      "stateMutability": "payable",
      "type": "receive"
    }
  ],
  "bytecode": "0x6080604052348015600f57600080fd5b50613d388061001f6000396000f3fe6080604052600436106103dd5760003560e01c806391d14854116101fd578063c4ae316811610118578063d547741f116100ab578063e2e296791161007a578063e2e2967914610c18578063e7602b9d14610c38578063f1c5d6c214610c6d578063f2fde38b14610c8d578063f7e590ee14610cad57600080fd5b8063d547741f14610ba3578063e19fb8f514610bc3578063e1c5010014610be3578063e2842d7914610c0357600080fd5b8063cf176225116100e7578063cf17622514610b04578063cf30901214610b26578063d29255f914610b40578063d3dd2bdf14610b6d57600080fd5b8063c4ae316814610a8f578063c5ebeaec14610aa4578063c869d0ed14610ac4578063c941f32114610ae457600080fd5b8063b1732b2511610190578063c0c53b8b1161015f578063c0c53b8b14610a16578063c129d50414610a36578063c1a287e214610a4b578063c23c69d514610a6257600080fd5b8063b1732b251461097f578063b187bd26146109ac578063b3a5a0a2146109c9578063b69e5c77146109e957600080fd5b80639b8621d5116101cc5780639b8621d5146109155780639e3b77af1461092a578063a217fddf1461094a578063a5d5db0c1461095f57600080fd5b806391d148541461088f5780639490a51e146108af578063968ed600146108df57806397ed81cf146108f557600080fd5b80634c8f35ab116102f85780636e9960c31161028b57806376e112861161025a57806376e11286146107e35780637b86e42c1461080357806385b39782146108235780638da5cb5b146108435780638e6b53bc1461085857600080fd5b80636e9960c314610769578063704b6c021461077e578063715018a61461079e5780637346f486146107b357600080fd5b80635b6cca80116102c75780635b6cca80146106dc5780635c975abb146106fc5780636c648fc41461071b5780636e04ff0d1461073b57600080fd5b80634c8f35ab1461064357806352226ef01461065757806355f4d9e21461069c57806359ad586f146106bc57600080fd5b80632f2ff15d11610370578063402d88831161033f578063402d8883146105d35780634046ebae146105db578063450a375a146106015780634585e33b1461062357600080fd5b80632f2ff15d14610553578063350c35e91461057357806336568abe14610593578063365b98b2146105b357600080fd5b80630e30428d116103ac5780630e30428d146104a857806312065fe0146104c85780631fd48b9a146104e5578063248a9ca31461053357600080fd5b806301c76f811461040157806301ffc9a714610423578063042e02cf14610458578063080d9c2b1461048857600080fd5b366103fc5734600c60008282546103f49190613533565b925050819055005b600080fd5b34801561040d57600080fd5b5061042161041c366004613562565b610cda565b005b34801561042f57600080fd5b5061044361043e366004613584565b610d10565b60405190151581526020015b60405180910390f35b34801561046457600080fd5b50610443610473366004613562565b60056020526000908152604090205460ff1681565b34801561049457600080fd5b506104216104a33660046135ae565b610d47565b3480156104b457600080fd5b506104216104c33660046135ae565b610e96565b3480156104d457600080fd5b50475b60405190815260200161044f565b3480156104f157600080fd5b5061051b610500366004613562565b6008602052600090815260409020546001600160a01b031681565b6040516001600160a01b03909116815260200161044f565b34801561053f57600080fd5b506104d761054e3660046135d8565b610f42565b34801561055f57600080fd5b5061042161056e3660046135f1565b610f64565b34801561057f57600080fd5b5061042161058e3660046135ae565b610f86565b34801561059f57600080fd5b506104216105ae3660046135f1565b6112a9565b3480156105bf57600080fd5b5061051b6105ce3660046135d8565b6112dc565b610421611306565b3480156105e757600080fd5b50600d5461051b906201000090046001600160a01b031681565b34801561060d57600080fd5b50336000908152600360205260409020546104d7565b34801561062f57600080fd5b5061042161063e36600461361d565b61161c565b34801561064f57600080fd5b5060826104d7565b34801561066357600080fd5b506104d7610672366004613691565b6001600160a01b038082166000908152602081815260408083209386168352929052205492915050565b3480156106a857600080fd5b506104216106b73660046136c9565b6116c1565b3480156106c857600080fd5b506104d76106d7366004613691565b6117e8565b3480156106e857600080fd5b5061051b6106f7366004613562565b6118ca565b34801561070857600080fd5b50600d5461044390610100900460ff1681565b34801561072757600080fd5b506104d7610736366004613562565b611921565b34801561074757600080fd5b5061075b61075636600461361d565b6119cf565b60405161044f929190613700565b34801561077557600080fd5b5061051b611bce565b34801561078a57600080fd5b50610421610799366004613562565b611bdd565b3480156107aa57600080fd5b50610421611c51565b3480156107bf57600080fd5b506104436107ce366004613562565b60016020526000908152604090205460ff1681565b3480156107ef57600080fd5b506104216107fe366004613691565b611c65565b34801561080f57600080fd5b506104d761081e366004613562565b611cd3565b34801561082f57600080fd5b5061042161083e3660046135d8565b611d82565b34801561084f57600080fd5b5061051b611ea2565b34801561086457600080fd5b50610878610873366004613562565b611ed0565b60408051921515835260208301919091520161044f565b34801561089b57600080fd5b506104436108aa3660046135f1565b611f4b565b3480156108bb57600080fd5b506104436108ca366004613562565b600b6020526000908152604090205460ff1681565b3480156108eb57600080fd5b506104d7600c5481565b34801561090157600080fd5b506104216109103660046135ae565b611f83565b34801561092157600080fd5b506104d7600581565b34801561093657600080fd5b50600f5461051b906001600160a01b031681565b34801561095657600080fd5b506104d7600081565b34801561096b57600080fd5b5061042161097a3660046135ae565b6120c5565b34801561098b57600080fd5b506104d761099a366004613562565b60076020526000908152604090205481565b3480156109b857600080fd5b50600d54610100900460ff16610443565b3480156109d557600080fd5b5061051b6109e43660046135d8565b612346565b3480156109f557600080fd5b506104d7610a04366004613562565b60036020526000908152604090205481565b348015610a2257600080fd5b50610421610a31366004613757565b612356565b348015610a4257600080fd5b506104d7608281565b348015610a5757600080fd5b506104d76203f48081565b348015610a6e57600080fd5b506104d7610a7d366004613562565b60066020526000908152604090205481565b348015610a9b57600080fd5b506104216124a3565b348015610ab057600080fd5b50610421610abf3660046135d8565b61250d565b348015610ad057600080fd5b50610421610adf366004613562565b612983565b348015610af057600080fd5b50600e5461051b906001600160a01b031681565b348015610b1057600080fd5b50610b19612a03565b60405161044f919061379a565b348015610b3257600080fd5b50600d546104439060ff1681565b348015610b4c57600080fd5b506104d7610b5b366004613562565b60046020526000908152604090205481565b348015610b7957600080fd5b506104d7610b88366004613562565b6001600160a01b031660009081526002602052604090205490565b348015610baf57600080fd5b50610421610bbe3660046135f1565b612b4a565b348015610bcf57600080fd5b50610421610bde3660046135d8565b612b66565b348015610bef57600080fd5b50610421610bfe366004613562565b612c88565b348015610c0f57600080fd5b50610b19612d9d565b348015610c2457600080fd5b50610421610c33366004613562565b612dff565b348015610c4457600080fd5b506104d7610c53366004613691565b600060208181529281526040808220909352908152205481565b348015610c7957600080fd5b506104d7610c88366004613562565b61309c565b348015610c9957600080fd5b50610421610ca8366004613562565b6131ec565b348015610cb957600080fd5b506104d7610cc8366004613562565b60026020526000908152604090205481565b6000610ce58161322a565b50600d80546001600160a01b03909216620100000262010000600160b01b0319909216919091179055565b60006001600160e01b03198216637965db0b60e01b1480610d4157506301ffc9a760e01b6001600160e01b03198316145b92915050565b3360009081526005602052604090205460ff16610dab5760405162461bcd60e51b815260206004820152601a60248201527f4163636f756e74206e6f7420696e206c69717569646174696f6e00000000000060448201526064015b60405180910390fd5b6040516323b872dd60e01b8152336004820152306024820152604481018290526001600160a01b038316906323b872dd906064016020604051808303816000875af1158015610dfe573d6000803e3d6000fd5b505050506040513d601f19601f82011682018060405250810190610e2291906137e6565b506001600160a01b03821660009081526020818152604080832033845290915281208054839290610e54908490613533565b9091555060009050610e6533611ed0565b5090508015610e9157336000908152600560209081526040808320805460ff1916905560069091528120555b505050565b610e9e613234565b6001600160a01b03821660009081526001602052604090205460ff16610ed65760405162461bcd60e51b8152600401610da290613803565b60648111610f265760405162461bcd60e51b815260206004820152601860248201527f5468726573686f6c64206d757374206265203e203130302500000000000000006044820152606401610da2565b6001600160a01b03909116600090815260076020526040902055565b6000908152600080516020613ce3833981519152602052604090206001015490565b610f6d82610f42565b610f768161322a565b610f808383613266565b50505050565b6001600160a01b03821660009081526001602052604090205460ff16610feb57336001600160a01b0316600080516020613cc3833981519152604051610fcb9061383a565b60405180910390a260405162461bcd60e51b8152600401610da29061383a565b6001600160a01b0382166000908152602081815260408083203384529091529020548111156110a957336001600160a01b0316600080516020613cc383398151915260405161106290602080825260149082015273496e73756666696369656e742062616c616e636560601b604082015260600190565b60405180910390a260405162461bcd60e51b8152602060048201526014602482015273496e73756666696369656e742062616c616e636560601b6044820152606401610da2565b3360009081526005602052604090205460ff161561110657336001600160a01b0316600080516020613cc38339815191526040516110e690613865565b60405180910390a260405162461bcd60e51b8152600401610da290613865565b6000670de0b6b3a764000061111a8461309c565b611124908461389c565b61112e91906138b3565b61113733611921565b61114191906138d5565b905061114c83611cd3565b33600090815260036020526040902054611166919061389c565b61117182606461389c565b10156111bc57336001600160a01b0316600080516020613cc383398151915260405161119c906138e8565b60405180910390a260405162461bcd60e51b8152600401610da2906138e8565b6001600160a01b038316600090815260208181526040808320338452909152812080548492906111ed9084906138d5565b909155505060405163a9059cbb60e01b8152336004820152602481018390526001600160a01b0384169063a9059cbb906044016020604051808303816000875af115801561123f573d6000803e3d6000fd5b505050506040513d601f19601f8201168201806040525081019061126391906137e6565b506040518281526001600160a01b0384169033907f45892a46e6cef329bb642da6d69846d324db43d19008edc141ed82382eda1bee9060200160405180910390a3505050565b6001600160a01b03811633146112d25760405163334bd91960e11b815260040160405180910390fd5b610e91828261330b565b600a81815481106112ec57600080fd5b6000918252602090912001546001600160a01b0316905081565b600d54610100900460ff16156113535760405162461bcd60e51b815260206004820152601260248201527110dbdb9d1c9858dd081a5cc81c185d5cd95960721b6044820152606401610da2565b3360009081526003602052604081205490036113fc57336001600160a01b0316600080516020613cc38339815191526040516113b690602080825260139082015272139bc81bdd5d1cdd185b991a5b99c81919589d606a1b604082015260600190565b60405180910390a260405162461bcd60e51b8152602060048201526013602482015272139bc81bdd5d1cdd185b991a5b99c81919589d606a1b6044820152606401610da2565b346000036114a157336001600160a01b0316600080516020613cc3833981519152604051611456906020808252601890820152774d7573742073656e642066756e647320746f20726570617960401b604082015260600190565b60405180910390a260405162461bcd60e51b81526020600482015260186024820152774d7573742073656e642066756e647320746f20726570617960401b6044820152606401610da2565b3360009081526003602052604090205434111561155f57336001600160a01b0316600080516020613cc383398151915260405161150f906020808252601c908201527f52657061796d656e74206578636565647320746f74616c206465627400000000604082015260600190565b60405180910390a260405162461bcd60e51b815260206004820152601c60248201527f52657061796d656e74206578636565647320746f74616c2064656274000000006044820152606401610da2565b336000908152600360205260408120805434929061157e9084906138d5565b90915550503360009081526003602052604081205490036115aa57336000908152600460205260408120555b3360009081526005602052604090205460ff16156115e557336000908152600560209081526040808320805460ff1916905560069091528120555b60405134815233907f0516911bcc3a0a7412a44601057c0a0a1ec628bde049a84284bc4288665344889060200160405180910390a2565b600061162a82840184613950565b905060005b8151811015610f8057600082828151811061164c5761164c613a20565b6020908102919091018101516001600160a01b0381166000908152600590925260409091205490915060ff16156116b8576001600160a01b0381166000908152600660205260408120546116a4906203f48090613533565b90508042106116b6576116b682612dff565b505b5060010161162f565b6116c9613234565b6001600160a01b0382166000908152600160205260408120805460ff1916831515179055805b60095481101561174157836001600160a01b03166009828154811061171657611716613a20565b6000918252602090912001546001600160a01b0316036117395760019150611741565b6001016116ef565b5081801561174d575080155b1561179e57600980546001810182556000919091527f6e1540171b6c0c960b71a7020d9f60077f6af931a8bbf590da0223dacf75c7af0180546001600160a01b0319166001600160a01b0385161790555b826001600160a01b03167f15f5cc64ca777db85f6c05fdba671568758b38329616d4d4b43bb8b092fe9a8d836040516117db911515815260200190565b60405180910390a2505050565b600080670de0b6b3a76400006117fd8461309c565b6001600160a01b03808616600090815260208181526040808320938a168352929052205461182b919061389c565b61183591906138b3565b600e546040516356512fcd60e11b81526001600160a01b0386811660048301529293506000929091169063aca25f9a90602401602060405180830381865afa158015611885573d6000803e3d6000fd5b505050506040513d601f19601f820116820180604052508101906118a99190613a36565b905060646118b7828461389c565b6118c191906138b3565b95945050505050565b6001600160a01b03811660009081526001602052604081205460ff166119025760405162461bcd60e51b8152600401610da290613803565b506001600160a01b039081166000908152600860205260409020541690565b6000808061192d612a03565b905060005b81518110156119c657600082828151811061194f5761194f613a20565b6020908102919091018101516001600160a01b0380821660009081528084526040808220928b168252919093529091205490915080156119bc57670de0b6b3a764000061199b8361309c565b6119a5908361389c565b6119af91906138b3565b6119b99086613533565b94505b5050600101611932565b50909392505050565b6000606060006119dd612d9d565b90506000815167ffffffffffffffff8111156119fb576119fb61393a565b604051908082528060200260200182016040528015611a24578160200160208202803683370190505b5090506000805b8351811015611aed576000848281518110611a4857611a48613a20565b6020908102919091018101516001600160a01b0381166000908152600590925260409091205490915060ff1615611ae4576001600160a01b038116600090815260066020526040812054611aa0906203f48090613533565b9050804210611ae25781858581518110611abc57611abc613a20565b6001600160a01b039092166020928302919091019091015283611ade81613a4f565b9450505b505b50600101611a2b565b508015611bbf5760008167ffffffffffffffff811115611b0f57611b0f61393a565b604051908082528060200260200182016040528015611b38578160200160208202803683370190505b50905060005b82811015611b9257838181518110611b5857611b58613a20565b6020026020010151828281518110611b7257611b72613a20565b6001600160a01b0390921660209283029190910190910152600101611b3e565b506001955080604051602001611ba8919061379a565b604051602081830303815290604052945050611bc4565b600094505b5050509250929050565b6000611bd8611ea2565b905090565b611be5613234565b6001600160a01b038116611c2d5760405162461bcd60e51b815260206004820152600f60248201526e496e76616c6964206164647265737360881b6044820152606401610da2565b611c3681613387565b611c41600082613266565b50611c4d60003361330b565b5050565b611c59613234565b611c636000613387565b565b611c6d613234565b6001600160a01b03821660009081526001602052604090205460ff16611ca55760405162461bcd60e51b8152600401610da290613803565b6001600160a01b03918216600090815260086020526040902080546001600160a01b03191691909216179055565b600e54604051631ee1b90b60e21b81526001600160a01b0383811660048301526000928392911690637b86e42c90602401602060405180830381865afa158015611d21573d6000803e3d6000fd5b505050506040513d601f19601f82011682018060405250810190611d459190613a36565b90508015611d535792915050565b6001600160a01b03831660009081526007602052604090205480611d78576082611d7a565b805b949350505050565b611d8a613234565b600d5460ff1615611dad5760405162461bcd60e51b8152600401610da290613a68565b600d805460ff1916600117905547811115611e0a5760405162461bcd60e51b815260206004820152601d60248201527f496e73756666696369656e7420636f6e74726163742062616c616e63650000006044820152606401610da2565b611e12611ea2565b6001600160a01b03166108fc829081150290604051600060405180830381858888f19350505050158015611e4a573d6000803e3d6000fd5b50611e53611ea2565b6001600160a01b03167f69c169e5c85af54e1ca7e16608ccc812437821387924fb3353a7d053264ddaa082604051611e8d91815260200190565b60405180910390a250600d805460ff19169055565b7f9016d09d72d40fdae2fd8ceac6b6234c7706214fd39c1cd1e609a0528c199300546001600160a01b031690565b6000806000611ede84611921565b6001600160a01b038516600090815260036020526040812054919250819003611f105750600194600019945092505050565b81600003611f25575060009485945092505050565b80611f3183606461389c565b611f3b91906138b3565b9250608283101593505050915091565b6000918252600080516020613ce3833981519152602090815260408084206001600160a01b0393909316845291905290205460ff1690565b611f8b613234565b816001600160a01b038116611fe25760405162461bcd60e51b815260206004820152601d60248201527f496e76616c696420616464726573733a207a65726f20616464726573730000006044820152606401610da2565b306001600160a01b038216036120325760405162461bcd60e51b815260206004820152601560248201527424b73b30b634b21030b2323932b9b99d1039b2b63360591b6044820152606401610da2565b60648211156120785760405162461bcd60e51b815260206004820152601260248201527153636f7265206f7574206f662072616e676560701b6044820152606401610da2565b6001600160a01b03831660008181526002602052604090819020849055517f4afae6838a181695abc7978598380d73bc2144eb38580c130f86e4b1e6531e15906117db9085815260200190565b6001600160a01b03821660009081526001602052604090205460ff1661210a57336001600160a01b0316600080516020613cc3833981519152604051610fcb9061383a565b806000036121a357336001600160a01b0316600080516020613cc383398151915260405161215e906020808252601290820152710416d6f756e74206d757374206265203e20360741b604082015260600190565b60405180910390a260405162461bcd60e51b81526020600482015260126024820152710416d6f756e74206d757374206265203e20360741b6044820152606401610da2565b3360009081526005602052604090205460ff16156121e057336001600160a01b0316600080516020613cc38339815191526040516110e690613865565b336000908152600b602052604090205460ff1661225457336000818152600b60205260408120805460ff19166001908117909155600a805491820181559091527fc65a7bb8d6351c1cf70c95a316cc6a92839c986682d98bc35f958f4883f9d2a80180546001600160a01b03191690911790555b6040516323b872dd60e01b8152336004820152306024820152604481018290526001600160a01b038316906323b872dd906064016020604051808303816000875af11580156122a7573d6000803e3d6000fd5b505050506040513d601f19601f820116820180604052508101906122cb91906137e6565b506001600160a01b038216600090815260208181526040808320338452909152812080548392906122fd908490613533565b90915550506040518181526001600160a01b0383169033907ff1c0dd7e9b98bbff859029005ef89b127af049cd18df1a8d79f0b7e019911e569060200160405180910390a35050565b600981815481106112ec57600080fd5b60006123606133f8565b805490915060ff600160401b820416159067ffffffffffffffff166000811580156123885750825b905060008267ffffffffffffffff1660011480156123a55750303b155b9050811580156123b3575080155b156123d15760405163f92ee8a960e01b815260040160405180910390fd5b845467ffffffffffffffff1916600117855583156123fb57845460ff60401b1916600160401b1785555b61240488613421565b61240c613432565b61241760008061343a565b612422600089613266565b50600e80546001600160a01b03808a166001600160a01b031992831617909255600f805492891692909116919091179055831561249957845460ff60401b19168555604051600181527fc7f505b2f371ae2175ee4913f4499e1f2633a7b5936321eed1cdaeb6115181d29060200160405180910390a15b5050505050505050565b6124ab613234565b600d805460ff610100808304821615810261ff001990931692909217928390556040517f228f455d7bc3d0b24a3a08d7847f391c3e78fc8aeb83acf226b7a96ee162b8ac936125039390049091161515815260200190565b60405180910390a1565b600d54610100900460ff161561255a5760405162461bcd60e51b815260206004820152601260248201527110dbdb9d1c9858dd081a5cc81c185d5cd95960721b6044820152606401610da2565b600d5460ff161561257d5760405162461bcd60e51b8152600401610da290613a68565b600d805460ff19166001179055600081900361263a57336001600160a01b0316600080516020613cc38339815191526040516125ea906020808252601d908201527f416d6f756e74206d7573742062652067726561746572207468616e2030000000604082015260600190565b60405180910390a260405162461bcd60e51b815260206004820152601d60248201527f416d6f756e74206d7573742062652067726561746572207468616e20300000006044820152606401610da2565b33600090815260026020526040902054603c11156126e757336001600160a01b0316600080516020613cc38339815191526040516126a0906020808252601490820152734372656469742073636f726520746f6f206c6f7760601b604082015260600190565b60405180910390a260405162461bcd60e51b81526020600482015260146024820152734372656469742073636f726520746f6f206c6f7760601b6044820152606401610da2565b6002600c546126f691906138b3565b81111561274257336001600160a01b0316600080516020613cc383398151915260405161272290613a8f565b60405180910390a260405162461bcd60e51b8152600401610da290613a8f565b33600090815260036020526040902054156127fe57336001600160a01b0316600080516020613cc38339815191526040516127ae906020808252601e908201527f526570617920796f7572206578697374696e6720646562742066697273740000604082015260600190565b60405180910390a260405162461bcd60e51b815260206004820152601e60248201527f526570617920796f7572206578697374696e67206465627420666972737400006044820152606401610da2565b336000908152600b602052604090205460ff1661287257336000818152600b60205260408120805460ff19166001908117909155600a805491820181559091527fc65a7bb8d6351c1cf70c95a316cc6a92839c986682d98bc35f958f4883f9d2a80180546001600160a01b03191690911790555b600061287d33611921565b905061288a60828361389c565b61289582606461389c565b10156128e057336001600160a01b0316600080516020613cc38339815191526040516128c090613adf565b60405180910390a260405162461bcd60e51b8152600401610da290613adf565b33600090815260036020526040812080548492906128ff908490613533565b9091555050336000818152600460205260408082204290555184156108fc0291859190818181858888f1935050505015801561293f573d6000803e3d6000fd5b5060405182815233907fac59582e5396aca512fa873a2047e7f4c80f8f55d4a06cb34a78a0187f62719f9060200160405180910390a25050600d805460ff19169055565b61298b613234565b6001600160a01b0381166129e15760405162461bcd60e51b815260206004820152601f60248201527f496e76616c6964206c656e64696e67206d616e616765722061646472657373006044820152606401610da2565b600f80546001600160a01b0319166001600160a01b0392909216919091179055565b60606000805b600954811015612a6d576001600060098381548110612a2a57612a2a613a20565b60009182526020808320909101546001600160a01b0316835282019290925260400190205460ff1615612a655781612a6181613a4f565b9250505b600101612a09565b5060008167ffffffffffffffff811115612a8957612a8961393a565b604051908082528060200260200182016040528015612ab2578160200160208202803683370190505b5090506000805b6009548110156119c657600060098281548110612ad857612ad8613a20565b60009182526020808320909101546001600160a01b0316808352600190915260409091205490915060ff1615612b415780848481518110612b1b57612b1b613a20565b6001600160a01b039092166020928302919091019091015282612b3d81613a4f565b9350505b50600101612ab9565b612b5382610f42565b612b5c8161322a565b610f80838361330b565b600d5460ff1615612b895760405162461bcd60e51b8152600401610da290613a68565b600d805460ff19166001179055600f54336001600160a01b0390911614612bfd5760405162461bcd60e51b815260206004820152602260248201527f4f6e6c79206c656e64696e67206d616e616765722063616e2063616c6c207468604482015261697360f01b6064820152608401610da2565b47811115612c4d5760405162461bcd60e51b815260206004820152601d60248201527f496e73756666696369656e7420636f6e74726163742062616c616e63650000006044820152606401610da2565b604051339082156108fc029083906000818181858888f19350505050158015612c7a573d6000803e3d6000fd5b5050600d805460ff19169055565b6000612c9382611ed0565b5090508015612cda5760405162461bcd60e51b8152602060048201526013602482015272506f736974696f6e206973206865616c74687960681b6044820152606401610da2565b6001600160a01b03821660009081526005602052604090205460ff1615612d435760405162461bcd60e51b815260206004820152601b60248201527f4c69717569646174696f6e20616c7265616479207374617274656400000000006044820152606401610da2565b6001600160a01b0382166000818152600560209081526040808320805460ff191660011790556006909152808220429055517f7f62ed89ea2c6fb057e4ea77729c1d3f18056339791fce29ac89760197b45b299190a25050565b6060600a805480602002602001604051908101604052809291908181526020018280548015612df557602002820191906000526020600020905b81546001600160a01b03168152600190910190602001808311612dd7575b5050505050905090565b6001600160a01b03811660009081526005602052604090205460ff16612e725760405162461bcd60e51b815260206004820152602260248201527f4163636f756e74206e6f74206d61726b656420666f72206c697175696461746960448201526137b760f11b6064820152608401610da2565b6001600160a01b038116600090815260066020526040902054612e99906203f48090613533565b421015612ee15760405162461bcd60e51b815260206004820152601660248201527511dc9858d9481c195c9a5bd9081b9bdd08195b99195960521b6044820152606401610da2565b6001600160a01b038116600090815260036020526040812054906064612f0860058461389c565b612f1291906138b3565b90506000612f208284613533565b90506000612f2c612a03565b905060005b815181101561301f576000828281518110612f4e57612f4e613a20565b6020908102919091018101516001600160a01b0380821660009081528084526040808220928c16825291909352909120549091508015613015576001600160a01b03828116600081815260208181526040808320948d16835293905282812055905163a9059cbb60e01b81523360048201526024810183905263a9059cbb906044016020604051808303816000875af1158015612fef573d6000803e3d6000fd5b505050506040513d601f19601f8201168201806040525081019061301391906137e6565b505b5050600101612f31565b506001600160a01b03851660008181526003602090815260408083208390556004825280832083905560058252808320805460ff19169055600682528083209290925590518481523392917f1175522017e08c2f400d7e516608eff60816ee9e8319158d174321234b602631910160405180910390a35050505050565b6001600160a01b03808216600090815260086020526040812054909116806130fb5760405162461bcd60e51b8152602060048201526012602482015271141c9a58d94819995959081b9bdd081cd95d60721b6044820152606401610da2565b60008190506000816001600160a01b031663feaf968c6040518163ffffffff1660e01b815260040160a060405180830381865afa158015613140573d6000803e3d6000fd5b505050506040513d601f19601f820116820180604052508101906131649190613b3e565b505050915050816001600160a01b031663313ce5676040518163ffffffff1660e01b8152600401602060405180830381865afa1580156131a8573d6000803e3d6000fd5b505050506040513d601f19601f820116820180604052508101906131cc9190613b90565b6131d7906012613bb3565b6131e290600a613cb3565b6118c1908261389c565b6131f4613234565b6001600160a01b03811661321e57604051631e4fbdf760e01b815260006004820152602401610da2565b61322781613387565b50565b613227813361349d565b3361323d611ea2565b6001600160a01b031614611c635760405163118cdaa760e01b8152336004820152602401610da2565b6000600080516020613ce38339815191526132818484611f4b565b613301576000848152602082815260408083206001600160a01b03871684529091529020805460ff191660011790556132b73390565b6001600160a01b0316836001600160a01b0316857f2f8788117e7eff1d82e926ec794901d17c78024a50270940304540a733656f0d60405160405180910390a46001915050610d41565b6000915050610d41565b6000600080516020613ce38339815191526133268484611f4b565b15613301576000848152602082815260408083206001600160a01b0387168085529252808320805460ff1916905551339287917ff6391f5c32d9c69d2a47ea670b442974b53935d1edc7fd64eb21e047a839171b9190a46001915050610d41565b7f9016d09d72d40fdae2fd8ceac6b6234c7706214fd39c1cd1e609a0528c19930080546001600160a01b031981166001600160a01b03848116918217845560405192169182907f8be0079c531659141344cd1fd0a4f28419497f9722a3daafe3b4186f6b6457e090600090a3505050565b6000807ff0c57e16840df040f15088dc2f81fe391c3923bec73e23a9662efc9c229c6a00610d41565b6134296134d6565b613227816134fb565b611c636134d6565b600080516020613ce3833981519152600061345484610f42565b600085815260208490526040808220600101869055519192508491839187917fbd79b86ffe0ab8e8776151514217cd7cacd52c909f66475c3af44e129f0b00ff9190a450505050565b6134a78282611f4b565b611c4d5760405163e2517d3f60e01b81526001600160a01b038216600482015260248101839052604401610da2565b6134de613503565b611c6357604051631afcd79f60e31b815260040160405180910390fd5b6131f46134d6565b600061350d6133f8565b54600160401b900460ff16919050565b634e487b7160e01b600052601160045260246000fd5b80820180821115610d4157610d4161351d565b80356001600160a01b038116811461355d57600080fd5b919050565b60006020828403121561357457600080fd5b61357d82613546565b9392505050565b60006020828403121561359657600080fd5b81356001600160e01b03198116811461357d57600080fd5b600080604083850312156135c157600080fd5b6135ca83613546565b946020939093013593505050565b6000602082840312156135ea57600080fd5b5035919050565b6000806040838503121561360457600080fd5b8235915061361460208401613546565b90509250929050565b6000806020838503121561363057600080fd5b823567ffffffffffffffff81111561364757600080fd5b8301601f8101851361365857600080fd5b803567ffffffffffffffff81111561366f57600080fd5b85602082840101111561368157600080fd5b6020919091019590945092505050565b600080604083850312156136a457600080fd5b6136ad83613546565b915061361460208401613546565b801515811461322757600080fd5b600080604083850312156136dc57600080fd5b6136e583613546565b915060208301356136f5816136bb565b809150509250929050565b8215158152604060208201526000825180604084015260005b818110156137365760208186018101516060868401015201613719565b506000606082850101526060601f19601f8301168401019150509392505050565b60008060006060848603121561376c57600080fd5b61377584613546565b925061378360208501613546565b915061379160408501613546565b90509250925092565b602080825282518282018190526000918401906040840190835b818110156137db5783516001600160a01b03168352602093840193909201916001016137b4565b509095945050505050565b6000602082840312156137f857600080fd5b815161357d816136bb565b6020808252601f908201527f546f6b656e206e6f7420616c6c6f77656420617320636f6c6c61746572616c00604082015260600190565b602080825260119082015270151bdad95b881b9bdd08185b1b1bddd959607a1b604082015260600190565b60208082526019908201527f4163636f756e7420697320696e206c69717569646174696f6e00000000000000604082015260600190565b8082028115828204841417610d4157610d4161351d565b6000826138d057634e487b7160e01b600052601260045260246000fd5b500490565b81810381811115610d4157610d4161351d565b60208082526032908201527f5769746864726177616c20776f756c64206d616b6520706f736974696f6e20756040820152711b99195c98dbdb1b185d195c985b1a5e995960721b606082015260800190565b634e487b7160e01b600052604160045260246000fd5b60006020828403121561396257600080fd5b813567ffffffffffffffff81111561397957600080fd5b8201601f8101841361398a57600080fd5b803567ffffffffffffffff8111156139a4576139a461393a565b8060051b604051601f19603f830116810181811067ffffffffffffffff821117156139d1576139d161393a565b6040529182526020818401810192908101878411156139ef57600080fd5b6020850194505b83851015613a1557613a0785613546565b8152602094850194016139f6565b509695505050505050565b634e487b7160e01b600052603260045260246000fd5b600060208284031215613a4857600080fd5b5051919050565b600060018201613a6157613a6161351d565b5060010190565b6020808252600d908201526c4e6f207265656e7472616e637960981b604082015260600190565b60208082526030908201527f426f72726f7720616d6f756e74206578636565647320617661696c61626c652060408201526f6c656e64696e6720636170616369747960801b606082015260800190565b60208082526025908201527f496e73756666696369656e7420636f6c6c61746572616c20666f722074686973604082015264103637b0b760d91b606082015260800190565b805169ffffffffffffffffffff8116811461355d57600080fd5b600080600080600060a08688031215613b5657600080fd5b613b5f86613b24565b60208701516040880151606089015192975090955093509150613b8460808701613b24565b90509295509295909350565b600060208284031215613ba257600080fd5b815160ff8116811461357d57600080fd5b60ff8281168282160390811115610d4157610d4161351d565b6001815b6001841115613c0757808504811115613beb57613beb61351d565b6001841615613bf957908102905b60019390931c928002613bd0565b935093915050565b600082613c1e57506001610d41565b81613c2b57506000610d41565b8160018114613c415760028114613c4b57613c67565b6001915050610d41565b60ff841115613c5c57613c5c61351d565b50506001821b610d41565b5060208310610133831016604e8410600b8410161715613c8a575081810a610d41565b613c976000198484613bcc565b8060001904821115613cab57613cab61351d565b029392505050565b600061357d60ff841683613c0f56fe3c364b9decdac59fbe037e99687219ac0feed46572bfbcbd5284b6b8e67f402d02dd7bc7dec4dceedda775e58dd541e08a116c6c53815c0bd028192f7b626800a26469706673582212202d3675d9f5a578f0ed743cb6d593002475b2eaf84624f4a9948b9ab5c048a42564736f6c634300081c0033",
  "linkReferences": {},
  "deployedLinkReferences": {}
}