{
  "_format": "hh-sol-artifact-1",
  "contractName": "LiquidityPoolV3",
  "sourceName": "contracts/LiquidityPoolV3.sol",
  "abi": [
    {
      "inputs": [],
      "name": "AccessControlBadConfirmation",
      "type": "error"
    },
    {
      "inputs": [
        {
          "internalType": "address",
          "name": "account",
          "type": "address"
        },
        {
          "internalType": "bytes32",
          "name": "neededRole",
          "type": "bytes32"
        }
      ],
      "name": "AccessControlUnauthorizedAccount",
      "type": "error"
    },
    {
      "inputs": [],
      "name": "InvalidInitialization",
      "type": "error"
    },
    {
      "inputs": [],
      "name": "NotInitializing",
      "type": "error"
    },
    {
      "inputs": [
        {
          "internalType": "address",
          "name": "owner",
          "type": "address"
        }
      ],
      "name": "OwnableInvalidOwner",
      "type": "error"
    },
    {
      "inputs": [
        {
          "internalType": "address",
          "name": "account",
          "type": "address"
        }
      ],
      "name": "OwnableUnauthorizedAccount",
      "type": "error"
    },
    {
      "anonymous": false,
      "inputs": [
        {
          "indexed": true,
          "internalType": "address",
          "name": "user",
          "type": "address"
        },
        {
          "indexed": false,
          "internalType": "uint256",
          "name": "amount",
          "type": "uint256"
        }
      ],
      "name": "Borrowed",
      "type": "event"
    },
    {
      "anonymous": false,
      "inputs": [
        {
          "indexed": true,
          "internalType": "address",
          "name": "user",
          "type": "address"
        },
        {
          "indexed": true,
          "internalType": "address",
          "name": "token",
          "type": "address"
        },
        {
          "indexed": false,
          "internalType": "uint256",
          "name": "amount",
          "type": "uint256"
        }
      ],
      "name": "CollateralDeposited",
      "type": "event"
    },
    {
      "anonymous": false,
      "inputs": [
        {
          "indexed": true,
          "internalType": "address",
          "name": "token",
          "type": "address"
        },
        {
          "indexed": false,
          "internalType": "bool",
          "name": "isAllowed",
          "type": "bool"
        }
      ],
      "name": "CollateralTokenStatusChanged",
      "type": "event"
    },
    {
      "anonymous": false,
      "inputs": [
        {
          "indexed": true,
          "internalType": "address",
          "name": "user",
          "type": "address"
        },
        {
          "indexed": true,
          "internalType": "address",
          "name": "token",
          "type": "address"
        },
        {
          "indexed": false,
          "internalType": "uint256",
          "name": "amount",
          "type": "uint256"
        }
      ],
      "name": "CollateralWithdrawn",
      "type": "event"
    },
    {
      "anonymous": false,
      "inputs": [
        {
          "indexed": true,
          "internalType": "address",
          "name": "user",
          "type": "address"
        },
        {
          "indexed": false,
          "internalType": "uint256",
          "name": "score",
          "type": "uint256"
        }
      ],
      "name": "CreditScoreAssigned",
      "type": "event"
    },
    {
      "anonymous": false,
      "inputs": [
        {
          "indexed": false,
          "internalType": "bool",
          "name": "isPaused",
          "type": "bool"
        }
      ],
      "name": "EmergencyPaused",
      "type": "event"
    },
    {
      "anonymous": false,
      "inputs": [
        {
          "indexed": true,
          "internalType": "address",
          "name": "owner",
          "type": "address"
        },
        {
          "indexed": false,
          "internalType": "uint256",
          "name": "amount",
          "type": "uint256"
        }
      ],
      "name": "Extracted",
      "type": "event"
    },
    {
      "anonymous": false,
      "inputs": [
        {
          "indexed": true,
          "internalType": "address",
          "name": "user",
          "type": "address"
        },
        {
          "indexed": false,
          "internalType": "uint256",
          "name": "newDeadline",
          "type": "uint256"
        }
      ],
      "name": "GracePeriodExtended",
      "type": "event"
    },
    {
      "anonymous": false,
      "inputs": [
        {
          "indexed": false,
          "internalType": "uint64",
          "name": "version",
          "type": "uint64"
        }
      ],
      "name": "Initialized",
      "type": "event"
    },
    {
      "anonymous": false,
      "inputs": [
        {
          "indexed": true,
          "internalType": "address",
          "name": "user",
          "type": "address"
        },
        {
          "indexed": true,
          "internalType": "address",
          "name": "liquidator",
          "type": "address"
        },
        {
          "indexed": false,
          "internalType": "uint256",
          "name": "amount",
          "type": "uint256"
        }
      ],
      "name": "LiquidationExecuted",
      "type": "event"
    },
    {
      "anonymous": false,
      "inputs": [
        {
          "indexed": true,
          "internalType": "address",
          "name": "user",
          "type": "address"
        }
      ],
      "name": "LiquidationStarted",
      "type": "event"
    },
    {
      "anonymous": false,
      "inputs": [
        {
          "indexed": true,
          "internalType": "address",
          "name": "previousOwner",
          "type": "address"
        },
        {
          "indexed": true,
          "internalType": "address",
          "name": "newOwner",
          "type": "address"
        }
      ],
      "name": "OwnershipTransferred",
      "type": "event"
    },
    {
      "anonymous": false,
      "inputs": [
        {
          "indexed": true,
          "internalType": "address",
          "name": "user",
          "type": "address"
        },
        {
          "indexed": false,
          "internalType": "uint256",
          "name": "amount",
          "type": "uint256"
        }
      ],
      "name": "Repaid",
      "type": "event"
    },
    {
      "anonymous": false,
      "inputs": [
        {
          "indexed": true,
          "internalType": "bytes32",
          "name": "role",
          "type": "bytes32"
        },
        {
          "indexed": true,
          "internalType": "bytes32",
          "name": "previousAdminRole",
          "type": "bytes32"
        },
        {
          "indexed": true,
          "internalType": "bytes32",
          "name": "newAdminRole",
          "type": "bytes32"
        }
      ],
      "name": "RoleAdminChanged",
      "type": "event"
    },
    {
      "anonymous": false,
      "inputs": [
        {
          "indexed": true,
          "internalType": "bytes32",
          "name": "role",
          "type": "bytes32"
        },
        {
          "indexed": true,
          "internalType": "address",
          "name": "account",
          "type": "address"
        },
        {
          "indexed": true,
          "internalType": "address",
          "name": "sender",
          "type": "address"
        }
      ],
      "name": "RoleGranted",
      "type": "event"
    },
    {
      "anonymous": false,
      "inputs": [
        {
          "indexed": true,
          "internalType": "bytes32",
          "name": "role",
          "type": "bytes32"
        },
        {
          "indexed": true,
          "internalType": "address",
          "name": "account",
          "type": "address"
        },
        {
          "indexed": true,
          "internalType": "address",
          "name": "sender",
          "type": "address"
        }
      ],
      "name": "RoleRevoked",
      "type": "event"
    },
    {
      "inputs": [],
      "name": "DEFAULT_ADMIN_ROLE",
      "outputs": [
        {
          "internalType": "bytes32",
          "name": "",
          "type": "bytes32"
        }
      ],
      "stateMutability": "view",
      "type": "function"
    },
    {
      "inputs": [],
      "name": "DEFAULT_LIQUIDATION_THRESHOLD",
      "outputs": [
        {
          "internalType": "uint256",
          "name": "",
          "type": "uint256"
        }
      ],
      "stateMutability": "view",
      "type": "function"
    },
    {
      "inputs": [],
      "name": "GRACE_PERIOD",
      "outputs": [
        {
          "internalType": "uint256",
          "name": "",
          "type": "uint256"
        }
      ],
      "stateMutability": "view",
      "type": "function"
    },
    {
      "inputs": [],
      "name": "LIQUIDATION_PENALTY",
      "outputs": [
        {
          "internalType": "uint256",
          "name": "",
          "type": "uint256"
        }
      ],
      "stateMutability": "view",
      "type": "function"
    },
    {
      "inputs": [
        {
          "internalType": "uint256",
          "name": "amount",
          "type": "uint256"
        }
      ],
      "name": "borrow",
      "outputs": [],
      "stateMutability": "nonpayable",
      "type": "function"
    },
    {
      "inputs": [
        {
          "internalType": "address",
          "name": "",
          "type": "address"
        }
      ],
      "name": "borrowTimestamp",
      "outputs": [
        {
          "internalType": "uint256",
          "name": "",
          "type": "uint256"
        }
      ],
      "stateMutability": "view",
      "type": "function"
    },
    {
      "inputs": [
        {
          "internalType": "address",
          "name": "user",
          "type": "address"
        }
      ],
      "name": "checkCollateralization",
      "outputs": [
        {
          "internalType": "bool",
          "name": "isHealthy",
          "type": "bool"
        },
        {
          "internalType": "uint256",
          "name": "ratio",
          "type": "uint256"
        }
      ],
      "stateMutability": "view",
      "type": "function"
    },
    {
      "inputs": [
        {
          "internalType": "address",
          "name": "",
          "type": "address"
        },
        {
          "internalType": "address",
          "name": "",
          "type": "address"
        }
      ],
      "name": "collateralBalance",
      "outputs": [
        {
          "internalType": "uint256",
          "name": "",
          "type": "uint256"
        }
      ],
      "stateMutability": "view",
      "type": "function"
    },
    {
      "inputs": [
        {
          "internalType": "uint256",
          "name": "",
          "type": "uint256"
        }
      ],
      "name": "collateralTokenList",
      "outputs": [
        {
          "internalType": "address",
          "name": "",
          "type": "address"
        }
      ],
      "stateMutability": "view",
      "type": "function"
    },
    {
      "inputs": [
        {
          "internalType": "address",
          "name": "",
          "type": "address"
        }
      ],
      "name": "creditScore",
      "outputs": [
        {
          "internalType": "uint256",
          "name": "",
          "type": "uint256"
        }
      ],
      "stateMutability": "view",
      "type": "function"
    },
    {
      "inputs": [
        {
          "internalType": "address",
          "name": "token",
          "type": "address"
        },
        {
          "internalType": "uint256",
          "name": "amount",
          "type": "uint256"
        }
      ],
      "name": "depositCollateral",
      "outputs": [],
      "stateMutability": "nonpayable",
      "type": "function"
    },
    {
      "inputs": [
        {
          "internalType": "address",
          "name": "user",
          "type": "address"
        }
      ],
      "name": "executeLiquidation",
      "outputs": [],
      "stateMutability": "nonpayable",
      "type": "function"
    },
    {
      "inputs": [
        {
          "internalType": "uint256",
          "name": "amount",
          "type": "uint256"
        }
      ],
      "name": "extract",
      "outputs": [],
      "stateMutability": "nonpayable",
      "type": "function"
    },
    {
      "inputs": [],
      "name": "getAdmin",
      "outputs": [
        {
          "internalType": "address",
          "name": "",
          "type": "address"
        }
      ],
      "stateMutability": "view",
      "type": "function"
    },
    {
      "inputs": [],
      "name": "getAllowedCollateralTokens",
      "outputs": [
        {
          "internalType": "address[]",
          "name": "",
          "type": "address[]"
        }
      ],
      "stateMutability": "view",
      "type": "function"
    },
    {
      "inputs": [],
      "name": "getBalance",
      "outputs": [
        {
          "internalType": "uint256",
          "name": "",
          "type": "uint256"
        }
      ],
      "stateMutability": "view",
      "type": "function"
    },
    {
      "inputs": [
        {
          "internalType": "address",
          "name": "user",
          "type": "address"
        },
        {
          "internalType": "address",
          "name": "token",
          "type": "address"
        }
      ],
      "name": "getCollateral",
      "outputs": [
        {
          "internalType": "uint256",
          "name": "",
          "type": "uint256"
        }
      ],
      "stateMutability": "view",
      "type": "function"
    },
    {
      "inputs": [
        {
          "internalType": "address",
          "name": "token",
          "type": "address"
        }
      ],
      "name": "getLiquidationThreshold",
      "outputs": [
        {
          "internalType": "uint256",
          "name": "",
          "type": "uint256"
        }
      ],
      "stateMutability": "view",
      "type": "function"
    },
    {
      "inputs": [],
      "name": "getMinCollateralRatio",
      "outputs": [
        {
          "internalType": "uint256",
          "name": "",
          "type": "uint256"
        }
      ],
      "stateMutability": "pure",
      "type": "function"
    },
    {
      "inputs": [],
      "name": "getMyDebt",
      "outputs": [
        {
          "internalType": "uint256",
          "name": "",
          "type": "uint256"
        }
      ],
      "stateMutability": "view",
      "type": "function"
    },
    {
      "inputs": [
        {
          "internalType": "bytes32",
          "name": "role",
          "type": "bytes32"
        }
      ],
      "name": "getRoleAdmin",
      "outputs": [
        {
          "internalType": "bytes32",
          "name": "",
          "type": "bytes32"
        }
      ],
      "stateMutability": "view",
      "type": "function"
    },
    {
      "inputs": [
        {
          "internalType": "address",
          "name": "token",
          "type": "address"
        }
      ],
      "name": "getTokenValue",
      "outputs": [
        {
          "internalType": "uint256",
          "name": "",
          "type": "uint256"
        }
      ],
      "stateMutability": "view",
      "type": "function"
    },
    {
      "inputs": [
        {
          "internalType": "address",
          "name": "user",
          "type": "address"
        }
      ],
      "name": "getTotalCollateralValue",
      "outputs": [
        {
          "internalType": "uint256",
          "name": "",
          "type": "uint256"
        }
      ],
      "stateMutability": "view",
      "type": "function"
    },
    {
      "inputs": [
        {
          "internalType": "bytes32",
          "name": "role",
          "type": "bytes32"
        },
        {
          "internalType": "address",
          "name": "account",
          "type": "address"
        }
      ],
      "name": "grantRole",
      "outputs": [],
      "stateMutability": "nonpayable",
      "type": "function"
    },
    {
      "inputs": [
        {
          "internalType": "bytes32",
          "name": "role",
          "type": "bytes32"
        },
        {
          "internalType": "address",
          "name": "account",
          "type": "address"
        }
      ],
      "name": "hasRole",
      "outputs": [
        {
          "internalType": "bool",
          "name": "",
          "type": "bool"
        }
      ],
      "stateMutability": "view",
      "type": "function"
    },
    {
      "inputs": [
        {
          "internalType": "address",
          "name": "initialOwner",
          "type": "address"
        }
      ],
      "name": "initialize",
      "outputs": [],
      "stateMutability": "nonpayable",
      "type": "function"
    },
    {
      "inputs": [
        {
          "internalType": "address",
          "name": "",
          "type": "address"
        }
      ],
      "name": "isAllowedCollateral",
      "outputs": [
        {
          "internalType": "bool",
          "name": "",
          "type": "bool"
        }
      ],
      "stateMutability": "view",
      "type": "function"
    },
    {
      "inputs": [
        {
          "internalType": "address",
          "name": "",
          "type": "address"
        }
      ],
      "name": "isLiquidatable",
      "outputs": [
        {
          "internalType": "bool",
          "name": "",
          "type": "bool"
        }
      ],
      "stateMutability": "view",
      "type": "function"
    },
    {
      "inputs": [],
      "name": "isPaused",
      "outputs": [
        {
          "internalType": "bool",
          "name": "",
          "type": "bool"
        }
      ],
      "stateMutability": "view",
      "type": "function"
    },
    {
      "inputs": [
        {
          "internalType": "address",
          "name": "",
          "type": "address"
        }
      ],
      "name": "liquidationStartTime",
      "outputs": [
        {
          "internalType": "uint256",
          "name": "",
          "type": "uint256"
        }
      ],
      "stateMutability": "view",
      "type": "function"
    },
    {
      "inputs": [
        {
          "internalType": "address",
          "name": "",
          "type": "address"
        }
      ],
      "name": "liquidationThreshold",
      "outputs": [
        {
          "internalType": "uint256",
          "name": "",
          "type": "uint256"
        }
      ],
      "stateMutability": "view",
      "type": "function"
    },
    {
      "inputs": [],
      "name": "liquidator",
      "outputs": [
        {
          "internalType": "address",
          "name": "",
          "type": "address"
        }
      ],
      "stateMutability": "view",
      "type": "function"
    },
    {
      "inputs": [],
      "name": "locked",
      "outputs": [
        {
          "internalType": "bool",
          "name": "",
          "type": "bool"
        }
      ],
      "stateMutability": "view",
      "type": "function"
    },
    {
      "inputs": [],
      "name": "owner",
      "outputs": [
        {
          "internalType": "address",
          "name": "",
          "type": "address"
        }
      ],
      "stateMutability": "view",
      "type": "function"
    },
    {
      "inputs": [],
      "name": "paused",
      "outputs": [
        {
          "internalType": "bool",
          "name": "",
          "type": "bool"
        }
      ],
      "stateMutability": "view",
      "type": "function"
    },
    {
      "inputs": [
        {
          "internalType": "address",
          "name": "",
          "type": "address"
        }
      ],
      "name": "priceFeed",
      "outputs": [
        {
          "internalType": "address",
          "name": "",
          "type": "address"
        }
      ],
      "stateMutability": "view",
      "type": "function"
    },
    {
      "inputs": [
        {
          "internalType": "address",
          "name": "token",
          "type": "address"
        },
        {
          "internalType": "uint256",
          "name": "amount",
          "type": "uint256"
        }
      ],
      "name": "recoverFromLiquidation",
      "outputs": [],
      "stateMutability": "nonpayable",
      "type": "function"
    },
    {
      "inputs": [],
      "name": "renounceOwnership",
      "outputs": [],
      "stateMutability": "nonpayable",
      "type": "function"
    },
    {
      "inputs": [
        {
          "internalType": "bytes32",
          "name": "role",
          "type": "bytes32"
        },
        {
          "internalType": "address",
          "name": "callerConfirmation",
          "type": "address"
        }
      ],
      "name": "renounceRole",
      "outputs": [],
      "stateMutability": "nonpayable",
      "type": "function"
    },
    {
      "inputs": [],
      "name": "repay",
      "outputs": [],
      "stateMutability": "payable",
      "type": "function"
    },
    {
      "inputs": [
        {
          "internalType": "bytes32",
          "name": "role",
          "type": "bytes32"
        },
        {
          "internalType": "address",
          "name": "account",
          "type": "address"
        }
      ],
      "name": "revokeRole",
      "outputs": [],
      "stateMutability": "nonpayable",
      "type": "function"
    },
    {
      "inputs": [
        {
          "internalType": "address",
          "name": "token",
          "type": "address"
        },
        {
          "internalType": "bool",
          "name": "allowed",
          "type": "bool"
        }
      ],
      "name": "setAllowedCollateral",
      "outputs": [],
      "stateMutability": "nonpayable",
      "type": "function"
    },
    {
      "inputs": [
        {
          "internalType": "address",
          "name": "user",
          "type": "address"
        },
        {
          "internalType": "uint256",
          "name": "score",
          "type": "uint256"
        }
      ],
      "name": "setCreditScore",
      "outputs": [],
      "stateMutability": "nonpayable",
      "type": "function"
    },
    {
      "inputs": [
        {
          "internalType": "address",
          "name": "token",
          "type": "address"
        },
        {
          "internalType": "uint256",
          "name": "threshold",
          "type": "uint256"
        }
      ],
      "name": "setLiquidationThreshold",
      "outputs": [],
      "stateMutability": "nonpayable",
      "type": "function"
    },
    {
      "inputs": [
        {
          "internalType": "address",
          "name": "_liquidator",
          "type": "address"
        }
      ],
      "name": "setLiquidator",
      "outputs": [],
      "stateMutability": "nonpayable",
      "type": "function"
    },
    {
      "inputs": [
        {
          "internalType": "address",
          "name": "token",
          "type": "address"
        },
        {
          "internalType": "address",
          "name": "feed",
          "type": "address"
        }
      ],
      "name": "setPriceFeed",
      "outputs": [],
      "stateMutability": "nonpayable",
      "type": "function"
    },
    {
      "inputs": [
        {
          "internalType": "address",
          "name": "user",
          "type": "address"
        }
      ],
      "name": "startLiquidation",
      "outputs": [],
      "stateMutability": "nonpayable",
      "type": "function"
    },
    {
      "inputs": [
        {
          "internalType": "bytes4",
          "name": "interfaceId",
          "type": "bytes4"
        }
      ],
      "name": "supportsInterface",
      "outputs": [
        {
          "internalType": "bool",
          "name": "",
          "type": "bool"
        }
      ],
      "stateMutability": "view",
      "type": "function"
    },
    {
      "inputs": [],
      "name": "togglePause",
      "outputs": [],
      "stateMutability": "nonpayable",
      "type": "function"
    },
    {
      "inputs": [],
      "name": "totalFunds",
      "outputs": [
        {
          "internalType": "uint256",
          "name": "",
          "type": "uint256"
        }
      ],
      "stateMutability": "view",
      "type": "function"
    },
    {
      "inputs": [
        {
          "internalType": "address",
          "name": "newOwner",
          "type": "address"
        }
      ],
      "name": "transferOwnership",
      "outputs": [],
      "stateMutability": "nonpayable",
      "type": "function"
    },
    {
      "inputs": [
        {
          "internalType": "address",
          "name": "",
          "type": "address"
        }
      ],
      "name": "userDebt",
      "outputs": [
        {
          "internalType": "uint256",
          "name": "",
          "type": "uint256"
        }
      ],
      "stateMutability": "view",
      "type": "function"
    },
    {
      "inputs": [
        {
          "internalType": "address",
          "name": "token",
          "type": "address"
        },
        {
          "internalType": "uint256",
          "name": "amount",
          "type": "uint256"
        }
      ],
      "name": "withdrawCollateral",
      "outputs": [],
      "stateMutability": "nonpayable",
      "type": "function"
    },
    {
      "stateMutability": "payable",
      "type": "receive"
    }
  ],
  "bytecode": "0x6080604052348015600f57600080fd5b50612dae8061001f6000396000f3fe60806040526004361061031e5760003560e01c80638e6b53bc116101ab578063c23c69d5116100f7578063d547741f11610095578063e7602b9d1161006f578063e7602b9d146109b0578063f1c5d6c2146109e5578063f2fde38b14610a05578063f7e590ee14610a2557600080fd5b8063d547741f14610950578063e1c5010014610970578063e2e296791461099057600080fd5b8063c5ebeaec116100d1578063c5ebeaec146108c7578063cf176225146108e7578063cf30901214610909578063d29255f91461092357600080fd5b8063c23c69d514610865578063c4ae316814610892578063c4d66de8146108a757600080fd5b8063a5d5db0c11610164578063b3a5a0a21161013e578063b3a5a0a2146107ec578063b69e5c771461080c578063c129d50414610839578063c1a287e21461084e57600080fd5b8063a5d5db0c14610782578063b1732b25146107a2578063b187bd26146107cf57600080fd5b80638e6b53bc146106cb57806391d1485414610702578063968ed6001461072257806397ed81cf146107385780639b8621d514610758578063a217fddf1461076d57600080fd5b8063450a375a1161026a5780636e9960c31161022357806376e11286116101fd57806376e11286146106565780637b86e42c1461067657806385b39782146106965780638da5cb5b146106b657600080fd5b80636e9960c3146105fc578063715018a6146106115780637346f4861461062657600080fd5b8063450a375a146105225780634c8f35ab1461054457806352226ef01461055857806355f4d9e21461059d5780635c975abb146105bd5780636c648fc4146105dc57600080fd5b80631fd48b9a116102d7578063350c35e9116102b1578063350c35e9146104b457806336568abe146104d4578063402d8883146104f45780634046ebae146104fc57600080fd5b80631fd48b9a14610426578063248a9ca3146104745780632f2ff15d1461049457600080fd5b806301c76f811461034257806301ffc9a714610364578063042e02cf14610399578063080d9c2b146103c95780630e30428d146103e957806312065fe01461040957600080fd5b3661033d5734600a60008282546103359190612973565b925050819055005b600080fd5b34801561034e57600080fd5b5061036261035d36600461299d565b610a52565b005b34801561037057600080fd5b5061038461037f3660046129b8565b610a88565b60405190151581526020015b60405180910390f35b3480156103a557600080fd5b506103846103b436600461299d565b60056020526000908152604090205460ff1681565b3480156103d557600080fd5b506103626103e43660046129e2565b610abf565b3480156103f557600080fd5b506103626104043660046129e2565b610c0e565b34801561041557600080fd5b50475b604051908152602001610390565b34801561043257600080fd5b5061045c61044136600461299d565b6008602052600090815260409020546001600160a01b031681565b6040516001600160a01b039091168152602001610390565b34801561048057600080fd5b5061041861048f366004612a0c565b610cea565b3480156104a057600080fd5b506103626104af366004612a25565b610d0c565b3480156104c057600080fd5b506103626104cf3660046129e2565b610d2e565b3480156104e057600080fd5b506103626104ef366004612a25565b61100f565b610362611042565b34801561050857600080fd5b50600b5461045c906201000090046001600160a01b031681565b34801561052e57600080fd5b5033600090815260036020526040902054610418565b34801561055057600080fd5b506082610418565b34801561056457600080fd5b50610418610573366004612a51565b6001600160a01b038082166000908152602081815260408083209386168352929052205492915050565b3480156105a957600080fd5b506103626105b8366004612a89565b611273565b3480156105c957600080fd5b50600b5461038490610100900460ff1681565b3480156105e857600080fd5b506104186105f736600461299d565b61139a565b34801561060857600080fd5b5061045c611448565b34801561061d57600080fd5b5061036261149f565b34801561063257600080fd5b5061038461064136600461299d565b60016020526000908152604090205460ff1681565b34801561066257600080fd5b50610362610671366004612a51565b6114b3565b34801561068257600080fd5b5061041861069136600461299d565b611551565b3480156106a257600080fd5b506103626106b1366004612a0c565b61157f565b3480156106c257600080fd5b5061045c6116d7565b3480156106d757600080fd5b506106eb6106e636600461299d565b611705565b604080519215158352602083019190915201610390565b34801561070e57600080fd5b5061038461071d366004612a25565b61176b565b34801561072e57600080fd5b50610418600a5481565b34801561074457600080fd5b506103626107533660046129e2565b6117a3565b34801561076457600080fd5b50610418600581565b34801561077957600080fd5b50610418600081565b34801561078e57600080fd5b5061036261079d3660046129e2565b6118e5565b3480156107ae57600080fd5b506104186107bd36600461299d565b60076020526000908152604090205481565b3480156107db57600080fd5b50600b54610100900460ff16610384565b3480156107f857600080fd5b5061045c610807366004612a0c565b611ad4565b34801561081857600080fd5b5061041861082736600461299d565b60036020526000908152604090205481565b34801561084557600080fd5b50610418608281565b34801561085a57600080fd5b506104186203f48081565b34801561087157600080fd5b5061041861088036600461299d565b60066020526000908152604090205481565b34801561089e57600080fd5b50610362611afe565b3480156108b357600080fd5b506103626108c236600461299d565b611b68565b3480156108d357600080fd5b506103626108e2366004612a0c565b611c83565b3480156108f357600080fd5b506108fc611fba565b6040516103909190612ac0565b34801561091557600080fd5b50600b546103849060ff1681565b34801561092f57600080fd5b5061041861093e36600461299d565b60046020526000908152604090205481565b34801561095c57600080fd5b5061036261096b366004612a25565b612101565b34801561097c57600080fd5b5061036261098b36600461299d565b61211d565b34801561099c57600080fd5b506103626109ab36600461299d565b612232565b3480156109bc57600080fd5b506104186109cb366004612a51565b600060208181529281526040808220909352908152205481565b3480156109f157600080fd5b50610418610a0036600461299d565b6124cf565b348015610a1157600080fd5b50610362610a2036600461299d565b612628565b348015610a3157600080fd5b50610418610a4036600461299d565b60026020526000908152604090205481565b6000610a5d81612666565b50600b80546001600160a01b03909216620100000262010000600160b01b0319909216919091179055565b60006001600160e01b03198216637965db0b60e01b1480610ab957506301ffc9a760e01b6001600160e01b03198316145b92915050565b3360009081526005602052604090205460ff16610b235760405162461bcd60e51b815260206004820152601a60248201527f4163636f756e74206e6f7420696e206c69717569646174696f6e00000000000060448201526064015b60405180910390fd5b6040516323b872dd60e01b8152336004820152306024820152604481018290526001600160a01b038316906323b872dd906064016020604051808303816000875af1158015610b76573d6000803e3d6000fd5b505050506040513d601f19601f82011682018060405250810190610b9a9190612b0c565b506001600160a01b03821660009081526020818152604080832033845290915281208054839290610bcc908490612973565b9091555060009050610bdd33611705565b5090508015610c0957336000908152600560209081526040808320805460ff1916905560069091528120555b505050565b610c16612670565b6001600160a01b03821660009081526001602052604090205460ff16610c7e5760405162461bcd60e51b815260206004820152601f60248201527f546f6b656e206e6f7420616c6c6f77656420617320636f6c6c61746572616c006044820152606401610b1a565b60648111610cce5760405162461bcd60e51b815260206004820152601860248201527f5468726573686f6c64206d757374206265203e203130302500000000000000006044820152606401610b1a565b6001600160a01b03909116600090815260076020526040902055565b6000908152600080516020612d59833981519152602052604090206001015490565b610d1582610cea565b610d1e81612666565b610d2883836126a2565b50505050565b6001600160a01b03821660009081526001602052604090205460ff16610d8a5760405162461bcd60e51b8152602060048201526011602482015270151bdad95b881b9bdd08185b1b1bddd959607a1b6044820152606401610b1a565b6001600160a01b038216600090815260208181526040808320338452909152902054811115610df25760405162461bcd60e51b8152602060048201526014602482015273496e73756666696369656e742062616c616e636560601b6044820152606401610b1a565b3360009081526005602052604090205460ff1615610e4e5760405162461bcd60e51b815260206004820152601960248201527820b1b1b7bab73a1034b99034b7103634b8bab4b230ba34b7b760391b6044820152606401610b1a565b6000670de0b6b3a7640000610e62846124cf565b610e6c9084612b29565b610e769190612b40565b610e7f3361139a565b610e899190612b62565b9050610e9483611551565b33600090815260036020526040902054610eae9190612b29565b610eb9826064612b29565b1015610f225760405162461bcd60e51b815260206004820152603260248201527f5769746864726177616c20776f756c64206d616b6520706f736974696f6e20756044820152711b99195c98dbdb1b185d195c985b1a5e995960721b6064820152608401610b1a565b6001600160a01b03831660009081526020818152604080832033845290915281208054849290610f53908490612b62565b909155505060405163a9059cbb60e01b8152336004820152602481018390526001600160a01b0384169063a9059cbb906044016020604051808303816000875af1158015610fa5573d6000803e3d6000fd5b505050506040513d601f19601f82011682018060405250810190610fc99190612b0c565b506040518281526001600160a01b0384169033907f45892a46e6cef329bb642da6d69846d324db43d19008edc141ed82382eda1bee9060200160405180910390a3505050565b6001600160a01b03811633146110385760405163334bd91960e11b815260040160405180910390fd5b610c098282612747565b600b54610100900460ff161561108f5760405162461bcd60e51b815260206004820152601260248201527110dbdb9d1c9858dd081a5cc81c185d5cd95960721b6044820152606401610b1a565b336000908152600360205260409020546110e15760405162461bcd60e51b8152602060048201526013602482015272139bc81bdd5d1cdd185b991a5b99c81919589d606a1b6044820152606401610b1a565b336000908152600360205260409020543410156111345760405162461bcd60e51b815260206004820152601160248201527052657061796d656e7420746f6f206c6f7760781b6044820152606401610b1a565b600034116111845760405162461bcd60e51b815260206004820152601860248201527f4d7573742073656e642066756e647320746f20726570617900000000000000006044820152606401610b1a565b3360009081526003602052604081205434116111a057346111b1565b336000908152600360205260409020545b336000908152600360205260408120805492935083929091906111d5908490612b62565b9250508190555080600a60008282546111ee9190612973565b9091555050336000908152600460209081526040808320839055600590915290205460ff161561123b57336000908152600560209081526040808320805460ff1916905560069091528120555b60405181815233907f0516911bcc3a0a7412a44601057c0a0a1ec628bde049a84284bc4288665344889060200160405180910390a250565b61127b612670565b6001600160a01b0382166000908152600160205260408120805460ff1916831515179055805b6009548110156112f357836001600160a01b0316600982815481106112c8576112c8612b75565b6000918252602090912001546001600160a01b0316036112eb57600191506112f3565b6001016112a1565b508180156112ff575080155b1561135057600980546001810182556000919091527f6e1540171b6c0c960b71a7020d9f60077f6af931a8bbf590da0223dacf75c7af0180546001600160a01b0319166001600160a01b0385161790555b826001600160a01b03167f15f5cc64ca777db85f6c05fdba671568758b38329616d4d4b43bb8b092fe9a8d8360405161138d911515815260200190565b60405180910390a2505050565b600080806113a6611fba565b905060005b815181101561143f5760008282815181106113c8576113c8612b75565b6020908102919091018101516001600160a01b0380821660009081528084526040808220928b1682529190935290912054909150801561143557670de0b6b3a7640000611414836124cf565b61141e9083612b29565b6114289190612b40565b6114329086612973565b94505b50506001016113ab565b50909392505050565b6000806114536116d7565b90506001600160a01b03811661149a5760405162461bcd60e51b815260206004820152600c60248201526b139bc818591b5a5b881cd95d60a21b6044820152606401610b1a565b919050565b6114a7612670565b6114b160006127c3565b565b6114bb612670565b6001600160a01b03821660009081526001602052604090205460ff166115235760405162461bcd60e51b815260206004820152601f60248201527f546f6b656e206e6f7420616c6c6f77656420617320636f6c6c61746572616c006044820152606401610b1a565b6001600160a01b03918216600090815260086020526040902080546001600160a01b03191691909216179055565b6001600160a01b03811660009081526007602052604081205480611576576082611578565b805b9392505050565b611587612670565b600b5460ff16156115ca5760405162461bcd60e51b815260206004820152600d60248201526c4e6f207265656e7472616e637960981b6044820152606401610b1a565b600b805460ff19166001179055478111156116275760405162461bcd60e51b815260206004820152601d60248201527f496e73756666696369656e7420636f6e74726163742062616c616e63650000006044820152606401610b1a565b80600a60008282546116399190612b62565b9091555061164790506116d7565b6001600160a01b03166108fc829081150290604051600060405180830381858888f1935050505015801561167f573d6000803e3d6000fd5b506116886116d7565b6001600160a01b03167f69c169e5c85af54e1ca7e16608ccc812437821387924fb3353a7d053264ddaa0826040516116c291815260200190565b60405180910390a250600b805460ff19169055565b7f9016d09d72d40fdae2fd8ceac6b6234c7706214fd39c1cd1e609a0528c199300546001600160a01b031690565b60008060006117138461139a565b6001600160a01b0385166000908152600360205260408120549192508190036117455750600194600019945092505050565b80611751836064612b29565b61175b9190612b40565b9250608283101593505050915091565b6000918252600080516020612d59833981519152602090815260408084206001600160a01b0393909316845291905290205460ff1690565b6117ab612670565b816001600160a01b0381166118025760405162461bcd60e51b815260206004820152601d60248201527f496e76616c696420616464726573733a207a65726f20616464726573730000006044820152606401610b1a565b306001600160a01b038216036118525760405162461bcd60e51b815260206004820152601560248201527424b73b30b634b21030b2323932b9b99d1039b2b63360591b6044820152606401610b1a565b60648211156118985760405162461bcd60e51b815260206004820152601260248201527153636f7265206f7574206f662072616e676560701b6044820152606401610b1a565b6001600160a01b03831660008181526002602052604090819020849055517f4afae6838a181695abc7978598380d73bc2144eb38580c130f86e4b1e6531e159061138d9085815260200190565b6001600160a01b03821660009081526001602052604090205460ff166119415760405162461bcd60e51b8152602060048201526011602482015270151bdad95b881b9bdd08185b1b1bddd959607a1b6044820152606401610b1a565b600081116119865760405162461bcd60e51b81526020600482015260126024820152710416d6f756e74206d757374206265203e20360741b6044820152606401610b1a565b3360009081526005602052604090205460ff16156119e25760405162461bcd60e51b815260206004820152601960248201527820b1b1b7bab73a1034b99034b7103634b8bab4b230ba34b7b760391b6044820152606401610b1a565b6040516323b872dd60e01b8152336004820152306024820152604481018290526001600160a01b038316906323b872dd906064016020604051808303816000875af1158015611a35573d6000803e3d6000fd5b505050506040513d601f19601f82011682018060405250810190611a599190612b0c565b506001600160a01b03821660009081526020818152604080832033845290915281208054839290611a8b908490612973565b90915550506040518181526001600160a01b0383169033907ff1c0dd7e9b98bbff859029005ef89b127af049cd18df1a8d79f0b7e019911e569060200160405180910390a35050565b60098181548110611ae457600080fd5b6000918252602090912001546001600160a01b0316905081565b611b06612670565b600b805460ff610100808304821615810261ff001990931692909217928390556040517f228f455d7bc3d0b24a3a08d7847f391c3e78fc8aeb83acf226b7a96ee162b8ac93611b5e9390049091161515815260200190565b60405180910390a1565b6000611b72612834565b805490915060ff600160401b820416159067ffffffffffffffff16600081158015611b9a5750825b905060008267ffffffffffffffff166001148015611bb75750303b155b905081158015611bc5575080155b15611be35760405163f92ee8a960e01b815260040160405180910390fd5b845467ffffffffffffffff191660011785558315611c0d57845460ff60401b1916600160401b1785555b611c168661285d565b611c1e61286e565b611c29600080612876565b611c346000876126a2565b508315611c7b57845460ff60401b19168555604051600181527fc7f505b2f371ae2175ee4913f4499e1f2633a7b5936321eed1cdaeb6115181d29060200160405180910390a15b505050505050565b600b54610100900460ff1615611cd05760405162461bcd60e51b815260206004820152601260248201527110dbdb9d1c9858dd081a5cc81c185d5cd95960721b6044820152606401610b1a565b600b5460ff1615611d135760405162461bcd60e51b815260206004820152600d60248201526c4e6f207265656e7472616e637960981b6044820152606401610b1a565b600b805460ff1916600117905580611d6d5760405162461bcd60e51b815260206004820152601d60248201527f416d6f756e74206d7573742062652067726561746572207468616e20300000006044820152606401610b1a565b33600090815260026020526040902054603c1115611dc45760405162461bcd60e51b81526020600482015260146024820152734372656469742073636f726520746f6f206c6f7760601b6044820152606401610b1a565b6002600a54611dd39190612b40565b811115611e225760405162461bcd60e51b815260206004820152601e60248201527f496e73756666696369656e742066756e647320696e2074686520706f6f6c00006044820152606401610b1a565b3360009081526003602052604090205415611e7f5760405162461bcd60e51b815260206004820152601e60248201527f526570617920796f7572206578697374696e67206465627420666972737400006044820152606401610b1a565b6000611e8a3361139a565b9050611e97608283612b29565b611ea2826064612b29565b1015611efe5760405162461bcd60e51b815260206004820152602560248201527f496e73756666696369656e7420636f6c6c61746572616c20666f722074686973604482015264103637b0b760d91b6064820152608401610b1a565b3360009081526003602052604081208054849290611f1d908490612973565b9250508190555081600a6000828254611f369190612b62565b9091555050336000818152600460205260408082204290555184156108fc0291859190818181858888f19350505050158015611f76573d6000803e3d6000fd5b5060405182815233907fac59582e5396aca512fa873a2047e7f4c80f8f55d4a06cb34a78a0187f62719f9060200160405180910390a25050600b805460ff19169055565b60606000805b600954811015612024576001600060098381548110611fe157611fe1612b75565b60009182526020808320909101546001600160a01b0316835282019290925260400190205460ff161561201c578161201881612b8b565b9250505b600101611fc0565b5060008167ffffffffffffffff81111561204057612040612ba4565b604051908082528060200260200182016040528015612069578160200160208202803683370190505b5090506000805b60095481101561143f5760006009828154811061208f5761208f612b75565b60009182526020808320909101546001600160a01b0316808352600190915260409091205490915060ff16156120f857808484815181106120d2576120d2612b75565b6001600160a01b0390921660209283029190910190910152826120f481612b8b565b9350505b50600101612070565b61210a82610cea565b61211381612666565b610d288383612747565b600061212882611705565b509050801561216f5760405162461bcd60e51b8152602060048201526013602482015272506f736974696f6e206973206865616c74687960681b6044820152606401610b1a565b6001600160a01b03821660009081526005602052604090205460ff16156121d85760405162461bcd60e51b815260206004820152601b60248201527f4c69717569646174696f6e20616c7265616479207374617274656400000000006044820152606401610b1a565b6001600160a01b0382166000818152600560209081526040808320805460ff191660011790556006909152808220429055517f7f62ed89ea2c6fb057e4ea77729c1d3f18056339791fce29ac89760197b45b299190a25050565b6001600160a01b03811660009081526005602052604090205460ff166122a55760405162461bcd60e51b815260206004820152602260248201527f4163636f756e74206e6f74206d61726b656420666f72206c697175696461746960448201526137b760f11b6064820152608401610b1a565b6001600160a01b0381166000908152600660205260409020546122cc906203f48090612973565b4210156123145760405162461bcd60e51b815260206004820152601660248201527511dc9858d9481c195c9a5bd9081b9bdd08195b99195960521b6044820152606401610b1a565b6001600160a01b03811660009081526003602052604081205490606461233b600584612b29565b6123459190612b40565b905060006123538284612973565b9050600061235f611fba565b905060005b815181101561245257600082828151811061238157612381612b75565b6020908102919091018101516001600160a01b0380821660009081528084526040808220928c16825291909352909120549091508015612448576001600160a01b03828116600081815260208181526040808320948d16835293905282812055905163a9059cbb60e01b81523360048201526024810183905263a9059cbb906044016020604051808303816000875af1158015612422573d6000803e3d6000fd5b505050506040513d601f19601f820116820180604052508101906124469190612b0c565b505b5050600101612364565b506001600160a01b03851660008181526003602090815260408083208390556004825280832083905560058252808320805460ff19169055600682528083209290925590518481523392917f1175522017e08c2f400d7e516608eff60816ee9e8319158d174321234b602631910160405180910390a35050505050565b6001600160a01b038082166000908152600860205260408120549091168061252e5760405162461bcd60e51b8152602060048201526012602482015271141c9a58d94819995959081b9bdd081cd95d60721b6044820152606401610b1a565b60008190506000816001600160a01b031663feaf968c6040518163ffffffff1660e01b815260040160a060405180830381865afa158015612573573d6000803e3d6000fd5b505050506040513d601f19601f820116820180604052508101906125979190612bd4565b505050915050816001600160a01b031663313ce5676040518163ffffffff1660e01b8152600401602060405180830381865afa1580156125db573d6000803e3d6000fd5b505050506040513d601f19601f820116820180604052508101906125ff9190612c26565b61260a906012612c49565b61261590600a612d49565b61261f9082612b29565b95945050505050565b612630612670565b6001600160a01b03811661265a57604051631e4fbdf760e01b815260006004820152602401610b1a565b612663816127c3565b50565b61266381336128d9565b336126796116d7565b6001600160a01b0316146114b15760405163118cdaa760e01b8152336004820152602401610b1a565b6000600080516020612d598339815191526126bd848461176b565b61273d576000848152602082815260408083206001600160a01b03871684529091529020805460ff191660011790556126f33390565b6001600160a01b0316836001600160a01b0316857f2f8788117e7eff1d82e926ec794901d17c78024a50270940304540a733656f0d60405160405180910390a46001915050610ab9565b6000915050610ab9565b6000600080516020612d59833981519152612762848461176b565b1561273d576000848152602082815260408083206001600160a01b0387168085529252808320805460ff1916905551339287917ff6391f5c32d9c69d2a47ea670b442974b53935d1edc7fd64eb21e047a839171b9190a46001915050610ab9565b7f9016d09d72d40fdae2fd8ceac6b6234c7706214fd39c1cd1e609a0528c19930080546001600160a01b031981166001600160a01b03848116918217845560405192169182907f8be0079c531659141344cd1fd0a4f28419497f9722a3daafe3b4186f6b6457e090600090a3505050565b6000807ff0c57e16840df040f15088dc2f81fe391c3923bec73e23a9662efc9c229c6a00610ab9565b612865612916565b6126638161293b565b6114b1612916565b600080516020612d59833981519152600061289084610cea565b600085815260208490526040808220600101869055519192508491839187917fbd79b86ffe0ab8e8776151514217cd7cacd52c909f66475c3af44e129f0b00ff9190a450505050565b6128e3828261176b565b6129125760405163e2517d3f60e01b81526001600160a01b038216600482015260248101839052604401610b1a565b5050565b61291e612943565b6114b157604051631afcd79f60e31b815260040160405180910390fd5b612630612916565b600061294d612834565b54600160401b900460ff16919050565b634e487b7160e01b600052601160045260246000fd5b80820180821115610ab957610ab961295d565b80356001600160a01b038116811461149a57600080fd5b6000602082840312156129af57600080fd5b61157882612986565b6000602082840312156129ca57600080fd5b81356001600160e01b03198116811461157857600080fd5b600080604083850312156129f557600080fd5b6129fe83612986565b946020939093013593505050565b600060208284031215612a1e57600080fd5b5035919050565b60008060408385031215612a3857600080fd5b82359150612a4860208401612986565b90509250929050565b60008060408385031215612a6457600080fd5b612a6d83612986565b9150612a4860208401612986565b801515811461266357600080fd5b60008060408385031215612a9c57600080fd5b612aa583612986565b91506020830135612ab581612a7b565b809150509250929050565b602080825282518282018190526000918401906040840190835b81811015612b015783516001600160a01b0316835260209384019390920191600101612ada565b509095945050505050565b600060208284031215612b1e57600080fd5b815161157881612a7b565b8082028115828204841417610ab957610ab961295d565b600082612b5d57634e487b7160e01b600052601260045260246000fd5b500490565b81810381811115610ab957610ab961295d565b634e487b7160e01b600052603260045260246000fd5b600060018201612b9d57612b9d61295d565b5060010190565b634e487b7160e01b600052604160045260246000fd5b805169ffffffffffffffffffff8116811461149a57600080fd5b600080600080600060a08688031215612bec57600080fd5b612bf586612bba565b60208701516040880151606089015192975090955093509150612c1a60808701612bba565b90509295509295909350565b600060208284031215612c3857600080fd5b815160ff8116811461157857600080fd5b60ff8281168282160390811115610ab957610ab961295d565b6001815b6001841115612c9d57808504811115612c8157612c8161295d565b6001841615612c8f57908102905b60019390931c928002612c66565b935093915050565b600082612cb457506001610ab9565b81612cc157506000610ab9565b8160018114612cd75760028114612ce157612cfd565b6001915050610ab9565b60ff841115612cf257612cf261295d565b50506001821b610ab9565b5060208310610133831016604e8410600b8410161715612d20575081810a610ab9565b612d2d6000198484612c62565b8060001904821115612d4157612d4161295d565b029392505050565b600061157860ff841683612ca556fe02dd7bc7dec4dceedda775e58dd541e08a116c6c53815c0bd028192f7b626800a2646970667358221220bd757e01a2cd95653197487e3ad1c7e6d6d3fc3230907f4954562ff421aebe9564736f6c634300081c0033",
  "linkReferences": {},
  "deployedLinkReferences": {}
}