{
  "_format": "hh-sol-artifact-1",
  "contractName": "LiquidityPoolV3",
  "sourceName": "contracts/LiquidityPoolV3.sol",
  "abi": [
    {
      "inputs": [],
      "name": "AccessControlBadConfirmation",
      "type": "error"
    },
    {
      "inputs": [
        {
          "internalType": "address",
          "name": "account",
          "type": "address"
        },
        {
          "internalType": "bytes32",
          "name": "neededRole",
          "type": "bytes32"
        }
      ],
      "name": "AccessControlUnauthorizedAccount",
      "type": "error"
    },
    {
      "inputs": [],
      "name": "InvalidInitialization",
      "type": "error"
    },
    {
      "inputs": [],
      "name": "NotInitializing",
      "type": "error"
    },
    {
      "inputs": [
        {
          "internalType": "address",
          "name": "owner",
          "type": "address"
        }
      ],
      "name": "OwnableInvalidOwner",
      "type": "error"
    },
    {
      "inputs": [
        {
          "internalType": "address",
          "name": "account",
          "type": "address"
        }
      ],
      "name": "OwnableUnauthorizedAccount",
      "type": "error"
    },
    {
      "anonymous": false,
      "inputs": [
        {
          "indexed": true,
          "internalType": "address",
          "name": "user",
          "type": "address"
        },
        {
          "indexed": false,
          "internalType": "uint256",
          "name": "amount",
          "type": "uint256"
        }
      ],
      "name": "Borrowed",
      "type": "event"
    },
    {
      "anonymous": false,
      "inputs": [
        {
          "indexed": true,
          "internalType": "address",
          "name": "user",
          "type": "address"
        },
        {
          "indexed": true,
          "internalType": "address",
          "name": "token",
          "type": "address"
        },
        {
          "indexed": false,
          "internalType": "uint256",
          "name": "amount",
          "type": "uint256"
        }
      ],
      "name": "CollateralDeposited",
      "type": "event"
    },
    {
      "anonymous": false,
      "inputs": [
        {
          "indexed": true,
          "internalType": "address",
          "name": "token",
          "type": "address"
        },
        {
          "indexed": false,
          "internalType": "bool",
          "name": "isAllowed",
          "type": "bool"
        }
      ],
      "name": "CollateralTokenStatusChanged",
      "type": "event"
    },
    {
      "anonymous": false,
      "inputs": [
        {
          "indexed": true,
          "internalType": "address",
          "name": "user",
          "type": "address"
        },
        {
          "indexed": true,
          "internalType": "address",
          "name": "token",
          "type": "address"
        },
        {
          "indexed": false,
          "internalType": "uint256",
          "name": "amount",
          "type": "uint256"
        }
      ],
      "name": "CollateralWithdrawn",
      "type": "event"
    },
    {
      "anonymous": false,
      "inputs": [
        {
          "indexed": true,
          "internalType": "address",
          "name": "user",
          "type": "address"
        },
        {
          "indexed": false,
          "internalType": "uint256",
          "name": "score",
          "type": "uint256"
        }
      ],
      "name": "CreditScoreAssigned",
      "type": "event"
    },
    {
      "anonymous": false,
      "inputs": [
        {
          "indexed": true,
          "internalType": "address",
          "name": "oldSystem",
          "type": "address"
        },
        {
          "indexed": true,
          "internalType": "address",
          "name": "newSystem",
          "type": "address"
        }
      ],
      "name": "CreditSystemUpdated",
      "type": "event"
    },
    {
      "anonymous": false,
      "inputs": [
        {
          "indexed": false,
          "internalType": "bool",
          "name": "isPaused",
          "type": "bool"
        }
      ],
      "name": "EmergencyPaused",
      "type": "event"
    },
    {
      "anonymous": false,
      "inputs": [
        {
          "indexed": true,
          "internalType": "address",
          "name": "owner",
          "type": "address"
        },
        {
          "indexed": false,
          "internalType": "uint256",
          "name": "amount",
          "type": "uint256"
        }
      ],
      "name": "Extracted",
      "type": "event"
    },
    {
      "anonymous": false,
      "inputs": [
        {
          "indexed": true,
          "internalType": "address",
          "name": "user",
          "type": "address"
        },
        {
          "indexed": false,
          "internalType": "uint256",
          "name": "newDeadline",
          "type": "uint256"
        }
      ],
      "name": "GracePeriodExtended",
      "type": "event"
    },
    {
      "anonymous": false,
      "inputs": [
        {
          "indexed": false,
          "internalType": "uint64",
          "name": "version",
          "type": "uint64"
        }
      ],
      "name": "Initialized",
      "type": "event"
    },
    {
      "anonymous": false,
      "inputs": [
        {
          "indexed": true,
          "internalType": "address",
          "name": "user",
          "type": "address"
        },
        {
          "indexed": true,
          "internalType": "address",
          "name": "liquidator",
          "type": "address"
        },
        {
          "indexed": false,
          "internalType": "uint256",
          "name": "amount",
          "type": "uint256"
        }
      ],
      "name": "LiquidationExecuted",
      "type": "event"
    },
    {
      "anonymous": false,
      "inputs": [
        {
          "indexed": true,
          "internalType": "address",
          "name": "user",
          "type": "address"
        }
      ],
      "name": "LiquidationStarted",
      "type": "event"
    },
    {
      "anonymous": false,
      "inputs": [
        {
          "indexed": true,
          "internalType": "address",
          "name": "previousOwner",
          "type": "address"
        },
        {
          "indexed": true,
          "internalType": "address",
          "name": "newOwner",
          "type": "address"
        }
      ],
      "name": "OwnershipTransferred",
      "type": "event"
    },
    {
      "anonymous": false,
      "inputs": [
        {
          "indexed": true,
          "internalType": "address",
          "name": "user",
          "type": "address"
        },
        {
          "indexed": false,
          "internalType": "uint256",
          "name": "amount",
          "type": "uint256"
        }
      ],
      "name": "Repaid",
      "type": "event"
    },
    {
      "anonymous": false,
      "inputs": [
        {
          "indexed": true,
          "internalType": "bytes32",
          "name": "role",
          "type": "bytes32"
        },
        {
          "indexed": true,
          "internalType": "bytes32",
          "name": "previousAdminRole",
          "type": "bytes32"
        },
        {
          "indexed": true,
          "internalType": "bytes32",
          "name": "newAdminRole",
          "type": "bytes32"
        }
      ],
      "name": "RoleAdminChanged",
      "type": "event"
    },
    {
      "anonymous": false,
      "inputs": [
        {
          "indexed": true,
          "internalType": "bytes32",
          "name": "role",
          "type": "bytes32"
        },
        {
          "indexed": true,
          "internalType": "address",
          "name": "account",
          "type": "address"
        },
        {
          "indexed": true,
          "internalType": "address",
          "name": "sender",
          "type": "address"
        }
      ],
      "name": "RoleGranted",
      "type": "event"
    },
    {
      "anonymous": false,
      "inputs": [
        {
          "indexed": true,
          "internalType": "bytes32",
          "name": "role",
          "type": "bytes32"
        },
        {
          "indexed": true,
          "internalType": "address",
          "name": "account",
          "type": "address"
        },
        {
          "indexed": true,
          "internalType": "address",
          "name": "sender",
          "type": "address"
        }
      ],
      "name": "RoleRevoked",
      "type": "event"
    },
    {
      "anonymous": false,
      "inputs": [
        {
          "indexed": true,
          "internalType": "address",
          "name": "token",
          "type": "address"
        },
        {
          "indexed": false,
          "internalType": "uint256",
          "name": "updatedAt",
          "type": "uint256"
        },
        {
          "indexed": false,
          "internalType": "uint256",
          "name": "currentTime",
          "type": "uint256"
        }
      ],
      "name": "StaleOracleTriggered",
      "type": "event"
    },
    {
      "anonymous": false,
      "inputs": [
        {
          "indexed": true,
          "internalType": "address",
          "name": "user",
          "type": "address"
        },
        {
          "indexed": false,
          "internalType": "string",
          "name": "message",
          "type": "string"
        }
      ],
      "name": "UserError",
      "type": "event"
    },
    {
      "anonymous": false,
      "inputs": [
        {
          "indexed": false,
          "internalType": "bool",
          "name": "required",
          "type": "bool"
        }
      ],
      "name": "ZKProofRequirementToggled",
      "type": "event"
    },
    {
      "anonymous": false,
      "inputs": [
        {
          "indexed": true,
          "internalType": "address",
          "name": "user",
          "type": "address"
        },
        {
          "indexed": false,
          "internalType": "string",
          "name": "reason",
          "type": "string"
        }
      ],
      "name": "ZKProofValidationFailed",
      "type": "event"
    },
    {
      "inputs": [],
      "name": "DEFAULT_ADMIN_ROLE",
      "outputs": [
        {
          "internalType": "bytes32",
          "name": "",
          "type": "bytes32"
        }
      ],
      "stateMutability": "view",
      "type": "function"
    },
    {
      "inputs": [],
      "name": "DEFAULT_LIQUIDATION_THRESHOLD",
      "outputs": [
        {
          "internalType": "uint256",
          "name": "",
          "type": "uint256"
        }
      ],
      "stateMutability": "view",
      "type": "function"
    },
    {
      "inputs": [],
      "name": "DEFAULT_STALENESS_STABLE",
      "outputs": [
        {
          "internalType": "uint256",
          "name": "",
          "type": "uint256"
        }
      ],
      "stateMutability": "view",
      "type": "function"
    },
    {
      "inputs": [],
      "name": "DEFAULT_STALENESS_VOLATILE",
      "outputs": [
        {
          "internalType": "uint256",
          "name": "",
          "type": "uint256"
        }
      ],
      "stateMutability": "view",
      "type": "function"
    },
    {
      "inputs": [],
      "name": "GRACE_PERIOD",
      "outputs": [
        {
          "internalType": "uint256",
          "name": "",
          "type": "uint256"
        }
      ],
      "stateMutability": "view",
      "type": "function"
    },
    {
      "inputs": [],
      "name": "LIQUIDATION_PENALTY",
      "outputs": [
        {
          "internalType": "uint256",
          "name": "",
          "type": "uint256"
        }
      ],
      "stateMutability": "view",
      "type": "function"
    },
    {
      "inputs": [],
      "name": "UPKEEP_COOLDOWN",
      "outputs": [
        {
          "internalType": "uint256",
          "name": "",
          "type": "uint256"
        }
      ],
      "stateMutability": "view",
      "type": "function"
    },
    {
      "inputs": [
        {
          "internalType": "address",
          "name": "lender",
          "type": "address"
        }
      ],
      "name": "baseLenderAPR",
      "outputs": [
        {
          "internalType": "uint256",
          "name": "",
          "type": "uint256"
        }
      ],
      "stateMutability": "view",
      "type": "function"
    },
    {
      "inputs": [
        {
          "internalType": "uint256",
          "name": "amount",
          "type": "uint256"
        }
      ],
      "name": "borrow",
      "outputs": [],
      "stateMutability": "nonpayable",
      "type": "function"
    },
    {
      "inputs": [
        {
          "internalType": "uint256",
          "name": "",
          "type": "uint256"
        }
      ],
      "name": "borrowTierConfigs",
      "outputs": [
        {
          "internalType": "uint256",
          "name": "minScore",
          "type": "uint256"
        },
        {
          "internalType": "uint256",
          "name": "maxScore",
          "type": "uint256"
        },
        {
          "internalType": "uint256",
          "name": "collateralRatio",
          "type": "uint256"
        },
        {
          "internalType": "int256",
          "name": "interestRateModifier",
          "type": "int256"
        },
        {
          "internalType": "uint256",
          "name": "maxLoanAmount",
          "type": "uint256"
        }
      ],
      "stateMutability": "view",
      "type": "function"
    },
    {
      "inputs": [
        {
          "internalType": "address",
          "name": "",
          "type": "address"
        }
      ],
      "name": "borrowTimestamp",
      "outputs": [
        {
          "internalType": "uint256",
          "name": "",
          "type": "uint256"
        }
      ],
      "stateMutability": "view",
      "type": "function"
    },
    {
      "inputs": [
        {
          "internalType": "enum LiquidityPoolV3.RiskTier",
          "name": "",
          "type": "uint8"
        }
      ],
      "name": "borrowedAmountByRiskTier",
      "outputs": [
        {
          "internalType": "uint256",
          "name": "",
          "type": "uint256"
        }
      ],
      "stateMutability": "view",
      "type": "function"
    },
    {
      "inputs": [
        {
          "internalType": "address",
          "name": "user",
          "type": "address"
        }
      ],
      "name": "checkCollateralization",
      "outputs": [
        {
          "internalType": "bool",
          "name": "isHealthy",
          "type": "bool"
        },
        {
          "internalType": "uint256",
          "name": "ratio",
          "type": "uint256"
        }
      ],
      "stateMutability": "view",
      "type": "function"
    },
    {
      "inputs": [
        {
          "internalType": "bytes",
          "name": "",
          "type": "bytes"
        }
      ],
      "name": "checkUpkeep",
      "outputs": [
        {
          "internalType": "bool",
          "name": "upkeepNeeded",
          "type": "bool"
        },
        {
          "internalType": "bytes",
          "name": "performData",
          "type": "bytes"
        }
      ],
      "stateMutability": "view",
      "type": "function"
    },
    {
      "inputs": [
        {
          "internalType": "address",
          "name": "",
          "type": "address"
        },
        {
          "internalType": "address",
          "name": "",
          "type": "address"
        }
      ],
      "name": "collateralBalance",
      "outputs": [
        {
          "internalType": "uint256",
          "name": "",
          "type": "uint256"
        }
      ],
      "stateMutability": "view",
      "type": "function"
    },
    {
      "inputs": [
        {
          "internalType": "uint256",
          "name": "",
          "type": "uint256"
        }
      ],
      "name": "collateralTokenList",
      "outputs": [
        {
          "internalType": "address",
          "name": "",
          "type": "address"
        }
      ],
      "stateMutability": "view",
      "type": "function"
    },
    {
      "inputs": [
        {
          "internalType": "address",
          "name": "",
          "type": "address"
        }
      ],
      "name": "creditScore",
      "outputs": [
        {
          "internalType": "uint256",
          "name": "",
          "type": "uint256"
        }
      ],
      "stateMutability": "view",
      "type": "function"
    },
    {
      "inputs": [],
      "name": "creditSystem",
      "outputs": [
        {
          "internalType": "contract IntegratedCreditSystem",
          "name": "",
          "type": "address"
        }
      ],
      "stateMutability": "view",
      "type": "function"
    },
    {
      "inputs": [
        {
          "internalType": "address",
          "name": "token",
          "type": "address"
        },
        {
          "internalType": "uint256",
          "name": "amount",
          "type": "uint256"
        }
      ],
      "name": "depositCollateral",
      "outputs": [],
      "stateMutability": "nonpayable",
      "type": "function"
    },
    {
      "inputs": [
        {
          "internalType": "address",
          "name": "user",
          "type": "address"
        }
      ],
      "name": "executeLiquidation",
      "outputs": [],
      "stateMutability": "nonpayable",
      "type": "function"
    },
    {
      "inputs": [
        {
          "internalType": "uint256",
          "name": "amount",
          "type": "uint256"
        }
      ],
      "name": "extract",
      "outputs": [],
      "stateMutability": "nonpayable",
      "type": "function"
    },
    {
      "inputs": [],
      "name": "getAdmin",
      "outputs": [
        {
          "internalType": "address",
          "name": "",
          "type": "address"
        }
      ],
      "stateMutability": "view",
      "type": "function"
    },
    {
      "inputs": [],
      "name": "getAllUsers",
      "outputs": [
        {
          "internalType": "address[]",
          "name": "",
          "type": "address[]"
        }
      ],
      "stateMutability": "view",
      "type": "function"
    },
    {
      "inputs": [],
      "name": "getAllowedCollateralTokens",
      "outputs": [
        {
          "internalType": "address[]",
          "name": "",
          "type": "address[]"
        }
      ],
      "stateMutability": "view",
      "type": "function"
    },
    {
      "inputs": [],
      "name": "getBalance",
      "outputs": [
        {
          "internalType": "uint256",
          "name": "",
          "type": "uint256"
        }
      ],
      "stateMutability": "view",
      "type": "function"
    },
    {
      "inputs": [
        {
          "internalType": "address",
          "name": "user",
          "type": "address"
        }
      ],
      "name": "getBorrowTerms",
      "outputs": [
        {
          "internalType": "uint256",
          "name": "collateralRatio",
          "type": "uint256"
        },
        {
          "internalType": "int256",
          "name": "interestRateModifier",
          "type": "int256"
        },
        {
          "internalType": "uint256",
          "name": "maxLoanAmount",
          "type": "uint256"
        }
      ],
      "stateMutability": "view",
      "type": "function"
    },
    {
      "inputs": [
        {
          "internalType": "enum LiquidityPoolV3.RiskTier",
          "name": "tier",
          "type": "uint8"
        }
      ],
      "name": "getBorrowerRate",
      "outputs": [
        {
          "internalType": "uint256",
          "name": "",
          "type": "uint256"
        }
      ],
      "stateMutability": "view",
      "type": "function"
    },
    {
      "inputs": [
        {
          "internalType": "address",
          "name": "user",
          "type": "address"
        },
        {
          "internalType": "address",
          "name": "token",
          "type": "address"
        }
      ],
      "name": "getCollateral",
      "outputs": [
        {
          "internalType": "uint256",
          "name": "",
          "type": "uint256"
        }
      ],
      "stateMutability": "view",
      "type": "function"
    },
    {
      "inputs": [
        {
          "internalType": "address",
          "name": "user",
          "type": "address"
        }
      ],
      "name": "getCreditScore",
      "outputs": [
        {
          "internalType": "uint256",
          "name": "",
          "type": "uint256"
        }
      ],
      "stateMutability": "view",
      "type": "function"
    },
    {
      "inputs": [],
      "name": "getGlobalRiskMultiplier",
      "outputs": [
        {
          "internalType": "uint256",
          "name": "",
          "type": "uint256"
        }
      ],
      "stateMutability": "view",
      "type": "function"
    },
    {
      "inputs": [
        {
          "internalType": "address",
          "name": "token",
          "type": "address"
        }
      ],
      "name": "getLiquidationThreshold",
      "outputs": [
        {
          "internalType": "uint256",
          "name": "",
          "type": "uint256"
        }
      ],
      "stateMutability": "view",
      "type": "function"
    },
    {
      "inputs": [
        {
          "internalType": "address",
          "name": "user",
          "type": "address"
        },
        {
          "internalType": "address",
          "name": "token",
          "type": "address"
        }
      ],
      "name": "getMaxBorrowAmount",
      "outputs": [
        {
          "internalType": "uint256",
          "name": "",
          "type": "uint256"
        }
      ],
      "stateMutability": "view",
      "type": "function"
    },
    {
      "inputs": [],
      "name": "getMinCollateralRatio",
      "outputs": [
        {
          "internalType": "uint256",
          "name": "",
          "type": "uint256"
        }
      ],
      "stateMutability": "pure",
      "type": "function"
    },
    {
      "inputs": [],
      "name": "getMyDebt",
      "outputs": [
        {
          "internalType": "uint256",
          "name": "",
          "type": "uint256"
        }
      ],
      "stateMutability": "view",
      "type": "function"
    },
    {
      "inputs": [
        {
          "internalType": "address",
          "name": "token",
          "type": "address"
        }
      ],
      "name": "getPriceFeed",
      "outputs": [
        {
          "internalType": "address",
          "name": "",
          "type": "address"
        }
      ],
      "stateMutability": "view",
      "type": "function"
    },
    {
      "inputs": [
        {
          "internalType": "address",
          "name": "lender",
          "type": "address"
        }
      ],
      "name": "getRealTimeReturnRate",
      "outputs": [
        {
          "internalType": "uint256",
          "name": "",
          "type": "uint256"
        }
      ],
      "stateMutability": "view",
      "type": "function"
    },
    {
      "inputs": [],
      "name": "getRepaymentRatio",
      "outputs": [
        {
          "internalType": "uint256",
          "name": "",
          "type": "uint256"
        }
      ],
      "stateMutability": "view",
      "type": "function"
    },
    {
      "inputs": [],
      "name": "getRepaymentRiskMultiplier",
      "outputs": [
        {
          "internalType": "uint256",
          "name": "",
          "type": "uint256"
        }
      ],
      "stateMutability": "view",
      "type": "function"
    },
    {
      "inputs": [],
      "name": "getRiskMultiplier",
      "outputs": [
        {
          "internalType": "uint256",
          "name": "",
          "type": "uint256"
        }
      ],
      "stateMutability": "view",
      "type": "function"
    },
    {
      "inputs": [
        {
          "internalType": "address",
          "name": "user",
          "type": "address"
        }
      ],
      "name": "getRiskTier",
      "outputs": [
        {
          "internalType": "enum LiquidityPoolV3.RiskTier",
          "name": "",
          "type": "uint8"
        }
      ],
      "stateMutability": "view",
      "type": "function"
    },
    {
      "inputs": [
        {
          "internalType": "bytes32",
          "name": "role",
          "type": "bytes32"
        }
      ],
      "name": "getRoleAdmin",
      "outputs": [
        {
          "internalType": "bytes32",
          "name": "",
          "type": "bytes32"
        }
      ],
      "stateMutability": "view",
      "type": "function"
    },
    {
      "inputs": [
        {
          "internalType": "address",
          "name": "token",
          "type": "address"
        }
      ],
      "name": "getTokenValue",
      "outputs": [
        {
          "internalType": "uint256",
          "name": "",
          "type": "uint256"
        }
      ],
      "stateMutability": "view",
      "type": "function"
    },
    {
      "inputs": [
        {
          "internalType": "address",
          "name": "user",
          "type": "address"
        }
      ],
      "name": "getTotalCollateralValue",
      "outputs": [
        {
          "internalType": "uint256",
          "name": "",
          "type": "uint256"
        }
      ],
      "stateMutability": "view",
      "type": "function"
    },
    {
      "inputs": [],
      "name": "getWeightedRiskScore",
      "outputs": [
        {
          "internalType": "uint256",
          "name": "",
          "type": "uint256"
        }
      ],
      "stateMutability": "view",
      "type": "function"
    },
    {
      "inputs": [
        {
          "internalType": "address",
          "name": "user",
          "type": "address"
        }
      ],
      "name": "getZKVerificationStatus",
      "outputs": [
        {
          "internalType": "bool",
          "name": "hasTradFi",
          "type": "bool"
        },
        {
          "internalType": "bool",
          "name": "hasAccount",
          "type": "bool"
        },
        {
          "internalType": "bool",
          "name": "hasNesting",
          "type": "bool"
        },
        {
          "internalType": "uint256",
          "name": "finalScore",
          "type": "uint256"
        },
        {
          "internalType": "bool",
          "name": "isEligible",
          "type": "bool"
        }
      ],
      "stateMutability": "view",
      "type": "function"
    },
    {
      "inputs": [
        {
          "internalType": "bytes32",
          "name": "role",
          "type": "bytes32"
        },
        {
          "internalType": "address",
          "name": "account",
          "type": "address"
        }
      ],
      "name": "grantRole",
      "outputs": [],
      "stateMutability": "nonpayable",
      "type": "function"
    },
    {
      "inputs": [
        {
          "internalType": "bytes32",
          "name": "role",
          "type": "bytes32"
        },
        {
          "internalType": "address",
          "name": "account",
          "type": "address"
        }
      ],
      "name": "hasRole",
      "outputs": [
        {
          "internalType": "bool",
          "name": "",
          "type": "bool"
        }
      ],
      "stateMutability": "view",
      "type": "function"
    },
    {
      "inputs": [
        {
          "internalType": "address",
          "name": "initialOwner",
          "type": "address"
        },
        {
          "internalType": "address",
          "name": "_stablecoinManager",
          "type": "address"
        },
        {
          "internalType": "address",
          "name": "_lendingManager",
          "type": "address"
        },
        {
          "internalType": "address",
          "name": "_creditSystem",
          "type": "address"
        }
      ],
      "name": "initialize",
      "outputs": [],
      "stateMutability": "nonpayable",
      "type": "function"
    },
    {
      "inputs": [
        {
          "internalType": "address",
          "name": "",
          "type": "address"
        }
      ],
      "name": "isAllowedCollateral",
      "outputs": [
        {
          "internalType": "bool",
          "name": "",
          "type": "bool"
        }
      ],
      "stateMutability": "view",
      "type": "function"
    },
    {
      "inputs": [
        {
          "internalType": "address",
          "name": "",
          "type": "address"
        }
      ],
      "name": "isKnownUser",
      "outputs": [
        {
          "internalType": "bool",
          "name": "",
          "type": "bool"
        }
      ],
      "stateMutability": "view",
      "type": "function"
    },
    {
      "inputs": [
        {
          "internalType": "address",
          "name": "",
          "type": "address"
        }
      ],
      "name": "isLiquidatable",
      "outputs": [
        {
          "internalType": "bool",
          "name": "",
          "type": "bool"
        }
      ],
      "stateMutability": "view",
      "type": "function"
    },
    {
      "inputs": [
        {
          "internalType": "address",
          "name": "token",
          "type": "address"
        }
      ],
      "name": "isOracleHealthy",
      "outputs": [
        {
          "internalType": "bool",
          "name": "",
          "type": "bool"
        }
      ],
      "stateMutability": "view",
      "type": "function"
    },
    {
      "inputs": [],
      "name": "isPaused",
      "outputs": [
        {
          "internalType": "bool",
          "name": "",
          "type": "bool"
        }
      ],
      "stateMutability": "view",
      "type": "function"
    },
    {
      "inputs": [],
      "name": "lastUpkeep",
      "outputs": [
        {
          "internalType": "uint256",
          "name": "",
          "type": "uint256"
        }
      ],
      "stateMutability": "view",
      "type": "function"
    },
    {
      "inputs": [],
      "name": "lendingManager",
      "outputs": [
        {
          "internalType": "contract LendingManager",
          "name": "",
          "type": "address"
        }
      ],
      "stateMutability": "view",
      "type": "function"
    },
    {
      "inputs": [
        {
          "internalType": "address",
          "name": "",
          "type": "address"
        }
      ],
      "name": "liquidationStartTime",
      "outputs": [
        {
          "internalType": "uint256",
          "name": "",
          "type": "uint256"
        }
      ],
      "stateMutability": "view",
      "type": "function"
    },
    {
      "inputs": [
        {
          "internalType": "address",
          "name": "",
          "type": "address"
        }
      ],
      "name": "liquidationThreshold",
      "outputs": [
        {
          "internalType": "uint256",
          "name": "",
          "type": "uint256"
        }
      ],
      "stateMutability": "view",
      "type": "function"
    },
    {
      "inputs": [],
      "name": "liquidator",
      "outputs": [
        {
          "internalType": "address",
          "name": "",
          "type": "address"
        }
      ],
      "stateMutability": "view",
      "type": "function"
    },
    {
      "inputs": [],
      "name": "locked",
      "outputs": [
        {
          "internalType": "bool",
          "name": "",
          "type": "bool"
        }
      ],
      "stateMutability": "view",
      "type": "function"
    },
    {
      "inputs": [
        {
          "internalType": "address",
          "name": "",
          "type": "address"
        }
      ],
      "name": "maxPriceAge",
      "outputs": [
        {
          "internalType": "uint256",
          "name": "",
          "type": "uint256"
        }
      ],
      "stateMutability": "view",
      "type": "function"
    },
    {
      "inputs": [],
      "name": "owner",
      "outputs": [
        {
          "internalType": "address",
          "name": "",
          "type": "address"
        }
      ],
      "stateMutability": "view",
      "type": "function"
    },
    {
      "inputs": [],
      "name": "paused",
      "outputs": [
        {
          "internalType": "bool",
          "name": "",
          "type": "bool"
        }
      ],
      "stateMutability": "view",
      "type": "function"
    },
    {
      "inputs": [
        {
          "internalType": "bytes",
          "name": "performData",
          "type": "bytes"
        }
      ],
      "name": "performUpkeep",
      "outputs": [],
      "stateMutability": "nonpayable",
      "type": "function"
    },
    {
      "inputs": [
        {
          "internalType": "address",
          "name": "",
          "type": "address"
        }
      ],
      "name": "priceFeed",
      "outputs": [
        {
          "internalType": "address",
          "name": "",
          "type": "address"
        }
      ],
      "stateMutability": "view",
      "type": "function"
    },
    {
      "inputs": [
        {
          "internalType": "address",
          "name": "token",
          "type": "address"
        },
        {
          "internalType": "uint256",
          "name": "amount",
          "type": "uint256"
        }
      ],
      "name": "recoverFromLiquidation",
      "outputs": [],
      "stateMutability": "nonpayable",
      "type": "function"
    },
    {
      "inputs": [],
      "name": "renounceOwnership",
      "outputs": [],
      "stateMutability": "nonpayable",
      "type": "function"
    },
    {
      "inputs": [
        {
          "internalType": "bytes32",
          "name": "role",
          "type": "bytes32"
        },
        {
          "internalType": "address",
          "name": "callerConfirmation",
          "type": "address"
        }
      ],
      "name": "renounceRole",
      "outputs": [],
      "stateMutability": "nonpayable",
      "type": "function"
    },
    {
      "inputs": [],
      "name": "repay",
      "outputs": [],
      "stateMutability": "payable",
      "type": "function"
    },
    {
      "inputs": [
        {
          "internalType": "bytes32",
          "name": "role",
          "type": "bytes32"
        },
        {
          "internalType": "address",
          "name": "account",
          "type": "address"
        }
      ],
      "name": "revokeRole",
      "outputs": [],
      "stateMutability": "nonpayable",
      "type": "function"
    },
    {
      "inputs": [
        {
          "internalType": "address",
          "name": "newAdmin",
          "type": "address"
        }
      ],
      "name": "setAdmin",
      "outputs": [],
      "stateMutability": "nonpayable",
      "type": "function"
    },
    {
      "inputs": [
        {
          "internalType": "address",
          "name": "token",
          "type": "address"
        },
        {
          "internalType": "bool",
          "name": "allowed",
          "type": "bool"
        }
      ],
      "name": "setAllowedCollateral",
      "outputs": [],
      "stateMutability": "nonpayable",
      "type": "function"
    },
    {
      "inputs": [
        {
          "internalType": "address",
          "name": "user",
          "type": "address"
        },
        {
          "internalType": "uint256",
          "name": "score",
          "type": "uint256"
        }
      ],
      "name": "setCreditScore",
      "outputs": [],
      "stateMutability": "nonpayable",
      "type": "function"
    },
    {
      "inputs": [
        {
          "internalType": "address",
          "name": "_creditSystem",
          "type": "address"
        }
      ],
      "name": "setCreditSystem",
      "outputs": [],
      "stateMutability": "nonpayable",
      "type": "function"
    },
    {
      "inputs": [
        {
          "internalType": "address",
          "name": "_lendingManager",
          "type": "address"
        }
      ],
      "name": "setLendingManager",
      "outputs": [],
      "stateMutability": "nonpayable",
      "type": "function"
    },
    {
      "inputs": [
        {
          "internalType": "address",
          "name": "token",
          "type": "address"
        },
        {
          "internalType": "uint256",
          "name": "threshold",
          "type": "uint256"
        }
      ],
      "name": "setLiquidationThreshold",
      "outputs": [],
      "stateMutability": "nonpayable",
      "type": "function"
    },
    {
      "inputs": [
        {
          "internalType": "address",
          "name": "_liquidator",
          "type": "address"
        }
      ],
      "name": "setLiquidator",
      "outputs": [],
      "stateMutability": "nonpayable",
      "type": "function"
    },
    {
      "inputs": [
        {
          "internalType": "address",
          "name": "token",
          "type": "address"
        },
        {
          "internalType": "uint256",
          "name": "age",
          "type": "uint256"
        }
      ],
      "name": "setMaxPriceAge",
      "outputs": [],
      "stateMutability": "nonpayable",
      "type": "function"
    },
    {
      "inputs": [
        {
          "internalType": "address",
          "name": "token",
          "type": "address"
        },
        {
          "internalType": "address",
          "name": "feed",
          "type": "address"
        }
      ],
      "name": "setPriceFeed",
      "outputs": [],
      "stateMutability": "nonpayable",
      "type": "function"
    },
    {
      "inputs": [
        {
          "internalType": "bool",
          "name": "required",
          "type": "bool"
        }
      ],
      "name": "setZKProofRequirement",
      "outputs": [],
      "stateMutability": "nonpayable",
      "type": "function"
    },
    {
      "inputs": [],
      "name": "stablecoinManager",
      "outputs": [
        {
          "internalType": "contract StablecoinManager",
          "name": "",
          "type": "address"
        }
      ],
      "stateMutability": "view",
      "type": "function"
    },
    {
      "inputs": [
        {
          "internalType": "address",
          "name": "user",
          "type": "address"
        }
      ],
      "name": "startLiquidation",
      "outputs": [],
      "stateMutability": "nonpayable",
      "type": "function"
    },
    {
      "inputs": [
        {
          "internalType": "bytes4",
          "name": "interfaceId",
          "type": "bytes4"
        }
      ],
      "name": "supportsInterface",
      "outputs": [
        {
          "internalType": "bool",
          "name": "",
          "type": "bool"
        }
      ],
      "stateMutability": "view",
      "type": "function"
    },
    {
      "inputs": [],
      "name": "togglePause",
      "outputs": [],
      "stateMutability": "nonpayable",
      "type": "function"
    },
    {
      "inputs": [],
      "name": "totalBorrowedAllTime",
      "outputs": [
        {
          "internalType": "uint256",
          "name": "",
          "type": "uint256"
        }
      ],
      "stateMutability": "view",
      "type": "function"
    },
    {
      "inputs": [],
      "name": "totalFunds",
      "outputs": [
        {
          "internalType": "uint256",
          "name": "",
          "type": "uint256"
        }
      ],
      "stateMutability": "view",
      "type": "function"
    },
    {
      "inputs": [],
      "name": "totalRepaidAllTime",
      "outputs": [
        {
          "internalType": "uint256",
          "name": "",
          "type": "uint256"
        }
      ],
      "stateMutability": "view",
      "type": "function"
    },
    {
      "inputs": [
        {
          "internalType": "address",
          "name": "newOwner",
          "type": "address"
        }
      ],
      "name": "transferOwnership",
      "outputs": [],
      "stateMutability": "nonpayable",
      "type": "function"
    },
    {
      "inputs": [
        {
          "internalType": "uint256",
          "name": "tierIndex",
          "type": "uint256"
        },
        {
          "internalType": "uint256",
          "name": "minScore",
          "type": "uint256"
        },
        {
          "internalType": "uint256",
          "name": "maxScore",
          "type": "uint256"
        },
        {
          "internalType": "uint256",
          "name": "collateralRatio",
          "type": "uint256"
        },
        {
          "internalType": "int256",
          "name": "interestRateModifier",
          "type": "int256"
        },
        {
          "internalType": "uint256",
          "name": "maxLoanAmount",
          "type": "uint256"
        }
      ],
      "name": "updateBorrowTier",
      "outputs": [],
      "stateMutability": "nonpayable",
      "type": "function"
    },
    {
      "inputs": [
        {
          "internalType": "address",
          "name": "user",
          "type": "address"
        },
        {
          "internalType": "uint256",
          "name": "score",
          "type": "uint256"
        }
      ],
      "name": "updateCreditScoreFromZK",
      "outputs": [],
      "stateMutability": "nonpayable",
      "type": "function"
    },
    {
      "inputs": [
        {
          "internalType": "address",
          "name": "",
          "type": "address"
        }
      ],
      "name": "userDebt",
      "outputs": [
        {
          "internalType": "uint256",
          "name": "",
          "type": "uint256"
        }
      ],
      "stateMutability": "view",
      "type": "function"
    },
    {
      "inputs": [
        {
          "internalType": "uint256",
          "name": "",
          "type": "uint256"
        }
      ],
      "name": "users",
      "outputs": [
        {
          "internalType": "address",
          "name": "",
          "type": "address"
        }
      ],
      "stateMutability": "view",
      "type": "function"
    },
    {
      "inputs": [
        {
          "internalType": "address",
          "name": "token",
          "type": "address"
        },
        {
          "internalType": "uint256",
          "name": "amount",
          "type": "uint256"
        }
      ],
      "name": "withdrawCollateral",
      "outputs": [],
      "stateMutability": "nonpayable",
      "type": "function"
    },
    {
      "inputs": [
        {
          "internalType": "uint256",
          "name": "amount",
          "type": "uint256"
        }
      ],
      "name": "withdrawForLendingManager",
      "outputs": [],
      "stateMutability": "nonpayable",
      "type": "function"
    },
    {
      "inputs": [],
      "name": "zkProofRequired",
      "outputs": [
        {
          "internalType": "bool",
          "name": "",
          "type": "bool"
        }
      ],
      "stateMutability": "view",
      "type": "function"
    },
    {
      "stateMutability": "payable",
      "type": "receive"
    }
  ],
  "bytecode": "0x6080604052348015600f57600080fd5b5061566b8061001f6000396000f3fe6080604052600436106105115760003560e01c80639490a51e11610297578063c23c69d511610165578063e1c50100116100cc578063ef02401a11610085578063ef02401a146110ec578063f1c5d6c21461110c578063f2fde38b1461112c578063f7e590ee1461114c578063f8c8765e14611179578063feca846a1461119957600080fd5b8063e1c5010014611014578063e2842d7914611034578063e2e2967914611049578063e7602b9d14611069578063e84bae451461109e578063e884cf23146110cb57600080fd5b8063cf3090121161011e578063cf30901214610f4d578063d29255f914610f67578063d3dd2bdf14610f94578063d547741f14610fb4578063ddac7f1b14610fd4578063e19fb8f514610ff457600080fd5b8063c23c69d514610e89578063c4ae316814610eb6578063c5ebeaec14610ecb578063c869d0ed14610eeb578063c941f32114610f0b578063cf17622514610f2b57600080fd5b8063a89ef5ca11610209578063b849c884116101c2578063b849c88414610dfb578063b8cdf56114610e10578063bc3d5a3e14610e26578063be8c3c8414610e3c578063c129d50414610e5d578063c1a287e214610e7257600080fd5b8063a89ef5ca14610d2f578063a8cf4b5214610d4f578063b1732b2514610d64578063b187bd2614610d91578063b3a5a0a214610dae578063b69e5c7714610dce57600080fd5b80639e3b77af1161025b5780639e3b77af14610c85578063a217fddf14610ca5578063a4cde48e14610cba578063a5d5db0c14610ccf578063a6727ce714610cef578063a75b24c714610d0f57600080fd5b80639490a51e14610bea578063968ed60014610c1a57806397ed81cf14610c305780639ac77e1b14610c505780639b8621d514610c7057600080fd5b806352ace309116103df5780636e9960c3116103465780637b86e42c116102ff5780637b86e42c14610aeb57806385b3978214610b0b57806386d785e614610b2b5780638da5cb5b14610b7e5780638e6b53bc14610b9357806391d1485414610bca57600080fd5b80636e9960c314610a09578063704b6c0214610a1e57806370ed11bc14610a3e578063715018a614610a865780637346f48614610a9b57806376e1128614610acb57600080fd5b80635c975abb116103985780635c975abb1461093a578063603f4ab9146109595780636579b73e1461096e57806368272ecc1461099b5780636c648fc4146109bb5780636e04ff0d146109db57600080fd5b806352ace3091461088857806355f4d9e2146108af57806359ad586f146108cf5780635b66e7fc146108ef5780635b6cca80146109055780635c44f10d1461092557600080fd5b8063350c35e9116104835780634046ebae1161043c5780634046ebae1461079a578063450a375a146107c05780634585e33b146107e25780634c8f35ab146108025780634c95da661461081657806352226ef01461084357600080fd5b8063350c35e9146106e157806336568abe14610701578063365b98b21461072157806338053ef3146107415780633d7c5d3e1461077c578063402d88831461079257600080fd5b80630e30428d116104d55780630e30428d1461060057806312065fe0146106205780631fd48b9a14610633578063248a9ca3146106815780632f2ff15d146106a157806330332f9f146106c157600080fd5b806301c76f811461053557806301ffc9a714610557578063042e02cf1461058c578063080d9c2b146105bc5780630b044c79146105dc57600080fd5b366105305734600c60008282546105289190614cc9565b925050819055005b600080fd5b34801561054157600080fd5b50610555610550366004614cf8565b6111ae565b005b34801561056357600080fd5b50610577610572366004614d13565b6111e4565b60405190151581526020015b60405180910390f35b34801561059857600080fd5b506105776105a7366004614cf8565b60056020526000908152604090205460ff1681565b3480156105c857600080fd5b506105556105d7366004614d3d565b61121b565b3480156105e857600080fd5b506105f2610e1081565b604051908152602001610583565b34801561060c57600080fd5b5061055561061b366004614d3d565b61136a565b34801561062c57600080fd5b50476105f2565b34801561063f57600080fd5b5061066961064e366004614cf8565b6008602052600090815260409020546001600160a01b031681565b6040516001600160a01b039091168152602001610583565b34801561068d57600080fd5b506105f261069c366004614d67565b611416565b3480156106ad57600080fd5b506105556106bc366004614d80565b611438565b3480156106cd57600080fd5b506105556106dc366004614dac565b61145a565b3480156106ed57600080fd5b506105556106fc366004614d3d565b611527565b34801561070d57600080fd5b5061055561071c366004614d80565b61184a565b34801561072d57600080fd5b5061066961073c366004614d67565b61187d565b34801561074d57600080fd5b5061076161075c366004614cf8565b6118a7565b60408051938452602084019290925290820152606001610583565b34801561078857600080fd5b506105f260165481565b610555611962565b3480156107a657600080fd5b50600d54610669906201000090046001600160a01b031681565b3480156107cc57600080fd5b50336000908152600360205260409020546105f2565b3480156107ee57600080fd5b506105556107fd366004614def565b611ce9565b34801561080e57600080fd5b5060826105f2565b34801561082257600080fd5b50610836610831366004614cf8565b611de2565b6040516105839190614e79565b34801561084f57600080fd5b506105f261085e366004614ea1565b6001600160a01b038082166000908152602081815260408083209386168352929052205492915050565b34801561089457600080fd5b506105f26108a3366004614cf8565b5066d529ae9e86000090565b3480156108bb57600080fd5b506105556108ca366004614ed9565b611eae565b3480156108db57600080fd5b506105f26108ea366004614ea1565b611fd5565b3480156108fb57600080fd5b506105f261038481565b34801561091157600080fd5b50610669610920366004614cf8565b6120b7565b34801561093157600080fd5b506105f2603c81565b34801561094657600080fd5b50600d5461057790610100900460ff1681565b34801561096557600080fd5b506105f261210e565b34801561097a57600080fd5b506105f2610989366004614cf8565b60156020526000908152604090205481565b3480156109a757600080fd5b506105556109b6366004614f10565b61214e565b3480156109c757600080fd5b506105f26109d6366004614cf8565b6121ae565b3480156109e757600080fd5b506109fb6109f6366004614def565b61225c565b604051610583929190614f2d565b348015610a1557600080fd5b506106696124ab565b348015610a2a57600080fd5b50610555610a39366004614cf8565b6124b5565b348015610a4a57600080fd5b50610a5e610a59366004614d67565b612529565b604080519586526020860194909452928401919091526060830152608082015260a001610583565b348015610a9257600080fd5b5061055561256a565b348015610aa757600080fd5b50610577610ab6366004614cf8565b60016020526000908152604090205460ff1681565b348015610ad757600080fd5b50610555610ae6366004614ea1565b61257e565b348015610af757600080fd5b506105f2610b06366004614cf8565b6125ec565b348015610b1757600080fd5b50610555610b26366004614d67565b612691565b348015610b3757600080fd5b50610b4b610b46366004614cf8565b6127b1565b60405161058395949392919094151585529215156020850152901515604084015260608301521515608082015260a00190565b348015610b8a57600080fd5b50610669612876565b348015610b9f57600080fd5b50610bb3610bae366004614cf8565b6128a4565b604080519215158352602083019190915201610583565b348015610bd657600080fd5b50610577610be5366004614d80565b61292f565b348015610bf657600080fd5b50610577610c05366004614cf8565b600b6020526000908152604090205460ff1681565b348015610c2657600080fd5b506105f2600c5481565b348015610c3c57600080fd5b50610555610c4b366004614d3d565b612967565b348015610c5c57600080fd5b50610555610c6b366004614cf8565b612aa9565b348015610c7c57600080fd5b506105f2600581565b348015610c9157600080fd5b50600f54610669906001600160a01b031681565b348015610cb157600080fd5b506105f2600081565b348015610cc657600080fd5b506105f2612b03565b348015610cdb57600080fd5b50610555610cea366004614d3d565b612b7b565b348015610cfb57600080fd5b506105f2610d0a366004614cf8565b612dfc565b348015610d1b57600080fd5b50610555610d2a366004614d3d565b612e2e565b348015610d3b57600080fd5b50601054610669906001600160a01b031681565b348015610d5b57600080fd5b506105f2612f20565b348015610d7057600080fd5b506105f2610d7f366004614cf8565b60076020526000908152604090205481565b348015610d9d57600080fd5b50600d54610100900460ff16610577565b348015610dba57600080fd5b50610669610dc9366004614d67565b612f5d565b348015610dda57600080fd5b506105f2610de9366004614cf8565b60036020526000908152604090205481565b348015610e0757600080fd5b506105f2612f6d565b348015610e1c57600080fd5b506105f260135481565b348015610e3257600080fd5b506105f260145481565b348015610e4857600080fd5b506105f2610e57366004614f84565b50600090565b348015610e6957600080fd5b506105f2608281565b348015610e7e57600080fd5b506105f26203f48081565b348015610e9557600080fd5b506105f2610ea4366004614cf8565b60066020526000908152604090205481565b348015610ec257600080fd5b50610555612fd4565b348015610ed757600080fd5b50610555610ee6366004614d67565b61303e565b348015610ef757600080fd5b50610555610f06366004614cf8565b613668565b348015610f1757600080fd5b50600e54610669906001600160a01b031681565b348015610f3757600080fd5b50610f406136e8565b6040516105839190614fa5565b348015610f5957600080fd5b50600d546105779060ff1681565b348015610f7357600080fd5b506105f2610f82366004614cf8565b60046020526000908152604090205481565b348015610fa057600080fd5b506105f2610faf366004614cf8565b61382f565b348015610fc057600080fd5b50610555610fcf366004614d80565b6138e3565b348015610fe057600080fd5b50610555610fef366004614d3d565b6138ff565b34801561100057600080fd5b5061055561100f366004614d67565b613962565b34801561102057600080fd5b5061055561102f366004614cf8565b613a84565b34801561104057600080fd5b50610f40613b99565b34801561105557600080fd5b50610555611064366004614cf8565b613bfb565b34801561107557600080fd5b506105f2611084366004614ea1565b600060208181529281526040808220909352908152205481565b3480156110aa57600080fd5b506105f26110b9366004614f84565b60126020526000908152604090205481565b3480156110d757600080fd5b5060105461057790600160a01b900460ff1681565b3480156110f857600080fd5b50610577611107366004614cf8565b613f92565b34801561111857600080fd5b506105f2611127366004614cf8565b61408b565b34801561113857600080fd5b50610555611147366004614cf8565b614137565b34801561115857600080fd5b506105f2611167366004614cf8565b60026020526000908152604090205481565b34801561118557600080fd5b50610555611194366004614ff1565b614175565b3480156111a557600080fd5b506105f26145a8565b60006111b98161478b565b50600d80546001600160a01b03909216620100000262010000600160b01b0319909216919091179055565b60006001600160e01b03198216637965db0b60e01b148061121557506301ffc9a760e01b6001600160e01b03198316145b92915050565b3360009081526005602052604090205460ff1661127f5760405162461bcd60e51b815260206004820152601a60248201527f4163636f756e74206e6f7420696e206c69717569646174696f6e00000000000060448201526064015b60405180910390fd5b6040516323b872dd60e01b8152336004820152306024820152604481018290526001600160a01b038316906323b872dd906064016020604051808303816000875af11580156112d2573d6000803e3d6000fd5b505050506040513d601f19601f820116820180604052508101906112f69190615045565b506001600160a01b03821660009081526020818152604080832033845290915281208054839290611328908490614cc9565b9091555060009050611339336128a4565b509050801561136557336000908152600560209081526040808320805460ff1916905560069091528120555b505050565b611372614795565b6001600160a01b03821660009081526001602052604090205460ff166113aa5760405162461bcd60e51b815260040161127690615062565b606481116113fa5760405162461bcd60e51b815260206004820152601860248201527f5468726573686f6c64206d757374206265203e203130302500000000000000006044820152606401611276565b6001600160a01b03909116600090815260076020526040902055565b6000908152600080516020615616833981519152602052604090206001015490565b61144182611416565b61144a8161478b565b61145483836147c7565b50505050565b611462614795565b60115486106114a25760405162461bcd60e51b815260206004820152600c60248201526b24b73b30b634b2103a34b2b960a11b6044820152606401611276565b6040518060a0016040528086815260200185815260200184815260200183815260200182815250601187815481106114dc576114dc615099565b90600052602060002090600502016000820151816000015560208201518160010155604082015181600201556060820151816003015560808201518160040155905050505050505050565b6001600160a01b03821660009081526001602052604090205460ff1661158c57336001600160a01b03166000805160206155f683398151915260405161156c906150af565b60405180910390a260405162461bcd60e51b8152600401611276906150af565b6001600160a01b03821660009081526020818152604080832033845290915290205481111561164a57336001600160a01b03166000805160206155f683398151915260405161160390602080825260149082015273496e73756666696369656e742062616c616e636560601b604082015260600190565b60405180910390a260405162461bcd60e51b8152602060048201526014602482015273496e73756666696369656e742062616c616e636560601b6044820152606401611276565b3360009081526005602052604090205460ff16156116a757336001600160a01b03166000805160206155f6833981519152604051611687906150da565b60405180910390a260405162461bcd60e51b8152600401611276906150da565b6000670de0b6b3a76400006116bb8461408b565b6116c59084615111565b6116cf9190615128565b6116d8336121ae565b6116e2919061514a565b90506116ed836125ec565b336000908152600360205260409020546117079190615111565b611712826064615111565b101561175d57336001600160a01b03166000805160206155f683398151915260405161173d9061515d565b60405180910390a260405162461bcd60e51b81526004016112769061515d565b6001600160a01b0383166000908152602081815260408083203384529091528120805484929061178e90849061514a565b909155505060405163a9059cbb60e01b8152336004820152602481018390526001600160a01b0384169063a9059cbb906044016020604051808303816000875af11580156117e0573d6000803e3d6000fd5b505050506040513d601f19601f820116820180604052508101906118049190615045565b506040518281526001600160a01b0384169033907f45892a46e6cef329bb642da6d69846d324db43d19008edc141ed82382eda1bee9060200160405180910390a3505050565b6001600160a01b03811633146118735760405163334bd91960e11b815260040160405180910390fd5b611365828261486c565b600a818154811061188d57600080fd5b6000918252602090912001546001600160a01b0316905081565b6000806000806118b685611de2565b9050600060118260048111156118ce576118ce614e63565b815481106118de576118de615099565b90600052602060002090600502016040518060a00160405290816000820154815260200160018201548152602001600282015481526020016003820154815260200160048201548152505090508060400151816060015160648360800151600c546119499190615111565b6119539190615128565b94509450945050509193909250565b600d54610100900460ff16156119af5760405162461bcd60e51b815260206004820152601260248201527110dbdb9d1c9858dd081a5cc81c185d5cd95960721b6044820152606401611276565b336000908152600360205260408120549003611a5857336001600160a01b03166000805160206155f6833981519152604051611a1290602080825260139082015272139bc81bdd5d1cdd185b991a5b99c81919589d606a1b604082015260600190565b60405180910390a260405162461bcd60e51b8152602060048201526013602482015272139bc81bdd5d1cdd185b991a5b99c81919589d606a1b6044820152606401611276565b34600003611afd57336001600160a01b03166000805160206155f6833981519152604051611ab2906020808252601890820152774d7573742073656e642066756e647320746f20726570617960401b604082015260600190565b60405180910390a260405162461bcd60e51b81526020600482015260186024820152774d7573742073656e642066756e647320746f20726570617960401b6044820152606401611276565b33600090815260036020526040902054341115611bbb57336001600160a01b03166000805160206155f6833981519152604051611b6b906020808252601c908201527f52657061796d656e74206578636565647320746f74616c206465627400000000604082015260600190565b60405180910390a260405162461bcd60e51b815260206004820152601c60248201527f52657061796d656e74206578636565647320746f74616c2064656274000000006044820152606401611276565b6000611bc633611de2565b90503460126000836004811115611bdf57611bdf614e63565b6004811115611bf057611bf0614e63565b81526020019081526020016000206000828254611c0d919061514a565b90915550503360009081526003602052604081208054349290611c3190849061514a565b925050819055503460146000828254611c4a9190614cc9565b9091555050336000908152600360205260408120549003611c7657336000908152600460205260408120555b3360009081526005602052604090205460ff1615611cb157336000908152600560209081526040808320805460ff1916905560069091528120555b60405134815233907f0516911bcc3a0a7412a44601057c0a0a1ec628bde049a84284bc4288665344889060200160405180910390a250565b603c601654611cf89190614cc9565b4211611d395760405162461bcd60e51b815260206004820152601060248201526f155c1ad9595c081d1a1c9bdd1d1b195960821b6044820152606401611276565b426016556000611d4b828401846151c5565b905060005b8151811015611454576000828281518110611d6d57611d6d615099565b6020908102919091018101516001600160a01b0381166000908152600590925260409091205490915060ff1615611dd9576001600160a01b038116600090815260066020526040812054611dc5906203f48090614cc9565b9050804210611dd757611dd782613bfb565b505b50600101611d50565b6001600160a01b038116600090815260026020526040812054815b601154811015611e865760118181548110611e1a57611e1a615099565b9060005260206000209060050201600001548210158015611e5f575060118181548110611e4957611e49615099565b9060005260206000209060050201600101548211155b15611e7e57806004811115611e7657611e76614e63565b949350505050565b600101611dfd565b50601154611e969060019061514a565b6004811115611ea757611ea7614e63565b9392505050565b611eb6614795565b6001600160a01b0382166000908152600160205260408120805460ff1916831515179055805b600954811015611f2e57836001600160a01b031660098281548110611f0357611f03615099565b6000918252602090912001546001600160a01b031603611f265760019150611f2e565b600101611edc565b50818015611f3a575080155b15611f8b57600980546001810182556000919091527f6e1540171b6c0c960b71a7020d9f60077f6af931a8bbf590da0223dacf75c7af0180546001600160a01b0319166001600160a01b0385161790555b826001600160a01b03167f15f5cc64ca777db85f6c05fdba671568758b38329616d4d4b43bb8b092fe9a8d83604051611fc8911515815260200190565b60405180910390a2505050565b600080670de0b6b3a7640000611fea8461408b565b6001600160a01b03808616600090815260208181526040808320938a16835292905220546120189190615111565b6120229190615128565b600e546040516356512fcd60e11b81526001600160a01b0386811660048301529293506000929091169063aca25f9a90602401602060405180830381865afa158015612072573d6000803e3d6000fd5b505050506040513d601f19601f820116820180604052508101906120969190615295565b905060646120a48284615111565b6120ae9190615128565b95945050505050565b6001600160a01b03811660009081526001602052604081205460ff166120ef5760405162461bcd60e51b815260040161127690615062565b506001600160a01b039081166000908152600860205260409020541690565b60006013546000036121275750670de0b6b3a764000090565b60135460145461213f90670de0b6b3a7640000615111565b6121499190615128565b905090565b612156614795565b60108054821515600160a01b0260ff60a01b199091161790556040517f895b395338611f71448ee682a563b0c13233e238236eb6700d45720ec4bf4445906121a390831515815260200190565b60405180910390a150565b600080806121ba6136e8565b905060005b81518110156122535760008282815181106121dc576121dc615099565b6020908102919091018101516001600160a01b0380821660009081528084526040808220928b1682529190935290912054909150801561224957670de0b6b3a76400006122288361408b565b6122329083615111565b61223c9190615128565b6122469086614cc9565b94505b50506001016121bf565b50909392505050565b60006060603c60165461226f9190614cc9565b42116122b05760405162461bcd60e51b815260206004820152601060248201526f155c1ad9595c081d1a1c9bdd1d1b195960821b6044820152606401611276565b60006122ba613b99565b90506000815167ffffffffffffffff8111156122d8576122d86151af565b604051908082528060200260200182016040528015612301578160200160208202803683370190505b5090506000805b83518110156123ca57600084828151811061232557612325615099565b6020908102919091018101516001600160a01b0381166000908152600590925260409091205490915060ff16156123c1576001600160a01b03811660009081526006602052604081205461237d906203f48090614cc9565b90508042106123bf578185858151811061239957612399615099565b6001600160a01b0390921660209283029190910190910152836123bb816152ae565b9450505b505b50600101612308565b50801561249c5760008167ffffffffffffffff8111156123ec576123ec6151af565b604051908082528060200260200182016040528015612415578160200160208202803683370190505b50905060005b8281101561246f5783818151811061243557612435615099565b602002602001015182828151811061244f5761244f615099565b6001600160a01b039092166020928302919091019091015260010161241b565b5060019550806040516020016124859190614fa5565b6040516020818303038152906040529450506124a1565b600094505b5050509250929050565b6000612149612876565b6124bd614795565b6001600160a01b0381166125055760405162461bcd60e51b815260206004820152600f60248201526e496e76616c6964206164647265737360881b6044820152606401611276565b61250e816148e8565b6125196000826147c7565b5061252560003361486c565b5050565b6011818154811061253957600080fd5b6000918252602090912060059091020180546001820154600283015460038401546004909401549294509092909185565b612572614795565b61257c60006148e8565b565b612586614795565b6001600160a01b03821660009081526001602052604090205460ff166125be5760405162461bcd60e51b815260040161127690615062565b6001600160a01b03918216600090815260086020526040902080546001600160a01b03191691909216179055565b600e54604051631ee1b90b60e21b81526001600160a01b0383811660048301526000928392911690637b86e42c90602401602060405180830381865afa15801561263a573d6000803e3d6000fd5b505050506040513d601f19601f8201168201806040525081019061265e9190615295565b9050801561266c5792915050565b6001600160a01b03831660009081526007602052604090205480611ea7576082611e76565b612699614795565b600d5460ff16156126bc5760405162461bcd60e51b8152600401611276906152c7565b600d805460ff19166001179055478111156127195760405162461bcd60e51b815260206004820152601d60248201527f496e73756666696369656e7420636f6e74726163742062616c616e63650000006044820152606401611276565b612721612876565b6001600160a01b03166108fc829081150290604051600060405180830381858888f19350505050158015612759573d6000803e3d6000fd5b50612762612876565b6001600160a01b03167f69c169e5c85af54e1ca7e16608ccc812437821387924fb3353a7d053264ddaa08260405161279c91815260200190565b60405180910390a250600d805460ff19169055565b60105460009081908190819081906001600160a01b03161561285d576010546040516335856b7f60e11b81526001600160a01b03888116600483015290911690636b0ad6fe9060240160c060405180830381865afa925050508015612833575060408051601f3d908101601f19168201909252612830918101906152ee565b60015b61284b5750600093508392508291508190508061286d565b5093985091965094509250905061286d565b5060009350839250829150819050805b91939590929450565b7f9016d09d72d40fdae2fd8ceac6b6234c7706214fd39c1cd1e609a0528c199300546001600160a01b031690565b60008060006128b2846121ae565b6001600160a01b0385166000908152600360205260408120549192508190036128e45750600194600019945092505050565b816000036128f9575060009485945092505050565b6000612904866118a7565b50509050818360646129169190615111565b6129209190615128565b90811015969095509350505050565b6000918252600080516020615616833981519152602090815260408084206001600160a01b0393909316845291905290205460ff1690565b61296f614795565b816001600160a01b0381166129c65760405162461bcd60e51b815260206004820152601d60248201527f496e76616c696420616464726573733a207a65726f20616464726573730000006044820152606401611276565b306001600160a01b03821603612a165760405162461bcd60e51b815260206004820152601560248201527424b73b30b634b21030b2323932b9b99d1039b2b63360591b6044820152606401611276565b6064821115612a5c5760405162461bcd60e51b815260206004820152601260248201527153636f7265206f7574206f662072616e676560701b6044820152606401611276565b6001600160a01b03831660008181526002602052604090819020849055517f4afae6838a181695abc7978598380d73bc2144eb38580c130f86e4b1e6531e1590611fc89085815260200190565b612ab1614795565b601080546001600160a01b038381166001600160a01b0319831681179093556040519116919082907f3637d79e8b0bd63fa3bcc41c2ab614b349b83626b91f73211bc80c6ec5ec4e9590600090a35050565b600080612b0e6145a8565b905080600003612b2757670de0b6b3a764000091505090565b60018111612b3e57670c7d713b49da000091505090565b60028111612b5557670de0b6b3a764000091505090565b60038111612b6c57670f43fc2c04ee000091505090565b6710a741a46278000091505090565b6001600160a01b03821660009081526001602052604090205460ff16612bc057336001600160a01b03166000805160206155f683398151915260405161156c906150af565b80600003612c5957336001600160a01b03166000805160206155f6833981519152604051612c14906020808252601290820152710416d6f756e74206d757374206265203e20360741b604082015260600190565b60405180910390a260405162461bcd60e51b81526020600482015260126024820152710416d6f756e74206d757374206265203e20360741b6044820152606401611276565b3360009081526005602052604090205460ff1615612c9657336001600160a01b03166000805160206155f6833981519152604051611687906150da565b336000908152600b602052604090205460ff16612d0a57336000818152600b60205260408120805460ff19166001908117909155600a805491820181559091527fc65a7bb8d6351c1cf70c95a316cc6a92839c986682d98bc35f958f4883f9d2a80180546001600160a01b03191690911790555b6040516323b872dd60e01b8152336004820152306024820152604481018290526001600160a01b038316906323b872dd906064016020604051808303816000875af1158015612d5d573d6000803e3d6000fd5b505050506040513d601f19601f82011682018060405250810190612d819190615045565b506001600160a01b03821660009081526020818152604080832033845290915281208054839290612db3908490614cc9565b90915550506040518181526001600160a01b0383169033907ff1c0dd7e9b98bbff859029005ef89b127af049cd18df1a8d79f0b7e019911e569060200160405180910390a35050565b600066d529ae9e86000081612e0f612f20565b9050670de0b6b3a7640000612e248284615111565b611e769190615128565b6010546001600160a01b03163314612e885760405162461bcd60e51b815260206004820152601d60248201527f4f6e6c79206372656469742073797374656d2063616e207570646174650000006044820152606401611276565b6064811115612ece5760405162461bcd60e51b815260206004820152601260248201527153636f7265206f7574206f662072616e676560701b6044820152606401611276565b6001600160a01b03821660008181526002602090815260409182902080549085905591518481529192917f4afae6838a181695abc7978598380d73bc2144eb38580c130f86e4b1e6531e159101611fc8565b600080612f2b612b03565b90506000612f37612f6d565b9050670de0b6b3a7640000612f4c8284615111565b612f569190615128565b9250505090565b6009818154811061188d57600080fd5b600080612f7861210e565b9050670d2f13f7789f00008110612f9857670de0b6b3a764000091505090565b670c7d713b49da00008110612fb657670e92596fd629000091505090565b670b1a2bc2ec5000008110612b6c57670f43fc2c04ee000091505090565b612fdc614795565b600d805460ff610100808304821615810261ff001990931692909217928390556040517f228f455d7bc3d0b24a3a08d7847f391c3e78fc8aeb83acf226b7a96ee162b8ac936130349390049091161515815260200190565b60405180910390a1565b600d54610100900460ff161561308b5760405162461bcd60e51b815260206004820152601260248201527110dbdb9d1c9858dd081a5cc81c185d5cd95960721b6044820152606401611276565b600d5460ff16156130ae5760405162461bcd60e51b8152600401611276906152c7565b600d805460ff19166001179055600081900361316b57336001600160a01b03166000805160206155f683398151915260405161311b906020808252601d908201527f416d6f756e74206d7573742062652067726561746572207468616e2030000000604082015260600190565b60405180910390a260405162461bcd60e51b815260206004820152601d60248201527f416d6f756e74206d7573742062652067726561746572207468616e20300000006044820152606401611276565b600061317633611de2565b90506000806000613186336118a7565b9194509250905060048460048111156131a1576131a1614e63565b0361323b57336001600160a01b03166000805160206155f68339815191526040516131f4906020808252601490820152734372656469742073636f726520746f6f206c6f7760601b604082015260600190565b60405180910390a260405162461bcd60e51b81526020600482015260146024820152734372656469742073636f726520746f6f206c6f7760601b6044820152606401611276565b6002600c5461324a9190615128565b85111561329657336001600160a01b03166000805160206155f683398151915260405161327690615364565b60405180910390a260405162461bcd60e51b815260040161127690615364565b808511156132e357336001600160a01b03166000805160206155f68339815191526040516132c3906153b4565b60405180910390a260405162461bcd60e51b8152600401611276906153b4565b336000908152600360205260409020541561339f57336001600160a01b03166000805160206155f683398151915260405161334f906020808252601e908201527f526570617920796f7572206578697374696e6720646562742066697273740000604082015260600190565b60405180910390a260405162461bcd60e51b815260206004820152601e60248201527f526570617920796f7572206578697374696e67206465627420666972737400006044820152606401611276565b336000908152600b602052604090205460ff1661341357336000818152600b60205260408120805460ff19166001908117909155600a805491820181559091527fc65a7bb8d6351c1cf70c95a316cc6a92839c986682d98bc35f958f4883f9d2a80180546001600160a01b03191690911790555b600061341e336121ae565b905061342a8487615111565b613435826064615111565b101561348057336001600160a01b03166000805160206155f6833981519152604051613460906153f9565b60405180910390a260405162461bcd60e51b8152600401611276906153f9565b600f546040516303065a9d60e21b8152600481018890526000916001600160a01b031690630c196a7490602401602060405180830381865afa1580156134ca573d6000803e3d6000fd5b505050506040513d601f19601f820116820180604052508101906134ee9190615295565b905080600085121561352b5760646135058661543e565b61351090606461514a565b61351a9084615111565b6135249190615128565b9050613557565b60008513156135575760646135408682614cc9565b61354a9084615111565b6135549190615128565b90505b33600090815260036020526040812080548a9290613576908490614cc9565b9091555050336000908152600460208190526040822042905589916012918a908111156135a5576135a5614e63565b60048111156135b6576135b6614e63565b815260200190815260200160002060008282546135d39190614cc9565b9250508190555087601360008282546135ec9190614cc9565b9091555050604051339089156108fc02908a906000818181858888f1935050505015801561361e573d6000803e3d6000fd5b5060405188815233907fac59582e5396aca512fa873a2047e7f4c80f8f55d4a06cb34a78a0187f62719f9060200160405180910390a25050600d805460ff19169055505050505050565b613670614795565b6001600160a01b0381166136c65760405162461bcd60e51b815260206004820152601f60248201527f496e76616c6964206c656e64696e67206d616e616765722061646472657373006044820152606401611276565b600f80546001600160a01b0319166001600160a01b0392909216919091179055565b60606000805b60095481101561375257600160006009838154811061370f5761370f615099565b60009182526020808320909101546001600160a01b0316835282019290925260400190205460ff161561374a5781613746816152ae565b9250505b6001016136ee565b5060008167ffffffffffffffff81111561376e5761376e6151af565b604051908082528060200260200182016040528015613797578160200160208202803683370190505b5090506000805b600954811015612253576000600982815481106137bd576137bd615099565b60009182526020808320909101546001600160a01b0316808352600190915260409091205490915060ff1615613826578084848151811061380057613800615099565b6001600160a01b039092166020928302919091019091015282613822816152ae565b9350505b5060010161379e565b6010546000906001600160a01b0316156138c7576010546040516335856b7f60e11b81526001600160a01b03848116600483015290911690636b0ad6fe9060240160c060405180830381865afa9250505080156138a9575060408051601f3d908101601f191682019092526138a6918101906152ee565b60015b156138c75782156138c05750909695505050505050565b5050505050505b506001600160a01b031660009081526002602052604090205490565b6138ec82611416565b6138f58161478b565b611454838361486c565b613907614795565b620151808111156139465760405162461bcd60e51b8152602060048201526009602482015268546f6f206c6172676560b81b6044820152606401611276565b6001600160a01b03909116600090815260156020526040902055565b600d5460ff16156139855760405162461bcd60e51b8152600401611276906152c7565b600d805460ff19166001179055600f54336001600160a01b03909116146139f95760405162461bcd60e51b815260206004820152602260248201527f4f6e6c79206c656e64696e67206d616e616765722063616e2063616c6c207468604482015261697360f01b6064820152608401611276565b47811115613a495760405162461bcd60e51b815260206004820152601d60248201527f496e73756666696369656e7420636f6e74726163742062616c616e63650000006044820152606401611276565b604051339082156108fc029083906000818181858888f19350505050158015613a76573d6000803e3d6000fd5b5050600d805460ff19169055565b6000613a8f826128a4565b5090508015613ad65760405162461bcd60e51b8152602060048201526013602482015272506f736974696f6e206973206865616c74687960681b6044820152606401611276565b6001600160a01b03821660009081526005602052604090205460ff1615613b3f5760405162461bcd60e51b815260206004820152601b60248201527f4c69717569646174696f6e20616c7265616479207374617274656400000000006044820152606401611276565b6001600160a01b0382166000818152600560209081526040808320805460ff191660011790556006909152808220429055517f7f62ed89ea2c6fb057e4ea77729c1d3f18056339791fce29ac89760197b45b299190a25050565b6060600a805480602002602001604051908101604052809291908181526020018280548015613bf157602002820191906000526020600020905b81546001600160a01b03168152600190910190602001808311613bd3575b5050505050905090565b6001600160a01b03811660009081526005602052604090205460ff16613c6e5760405162461bcd60e51b815260206004820152602260248201527f4163636f756e74206e6f74206d61726b656420666f72206c697175696461746960448201526137b760f11b6064820152608401611276565b6001600160a01b038116600090815260066020526040902054613c95906203f48090614cc9565b421015613cdd5760405162461bcd60e51b815260206004820152601660248201527511dc9858d9481c195c9a5bd9081b9bdd08195b99195960521b6044820152606401611276565b6000613ce76136e8565b905060005b8151811015613d6b57613d17828281518110613d0a57613d0a615099565b6020026020010151613f92565b613d635760405162461bcd60e51b815260206004820181905260248201527f4f7261636c65206369726375697420627265616b6572207472696767657265646044820152606401611276565b600101613cec565b506001600160a01b038216600090815260036020526040812054906064613d93600584615111565b613d9d9190615128565b90506000613dab8284614cc9565b905060005b8451811015613e9e576000858281518110613dcd57613dcd615099565b6020908102919091018101516001600160a01b0380821660009081528084526040808220928c16825291909352909120549091508015613e94576001600160a01b03828116600081815260208181526040808320948d16835293905282812055905163a9059cbb60e01b81523360048201526024810183905263a9059cbb906044016020604051808303816000875af1158015613e6e573d6000803e3d6000fd5b505050506040513d601f19601f82011682018060405250810190613e929190615045565b505b5050600101613db0565b506001600160a01b03851660009081526003602090815260408083208390556004825280832083905560058252808320805460ff19169055600690915281208190558390601290613eee88611de2565b6004811115613eff57613eff614e63565b6004811115613f1057613f10614e63565b81526020019081526020016000206000828254613f2d919061514a565b925050819055508260146000828254613f469190614cc9565b909155505060405181815233906001600160a01b038716907f1175522017e08c2f400d7e516608eff60816ee9e8319158d174321234b6026319060200160405180910390a35050505050565b6001600160a01b0380821660009081526008602052604081205490911680613fbd5750600092915050565b60008190506000806000836001600160a01b031663feaf968c6040518163ffffffff1660e01b815260040160a060405180830381865afa158015614005573d6000803e3d6000fd5b505050506040513d601f19601f820116820180604052508101906140299190615471565b945094505050925061403a87614959565b614044834261514a565b1115614057575060009695505050505050565b826001600160501b0316816001600160501b0316101561407e575060009695505050505050565b5060019695505050505050565b60008061409783614a05565b506001600160a01b0380851660009081526008602090815260409182902054825163313ce56760e01b8152925194955090921692839263313ce56792600480820193918290030181865afa1580156140f3573d6000803e3d6000fd5b505050506040513d601f19601f8201168201806040525081019061411791906154c3565b6141229060126154e6565b61412d90600a6155e6565b611e769083615111565b61413f614795565b6001600160a01b03811661416957604051631e4fbdf760e01b815260006004820152602401611276565b614172816148e8565b50565b600061417f614b8e565b805490915060ff600160401b820416159067ffffffffffffffff166000811580156141a75750825b905060008267ffffffffffffffff1660011480156141c45750303b155b9050811580156141d2575080155b156141f05760405163f92ee8a960e01b815260040160405180910390fd5b845467ffffffffffffffff19166001178555831561421a57845460ff60401b1916600160401b1785555b61422389614bb7565b61422b614bc8565b614236600080614bd0565b61424160008a6147c7565b50600e80546001600160a01b03808b166001600160a01b031992831617909255600f80548a8416921691909117905586161561429957601080546001600160a81b0319166001600160a01b03881617600160a01b1790555b61455760116040518060a00160405280605a815260200160648152602001606e81526020016018198152602001603281525090806001815401808255809150506001900390600052602060002090600502016000909190919091506000820151816000015560208201518160010155604082015181600201556060820151816003015560808201518160040155505060116040518060a001604052806050815260200160598152602001607d81526020016009198152602001602881525090806001815401808255809150506001900390600052602060002090600502016000909190919091506000820151816000015560208201518160010155604082015181600201556060820151816003015560808201518160040155505060116040518060a0016040528060468152602001604f8152602001608c815260200160008152602001601e81525090806001815401808255809150506001900390600052602060002090600502016000909190919091506000820151816000015560208201518160010155604082015181600201556060820151816003015560808201518160040155505060116040518060a00160405280603c81526020016045815260200160a08152602001600f8152602001601481525090806001815401808255809150506001900390600052602060002090600502016000909190919091506000820151816000015560208201518160010155604082015181600201556060820151816003015560808201518160040155505060116040518060a0016040528060008152602001603b815260200160c88152602001601e81526020016000815250908060018154018082558091505060019003906000526020600020906005020160009091909190915060008201518160000155602082015181600101556040820151816002015560608201518160030155608082015181600401555050565b831561459d57845460ff60401b19168555604051600181527fc7f505b2f371ae2175ee4913f4499e1f2633a7b5936321eed1cdaeb6115181d29060200160405180910390a15b505050505050505050565b600080805260126020527f7e7fa33969761a458e04f477e039a608702b4f924981d6653935a8319a08ad7b54819081906145e3906001615111565b6145ed9083614cc9565b600160005260126020527f71a67924699a20698523213e55fe499d539379d7769cd5567e2c45d583f815a354909250614627906002615111565b6146319083614cc9565b600260005260126020527f8e1fee8c88a9e04123b21e90cae2727a7715bf522a1e46eb5934ccd05203a6b25490925061466b906003615111565b6146759083614cc9565b600360005260126020527f0f36ad39aee03e7108cc48f54934702a5f0d4066f10344cebf8198978d86976a549092506146af906004615111565b6146b99083614cc9565b60126020527f0f36ad39aee03e7108cc48f54934702a5f0d4066f10344cebf8198978d86976a547f8e1fee8c88a9e04123b21e90cae2727a7715bf522a1e46eb5934ccd05203a6b2547f71a67924699a20698523213e55fe499d539379d7769cd5567e2c45d583f815a354600080527f7e7fa33969761a458e04f477e039a608702b4f924981d6653935a8319a08ad7b549395509192909161475a91614cc9565b6147649190614cc9565b61476e9190614cc9565b9050806000036147815760009250505090565b612f568183615128565b6141728133614c33565b3361479e612876565b6001600160a01b03161461257c5760405163118cdaa760e01b8152336004820152602401611276565b60006000805160206156168339815191526147e2848461292f565b614862576000848152602082815260408083206001600160a01b03871684529091529020805460ff191660011790556148183390565b6001600160a01b0316836001600160a01b0316857f2f8788117e7eff1d82e926ec794901d17c78024a50270940304540a733656f0d60405160405180910390a46001915050611215565b6000915050611215565b6000600080516020615616833981519152614887848461292f565b15614862576000848152602082815260408083206001600160a01b0387168085529252808320805460ff1916905551339287917ff6391f5c32d9c69d2a47ea670b442974b53935d1edc7fd64eb21e047a839171b9190a46001915050611215565b7f9016d09d72d40fdae2fd8ceac6b6234c7706214fd39c1cd1e609a0528c19930080546001600160a01b031981166001600160a01b03848116918217845560405192169182907f8be0079c531659141344cd1fd0a4f28419497f9722a3daafe3b4186f6b6457e090600090a3505050565b6001600160a01b038116600090815260156020526040812054801561497e5792915050565b600e54604051631a650cc760e01b81526001600160a01b03858116600483015290911690631a650cc790602401602060405180830381865afa1580156149c8573d6000803e3d6000fd5b505050506040513d601f19601f820116820180604052508101906149ec9190615045565b156149fb5750610e1092915050565b5061038492915050565b6001600160a01b03808216600090815260086020526040812054909182911680614a665760405162461bcd60e51b8152602060048201526012602482015271141c9a58d94819995959081b9bdd081cd95d60721b6044820152606401611276565b6000819050600080600080846001600160a01b031663feaf968c6040518163ffffffff1660e01b815260040160a060405180830381865afa158015614aaf573d6000803e3d6000fd5b505050506040513d601f19601f82011682018060405250810190614ad39190615471565b945094505093509350614ae589614959565b614aef834261514a565b1115614b2b5760405162461bcd60e51b815260206004820152600b60248201526a5374616c6520707269636560a81b6044820152606401611276565b836001600160501b0316816001600160501b03161015614b805760405162461bcd60e51b815260206004820152601060248201526f5374616c6520726f756e64206461746160801b6044820152606401611276565b509097909650945050505050565b6000807ff0c57e16840df040f15088dc2f81fe391c3923bec73e23a9662efc9c229c6a00611215565b614bbf614c6c565b61417281614c91565b61257c614c6c565b6000805160206156168339815191526000614bea84611416565b600085815260208490526040808220600101869055519192508491839187917fbd79b86ffe0ab8e8776151514217cd7cacd52c909f66475c3af44e129f0b00ff9190a450505050565b614c3d828261292f565b6125255760405163e2517d3f60e01b81526001600160a01b038216600482015260248101839052604401611276565b614c74614c99565b61257c57604051631afcd79f60e31b815260040160405180910390fd5b61413f614c6c565b6000614ca3614b8e565b54600160401b900460ff16919050565b634e487b7160e01b600052601160045260246000fd5b8082018082111561121557611215614cb3565b80356001600160a01b0381168114614cf357600080fd5b919050565b600060208284031215614d0a57600080fd5b611ea782614cdc565b600060208284031215614d2557600080fd5b81356001600160e01b031981168114611ea757600080fd5b60008060408385031215614d5057600080fd5b614d5983614cdc565b946020939093013593505050565b600060208284031215614d7957600080fd5b5035919050565b60008060408385031215614d9357600080fd5b82359150614da360208401614cdc565b90509250929050565b60008060008060008060c08789031215614dc557600080fd5b505084359660208601359650604086013595606081013595506080810135945060a0013592509050565b60008060208385031215614e0257600080fd5b823567ffffffffffffffff811115614e1957600080fd5b8301601f81018513614e2a57600080fd5b803567ffffffffffffffff811115614e4157600080fd5b856020828401011115614e5357600080fd5b6020919091019590945092505050565b634e487b7160e01b600052602160045260246000fd5b6020810160058310614e9b57634e487b7160e01b600052602160045260246000fd5b91905290565b60008060408385031215614eb457600080fd5b614ebd83614cdc565b9150614da360208401614cdc565b801515811461417257600080fd5b60008060408385031215614eec57600080fd5b614ef583614cdc565b91506020830135614f0581614ecb565b809150509250929050565b600060208284031215614f2257600080fd5b8135611ea781614ecb565b8215158152604060208201526000825180604084015260005b81811015614f635760208186018101516060868401015201614f46565b506000606082850101526060601f19601f8301168401019150509392505050565b600060208284031215614f9657600080fd5b813560058110611ea757600080fd5b602080825282518282018190526000918401906040840190835b81811015614fe65783516001600160a01b0316835260209384019390920191600101614fbf565b509095945050505050565b6000806000806080858703121561500757600080fd5b61501085614cdc565b935061501e60208601614cdc565b925061502c60408601614cdc565b915061503a60608601614cdc565b905092959194509250565b60006020828403121561505757600080fd5b8151611ea781614ecb565b6020808252601f908201527f546f6b656e206e6f7420616c6c6f77656420617320636f6c6c61746572616c00604082015260600190565b634e487b7160e01b600052603260045260246000fd5b602080825260119082015270151bdad95b881b9bdd08185b1b1bddd959607a1b604082015260600190565b60208082526019908201527f4163636f756e7420697320696e206c69717569646174696f6e00000000000000604082015260600190565b808202811582820484141761121557611215614cb3565b60008261514557634e487b7160e01b600052601260045260246000fd5b500490565b8181038181111561121557611215614cb3565b60208082526032908201527f5769746864726177616c20776f756c64206d616b6520706f736974696f6e20756040820152711b99195c98dbdb1b185d195c985b1a5e995960721b606082015260800190565b634e487b7160e01b600052604160045260246000fd5b6000602082840312156151d757600080fd5b813567ffffffffffffffff8111156151ee57600080fd5b8201601f810184136151ff57600080fd5b803567ffffffffffffffff811115615219576152196151af565b8060051b604051601f19603f830116810181811067ffffffffffffffff82111715615246576152466151af565b60405291825260208184018101929081018784111561526457600080fd5b6020850194505b8385101561528a5761527c85614cdc565b81526020948501940161526b565b509695505050505050565b6000602082840312156152a757600080fd5b5051919050565b6000600182016152c0576152c0614cb3565b5060010190565b6020808252600d908201526c4e6f207265656e7472616e637960981b604082015260600190565b60008060008060008060c0878903121561530757600080fd5b865161531281614ecb565b602088015190965061532381614ecb565b604088015190955061533481614ecb565b60608801516080890151919550935061534c81614ecb565b60a09790970151959894975092959194919391925050565b60208082526030908201527f426f72726f7720616d6f756e74206578636565647320617661696c61626c652060408201526f6c656e64696e6720636170616369747960801b606082015260800190565b60208082526025908201527f426f72726f7720616d6f756e74206578636565647320796f75722074696572206040820152641b1a5b5a5d60da1b606082015260800190565b60208082526025908201527f496e73756666696369656e7420636f6c6c61746572616c20666f722074686973604082015264103637b0b760d91b606082015260800190565b6000600160ff1b820161545357615453614cb3565b5060000390565b80516001600160501b0381168114614cf357600080fd5b600080600080600060a0868803121561548957600080fd5b6154928661545a565b602087015160408801516060890151929750909550935091506154b76080870161545a565b90509295509295909350565b6000602082840312156154d557600080fd5b815160ff81168114611ea757600080fd5b60ff828116828216039081111561121557611215614cb3565b6001815b600184111561553a5780850481111561551e5761551e614cb3565b600184161561552c57908102905b60019390931c928002615503565b935093915050565b60008261555157506001611215565b8161555e57506000611215565b8160018114615574576002811461557e5761559a565b6001915050611215565b60ff84111561558f5761558f614cb3565b50506001821b611215565b5060208310610133831016604e8410600b84101617156155bd575081810a611215565b6155ca60001984846154ff565b80600019048211156155de576155de614cb3565b029392505050565b6000611ea760ff84168361554256fe3c364b9decdac59fbe037e99687219ac0feed46572bfbcbd5284b6b8e67f402d02dd7bc7dec4dceedda775e58dd541e08a116c6c53815c0bd028192f7b626800a2646970667358221220e24bff02e0144274fb8e4d1c2f0cedcf6f4f6080adb5f95693234e2212bf963064736f6c634300081c0033",
  "linkReferences": {},
  "deployedLinkReferences": {}
}