{
  "_format": "hh-sol-artifact-1",
  "contractName": "LiquidityPoolV3",
  "sourceName": "contracts/LiquidityPoolV3.sol",
  "abi": [
    {
      "inputs": [],
      "name": "AccessControlBadConfirmation",
      "type": "error"
    },
    {
      "inputs": [
        {
          "internalType": "address",
          "name": "account",
          "type": "address"
        },
        {
          "internalType": "bytes32",
          "name": "neededRole",
          "type": "bytes32"
        }
      ],
      "name": "AccessControlUnauthorizedAccount",
      "type": "error"
    },
    {
      "inputs": [],
      "name": "InvalidInitialization",
      "type": "error"
    },
    {
      "inputs": [],
      "name": "NotInitializing",
      "type": "error"
    },
    {
      "inputs": [
        {
          "internalType": "address",
          "name": "owner",
          "type": "address"
        }
      ],
      "name": "OwnableInvalidOwner",
      "type": "error"
    },
    {
      "inputs": [
        {
          "internalType": "address",
          "name": "account",
          "type": "address"
        }
      ],
      "name": "OwnableUnauthorizedAccount",
      "type": "error"
    },
    {
      "anonymous": false,
      "inputs": [
        {
          "indexed": true,
          "internalType": "address",
          "name": "user",
          "type": "address"
        },
        {
          "indexed": false,
          "internalType": "uint256",
          "name": "amount",
          "type": "uint256"
        }
      ],
      "name": "Borrowed",
      "type": "event"
    },
    {
      "anonymous": false,
      "inputs": [
        {
          "indexed": true,
          "internalType": "address",
          "name": "user",
          "type": "address"
        },
        {
          "indexed": true,
          "internalType": "address",
          "name": "token",
          "type": "address"
        },
        {
          "indexed": false,
          "internalType": "uint256",
          "name": "amount",
          "type": "uint256"
        }
      ],
      "name": "CollateralDeposited",
      "type": "event"
    },
    {
      "anonymous": false,
      "inputs": [
        {
          "indexed": true,
          "internalType": "address",
          "name": "token",
          "type": "address"
        },
        {
          "indexed": false,
          "internalType": "bool",
          "name": "isAllowed",
          "type": "bool"
        }
      ],
      "name": "CollateralTokenStatusChanged",
      "type": "event"
    },
    {
      "anonymous": false,
      "inputs": [
        {
          "indexed": true,
          "internalType": "address",
          "name": "user",
          "type": "address"
        },
        {
          "indexed": true,
          "internalType": "address",
          "name": "token",
          "type": "address"
        },
        {
          "indexed": false,
          "internalType": "uint256",
          "name": "amount",
          "type": "uint256"
        }
      ],
      "name": "CollateralWithdrawn",
      "type": "event"
    },
    {
      "anonymous": false,
      "inputs": [
        {
          "indexed": true,
          "internalType": "address",
          "name": "user",
          "type": "address"
        },
        {
          "indexed": false,
          "internalType": "uint256",
          "name": "score",
          "type": "uint256"
        }
      ],
      "name": "CreditScoreAssigned",
      "type": "event"
    },
    {
      "anonymous": false,
      "inputs": [
        {
          "indexed": false,
          "internalType": "bool",
          "name": "isPaused",
          "type": "bool"
        }
      ],
      "name": "EmergencyPaused",
      "type": "event"
    },
    {
      "anonymous": false,
      "inputs": [
        {
          "indexed": true,
          "internalType": "address",
          "name": "owner",
          "type": "address"
        },
        {
          "indexed": false,
          "internalType": "uint256",
          "name": "amount",
          "type": "uint256"
        }
      ],
      "name": "Extracted",
      "type": "event"
    },
    {
      "anonymous": false,
      "inputs": [
        {
          "indexed": true,
          "internalType": "address",
          "name": "user",
          "type": "address"
        },
        {
          "indexed": false,
          "internalType": "uint256",
          "name": "newDeadline",
          "type": "uint256"
        }
      ],
      "name": "GracePeriodExtended",
      "type": "event"
    },
    {
      "anonymous": false,
      "inputs": [
        {
          "indexed": false,
          "internalType": "uint64",
          "name": "version",
          "type": "uint64"
        }
      ],
      "name": "Initialized",
      "type": "event"
    },
    {
      "anonymous": false,
      "inputs": [
        {
          "indexed": true,
          "internalType": "address",
          "name": "user",
          "type": "address"
        },
        {
          "indexed": true,
          "internalType": "address",
          "name": "liquidator",
          "type": "address"
        },
        {
          "indexed": false,
          "internalType": "uint256",
          "name": "amount",
          "type": "uint256"
        }
      ],
      "name": "LiquidationExecuted",
      "type": "event"
    },
    {
      "anonymous": false,
      "inputs": [
        {
          "indexed": true,
          "internalType": "address",
          "name": "user",
          "type": "address"
        }
      ],
      "name": "LiquidationStarted",
      "type": "event"
    },
    {
      "anonymous": false,
      "inputs": [
        {
          "indexed": true,
          "internalType": "address",
          "name": "previousOwner",
          "type": "address"
        },
        {
          "indexed": true,
          "internalType": "address",
          "name": "newOwner",
          "type": "address"
        }
      ],
      "name": "OwnershipTransferred",
      "type": "event"
    },
    {
      "anonymous": false,
      "inputs": [
        {
          "indexed": true,
          "internalType": "address",
          "name": "user",
          "type": "address"
        },
        {
          "indexed": false,
          "internalType": "uint256",
          "name": "amount",
          "type": "uint256"
        }
      ],
      "name": "Repaid",
      "type": "event"
    },
    {
      "anonymous": false,
      "inputs": [
        {
          "indexed": true,
          "internalType": "bytes32",
          "name": "role",
          "type": "bytes32"
        },
        {
          "indexed": true,
          "internalType": "bytes32",
          "name": "previousAdminRole",
          "type": "bytes32"
        },
        {
          "indexed": true,
          "internalType": "bytes32",
          "name": "newAdminRole",
          "type": "bytes32"
        }
      ],
      "name": "RoleAdminChanged",
      "type": "event"
    },
    {
      "anonymous": false,
      "inputs": [
        {
          "indexed": true,
          "internalType": "bytes32",
          "name": "role",
          "type": "bytes32"
        },
        {
          "indexed": true,
          "internalType": "address",
          "name": "account",
          "type": "address"
        },
        {
          "indexed": true,
          "internalType": "address",
          "name": "sender",
          "type": "address"
        }
      ],
      "name": "RoleGranted",
      "type": "event"
    },
    {
      "anonymous": false,
      "inputs": [
        {
          "indexed": true,
          "internalType": "bytes32",
          "name": "role",
          "type": "bytes32"
        },
        {
          "indexed": true,
          "internalType": "address",
          "name": "account",
          "type": "address"
        },
        {
          "indexed": true,
          "internalType": "address",
          "name": "sender",
          "type": "address"
        }
      ],
      "name": "RoleRevoked",
      "type": "event"
    },
    {
      "anonymous": false,
      "inputs": [
        {
          "indexed": true,
          "internalType": "address",
          "name": "user",
          "type": "address"
        },
        {
          "indexed": false,
          "internalType": "string",
          "name": "message",
          "type": "string"
        }
      ],
      "name": "UserError",
      "type": "event"
    },
    {
      "inputs": [],
      "name": "DEFAULT_ADMIN_ROLE",
      "outputs": [
        {
          "internalType": "bytes32",
          "name": "",
          "type": "bytes32"
        }
      ],
      "stateMutability": "view",
      "type": "function"
    },
    {
      "inputs": [],
      "name": "DEFAULT_LIQUIDATION_THRESHOLD",
      "outputs": [
        {
          "internalType": "uint256",
          "name": "",
          "type": "uint256"
        }
      ],
      "stateMutability": "view",
      "type": "function"
    },
    {
      "inputs": [],
      "name": "GRACE_PERIOD",
      "outputs": [
        {
          "internalType": "uint256",
          "name": "",
          "type": "uint256"
        }
      ],
      "stateMutability": "view",
      "type": "function"
    },
    {
      "inputs": [],
      "name": "LIQUIDATION_PENALTY",
      "outputs": [
        {
          "internalType": "uint256",
          "name": "",
          "type": "uint256"
        }
      ],
      "stateMutability": "view",
      "type": "function"
    },
    {
      "inputs": [
        {
          "internalType": "uint256",
          "name": "amount",
          "type": "uint256"
        }
      ],
      "name": "borrow",
      "outputs": [],
      "stateMutability": "nonpayable",
      "type": "function"
    },
    {
      "inputs": [
        {
          "internalType": "uint256",
          "name": "",
          "type": "uint256"
        }
      ],
      "name": "borrowTierConfigs",
      "outputs": [
        {
          "internalType": "uint256",
          "name": "minScore",
          "type": "uint256"
        },
        {
          "internalType": "uint256",
          "name": "maxScore",
          "type": "uint256"
        },
        {
          "internalType": "uint256",
          "name": "collateralRatio",
          "type": "uint256"
        },
        {
          "internalType": "int256",
          "name": "interestRateModifier",
          "type": "int256"
        },
        {
          "internalType": "uint256",
          "name": "maxLoanAmount",
          "type": "uint256"
        }
      ],
      "stateMutability": "view",
      "type": "function"
    },
    {
      "inputs": [
        {
          "internalType": "address",
          "name": "",
          "type": "address"
        }
      ],
      "name": "borrowTimestamp",
      "outputs": [
        {
          "internalType": "uint256",
          "name": "",
          "type": "uint256"
        }
      ],
      "stateMutability": "view",
      "type": "function"
    },
    {
      "inputs": [
        {
          "internalType": "address",
          "name": "user",
          "type": "address"
        }
      ],
      "name": "checkCollateralization",
      "outputs": [
        {
          "internalType": "bool",
          "name": "isHealthy",
          "type": "bool"
        },
        {
          "internalType": "uint256",
          "name": "ratio",
          "type": "uint256"
        }
      ],
      "stateMutability": "view",
      "type": "function"
    },
    {
      "inputs": [
        {
          "internalType": "bytes",
          "name": "",
          "type": "bytes"
        }
      ],
      "name": "checkUpkeep",
      "outputs": [
        {
          "internalType": "bool",
          "name": "upkeepNeeded",
          "type": "bool"
        },
        {
          "internalType": "bytes",
          "name": "performData",
          "type": "bytes"
        }
      ],
      "stateMutability": "view",
      "type": "function"
    },
    {
      "inputs": [
        {
          "internalType": "address",
          "name": "",
          "type": "address"
        },
        {
          "internalType": "address",
          "name": "",
          "type": "address"
        }
      ],
      "name": "collateralBalance",
      "outputs": [
        {
          "internalType": "uint256",
          "name": "",
          "type": "uint256"
        }
      ],
      "stateMutability": "view",
      "type": "function"
    },
    {
      "inputs": [
        {
          "internalType": "uint256",
          "name": "",
          "type": "uint256"
        }
      ],
      "name": "collateralTokenList",
      "outputs": [
        {
          "internalType": "address",
          "name": "",
          "type": "address"
        }
      ],
      "stateMutability": "view",
      "type": "function"
    },
    {
      "inputs": [
        {
          "internalType": "address",
          "name": "",
          "type": "address"
        }
      ],
      "name": "creditScore",
      "outputs": [
        {
          "internalType": "uint256",
          "name": "",
          "type": "uint256"
        }
      ],
      "stateMutability": "view",
      "type": "function"
    },
    {
      "inputs": [
        {
          "internalType": "address",
          "name": "token",
          "type": "address"
        },
        {
          "internalType": "uint256",
          "name": "amount",
          "type": "uint256"
        }
      ],
      "name": "depositCollateral",
      "outputs": [],
      "stateMutability": "nonpayable",
      "type": "function"
    },
    {
      "inputs": [
        {
          "internalType": "address",
          "name": "user",
          "type": "address"
        }
      ],
      "name": "executeLiquidation",
      "outputs": [],
      "stateMutability": "nonpayable",
      "type": "function"
    },
    {
      "inputs": [
        {
          "internalType": "uint256",
          "name": "amount",
          "type": "uint256"
        }
      ],
      "name": "extract",
      "outputs": [],
      "stateMutability": "nonpayable",
      "type": "function"
    },
    {
      "inputs": [],
      "name": "getAdmin",
      "outputs": [
        {
          "internalType": "address",
          "name": "",
          "type": "address"
        }
      ],
      "stateMutability": "view",
      "type": "function"
    },
    {
      "inputs": [],
      "name": "getAllUsers",
      "outputs": [
        {
          "internalType": "address[]",
          "name": "",
          "type": "address[]"
        }
      ],
      "stateMutability": "view",
      "type": "function"
    },
    {
      "inputs": [],
      "name": "getAllowedCollateralTokens",
      "outputs": [
        {
          "internalType": "address[]",
          "name": "",
          "type": "address[]"
        }
      ],
      "stateMutability": "view",
      "type": "function"
    },
    {
      "inputs": [],
      "name": "getBalance",
      "outputs": [
        {
          "internalType": "uint256",
          "name": "",
          "type": "uint256"
        }
      ],
      "stateMutability": "view",
      "type": "function"
    },
    {
      "inputs": [
        {
          "internalType": "address",
          "name": "user",
          "type": "address"
        }
      ],
      "name": "getBorrowTerms",
      "outputs": [
        {
          "internalType": "uint256",
          "name": "collateralRatio",
          "type": "uint256"
        },
        {
          "internalType": "int256",
          "name": "interestRateModifier",
          "type": "int256"
        },
        {
          "internalType": "uint256",
          "name": "maxLoanAmount",
          "type": "uint256"
        }
      ],
      "stateMutability": "view",
      "type": "function"
    },
    {
      "inputs": [
        {
          "internalType": "address",
          "name": "user",
          "type": "address"
        },
        {
          "internalType": "address",
          "name": "token",
          "type": "address"
        }
      ],
      "name": "getCollateral",
      "outputs": [
        {
          "internalType": "uint256",
          "name": "",
          "type": "uint256"
        }
      ],
      "stateMutability": "view",
      "type": "function"
    },
    {
      "inputs": [
        {
          "internalType": "address",
          "name": "user",
          "type": "address"
        }
      ],
      "name": "getCreditScore",
      "outputs": [
        {
          "internalType": "uint256",
          "name": "",
          "type": "uint256"
        }
      ],
      "stateMutability": "view",
      "type": "function"
    },
    {
      "inputs": [
        {
          "internalType": "address",
          "name": "token",
          "type": "address"
        }
      ],
      "name": "getLiquidationThreshold",
      "outputs": [
        {
          "internalType": "uint256",
          "name": "",
          "type": "uint256"
        }
      ],
      "stateMutability": "view",
      "type": "function"
    },
    {
      "inputs": [
        {
          "internalType": "address",
          "name": "user",
          "type": "address"
        },
        {
          "internalType": "address",
          "name": "token",
          "type": "address"
        }
      ],
      "name": "getMaxBorrowAmount",
      "outputs": [
        {
          "internalType": "uint256",
          "name": "",
          "type": "uint256"
        }
      ],
      "stateMutability": "view",
      "type": "function"
    },
    {
      "inputs": [],
      "name": "getMinCollateralRatio",
      "outputs": [
        {
          "internalType": "uint256",
          "name": "",
          "type": "uint256"
        }
      ],
      "stateMutability": "pure",
      "type": "function"
    },
    {
      "inputs": [],
      "name": "getMyDebt",
      "outputs": [
        {
          "internalType": "uint256",
          "name": "",
          "type": "uint256"
        }
      ],
      "stateMutability": "view",
      "type": "function"
    },
    {
      "inputs": [
        {
          "internalType": "address",
          "name": "token",
          "type": "address"
        }
      ],
      "name": "getPriceFeed",
      "outputs": [
        {
          "internalType": "address",
          "name": "",
          "type": "address"
        }
      ],
      "stateMutability": "view",
      "type": "function"
    },
    {
      "inputs": [
        {
          "internalType": "address",
          "name": "user",
          "type": "address"
        }
      ],
      "name": "getRiskTier",
      "outputs": [
        {
          "internalType": "enum LiquidityPoolV3.RiskTier",
          "name": "",
          "type": "uint8"
        }
      ],
      "stateMutability": "view",
      "type": "function"
    },
    {
      "inputs": [
        {
          "internalType": "bytes32",
          "name": "role",
          "type": "bytes32"
        }
      ],
      "name": "getRoleAdmin",
      "outputs": [
        {
          "internalType": "bytes32",
          "name": "",
          "type": "bytes32"
        }
      ],
      "stateMutability": "view",
      "type": "function"
    },
    {
      "inputs": [
        {
          "internalType": "address",
          "name": "token",
          "type": "address"
        }
      ],
      "name": "getTokenValue",
      "outputs": [
        {
          "internalType": "uint256",
          "name": "",
          "type": "uint256"
        }
      ],
      "stateMutability": "view",
      "type": "function"
    },
    {
      "inputs": [
        {
          "internalType": "address",
          "name": "user",
          "type": "address"
        }
      ],
      "name": "getTotalCollateralValue",
      "outputs": [
        {
          "internalType": "uint256",
          "name": "",
          "type": "uint256"
        }
      ],
      "stateMutability": "view",
      "type": "function"
    },
    {
      "inputs": [
        {
          "internalType": "bytes32",
          "name": "role",
          "type": "bytes32"
        },
        {
          "internalType": "address",
          "name": "account",
          "type": "address"
        }
      ],
      "name": "grantRole",
      "outputs": [],
      "stateMutability": "nonpayable",
      "type": "function"
    },
    {
      "inputs": [
        {
          "internalType": "bytes32",
          "name": "role",
          "type": "bytes32"
        },
        {
          "internalType": "address",
          "name": "account",
          "type": "address"
        }
      ],
      "name": "hasRole",
      "outputs": [
        {
          "internalType": "bool",
          "name": "",
          "type": "bool"
        }
      ],
      "stateMutability": "view",
      "type": "function"
    },
    {
      "inputs": [
        {
          "internalType": "address",
          "name": "initialOwner",
          "type": "address"
        },
        {
          "internalType": "address",
          "name": "_stablecoinManager",
          "type": "address"
        },
        {
          "internalType": "address",
          "name": "_lendingManager",
          "type": "address"
        }
      ],
      "name": "initialize",
      "outputs": [],
      "stateMutability": "nonpayable",
      "type": "function"
    },
    {
      "inputs": [
        {
          "internalType": "address",
          "name": "",
          "type": "address"
        }
      ],
      "name": "isAllowedCollateral",
      "outputs": [
        {
          "internalType": "bool",
          "name": "",
          "type": "bool"
        }
      ],
      "stateMutability": "view",
      "type": "function"
    },
    {
      "inputs": [
        {
          "internalType": "address",
          "name": "",
          "type": "address"
        }
      ],
      "name": "isKnownUser",
      "outputs": [
        {
          "internalType": "bool",
          "name": "",
          "type": "bool"
        }
      ],
      "stateMutability": "view",
      "type": "function"
    },
    {
      "inputs": [
        {
          "internalType": "address",
          "name": "",
          "type": "address"
        }
      ],
      "name": "isLiquidatable",
      "outputs": [
        {
          "internalType": "bool",
          "name": "",
          "type": "bool"
        }
      ],
      "stateMutability": "view",
      "type": "function"
    },
    {
      "inputs": [],
      "name": "isPaused",
      "outputs": [
        {
          "internalType": "bool",
          "name": "",
          "type": "bool"
        }
      ],
      "stateMutability": "view",
      "type": "function"
    },
    {
      "inputs": [],
      "name": "lendingManager",
      "outputs": [
        {
          "internalType": "contract LendingManager",
          "name": "",
          "type": "address"
        }
      ],
      "stateMutability": "view",
      "type": "function"
    },
    {
      "inputs": [
        {
          "internalType": "address",
          "name": "",
          "type": "address"
        }
      ],
      "name": "liquidationStartTime",
      "outputs": [
        {
          "internalType": "uint256",
          "name": "",
          "type": "uint256"
        }
      ],
      "stateMutability": "view",
      "type": "function"
    },
    {
      "inputs": [
        {
          "internalType": "address",
          "name": "",
          "type": "address"
        }
      ],
      "name": "liquidationThreshold",
      "outputs": [
        {
          "internalType": "uint256",
          "name": "",
          "type": "uint256"
        }
      ],
      "stateMutability": "view",
      "type": "function"
    },
    {
      "inputs": [],
      "name": "liquidator",
      "outputs": [
        {
          "internalType": "address",
          "name": "",
          "type": "address"
        }
      ],
      "stateMutability": "view",
      "type": "function"
    },
    {
      "inputs": [],
      "name": "locked",
      "outputs": [
        {
          "internalType": "bool",
          "name": "",
          "type": "bool"
        }
      ],
      "stateMutability": "view",
      "type": "function"
    },
    {
      "inputs": [],
      "name": "owner",
      "outputs": [
        {
          "internalType": "address",
          "name": "",
          "type": "address"
        }
      ],
      "stateMutability": "view",
      "type": "function"
    },
    {
      "inputs": [],
      "name": "paused",
      "outputs": [
        {
          "internalType": "bool",
          "name": "",
          "type": "bool"
        }
      ],
      "stateMutability": "view",
      "type": "function"
    },
    {
      "inputs": [
        {
          "internalType": "bytes",
          "name": "performData",
          "type": "bytes"
        }
      ],
      "name": "performUpkeep",
      "outputs": [],
      "stateMutability": "nonpayable",
      "type": "function"
    },
    {
      "inputs": [
        {
          "internalType": "address",
          "name": "",
          "type": "address"
        }
      ],
      "name": "priceFeed",
      "outputs": [
        {
          "internalType": "address",
          "name": "",
          "type": "address"
        }
      ],
      "stateMutability": "view",
      "type": "function"
    },
    {
      "inputs": [
        {
          "internalType": "address",
          "name": "token",
          "type": "address"
        },
        {
          "internalType": "uint256",
          "name": "amount",
          "type": "uint256"
        }
      ],
      "name": "recoverFromLiquidation",
      "outputs": [],
      "stateMutability": "nonpayable",
      "type": "function"
    },
    {
      "inputs": [],
      "name": "renounceOwnership",
      "outputs": [],
      "stateMutability": "nonpayable",
      "type": "function"
    },
    {
      "inputs": [
        {
          "internalType": "bytes32",
          "name": "role",
          "type": "bytes32"
        },
        {
          "internalType": "address",
          "name": "callerConfirmation",
          "type": "address"
        }
      ],
      "name": "renounceRole",
      "outputs": [],
      "stateMutability": "nonpayable",
      "type": "function"
    },
    {
      "inputs": [],
      "name": "repay",
      "outputs": [],
      "stateMutability": "payable",
      "type": "function"
    },
    {
      "inputs": [
        {
          "internalType": "bytes32",
          "name": "role",
          "type": "bytes32"
        },
        {
          "internalType": "address",
          "name": "account",
          "type": "address"
        }
      ],
      "name": "revokeRole",
      "outputs": [],
      "stateMutability": "nonpayable",
      "type": "function"
    },
    {
      "inputs": [
        {
          "internalType": "address",
          "name": "newAdmin",
          "type": "address"
        }
      ],
      "name": "setAdmin",
      "outputs": [],
      "stateMutability": "nonpayable",
      "type": "function"
    },
    {
      "inputs": [
        {
          "internalType": "address",
          "name": "token",
          "type": "address"
        },
        {
          "internalType": "bool",
          "name": "allowed",
          "type": "bool"
        }
      ],
      "name": "setAllowedCollateral",
      "outputs": [],
      "stateMutability": "nonpayable",
      "type": "function"
    },
    {
      "inputs": [
        {
          "internalType": "address",
          "name": "user",
          "type": "address"
        },
        {
          "internalType": "uint256",
          "name": "score",
          "type": "uint256"
        }
      ],
      "name": "setCreditScore",
      "outputs": [],
      "stateMutability": "nonpayable",
      "type": "function"
    },
    {
      "inputs": [
        {
          "internalType": "address",
          "name": "_lendingManager",
          "type": "address"
        }
      ],
      "name": "setLendingManager",
      "outputs": [],
      "stateMutability": "nonpayable",
      "type": "function"
    },
    {
      "inputs": [
        {
          "internalType": "address",
          "name": "token",
          "type": "address"
        },
        {
          "internalType": "uint256",
          "name": "threshold",
          "type": "uint256"
        }
      ],
      "name": "setLiquidationThreshold",
      "outputs": [],
      "stateMutability": "nonpayable",
      "type": "function"
    },
    {
      "inputs": [
        {
          "internalType": "address",
          "name": "_liquidator",
          "type": "address"
        }
      ],
      "name": "setLiquidator",
      "outputs": [],
      "stateMutability": "nonpayable",
      "type": "function"
    },
    {
      "inputs": [
        {
          "internalType": "address",
          "name": "token",
          "type": "address"
        },
        {
          "internalType": "address",
          "name": "feed",
          "type": "address"
        }
      ],
      "name": "setPriceFeed",
      "outputs": [],
      "stateMutability": "nonpayable",
      "type": "function"
    },
    {
      "inputs": [],
      "name": "stablecoinManager",
      "outputs": [
        {
          "internalType": "contract StablecoinManager",
          "name": "",
          "type": "address"
        }
      ],
      "stateMutability": "view",
      "type": "function"
    },
    {
      "inputs": [
        {
          "internalType": "address",
          "name": "user",
          "type": "address"
        }
      ],
      "name": "startLiquidation",
      "outputs": [],
      "stateMutability": "nonpayable",
      "type": "function"
    },
    {
      "inputs": [
        {
          "internalType": "bytes4",
          "name": "interfaceId",
          "type": "bytes4"
        }
      ],
      "name": "supportsInterface",
      "outputs": [
        {
          "internalType": "bool",
          "name": "",
          "type": "bool"
        }
      ],
      "stateMutability": "view",
      "type": "function"
    },
    {
      "inputs": [],
      "name": "togglePause",
      "outputs": [],
      "stateMutability": "nonpayable",
      "type": "function"
    },
    {
      "inputs": [],
      "name": "totalFunds",
      "outputs": [
        {
          "internalType": "uint256",
          "name": "",
          "type": "uint256"
        }
      ],
      "stateMutability": "view",
      "type": "function"
    },
    {
      "inputs": [
        {
          "internalType": "address",
          "name": "newOwner",
          "type": "address"
        }
      ],
      "name": "transferOwnership",
      "outputs": [],
      "stateMutability": "nonpayable",
      "type": "function"
    },
    {
      "inputs": [
        {
          "internalType": "uint256",
          "name": "tierIndex",
          "type": "uint256"
        },
        {
          "internalType": "uint256",
          "name": "minScore",
          "type": "uint256"
        },
        {
          "internalType": "uint256",
          "name": "maxScore",
          "type": "uint256"
        },
        {
          "internalType": "uint256",
          "name": "collateralRatio",
          "type": "uint256"
        },
        {
          "internalType": "int256",
          "name": "interestRateModifier",
          "type": "int256"
        },
        {
          "internalType": "uint256",
          "name": "maxLoanAmount",
          "type": "uint256"
        }
      ],
      "name": "updateBorrowTier",
      "outputs": [],
      "stateMutability": "nonpayable",
      "type": "function"
    },
    {
      "inputs": [
        {
          "internalType": "address",
          "name": "",
          "type": "address"
        }
      ],
      "name": "userDebt",
      "outputs": [
        {
          "internalType": "uint256",
          "name": "",
          "type": "uint256"
        }
      ],
      "stateMutability": "view",
      "type": "function"
    },
    {
      "inputs": [
        {
          "internalType": "uint256",
          "name": "",
          "type": "uint256"
        }
      ],
      "name": "users",
      "outputs": [
        {
          "internalType": "address",
          "name": "",
          "type": "address"
        }
      ],
      "stateMutability": "view",
      "type": "function"
    },
    {
      "inputs": [
        {
          "internalType": "address",
          "name": "token",
          "type": "address"
        },
        {
          "internalType": "uint256",
          "name": "amount",
          "type": "uint256"
        }
      ],
      "name": "withdrawCollateral",
      "outputs": [],
      "stateMutability": "nonpayable",
      "type": "function"
    },
    {
      "inputs": [
        {
          "internalType": "uint256",
          "name": "amount",
          "type": "uint256"
        }
      ],
      "name": "withdrawForLendingManager",
      "outputs": [],
      "stateMutability": "nonpayable",
      "type": "function"
    },
    {
      "stateMutability": "payable",
      "type": "receive"
    }
  ],
  "bytecode": "0x6080604052348015600f57600080fd5b506145b48061001f6000396000f3fe6080604052600436106104095760003560e01c80638da5cb5b11610213578063c23c69d511610123578063d547741f116100ab578063e2e296791161007a578063e2e2967914610d14578063e7602b9d14610d34578063f1c5d6c214610d69578063f2fde38b14610d89578063f7e590ee14610da957600080fd5b8063d547741f14610c9f578063e19fb8f514610cbf578063e1c5010014610cdf578063e2842d7914610cff57600080fd5b8063c941f321116100f2578063c941f32114610be0578063cf17622514610c00578063cf30901214610c22578063d29255f914610c3c578063d3dd2bdf14610c6957600080fd5b8063c23c69d514610b5e578063c4ae316814610b8b578063c5ebeaec14610ba0578063c869d0ed14610bc057600080fd5b8063a217fddf116101a6578063b3a5a0a211610175578063b3a5a0a214610ac5578063b69e5c7714610ae5578063c0c53b8b14610b12578063c129d50414610b32578063c1a287e214610b4757600080fd5b8063a217fddf14610a46578063a5d5db0c14610a5b578063b1732b2514610a7b578063b187bd2614610aa857600080fd5b8063968ed600116101e2578063968ed600146109db57806397ed81cf146109f15780639b8621d514610a115780639e3b77af14610a2657600080fd5b80638da5cb5b1461093f5780638e6b53bc1461095457806391d148541461098b5780639490a51e146109ab57600080fd5b80634585e33b116103195780636e04ff0d116102a1578063715018a611610270578063715018a61461089a5780637346f486146108af57806376e11286146108df5780637b86e42c146108ff57806385b397821461091f57600080fd5b80636e04ff0d146107ef5780636e9960c31461081d578063704b6c021461083257806370ed11bc1461085257600080fd5b806355f4d9e2116102e857806355f4d9e21461075057806359ad586f146107705780635b6cca80146107905780635c975abb146107b05780636c648fc4146107cf57600080fd5b80634585e33b146106aa5780634c8f35ab146106ca5780634c95da66146106de57806352226ef01461070b57600080fd5b80632f2ff15d1161039c578063365b98b21161036b578063365b98b2146105ff57806338053ef31461061f578063402d88831461065a5780634046ebae14610662578063450a375a1461068857600080fd5b80632f2ff15d1461057f57806330332f9f1461059f578063350c35e9146105bf57806336568abe146105df57600080fd5b80630e30428d116103d85780630e30428d146104d457806312065fe0146104f45780631fd48b9a14610511578063248a9ca31461055f57600080fd5b806301c76f811461042d57806301ffc9a71461044f578063042e02cf14610484578063080d9c2b146104b457600080fd5b366104285734600c60008282546104209190613cd4565b925050819055005b600080fd5b34801561043957600080fd5b5061044d610448366004613d03565b610dd6565b005b34801561045b57600080fd5b5061046f61046a366004613d1e565b610e0c565b60405190151581526020015b60405180910390f35b34801561049057600080fd5b5061046f61049f366004613d03565b60056020526000908152604090205460ff1681565b3480156104c057600080fd5b5061044d6104cf366004613d48565b610e43565b3480156104e057600080fd5b5061044d6104ef366004613d48565b610f92565b34801561050057600080fd5b50475b60405190815260200161047b565b34801561051d57600080fd5b5061054761052c366004613d03565b6008602052600090815260409020546001600160a01b031681565b6040516001600160a01b03909116815260200161047b565b34801561056b57600080fd5b5061050361057a366004613d72565b61103e565b34801561058b57600080fd5b5061044d61059a366004613d8b565b611060565b3480156105ab57600080fd5b5061044d6105ba366004613db7565b611082565b3480156105cb57600080fd5b5061044d6105da366004613d48565b61114f565b3480156105eb57600080fd5b5061044d6105fa366004613d8b565b611472565b34801561060b57600080fd5b5061054761061a366004613d72565b6114a5565b34801561062b57600080fd5b5061063f61063a366004613d03565b6114cf565b6040805193845260208401929092529082015260600161047b565b61044d61158a565b34801561066e57600080fd5b50600d54610547906201000090046001600160a01b031681565b34801561069457600080fd5b5033600090815260036020526040902054610503565b3480156106b657600080fd5b5061044d6106c5366004613dfa565b6118a0565b3480156106d657600080fd5b506082610503565b3480156106ea57600080fd5b506106fe6106f9366004613d03565b611945565b60405161047b9190613e84565b34801561071757600080fd5b50610503610726366004613eac565b6001600160a01b038082166000908152602081815260408083209386168352929052205492915050565b34801561075c57600080fd5b5061044d61076b366004613ee4565b611a11565b34801561077c57600080fd5b5061050361078b366004613eac565b611b38565b34801561079c57600080fd5b506105476107ab366004613d03565b611c1a565b3480156107bc57600080fd5b50600d5461046f90610100900460ff1681565b3480156107db57600080fd5b506105036107ea366004613d03565b611c71565b3480156107fb57600080fd5b5061080f61080a366004613dfa565b611d1f565b60405161047b929190613f1b565b34801561082957600080fd5b50610547611f1e565b34801561083e57600080fd5b5061044d61084d366004613d03565b611f2d565b34801561085e57600080fd5b5061087261086d366004613d72565b611fa1565b604080519586526020860194909452928401919091526060830152608082015260a00161047b565b3480156108a657600080fd5b5061044d611fe2565b3480156108bb57600080fd5b5061046f6108ca366004613d03565b60016020526000908152604090205460ff1681565b3480156108eb57600080fd5b5061044d6108fa366004613eac565b611ff6565b34801561090b57600080fd5b5061050361091a366004613d03565b612064565b34801561092b57600080fd5b5061044d61093a366004613d72565b612109565b34801561094b57600080fd5b50610547612229565b34801561096057600080fd5b5061097461096f366004613d03565b612257565b60408051921515835260208301919091520161047b565b34801561099757600080fd5b5061046f6109a6366004613d8b565b6122e2565b3480156109b757600080fd5b5061046f6109c6366004613d03565b600b6020526000908152604090205460ff1681565b3480156109e757600080fd5b50610503600c5481565b3480156109fd57600080fd5b5061044d610a0c366004613d48565b61231a565b348015610a1d57600080fd5b50610503600581565b348015610a3257600080fd5b50600f54610547906001600160a01b031681565b348015610a5257600080fd5b50610503600081565b348015610a6757600080fd5b5061044d610a76366004613d48565b61245c565b348015610a8757600080fd5b50610503610a96366004613d03565b60076020526000908152604090205481565b348015610ab457600080fd5b50600d54610100900460ff1661046f565b348015610ad157600080fd5b50610547610ae0366004613d72565b6126dd565b348015610af157600080fd5b50610503610b00366004613d03565b60036020526000908152604090205481565b348015610b1e57600080fd5b5061044d610b2d366004613f72565b6126ed565b348015610b3e57600080fd5b50610503608281565b348015610b5357600080fd5b506105036203f48081565b348015610b6a57600080fd5b50610503610b79366004613d03565b60066020526000908152604090205481565b348015610b9757600080fd5b5061044d612af8565b348015610bac57600080fd5b5061044d610bbb366004613d72565b612b62565b348015610bcc57600080fd5b5061044d610bdb366004613d03565b613124565b348015610bec57600080fd5b50600e54610547906001600160a01b031681565b348015610c0c57600080fd5b50610c156131a4565b60405161047b9190613fb5565b348015610c2e57600080fd5b50600d5461046f9060ff1681565b348015610c4857600080fd5b50610503610c57366004613d03565b60046020526000908152604090205481565b348015610c7557600080fd5b50610503610c84366004613d03565b6001600160a01b031660009081526002602052604090205490565b348015610cab57600080fd5b5061044d610cba366004613d8b565b6132eb565b348015610ccb57600080fd5b5061044d610cda366004613d72565b613307565b348015610ceb57600080fd5b5061044d610cfa366004613d03565b613429565b348015610d0b57600080fd5b50610c1561353e565b348015610d2057600080fd5b5061044d610d2f366004613d03565b6135a0565b348015610d4057600080fd5b50610503610d4f366004613eac565b600060208181529281526040808220909352908152205481565b348015610d7557600080fd5b50610503610d84366004613d03565b61383d565b348015610d9557600080fd5b5061044d610da4366004613d03565b61398d565b348015610db557600080fd5b50610503610dc4366004613d03565b60026020526000908152604090205481565b6000610de1816139cb565b50600d80546001600160a01b03909216620100000262010000600160b01b0319909216919091179055565b60006001600160e01b03198216637965db0b60e01b1480610e3d57506301ffc9a760e01b6001600160e01b03198316145b92915050565b3360009081526005602052604090205460ff16610ea75760405162461bcd60e51b815260206004820152601a60248201527f4163636f756e74206e6f7420696e206c69717569646174696f6e00000000000060448201526064015b60405180910390fd5b6040516323b872dd60e01b8152336004820152306024820152604481018290526001600160a01b038316906323b872dd906064016020604051808303816000875af1158015610efa573d6000803e3d6000fd5b505050506040513d601f19601f82011682018060405250810190610f1e9190614001565b506001600160a01b03821660009081526020818152604080832033845290915281208054839290610f50908490613cd4565b9091555060009050610f6133612257565b5090508015610f8d57336000908152600560209081526040808320805460ff1916905560069091528120555b505050565b610f9a6139d5565b6001600160a01b03821660009081526001602052604090205460ff16610fd25760405162461bcd60e51b8152600401610e9e9061401e565b606481116110225760405162461bcd60e51b815260206004820152601860248201527f5468726573686f6c64206d757374206265203e203130302500000000000000006044820152606401610e9e565b6001600160a01b03909116600090815260076020526040902055565b600090815260008051602061455f833981519152602052604090206001015490565b6110698261103e565b611072816139cb565b61107c8383613a07565b50505050565b61108a6139d5565b60105486106110ca5760405162461bcd60e51b815260206004820152600c60248201526b24b73b30b634b2103a34b2b960a11b6044820152606401610e9e565b6040518060a00160405280868152602001858152602001848152602001838152602001828152506010878154811061110457611104614055565b90600052602060002090600502016000820151816000015560208201518160010155604082015181600201556060820151816003015560808201518160040155905050505050505050565b6001600160a01b03821660009081526001602052604090205460ff166111b457336001600160a01b031660008051602061453f8339815191526040516111949061406b565b60405180910390a260405162461bcd60e51b8152600401610e9e9061406b565b6001600160a01b03821660009081526020818152604080832033845290915290205481111561127257336001600160a01b031660008051602061453f83398151915260405161122b90602080825260149082015273496e73756666696369656e742062616c616e636560601b604082015260600190565b60405180910390a260405162461bcd60e51b8152602060048201526014602482015273496e73756666696369656e742062616c616e636560601b6044820152606401610e9e565b3360009081526005602052604090205460ff16156112cf57336001600160a01b031660008051602061453f8339815191526040516112af90614096565b60405180910390a260405162461bcd60e51b8152600401610e9e90614096565b6000670de0b6b3a76400006112e38461383d565b6112ed90846140cd565b6112f791906140e4565b61130033611c71565b61130a9190614106565b905061131583612064565b3360009081526003602052604090205461132f91906140cd565b61133a8260646140cd565b101561138557336001600160a01b031660008051602061453f83398151915260405161136590614119565b60405180910390a260405162461bcd60e51b8152600401610e9e90614119565b6001600160a01b038316600090815260208181526040808320338452909152812080548492906113b6908490614106565b909155505060405163a9059cbb60e01b8152336004820152602481018390526001600160a01b0384169063a9059cbb906044016020604051808303816000875af1158015611408573d6000803e3d6000fd5b505050506040513d601f19601f8201168201806040525081019061142c9190614001565b506040518281526001600160a01b0384169033907f45892a46e6cef329bb642da6d69846d324db43d19008edc141ed82382eda1bee9060200160405180910390a3505050565b6001600160a01b038116331461149b5760405163334bd91960e11b815260040160405180910390fd5b610f8d8282613aac565b600a81815481106114b557600080fd5b6000918252602090912001546001600160a01b0316905081565b6000806000806114de85611945565b9050600060108260048111156114f6576114f6613e6e565b8154811061150657611506614055565b90600052602060002090600502016040518060a00160405290816000820154815260200160018201548152602001600282015481526020016003820154815260200160048201548152505090508060400151816060015160648360800151600c5461157191906140cd565b61157b91906140e4565b94509450945050509193909250565b600d54610100900460ff16156115d75760405162461bcd60e51b815260206004820152601260248201527110dbdb9d1c9858dd081a5cc81c185d5cd95960721b6044820152606401610e9e565b33600090815260036020526040812054900361168057336001600160a01b031660008051602061453f83398151915260405161163a90602080825260139082015272139bc81bdd5d1cdd185b991a5b99c81919589d606a1b604082015260600190565b60405180910390a260405162461bcd60e51b8152602060048201526013602482015272139bc81bdd5d1cdd185b991a5b99c81919589d606a1b6044820152606401610e9e565b3460000361172557336001600160a01b031660008051602061453f8339815191526040516116da906020808252601890820152774d7573742073656e642066756e647320746f20726570617960401b604082015260600190565b60405180910390a260405162461bcd60e51b81526020600482015260186024820152774d7573742073656e642066756e647320746f20726570617960401b6044820152606401610e9e565b336000908152600360205260409020543411156117e357336001600160a01b031660008051602061453f833981519152604051611793906020808252601c908201527f52657061796d656e74206578636565647320746f74616c206465627400000000604082015260600190565b60405180910390a260405162461bcd60e51b815260206004820152601c60248201527f52657061796d656e74206578636565647320746f74616c2064656274000000006044820152606401610e9e565b3360009081526003602052604081208054349290611802908490614106565b909155505033600090815260036020526040812054900361182e57336000908152600460205260408120555b3360009081526005602052604090205460ff161561186957336000908152600560209081526040808320805460ff1916905560069091528120555b60405134815233907f0516911bcc3a0a7412a44601057c0a0a1ec628bde049a84284bc4288665344889060200160405180910390a2565b60006118ae82840184614181565b905060005b815181101561107c5760008282815181106118d0576118d0614055565b6020908102919091018101516001600160a01b0381166000908152600590925260409091205490915060ff161561193c576001600160a01b038116600090815260066020526040812054611928906203f48090613cd4565b905080421061193a5761193a826135a0565b505b506001016118b3565b6001600160a01b038116600090815260026020526040812054815b6010548110156119e9576010818154811061197d5761197d614055565b90600052602060002090600502016000015482101580156119c25750601081815481106119ac576119ac614055565b9060005260206000209060050201600101548211155b156119e1578060048111156119d9576119d9613e6e565b949350505050565b600101611960565b506010546119f990600190614106565b6004811115611a0a57611a0a613e6e565b9392505050565b611a196139d5565b6001600160a01b0382166000908152600160205260408120805460ff1916831515179055805b600954811015611a9157836001600160a01b031660098281548110611a6657611a66614055565b6000918252602090912001546001600160a01b031603611a895760019150611a91565b600101611a3f565b50818015611a9d575080155b15611aee57600980546001810182556000919091527f6e1540171b6c0c960b71a7020d9f60077f6af931a8bbf590da0223dacf75c7af0180546001600160a01b0319166001600160a01b0385161790555b826001600160a01b03167f15f5cc64ca777db85f6c05fdba671568758b38329616d4d4b43bb8b092fe9a8d83604051611b2b911515815260200190565b60405180910390a2505050565b600080670de0b6b3a7640000611b4d8461383d565b6001600160a01b03808616600090815260208181526040808320938a1683529290522054611b7b91906140cd565b611b8591906140e4565b600e546040516356512fcd60e11b81526001600160a01b0386811660048301529293506000929091169063aca25f9a90602401602060405180830381865afa158015611bd5573d6000803e3d6000fd5b505050506040513d601f19601f82011682018060405250810190611bf99190614251565b90506064611c0782846140cd565b611c1191906140e4565b95945050505050565b6001600160a01b03811660009081526001602052604081205460ff16611c525760405162461bcd60e51b8152600401610e9e9061401e565b506001600160a01b039081166000908152600860205260409020541690565b60008080611c7d6131a4565b905060005b8151811015611d16576000828281518110611c9f57611c9f614055565b6020908102919091018101516001600160a01b0380821660009081528084526040808220928b16825291909352909120549091508015611d0c57670de0b6b3a7640000611ceb8361383d565b611cf590836140cd565b611cff91906140e4565b611d099086613cd4565b94505b5050600101611c82565b50909392505050565b600060606000611d2d61353e565b90506000815167ffffffffffffffff811115611d4b57611d4b61416b565b604051908082528060200260200182016040528015611d74578160200160208202803683370190505b5090506000805b8351811015611e3d576000848281518110611d9857611d98614055565b6020908102919091018101516001600160a01b0381166000908152600590925260409091205490915060ff1615611e34576001600160a01b038116600090815260066020526040812054611df0906203f48090613cd4565b9050804210611e325781858581518110611e0c57611e0c614055565b6001600160a01b039092166020928302919091019091015283611e2e8161426a565b9450505b505b50600101611d7b565b508015611f0f5760008167ffffffffffffffff811115611e5f57611e5f61416b565b604051908082528060200260200182016040528015611e88578160200160208202803683370190505b50905060005b82811015611ee257838181518110611ea857611ea8614055565b6020026020010151828281518110611ec257611ec2614055565b6001600160a01b0390921660209283029190910190910152600101611e8e565b506001955080604051602001611ef89190613fb5565b604051602081830303815290604052945050611f14565b600094505b5050509250929050565b6000611f28612229565b905090565b611f356139d5565b6001600160a01b038116611f7d5760405162461bcd60e51b815260206004820152600f60248201526e496e76616c6964206164647265737360881b6044820152606401610e9e565b611f8681613b28565b611f91600082613a07565b50611f9d600033613aac565b5050565b60108181548110611fb157600080fd5b6000918252602090912060059091020180546001820154600283015460038401546004909401549294509092909185565b611fea6139d5565b611ff46000613b28565b565b611ffe6139d5565b6001600160a01b03821660009081526001602052604090205460ff166120365760405162461bcd60e51b8152600401610e9e9061401e565b6001600160a01b03918216600090815260086020526040902080546001600160a01b03191691909216179055565b600e54604051631ee1b90b60e21b81526001600160a01b0383811660048301526000928392911690637b86e42c90602401602060405180830381865afa1580156120b2573d6000803e3d6000fd5b505050506040513d601f19601f820116820180604052508101906120d69190614251565b905080156120e45792915050565b6001600160a01b03831660009081526007602052604090205480611a0a5760826119d9565b6121116139d5565b600d5460ff16156121345760405162461bcd60e51b8152600401610e9e90614283565b600d805460ff19166001179055478111156121915760405162461bcd60e51b815260206004820152601d60248201527f496e73756666696369656e7420636f6e74726163742062616c616e63650000006044820152606401610e9e565b612199612229565b6001600160a01b03166108fc829081150290604051600060405180830381858888f193505050501580156121d1573d6000803e3d6000fd5b506121da612229565b6001600160a01b03167f69c169e5c85af54e1ca7e16608ccc812437821387924fb3353a7d053264ddaa08260405161221491815260200190565b60405180910390a250600d805460ff19169055565b7f9016d09d72d40fdae2fd8ceac6b6234c7706214fd39c1cd1e609a0528c199300546001600160a01b031690565b600080600061226584611c71565b6001600160a01b0385166000908152600360205260408120549192508190036122975750600194600019945092505050565b816000036122ac575060009485945092505050565b60006122b7866114cf565b50509050818360646122c991906140cd565b6122d391906140e4565b90811015969095509350505050565b600091825260008051602061455f833981519152602090815260408084206001600160a01b0393909316845291905290205460ff1690565b6123226139d5565b816001600160a01b0381166123795760405162461bcd60e51b815260206004820152601d60248201527f496e76616c696420616464726573733a207a65726f20616464726573730000006044820152606401610e9e565b306001600160a01b038216036123c95760405162461bcd60e51b815260206004820152601560248201527424b73b30b634b21030b2323932b9b99d1039b2b63360591b6044820152606401610e9e565b606482111561240f5760405162461bcd60e51b815260206004820152601260248201527153636f7265206f7574206f662072616e676560701b6044820152606401610e9e565b6001600160a01b03831660008181526002602052604090819020849055517f4afae6838a181695abc7978598380d73bc2144eb38580c130f86e4b1e6531e1590611b2b9085815260200190565b6001600160a01b03821660009081526001602052604090205460ff166124a157336001600160a01b031660008051602061453f8339815191526040516111949061406b565b8060000361253a57336001600160a01b031660008051602061453f8339815191526040516124f5906020808252601290820152710416d6f756e74206d757374206265203e20360741b604082015260600190565b60405180910390a260405162461bcd60e51b81526020600482015260126024820152710416d6f756e74206d757374206265203e20360741b6044820152606401610e9e565b3360009081526005602052604090205460ff161561257757336001600160a01b031660008051602061453f8339815191526040516112af90614096565b336000908152600b602052604090205460ff166125eb57336000818152600b60205260408120805460ff19166001908117909155600a805491820181559091527fc65a7bb8d6351c1cf70c95a316cc6a92839c986682d98bc35f958f4883f9d2a80180546001600160a01b03191690911790555b6040516323b872dd60e01b8152336004820152306024820152604481018290526001600160a01b038316906323b872dd906064016020604051808303816000875af115801561263e573d6000803e3d6000fd5b505050506040513d601f19601f820116820180604052508101906126629190614001565b506001600160a01b03821660009081526020818152604080832033845290915281208054839290612694908490613cd4565b90915550506040518181526001600160a01b0383169033907ff1c0dd7e9b98bbff859029005ef89b127af049cd18df1a8d79f0b7e019911e569060200160405180910390a35050565b600981815481106114b557600080fd5b60006126f7613b99565b805490915060ff600160401b820416159067ffffffffffffffff1660008115801561271f5750825b905060008267ffffffffffffffff16600114801561273c5750303b155b90508115801561274a575080155b156127685760405163f92ee8a960e01b815260040160405180910390fd5b845467ffffffffffffffff19166001178555831561279257845460ff60401b1916600160401b1785555b61279b88613bc2565b6127a3613bd3565b6127ae600080613bdb565b6127b9600089613a07565b50600e80546001600160a01b03808a166001600160a01b031992831617909255600f805492891692909116919091179055612aa860106040518060a00160405280605a815260200160648152602001606e81526020016018198152602001603281525090806001815401808255809150506001900390600052602060002090600502016000909190919091506000820151816000015560208201518160010155604082015181600201556060820151816003015560808201518160040155505060106040518060a001604052806050815260200160598152602001607d81526020016009198152602001602881525090806001815401808255809150506001900390600052602060002090600502016000909190919091506000820151816000015560208201518160010155604082015181600201556060820151816003015560808201518160040155505060106040518060a0016040528060468152602001604f8152602001608c815260200160008152602001601e81525090806001815401808255809150506001900390600052602060002090600502016000909190919091506000820151816000015560208201518160010155604082015181600201556060820151816003015560808201518160040155505060106040518060a00160405280603c81526020016045815260200160a08152602001600f8152602001601481525090806001815401808255809150506001900390600052602060002090600502016000909190919091506000820151816000015560208201518160010155604082015181600201556060820151816003015560808201518160040155505060106040518060a0016040528060008152602001603b815260200160c88152602001601e81526020016000815250908060018154018082558091505060019003906000526020600020906005020160009091909190915060008201518160000155602082015181600101556040820151816002015560608201518160030155608082015181600401555050565b8315612aee57845460ff60401b19168555604051600181527fc7f505b2f371ae2175ee4913f4499e1f2633a7b5936321eed1cdaeb6115181d29060200160405180910390a15b5050505050505050565b612b006139d5565b600d805460ff610100808304821615810261ff001990931692909217928390556040517f228f455d7bc3d0b24a3a08d7847f391c3e78fc8aeb83acf226b7a96ee162b8ac93612b589390049091161515815260200190565b60405180910390a1565b600d54610100900460ff1615612baf5760405162461bcd60e51b815260206004820152601260248201527110dbdb9d1c9858dd081a5cc81c185d5cd95960721b6044820152606401610e9e565b600d5460ff1615612bd25760405162461bcd60e51b8152600401610e9e90614283565b600d805460ff191660011790556000819003612c8f57336001600160a01b031660008051602061453f833981519152604051612c3f906020808252601d908201527f416d6f756e74206d7573742062652067726561746572207468616e2030000000604082015260600190565b60405180910390a260405162461bcd60e51b815260206004820152601d60248201527f416d6f756e74206d7573742062652067726561746572207468616e20300000006044820152606401610e9e565b6000612c9a33611945565b90506000806000612caa336114cf565b919450925090506004846004811115612cc557612cc5613e6e565b03612d5f57336001600160a01b031660008051602061453f833981519152604051612d18906020808252601490820152734372656469742073636f726520746f6f206c6f7760601b604082015260600190565b60405180910390a260405162461bcd60e51b81526020600482015260146024820152734372656469742073636f726520746f6f206c6f7760601b6044820152606401610e9e565b6002600c54612d6e91906140e4565b851115612dba57336001600160a01b031660008051602061453f833981519152604051612d9a906142aa565b60405180910390a260405162461bcd60e51b8152600401610e9e906142aa565b80851115612e0757336001600160a01b031660008051602061453f833981519152604051612de7906142fa565b60405180910390a260405162461bcd60e51b8152600401610e9e906142fa565b3360009081526003602052604090205415612ec357336001600160a01b031660008051602061453f833981519152604051612e73906020808252601e908201527f526570617920796f7572206578697374696e6720646562742066697273740000604082015260600190565b60405180910390a260405162461bcd60e51b815260206004820152601e60248201527f526570617920796f7572206578697374696e67206465627420666972737400006044820152606401610e9e565b336000908152600b602052604090205460ff16612f3757336000818152600b60205260408120805460ff19166001908117909155600a805491820181559091527fc65a7bb8d6351c1cf70c95a316cc6a92839c986682d98bc35f958f4883f9d2a80180546001600160a01b03191690911790555b6000612f4233611c71565b9050612f4e84876140cd565b612f598260646140cd565b1015612fa457336001600160a01b031660008051602061453f833981519152604051612f849061433f565b60405180910390a260405162461bcd60e51b8152600401610e9e9061433f565b600f546040516303065a9d60e21b8152600481018890526000916001600160a01b031690630c196a7490602401602060405180830381865afa158015612fee573d6000803e3d6000fd5b505050506040513d601f19601f820116820180604052508101906130129190614251565b905080600085121561304f57606461302986614384565b613034906064614106565b61303e90846140cd565b61304891906140e4565b905061307b565b600085131561307b5760646130648682613cd4565b61306e90846140cd565b61307891906140e4565b90505b33600090815260036020526040812080548a929061309a908490613cd4565b909155505033600081815260046020526040808220429055518a156108fc02918b9190818181858888f193505050501580156130da573d6000803e3d6000fd5b5060405188815233907fac59582e5396aca512fa873a2047e7f4c80f8f55d4a06cb34a78a0187f62719f9060200160405180910390a25050600d805460ff19169055505050505050565b61312c6139d5565b6001600160a01b0381166131825760405162461bcd60e51b815260206004820152601f60248201527f496e76616c6964206c656e64696e67206d616e616765722061646472657373006044820152606401610e9e565b600f80546001600160a01b0319166001600160a01b0392909216919091179055565b60606000805b60095481101561320e5760016000600983815481106131cb576131cb614055565b60009182526020808320909101546001600160a01b0316835282019290925260400190205460ff161561320657816132028161426a565b9250505b6001016131aa565b5060008167ffffffffffffffff81111561322a5761322a61416b565b604051908082528060200260200182016040528015613253578160200160208202803683370190505b5090506000805b600954811015611d165760006009828154811061327957613279614055565b60009182526020808320909101546001600160a01b0316808352600190915260409091205490915060ff16156132e257808484815181106132bc576132bc614055565b6001600160a01b0390921660209283029190910190910152826132de8161426a565b9350505b5060010161325a565b6132f48261103e565b6132fd816139cb565b61107c8383613aac565b600d5460ff161561332a5760405162461bcd60e51b8152600401610e9e90614283565b600d805460ff19166001179055600f54336001600160a01b039091161461339e5760405162461bcd60e51b815260206004820152602260248201527f4f6e6c79206c656e64696e67206d616e616765722063616e2063616c6c207468604482015261697360f01b6064820152608401610e9e565b478111156133ee5760405162461bcd60e51b815260206004820152601d60248201527f496e73756666696369656e7420636f6e74726163742062616c616e63650000006044820152606401610e9e565b604051339082156108fc029083906000818181858888f1935050505015801561341b573d6000803e3d6000fd5b5050600d805460ff19169055565b600061343482612257565b509050801561347b5760405162461bcd60e51b8152602060048201526013602482015272506f736974696f6e206973206865616c74687960681b6044820152606401610e9e565b6001600160a01b03821660009081526005602052604090205460ff16156134e45760405162461bcd60e51b815260206004820152601b60248201527f4c69717569646174696f6e20616c7265616479207374617274656400000000006044820152606401610e9e565b6001600160a01b0382166000818152600560209081526040808320805460ff191660011790556006909152808220429055517f7f62ed89ea2c6fb057e4ea77729c1d3f18056339791fce29ac89760197b45b299190a25050565b6060600a80548060200260200160405190810160405280929190818152602001828054801561359657602002820191906000526020600020905b81546001600160a01b03168152600190910190602001808311613578575b5050505050905090565b6001600160a01b03811660009081526005602052604090205460ff166136135760405162461bcd60e51b815260206004820152602260248201527f4163636f756e74206e6f74206d61726b656420666f72206c697175696461746960448201526137b760f11b6064820152608401610e9e565b6001600160a01b03811660009081526006602052604090205461363a906203f48090613cd4565b4210156136825760405162461bcd60e51b815260206004820152601660248201527511dc9858d9481c195c9a5bd9081b9bdd08195b99195960521b6044820152606401610e9e565b6001600160a01b0381166000908152600360205260408120549060646136a96005846140cd565b6136b391906140e4565b905060006136c18284613cd4565b905060006136cd6131a4565b905060005b81518110156137c05760008282815181106136ef576136ef614055565b6020908102919091018101516001600160a01b0380821660009081528084526040808220928c168252919093529091205490915080156137b6576001600160a01b03828116600081815260208181526040808320948d16835293905282812055905163a9059cbb60e01b81523360048201526024810183905263a9059cbb906044016020604051808303816000875af1158015613790573d6000803e3d6000fd5b505050506040513d601f19601f820116820180604052508101906137b49190614001565b505b50506001016136d2565b506001600160a01b03851660008181526003602090815260408083208390556004825280832083905560058252808320805460ff19169055600682528083209290925590518481523392917f1175522017e08c2f400d7e516608eff60816ee9e8319158d174321234b602631910160405180910390a35050505050565b6001600160a01b038082166000908152600860205260408120549091168061389c5760405162461bcd60e51b8152602060048201526012602482015271141c9a58d94819995959081b9bdd081cd95d60721b6044820152606401610e9e565b60008190506000816001600160a01b031663feaf968c6040518163ffffffff1660e01b815260040160a060405180830381865afa1580156138e1573d6000803e3d6000fd5b505050506040513d601f19601f8201168201806040525081019061390591906143ba565b505050915050816001600160a01b031663313ce5676040518163ffffffff1660e01b8152600401602060405180830381865afa158015613949573d6000803e3d6000fd5b505050506040513d601f19601f8201168201806040525081019061396d919061440c565b61397890601261442f565b61398390600a61452f565b611c1190826140cd565b6139956139d5565b6001600160a01b0381166139bf57604051631e4fbdf760e01b815260006004820152602401610e9e565b6139c881613b28565b50565b6139c88133613c3e565b336139de612229565b6001600160a01b031614611ff45760405163118cdaa760e01b8152336004820152602401610e9e565b600060008051602061455f833981519152613a2284846122e2565b613aa2576000848152602082815260408083206001600160a01b03871684529091529020805460ff19166001179055613a583390565b6001600160a01b0316836001600160a01b0316857f2f8788117e7eff1d82e926ec794901d17c78024a50270940304540a733656f0d60405160405180910390a46001915050610e3d565b6000915050610e3d565b600060008051602061455f833981519152613ac784846122e2565b15613aa2576000848152602082815260408083206001600160a01b0387168085529252808320805460ff1916905551339287917ff6391f5c32d9c69d2a47ea670b442974b53935d1edc7fd64eb21e047a839171b9190a46001915050610e3d565b7f9016d09d72d40fdae2fd8ceac6b6234c7706214fd39c1cd1e609a0528c19930080546001600160a01b031981166001600160a01b03848116918217845560405192169182907f8be0079c531659141344cd1fd0a4f28419497f9722a3daafe3b4186f6b6457e090600090a3505050565b6000807ff0c57e16840df040f15088dc2f81fe391c3923bec73e23a9662efc9c229c6a00610e3d565b613bca613c77565b6139c881613c9c565b611ff4613c77565b60008051602061455f8339815191526000613bf58461103e565b600085815260208490526040808220600101869055519192508491839187917fbd79b86ffe0ab8e8776151514217cd7cacd52c909f66475c3af44e129f0b00ff9190a450505050565b613c4882826122e2565b611f9d5760405163e2517d3f60e01b81526001600160a01b038216600482015260248101839052604401610e9e565b613c7f613ca4565b611ff457604051631afcd79f60e31b815260040160405180910390fd5b613995613c77565b6000613cae613b99565b54600160401b900460ff16919050565b634e487b7160e01b600052601160045260246000fd5b80820180821115610e3d57610e3d613cbe565b80356001600160a01b0381168114613cfe57600080fd5b919050565b600060208284031215613d1557600080fd5b611a0a82613ce7565b600060208284031215613d3057600080fd5b81356001600160e01b031981168114611a0a57600080fd5b60008060408385031215613d5b57600080fd5b613d6483613ce7565b946020939093013593505050565b600060208284031215613d8457600080fd5b5035919050565b60008060408385031215613d9e57600080fd5b82359150613dae60208401613ce7565b90509250929050565b60008060008060008060c08789031215613dd057600080fd5b505084359660208601359650604086013595606081013595506080810135945060a0013592509050565b60008060208385031215613e0d57600080fd5b823567ffffffffffffffff811115613e2457600080fd5b8301601f81018513613e3557600080fd5b803567ffffffffffffffff811115613e4c57600080fd5b856020828401011115613e5e57600080fd5b6020919091019590945092505050565b634e487b7160e01b600052602160045260246000fd5b6020810160058310613ea657634e487b7160e01b600052602160045260246000fd5b91905290565b60008060408385031215613ebf57600080fd5b613ec883613ce7565b9150613dae60208401613ce7565b80151581146139c857600080fd5b60008060408385031215613ef757600080fd5b613f0083613ce7565b91506020830135613f1081613ed6565b809150509250929050565b8215158152604060208201526000825180604084015260005b81811015613f515760208186018101516060868401015201613f34565b506000606082850101526060601f19601f8301168401019150509392505050565b600080600060608486031215613f8757600080fd5b613f9084613ce7565b9250613f9e60208501613ce7565b9150613fac60408501613ce7565b90509250925092565b602080825282518282018190526000918401906040840190835b81811015613ff65783516001600160a01b0316835260209384019390920191600101613fcf565b509095945050505050565b60006020828403121561401357600080fd5b8151611a0a81613ed6565b6020808252601f908201527f546f6b656e206e6f7420616c6c6f77656420617320636f6c6c61746572616c00604082015260600190565b634e487b7160e01b600052603260045260246000fd5b602080825260119082015270151bdad95b881b9bdd08185b1b1bddd959607a1b604082015260600190565b60208082526019908201527f4163636f756e7420697320696e206c69717569646174696f6e00000000000000604082015260600190565b8082028115828204841417610e3d57610e3d613cbe565b60008261410157634e487b7160e01b600052601260045260246000fd5b500490565b81810381811115610e3d57610e3d613cbe565b60208082526032908201527f5769746864726177616c20776f756c64206d616b6520706f736974696f6e20756040820152711b99195c98dbdb1b185d195c985b1a5e995960721b606082015260800190565b634e487b7160e01b600052604160045260246000fd5b60006020828403121561419357600080fd5b813567ffffffffffffffff8111156141aa57600080fd5b8201601f810184136141bb57600080fd5b803567ffffffffffffffff8111156141d5576141d561416b565b8060051b604051601f19603f830116810181811067ffffffffffffffff821117156142025761420261416b565b60405291825260208184018101929081018784111561422057600080fd5b6020850194505b838510156142465761423885613ce7565b815260209485019401614227565b509695505050505050565b60006020828403121561426357600080fd5b5051919050565b60006001820161427c5761427c613cbe565b5060010190565b6020808252600d908201526c4e6f207265656e7472616e637960981b604082015260600190565b60208082526030908201527f426f72726f7720616d6f756e74206578636565647320617661696c61626c652060408201526f6c656e64696e6720636170616369747960801b606082015260800190565b60208082526025908201527f426f72726f7720616d6f756e74206578636565647320796f75722074696572206040820152641b1a5b5a5d60da1b606082015260800190565b60208082526025908201527f496e73756666696369656e7420636f6c6c61746572616c20666f722074686973604082015264103637b0b760d91b606082015260800190565b6000600160ff1b820161439957614399613cbe565b5060000390565b805169ffffffffffffffffffff81168114613cfe57600080fd5b600080600080600060a086880312156143d257600080fd5b6143db866143a0565b60208701516040880151606089015192975090955093509150614400608087016143a0565b90509295509295909350565b60006020828403121561441e57600080fd5b815160ff81168114611a0a57600080fd5b60ff8281168282160390811115610e3d57610e3d613cbe565b6001815b60018411156144835780850481111561446757614467613cbe565b600184161561447557908102905b60019390931c92800261444c565b935093915050565b60008261449a57506001610e3d565b816144a757506000610e3d565b81600181146144bd57600281146144c7576144e3565b6001915050610e3d565b60ff8411156144d8576144d8613cbe565b50506001821b610e3d565b5060208310610133831016604e8410600b8410161715614506575081810a610e3d565b6145136000198484614448565b806000190482111561452757614527613cbe565b029392505050565b6000611a0a60ff84168361448b56fe3c364b9decdac59fbe037e99687219ac0feed46572bfbcbd5284b6b8e67f402d02dd7bc7dec4dceedda775e58dd541e08a116c6c53815c0bd028192f7b626800a264697066735822122046f406d377342da2bd297de28470a927551bd2fff1c9ad2d52d931f8f59120c164736f6c634300081c0033",
  "linkReferences": {},
  "deployedLinkReferences": {}
}