{
  "_format": "hh-sol-artifact-1",
  "contractName": "LiquidityPoolV3",
  "sourceName": "contracts/LiquidityPoolV3.sol",
  "abi": [
    {
      "inputs": [],
      "name": "AccessControlBadConfirmation",
      "type": "error"
    },
    {
      "inputs": [
        {
          "internalType": "address",
          "name": "account",
          "type": "address"
        },
        {
          "internalType": "bytes32",
          "name": "neededRole",
          "type": "bytes32"
        }
      ],
      "name": "AccessControlUnauthorizedAccount",
      "type": "error"
    },
    {
      "inputs": [],
      "name": "InvalidInitialization",
      "type": "error"
    },
    {
      "inputs": [],
      "name": "NotInitializing",
      "type": "error"
    },
    {
      "inputs": [
        {
          "internalType": "address",
          "name": "owner",
          "type": "address"
        }
      ],
      "name": "OwnableInvalidOwner",
      "type": "error"
    },
    {
      "inputs": [
        {
          "internalType": "address",
          "name": "account",
          "type": "address"
        }
      ],
      "name": "OwnableUnauthorizedAccount",
      "type": "error"
    },
    {
      "anonymous": false,
      "inputs": [
        {
          "indexed": true,
          "internalType": "address",
          "name": "user",
          "type": "address"
        },
        {
          "indexed": false,
          "internalType": "uint256",
          "name": "amount",
          "type": "uint256"
        }
      ],
      "name": "Borrowed",
      "type": "event"
    },
    {
      "anonymous": false,
      "inputs": [
        {
          "indexed": true,
          "internalType": "address",
          "name": "user",
          "type": "address"
        },
        {
          "indexed": true,
          "internalType": "address",
          "name": "token",
          "type": "address"
        },
        {
          "indexed": false,
          "internalType": "uint256",
          "name": "amount",
          "type": "uint256"
        }
      ],
      "name": "CollateralDeposited",
      "type": "event"
    },
    {
      "anonymous": false,
      "inputs": [
        {
          "indexed": true,
          "internalType": "address",
          "name": "token",
          "type": "address"
        },
        {
          "indexed": false,
          "internalType": "bool",
          "name": "isAllowed",
          "type": "bool"
        }
      ],
      "name": "CollateralTokenStatusChanged",
      "type": "event"
    },
    {
      "anonymous": false,
      "inputs": [
        {
          "indexed": true,
          "internalType": "address",
          "name": "user",
          "type": "address"
        },
        {
          "indexed": true,
          "internalType": "address",
          "name": "token",
          "type": "address"
        },
        {
          "indexed": false,
          "internalType": "uint256",
          "name": "amount",
          "type": "uint256"
        }
      ],
      "name": "CollateralWithdrawn",
      "type": "event"
    },
    {
      "anonymous": false,
      "inputs": [
        {
          "indexed": true,
          "internalType": "address",
          "name": "user",
          "type": "address"
        },
        {
          "indexed": false,
          "internalType": "uint256",
          "name": "score",
          "type": "uint256"
        }
      ],
      "name": "CreditScoreAssigned",
      "type": "event"
    },
    {
      "anonymous": false,
      "inputs": [
        {
          "indexed": false,
          "internalType": "bool",
          "name": "isPaused",
          "type": "bool"
        }
      ],
      "name": "EmergencyPaused",
      "type": "event"
    },
    {
      "anonymous": false,
      "inputs": [
        {
          "indexed": true,
          "internalType": "address",
          "name": "owner",
          "type": "address"
        },
        {
          "indexed": false,
          "internalType": "uint256",
          "name": "amount",
          "type": "uint256"
        }
      ],
      "name": "Extracted",
      "type": "event"
    },
    {
      "anonymous": false,
      "inputs": [
        {
          "indexed": true,
          "internalType": "address",
          "name": "user",
          "type": "address"
        },
        {
          "indexed": false,
          "internalType": "uint256",
          "name": "newDeadline",
          "type": "uint256"
        }
      ],
      "name": "GracePeriodExtended",
      "type": "event"
    },
    {
      "anonymous": false,
      "inputs": [
        {
          "indexed": false,
          "internalType": "uint64",
          "name": "version",
          "type": "uint64"
        }
      ],
      "name": "Initialized",
      "type": "event"
    },
    {
      "anonymous": false,
      "inputs": [
        {
          "indexed": true,
          "internalType": "address",
          "name": "user",
          "type": "address"
        },
        {
          "indexed": true,
          "internalType": "address",
          "name": "liquidator",
          "type": "address"
        },
        {
          "indexed": false,
          "internalType": "uint256",
          "name": "amount",
          "type": "uint256"
        }
      ],
      "name": "LiquidationExecuted",
      "type": "event"
    },
    {
      "anonymous": false,
      "inputs": [
        {
          "indexed": true,
          "internalType": "address",
          "name": "user",
          "type": "address"
        }
      ],
      "name": "LiquidationStarted",
      "type": "event"
    },
    {
      "anonymous": false,
      "inputs": [
        {
          "indexed": true,
          "internalType": "address",
          "name": "previousOwner",
          "type": "address"
        },
        {
          "indexed": true,
          "internalType": "address",
          "name": "newOwner",
          "type": "address"
        }
      ],
      "name": "OwnershipTransferred",
      "type": "event"
    },
    {
      "anonymous": false,
      "inputs": [
        {
          "indexed": true,
          "internalType": "address",
          "name": "user",
          "type": "address"
        },
        {
          "indexed": false,
          "internalType": "uint256",
          "name": "amount",
          "type": "uint256"
        }
      ],
      "name": "Repaid",
      "type": "event"
    },
    {
      "anonymous": false,
      "inputs": [
        {
          "indexed": true,
          "internalType": "bytes32",
          "name": "role",
          "type": "bytes32"
        },
        {
          "indexed": true,
          "internalType": "bytes32",
          "name": "previousAdminRole",
          "type": "bytes32"
        },
        {
          "indexed": true,
          "internalType": "bytes32",
          "name": "newAdminRole",
          "type": "bytes32"
        }
      ],
      "name": "RoleAdminChanged",
      "type": "event"
    },
    {
      "anonymous": false,
      "inputs": [
        {
          "indexed": true,
          "internalType": "bytes32",
          "name": "role",
          "type": "bytes32"
        },
        {
          "indexed": true,
          "internalType": "address",
          "name": "account",
          "type": "address"
        },
        {
          "indexed": true,
          "internalType": "address",
          "name": "sender",
          "type": "address"
        }
      ],
      "name": "RoleGranted",
      "type": "event"
    },
    {
      "anonymous": false,
      "inputs": [
        {
          "indexed": true,
          "internalType": "bytes32",
          "name": "role",
          "type": "bytes32"
        },
        {
          "indexed": true,
          "internalType": "address",
          "name": "account",
          "type": "address"
        },
        {
          "indexed": true,
          "internalType": "address",
          "name": "sender",
          "type": "address"
        }
      ],
      "name": "RoleRevoked",
      "type": "event"
    },
    {
      "anonymous": false,
      "inputs": [
        {
          "indexed": true,
          "internalType": "address",
          "name": "token",
          "type": "address"
        },
        {
          "indexed": false,
          "internalType": "uint256",
          "name": "updatedAt",
          "type": "uint256"
        },
        {
          "indexed": false,
          "internalType": "uint256",
          "name": "currentTime",
          "type": "uint256"
        }
      ],
      "name": "StaleOracleTriggered",
      "type": "event"
    },
    {
      "anonymous": false,
      "inputs": [
        {
          "indexed": true,
          "internalType": "address",
          "name": "user",
          "type": "address"
        },
        {
          "indexed": false,
          "internalType": "string",
          "name": "message",
          "type": "string"
        }
      ],
      "name": "UserError",
      "type": "event"
    },
    {
      "inputs": [],
      "name": "DEFAULT_ADMIN_ROLE",
      "outputs": [
        {
          "internalType": "bytes32",
          "name": "",
          "type": "bytes32"
        }
      ],
      "stateMutability": "view",
      "type": "function"
    },
    {
      "inputs": [],
      "name": "DEFAULT_LIQUIDATION_THRESHOLD",
      "outputs": [
        {
          "internalType": "uint256",
          "name": "",
          "type": "uint256"
        }
      ],
      "stateMutability": "view",
      "type": "function"
    },
    {
      "inputs": [],
      "name": "DEFAULT_STALENESS_STABLE",
      "outputs": [
        {
          "internalType": "uint256",
          "name": "",
          "type": "uint256"
        }
      ],
      "stateMutability": "view",
      "type": "function"
    },
    {
      "inputs": [],
      "name": "DEFAULT_STALENESS_VOLATILE",
      "outputs": [
        {
          "internalType": "uint256",
          "name": "",
          "type": "uint256"
        }
      ],
      "stateMutability": "view",
      "type": "function"
    },
    {
      "inputs": [],
      "name": "GRACE_PERIOD",
      "outputs": [
        {
          "internalType": "uint256",
          "name": "",
          "type": "uint256"
        }
      ],
      "stateMutability": "view",
      "type": "function"
    },
    {
      "inputs": [],
      "name": "LIQUIDATION_PENALTY",
      "outputs": [
        {
          "internalType": "uint256",
          "name": "",
          "type": "uint256"
        }
      ],
      "stateMutability": "view",
      "type": "function"
    },
    {
      "inputs": [],
      "name": "UPKEEP_COOLDOWN",
      "outputs": [
        {
          "internalType": "uint256",
          "name": "",
          "type": "uint256"
        }
      ],
      "stateMutability": "view",
      "type": "function"
    },
    {
      "inputs": [
        {
          "internalType": "address",
          "name": "lender",
          "type": "address"
        }
      ],
      "name": "baseLenderAPR",
      "outputs": [
        {
          "internalType": "uint256",
          "name": "",
          "type": "uint256"
        }
      ],
      "stateMutability": "view",
      "type": "function"
    },
    {
      "inputs": [
        {
          "internalType": "uint256",
          "name": "amount",
          "type": "uint256"
        }
      ],
      "name": "borrow",
      "outputs": [],
      "stateMutability": "nonpayable",
      "type": "function"
    },
    {
      "inputs": [
        {
          "internalType": "uint256",
          "name": "",
          "type": "uint256"
        }
      ],
      "name": "borrowTierConfigs",
      "outputs": [
        {
          "internalType": "uint256",
          "name": "minScore",
          "type": "uint256"
        },
        {
          "internalType": "uint256",
          "name": "maxScore",
          "type": "uint256"
        },
        {
          "internalType": "uint256",
          "name": "collateralRatio",
          "type": "uint256"
        },
        {
          "internalType": "int256",
          "name": "interestRateModifier",
          "type": "int256"
        },
        {
          "internalType": "uint256",
          "name": "maxLoanAmount",
          "type": "uint256"
        }
      ],
      "stateMutability": "view",
      "type": "function"
    },
    {
      "inputs": [
        {
          "internalType": "address",
          "name": "",
          "type": "address"
        }
      ],
      "name": "borrowTimestamp",
      "outputs": [
        {
          "internalType": "uint256",
          "name": "",
          "type": "uint256"
        }
      ],
      "stateMutability": "view",
      "type": "function"
    },
    {
      "inputs": [
        {
          "internalType": "enum LiquidityPoolV3.RiskTier",
          "name": "",
          "type": "uint8"
        }
      ],
      "name": "borrowedAmountByRiskTier",
      "outputs": [
        {
          "internalType": "uint256",
          "name": "",
          "type": "uint256"
        }
      ],
      "stateMutability": "view",
      "type": "function"
    },
    {
      "inputs": [
        {
          "internalType": "address",
          "name": "user",
          "type": "address"
        }
      ],
      "name": "checkCollateralization",
      "outputs": [
        {
          "internalType": "bool",
          "name": "isHealthy",
          "type": "bool"
        },
        {
          "internalType": "uint256",
          "name": "ratio",
          "type": "uint256"
        }
      ],
      "stateMutability": "view",
      "type": "function"
    },
    {
      "inputs": [
        {
          "internalType": "bytes",
          "name": "",
          "type": "bytes"
        }
      ],
      "name": "checkUpkeep",
      "outputs": [
        {
          "internalType": "bool",
          "name": "upkeepNeeded",
          "type": "bool"
        },
        {
          "internalType": "bytes",
          "name": "performData",
          "type": "bytes"
        }
      ],
      "stateMutability": "view",
      "type": "function"
    },
    {
      "inputs": [
        {
          "internalType": "address",
          "name": "",
          "type": "address"
        },
        {
          "internalType": "address",
          "name": "",
          "type": "address"
        }
      ],
      "name": "collateralBalance",
      "outputs": [
        {
          "internalType": "uint256",
          "name": "",
          "type": "uint256"
        }
      ],
      "stateMutability": "view",
      "type": "function"
    },
    {
      "inputs": [
        {
          "internalType": "uint256",
          "name": "",
          "type": "uint256"
        }
      ],
      "name": "collateralTokenList",
      "outputs": [
        {
          "internalType": "address",
          "name": "",
          "type": "address"
        }
      ],
      "stateMutability": "view",
      "type": "function"
    },
    {
      "inputs": [
        {
          "internalType": "address",
          "name": "",
          "type": "address"
        }
      ],
      "name": "creditScore",
      "outputs": [
        {
          "internalType": "uint256",
          "name": "",
          "type": "uint256"
        }
      ],
      "stateMutability": "view",
      "type": "function"
    },
    {
      "inputs": [
        {
          "internalType": "address",
          "name": "token",
          "type": "address"
        },
        {
          "internalType": "uint256",
          "name": "amount",
          "type": "uint256"
        }
      ],
      "name": "depositCollateral",
      "outputs": [],
      "stateMutability": "nonpayable",
      "type": "function"
    },
    {
      "inputs": [
        {
          "internalType": "address",
          "name": "user",
          "type": "address"
        }
      ],
      "name": "executeLiquidation",
      "outputs": [],
      "stateMutability": "nonpayable",
      "type": "function"
    },
    {
      "inputs": [
        {
          "internalType": "uint256",
          "name": "amount",
          "type": "uint256"
        }
      ],
      "name": "extract",
      "outputs": [],
      "stateMutability": "nonpayable",
      "type": "function"
    },
    {
      "inputs": [],
      "name": "getAdmin",
      "outputs": [
        {
          "internalType": "address",
          "name": "",
          "type": "address"
        }
      ],
      "stateMutability": "view",
      "type": "function"
    },
    {
      "inputs": [],
      "name": "getAllUsers",
      "outputs": [
        {
          "internalType": "address[]",
          "name": "",
          "type": "address[]"
        }
      ],
      "stateMutability": "view",
      "type": "function"
    },
    {
      "inputs": [],
      "name": "getAllowedCollateralTokens",
      "outputs": [
        {
          "internalType": "address[]",
          "name": "",
          "type": "address[]"
        }
      ],
      "stateMutability": "view",
      "type": "function"
    },
    {
      "inputs": [],
      "name": "getBalance",
      "outputs": [
        {
          "internalType": "uint256",
          "name": "",
          "type": "uint256"
        }
      ],
      "stateMutability": "view",
      "type": "function"
    },
    {
      "inputs": [
        {
          "internalType": "address",
          "name": "user",
          "type": "address"
        }
      ],
      "name": "getBorrowTerms",
      "outputs": [
        {
          "internalType": "uint256",
          "name": "collateralRatio",
          "type": "uint256"
        },
        {
          "internalType": "int256",
          "name": "interestRateModifier",
          "type": "int256"
        },
        {
          "internalType": "uint256",
          "name": "maxLoanAmount",
          "type": "uint256"
        }
      ],
      "stateMutability": "view",
      "type": "function"
    },
    {
      "inputs": [
        {
          "internalType": "enum LiquidityPoolV3.RiskTier",
          "name": "tier",
          "type": "uint8"
        }
      ],
      "name": "getBorrowerRate",
      "outputs": [
        {
          "internalType": "uint256",
          "name": "",
          "type": "uint256"
        }
      ],
      "stateMutability": "view",
      "type": "function"
    },
    {
      "inputs": [
        {
          "internalType": "address",
          "name": "user",
          "type": "address"
        },
        {
          "internalType": "address",
          "name": "token",
          "type": "address"
        }
      ],
      "name": "getCollateral",
      "outputs": [
        {
          "internalType": "uint256",
          "name": "",
          "type": "uint256"
        }
      ],
      "stateMutability": "view",
      "type": "function"
    },
    {
      "inputs": [
        {
          "internalType": "address",
          "name": "user",
          "type": "address"
        }
      ],
      "name": "getCreditScore",
      "outputs": [
        {
          "internalType": "uint256",
          "name": "",
          "type": "uint256"
        }
      ],
      "stateMutability": "view",
      "type": "function"
    },
    {
      "inputs": [],
      "name": "getGlobalRiskMultiplier",
      "outputs": [
        {
          "internalType": "uint256",
          "name": "",
          "type": "uint256"
        }
      ],
      "stateMutability": "view",
      "type": "function"
    },
    {
      "inputs": [
        {
          "internalType": "address",
          "name": "token",
          "type": "address"
        }
      ],
      "name": "getLiquidationThreshold",
      "outputs": [
        {
          "internalType": "uint256",
          "name": "",
          "type": "uint256"
        }
      ],
      "stateMutability": "view",
      "type": "function"
    },
    {
      "inputs": [
        {
          "internalType": "address",
          "name": "user",
          "type": "address"
        },
        {
          "internalType": "address",
          "name": "token",
          "type": "address"
        }
      ],
      "name": "getMaxBorrowAmount",
      "outputs": [
        {
          "internalType": "uint256",
          "name": "",
          "type": "uint256"
        }
      ],
      "stateMutability": "view",
      "type": "function"
    },
    {
      "inputs": [],
      "name": "getMinCollateralRatio",
      "outputs": [
        {
          "internalType": "uint256",
          "name": "",
          "type": "uint256"
        }
      ],
      "stateMutability": "pure",
      "type": "function"
    },
    {
      "inputs": [],
      "name": "getMyDebt",
      "outputs": [
        {
          "internalType": "uint256",
          "name": "",
          "type": "uint256"
        }
      ],
      "stateMutability": "view",
      "type": "function"
    },
    {
      "inputs": [
        {
          "internalType": "address",
          "name": "token",
          "type": "address"
        }
      ],
      "name": "getPriceFeed",
      "outputs": [
        {
          "internalType": "address",
          "name": "",
          "type": "address"
        }
      ],
      "stateMutability": "view",
      "type": "function"
    },
    {
      "inputs": [
        {
          "internalType": "address",
          "name": "lender",
          "type": "address"
        }
      ],
      "name": "getRealTimeReturnRate",
      "outputs": [
        {
          "internalType": "uint256",
          "name": "",
          "type": "uint256"
        }
      ],
      "stateMutability": "view",
      "type": "function"
    },
    {
      "inputs": [],
      "name": "getRepaymentRatio",
      "outputs": [
        {
          "internalType": "uint256",
          "name": "",
          "type": "uint256"
        }
      ],
      "stateMutability": "view",
      "type": "function"
    },
    {
      "inputs": [],
      "name": "getRepaymentRiskMultiplier",
      "outputs": [
        {
          "internalType": "uint256",
          "name": "",
          "type": "uint256"
        }
      ],
      "stateMutability": "view",
      "type": "function"
    },
    {
      "inputs": [],
      "name": "getRiskMultiplier",
      "outputs": [
        {
          "internalType": "uint256",
          "name": "",
          "type": "uint256"
        }
      ],
      "stateMutability": "view",
      "type": "function"
    },
    {
      "inputs": [
        {
          "internalType": "address",
          "name": "user",
          "type": "address"
        }
      ],
      "name": "getRiskTier",
      "outputs": [
        {
          "internalType": "enum LiquidityPoolV3.RiskTier",
          "name": "",
          "type": "uint8"
        }
      ],
      "stateMutability": "view",
      "type": "function"
    },
    {
      "inputs": [
        {
          "internalType": "bytes32",
          "name": "role",
          "type": "bytes32"
        }
      ],
      "name": "getRoleAdmin",
      "outputs": [
        {
          "internalType": "bytes32",
          "name": "",
          "type": "bytes32"
        }
      ],
      "stateMutability": "view",
      "type": "function"
    },
    {
      "inputs": [
        {
          "internalType": "address",
          "name": "token",
          "type": "address"
        }
      ],
      "name": "getTokenValue",
      "outputs": [
        {
          "internalType": "uint256",
          "name": "",
          "type": "uint256"
        }
      ],
      "stateMutability": "view",
      "type": "function"
    },
    {
      "inputs": [
        {
          "internalType": "address",
          "name": "user",
          "type": "address"
        }
      ],
      "name": "getTotalCollateralValue",
      "outputs": [
        {
          "internalType": "uint256",
          "name": "",
          "type": "uint256"
        }
      ],
      "stateMutability": "view",
      "type": "function"
    },
    {
      "inputs": [],
      "name": "getWeightedRiskScore",
      "outputs": [
        {
          "internalType": "uint256",
          "name": "",
          "type": "uint256"
        }
      ],
      "stateMutability": "view",
      "type": "function"
    },
    {
      "inputs": [
        {
          "internalType": "bytes32",
          "name": "role",
          "type": "bytes32"
        },
        {
          "internalType": "address",
          "name": "account",
          "type": "address"
        }
      ],
      "name": "grantRole",
      "outputs": [],
      "stateMutability": "nonpayable",
      "type": "function"
    },
    {
      "inputs": [
        {
          "internalType": "bytes32",
          "name": "role",
          "type": "bytes32"
        },
        {
          "internalType": "address",
          "name": "account",
          "type": "address"
        }
      ],
      "name": "hasRole",
      "outputs": [
        {
          "internalType": "bool",
          "name": "",
          "type": "bool"
        }
      ],
      "stateMutability": "view",
      "type": "function"
    },
    {
      "inputs": [
        {
          "internalType": "address",
          "name": "initialOwner",
          "type": "address"
        },
        {
          "internalType": "address",
          "name": "_stablecoinManager",
          "type": "address"
        },
        {
          "internalType": "address",
          "name": "_lendingManager",
          "type": "address"
        }
      ],
      "name": "initialize",
      "outputs": [],
      "stateMutability": "nonpayable",
      "type": "function"
    },
    {
      "inputs": [
        {
          "internalType": "address",
          "name": "",
          "type": "address"
        }
      ],
      "name": "isAllowedCollateral",
      "outputs": [
        {
          "internalType": "bool",
          "name": "",
          "type": "bool"
        }
      ],
      "stateMutability": "view",
      "type": "function"
    },
    {
      "inputs": [
        {
          "internalType": "address",
          "name": "",
          "type": "address"
        }
      ],
      "name": "isKnownUser",
      "outputs": [
        {
          "internalType": "bool",
          "name": "",
          "type": "bool"
        }
      ],
      "stateMutability": "view",
      "type": "function"
    },
    {
      "inputs": [
        {
          "internalType": "address",
          "name": "",
          "type": "address"
        }
      ],
      "name": "isLiquidatable",
      "outputs": [
        {
          "internalType": "bool",
          "name": "",
          "type": "bool"
        }
      ],
      "stateMutability": "view",
      "type": "function"
    },
    {
      "inputs": [
        {
          "internalType": "address",
          "name": "token",
          "type": "address"
        }
      ],
      "name": "isOracleHealthy",
      "outputs": [
        {
          "internalType": "bool",
          "name": "",
          "type": "bool"
        }
      ],
      "stateMutability": "view",
      "type": "function"
    },
    {
      "inputs": [],
      "name": "isPaused",
      "outputs": [
        {
          "internalType": "bool",
          "name": "",
          "type": "bool"
        }
      ],
      "stateMutability": "view",
      "type": "function"
    },
    {
      "inputs": [],
      "name": "lastUpkeep",
      "outputs": [
        {
          "internalType": "uint256",
          "name": "",
          "type": "uint256"
        }
      ],
      "stateMutability": "view",
      "type": "function"
    },
    {
      "inputs": [],
      "name": "lendingManager",
      "outputs": [
        {
          "internalType": "contract LendingManager",
          "name": "",
          "type": "address"
        }
      ],
      "stateMutability": "view",
      "type": "function"
    },
    {
      "inputs": [
        {
          "internalType": "address",
          "name": "",
          "type": "address"
        }
      ],
      "name": "liquidationStartTime",
      "outputs": [
        {
          "internalType": "uint256",
          "name": "",
          "type": "uint256"
        }
      ],
      "stateMutability": "view",
      "type": "function"
    },
    {
      "inputs": [
        {
          "internalType": "address",
          "name": "",
          "type": "address"
        }
      ],
      "name": "liquidationThreshold",
      "outputs": [
        {
          "internalType": "uint256",
          "name": "",
          "type": "uint256"
        }
      ],
      "stateMutability": "view",
      "type": "function"
    },
    {
      "inputs": [],
      "name": "liquidator",
      "outputs": [
        {
          "internalType": "address",
          "name": "",
          "type": "address"
        }
      ],
      "stateMutability": "view",
      "type": "function"
    },
    {
      "inputs": [],
      "name": "locked",
      "outputs": [
        {
          "internalType": "bool",
          "name": "",
          "type": "bool"
        }
      ],
      "stateMutability": "view",
      "type": "function"
    },
    {
      "inputs": [
        {
          "internalType": "address",
          "name": "",
          "type": "address"
        }
      ],
      "name": "maxPriceAge",
      "outputs": [
        {
          "internalType": "uint256",
          "name": "",
          "type": "uint256"
        }
      ],
      "stateMutability": "view",
      "type": "function"
    },
    {
      "inputs": [],
      "name": "owner",
      "outputs": [
        {
          "internalType": "address",
          "name": "",
          "type": "address"
        }
      ],
      "stateMutability": "view",
      "type": "function"
    },
    {
      "inputs": [],
      "name": "paused",
      "outputs": [
        {
          "internalType": "bool",
          "name": "",
          "type": "bool"
        }
      ],
      "stateMutability": "view",
      "type": "function"
    },
    {
      "inputs": [
        {
          "internalType": "bytes",
          "name": "performData",
          "type": "bytes"
        }
      ],
      "name": "performUpkeep",
      "outputs": [],
      "stateMutability": "nonpayable",
      "type": "function"
    },
    {
      "inputs": [
        {
          "internalType": "address",
          "name": "",
          "type": "address"
        }
      ],
      "name": "priceFeed",
      "outputs": [
        {
          "internalType": "address",
          "name": "",
          "type": "address"
        }
      ],
      "stateMutability": "view",
      "type": "function"
    },
    {
      "inputs": [
        {
          "internalType": "address",
          "name": "token",
          "type": "address"
        },
        {
          "internalType": "uint256",
          "name": "amount",
          "type": "uint256"
        }
      ],
      "name": "recoverFromLiquidation",
      "outputs": [],
      "stateMutability": "nonpayable",
      "type": "function"
    },
    {
      "inputs": [],
      "name": "renounceOwnership",
      "outputs": [],
      "stateMutability": "nonpayable",
      "type": "function"
    },
    {
      "inputs": [
        {
          "internalType": "bytes32",
          "name": "role",
          "type": "bytes32"
        },
        {
          "internalType": "address",
          "name": "callerConfirmation",
          "type": "address"
        }
      ],
      "name": "renounceRole",
      "outputs": [],
      "stateMutability": "nonpayable",
      "type": "function"
    },
    {
      "inputs": [],
      "name": "repay",
      "outputs": [],
      "stateMutability": "payable",
      "type": "function"
    },
    {
      "inputs": [
        {
          "internalType": "bytes32",
          "name": "role",
          "type": "bytes32"
        },
        {
          "internalType": "address",
          "name": "account",
          "type": "address"
        }
      ],
      "name": "revokeRole",
      "outputs": [],
      "stateMutability": "nonpayable",
      "type": "function"
    },
    {
      "inputs": [
        {
          "internalType": "address",
          "name": "newAdmin",
          "type": "address"
        }
      ],
      "name": "setAdmin",
      "outputs": [],
      "stateMutability": "nonpayable",
      "type": "function"
    },
    {
      "inputs": [
        {
          "internalType": "address",
          "name": "token",
          "type": "address"
        },
        {
          "internalType": "bool",
          "name": "allowed",
          "type": "bool"
        }
      ],
      "name": "setAllowedCollateral",
      "outputs": [],
      "stateMutability": "nonpayable",
      "type": "function"
    },
    {
      "inputs": [
        {
          "internalType": "address",
          "name": "user",
          "type": "address"
        },
        {
          "internalType": "uint256",
          "name": "score",
          "type": "uint256"
        }
      ],
      "name": "setCreditScore",
      "outputs": [],
      "stateMutability": "nonpayable",
      "type": "function"
    },
    {
      "inputs": [
        {
          "internalType": "address",
          "name": "_lendingManager",
          "type": "address"
        }
      ],
      "name": "setLendingManager",
      "outputs": [],
      "stateMutability": "nonpayable",
      "type": "function"
    },
    {
      "inputs": [
        {
          "internalType": "address",
          "name": "token",
          "type": "address"
        },
        {
          "internalType": "uint256",
          "name": "threshold",
          "type": "uint256"
        }
      ],
      "name": "setLiquidationThreshold",
      "outputs": [],
      "stateMutability": "nonpayable",
      "type": "function"
    },
    {
      "inputs": [
        {
          "internalType": "address",
          "name": "_liquidator",
          "type": "address"
        }
      ],
      "name": "setLiquidator",
      "outputs": [],
      "stateMutability": "nonpayable",
      "type": "function"
    },
    {
      "inputs": [
        {
          "internalType": "address",
          "name": "token",
          "type": "address"
        },
        {
          "internalType": "uint256",
          "name": "age",
          "type": "uint256"
        }
      ],
      "name": "setMaxPriceAge",
      "outputs": [],
      "stateMutability": "nonpayable",
      "type": "function"
    },
    {
      "inputs": [
        {
          "internalType": "address",
          "name": "token",
          "type": "address"
        },
        {
          "internalType": "address",
          "name": "feed",
          "type": "address"
        }
      ],
      "name": "setPriceFeed",
      "outputs": [],
      "stateMutability": "nonpayable",
      "type": "function"
    },
    {
      "inputs": [],
      "name": "stablecoinManager",
      "outputs": [
        {
          "internalType": "contract StablecoinManager",
          "name": "",
          "type": "address"
        }
      ],
      "stateMutability": "view",
      "type": "function"
    },
    {
      "inputs": [
        {
          "internalType": "address",
          "name": "user",
          "type": "address"
        }
      ],
      "name": "startLiquidation",
      "outputs": [],
      "stateMutability": "nonpayable",
      "type": "function"
    },
    {
      "inputs": [
        {
          "internalType": "bytes4",
          "name": "interfaceId",
          "type": "bytes4"
        }
      ],
      "name": "supportsInterface",
      "outputs": [
        {
          "internalType": "bool",
          "name": "",
          "type": "bool"
        }
      ],
      "stateMutability": "view",
      "type": "function"
    },
    {
      "inputs": [],
      "name": "togglePause",
      "outputs": [],
      "stateMutability": "nonpayable",
      "type": "function"
    },
    {
      "inputs": [],
      "name": "totalBorrowedAllTime",
      "outputs": [
        {
          "internalType": "uint256",
          "name": "",
          "type": "uint256"
        }
      ],
      "stateMutability": "view",
      "type": "function"
    },
    {
      "inputs": [],
      "name": "totalFunds",
      "outputs": [
        {
          "internalType": "uint256",
          "name": "",
          "type": "uint256"
        }
      ],
      "stateMutability": "view",
      "type": "function"
    },
    {
      "inputs": [],
      "name": "totalRepaidAllTime",
      "outputs": [
        {
          "internalType": "uint256",
          "name": "",
          "type": "uint256"
        }
      ],
      "stateMutability": "view",
      "type": "function"
    },
    {
      "inputs": [
        {
          "internalType": "address",
          "name": "newOwner",
          "type": "address"
        }
      ],
      "name": "transferOwnership",
      "outputs": [],
      "stateMutability": "nonpayable",
      "type": "function"
    },
    {
      "inputs": [
        {
          "internalType": "uint256",
          "name": "tierIndex",
          "type": "uint256"
        },
        {
          "internalType": "uint256",
          "name": "minScore",
          "type": "uint256"
        },
        {
          "internalType": "uint256",
          "name": "maxScore",
          "type": "uint256"
        },
        {
          "internalType": "uint256",
          "name": "collateralRatio",
          "type": "uint256"
        },
        {
          "internalType": "int256",
          "name": "interestRateModifier",
          "type": "int256"
        },
        {
          "internalType": "uint256",
          "name": "maxLoanAmount",
          "type": "uint256"
        }
      ],
      "name": "updateBorrowTier",
      "outputs": [],
      "stateMutability": "nonpayable",
      "type": "function"
    },
    {
      "inputs": [
        {
          "internalType": "address",
          "name": "",
          "type": "address"
        }
      ],
      "name": "userDebt",
      "outputs": [
        {
          "internalType": "uint256",
          "name": "",
          "type": "uint256"
        }
      ],
      "stateMutability": "view",
      "type": "function"
    },
    {
      "inputs": [
        {
          "internalType": "uint256",
          "name": "",
          "type": "uint256"
        }
      ],
      "name": "users",
      "outputs": [
        {
          "internalType": "address",
          "name": "",
          "type": "address"
        }
      ],
      "stateMutability": "view",
      "type": "function"
    },
    {
      "inputs": [
        {
          "internalType": "address",
          "name": "token",
          "type": "address"
        },
        {
          "internalType": "uint256",
          "name": "amount",
          "type": "uint256"
        }
      ],
      "name": "withdrawCollateral",
      "outputs": [],
      "stateMutability": "nonpayable",
      "type": "function"
    },
    {
      "inputs": [
        {
          "internalType": "uint256",
          "name": "amount",
          "type": "uint256"
        }
      ],
      "name": "withdrawForLendingManager",
      "outputs": [],
      "stateMutability": "nonpayable",
      "type": "function"
    },
    {
      "stateMutability": "payable",
      "type": "receive"
    }
  ],
  "bytecode": "0x6080604052348015600f57600080fd5b5061515a8061001f6000396000f3fe6080604052600436106104cf5760003560e01c806391d1485411610276578063c23c69d51161014f578063e19fb8f5116100c1578063e84bae4511610085578063e84bae4514610fbf578063ef02401a14610fec578063f1c5d6c21461100c578063f2fde38b1461102c578063f7e590ee1461104c578063feca846a1461107957600080fd5b8063e19fb8f514610f15578063e1c5010014610f35578063e2842d7914610f55578063e2e2967914610f6a578063e7602b9d14610f8a57600080fd5b8063cf17622511610113578063cf17622514610e36578063cf30901214610e58578063d29255f914610e72578063d3dd2bdf14610e9f578063d547741f14610ed5578063ddac7f1b14610ef557600080fd5b8063c23c69d514610d94578063c4ae316814610dc1578063c5ebeaec14610dd6578063c869d0ed14610df6578063c941f32114610e1657600080fd5b8063b1732b25116101e8578063b8cdf561116101ac578063b8cdf56114610cfb578063bc3d5a3e14610d11578063be8c3c8414610d27578063c0c53b8b14610d48578063c129d50414610d68578063c1a287e214610d7d57600080fd5b8063b1732b2514610c4f578063b187bd2614610c7c578063b3a5a0a214610c99578063b69e5c7714610cb9578063b849c88414610ce657600080fd5b80639e3b77af1161023a5780639e3b77af14610bb0578063a217fddf14610bd0578063a4cde48e14610be5578063a5d5db0c14610bfa578063a6727ce714610c1a578063a8cf4b5214610c3a57600080fd5b806391d1485414610b155780639490a51e14610b35578063968ed60014610b6557806397ed81cf14610b7b5780639b8621d514610b9b57600080fd5b806352226ef0116103a85780636e04ff0d1161031a5780637346f486116102de5780637346f48614610a3957806376e1128614610a695780637b86e42c14610a8957806385b3978214610aa95780638da5cb5b14610ac95780638e6b53bc14610ade57600080fd5b80636e04ff0d146109795780636e9960c3146109a7578063704b6c02146109bc57806370ed11bc146109dc578063715018a614610a2457600080fd5b80635b6cca801161036c5780635b6cca80146108c35780635c44f10d146108e35780635c975abb146108f8578063603f4ab9146109175780636579b73e1461092c5780636c648fc41461095957600080fd5b806352226ef01461080157806352ace3091461084657806355f4d9e21461086d57806359ad586f1461088d5780635b66e7fc146108ad57600080fd5b8063350c35e911610441578063402d888311610405578063402d8883146107505780634046ebae14610758578063450a375a1461077e5780634585e33b146107a05780634c8f35ab146107c05780634c95da66146107d457600080fd5b8063350c35e91461069f57806336568abe146106bf578063365b98b2146106df57806338053ef3146106ff5780633d7c5d3e1461073a57600080fd5b80630e30428d116104935780630e30428d146105be57806312065fe0146105de5780631fd48b9a146105f1578063248a9ca31461063f5780632f2ff15d1461065f57806330332f9f1461067f57600080fd5b806301c76f81146104f357806301ffc9a714610515578063042e02cf1461054a578063080d9c2b1461057a5780630b044c791461059a57600080fd5b366104ee5734600c60008282546104e6919061485c565b925050819055005b600080fd5b3480156104ff57600080fd5b5061051361050e36600461488b565b61108e565b005b34801561052157600080fd5b506105356105303660046148a6565b6110c4565b60405190151581526020015b60405180910390f35b34801561055657600080fd5b5061053561056536600461488b565b60056020526000908152604090205460ff1681565b34801561058657600080fd5b506105136105953660046148d0565b6110fb565b3480156105a657600080fd5b506105b0610e1081565b604051908152602001610541565b3480156105ca57600080fd5b506105136105d93660046148d0565b61124a565b3480156105ea57600080fd5b50476105b0565b3480156105fd57600080fd5b5061062761060c36600461488b565b6008602052600090815260409020546001600160a01b031681565b6040516001600160a01b039091168152602001610541565b34801561064b57600080fd5b506105b061065a3660046148fa565b6112f6565b34801561066b57600080fd5b5061051361067a366004614913565b611318565b34801561068b57600080fd5b5061051361069a36600461493f565b61133a565b3480156106ab57600080fd5b506105136106ba3660046148d0565b611407565b3480156106cb57600080fd5b506105136106da366004614913565b61172a565b3480156106eb57600080fd5b506106276106fa3660046148fa565b61175d565b34801561070b57600080fd5b5061071f61071a36600461488b565b611787565b60408051938452602084019290925290820152606001610541565b34801561074657600080fd5b506105b060155481565b610513611842565b34801561076457600080fd5b50600d54610627906201000090046001600160a01b031681565b34801561078a57600080fd5b50336000908152600360205260409020546105b0565b3480156107ac57600080fd5b506105136107bb366004614982565b611bc9565b3480156107cc57600080fd5b5060826105b0565b3480156107e057600080fd5b506107f46107ef36600461488b565b611cc2565b6040516105419190614a0c565b34801561080d57600080fd5b506105b061081c366004614a34565b6001600160a01b038082166000908152602081815260408083209386168352929052205492915050565b34801561085257600080fd5b506105b061086136600461488b565b5066d529ae9e86000090565b34801561087957600080fd5b50610513610888366004614a6c565b611d8e565b34801561089957600080fd5b506105b06108a8366004614a34565b611eb5565b3480156108b957600080fd5b506105b061038481565b3480156108cf57600080fd5b506106276108de36600461488b565b611f97565b3480156108ef57600080fd5b506105b0603c81565b34801561090457600080fd5b50600d5461053590610100900460ff1681565b34801561092357600080fd5b506105b0611fee565b34801561093857600080fd5b506105b061094736600461488b565b60146020526000908152604090205481565b34801561096557600080fd5b506105b061097436600461488b565b61202e565b34801561098557600080fd5b50610999610994366004614982565b6120dc565b604051610541929190614aa3565b3480156109b357600080fd5b5061062761232b565b3480156109c857600080fd5b506105136109d736600461488b565b612335565b3480156109e857600080fd5b506109fc6109f73660046148fa565b6123a9565b604080519586526020860194909452928401919091526060830152608082015260a001610541565b348015610a3057600080fd5b506105136123ea565b348015610a4557600080fd5b50610535610a5436600461488b565b60016020526000908152604090205460ff1681565b348015610a7557600080fd5b50610513610a84366004614a34565b6123fe565b348015610a9557600080fd5b506105b0610aa436600461488b565b61246c565b348015610ab557600080fd5b50610513610ac43660046148fa565b612511565b348015610ad557600080fd5b50610627612631565b348015610aea57600080fd5b50610afe610af936600461488b565b61265f565b604080519215158352602083019190915201610541565b348015610b2157600080fd5b50610535610b30366004614913565b6126ea565b348015610b4157600080fd5b50610535610b5036600461488b565b600b6020526000908152604090205460ff1681565b348015610b7157600080fd5b506105b0600c5481565b348015610b8757600080fd5b50610513610b963660046148d0565b612722565b348015610ba757600080fd5b506105b0600581565b348015610bbc57600080fd5b50600f54610627906001600160a01b031681565b348015610bdc57600080fd5b506105b0600081565b348015610bf157600080fd5b506105b0612864565b348015610c0657600080fd5b50610513610c153660046148d0565b6128dc565b348015610c2657600080fd5b506105b0610c3536600461488b565b612b5d565b348015610c4657600080fd5b506105b0612b8f565b348015610c5b57600080fd5b506105b0610c6a36600461488b565b60076020526000908152604090205481565b348015610c8857600080fd5b50600d54610100900460ff16610535565b348015610ca557600080fd5b50610627610cb43660046148fa565b612bcc565b348015610cc557600080fd5b506105b0610cd436600461488b565b60036020526000908152604090205481565b348015610cf257600080fd5b506105b0612bdc565b348015610d0757600080fd5b506105b060125481565b348015610d1d57600080fd5b506105b060135481565b348015610d3357600080fd5b506105b0610d42366004614afa565b50600090565b348015610d5457600080fd5b50610513610d63366004614b1b565b612c43565b348015610d7457600080fd5b506105b0608281565b348015610d8957600080fd5b506105b06203f48081565b348015610da057600080fd5b506105b0610daf36600461488b565b60066020526000908152604090205481565b348015610dcd57600080fd5b5061051361304e565b348015610de257600080fd5b50610513610df13660046148fa565b6130b8565b348015610e0257600080fd5b50610513610e1136600461488b565b6136e2565b348015610e2257600080fd5b50600e54610627906001600160a01b031681565b348015610e4257600080fd5b50610e4b613762565b6040516105419190614b5e565b348015610e6457600080fd5b50600d546105359060ff1681565b348015610e7e57600080fd5b506105b0610e8d36600461488b565b60046020526000908152604090205481565b348015610eab57600080fd5b506105b0610eba36600461488b565b6001600160a01b031660009081526002602052604090205490565b348015610ee157600080fd5b50610513610ef0366004614913565b6138a9565b348015610f0157600080fd5b50610513610f103660046148d0565b6138c5565b348015610f2157600080fd5b50610513610f303660046148fa565b613928565b348015610f4157600080fd5b50610513610f5036600461488b565b613a4a565b348015610f6157600080fd5b50610e4b613b5f565b348015610f7657600080fd5b50610513610f8536600461488b565b613bc1565b348015610f9657600080fd5b506105b0610fa5366004614a34565b600060208181529281526040808220909352908152205481565b348015610fcb57600080fd5b506105b0610fda366004614afa565b60116020526000908152604090205481565b348015610ff857600080fd5b5061053561100736600461488b565b613f58565b34801561101857600080fd5b506105b061102736600461488b565b614051565b34801561103857600080fd5b5061051361104736600461488b565b6140fd565b34801561105857600080fd5b506105b061106736600461488b565b60026020526000908152604090205481565b34801561108557600080fd5b506105b061413b565b60006110998161431e565b50600d80546001600160a01b03909216620100000262010000600160b01b0319909216919091179055565b60006001600160e01b03198216637965db0b60e01b14806110f557506301ffc9a760e01b6001600160e01b03198316145b92915050565b3360009081526005602052604090205460ff1661115f5760405162461bcd60e51b815260206004820152601a60248201527f4163636f756e74206e6f7420696e206c69717569646174696f6e00000000000060448201526064015b60405180910390fd5b6040516323b872dd60e01b8152336004820152306024820152604481018290526001600160a01b038316906323b872dd906064016020604051808303816000875af11580156111b2573d6000803e3d6000fd5b505050506040513d601f19601f820116820180604052508101906111d69190614baa565b506001600160a01b0382166000908152602081815260408083203384529091528120805483929061120890849061485c565b90915550600090506112193361265f565b509050801561124557336000908152600560209081526040808320805460ff1916905560069091528120555b505050565b611252614328565b6001600160a01b03821660009081526001602052604090205460ff1661128a5760405162461bcd60e51b815260040161115690614bc7565b606481116112da5760405162461bcd60e51b815260206004820152601860248201527f5468726573686f6c64206d757374206265203e203130302500000000000000006044820152606401611156565b6001600160a01b03909116600090815260076020526040902055565b6000908152600080516020615105833981519152602052604090206001015490565b611321826112f6565b61132a8161431e565b611334838361435a565b50505050565b611342614328565b60105486106113825760405162461bcd60e51b815260206004820152600c60248201526b24b73b30b634b2103a34b2b960a11b6044820152606401611156565b6040518060a0016040528086815260200185815260200184815260200183815260200182815250601087815481106113bc576113bc614bfe565b90600052602060002090600502016000820151816000015560208201518160010155604082015181600201556060820151816003015560808201518160040155905050505050505050565b6001600160a01b03821660009081526001602052604090205460ff1661146c57336001600160a01b03166000805160206150e583398151915260405161144c90614c14565b60405180910390a260405162461bcd60e51b815260040161115690614c14565b6001600160a01b03821660009081526020818152604080832033845290915290205481111561152a57336001600160a01b03166000805160206150e58339815191526040516114e390602080825260149082015273496e73756666696369656e742062616c616e636560601b604082015260600190565b60405180910390a260405162461bcd60e51b8152602060048201526014602482015273496e73756666696369656e742062616c616e636560601b6044820152606401611156565b3360009081526005602052604090205460ff161561158757336001600160a01b03166000805160206150e583398151915260405161156790614c3f565b60405180910390a260405162461bcd60e51b815260040161115690614c3f565b6000670de0b6b3a764000061159b84614051565b6115a59084614c76565b6115af9190614c8d565b6115b83361202e565b6115c29190614caf565b90506115cd8361246c565b336000908152600360205260409020546115e79190614c76565b6115f2826064614c76565b101561163d57336001600160a01b03166000805160206150e583398151915260405161161d90614cc2565b60405180910390a260405162461bcd60e51b815260040161115690614cc2565b6001600160a01b0383166000908152602081815260408083203384529091528120805484929061166e908490614caf565b909155505060405163a9059cbb60e01b8152336004820152602481018390526001600160a01b0384169063a9059cbb906044016020604051808303816000875af11580156116c0573d6000803e3d6000fd5b505050506040513d601f19601f820116820180604052508101906116e49190614baa565b506040518281526001600160a01b0384169033907f45892a46e6cef329bb642da6d69846d324db43d19008edc141ed82382eda1bee9060200160405180910390a3505050565b6001600160a01b03811633146117535760405163334bd91960e11b815260040160405180910390fd5b61124582826143ff565b600a818154811061176d57600080fd5b6000918252602090912001546001600160a01b0316905081565b60008060008061179685611cc2565b9050600060108260048111156117ae576117ae6149f6565b815481106117be576117be614bfe565b90600052602060002090600502016040518060a00160405290816000820154815260200160018201548152602001600282015481526020016003820154815260200160048201548152505090508060400151816060015160648360800151600c546118299190614c76565b6118339190614c8d565b94509450945050509193909250565b600d54610100900460ff161561188f5760405162461bcd60e51b815260206004820152601260248201527110dbdb9d1c9858dd081a5cc81c185d5cd95960721b6044820152606401611156565b33600090815260036020526040812054900361193857336001600160a01b03166000805160206150e58339815191526040516118f290602080825260139082015272139bc81bdd5d1cdd185b991a5b99c81919589d606a1b604082015260600190565b60405180910390a260405162461bcd60e51b8152602060048201526013602482015272139bc81bdd5d1cdd185b991a5b99c81919589d606a1b6044820152606401611156565b346000036119dd57336001600160a01b03166000805160206150e5833981519152604051611992906020808252601890820152774d7573742073656e642066756e647320746f20726570617960401b604082015260600190565b60405180910390a260405162461bcd60e51b81526020600482015260186024820152774d7573742073656e642066756e647320746f20726570617960401b6044820152606401611156565b33600090815260036020526040902054341115611a9b57336001600160a01b03166000805160206150e5833981519152604051611a4b906020808252601c908201527f52657061796d656e74206578636565647320746f74616c206465627400000000604082015260600190565b60405180910390a260405162461bcd60e51b815260206004820152601c60248201527f52657061796d656e74206578636565647320746f74616c2064656274000000006044820152606401611156565b6000611aa633611cc2565b90503460116000836004811115611abf57611abf6149f6565b6004811115611ad057611ad06149f6565b81526020019081526020016000206000828254611aed9190614caf565b90915550503360009081526003602052604081208054349290611b11908490614caf565b925050819055503460136000828254611b2a919061485c565b9091555050336000908152600360205260408120549003611b5657336000908152600460205260408120555b3360009081526005602052604090205460ff1615611b9157336000908152600560209081526040808320805460ff1916905560069091528120555b60405134815233907f0516911bcc3a0a7412a44601057c0a0a1ec628bde049a84284bc4288665344889060200160405180910390a250565b603c601554611bd8919061485c565b4211611c195760405162461bcd60e51b815260206004820152601060248201526f155c1ad9595c081d1a1c9bdd1d1b195960821b6044820152606401611156565b426015556000611c2b82840184614d2a565b905060005b8151811015611334576000828281518110611c4d57611c4d614bfe565b6020908102919091018101516001600160a01b0381166000908152600590925260409091205490915060ff1615611cb9576001600160a01b038116600090815260066020526040812054611ca5906203f4809061485c565b9050804210611cb757611cb782613bc1565b505b50600101611c30565b6001600160a01b038116600090815260026020526040812054815b601054811015611d665760108181548110611cfa57611cfa614bfe565b9060005260206000209060050201600001548210158015611d3f575060108181548110611d2957611d29614bfe565b9060005260206000209060050201600101548211155b15611d5e57806004811115611d5657611d566149f6565b949350505050565b600101611cdd565b50601054611d7690600190614caf565b6004811115611d8757611d876149f6565b9392505050565b611d96614328565b6001600160a01b0382166000908152600160205260408120805460ff1916831515179055805b600954811015611e0e57836001600160a01b031660098281548110611de357611de3614bfe565b6000918252602090912001546001600160a01b031603611e065760019150611e0e565b600101611dbc565b50818015611e1a575080155b15611e6b57600980546001810182556000919091527f6e1540171b6c0c960b71a7020d9f60077f6af931a8bbf590da0223dacf75c7af0180546001600160a01b0319166001600160a01b0385161790555b826001600160a01b03167f15f5cc64ca777db85f6c05fdba671568758b38329616d4d4b43bb8b092fe9a8d83604051611ea8911515815260200190565b60405180910390a2505050565b600080670de0b6b3a7640000611eca84614051565b6001600160a01b03808616600090815260208181526040808320938a1683529290522054611ef89190614c76565b611f029190614c8d565b600e546040516356512fcd60e11b81526001600160a01b0386811660048301529293506000929091169063aca25f9a90602401602060405180830381865afa158015611f52573d6000803e3d6000fd5b505050506040513d601f19601f82011682018060405250810190611f769190614dfa565b90506064611f848284614c76565b611f8e9190614c8d565b95945050505050565b6001600160a01b03811660009081526001602052604081205460ff16611fcf5760405162461bcd60e51b815260040161115690614bc7565b506001600160a01b039081166000908152600860205260409020541690565b60006012546000036120075750670de0b6b3a764000090565b60125460135461201f90670de0b6b3a7640000614c76565b6120299190614c8d565b905090565b6000808061203a613762565b905060005b81518110156120d357600082828151811061205c5761205c614bfe565b6020908102919091018101516001600160a01b0380821660009081528084526040808220928b168252919093529091205490915080156120c957670de0b6b3a76400006120a883614051565b6120b29083614c76565b6120bc9190614c8d565b6120c6908661485c565b94505b505060010161203f565b50909392505050565b60006060603c6015546120ef919061485c565b42116121305760405162461bcd60e51b815260206004820152601060248201526f155c1ad9595c081d1a1c9bdd1d1b195960821b6044820152606401611156565b600061213a613b5f565b90506000815167ffffffffffffffff81111561215857612158614d14565b604051908082528060200260200182016040528015612181578160200160208202803683370190505b5090506000805b835181101561224a5760008482815181106121a5576121a5614bfe565b6020908102919091018101516001600160a01b0381166000908152600590925260409091205490915060ff1615612241576001600160a01b0381166000908152600660205260408120546121fd906203f4809061485c565b905080421061223f578185858151811061221957612219614bfe565b6001600160a01b03909216602092830291909101909101528361223b81614e13565b9450505b505b50600101612188565b50801561231c5760008167ffffffffffffffff81111561226c5761226c614d14565b604051908082528060200260200182016040528015612295578160200160208202803683370190505b50905060005b828110156122ef578381815181106122b5576122b5614bfe565b60200260200101518282815181106122cf576122cf614bfe565b6001600160a01b039092166020928302919091019091015260010161229b565b5060019550806040516020016123059190614b5e565b604051602081830303815290604052945050612321565b600094505b5050509250929050565b6000612029612631565b61233d614328565b6001600160a01b0381166123855760405162461bcd60e51b815260206004820152600f60248201526e496e76616c6964206164647265737360881b6044820152606401611156565b61238e8161447b565b61239960008261435a565b506123a56000336143ff565b5050565b601081815481106123b957600080fd5b6000918252602090912060059091020180546001820154600283015460038401546004909401549294509092909185565b6123f2614328565b6123fc600061447b565b565b612406614328565b6001600160a01b03821660009081526001602052604090205460ff1661243e5760405162461bcd60e51b815260040161115690614bc7565b6001600160a01b03918216600090815260086020526040902080546001600160a01b03191691909216179055565b600e54604051631ee1b90b60e21b81526001600160a01b0383811660048301526000928392911690637b86e42c90602401602060405180830381865afa1580156124ba573d6000803e3d6000fd5b505050506040513d601f19601f820116820180604052508101906124de9190614dfa565b905080156124ec5792915050565b6001600160a01b03831660009081526007602052604090205480611d87576082611d56565b612519614328565b600d5460ff161561253c5760405162461bcd60e51b815260040161115690614e2c565b600d805460ff19166001179055478111156125995760405162461bcd60e51b815260206004820152601d60248201527f496e73756666696369656e7420636f6e74726163742062616c616e63650000006044820152606401611156565b6125a1612631565b6001600160a01b03166108fc829081150290604051600060405180830381858888f193505050501580156125d9573d6000803e3d6000fd5b506125e2612631565b6001600160a01b03167f69c169e5c85af54e1ca7e16608ccc812437821387924fb3353a7d053264ddaa08260405161261c91815260200190565b60405180910390a250600d805460ff19169055565b7f9016d09d72d40fdae2fd8ceac6b6234c7706214fd39c1cd1e609a0528c199300546001600160a01b031690565b600080600061266d8461202e565b6001600160a01b03851660009081526003602052604081205491925081900361269f5750600194600019945092505050565b816000036126b4575060009485945092505050565b60006126bf86611787565b50509050818360646126d19190614c76565b6126db9190614c8d565b90811015969095509350505050565b6000918252600080516020615105833981519152602090815260408084206001600160a01b0393909316845291905290205460ff1690565b61272a614328565b816001600160a01b0381166127815760405162461bcd60e51b815260206004820152601d60248201527f496e76616c696420616464726573733a207a65726f20616464726573730000006044820152606401611156565b306001600160a01b038216036127d15760405162461bcd60e51b815260206004820152601560248201527424b73b30b634b21030b2323932b9b99d1039b2b63360591b6044820152606401611156565b60648211156128175760405162461bcd60e51b815260206004820152601260248201527153636f7265206f7574206f662072616e676560701b6044820152606401611156565b6001600160a01b03831660008181526002602052604090819020849055517f4afae6838a181695abc7978598380d73bc2144eb38580c130f86e4b1e6531e1590611ea89085815260200190565b60008061286f61413b565b90508060000361288857670de0b6b3a764000091505090565b6001811161289f57670c7d713b49da000091505090565b600281116128b657670de0b6b3a764000091505090565b600381116128cd57670f43fc2c04ee000091505090565b6710a741a46278000091505090565b6001600160a01b03821660009081526001602052604090205460ff1661292157336001600160a01b03166000805160206150e583398151915260405161144c90614c14565b806000036129ba57336001600160a01b03166000805160206150e5833981519152604051612975906020808252601290820152710416d6f756e74206d757374206265203e20360741b604082015260600190565b60405180910390a260405162461bcd60e51b81526020600482015260126024820152710416d6f756e74206d757374206265203e20360741b6044820152606401611156565b3360009081526005602052604090205460ff16156129f757336001600160a01b03166000805160206150e583398151915260405161156790614c3f565b336000908152600b602052604090205460ff16612a6b57336000818152600b60205260408120805460ff19166001908117909155600a805491820181559091527fc65a7bb8d6351c1cf70c95a316cc6a92839c986682d98bc35f958f4883f9d2a80180546001600160a01b03191690911790555b6040516323b872dd60e01b8152336004820152306024820152604481018290526001600160a01b038316906323b872dd906064016020604051808303816000875af1158015612abe573d6000803e3d6000fd5b505050506040513d601f19601f82011682018060405250810190612ae29190614baa565b506001600160a01b03821660009081526020818152604080832033845290915281208054839290612b1490849061485c565b90915550506040518181526001600160a01b0383169033907ff1c0dd7e9b98bbff859029005ef89b127af049cd18df1a8d79f0b7e019911e569060200160405180910390a35050565b600066d529ae9e86000081612b70612b8f565b9050670de0b6b3a7640000612b858284614c76565b611d569190614c8d565b600080612b9a612864565b90506000612ba6612bdc565b9050670de0b6b3a7640000612bbb8284614c76565b612bc59190614c8d565b9250505090565b6009818154811061176d57600080fd5b600080612be7611fee565b9050670d2f13f7789f00008110612c0757670de0b6b3a764000091505090565b670c7d713b49da00008110612c2557670e92596fd629000091505090565b670b1a2bc2ec50000081106128cd57670f43fc2c04ee000091505090565b6000612c4d6144ec565b805490915060ff600160401b820416159067ffffffffffffffff16600081158015612c755750825b905060008267ffffffffffffffff166001148015612c925750303b155b905081158015612ca0575080155b15612cbe5760405163f92ee8a960e01b815260040160405180910390fd5b845467ffffffffffffffff191660011785558315612ce857845460ff60401b1916600160401b1785555b612cf188614515565b612cf9614526565b612d0460008061452e565b612d0f60008961435a565b50600e80546001600160a01b03808a166001600160a01b031992831617909255600f805492891692909116919091179055612ffe60106040518060a00160405280605a815260200160648152602001606e81526020016018198152602001603281525090806001815401808255809150506001900390600052602060002090600502016000909190919091506000820151816000015560208201518160010155604082015181600201556060820151816003015560808201518160040155505060106040518060a001604052806050815260200160598152602001607d81526020016009198152602001602881525090806001815401808255809150506001900390600052602060002090600502016000909190919091506000820151816000015560208201518160010155604082015181600201556060820151816003015560808201518160040155505060106040518060a0016040528060468152602001604f8152602001608c815260200160008152602001601e81525090806001815401808255809150506001900390600052602060002090600502016000909190919091506000820151816000015560208201518160010155604082015181600201556060820151816003015560808201518160040155505060106040518060a00160405280603c81526020016045815260200160a08152602001600f8152602001601481525090806001815401808255809150506001900390600052602060002090600502016000909190919091506000820151816000015560208201518160010155604082015181600201556060820151816003015560808201518160040155505060106040518060a0016040528060008152602001603b815260200160c88152602001601e81526020016000815250908060018154018082558091505060019003906000526020600020906005020160009091909190915060008201518160000155602082015181600101556040820151816002015560608201518160030155608082015181600401555050565b831561304457845460ff60401b19168555604051600181527fc7f505b2f371ae2175ee4913f4499e1f2633a7b5936321eed1cdaeb6115181d29060200160405180910390a15b5050505050505050565b613056614328565b600d805460ff610100808304821615810261ff001990931692909217928390556040517f228f455d7bc3d0b24a3a08d7847f391c3e78fc8aeb83acf226b7a96ee162b8ac936130ae9390049091161515815260200190565b60405180910390a1565b600d54610100900460ff16156131055760405162461bcd60e51b815260206004820152601260248201527110dbdb9d1c9858dd081a5cc81c185d5cd95960721b6044820152606401611156565b600d5460ff16156131285760405162461bcd60e51b815260040161115690614e2c565b600d805460ff1916600117905560008190036131e557336001600160a01b03166000805160206150e5833981519152604051613195906020808252601d908201527f416d6f756e74206d7573742062652067726561746572207468616e2030000000604082015260600190565b60405180910390a260405162461bcd60e51b815260206004820152601d60248201527f416d6f756e74206d7573742062652067726561746572207468616e20300000006044820152606401611156565b60006131f033611cc2565b9050600080600061320033611787565b91945092509050600484600481111561321b5761321b6149f6565b036132b557336001600160a01b03166000805160206150e583398151915260405161326e906020808252601490820152734372656469742073636f726520746f6f206c6f7760601b604082015260600190565b60405180910390a260405162461bcd60e51b81526020600482015260146024820152734372656469742073636f726520746f6f206c6f7760601b6044820152606401611156565b6002600c546132c49190614c8d565b85111561331057336001600160a01b03166000805160206150e58339815191526040516132f090614e53565b60405180910390a260405162461bcd60e51b815260040161115690614e53565b8085111561335d57336001600160a01b03166000805160206150e583398151915260405161333d90614ea3565b60405180910390a260405162461bcd60e51b815260040161115690614ea3565b336000908152600360205260409020541561341957336001600160a01b03166000805160206150e58339815191526040516133c9906020808252601e908201527f526570617920796f7572206578697374696e6720646562742066697273740000604082015260600190565b60405180910390a260405162461bcd60e51b815260206004820152601e60248201527f526570617920796f7572206578697374696e67206465627420666972737400006044820152606401611156565b336000908152600b602052604090205460ff1661348d57336000818152600b60205260408120805460ff19166001908117909155600a805491820181559091527fc65a7bb8d6351c1cf70c95a316cc6a92839c986682d98bc35f958f4883f9d2a80180546001600160a01b03191690911790555b60006134983361202e565b90506134a48487614c76565b6134af826064614c76565b10156134fa57336001600160a01b03166000805160206150e58339815191526040516134da90614ee8565b60405180910390a260405162461bcd60e51b815260040161115690614ee8565b600f546040516303065a9d60e21b8152600481018890526000916001600160a01b031690630c196a7490602401602060405180830381865afa158015613544573d6000803e3d6000fd5b505050506040513d601f19601f820116820180604052508101906135689190614dfa565b90508060008512156135a557606461357f86614f2d565b61358a906064614caf565b6135949084614c76565b61359e9190614c8d565b90506135d1565b60008513156135d15760646135ba868261485c565b6135c49084614c76565b6135ce9190614c8d565b90505b33600090815260036020526040812080548a92906135f090849061485c565b9091555050336000908152600460208190526040822042905589916011918a9081111561361f5761361f6149f6565b6004811115613630576136306149f6565b8152602001908152602001600020600082825461364d919061485c565b925050819055508760126000828254613666919061485c565b9091555050604051339089156108fc02908a906000818181858888f19350505050158015613698573d6000803e3d6000fd5b5060405188815233907fac59582e5396aca512fa873a2047e7f4c80f8f55d4a06cb34a78a0187f62719f9060200160405180910390a25050600d805460ff19169055505050505050565b6136ea614328565b6001600160a01b0381166137405760405162461bcd60e51b815260206004820152601f60248201527f496e76616c6964206c656e64696e67206d616e616765722061646472657373006044820152606401611156565b600f80546001600160a01b0319166001600160a01b0392909216919091179055565b60606000805b6009548110156137cc57600160006009838154811061378957613789614bfe565b60009182526020808320909101546001600160a01b0316835282019290925260400190205460ff16156137c457816137c081614e13565b9250505b600101613768565b5060008167ffffffffffffffff8111156137e8576137e8614d14565b604051908082528060200260200182016040528015613811578160200160208202803683370190505b5090506000805b6009548110156120d35760006009828154811061383757613837614bfe565b60009182526020808320909101546001600160a01b0316808352600190915260409091205490915060ff16156138a0578084848151811061387a5761387a614bfe565b6001600160a01b03909216602092830291909101909101528261389c81614e13565b9350505b50600101613818565b6138b2826112f6565b6138bb8161431e565b61133483836143ff565b6138cd614328565b6201518081111561390c5760405162461bcd60e51b8152602060048201526009602482015268546f6f206c6172676560b81b6044820152606401611156565b6001600160a01b03909116600090815260146020526040902055565b600d5460ff161561394b5760405162461bcd60e51b815260040161115690614e2c565b600d805460ff19166001179055600f54336001600160a01b03909116146139bf5760405162461bcd60e51b815260206004820152602260248201527f4f6e6c79206c656e64696e67206d616e616765722063616e2063616c6c207468604482015261697360f01b6064820152608401611156565b47811115613a0f5760405162461bcd60e51b815260206004820152601d60248201527f496e73756666696369656e7420636f6e74726163742062616c616e63650000006044820152606401611156565b604051339082156108fc029083906000818181858888f19350505050158015613a3c573d6000803e3d6000fd5b5050600d805460ff19169055565b6000613a558261265f565b5090508015613a9c5760405162461bcd60e51b8152602060048201526013602482015272506f736974696f6e206973206865616c74687960681b6044820152606401611156565b6001600160a01b03821660009081526005602052604090205460ff1615613b055760405162461bcd60e51b815260206004820152601b60248201527f4c69717569646174696f6e20616c7265616479207374617274656400000000006044820152606401611156565b6001600160a01b0382166000818152600560209081526040808320805460ff191660011790556006909152808220429055517f7f62ed89ea2c6fb057e4ea77729c1d3f18056339791fce29ac89760197b45b299190a25050565b6060600a805480602002602001604051908101604052809291908181526020018280548015613bb757602002820191906000526020600020905b81546001600160a01b03168152600190910190602001808311613b99575b5050505050905090565b6001600160a01b03811660009081526005602052604090205460ff16613c345760405162461bcd60e51b815260206004820152602260248201527f4163636f756e74206e6f74206d61726b656420666f72206c697175696461746960448201526137b760f11b6064820152608401611156565b6001600160a01b038116600090815260066020526040902054613c5b906203f4809061485c565b421015613ca35760405162461bcd60e51b815260206004820152601660248201527511dc9858d9481c195c9a5bd9081b9bdd08195b99195960521b6044820152606401611156565b6000613cad613762565b905060005b8151811015613d3157613cdd828281518110613cd057613cd0614bfe565b6020026020010151613f58565b613d295760405162461bcd60e51b815260206004820181905260248201527f4f7261636c65206369726375697420627265616b6572207472696767657265646044820152606401611156565b600101613cb2565b506001600160a01b038216600090815260036020526040812054906064613d59600584614c76565b613d639190614c8d565b90506000613d71828461485c565b905060005b8451811015613e64576000858281518110613d9357613d93614bfe565b6020908102919091018101516001600160a01b0380821660009081528084526040808220928c16825291909352909120549091508015613e5a576001600160a01b03828116600081815260208181526040808320948d16835293905282812055905163a9059cbb60e01b81523360048201526024810183905263a9059cbb906044016020604051808303816000875af1158015613e34573d6000803e3d6000fd5b505050506040513d601f19601f82011682018060405250810190613e589190614baa565b505b5050600101613d76565b506001600160a01b03851660009081526003602090815260408083208390556004825280832083905560058252808320805460ff19169055600690915281208190558390601190613eb488611cc2565b6004811115613ec557613ec56149f6565b6004811115613ed657613ed66149f6565b81526020019081526020016000206000828254613ef39190614caf565b925050819055508260136000828254613f0c919061485c565b909155505060405181815233906001600160a01b038716907f1175522017e08c2f400d7e516608eff60816ee9e8319158d174321234b6026319060200160405180910390a35050505050565b6001600160a01b0380821660009081526008602052604081205490911680613f835750600092915050565b60008190506000806000836001600160a01b031663feaf968c6040518163ffffffff1660e01b815260040160a060405180830381865afa158015613fcb573d6000803e3d6000fd5b505050506040513d601f19601f82011682018060405250810190613fef9190614f60565b945094505050925061400087614591565b61400a8342614caf565b111561401d575060009695505050505050565b826001600160501b0316816001600160501b03161015614044575060009695505050505050565b5060019695505050505050565b60008061405d8361463d565b506001600160a01b0380851660009081526008602090815260409182902054825163313ce56760e01b8152925194955090921692839263313ce56792600480820193918290030181865afa1580156140b9573d6000803e3d6000fd5b505050506040513d601f19601f820116820180604052508101906140dd9190614fb2565b6140e8906012614fd5565b6140f390600a6150d5565b611d569083614c76565b614105614328565b6001600160a01b03811661412f57604051631e4fbdf760e01b815260006004820152602401611156565b6141388161447b565b50565b600080805260116020527f4ad3b33220dddc71b994a52d72c06b10862965f7d926534c05c00fb7e819e7b75481908190614176906001614c76565b614180908361485c565b600160005260116020527f17bc176d2408558f6e4111feebc3cab4e16b63e967be91cde721f4c8a488b552549092506141ba906002614c76565b6141c4908361485c565b600260005260116020527f08037d7b151cc412d25674a4e66b334d9ae9d2e5517a7feaae5cdb828bf1c628549092506141fe906003614c76565b614208908361485c565b600360005260116020527f9bfbaa59f8e10e7868f8b402de9d605a390c45ddaebd8c9de3c6f31e733c87ff54909250614242906004614c76565b61424c908361485c565b60116020527f9bfbaa59f8e10e7868f8b402de9d605a390c45ddaebd8c9de3c6f31e733c87ff547f08037d7b151cc412d25674a4e66b334d9ae9d2e5517a7feaae5cdb828bf1c628547f17bc176d2408558f6e4111feebc3cab4e16b63e967be91cde721f4c8a488b55254600080527f4ad3b33220dddc71b994a52d72c06b10862965f7d926534c05c00fb7e819e7b754939550919290916142ed9161485c565b6142f7919061485c565b614301919061485c565b9050806000036143145760009250505090565b612bc58183614c8d565b61413881336147c6565b33614331612631565b6001600160a01b0316146123fc5760405163118cdaa760e01b8152336004820152602401611156565b600060008051602061510583398151915261437584846126ea565b6143f5576000848152602082815260408083206001600160a01b03871684529091529020805460ff191660011790556143ab3390565b6001600160a01b0316836001600160a01b0316857f2f8788117e7eff1d82e926ec794901d17c78024a50270940304540a733656f0d60405160405180910390a460019150506110f5565b60009150506110f5565b600060008051602061510583398151915261441a84846126ea565b156143f5576000848152602082815260408083206001600160a01b0387168085529252808320805460ff1916905551339287917ff6391f5c32d9c69d2a47ea670b442974b53935d1edc7fd64eb21e047a839171b9190a460019150506110f5565b7f9016d09d72d40fdae2fd8ceac6b6234c7706214fd39c1cd1e609a0528c19930080546001600160a01b031981166001600160a01b03848116918217845560405192169182907f8be0079c531659141344cd1fd0a4f28419497f9722a3daafe3b4186f6b6457e090600090a3505050565b6000807ff0c57e16840df040f15088dc2f81fe391c3923bec73e23a9662efc9c229c6a006110f5565b61451d6147ff565b61413881614824565b6123fc6147ff565b6000805160206151058339815191526000614548846112f6565b600085815260208490526040808220600101869055519192508491839187917fbd79b86ffe0ab8e8776151514217cd7cacd52c909f66475c3af44e129f0b00ff9190a450505050565b6001600160a01b03811660009081526014602052604081205480156145b65792915050565b600e54604051631a650cc760e01b81526001600160a01b03858116600483015290911690631a650cc790602401602060405180830381865afa158015614600573d6000803e3d6000fd5b505050506040513d601f19601f820116820180604052508101906146249190614baa565b156146335750610e1092915050565b5061038492915050565b6001600160a01b0380821660009081526008602052604081205490918291168061469e5760405162461bcd60e51b8152602060048201526012602482015271141c9a58d94819995959081b9bdd081cd95d60721b6044820152606401611156565b6000819050600080600080846001600160a01b031663feaf968c6040518163ffffffff1660e01b815260040160a060405180830381865afa1580156146e7573d6000803e3d6000fd5b505050506040513d601f19601f8201168201806040525081019061470b9190614f60565b94509450509350935061471d89614591565b6147278342614caf565b11156147635760405162461bcd60e51b815260206004820152600b60248201526a5374616c6520707269636560a81b6044820152606401611156565b836001600160501b0316816001600160501b031610156147b85760405162461bcd60e51b815260206004820152601060248201526f5374616c6520726f756e64206461746160801b6044820152606401611156565b509097909650945050505050565b6147d082826126ea565b6123a55760405163e2517d3f60e01b81526001600160a01b038216600482015260248101839052604401611156565b61480761482c565b6123fc57604051631afcd79f60e31b815260040160405180910390fd5b6141056147ff565b60006148366144ec565b54600160401b900460ff16919050565b634e487b7160e01b600052601160045260246000fd5b808201808211156110f5576110f5614846565b80356001600160a01b038116811461488657600080fd5b919050565b60006020828403121561489d57600080fd5b611d878261486f565b6000602082840312156148b857600080fd5b81356001600160e01b031981168114611d8757600080fd5b600080604083850312156148e357600080fd5b6148ec8361486f565b946020939093013593505050565b60006020828403121561490c57600080fd5b5035919050565b6000806040838503121561492657600080fd5b823591506149366020840161486f565b90509250929050565b60008060008060008060c0878903121561495857600080fd5b505084359660208601359650604086013595606081013595506080810135945060a0013592509050565b6000806020838503121561499557600080fd5b823567ffffffffffffffff8111156149ac57600080fd5b8301601f810185136149bd57600080fd5b803567ffffffffffffffff8111156149d457600080fd5b8560208284010111156149e657600080fd5b6020919091019590945092505050565b634e487b7160e01b600052602160045260246000fd5b6020810160058310614a2e57634e487b7160e01b600052602160045260246000fd5b91905290565b60008060408385031215614a4757600080fd5b614a508361486f565b91506149366020840161486f565b801515811461413857600080fd5b60008060408385031215614a7f57600080fd5b614a888361486f565b91506020830135614a9881614a5e565b809150509250929050565b8215158152604060208201526000825180604084015260005b81811015614ad95760208186018101516060868401015201614abc565b506000606082850101526060601f19601f8301168401019150509392505050565b600060208284031215614b0c57600080fd5b813560058110611d8757600080fd5b600080600060608486031215614b3057600080fd5b614b398461486f565b9250614b476020850161486f565b9150614b556040850161486f565b90509250925092565b602080825282518282018190526000918401906040840190835b81811015614b9f5783516001600160a01b0316835260209384019390920191600101614b78565b509095945050505050565b600060208284031215614bbc57600080fd5b8151611d8781614a5e565b6020808252601f908201527f546f6b656e206e6f7420616c6c6f77656420617320636f6c6c61746572616c00604082015260600190565b634e487b7160e01b600052603260045260246000fd5b602080825260119082015270151bdad95b881b9bdd08185b1b1bddd959607a1b604082015260600190565b60208082526019908201527f4163636f756e7420697320696e206c69717569646174696f6e00000000000000604082015260600190565b80820281158282048414176110f5576110f5614846565b600082614caa57634e487b7160e01b600052601260045260246000fd5b500490565b818103818111156110f5576110f5614846565b60208082526032908201527f5769746864726177616c20776f756c64206d616b6520706f736974696f6e20756040820152711b99195c98dbdb1b185d195c985b1a5e995960721b606082015260800190565b634e487b7160e01b600052604160045260246000fd5b600060208284031215614d3c57600080fd5b813567ffffffffffffffff811115614d5357600080fd5b8201601f81018413614d6457600080fd5b803567ffffffffffffffff811115614d7e57614d7e614d14565b8060051b604051601f19603f830116810181811067ffffffffffffffff82111715614dab57614dab614d14565b604052918252602081840181019290810187841115614dc957600080fd5b6020850194505b83851015614def57614de18561486f565b815260209485019401614dd0565b509695505050505050565b600060208284031215614e0c57600080fd5b5051919050565b600060018201614e2557614e25614846565b5060010190565b6020808252600d908201526c4e6f207265656e7472616e637960981b604082015260600190565b60208082526030908201527f426f72726f7720616d6f756e74206578636565647320617661696c61626c652060408201526f6c656e64696e6720636170616369747960801b606082015260800190565b60208082526025908201527f426f72726f7720616d6f756e74206578636565647320796f75722074696572206040820152641b1a5b5a5d60da1b606082015260800190565b60208082526025908201527f496e73756666696369656e7420636f6c6c61746572616c20666f722074686973604082015264103637b0b760d91b606082015260800190565b6000600160ff1b8201614f4257614f42614846565b5060000390565b80516001600160501b038116811461488657600080fd5b600080600080600060a08688031215614f7857600080fd5b614f8186614f49565b60208701516040880151606089015192975090955093509150614fa660808701614f49565b90509295509295909350565b600060208284031215614fc457600080fd5b815160ff81168114611d8757600080fd5b60ff82811682821603908111156110f5576110f5614846565b6001815b60018411156150295780850481111561500d5761500d614846565b600184161561501b57908102905b60019390931c928002614ff2565b935093915050565b600082615040575060016110f5565b8161504d575060006110f5565b8160018114615063576002811461506d57615089565b60019150506110f5565b60ff84111561507e5761507e614846565b50506001821b6110f5565b5060208310610133831016604e8410600b84101617156150ac575081810a6110f5565b6150b96000198484614fee565b80600019048211156150cd576150cd614846565b029392505050565b6000611d8760ff84168361503156fe3c364b9decdac59fbe037e99687219ac0feed46572bfbcbd5284b6b8e67f402d02dd7bc7dec4dceedda775e58dd541e08a116c6c53815c0bd028192f7b626800a26469706673582212203138cccc096d4e951eeb5a2b70a677915296e8a3bf46463c0c39d5c7208e406364736f6c634300081c0033",
  "linkReferences": {},
  "deployedLinkReferences": {}
}