{
  "_format": "hh-sol-artifact-1",
  "contractName": "LiquidityPoolV3",
  "sourceName": "contracts/LiquidityPoolV3.sol",
  "abi": [
    {
      "inputs": [],
      "name": "AccessControlBadConfirmation",
      "type": "error"
    },
    {
      "inputs": [
        {
          "internalType": "address",
          "name": "account",
          "type": "address"
        },
        {
          "internalType": "bytes32",
          "name": "neededRole",
          "type": "bytes32"
        }
      ],
      "name": "AccessControlUnauthorizedAccount",
      "type": "error"
    },
    {
      "inputs": [],
      "name": "InvalidInitialization",
      "type": "error"
    },
    {
      "inputs": [],
      "name": "NotInitializing",
      "type": "error"
    },
    {
      "inputs": [
        {
          "internalType": "address",
          "name": "owner",
          "type": "address"
        }
      ],
      "name": "OwnableInvalidOwner",
      "type": "error"
    },
    {
      "inputs": [
        {
          "internalType": "address",
          "name": "account",
          "type": "address"
        }
      ],
      "name": "OwnableUnauthorizedAccount",
      "type": "error"
    },
    {
      "anonymous": false,
      "inputs": [
        {
          "indexed": true,
          "internalType": "address",
          "name": "user",
          "type": "address"
        },
        {
          "indexed": false,
          "internalType": "uint256",
          "name": "amount",
          "type": "uint256"
        }
      ],
      "name": "Borrowed",
      "type": "event"
    },
    {
      "anonymous": false,
      "inputs": [
        {
          "indexed": true,
          "internalType": "address",
          "name": "user",
          "type": "address"
        },
        {
          "indexed": true,
          "internalType": "address",
          "name": "token",
          "type": "address"
        },
        {
          "indexed": false,
          "internalType": "uint256",
          "name": "amount",
          "type": "uint256"
        }
      ],
      "name": "CollateralDeposited",
      "type": "event"
    },
    {
      "anonymous": false,
      "inputs": [
        {
          "indexed": true,
          "internalType": "address",
          "name": "token",
          "type": "address"
        },
        {
          "indexed": false,
          "internalType": "bool",
          "name": "isAllowed",
          "type": "bool"
        }
      ],
      "name": "CollateralTokenStatusChanged",
      "type": "event"
    },
    {
      "anonymous": false,
      "inputs": [
        {
          "indexed": true,
          "internalType": "address",
          "name": "user",
          "type": "address"
        },
        {
          "indexed": true,
          "internalType": "address",
          "name": "token",
          "type": "address"
        },
        {
          "indexed": false,
          "internalType": "uint256",
          "name": "amount",
          "type": "uint256"
        }
      ],
      "name": "CollateralWithdrawn",
      "type": "event"
    },
    {
      "anonymous": false,
      "inputs": [
        {
          "indexed": true,
          "internalType": "address",
          "name": "user",
          "type": "address"
        },
        {
          "indexed": false,
          "internalType": "uint256",
          "name": "score",
          "type": "uint256"
        }
      ],
      "name": "CreditScoreAssigned",
      "type": "event"
    },
    {
      "anonymous": false,
      "inputs": [
        {
          "indexed": false,
          "internalType": "bool",
          "name": "isPaused",
          "type": "bool"
        }
      ],
      "name": "EmergencyPaused",
      "type": "event"
    },
    {
      "anonymous": false,
      "inputs": [
        {
          "indexed": true,
          "internalType": "address",
          "name": "owner",
          "type": "address"
        },
        {
          "indexed": false,
          "internalType": "uint256",
          "name": "amount",
          "type": "uint256"
        }
      ],
      "name": "Extracted",
      "type": "event"
    },
    {
      "anonymous": false,
      "inputs": [
        {
          "indexed": true,
          "internalType": "address",
          "name": "user",
          "type": "address"
        },
        {
          "indexed": false,
          "internalType": "uint256",
          "name": "newDeadline",
          "type": "uint256"
        }
      ],
      "name": "GracePeriodExtended",
      "type": "event"
    },
    {
      "anonymous": false,
      "inputs": [
        {
          "indexed": false,
          "internalType": "uint64",
          "name": "version",
          "type": "uint64"
        }
      ],
      "name": "Initialized",
      "type": "event"
    },
    {
      "anonymous": false,
      "inputs": [
        {
          "indexed": true,
          "internalType": "address",
          "name": "user",
          "type": "address"
        },
        {
          "indexed": true,
          "internalType": "address",
          "name": "liquidator",
          "type": "address"
        },
        {
          "indexed": false,
          "internalType": "uint256",
          "name": "amount",
          "type": "uint256"
        }
      ],
      "name": "LiquidationExecuted",
      "type": "event"
    },
    {
      "anonymous": false,
      "inputs": [
        {
          "indexed": true,
          "internalType": "address",
          "name": "user",
          "type": "address"
        }
      ],
      "name": "LiquidationStarted",
      "type": "event"
    },
    {
      "anonymous": false,
      "inputs": [
        {
          "indexed": true,
          "internalType": "address",
          "name": "previousOwner",
          "type": "address"
        },
        {
          "indexed": true,
          "internalType": "address",
          "name": "newOwner",
          "type": "address"
        }
      ],
      "name": "OwnershipTransferred",
      "type": "event"
    },
    {
      "anonymous": false,
      "inputs": [
        {
          "indexed": true,
          "internalType": "address",
          "name": "user",
          "type": "address"
        },
        {
          "indexed": false,
          "internalType": "uint256",
          "name": "amount",
          "type": "uint256"
        }
      ],
      "name": "Repaid",
      "type": "event"
    },
    {
      "anonymous": false,
      "inputs": [
        {
          "indexed": true,
          "internalType": "bytes32",
          "name": "role",
          "type": "bytes32"
        },
        {
          "indexed": true,
          "internalType": "bytes32",
          "name": "previousAdminRole",
          "type": "bytes32"
        },
        {
          "indexed": true,
          "internalType": "bytes32",
          "name": "newAdminRole",
          "type": "bytes32"
        }
      ],
      "name": "RoleAdminChanged",
      "type": "event"
    },
    {
      "anonymous": false,
      "inputs": [
        {
          "indexed": true,
          "internalType": "bytes32",
          "name": "role",
          "type": "bytes32"
        },
        {
          "indexed": true,
          "internalType": "address",
          "name": "account",
          "type": "address"
        },
        {
          "indexed": true,
          "internalType": "address",
          "name": "sender",
          "type": "address"
        }
      ],
      "name": "RoleGranted",
      "type": "event"
    },
    {
      "anonymous": false,
      "inputs": [
        {
          "indexed": true,
          "internalType": "bytes32",
          "name": "role",
          "type": "bytes32"
        },
        {
          "indexed": true,
          "internalType": "address",
          "name": "account",
          "type": "address"
        },
        {
          "indexed": true,
          "internalType": "address",
          "name": "sender",
          "type": "address"
        }
      ],
      "name": "RoleRevoked",
      "type": "event"
    },
    {
      "anonymous": false,
      "inputs": [
        {
          "indexed": true,
          "internalType": "address",
          "name": "user",
          "type": "address"
        },
        {
          "indexed": false,
          "internalType": "string",
          "name": "message",
          "type": "string"
        }
      ],
      "name": "UserError",
      "type": "event"
    },
    {
      "inputs": [],
      "name": "DEFAULT_ADMIN_ROLE",
      "outputs": [
        {
          "internalType": "bytes32",
          "name": "",
          "type": "bytes32"
        }
      ],
      "stateMutability": "view",
      "type": "function"
    },
    {
      "inputs": [],
      "name": "DEFAULT_LIQUIDATION_THRESHOLD",
      "outputs": [
        {
          "internalType": "uint256",
          "name": "",
          "type": "uint256"
        }
      ],
      "stateMutability": "view",
      "type": "function"
    },
    {
      "inputs": [],
      "name": "GRACE_PERIOD",
      "outputs": [
        {
          "internalType": "uint256",
          "name": "",
          "type": "uint256"
        }
      ],
      "stateMutability": "view",
      "type": "function"
    },
    {
      "inputs": [],
      "name": "LIQUIDATION_PENALTY",
      "outputs": [
        {
          "internalType": "uint256",
          "name": "",
          "type": "uint256"
        }
      ],
      "stateMutability": "view",
      "type": "function"
    },
    {
      "inputs": [
        {
          "internalType": "address",
          "name": "lender",
          "type": "address"
        }
      ],
      "name": "baseLenderAPR",
      "outputs": [
        {
          "internalType": "uint256",
          "name": "",
          "type": "uint256"
        }
      ],
      "stateMutability": "view",
      "type": "function"
    },
    {
      "inputs": [
        {
          "internalType": "uint256",
          "name": "amount",
          "type": "uint256"
        }
      ],
      "name": "borrow",
      "outputs": [],
      "stateMutability": "nonpayable",
      "type": "function"
    },
    {
      "inputs": [
        {
          "internalType": "uint256",
          "name": "",
          "type": "uint256"
        }
      ],
      "name": "borrowTierConfigs",
      "outputs": [
        {
          "internalType": "uint256",
          "name": "minScore",
          "type": "uint256"
        },
        {
          "internalType": "uint256",
          "name": "maxScore",
          "type": "uint256"
        },
        {
          "internalType": "uint256",
          "name": "collateralRatio",
          "type": "uint256"
        },
        {
          "internalType": "int256",
          "name": "interestRateModifier",
          "type": "int256"
        },
        {
          "internalType": "uint256",
          "name": "maxLoanAmount",
          "type": "uint256"
        }
      ],
      "stateMutability": "view",
      "type": "function"
    },
    {
      "inputs": [
        {
          "internalType": "address",
          "name": "",
          "type": "address"
        }
      ],
      "name": "borrowTimestamp",
      "outputs": [
        {
          "internalType": "uint256",
          "name": "",
          "type": "uint256"
        }
      ],
      "stateMutability": "view",
      "type": "function"
    },
    {
      "inputs": [
        {
          "internalType": "enum LiquidityPoolV3.RiskTier",
          "name": "",
          "type": "uint8"
        }
      ],
      "name": "borrowedAmountByRiskTier",
      "outputs": [
        {
          "internalType": "uint256",
          "name": "",
          "type": "uint256"
        }
      ],
      "stateMutability": "view",
      "type": "function"
    },
    {
      "inputs": [
        {
          "internalType": "address",
          "name": "user",
          "type": "address"
        }
      ],
      "name": "checkCollateralization",
      "outputs": [
        {
          "internalType": "bool",
          "name": "isHealthy",
          "type": "bool"
        },
        {
          "internalType": "uint256",
          "name": "ratio",
          "type": "uint256"
        }
      ],
      "stateMutability": "view",
      "type": "function"
    },
    {
      "inputs": [
        {
          "internalType": "bytes",
          "name": "",
          "type": "bytes"
        }
      ],
      "name": "checkUpkeep",
      "outputs": [
        {
          "internalType": "bool",
          "name": "upkeepNeeded",
          "type": "bool"
        },
        {
          "internalType": "bytes",
          "name": "performData",
          "type": "bytes"
        }
      ],
      "stateMutability": "view",
      "type": "function"
    },
    {
      "inputs": [
        {
          "internalType": "address",
          "name": "",
          "type": "address"
        },
        {
          "internalType": "address",
          "name": "",
          "type": "address"
        }
      ],
      "name": "collateralBalance",
      "outputs": [
        {
          "internalType": "uint256",
          "name": "",
          "type": "uint256"
        }
      ],
      "stateMutability": "view",
      "type": "function"
    },
    {
      "inputs": [
        {
          "internalType": "uint256",
          "name": "",
          "type": "uint256"
        }
      ],
      "name": "collateralTokenList",
      "outputs": [
        {
          "internalType": "address",
          "name": "",
          "type": "address"
        }
      ],
      "stateMutability": "view",
      "type": "function"
    },
    {
      "inputs": [
        {
          "internalType": "address",
          "name": "",
          "type": "address"
        }
      ],
      "name": "creditScore",
      "outputs": [
        {
          "internalType": "uint256",
          "name": "",
          "type": "uint256"
        }
      ],
      "stateMutability": "view",
      "type": "function"
    },
    {
      "inputs": [
        {
          "internalType": "address",
          "name": "token",
          "type": "address"
        },
        {
          "internalType": "uint256",
          "name": "amount",
          "type": "uint256"
        }
      ],
      "name": "depositCollateral",
      "outputs": [],
      "stateMutability": "nonpayable",
      "type": "function"
    },
    {
      "inputs": [
        {
          "internalType": "address",
          "name": "user",
          "type": "address"
        }
      ],
      "name": "executeLiquidation",
      "outputs": [],
      "stateMutability": "nonpayable",
      "type": "function"
    },
    {
      "inputs": [
        {
          "internalType": "uint256",
          "name": "amount",
          "type": "uint256"
        }
      ],
      "name": "extract",
      "outputs": [],
      "stateMutability": "nonpayable",
      "type": "function"
    },
    {
      "inputs": [],
      "name": "getAdmin",
      "outputs": [
        {
          "internalType": "address",
          "name": "",
          "type": "address"
        }
      ],
      "stateMutability": "view",
      "type": "function"
    },
    {
      "inputs": [],
      "name": "getAllUsers",
      "outputs": [
        {
          "internalType": "address[]",
          "name": "",
          "type": "address[]"
        }
      ],
      "stateMutability": "view",
      "type": "function"
    },
    {
      "inputs": [],
      "name": "getAllowedCollateralTokens",
      "outputs": [
        {
          "internalType": "address[]",
          "name": "",
          "type": "address[]"
        }
      ],
      "stateMutability": "view",
      "type": "function"
    },
    {
      "inputs": [],
      "name": "getBalance",
      "outputs": [
        {
          "internalType": "uint256",
          "name": "",
          "type": "uint256"
        }
      ],
      "stateMutability": "view",
      "type": "function"
    },
    {
      "inputs": [
        {
          "internalType": "address",
          "name": "user",
          "type": "address"
        }
      ],
      "name": "getBorrowTerms",
      "outputs": [
        {
          "internalType": "uint256",
          "name": "collateralRatio",
          "type": "uint256"
        },
        {
          "internalType": "int256",
          "name": "interestRateModifier",
          "type": "int256"
        },
        {
          "internalType": "uint256",
          "name": "maxLoanAmount",
          "type": "uint256"
        }
      ],
      "stateMutability": "view",
      "type": "function"
    },
    {
      "inputs": [
        {
          "internalType": "address",
          "name": "user",
          "type": "address"
        },
        {
          "internalType": "address",
          "name": "token",
          "type": "address"
        }
      ],
      "name": "getCollateral",
      "outputs": [
        {
          "internalType": "uint256",
          "name": "",
          "type": "uint256"
        }
      ],
      "stateMutability": "view",
      "type": "function"
    },
    {
      "inputs": [
        {
          "internalType": "address",
          "name": "user",
          "type": "address"
        }
      ],
      "name": "getCreditScore",
      "outputs": [
        {
          "internalType": "uint256",
          "name": "",
          "type": "uint256"
        }
      ],
      "stateMutability": "view",
      "type": "function"
    },
    {
      "inputs": [
        {
          "internalType": "address",
          "name": "token",
          "type": "address"
        }
      ],
      "name": "getLiquidationThreshold",
      "outputs": [
        {
          "internalType": "uint256",
          "name": "",
          "type": "uint256"
        }
      ],
      "stateMutability": "view",
      "type": "function"
    },
    {
      "inputs": [
        {
          "internalType": "address",
          "name": "user",
          "type": "address"
        },
        {
          "internalType": "address",
          "name": "token",
          "type": "address"
        }
      ],
      "name": "getMaxBorrowAmount",
      "outputs": [
        {
          "internalType": "uint256",
          "name": "",
          "type": "uint256"
        }
      ],
      "stateMutability": "view",
      "type": "function"
    },
    {
      "inputs": [],
      "name": "getMinCollateralRatio",
      "outputs": [
        {
          "internalType": "uint256",
          "name": "",
          "type": "uint256"
        }
      ],
      "stateMutability": "pure",
      "type": "function"
    },
    {
      "inputs": [],
      "name": "getMyDebt",
      "outputs": [
        {
          "internalType": "uint256",
          "name": "",
          "type": "uint256"
        }
      ],
      "stateMutability": "view",
      "type": "function"
    },
    {
      "inputs": [
        {
          "internalType": "address",
          "name": "token",
          "type": "address"
        }
      ],
      "name": "getPriceFeed",
      "outputs": [
        {
          "internalType": "address",
          "name": "",
          "type": "address"
        }
      ],
      "stateMutability": "view",
      "type": "function"
    },
    {
      "inputs": [
        {
          "internalType": "address",
          "name": "lender",
          "type": "address"
        }
      ],
      "name": "getRealTimeReturnRate",
      "outputs": [
        {
          "internalType": "uint256",
          "name": "",
          "type": "uint256"
        }
      ],
      "stateMutability": "view",
      "type": "function"
    },
    {
      "inputs": [],
      "name": "getRiskMultiplier",
      "outputs": [
        {
          "internalType": "uint256",
          "name": "",
          "type": "uint256"
        }
      ],
      "stateMutability": "view",
      "type": "function"
    },
    {
      "inputs": [
        {
          "internalType": "address",
          "name": "user",
          "type": "address"
        }
      ],
      "name": "getRiskTier",
      "outputs": [
        {
          "internalType": "enum LiquidityPoolV3.RiskTier",
          "name": "",
          "type": "uint8"
        }
      ],
      "stateMutability": "view",
      "type": "function"
    },
    {
      "inputs": [
        {
          "internalType": "bytes32",
          "name": "role",
          "type": "bytes32"
        }
      ],
      "name": "getRoleAdmin",
      "outputs": [
        {
          "internalType": "bytes32",
          "name": "",
          "type": "bytes32"
        }
      ],
      "stateMutability": "view",
      "type": "function"
    },
    {
      "inputs": [
        {
          "internalType": "address",
          "name": "token",
          "type": "address"
        }
      ],
      "name": "getTokenValue",
      "outputs": [
        {
          "internalType": "uint256",
          "name": "",
          "type": "uint256"
        }
      ],
      "stateMutability": "view",
      "type": "function"
    },
    {
      "inputs": [
        {
          "internalType": "address",
          "name": "user",
          "type": "address"
        }
      ],
      "name": "getTotalCollateralValue",
      "outputs": [
        {
          "internalType": "uint256",
          "name": "",
          "type": "uint256"
        }
      ],
      "stateMutability": "view",
      "type": "function"
    },
    {
      "inputs": [],
      "name": "getWeightedRiskScore",
      "outputs": [
        {
          "internalType": "uint256",
          "name": "",
          "type": "uint256"
        }
      ],
      "stateMutability": "view",
      "type": "function"
    },
    {
      "inputs": [
        {
          "internalType": "bytes32",
          "name": "role",
          "type": "bytes32"
        },
        {
          "internalType": "address",
          "name": "account",
          "type": "address"
        }
      ],
      "name": "grantRole",
      "outputs": [],
      "stateMutability": "nonpayable",
      "type": "function"
    },
    {
      "inputs": [
        {
          "internalType": "bytes32",
          "name": "role",
          "type": "bytes32"
        },
        {
          "internalType": "address",
          "name": "account",
          "type": "address"
        }
      ],
      "name": "hasRole",
      "outputs": [
        {
          "internalType": "bool",
          "name": "",
          "type": "bool"
        }
      ],
      "stateMutability": "view",
      "type": "function"
    },
    {
      "inputs": [
        {
          "internalType": "address",
          "name": "initialOwner",
          "type": "address"
        },
        {
          "internalType": "address",
          "name": "_stablecoinManager",
          "type": "address"
        },
        {
          "internalType": "address",
          "name": "_lendingManager",
          "type": "address"
        }
      ],
      "name": "initialize",
      "outputs": [],
      "stateMutability": "nonpayable",
      "type": "function"
    },
    {
      "inputs": [
        {
          "internalType": "address",
          "name": "",
          "type": "address"
        }
      ],
      "name": "isAllowedCollateral",
      "outputs": [
        {
          "internalType": "bool",
          "name": "",
          "type": "bool"
        }
      ],
      "stateMutability": "view",
      "type": "function"
    },
    {
      "inputs": [
        {
          "internalType": "address",
          "name": "",
          "type": "address"
        }
      ],
      "name": "isKnownUser",
      "outputs": [
        {
          "internalType": "bool",
          "name": "",
          "type": "bool"
        }
      ],
      "stateMutability": "view",
      "type": "function"
    },
    {
      "inputs": [
        {
          "internalType": "address",
          "name": "",
          "type": "address"
        }
      ],
      "name": "isLiquidatable",
      "outputs": [
        {
          "internalType": "bool",
          "name": "",
          "type": "bool"
        }
      ],
      "stateMutability": "view",
      "type": "function"
    },
    {
      "inputs": [],
      "name": "isPaused",
      "outputs": [
        {
          "internalType": "bool",
          "name": "",
          "type": "bool"
        }
      ],
      "stateMutability": "view",
      "type": "function"
    },
    {
      "inputs": [],
      "name": "lendingManager",
      "outputs": [
        {
          "internalType": "contract LendingManager",
          "name": "",
          "type": "address"
        }
      ],
      "stateMutability": "view",
      "type": "function"
    },
    {
      "inputs": [
        {
          "internalType": "address",
          "name": "",
          "type": "address"
        }
      ],
      "name": "liquidationStartTime",
      "outputs": [
        {
          "internalType": "uint256",
          "name": "",
          "type": "uint256"
        }
      ],
      "stateMutability": "view",
      "type": "function"
    },
    {
      "inputs": [
        {
          "internalType": "address",
          "name": "",
          "type": "address"
        }
      ],
      "name": "liquidationThreshold",
      "outputs": [
        {
          "internalType": "uint256",
          "name": "",
          "type": "uint256"
        }
      ],
      "stateMutability": "view",
      "type": "function"
    },
    {
      "inputs": [],
      "name": "liquidator",
      "outputs": [
        {
          "internalType": "address",
          "name": "",
          "type": "address"
        }
      ],
      "stateMutability": "view",
      "type": "function"
    },
    {
      "inputs": [],
      "name": "locked",
      "outputs": [
        {
          "internalType": "bool",
          "name": "",
          "type": "bool"
        }
      ],
      "stateMutability": "view",
      "type": "function"
    },
    {
      "inputs": [],
      "name": "owner",
      "outputs": [
        {
          "internalType": "address",
          "name": "",
          "type": "address"
        }
      ],
      "stateMutability": "view",
      "type": "function"
    },
    {
      "inputs": [],
      "name": "paused",
      "outputs": [
        {
          "internalType": "bool",
          "name": "",
          "type": "bool"
        }
      ],
      "stateMutability": "view",
      "type": "function"
    },
    {
      "inputs": [
        {
          "internalType": "bytes",
          "name": "performData",
          "type": "bytes"
        }
      ],
      "name": "performUpkeep",
      "outputs": [],
      "stateMutability": "nonpayable",
      "type": "function"
    },
    {
      "inputs": [
        {
          "internalType": "address",
          "name": "",
          "type": "address"
        }
      ],
      "name": "priceFeed",
      "outputs": [
        {
          "internalType": "address",
          "name": "",
          "type": "address"
        }
      ],
      "stateMutability": "view",
      "type": "function"
    },
    {
      "inputs": [
        {
          "internalType": "address",
          "name": "token",
          "type": "address"
        },
        {
          "internalType": "uint256",
          "name": "amount",
          "type": "uint256"
        }
      ],
      "name": "recoverFromLiquidation",
      "outputs": [],
      "stateMutability": "nonpayable",
      "type": "function"
    },
    {
      "inputs": [],
      "name": "renounceOwnership",
      "outputs": [],
      "stateMutability": "nonpayable",
      "type": "function"
    },
    {
      "inputs": [
        {
          "internalType": "bytes32",
          "name": "role",
          "type": "bytes32"
        },
        {
          "internalType": "address",
          "name": "callerConfirmation",
          "type": "address"
        }
      ],
      "name": "renounceRole",
      "outputs": [],
      "stateMutability": "nonpayable",
      "type": "function"
    },
    {
      "inputs": [],
      "name": "repay",
      "outputs": [],
      "stateMutability": "payable",
      "type": "function"
    },
    {
      "inputs": [
        {
          "internalType": "bytes32",
          "name": "role",
          "type": "bytes32"
        },
        {
          "internalType": "address",
          "name": "account",
          "type": "address"
        }
      ],
      "name": "revokeRole",
      "outputs": [],
      "stateMutability": "nonpayable",
      "type": "function"
    },
    {
      "inputs": [
        {
          "internalType": "address",
          "name": "newAdmin",
          "type": "address"
        }
      ],
      "name": "setAdmin",
      "outputs": [],
      "stateMutability": "nonpayable",
      "type": "function"
    },
    {
      "inputs": [
        {
          "internalType": "address",
          "name": "token",
          "type": "address"
        },
        {
          "internalType": "bool",
          "name": "allowed",
          "type": "bool"
        }
      ],
      "name": "setAllowedCollateral",
      "outputs": [],
      "stateMutability": "nonpayable",
      "type": "function"
    },
    {
      "inputs": [
        {
          "internalType": "address",
          "name": "user",
          "type": "address"
        },
        {
          "internalType": "uint256",
          "name": "score",
          "type": "uint256"
        }
      ],
      "name": "setCreditScore",
      "outputs": [],
      "stateMutability": "nonpayable",
      "type": "function"
    },
    {
      "inputs": [
        {
          "internalType": "address",
          "name": "_lendingManager",
          "type": "address"
        }
      ],
      "name": "setLendingManager",
      "outputs": [],
      "stateMutability": "nonpayable",
      "type": "function"
    },
    {
      "inputs": [
        {
          "internalType": "address",
          "name": "token",
          "type": "address"
        },
        {
          "internalType": "uint256",
          "name": "threshold",
          "type": "uint256"
        }
      ],
      "name": "setLiquidationThreshold",
      "outputs": [],
      "stateMutability": "nonpayable",
      "type": "function"
    },
    {
      "inputs": [
        {
          "internalType": "address",
          "name": "_liquidator",
          "type": "address"
        }
      ],
      "name": "setLiquidator",
      "outputs": [],
      "stateMutability": "nonpayable",
      "type": "function"
    },
    {
      "inputs": [
        {
          "internalType": "address",
          "name": "token",
          "type": "address"
        },
        {
          "internalType": "address",
          "name": "feed",
          "type": "address"
        }
      ],
      "name": "setPriceFeed",
      "outputs": [],
      "stateMutability": "nonpayable",
      "type": "function"
    },
    {
      "inputs": [],
      "name": "stablecoinManager",
      "outputs": [
        {
          "internalType": "contract StablecoinManager",
          "name": "",
          "type": "address"
        }
      ],
      "stateMutability": "view",
      "type": "function"
    },
    {
      "inputs": [
        {
          "internalType": "address",
          "name": "user",
          "type": "address"
        }
      ],
      "name": "startLiquidation",
      "outputs": [],
      "stateMutability": "nonpayable",
      "type": "function"
    },
    {
      "inputs": [
        {
          "internalType": "bytes4",
          "name": "interfaceId",
          "type": "bytes4"
        }
      ],
      "name": "supportsInterface",
      "outputs": [
        {
          "internalType": "bool",
          "name": "",
          "type": "bool"
        }
      ],
      "stateMutability": "view",
      "type": "function"
    },
    {
      "inputs": [],
      "name": "togglePause",
      "outputs": [],
      "stateMutability": "nonpayable",
      "type": "function"
    },
    {
      "inputs": [],
      "name": "totalFunds",
      "outputs": [
        {
          "internalType": "uint256",
          "name": "",
          "type": "uint256"
        }
      ],
      "stateMutability": "view",
      "type": "function"
    },
    {
      "inputs": [
        {
          "internalType": "address",
          "name": "newOwner",
          "type": "address"
        }
      ],
      "name": "transferOwnership",
      "outputs": [],
      "stateMutability": "nonpayable",
      "type": "function"
    },
    {
      "inputs": [
        {
          "internalType": "uint256",
          "name": "tierIndex",
          "type": "uint256"
        },
        {
          "internalType": "uint256",
          "name": "minScore",
          "type": "uint256"
        },
        {
          "internalType": "uint256",
          "name": "maxScore",
          "type": "uint256"
        },
        {
          "internalType": "uint256",
          "name": "collateralRatio",
          "type": "uint256"
        },
        {
          "internalType": "int256",
          "name": "interestRateModifier",
          "type": "int256"
        },
        {
          "internalType": "uint256",
          "name": "maxLoanAmount",
          "type": "uint256"
        }
      ],
      "name": "updateBorrowTier",
      "outputs": [],
      "stateMutability": "nonpayable",
      "type": "function"
    },
    {
      "inputs": [
        {
          "internalType": "address",
          "name": "",
          "type": "address"
        }
      ],
      "name": "userDebt",
      "outputs": [
        {
          "internalType": "uint256",
          "name": "",
          "type": "uint256"
        }
      ],
      "stateMutability": "view",
      "type": "function"
    },
    {
      "inputs": [
        {
          "internalType": "uint256",
          "name": "",
          "type": "uint256"
        }
      ],
      "name": "users",
      "outputs": [
        {
          "internalType": "address",
          "name": "",
          "type": "address"
        }
      ],
      "stateMutability": "view",
      "type": "function"
    },
    {
      "inputs": [
        {
          "internalType": "address",
          "name": "token",
          "type": "address"
        },
        {
          "internalType": "uint256",
          "name": "amount",
          "type": "uint256"
        }
      ],
      "name": "withdrawCollateral",
      "outputs": [],
      "stateMutability": "nonpayable",
      "type": "function"
    },
    {
      "inputs": [
        {
          "internalType": "uint256",
          "name": "amount",
          "type": "uint256"
        }
      ],
      "name": "withdrawForLendingManager",
      "outputs": [],
      "stateMutability": "nonpayable",
      "type": "function"
    },
    {
      "stateMutability": "payable",
      "type": "receive"
    }
  ],
  "bytecode": "0x6080604052348015600f57600080fd5b50614a438061001f6000396000f3fe6080604052600436106104405760003560e01c80638e6b53bc11610234578063c4ae31681161012e578063e19fb8f5116100b6578063e84bae451161007a578063e84bae4514610dfc578063f1c5d6c214610e29578063f2fde38b14610e49578063f7e590ee14610e69578063feca846a14610e9657600080fd5b8063e19fb8f514610d52578063e1c5010014610d72578063e2842d7914610d92578063e2e2967914610da7578063e7602b9d14610dc757600080fd5b8063cf176225116100fd578063cf17622514610c93578063cf30901214610cb5578063d29255f914610ccf578063d3dd2bdf14610cfc578063d547741f14610d3257600080fd5b8063c4ae316814610c1e578063c5ebeaec14610c33578063c869d0ed14610c53578063c941f32114610c7357600080fd5b8063a5d5db0c116101bc578063b69e5c7711610180578063b69e5c7714610b78578063c0c53b8b14610ba5578063c129d50414610bc5578063c1a287e214610bda578063c23c69d514610bf157600080fd5b8063a5d5db0c14610ace578063a6727ce714610aee578063b1732b2514610b0e578063b187bd2614610b3b578063b3a5a0a214610b5857600080fd5b806397ed81cf1161020357806397ed81cf14610a4f5780639b8621d514610a6f5780639e3b77af14610a84578063a217fddf14610aa4578063a4cde48e14610ab957600080fd5b80638e6b53bc146109b257806391d14854146109e95780639490a51e14610a09578063968ed60014610a3957600080fd5b80634c8f35ab116103455780636e04ff0d116102cd5780637346f486116102915780637346f4861461090d57806376e112861461093d5780637b86e42c1461095d57806385b397821461097d5780638da5cb5b1461099d57600080fd5b80636e04ff0d1461084d5780636e9960c31461087b578063704b6c021461089057806370ed11bc146108b0578063715018a6146108f857600080fd5b806355f4d9e21161031457806355f4d9e2146107ae57806359ad586f146107ce5780635b6cca80146107ee5780635c975abb1461080e5780636c648fc41461082d57600080fd5b80634c8f35ab146107015780634c95da661461071557806352226ef01461074257806352ace3091461078757600080fd5b806330332f9f116103c857806338053ef31161039757806338053ef314610656578063402d8883146106915780634046ebae14610699578063450a375a146106bf5780634585e33b146106e157600080fd5b806330332f9f146105d6578063350c35e9146105f657806336568abe14610616578063365b98b21461063657600080fd5b80630e30428d1161040f5780630e30428d1461050b57806312065fe01461052b5780631fd48b9a14610548578063248a9ca3146105965780632f2ff15d146105b657600080fd5b806301c76f811461046457806301ffc9a714610486578063042e02cf146104bb578063080d9c2b146104eb57600080fd5b3661045f5734600c60008282546104579190614142565b925050819055005b600080fd5b34801561047057600080fd5b5061048461047f366004614171565b610eab565b005b34801561049257600080fd5b506104a66104a136600461418c565b610ee1565b60405190151581526020015b60405180910390f35b3480156104c757600080fd5b506104a66104d6366004614171565b60056020526000908152604090205460ff1681565b3480156104f757600080fd5b506104846105063660046141b6565b610f18565b34801561051757600080fd5b506104846105263660046141b6565b611067565b34801561053757600080fd5b50475b6040519081526020016104b2565b34801561055457600080fd5b5061057e610563366004614171565b6008602052600090815260409020546001600160a01b031681565b6040516001600160a01b0390911681526020016104b2565b3480156105a257600080fd5b5061053a6105b13660046141e0565b611113565b3480156105c257600080fd5b506104846105d13660046141f9565b611135565b3480156105e257600080fd5b506104846105f1366004614225565b611157565b34801561060257600080fd5b506104846106113660046141b6565b611224565b34801561062257600080fd5b506104846106313660046141f9565b611547565b34801561064257600080fd5b5061057e6106513660046141e0565b61157a565b34801561066257600080fd5b50610676610671366004614171565b6115a4565b604080519384526020840192909252908201526060016104b2565b61048461165f565b3480156106a557600080fd5b50600d5461057e906201000090046001600160a01b031681565b3480156106cb57600080fd5b503360009081526003602052604090205461053a565b3480156106ed57600080fd5b506104846106fc366004614268565b6119cd565b34801561070d57600080fd5b50608261053a565b34801561072157600080fd5b50610735610730366004614171565b611a72565b6040516104b291906142f2565b34801561074e57600080fd5b5061053a61075d36600461431a565b6001600160a01b038082166000908152602081815260408083209386168352929052205492915050565b34801561079357600080fd5b5061053a6107a2366004614171565b5066d529ae9e86000090565b3480156107ba57600080fd5b506104846107c9366004614352565b611b3e565b3480156107da57600080fd5b5061053a6107e936600461431a565b611c65565b3480156107fa57600080fd5b5061057e610809366004614171565b611d47565b34801561081a57600080fd5b50600d546104a690610100900460ff1681565b34801561083957600080fd5b5061053a610848366004614171565b611d9e565b34801561085957600080fd5b5061086d610868366004614268565b611e4c565b6040516104b2929190614389565b34801561088757600080fd5b5061057e61204b565b34801561089c57600080fd5b506104846108ab366004614171565b61205a565b3480156108bc57600080fd5b506108d06108cb3660046141e0565b6120ce565b604080519586526020860194909452928401919091526060830152608082015260a0016104b2565b34801561090457600080fd5b5061048461210f565b34801561091957600080fd5b506104a6610928366004614171565b60016020526000908152604090205460ff1681565b34801561094957600080fd5b5061048461095836600461431a565b612123565b34801561096957600080fd5b5061053a610978366004614171565b612191565b34801561098957600080fd5b506104846109983660046141e0565b612236565b3480156109a957600080fd5b5061057e612356565b3480156109be57600080fd5b506109d26109cd366004614171565b612384565b6040805192151583526020830191909152016104b2565b3480156109f557600080fd5b506104a6610a043660046141f9565b61240f565b348015610a1557600080fd5b506104a6610a24366004614171565b600b6020526000908152604090205460ff1681565b348015610a4557600080fd5b5061053a600c5481565b348015610a5b57600080fd5b50610484610a6a3660046141b6565b612447565b348015610a7b57600080fd5b5061053a600581565b348015610a9057600080fd5b50600f5461057e906001600160a01b031681565b348015610ab057600080fd5b5061053a600081565b348015610ac557600080fd5b5061053a612589565b348015610ada57600080fd5b50610484610ae93660046141b6565b612601565b348015610afa57600080fd5b5061053a610b09366004614171565b612882565b348015610b1a57600080fd5b5061053a610b29366004614171565b60076020526000908152604090205481565b348015610b4757600080fd5b50600d54610100900460ff166104a6565b348015610b6457600080fd5b5061057e610b733660046141e0565b6128b4565b348015610b8457600080fd5b5061053a610b93366004614171565b60036020526000908152604090205481565b348015610bb157600080fd5b50610484610bc03660046143e0565b6128c4565b348015610bd157600080fd5b5061053a608281565b348015610be657600080fd5b5061053a6203f48081565b348015610bfd57600080fd5b5061053a610c0c366004614171565b60066020526000908152604090205481565b348015610c2a57600080fd5b50610484612ccf565b348015610c3f57600080fd5b50610484610c4e3660046141e0565b612d39565b348015610c5f57600080fd5b50610484610c6e366004614171565b61334a565b348015610c7f57600080fd5b50600e5461057e906001600160a01b031681565b348015610c9f57600080fd5b50610ca86133ca565b6040516104b29190614423565b348015610cc157600080fd5b50600d546104a69060ff1681565b348015610cdb57600080fd5b5061053a610cea366004614171565b60046020526000908152604090205481565b348015610d0857600080fd5b5061053a610d17366004614171565b6001600160a01b031660009081526002602052604090205490565b348015610d3e57600080fd5b50610484610d4d3660046141f9565b613511565b348015610d5e57600080fd5b50610484610d6d3660046141e0565b61352d565b348015610d7e57600080fd5b50610484610d8d366004614171565b61364f565b348015610d9e57600080fd5b50610ca8613764565b348015610db357600080fd5b50610484610dc2366004614171565b6137c6565b348015610dd357600080fd5b5061053a610de236600461431a565b600060208181529281526040808220909352908152205481565b348015610e0857600080fd5b5061053a610e1736600461446f565b60116020526000908152604090205481565b348015610e3557600080fd5b5061053a610e44366004614171565b613ac1565b348015610e5557600080fd5b50610484610e64366004614171565b613c11565b348015610e7557600080fd5b5061053a610e84366004614171565b60026020526000908152604090205481565b348015610ea257600080fd5b5061053a613c4f565b6000610eb681613e39565b50600d80546001600160a01b03909216620100000262010000600160b01b0319909216919091179055565b60006001600160e01b03198216637965db0b60e01b1480610f1257506301ffc9a760e01b6001600160e01b03198316145b92915050565b3360009081526005602052604090205460ff16610f7c5760405162461bcd60e51b815260206004820152601a60248201527f4163636f756e74206e6f7420696e206c69717569646174696f6e00000000000060448201526064015b60405180910390fd5b6040516323b872dd60e01b8152336004820152306024820152604481018290526001600160a01b038316906323b872dd906064016020604051808303816000875af1158015610fcf573d6000803e3d6000fd5b505050506040513d601f19601f82011682018060405250810190610ff39190614490565b506001600160a01b03821660009081526020818152604080832033845290915281208054839290611025908490614142565b909155506000905061103633612384565b509050801561106257336000908152600560209081526040808320805460ff1916905560069091528120555b505050565b61106f613e43565b6001600160a01b03821660009081526001602052604090205460ff166110a75760405162461bcd60e51b8152600401610f73906144ad565b606481116110f75760405162461bcd60e51b815260206004820152601860248201527f5468726573686f6c64206d757374206265203e203130302500000000000000006044820152606401610f73565b6001600160a01b03909116600090815260076020526040902055565b60009081526000805160206149ee833981519152602052604090206001015490565b61113e82611113565b61114781613e39565b6111518383613e75565b50505050565b61115f613e43565b601054861061119f5760405162461bcd60e51b815260206004820152600c60248201526b24b73b30b634b2103a34b2b960a11b6044820152606401610f73565b6040518060a0016040528086815260200185815260200184815260200183815260200182815250601087815481106111d9576111d96144e4565b90600052602060002090600502016000820151816000015560208201518160010155604082015181600201556060820151816003015560808201518160040155905050505050505050565b6001600160a01b03821660009081526001602052604090205460ff1661128957336001600160a01b03166000805160206149ce833981519152604051611269906144fa565b60405180910390a260405162461bcd60e51b8152600401610f73906144fa565b6001600160a01b03821660009081526020818152604080832033845290915290205481111561134757336001600160a01b03166000805160206149ce83398151915260405161130090602080825260149082015273496e73756666696369656e742062616c616e636560601b604082015260600190565b60405180910390a260405162461bcd60e51b8152602060048201526014602482015273496e73756666696369656e742062616c616e636560601b6044820152606401610f73565b3360009081526005602052604090205460ff16156113a457336001600160a01b03166000805160206149ce83398151915260405161138490614525565b60405180910390a260405162461bcd60e51b8152600401610f7390614525565b6000670de0b6b3a76400006113b884613ac1565b6113c2908461455c565b6113cc9190614573565b6113d533611d9e565b6113df9190614595565b90506113ea83612191565b33600090815260036020526040902054611404919061455c565b61140f82606461455c565b101561145a57336001600160a01b03166000805160206149ce83398151915260405161143a906145a8565b60405180910390a260405162461bcd60e51b8152600401610f73906145a8565b6001600160a01b0383166000908152602081815260408083203384529091528120805484929061148b908490614595565b909155505060405163a9059cbb60e01b8152336004820152602481018390526001600160a01b0384169063a9059cbb906044016020604051808303816000875af11580156114dd573d6000803e3d6000fd5b505050506040513d601f19601f820116820180604052508101906115019190614490565b506040518281526001600160a01b0384169033907f45892a46e6cef329bb642da6d69846d324db43d19008edc141ed82382eda1bee9060200160405180910390a3505050565b6001600160a01b03811633146115705760405163334bd91960e11b815260040160405180910390fd5b6110628282613f1a565b600a818154811061158a57600080fd5b6000918252602090912001546001600160a01b0316905081565b6000806000806115b385611a72565b9050600060108260048111156115cb576115cb6142dc565b815481106115db576115db6144e4565b90600052602060002090600502016040518060a00160405290816000820154815260200160018201548152602001600282015481526020016003820154815260200160048201548152505090508060400151816060015160648360800151600c54611646919061455c565b6116509190614573565b94509450945050509193909250565b600d54610100900460ff16156116ac5760405162461bcd60e51b815260206004820152601260248201527110dbdb9d1c9858dd081a5cc81c185d5cd95960721b6044820152606401610f73565b33600090815260036020526040812054900361175557336001600160a01b03166000805160206149ce83398151915260405161170f90602080825260139082015272139bc81bdd5d1cdd185b991a5b99c81919589d606a1b604082015260600190565b60405180910390a260405162461bcd60e51b8152602060048201526013602482015272139bc81bdd5d1cdd185b991a5b99c81919589d606a1b6044820152606401610f73565b346000036117fa57336001600160a01b03166000805160206149ce8339815191526040516117af906020808252601890820152774d7573742073656e642066756e647320746f20726570617960401b604082015260600190565b60405180910390a260405162461bcd60e51b81526020600482015260186024820152774d7573742073656e642066756e647320746f20726570617960401b6044820152606401610f73565b336000908152600360205260409020543411156118b857336001600160a01b03166000805160206149ce833981519152604051611868906020808252601c908201527f52657061796d656e74206578636565647320746f74616c206465627400000000604082015260600190565b60405180910390a260405162461bcd60e51b815260206004820152601c60248201527f52657061796d656e74206578636565647320746f74616c2064656274000000006044820152606401610f73565b60006118c333611a72565b905034601160008360048111156118dc576118dc6142dc565b60048111156118ed576118ed6142dc565b8152602001908152602001600020600082825461190a9190614595565b9091555050336000908152600360205260408120805434929061192e908490614595565b909155505033600090815260036020526040812054900361195a57336000908152600460205260408120555b3360009081526005602052604090205460ff161561199557336000908152600560209081526040808320805460ff1916905560069091528120555b60405134815233907f0516911bcc3a0a7412a44601057c0a0a1ec628bde049a84284bc4288665344889060200160405180910390a250565b60006119db82840184614610565b905060005b81518110156111515760008282815181106119fd576119fd6144e4565b6020908102919091018101516001600160a01b0381166000908152600590925260409091205490915060ff1615611a69576001600160a01b038116600090815260066020526040812054611a55906203f48090614142565b9050804210611a6757611a67826137c6565b505b506001016119e0565b6001600160a01b038116600090815260026020526040812054815b601054811015611b165760108181548110611aaa57611aaa6144e4565b9060005260206000209060050201600001548210158015611aef575060108181548110611ad957611ad96144e4565b9060005260206000209060050201600101548211155b15611b0e57806004811115611b0657611b066142dc565b949350505050565b600101611a8d565b50601054611b2690600190614595565b6004811115611b3757611b376142dc565b9392505050565b611b46613e43565b6001600160a01b0382166000908152600160205260408120805460ff1916831515179055805b600954811015611bbe57836001600160a01b031660098281548110611b9357611b936144e4565b6000918252602090912001546001600160a01b031603611bb65760019150611bbe565b600101611b6c565b50818015611bca575080155b15611c1b57600980546001810182556000919091527f6e1540171b6c0c960b71a7020d9f60077f6af931a8bbf590da0223dacf75c7af0180546001600160a01b0319166001600160a01b0385161790555b826001600160a01b03167f15f5cc64ca777db85f6c05fdba671568758b38329616d4d4b43bb8b092fe9a8d83604051611c58911515815260200190565b60405180910390a2505050565b600080670de0b6b3a7640000611c7a84613ac1565b6001600160a01b03808616600090815260208181526040808320938a1683529290522054611ca8919061455c565b611cb29190614573565b600e546040516356512fcd60e11b81526001600160a01b0386811660048301529293506000929091169063aca25f9a90602401602060405180830381865afa158015611d02573d6000803e3d6000fd5b505050506040513d601f19601f82011682018060405250810190611d2691906146e0565b90506064611d34828461455c565b611d3e9190614573565b95945050505050565b6001600160a01b03811660009081526001602052604081205460ff16611d7f5760405162461bcd60e51b8152600401610f73906144ad565b506001600160a01b039081166000908152600860205260409020541690565b60008080611daa6133ca565b905060005b8151811015611e43576000828281518110611dcc57611dcc6144e4565b6020908102919091018101516001600160a01b0380821660009081528084526040808220928b16825291909352909120549091508015611e3957670de0b6b3a7640000611e1883613ac1565b611e22908361455c565b611e2c9190614573565b611e369086614142565b94505b5050600101611daf565b50909392505050565b600060606000611e5a613764565b90506000815167ffffffffffffffff811115611e7857611e786145fa565b604051908082528060200260200182016040528015611ea1578160200160208202803683370190505b5090506000805b8351811015611f6a576000848281518110611ec557611ec56144e4565b6020908102919091018101516001600160a01b0381166000908152600590925260409091205490915060ff1615611f61576001600160a01b038116600090815260066020526040812054611f1d906203f48090614142565b9050804210611f5f5781858581518110611f3957611f396144e4565b6001600160a01b039092166020928302919091019091015283611f5b816146f9565b9450505b505b50600101611ea8565b50801561203c5760008167ffffffffffffffff811115611f8c57611f8c6145fa565b604051908082528060200260200182016040528015611fb5578160200160208202803683370190505b50905060005b8281101561200f57838181518110611fd557611fd56144e4565b6020026020010151828281518110611fef57611fef6144e4565b6001600160a01b0390921660209283029190910190910152600101611fbb565b5060019550806040516020016120259190614423565b604051602081830303815290604052945050612041565b600094505b5050509250929050565b6000612055612356565b905090565b612062613e43565b6001600160a01b0381166120aa5760405162461bcd60e51b815260206004820152600f60248201526e496e76616c6964206164647265737360881b6044820152606401610f73565b6120b381613f96565b6120be600082613e75565b506120ca600033613f1a565b5050565b601081815481106120de57600080fd5b6000918252602090912060059091020180546001820154600283015460038401546004909401549294509092909185565b612117613e43565b6121216000613f96565b565b61212b613e43565b6001600160a01b03821660009081526001602052604090205460ff166121635760405162461bcd60e51b8152600401610f73906144ad565b6001600160a01b03918216600090815260086020526040902080546001600160a01b03191691909216179055565b600e54604051631ee1b90b60e21b81526001600160a01b0383811660048301526000928392911690637b86e42c90602401602060405180830381865afa1580156121df573d6000803e3d6000fd5b505050506040513d601f19601f8201168201806040525081019061220391906146e0565b905080156122115792915050565b6001600160a01b03831660009081526007602052604090205480611b37576082611b06565b61223e613e43565b600d5460ff16156122615760405162461bcd60e51b8152600401610f7390614712565b600d805460ff19166001179055478111156122be5760405162461bcd60e51b815260206004820152601d60248201527f496e73756666696369656e7420636f6e74726163742062616c616e63650000006044820152606401610f73565b6122c6612356565b6001600160a01b03166108fc829081150290604051600060405180830381858888f193505050501580156122fe573d6000803e3d6000fd5b50612307612356565b6001600160a01b03167f69c169e5c85af54e1ca7e16608ccc812437821387924fb3353a7d053264ddaa08260405161234191815260200190565b60405180910390a250600d805460ff19169055565b7f9016d09d72d40fdae2fd8ceac6b6234c7706214fd39c1cd1e609a0528c199300546001600160a01b031690565b600080600061239284611d9e565b6001600160a01b0385166000908152600360205260408120549192508190036123c45750600194600019945092505050565b816000036123d9575060009485945092505050565b60006123e4866115a4565b50509050818360646123f6919061455c565b6124009190614573565b90811015969095509350505050565b60009182526000805160206149ee833981519152602090815260408084206001600160a01b0393909316845291905290205460ff1690565b61244f613e43565b816001600160a01b0381166124a65760405162461bcd60e51b815260206004820152601d60248201527f496e76616c696420616464726573733a207a65726f20616464726573730000006044820152606401610f73565b306001600160a01b038216036124f65760405162461bcd60e51b815260206004820152601560248201527424b73b30b634b21030b2323932b9b99d1039b2b63360591b6044820152606401610f73565b606482111561253c5760405162461bcd60e51b815260206004820152601260248201527153636f7265206f7574206f662072616e676560701b6044820152606401610f73565b6001600160a01b03831660008181526002602052604090819020849055517f4afae6838a181695abc7978598380d73bc2144eb38580c130f86e4b1e6531e1590611c589085815260200190565b600080612594613c4f565b9050806000036125ad57670de0b6b3a764000091505090565b600181116125c457670c7d713b49da000091505090565b600281116125db57670de0b6b3a764000091505090565b600381116125f257670f43fc2c04ee000091505090565b6710a741a46278000091505090565b6001600160a01b03821660009081526001602052604090205460ff1661264657336001600160a01b03166000805160206149ce833981519152604051611269906144fa565b806000036126df57336001600160a01b03166000805160206149ce83398151915260405161269a906020808252601290820152710416d6f756e74206d757374206265203e20360741b604082015260600190565b60405180910390a260405162461bcd60e51b81526020600482015260126024820152710416d6f756e74206d757374206265203e20360741b6044820152606401610f73565b3360009081526005602052604090205460ff161561271c57336001600160a01b03166000805160206149ce83398151915260405161138490614525565b336000908152600b602052604090205460ff1661279057336000818152600b60205260408120805460ff19166001908117909155600a805491820181559091527fc65a7bb8d6351c1cf70c95a316cc6a92839c986682d98bc35f958f4883f9d2a80180546001600160a01b03191690911790555b6040516323b872dd60e01b8152336004820152306024820152604481018290526001600160a01b038316906323b872dd906064016020604051808303816000875af11580156127e3573d6000803e3d6000fd5b505050506040513d601f19601f820116820180604052508101906128079190614490565b506001600160a01b03821660009081526020818152604080832033845290915281208054839290612839908490614142565b90915550506040518181526001600160a01b0383169033907ff1c0dd7e9b98bbff859029005ef89b127af049cd18df1a8d79f0b7e019911e569060200160405180910390a35050565b600066d529ae9e86000081612895612589565b9050670de0b6b3a76400006128aa828461455c565b611b069190614573565b6009818154811061158a57600080fd5b60006128ce614007565b805490915060ff600160401b820416159067ffffffffffffffff166000811580156128f65750825b905060008267ffffffffffffffff1660011480156129135750303b155b905081158015612921575080155b1561293f5760405163f92ee8a960e01b815260040160405180910390fd5b845467ffffffffffffffff19166001178555831561296957845460ff60401b1916600160401b1785555b61297288614030565b61297a614041565b612985600080614049565b612990600089613e75565b50600e80546001600160a01b03808a166001600160a01b031992831617909255600f805492891692909116919091179055612c7f60106040518060a00160405280605a815260200160648152602001606e81526020016018198152602001603281525090806001815401808255809150506001900390600052602060002090600502016000909190919091506000820151816000015560208201518160010155604082015181600201556060820151816003015560808201518160040155505060106040518060a001604052806050815260200160598152602001607d81526020016009198152602001602881525090806001815401808255809150506001900390600052602060002090600502016000909190919091506000820151816000015560208201518160010155604082015181600201556060820151816003015560808201518160040155505060106040518060a0016040528060468152602001604f8152602001608c815260200160008152602001601e81525090806001815401808255809150506001900390600052602060002090600502016000909190919091506000820151816000015560208201518160010155604082015181600201556060820151816003015560808201518160040155505060106040518060a00160405280603c81526020016045815260200160a08152602001600f8152602001601481525090806001815401808255809150506001900390600052602060002090600502016000909190919091506000820151816000015560208201518160010155604082015181600201556060820151816003015560808201518160040155505060106040518060a0016040528060008152602001603b815260200160c88152602001601e81526020016000815250908060018154018082558091505060019003906000526020600020906005020160009091909190915060008201518160000155602082015181600101556040820151816002015560608201518160030155608082015181600401555050565b8315612cc557845460ff60401b19168555604051600181527fc7f505b2f371ae2175ee4913f4499e1f2633a7b5936321eed1cdaeb6115181d29060200160405180910390a15b5050505050505050565b612cd7613e43565b600d805460ff610100808304821615810261ff001990931692909217928390556040517f228f455d7bc3d0b24a3a08d7847f391c3e78fc8aeb83acf226b7a96ee162b8ac93612d2f9390049091161515815260200190565b60405180910390a1565b600d54610100900460ff1615612d865760405162461bcd60e51b815260206004820152601260248201527110dbdb9d1c9858dd081a5cc81c185d5cd95960721b6044820152606401610f73565b600d5460ff1615612da95760405162461bcd60e51b8152600401610f7390614712565b600d805460ff191660011790556000819003612e6657336001600160a01b03166000805160206149ce833981519152604051612e16906020808252601d908201527f416d6f756e74206d7573742062652067726561746572207468616e2030000000604082015260600190565b60405180910390a260405162461bcd60e51b815260206004820152601d60248201527f416d6f756e74206d7573742062652067726561746572207468616e20300000006044820152606401610f73565b6000612e7133611a72565b90506000806000612e81336115a4565b919450925090506004846004811115612e9c57612e9c6142dc565b03612f3657336001600160a01b03166000805160206149ce833981519152604051612eef906020808252601490820152734372656469742073636f726520746f6f206c6f7760601b604082015260600190565b60405180910390a260405162461bcd60e51b81526020600482015260146024820152734372656469742073636f726520746f6f206c6f7760601b6044820152606401610f73565b6002600c54612f459190614573565b851115612f9157336001600160a01b03166000805160206149ce833981519152604051612f7190614739565b60405180910390a260405162461bcd60e51b8152600401610f7390614739565b80851115612fde57336001600160a01b03166000805160206149ce833981519152604051612fbe90614789565b60405180910390a260405162461bcd60e51b8152600401610f7390614789565b336000908152600360205260409020541561309a57336001600160a01b03166000805160206149ce83398151915260405161304a906020808252601e908201527f526570617920796f7572206578697374696e6720646562742066697273740000604082015260600190565b60405180910390a260405162461bcd60e51b815260206004820152601e60248201527f526570617920796f7572206578697374696e67206465627420666972737400006044820152606401610f73565b336000908152600b602052604090205460ff1661310e57336000818152600b60205260408120805460ff19166001908117909155600a805491820181559091527fc65a7bb8d6351c1cf70c95a316cc6a92839c986682d98bc35f958f4883f9d2a80180546001600160a01b03191690911790555b600061311933611d9e565b9050613125848761455c565b61313082606461455c565b101561317b57336001600160a01b03166000805160206149ce83398151915260405161315b906147ce565b60405180910390a260405162461bcd60e51b8152600401610f73906147ce565b600f546040516303065a9d60e21b8152600481018890526000916001600160a01b031690630c196a7490602401602060405180830381865afa1580156131c5573d6000803e3d6000fd5b505050506040513d601f19601f820116820180604052508101906131e991906146e0565b905080600085121561322657606461320086614813565b61320b906064614595565b613215908461455c565b61321f9190614573565b9050613252565b600085131561325257606461323b8682614142565b613245908461455c565b61324f9190614573565b90505b33600090815260036020526040812080548a9290613271908490614142565b9091555050336000908152600460208190526040822042905589916011918a908111156132a0576132a06142dc565b60048111156132b1576132b16142dc565b815260200190815260200160002060008282546132ce9190614142565b9091555050604051339089156108fc02908a906000818181858888f19350505050158015613300573d6000803e3d6000fd5b5060405188815233907fac59582e5396aca512fa873a2047e7f4c80f8f55d4a06cb34a78a0187f62719f9060200160405180910390a25050600d805460ff19169055505050505050565b613352613e43565b6001600160a01b0381166133a85760405162461bcd60e51b815260206004820152601f60248201527f496e76616c6964206c656e64696e67206d616e616765722061646472657373006044820152606401610f73565b600f80546001600160a01b0319166001600160a01b0392909216919091179055565b60606000805b6009548110156134345760016000600983815481106133f1576133f16144e4565b60009182526020808320909101546001600160a01b0316835282019290925260400190205460ff161561342c5781613428816146f9565b9250505b6001016133d0565b5060008167ffffffffffffffff811115613450576134506145fa565b604051908082528060200260200182016040528015613479578160200160208202803683370190505b5090506000805b600954811015611e435760006009828154811061349f5761349f6144e4565b60009182526020808320909101546001600160a01b0316808352600190915260409091205490915060ff161561350857808484815181106134e2576134e26144e4565b6001600160a01b039092166020928302919091019091015282613504816146f9565b9350505b50600101613480565b61351a82611113565b61352381613e39565b6111518383613f1a565b600d5460ff16156135505760405162461bcd60e51b8152600401610f7390614712565b600d805460ff19166001179055600f54336001600160a01b03909116146135c45760405162461bcd60e51b815260206004820152602260248201527f4f6e6c79206c656e64696e67206d616e616765722063616e2063616c6c207468604482015261697360f01b6064820152608401610f73565b478111156136145760405162461bcd60e51b815260206004820152601d60248201527f496e73756666696369656e7420636f6e74726163742062616c616e63650000006044820152606401610f73565b604051339082156108fc029083906000818181858888f19350505050158015613641573d6000803e3d6000fd5b5050600d805460ff19169055565b600061365a82612384565b50905080156136a15760405162461bcd60e51b8152602060048201526013602482015272506f736974696f6e206973206865616c74687960681b6044820152606401610f73565b6001600160a01b03821660009081526005602052604090205460ff161561370a5760405162461bcd60e51b815260206004820152601b60248201527f4c69717569646174696f6e20616c7265616479207374617274656400000000006044820152606401610f73565b6001600160a01b0382166000818152600560209081526040808320805460ff191660011790556006909152808220429055517f7f62ed89ea2c6fb057e4ea77729c1d3f18056339791fce29ac89760197b45b299190a25050565b6060600a8054806020026020016040519081016040528092919081815260200182805480156137bc57602002820191906000526020600020905b81546001600160a01b0316815260019091019060200180831161379e575b5050505050905090565b6001600160a01b03811660009081526005602052604090205460ff166138395760405162461bcd60e51b815260206004820152602260248201527f4163636f756e74206e6f74206d61726b656420666f72206c697175696461746960448201526137b760f11b6064820152608401610f73565b6001600160a01b038116600090815260066020526040902054613860906203f48090614142565b4210156138a85760405162461bcd60e51b815260206004820152601660248201527511dc9858d9481c195c9a5bd9081b9bdd08195b99195960521b6044820152606401610f73565b6001600160a01b0381166000908152600360205260408120549060646138cf60058461455c565b6138d99190614573565b905060006138e78284614142565b905060006138f36133ca565b905060005b81518110156139e6576000828281518110613915576139156144e4565b6020908102919091018101516001600160a01b0380821660009081528084526040808220928c168252919093529091205490915080156139dc576001600160a01b03828116600081815260208181526040808320948d16835293905282812055905163a9059cbb60e01b81523360048201526024810183905263a9059cbb906044016020604051808303816000875af11580156139b6573d6000803e3d6000fd5b505050506040513d601f19601f820116820180604052508101906139da9190614490565b505b50506001016138f8565b506001600160a01b03851660009081526003602090815260408083208390556004825280832083905560058252808320805460ff19169055600690915281208190558490601190613a3688611a72565b6004811115613a4757613a476142dc565b6004811115613a5857613a586142dc565b81526020019081526020016000206000828254613a759190614595565b909155505060405182815233906001600160a01b038716907f1175522017e08c2f400d7e516608eff60816ee9e8319158d174321234b6026319060200160405180910390a35050505050565b6001600160a01b0380821660009081526008602052604081205490911680613b205760405162461bcd60e51b8152602060048201526012602482015271141c9a58d94819995959081b9bdd081cd95d60721b6044820152606401610f73565b60008190506000816001600160a01b031663feaf968c6040518163ffffffff1660e01b815260040160a060405180830381865afa158015613b65573d6000803e3d6000fd5b505050506040513d601f19601f82011682018060405250810190613b899190614849565b505050915050816001600160a01b031663313ce5676040518163ffffffff1660e01b8152600401602060405180830381865afa158015613bcd573d6000803e3d6000fd5b505050506040513d601f19601f82011682018060405250810190613bf1919061489b565b613bfc9060126148be565b613c0790600a6149be565b611d3e908261455c565b613c19613e43565b6001600160a01b038116613c4357604051631e4fbdf760e01b815260006004820152602401610f73565b613c4c81613f96565b50565b600080805260116020527f4ad3b33220dddc71b994a52d72c06b10862965f7d926534c05c00fb7e819e7b75481908190613c8a90600161455c565b613c949083614142565b600160005260116020527f17bc176d2408558f6e4111feebc3cab4e16b63e967be91cde721f4c8a488b55254909250613cce90600261455c565b613cd89083614142565b600260005260116020527f08037d7b151cc412d25674a4e66b334d9ae9d2e5517a7feaae5cdb828bf1c62854909250613d1290600361455c565b613d1c9083614142565b600360005260116020527f9bfbaa59f8e10e7868f8b402de9d605a390c45ddaebd8c9de3c6f31e733c87ff54909250613d5690600461455c565b613d609083614142565b60116020527f9bfbaa59f8e10e7868f8b402de9d605a390c45ddaebd8c9de3c6f31e733c87ff547f08037d7b151cc412d25674a4e66b334d9ae9d2e5517a7feaae5cdb828bf1c628547f17bc176d2408558f6e4111feebc3cab4e16b63e967be91cde721f4c8a488b55254600080527f4ad3b33220dddc71b994a52d72c06b10862965f7d926534c05c00fb7e819e7b75493955091929091613e0191614142565b613e0b9190614142565b613e159190614142565b905080600003613e285760009250505090565b613e328183614573565b9250505090565b613c4c81336140ac565b33613e4c612356565b6001600160a01b0316146121215760405163118cdaa760e01b8152336004820152602401610f73565b60006000805160206149ee833981519152613e90848461240f565b613f10576000848152602082815260408083206001600160a01b03871684529091529020805460ff19166001179055613ec63390565b6001600160a01b0316836001600160a01b0316857f2f8788117e7eff1d82e926ec794901d17c78024a50270940304540a733656f0d60405160405180910390a46001915050610f12565b6000915050610f12565b60006000805160206149ee833981519152613f35848461240f565b15613f10576000848152602082815260408083206001600160a01b0387168085529252808320805460ff1916905551339287917ff6391f5c32d9c69d2a47ea670b442974b53935d1edc7fd64eb21e047a839171b9190a46001915050610f12565b7f9016d09d72d40fdae2fd8ceac6b6234c7706214fd39c1cd1e609a0528c19930080546001600160a01b031981166001600160a01b03848116918217845560405192169182907f8be0079c531659141344cd1fd0a4f28419497f9722a3daafe3b4186f6b6457e090600090a3505050565b6000807ff0c57e16840df040f15088dc2f81fe391c3923bec73e23a9662efc9c229c6a00610f12565b6140386140e5565b613c4c8161410a565b6121216140e5565b6000805160206149ee833981519152600061406384611113565b600085815260208490526040808220600101869055519192508491839187917fbd79b86ffe0ab8e8776151514217cd7cacd52c909f66475c3af44e129f0b00ff9190a450505050565b6140b6828261240f565b6120ca5760405163e2517d3f60e01b81526001600160a01b038216600482015260248101839052604401610f73565b6140ed614112565b61212157604051631afcd79f60e31b815260040160405180910390fd5b613c196140e5565b600061411c614007565b54600160401b900460ff16919050565b634e487b7160e01b600052601160045260246000fd5b80820180821115610f1257610f1261412c565b80356001600160a01b038116811461416c57600080fd5b919050565b60006020828403121561418357600080fd5b611b3782614155565b60006020828403121561419e57600080fd5b81356001600160e01b031981168114611b3757600080fd5b600080604083850312156141c957600080fd5b6141d283614155565b946020939093013593505050565b6000602082840312156141f257600080fd5b5035919050565b6000806040838503121561420c57600080fd5b8235915061421c60208401614155565b90509250929050565b60008060008060008060c0878903121561423e57600080fd5b505084359660208601359650604086013595606081013595506080810135945060a0013592509050565b6000806020838503121561427b57600080fd5b823567ffffffffffffffff81111561429257600080fd5b8301601f810185136142a357600080fd5b803567ffffffffffffffff8111156142ba57600080fd5b8560208284010111156142cc57600080fd5b6020919091019590945092505050565b634e487b7160e01b600052602160045260246000fd5b602081016005831061431457634e487b7160e01b600052602160045260246000fd5b91905290565b6000806040838503121561432d57600080fd5b61433683614155565b915061421c60208401614155565b8015158114613c4c57600080fd5b6000806040838503121561436557600080fd5b61436e83614155565b9150602083013561437e81614344565b809150509250929050565b8215158152604060208201526000825180604084015260005b818110156143bf57602081860181015160608684010152016143a2565b506000606082850101526060601f19601f8301168401019150509392505050565b6000806000606084860312156143f557600080fd5b6143fe84614155565b925061440c60208501614155565b915061441a60408501614155565b90509250925092565b602080825282518282018190526000918401906040840190835b818110156144645783516001600160a01b031683526020938401939092019160010161443d565b509095945050505050565b60006020828403121561448157600080fd5b813560058110611b3757600080fd5b6000602082840312156144a257600080fd5b8151611b3781614344565b6020808252601f908201527f546f6b656e206e6f7420616c6c6f77656420617320636f6c6c61746572616c00604082015260600190565b634e487b7160e01b600052603260045260246000fd5b602080825260119082015270151bdad95b881b9bdd08185b1b1bddd959607a1b604082015260600190565b60208082526019908201527f4163636f756e7420697320696e206c69717569646174696f6e00000000000000604082015260600190565b8082028115828204841417610f1257610f1261412c565b60008261459057634e487b7160e01b600052601260045260246000fd5b500490565b81810381811115610f1257610f1261412c565b60208082526032908201527f5769746864726177616c20776f756c64206d616b6520706f736974696f6e20756040820152711b99195c98dbdb1b185d195c985b1a5e995960721b606082015260800190565b634e487b7160e01b600052604160045260246000fd5b60006020828403121561462257600080fd5b813567ffffffffffffffff81111561463957600080fd5b8201601f8101841361464a57600080fd5b803567ffffffffffffffff811115614664576146646145fa565b8060051b604051601f19603f830116810181811067ffffffffffffffff82111715614691576146916145fa565b6040529182526020818401810192908101878411156146af57600080fd5b6020850194505b838510156146d5576146c785614155565b8152602094850194016146b6565b509695505050505050565b6000602082840312156146f257600080fd5b5051919050565b60006001820161470b5761470b61412c565b5060010190565b6020808252600d908201526c4e6f207265656e7472616e637960981b604082015260600190565b60208082526030908201527f426f72726f7720616d6f756e74206578636565647320617661696c61626c652060408201526f6c656e64696e6720636170616369747960801b606082015260800190565b60208082526025908201527f426f72726f7720616d6f756e74206578636565647320796f75722074696572206040820152641b1a5b5a5d60da1b606082015260800190565b60208082526025908201527f496e73756666696369656e7420636f6c6c61746572616c20666f722074686973604082015264103637b0b760d91b606082015260800190565b6000600160ff1b82016148285761482861412c565b5060000390565b805169ffffffffffffffffffff8116811461416c57600080fd5b600080600080600060a0868803121561486157600080fd5b61486a8661482f565b6020870151604088015160608901519297509095509350915061488f6080870161482f565b90509295509295909350565b6000602082840312156148ad57600080fd5b815160ff81168114611b3757600080fd5b60ff8281168282160390811115610f1257610f1261412c565b6001815b6001841115614912578085048111156148f6576148f661412c565b600184161561490457908102905b60019390931c9280026148db565b935093915050565b60008261492957506001610f12565b8161493657506000610f12565b816001811461494c576002811461495657614972565b6001915050610f12565b60ff8411156149675761496761412c565b50506001821b610f12565b5060208310610133831016604e8410600b8410161715614995575081810a610f12565b6149a260001984846148d7565b80600019048211156149b6576149b661412c565b029392505050565b6000611b3760ff84168361491a56fe3c364b9decdac59fbe037e99687219ac0feed46572bfbcbd5284b6b8e67f402d02dd7bc7dec4dceedda775e58dd541e08a116c6c53815c0bd028192f7b626800a2646970667358221220aea63a560547f9a3023b555712a7024fec047c8af6b74974c5429f25ca58abf264736f6c634300081c0033",
  "linkReferences": {},
  "deployedLinkReferences": {}
}