{
  "_format": "hh-sol-artifact-1",
  "contractName": "LiquidityPool",
  "sourceName": "contracts/LiquidityPool.sol",
  "abi": [
    {
      "inputs": [],
      "name": "AccessControlBadConfirmation",
      "type": "error"
    },
    {
      "inputs": [
        {
          "internalType": "address",
          "name": "account",
          "type": "address"
        },
        {
          "internalType": "bytes32",
          "name": "neededRole",
          "type": "bytes32"
        }
      ],
      "name": "AccessControlUnauthorizedAccount",
      "type": "error"
    },
    {
      "inputs": [],
      "name": "InvalidInitialization",
      "type": "error"
    },
    {
      "inputs": [],
      "name": "NotInitializing",
      "type": "error"
    },
    {
      "inputs": [
        {
          "internalType": "address",
          "name": "owner",
          "type": "address"
        }
      ],
      "name": "OwnableInvalidOwner",
      "type": "error"
    },
    {
      "inputs": [
        {
          "internalType": "address",
          "name": "account",
          "type": "address"
        }
      ],
      "name": "OwnableUnauthorizedAccount",
      "type": "error"
    },
    {
      "anonymous": false,
      "inputs": [
        {
          "indexed": true,
          "internalType": "address",
          "name": "user",
          "type": "address"
        },
        {
          "indexed": false,
          "internalType": "uint256",
          "name": "amount",
          "type": "uint256"
        }
      ],
      "name": "Borrowed",
      "type": "event"
    },
    {
      "anonymous": false,
      "inputs": [
        {
          "indexed": true,
          "internalType": "address",
          "name": "user",
          "type": "address"
        },
        {
          "indexed": true,
          "internalType": "address",
          "name": "token",
          "type": "address"
        },
        {
          "indexed": false,
          "internalType": "uint256",
          "name": "amount",
          "type": "uint256"
        }
      ],
      "name": "CollateralDeposited",
      "type": "event"
    },
    {
      "anonymous": false,
      "inputs": [
        {
          "indexed": true,
          "internalType": "address",
          "name": "token",
          "type": "address"
        },
        {
          "indexed": false,
          "internalType": "bool",
          "name": "isAllowed",
          "type": "bool"
        }
      ],
      "name": "CollateralTokenStatusChanged",
      "type": "event"
    },
    {
      "anonymous": false,
      "inputs": [
        {
          "indexed": true,
          "internalType": "address",
          "name": "user",
          "type": "address"
        },
        {
          "indexed": true,
          "internalType": "address",
          "name": "token",
          "type": "address"
        },
        {
          "indexed": false,
          "internalType": "uint256",
          "name": "amount",
          "type": "uint256"
        }
      ],
      "name": "CollateralWithdrawn",
      "type": "event"
    },
    {
      "anonymous": false,
      "inputs": [
        {
          "indexed": true,
          "internalType": "address",
          "name": "user",
          "type": "address"
        },
        {
          "indexed": false,
          "internalType": "uint256",
          "name": "score",
          "type": "uint256"
        }
      ],
      "name": "CreditScoreAssigned",
      "type": "event"
    },
    {
      "anonymous": false,
      "inputs": [
        {
          "indexed": false,
          "internalType": "bool",
          "name": "isPaused",
          "type": "bool"
        }
      ],
      "name": "EmergencyPaused",
      "type": "event"
    },
    {
      "anonymous": false,
      "inputs": [
        {
          "indexed": true,
          "internalType": "address",
          "name": "owner",
          "type": "address"
        },
        {
          "indexed": false,
          "internalType": "uint256",
          "name": "amount",
          "type": "uint256"
        }
      ],
      "name": "Extracted",
      "type": "event"
    },
    {
      "anonymous": false,
      "inputs": [
        {
          "indexed": true,
          "internalType": "address",
          "name": "user",
          "type": "address"
        },
        {
          "indexed": false,
          "internalType": "uint256",
          "name": "amount",
          "type": "uint256"
        },
        {
          "indexed": false,
          "internalType": "string",
          "name": "feeType",
          "type": "string"
        },
        {
          "indexed": false,
          "internalType": "uint256",
          "name": "tier",
          "type": "uint256"
        }
      ],
      "name": "FeeCollected",
      "type": "event"
    },
    {
      "anonymous": false,
      "inputs": [
        {
          "indexed": true,
          "internalType": "address",
          "name": "user",
          "type": "address"
        },
        {
          "indexed": false,
          "internalType": "uint256",
          "name": "newDeadline",
          "type": "uint256"
        }
      ],
      "name": "GracePeriodExtended",
      "type": "event"
    },
    {
      "anonymous": false,
      "inputs": [
        {
          "indexed": false,
          "internalType": "uint64",
          "name": "version",
          "type": "uint64"
        }
      ],
      "name": "Initialized",
      "type": "event"
    },
    {
      "anonymous": false,
      "inputs": [
        {
          "indexed": true,
          "internalType": "address",
          "name": "user",
          "type": "address"
        },
        {
          "indexed": true,
          "internalType": "address",
          "name": "liquidator",
          "type": "address"
        },
        {
          "indexed": false,
          "internalType": "uint256",
          "name": "amount",
          "type": "uint256"
        }
      ],
      "name": "LiquidationExecuted",
      "type": "event"
    },
    {
      "anonymous": false,
      "inputs": [
        {
          "indexed": true,
          "internalType": "address",
          "name": "user",
          "type": "address"
        }
      ],
      "name": "LiquidationStarted",
      "type": "event"
    },
    {
      "anonymous": false,
      "inputs": [
        {
          "indexed": true,
          "internalType": "address",
          "name": "previousOwner",
          "type": "address"
        },
        {
          "indexed": true,
          "internalType": "address",
          "name": "newOwner",
          "type": "address"
        }
      ],
      "name": "OwnershipTransferred",
      "type": "event"
    },
    {
      "anonymous": false,
      "inputs": [
        {
          "indexed": true,
          "internalType": "address",
          "name": "user",
          "type": "address"
        },
        {
          "indexed": true,
          "internalType": "address",
          "name": "liquidator",
          "type": "address"
        },
        {
          "indexed": true,
          "internalType": "address",
          "name": "collateralToken",
          "type": "address"
        },
        {
          "indexed": false,
          "internalType": "uint256",
          "name": "collateralSeized",
          "type": "uint256"
        },
        {
          "indexed": false,
          "internalType": "uint256",
          "name": "debtRepaid",
          "type": "uint256"
        }
      ],
      "name": "PartialLiquidation",
      "type": "event"
    },
    {
      "anonymous": false,
      "inputs": [
        {
          "indexed": true,
          "internalType": "address",
          "name": "user",
          "type": "address"
        },
        {
          "indexed": false,
          "internalType": "uint256",
          "name": "amount",
          "type": "uint256"
        }
      ],
      "name": "Repaid",
      "type": "event"
    },
    {
      "anonymous": false,
      "inputs": [
        {
          "indexed": true,
          "internalType": "address",
          "name": "newReserve",
          "type": "address"
        }
      ],
      "name": "ReserveAddressUpdated",
      "type": "event"
    },
    {
      "anonymous": false,
      "inputs": [
        {
          "indexed": true,
          "internalType": "bytes32",
          "name": "role",
          "type": "bytes32"
        },
        {
          "indexed": true,
          "internalType": "bytes32",
          "name": "previousAdminRole",
          "type": "bytes32"
        },
        {
          "indexed": true,
          "internalType": "bytes32",
          "name": "newAdminRole",
          "type": "bytes32"
        }
      ],
      "name": "RoleAdminChanged",
      "type": "event"
    },
    {
      "anonymous": false,
      "inputs": [
        {
          "indexed": true,
          "internalType": "bytes32",
          "name": "role",
          "type": "bytes32"
        },
        {
          "indexed": true,
          "internalType": "address",
          "name": "account",
          "type": "address"
        },
        {
          "indexed": true,
          "internalType": "address",
          "name": "sender",
          "type": "address"
        }
      ],
      "name": "RoleGranted",
      "type": "event"
    },
    {
      "anonymous": false,
      "inputs": [
        {
          "indexed": true,
          "internalType": "bytes32",
          "name": "role",
          "type": "bytes32"
        },
        {
          "indexed": true,
          "internalType": "address",
          "name": "account",
          "type": "address"
        },
        {
          "indexed": true,
          "internalType": "address",
          "name": "sender",
          "type": "address"
        }
      ],
      "name": "RoleRevoked",
      "type": "event"
    },
    {
      "anonymous": false,
      "inputs": [
        {
          "indexed": true,
          "internalType": "address",
          "name": "token",
          "type": "address"
        },
        {
          "indexed": false,
          "internalType": "uint256",
          "name": "updatedAt",
          "type": "uint256"
        },
        {
          "indexed": false,
          "internalType": "uint256",
          "name": "currentTime",
          "type": "uint256"
        }
      ],
      "name": "StaleOracleTriggered",
      "type": "event"
    },
    {
      "anonymous": false,
      "inputs": [
        {
          "indexed": true,
          "internalType": "uint256",
          "name": "tier",
          "type": "uint256"
        },
        {
          "indexed": false,
          "internalType": "uint256",
          "name": "originationFee",
          "type": "uint256"
        },
        {
          "indexed": false,
          "internalType": "uint256",
          "name": "lateFeeAPR",
          "type": "uint256"
        }
      ],
      "name": "TierFeeUpdated",
      "type": "event"
    },
    {
      "anonymous": false,
      "inputs": [
        {
          "indexed": true,
          "internalType": "address",
          "name": "user",
          "type": "address"
        },
        {
          "indexed": false,
          "internalType": "string",
          "name": "message",
          "type": "string"
        }
      ],
      "name": "UserError",
      "type": "event"
    },
    {
      "inputs": [],
      "name": "DEFAULT_ADMIN_ROLE",
      "outputs": [
        {
          "internalType": "bytes32",
          "name": "",
          "type": "bytes32"
        }
      ],
      "stateMutability": "view",
      "type": "function"
    },
    {
      "inputs": [],
      "name": "DEFAULT_LIQUIDATION_THRESHOLD",
      "outputs": [
        {
          "internalType": "uint256",
          "name": "",
          "type": "uint256"
        }
      ],
      "stateMutability": "view",
      "type": "function"
    },
    {
      "inputs": [],
      "name": "DEFAULT_STALENESS_STABLE",
      "outputs": [
        {
          "internalType": "uint256",
          "name": "",
          "type": "uint256"
        }
      ],
      "stateMutability": "view",
      "type": "function"
    },
    {
      "inputs": [],
      "name": "DEFAULT_STALENESS_VOLATILE",
      "outputs": [
        {
          "internalType": "uint256",
          "name": "",
          "type": "uint256"
        }
      ],
      "stateMutability": "view",
      "type": "function"
    },
    {
      "inputs": [],
      "name": "GRACE_PERIOD",
      "outputs": [
        {
          "internalType": "uint256",
          "name": "",
          "type": "uint256"
        }
      ],
      "stateMutability": "view",
      "type": "function"
    },
    {
      "inputs": [],
      "name": "LIQUIDATION_PENALTY",
      "outputs": [
        {
          "internalType": "uint256",
          "name": "",
          "type": "uint256"
        }
      ],
      "stateMutability": "view",
      "type": "function"
    },
    {
      "inputs": [],
      "name": "SAFETY_BUFFER",
      "outputs": [
        {
          "internalType": "uint256",
          "name": "",
          "type": "uint256"
        }
      ],
      "stateMutability": "view",
      "type": "function"
    },
    {
      "inputs": [],
      "name": "UPKEEP_COOLDOWN",
      "outputs": [
        {
          "internalType": "uint256",
          "name": "",
          "type": "uint256"
        }
      ],
      "stateMutability": "view",
      "type": "function"
    },
    {
      "inputs": [
        {
          "internalType": "address",
          "name": "lender",
          "type": "address"
        }
      ],
      "name": "baseLenderAPR",
      "outputs": [
        {
          "internalType": "uint256",
          "name": "",
          "type": "uint256"
        }
      ],
      "stateMutability": "view",
      "type": "function"
    },
    {
      "inputs": [
        {
          "internalType": "uint256",
          "name": "amount",
          "type": "uint256"
        }
      ],
      "name": "borrow",
      "outputs": [],
      "stateMutability": "payable",
      "type": "function"
    },
    {
      "inputs": [
        {
          "internalType": "uint256",
          "name": "",
          "type": "uint256"
        }
      ],
      "name": "borrowTierConfigs",
      "outputs": [
        {
          "internalType": "uint256",
          "name": "minScore",
          "type": "uint256"
        },
        {
          "internalType": "uint256",
          "name": "maxScore",
          "type": "uint256"
        },
        {
          "internalType": "uint256",
          "name": "collateralRatio",
          "type": "uint256"
        },
        {
          "internalType": "int256",
          "name": "interestRateModifier",
          "type": "int256"
        },
        {
          "internalType": "uint256",
          "name": "maxLoanAmount",
          "type": "uint256"
        }
      ],
      "stateMutability": "view",
      "type": "function"
    },
    {
      "inputs": [
        {
          "internalType": "address",
          "name": "",
          "type": "address"
        }
      ],
      "name": "borrowTimestamp",
      "outputs": [
        {
          "internalType": "uint256",
          "name": "",
          "type": "uint256"
        }
      ],
      "stateMutability": "view",
      "type": "function"
    },
    {
      "inputs": [
        {
          "internalType": "enum LiquidityPool.RiskTier",
          "name": "",
          "type": "uint8"
        }
      ],
      "name": "borrowedAmountByRiskTier",
      "outputs": [
        {
          "internalType": "uint256",
          "name": "",
          "type": "uint256"
        }
      ],
      "stateMutability": "view",
      "type": "function"
    },
    {
      "inputs": [],
      "name": "checkCircuitBreakers",
      "outputs": [],
      "stateMutability": "nonpayable",
      "type": "function"
    },
    {
      "inputs": [
        {
          "internalType": "address",
          "name": "user",
          "type": "address"
        }
      ],
      "name": "checkCollateralization",
      "outputs": [
        {
          "internalType": "bool",
          "name": "isHealthy",
          "type": "bool"
        },
        {
          "internalType": "uint256",
          "name": "ratio",
          "type": "uint256"
        }
      ],
      "stateMutability": "view",
      "type": "function"
    },
    {
      "inputs": [
        {
          "internalType": "bytes",
          "name": "",
          "type": "bytes"
        }
      ],
      "name": "checkUpkeep",
      "outputs": [
        {
          "internalType": "bool",
          "name": "upkeepNeeded",
          "type": "bool"
        },
        {
          "internalType": "bytes",
          "name": "performData",
          "type": "bytes"
        }
      ],
      "stateMutability": "view",
      "type": "function"
    },
    {
      "inputs": [
        {
          "internalType": "address",
          "name": "",
          "type": "address"
        },
        {
          "internalType": "address",
          "name": "",
          "type": "address"
        }
      ],
      "name": "collateralBalance",
      "outputs": [
        {
          "internalType": "uint256",
          "name": "",
          "type": "uint256"
        }
      ],
      "stateMutability": "view",
      "type": "function"
    },
    {
      "inputs": [
        {
          "internalType": "uint256",
          "name": "",
          "type": "uint256"
        }
      ],
      "name": "collateralTokenList",
      "outputs": [
        {
          "internalType": "address",
          "name": "",
          "type": "address"
        }
      ],
      "stateMutability": "view",
      "type": "function"
    },
    {
      "inputs": [
        {
          "internalType": "address",
          "name": "",
          "type": "address"
        }
      ],
      "name": "creditScore",
      "outputs": [
        {
          "internalType": "uint256",
          "name": "",
          "type": "uint256"
        }
      ],
      "stateMutability": "view",
      "type": "function"
    },
    {
      "inputs": [
        {
          "internalType": "address",
          "name": "token",
          "type": "address"
        },
        {
          "internalType": "uint256",
          "name": "amount",
          "type": "uint256"
        }
      ],
      "name": "depositCollateral",
      "outputs": [],
      "stateMutability": "nonpayable",
      "type": "function"
    },
    {
      "inputs": [
        {
          "internalType": "address",
          "name": "user",
          "type": "address"
        }
      ],
      "name": "executeLiquidation",
      "outputs": [],
      "stateMutability": "nonpayable",
      "type": "function"
    },
    {
      "inputs": [
        {
          "internalType": "address",
          "name": "user",
          "type": "address"
        },
        {
          "internalType": "address",
          "name": "collateralToken",
          "type": "address"
        }
      ],
      "name": "executePartialLiquidation",
      "outputs": [],
      "stateMutability": "nonpayable",
      "type": "function"
    },
    {
      "inputs": [
        {
          "internalType": "uint256",
          "name": "amount",
          "type": "uint256"
        }
      ],
      "name": "extract",
      "outputs": [],
      "stateMutability": "nonpayable",
      "type": "function"
    },
    {
      "inputs": [],
      "name": "getAdmin",
      "outputs": [
        {
          "internalType": "address",
          "name": "",
          "type": "address"
        }
      ],
      "stateMutability": "view",
      "type": "function"
    },
    {
      "inputs": [],
      "name": "getAllUsers",
      "outputs": [
        {
          "internalType": "address[]",
          "name": "",
          "type": "address[]"
        }
      ],
      "stateMutability": "view",
      "type": "function"
    },
    {
      "inputs": [],
      "name": "getAllowedCollateralTokens",
      "outputs": [
        {
          "internalType": "address[]",
          "name": "",
          "type": "address[]"
        }
      ],
      "stateMutability": "view",
      "type": "function"
    },
    {
      "inputs": [],
      "name": "getBalance",
      "outputs": [
        {
          "internalType": "uint256",
          "name": "",
          "type": "uint256"
        }
      ],
      "stateMutability": "view",
      "type": "function"
    },
    {
      "inputs": [
        {
          "internalType": "address",
          "name": "user",
          "type": "address"
        }
      ],
      "name": "getBorrowTerms",
      "outputs": [
        {
          "internalType": "uint256",
          "name": "collateralRatio",
          "type": "uint256"
        },
        {
          "internalType": "int256",
          "name": "interestRateModifier",
          "type": "int256"
        },
        {
          "internalType": "uint256",
          "name": "maxLoanAmount",
          "type": "uint256"
        }
      ],
      "stateMutability": "view",
      "type": "function"
    },
    {
      "inputs": [
        {
          "internalType": "enum LiquidityPool.RiskTier",
          "name": "tier",
          "type": "uint8"
        }
      ],
      "name": "getBorrowerRate",
      "outputs": [
        {
          "internalType": "uint256",
          "name": "",
          "type": "uint256"
        }
      ],
      "stateMutability": "view",
      "type": "function"
    },
    {
      "inputs": [
        {
          "internalType": "address",
          "name": "user",
          "type": "address"
        },
        {
          "internalType": "address",
          "name": "token",
          "type": "address"
        }
      ],
      "name": "getCollateral",
      "outputs": [
        {
          "internalType": "uint256",
          "name": "",
          "type": "uint256"
        }
      ],
      "stateMutability": "view",
      "type": "function"
    },
    {
      "inputs": [
        {
          "internalType": "address",
          "name": "user",
          "type": "address"
        }
      ],
      "name": "getCreditScore",
      "outputs": [
        {
          "internalType": "uint256",
          "name": "",
          "type": "uint256"
        }
      ],
      "stateMutability": "view",
      "type": "function"
    },
    {
      "inputs": [],
      "name": "getGlobalRiskMultiplier",
      "outputs": [
        {
          "internalType": "uint256",
          "name": "",
          "type": "uint256"
        }
      ],
      "stateMutability": "view",
      "type": "function"
    },
    {
      "inputs": [],
      "name": "getMinCollateralRatio",
      "outputs": [
        {
          "internalType": "uint256",
          "name": "",
          "type": "uint256"
        }
      ],
      "stateMutability": "pure",
      "type": "function"
    },
    {
      "inputs": [],
      "name": "getMyDebt",
      "outputs": [
        {
          "internalType": "uint256",
          "name": "",
          "type": "uint256"
        }
      ],
      "stateMutability": "view",
      "type": "function"
    },
    {
      "inputs": [
        {
          "internalType": "address",
          "name": "token",
          "type": "address"
        }
      ],
      "name": "getPriceFeed",
      "outputs": [
        {
          "internalType": "address",
          "name": "",
          "type": "address"
        }
      ],
      "stateMutability": "view",
      "type": "function"
    },
    {
      "inputs": [
        {
          "internalType": "address",
          "name": "lender",
          "type": "address"
        }
      ],
      "name": "getRealTimeReturnRate",
      "outputs": [
        {
          "internalType": "uint256",
          "name": "",
          "type": "uint256"
        }
      ],
      "stateMutability": "view",
      "type": "function"
    },
    {
      "inputs": [],
      "name": "getRepaymentRatio",
      "outputs": [
        {
          "internalType": "uint256",
          "name": "",
          "type": "uint256"
        }
      ],
      "stateMutability": "view",
      "type": "function"
    },
    {
      "inputs": [],
      "name": "getRepaymentRiskMultiplier",
      "outputs": [
        {
          "internalType": "uint256",
          "name": "",
          "type": "uint256"
        }
      ],
      "stateMutability": "view",
      "type": "function"
    },
    {
      "inputs": [],
      "name": "getRiskMultiplier",
      "outputs": [
        {
          "internalType": "uint256",
          "name": "",
          "type": "uint256"
        }
      ],
      "stateMutability": "view",
      "type": "function"
    },
    {
      "inputs": [
        {
          "internalType": "address",
          "name": "user",
          "type": "address"
        }
      ],
      "name": "getRiskTier",
      "outputs": [
        {
          "internalType": "enum LiquidityPool.RiskTier",
          "name": "",
          "type": "uint8"
        }
      ],
      "stateMutability": "view",
      "type": "function"
    },
    {
      "inputs": [
        {
          "internalType": "bytes32",
          "name": "role",
          "type": "bytes32"
        }
      ],
      "name": "getRoleAdmin",
      "outputs": [
        {
          "internalType": "bytes32",
          "name": "",
          "type": "bytes32"
        }
      ],
      "stateMutability": "view",
      "type": "function"
    },
    {
      "inputs": [
        {
          "internalType": "address",
          "name": "token",
          "type": "address"
        }
      ],
      "name": "getTokenValue",
      "outputs": [
        {
          "internalType": "uint256",
          "name": "",
          "type": "uint256"
        }
      ],
      "stateMutability": "view",
      "type": "function"
    },
    {
      "inputs": [
        {
          "internalType": "address",
          "name": "user",
          "type": "address"
        }
      ],
      "name": "getTotalCollateralValue",
      "outputs": [
        {
          "internalType": "uint256",
          "name": "",
          "type": "uint256"
        }
      ],
      "stateMutability": "view",
      "type": "function"
    },
    {
      "inputs": [],
      "name": "getWeightedRiskScore",
      "outputs": [
        {
          "internalType": "uint256",
          "name": "",
          "type": "uint256"
        }
      ],
      "stateMutability": "view",
      "type": "function"
    },
    {
      "inputs": [
        {
          "internalType": "bytes32",
          "name": "role",
          "type": "bytes32"
        },
        {
          "internalType": "address",
          "name": "account",
          "type": "address"
        }
      ],
      "name": "grantRole",
      "outputs": [],
      "stateMutability": "nonpayable",
      "type": "function"
    },
    {
      "inputs": [
        {
          "internalType": "bytes32",
          "name": "role",
          "type": "bytes32"
        },
        {
          "internalType": "address",
          "name": "account",
          "type": "address"
        }
      ],
      "name": "hasRole",
      "outputs": [
        {
          "internalType": "bool",
          "name": "",
          "type": "bool"
        }
      ],
      "stateMutability": "view",
      "type": "function"
    },
    {
      "inputs": [
        {
          "internalType": "address",
          "name": "initialOwner",
          "type": "address"
        },
        {
          "internalType": "address",
          "name": "_stablecoinManager",
          "type": "address"
        },
        {
          "internalType": "address",
          "name": "_lendingManager",
          "type": "address"
        },
        {
          "internalType": "address",
          "name": "_interestRateModel",
          "type": "address"
        }
      ],
      "name": "initialize",
      "outputs": [],
      "stateMutability": "nonpayable",
      "type": "function"
    },
    {
      "inputs": [],
      "name": "interestRateModel",
      "outputs": [
        {
          "internalType": "contract InterestRateModel",
          "name": "",
          "type": "address"
        }
      ],
      "stateMutability": "view",
      "type": "function"
    },
    {
      "inputs": [
        {
          "internalType": "address",
          "name": "",
          "type": "address"
        }
      ],
      "name": "isAllowedCollateral",
      "outputs": [
        {
          "internalType": "bool",
          "name": "",
          "type": "bool"
        }
      ],
      "stateMutability": "view",
      "type": "function"
    },
    {
      "inputs": [
        {
          "internalType": "address",
          "name": "",
          "type": "address"
        }
      ],
      "name": "isKnownUser",
      "outputs": [
        {
          "internalType": "bool",
          "name": "",
          "type": "bool"
        }
      ],
      "stateMutability": "view",
      "type": "function"
    },
    {
      "inputs": [
        {
          "internalType": "address",
          "name": "",
          "type": "address"
        }
      ],
      "name": "isLiquidatable",
      "outputs": [
        {
          "internalType": "bool",
          "name": "",
          "type": "bool"
        }
      ],
      "stateMutability": "view",
      "type": "function"
    },
    {
      "inputs": [
        {
          "internalType": "address",
          "name": "token",
          "type": "address"
        }
      ],
      "name": "isOracleHealthy",
      "outputs": [
        {
          "internalType": "bool",
          "name": "",
          "type": "bool"
        }
      ],
      "stateMutability": "view",
      "type": "function"
    },
    {
      "inputs": [],
      "name": "isPaused",
      "outputs": [
        {
          "internalType": "bool",
          "name": "",
          "type": "bool"
        }
      ],
      "stateMutability": "view",
      "type": "function"
    },
    {
      "inputs": [
        {
          "internalType": "address",
          "name": "user",
          "type": "address"
        }
      ],
      "name": "isUndercollateralized",
      "outputs": [
        {
          "internalType": "bool",
          "name": "",
          "type": "bool"
        }
      ],
      "stateMutability": "view",
      "type": "function"
    },
    {
      "inputs": [],
      "name": "lastUpkeep",
      "outputs": [
        {
          "internalType": "uint256",
          "name": "",
          "type": "uint256"
        }
      ],
      "stateMutability": "view",
      "type": "function"
    },
    {
      "inputs": [],
      "name": "lendingManager",
      "outputs": [
        {
          "internalType": "contract LendingManager",
          "name": "",
          "type": "address"
        }
      ],
      "stateMutability": "view",
      "type": "function"
    },
    {
      "inputs": [
        {
          "internalType": "address",
          "name": "",
          "type": "address"
        }
      ],
      "name": "liquidationStartTime",
      "outputs": [
        {
          "internalType": "uint256",
          "name": "",
          "type": "uint256"
        }
      ],
      "stateMutability": "view",
      "type": "function"
    },
    {
      "inputs": [],
      "name": "liquidator",
      "outputs": [
        {
          "internalType": "address",
          "name": "",
          "type": "address"
        }
      ],
      "stateMutability": "view",
      "type": "function"
    },
    {
      "inputs": [],
      "name": "locked",
      "outputs": [
        {
          "internalType": "bool",
          "name": "",
          "type": "bool"
        }
      ],
      "stateMutability": "view",
      "type": "function"
    },
    {
      "inputs": [
        {
          "internalType": "address",
          "name": "",
          "type": "address"
        }
      ],
      "name": "maxPriceAge",
      "outputs": [
        {
          "internalType": "uint256",
          "name": "",
          "type": "uint256"
        }
      ],
      "stateMutability": "view",
      "type": "function"
    },
    {
      "inputs": [],
      "name": "minPartialLiquidationAmount",
      "outputs": [
        {
          "internalType": "uint256",
          "name": "",
          "type": "uint256"
        }
      ],
      "stateMutability": "view",
      "type": "function"
    },
    {
      "inputs": [],
      "name": "owner",
      "outputs": [
        {
          "internalType": "address",
          "name": "",
          "type": "address"
        }
      ],
      "stateMutability": "view",
      "type": "function"
    },
    {
      "inputs": [],
      "name": "paused",
      "outputs": [
        {
          "internalType": "bool",
          "name": "",
          "type": "bool"
        }
      ],
      "stateMutability": "view",
      "type": "function"
    },
    {
      "inputs": [
        {
          "internalType": "bytes",
          "name": "performData",
          "type": "bytes"
        }
      ],
      "name": "performUpkeep",
      "outputs": [],
      "stateMutability": "nonpayable",
      "type": "function"
    },
    {
      "inputs": [
        {
          "internalType": "address",
          "name": "",
          "type": "address"
        }
      ],
      "name": "priceFeed",
      "outputs": [
        {
          "internalType": "address",
          "name": "",
          "type": "address"
        }
      ],
      "stateMutability": "view",
      "type": "function"
    },
    {
      "inputs": [
        {
          "internalType": "address",
          "name": "token",
          "type": "address"
        },
        {
          "internalType": "uint256",
          "name": "amount",
          "type": "uint256"
        }
      ],
      "name": "recoverFromLiquidation",
      "outputs": [],
      "stateMutability": "nonpayable",
      "type": "function"
    },
    {
      "inputs": [],
      "name": "renounceOwnership",
      "outputs": [],
      "stateMutability": "nonpayable",
      "type": "function"
    },
    {
      "inputs": [
        {
          "internalType": "bytes32",
          "name": "role",
          "type": "bytes32"
        },
        {
          "internalType": "address",
          "name": "callerConfirmation",
          "type": "address"
        }
      ],
      "name": "renounceRole",
      "outputs": [],
      "stateMutability": "nonpayable",
      "type": "function"
    },
    {
      "inputs": [],
      "name": "repay",
      "outputs": [],
      "stateMutability": "payable",
      "type": "function"
    },
    {
      "inputs": [],
      "name": "reserveAddress",
      "outputs": [
        {
          "internalType": "address",
          "name": "",
          "type": "address"
        }
      ],
      "stateMutability": "view",
      "type": "function"
    },
    {
      "inputs": [
        {
          "internalType": "bytes32",
          "name": "role",
          "type": "bytes32"
        },
        {
          "internalType": "address",
          "name": "account",
          "type": "address"
        }
      ],
      "name": "revokeRole",
      "outputs": [],
      "stateMutability": "nonpayable",
      "type": "function"
    },
    {
      "inputs": [
        {
          "internalType": "address",
          "name": "newAdmin",
          "type": "address"
        }
      ],
      "name": "setAdmin",
      "outputs": [],
      "stateMutability": "nonpayable",
      "type": "function"
    },
    {
      "inputs": [
        {
          "internalType": "address",
          "name": "token",
          "type": "address"
        },
        {
          "internalType": "bool",
          "name": "allowed",
          "type": "bool"
        }
      ],
      "name": "setAllowedCollateral",
      "outputs": [],
      "stateMutability": "nonpayable",
      "type": "function"
    },
    {
      "inputs": [
        {
          "internalType": "address",
          "name": "user",
          "type": "address"
        },
        {
          "internalType": "uint256",
          "name": "score",
          "type": "uint256"
        }
      ],
      "name": "setCreditScore",
      "outputs": [],
      "stateMutability": "nonpayable",
      "type": "function"
    },
    {
      "inputs": [
        {
          "internalType": "address",
          "name": "_lendingManager",
          "type": "address"
        }
      ],
      "name": "setLendingManager",
      "outputs": [],
      "stateMutability": "nonpayable",
      "type": "function"
    },
    {
      "inputs": [
        {
          "internalType": "address",
          "name": "_liquidator",
          "type": "address"
        }
      ],
      "name": "setLiquidator",
      "outputs": [],
      "stateMutability": "nonpayable",
      "type": "function"
    },
    {
      "inputs": [
        {
          "internalType": "address",
          "name": "token",
          "type": "address"
        },
        {
          "internalType": "uint256",
          "name": "age",
          "type": "uint256"
        }
      ],
      "name": "setMaxPriceAge",
      "outputs": [],
      "stateMutability": "nonpayable",
      "type": "function"
    },
    {
      "inputs": [
        {
          "internalType": "uint256",
          "name": "amount",
          "type": "uint256"
        }
      ],
      "name": "setMinPartialLiquidationAmount",
      "outputs": [],
      "stateMutability": "nonpayable",
      "type": "function"
    },
    {
      "inputs": [
        {
          "internalType": "address",
          "name": "token",
          "type": "address"
        },
        {
          "internalType": "address",
          "name": "feed",
          "type": "address"
        }
      ],
      "name": "setPriceFeed",
      "outputs": [],
      "stateMutability": "nonpayable",
      "type": "function"
    },
    {
      "inputs": [
        {
          "internalType": "address",
          "name": "_reserve",
          "type": "address"
        }
      ],
      "name": "setReserveAddress",
      "outputs": [],
      "stateMutability": "nonpayable",
      "type": "function"
    },
    {
      "inputs": [
        {
          "internalType": "uint256",
          "name": "tier",
          "type": "uint256"
        },
        {
          "internalType": "uint256",
          "name": "originationFee",
          "type": "uint256"
        },
        {
          "internalType": "uint256",
          "name": "lateFeeAPR",
          "type": "uint256"
        }
      ],
      "name": "setTierFee",
      "outputs": [],
      "stateMutability": "nonpayable",
      "type": "function"
    },
    {
      "inputs": [],
      "name": "stablecoinManager",
      "outputs": [
        {
          "internalType": "contract StablecoinManager",
          "name": "",
          "type": "address"
        }
      ],
      "stateMutability": "view",
      "type": "function"
    },
    {
      "inputs": [
        {
          "internalType": "address",
          "name": "user",
          "type": "address"
        }
      ],
      "name": "startLiquidation",
      "outputs": [],
      "stateMutability": "nonpayable",
      "type": "function"
    },
    {
      "inputs": [
        {
          "internalType": "bytes4",
          "name": "interfaceId",
          "type": "bytes4"
        }
      ],
      "name": "supportsInterface",
      "outputs": [
        {
          "internalType": "bool",
          "name": "",
          "type": "bool"
        }
      ],
      "stateMutability": "view",
      "type": "function"
    },
    {
      "inputs": [
        {
          "internalType": "uint256",
          "name": "",
          "type": "uint256"
        }
      ],
      "name": "tierFees",
      "outputs": [
        {
          "internalType": "uint256",
          "name": "originationFee",
          "type": "uint256"
        },
        {
          "internalType": "uint256",
          "name": "lateFeeAPR",
          "type": "uint256"
        }
      ],
      "stateMutability": "view",
      "type": "function"
    },
    {
      "inputs": [],
      "name": "togglePause",
      "outputs": [],
      "stateMutability": "nonpayable",
      "type": "function"
    },
    {
      "inputs": [],
      "name": "totalBorrowedAllTime",
      "outputs": [
        {
          "internalType": "uint256",
          "name": "",
          "type": "uint256"
        }
      ],
      "stateMutability": "view",
      "type": "function"
    },
    {
      "inputs": [],
      "name": "totalFunds",
      "outputs": [
        {
          "internalType": "uint256",
          "name": "",
          "type": "uint256"
        }
      ],
      "stateMutability": "view",
      "type": "function"
    },
    {
      "inputs": [],
      "name": "totalRepaidAllTime",
      "outputs": [
        {
          "internalType": "uint256",
          "name": "",
          "type": "uint256"
        }
      ],
      "stateMutability": "view",
      "type": "function"
    },
    {
      "inputs": [
        {
          "internalType": "address",
          "name": "newOwner",
          "type": "address"
        }
      ],
      "name": "transferOwnership",
      "outputs": [],
      "stateMutability": "nonpayable",
      "type": "function"
    },
    {
      "inputs": [
        {
          "internalType": "uint256",
          "name": "tierIndex",
          "type": "uint256"
        },
        {
          "internalType": "uint256",
          "name": "minScore",
          "type": "uint256"
        },
        {
          "internalType": "uint256",
          "name": "maxScore",
          "type": "uint256"
        },
        {
          "internalType": "uint256",
          "name": "collateralRatio",
          "type": "uint256"
        },
        {
          "internalType": "int256",
          "name": "interestRateModifier",
          "type": "int256"
        },
        {
          "internalType": "uint256",
          "name": "maxLoanAmount",
          "type": "uint256"
        }
      ],
      "name": "updateBorrowTier",
      "outputs": [],
      "stateMutability": "nonpayable",
      "type": "function"
    },
    {
      "inputs": [
        {
          "internalType": "address",
          "name": "",
          "type": "address"
        }
      ],
      "name": "userDebt",
      "outputs": [
        {
          "internalType": "uint256",
          "name": "",
          "type": "uint256"
        }
      ],
      "stateMutability": "view",
      "type": "function"
    },
    {
      "inputs": [
        {
          "internalType": "uint256",
          "name": "",
          "type": "uint256"
        }
      ],
      "name": "users",
      "outputs": [
        {
          "internalType": "address",
          "name": "",
          "type": "address"
        }
      ],
      "stateMutability": "view",
      "type": "function"
    },
    {
      "inputs": [
        {
          "internalType": "address",
          "name": "token",
          "type": "address"
        },
        {
          "internalType": "uint256",
          "name": "amount",
          "type": "uint256"
        }
      ],
      "name": "withdrawCollateral",
      "outputs": [],
      "stateMutability": "nonpayable",
      "type": "function"
    },
    {
      "inputs": [
        {
          "internalType": "uint256",
          "name": "amount",
          "type": "uint256"
        }
      ],
      "name": "withdrawForLendingManager",
      "outputs": [],
      "stateMutability": "nonpayable",
      "type": "function"
    },
    {
      "stateMutability": "payable",
      "type": "receive"
    }
  ],
  "bytecode": "0x6080604052348015600f57600080fd5b50615b498061001f6000396000f3fe60806040526004361061051c5760003560e01c806391d14854116102a2578063c869d0ed11610165578063e2842d79116100cc578063f2fde38b11610085578063f2fde38b146110e8578063f3fdb15a14611108578063f79ed94b14611128578063f7e590ee14611148578063f8c8765e14611175578063feca846a1461119557600080fd5b8063e2842d7914611011578063e2e2967914611026578063e7602b9d14611046578063e84bae451461107b578063ef02401a146110a8578063f1c5d6c2146110c857600080fd5b8063d2f8967a1161011e578063d2f8967a14610f3b578063d3dd2bdf14610f5b578063d547741f14610f91578063ddac7f1b14610fb1578063e19fb8f514610fd1578063e1c5010014610ff157600080fd5b8063c869d0ed14610e72578063c941f32114610e92578063cf17622514610eb2578063cf30901214610ed4578063d1f151c114610eee578063d29255f914610f0e57600080fd5b8063b3075fb711610209578063be8c3c84116101c2578063be8c3c8414610dd0578063c129d50414610df1578063c1a287e214610e06578063c23c69d514610e1d578063c4ae316814610e4a578063c5ebeaec14610e5f57600080fd5b8063b3075fb714610cf9578063b3a5a0a214610d42578063b69e5c7714610d62578063b849c88414610d8f578063b8cdf56114610da4578063bc3d5a3e14610dba57600080fd5b8063a217fddf1161025b578063a217fddf14610c5d578063a4cde48e14610c72578063a5d5db0c14610c87578063a6727ce714610ca7578063a8cf4b5214610cc7578063b187bd2614610cdc57600080fd5b806391d1485414610ba25780639490a51e14610bc2578063968ed60014610bf257806397ed81cf14610c085780639b8621d514610c285780639e3b77af14610c3d57600080fd5b80634c8f35ab116103ea5780636c648fc4116103515780637346f4861161030a5780637346f48614610ad057806376e1128614610b00578063802937ac14610b2057806385b3978214610b365780638da5cb5b14610b565780638e6b53bc14610b6b57600080fd5b80636c648fc4146109f05780636e04ff0d14610a105780636e9960c314610a3e578063704b6c0214610a5357806370ed11bc14610a73578063715018a614610abb57600080fd5b80635b66e7fc116103a35780635b66e7fc146109445780635b6cca801461095a5780635c44f10d1461097a5780635c975abb1461098f578063603f4ab9146109ae5780636579b73e146109c357600080fd5b80634c8f35ab146108575780634c95da661461086b5780634cadf2dd1461089857806352226ef0146108b857806352ace309146108fd57806355f4d9e21461092457600080fd5b80632f2ff15d1161048e57806338053ef31161044757806338053ef3146107965780633d7c5d3e146107d1578063402d8883146107e75780634046ebae146107ef578063450a375a146108155780634585e33b1461083757600080fd5b80632f2ff15d146106d657806330332f9f146106f6578063350c35e91461071657806335f679811461073657806336568abe14610756578063365b98b21461077657600080fd5b80630ef7fb67116104e05780630ef7fb671461060b57806312065fe01461062057806314673d31146106335780631fd48b9a1461065357806323fe5a33146106a1578063248a9ca3146106b657600080fd5b806301c76f811461054057806301ffc9a714610562578063042e02cf14610597578063080d9c2b146105c75780630b044c79146105e757600080fd5b3661053b5734600b60008282546105339190615215565b925050819055005b600080fd5b34801561054c57600080fd5b5061056061055b366004615244565b6111aa565b005b34801561056e57600080fd5b5061058261057d36600461525f565b6111e0565b60405190151581526020015b60405180910390f35b3480156105a357600080fd5b506105826105b2366004615244565b60056020526000908152604090205460ff1681565b3480156105d357600080fd5b506105606105e2366004615289565b611217565b3480156105f357600080fd5b506105fd610e1081565b60405190815260200161058e565b34801561061757600080fd5b506105fd600a81565b34801561062c57600080fd5b50476105fd565b34801561063f57600080fd5b5061056061064e366004615244565b611366565b34801561065f57600080fd5b5061068961066e366004615244565b6007602052600090815260409020546001600160a01b031681565b6040516001600160a01b03909116815260200161058e565b3480156106ad57600080fd5b5061056061140e565b3480156106c257600080fd5b506105fd6106d13660046152b3565b611605565b3480156106e257600080fd5b506105606106f13660046152cc565b611627565b34801561070257600080fd5b506105606107113660046152f8565b611649565b34801561072257600080fd5b50610560610731366004615289565b611716565b34801561074257600080fd5b506105606107513660046152b3565b611a9e565b34801561076257600080fd5b506105606107713660046152cc565b611aab565b34801561078257600080fd5b506106896107913660046152b3565b611ade565b3480156107a257600080fd5b506107b66107b1366004615244565b611b08565b6040805193845260208401929092529082015260600161058e565b3480156107dd57600080fd5b506105fd60185481565b610560611bc3565b3480156107fb57600080fd5b50600c54610689906201000090046001600160a01b031681565b34801561082157600080fd5b50336000908152600360205260409020546105fd565b34801561084357600080fd5b5061056061085236600461533b565b6120d2565b34801561086357600080fd5b5060826105fd565b34801561087757600080fd5b5061088b610886366004615244565b6121cb565b60405161058e91906153c5565b3480156108a457600080fd5b506105826108b3366004615244565b612297565b3480156108c457600080fd5b506105fd6108d33660046153ed565b6001600160a01b038082166000908152602081815260408083209386168352929052205492915050565b34801561090957600080fd5b506105fd610918366004615244565b5066d529ae9e86000090565b34801561093057600080fd5b5061056061093f366004615425565b6122ce565b34801561095057600080fd5b506105fd61038481565b34801561096657600080fd5b50610689610975366004615244565b6123f5565b34801561098657600080fd5b506105fd603c81565b34801561099b57600080fd5b50600c5461058290610100900460ff1681565b3480156109ba57600080fd5b506105fd61247c565b3480156109cf57600080fd5b506105fd6109de366004615244565b60146020526000908152604090205481565b3480156109fc57600080fd5b506105fd610a0b366004615244565b6124bc565b348015610a1c57600080fd5b50610a30610a2b36600461533b565b61256a565b60405161058e92919061545c565b348015610a4a57600080fd5b506106896127b9565b348015610a5f57600080fd5b50610560610a6e366004615244565b6127c3565b348015610a7f57600080fd5b50610a93610a8e3660046152b3565b612833565b604080519586526020860194909452928401919091526060830152608082015260a00161058e565b348015610ac757600080fd5b50610560612874565b348015610adc57600080fd5b50610582610aeb366004615244565b60016020526000908152604090205460ff1681565b348015610b0c57600080fd5b50610560610b1b3660046153ed565b612888565b348015610b2c57600080fd5b506105fd60155481565b348015610b4257600080fd5b50610560610b513660046152b3565b612926565b348015610b6257600080fd5b50610689612a46565b348015610b7757600080fd5b50610b8b610b86366004615244565b612a74565b60408051921515835260208301919091520161058e565b348015610bae57600080fd5b50610582610bbd3660046152cc565b612aff565b348015610bce57600080fd5b50610582610bdd366004615244565b600a6020526000908152604090205460ff1681565b348015610bfe57600080fd5b506105fd600b5481565b348015610c1457600080fd5b50610560610c23366004615289565b612b37565b348015610c3457600080fd5b506105fd600581565b348015610c4957600080fd5b50600e54610689906001600160a01b031681565b348015610c6957600080fd5b506105fd600081565b348015610c7e57600080fd5b506105fd612c79565b348015610c9357600080fd5b50610560610ca2366004615289565b612cf1565b348015610cb357600080fd5b506105fd610cc2366004615244565b612f72565b348015610cd357600080fd5b506105fd612fa4565b348015610ce857600080fd5b50600c54610100900460ff16610582565b348015610d0557600080fd5b50610d2d610d143660046152b3565b6017602052600090815260409020805460019091015482565b6040805192835260208301919091520161058e565b348015610d4e57600080fd5b50610689610d5d3660046152b3565b612fe1565b348015610d6e57600080fd5b506105fd610d7d366004615244565b60036020526000908152604090205481565b348015610d9b57600080fd5b506105fd612ff1565b348015610db057600080fd5b506105fd60125481565b348015610dc657600080fd5b506105fd60135481565b348015610ddc57600080fd5b506105fd610deb3660046154b3565b50600090565b348015610dfd57600080fd5b506105fd608281565b348015610e1257600080fd5b506105fd6203f48081565b348015610e2957600080fd5b506105fd610e38366004615244565b60066020526000908152604090205481565b348015610e5657600080fd5b50610560613058565b610560610e6d3660046152b3565b6130b0565b348015610e7e57600080fd5b50610560610e8d366004615244565b61377c565b348015610e9e57600080fd5b50600d54610689906001600160a01b031681565b348015610ebe57600080fd5b50610ec76137fc565b60405161058e91906154d4565b348015610ee057600080fd5b50600c546105829060ff1681565b348015610efa57600080fd5b50610560610f09366004615520565b613943565b348015610f1a57600080fd5b506105fd610f29366004615244565b60046020526000908152604090205481565b348015610f4757600080fd5b50610560610f563660046153ed565b6139ee565b348015610f6757600080fd5b506105fd610f76366004615244565b6001600160a01b031660009081526002602052604090205490565b348015610f9d57600080fd5b50610560610fac3660046152cc565b613e3e565b348015610fbd57600080fd5b50610560610fcc366004615289565b613e5a565b348015610fdd57600080fd5b50610560610fec3660046152b3565b613ebd565b348015610ffd57600080fd5b5061056061100c366004615244565b613fdf565b34801561101d57600080fd5b50610ec76140f4565b34801561103257600080fd5b50610560611041366004615244565b614156565b34801561105257600080fd5b506105fd6110613660046153ed565b600060208181529281526040808220909352908152205481565b34801561108757600080fd5b506105fd6110963660046154b3565b60116020526000908152604090205481565b3480156110b457600080fd5b506105826110c3366004615244565b6144ed565b3480156110d457600080fd5b506105fd6110e3366004615244565b6145e6565b3480156110f457600080fd5b50610560611103366004615244565b614692565b34801561111457600080fd5b50600f54610689906001600160a01b031681565b34801561113457600080fd5b50601654610689906001600160a01b031681565b34801561115457600080fd5b506105fd611163366004615244565b60026020526000908152604090205481565b34801561118157600080fd5b5061056061119036600461554c565b6146d0565b3480156111a157600080fd5b506105fd614af4565b60006111b581614cd7565b50600c80546001600160a01b03909216620100000262010000600160b01b0319909216919091179055565b60006001600160e01b03198216637965db0b60e01b148061121157506301ffc9a760e01b6001600160e01b03198316145b92915050565b3360009081526005602052604090205460ff1661127b5760405162461bcd60e51b815260206004820152601a60248201527f4163636f756e74206e6f7420696e206c69717569646174696f6e00000000000060448201526064015b60405180910390fd5b6040516323b872dd60e01b8152336004820152306024820152604481018290526001600160a01b038316906323b872dd906064016020604051808303816000875af11580156112ce573d6000803e3d6000fd5b505050506040513d601f19601f820116820180604052508101906112f291906155a0565b506001600160a01b03821660009081526020818152604080832033845290915281208054839290611324908490615215565b909155506000905061133533612a74565b509050801561136157336000908152600560209081526040808320805460ff1916905560069091528120555b505050565b61136e614ce1565b6001600160a01b0381166113c45760405162461bcd60e51b815260206004820152601760248201527f496e76616c6964207265736572766520616464726573730000000000000000006044820152606401611272565b601680546001600160a01b0319166001600160a01b0383169081179091556040517f279ea638680bba6a87fddd8bcdbc37d94eee92841e1dfec2ab0f79662c70931190600090a250565b60006114186137fc565b905060005b81518110156114d157600082828151811061143a5761143a6155bd565b6020908102919091018101516001600160a01b03808216600090815260079093526040909220549092501680156114c757600061147683614d13565b9150610e10905061148782426155d3565b11156114c557600c805461ff00191661010017905560405160018152600080516020615ab48339815191529060200160405180910390a15050505050565b505b505060010161141d565b506000600b5411801561150b5750605f600b546013546012546114f491906155d3565b6114ff9060646155e6565b61150991906155fd565b115b1561154457600c805461ff00191661010017905560405160018152600080516020615ab48339815191529060200160405180910390a150565b6000805b60095481101561159d5761158260098281548110611568576115686155bd565b6000918252602090912001546001600160a01b0316612297565b1561159557816115918161561f565b9250505b600101611548565b50600954158015906115c757506009546005906115bb8360646155e6565b6115c591906155fd565b115b1561160157600c805461ff00191661010017905560405160018152600080516020615ab48339815191529060200160405180910390a15050565b5050565b6000908152600080516020615af4833981519152602052604090206001015490565b61163082611605565b61163981614cd7565b6116438383614e9c565b50505050565b611651614ce1565b60105486106116915760405162461bcd60e51b815260206004820152600c60248201526b24b73b30b634b2103a34b2b960a11b6044820152606401611272565b6040518060a0016040528086815260200185815260200184815260200183815260200182815250601087815481106116cb576116cb6155bd565b90600052602060002090600502016000820151816000015560208201518160010155604082015181600201556060820151816003015560808201518160040155905050505050505050565b6001600160a01b03821660009081526001602052604090205460ff1661177b57336001600160a01b0316600080516020615ad483398151915260405161175b90615638565b60405180910390a260405162461bcd60e51b815260040161127290615638565b6001600160a01b03821660009081526020818152604080832033845290915290205481111561183957336001600160a01b0316600080516020615ad48339815191526040516117f290602080825260149082015273496e73756666696369656e742062616c616e636560601b604082015260600190565b60405180910390a260405162461bcd60e51b8152602060048201526014602482015273496e73756666696369656e742062616c616e636560601b6044820152606401611272565b3360009081526005602052604090205460ff161561189657336001600160a01b0316600080516020615ad483398151915260405161187690615663565b60405180910390a260405162461bcd60e51b815260040161127290615663565b6000670de0b6b3a76400006118aa846145e6565b6118b490846155e6565b6118be91906155fd565b6118c7336124bc565b6118d191906155d3565b600d54604051631ee1b90b60e21b81526001600160a01b038681166004830152929350911690637b86e42c90602401602060405180830381865afa15801561191d573d6000803e3d6000fd5b505050506040513d601f19601f82011682018060405250810190611941919061569a565b3360009081526003602052604090205461195b91906155e6565b6119668260646155e6565b10156119b157336001600160a01b0316600080516020615ad4833981519152604051611991906156b3565b60405180910390a260405162461bcd60e51b8152600401611272906156b3565b6001600160a01b038316600090815260208181526040808320338452909152812080548492906119e29084906155d3565b909155505060405163a9059cbb60e01b8152336004820152602481018390526001600160a01b0384169063a9059cbb906044016020604051808303816000875af1158015611a34573d6000803e3d6000fd5b505050506040513d601f19601f82011682018060405250810190611a5891906155a0565b506040518281526001600160a01b0384169033907f45892a46e6cef329bb642da6d69846d324db43d19008edc141ed82382eda1bee9060200160405180910390a3505050565b611aa6614ce1565b601555565b6001600160a01b0381163314611ad45760405163334bd91960e11b815260040160405180910390fd5b6113618282614f41565b60098181548110611aee57600080fd5b6000918252602090912001546001600160a01b0316905081565b600080600080611b17856121cb565b905060006010826004811115611b2f57611b2f6153af565b81548110611b3f57611b3f6155bd565b90600052602060002090600502016040518060a00160405290816000820154815260200160018201548152602001600282015481526020016003820154815260200160048201548152505090508060400151816060015160648360800151600b54611baa91906155e6565b611bb491906155fd565b94509450945050509193909250565b600c54610100900460ff1615611beb5760405162461bcd60e51b815260040161127290615705565b336000908152600360205260408120549003611c9457336001600160a01b0316600080516020615ad4833981519152604051611c4e90602080825260139082015272139bc81bdd5d1cdd185b991a5b99c81919589d606a1b604082015260600190565b60405180910390a260405162461bcd60e51b8152602060048201526013602482015272139bc81bdd5d1cdd185b991a5b99c81919589d606a1b6044820152606401611272565b34600003611d3957336001600160a01b0316600080516020615ad4833981519152604051611cee906020808252601890820152774d7573742073656e642066756e647320746f20726570617960401b604082015260600190565b60405180910390a260405162461bcd60e51b81526020600482015260186024820152774d7573742073656e642066756e647320746f20726570617960401b6044820152606401611272565b33600090815260036020526040902054341115611df757336001600160a01b0316600080516020615ad4833981519152604051611da7906020808252601c908201527f52657061796d656e74206578636565647320746f74616c206465627400000000604082015260600190565b60405180910390a260405162461bcd60e51b815260206004820152601c60248201527f52657061796d656e74206578636565647320746f74616c2064656274000000006044820152606401611272565b6000611e02336121cb565b90503460116000836004811115611e1b57611e1b6153af565b6004811115611e2c57611e2c6153af565b81526020019081526020016000206000828254611e4991906155d3565b90915550503360009081526003602052604081208054349290611e6d9084906155d3565b925050819055503460136000828254611e869190615215565b9091555050336000908152600360205260408120549003611eb257336000908152600460205260408120555b3360009081526005602052604090205460ff1615611eed57336000908152600560209081526040808320805460ff1916905560069091528120555b6016546000906001600160a01b031615801590611f1857503360009081526004602052604090205415155b156120995733600090815260046020526040812054611f3a9062093a80615215565b421115611f7a57336000908152600460205260409020546201518090611f639062093a80615215565b611f6d90426155d3565b611f7791906155fd565b90505b80156120975761271061016d8260176000876004811115611f9d57611f9d6153af565b8152602080820192909252604090810160009081206001015433825260039093522054611fca91906155e6565b611fd491906155e6565b611fde91906155fd565b611fe891906155fd565b9150811561209757600e54336000818152600360205260409020546001600160a01b039092169163e50649d1918591876004811115612029576120296153af565b6040516001600160e01b031960e087901b1681526001600160a01b03909316600484015260248301919091526044820152606481018690526084016000604051808303818588803b15801561207d57600080fd5b505af1158015612091573d6000803e3d6000fd5b50505050505b505b60405134815233907f0516911bcc3a0a7412a44601057c0a0a1ec628bde049a84284bc4288665344889060200160405180910390a25050565b603c6018546120e19190615215565b42116121225760405162461bcd60e51b815260206004820152601060248201526f155c1ad9595c081d1a1c9bdd1d1b195960821b6044820152606401611272565b42601855600061213482840184615747565b905060005b8151811015611643576000828281518110612156576121566155bd565b6020908102919091018101516001600160a01b0381166000908152600590925260409091205490915060ff16156121c2576001600160a01b0381166000908152600660205260408120546121ae906203f48090615215565b90508042106121c0576121c082614156565b505b50600101612139565b6001600160a01b038116600090815260026020526040812054815b60105481101561226f5760108181548110612203576122036155bd565b9060005260206000209060050201600001548210158015612248575060108181548110612232576122326155bd565b9060005260206000209060050201600101548211155b156122675780600481111561225f5761225f6153af565b949350505050565b6001016121e6565b5060105461227f906001906155d3565b6004811115612290576122906153af565b9392505050565b6000806122a383612a74565b50905080158015612290575050506001600160a01b0316600090815260036020526040902054151590565b6122d6614ce1565b6001600160a01b0382166000908152600160205260408120805460ff1916831515179055805b60085481101561234e57836001600160a01b031660088281548110612323576123236155bd565b6000918252602090912001546001600160a01b031603612346576001915061234e565b6001016122fc565b5081801561235a575080155b156123ab57600880546001810182556000919091527ff3f7a9fe364faab93b216da50a3214154f22a0a2b415b23a84c8169e8b636ee30180546001600160a01b0319166001600160a01b0385161790555b826001600160a01b03167f15f5cc64ca777db85f6c05fdba671568758b38329616d4d4b43bb8b092fe9a8d836040516123e8911515815260200190565b60405180910390a2505050565b6001600160a01b03811660009081526001602052604081205460ff1661245d5760405162461bcd60e51b815260206004820152601f60248201527f546f6b656e206e6f7420616c6c6f77656420617320636f6c6c61746572616c006044820152606401611272565b506001600160a01b039081166000908152600760205260409020541690565b60006012546000036124955750670de0b6b3a764000090565b6012546013546124ad90670de0b6b3a76400006155e6565b6124b791906155fd565b905090565b600080806124c86137fc565b905060005b81518110156125615760008282815181106124ea576124ea6155bd565b6020908102919091018101516001600160a01b0380821660009081528084526040808220928b1682529190935290912054909150801561255757670de0b6b3a7640000612536836145e6565b61254090836155e6565b61254a91906155fd565b6125549086615215565b94505b50506001016124cd565b50909392505050565b60006060603c60185461257d9190615215565b42116125be5760405162461bcd60e51b815260206004820152601060248201526f155c1ad9595c081d1a1c9bdd1d1b195960821b6044820152606401611272565b60006125c86140f4565b90506000815167ffffffffffffffff8111156125e6576125e6615731565b60405190808252806020026020018201604052801561260f578160200160208202803683370190505b5090506000805b83518110156126d8576000848281518110612633576126336155bd565b6020908102919091018101516001600160a01b0381166000908152600590925260409091205490915060ff16156126cf576001600160a01b03811660009081526006602052604081205461268b906203f48090615215565b90508042106126cd57818585815181106126a7576126a76155bd565b6001600160a01b0390921660209283029190910190910152836126c98161561f565b9450505b505b50600101612616565b5080156127aa5760008167ffffffffffffffff8111156126fa576126fa615731565b604051908082528060200260200182016040528015612723578160200160208202803683370190505b50905060005b8281101561277d57838181518110612743576127436155bd565b602002602001015182828151811061275d5761275d6155bd565b6001600160a01b0390921660209283029190910190910152600101612729565b50600195508060405160200161279391906154d4565b6040516020818303038152906040529450506127af565b600094505b5050509250929050565b60006124b7612a46565b6127cb614ce1565b6001600160a01b0381166128135760405162461bcd60e51b815260206004820152600f60248201526e496e76616c6964206164647265737360881b6044820152606401611272565b61281c81614fbd565b612827600082614e9c565b50611601600033614f41565b6010818154811061284357600080fd5b6000918252602090912060059091020180546001820154600283015460038401546004909401549294509092909185565b61287c614ce1565b6128866000614fbd565b565b612890614ce1565b6001600160a01b03821660009081526001602052604090205460ff166128f85760405162461bcd60e51b815260206004820152601f60248201527f546f6b656e206e6f7420616c6c6f77656420617320636f6c6c61746572616c006044820152606401611272565b6001600160a01b03918216600090815260076020526040902080546001600160a01b03191691909216179055565b61292e614ce1565b600c5460ff16156129515760405162461bcd60e51b815260040161127290615817565b600c805460ff19166001179055478111156129ae5760405162461bcd60e51b815260206004820152601d60248201527f496e73756666696369656e7420636f6e74726163742062616c616e63650000006044820152606401611272565b6129b6612a46565b6001600160a01b03166108fc829081150290604051600060405180830381858888f193505050501580156129ee573d6000803e3d6000fd5b506129f7612a46565b6001600160a01b03167f69c169e5c85af54e1ca7e16608ccc812437821387924fb3353a7d053264ddaa082604051612a3191815260200190565b60405180910390a250600c805460ff19169055565b7f9016d09d72d40fdae2fd8ceac6b6234c7706214fd39c1cd1e609a0528c199300546001600160a01b031690565b6000806000612a82846124bc565b6001600160a01b038516600090815260036020526040812054919250819003612ab45750600194600019945092505050565b81600003612ac9575060009485945092505050565b6000612ad486611b08565b5050905081836064612ae691906155e6565b612af091906155fd565b90811015969095509350505050565b6000918252600080516020615af4833981519152602090815260408084206001600160a01b0393909316845291905290205460ff1690565b612b3f614ce1565b816001600160a01b038116612b965760405162461bcd60e51b815260206004820152601d60248201527f496e76616c696420616464726573733a207a65726f20616464726573730000006044820152606401611272565b306001600160a01b03821603612be65760405162461bcd60e51b815260206004820152601560248201527424b73b30b634b21030b2323932b9b99d1039b2b63360591b6044820152606401611272565b6064821115612c2c5760405162461bcd60e51b815260206004820152601260248201527153636f7265206f7574206f662072616e676560701b6044820152606401611272565b6001600160a01b03831660008181526002602052604090819020849055517f4afae6838a181695abc7978598380d73bc2144eb38580c130f86e4b1e6531e15906123e89085815260200190565b600080612c84614af4565b905080600003612c9d57670de0b6b3a764000091505090565b60018111612cb457670c7d713b49da000091505090565b60028111612ccb57670de0b6b3a764000091505090565b60038111612ce257670f43fc2c04ee000091505090565b6710a741a46278000091505090565b6001600160a01b03821660009081526001602052604090205460ff16612d3657336001600160a01b0316600080516020615ad483398151915260405161175b90615638565b80600003612dcf57336001600160a01b0316600080516020615ad4833981519152604051612d8a906020808252601290820152710416d6f756e74206d757374206265203e20360741b604082015260600190565b60405180910390a260405162461bcd60e51b81526020600482015260126024820152710416d6f756e74206d757374206265203e20360741b6044820152606401611272565b3360009081526005602052604090205460ff1615612e0c57336001600160a01b0316600080516020615ad483398151915260405161187690615663565b336000908152600a602052604090205460ff16612e8057336000818152600a60205260408120805460ff191660019081179091556009805491820181559091527f6e1540171b6c0c960b71a7020d9f60077f6af931a8bbf590da0223dacf75c7af0180546001600160a01b03191690911790555b6040516323b872dd60e01b8152336004820152306024820152604481018290526001600160a01b038316906323b872dd906064016020604051808303816000875af1158015612ed3573d6000803e3d6000fd5b505050506040513d601f19601f82011682018060405250810190612ef791906155a0565b506001600160a01b03821660009081526020818152604080832033845290915281208054839290612f29908490615215565b90915550506040518181526001600160a01b0383169033907ff1c0dd7e9b98bbff859029005ef89b127af049cd18df1a8d79f0b7e019911e569060200160405180910390a35050565b600066d529ae9e86000081612f85612fa4565b9050670de0b6b3a7640000612f9a82846155e6565b61225f91906155fd565b600080612faf612c79565b90506000612fbb612ff1565b9050670de0b6b3a7640000612fd082846155e6565b612fda91906155fd565b9250505090565b60088181548110611aee57600080fd5b600080612ffc61247c565b9050670d2f13f7789f0000811061301c57670de0b6b3a764000091505090565b670c7d713b49da0000811061303a57670e92596fd629000091505090565b670b1a2bc2ec5000008110612ce257670f43fc2c04ee000091505090565b613060614ce1565b600c805460ff610100808304821615810261ff00199093169290921792839055604051600080516020615ab4833981519152936130a69390049091161515815260200190565b60405180910390a1565b600c54610100900460ff16156130d85760405162461bcd60e51b815260040161127290615705565b600c5460ff16156130fb5760405162461bcd60e51b815260040161127290615817565b600c805460ff1916600117905560008190036131b857336001600160a01b0316600080516020615ad4833981519152604051613168906020808252601d908201527f416d6f756e74206d7573742062652067726561746572207468616e2030000000604082015260600190565b60405180910390a260405162461bcd60e51b815260206004820152601d60248201527f416d6f756e74206d7573742062652067726561746572207468616e20300000006044820152606401611272565b60006131c3336121cb565b905060008060006131d333611b08565b9194509250905060048460048111156131ee576131ee6153af565b0361328857336001600160a01b0316600080516020615ad4833981519152604051613241906020808252601490820152734372656469742073636f726520746f6f206c6f7760601b604082015260600190565b60405180910390a260405162461bcd60e51b81526020600482015260146024820152734372656469742073636f726520746f6f206c6f7760601b6044820152606401611272565b6002600b5461329791906155fd565b8511156132e357336001600160a01b0316600080516020615ad48339815191526040516132c39061583e565b60405180910390a260405162461bcd60e51b81526004016112729061583e565b8085111561333057336001600160a01b0316600080516020615ad48339815191526040516133109061588e565b60405180910390a260405162461bcd60e51b81526004016112729061588e565b33600090815260036020526040902054156133ec57336001600160a01b0316600080516020615ad483398151915260405161339c906020808252601e908201527f526570617920796f7572206578697374696e6720646562742066697273740000604082015260600190565b60405180910390a260405162461bcd60e51b815260206004820152601e60248201527f526570617920796f7572206578697374696e67206465627420666972737400006044820152606401611272565b336000908152600a602052604090205460ff1661346057336000818152600a60205260408120805460ff191660019081179091556009805491820181559091527f6e1540171b6c0c960b71a7020d9f60077f6af931a8bbf590da0223dacf75c7af0180546001600160a01b03191690911790555b600061346b336124bc565b905061347784876155e6565b6134828260646155e6565b10156134cd57336001600160a01b0316600080516020615ad48339815191526040516134ad906158d3565b60405180910390a260405162461bcd60e51b8152600401611272906158d3565b60008560048111156134e1576134e16153af565b6016549091506000906001600160a01b03161561359c5760008281526017602052604090205461271090613515908a6155e6565b61351f91906155fd565b9050801561359c57600e546040516324068d7760e11b8152336004820152602481018a905260448101849052606481018390526001600160a01b039091169063480d1aee9083906084016000604051808303818588803b15801561358257600080fd5b505af1158015613596573d6000803e3d6000fd5b50505050505b600e546040516303065a9d60e21b8152600481018a90526000916001600160a01b031690630c196a7490602401602060405180830381865afa1580156135e6573d6000803e3d6000fd5b505050506040513d601f19601f8201168201806040525081019061360a919061569a565b600f549091506000906001600160a01b031663c0798fe48a6004811115613633576136336153af565b6040518263ffffffff1660e01b815260040161365191815260200190565b602060405180830381865afa15801561366e573d6000803e3d6000fd5b505050506040513d601f19601f82011682018060405250810190613692919061569a565b33600090815260036020526040812080549293508c929091906136b6908490615215565b909155505033600090815260046020819052604082204290558b916011918c908111156136e5576136e56153af565b60048111156136f6576136f66153af565b815260200190815260200160002060008282546137139190615215565b92505081905550896012600082825461372c9190615215565b90915550506040518a815233907fac59582e5396aca512fa873a2047e7f4c80f8f55d4a06cb34a78a0187f62719f9060200160405180910390a25050600c805460ff191690555050505050505050565b613784614ce1565b6001600160a01b0381166137da5760405162461bcd60e51b815260206004820152601f60248201527f496e76616c6964206c656e64696e67206d616e616765722061646472657373006044820152606401611272565b600e80546001600160a01b0319166001600160a01b0392909216919091179055565b60606000805b600854811015613866576001600060088381548110613823576138236155bd565b60009182526020808320909101546001600160a01b0316835282019290925260400190205460ff161561385e578161385a8161561f565b9250505b600101613802565b5060008167ffffffffffffffff81111561388257613882615731565b6040519080825280602002602001820160405280156138ab578160200160208202803683370190505b5090506000805b600854811015612561576000600882815481106138d1576138d16155bd565b60009182526020808320909101546001600160a01b0316808352600190915260409091205490915060ff161561393a5780848481518110613914576139146155bd565b6001600160a01b0390921660209283029190910190910152826139368161561f565b9350505b506001016138b2565b61394b614ce1565b601054831061398b5760405162461bcd60e51b815260206004820152600c60248201526b24b73b30b634b2103a34b2b960a11b6044820152606401611272565b60408051808201825283815260208082018481526000878152601783528490209251835551600190920191909155815184815290810183905284917f7543d68ffbde1802767cee31f14403e1b914f7249f14f2724e7398aa10de092391016123e8565b600c5460ff1615613a115760405162461bcd60e51b815260040161127290615817565b600c805460ff191660011790819055610100900460ff1615613a455760405162461bcd60e51b815260040161127290615705565b613a4e82612297565b613a8d5760405162461bcd60e51b815260206004820152601060248201526f506f736974696f6e206865616c74687960801b6044820152606401611272565b6001600160a01b03811660009081526001602052604090205460ff16613aea5760405162461bcd60e51b8152602060048201526012602482015271125b9d985b1a590818dbdb1b185d195c985b60721b6044820152606401611272565b6001600160a01b03821660009081526003602052604081205490613b0d836145e6565b600d546040516356512fcd60e11b81526001600160a01b0386811660048301529293506000929091169063aca25f9a90602401602060405180830381865afa158015613b5d573d6000803e3d6000fd5b505050506040513d601f19601f82011682018060405250810190613b81919061569a565b905060008111613bc15760405162461bcd60e51b815260206004820152600b60248201526a131515881b9bdd081cd95d60aa1b6044820152606401611272565b600a6000613bd0826064615215565b613bda90866155e6565b613bec90670de0b6b3a76400006155e6565b90506000613bfa85856155e6565b90506000613c0882846155fd565b6001600160a01b03808a16600090815260208181526040808320938e168352929052205490915080821115613c3b578091505b601554821015613c855760405162461bcd60e51b81526020600482015260156024820152742132b637bb9036b4b7103634b8bab4b230ba34b7b760591b6044820152606401611272565b6001600160a01b03808a16600090815260208181526040808320938e1683529290529081208054849290613cba9084906155d3565b90915550506001600160a01b038a1660009081526003602090815260408083208390556004825280832083905560058252808320805460ff19169055600690915281208190558890601190613d0e8d6121cb565b6004811115613d1f57613d1f6153af565b6004811115613d3057613d306153af565b81526020019081526020016000206000828254613d4d91906155d3565b925050819055508760136000828254613d669190615215565b909155505060405163a9059cbb60e01b8152336004820152602481018390526001600160a01b038a169063a9059cbb906044016020604051808303816000875af1158015613db8573d6000803e3d6000fd5b505050506040513d601f19601f82011682018060405250810190613ddc91906155a0565b5060408051838152602081018a90526001600160a01b03808c16923392918e16917f61a26dafe158573397cb85ec41fab65aa51d01855779276c8eb8c6915f7c577e910160405180910390a45050600c805460ff191690555050505050505050565b613e4782611605565b613e5081614cd7565b6116438383614f41565b613e62614ce1565b62015180811115613ea15760405162461bcd60e51b8152602060048201526009602482015268546f6f206c6172676560b81b6044820152606401611272565b6001600160a01b03909116600090815260146020526040902055565b600c5460ff1615613ee05760405162461bcd60e51b815260040161127290615817565b600c805460ff19166001179055600e54336001600160a01b0390911614613f545760405162461bcd60e51b815260206004820152602260248201527f4f6e6c79206c656e64696e67206d616e616765722063616e2063616c6c207468604482015261697360f01b6064820152608401611272565b47811115613fa45760405162461bcd60e51b815260206004820152601d60248201527f496e73756666696369656e7420636f6e74726163742062616c616e63650000006044820152606401611272565b604051339082156108fc029083906000818181858888f19350505050158015613fd1573d6000803e3d6000fd5b5050600c805460ff19169055565b6000613fea82612a74565b50905080156140315760405162461bcd60e51b8152602060048201526013602482015272506f736974696f6e206973206865616c74687960681b6044820152606401611272565b6001600160a01b03821660009081526005602052604090205460ff161561409a5760405162461bcd60e51b815260206004820152601b60248201527f4c69717569646174696f6e20616c7265616479207374617274656400000000006044820152606401611272565b6001600160a01b0382166000818152600560209081526040808320805460ff191660011790556006909152808220429055517f7f62ed89ea2c6fb057e4ea77729c1d3f18056339791fce29ac89760197b45b299190a25050565b6060600980548060200260200160405190810160405280929190818152602001828054801561414c57602002820191906000526020600020905b81546001600160a01b0316815260019091019060200180831161412e575b5050505050905090565b6001600160a01b03811660009081526005602052604090205460ff166141c95760405162461bcd60e51b815260206004820152602260248201527f4163636f756e74206e6f74206d61726b656420666f72206c697175696461746960448201526137b760f11b6064820152608401611272565b6001600160a01b0381166000908152600660205260409020546141f0906203f48090615215565b4210156142385760405162461bcd60e51b815260206004820152601660248201527511dc9858d9481c195c9a5bd9081b9bdd08195b99195960521b6044820152606401611272565b60006142426137fc565b905060005b81518110156142c657614272828281518110614265576142656155bd565b60200260200101516144ed565b6142be5760405162461bcd60e51b815260206004820181905260248201527f4f7261636c65206369726375697420627265616b6572207472696767657265646044820152606401611272565b600101614247565b506001600160a01b0382166000908152600360205260408120549060646142ee6005846155e6565b6142f891906155fd565b905060006143068284615215565b905060005b84518110156143f9576000858281518110614328576143286155bd565b6020908102919091018101516001600160a01b0380821660009081528084526040808220928c168252919093529091205490915080156143ef576001600160a01b03828116600081815260208181526040808320948d16835293905282812055905163a9059cbb60e01b81523360048201526024810183905263a9059cbb906044016020604051808303816000875af11580156143c9573d6000803e3d6000fd5b505050506040513d601f19601f820116820180604052508101906143ed91906155a0565b505b505060010161430b565b506001600160a01b03851660009081526003602090815260408083208390556004825280832083905560058252808320805460ff19169055600690915281208190558390601190614449886121cb565b600481111561445a5761445a6153af565b600481111561446b5761446b6153af565b8152602001908152602001600020600082825461448891906155d3565b9250508190555082601360008282546144a19190615215565b909155505060405181815233906001600160a01b038716907f1175522017e08c2f400d7e516608eff60816ee9e8319158d174321234b6026319060200160405180910390a35050505050565b6001600160a01b03808216600090815260076020526040812054909116806145185750600092915050565b60008190506000806000836001600160a01b031663feaf968c6040518163ffffffff1660e01b815260040160a060405180830381865afa158015614560573d6000803e3d6000fd5b505050506040513d601f19601f82011682018060405250810190614584919061592f565b94509450505092506145958761502e565b61459f83426155d3565b11156145b2575060009695505050505050565b826001600160501b0316816001600160501b031610156145d9575060009695505050505050565b5060019695505050505050565b6000806145f283614d13565b506001600160a01b0380851660009081526007602090815260409182902054825163313ce56760e01b8152925194955090921692839263313ce56792600480820193918290030181865afa15801561464e573d6000803e3d6000fd5b505050506040513d601f19601f820116820180604052508101906146729190615981565b61467d9060126159a4565b61468890600a615aa4565b61225f90836155e6565b61469a614ce1565b6001600160a01b0381166146c457604051631e4fbdf760e01b815260006004820152602401611272565b6146cd81614fbd565b50565b60006146da6150da565b805490915060ff600160401b820416159067ffffffffffffffff166000811580156147025750825b905060008267ffffffffffffffff16600114801561471f5750303b155b90508115801561472d575080155b1561474b5760405163f92ee8a960e01b815260040160405180910390fd5b845467ffffffffffffffff19166001178555831561477557845460ff60401b1916600160401b1785555b61477e89615103565b614786615114565b61479160008061511c565b61479c60008a614e9c565b50600d80546001600160a01b03808b166001600160a01b031992831617909255600e80548a8416908316179055600f805492891692909116919091179055614a9860106040518060a00160405280605a815260200160648152602001606e81526020016018198152602001603281525090806001815401808255809150506001900390600052602060002090600502016000909190919091506000820151816000015560208201518160010155604082015181600201556060820151816003015560808201518160040155505060106040518060a001604052806050815260200160598152602001607d81526020016009198152602001602881525090806001815401808255809150506001900390600052602060002090600502016000909190919091506000820151816000015560208201518160010155604082015181600201556060820151816003015560808201518160040155505060106040518060a0016040528060468152602001604f8152602001608c815260200160008152602001601e81525090806001815401808255809150506001900390600052602060002090600502016000909190919091506000820151816000015560208201518160010155604082015181600201556060820151816003015560808201518160040155505060106040518060a00160405280603c81526020016045815260200160a08152602001600f8152602001601481525090806001815401808255809150506001900390600052602060002090600502016000909190919091506000820151816000015560208201518160010155604082015181600201556060820151816003015560808201518160040155505060106040518060a0016040528060008152602001603b815260200160c88152602001601e81526020016000815250908060018154018082558091505060019003906000526020600020906005020160009091909190915060008201518160000155602082015181600101556040820151816002015560608201518160030155608082015181600401555050565b662386f26fc100006015558315614ae957845460ff60401b19168555604051600181527fc7f505b2f371ae2175ee4913f4499e1f2633a7b5936321eed1cdaeb6115181d29060200160405180910390a15b505050505050505050565b600080805260116020527f4ad3b33220dddc71b994a52d72c06b10862965f7d926534c05c00fb7e819e7b75481908190614b2f9060016155e6565b614b399083615215565b600160005260116020527f17bc176d2408558f6e4111feebc3cab4e16b63e967be91cde721f4c8a488b55254909250614b739060026155e6565b614b7d9083615215565b600260005260116020527f08037d7b151cc412d25674a4e66b334d9ae9d2e5517a7feaae5cdb828bf1c62854909250614bb79060036155e6565b614bc19083615215565b600360005260116020527f9bfbaa59f8e10e7868f8b402de9d605a390c45ddaebd8c9de3c6f31e733c87ff54909250614bfb9060046155e6565b614c059083615215565b60116020527f9bfbaa59f8e10e7868f8b402de9d605a390c45ddaebd8c9de3c6f31e733c87ff547f08037d7b151cc412d25674a4e66b334d9ae9d2e5517a7feaae5cdb828bf1c628547f17bc176d2408558f6e4111feebc3cab4e16b63e967be91cde721f4c8a488b55254600080527f4ad3b33220dddc71b994a52d72c06b10862965f7d926534c05c00fb7e819e7b75493955091929091614ca691615215565b614cb09190615215565b614cba9190615215565b905080600003614ccd5760009250505090565b612fda81836155fd565b6146cd813361517f565b33614cea612a46565b6001600160a01b0316146128865760405163118cdaa760e01b8152336004820152602401611272565b6001600160a01b03808216600090815260076020526040812054909182911680614d745760405162461bcd60e51b8152602060048201526012602482015271141c9a58d94819995959081b9bdd081cd95d60721b6044820152606401611272565b6000819050600080600080846001600160a01b031663feaf968c6040518163ffffffff1660e01b815260040160a060405180830381865afa158015614dbd573d6000803e3d6000fd5b505050506040513d601f19601f82011682018060405250810190614de1919061592f565b945094505093509350614df38961502e565b614dfd83426155d3565b1115614e395760405162461bcd60e51b815260206004820152600b60248201526a5374616c6520707269636560a81b6044820152606401611272565b836001600160501b0316816001600160501b03161015614e8e5760405162461bcd60e51b815260206004820152601060248201526f5374616c6520726f756e64206461746160801b6044820152606401611272565b509097909650945050505050565b6000600080516020615af4833981519152614eb78484612aff565b614f37576000848152602082815260408083206001600160a01b03871684529091529020805460ff19166001179055614eed3390565b6001600160a01b0316836001600160a01b0316857f2f8788117e7eff1d82e926ec794901d17c78024a50270940304540a733656f0d60405160405180910390a46001915050611211565b6000915050611211565b6000600080516020615af4833981519152614f5c8484612aff565b15614f37576000848152602082815260408083206001600160a01b0387168085529252808320805460ff1916905551339287917ff6391f5c32d9c69d2a47ea670b442974b53935d1edc7fd64eb21e047a839171b9190a46001915050611211565b7f9016d09d72d40fdae2fd8ceac6b6234c7706214fd39c1cd1e609a0528c19930080546001600160a01b031981166001600160a01b03848116918217845560405192169182907f8be0079c531659141344cd1fd0a4f28419497f9722a3daafe3b4186f6b6457e090600090a3505050565b6001600160a01b03811660009081526014602052604081205480156150535792915050565b600d54604051631a650cc760e01b81526001600160a01b03858116600483015290911690631a650cc790602401602060405180830381865afa15801561509d573d6000803e3d6000fd5b505050506040513d601f19601f820116820180604052508101906150c191906155a0565b156150d05750610e1092915050565b5061038492915050565b6000807ff0c57e16840df040f15088dc2f81fe391c3923bec73e23a9662efc9c229c6a00611211565b61510b6151b8565b6146cd816151dd565b6128866151b8565b600080516020615af4833981519152600061513684611605565b600085815260208490526040808220600101869055519192508491839187917fbd79b86ffe0ab8e8776151514217cd7cacd52c909f66475c3af44e129f0b00ff9190a450505050565b6151898282612aff565b6116015760405163e2517d3f60e01b81526001600160a01b038216600482015260248101839052604401611272565b6151c06151e5565b61288657604051631afcd79f60e31b815260040160405180910390fd5b61469a6151b8565b60006151ef6150da565b54600160401b900460ff16919050565b634e487b7160e01b600052601160045260246000fd5b80820180821115611211576112116151ff565b80356001600160a01b038116811461523f57600080fd5b919050565b60006020828403121561525657600080fd5b61229082615228565b60006020828403121561527157600080fd5b81356001600160e01b03198116811461229057600080fd5b6000806040838503121561529c57600080fd5b6152a583615228565b946020939093013593505050565b6000602082840312156152c557600080fd5b5035919050565b600080604083850312156152df57600080fd5b823591506152ef60208401615228565b90509250929050565b60008060008060008060c0878903121561531157600080fd5b505084359660208601359650604086013595606081013595506080810135945060a0013592509050565b6000806020838503121561534e57600080fd5b823567ffffffffffffffff81111561536557600080fd5b8301601f8101851361537657600080fd5b803567ffffffffffffffff81111561538d57600080fd5b85602082840101111561539f57600080fd5b6020919091019590945092505050565b634e487b7160e01b600052602160045260246000fd5b60208101600583106153e757634e487b7160e01b600052602160045260246000fd5b91905290565b6000806040838503121561540057600080fd5b61540983615228565b91506152ef60208401615228565b80151581146146cd57600080fd5b6000806040838503121561543857600080fd5b61544183615228565b9150602083013561545181615417565b809150509250929050565b8215158152604060208201526000825180604084015260005b818110156154925760208186018101516060868401015201615475565b506000606082850101526060601f19601f8301168401019150509392505050565b6000602082840312156154c557600080fd5b81356005811061229057600080fd5b602080825282518282018190526000918401906040840190835b818110156155155783516001600160a01b03168352602093840193909201916001016154ee565b509095945050505050565b60008060006060848603121561553557600080fd5b505081359360208301359350604090920135919050565b6000806000806080858703121561556257600080fd5b61556b85615228565b935061557960208601615228565b925061558760408601615228565b915061559560608601615228565b905092959194509250565b6000602082840312156155b257600080fd5b815161229081615417565b634e487b7160e01b600052603260045260246000fd5b81810381811115611211576112116151ff565b8082028115828204841417611211576112116151ff565b60008261561a57634e487b7160e01b600052601260045260246000fd5b500490565b600060018201615631576156316151ff565b5060010190565b602080825260119082015270151bdad95b881b9bdd08185b1b1bddd959607a1b604082015260600190565b60208082526019908201527f4163636f756e7420697320696e206c69717569646174696f6e00000000000000604082015260600190565b6000602082840312156156ac57600080fd5b5051919050565b60208082526032908201527f5769746864726177616c20776f756c64206d616b6520706f736974696f6e20756040820152711b99195c98dbdb1b185d195c985b1a5e995960721b606082015260800190565b60208082526012908201527110dbdb9d1c9858dd081a5cc81c185d5cd95960721b604082015260600190565b634e487b7160e01b600052604160045260246000fd5b60006020828403121561575957600080fd5b813567ffffffffffffffff81111561577057600080fd5b8201601f8101841361578157600080fd5b803567ffffffffffffffff81111561579b5761579b615731565b8060051b604051601f19603f830116810181811067ffffffffffffffff821117156157c8576157c8615731565b6040529182526020818401810192908101878411156157e657600080fd5b6020850194505b8385101561580c576157fe85615228565b8152602094850194016157ed565b509695505050505050565b6020808252600d908201526c4e6f207265656e7472616e637960981b604082015260600190565b60208082526030908201527f426f72726f7720616d6f756e74206578636565647320617661696c61626c652060408201526f6c656e64696e6720636170616369747960801b606082015260800190565b60208082526025908201527f426f72726f7720616d6f756e74206578636565647320796f75722074696572206040820152641b1a5b5a5d60da1b606082015260800190565b60208082526025908201527f496e73756666696369656e7420636f6c6c61746572616c20666f722074686973604082015264103637b0b760d91b606082015260800190565b80516001600160501b038116811461523f57600080fd5b600080600080600060a0868803121561594757600080fd5b61595086615918565b6020870151604088015160608901519297509095509350915061597560808701615918565b90509295509295909350565b60006020828403121561599357600080fd5b815160ff8116811461229057600080fd5b60ff8281168282160390811115611211576112116151ff565b6001815b60018411156159f8578085048111156159dc576159dc6151ff565b60018416156159ea57908102905b60019390931c9280026159c1565b935093915050565b600082615a0f57506001611211565b81615a1c57506000611211565b8160018114615a325760028114615a3c57615a58565b6001915050611211565b60ff841115615a4d57615a4d6151ff565b50506001821b611211565b5060208310610133831016604e8410600b8410161715615a7b575081810a611211565b615a8860001984846159bd565b8060001904821115615a9c57615a9c6151ff565b029392505050565b600061229060ff841683615a0056fe228f455d7bc3d0b24a3a08d7847f391c3e78fc8aeb83acf226b7a96ee162b8ac3c364b9decdac59fbe037e99687219ac0feed46572bfbcbd5284b6b8e67f402d02dd7bc7dec4dceedda775e58dd541e08a116c6c53815c0bd028192f7b626800a2646970667358221220656508e460cac89f59c56e512aff60bb50ed8eb42a1d44393f93ebcca448022f64736f6c634300081c0033",
  "linkReferences": {},
  "deployedLinkReferences": {}
}