{
  "_format": "hh-sol-artifact-1",
  "contractName": "LiquidityPoolV3",
  "sourceName": "contracts/LiquidityPoolV3.sol",
  "abi": [
    {
      "inputs": [],
      "name": "AccessControlBadConfirmation",
      "type": "error"
    },
    {
      "inputs": [
        {
          "internalType": "address",
          "name": "account",
          "type": "address"
        },
        {
          "internalType": "bytes32",
          "name": "neededRole",
          "type": "bytes32"
        }
      ],
      "name": "AccessControlUnauthorizedAccount",
      "type": "error"
    },
    {
      "inputs": [],
      "name": "InvalidInitialization",
      "type": "error"
    },
    {
      "inputs": [],
      "name": "NotInitializing",
      "type": "error"
    },
    {
      "inputs": [
        {
          "internalType": "address",
          "name": "owner",
          "type": "address"
        }
      ],
      "name": "OwnableInvalidOwner",
      "type": "error"
    },
    {
      "inputs": [
        {
          "internalType": "address",
          "name": "account",
          "type": "address"
        }
      ],
      "name": "OwnableUnauthorizedAccount",
      "type": "error"
    },
    {
      "anonymous": false,
      "inputs": [
        {
          "indexed": true,
          "internalType": "address",
          "name": "user",
          "type": "address"
        },
        {
          "indexed": false,
          "internalType": "uint256",
          "name": "amount",
          "type": "uint256"
        }
      ],
      "name": "Borrowed",
      "type": "event"
    },
    {
      "anonymous": false,
      "inputs": [
        {
          "indexed": true,
          "internalType": "address",
          "name": "user",
          "type": "address"
        },
        {
          "indexed": true,
          "internalType": "address",
          "name": "token",
          "type": "address"
        },
        {
          "indexed": false,
          "internalType": "uint256",
          "name": "amount",
          "type": "uint256"
        }
      ],
      "name": "CollateralDeposited",
      "type": "event"
    },
    {
      "anonymous": false,
      "inputs": [
        {
          "indexed": true,
          "internalType": "address",
          "name": "token",
          "type": "address"
        },
        {
          "indexed": false,
          "internalType": "bool",
          "name": "isAllowed",
          "type": "bool"
        }
      ],
      "name": "CollateralTokenStatusChanged",
      "type": "event"
    },
    {
      "anonymous": false,
      "inputs": [
        {
          "indexed": true,
          "internalType": "address",
          "name": "user",
          "type": "address"
        },
        {
          "indexed": true,
          "internalType": "address",
          "name": "token",
          "type": "address"
        },
        {
          "indexed": false,
          "internalType": "uint256",
          "name": "amount",
          "type": "uint256"
        }
      ],
      "name": "CollateralWithdrawn",
      "type": "event"
    },
    {
      "anonymous": false,
      "inputs": [
        {
          "indexed": true,
          "internalType": "address",
          "name": "user",
          "type": "address"
        },
        {
          "indexed": false,
          "internalType": "uint256",
          "name": "score",
          "type": "uint256"
        }
      ],
      "name": "CreditScoreAssigned",
      "type": "event"
    },
    {
      "anonymous": false,
      "inputs": [
        {
          "indexed": true,
          "internalType": "address",
          "name": "lender",
          "type": "address"
        },
        {
          "indexed": false,
          "internalType": "uint256",
          "name": "penaltyAmount",
          "type": "uint256"
        }
      ],
      "name": "EarlyWithdrawalPenalty",
      "type": "event"
    },
    {
      "anonymous": false,
      "inputs": [
        {
          "indexed": false,
          "internalType": "bool",
          "name": "isPaused",
          "type": "bool"
        }
      ],
      "name": "EmergencyPaused",
      "type": "event"
    },
    {
      "anonymous": false,
      "inputs": [
        {
          "indexed": true,
          "internalType": "address",
          "name": "owner",
          "type": "address"
        },
        {
          "indexed": false,
          "internalType": "uint256",
          "name": "amount",
          "type": "uint256"
        }
      ],
      "name": "Extracted",
      "type": "event"
    },
    {
      "anonymous": false,
      "inputs": [
        {
          "indexed": true,
          "internalType": "address",
          "name": "lender",
          "type": "address"
        },
        {
          "indexed": false,
          "internalType": "uint256",
          "name": "amount",
          "type": "uint256"
        }
      ],
      "name": "FundsDeposited",
      "type": "event"
    },
    {
      "anonymous": false,
      "inputs": [
        {
          "indexed": true,
          "internalType": "address",
          "name": "lender",
          "type": "address"
        },
        {
          "indexed": false,
          "internalType": "uint256",
          "name": "amount",
          "type": "uint256"
        },
        {
          "indexed": false,
          "internalType": "uint256",
          "name": "penalty",
          "type": "uint256"
        }
      ],
      "name": "FundsWithdrawn",
      "type": "event"
    },
    {
      "anonymous": false,
      "inputs": [
        {
          "indexed": true,
          "internalType": "address",
          "name": "user",
          "type": "address"
        },
        {
          "indexed": false,
          "internalType": "uint256",
          "name": "newDeadline",
          "type": "uint256"
        }
      ],
      "name": "GracePeriodExtended",
      "type": "event"
    },
    {
      "anonymous": false,
      "inputs": [
        {
          "indexed": false,
          "internalType": "uint64",
          "name": "version",
          "type": "uint64"
        }
      ],
      "name": "Initialized",
      "type": "event"
    },
    {
      "anonymous": false,
      "inputs": [
        {
          "indexed": true,
          "internalType": "address",
          "name": "lender",
          "type": "address"
        },
        {
          "indexed": false,
          "internalType": "uint256",
          "name": "amount",
          "type": "uint256"
        }
      ],
      "name": "InterestAvailable",
      "type": "event"
    },
    {
      "anonymous": false,
      "inputs": [
        {
          "indexed": true,
          "internalType": "address",
          "name": "lender",
          "type": "address"
        },
        {
          "indexed": false,
          "internalType": "uint256",
          "name": "interest",
          "type": "uint256"
        }
      ],
      "name": "InterestClaimed",
      "type": "event"
    },
    {
      "anonymous": false,
      "inputs": [
        {
          "indexed": true,
          "internalType": "address",
          "name": "lender",
          "type": "address"
        },
        {
          "indexed": false,
          "internalType": "uint256",
          "name": "interest",
          "type": "uint256"
        }
      ],
      "name": "InterestCredited",
      "type": "event"
    },
    {
      "anonymous": false,
      "inputs": [
        {
          "indexed": true,
          "internalType": "address",
          "name": "user",
          "type": "address"
        },
        {
          "indexed": true,
          "internalType": "address",
          "name": "liquidator",
          "type": "address"
        },
        {
          "indexed": false,
          "internalType": "uint256",
          "name": "amount",
          "type": "uint256"
        }
      ],
      "name": "LiquidationExecuted",
      "type": "event"
    },
    {
      "anonymous": false,
      "inputs": [
        {
          "indexed": true,
          "internalType": "address",
          "name": "user",
          "type": "address"
        }
      ],
      "name": "LiquidationStarted",
      "type": "event"
    },
    {
      "anonymous": false,
      "inputs": [
        {
          "indexed": true,
          "internalType": "address",
          "name": "previousOwner",
          "type": "address"
        },
        {
          "indexed": true,
          "internalType": "address",
          "name": "newOwner",
          "type": "address"
        }
      ],
      "name": "OwnershipTransferred",
      "type": "event"
    },
    {
      "anonymous": false,
      "inputs": [
        {
          "indexed": true,
          "internalType": "address",
          "name": "lender",
          "type": "address"
        },
        {
          "indexed": false,
          "internalType": "uint256",
          "name": "amount",
          "type": "uint256"
        },
        {
          "indexed": false,
          "internalType": "uint256",
          "name": "unlockTime",
          "type": "uint256"
        }
      ],
      "name": "PrincipalWithdrawalRequested",
      "type": "event"
    },
    {
      "anonymous": false,
      "inputs": [
        {
          "indexed": true,
          "internalType": "address",
          "name": "user",
          "type": "address"
        },
        {
          "indexed": false,
          "internalType": "uint256",
          "name": "amount",
          "type": "uint256"
        }
      ],
      "name": "Repaid",
      "type": "event"
    },
    {
      "anonymous": false,
      "inputs": [
        {
          "indexed": true,
          "internalType": "bytes32",
          "name": "role",
          "type": "bytes32"
        },
        {
          "indexed": true,
          "internalType": "bytes32",
          "name": "previousAdminRole",
          "type": "bytes32"
        },
        {
          "indexed": true,
          "internalType": "bytes32",
          "name": "newAdminRole",
          "type": "bytes32"
        }
      ],
      "name": "RoleAdminChanged",
      "type": "event"
    },
    {
      "anonymous": false,
      "inputs": [
        {
          "indexed": true,
          "internalType": "bytes32",
          "name": "role",
          "type": "bytes32"
        },
        {
          "indexed": true,
          "internalType": "address",
          "name": "account",
          "type": "address"
        },
        {
          "indexed": true,
          "internalType": "address",
          "name": "sender",
          "type": "address"
        }
      ],
      "name": "RoleGranted",
      "type": "event"
    },
    {
      "anonymous": false,
      "inputs": [
        {
          "indexed": true,
          "internalType": "bytes32",
          "name": "role",
          "type": "bytes32"
        },
        {
          "indexed": true,
          "internalType": "address",
          "name": "account",
          "type": "address"
        },
        {
          "indexed": true,
          "internalType": "address",
          "name": "sender",
          "type": "address"
        }
      ],
      "name": "RoleRevoked",
      "type": "event"
    },
    {
      "anonymous": false,
      "inputs": [
        {
          "indexed": true,
          "internalType": "address",
          "name": "user",
          "type": "address"
        },
        {
          "indexed": false,
          "internalType": "string",
          "name": "message",
          "type": "string"
        }
      ],
      "name": "UserError",
      "type": "event"
    },
    {
      "anonymous": false,
      "inputs": [
        {
          "indexed": true,
          "internalType": "address",
          "name": "lender",
          "type": "address"
        },
        {
          "indexed": false,
          "internalType": "uint256",
          "name": "amount",
          "type": "uint256"
        }
      ],
      "name": "WithdrawalCancelled",
      "type": "event"
    },
    {
      "anonymous": false,
      "inputs": [
        {
          "indexed": true,
          "internalType": "address",
          "name": "lender",
          "type": "address"
        },
        {
          "indexed": false,
          "internalType": "uint256",
          "name": "amount",
          "type": "uint256"
        },
        {
          "indexed": false,
          "internalType": "uint256",
          "name": "unlockTime",
          "type": "uint256"
        }
      ],
      "name": "WithdrawalRequested",
      "type": "event"
    },
    {
      "inputs": [],
      "name": "DEFAULT_ADMIN_ROLE",
      "outputs": [
        {
          "internalType": "bytes32",
          "name": "",
          "type": "bytes32"
        }
      ],
      "stateMutability": "view",
      "type": "function"
    },
    {
      "inputs": [],
      "name": "DEFAULT_LIQUIDATION_THRESHOLD",
      "outputs": [
        {
          "internalType": "uint256",
          "name": "",
          "type": "uint256"
        }
      ],
      "stateMutability": "view",
      "type": "function"
    },
    {
      "inputs": [],
      "name": "EARLY_WITHDRAWAL_PENALTY",
      "outputs": [
        {
          "internalType": "uint256",
          "name": "",
          "type": "uint256"
        }
      ],
      "stateMutability": "view",
      "type": "function"
    },
    {
      "inputs": [],
      "name": "GRACE_PERIOD",
      "outputs": [
        {
          "internalType": "uint256",
          "name": "",
          "type": "uint256"
        }
      ],
      "stateMutability": "view",
      "type": "function"
    },
    {
      "inputs": [],
      "name": "LIQUIDATION_PENALTY",
      "outputs": [
        {
          "internalType": "uint256",
          "name": "",
          "type": "uint256"
        }
      ],
      "stateMutability": "view",
      "type": "function"
    },
    {
      "inputs": [],
      "name": "MAX_DEPOSIT_AMOUNT",
      "outputs": [
        {
          "internalType": "uint256",
          "name": "",
          "type": "uint256"
        }
      ],
      "stateMutability": "view",
      "type": "function"
    },
    {
      "inputs": [],
      "name": "MIN_DEPOSIT_AMOUNT",
      "outputs": [
        {
          "internalType": "uint256",
          "name": "",
          "type": "uint256"
        }
      ],
      "stateMutability": "view",
      "type": "function"
    },
    {
      "inputs": [],
      "name": "SECONDS_PER_DAY",
      "outputs": [
        {
          "internalType": "uint256",
          "name": "",
          "type": "uint256"
        }
      ],
      "stateMutability": "view",
      "type": "function"
    },
    {
      "inputs": [],
      "name": "WITHDRAWAL_COOLDOWN",
      "outputs": [
        {
          "internalType": "uint256",
          "name": "",
          "type": "uint256"
        }
      ],
      "stateMutability": "view",
      "type": "function"
    },
    {
      "inputs": [
        {
          "internalType": "uint256",
          "name": "amount",
          "type": "uint256"
        }
      ],
      "name": "borrow",
      "outputs": [],
      "stateMutability": "nonpayable",
      "type": "function"
    },
    {
      "inputs": [
        {
          "internalType": "address",
          "name": "",
          "type": "address"
        }
      ],
      "name": "borrowTimestamp",
      "outputs": [
        {
          "internalType": "uint256",
          "name": "",
          "type": "uint256"
        }
      ],
      "stateMutability": "view",
      "type": "function"
    },
    {
      "inputs": [
        {
          "internalType": "address",
          "name": "lender",
          "type": "address"
        }
      ],
      "name": "calculateInterest",
      "outputs": [
        {
          "internalType": "uint256",
          "name": "interest",
          "type": "uint256"
        }
      ],
      "stateMutability": "view",
      "type": "function"
    },
    {
      "inputs": [
        {
          "internalType": "uint256",
          "name": "amount",
          "type": "uint256"
        },
        {
          "internalType": "uint256",
          "name": "numDays",
          "type": "uint256"
        }
      ],
      "name": "calculatePotentialInterest",
      "outputs": [
        {
          "internalType": "uint256",
          "name": "",
          "type": "uint256"
        }
      ],
      "stateMutability": "view",
      "type": "function"
    },
    {
      "inputs": [
        {
          "internalType": "address",
          "name": "lender",
          "type": "address"
        }
      ],
      "name": "canCompleteWithdrawal",
      "outputs": [
        {
          "internalType": "bool",
          "name": "",
          "type": "bool"
        }
      ],
      "stateMutability": "view",
      "type": "function"
    },
    {
      "inputs": [],
      "name": "cancelPrincipalWithdrawal",
      "outputs": [],
      "stateMutability": "nonpayable",
      "type": "function"
    },
    {
      "inputs": [
        {
          "internalType": "address",
          "name": "user",
          "type": "address"
        }
      ],
      "name": "checkCollateralization",
      "outputs": [
        {
          "internalType": "bool",
          "name": "isHealthy",
          "type": "bool"
        },
        {
          "internalType": "uint256",
          "name": "ratio",
          "type": "uint256"
        }
      ],
      "stateMutability": "view",
      "type": "function"
    },
    {
      "inputs": [
        {
          "internalType": "bytes",
          "name": "",
          "type": "bytes"
        }
      ],
      "name": "checkUpkeep",
      "outputs": [
        {
          "internalType": "bool",
          "name": "upkeepNeeded",
          "type": "bool"
        },
        {
          "internalType": "bytes",
          "name": "performData",
          "type": "bytes"
        }
      ],
      "stateMutability": "view",
      "type": "function"
    },
    {
      "inputs": [],
      "name": "claimInterest",
      "outputs": [],
      "stateMutability": "nonpayable",
      "type": "function"
    },
    {
      "inputs": [
        {
          "internalType": "address",
          "name": "",
          "type": "address"
        },
        {
          "internalType": "address",
          "name": "",
          "type": "address"
        }
      ],
      "name": "collateralBalance",
      "outputs": [
        {
          "internalType": "uint256",
          "name": "",
          "type": "uint256"
        }
      ],
      "stateMutability": "view",
      "type": "function"
    },
    {
      "inputs": [
        {
          "internalType": "uint256",
          "name": "",
          "type": "uint256"
        }
      ],
      "name": "collateralTokenList",
      "outputs": [
        {
          "internalType": "address",
          "name": "",
          "type": "address"
        }
      ],
      "stateMutability": "view",
      "type": "function"
    },
    {
      "inputs": [],
      "name": "completeWithdrawal",
      "outputs": [],
      "stateMutability": "nonpayable",
      "type": "function"
    },
    {
      "inputs": [
        {
          "internalType": "address",
          "name": "",
          "type": "address"
        }
      ],
      "name": "creditScore",
      "outputs": [
        {
          "internalType": "uint256",
          "name": "",
          "type": "uint256"
        }
      ],
      "stateMutability": "view",
      "type": "function"
    },
    {
      "inputs": [],
      "name": "currentDailyRate",
      "outputs": [
        {
          "internalType": "uint256",
          "name": "",
          "type": "uint256"
        }
      ],
      "stateMutability": "view",
      "type": "function"
    },
    {
      "inputs": [
        {
          "internalType": "uint256",
          "name": "",
          "type": "uint256"
        }
      ],
      "name": "dailyInterestRate",
      "outputs": [
        {
          "internalType": "uint256",
          "name": "",
          "type": "uint256"
        }
      ],
      "stateMutability": "view",
      "type": "function"
    },
    {
      "inputs": [
        {
          "internalType": "address",
          "name": "token",
          "type": "address"
        },
        {
          "internalType": "uint256",
          "name": "amount",
          "type": "uint256"
        }
      ],
      "name": "depositCollateral",
      "outputs": [],
      "stateMutability": "nonpayable",
      "type": "function"
    },
    {
      "inputs": [],
      "name": "depositFunds",
      "outputs": [],
      "stateMutability": "payable",
      "type": "function"
    },
    {
      "inputs": [
        {
          "internalType": "address",
          "name": "user",
          "type": "address"
        }
      ],
      "name": "executeLiquidation",
      "outputs": [],
      "stateMutability": "nonpayable",
      "type": "function"
    },
    {
      "inputs": [
        {
          "internalType": "uint256",
          "name": "amount",
          "type": "uint256"
        }
      ],
      "name": "extract",
      "outputs": [],
      "stateMutability": "nonpayable",
      "type": "function"
    },
    {
      "inputs": [],
      "name": "getAdmin",
      "outputs": [
        {
          "internalType": "address",
          "name": "",
          "type": "address"
        }
      ],
      "stateMutability": "view",
      "type": "function"
    },
    {
      "inputs": [],
      "name": "getAllUsers",
      "outputs": [
        {
          "internalType": "address[]",
          "name": "",
          "type": "address[]"
        }
      ],
      "stateMutability": "view",
      "type": "function"
    },
    {
      "inputs": [],
      "name": "getAllowedCollateralTokens",
      "outputs": [
        {
          "internalType": "address[]",
          "name": "",
          "type": "address[]"
        }
      ],
      "stateMutability": "view",
      "type": "function"
    },
    {
      "inputs": [
        {
          "internalType": "address",
          "name": "lender",
          "type": "address"
        }
      ],
      "name": "getAvailableInterest",
      "outputs": [
        {
          "internalType": "uint256",
          "name": "",
          "type": "uint256"
        }
      ],
      "stateMutability": "view",
      "type": "function"
    },
    {
      "inputs": [],
      "name": "getBalance",
      "outputs": [
        {
          "internalType": "uint256",
          "name": "",
          "type": "uint256"
        }
      ],
      "stateMutability": "view",
      "type": "function"
    },
    {
      "inputs": [
        {
          "internalType": "address",
          "name": "user",
          "type": "address"
        },
        {
          "internalType": "address",
          "name": "token",
          "type": "address"
        }
      ],
      "name": "getCollateral",
      "outputs": [
        {
          "internalType": "uint256",
          "name": "",
          "type": "uint256"
        }
      ],
      "stateMutability": "view",
      "type": "function"
    },
    {
      "inputs": [
        {
          "internalType": "address",
          "name": "user",
          "type": "address"
        }
      ],
      "name": "getCreditScore",
      "outputs": [
        {
          "internalType": "uint256",
          "name": "",
          "type": "uint256"
        }
      ],
      "stateMutability": "view",
      "type": "function"
    },
    {
      "inputs": [
        {
          "internalType": "uint256",
          "name": "startDay",
          "type": "uint256"
        },
        {
          "internalType": "uint256",
          "name": "endDay",
          "type": "uint256"
        }
      ],
      "name": "getHistoricalRates",
      "outputs": [
        {
          "internalType": "uint256[]",
          "name": "rates",
          "type": "uint256[]"
        }
      ],
      "stateMutability": "view",
      "type": "function"
    },
    {
      "inputs": [],
      "name": "getInterestRate",
      "outputs": [
        {
          "internalType": "uint256",
          "name": "",
          "type": "uint256"
        }
      ],
      "stateMutability": "view",
      "type": "function"
    },
    {
      "inputs": [
        {
          "internalType": "uint256",
          "name": "index",
          "type": "uint256"
        }
      ],
      "name": "getInterestTier",
      "outputs": [
        {
          "internalType": "uint256",
          "name": "minAmount",
          "type": "uint256"
        },
        {
          "internalType": "uint256",
          "name": "rate",
          "type": "uint256"
        }
      ],
      "stateMutability": "view",
      "type": "function"
    },
    {
      "inputs": [],
      "name": "getInterestTierCount",
      "outputs": [
        {
          "internalType": "uint256",
          "name": "",
          "type": "uint256"
        }
      ],
      "stateMutability": "view",
      "type": "function"
    },
    {
      "inputs": [
        {
          "internalType": "address",
          "name": "lender",
          "type": "address"
        }
      ],
      "name": "getLenderInfo",
      "outputs": [
        {
          "internalType": "uint256",
          "name": "balance",
          "type": "uint256"
        },
        {
          "internalType": "uint256",
          "name": "pendingInterest",
          "type": "uint256"
        },
        {
          "internalType": "uint256",
          "name": "earnedInterest",
          "type": "uint256"
        },
        {
          "internalType": "uint256",
          "name": "nextInterestUpdate",
          "type": "uint256"
        },
        {
          "internalType": "uint256",
          "name": "penaltyFreeWithdrawalTime",
          "type": "uint256"
        },
        {
          "internalType": "uint256",
          "name": "lastDistributionTime",
          "type": "uint256"
        }
      ],
      "stateMutability": "view",
      "type": "function"
    },
    {
      "inputs": [
        {
          "internalType": "address",
          "name": "token",
          "type": "address"
        }
      ],
      "name": "getLiquidationThreshold",
      "outputs": [
        {
          "internalType": "uint256",
          "name": "",
          "type": "uint256"
        }
      ],
      "stateMutability": "view",
      "type": "function"
    },
    {
      "inputs": [],
      "name": "getMaxBorrowAmount",
      "outputs": [
        {
          "internalType": "uint256",
          "name": "",
          "type": "uint256"
        }
      ],
      "stateMutability": "view",
      "type": "function"
    },
    {
      "inputs": [],
      "name": "getMaxCollateralAmount",
      "outputs": [
        {
          "internalType": "uint256",
          "name": "",
          "type": "uint256"
        }
      ],
      "stateMutability": "view",
      "type": "function"
    },
    {
      "inputs": [],
      "name": "getMaxLiquidationAmount",
      "outputs": [
        {
          "internalType": "uint256",
          "name": "",
          "type": "uint256"
        }
      ],
      "stateMutability": "view",
      "type": "function"
    },
    {
      "inputs": [],
      "name": "getMaxLiquidationBonus",
      "outputs": [
        {
          "internalType": "uint256",
          "name": "",
          "type": "uint256"
        }
      ],
      "stateMutability": "view",
      "type": "function"
    },
    {
      "inputs": [],
      "name": "getMaxLiquidationDelay",
      "outputs": [
        {
          "internalType": "uint256",
          "name": "",
          "type": "uint256"
        }
      ],
      "stateMutability": "view",
      "type": "function"
    },
    {
      "inputs": [],
      "name": "getMaxLiquidationGracePeriod",
      "outputs": [
        {
          "internalType": "uint256",
          "name": "",
          "type": "uint256"
        }
      ],
      "stateMutability": "view",
      "type": "function"
    },
    {
      "inputs": [],
      "name": "getMaxLiquidationPenalty",
      "outputs": [
        {
          "internalType": "uint256",
          "name": "",
          "type": "uint256"
        }
      ],
      "stateMutability": "view",
      "type": "function"
    },
    {
      "inputs": [],
      "name": "getMaxLiquidationRatio",
      "outputs": [
        {
          "internalType": "uint256",
          "name": "",
          "type": "uint256"
        }
      ],
      "stateMutability": "view",
      "type": "function"
    },
    {
      "inputs": [],
      "name": "getMaxLiquidationThreshold",
      "outputs": [
        {
          "internalType": "uint256",
          "name": "",
          "type": "uint256"
        }
      ],
      "stateMutability": "view",
      "type": "function"
    },
    {
      "inputs": [],
      "name": "getMaxLiquidationTime",
      "outputs": [
        {
          "internalType": "uint256",
          "name": "",
          "type": "uint256"
        }
      ],
      "stateMutability": "view",
      "type": "function"
    },
    {
      "inputs": [],
      "name": "getMinCollateralRatio",
      "outputs": [
        {
          "internalType": "uint256",
          "name": "",
          "type": "uint256"
        }
      ],
      "stateMutability": "view",
      "type": "function"
    },
    {
      "inputs": [],
      "name": "getMyDebt",
      "outputs": [
        {
          "internalType": "uint256",
          "name": "",
          "type": "uint256"
        }
      ],
      "stateMutability": "view",
      "type": "function"
    },
    {
      "inputs": [
        {
          "internalType": "bytes32",
          "name": "role",
          "type": "bytes32"
        }
      ],
      "name": "getRoleAdmin",
      "outputs": [
        {
          "internalType": "bytes32",
          "name": "",
          "type": "bytes32"
        }
      ],
      "stateMutability": "view",
      "type": "function"
    },
    {
      "inputs": [
        {
          "internalType": "address",
          "name": "token",
          "type": "address"
        }
      ],
      "name": "getTokenValue",
      "outputs": [
        {
          "internalType": "uint256",
          "name": "",
          "type": "uint256"
        }
      ],
      "stateMutability": "view",
      "type": "function"
    },
    {
      "inputs": [
        {
          "internalType": "address",
          "name": "user",
          "type": "address"
        }
      ],
      "name": "getTotalCollateralValue",
      "outputs": [
        {
          "internalType": "uint256",
          "name": "",
          "type": "uint256"
        }
      ],
      "stateMutability": "view",
      "type": "function"
    },
    {
      "inputs": [
        {
          "internalType": "address",
          "name": "lender",
          "type": "address"
        }
      ],
      "name": "getWithdrawalStatus",
      "outputs": [
        {
          "internalType": "uint256",
          "name": "availableAt",
          "type": "uint256"
        },
        {
          "internalType": "uint256",
          "name": "penaltyIfWithdrawnNow",
          "type": "uint256"
        },
        {
          "internalType": "bool",
          "name": "isAvailableWithoutPenalty",
          "type": "bool"
        },
        {
          "internalType": "uint256",
          "name": "nextInterestDistribution",
          "type": "uint256"
        },
        {
          "internalType": "uint256",
          "name": "availableInterest",
          "type": "uint256"
        }
      ],
      "stateMutability": "view",
      "type": "function"
    },
    {
      "inputs": [
        {
          "internalType": "bytes32",
          "name": "role",
          "type": "bytes32"
        },
        {
          "internalType": "address",
          "name": "account",
          "type": "address"
        }
      ],
      "name": "grantRole",
      "outputs": [],
      "stateMutability": "nonpayable",
      "type": "function"
    },
    {
      "inputs": [
        {
          "internalType": "bytes32",
          "name": "role",
          "type": "bytes32"
        },
        {
          "internalType": "address",
          "name": "account",
          "type": "address"
        }
      ],
      "name": "hasRole",
      "outputs": [
        {
          "internalType": "bool",
          "name": "",
          "type": "bool"
        }
      ],
      "stateMutability": "view",
      "type": "function"
    },
    {
      "inputs": [
        {
          "internalType": "address",
          "name": "initialOwner",
          "type": "address"
        }
      ],
      "name": "initialize",
      "outputs": [],
      "stateMutability": "nonpayable",
      "type": "function"
    },
    {
      "inputs": [],
      "name": "interestRate",
      "outputs": [
        {
          "internalType": "uint256",
          "name": "",
          "type": "uint256"
        }
      ],
      "stateMutability": "view",
      "type": "function"
    },
    {
      "inputs": [
        {
          "internalType": "uint256",
          "name": "",
          "type": "uint256"
        }
      ],
      "name": "interestTiers",
      "outputs": [
        {
          "internalType": "uint256",
          "name": "minAmount",
          "type": "uint256"
        },
        {
          "internalType": "uint256",
          "name": "rate",
          "type": "uint256"
        }
      ],
      "stateMutability": "view",
      "type": "function"
    },
    {
      "inputs": [
        {
          "internalType": "address",
          "name": "",
          "type": "address"
        }
      ],
      "name": "isAllowedCollateral",
      "outputs": [
        {
          "internalType": "bool",
          "name": "",
          "type": "bool"
        }
      ],
      "stateMutability": "view",
      "type": "function"
    },
    {
      "inputs": [
        {
          "internalType": "address",
          "name": "",
          "type": "address"
        }
      ],
      "name": "isKnownUser",
      "outputs": [
        {
          "internalType": "bool",
          "name": "",
          "type": "bool"
        }
      ],
      "stateMutability": "view",
      "type": "function"
    },
    {
      "inputs": [
        {
          "internalType": "address",
          "name": "",
          "type": "address"
        }
      ],
      "name": "isLiquidatable",
      "outputs": [
        {
          "internalType": "bool",
          "name": "",
          "type": "bool"
        }
      ],
      "stateMutability": "view",
      "type": "function"
    },
    {
      "inputs": [],
      "name": "isPaused",
      "outputs": [
        {
          "internalType": "bool",
          "name": "",
          "type": "bool"
        }
      ],
      "stateMutability": "view",
      "type": "function"
    },
    {
      "inputs": [],
      "name": "lastRateUpdateDay",
      "outputs": [
        {
          "internalType": "uint256",
          "name": "",
          "type": "uint256"
        }
      ],
      "stateMutability": "view",
      "type": "function"
    },
    {
      "inputs": [
        {
          "internalType": "address",
          "name": "",
          "type": "address"
        }
      ],
      "name": "lenders",
      "outputs": [
        {
          "internalType": "uint256",
          "name": "balance",
          "type": "uint256"
        },
        {
          "internalType": "uint256",
          "name": "depositTimestamp",
          "type": "uint256"
        },
        {
          "internalType": "uint256",
          "name": "lastInterestUpdate",
          "type": "uint256"
        },
        {
          "internalType": "uint256",
          "name": "interestIndex",
          "type": "uint256"
        },
        {
          "internalType": "uint256",
          "name": "earnedInterest",
          "type": "uint256"
        },
        {
          "internalType": "uint256",
          "name": "pendingPrincipalWithdrawal",
          "type": "uint256"
        },
        {
          "internalType": "uint256",
          "name": "withdrawalRequestTime",
          "type": "uint256"
        },
        {
          "internalType": "uint256",
          "name": "lastInterestDistribution",
          "type": "uint256"
        },
        {
          "internalType": "uint256",
          "name": "lastWithdrawalTime",
          "type": "uint256"
        }
      ],
      "stateMutability": "view",
      "type": "function"
    },
    {
      "inputs": [
        {
          "internalType": "address",
          "name": "",
          "type": "address"
        }
      ],
      "name": "liquidationStartTime",
      "outputs": [
        {
          "internalType": "uint256",
          "name": "",
          "type": "uint256"
        }
      ],
      "stateMutability": "view",
      "type": "function"
    },
    {
      "inputs": [
        {
          "internalType": "address",
          "name": "",
          "type": "address"
        }
      ],
      "name": "liquidationThreshold",
      "outputs": [
        {
          "internalType": "uint256",
          "name": "",
          "type": "uint256"
        }
      ],
      "stateMutability": "view",
      "type": "function"
    },
    {
      "inputs": [],
      "name": "liquidator",
      "outputs": [
        {
          "internalType": "address",
          "name": "",
          "type": "address"
        }
      ],
      "stateMutability": "view",
      "type": "function"
    },
    {
      "inputs": [],
      "name": "locked",
      "outputs": [
        {
          "internalType": "bool",
          "name": "",
          "type": "bool"
        }
      ],
      "stateMutability": "view",
      "type": "function"
    },
    {
      "inputs": [],
      "name": "maxBorrowAmount",
      "outputs": [
        {
          "internalType": "uint256",
          "name": "",
          "type": "uint256"
        }
      ],
      "stateMutability": "view",
      "type": "function"
    },
    {
      "inputs": [],
      "name": "maxCollateralAmount",
      "outputs": [
        {
          "internalType": "uint256",
          "name": "",
          "type": "uint256"
        }
      ],
      "stateMutability": "view",
      "type": "function"
    },
    {
      "inputs": [],
      "name": "maxLiquidationAmount",
      "outputs": [
        {
          "internalType": "uint256",
          "name": "",
          "type": "uint256"
        }
      ],
      "stateMutability": "view",
      "type": "function"
    },
    {
      "inputs": [],
      "name": "maxLiquidationBonus",
      "outputs": [
        {
          "internalType": "uint256",
          "name": "",
          "type": "uint256"
        }
      ],
      "stateMutability": "view",
      "type": "function"
    },
    {
      "inputs": [],
      "name": "maxLiquidationDelay",
      "outputs": [
        {
          "internalType": "uint256",
          "name": "",
          "type": "uint256"
        }
      ],
      "stateMutability": "view",
      "type": "function"
    },
    {
      "inputs": [],
      "name": "maxLiquidationGracePeriod",
      "outputs": [
        {
          "internalType": "uint256",
          "name": "",
          "type": "uint256"
        }
      ],
      "stateMutability": "view",
      "type": "function"
    },
    {
      "inputs": [],
      "name": "maxLiquidationPenalty",
      "outputs": [
        {
          "internalType": "uint256",
          "name": "",
          "type": "uint256"
        }
      ],
      "stateMutability": "view",
      "type": "function"
    },
    {
      "inputs": [],
      "name": "maxLiquidationRatio",
      "outputs": [
        {
          "internalType": "uint256",
          "name": "",
          "type": "uint256"
        }
      ],
      "stateMutability": "view",
      "type": "function"
    },
    {
      "inputs": [],
      "name": "maxLiquidationThreshold",
      "outputs": [
        {
          "internalType": "uint256",
          "name": "",
          "type": "uint256"
        }
      ],
      "stateMutability": "view",
      "type": "function"
    },
    {
      "inputs": [],
      "name": "maxLiquidationTime",
      "outputs": [
        {
          "internalType": "uint256",
          "name": "",
          "type": "uint256"
        }
      ],
      "stateMutability": "view",
      "type": "function"
    },
    {
      "inputs": [],
      "name": "owner",
      "outputs": [
        {
          "internalType": "address",
          "name": "",
          "type": "address"
        }
      ],
      "stateMutability": "view",
      "type": "function"
    },
    {
      "inputs": [],
      "name": "paused",
      "outputs": [
        {
          "internalType": "bool",
          "name": "",
          "type": "bool"
        }
      ],
      "stateMutability": "view",
      "type": "function"
    },
    {
      "inputs": [
        {
          "internalType": "bytes",
          "name": "performData",
          "type": "bytes"
        }
      ],
      "name": "performUpkeep",
      "outputs": [],
      "stateMutability": "nonpayable",
      "type": "function"
    },
    {
      "inputs": [
        {
          "internalType": "address",
          "name": "",
          "type": "address"
        }
      ],
      "name": "priceFeed",
      "outputs": [
        {
          "internalType": "address",
          "name": "",
          "type": "address"
        }
      ],
      "stateMutability": "view",
      "type": "function"
    },
    {
      "inputs": [
        {
          "internalType": "address",
          "name": "token",
          "type": "address"
        },
        {
          "internalType": "uint256",
          "name": "amount",
          "type": "uint256"
        }
      ],
      "name": "recoverFromLiquidation",
      "outputs": [],
      "stateMutability": "nonpayable",
      "type": "function"
    },
    {
      "inputs": [],
      "name": "renounceOwnership",
      "outputs": [],
      "stateMutability": "nonpayable",
      "type": "function"
    },
    {
      "inputs": [
        {
          "internalType": "bytes32",
          "name": "role",
          "type": "bytes32"
        },
        {
          "internalType": "address",
          "name": "callerConfirmation",
          "type": "address"
        }
      ],
      "name": "renounceRole",
      "outputs": [],
      "stateMutability": "nonpayable",
      "type": "function"
    },
    {
      "inputs": [],
      "name": "repay",
      "outputs": [],
      "stateMutability": "payable",
      "type": "function"
    },
    {
      "inputs": [
        {
          "internalType": "uint256",
          "name": "amount",
          "type": "uint256"
        }
      ],
      "name": "requestWithdrawal",
      "outputs": [],
      "stateMutability": "nonpayable",
      "type": "function"
    },
    {
      "inputs": [
        {
          "internalType": "bytes32",
          "name": "role",
          "type": "bytes32"
        },
        {
          "internalType": "address",
          "name": "account",
          "type": "address"
        }
      ],
      "name": "revokeRole",
      "outputs": [],
      "stateMutability": "nonpayable",
      "type": "function"
    },
    {
      "inputs": [
        {
          "internalType": "address",
          "name": "newAdmin",
          "type": "address"
        }
      ],
      "name": "setAdmin",
      "outputs": [],
      "stateMutability": "nonpayable",
      "type": "function"
    },
    {
      "inputs": [
        {
          "internalType": "address",
          "name": "token",
          "type": "address"
        },
        {
          "internalType": "bool",
          "name": "allowed",
          "type": "bool"
        }
      ],
      "name": "setAllowedCollateral",
      "outputs": [],
      "stateMutability": "nonpayable",
      "type": "function"
    },
    {
      "inputs": [
        {
          "internalType": "address",
          "name": "user",
          "type": "address"
        },
        {
          "internalType": "uint256",
          "name": "score",
          "type": "uint256"
        }
      ],
      "name": "setCreditScore",
      "outputs": [],
      "stateMutability": "nonpayable",
      "type": "function"
    },
    {
      "inputs": [
        {
          "internalType": "uint256",
          "name": "newRate",
          "type": "uint256"
        }
      ],
      "name": "setInterestRate",
      "outputs": [],
      "stateMutability": "nonpayable",
      "type": "function"
    },
    {
      "inputs": [
        {
          "internalType": "uint256",
          "name": "index",
          "type": "uint256"
        },
        {
          "internalType": "uint256",
          "name": "minAmount",
          "type": "uint256"
        },
        {
          "internalType": "uint256",
          "name": "rate",
          "type": "uint256"
        }
      ],
      "name": "setInterestTier",
      "outputs": [],
      "stateMutability": "nonpayable",
      "type": "function"
    },
    {
      "inputs": [
        {
          "internalType": "address",
          "name": "token",
          "type": "address"
        },
        {
          "internalType": "uint256",
          "name": "threshold",
          "type": "uint256"
        }
      ],
      "name": "setLiquidationThreshold",
      "outputs": [],
      "stateMutability": "nonpayable",
      "type": "function"
    },
    {
      "inputs": [
        {
          "internalType": "address",
          "name": "_liquidator",
          "type": "address"
        }
      ],
      "name": "setLiquidator",
      "outputs": [],
      "stateMutability": "nonpayable",
      "type": "function"
    },
    {
      "inputs": [
        {
          "internalType": "uint256",
          "name": "newMax",
          "type": "uint256"
        }
      ],
      "name": "setMaxBorrowAmount",
      "outputs": [],
      "stateMutability": "nonpayable",
      "type": "function"
    },
    {
      "inputs": [
        {
          "internalType": "uint256",
          "name": "newMax",
          "type": "uint256"
        }
      ],
      "name": "setMaxCollateralAmount",
      "outputs": [],
      "stateMutability": "nonpayable",
      "type": "function"
    },
    {
      "inputs": [
        {
          "internalType": "uint256",
          "name": "newAmount",
          "type": "uint256"
        }
      ],
      "name": "setMaxLiquidationAmount",
      "outputs": [],
      "stateMutability": "nonpayable",
      "type": "function"
    },
    {
      "inputs": [
        {
          "internalType": "uint256",
          "name": "newBonus",
          "type": "uint256"
        }
      ],
      "name": "setMaxLiquidationBonus",
      "outputs": [],
      "stateMutability": "nonpayable",
      "type": "function"
    },
    {
      "inputs": [
        {
          "internalType": "uint256",
          "name": "newDelay",
          "type": "uint256"
        }
      ],
      "name": "setMaxLiquidationDelay",
      "outputs": [],
      "stateMutability": "nonpayable",
      "type": "function"
    },
    {
      "inputs": [
        {
          "internalType": "uint256",
          "name": "newPeriod",
          "type": "uint256"
        }
      ],
      "name": "setMaxLiquidationGracePeriod",
      "outputs": [],
      "stateMutability": "nonpayable",
      "type": "function"
    },
    {
      "inputs": [
        {
          "internalType": "uint256",
          "name": "newPenalty",
          "type": "uint256"
        }
      ],
      "name": "setMaxLiquidationPenalty",
      "outputs": [],
      "stateMutability": "nonpayable",
      "type": "function"
    },
    {
      "inputs": [
        {
          "internalType": "uint256",
          "name": "newRatio",
          "type": "uint256"
        }
      ],
      "name": "setMaxLiquidationRatio",
      "outputs": [],
      "stateMutability": "nonpayable",
      "type": "function"
    },
    {
      "inputs": [
        {
          "internalType": "uint256",
          "name": "newThreshold",
          "type": "uint256"
        }
      ],
      "name": "setMaxLiquidationThreshold",
      "outputs": [],
      "stateMutability": "nonpayable",
      "type": "function"
    },
    {
      "inputs": [
        {
          "internalType": "uint256",
          "name": "newTime",
          "type": "uint256"
        }
      ],
      "name": "setMaxLiquidationTime",
      "outputs": [],
      "stateMutability": "nonpayable",
      "type": "function"
    },
    {
      "inputs": [
        {
          "internalType": "address",
          "name": "token",
          "type": "address"
        },
        {
          "internalType": "address",
          "name": "feed",
          "type": "address"
        }
      ],
      "name": "setPriceFeed",
      "outputs": [],
      "stateMutability": "nonpayable",
      "type": "function"
    },
    {
      "inputs": [
        {
          "internalType": "address",
          "name": "user",
          "type": "address"
        }
      ],
      "name": "startLiquidation",
      "outputs": [],
      "stateMutability": "nonpayable",
      "type": "function"
    },
    {
      "inputs": [
        {
          "internalType": "bytes4",
          "name": "interfaceId",
          "type": "bytes4"
        }
      ],
      "name": "supportsInterface",
      "outputs": [
        {
          "internalType": "bool",
          "name": "",
          "type": "bool"
        }
      ],
      "stateMutability": "view",
      "type": "function"
    },
    {
      "inputs": [],
      "name": "togglePause",
      "outputs": [],
      "stateMutability": "nonpayable",
      "type": "function"
    },
    {
      "inputs": [],
      "name": "totalFunds",
      "outputs": [
        {
          "internalType": "uint256",
          "name": "",
          "type": "uint256"
        }
      ],
      "stateMutability": "view",
      "type": "function"
    },
    {
      "inputs": [],
      "name": "totalLent",
      "outputs": [
        {
          "internalType": "uint256",
          "name": "",
          "type": "uint256"
        }
      ],
      "stateMutability": "view",
      "type": "function"
    },
    {
      "inputs": [
        {
          "internalType": "address",
          "name": "newOwner",
          "type": "address"
        }
      ],
      "name": "transferOwnership",
      "outputs": [],
      "stateMutability": "nonpayable",
      "type": "function"
    },
    {
      "inputs": [
        {
          "internalType": "address",
          "name": "",
          "type": "address"
        }
      ],
      "name": "userDebt",
      "outputs": [
        {
          "internalType": "uint256",
          "name": "",
          "type": "uint256"
        }
      ],
      "stateMutability": "view",
      "type": "function"
    },
    {
      "inputs": [
        {
          "internalType": "uint256",
          "name": "",
          "type": "uint256"
        }
      ],
      "name": "users",
      "outputs": [
        {
          "internalType": "address",
          "name": "",
          "type": "address"
        }
      ],
      "stateMutability": "view",
      "type": "function"
    },
    {
      "inputs": [
        {
          "internalType": "address",
          "name": "token",
          "type": "address"
        },
        {
          "internalType": "uint256",
          "name": "amount",
          "type": "uint256"
        }
      ],
      "name": "withdrawCollateral",
      "outputs": [],
      "stateMutability": "nonpayable",
      "type": "function"
    },
    {
      "stateMutability": "payable",
      "type": "receive"
    }
  ],
  "bytecode": "0x6080604052348015600f57600080fd5b50615faa8061001f6000396000f3fe6080604052600436106107245760003560e01c80638da5cb5b116103a6578063c4d66de8116101e7578063e03ff7cb1161010d578063e7602b9d116100ab578063f7e590ee1161007a578063f7e590ee146115ea578063fccf6a1e14611617578063feedab0014610e73578063ff778bc01461164457600080fd5b8063e7602b9d14611560578063f1c5d6c214611595578063f2fde38b146115b5578063f7979006146115d557600080fd5b8063e1c50100116100e7578063e1c5010014611503578063e2842d7914611523578063e2c41dbc14611538578063e2e296791461154057600080fd5b8063e03ff7cb146114b9578063e0498f52146114ce578063e11932cf146114e357600080fd5b8063d277bbe611610185578063d69e905311610154578063d69e90531461144e578063d704731014611464578063d77d5ed614611484578063d93795211461149957600080fd5b8063d277bbe6146113b6578063d29255f9146113cb578063d3dd2bdf146113f8578063d547741f1461142e57600080fd5b8063cca43916116101c1578063cca4391614611345578063cf1762251461135a578063cf3090121461137c578063cfdd0a671461139657600080fd5b8063c4d66de8146112ef578063c5ebeaec1461130f578063cc0785451461132f57600080fd5b8063ac911bd8116102cc578063b859791c1161026a578063c129d50411610239578063c129d50414611281578063c1a287e214611296578063c23c69d5146112ad578063c4ae3168146112da57600080fd5b8063b859791c14611221578063b918ee2514611236578063bb50911d1461124c578063bf8a1e131461126c57600080fd5b8063b187bd26116102a6578063b187bd26146111a1578063b3a5a0a2146111be578063b4e6e85e146111de578063b69e5c77146111f457600080fd5b8063ac911bd814611149578063ade2854d1461115f578063b1732b251461117457600080fd5b8063968ed60011610344578063a217fddf11610313578063a217fddf146110a7578063a5d5db0c146110bc578063a8409cd2146110dc578063ab19f095146110fc57600080fd5b8063968ed6001461103c57806397ed81cf146110525780639b8621d5146110725780639ee679e81461108757600080fd5b80638f9de408116103805780638f9de40814610fb657806391d1485414610fd65780639490a51e14610ff657806394e95da31461102657600080fd5b80638da5cb5b14610f555780638e6b53bc14610f6a5780638ee6eadc14610fa157600080fd5b80634c34a982116105705780636e04ff0d1161049657806376e11286116104345780637c3a00fd116104035780637c3a00fd14610ef45780637d795d5d14610f0a57806382ee21fc14610f1f57806385b3978214610f3557600080fd5b806376e1128614610e8a57806376e9894914610eaa5780637b86e42c14610ebf5780637c2e423214610edf57600080fd5b8063715018a611610470578063715018a614610ddf5780637346f48614610df45780637491687e14610e2457806374f0314f14610e7357600080fd5b80636e04ff0d14610d7c5780636e9960c314610daa578063704b6c0214610dbf57600080fd5b8063561f42511161050e578063696a0393116104dd578063696a039314610cf95780636c648fc414610d265780636ce835f214610d465780636d7c218b14610d6657600080fd5b8063561f425114610c7a5780635c975abb14610c9a5780635f84f30214610cb95780636774983414610cd957600080fd5b806352226ef01161054a57806352226ef014610be05780635257b56614610c25578063537dd93a14610c3a57806355f4d9e214610c5a57600080fd5b80634c34a98214610b985780634c8f35ab14610bb55780634e38542914610bca57600080fd5b8063248a9ca31161065557806336568abe116105f357806344844041116105c25780634484404114610b20578063450a375a14610b405780634585e33b14610b6257806345d0891314610b8257600080fd5b806336568abe14610ab2578063365b98b214610ad2578063402d888314610af25780634046ebae14610afa57600080fd5b806332aa9b681161062f57806332aa9b6814610a3d57806333ec339e14610a5d578063350c35e914610a7d57806335981fd814610a9d57600080fd5b8063248a9ca31461095057806328fd10d7146109705780632f2ff15d14610a1d57600080fd5b80630fc0bbab116106c25780631876b4151161069c5780631876b415146108925780631ea30fef146108b25780631fd48b9a146108cd57806321bf89851461091b57600080fd5b80630fc0bbab1461085357806312065fe0146108695780631328a1d71461087c57600080fd5b806304885115116106fe57806304885115146107cf578063080d9c2b146107f35780630a26d59d146108135780630e30428d1461083357600080fd5b806301c76f811461074857806301ffc9a71461076a578063042e02cf1461079f57600080fd5b366107435734600a600082825461073b9190615715565b925050819055005b600080fd5b34801561075457600080fd5b50610768610763366004615744565b61165a565b005b34801561077657600080fd5b5061078a61078536600461575f565b611690565b60405190151581526020015b60405180910390f35b3480156107ab57600080fd5b5061078a6107ba366004615744565b60056020526000908152604090205460ff1681565b3480156107db57600080fd5b506107e5600d5481565b604051908152602001610796565b3480156107ff57600080fd5b5061076861080e366004615789565b6116c7565b34801561081f57600080fd5b5061076861082e3660046157b3565b611816565b34801561083f57600080fd5b5061076861084e366004615789565b611823565b34801561085f57600080fd5b506107e560125481565b34801561087557600080fd5b50476107e5565b34801561088857600080fd5b506107e5600f5481565b34801561089e57600080fd5b506107e56108ad3660046157cc565b611949565b3480156108be57600080fd5b506107e5662386f26fc1000081565b3480156108d957600080fd5b506109036108e8366004615744565b6008602052600090815260409020546001600160a01b031681565b6040516001600160a01b039091168152602001610796565b34801561092757600080fd5b5061093b6109363660046157b3565b6119b7565b60408051928352602083019190915201610796565b34801561095c57600080fd5b506107e561096b3660046157b3565b6119e5565b34801561097c57600080fd5b506109d961098b366004615744565b60186020528060005260406000206000915090508060000154908060010154908060020154908060030154908060040154908060050154908060060154908060070154908060080154905089565b60408051998a5260208a0198909852968801959095526060870193909352608086019190915260a085015260c084015260e083015261010082015261012001610796565b348015610a2957600080fd5b50610768610a383660046157ee565b611a07565b348015610a4957600080fd5b506107e5610a58366004615744565b611a29565b348015610a6957600080fd5b50610768610a7836600461581a565b611af1565b348015610a8957600080fd5b50610768610a98366004615789565b611c13565b348015610aa957600080fd5b50610768611ee6565b348015610abe57600080fd5b50610768610acd3660046157ee565b612105565b348015610ade57600080fd5b50610903610aed3660046157b3565b612138565b610768612162565b348015610b0657600080fd5b50600b54610903906201000090046001600160a01b031681565b348015610b2c57600080fd5b50610768610b3b3660046157b3565b612542565b348015610b4c57600080fd5b50336000908152600360205260409020546107e5565b348015610b6e57600080fd5b50610768610b7d366004615846565b612593565b348015610b8e57600080fd5b506107e560135481565b348015610ba457600080fd5b506107e568056bc75e2d6310000081565b348015610bc157600080fd5b506107e561264b565b348015610bd657600080fd5b506107e560105481565b348015610bec57600080fd5b506107e5610bfb3660046158ba565b6001600160a01b038082166000908152602081815260408083209386168352929052205492915050565b348015610c3157600080fd5b506016546107e5565b348015610c4657600080fd5b5061093b610c553660046157b3565b612665565b348015610c6657600080fd5b50610768610c753660046158f2565b6126fd565b348015610c8657600080fd5b50610768610c953660046157b3565b612817565b348015610ca657600080fd5b50600b5461078a90610100900460ff1681565b348015610cc557600080fd5b50610768610cd43660046157b3565b612866565b348015610ce557600080fd5b50610768610cf43660046157b3565b6128bd565b348015610d0557600080fd5b50610d19610d143660046157cc565b6128ca565b6040516107969190615929565b348015610d3257600080fd5b506107e5610d41366004615744565b6129d0565b348015610d5257600080fd5b50610768610d613660046157b3565b612a7e565b348015610d7257600080fd5b506107e560195481565b348015610d8857600080fd5b50610d9c610d97366004615846565b612ad0565b60405161079692919061596c565b348015610db657600080fd5b50610903612ced565b348015610dcb57600080fd5b50610768610dda366004615744565b612cf7565b348015610deb57600080fd5b50610768612d6b565b348015610e0057600080fd5b5061078a610e0f366004615744565b60016020526000908152604090205460ff1681565b348015610e3057600080fd5b50610e44610e3f366004615744565b612d7f565b604051610796959493929190948552602085019390935290151560408401526060830152608082015260a00190565b348015610e7f57600080fd5b506107e56201518081565b348015610e9657600080fd5b50610768610ea53660046158ba565b612ea2565b348015610eb657600080fd5b506013546107e5565b348015610ecb57600080fd5b506107e5610eda366004615744565b612f40565b348015610eeb57600080fd5b506014546107e5565b348015610f0057600080fd5b506107e560165481565b348015610f1657600080fd5b50600d546107e5565b348015610f2b57600080fd5b506107e5601a5481565b348015610f4157600080fd5b50610768610f503660046157b3565b612f6e565b348015610f6157600080fd5b506109036130a6565b348015610f7657600080fd5b50610f8a610f85366004615744565b6130d4565b604080519215158352602083019190915201610796565b348015610fad57600080fd5b50600f546107e5565b348015610fc257600080fd5b50610768610fd13660046157b3565b613140565b348015610fe257600080fd5b5061078a610ff13660046157ee565b61314d565b34801561100257600080fd5b5061078a611011366004615744565b601f6020526000908152604090205460ff1681565b34801561103257600080fd5b506107e5601b5481565b34801561104857600080fd5b506107e5600a5481565b34801561105e57600080fd5b5061076861106d366004615789565b613185565b34801561107e57600080fd5b506107e5600581565b34801561109357600080fd5b506107686110a23660046157b3565b6132c7565b3480156110b357600080fd5b506107e5600081565b3480156110c857600080fd5b506107686110d7366004615789565b613455565b3480156110e857600080fd5b506107686110f73660046157b3565b6136d6565b34801561110857600080fd5b5061111c611117366004615744565b613724565b604080519687526020870195909552938501929092526060840152608083015260a082015260c001610796565b34801561115557600080fd5b506107e5600c5481565b34801561116b57600080fd5b50601d546107e5565b34801561118057600080fd5b506107e561118f366004615744565b60076020526000908152604090205481565b3480156111ad57600080fd5b50600b54610100900460ff1661078a565b3480156111ca57600080fd5b506109036111d93660046157b3565b613817565b3480156111ea57600080fd5b506107e5600e5481565b34801561120057600080fd5b506107e561120f366004615744565b60036020526000908152604090205481565b34801561122d57600080fd5b50600e546107e5565b34801561124257600080fd5b506107e560175481565b34801561125857600080fd5b506107686112673660046157b3565b613827565b34801561127857600080fd5b506012546107e5565b34801561128d57600080fd5b506107e5608281565b3480156112a257600080fd5b506107e56203f48081565b3480156112b957600080fd5b506107e56112c8366004615744565b60066020526000908152604090205481565b3480156112e657600080fd5b50610768613834565b3480156112fb57600080fd5b5061076861130a366004615744565b61389e565b34801561131b57600080fd5b5061076861132a3660046157b3565b613b25565b34801561133b57600080fd5b506107e560115481565b34801561135157600080fd5b5061076861415c565b34801561136657600080fd5b5061136f61428c565b6040516107969190615a08565b34801561138857600080fd5b50600b5461078a9060ff1681565b3480156113a257600080fd5b506107686113b13660046157b3565b6143d3565b3480156113c257600080fd5b506010546107e5565b3480156113d757600080fd5b506107e56113e6366004615744565b60046020526000908152604090205481565b34801561140457600080fd5b506107e5611413366004615744565b6001600160a01b031660009081526002602052604090205490565b34801561143a57600080fd5b506107686114493660046157ee565b6143e0565b34801561145a57600080fd5b506107e560155481565b34801561147057600080fd5b5061078a61147f366004615744565b6143fc565b34801561149057600080fd5b506015546107e5565b3480156114a557600080fd5b506107686114b43660046157b3565b6144a8565b3480156114c557600080fd5b506107686144b5565b3480156114da57600080fd5b50600c546107e5565b3480156114ef57600080fd5b506107e56114fe366004615744565b6147ca565b34801561150f57600080fd5b5061076861151e366004615744565b6148ee565b34801561152f57600080fd5b5061136f614a03565b610768614a65565b34801561154c57600080fd5b5061076861155b366004615744565b614cd1565b34801561156c57600080fd5b506107e561157b3660046158ba565b600060208181529281526040808220909352908152205481565b3480156115a157600080fd5b506107e56115b0366004615744565b614f6e565b3480156115c157600080fd5b506107686115d0366004615744565b6150be565b3480156115e157600080fd5b506011546107e5565b3480156115f657600080fd5b506107e5611605366004615744565b60026020526000908152604090205481565b34801561162357600080fd5b506107e56116323660046157b3565b601c6020526000908152604090205481565b34801561165057600080fd5b506107e560145481565b6000611665816150fc565b50600b80546001600160a01b03909216620100000262010000600160b01b0319909216919091179055565b60006001600160e01b03198216637965db0b60e01b14806116c157506301ffc9a760e01b6001600160e01b03198316145b92915050565b3360009081526005602052604090205460ff1661172b5760405162461bcd60e51b815260206004820152601a60248201527f4163636f756e74206e6f7420696e206c69717569646174696f6e00000000000060448201526064015b60405180910390fd5b6040516323b872dd60e01b8152336004820152306024820152604481018290526001600160a01b038316906323b872dd906064016020604051808303816000875af115801561177e573d6000803e3d6000fd5b505050506040513d601f19601f820116820180604052508101906117a29190615a1b565b506001600160a01b038216600090815260208181526040808320338452909152812080548392906117d4908490615715565b90915550600090506117e5336130d4565b509050801561181157336000908152600560209081526040808320805460ff1916905560069091528120555b505050565b61181e615106565b601455565b61182b615106565b6001600160a01b03821660009081526001602052604090205460ff166118935760405162461bcd60e51b815260206004820152601f60248201527f546f6b656e206e6f7420616c6c6f77656420617320636f6c6c61746572616c006044820152606401611722565b6010548111156118dd5760405162461bcd60e51b8152602060048201526015602482015274115e18d959591cc81b585e081d1a1c995cda1bdb19605a1b6044820152606401611722565b6064811161192d5760405162461bcd60e51b815260206004820152601860248201527f5468726573686f6c64206d757374206265203e203130302500000000000000006044820152606401611722565b6001600160a01b03909116600090815260076020526040902055565b600080611954615138565b90508060005b8481101561198d57670de0b6b3a7640000601a54836119799190615a38565b6119839190615a4f565b915060010161195a565b50848261199a8383615a38565b6119a49190615a4f565b6119ae9190615a71565b95945050505050565b601d81815481106119c757600080fd5b60009182526020909120600290910201805460019091015490915082565b6000908152600080516020615f55833981519152602052604090206001015490565b611a10826119e5565b611a19816150fc565b611a2383836151de565b50505050565b6001600160a01b038116600090815260186020908152604080832081516101208101835281548082526001830154948201949094526002820154928101929092526003810154606083015260048101546080830152600581015460a0830152600681015460c0830152600781015460e083015260080154610100820152908203611ab65750600092915050565b6000611ac0615138565b8251606084015191925090611ad58383615a38565b611adf9190615a4f565b611ae99190615a71565b949350505050565b611af9615106565b670de0b6b3a7640000811015611b455760405162461bcd60e51b815260206004820152601160248201527052617465206d757374206265203e3d203160781b6044820152606401611722565b601d548310611bc7576040805180820190915291825260208201908152601d805460018101825560009190915291517f6d4407e7be21f808e6509aa9fa9143369579dd7d760fe20a2c09680fc146134f600290930292830155517f6d4407e7be21f808e6509aa9fa9143369579dd7d760fe20a2c09680fc14613509091015550565b604051806040016040528083815260200182815250601d8481548110611bef57611bef615a84565b60009182526020918290208351600290920201908155910151600190910155505050565b6001600160a01b03821660009081526001602052604090205460ff16611c7857336001600160a01b0316600080516020615f35833981519152604051611c5890615a9a565b60405180910390a260405162461bcd60e51b815260040161172290615a9a565b6001600160a01b038216600090815260208181526040808320338452909152902054811115611ce657336001600160a01b0316600080516020615f35833981519152604051611cc690615ac5565b60405180910390a260405162461bcd60e51b815260040161172290615ac5565b3360009081526005602052604090205460ff1615611d4357336001600160a01b0316600080516020615f35833981519152604051611d2390615af3565b60405180910390a260405162461bcd60e51b815260040161172290615af3565b6000670de0b6b3a7640000611d5784614f6e565b611d619084615a38565b611d6b9190615a4f565b611d74336129d0565b611d7e9190615a71565b9050611d8983612f40565b33600090815260036020526040902054611da39190615a38565b611dae826064615a38565b1015611df957336001600160a01b0316600080516020615f35833981519152604051611dd990615b2a565b60405180910390a260405162461bcd60e51b815260040161172290615b2a565b6001600160a01b03831660009081526020818152604080832033845290915281208054849290611e2a908490615a71565b909155505060405163a9059cbb60e01b8152336004820152602481018390526001600160a01b0384169063a9059cbb906044016020604051808303816000875af1158015611e7c573d6000803e3d6000fd5b505050506040513d601f19601f82011682018060405250810190611ea09190615a1b565b506040518281526001600160a01b0384169033907f45892a46e6cef329bb642da6d69846d324db43d19008edc141ed82382eda1bee9060200160405180910390a3505050565b600b54610100900460ff1615611f0e5760405162461bcd60e51b815260040161172290615b7c565b3360009081526018602052604081208054909103611fb757336001600160a01b0316600080516020615f35833981519152604051611f7290602080825260129082015271139bc8199d5b991cc819195c1bdcda5d195960721b604082015260600190565b60405180910390a260405162461bcd60e51b8152602060048201526012602482015271139bc8199d5b991cc819195c1bdcda5d195960721b6044820152606401611722565b611fc033615283565b6004810154600081900361206357336001600160a01b0316600080516020615f3583398151915260405161201c906020808252601490820152734e6f20696e74657265737420746f20636c61696d60601b604082015260600190565b60405180910390a260405162461bcd60e51b81526020600482015260146024820152734e6f20696e74657265737420746f20636c61696d60601b6044820152606401611722565b60008260040181905550806019600082825461207f9190615a71565b9250508190555080600a60008282546120989190615a71565b9091555050604051339082156108fc029083906000818181858888f193505050501580156120ca573d6000803e3d6000fd5b5060405181815233907ff9984c8173c4b4ff9cc454f76ed19c053f4490ccb224fd9ddffeb4ef4bea3530906020015b60405180910390a25050565b6001600160a01b038116331461212e5760405163334bd91960e11b815260040160405180910390fd5b6118118282615385565b601e818154811061214857600080fd5b6000918252602090912001546001600160a01b0316905081565b600b54610100900460ff161561218a5760405162461bcd60e51b815260040161172290615b7c565b33600090815260036020526040812054900361223357336001600160a01b0316600080516020615f358339815191526040516121ed90602080825260139082015272139bc81bdd5d1cdd185b991a5b99c81919589d606a1b604082015260600190565b60405180910390a260405162461bcd60e51b8152602060048201526013602482015272139bc81bdd5d1cdd185b991a5b99c81919589d606a1b6044820152606401611722565b336000908152600360205260409020543410156122d957336001600160a01b0316600080516020615f358339815191526040516122959060208082526011908201527052657061796d656e7420746f6f206c6f7760781b604082015260600190565b60405180910390a260405162461bcd60e51b815260206004820152601160248201527052657061796d656e7420746f6f206c6f7760781b6044820152606401611722565b3460000361237e57336001600160a01b0316600080516020615f35833981519152604051612333906020808252601890820152774d7573742073656e642066756e647320746f20726570617960401b604082015260600190565b60405180910390a260405162461bcd60e51b81526020600482015260186024820152774d7573742073656e642066756e647320746f20726570617960401b6044820152606401611722565b6000612389336147ca565b33600090815260036020526040812054919250906123a8908390615715565b90508034101561244b57336001600160a01b0316600080516020615f3583398151915260405161240290602080825260169082015275125b9cdd59999a58da595b9d081c995c185e5b595b9d60521b604082015260600190565b60405180910390a260405162461bcd60e51b8152602060048201526016602482015275125b9cdd59999a58da595b9d081c995c185e5b595b9d60521b6044820152606401611722565b612453615401565b81601960008282546124659190615715565b9250508190555034600a600082825461247e9190615715565b9250508190555060008134116124945734612496565b815b336000908152600360205260408120805492935083929091906124ba908490615a71565b9091555050336000908152600460209081526040808320839055600590915290205460ff161561250757336000908152600560209081526040808320805460ff1916905560069091528120555b60405181815233907f0516911bcc3a0a7412a44601057c0a0a1ec628bde049a84284bc428866534488906020015b60405180910390a2505050565b61254a615106565b606481111561258e5760405162461bcd60e51b815260206004820152601060248201526f0a0cadcc2d8e8f240e8dede40d0d2ced60831b6044820152606401611722565b600f55565b6000806125a283850185615bbe565b9150915060005b825181101561263b5760008382815181106125c6576125c6615a84565b6020908102919091018101516001600160a01b0381166000908152600590925260409091205490915060ff1615612632576015546001600160a01b038216600090815260066020526040812054909161261e91615715565b90508042106126305761263082614cd1565b505b506001016125a9565b50804210611a2357611a23615401565b6000806010541161265c5750608290565b6010545b905090565b601d54600090819083106126b05760405162461bcd60e51b8152602060048201526012602482015271092dcecc2d8d2c840e8d2cae440d2dcc8caf60731b6044820152606401611722565b6000601d84815481106126c5576126c5615a84565b600091825260209182902060408051808201909152600290920201805480835260019091015491909201819052909590945092505050565b612705615106565b6001600160a01b0382166000908152600160205260408120805460ff1916831515179055805b60095481101561277d57836001600160a01b03166009828154811061275257612752615a84565b6000918252602090912001546001600160a01b031603612775576001915061277d565b60010161272b565b50818015612789575080155b156127da57600980546001810182556000919091527f6e1540171b6c0c960b71a7020d9f60077f6af931a8bbf590da0223dacf75c7af0180546001600160a01b0319166001600160a01b0385161790555b826001600160a01b03167f15f5cc64ca777db85f6c05fdba671568758b38329616d4d4b43bb8b092fe9a8d83604051612535911515815260200190565b61281f615106565b60648111156128615760405162461bcd60e51b815260206004820152600e60248201526d084dedceae640e8dede40d0d2ced60931b6044820152606401611722565b600e55565b61286e615106565b60648111156128b85760405162461bcd60e51b8152602060048201526016602482015275092dce8cae4cae6e840e4c2e8ca40e8dede40d0d2ced60531b6044820152606401611722565b601655565b6128c5615106565b600c55565b6060828210156129115760405162461bcd60e51b8152602060048201526012602482015271496e76616c696420646174652072616e676560701b6044820152606401611722565b61291b8383615a71565b612926906001615715565b67ffffffffffffffff81111561293e5761293e615ba8565b604051908082528060200260200182016040528015612967578160200160208202803683370190505b50905060005b6129778484615a71565b81116129c957601c600061298b8387615715565b8152602001908152602001600020548282815181106129ac576129ac615a84565b6020908102919091010152806129c181615c96565b91505061296d565b5092915050565b600080806129dc61428c565b905060005b8151811015612a755760008282815181106129fe576129fe615a84565b6020908102919091018101516001600160a01b0380821660009081528084526040808220928b16825291909352909120549091508015612a6b57670de0b6b3a7640000612a4a83614f6e565b612a549083615a38565b612a5e9190615a4f565b612a689086615715565b94505b50506001016129e1565b50909392505050565b612a86615106565b6064811015612acb5760405162461bcd60e51b81526020600482015260116024820152705468726573686f6c6420746f6f206c6f7760781b6044820152606401611722565b601055565b600060606000612ade614a03565b90506000815167ffffffffffffffff811115612afc57612afc615ba8565b604051908082528060200260200182016040528015612b25578160200160208202803683370190505b5090506000805b8351811015612bee576000848281518110612b4957612b49615a84565b6020908102919091018101516001600160a01b0381166000908152600590925260409091205490915060ff1615612be5576015546001600160a01b0382166000908152600660205260408120549091612ba191615715565b9050804210612be35781858581518110612bbd57612bbd615a84565b6001600160a01b039092166020928302919091019091015283612bdf81615c96565b9450505b505b50600101612b2c565b506000612bf9615438565b90504281111582151580612c0a5750805b15612cdc5760008367ffffffffffffffff811115612c2a57612c2a615ba8565b604051908082528060200260200182016040528015612c53578160200160208202803683370190505b50905060005b84811015612cad57858181518110612c7357612c73615a84565b6020026020010151828281518110612c8d57612c8d615a84565b6001600160a01b0390921660209283029190910190910152600101612c59565b50600197508083604051602001612cc5929190615caf565b604051602081830303815290604052965050612ce1565b600096505b50505050509250929050565b60006126606130a6565b612cff615106565b6001600160a01b038116612d475760405162461bcd60e51b815260206004820152600f60248201526e496e76616c6964206164647265737360881b6044820152606401611722565b612d50816154d4565b612d5b6000826151de565b50612d67600033615385565b5050565b612d73615106565b612d7d60006154d4565b565b6001600160a01b03811660009081526018602090815260408083208151610120810183528154815260018201549381018490526002820154928101929092526003810154606083015260048101546080830152600581015460a0830152600681015460c0830152600781015460e083015260080154610100820152829182918291829190612e11906201518090615715565b9550854210612e21576000612e3c565b6017548151606491612e3291615a38565b612e3c9190615a4f565b9450854210159350620151808160e00151612e579190615715565b815190935015612e98576000612e6b615138565b8251606084015191925090612e808383615a38565b612e8a9190615a4f565b612e949190615a71565b9250505b5091939590929450565b612eaa615106565b6001600160a01b03821660009081526001602052604090205460ff16612f125760405162461bcd60e51b815260206004820152601f60248201527f546f6b656e206e6f7420616c6c6f77656420617320636f6c6c61746572616c006044820152606401611722565b6001600160a01b03918216600090815260086020526040902080546001600160a01b03191691909216179055565b6001600160a01b03811660009081526007602052604081205480612f65576082612f67565b805b9392505050565b612f76615106565b600b5460ff1615612f995760405162461bcd60e51b815260040161172290615cd1565b600b805460ff1916600117905547811115612ff65760405162461bcd60e51b815260206004820152601d60248201527f496e73756666696369656e7420636f6e74726163742062616c616e63650000006044820152606401611722565b80600a60008282546130089190615a71565b9091555061301690506130a6565b6001600160a01b03166108fc829081150290604051600060405180830381858888f1935050505015801561304e573d6000803e3d6000fd5b506130576130a6565b6001600160a01b03167f69c169e5c85af54e1ca7e16608ccc812437821387924fb3353a7d053264ddaa08260405161309191815260200190565b60405180910390a250600b805460ff19169055565b7f9016d09d72d40fdae2fd8ceac6b6234c7706214fd39c1cd1e609a0528c199300546001600160a01b031690565b60008060006130e2846129d0565b6001600160a01b0385166000908152600360205260408120549192508190036131145750600194600019945092505050565b80613120836064615a38565b61312a9190615a4f565b925061313461264b565b83101593505050915091565b613148615106565b601255565b6000918252600080516020615f55833981519152602090815260408084206001600160a01b0393909316845291905290205460ff1690565b61318d615106565b816001600160a01b0381166131e45760405162461bcd60e51b815260206004820152601d60248201527f496e76616c696420616464726573733a207a65726f20616464726573730000006044820152606401611722565b306001600160a01b038216036132345760405162461bcd60e51b815260206004820152601560248201527424b73b30b634b21030b2323932b9b99d1039b2b63360591b6044820152606401611722565b606482111561327a5760405162461bcd60e51b815260206004820152601260248201527153636f7265206f7574206f662072616e676560701b6044820152606401611722565b6001600160a01b03831660008181526002602052604090819020849055517f4afae6838a181695abc7978598380d73bc2144eb38580c130f86e4b1e6531e15906125359085815260200190565b600b54610100900460ff16156132ef5760405162461bcd60e51b815260040161172290615b7c565b3360009081526018602052604090206008810154613311906201518090615715565b4210156133bf57336001600160a01b0316600080516020615f3583398151915260405161336f906020808252601d908201527f4d757374207761697420666f7220636f6f6c646f776e20706572696f64000000604082015260600190565b60405180910390a260405162461bcd60e51b815260206004820152601d60248201527f4d757374207761697420666f7220636f6f6c646f776e20706572696f640000006044820152606401611722565b80548211156133ed57336001600160a01b0316600080516020615f35833981519152604051611cc690615ac5565b6133f633615283565b6005810182905542600682018190556008820181905533907f24b91f4f47caf44230a57777a9be744924e82bf666f2d5702faf97df35e60f9f908490613440906201518090615715565b604080519283526020830191909152016120f9565b6001600160a01b03821660009081526001602052604090205460ff1661349a57336001600160a01b0316600080516020615f35833981519152604051611c5890615a9a565b8060000361353357336001600160a01b0316600080516020615f358339815191526040516134ee906020808252601290820152710416d6f756e74206d757374206265203e20360741b604082015260600190565b60405180910390a260405162461bcd60e51b81526020600482015260126024820152710416d6f756e74206d757374206265203e20360741b6044820152606401611722565b3360009081526005602052604090205460ff161561357057336001600160a01b0316600080516020615f35833981519152604051611d2390615af3565b336000908152601f602052604090205460ff166135e457336000818152601f60205260408120805460ff19166001908117909155601e805491820181559091527f50bb669a95c7b50b7e8a6f09454034b2b14cf2b85c730dca9a539ca82cb6e3500180546001600160a01b03191690911790555b6040516323b872dd60e01b8152336004820152306024820152604481018290526001600160a01b038316906323b872dd906064016020604051808303816000875af1158015613637573d6000803e3d6000fd5b505050506040513d601f19601f8201168201806040525081019061365b9190615a1b565b506001600160a01b0382166000908152602081815260408083203384529091528120805483929061368d908490615715565b90915550506040518181526001600160a01b0383169033907ff1c0dd7e9b98bbff859029005ef89b127af049cd18df1a8d79f0b7e019911e569060200160405180910390a35050565b6136de615106565b606481101561371f5760405162461bcd60e51b815260206004820152600d60248201526c526174696f20746f6f206c6f7760981b6044820152606401611722565b601355565b6001600160a01b03811660009081526018602090815260408083208151610120810183528154808252600183015494820185905260028301549382019390935260038201546060820152600482015460808201819052600583015460a0830152600683015460c0830152600783015460e083015260089092015461010082015291939290918391829182916137bd906201518090615715565b60e0820151909350915086156138035760006137d7615138565b9050878260600151828a6137eb9190615a38565b6137f59190615a4f565b6137ff9190615a71565b9650505b61380b615438565b93505091939550919395565b6009818154811061214857600080fd5b61382f615106565b601555565b61383c615106565b600b805460ff610100808304821615810261ff001990931692909217928390556040517f228f455d7bc3d0b24a3a08d7847f391c3e78fc8aeb83acf226b7a96ee162b8ac936138949390049091161515815260200190565b60405180910390a1565b60006138a8615545565b805490915060ff600160401b820416159067ffffffffffffffff166000811580156138d05750825b905060008267ffffffffffffffff1660011480156138ed5750303b155b9050811580156138fb575080155b156139195760405163f92ee8a960e01b815260040160405180910390fd5b845467ffffffffffffffff19166001178555831561394357845460ff60401b1916600160401b1785555b61394c8661556e565b61395461557f565b61395f600080615587565b61396a6000876151de565b50600019600c819055600d8190556014600e819055600a600f556096601081905562093a806011556012929092556013919091556202a30090556203f4806015556005601655670de12d4cc511c000601a556139c96201518042615a4f565b601b556005601755604080518082018252678ac7230489e800008152670de13f20401b60006020808301918252601d8054600181810183556000838152955160029283027f6d4407e7be21f808e6509aa9fa9143369579dd7d760fe20a2c09680fc146134f8181019290925595517f6d4407e7be21f808e6509aa9fa9143369579dd7d760fe20a2c09680fc14613509687015587518089018952674563918244f400008152670de13607f1a8c00081870190815285548085018755868a5291519185028084019290925551908701558751808901909852670de0b6b3a76400008852670de12d4cc511c00094880194855283549182018455929095529451939094029384019290925590519101558315613b1d57845460ff60401b19168555604051600181527fc7f505b2f371ae2175ee4913f4499e1f2633a7b5936321eed1cdaeb6115181d29060200160405180910390a15b505050505050565b600b54610100900460ff1615613b4d5760405162461bcd60e51b815260040161172290615b7c565b600b5460ff1615613b705760405162461bcd60e51b815260040161172290615cd1565b600b805460ff191660011790556000819003613c2d57336001600160a01b0316600080516020615f35833981519152604051613bdd906020808252601d908201527f416d6f756e74206d7573742062652067726561746572207468616e2030000000604082015260600190565b60405180910390a260405162461bcd60e51b815260206004820152601d60248201527f416d6f756e74206d7573742062652067726561746572207468616e20300000006044820152606401611722565b33600090815260026020526040902054603c1115613cda57336001600160a01b0316600080516020615f35833981519152604051613c93906020808252601490820152734372656469742073636f726520746f6f206c6f7760601b604082015260600190565b60405180910390a260405162461bcd60e51b81526020600482015260146024820152734372656469742073636f726520746f6f206c6f7760601b6044820152606401611722565b6002601954613ce99190615a4f565b811115613d8f57336001600160a01b0316600080516020615f35833981519152604051613d4390602080825260199082015278496e73756666696369656e74206c656e6465722066756e647360381b604082015260600190565b60405180910390a260405162461bcd60e51b8152602060048201526019602482015278496e73756666696369656e74206c656e6465722066756e647360381b6044820152606401611722565b600c54811115613e3857336001600160a01b0316600080516020615f35833981519152604051613dec90602080825260199082015278115e18d959591cc81b585e08189bdc9c9bddc8185b5bdd5b9d603a1b604082015260600190565b60405180910390a260405162461bcd60e51b8152602060048201526019602482015278115e18d959591cc81b585e08189bdc9c9bddc8185b5bdd5b9d603a1b6044820152606401611722565b3360009081526003602052604090205415613ef457336001600160a01b0316600080516020615f35833981519152604051613ea4906020808252601e908201527f526570617920796f7572206578697374696e6720646562742066697273740000604082015260600190565b60405180910390a260405162461bcd60e51b815260206004820152601e60248201527f526570617920796f7572206578697374696e67206465627420666972737400006044820152606401611722565b336000908152601f602052604090205460ff16613f6857336000818152601f60205260408120805460ff19166001908117909155601e805491820181559091527f50bb669a95c7b50b7e8a6f09454034b2b14cf2b85c730dca9a539ca82cb6e3500180546001600160a01b03191690911790555b6000613f73336129d0565b9050600d5481111561402657336001600160a01b0316600080516020615f35833981519152604051613fd6906020808252601d908201527f45786365656473206d617820636f6c6c61746572616c20616d6f756e74000000604082015260600190565b60405180910390a260405162461bcd60e51b815260206004820152601d60248201527f45786365656473206d617820636f6c6c61746572616c20616d6f756e740000006044820152606401611722565b614031608283615a38565b61403c826064615a38565b101561408757336001600160a01b0316600080516020615f3583398151915260405161406790615cf8565b60405180910390a260405162461bcd60e51b815260040161172290615cf8565b33600090815260036020526040812080548492906140a6908490615715565b9250508190555081601960008282546140bf9190615a71565b9250508190555081600a60008282546140d89190615a71565b9091555050336000818152600460205260408082204290555184156108fc0291859190818181858888f19350505050158015614118573d6000803e3d6000fd5b5060405182815233907fac59582e5396aca512fa873a2047e7f4c80f8f55d4a06cb34a78a0187f62719f9060200160405180910390a25050600b805460ff19169055565b600b54610100900460ff16156141845760405162461bcd60e51b815260040161172290615b7c565b336000908152601860205260408120600581015490910361424657336001600160a01b0316600080516020615f358339815191526040516141f6906020808252601f908201527f4e6f2070656e64696e67207769746864726177616c20746f2063616e63656c00604082015260600190565b60405180910390a260405162461bcd60e51b815260206004820152601f60248201527f4e6f2070656e64696e67207769746864726177616c20746f2063616e63656c006044820152606401611722565b600581018054600091829055600683019190915560405181815233907f2eed97477f07c07ec48f8f678f4e84f7c0de55bf33f51c3dc989b13353080319906020016120f9565b60606000805b6009548110156142f65760016000600983815481106142b3576142b3615a84565b60009182526020808320909101546001600160a01b0316835282019290925260400190205460ff16156142ee57816142ea81615c96565b9250505b600101614292565b5060008167ffffffffffffffff81111561431257614312615ba8565b60405190808252806020026020018201604052801561433b578160200160208202803683370190505b5090506000805b600954811015612a755760006009828154811061436157614361615a84565b60009182526020808320909101546001600160a01b0316808352600190915260409091205490915060ff16156143ca57808484815181106143a4576143a4615a84565b6001600160a01b0390921660209283029190910190910152826143c681615c96565b9350505b50600101614342565b6143db615106565b601155565b6143e9826119e5565b6143f2816150fc565b611a238383615385565b6001600160a01b0381166000908152601860209081526040808320815161012081018352815481526001820154938101939093526002810154918301919091526003810154606083015260048101546080830152600581015460a08301819052600682015460c0840152600782015460e0840152600890910154610100830152820361448b5750600092915050565b620151808160c0015161449e9190615715565b4210159392505050565b6144b0615106565b600d55565b600b54610100900460ff16156144dd5760405162461bcd60e51b815260040161172290615b7c565b600b5460ff16156145005760405162461bcd60e51b815260040161172290615cd1565b600b805460ff1916600117905533600090815260186020526040812060058101549091036145bf57336001600160a01b0316600080516020615f3583398151915260405161457790602080825260159082015274139bc81c195b991a5b99c81dda5d1a191c985dd85b605a1b604082015260600190565b60405180910390a260405162461bcd60e51b8152602060048201526015602482015274139bc81c195b991a5b99c81dda5d1a191c985dd85b605a1b6044820152606401611722565b6201518081600601546145d29190615715565b42101561466e57336001600160a01b0316600080516020615f35833981519152604051614627906020808252601490820152735769746864726177616c206e6f7420726561647960601b604082015260600190565b60405180910390a260405162461bcd60e51b81526020600482015260146024820152735769746864726177616c206e6f7420726561647960601b6044820152606401611722565b60058101546001820154600090614689906201518090615715565b4210156146ef576064601754836146a09190615a38565b6146aa9190615a4f565b90506146b68183615a71565b60405182815290925033907fb6a45448c8250adf8d836e047d46f96410d632c7089720e3aed88fcb76644ded9060200160405180910390a25b6146f98183615715565b83600001600082825461470c9190615a71565b9091555061471c90508183615715565b6019600082825461472d9190615a71565b9250508190555081600a60008282546147469190615a71565b9091555050600060058401819055604051339184156108fc02918591818181858888f1935050505015801561477f573d6000803e3d6000fd5b50604080518381526020810183905233917ffbc3a599b784fe88772fc5abcc07223f64ca0b13acc341f4fb1e46bef0510eb4910160405180910390a25050600b805460ff1916905550565b6001600160a01b038116600090815260186020908152604080832081516101208101835281548082526001830154948201949094526002820154928101929092526003810154606083015260048101546080830152600581015460a0830152600681015460c0830152600781015460e0830152600801546101008201529082036148575750600092915050565b6000614861615138565b90506000620151808360400151426148799190615a71565b6148839190615a4f565b905080156148e6578251606084015161489c8483615a38565b6148a69190615a4f565b6148b09190615a71565b935060005b818110156148e457670de0b6b3a76400006148d08487615a38565b6148da9190615a4f565b94506001016148b5565b505b505050919050565b60006148f9826130d4565b50905080156149405760405162461bcd60e51b8152602060048201526013602482015272506f736974696f6e206973206865616c74687960681b6044820152606401611722565b6001600160a01b03821660009081526005602052604090205460ff16156149a95760405162461bcd60e51b815260206004820152601b60248201527f4c69717569646174696f6e20616c7265616479207374617274656400000000006044820152606401611722565b6001600160a01b0382166000818152600560209081526040808320805460ff191660011790556006909152808220429055517f7f62ed89ea2c6fb057e4ea77729c1d3f18056339791fce29ac89760197b45b299190a25050565b6060601e805480602002602001604051908101604052809291908181526020018280548015614a5b57602002820191906000526020600020905b81546001600160a01b03168152600190910190602001808311614a3d575b5050505050905090565b600b54610100900460ff1615614a8d5760405162461bcd60e51b815260040161172290615b7c565b662386f26fc10000341015614b3557336001600160a01b0316600080516020615f35833981519152604051614aec906020808252601690820152754465706f73697420616d6f756e7420746f6f206c6f7760501b604082015260600190565b60405180910390a260405162461bcd60e51b81526020600482015260166024820152754465706f73697420616d6f756e7420746f6f206c6f7760501b6044820152606401611722565b3360009081526018602052604090205468056bc75e2d6310000090614b5a9034615715565b1115614ba557336001600160a01b0316600080516020615f35833981519152604051614b8590615d3d565b60405180910390a260405162461bcd60e51b815260040161172290615d3d565b33600081815260186020526040902090614bbe90615283565b8054600003614c4e57614bcf615138565b6003820155426001820155336000908152601f602052604090205460ff16614c4e57336000818152601f60205260408120805460ff19166001908117909155601e805491820181559091527f50bb669a95c7b50b7e8a6f09454034b2b14cf2b85c730dca9a539ca82cb6e3500180546001600160a01b03191690911790555b34816000016000828254614c629190615715565b925050819055503460196000828254614c7b9190615715565b9250508190555034600a6000828254614c949190615715565b909155505060405134815233907f543ba50a5eec5e6178218e364b1d0f396157b3c8fa278522c2cb7fd99407d4749060200160405180910390a250565b6001600160a01b03811660009081526005602052604090205460ff16614d445760405162461bcd60e51b815260206004820152602260248201527f4163636f756e74206e6f74206d61726b656420666f72206c697175696461746960448201526137b760f11b6064820152608401611722565b6001600160a01b038116600090815260066020526040902054614d6b906203f48090615715565b421015614db35760405162461bcd60e51b815260206004820152601660248201527511dc9858d9481c195c9a5bd9081b9bdd08195b99195960521b6044820152606401611722565b6001600160a01b038116600090815260036020526040812054906064614dda600584615a38565b614de49190615a4f565b90506000614df28284615715565b90506000614dfe61428c565b905060005b8151811015614ef1576000828281518110614e2057614e20615a84565b6020908102919091018101516001600160a01b0380821660009081528084526040808220928c16825291909352909120549091508015614ee7576001600160a01b03828116600081815260208181526040808320948d16835293905282812055905163a9059cbb60e01b81523360048201526024810183905263a9059cbb906044016020604051808303816000875af1158015614ec1573d6000803e3d6000fd5b505050506040513d601f19601f82011682018060405250810190614ee59190615a1b565b505b5050600101614e03565b506001600160a01b03851660008181526003602090815260408083208390556004825280832083905560058252808320805460ff19169055600682528083209290925590518481523392917f1175522017e08c2f400d7e516608eff60816ee9e8319158d174321234b602631910160405180910390a35050505050565b6001600160a01b0380821660009081526008602052604081205490911680614fcd5760405162461bcd60e51b8152602060048201526012602482015271141c9a58d94819995959081b9bdd081cd95d60721b6044820152606401611722565b60008190506000816001600160a01b031663feaf968c6040518163ffffffff1660e01b815260040160a060405180830381865afa158015615012573d6000803e3d6000fd5b505050506040513d601f19601f820116820180604052508101906150369190615d99565b505050915050816001600160a01b031663313ce5676040518163ffffffff1660e01b8152600401602060405180830381865afa15801561507a573d6000803e3d6000fd5b505050506040513d601f19601f8201168201806040525081019061509e9190615deb565b6150a9906012615e0e565b6150b490600a615f0e565b6119ae9082615a38565b6150c6615106565b6001600160a01b0381166150f057604051631e4fbdf760e01b815260006004820152602401611722565b6150f9816154d4565b50565b6150f981336155ea565b3361510f6130a6565b6001600160a01b031614612d7d5760405163118cdaa760e01b8152336004820152602401611722565b6000806151486201518042615a4f565b90506000601b548261515a9190615a71565b905080600003615196576000828152601c602052604090205461517f57601a5461518f565b6000828152601c60205260409020545b9250505090565b601a5460005b828110156151d657670de0b6b3a76400006151b8601954615623565b6151c29084615a38565b6151cc9190615a4f565b915060010161519c565b509392505050565b6000600080516020615f558339815191526151f9848461314d565b615279576000848152602082815260408083206001600160a01b03871684529091529020805460ff1916600117905561522f3390565b6001600160a01b0316836001600160a01b0316857f2f8788117e7eff1d82e926ec794901d17c78024a50270940304540a733656f0d60405160405180910390a460019150506116c1565b60009150506116c1565b6001600160a01b038116600090815260186020526040812080549091036152a8575050565b60006152b2615138565b825460038401549192506000916152c98483615a38565b6152d39190615a4f565b6152dd9190615a71565b9050801561537557808360040160008282546152f99190615715565b9091555050825481908490600090615312908490615715565b92505081905550806019600082825461532b9190615715565b90915550504260078401556040518181526001600160a01b038516907f65724bab62e2b372c625ed834016c4e1750f8074aad18b22844457f35ea61d739060200160405180910390a25b5060038201554260029091015550565b6000600080516020615f558339815191526153a0848461314d565b15615279576000848152602082815260408083206001600160a01b0387168085529252808320805460ff1916905551339287917ff6391f5c32d9c69d2a47ea670b442974b53935d1edc7fd64eb21e047a839171b9190a460019150506116c1565b60006154106201518042615a4f565b9050601b548111156150f957615424615138565b6000828152601c6020526040902055601b55565b33600090815260186020908152604080832081516101208101835281548082526001830154948201949094526002820154928101929092526003810154606083015260048101546080830152600581015460a0830152600681015460c0830152600781015460e0830152600801546101008201529082036154bb57600091505090565b620151808160e001516154ce9190615715565b91505090565b7f9016d09d72d40fdae2fd8ceac6b6234c7706214fd39c1cd1e609a0528c19930080546001600160a01b031981166001600160a01b03848116918217845560405192169182907f8be0079c531659141344cd1fd0a4f28419497f9722a3daafe3b4186f6b6457e090600090a3505050565b6000807ff0c57e16840df040f15088dc2f81fe391c3923bec73e23a9662efc9c229c6a006116c1565b6155766156b8565b6150f9816156dd565b612d7d6156b8565b600080516020615f5583398151915260006155a1846119e5565b600085815260208490526040808220600101869055519192508491839187917fbd79b86ffe0ab8e8776151514217cd7cacd52c909f66475c3af44e129f0b00ff9190a450505050565b6155f4828261314d565b612d675760405163e2517d3f60e01b81526001600160a01b038216600482015260248101839052604401611722565b601d546000905b80156156ae57601d61563d600183615a71565b8154811061564d5761564d615a84565b906000526020600020906002020160000154831061569c57601d615672600183615a71565b8154811061568257615682615a84565b906000526020600020906002020160010154915050919050565b806156a681615f1d565b91505061562a565b5050601a54919050565b6156c06156e5565b612d7d57604051631afcd79f60e31b815260040160405180910390fd5b6150c66156b8565b60006156ef615545565b54600160401b900460ff16919050565b634e487b7160e01b600052601160045260246000fd5b808201808211156116c1576116c16156ff565b80356001600160a01b038116811461573f57600080fd5b919050565b60006020828403121561575657600080fd5b612f6782615728565b60006020828403121561577157600080fd5b81356001600160e01b031981168114612f6757600080fd5b6000806040838503121561579c57600080fd5b6157a583615728565b946020939093013593505050565b6000602082840312156157c557600080fd5b5035919050565b600080604083850312156157df57600080fd5b50508035926020909101359150565b6000806040838503121561580157600080fd5b8235915061581160208401615728565b90509250929050565b60008060006060848603121561582f57600080fd5b505081359360208301359350604090920135919050565b6000806020838503121561585957600080fd5b823567ffffffffffffffff81111561587057600080fd5b8301601f8101851361588157600080fd5b803567ffffffffffffffff81111561589857600080fd5b8560208284010111156158aa57600080fd5b6020919091019590945092505050565b600080604083850312156158cd57600080fd5b6158d683615728565b915061581160208401615728565b80151581146150f957600080fd5b6000806040838503121561590557600080fd5b61590e83615728565b9150602083013561591e816158e4565b809150509250929050565b602080825282518282018190526000918401906040840190835b81811015615961578351835260209384019390920191600101615943565b509095945050505050565b8215158152604060208201526000825180604084015260005b818110156159a25760208186018101516060868401015201615985565b506000606082850101526060601f19601f8301168401019150509392505050565b600081518084526020840193506020830160005b828110156159fe5781516001600160a01b03168652602095860195909101906001016159d7565b5093949350505050565b602081526000612f6760208301846159c3565b600060208284031215615a2d57600080fd5b8151612f67816158e4565b80820281158282048414176116c1576116c16156ff565b600082615a6c57634e487b7160e01b600052601260045260246000fd5b500490565b818103818111156116c1576116c16156ff565b634e487b7160e01b600052603260045260246000fd5b602080825260119082015270151bdad95b881b9bdd08185b1b1bddd959607a1b604082015260600190565b602080825260149082015273496e73756666696369656e742062616c616e636560601b604082015260600190565b60208082526019908201527f4163636f756e7420697320696e206c69717569646174696f6e00000000000000604082015260600190565b60208082526032908201527f5769746864726177616c20776f756c64206d616b6520706f736974696f6e20756040820152711b99195c98dbdb1b185d195c985b1a5e995960721b606082015260800190565b60208082526012908201527110dbdb9d1c9858dd081a5cc81c185d5cd95960721b604082015260600190565b634e487b7160e01b600052604160045260246000fd5b60008060408385031215615bd157600080fd5b823567ffffffffffffffff811115615be857600080fd5b8301601f81018513615bf957600080fd5b803567ffffffffffffffff811115615c1357615c13615ba8565b8060051b604051601f19603f830116810181811067ffffffffffffffff82111715615c4057615c40615ba8565b604052918252602081840181019290810188841115615c5e57600080fd5b6020850194505b83851015615c8457615c7685615728565b815260209485019401615c65565b50976020969096013596505050505050565b600060018201615ca857615ca86156ff565b5060010190565b604081526000615cc260408301856159c3565b90508260208301529392505050565b6020808252600d908201526c4e6f207265656e7472616e637960981b604082015260600190565b60208082526025908201527f496e73756666696369656e7420636f6c6c61746572616c20666f722074686973604082015264103637b0b760d91b606082015260800190565b60208082526022908201527f4465706f73697420776f756c6420657863656564206d6178696d756d206c696d6040820152611a5d60f21b606082015260800190565b805169ffffffffffffffffffff8116811461573f57600080fd5b600080600080600060a08688031215615db157600080fd5b615dba86615d7f565b60208701516040880151606089015192975090955093509150615ddf60808701615d7f565b90509295509295909350565b600060208284031215615dfd57600080fd5b815160ff81168114612f6757600080fd5b60ff82811682821603908111156116c1576116c16156ff565b6001815b6001841115615e6257808504811115615e4657615e466156ff565b6001841615615e5457908102905b60019390931c928002615e2b565b935093915050565b600082615e79575060016116c1565b81615e86575060006116c1565b8160018114615e9c5760028114615ea657615ec2565b60019150506116c1565b60ff841115615eb757615eb76156ff565b50506001821b6116c1565b5060208310610133831016604e8410600b8410161715615ee5575081810a6116c1565b615ef26000198484615e27565b8060001904821115615f0657615f066156ff565b029392505050565b6000612f6760ff841683615e6a565b600081615f2c57615f2c6156ff565b50600019019056fe3c364b9decdac59fbe037e99687219ac0feed46572bfbcbd5284b6b8e67f402d02dd7bc7dec4dceedda775e58dd541e08a116c6c53815c0bd028192f7b626800a26469706673582212207b987ec6524e17ed0a9cdbc06d4b4fb3596a9b82d6f363d7123f694d3153d9a164736f6c634300081c0033",
  "linkReferences": {},
  "deployedLinkReferences": {}
}