{
  "_format": "hh-sol-artifact-1",
  "contractName": "LiquidityPoolV1",
  "sourceName": "contracts/LiquidityPoolV1.sol",
  "abi": [
    {
      "inputs": [],
      "name": "InvalidInitialization",
      "type": "error"
    },
    {
      "inputs": [],
      "name": "NotInitializing",
      "type": "error"
    },
    {
      "anonymous": false,
      "inputs": [
        {
          "indexed": true,
          "internalType": "address",
          "name": "borrower",
          "type": "address"
        },
        {
          "indexed": false,
          "internalType": "uint256",
          "name": "amount",
          "type": "uint256"
        },
        {
          "indexed": false,
          "internalType": "uint256",
          "name": "timestamp",
          "type": "uint256"
        }
      ],
      "name": "Borrowed",
      "type": "event"
    },
    {
      "anonymous": false,
      "inputs": [
        {
          "indexed": false,
          "internalType": "bool",
          "name": "isPaused",
          "type": "bool"
        }
      ],
      "name": "EmergencyPaused",
      "type": "event"
    },
    {
      "anonymous": false,
      "inputs": [
        {
          "indexed": false,
          "internalType": "uint64",
          "name": "version",
          "type": "uint64"
        }
      ],
      "name": "Initialized",
      "type": "event"
    },
    {
      "anonymous": false,
      "inputs": [
        {
          "indexed": true,
          "internalType": "address",
          "name": "payer",
          "type": "address"
        },
        {
          "indexed": false,
          "internalType": "uint256",
          "name": "amount",
          "type": "uint256"
        },
        {
          "indexed": false,
          "internalType": "uint256",
          "name": "timestamp",
          "type": "uint256"
        }
      ],
      "name": "Repaid",
      "type": "event"
    },
    {
      "inputs": [
        {
          "internalType": "uint256",
          "name": "amount",
          "type": "uint256"
        }
      ],
      "name": "borrow",
      "outputs": [],
      "stateMutability": "nonpayable",
      "type": "function"
    },
    {
      "inputs": [
        {
          "internalType": "address",
          "name": "",
          "type": "address"
        }
      ],
      "name": "borrowTimestamp",
      "outputs": [
        {
          "internalType": "uint256",
          "name": "",
          "type": "uint256"
        }
      ],
      "stateMutability": "view",
      "type": "function"
    },
    {
      "inputs": [
        {
          "internalType": "address",
          "name": "",
          "type": "address"
        }
      ],
      "name": "creditScore",
      "outputs": [
        {
          "internalType": "uint8",
          "name": "",
          "type": "uint8"
        }
      ],
      "stateMutability": "view",
      "type": "function"
    },
    {
      "inputs": [
        {
          "internalType": "uint256",
          "name": "amount",
          "type": "uint256"
        }
      ],
      "name": "extract",
      "outputs": [],
      "stateMutability": "nonpayable",
      "type": "function"
    },
    {
      "inputs": [],
      "name": "getBalance",
      "outputs": [
        {
          "internalType": "uint256",
          "name": "",
          "type": "uint256"
        }
      ],
      "stateMutability": "view",
      "type": "function"
    },
    {
      "inputs": [],
      "name": "getMyDebt",
      "outputs": [
        {
          "internalType": "uint256",
          "name": "",
          "type": "uint256"
        }
      ],
      "stateMutability": "view",
      "type": "function"
    },
    {
      "inputs": [
        {
          "internalType": "address",
          "name": "_owner",
          "type": "address"
        }
      ],
      "name": "initialize",
      "outputs": [],
      "stateMutability": "nonpayable",
      "type": "function"
    },
    {
      "inputs": [],
      "name": "isPaused",
      "outputs": [
        {
          "internalType": "bool",
          "name": "",
          "type": "bool"
        }
      ],
      "stateMutability": "view",
      "type": "function"
    },
    {
      "inputs": [],
      "name": "locked",
      "outputs": [
        {
          "internalType": "bool",
          "name": "",
          "type": "bool"
        }
      ],
      "stateMutability": "view",
      "type": "function"
    },
    {
      "inputs": [],
      "name": "owner",
      "outputs": [
        {
          "internalType": "address",
          "name": "",
          "type": "address"
        }
      ],
      "stateMutability": "view",
      "type": "function"
    },
    {
      "inputs": [],
      "name": "paused",
      "outputs": [
        {
          "internalType": "bool",
          "name": "",
          "type": "bool"
        }
      ],
      "stateMutability": "view",
      "type": "function"
    },
    {
      "inputs": [],
      "name": "repay",
      "outputs": [],
      "stateMutability": "payable",
      "type": "function"
    },
    {
      "inputs": [
        {
          "internalType": "address",
          "name": "user",
          "type": "address"
        },
        {
          "internalType": "uint8",
          "name": "score",
          "type": "uint8"
        }
      ],
      "name": "setCreditScore",
      "outputs": [],
      "stateMutability": "nonpayable",
      "type": "function"
    },
    {
      "inputs": [],
      "name": "togglePause",
      "outputs": [],
      "stateMutability": "nonpayable",
      "type": "function"
    },
    {
      "inputs": [],
      "name": "totalFunds",
      "outputs": [
        {
          "internalType": "uint256",
          "name": "",
          "type": "uint256"
        }
      ],
      "stateMutability": "view",
      "type": "function"
    },
    {
      "inputs": [
        {
          "internalType": "address",
          "name": "newOwner",
          "type": "address"
        }
      ],
      "name": "transferOwnership",
      "outputs": [],
      "stateMutability": "nonpayable",
      "type": "function"
    },
    {
      "inputs": [
        {
          "internalType": "address",
          "name": "",
          "type": "address"
        }
      ],
      "name": "userDebt",
      "outputs": [
        {
          "internalType": "uint256",
          "name": "",
          "type": "uint256"
        }
      ],
      "stateMutability": "view",
      "type": "function"
    },
    {
      "stateMutability": "payable",
      "type": "receive"
    }
  ],
  "bytecode": "0x6080604052348015600f57600080fd5b50611c5a8061001f6000396000f3fe6080604052600436106101025760003560e01c8063b187bd2611610095578063c5ebeaec11610064578063c5ebeaec14610301578063cf3090121461032a578063d29255f914610355578063f2fde38b14610392578063f7e590ee146103bb57610121565b8063b187bd2614610259578063b69e5c7714610284578063c4ae3168146102c1578063c4d66de8146102d857610121565b80635ca63fb1116100d15780635ca63fb1146101b157806385b39782146101da5780638da5cb5b14610203578063968ed6001461022e57610121565b806312065fe014610126578063402d888314610151578063450a375a1461015b5780635c975abb1461018657610121565b366101215734600160008282546101199190611388565b925050819055005b600080fd5b34801561013257600080fd5b5061013b6103f8565b60405161014891906113cb565b60405180910390f35b610159610400565b005b34801561016757600080fd5b50610170610668565b60405161017d91906113cb565b60405180910390f35b34801561019257600080fd5b5061019b6106af565b6040516101a89190611401565b60405180910390f35b3480156101bd57600080fd5b506101d860048036038101906101d391906114b8565b6106c2565b005b3480156101e657600080fd5b5061020160048036038101906101fc9190611524565b6108d2565b005b34801561020f57600080fd5b50610218610aac565b6040516102259190611560565b60405180910390f35b34801561023a57600080fd5b50610243610ad0565b60405161025091906113cb565b60405180910390f35b34801561026557600080fd5b5061026e610ad6565b60405161027b9190611401565b60405180910390f35b34801561029057600080fd5b506102ab60048036038101906102a6919061157b565b610aed565b6040516102b891906113cb565b60405180910390f35b3480156102cd57600080fd5b506102d6610b05565b005b3480156102e457600080fd5b506102ff60048036038101906102fa919061157b565b610c05565b005b34801561030d57600080fd5b5061032860048036038101906103239190611524565b610dcb565b005b34801561033657600080fd5b5061033f611115565b60405161034c9190611401565b60405180910390f35b34801561036157600080fd5b5061037c6004803603810190610377919061157b565b611128565b60405161038991906113cb565b60405180910390f35b34801561039e57600080fd5b506103b960048036038101906103b4919061157b565b611140565b005b3480156103c757600080fd5b506103e260048036038101906103dd919061157b565b6112f0565b6040516103ef91906115b7565b60405180910390f35b600047905090565b600260019054906101000a900460ff1615610450576040517f08c379a00000000000000000000000000000000000000000000000000000000081526004016104479061162f565b60405180910390fd5b6000600360003373ffffffffffffffffffffffffffffffffffffffff1673ffffffffffffffffffffffffffffffffffffffff16815260200190815260200160002054116104d2576040517f08c379a00000000000000000000000000000000000000000000000000000000081526004016104c99061169b565b60405180910390fd5b60003411610515576040517f08c379a000000000000000000000000000000000000000000000000000000000815260040161050c90611707565b60405180910390fd5b6000600360003373ffffffffffffffffffffffffffffffffffffffff1673ffffffffffffffffffffffffffffffffffffffff16815260200190815260200160002054341161056357346105a4565b600360003373ffffffffffffffffffffffffffffffffffffffff1673ffffffffffffffffffffffffffffffffffffffff168152602001908152602001600020545b905080600360003373ffffffffffffffffffffffffffffffffffffffff1673ffffffffffffffffffffffffffffffffffffffff16815260200190815260200160002060008282546105f59190611727565b92505081905550806001600082825461060e9190611388565b925050819055503373ffffffffffffffffffffffffffffffffffffffff167f1b8cd61ed43bec7c6bdad3a18ffee613f99c853d16c50678d248d879e1b43438824260405161065d92919061175b565b60405180910390a250565b6000600360003373ffffffffffffffffffffffffffffffffffffffff1673ffffffffffffffffffffffffffffffffffffffff16815260200190815260200160002054905090565b600260019054906101000a900460ff1681565b60008054906101000a900473ffffffffffffffffffffffffffffffffffffffff1673ffffffffffffffffffffffffffffffffffffffff163373ffffffffffffffffffffffffffffffffffffffff1614610750576040517f08c379a0000000000000000000000000000000000000000000000000000000008152600401610747906117d0565b60405180910390fd5b81600073ffffffffffffffffffffffffffffffffffffffff168173ffffffffffffffffffffffffffffffffffffffff16036107c0576040517f08c379a00000000000000000000000000000000000000000000000000000000081526004016107b79061183c565b60405180910390fd5b3073ffffffffffffffffffffffffffffffffffffffff168173ffffffffffffffffffffffffffffffffffffffff160361082e576040517f08c379a0000000000000000000000000000000000000000000000000000000008152600401610825906118a8565b60405180910390fd5b60648260ff161115610875576040517f08c379a000000000000000000000000000000000000000000000000000000000815260040161086c90611914565b60405180910390fd5b81600460008573ffffffffffffffffffffffffffffffffffffffff1673ffffffffffffffffffffffffffffffffffffffff16815260200190815260200160002060006101000a81548160ff021916908360ff160217905550505050565b60008054906101000a900473ffffffffffffffffffffffffffffffffffffffff1673ffffffffffffffffffffffffffffffffffffffff163373ffffffffffffffffffffffffffffffffffffffff1614610960576040517f08c379a0000000000000000000000000000000000000000000000000000000008152600401610957906117d0565b60405180910390fd5b600260009054906101000a900460ff16156109b0576040517f08c379a00000000000000000000000000000000000000000000000000000000081526004016109a790611980565b60405180910390fd5b6001600260006101000a81548160ff02191690831515021790555047811115610a0e576040517f08c379a0000000000000000000000000000000000000000000000000000000008152600401610a05906119ec565b60405180910390fd5b8060016000828254610a209190611727565b9250508190555060008054906101000a900473ffffffffffffffffffffffffffffffffffffffff1673ffffffffffffffffffffffffffffffffffffffff166108fc829081150290604051600060405180830381858888f19350505050158015610a8d573d6000803e3d6000fd5b506000600260006101000a81548160ff02191690831515021790555050565b60008054906101000a900473ffffffffffffffffffffffffffffffffffffffff1681565b60015481565b6000600260019054906101000a900460ff16905090565b60036020528060005260406000206000915090505481565b60008054906101000a900473ffffffffffffffffffffffffffffffffffffffff1673ffffffffffffffffffffffffffffffffffffffff163373ffffffffffffffffffffffffffffffffffffffff1614610b93576040517f08c379a0000000000000000000000000000000000000000000000000000000008152600401610b8a906117d0565b60405180910390fd5b600260019054906101000a900460ff1615600260016101000a81548160ff0219169083151502179055507f228f455d7bc3d0b24a3a08d7847f391c3e78fc8aeb83acf226b7a96ee162b8ac600260019054906101000a900460ff16604051610bfb9190611401565b60405180910390a1565b6000610c0f611310565b905060008160000160089054906101000a900460ff1615905060008260000160009054906101000a900467ffffffffffffffff1690506000808267ffffffffffffffff16148015610c5d5750825b9050600060018367ffffffffffffffff16148015610c92575060003073ffffffffffffffffffffffffffffffffffffffff163b145b905081158015610ca0575080155b15610cd7576040517ff92ee8a900000000000000000000000000000000000000000000000000000000815260040160405180910390fd5b60018560000160006101000a81548167ffffffffffffffff021916908367ffffffffffffffff1602179055508315610d275760018560000160086101000a81548160ff0219169083151502179055505b856000806101000a81548173ffffffffffffffffffffffffffffffffffffffff021916908373ffffffffffffffffffffffffffffffffffffffff1602179055508315610dc35760008560000160086101000a81548160ff0219169083151502179055507fc7f505b2f371ae2175ee4913f4499e1f2633a7b5936321eed1cdaeb6115181d26001604051610dba9190611a65565b60405180910390a15b505050505050565b600260019054906101000a900460ff1615610e1b576040517f08c379a0000000000000000000000000000000000000000000000000000000008152600401610e129061162f565b60405180910390fd5b600260009054906101000a900460ff1615610e6b576040517f08c379a0000000000000000000000000000000000000000000000000000000008152600401610e6290611980565b60405180910390fd5b6001600260006101000a81548160ff02191690831515021790555060008111610ec9576040517f08c379a0000000000000000000000000000000000000000000000000000000008152600401610ec090611acc565b60405180910390fd5b603c600460003373ffffffffffffffffffffffffffffffffffffffff1673ffffffffffffffffffffffffffffffffffffffff16815260200190815260200160002060009054906101000a900460ff1660ff161015610f5c576040517f08c379a0000000000000000000000000000000000000000000000000000000008152600401610f5390611b38565b60405180910390fd5b6002600154610f6b9190611b87565b811115610fad576040517f08c379a0000000000000000000000000000000000000000000000000000000008152600401610fa490611c04565b60405180910390fd5b80600360003373ffffffffffffffffffffffffffffffffffffffff1673ffffffffffffffffffffffffffffffffffffffff1681526020019081526020016000206000828254610ffc9190611388565b9250508190555080600160008282546110159190611727565b9250508190555042600560003373ffffffffffffffffffffffffffffffffffffffff1673ffffffffffffffffffffffffffffffffffffffff168152602001908152602001600020819055503373ffffffffffffffffffffffffffffffffffffffff166108fc829081150290604051600060405180830381858888f193505050501580156110a6573d6000803e3d6000fd5b503373ffffffffffffffffffffffffffffffffffffffff167feae9cfbc77fdd40ca899f36b608256063b2bc9d8178b0220f7ad513e178d673082426040516110ef92919061175b565b60405180910390a26000600260006101000a81548160ff02191690831515021790555050565b600260009054906101000a900460ff1681565b60056020528060005260406000206000915090505481565b60008054906101000a900473ffffffffffffffffffffffffffffffffffffffff1673ffffffffffffffffffffffffffffffffffffffff163373ffffffffffffffffffffffffffffffffffffffff16146111ce576040517f08c379a00000000000000000000000000000000000000000000000000000000081526004016111c5906117d0565b60405180910390fd5b80600073ffffffffffffffffffffffffffffffffffffffff168173ffffffffffffffffffffffffffffffffffffffff160361123e576040517f08c379a00000000000000000000000000000000000000000000000000000000081526004016112359061183c565b60405180910390fd5b3073ffffffffffffffffffffffffffffffffffffffff168173ffffffffffffffffffffffffffffffffffffffff16036112ac576040517f08c379a00000000000000000000000000000000000000000000000000000000081526004016112a3906118a8565b60405180910390fd5b816000806101000a81548173ffffffffffffffffffffffffffffffffffffffff021916908373ffffffffffffffffffffffffffffffffffffffff1602179055505050565b60046020528060005260406000206000915054906101000a900460ff1681565b60008061131b611324565b90508091505090565b60007ff0c57e16840df040f15088dc2f81fe391c3923bec73e23a9662efc9c229c6a0060001b905090565b6000819050919050565b7f4e487b7100000000000000000000000000000000000000000000000000000000600052601160045260246000fd5b60006113938261134f565b915061139e8361134f565b92508282019050808211156113b6576113b5611359565b5b92915050565b6113c58161134f565b82525050565b60006020820190506113e060008301846113bc565b92915050565b60008115159050919050565b6113fb816113e6565b82525050565b600060208201905061141660008301846113f2565b92915050565b600080fd5b600073ffffffffffffffffffffffffffffffffffffffff82169050919050565b600061144c82611421565b9050919050565b61145c81611441565b811461146757600080fd5b50565b60008135905061147981611453565b92915050565b600060ff82169050919050565b6114958161147f565b81146114a057600080fd5b50565b6000813590506114b28161148c565b92915050565b600080604083850312156114cf576114ce61141c565b5b60006114dd8582860161146a565b92505060206114ee858286016114a3565b9150509250929050565b6115018161134f565b811461150c57600080fd5b50565b60008135905061151e816114f8565b92915050565b60006020828403121561153a5761153961141c565b5b60006115488482850161150f565b91505092915050565b61155a81611441565b82525050565b60006020820190506115756000830184611551565b92915050565b6000602082840312156115915761159061141c565b5b600061159f8482850161146a565b91505092915050565b6115b18161147f565b82525050565b60006020820190506115cc60008301846115a8565b92915050565b600082825260208201905092915050565b7f436f6e7472616374206973207061757365640000000000000000000000000000600082015250565b60006116196012836115d2565b9150611624826115e3565b602082019050919050565b600060208201905081810360008301526116488161160c565b9050919050565b7f4e6f206f75747374616e64696e67206465627400000000000000000000000000600082015250565b60006116856013836115d2565b91506116908261164f565b602082019050919050565b600060208201905081810360008301526116b481611678565b9050919050565b7f4d7573742073656e642045544820746f20726570617900000000000000000000600082015250565b60006116f16016836115d2565b91506116fc826116bb565b602082019050919050565b60006020820190508181036000830152611720816116e4565b9050919050565b60006117328261134f565b915061173d8361134f565b925082820390508181111561175557611754611359565b5b92915050565b600060408201905061177060008301856113bc565b61177d60208301846113bc565b9392505050565b7f4e6f74206f776e65720000000000000000000000000000000000000000000000600082015250565b60006117ba6009836115d2565b91506117c582611784565b602082019050919050565b600060208201905081810360008301526117e9816117ad565b9050919050565b7f496e76616c696420616464726573733a207a65726f2061646472657373000000600082015250565b6000611826601d836115d2565b9150611831826117f0565b602082019050919050565b6000602082019050818103600083015261185581611819565b9050919050565b7f496e76616c696420616464726573733a2073656c660000000000000000000000600082015250565b60006118926015836115d2565b915061189d8261185c565b602082019050919050565b600060208201905081810360008301526118c181611885565b9050919050565b7f496e76616c6964206372656469742073636f7265000000000000000000000000600082015250565b60006118fe6014836115d2565b9150611909826118c8565b602082019050919050565b6000602082019050818103600083015261192d816118f1565b9050919050565b7f4e6f207265656e7472616e637900000000000000000000000000000000000000600082015250565b600061196a600d836115d2565b915061197582611934565b602082019050919050565b600060208201905081810360008301526119998161195d565b9050919050565b7f496e73756666696369656e742062616c616e6365000000000000000000000000600082015250565b60006119d66014836115d2565b91506119e1826119a0565b602082019050919050565b60006020820190508181036000830152611a05816119c9565b9050919050565b6000819050919050565b600067ffffffffffffffff82169050919050565b6000819050919050565b6000611a4f611a4a611a4584611a0c565b611a2a565b611a16565b9050919050565b611a5f81611a34565b82525050565b6000602082019050611a7a6000830184611a56565b92915050565b7f416d6f756e74206d7573742062652067726561746572207468616e2030000000600082015250565b6000611ab6601d836115d2565b9150611ac182611a80565b602082019050919050565b60006020820190508181036000830152611ae581611aa9565b9050919050565b7f4372656469742073636f726520746f6f206c6f77000000000000000000000000600082015250565b6000611b226014836115d2565b9150611b2d82611aec565b602082019050919050565b60006020820190508181036000830152611b5181611b15565b9050919050565b7f4e487b7100000000000000000000000000000000000000000000000000000000600052601260045260246000fd5b6000611b928261134f565b9150611b9d8361134f565b925082611bad57611bac611b58565b5b828204905092915050565b7f496e73756666696369656e742066756e647320696e2074686520706f6f6c0000600082015250565b6000611bee601e836115d2565b9150611bf982611bb8565b602082019050919050565b60006020820190508181036000830152611c1d81611be1565b905091905056fea264697066735822122036d39a6347d624bae0cbe19e5828aee459a0eada5c2ecb5c2acbb504345c1d0f64736f6c634300081c0033",
  "linkReferences": {},
  "deployedLinkReferences": {}
}