{
  "_format": "hh-sol-artifact-1",
  "contractName": "StablecoinManager",
  "sourceName": "contracts/StablecoinManager.sol",
  "abi": [
    {
      "inputs": [
        {
          "internalType": "address",
          "name": "initialOwner",
          "type": "address"
        }
      ],
      "stateMutability": "nonpayable",
      "type": "constructor"
    },
    {
      "inputs": [
        {
          "internalType": "address",
          "name": "owner",
          "type": "address"
        }
      ],
      "name": "OwnableInvalidOwner",
      "type": "error"
    },
    {
      "inputs": [
        {
          "internalType": "address",
          "name": "account",
          "type": "address"
        }
      ],
      "name": "OwnableUnauthorizedAccount",
      "type": "error"
    },
    {
      "anonymous": false,
      "inputs": [
        {
          "indexed": true,
          "internalType": "address",
          "name": "previousOwner",
          "type": "address"
        },
        {
          "indexed": true,
          "internalType": "address",
          "name": "newOwner",
          "type": "address"
        }
      ],
      "name": "OwnershipTransferred",
      "type": "event"
    },
    {
      "anonymous": false,
      "inputs": [
        {
          "indexed": true,
          "internalType": "address",
          "name": "token",
          "type": "address"
        },
        {
          "indexed": false,
          "internalType": "bool",
          "name": "isStable",
          "type": "bool"
        },
        {
          "indexed": false,
          "internalType": "uint256",
          "name": "ltv",
          "type": "uint256"
        },
        {
          "indexed": false,
          "internalType": "uint256",
          "name": "liquidationThreshold",
          "type": "uint256"
        }
      ],
      "name": "StablecoinParamsSet",
      "type": "event"
    },
    {
      "inputs": [],
      "name": "DEFAULT_STABLECOIN_LIQUIDATION_THRESHOLD",
      "outputs": [
        {
          "internalType": "uint256",
          "name": "",
          "type": "uint256"
        }
      ],
      "stateMutability": "view",
      "type": "function"
    },
    {
      "inputs": [],
      "name": "DEFAULT_STABLECOIN_LTV",
      "outputs": [
        {
          "internalType": "uint256",
          "name": "",
          "type": "uint256"
        }
      ],
      "stateMutability": "view",
      "type": "function"
    },
    {
      "inputs": [],
      "name": "DEFAULT_VOLATILE_LTV",
      "outputs": [
        {
          "internalType": "uint256",
          "name": "",
          "type": "uint256"
        }
      ],
      "stateMutability": "view",
      "type": "function"
    },
    {
      "inputs": [],
      "name": "MAX_STABLECOIN_LTV",
      "outputs": [
        {
          "internalType": "uint256",
          "name": "",
          "type": "uint256"
        }
      ],
      "stateMutability": "view",
      "type": "function"
    },
    {
      "inputs": [],
      "name": "MAX_VOLATILE_LTV",
      "outputs": [
        {
          "internalType": "uint256",
          "name": "",
          "type": "uint256"
        }
      ],
      "stateMutability": "view",
      "type": "function"
    },
    {
      "inputs": [
        {
          "internalType": "address",
          "name": "token",
          "type": "address"
        }
      ],
      "name": "getLTV",
      "outputs": [
        {
          "internalType": "uint256",
          "name": "",
          "type": "uint256"
        }
      ],
      "stateMutability": "view",
      "type": "function"
    },
    {
      "inputs": [
        {
          "internalType": "address",
          "name": "token",
          "type": "address"
        }
      ],
      "name": "getLiquidationThreshold",
      "outputs": [
        {
          "internalType": "uint256",
          "name": "",
          "type": "uint256"
        }
      ],
      "stateMutability": "view",
      "type": "function"
    },
    {
      "inputs": [
        {
          "internalType": "address",
          "name": "token",
          "type": "address"
        }
      ],
      "name": "getParams",
      "outputs": [
        {
          "internalType": "bool",
          "name": "",
          "type": "bool"
        },
        {
          "internalType": "uint256",
          "name": "",
          "type": "uint256"
        },
        {
          "internalType": "uint256",
          "name": "",
          "type": "uint256"
        }
      ],
      "stateMutability": "view",
      "type": "function"
    },
    {
      "inputs": [
        {
          "internalType": "address",
          "name": "token",
          "type": "address"
        }
      ],
      "name": "getStablecoinParams",
      "outputs": [
        {
          "internalType": "bool",
          "name": "",
          "type": "bool"
        },
        {
          "internalType": "uint256",
          "name": "",
          "type": "uint256"
        },
        {
          "internalType": "uint256",
          "name": "",
          "type": "uint256"
        }
      ],
      "stateMutability": "view",
      "type": "function"
    },
    {
      "inputs": [
        {
          "internalType": "address",
          "name": "",
          "type": "address"
        }
      ],
      "name": "isStablecoin",
      "outputs": [
        {
          "internalType": "bool",
          "name": "",
          "type": "bool"
        }
      ],
      "stateMutability": "view",
      "type": "function"
    },
    {
      "inputs": [
        {
          "internalType": "address",
          "name": "token",
          "type": "address"
        }
      ],
      "name": "isTokenStablecoin",
      "outputs": [
        {
          "internalType": "bool",
          "name": "",
          "type": "bool"
        }
      ],
      "stateMutability": "view",
      "type": "function"
    },
    {
      "inputs": [],
      "name": "owner",
      "outputs": [
        {
          "internalType": "address",
          "name": "",
          "type": "address"
        }
      ],
      "stateMutability": "view",
      "type": "function"
    },
    {
      "inputs": [],
      "name": "renounceOwnership",
      "outputs": [],
      "stateMutability": "nonpayable",
      "type": "function"
    },
    {
      "inputs": [
        {
          "internalType": "address",
          "name": "token",
          "type": "address"
        },
        {
          "internalType": "bool",
          "name": "allowed",
          "type": "bool"
        },
        {
          "internalType": "uint256",
          "name": "ltv",
          "type": "uint256"
        },
        {
          "internalType": "uint256",
          "name": "requiredRatio",
          "type": "uint256"
        }
      ],
      "name": "setParams",
      "outputs": [],
      "stateMutability": "nonpayable",
      "type": "function"
    },
    {
      "inputs": [
        {
          "internalType": "address",
          "name": "token",
          "type": "address"
        },
        {
          "internalType": "bool",
          "name": "isStable",
          "type": "bool"
        },
        {
          "internalType": "uint256",
          "name": "ltv",
          "type": "uint256"
        },
        {
          "internalType": "uint256",
          "name": "newThreshold",
          "type": "uint256"
        }
      ],
      "name": "setStablecoinParams",
      "outputs": [],
      "stateMutability": "nonpayable",
      "type": "function"
    },
    {
      "inputs": [
        {
          "internalType": "address",
          "name": "",
          "type": "address"
        }
      ],
      "name": "stablecoinLTV",
      "outputs": [
        {
          "internalType": "uint256",
          "name": "",
          "type": "uint256"
        }
      ],
      "stateMutability": "view",
      "type": "function"
    },
    {
      "inputs": [
        {
          "internalType": "address",
          "name": "",
          "type": "address"
        }
      ],
      "name": "stablecoinLiquidationThreshold",
      "outputs": [
        {
          "internalType": "uint256",
          "name": "",
          "type": "uint256"
        }
      ],
      "stateMutability": "view",
      "type": "function"
    },
    {
      "inputs": [
        {
          "internalType": "address",
          "name": "newOwner",
          "type": "address"
        }
      ],
      "name": "transferOwnership",
      "outputs": [],
      "stateMutability": "nonpayable",
      "type": "function"
    }
  ],
  "bytecode": "0x608060405234801561001057600080fd5b5060405161081b38038061081b83398101604081905261002f916100be565b806001600160a01b03811661005e57604051631e4fbdf760e01b81526000600482015260240160405180910390fd5b6100678161006e565b50506100ee565b600080546001600160a01b038381166001600160a01b0319831681178455604051919092169283917f8be0079c531659141344cd1fd0a4f28419497f9722a3daafe3b4186f6b6457e09190a35050565b6000602082840312156100d057600080fd5b81516001600160a01b03811681146100e757600080fd5b9392505050565b61071e806100fd6000396000f3fe608060405234801561001057600080fd5b50600436106101165760003560e01c806395bbd494116100a2578063be43138011610071578063be4313801461023c578063c80a782114610268578063d25308f714610268578063f2fde38b1461027b578063fc0d21c31461028e57600080fd5b806395bbd494146101f9578063964d938214610201578063aca25f9a14610209578063b41b93331461021c57600080fd5b8063715018a6116100e9578063715018a6146101b15780637b86e42c146101bb5780637f20ca9f146101ce578063804aacd4146101d65780638da5cb5b146101de57600080fd5b806316498e0c1461011b5780631a650cc71461014e5780633cf8da831461018157806348b4313b14610181575b600080fd5b61013b61012936600461067d565b60036020526000908152604090205481565b6040519081526020015b60405180910390f35b61017161015c36600461067d565b60016020526000908152604090205460ff1681565b6040519015158152602001610145565b61019461018f36600461067d565b610296565b604080519315158452602084019290925290820152606001610145565b6101b9610334565b005b61013b6101c936600461067d565b610348565b61013b605581565b61013b604d81565b6000546040516001600160a01b039091168152602001610145565b61013b605a81565b61013b606e81565b61013b61021736600461067d565b6103ef565b61013b61022a36600461067d565b60026020526000908152604090205481565b61017161024a36600461067d565b6001600160a01b031660009081526001602052604090205460ff1690565b6101b961027636600461069f565b610492565b6101b961028936600461067d565b6105a6565b61013b604b81565b6001600160a01b03811660009081526001602090815260408083205460029092528220548291829160ff909116906102cf5760556102e9565b6001600160a01b0385166000908152600260205260409020545b6001600160a01b03861660009081526003602052604090205461030d57606e610327565b6001600160a01b0386166000908152600360205260409020545b9250925092509193909250565b61033c6105e4565b6103466000610611565b565b6001600160a01b03811660009081526001602052604081205460ff16156103ad576001600160a01b03821660009081526003602052604090205461038d57606e6103a7565b6001600160a01b0382166000908152600360205260409020545b92915050565b6001600160a01b038216600090815260036020526040902054156103e757506001600160a01b031660009081526003602052604090205490565b506000919050565b6001600160a01b03811660009081526001602052604081205460ff1615610450576001600160a01b0382166000908152600260205260409020546104345760556103a7565b506001600160a01b031660009081526002602052604090205490565b6001600160a01b0382166000908152600260205260409020541561048a57506001600160a01b031660009081526002602052604090205490565b50604b919050565b61049a6105e4565b605a8211156104df5760405162461bcd60e51b815260206004820152600c60248201526b098a8ac40e8dede40d0d2ced60a31b60448201526064015b60405180910390fd5b606e8110156105245760405162461bcd60e51b81526020600482015260116024820152705468726573686f6c6420746f6f206c6f7760781b60448201526064016104d6565b6001600160a01b0384166000818152600160209081526040808320805460ff1916881515908117909155600283528184208790556003835292819020859055805192835290820185905281018390527f4c72d6ac36d59875706a9fa173ac571a5ed7ee21d90777c9e9b8c7f426a7ef639060600160405180910390a250505050565b6105ae6105e4565b6001600160a01b0381166105d857604051631e4fbdf760e01b8152600060048201526024016104d6565b6105e181610611565b50565b6000546001600160a01b031633146103465760405163118cdaa760e01b81523360048201526024016104d6565b600080546001600160a01b038381166001600160a01b0319831681178455604051919092169283917f8be0079c531659141344cd1fd0a4f28419497f9722a3daafe3b4186f6b6457e09190a35050565b80356001600160a01b038116811461067857600080fd5b919050565b60006020828403121561068f57600080fd5b61069882610661565b9392505050565b600080600080608085870312156106b557600080fd5b6106be85610661565b9350602085013580151581146106d357600080fd5b9396939550505050604082013591606001359056fea2646970667358221220a4583ebc78e5fe6fa7c5ac7927e40575e2154089877a7f6ba1b1fea2f80b22e064736f6c634300081c0033",
  "linkReferences": {},
  "deployedLinkReferences": {}
}