{
  "_format": "hh-sol-artifact-1",
  "contractName": "StablecoinManager",
  "sourceName": "contracts/StablecoinManager.sol",
  "abi": [
    {
      "inputs": [
        {
          "internalType": "address",
          "name": "initialOwner",
          "type": "address"
        }
      ],
      "stateMutability": "nonpayable",
      "type": "constructor"
    },
    {
      "inputs": [
        {
          "internalType": "address",
          "name": "owner",
          "type": "address"
        }
      ],
      "name": "OwnableInvalidOwner",
      "type": "error"
    },
    {
      "inputs": [
        {
          "internalType": "address",
          "name": "account",
          "type": "address"
        }
      ],
      "name": "OwnableUnauthorizedAccount",
      "type": "error"
    },
    {
      "anonymous": false,
      "inputs": [
        {
          "indexed": true,
          "internalType": "address",
          "name": "previousOwner",
          "type": "address"
        },
        {
          "indexed": true,
          "internalType": "address",
          "name": "newOwner",
          "type": "address"
        }
      ],
      "name": "OwnershipTransferred",
      "type": "event"
    },
    {
      "anonymous": false,
      "inputs": [
        {
          "indexed": true,
          "internalType": "address",
          "name": "token",
          "type": "address"
        },
        {
          "indexed": false,
          "internalType": "bool",
          "name": "isStable",
          "type": "bool"
        },
        {
          "indexed": false,
          "internalType": "uint256",
          "name": "ltv",
          "type": "uint256"
        },
        {
          "indexed": false,
          "internalType": "uint256",
          "name": "liquidationThreshold",
          "type": "uint256"
        }
      ],
      "name": "StablecoinParamsSet",
      "type": "event"
    },
    {
      "inputs": [],
      "name": "DEFAULT_STABLECOIN_LIQUIDATION_THRESHOLD",
      "outputs": [
        {
          "internalType": "uint256",
          "name": "",
          "type": "uint256"
        }
      ],
      "stateMutability": "view",
      "type": "function"
    },
    {
      "inputs": [],
      "name": "DEFAULT_STABLECOIN_LTV",
      "outputs": [
        {
          "internalType": "uint256",
          "name": "",
          "type": "uint256"
        }
      ],
      "stateMutability": "view",
      "type": "function"
    },
    {
      "inputs": [],
      "name": "DEFAULT_VOLATILE_LTV",
      "outputs": [
        {
          "internalType": "uint256",
          "name": "",
          "type": "uint256"
        }
      ],
      "stateMutability": "view",
      "type": "function"
    },
    {
      "inputs": [],
      "name": "MAX_STABLECOIN_LTV",
      "outputs": [
        {
          "internalType": "uint256",
          "name": "",
          "type": "uint256"
        }
      ],
      "stateMutability": "view",
      "type": "function"
    },
    {
      "inputs": [],
      "name": "MAX_VOLATILE_LTV",
      "outputs": [
        {
          "internalType": "uint256",
          "name": "",
          "type": "uint256"
        }
      ],
      "stateMutability": "view",
      "type": "function"
    },
    {
      "inputs": [
        {
          "internalType": "address",
          "name": "token",
          "type": "address"
        }
      ],
      "name": "getLTV",
      "outputs": [
        {
          "internalType": "uint256",
          "name": "",
          "type": "uint256"
        }
      ],
      "stateMutability": "view",
      "type": "function"
    },
    {
      "inputs": [
        {
          "internalType": "address",
          "name": "token",
          "type": "address"
        }
      ],
      "name": "getLiquidationThreshold",
      "outputs": [
        {
          "internalType": "uint256",
          "name": "",
          "type": "uint256"
        }
      ],
      "stateMutability": "view",
      "type": "function"
    },
    {
      "inputs": [
        {
          "internalType": "address",
          "name": "",
          "type": "address"
        }
      ],
      "name": "isStablecoin",
      "outputs": [
        {
          "internalType": "bool",
          "name": "",
          "type": "bool"
        }
      ],
      "stateMutability": "view",
      "type": "function"
    },
    {
      "inputs": [
        {
          "internalType": "address",
          "name": "token",
          "type": "address"
        }
      ],
      "name": "isTokenStablecoin",
      "outputs": [
        {
          "internalType": "bool",
          "name": "",
          "type": "bool"
        }
      ],
      "stateMutability": "view",
      "type": "function"
    },
    {
      "inputs": [],
      "name": "owner",
      "outputs": [
        {
          "internalType": "address",
          "name": "",
          "type": "address"
        }
      ],
      "stateMutability": "view",
      "type": "function"
    },
    {
      "inputs": [],
      "name": "renounceOwnership",
      "outputs": [],
      "stateMutability": "nonpayable",
      "type": "function"
    },
    {
      "inputs": [
        {
          "internalType": "address",
          "name": "token",
          "type": "address"
        },
        {
          "internalType": "bool",
          "name": "isStable",
          "type": "bool"
        },
        {
          "internalType": "uint256",
          "name": "ltv",
          "type": "uint256"
        },
        {
          "internalType": "uint256",
          "name": "newThreshold",
          "type": "uint256"
        }
      ],
      "name": "setStablecoinParams",
      "outputs": [],
      "stateMutability": "nonpayable",
      "type": "function"
    },
    {
      "inputs": [
        {
          "internalType": "address",
          "name": "",
          "type": "address"
        }
      ],
      "name": "stablecoinLTV",
      "outputs": [
        {
          "internalType": "uint256",
          "name": "",
          "type": "uint256"
        }
      ],
      "stateMutability": "view",
      "type": "function"
    },
    {
      "inputs": [
        {
          "internalType": "address",
          "name": "",
          "type": "address"
        }
      ],
      "name": "stablecoinLiquidationThreshold",
      "outputs": [
        {
          "internalType": "uint256",
          "name": "",
          "type": "uint256"
        }
      ],
      "stateMutability": "view",
      "type": "function"
    },
    {
      "inputs": [
        {
          "internalType": "address",
          "name": "newOwner",
          "type": "address"
        }
      ],
      "name": "transferOwnership",
      "outputs": [],
      "stateMutability": "nonpayable",
      "type": "function"
    }
  ],
  "bytecode": "0x608060405234801561001057600080fd5b506040516106b83803806106b883398101604081905261002f916100be565b806001600160a01b03811661005e57604051631e4fbdf760e01b81526000600482015260240160405180910390fd5b6100678161006e565b50506100ee565b600080546001600160a01b038381166001600160a01b0319831681178455604051919092169283917f8be0079c531659141344cd1fd0a4f28419497f9722a3daafe3b4186f6b6457e09190a35050565b6000602082840312156100d057600080fd5b81516001600160a01b03811681146100e757600080fd5b9392505050565b6105bb806100fd6000396000f3fe608060405234801561001057600080fd5b50600436106100f55760003560e01c806395bbd49411610097578063be43138011610066578063be431380146101eb578063c80a782114610217578063f2fde38b1461022a578063fc0d21c31461023d57600080fd5b806395bbd494146101a8578063964d9382146101b0578063aca25f9a146101b8578063b41b9333146101cb57600080fd5b80637b86e42c116100d35780637b86e42c1461016a5780637f20ca9f1461017d578063804aacd4146101855780638da5cb5b1461018d57600080fd5b806316498e0c146100fa5780631a650cc71461012d578063715018a614610160575b600080fd5b61011a61010836600461051a565b60036020526000908152604090205481565b6040519081526020015b60405180910390f35b61015061013b36600461051a565b60016020526000908152604090205460ff1681565b6040519015158152602001610124565b610168610245565b005b61011a61017836600461051a565b610259565b61011a605581565b61011a604d81565b6000546040516001600160a01b039091168152602001610124565b61011a605a81565b61011a606e81565b61011a6101c636600461051a565b6102c6565b61011a6101d936600461051a565b60026020526000908152604090205481565b6101506101f936600461051a565b6001600160a01b031660009081526001602052604090205460ff1690565b61016861022536600461053c565b61032f565b61016861023836600461051a565b610443565b61011a604b81565b61024d610481565b61025760006104ae565b565b6001600160a01b03811660009081526001602052604081205460ff16156102be576001600160a01b03821660009081526003602052604090205461029e57606e6102b8565b6001600160a01b0382166000908152600360205260409020545b92915050565b506000919050565b6001600160a01b03811660009081526001602052604081205460ff1615610327576001600160a01b03821660009081526002602052604090205461030b5760556102b8565b506001600160a01b031660009081526002602052604090205490565b50604b919050565b610337610481565b605a82111561037c5760405162461bcd60e51b815260206004820152600c60248201526b098a8ac40e8dede40d0d2ced60a31b60448201526064015b60405180910390fd5b606e8110156103c15760405162461bcd60e51b81526020600482015260116024820152705468726573686f6c6420746f6f206c6f7760781b6044820152606401610373565b6001600160a01b0384166000818152600160209081526040808320805460ff1916881515908117909155600283528184208790556003835292819020859055805192835290820185905281018390527f4c72d6ac36d59875706a9fa173ac571a5ed7ee21d90777c9e9b8c7f426a7ef639060600160405180910390a250505050565b61044b610481565b6001600160a01b03811661047557604051631e4fbdf760e01b815260006004820152602401610373565b61047e816104ae565b50565b6000546001600160a01b031633146102575760405163118cdaa760e01b8152336004820152602401610373565b600080546001600160a01b038381166001600160a01b0319831681178455604051919092169283917f8be0079c531659141344cd1fd0a4f28419497f9722a3daafe3b4186f6b6457e09190a35050565b80356001600160a01b038116811461051557600080fd5b919050565b60006020828403121561052c57600080fd5b610535826104fe565b9392505050565b6000806000806080858703121561055257600080fd5b61055b856104fe565b93506020850135801515811461057057600080fd5b9396939550505050604082013591606001359056fea2646970667358221220c6ab1e60b1be7bd743c6e55475f3202e481731f8ed332a1a9c8c22bb99b12f7f64736f6c634300081c0033",
  "linkReferences": {},
  "deployedLinkReferences": {}
}