{
  "_format": "hh-sol-artifact-1",
  "contractName": "MockPriceFeed",
  "sourceName": "contracts/MockPriceFeed.sol",
  "abi": [
    {
      "inputs": [
        {
          "internalType": "int256",
          "name": "initialPrice",
          "type": "int256"
        },
        {
          "internalType": "uint8",
          "name": "decimals_",
          "type": "uint8"
        }
      ],
      "stateMutability": "nonpayable",
      "type": "constructor"
    },
    {
      "inputs": [],
      "name": "decimals",
      "outputs": [
        {
          "internalType": "uint8",
          "name": "",
          "type": "uint8"
        }
      ],
      "stateMutability": "view",
      "type": "function"
    },
    {
      "inputs": [],
      "name": "description",
      "outputs": [
        {
          "internalType": "string",
          "name": "",
          "type": "string"
        }
      ],
      "stateMutability": "pure",
      "type": "function"
    },
    {
      "inputs": [
        {
          "internalType": "uint80",
          "name": "",
          "type": "uint80"
        }
      ],
      "name": "getRoundData",
      "outputs": [
        {
          "internalType": "uint80",
          "name": "roundId",
          "type": "uint80"
        },
        {
          "internalType": "int256",
          "name": "answer",
          "type": "int256"
        },
        {
          "internalType": "uint256",
          "name": "startedAt",
          "type": "uint256"
        },
        {
          "internalType": "uint256",
          "name": "updatedAt",
          "type": "uint256"
        },
        {
          "internalType": "uint80",
          "name": "answeredInRound",
          "type": "uint80"
        }
      ],
      "stateMutability": "view",
      "type": "function"
    },
    {
      "inputs": [],
      "name": "latestRoundData",
      "outputs": [
        {
          "internalType": "uint80",
          "name": "roundId",
          "type": "uint80"
        },
        {
          "internalType": "int256",
          "name": "answer",
          "type": "int256"
        },
        {
          "internalType": "uint256",
          "name": "startedAt",
          "type": "uint256"
        },
        {
          "internalType": "uint256",
          "name": "updatedAt",
          "type": "uint256"
        },
        {
          "internalType": "uint80",
          "name": "answeredInRound",
          "type": "uint80"
        }
      ],
      "stateMutability": "view",
      "type": "function"
    },
    {
      "inputs": [
        {
          "internalType": "int256",
          "name": "newPrice",
          "type": "int256"
        }
      ],
      "name": "setPrice",
      "outputs": [],
      "stateMutability": "nonpayable",
      "type": "function"
    },
    {
      "inputs": [],
      "name": "version",
      "outputs": [
        {
          "internalType": "uint256",
          "name": "",
          "type": "uint256"
        }
      ],
      "stateMutability": "pure",
      "type": "function"
    }
  ],
  "bytecode": "0x6080604052348015600f57600080fd5b50604051610290380380610290833981016040819052602c916049565b6000919091556001805460ff191660ff909216919091179055607d565b60008060408385031215605b57600080fd5b82519150602083015160ff81168114607257600080fd5b809150509250929050565b6102048061008c6000396000f3fe608060405234801561001057600080fd5b50600436106100625760003560e01c8063313ce5671461006757806354fd4d50146100815780637284e416146100905780639a6fc8f5146100bf578063f7a3080614610113578063feaf968c14610128575b600080fd5b60015460405160ff90911681526020015b60405180910390f35b60405160018152602001610078565b604080518082018252600d81526c135bd8dad41c9a58d951995959609a1b602082015290516100789190610134565b6100dc6100cd366004610182565b50600080549091429081908490565b6040805169ffffffffffffffffffff968716815260208101959095528401929092526060830152909116608082015260a001610078565b6101266101213660046101b5565b600055565b005b600080544280836100dc565b602081526000825180602084015260005b818110156101625760208186018101516040868401015201610145565b506000604082850101526040601f19601f83011684010191505092915050565b60006020828403121561019457600080fd5b813569ffffffffffffffffffff811681146101ae57600080fd5b9392505050565b6000602082840312156101c757600080fd5b503591905056fea264697066735822122026afece7466d04fdfdedc4c6627be091d8c330a6661891dc7cbfde5a8052863664736f6c634300081c0033",
  "linkReferences": {},
  "deployedLinkReferences": {}
}