{
  "_format": "hh-sol-artifact-1",
  "contractName": "LiquidityPoolV1",
  "sourceName": "contracts/LiquidityPoolV1.sol",
  "abi": [
    {
      "inputs": [],
      "name": "InvalidInitialization",
      "type": "error"
    },
    {
      "inputs": [],
      "name": "NotInitializing",
      "type": "error"
    },
    {
      "anonymous": false,
      "inputs": [
        {
          "indexed": true,
          "internalType": "address",
          "name": "borrower",
          "type": "address"
        },
        {
          "indexed": false,
          "internalType": "uint256",
          "name": "amount",
          "type": "uint256"
        },
        {
          "indexed": false,
          "internalType": "uint256",
          "name": "timestamp",
          "type": "uint256"
        }
      ],
      "name": "Borrowed",
      "type": "event"
    },
    {
      "anonymous": false,
      "inputs": [
        {
          "indexed": false,
          "internalType": "bool",
          "name": "isPaused",
          "type": "bool"
        }
      ],
      "name": "EmergencyPaused",
      "type": "event"
    },
    {
      "anonymous": false,
      "inputs": [
        {
          "indexed": false,
          "internalType": "uint64",
          "name": "version",
          "type": "uint64"
        }
      ],
      "name": "Initialized",
      "type": "event"
    },
    {
      "anonymous": false,
      "inputs": [
        {
          "indexed": true,
          "internalType": "address",
          "name": "payer",
          "type": "address"
        },
        {
          "indexed": false,
          "internalType": "uint256",
          "name": "amount",
          "type": "uint256"
        },
        {
          "indexed": false,
          "internalType": "uint256",
          "name": "timestamp",
          "type": "uint256"
        }
      ],
      "name": "Repaid",
      "type": "event"
    },
    {
      "inputs": [
        {
          "internalType": "uint256",
          "name": "amount",
          "type": "uint256"
        }
      ],
      "name": "borrow",
      "outputs": [],
      "stateMutability": "nonpayable",
      "type": "function"
    },
    {
      "inputs": [
        {
          "internalType": "address",
          "name": "",
          "type": "address"
        }
      ],
      "name": "borrowTimestamp",
      "outputs": [
        {
          "internalType": "uint256",
          "name": "",
          "type": "uint256"
        }
      ],
      "stateMutability": "view",
      "type": "function"
    },
    {
      "inputs": [
        {
          "internalType": "address",
          "name": "",
          "type": "address"
        }
      ],
      "name": "creditScore",
      "outputs": [
        {
          "internalType": "uint8",
          "name": "",
          "type": "uint8"
        }
      ],
      "stateMutability": "view",
      "type": "function"
    },
    {
      "inputs": [
        {
          "internalType": "uint256",
          "name": "amount",
          "type": "uint256"
        }
      ],
      "name": "extract",
      "outputs": [],
      "stateMutability": "nonpayable",
      "type": "function"
    },
    {
      "inputs": [],
      "name": "getBalance",
      "outputs": [
        {
          "internalType": "uint256",
          "name": "",
          "type": "uint256"
        }
      ],
      "stateMutability": "view",
      "type": "function"
    },
    {
      "inputs": [],
      "name": "getMyDebt",
      "outputs": [
        {
          "internalType": "uint256",
          "name": "",
          "type": "uint256"
        }
      ],
      "stateMutability": "view",
      "type": "function"
    },
    {
      "inputs": [
        {
          "internalType": "address",
          "name": "_owner",
          "type": "address"
        }
      ],
      "name": "initialize",
      "outputs": [],
      "stateMutability": "nonpayable",
      "type": "function"
    },
    {
      "inputs": [],
      "name": "isPaused",
      "outputs": [
        {
          "internalType": "bool",
          "name": "",
          "type": "bool"
        }
      ],
      "stateMutability": "view",
      "type": "function"
    },
    {
      "inputs": [],
      "name": "locked",
      "outputs": [
        {
          "internalType": "bool",
          "name": "",
          "type": "bool"
        }
      ],
      "stateMutability": "view",
      "type": "function"
    },
    {
      "inputs": [],
      "name": "owner",
      "outputs": [
        {
          "internalType": "address",
          "name": "",
          "type": "address"
        }
      ],
      "stateMutability": "view",
      "type": "function"
    },
    {
      "inputs": [],
      "name": "paused",
      "outputs": [
        {
          "internalType": "bool",
          "name": "",
          "type": "bool"
        }
      ],
      "stateMutability": "view",
      "type": "function"
    },
    {
      "inputs": [],
      "name": "repay",
      "outputs": [],
      "stateMutability": "payable",
      "type": "function"
    },
    {
      "inputs": [
        {
          "internalType": "address",
          "name": "user",
          "type": "address"
        },
        {
          "internalType": "uint8",
          "name": "score",
          "type": "uint8"
        }
      ],
      "name": "setCreditScore",
      "outputs": [],
      "stateMutability": "nonpayable",
      "type": "function"
    },
    {
      "inputs": [],
      "name": "togglePause",
      "outputs": [],
      "stateMutability": "nonpayable",
      "type": "function"
    },
    {
      "inputs": [],
      "name": "totalFunds",
      "outputs": [
        {
          "internalType": "uint256",
          "name": "",
          "type": "uint256"
        }
      ],
      "stateMutability": "view",
      "type": "function"
    },
    {
      "inputs": [
        {
          "internalType": "address",
          "name": "newOwner",
          "type": "address"
        }
      ],
      "name": "transferOwnership",
      "outputs": [],
      "stateMutability": "nonpayable",
      "type": "function"
    },
    {
      "inputs": [
        {
          "internalType": "address",
          "name": "",
          "type": "address"
        }
      ],
      "name": "userDebt",
      "outputs": [
        {
          "internalType": "uint256",
          "name": "",
          "type": "uint256"
        }
      ],
      "stateMutability": "view",
      "type": "function"
    },
    {
      "stateMutability": "payable",
      "type": "receive"
    }
  ],
  "bytecode": "0x6080604052348015600f57600080fd5b50610de38061001f6000396000f3fe6080604052600436106101025760003560e01c8063b187bd2611610095578063c5ebeaec11610064578063c5ebeaec146102b0578063cf309012146102d0578063d29255f9146102ea578063f2fde38b14610317578063f7e590ee1461033757600080fd5b8063b187bd2614610231578063b69e5c771461024e578063c4ae31681461027b578063c4d66de81461029057600080fd5b80635ca63fb1116100d15780635ca63fb1146101a357806385b39782146101c35780638da5cb5b146101e3578063968ed6001461021b57600080fd5b806312065fe014610126578063402d888314610148578063450a375a146101525780635c975abb1461017457600080fd5b366101215734600160008282546101199190610cae565b925050819055005b600080fd5b34801561013257600080fd5b50475b6040519081526020015b60405180910390f35b610150610379565b005b34801561015e57600080fd5b5033600090815260036020526040902054610135565b34801561018057600080fd5b5060025461019390610100900460ff1681565b604051901515815260200161013f565b3480156101af57600080fd5b506101506101be366004610cdd565b610512565b3480156101cf57600080fd5b506101506101de366004610d1a565b61065c565b3480156101ef57600080fd5b50600054610203906001600160a01b031681565b6040516001600160a01b03909116815260200161013f565b34801561022757600080fd5b5061013560015481565b34801561023d57600080fd5b50600254610100900460ff16610193565b34801561025a57600080fd5b50610135610269366004610d33565b60036020526000908152604090205481565b34801561028757600080fd5b5061015061077b565b34801561029c57600080fd5b506101506102ab366004610d33565b610807565b3480156102bc57600080fd5b506101506102cb366004610d1a565b610915565b3480156102dc57600080fd5b506002546101939060ff1681565b3480156102f657600080fd5b50610135610305366004610d33565b60056020526000908152604090205481565b34801561032357600080fd5b50610150610332366004610d33565b610b79565b34801561034357600080fd5b50610367610352366004610d33565b60046020526000908152604090205460ff1681565b60405160ff909116815260200161013f565b600254610100900460ff16156103cb5760405162461bcd60e51b815260206004820152601260248201527110dbdb9d1c9858dd081a5cc81c185d5cd95960721b60448201526064015b60405180910390fd5b3360009081526003602052604090205461041d5760405162461bcd60e51b8152602060048201526013602482015272139bc81bdd5d1cdd185b991a5b99c81919589d606a1b60448201526064016103c2565b600034116104665760405162461bcd60e51b81526020600482015260166024820152754d7573742073656e642045544820746f20726570617960501b60448201526064016103c2565b3360009081526003602052604081205434116104825734610493565b336000908152600360205260409020545b336000908152600360205260408120805492935083929091906104b7908490610d55565b9250508190555080600160008282546104d09190610cae565b90915550506040805182815242602082015233917f1b8cd61ed43bec7c6bdad3a18ffee613f99c853d16c50678d248d879e1b43438910160405180910390a250565b6000546001600160a01b0316331461053c5760405162461bcd60e51b81526004016103c290610d68565b816001600160a01b0381166105935760405162461bcd60e51b815260206004820152601d60248201527f496e76616c696420616464726573733a207a65726f206164647265737300000060448201526064016103c2565b306001600160a01b038216036105e35760405162461bcd60e51b815260206004820152601560248201527424b73b30b634b21030b2323932b9b99d1039b2b63360591b60448201526064016103c2565b60648260ff16111561062e5760405162461bcd60e51b8152602060048201526014602482015273496e76616c6964206372656469742073636f726560601b60448201526064016103c2565b506001600160a01b03919091166000908152600460205260409020805460ff191660ff909216919091179055565b6000546001600160a01b031633146106865760405162461bcd60e51b81526004016103c290610d68565b60025460ff16156106c95760405162461bcd60e51b815260206004820152600d60248201526c4e6f207265656e7472616e637960981b60448201526064016103c2565b6002805460ff191660011790554781111561071d5760405162461bcd60e51b8152602060048201526014602482015273496e73756666696369656e742062616c616e636560601b60448201526064016103c2565b806001600082825461072f9190610d55565b9091555050600080546040516001600160a01b039091169183156108fc02918491818181858888f1935050505015801561076d573d6000803e3d6000fd5b50506002805460ff19169055565b6000546001600160a01b031633146107a55760405162461bcd60e51b81526004016103c290610d68565b6002805460ff610100808304821615810261ff001990931692909217928390556040517f228f455d7bc3d0b24a3a08d7847f391c3e78fc8aeb83acf226b7a96ee162b8ac936107fd9390049091161515815260200190565b60405180910390a1565b6000610811610c6d565b805490915060ff600160401b820416159067ffffffffffffffff166000811580156108395750825b905060008267ffffffffffffffff1660011480156108565750303b155b905081158015610864575080155b156108825760405163f92ee8a960e01b815260040160405180910390fd5b845467ffffffffffffffff1916600117855583156108ac57845460ff60401b1916600160401b1785555b600080546001600160a01b0319166001600160a01b038816179055831561090d57845460ff60401b19168555604051600181527fc7f505b2f371ae2175ee4913f4499e1f2633a7b5936321eed1cdaeb6115181d29060200160405180910390a15b505050505050565b600254610100900460ff16156109625760405162461bcd60e51b815260206004820152601260248201527110dbdb9d1c9858dd081a5cc81c185d5cd95960721b60448201526064016103c2565b60025460ff16156109a55760405162461bcd60e51b815260206004820152600d60248201526c4e6f207265656e7472616e637960981b60448201526064016103c2565b6002805460ff19166001179055806109ff5760405162461bcd60e51b815260206004820152601d60248201527f416d6f756e74206d7573742062652067726561746572207468616e203000000060448201526064016103c2565b33600090815260046020526040902054603c60ff9091161015610a5b5760405162461bcd60e51b81526020600482015260146024820152734372656469742073636f726520746f6f206c6f7760601b60448201526064016103c2565b6002600154610a6a9190610d8b565b811115610ab95760405162461bcd60e51b815260206004820152601e60248201527f496e73756666696369656e742066756e647320696e2074686520706f6f6c000060448201526064016103c2565b3360009081526003602052604081208054839290610ad8908490610cae565b925050819055508060016000828254610af19190610d55565b9091555050336000818152600560205260408082204290555183156108fc0291849190818181858888f19350505050158015610b31573d6000803e3d6000fd5b506040805182815242602082015233917feae9cfbc77fdd40ca899f36b608256063b2bc9d8178b0220f7ad513e178d6730910160405180910390a2506002805460ff19169055565b6000546001600160a01b03163314610ba35760405162461bcd60e51b81526004016103c290610d68565b806001600160a01b038116610bfa5760405162461bcd60e51b815260206004820152601d60248201527f496e76616c696420616464726573733a207a65726f206164647265737300000060448201526064016103c2565b306001600160a01b03821603610c4a5760405162461bcd60e51b815260206004820152601560248201527424b73b30b634b21030b2323932b9b99d1039b2b63360591b60448201526064016103c2565b50600080546001600160a01b0319166001600160a01b0392909216919091179055565b6000807ff0c57e16840df040f15088dc2f81fe391c3923bec73e23a9662efc9c229c6a005b92915050565b634e487b7160e01b600052601160045260246000fd5b80820180821115610c9257610c92610c98565b80356001600160a01b0381168114610cd857600080fd5b919050565b60008060408385031215610cf057600080fd5b610cf983610cc1565b9150602083013560ff81168114610d0f57600080fd5b809150509250929050565b600060208284031215610d2c57600080fd5b5035919050565b600060208284031215610d4557600080fd5b610d4e82610cc1565b9392505050565b81810381811115610c9257610c92610c98565b6020808252600990820152682737ba1037bbb732b960b91b604082015260600190565b600082610da857634e487b7160e01b600052601260045260246000fd5b50049056fea2646970667358221220d30573364996230265cadaf0eb5ad7499cfca792db7fe4a0645b7a9b7f2fda9364736f6c634300081c0033",
  "linkReferences": {},
  "deployedLinkReferences": {}
}