{
  "abi": [
    {
      "type": "constructor",
      "inputs": [
        {
          "name": "_verifier",
          "type": "address",
          "internalType": "contract IRiscZeroVerifier"
        }
      ],
      "stateMutability": "nonpayable"
    },
    {
      "type": "function",
      "name": "SCORE_EXPIRY_PERIOD",
      "inputs": [],
      "outputs": [
        {
          "name": "",
          "type": "uint256",
          "internalType": "uint256"
        }
      ],
      "stateMutability": "view"
    },
    {
      "type": "function",
      "name": "authorizeServer",
      "inputs": [
        {
          "name": "serverName",
          "type": "string",
          "internalType": "string"
        },
        {
          "name": "authorized",
          "type": "bool",
          "internalType": "bool"
        }
      ],
      "outputs": [],
      "stateMutability": "nonpayable"
    },
    {
      "type": "function",
      "name": "authorizeStateRootProvider",
      "inputs": [
        {
          "name": "providerName",
          "type": "string",
          "internalType": "string"
        },
        {
          "name": "authorized",
          "type": "bool",
          "internalType": "bool"
        }
      ],
      "outputs": [],
      "stateMutability": "nonpayable"
    },
    {
      "type": "function",
      "name": "authorizedServers",
      "inputs": [
        {
          "name": "",
          "type": "string",
          "internalType": "string"
        }
      ],
      "outputs": [
        {
          "name": "",
          "type": "bool",
          "internalType": "bool"
        }
      ],
      "stateMutability": "view"
    },
    {
      "type": "function",
      "name": "authorizedStateRootProviders",
      "inputs": [
        {
          "name": "",
          "type": "string",
          "internalType": "string"
        }
      ],
      "outputs": [
        {
          "name": "",
          "type": "bool",
          "internalType": "bool"
        }
      ],
      "stateMutability": "view"
    },
    {
      "type": "function",
      "name": "creditScores",
      "inputs": [
        {
          "name": "",
          "type": "address",
          "internalType": "address"
        }
      ],
      "outputs": [
        {
          "name": "score",
          "type": "uint64",
          "internalType": "uint64"
        },
        {
          "name": "serverName",
          "type": "string",
          "internalType": "string"
        },
        {
          "name": "stateRootProvider",
          "type": "string",
          "internalType": "string"
        },
        {
          "name": "timestamp",
          "type": "uint256",
          "internalType": "uint256"
        },
        {
          "name": "isValid",
          "type": "bool",
          "internalType": "bool"
        }
      ],
      "stateMutability": "view"
    },
    {
      "type": "function",
      "name": "getCreditScore",
      "inputs": [
        {
          "name": "user",
          "type": "address",
          "internalType": "address"
        }
      ],
      "outputs": [
        {
          "name": "score",
          "type": "uint64",
          "internalType": "uint64"
        },
        {
          "name": "isValid",
          "type": "bool",
          "internalType": "bool"
        },
        {
          "name": "timestamp",
          "type": "uint256",
          "internalType": "uint256"
        }
      ],
      "stateMutability": "view"
    },
    {
      "type": "function",
      "name": "imageId",
      "inputs": [],
      "outputs": [
        {
          "name": "",
          "type": "bytes32",
          "internalType": "bytes32"
        }
      ],
      "stateMutability": "view"
    },
    {
      "type": "function",
      "name": "isServerAuthorized",
      "inputs": [
        {
          "name": "serverName",
          "type": "string",
          "internalType": "string"
        }
      ],
      "outputs": [
        {
          "name": "",
          "type": "bool",
          "internalType": "bool"
        }
      ],
      "stateMutability": "view"
    },
    {
      "type": "function",
      "name": "isStateRootProviderAuthorized",
      "inputs": [
        {
          "name": "providerName",
          "type": "string",
          "internalType": "string"
        }
      ],
      "outputs": [
        {
          "name": "",
          "type": "bool",
          "internalType": "bool"
        }
      ],
      "stateMutability": "view"
    },
    {
      "type": "function",
      "name": "submitCreditScore",
      "inputs": [
        {
          "name": "score",
          "type": "uint64",
          "internalType": "uint64"
        },
        {
          "name": "serverName",
          "type": "string",
          "internalType": "string"
        },
        {
          "name": "stateRootProvider",
          "type": "string",
          "internalType": "string"
        },
        {
          "name": "seal",
          "type": "bytes",
          "internalType": "bytes"
        },
        {
          "name": "journalData",
          "type": "bytes",
          "internalType": "bytes"
        }
      ],
      "outputs": [],
      "stateMutability": "nonpayable"
    },
    {
      "type": "function",
      "name": "testVerify",
      "inputs": [
        {
          "name": "seal",
          "type": "bytes",
          "internalType": "bytes"
        },
        {
          "name": "journalData",
          "type": "bytes",
          "internalType": "bytes"
        }
      ],
      "outputs": [
        {
          "name": "",
          "type": "bool",
          "internalType": "bool"
        }
      ],
      "stateMutability": "view"
    },
    {
      "type": "function",
      "name": "verifier",
      "inputs": [],
      "outputs": [
        {
          "name": "",
          "type": "address",
          "internalType": "contract IRiscZeroVerifier"
        }
      ],
      "stateMutability": "view"
    },
    {
      "type": "event",
      "name": "CreditScoreSubmitted",
      "inputs": [
        {
          "name": "user",
          "type": "address",
          "indexed": true,
          "internalType": "address"
        },
        {
          "name": "score",
          "type": "uint64",
          "indexed": false,
          "internalType": "uint64"
        },
        {
          "name": "serverName",
          "type": "string",
          "indexed": false,
          "internalType": "string"
        },
        {
          "name": "stateRootProvider",
          "type": "string",
          "indexed": false,
          "internalType": "string"
        },
        {
          "name": "timestamp",
          "type": "uint256",
          "indexed": false,
          "internalType": "uint256"
        }
      ],
      "anonymous": false
    },
    {
      "type": "event",
      "name": "ServerAuthorized",
      "inputs": [
        {
          "name": "serverName",
          "type": "string",
          "indexed": false,
          "internalType": "string"
        },
        {
          "name": "authorized",
          "type": "bool",
          "indexed": false,
          "internalType": "bool"
        }
      ],
      "anonymous": false
    },
    {
      "type": "event",
      "name": "StateRootProviderAuthorized",
      "inputs": [
        {
          "name": "providerName",
          "type": "string",
          "indexed": false,
          "internalType": "string"
        },
        {
          "name": "authorized",
          "type": "bool",
          "indexed": false,
          "internalType": "bool"
        }
      ],
      "anonymous": false
    }
  ],
  "bytecode": {
    "object": "0x60a060405234801561000f575f5ffd5b50604051611f19380380611f19833981810160405281019061003191906101d9565b8073ffffffffffffffffffffffffffffffffffffffff1660808173ffffffffffffffffffffffffffffffffffffffff168152505060015f60405161007490610258565b90815260200160405180910390205f6101000a81548160ff02191690831515021790555060015f6040516100a7906102dc565b90815260200160405180910390205f6101000a81548160ff02191690831515021790555060015f6040516100da9061033a565b90815260200160405180910390205f6101000a81548160ff02191690831515021790555060018060405161010d90610398565b90815260200160405180910390205f6101000a81548160ff021916908315150217905550600180604051610140906103f6565b90815260200160405180910390205f6101000a81548160ff0219169083151502179055505061040a565b5f5ffd5b5f73ffffffffffffffffffffffffffffffffffffffff82169050919050565b5f6101978261016e565b9050919050565b5f6101a88261018d565b9050919050565b6101b88161019e565b81146101c2575f5ffd5b50565b5f815190506101d3816101af565b92915050565b5f602082840312156101ee576101ed61016a565b5b5f6101fb848285016101c5565b91505092915050565b5f81905092915050565b7f6874747062696e2e6f72670000000000000000000000000000000000000000005f82015250565b5f610242600b83610204565b915061024d8261020e565b600b82019050919050565b5f61026282610236565b9150819050919050565b7f6f70656e62616e6b696e672d6170692d3832363236303732333630372e6575725f8201527f6f70652d77657374332e72756e2e617000000000000000000000000000000000602082015250565b5f6102c6603083610204565b91506102d18261026c565b603082019050919050565b5f6102e6826102ba565b9150819050919050565b7f7363687566612e646500000000000000000000000000000000000000000000005f82015250565b5f610324600983610204565b915061032f826102f0565b600982019050919050565b5f61034482610318565b9150819050919050565b7f736f6e69632d626c617a652e672e616c6368656d792e636f6d000000000000005f82015250565b5f610382601983610204565b915061038d8261034e565b601982019050919050565b5f6103a282610376565b9150819050919050565b7f696e667572612e636f6d000000000000000000000000000000000000000000005f82015250565b5f6103e0600a83610204565b91506103eb826103ac565b600a82019050919050565b5f610400826103d4565b9150819050919050565b608051611ae96104305f395f818161030c015281816103bf01526107e20152611ae95ff3fe608060405234801561000f575f5ffd5b50600436106100cd575f3560e01c806380bb72731161008a5780639688417a116100645780639688417a1461024d578063d3dd2bdf14610269578063ef3f7dd51461029b578063fbc4a11d146102b9576100cd565b806380bb7273146101cd57806382e949af146102015780638a2489f51461021d576100cd565b8063230928ae146100d15780632b7ac3f31461010157806344298b481461011f57806359705bb31461014f578063617530b81461016d5780636b2522c51461019d575b5f5ffd5b6100eb60048036038101906100e69190610da6565b6102d5565b6040516100f89190610e0b565b60405180910390f35b61010961030a565b6040516101169190610e9e565b60405180910390f35b61013960048036038101906101349190610fef565b61032e565b6040516101469190610e0b565b60405180910390f35b610157610362565b604051610164919061104e565b60405180910390f35b610187600480360381019061018291906110bc565b610369565b6040516101949190610e0b565b60405180910390f35b6101b760048036038101906101b29190610da6565b610477565b6040516101c49190610e0b565b60405180910390f35b6101e760048036038101906101e29190611175565b6104ad565b6040516101f8959493929190611222565b60405180910390f35b61021b600480360381019061021691906112ab565b61060a565b005b61023760048036038101906102329190610fef565b610681565b6040516102449190610e0b565b60405180910390f35b61026760048036038101906102629190611332565b6106b6565b005b610283600480360381019061027e9190611175565b610a6c565b60405161029293929190611428565b60405180910390f35b6102a3610c98565b6040516102b09190611475565b60405180910390f35b6102d360048036038101906102ce91906112ab565b610cbe565b005b5f5f83836040516102e79291906114bc565b90815260200160405180910390205f9054906101000a900460ff16905092915050565b7f000000000000000000000000000000000000000000000000000000000000000081565b5f818051602081018201805184825260208301602085012081835280955050505050505f915054906101000a900460ff1681565b6276a70081565b5f5f6002848460405161037d929190611502565b602060405180830381855afa158015610398573d5f5f3e3d5ffd5b5050506040513d601f19601f820116820180604052508101906103bb9190611544565b90507f000000000000000000000000000000000000000000000000000000000000000073ffffffffffffffffffffffffffffffffffffffff1663ab750e7587877fec4b63f6cd5bccd5b35d572b11fb788c0ab007024c24bf6bc94147efd242ab7b5f1b856040518563ffffffff1660e01b815260040161043e94939291906115ab565b5f6040518083038186803b158015610454575f5ffd5b505afa158015610466573d5f5f3e3d5ffd5b505050506001915050949350505050565b5f6001838360405161048a9291906114bc565b90815260200160405180910390205f9054906101000a900460ff16905092915050565b6002602052805f5260405f205f91509050805f015f9054906101000a900467ffffffffffffffff16908060010180546104e590611616565b80601f016020809104026020016040519081016040528092919081815260200182805461051190611616565b801561055c5780601f106105335761010080835404028352916020019161055c565b820191905f5260205f20905b81548152906001019060200180831161053f57829003601f168201915b50505050509080600201805461057190611616565b80601f016020809104026020016040519081016040528092919081815260200182805461059d90611616565b80156105e85780601f106105bf576101008083540402835291602001916105e8565b820191905f5260205f20905b8154815290600101906020018083116105cb57829003601f168201915b505050505090806003015490806004015f9054906101000a900460ff16905085565b806001848460405161061d9291906114bc565b90815260200160405180910390205f6101000a81548160ff0219169083151502179055507f8b30677d9def807fe752143a75db409c4815b5af551373236a7c11d43c5cf26283838360405161067493929190611672565b60405180910390a1505050565b6001818051602081018201805184825260208301602085012081835280955050505050505f915054906101000a900460ff1681565b5f88886040516106c79291906114bc565b90815260200160405180910390205f9054906101000a900460ff16610721576040517f08c379a0000000000000000000000000000000000000000000000000000000008152600401610718906116ec565b60405180910390fd5b600186866040516107339291906114bc565b90815260200160405180910390205f9054906101000a900460ff1661078d576040517f08c379a00000000000000000000000000000000000000000000000000000000081526004016107849061177a565b60405180910390fd5b5f600283836040516107a0929190611502565b602060405180830381855afa1580156107bb573d5f5f3e3d5ffd5b5050506040513d601f19601f820116820180604052508101906107de9190611544565b90507f000000000000000000000000000000000000000000000000000000000000000073ffffffffffffffffffffffffffffffffffffffff1663ab750e7586867fec4b63f6cd5bccd5b35d572b11fb788c0ab007024c24bf6bc94147efd242ab7b5f1b856040518563ffffffff1660e01b815260040161086194939291906115ab565b5f6040518083038186803b158015610877575f5ffd5b505afa158015610889573d5f5f3e3d5ffd5b505050506040518060a001604052808b67ffffffffffffffff1681526020018a8a8080601f0160208091040260200160405190810160405280939291908181526020018383808284375f81840152601f19601f82011690508083019250505050505050815260200188888080601f0160208091040260200160405190810160405280939291908181526020018383808284375f81840152601f19601f8201169050808301925050505050505081526020014281526020016001151581525060025f3373ffffffffffffffffffffffffffffffffffffffff1673ffffffffffffffffffffffffffffffffffffffff1681526020019081526020015f205f820151815f015f6101000a81548167ffffffffffffffff021916908367ffffffffffffffff16021790555060208201518160010190816109c5919061192f565b5060408201518160020190816109db919061192f565b50606082015181600301556080820151816004015f6101000a81548160ff0219169083151502179055509050503373ffffffffffffffffffffffffffffffffffffffff167f59abdce84fc86d3bcee9a9e6742207b50d88729f45d7b77fe797b44516ece6138b8b8b8b8b42604051610a58969594939291906119fe565b60405180910390a250505050505050505050565b5f5f5f5f60025f8673ffffffffffffffffffffffffffffffffffffffff1673ffffffffffffffffffffffffffffffffffffffff1681526020019081526020015f206040518060a00160405290815f82015f9054906101000a900467ffffffffffffffff1667ffffffffffffffff1667ffffffffffffffff168152602001600182018054610af890611616565b80601f0160208091040260200160405190810160405280929190818152602001828054610b2490611616565b8015610b6f5780601f10610b4657610100808354040283529160200191610b6f565b820191905f5260205f20905b815481529060010190602001808311610b5257829003601f168201915b50505050508152602001600282018054610b8890611616565b80601f0160208091040260200160405190810160405280929190818152602001828054610bb490611616565b8015610bff5780601f10610bd657610100808354040283529160200191610bff565b820191905f5260205f20905b815481529060010190602001808311610be257829003601f168201915b5050505050815260200160038201548152602001600482015f9054906101000a900460ff16151515158152505090505f81608001518015610c4357505f8260600151115b8015610c6157506276a700826060015142610c5e9190611a80565b11155b90508015610c8157815f0151600183606001519450945094505050610c91565b5f5f836060015194509450945050505b9193909250565b7fec4b63f6cd5bccd5b35d572b11fb788c0ab007024c24bf6bc94147efd242ab7b5f1b81565b805f8484604051610cd09291906114bc565b90815260200160405180910390205f6101000a81548160ff0219169083151502179055507f4e15ca8481fedc5644b291bafb21560ebdf28f6f0b2ecdf7f0e841032c15cf67838383604051610d2793929190611672565b60405180910390a1505050565b5f604051905090565b5f5ffd5b5f5ffd5b5f5ffd5b5f5ffd5b5f5ffd5b5f5f83601f840112610d6657610d65610d45565b5b8235905067ffffffffffffffff811115610d8357610d82610d49565b5b602083019150836001820283011115610d9f57610d9e610d4d565b5b9250929050565b5f5f60208385031215610dbc57610dbb610d3d565b5b5f83013567ffffffffffffffff811115610dd957610dd8610d41565b5b610de585828601610d51565b92509250509250929050565b5f8115159050919050565b610e0581610df1565b82525050565b5f602082019050610e1e5f830184610dfc565b92915050565b5f73ffffffffffffffffffffffffffffffffffffffff82169050919050565b5f819050919050565b5f610e66610e61610e5c84610e24565b610e43565b610e24565b9050919050565b5f610e7782610e4c565b9050919050565b5f610e8882610e6d565b9050919050565b610e9881610e7e565b82525050565b5f602082019050610eb15f830184610e8f565b92915050565b5f5ffd5b5f601f19601f8301169050919050565b7f4e487b71000000000000000000000000000000000000000000000000000000005f52604160045260245ffd5b610f0182610ebb565b810181811067ffffffffffffffff82111715610f2057610f1f610ecb565b5b80604052505050565b5f610f32610d34565b9050610f3e8282610ef8565b919050565b5f67ffffffffffffffff821115610f5d57610f5c610ecb565b5b610f6682610ebb565b9050602081019050919050565b828183375f83830152505050565b5f610f93610f8e84610f43565b610f29565b905082815260208101848484011115610faf57610fae610eb7565b5b610fba848285610f73565b509392505050565b5f82601f830112610fd657610fd5610d45565b5b8135610fe6848260208601610f81565b91505092915050565b5f6020828403121561100457611003610d3d565b5b5f82013567ffffffffffffffff81111561102157611020610d41565b5b61102d84828501610fc2565b91505092915050565b5f819050919050565b61104881611036565b82525050565b5f6020820190506110615f83018461103f565b92915050565b5f5f83601f84011261107c5761107b610d45565b5b8235905067ffffffffffffffff81111561109957611098610d49565b5b6020830191508360018202830111156110b5576110b4610d4d565b5b9250929050565b5f5f5f5f604085870312156110d4576110d3610d3d565b5b5f85013567ffffffffffffffff8111156110f1576110f0610d41565b5b6110fd87828801611067565b9450945050602085013567ffffffffffffffff8111156111205761111f610d41565b5b61112c87828801611067565b925092505092959194509250565b5f61114482610e24565b9050919050565b6111548161113a565b811461115e575f5ffd5b50565b5f8135905061116f8161114b565b92915050565b5f6020828403121561118a57611189610d3d565b5b5f61119784828501611161565b91505092915050565b5f67ffffffffffffffff82169050919050565b6111bc816111a0565b82525050565b5f81519050919050565b5f82825260208201905092915050565b8281835e5f83830152505050565b5f6111f4826111c2565b6111fe81856111cc565b935061120e8185602086016111dc565b61121781610ebb565b840191505092915050565b5f60a0820190506112355f8301886111b3565b818103602083015261124781876111ea565b9050818103604083015261125b81866111ea565b905061126a606083018561103f565b6112776080830184610dfc565b9695505050505050565b61128a81610df1565b8114611294575f5ffd5b50565b5f813590506112a581611281565b92915050565b5f5f5f604084860312156112c2576112c1610d3d565b5b5f84013567ffffffffffffffff8111156112df576112de610d41565b5b6112eb86828701610d51565b935093505060206112fe86828701611297565b9150509250925092565b611311816111a0565b811461131b575f5ffd5b50565b5f8135905061132c81611308565b92915050565b5f5f5f5f5f5f5f5f5f60a08a8c03121561134f5761134e610d3d565b5b5f61135c8c828d0161131e565b99505060208a013567ffffffffffffffff81111561137d5761137c610d41565b5b6113898c828d01610d51565b985098505060408a013567ffffffffffffffff8111156113ac576113ab610d41565b5b6113b88c828d01610d51565b965096505060608a013567ffffffffffffffff8111156113db576113da610d41565b5b6113e78c828d01611067565b945094505060808a013567ffffffffffffffff81111561140a57611409610d41565b5b6114168c828d01611067565b92509250509295985092959850929598565b5f60608201905061143b5f8301866111b3565b6114486020830185610dfc565b611455604083018461103f565b949350505050565b5f819050919050565b61146f8161145d565b82525050565b5f6020820190506114885f830184611466565b92915050565b5f81905092915050565b5f6114a3838561148e565b93506114b0838584610f73565b82840190509392505050565b5f6114c8828486611498565b91508190509392505050565b5f81905092915050565b5f6114e983856114d4565b93506114f6838584610f73565b82840190509392505050565b5f61150e8284866114de565b91508190509392505050565b6115238161145d565b811461152d575f5ffd5b50565b5f8151905061153e8161151a565b92915050565b5f6020828403121561155957611558610d3d565b5b5f61156684828501611530565b91505092915050565b5f82825260208201905092915050565b5f61158a838561156f565b9350611597838584610f73565b6115a083610ebb565b840190509392505050565b5f6060820190508181035f8301526115c481868861157f565b90506115d36020830185611466565b6115e06040830184611466565b95945050505050565b7f4e487b71000000000000000000000000000000000000000000000000000000005f52602260045260245ffd5b5f600282049050600182168061162d57607f821691505b6020821081036116405761163f6115e9565b5b50919050565b5f61165183856111cc565b935061165e838584610f73565b61166783610ebb565b840190509392505050565b5f6040820190508181035f83015261168b818587611646565b905061169a6020830184610dfc565b949350505050565b7f54726164466920736572766572206e6f7420617574686f72697a6564000000005f82015250565b5f6116d6601c836111cc565b91506116e1826116a2565b602082019050919050565b5f6020820190508181035f830152611703816116ca565b9050919050565b7f537461746520726f6f742070726f7669646572206e6f7420617574686f72697a5f8201527f6564000000000000000000000000000000000000000000000000000000000000602082015250565b5f6117646022836111cc565b915061176f8261170a565b604082019050919050565b5f6020820190508181035f83015261179181611758565b9050919050565b5f819050815f5260205f209050919050565b5f6020601f8301049050919050565b5f82821b905092915050565b5f600883026117f47fffffffffffffffffffffffffffffffffffffffffffffffffffffffffffffffff826117b9565b6117fe86836117b9565b95508019841693508086168417925050509392505050565b5f61183061182b61182684611036565b610e43565b611036565b9050919050565b5f819050919050565b61184983611816565b61185d61185582611837565b8484546117c5565b825550505050565b5f5f905090565b611874611865565b61187f818484611840565b505050565b5b818110156118a2576118975f8261186c565b600181019050611885565b5050565b601f8211156118e7576118b881611798565b6118c1846117aa565b810160208510156118d0578190505b6118e46118dc856117aa565b830182611884565b50505b505050565b5f82821c905092915050565b5f6119075f19846008026118ec565b1980831691505092915050565b5f61191f83836118f8565b9150826002028217905092915050565b611938826111c2565b67ffffffffffffffff81111561195157611950610ecb565b5b61195b8254611616565b6119668282856118a6565b5f60209050601f831160018114611997575f8415611985578287015190505b61198f8582611914565b8655506119f6565b601f1984166119a586611798565b5f5b828110156119cc578489015182556001820191506020850194506020810190506119a7565b868310156119e957848901516119e5601f8916826118f8565b8355505b6001600288020188555050505b505050505050565b5f608082019050611a115f8301896111b3565b8181036020830152611a24818789611646565b90508181036040830152611a39818587611646565b9050611a48606083018461103f565b979650505050505050565b7f4e487b71000000000000000000000000000000000000000000000000000000005f52601160045260245ffd5b5f611a8a82611036565b9150611a9583611036565b9250828203905081811115611aad57611aac611a53565b5b9291505056fea26469706673582212200a9af86e9f738d5d4c9aa2f50a2db68e24d6356d9d90d292d60a16205aeb261564736f6c634300081e0033",
    "linkReferences": {}
  },
  "methodIdentifiers": {
    "SCORE_EXPIRY_PERIOD()": "59705bb3",
    "authorizeServer(string,bool)": "fbc4a11d",
    "authorizeStateRootProvider(string,bool)": "82e949af",
    "authorizedServers(string)": "44298b48",
    "authorizedStateRootProviders(string)": "8a2489f5",
    "creditScores(address)": "80bb7273",
    "getCreditScore(address)": "d3dd2bdf",
    "imageId()": "ef3f7dd5",
    "isServerAuthorized(string)": "230928ae",
    "isStateRootProviderAuthorized(string)": "6b2522c5",
    "submitCreditScore(uint64,string,string,bytes,bytes)": "9688417a",
    "testVerify(bytes,bytes)": "617530b8",
    "verifier()": "2b7ac3f3"
  },
  "id": 0
}