{
  "_format": "hh-sol-artifact-1",
  "contractName": "GovToken",
  "sourceName": "backend/contracts/GovToken.sol",
  "abi": [
    {
      "inputs": [],
      "stateMutability": "nonpayable",
      "type": "constructor"
    },
    {
      "inputs": [],
      "name": "AccessControlBadConfirmation",
      "type": "error"
    },
    {
      "inputs": [
        {
          "internalType": "address",
          "name": "account",
          "type": "address"
        },
        {
          "internalType": "bytes32",
          "name": "neededRole",
          "type": "bytes32"
        }
      ],
      "name": "AccessControlUnauthorizedAccount",
      "type": "error"
    },
    {
      "inputs": [],
      "name": "CheckpointUnorderedInsertion",
      "type": "error"
    },
    {
      "inputs": [],
      "name": "ECDSAInvalidSignature",
      "type": "error"
    },
    {
      "inputs": [
        {
          "internalType": "uint256",
          "name": "length",
          "type": "uint256"
        }
      ],
      "name": "ECDSAInvalidSignatureLength",
      "type": "error"
    },
    {
      "inputs": [
        {
          "internalType": "bytes32",
          "name": "s",
          "type": "bytes32"
        }
      ],
      "name": "ECDSAInvalidSignatureS",
      "type": "error"
    },
    {
      "inputs": [
        {
          "internalType": "uint256",
          "name": "increasedSupply",
          "type": "uint256"
        },
        {
          "internalType": "uint256",
          "name": "cap",
          "type": "uint256"
        }
      ],
      "name": "ERC20ExceededSafeSupply",
      "type": "error"
    },
    {
      "inputs": [
        {
          "internalType": "address",
          "name": "spender",
          "type": "address"
        },
        {
          "internalType": "uint256",
          "name": "allowance",
          "type": "uint256"
        },
        {
          "internalType": "uint256",
          "name": "needed",
          "type": "uint256"
        }
      ],
      "name": "ERC20InsufficientAllowance",
      "type": "error"
    },
    {
      "inputs": [
        {
          "internalType": "address",
          "name": "sender",
          "type": "address"
        },
        {
          "internalType": "uint256",
          "name": "balance",
          "type": "uint256"
        },
        {
          "internalType": "uint256",
          "name": "needed",
          "type": "uint256"
        }
      ],
      "name": "ERC20InsufficientBalance",
      "type": "error"
    },
    {
      "inputs": [
        {
          "internalType": "address",
          "name": "approver",
          "type": "address"
        }
      ],
      "name": "ERC20InvalidApprover",
      "type": "error"
    },
    {
      "inputs": [
        {
          "internalType": "address",
          "name": "receiver",
          "type": "address"
        }
      ],
      "name": "ERC20InvalidReceiver",
      "type": "error"
    },
    {
      "inputs": [
        {
          "internalType": "address",
          "name": "sender",
          "type": "address"
        }
      ],
      "name": "ERC20InvalidSender",
      "type": "error"
    },
    {
      "inputs": [
        {
          "internalType": "address",
          "name": "spender",
          "type": "address"
        }
      ],
      "name": "ERC20InvalidSpender",
      "type": "error"
    },
    {
      "inputs": [
        {
          "internalType": "uint256",
          "name": "deadline",
          "type": "uint256"
        }
      ],
      "name": "ERC2612ExpiredSignature",
      "type": "error"
    },
    {
      "inputs": [
        {
          "internalType": "address",
          "name": "signer",
          "type": "address"
        },
        {
          "internalType": "address",
          "name": "owner",
          "type": "address"
        }
      ],
      "name": "ERC2612InvalidSigner",
      "type": "error"
    },
    {
      "inputs": [
        {
          "internalType": "uint256",
          "name": "timepoint",
          "type": "uint256"
        },
        {
          "internalType": "uint48",
          "name": "clock",
          "type": "uint48"
        }
      ],
      "name": "ERC5805FutureLookup",
      "type": "error"
    },
    {
      "inputs": [],
      "name": "ERC6372InconsistentClock",
      "type": "error"
    },
    {
      "inputs": [
        {
          "internalType": "address",
          "name": "account",
          "type": "address"
        },
        {
          "internalType": "uint256",
          "name": "currentNonce",
          "type": "uint256"
        }
      ],
      "name": "InvalidAccountNonce",
      "type": "error"
    },
    {
      "inputs": [],
      "name": "InvalidShortString",
      "type": "error"
    },
    {
      "inputs": [
        {
          "internalType": "uint8",
          "name": "bits",
          "type": "uint8"
        },
        {
          "internalType": "uint256",
          "name": "value",
          "type": "uint256"
        }
      ],
      "name": "SafeCastOverflowedUintDowncast",
      "type": "error"
    },
    {
      "inputs": [
        {
          "internalType": "string",
          "name": "str",
          "type": "string"
        }
      ],
      "name": "StringTooLong",
      "type": "error"
    },
    {
      "inputs": [
        {
          "internalType": "uint256",
          "name": "expiry",
          "type": "uint256"
        }
      ],
      "name": "VotesExpiredSignature",
      "type": "error"
    },
    {
      "anonymous": false,
      "inputs": [
        {
          "indexed": true,
          "internalType": "address",
          "name": "owner",
          "type": "address"
        },
        {
          "indexed": true,
          "internalType": "address",
          "name": "spender",
          "type": "address"
        },
        {
          "indexed": false,
          "internalType": "uint256",
          "name": "value",
          "type": "uint256"
        }
      ],
      "name": "Approval",
      "type": "event"
    },
    {
      "anonymous": false,
      "inputs": [
        {
          "indexed": true,
          "internalType": "address",
          "name": "delegator",
          "type": "address"
        },
        {
          "indexed": true,
          "internalType": "address",
          "name": "fromDelegate",
          "type": "address"
        },
        {
          "indexed": true,
          "internalType": "address",
          "name": "toDelegate",
          "type": "address"
        }
      ],
      "name": "DelegateChanged",
      "type": "event"
    },
    {
      "anonymous": false,
      "inputs": [
        {
          "indexed": true,
          "internalType": "address",
          "name": "delegate",
          "type": "address"
        },
        {
          "indexed": false,
          "internalType": "uint256",
          "name": "previousVotes",
          "type": "uint256"
        },
        {
          "indexed": false,
          "internalType": "uint256",
          "name": "newVotes",
          "type": "uint256"
        }
      ],
      "name": "DelegateVotesChanged",
      "type": "event"
    },
    {
      "anonymous": false,
      "inputs": [],
      "name": "EIP712DomainChanged",
      "type": "event"
    },
    {
      "anonymous": false,
      "inputs": [
        {
          "indexed": true,
          "internalType": "bytes32",
          "name": "role",
          "type": "bytes32"
        },
        {
          "indexed": true,
          "internalType": "bytes32",
          "name": "previousAdminRole",
          "type": "bytes32"
        },
        {
          "indexed": true,
          "internalType": "bytes32",
          "name": "newAdminRole",
          "type": "bytes32"
        }
      ],
      "name": "RoleAdminChanged",
      "type": "event"
    },
    {
      "anonymous": false,
      "inputs": [
        {
          "indexed": true,
          "internalType": "bytes32",
          "name": "role",
          "type": "bytes32"
        },
        {
          "indexed": true,
          "internalType": "address",
          "name": "account",
          "type": "address"
        },
        {
          "indexed": true,
          "internalType": "address",
          "name": "sender",
          "type": "address"
        }
      ],
      "name": "RoleGranted",
      "type": "event"
    },
    {
      "anonymous": false,
      "inputs": [
        {
          "indexed": true,
          "internalType": "bytes32",
          "name": "role",
          "type": "bytes32"
        },
        {
          "indexed": true,
          "internalType": "address",
          "name": "account",
          "type": "address"
        },
        {
          "indexed": true,
          "internalType": "address",
          "name": "sender",
          "type": "address"
        }
      ],
      "name": "RoleRevoked",
      "type": "event"
    },
    {
      "anonymous": false,
      "inputs": [
        {
          "indexed": true,
          "internalType": "address",
          "name": "from",
          "type": "address"
        },
        {
          "indexed": true,
          "internalType": "address",
          "name": "to",
          "type": "address"
        },
        {
          "indexed": false,
          "internalType": "uint256",
          "name": "value",
          "type": "uint256"
        }
      ],
      "name": "Transfer",
      "type": "event"
    },
    {
      "inputs": [],
      "name": "CLOCK_MODE",
      "outputs": [
        {
          "internalType": "string",
          "name": "",
          "type": "string"
        }
      ],
      "stateMutability": "view",
      "type": "function"
    },
    {
      "inputs": [],
      "name": "DEFAULT_ADMIN_ROLE",
      "outputs": [
        {
          "internalType": "bytes32",
          "name": "",
          "type": "bytes32"
        }
      ],
      "stateMutability": "view",
      "type": "function"
    },
    {
      "inputs": [],
      "name": "DOMAIN_SEPARATOR",
      "outputs": [
        {
          "internalType": "bytes32",
          "name": "",
          "type": "bytes32"
        }
      ],
      "stateMutability": "view",
      "type": "function"
    },
    {
      "inputs": [],
      "name": "MINTER_ROLE",
      "outputs": [
        {
          "internalType": "bytes32",
          "name": "",
          "type": "bytes32"
        }
      ],
      "stateMutability": "view",
      "type": "function"
    },
    {
      "inputs": [
        {
          "internalType": "address",
          "name": "owner",
          "type": "address"
        },
        {
          "internalType": "address",
          "name": "spender",
          "type": "address"
        }
      ],
      "name": "allowance",
      "outputs": [
        {
          "internalType": "uint256",
          "name": "",
          "type": "uint256"
        }
      ],
      "stateMutability": "view",
      "type": "function"
    },
    {
      "inputs": [
        {
          "internalType": "address",
          "name": "spender",
          "type": "address"
        },
        {
          "internalType": "uint256",
          "name": "value",
          "type": "uint256"
        }
      ],
      "name": "approve",
      "outputs": [
        {
          "internalType": "bool",
          "name": "",
          "type": "bool"
        }
      ],
      "stateMutability": "nonpayable",
      "type": "function"
    },
    {
      "inputs": [
        {
          "internalType": "address",
          "name": "account",
          "type": "address"
        }
      ],
      "name": "balanceOf",
      "outputs": [
        {
          "internalType": "uint256",
          "name": "",
          "type": "uint256"
        }
      ],
      "stateMutability": "view",
      "type": "function"
    },
    {
      "inputs": [
        {
          "internalType": "address",
          "name": "account",
          "type": "address"
        },
        {
          "internalType": "uint32",
          "name": "pos",
          "type": "uint32"
        }
      ],
      "name": "checkpoints",
      "outputs": [
        {
          "components": [
            {
              "internalType": "uint48",
              "name": "_key",
              "type": "uint48"
            },
            {
              "internalType": "uint208",
              "name": "_value",
              "type": "uint208"
            }
          ],
          "internalType": "struct Checkpoints.Checkpoint208",
          "name": "",
          "type": "tuple"
        }
      ],
      "stateMutability": "view",
      "type": "function"
    },
    {
      "inputs": [],
      "name": "clock",
      "outputs": [
        {
          "internalType": "uint48",
          "name": "",
          "type": "uint48"
        }
      ],
      "stateMutability": "view",
      "type": "function"
    },
    {
      "inputs": [],
      "name": "decimals",
      "outputs": [
        {
          "internalType": "uint8",
          "name": "",
          "type": "uint8"
        }
      ],
      "stateMutability": "view",
      "type": "function"
    },
    {
      "inputs": [
        {
          "internalType": "address",
          "name": "delegatee",
          "type": "address"
        }
      ],
      "name": "delegate",
      "outputs": [],
      "stateMutability": "nonpayable",
      "type": "function"
    },
    {
      "inputs": [
        {
          "internalType": "address",
          "name": "delegatee",
          "type": "address"
        },
        {
          "internalType": "uint256",
          "name": "nonce",
          "type": "uint256"
        },
        {
          "internalType": "uint256",
          "name": "expiry",
          "type": "uint256"
        },
        {
          "internalType": "uint8",
          "name": "v",
          "type": "uint8"
        },
        {
          "internalType": "bytes32",
          "name": "r",
          "type": "bytes32"
        },
        {
          "internalType": "bytes32",
          "name": "s",
          "type": "bytes32"
        }
      ],
      "name": "delegateBySig",
      "outputs": [],
      "stateMutability": "nonpayable",
      "type": "function"
    },
    {
      "inputs": [
        {
          "internalType": "address",
          "name": "account",
          "type": "address"
        }
      ],
      "name": "delegates",
      "outputs": [
        {
          "internalType": "address",
          "name": "",
          "type": "address"
        }
      ],
      "stateMutability": "view",
      "type": "function"
    },
    {
      "inputs": [],
      "name": "eip712Domain",
      "outputs": [
        {
          "internalType": "bytes1",
          "name": "fields",
          "type": "bytes1"
        },
        {
          "internalType": "string",
          "name": "name",
          "type": "string"
        },
        {
          "internalType": "string",
          "name": "version",
          "type": "string"
        },
        {
          "internalType": "uint256",
          "name": "chainId",
          "type": "uint256"
        },
        {
          "internalType": "address",
          "name": "verifyingContract",
          "type": "address"
        },
        {
          "internalType": "bytes32",
          "name": "salt",
          "type": "bytes32"
        },
        {
          "internalType": "uint256[]",
          "name": "extensions",
          "type": "uint256[]"
        }
      ],
      "stateMutability": "view",
      "type": "function"
    },
    {
      "inputs": [
        {
          "internalType": "uint256",
          "name": "timepoint",
          "type": "uint256"
        }
      ],
      "name": "getPastTotalSupply",
      "outputs": [
        {
          "internalType": "uint256",
          "name": "",
          "type": "uint256"
        }
      ],
      "stateMutability": "view",
      "type": "function"
    },
    {
      "inputs": [
        {
          "internalType": "address",
          "name": "account",
          "type": "address"
        },
        {
          "internalType": "uint256",
          "name": "timepoint",
          "type": "uint256"
        }
      ],
      "name": "getPastVotes",
      "outputs": [
        {
          "internalType": "uint256",
          "name": "",
          "type": "uint256"
        }
      ],
      "stateMutability": "view",
      "type": "function"
    },
    {
      "inputs": [
        {
          "internalType": "bytes32",
          "name": "role",
          "type": "bytes32"
        }
      ],
      "name": "getRoleAdmin",
      "outputs": [
        {
          "internalType": "bytes32",
          "name": "",
          "type": "bytes32"
        }
      ],
      "stateMutability": "view",
      "type": "function"
    },
    {
      "inputs": [
        {
          "internalType": "address",
          "name": "account",
          "type": "address"
        }
      ],
      "name": "getVotes",
      "outputs": [
        {
          "internalType": "uint256",
          "name": "",
          "type": "uint256"
        }
      ],
      "stateMutability": "view",
      "type": "function"
    },
    {
      "inputs": [
        {
          "internalType": "bytes32",
          "name": "role",
          "type": "bytes32"
        },
        {
          "internalType": "address",
          "name": "account",
          "type": "address"
        }
      ],
      "name": "grantRole",
      "outputs": [],
      "stateMutability": "nonpayable",
      "type": "function"
    },
    {
      "inputs": [
        {
          "internalType": "bytes32",
          "name": "role",
          "type": "bytes32"
        },
        {
          "internalType": "address",
          "name": "account",
          "type": "address"
        }
      ],
      "name": "hasRole",
      "outputs": [
        {
          "internalType": "bool",
          "name": "",
          "type": "bool"
        }
      ],
      "stateMutability": "view",
      "type": "function"
    },
    {
      "inputs": [
        {
          "internalType": "address",
          "name": "to",
          "type": "address"
        },
        {
          "internalType": "uint256",
          "name": "amount",
          "type": "uint256"
        }
      ],
      "name": "mint",
      "outputs": [],
      "stateMutability": "nonpayable",
      "type": "function"
    },
    {
      "inputs": [],
      "name": "name",
      "outputs": [
        {
          "internalType": "string",
          "name": "",
          "type": "string"
        }
      ],
      "stateMutability": "view",
      "type": "function"
    },
    {
      "inputs": [
        {
          "internalType": "address",
          "name": "owner",
          "type": "address"
        }
      ],
      "name": "nonces",
      "outputs": [
        {
          "internalType": "uint256",
          "name": "",
          "type": "uint256"
        }
      ],
      "stateMutability": "view",
      "type": "function"
    },
    {
      "inputs": [
        {
          "internalType": "address",
          "name": "account",
          "type": "address"
        }
      ],
      "name": "numCheckpoints",
      "outputs": [
        {
          "internalType": "uint32",
          "name": "",
          "type": "uint32"
        }
      ],
      "stateMutability": "view",
      "type": "function"
    },
    {
      "inputs": [
        {
          "internalType": "address",
          "name": "owner",
          "type": "address"
        },
        {
          "internalType": "address",
          "name": "spender",
          "type": "address"
        },
        {
          "internalType": "uint256",
          "name": "value",
          "type": "uint256"
        },
        {
          "internalType": "uint256",
          "name": "deadline",
          "type": "uint256"
        },
        {
          "internalType": "uint8",
          "name": "v",
          "type": "uint8"
        },
        {
          "internalType": "bytes32",
          "name": "r",
          "type": "bytes32"
        },
        {
          "internalType": "bytes32",
          "name": "s",
          "type": "bytes32"
        }
      ],
      "name": "permit",
      "outputs": [],
      "stateMutability": "nonpayable",
      "type": "function"
    },
    {
      "inputs": [
        {
          "internalType": "bytes32",
          "name": "role",
          "type": "bytes32"
        },
        {
          "internalType": "address",
          "name": "callerConfirmation",
          "type": "address"
        }
      ],
      "name": "renounceRole",
      "outputs": [],
      "stateMutability": "nonpayable",
      "type": "function"
    },
    {
      "inputs": [
        {
          "internalType": "bytes32",
          "name": "role",
          "type": "bytes32"
        },
        {
          "internalType": "address",
          "name": "account",
          "type": "address"
        }
      ],
      "name": "revokeRole",
      "outputs": [],
      "stateMutability": "nonpayable",
      "type": "function"
    },
    {
      "inputs": [
        {
          "internalType": "bytes4",
          "name": "interfaceId",
          "type": "bytes4"
        }
      ],
      "name": "supportsInterface",
      "outputs": [
        {
          "internalType": "bool",
          "name": "",
          "type": "bool"
        }
      ],
      "stateMutability": "view",
      "type": "function"
    },
    {
      "inputs": [],
      "name": "symbol",
      "outputs": [
        {
          "internalType": "string",
          "name": "",
          "type": "string"
        }
      ],
      "stateMutability": "view",
      "type": "function"
    },
    {
      "inputs": [],
      "name": "totalSupply",
      "outputs": [
        {
          "internalType": "uint256",
          "name": "",
          "type": "uint256"
        }
      ],
      "stateMutability": "view",
      "type": "function"
    },
    {
      "inputs": [
        {
          "internalType": "address",
          "name": "to",
          "type": "address"
        },
        {
          "internalType": "uint256",
          "name": "value",
          "type": "uint256"
        }
      ],
      "name": "transfer",
      "outputs": [
        {
          "internalType": "bool",
          "name": "",
          "type": "bool"
        }
      ],
      "stateMutability": "nonpayable",
      "type": "function"
    },
    {
      "inputs": [
        {
          "internalType": "address",
          "name": "from",
          "type": "address"
        },
        {
          "internalType": "address",
          "name": "to",
          "type": "address"
        },
        {
          "internalType": "uint256",
          "name": "value",
          "type": "uint256"
        }
      ],
      "name": "transferFrom",
      "outputs": [
        {
          "internalType": "bool",
          "name": "",
          "type": "bool"
        }
      ],
      "stateMutability": "nonpayable",
      "type": "function"
    }
  ],
  "bytecode": "0x61016060405234801561001157600080fd5b506040518060400160405280601081526020016f23b7bb32b93730b731b2902a37b5b2b760811b81525080604051806040016040528060018152602001603160f81b8152506040518060400160405280601081526020016f23b7bb32b93730b731b2902a37b5b2b760811b8152506040518060400160405280600381526020016223a7ab60e91b81525081600390816100aa919061099f565b5060046100b7828261099f565b506100c791508390506005610192565b610120526100d6816006610192565b61014052815160208084019190912060e052815190820120610100524660a05261016360e05161010051604080517f8b73c3c69bb8fe3d512ecc4cf759cc79239f7b179b0ffacaa9a75d522b39400f60208201529081019290925260608201524660808201523060a082015260009060c00160405160208183030381529060405280519060200120905090565b60805250503060c052506101813369d3c21bcecceda10000006101c5565b61018c600033610204565b50610b49565b60006020835110156101ae576101a7836102b2565b90506101bf565b816101b9848261099f565b5060ff90505b92915050565b6001600160a01b0382166101f45760405163ec442f0560e01b8152600060048201526024015b60405180910390fd5b610200600083836102f0565b5050565b6000828152600b602090815260408083206001600160a01b038516845290915281205460ff166102aa576000838152600b602090815260408083206001600160a01b03861684529091529020805460ff191660011790556102623390565b6001600160a01b0316826001600160a01b0316847f2f8788117e7eff1d82e926ec794901d17c78024a50270940304540a733656f0d60405160405180910390a45060016101bf565b5060006101bf565b600080829050601f815111156102dd578260405163305a27a960e01b81526004016101eb9190610a5d565b80516102e882610aab565b179392505050565b6102fb838383610300565b505050565b61030b838383610367565b6001600160a01b03831661035c57600061032460025490565b90506001600160d01b038082111561035957604051630e58ae9360e11b815260048101839052602481018290526044016101eb565b50505b6102fb838383610491565b6001600160a01b0383166103925780600260008282546103879190610ae5565b909155506104049050565b6001600160a01b038316600090815260208190526040902054818110156103e55760405163391434e360e21b81526001600160a01b038516600482015260248101829052604481018390526064016101eb565b6001600160a01b03841660009081526020819052604090209082900390555b6001600160a01b0382166104205760028054829003905561043f565b6001600160a01b03821660009081526020819052604090208054820190555b816001600160a01b0316836001600160a01b03167fddf252ad1be2c89b69c2b068fc378daa952ba7f163c4a11628f55a4df523b3ef8360405161048491815260200190565b60405180910390a3505050565b6001600160a01b0383166104bf576104bc600a610acb61051a60201b176104b78461052d565b610565565b50505b6001600160a01b0382166104e8576104e5600a610ad761059b60201b176104b78461052d565b50505b6001600160a01b038381166000908152600860205260408082205485841683529120546102fb929182169116836105a7565b60006105268284610af8565b9392505050565b60006001600160d01b03821115610561576040516306dfcc6560e41b815260d06004820152602481018390526044016101eb565b5090565b60008061058e6105736106fc565b61058661057f8861070b565b868860201c565b879190610755565b915091505b935093915050565b60006105268284610b17565b816001600160a01b0316836001600160a01b0316141580156105c95750600081115b156102fb576001600160a01b03831615610663576001600160a01b038316600090815260096020908152604082208291610610919061059b901b610ad7176104b78661052d565b6001600160d01b031691506001600160d01b03169150846001600160a01b0316600080516020612d5e8339815191528383604051610658929190918252602082015260400190565b60405180910390a250505b6001600160a01b038216156102fb576001600160a01b0382166000908152600960209081526040822082916106a5919061051a901b610acb176104b78661052d565b6001600160d01b031691506001600160d01b03169150836001600160a01b0316600080516020612d5e83398151915283836040516106ed929190918252602082015260400190565b60405180910390a25050505050565b6000610706610763565b905090565b8054600090801561074c5761073383610725600184610b36565b600091825260209091200190565b54660100000000000090046001600160d01b0316610526565b60009392505050565b60008061058e85858561076e565b6000610706436108ce565b82546000908190801561087057600061078c87610725600185610b36565b805490915065ffffffffffff80821691660100000000000090046001600160d01b03169088168211156107d257604051632520601d60e01b815260040160405180910390fd5b8765ffffffffffff168265ffffffffffff160361080e57825465ffffffffffff1666010000000000006001600160d01b03891602178355610862565b6040805180820190915265ffffffffffff808a1682526001600160d01b03808a1660208085019182528d54600181018f5560008f815291909120945191519092166601000000000000029216919091179101555b945085935061059392505050565b50506040805180820190915265ffffffffffff80851682526001600160d01b0380851660208085019182528854600181018a5560008a8152918220955192519093166601000000000000029190931617920191909155905081610593565b600065ffffffffffff821115610561576040516306dfcc6560e41b815260306004820152602481018390526044016101eb565b634e487b7160e01b600052604160045260246000fd5b600181811c9082168061092b57607f821691505b60208210810361094b57634e487b7160e01b600052602260045260246000fd5b50919050565b601f8211156102fb57806000526020600020601f840160051c810160208510156109785750805b601f840160051c820191505b818110156109985760008155600101610984565b5050505050565b81516001600160401b038111156109b8576109b8610901565b6109cc816109c68454610917565b84610951565b6020601f821160018114610a0057600083156109e85750848201515b600019600385901b1c1916600184901b178455610998565b600084815260208120601f198516915b82811015610a305787850151825560209485019460019092019101610a10565b5084821015610a4e5786840151600019600387901b60f8161c191681555b50505050600190811b01905550565b602081526000825180602084015260005b81811015610a8b5760208186018101516040868401015201610a6e565b506000604082850101526040601f19601f83011684010191505092915050565b8051602080830151919081101561094b5760001960209190910360031b1b16919050565b634e487b7160e01b600052601160045260246000fd5b808201808211156101bf576101bf610acf565b6001600160d01b0381811683821601908111156101bf576101bf610acf565b6001600160d01b0382811682821603908111156101bf576101bf610acf565b818103818111156101bf576101bf610acf565b60805160a05160c05160e0516101005161012051610140516121bb610ba3600039600061102d0152600061100001526000610d4301526000610d1b01526000610c7601526000610ca001526000610cca01526121bb6000f3fe608060405234801561001057600080fd5b50600436106101f05760003560e01c806370a082311161010f578063a217fddf116100a2578063d539139311610071578063d539139314610471578063d547741f14610498578063dd62ed3e146104ab578063f1127ed8146104e457600080fd5b8063a217fddf14610430578063a9059cbb14610438578063c3cda5201461044b578063d505accf1461045e57600080fd5b806391d14854116100de57806391d14854146103e357806391ddadf4146103f657806395d89b41146104155780639ab24eb01461041d57600080fd5b806370a08231146103795780637ecebe00146103a257806384b0196e146103b55780638e539e8c146103d057600080fd5b80633644e515116101875780634bf5d7e9116101565780634bf5d7e9146102f2578063587cde1e146102fa5780635c19a95c1461033e5780636fcfff451461035157600080fd5b80633644e515146102b157806336568abe146102b95780633a46b1a8146102cc57806340c10f19146102df57600080fd5b806323b872dd116101c357806323b872dd14610257578063248a9ca31461026a5780632f2ff15d1461028d578063313ce567146102a257600080fd5b806301ffc9a7146101f557806306fdde031461021d578063095ea7b31461023257806318160ddd14610245575b600080fd5b610208610203366004611d31565b610523565b60405190151581526020015b60405180910390f35b61022561055a565b6040516102149190611da1565b610208610240366004611dd0565b6105ec565b6002545b604051908152602001610214565b610208610265366004611dfa565b610604565b610249610278366004611e37565b6000908152600b602052604090206001015490565b6102a061029b366004611e50565b610628565b005b60405160128152602001610214565b610249610653565b6102a06102c7366004611e50565b610662565b6102496102da366004611dd0565b61069a565b6102a06102ed366004611dd0565b6106d6565b61022561070a565b610326610308366004611e7c565b6001600160a01b039081166000908152600860205260409020541690565b6040516001600160a01b039091168152602001610214565b6102a061034c366004611e7c565b610782565b61036461035f366004611e7c565b610791565b60405163ffffffff9091168152602001610214565b610249610387366004611e7c565b6001600160a01b031660009081526020819052604090205490565b6102496103b0366004611e7c565b61079c565b6103bd6107a7565b6040516102149796959493929190611e97565b6102496103de366004611e37565b6107ed565b6102086103f1366004611e50565b610812565b6103fe61083d565b60405165ffffffffffff9091168152602001610214565b610225610847565b61024961042b366004611e7c565b610856565b610249600081565b610208610446366004611dd0565b610877565b6102a0610459366004611f40565b610885565b6102a061046c366004611f98565b610947565b6102497f9f2df0fed2c77648de5860a4cc508cd0818c85b8b8a1ab4ceeef8d981c8956a681565b6102a06104a6366004611e50565b610a81565b6102496104b9366004612003565b6001600160a01b03918216600090815260016020908152604080832093909416825291909152205490565b6104f76104f236600461202d565b610aa6565b60408051825165ffffffffffff1681526020928301516001600160d01b03169281019290925201610214565b60006001600160e01b03198216637965db0b60e01b148061055457506301ffc9a760e01b6001600160e01b03198316145b92915050565b6060600380546105699061206d565b80601f01602080910402602001604051908101604052809291908181526020018280546105959061206d565b80156105e25780601f106105b7576101008083540402835291602001916105e2565b820191906000526020600020905b8154815290600101906020018083116105c557829003601f168201915b5050505050905090565b6000336105fa818585610ae3565b5060019392505050565b600033610612858285610af0565b61061d858585610b69565b506001949350505050565b6000828152600b602052604090206001015461064381610bc8565b61064d8383610bd5565b50505050565b600061065d610c69565b905090565b6001600160a01b038116331461068b5760405163334bd91960e11b815260040160405180910390fd5b6106958282610d94565b505050565b60006106c66106a883610e01565b6001600160a01b038516600090815260096020526040902090610e50565b6001600160d01b03169392505050565b7f9f2df0fed2c77648de5860a4cc508cd0818c85b8b8a1ab4ceeef8d981c8956a661070081610bc8565b6106958383610f06565b6060610714610f3c565b65ffffffffffff1661072461083d565b65ffffffffffff161461074a576040516301bfc1c560e61b815260040160405180910390fd5b5060408051808201909152601d81527f6d6f64653d626c6f636b6e756d6265722666726f6d3d64656661756c74000000602082015290565b3361078d8183610f47565b5050565b600061055482610fb9565b600061055482610fdb565b6000606080600080600060606107bb610ff9565b6107c3611026565b60408051600080825260208201909252600f60f81b9b939a50919850469750309650945092509050565b60006108036107fb83610e01565b600a90610e50565b6001600160d01b031692915050565b6000918252600b602090815260408084206001600160a01b0393909316845291905290205460ff1690565b600061065d610f3c565b6060600480546105699061206d565b6001600160a01b038116600090815260096020526040812061080390611053565b6000336105fa818585610b69565b834211156108ae57604051632341d78760e11b8152600481018590526024015b60405180910390fd5b604080517fe48329057bfd03d55e49b547132e39cffd9c1820ad7b9d4c5307691425d15adf60208201526001600160a01b038816918101919091526060810186905260808101859052600090610928906109209060a0016040516020818303038152906040528051906020012061108c565b8585856110b9565b905061093481876110e7565b61093e8188610f47565b50505050505050565b8342111561096b5760405163313c898160e11b8152600481018590526024016108a5565b60007f6e71edae12b1b97f4d1f60370fef10105fa2faae0126114a169c64845d6126c98888886109b88c6001600160a01b0316600090815260076020526040902080546001810190915590565b6040805160208101969096526001600160a01b0394851690860152929091166060840152608083015260a082015260c0810186905260e0016040516020818303038152906040528051906020012090506000610a138261108c565b90506000610a23828787876110b9565b9050896001600160a01b0316816001600160a01b031614610a6a576040516325c0072360e11b81526001600160a01b0380831660048301528b1660248201526044016108a5565b610a758a8a8a610ae3565b50505050505050505050565b6000828152600b6020526040902060010154610a9c81610bc8565b61064d8383610d94565b6040805180820190915260008082526020820152610ac4838361113a565b9392505050565b6000610ac482846120bd565b6000610ac482846120dc565b6106958383836001611170565b6001600160a01b0383811660009081526001602090815260408083209386168352929052205460001981101561064d5781811015610b5a57604051637dc7a0d960e11b81526001600160a01b038416600482015260248101829052604481018390526064016108a5565b61064d84848484036000611170565b6001600160a01b038316610b9357604051634b637e8f60e11b8152600060048201526024016108a5565b6001600160a01b038216610bbd5760405163ec442f0560e01b8152600060048201526024016108a5565b610695838383611245565b610bd28133611250565b50565b6000610be18383610812565b610c61576000838152600b602090815260408083206001600160a01b03861684529091529020805460ff19166001179055610c193390565b6001600160a01b0316826001600160a01b0316847f2f8788117e7eff1d82e926ec794901d17c78024a50270940304540a733656f0d60405160405180910390a4506001610554565b506000610554565b6000306001600160a01b037f000000000000000000000000000000000000000000000000000000000000000016148015610cc257507f000000000000000000000000000000000000000000000000000000000000000046145b15610cec57507f000000000000000000000000000000000000000000000000000000000000000090565b61065d604080517f8b73c3c69bb8fe3d512ecc4cf759cc79239f7b179b0ffacaa9a75d522b39400f60208201527f0000000000000000000000000000000000000000000000000000000000000000918101919091527f000000000000000000000000000000000000000000000000000000000000000060608201524660808201523060a082015260009060c00160405160208183030381529060405280519060200120905090565b6000610da08383610812565b15610c61576000838152600b602090815260408083206001600160a01b0386168085529252808320805460ff1916905551339286917ff6391f5c32d9c69d2a47ea670b442974b53935d1edc7fd64eb21e047a839171b9190a4506001610554565b600080610e0c61083d565b90508065ffffffffffff168310610e4757604051637669fc0f60e11b81526004810184905265ffffffffffff821660248201526044016108a5565b610ac483611289565b815460009081816005811115610eaf576000610e6b846112c0565b610e7590856120fb565b60008881526020902090915081015465ffffffffffff9081169087161015610e9f57809150610ead565b610eaa81600161210e565b92505b505b6000610ebd87878585611419565b90508015610ef857610ee287610ed46001846120fb565b600091825260209091200190565b54600160301b90046001600160d01b0316610efb565b60005b979650505050505050565b6001600160a01b038216610f305760405163ec442f0560e01b8152600060048201526024016108a5565b61078d60008383611245565b600061065d43611289565b6001600160a01b0382811660008181526008602052604080822080548686166001600160a01b0319821681179092559151919094169392849290917f3134e8a2e6d97e929a7e54011ea5485d7d196dd5f0ba4d4ef95803e8e3fc257f9190a46106958183610fb48661147b565b611499565b6001600160a01b03811660009081526009602052604081205461055490611605565b6001600160a01b038116600090815260076020526040812054610554565b606061065d7f00000000000000000000000000000000000000000000000000000000000000006005611636565b606061065d7f00000000000000000000000000000000000000000000000000000000000000006006611636565b805460009080156110835761106d83610ed46001846120fb565b54600160301b90046001600160d01b0316610ac4565b60009392505050565b6000610554611099610c69565b8360405161190160f01b8152600281019290925260228201526042902090565b6000806000806110cb888888886116e1565b9250925092506110db82826117b0565b50909695505050505050565b6001600160a01b0382166000908152600760205260409020805460018101909155818114610695576040516301d4b62360e61b81526001600160a01b0384166004820152602481018290526044016108a5565b60408051808201909152600080825260208201526001600160a01b0383166000908152600960205260409020610ac49083611869565b6001600160a01b03841661119a5760405163e602df0560e01b8152600060048201526024016108a5565b6001600160a01b0383166111c457604051634a1406b160e11b8152600060048201526024016108a5565b6001600160a01b038085166000908152600160209081526040808320938716835292905220829055801561064d57826001600160a01b0316846001600160a01b03167f8c5be1e5ebec7d5bd14f71427d1e84f3dd0314c0f7b2291e5b200ac8c7c3b9258460405161123791815260200190565b60405180910390a350505050565b6106958383836118d9565b61125a8282610812565b61078d5760405163e2517d3f60e01b81526001600160a01b0382166004820152602481018390526044016108a5565b600065ffffffffffff8211156112bc576040516306dfcc6560e41b815260306004820152602481018390526044016108a5565b5090565b6000600182116112ce575090565b816001600160801b82106112e75760809190911c9060401b5b6801000000000000000082106113025760409190911c9060201b5b64010000000082106113195760209190911c9060101b5b62010000821061132e5760109190911c9060081b5b61010082106113425760089190911c9060041b5b601082106113555760049190911c9060021b5b600482106113615760011b5b600302600190811c9081858161137957611379612121565b048201901c9050600181858161139157611391612121565b048201901c905060018185816113a9576113a9612121565b048201901c905060018185816113c1576113c1612121565b048201901c905060018185816113d9576113d9612121565b048201901c905060018185816113f1576113f1612121565b048201901c905061141081858161140a5761140a612121565b04821190565b90039392505050565b60005b818310156114735760006114308484611940565b60008781526020902090915065ffffffffffff86169082015465ffffffffffff16111561145f5780925061146d565b61146a81600161210e565b93505b5061141c565b509392505050565b6001600160a01b038116600090815260208190526040812054610554565b816001600160a01b0316836001600160a01b0316141580156114bb5750600081115b15610695576001600160a01b03831615611563576001600160a01b038316600090815260096020526040812081906114fe90610ad76114f98661195b565b61198f565b6001600160d01b031691506001600160d01b03169150846001600160a01b03167fdec2bacdd2f05b59de34da9b523dff8be42e5e38e818c82fdb0bae774387a7248383604051611558929190918252602082015260400190565b60405180910390a250505b6001600160a01b03821615610695576001600160a01b0382166000908152600960205260408120819061159c90610acb6114f98661195b565b6001600160d01b031691506001600160d01b03169150836001600160a01b03167fdec2bacdd2f05b59de34da9b523dff8be42e5e38e818c82fdb0bae774387a72483836040516115f6929190918252602082015260400190565b60405180910390a25050505050565b600063ffffffff8211156112bc576040516306dfcc6560e41b815260206004820152602481018390526044016108a5565b606060ff831461165057611649836119c8565b9050610554565b81805461165c9061206d565b80601f01602080910402602001604051908101604052809291908181526020018280546116889061206d565b80156116d55780601f106116aa576101008083540402835291602001916116d5565b820191906000526020600020905b8154815290600101906020018083116116b857829003601f168201915b50505050509050610554565b600080807f7fffffffffffffffffffffffffffffff5d576e7357a4501ddfe92f46681b20a084111561171c57506000915060039050826117a6565b604080516000808252602082018084528a905260ff891692820192909252606081018790526080810186905260019060a0016020604051602081039080840390855afa158015611770573d6000803e3d6000fd5b5050604051601f1901519150506001600160a01b03811661179c575060009250600191508290506117a6565b9250600091508190505b9450945094915050565b60008260038111156117c4576117c4612137565b036117cd575050565b60018260038111156117e1576117e1612137565b036117ff5760405163f645eedf60e01b815260040160405180910390fd5b600282600381111561181357611813612137565b036118345760405163fce698f760e01b8152600481018290526024016108a5565b600382600381111561184857611848612137565b0361078d576040516335e2f38360e21b8152600481018290526024016108a5565b6040805180820190915260008082526020820152826000018263ffffffff16815481106118985761189861214d565b60009182526020918290206040805180820190915291015465ffffffffffff81168252600160301b90046001600160d01b0316918101919091529392505050565b6118e4838383611a07565b6001600160a01b0383166119355760006118fd60025490565b90506001600160d01b038082111561193257604051630e58ae9360e11b815260048101839052602481018290526044016108a5565b50505b610695838383611b31565b600061194f6002848418612163565b610ac49084841661210e565b60006001600160d01b038211156112bc576040516306dfcc6560e41b815260d06004820152602481018390526044016108a5565b6000806119bb61199d61083d565b6119b36119a988611053565b868863ffffffff16565b879190611ba7565b915091505b935093915050565b606060006119d583611bb5565b604080516020808252818301909252919250600091906020820181803683375050509182525060208101929092525090565b6001600160a01b038316611a32578060026000828254611a27919061210e565b90915550611aa49050565b6001600160a01b03831660009081526020819052604090205481811015611a855760405163391434e360e21b81526001600160a01b038516600482015260248101829052604481018390526064016108a5565b6001600160a01b03841660009081526020819052604090209082900390555b6001600160a01b038216611ac057600280548290039055611adf565b6001600160a01b03821660009081526020819052604090208054820190555b816001600160a01b0316836001600160a01b03167fddf252ad1be2c89b69c2b068fc378daa952ba7f163c4a11628f55a4df523b3ef83604051611b2491815260200190565b60405180910390a3505050565b6001600160a01b038316611b5357611b50600a610acb6114f98461195b565b50505b6001600160a01b038216611b7557611b72600a610ad76114f98461195b565b50505b6001600160a01b0383811660009081526008602052604080822054858416835291205461069592918216911683611499565b6000806119bb858585611bdd565b600060ff8216601f81111561055457604051632cd44ac360e21b815260040160405180910390fd5b825460009081908015611cd6576000611bfb87610ed46001856120fb565b805490915065ffffffffffff80821691600160301b90046001600160d01b0316908816821115611c3e57604051632520601d60e01b815260040160405180910390fd5b8765ffffffffffff168265ffffffffffff1603611c7757825465ffffffffffff16600160301b6001600160d01b03891602178355611cc8565b6040805180820190915265ffffffffffff808a1682526001600160d01b03808a1660208085019182528d54600181018f5560008f81529190912094519151909216600160301b029216919091179101555b94508593506119c092505050565b50506040805180820190915265ffffffffffff80851682526001600160d01b0380851660208085019182528854600181018a5560008a815291822095519251909316600160301b0291909316179201919091559050816119c0565b600060208284031215611d4357600080fd5b81356001600160e01b031981168114610ac457600080fd5b6000815180845260005b81811015611d8157602081850181015186830182015201611d65565b506000602082860101526020601f19601f83011685010191505092915050565b602081526000610ac46020830184611d5b565b80356001600160a01b0381168114611dcb57600080fd5b919050565b60008060408385031215611de357600080fd5b611dec83611db4565b946020939093013593505050565b600080600060608486031215611e0f57600080fd5b611e1884611db4565b9250611e2660208501611db4565b929592945050506040919091013590565b600060208284031215611e4957600080fd5b5035919050565b60008060408385031215611e6357600080fd5b82359150611e7360208401611db4565b90509250929050565b600060208284031215611e8e57600080fd5b610ac482611db4565b60ff60f81b8816815260e060208201526000611eb660e0830189611d5b565b8281036040840152611ec88189611d5b565b606084018890526001600160a01b038716608085015260a0840186905283810360c08501528451808252602080870193509091019060005b81811015611f1e578351835260209384019390920191600101611f00565b50909b9a5050505050505050505050565b803560ff81168114611dcb57600080fd5b60008060008060008060c08789031215611f5957600080fd5b611f6287611db4565b95506020870135945060408701359350611f7e60608801611f2f565b9598949750929560808101359460a0909101359350915050565b600080600080600080600060e0888a031215611fb357600080fd5b611fbc88611db4565b9650611fca60208901611db4565b95506040880135945060608801359350611fe660808901611f2f565b9699959850939692959460a0840135945060c09093013592915050565b6000806040838503121561201657600080fd5b61201f83611db4565b9150611e7360208401611db4565b6000806040838503121561204057600080fd5b61204983611db4565b9150602083013563ffffffff8116811461206257600080fd5b809150509250929050565b600181811c9082168061208157607f821691505b6020821081036120a157634e487b7160e01b600052602260045260246000fd5b50919050565b634e487b7160e01b600052601160045260246000fd5b6001600160d01b038181168382160190811115610554576105546120a7565b6001600160d01b038281168282160390811115610554576105546120a7565b81810381811115610554576105546120a7565b80820180821115610554576105546120a7565b634e487b7160e01b600052601260045260246000fd5b634e487b7160e01b600052602160045260246000fd5b634e487b7160e01b600052603260045260246000fd5b60008261218057634e487b7160e01b600052601260045260246000fd5b50049056fea264697066735822122097c3c76e78f4058b6091d270c4a083860259b5c8bb3aa07ec64f0d6442c4394a64736f6c634300081c0033dec2bacdd2f05b59de34da9b523dff8be42e5e38e818c82fdb0bae774387a724",
  "linkReferences": {},
  "deployedLinkReferences": {}
}