{
  "_format": "hh-sol-artifact-1",
  "contractName": "InterestRateModel",
  "sourceName": "contracts/InterestRateModel.sol",
  "abi": [
    {
      "inputs": [
        {
          "internalType": "address",
          "name": "_owner",
          "type": "address"
        },
        {
          "internalType": "address",
          "name": "_ethUsdOracle",
          "type": "address"
        },
        {
          "components": [
            {
              "internalType": "uint256",
              "name": "baseRate",
              "type": "uint256"
            },
            {
              "internalType": "uint256",
              "name": "kink",
              "type": "uint256"
            },
            {
              "internalType": "uint256",
              "name": "slope1",
              "type": "uint256"
            },
            {
              "internalType": "uint256",
              "name": "slope2",
              "type": "uint256"
            },
            {
              "internalType": "uint256",
              "name": "reserveFactor",
              "type": "uint256"
            },
            {
              "internalType": "uint256",
              "name": "maxBorrowRate",
              "type": "uint256"
            },
            {
              "internalType": "uint256",
              "name": "maxRateChange",
              "type": "uint256"
            },
            {
              "internalType": "uint256",
              "name": "ethPriceRiskPremium",
              "type": "uint256"
            },
            {
              "internalType": "uint256",
              "name": "ethVolatilityThreshold",
              "type": "uint256"
            },
            {
              "internalType": "uint256",
              "name": "oracleStalenessWindow",
              "type": "uint256"
            }
          ],
          "internalType": "struct InterestRateModel.RateParams",
          "name": "params",
          "type": "tuple"
        }
      ],
      "stateMutability": "nonpayable",
      "type": "constructor"
    },
    {
      "inputs": [
        {
          "internalType": "address",
          "name": "owner",
          "type": "address"
        }
      ],
      "name": "OwnableInvalidOwner",
      "type": "error"
    },
    {
      "inputs": [
        {
          "internalType": "address",
          "name": "account",
          "type": "address"
        }
      ],
      "name": "OwnableUnauthorizedAccount",
      "type": "error"
    },
    {
      "anonymous": false,
      "inputs": [
        {
          "indexed": true,
          "internalType": "address",
          "name": "newOracle",
          "type": "address"
        }
      ],
      "name": "OracleUpdated",
      "type": "event"
    },
    {
      "anonymous": false,
      "inputs": [
        {
          "indexed": true,
          "internalType": "address",
          "name": "previousOwner",
          "type": "address"
        },
        {
          "indexed": true,
          "internalType": "address",
          "name": "newOwner",
          "type": "address"
        }
      ],
      "name": "OwnershipTransferred",
      "type": "event"
    },
    {
      "anonymous": false,
      "inputs": [],
      "name": "ParametersUpdated",
      "type": "event"
    },
    {
      "anonymous": false,
      "inputs": [
        {
          "indexed": false,
          "internalType": "uint256",
          "name": "cappedRate",
          "type": "uint256"
        }
      ],
      "name": "RatesCapped",
      "type": "event"
    },
    {
      "inputs": [],
      "name": "baseRate",
      "outputs": [
        {
          "internalType": "uint256",
          "name": "",
          "type": "uint256"
        }
      ],
      "stateMutability": "view",
      "type": "function"
    },
    {
      "inputs": [],
      "name": "ethPriceRiskPremium",
      "outputs": [
        {
          "internalType": "uint256",
          "name": "",
          "type": "uint256"
        }
      ],
      "stateMutability": "view",
      "type": "function"
    },
    {
      "inputs": [],
      "name": "ethUsdOracle",
      "outputs": [
        {
          "internalType": "address",
          "name": "",
          "type": "address"
        }
      ],
      "stateMutability": "view",
      "type": "function"
    },
    {
      "inputs": [],
      "name": "ethVolatilityThreshold",
      "outputs": [
        {
          "internalType": "uint256",
          "name": "",
          "type": "uint256"
        }
      ],
      "stateMutability": "view",
      "type": "function"
    },
    {
      "inputs": [
        {
          "internalType": "uint256",
          "name": "utilization",
          "type": "uint256"
        }
      ],
      "name": "getBorrowRate",
      "outputs": [
        {
          "internalType": "uint256",
          "name": "",
          "type": "uint256"
        }
      ],
      "stateMutability": "view",
      "type": "function"
    },
    {
      "inputs": [
        {
          "internalType": "uint256",
          "name": "totalBorrowed",
          "type": "uint256"
        },
        {
          "internalType": "uint256",
          "name": "totalSupplied",
          "type": "uint256"
        }
      ],
      "name": "getCurrentRates",
      "outputs": [
        {
          "internalType": "uint256",
          "name": "",
          "type": "uint256"
        },
        {
          "internalType": "uint256",
          "name": "",
          "type": "uint256"
        }
      ],
      "stateMutability": "view",
      "type": "function"
    },
    {
      "inputs": [],
      "name": "getEthPrice",
      "outputs": [
        {
          "internalType": "uint256",
          "name": "price",
          "type": "uint256"
        },
        {
          "internalType": "uint256",
          "name": "updatedAt",
          "type": "uint256"
        }
      ],
      "stateMutability": "view",
      "type": "function"
    },
    {
      "inputs": [
        {
          "internalType": "uint256",
          "name": "utilization",
          "type": "uint256"
        },
        {
          "internalType": "uint256",
          "name": "borrowRate",
          "type": "uint256"
        }
      ],
      "name": "getSupplyRate",
      "outputs": [
        {
          "internalType": "uint256",
          "name": "",
          "type": "uint256"
        }
      ],
      "stateMutability": "view",
      "type": "function"
    },
    {
      "inputs": [],
      "name": "kink",
      "outputs": [
        {
          "internalType": "uint256",
          "name": "",
          "type": "uint256"
        }
      ],
      "stateMutability": "view",
      "type": "function"
    },
    {
      "inputs": [],
      "name": "lastBorrowRate",
      "outputs": [
        {
          "internalType": "uint256",
          "name": "",
          "type": "uint256"
        }
      ],
      "stateMutability": "view",
      "type": "function"
    },
    {
      "inputs": [],
      "name": "lastEthPrice",
      "outputs": [
        {
          "internalType": "uint256",
          "name": "",
          "type": "uint256"
        }
      ],
      "stateMutability": "view",
      "type": "function"
    },
    {
      "inputs": [],
      "name": "lastEthPriceTimestamp",
      "outputs": [
        {
          "internalType": "uint256",
          "name": "",
          "type": "uint256"
        }
      ],
      "stateMutability": "view",
      "type": "function"
    },
    {
      "inputs": [],
      "name": "lastUpdateTimestamp",
      "outputs": [
        {
          "internalType": "uint256",
          "name": "",
          "type": "uint256"
        }
      ],
      "stateMutability": "view",
      "type": "function"
    },
    {
      "inputs": [],
      "name": "maxBorrowRate",
      "outputs": [
        {
          "internalType": "uint256",
          "name": "",
          "type": "uint256"
        }
      ],
      "stateMutability": "view",
      "type": "function"
    },
    {
      "inputs": [],
      "name": "maxRateChange",
      "outputs": [
        {
          "internalType": "uint256",
          "name": "",
          "type": "uint256"
        }
      ],
      "stateMutability": "view",
      "type": "function"
    },
    {
      "inputs": [],
      "name": "oracleStalenessWindow",
      "outputs": [
        {
          "internalType": "uint256",
          "name": "",
          "type": "uint256"
        }
      ],
      "stateMutability": "view",
      "type": "function"
    },
    {
      "inputs": [],
      "name": "owner",
      "outputs": [
        {
          "internalType": "address",
          "name": "",
          "type": "address"
        }
      ],
      "stateMutability": "view",
      "type": "function"
    },
    {
      "inputs": [],
      "name": "protocolRiskAdjustment",
      "outputs": [
        {
          "internalType": "int256",
          "name": "",
          "type": "int256"
        }
      ],
      "stateMutability": "view",
      "type": "function"
    },
    {
      "inputs": [],
      "name": "renounceOwnership",
      "outputs": [],
      "stateMutability": "nonpayable",
      "type": "function"
    },
    {
      "inputs": [],
      "name": "reserveFactor",
      "outputs": [
        {
          "internalType": "uint256",
          "name": "",
          "type": "uint256"
        }
      ],
      "stateMutability": "view",
      "type": "function"
    },
    {
      "inputs": [
        {
          "internalType": "address",
          "name": "newOracle",
          "type": "address"
        }
      ],
      "name": "setOracle",
      "outputs": [],
      "stateMutability": "nonpayable",
      "type": "function"
    },
    {
      "inputs": [
        {
          "internalType": "uint256",
          "name": "_baseRate",
          "type": "uint256"
        },
        {
          "internalType": "uint256",
          "name": "_kink",
          "type": "uint256"
        },
        {
          "internalType": "uint256",
          "name": "_slope1",
          "type": "uint256"
        },
        {
          "internalType": "uint256",
          "name": "_slope2",
          "type": "uint256"
        },
        {
          "internalType": "uint256",
          "name": "_reserveFactor",
          "type": "uint256"
        },
        {
          "internalType": "uint256",
          "name": "_maxBorrowRate",
          "type": "uint256"
        },
        {
          "internalType": "uint256",
          "name": "_maxRateChange",
          "type": "uint256"
        },
        {
          "internalType": "uint256",
          "name": "_ethPriceRiskPremium",
          "type": "uint256"
        },
        {
          "internalType": "uint256",
          "name": "_ethVolatilityThreshold",
          "type": "uint256"
        },
        {
          "internalType": "uint256",
          "name": "_oracleStalenessWindow",
          "type": "uint256"
        }
      ],
      "name": "setParameters",
      "outputs": [],
      "stateMutability": "nonpayable",
      "type": "function"
    },
    {
      "inputs": [
        {
          "internalType": "int256",
          "name": "adjustment",
          "type": "int256"
        }
      ],
      "name": "setProtocolRiskAdjustment",
      "outputs": [],
      "stateMutability": "nonpayable",
      "type": "function"
    },
    {
      "inputs": [
        {
          "internalType": "uint256",
          "name": "utilization",
          "type": "uint256"
        }
      ],
      "name": "simulateRates",
      "outputs": [
        {
          "internalType": "uint256",
          "name": "",
          "type": "uint256"
        },
        {
          "internalType": "uint256",
          "name": "",
          "type": "uint256"
        }
      ],
      "stateMutability": "view",
      "type": "function"
    },
    {
      "inputs": [],
      "name": "slope1",
      "outputs": [
        {
          "internalType": "uint256",
          "name": "",
          "type": "uint256"
        }
      ],
      "stateMutability": "view",
      "type": "function"
    },
    {
      "inputs": [],
      "name": "slope2",
      "outputs": [
        {
          "internalType": "uint256",
          "name": "",
          "type": "uint256"
        }
      ],
      "stateMutability": "view",
      "type": "function"
    },
    {
      "inputs": [
        {
          "internalType": "address",
          "name": "newOwner",
          "type": "address"
        }
      ],
      "name": "transferOwnership",
      "outputs": [],
      "stateMutability": "nonpayable",
      "type": "function"
    }
  ],
  "bytecode": "0x6080604052346101e957604051610c4238819003601f8101601f191683016001600160401b038111848210176101d3578392829160405283398101039061018082126101e95761004e816101ee565b61014061005d602084016101ee565b93603f1901126101e9576040519161014083016001600160401b038111848210176101d357604052604081015183526060810151926020810193845260808201516040820190815260a08301516060830190815260c08401516080840190815260e08501519160a085019283526101008601519360c086019485526101208701519560e08101968752610160610140890151986101008301998a520151986101208201998a5260018060a01b03169a8b156101bd57600080546001600160a01b031981168e1782556040519d916001600160a01b03909116907f8be0079c531659141344cd1fd0a4f28419497f9722a3daafe3b4186f6b6457e09080a3600d80546001600160a01b0319166001600160a01b039290921691909117905551600181905598516002555160035551600455516005555160065551600755516008555160095551600c556000601055600a5542600b55610a3f90816102038239f35b631e4fbdf760e01b600052600060045260246000fd5b634e487b7160e01b600052604160045260246000fd5b600080fd5b51906001600160a01b03821682036101e95756fe608080604052600436101561001357600080fd5b60003560e01c9081630730eb561461076d575080630fa42b5a1461074f57806314bcec9f146107315780631f68f20a146107135780632a11a8a0146106fa5780634322b714146106dc5780634bdc9eaa146106b357806367c9b0171461054f5780637038fc4e14610531578063715018a6146104d857806377398f48146104ba5780637adbf973146104465780638a97f9c91461041d5780638da5cb5b146103f45780639b9066ca146103cf5780639fa83b5a146103a9578063a52e39ab1461038b578063a62b75a81461036d578063c0f2c3c31461034f578063d0134cb714610331578063e178dc5c14610313578063e28aa8f8146102f5578063e57ba155146102d7578063f2e140901461024b578063f2fde38b146101be578063fd2da339146101a05763fe98a3601461014857600080fd5b3461019b57602036600319011261019b5761016e60018060a01b0360005416331461084e565b6004356010557f1e75f48d565290d5600a063ae01f58a35d4cd270ef71d444bbeb914224ca5d77600080a1005b600080fd5b3461019b57600036600319011261019b576020600254604051908152f35b3461019b57602036600319011261019b576004356001600160a01b0381169081900361019b576101ec6109e0565b801561023557600080546001600160a01b03198116831782556001600160a01b0316907f8be0079c531659141344cd1fd0a4f28419497f9722a3daafe3b4186f6b6457e09080a3005b631e4fbdf760e01b600052600060045260246000fd5b3461019b5761014036600319011261019b5761027260018060a01b0360005416331461084e565b60043560015560243560025560443560035560643560045560843560055560a43560065560c43560075560e4356008556101043560095561012435600c557f1e75f48d565290d5600a063ae01f58a35d4cd270ef71d444bbeb914224ca5d77600080a1005b3461019b57600036600319011261019b576020600f54604051908152f35b3461019b57600036600319011261019b576020601054604051908152f35b3461019b57600036600319011261019b576020600954604051908152f35b3461019b57600036600319011261019b576020600454604051908152f35b3461019b57600036600319011261019b576020600754604051908152f35b3461019b57600036600319011261019b576020600354604051908152f35b3461019b57600036600319011261019b576020600c54604051908152f35b3461019b57602036600319011261019b5760206103c76004356108f8565b604051908152f35b3461019b5760406103e86103e236610788565b90610899565b82519182526020820152f35b3461019b57600036600319011261019b576000546040516001600160a01b039091168152602090f35b3461019b57600036600319011261019b57600d546040516001600160a01b039091168152602090f35b3461019b57602036600319011261019b576004356001600160a01b0381169081900361019b5761048160018060a01b0360005416331461084e565b600d80546001600160a01b031916821790557f3df77beb5db05fcdd70a30fc8adf3f83f9501b68579455adbd100b8180940394600080a2005b3461019b57600036600319011261019b576020600854604051908152f35b3461019b57600036600319011261019b576104f16109e0565b600080546001600160a01b0319811682556001600160a01b03167f8be0079c531659141344cd1fd0a4f28419497f9722a3daafe3b4186f6b6457e08280a3005b3461019b57600036600319011261019b576020600e54604051908152f35b3461019b57600036600319011261019b57600d546001600160a01b0316801561067d5760a060049160405192838092633fabe5a360e21b82525afa9081156106715760009081926105f1575b506105a6824261079e565b600c54106105bd5760409182519182526020820152f35b60405162461bcd60e51b815260206004820152600c60248201526b5374616c65206f7261636c6560a01b6044820152606490fd5b915060a03d60a01161066a575b601f8101601f1916830167ffffffffffffffff8111848210176106565760a091849160405281010312610653575061063581610837565b50602081015161064c608060608401519301610837565b508261059b565b80fd5b634e487b7160e01b83526041600452602483fd5b503d6105fe565b6040513d6000823e3d90fd5b60405162461bcd60e51b815260206004820152600e60248201526d13dc9858db19481b9bdd081cd95d60921b6044820152606490fd5b3461019b57602036600319011261019b5760406004356103e86106d5826108f8565b80926107f4565b3461019b57600036600319011261019b576020600554604051908152f35b3461019b5760206103c761070d36610788565b906107f4565b3461019b57600036600319011261019b576020600154604051908152f35b3461019b57600036600319011261019b576020600b54604051908152f35b3461019b57600036600319011261019b576020600654604051908152f35b3461019b57600036600319011261019b57602090600a548152f35b604090600319011261019b576004359060243590565b919082039182116107ab57565b634e487b7160e01b600052601160045260246000fd5b818102929181159184041417156107ab57565b81156107de570490565b634e487b7160e01b600052601260045260246000fd5b90600554670de0b6b3a764000003670de0b6b3a764000081116107ab5761082e610833926ec097ce7bc90715b34b9f1000000000946107c1565b6107c1565b0490565b519069ffffffffffffffffffff8216820361019b57565b1561085557565b606460405162461bcd60e51b815260206004820152602060248201527f4f776e61626c653a2063616c6c6572206973206e6f7420746865206f776e65726044820152fd5b9080156108e157670de0b6b3a7640000820291808304670de0b6b3a764000014901517156107ab576108ca916107d4565b906108de6108d7836108f8565b80936107f4565b90565b5050600090600090565b919082018092116107ab57565b60025490600082821161097d57506109216109279261091c600154936003546107c1565b6107d4565b906108eb565b601054600081131561094f5761093c916108eb565b60065480821161094a575090565b905090565b6000811261095e575b5061093c565b90600160ff1b82146107ab57610977916000039061079e565b38610958565b90826109889161079e565b91670de0b6b3a76400000390670de0b6b3a764000082116109cc5750906109216109c79261091c6109be600154600354906108eb565b936004546107c1565b610927565b634e487b7160e01b81526011600452602490fd5b6000546001600160a01b031633036109f457565b63118cdaa760e01b6000523360045260246000fdfea264697066735822122014e92d31b5d4b0dbf9803cddfba23962ab685adfed24b4b8890b02eef813c39a64736f6c634300081c0033",
  "linkReferences": {},
  "deployedLinkReferences": {}
}