{
  "_format": "hh-sol-artifact-1",
  "contractName": "IntegratedCreditSystem",
  "sourceName": "contracts/IntegratedCreditSystem.sol",
  "abi": [
    {
      "inputs": [
        {
          "internalType": "address",
          "name": "_risc0Verifier",
          "type": "address"
        },
        {
          "internalType": "address",
          "name": "_liquidityPool",
          "type": "address"
        }
      ],
      "stateMutability": "nonpayable",
      "type": "constructor"
    },
    {
      "anonymous": false,
      "inputs": [
        {
          "indexed": true,
          "internalType": "address",
          "name": "user",
          "type": "address"
        },
        {
          "indexed": false,
          "internalType": "bool",
          "name": "eligible",
          "type": "bool"
        },
        {
          "indexed": false,
          "internalType": "uint256",
          "name": "creditScore",
          "type": "uint256"
        }
      ],
      "name": "BorrowingEligibilityChanged",
      "type": "event"
    },
    {
      "anonymous": false,
      "inputs": [
        {
          "indexed": true,
          "internalType": "address",
          "name": "user",
          "type": "address"
        },
        {
          "indexed": false,
          "internalType": "uint256",
          "name": "oldScore",
          "type": "uint256"
        },
        {
          "indexed": false,
          "internalType": "uint256",
          "name": "newScore",
          "type": "uint256"
        },
        {
          "indexed": false,
          "internalType": "bool",
          "name": "borrowingEligible",
          "type": "bool"
        }
      ],
      "name": "CreditScoreUpdated",
      "type": "event"
    },
    {
      "anonymous": false,
      "inputs": [
        {
          "indexed": true,
          "internalType": "address",
          "name": "user",
          "type": "address"
        },
        {
          "indexed": false,
          "internalType": "string",
          "name": "verificationType",
          "type": "string"
        },
        {
          "indexed": false,
          "internalType": "uint256",
          "name": "score",
          "type": "uint256"
        },
        {
          "indexed": false,
          "internalType": "uint256",
          "name": "timestamp",
          "type": "uint256"
        }
      ],
      "name": "CreditVerificationCompleted",
      "type": "event"
    },
    {
      "anonymous": false,
      "inputs": [
        {
          "indexed": true,
          "internalType": "address",
          "name": "user",
          "type": "address"
        },
        {
          "indexed": false,
          "internalType": "string",
          "name": "proofType",
          "type": "string"
        },
        {
          "indexed": false,
          "internalType": "string",
          "name": "details",
          "type": "string"
        }
      ],
      "name": "ProofDataParsed",
      "type": "event"
    },
    {
      "anonymous": false,
      "inputs": [
        {
          "indexed": false,
          "internalType": "uint256",
          "name": "tradFiWeight",
          "type": "uint256"
        },
        {
          "indexed": false,
          "internalType": "uint256",
          "name": "accountWeight",
          "type": "uint256"
        },
        {
          "indexed": false,
          "internalType": "uint256",
          "name": "nestingWeight",
          "type": "uint256"
        }
      ],
      "name": "ScoringWeightsUpdated",
      "type": "event"
    },
    {
      "inputs": [],
      "name": "MIN_CREDIT_SCORE",
      "outputs": [
        {
          "internalType": "uint256",
          "name": "",
          "type": "uint256"
        }
      ],
      "stateMutability": "view",
      "type": "function"
    },
    {
      "inputs": [],
      "name": "VERIFICATION_VALIDITY_PERIOD",
      "outputs": [
        {
          "internalType": "uint256",
          "name": "",
          "type": "uint256"
        }
      ],
      "stateMutability": "view",
      "type": "function"
    },
    {
      "inputs": [],
      "name": "accountWeight",
      "outputs": [
        {
          "internalType": "uint256",
          "name": "",
          "type": "uint256"
        }
      ],
      "stateMutability": "view",
      "type": "function"
    },
    {
      "inputs": [
        {
          "internalType": "address",
          "name": "",
          "type": "address"
        }
      ],
      "name": "creditProfiles",
      "outputs": [
        {
          "internalType": "bool",
          "name": "hasTradFiVerification",
          "type": "bool"
        },
        {
          "internalType": "bool",
          "name": "hasAccountVerification",
          "type": "bool"
        },
        {
          "internalType": "bool",
          "name": "hasNestingVerification",
          "type": "bool"
        },
        {
          "internalType": "uint256",
          "name": "tradFiTimestamp",
          "type": "uint256"
        },
        {
          "internalType": "uint256",
          "name": "accountTimestamp",
          "type": "uint256"
        },
        {
          "internalType": "uint256",
          "name": "nestingTimestamp",
          "type": "uint256"
        },
        {
          "internalType": "uint256",
          "name": "tradFiScore",
          "type": "uint256"
        },
        {
          "internalType": "uint256",
          "name": "accountScore",
          "type": "uint256"
        },
        {
          "internalType": "uint256",
          "name": "hybridScore",
          "type": "uint256"
        },
        {
          "internalType": "uint256",
          "name": "finalCreditScore",
          "type": "uint256"
        },
        {
          "internalType": "string",
          "name": "tradFiDataSource",
          "type": "string"
        },
        {
          "internalType": "uint256",
          "name": "lastScoreUpdate",
          "type": "uint256"
        },
        {
          "internalType": "bool",
          "name": "isEligibleForBorrowing",
          "type": "bool"
        },
        {
          "components": [
            {
              "internalType": "address",
              "name": "account",
              "type": "address"
            },
            {
              "internalType": "uint256",
              "name": "nonce",
              "type": "uint256"
            },
            {
              "internalType": "uint256",
              "name": "balance",
              "type": "uint256"
            },
            {
              "internalType": "bytes32",
              "name": "storageRoot",
              "type": "bytes32"
            },
            {
              "internalType": "bytes32",
              "name": "codeHash",
              "type": "bytes32"
            },
            {
              "internalType": "uint256",
              "name": "blockNumber",
              "type": "uint256"
            },
            {
              "internalType": "bytes32",
              "name": "stateRoot",
              "type": "bytes32"
            }
          ],
          "internalType": "struct IntegratedCreditSystem.AccountProofData",
          "name": "accountData",
          "type": "tuple"
        },
        {
          "components": [
            {
              "internalType": "string",
              "name": "creditScore",
              "type": "string"
            },
            {
              "internalType": "string",
              "name": "dataSource",
              "type": "string"
            },
            {
              "internalType": "string",
              "name": "reportDate",
              "type": "string"
            },
            {
              "internalType": "string",
              "name": "accountAge",
              "type": "string"
            },
            {
              "internalType": "string",
              "name": "paymentHistory",
              "type": "string"
            }
          ],
          "internalType": "struct IntegratedCreditSystem.TradFiProofData",
          "name": "tradFiData",
          "type": "tuple"
        },
        {
          "components": [
            {
              "internalType": "address",
              "name": "account",
              "type": "address"
            },
            {
              "internalType": "uint256",
              "name": "defiScore",
              "type": "uint256"
            },
            {
              "internalType": "uint256",
              "name": "tradfiScore",
              "type": "uint256"
            },
            {
              "internalType": "uint256",
              "name": "hybridScore",
              "type": "uint256"
            },
            {
              "internalType": "uint256",
              "name": "timestamp",
              "type": "uint256"
            }
          ],
          "internalType": "struct IntegratedCreditSystem.NestingProofData",
          "name": "nestingData",
          "type": "tuple"
        }
      ],
      "stateMutability": "view",
      "type": "function"
    },
    {
      "inputs": [
        {
          "internalType": "bytes",
          "name": "journalData",
          "type": "bytes"
        }
      ],
      "name": "decodeTradFiJournal",
      "outputs": [
        {
          "components": [
            {
              "internalType": "string",
              "name": "creditScore",
              "type": "string"
            },
            {
              "internalType": "string",
              "name": "dataSource",
              "type": "string"
            },
            {
              "internalType": "string",
              "name": "reportDate",
              "type": "string"
            },
            {
              "internalType": "string",
              "name": "accountAge",
              "type": "string"
            },
            {
              "internalType": "string",
              "name": "paymentHistory",
              "type": "string"
            }
          ],
          "internalType": "struct IntegratedCreditSystem.TradFiProofData",
          "name": "",
          "type": "tuple"
        }
      ],
      "stateMutability": "pure",
      "type": "function"
    },
    {
      "inputs": [
        {
          "internalType": "address",
          "name": "user",
          "type": "address"
        }
      ],
      "name": "getDetailedVerificationStatus",
      "outputs": [
        {
          "internalType": "uint256",
          "name": "tradFiScore",
          "type": "uint256"
        },
        {
          "internalType": "uint256",
          "name": "accountScore",
          "type": "uint256"
        },
        {
          "internalType": "uint256",
          "name": "hybridScore",
          "type": "uint256"
        },
        {
          "components": [
            {
              "internalType": "address",
              "name": "account",
              "type": "address"
            },
            {
              "internalType": "uint256",
              "name": "nonce",
              "type": "uint256"
            },
            {
              "internalType": "uint256",
              "name": "balance",
              "type": "uint256"
            },
            {
              "internalType": "bytes32",
              "name": "storageRoot",
              "type": "bytes32"
            },
            {
              "internalType": "bytes32",
              "name": "codeHash",
              "type": "bytes32"
            },
            {
              "internalType": "uint256",
              "name": "blockNumber",
              "type": "uint256"
            },
            {
              "internalType": "bytes32",
              "name": "stateRoot",
              "type": "bytes32"
            }
          ],
          "internalType": "struct IntegratedCreditSystem.AccountProofData",
          "name": "accountData",
          "type": "tuple"
        },
        {
          "components": [
            {
              "internalType": "string",
              "name": "creditScore",
              "type": "string"
            },
            {
              "internalType": "string",
              "name": "dataSource",
              "type": "string"
            },
            {
              "internalType": "string",
              "name": "reportDate",
              "type": "string"
            },
            {
              "internalType": "string",
              "name": "accountAge",
              "type": "string"
            },
            {
              "internalType": "string",
              "name": "paymentHistory",
              "type": "string"
            }
          ],
          "internalType": "struct IntegratedCreditSystem.TradFiProofData",
          "name": "tradFiData",
          "type": "tuple"
        },
        {
          "components": [
            {
              "internalType": "address",
              "name": "account",
              "type": "address"
            },
            {
              "internalType": "uint256",
              "name": "defiScore",
              "type": "uint256"
            },
            {
              "internalType": "uint256",
              "name": "tradfiScore",
              "type": "uint256"
            },
            {
              "internalType": "uint256",
              "name": "hybridScore",
              "type": "uint256"
            },
            {
              "internalType": "uint256",
              "name": "timestamp",
              "type": "uint256"
            }
          ],
          "internalType": "struct IntegratedCreditSystem.NestingProofData",
          "name": "nestingData",
          "type": "tuple"
        }
      ],
      "stateMutability": "view",
      "type": "function"
    },
    {
      "inputs": [],
      "name": "getMinimumCreditScore",
      "outputs": [
        {
          "internalType": "uint256",
          "name": "",
          "type": "uint256"
        }
      ],
      "stateMutability": "pure",
      "type": "function"
    },
    {
      "inputs": [
        {
          "internalType": "address",
          "name": "user",
          "type": "address"
        }
      ],
      "name": "getUserCreditProfile",
      "outputs": [
        {
          "internalType": "bool",
          "name": "hasTradFi",
          "type": "bool"
        },
        {
          "internalType": "bool",
          "name": "hasAccount",
          "type": "bool"
        },
        {
          "internalType": "bool",
          "name": "hasNesting",
          "type": "bool"
        },
        {
          "internalType": "uint256",
          "name": "finalScore",
          "type": "uint256"
        },
        {
          "internalType": "bool",
          "name": "isEligible",
          "type": "bool"
        },
        {
          "internalType": "uint256",
          "name": "lastUpdate",
          "type": "uint256"
        }
      ],
      "stateMutability": "view",
      "type": "function"
    },
    {
      "inputs": [
        {
          "internalType": "address",
          "name": "user",
          "type": "address"
        }
      ],
      "name": "isEligibleToBorrow",
      "outputs": [
        {
          "internalType": "bool",
          "name": "",
          "type": "bool"
        }
      ],
      "stateMutability": "view",
      "type": "function"
    },
    {
      "inputs": [],
      "name": "liquidityPool",
      "outputs": [
        {
          "internalType": "contract LiquidityPool",
          "name": "",
          "type": "address"
        }
      ],
      "stateMutability": "view",
      "type": "function"
    },
    {
      "inputs": [],
      "name": "nestingWeight",
      "outputs": [
        {
          "internalType": "uint256",
          "name": "",
          "type": "uint256"
        }
      ],
      "stateMutability": "view",
      "type": "function"
    },
    {
      "inputs": [],
      "name": "risc0Verifier",
      "outputs": [
        {
          "internalType": "contract SimpleRISC0Test",
          "name": "",
          "type": "address"
        }
      ],
      "stateMutability": "view",
      "type": "function"
    },
    {
      "inputs": [
        {
          "internalType": "bytes",
          "name": "seal",
          "type": "bytes"
        },
        {
          "internalType": "bytes",
          "name": "journalData",
          "type": "bytes"
        }
      ],
      "name": "submitAccountProof",
      "outputs": [],
      "stateMutability": "nonpayable",
      "type": "function"
    },
    {
      "inputs": [
        {
          "internalType": "bytes",
          "name": "seal",
          "type": "bytes"
        },
        {
          "internalType": "bytes",
          "name": "journalData",
          "type": "bytes"
        }
      ],
      "name": "submitNestingProof",
      "outputs": [],
      "stateMutability": "nonpayable",
      "type": "function"
    },
    {
      "inputs": [
        {
          "internalType": "bytes",
          "name": "seal",
          "type": "bytes"
        },
        {
          "internalType": "bytes",
          "name": "journalData",
          "type": "bytes"
        }
      ],
      "name": "submitTradFiProof",
      "outputs": [],
      "stateMutability": "nonpayable",
      "type": "function"
    },
    {
      "inputs": [],
      "name": "tradFiWeight",
      "outputs": [
        {
          "internalType": "uint256",
          "name": "",
          "type": "uint256"
        }
      ],
      "stateMutability": "view",
      "type": "function"
    },
    {
      "inputs": [
        {
          "internalType": "uint256",
          "name": "_tradFiWeight",
          "type": "uint256"
        },
        {
          "internalType": "uint256",
          "name": "_accountWeight",
          "type": "uint256"
        },
        {
          "internalType": "uint256",
          "name": "_nestingWeight",
          "type": "uint256"
        }
      ],
      "name": "updateScoringWeights",
      "outputs": [],
      "stateMutability": "nonpayable",
      "type": "function"
    }
  ],
  "bytecode": "0x60a034620000b957601f6200263b38819003918201601f19168301916001600160401b03831184841017620000bd578084926040948552833981010312620000b9576200005a60206200005283620000d1565b9201620000d1565b6032600255601e60035560146004556001600160a01b039182166080525f80546001600160a01b031916919092161790556040516125549081620000e782396080518181816101640152818161080101528181610e3a0152610e7f0152f35b5f80fd5b634e487b7160e01b5f52604160045260245ffd5b51906001600160a01b0382168203620000b95756fe6080604081815260049182361015610015575f80fd5b5f925f3560e01c9182630a49cf4d146118595750816345171f26146116e95781634f0ca97114610e695781635c9770c514610e255781636087c89f14610e065781636277f6c614610c84578163665a11ca14610c5c5781636b0ad6fe14610ab55783826374601a8e146107e0575081637fa408d9146106d35781638922f3e3146106b557816393e30a6a146106975781639de1b1ee146104e2578163b7161fac146104c6578163da4561e41461014157508063f25d4f33146101005763f511cab2146100df575f80fd5b346100fc57816003193601126100fc576020906002549051908152f35b5080fd5b50346100fc5760203660031901126100fc5760209160ff90600a9083906001600160a01b0361012d611872565b168152600186522001541690519015158152f35b919050346104c2578261015336611c57565b90936001600160a01b0393919290917f0000000000000000000000000000000000000000000000000000000000000000851691823b156104be5786928492838b6101b1898d5198899788968795634295e81760e01b87528601611cc2565b03925af180156104b45790859291610499575b505060e0916101d1611dd6565b5081010312610495578251906101e682611935565b6101ef83611888565b92838352602093848401968583013588528685019487840135865260608101906060850135825260808101926080860135845261024560a083019560a0880135875260c080850198013588528833911614611d0a565b60146102518951612473565b8101809111610482578b92916102728e9261026c86516124c5565b90611ce9565b907fc5d2460186f7233c927e7db2dcc703c0e500b653ca82273b7bfad8045d85a470865103610452575b509760118b98610406986031985f805160206124ff8339815191529f9d969861042b9f96988f9a61043a9f9b8b6103a89d6103a19d50606481115f146104495750600160649b5b33835252209761010061ff00198a54161789554260028a01558960058a0155600b89019151166bffffffffffffffffffffffff60a01b82541617905551600c8701558751600d87015551600e86015551600f850155516010840155519101557ff3e9df557a77817375ddbb676dd4856f795b087c5aa2761c428d196445cba70889516060815261038b6060820160409060078152661058d8dbdd5b9d60ca1b60208201520190565b9289820152428b8201528033930390a251612399565b9851612399565b9785519889916802130b630b731b29d160bd1b868401526103d28151809288602987019101611b2e565b8201670102737b731b29d160c51b60298201526103f782518093888785019101611b2e565b0103601181018952018761196d565b8251938385948552840160409060078152661058d8dbdd5b9d60ca1b60208201520190565b90838203908401523395611b4f565b0390a261044633612127565b80f35b6001909b6102e3565b9150919250600f820180921161046f57508a91908c90601161029c565b634e487b7160e01b8d526011905260248cfd5b634e487b7160e01b8d526011825260248dfd5b8480fd5b6104a49192506118d4565b6104b05782865f6101c4565b8580fd5b86513d84823e3d90fd5b8380fd5b8280fd5b5050346100fc57816003193601126100fc576020905160238152f35b8284346106945760203660031901126106945781906104ff611872565b610507611dd6565b50610510611d49565b50610519611e0c565b506001600160a01b03168152600160205220815192610690906101e09061065790610543876118fc565b60ff855481811615158952818160081c16151560208a015260101c161515868801526001850154606088015260028501546080880152600385015460a08801528401549360c08701948552600581015460e08801908152600682015490610100890191825260078301546101208a01526105bf6008840161198f565b61014090818b015261064c600985015498610160998a8d015260ff600a8701541615156101808d01526105f4600b8701611a31565b9b6101a081019c8d5261061d601761060e60128a01611a8a565b986101c08401998a5201611ae9565b988991015251925193519a519451948a519b8c9b8c966020610200988998815201528c015260608b0190611b74565b880152860190611bbd565b928401906080809160018060a01b0381511684526020810151602085015260408101516040850152606081015160608501520151910152565b0390f35b80fd5b5050346100fc57816003193601126100fc576020905162278d008152f35b9050346104c257826003193601126104c25760209250549051908152f35b919050346104c257602091826003193601126104be57803567ffffffffffffffff918282116104b05761070891369101611c29565b610713929192611d49565b5082019184818403126104b0578035908282116107dc570160a0818403126104b05783519561074187611919565b81358381116100fc5784610756918401611d90565b8752858201358381116100fc578461076f918401611d90565b86880152848201358381116100fc578461078a918401611d90565b8588015260608201358381116100fc57846107a6918401611d90565b606088015260808201359283116106945750916107c891610690949301611d90565b608085015251928284938452830190611bbd565b8680fd5b915091346100fc576107f136611c57565b929094919560018060a01b0396877f000000000000000000000000000000000000000000000000000000000000000016803b1561049557879385809461084b898b51988997889687956318e4a27760e21b87528601611cc2565b03925af18015610aab5790859291610a94575b505060a09161086b611e0c565b50810103126104be578080519261088184611919565b61088a81611888565b938481526020958682019287810135845284830196858201358852606084019060608301358252608085019260800135835283339116146108ca90611d0a565b805193338b5260018a52868b209362ff00001985541662010000178555426003860155856006860155601785019151166bffffffffffffffffffffffff60a01b825416179055845160188401558751601984015551601a8301555190601b0155825160608152606081016109539060409060078152664e657374696e6760c81b60208201520190565b9082888201524285820152803392037ff3e9df557a77817375ddbb676dd4856f795b087c5aa2761c428d196445cba70891a261098e90612399565b905161099990612399565b93516109a490612399565b82519485928784016d0243cb13934b21029b1b7b9329d160951b90528051908189602e87019201916109d592611b2e565b8301602e810167010142232a3349d160c51b90528151918289603684019201916109fe92611b2e565b0160368101680102a3930b223349d160bd1b90528151918288603f8401920191610a2792611b2e565b01603f8101602960f81b905203848101845201610a44908361196d565b80518181526007918101918252664e657374696e6760c81b602083015291829160400193828503908301523393610a7a91611b4f565b035f805160206124ff83398151915291a261044633612127565b610a9f9192506118d4565b6104955782855f61085e565b84513d84823e3d90fd5b919050346104c25760203660031901126104c25760c09281906001600160a01b03610ade611872565b168152600160205220815190610af3826118fc565b80549260ff841615158352602083019460ff8560081c161515865260ff8285019560101c1615158552600183015495606085019687526002840154956080860196875260038501549260a0870193845285015489870152600585015460e087015260068501546101008701526007850154916101208701928352610b796008870161198f565b6101408801526009860154966101608101978852610bcf601760ff600a8a0154169861018084019915158a52610bb1600b8201611a31565b6101a0850152610bc360128201611a8a565b6101c085015201611ae9565b6101e08201525115159889610c49575b505115159687610c36575b505115159182610c23575b50519251151593519482519615158752151560208701521515908501526060840152608083015260a0820152f35b610c2f9192505161234e565b905f610bf5565b610c429197505161234e565b955f610bea565b610c559199505161234e565b975f610bdf565b5050346100fc57816003193601126100fc57905490516001600160a01b039091168152602090f35b9050346104c25760603660031901126104c257825482516334cc866d60e21b815282359360443593909260243592602092916001600160a01b039081169184818581865afa8a9181610dca575b50610dc55750815b163314908115610dbb575b5015610d86576064610cff86610cfa868a611ce9565b611ce9565b03610d45576002869055600383905584905582519485528401528201527fb2f6c02fac42195bee702ac23b7ad51c3d4905613c1448c1cb9fb3496184d16d90606090a180f35b60649184519162461bcd60e51b8352820152601760248201527f57656967687473206d7573742073756d20746f203130300000000000000000006044820152fd5b60649184519162461bcd60e51b835282015260116024820152704f6e6c792044414f2f54696d656c6f636b60781b6044820152fd5b905033145f610ce4565b610cd9565b9091508581813d8311610dff575b610de2818361196d565b81010312610dfb57518281168103610dfb57905f610cd1565b8a80fd5b503d610dd8565b5050346100fc57816003193601126100fc576020906003549051908152f35b5050346100fc57816003193601126100fc57517f00000000000000000000000000000000000000000000000000000000000000006001600160a01b03168152602090f35b919050346116e557610e7a36611c57565b9290917f00000000000000000000000000000000000000000000000000000000000000006001600160a01b03169190823b156116e55783925f928389610ed4898b519889978896879563247ccb9560e01b87528601611cc2565b03925af180156116db576116c2575b5090610eee91611e78565b91610ef883612057565b338552600191602092808452848720908060ff19835416178255428183015583838301558487015180519267ffffffffffffffff938481116116af5780610f42600884015461189c565b93601f9485811161165b575b5089908d8684116001146115f757926115ec575b50505f19600383901b1c191690841b1760088201555b8851805190858211611390578190610f93601285015461189c565b858111611598575b5089908d8684116001146115345792611529575b50505f19600383901b1c191690841b1760128201555b86890151805190858211611390578190610fe2601385015461189c565b8581116114d5575b5089908d8684116001146114715792611466575b50505f19600383901b1c191690841b1760138201555b87890151805190858211611390578190611031601485015461189c565b858111611412575b5089908d8684116001146113ae57926113a3575b50505f19600383901b1c191690841b1760148201555b60608901519081518581116113905761107f601583015461189c565b848111611348575b50888c8583116001146112e25790601694836112d7575b50505f19600383901b1c191690851b1760158201555b019360808901519081519485116112c457506110d0855461189c565b828111611281575b5089879285116001146112075793805f805160206124ff83398151915299979461043a9794829461042b9b98946111fc575b50501b915f199060031b1c19161790555b7ff3e9df557a77817375ddbb676dd4856f795b087c5aa2761c428d196445cba70884516060815261116360608201604090600681526554726164466960d01b60208201520190565b928482015242868201528033930390a26111d8602d82885198015197855198899166029b1b7b9329d160cd1b868401526111a68151809288602787019101611b2e565b820165010333937b6960d51b60278201526111c982518093888785019101611b2e565b0103600d81018952018761196d565b82519383859485528401604090600681526554726164466960d01b60208201520190565b015192505f8061110a565b50848a52868a209293929190601f1984168b5b81811061126c57509261042b98959285925f805160206124ff8339815191529b999661043a999610611254575b505050811b01905561111b565b01515f1960f88460031b161c191690555f8080611247565b8284015185559386019392890192890161121a565b858b52878b208380870160051c8201928a88106112bb575b0160051c019084905b8281106112b05750506110d8565b8c81550184906112a2565b92508192611299565b634e487b7160e01b8b526041905260248afd5b015190505f8061109e565b869291601f1983166015860183528c8320925b8d82821061133257505095836016971061131a575b505050811b0160158201556110b4565b01515f1960f88460031b161c191690555f808061130a565b8389015185558a969094019392830192016112f5565b601583018d52898d208580840160051c8201928c8510611387575b0160051c019086908e5b83821061137c57505050611087565b81550186908e61136d565b92508192611363565b634e487b7160e01b8c526041875260248cfd5b015190505f8061104d565b9190879450601f1984166014870184528c8420935b8d8282106113fc57505084116113e4575b505050811b016014820155611063565b01515f1960f88460031b161c191690555f80806113d4565b8385015186558a979095019493840193016113c3565b909150601484018d52898d208580850160051c8201928c861061145d575b859493910160051c9091019087908f5b83821061144f57505050611039565b81558594508891018f611440565b92508192611430565b015190505f80610ffe565b9190879450601f1984166013870184528c8420935b8d8282106114bf57505084116114a7575b505050811b016013820155611014565b01515f1960f88460031b161c191690555f8080611497565b8385015186558a97909501949384019301611486565b909150601384018d52898d208580850160051c8201928c8610611520575b859493910160051c9091019087908f5b83821061151257505050610fea565b81558594508891018f611503565b925081926114f3565b015190505f80610faf565b9190879450601f1984166012870184528c8420935b8d828210611582575050841161156a575b505050811b016012820155610fc5565b01515f1960f88460031b161c191690555f808061155a565b8385015186558a97909501949384019301611549565b909150601284018d52898d208580850160051c8201928c86106115e3575b859493910160051c9091019087908f5b8382106115d557505050610f9b565b81558594508891018f6115c6565b925081926115b6565b015190505f80610f62565b9190879450601f1984166008870184528c8420935b8d828210611645575050841161162d575b505050811b016008820155610f78565b01515f1960f88460031b161c191690555f808061161d565b8385015186558a9790950194938401930161160c565b909150600884018d52898d208580850160051c8201928c86106116a6575b859493910160051c9091019087908f5b83821061169857505050610f4e565b81558594508891018f611689565b92508192611679565b634e487b7160e01b8b526041865260248bfd5b610eee929195506116d2906118d4565b5f949091610ee3565b84513d5f823e3d90fd5b5f80fd5b9050346116e55760203660031901126116e5576001600160a01b0361170c611872565b165f52600160205281805f2080546001820154936002830154906003840154908401549260058501549060068601546007870154906008880161174e9061198f565b93600989015497600a8a015460ff1696600b8b0161176b90611a31565b9861177860128d01611a8a565b9b60170161178590611ae9565b9c519e8f9e8f916103409960ff8116151584528060081c60ff161515602085015260101c60ff1615159083015260608201526080015260a08d015260c08c015260e08b01526101008a01526101208901528061014089015287016117e891611b4f565b9261016087015215156101808601526101a0850161180591611b74565b83810361028085015261181791611bbd565b81516001600160a01b03166102a084015260208201516102c084015260408201516102e084015260608201516103008401526080909101516103208301520390f35b346116e5575f3660031901126116e55780602360209252f35b600435906001600160a01b03821682036116e557565b35906001600160a01b03821682036116e557565b90600182811c921680156118ca575b60208310146118b657565b634e487b7160e01b5f52602260045260245ffd5b91607f16916118ab565b67ffffffffffffffff81116118e857604052565b634e487b7160e01b5f52604160045260245ffd5b610200810190811067ffffffffffffffff8211176118e857604052565b60a0810190811067ffffffffffffffff8211176118e857604052565b60e0810190811067ffffffffffffffff8211176118e857604052565b6040810190811067ffffffffffffffff8211176118e857604052565b90601f8019910116810190811067ffffffffffffffff8211176118e857604052565b9060405191825f82546119a18161189c565b908184526020946001916001811690815f14611a0f57506001146119d1575b5050506119cf9250038361196d565b565b5f90815285812095935091905b8183106119f75750506119cf93508201015f80806119c0565b855488840185015294850194879450918301916119de565b925050506119cf94925060ff191682840152151560051b8201015f80806119c0565b90604051611a3e81611935565b82546001600160a01b0316815260018301546020820152600283015460408201526003830154606082015260048301546080820152600583015460a082015260069092015460c0830152565b90604051611a9781611919565b6080611ae460048395611aa98161198f565b8552611ab76001820161198f565b6020860152611ac86002820161198f565b6040860152611ad96003820161198f565b60608601520161198f565b910152565b90604051611af681611919565b82546001600160a01b031681526001830154602082015260028301546040820152600383015460608201526004909201546080830152565b5f5b838110611b3f5750505f910152565b8181015183820152602001611b30565b90602091611b6881518092818552858086019101611b2e565b601f01601f1916010190565b60c0809160018060a01b0381511684526020810151602085015260408101516040850152606081015160608501526080810151608085015260a081015160a08501520151910152565b611c26916080611c15611c03611bf1611bdf865160a0875260a0870190611b4f565b60208701518682036020880152611b4f565b60408601518582036040870152611b4f565b60608501518482036060860152611b4f565b920151906080818403910152611b4f565b90565b9181601f840112156116e55782359167ffffffffffffffff83116116e557602083818601950101116116e557565b60406003198201126116e55767ffffffffffffffff916004358381116116e55782611c8491600401611c29565b939093926024359182116116e557611c9e91600401611c29565b9091565b908060209392818452848401375f828201840152601f01601f1916010190565b9290611cdb90611c269593604086526040860191611ca2565b926020818503910152611ca2565b91908201809211611cf657565b634e487b7160e01b5f52601160045260245ffd5b15611d1157565b60405162461bcd60e51b815260206004820152601060248201526f082c6c6deeadce840dad2e6dac2e8c6d60831b6044820152606490fd5b60405190611d5682611919565b81608060609182815282602082015282604082015282808201520152565b67ffffffffffffffff81116118e857601f01601f191660200190565b81601f820112156116e557803590611da782611d74565b92611db5604051948561196d565b828452602083830101116116e557815f926020809301838601378301015290565b60405190611de382611935565b5f60c0838281528260208201528260408201528260608201528260808201528260a08201520152565b60405190611e1982611919565b5f6080838281528260208201528260408201528260608201520152565b81601f820112156116e5578051611e4c81611d74565b92611e5a604051948561196d565b818452602082840101116116e557611c269160208085019101611b2e565b90611e81611d49565b50611eac5f604093845180938192637fa408d960e01b83526020968760048501526024840191611ca2565b0381305afa5f9181611f83575b50611f7d5750671d995c9a599a595960c21b825192611ed784611919565b8051611ee281611951565b600381526203735360ec1b8482015284528051611efe81611951565b600d81526c1d1b1cdb8b5d995c9a599a5959609a1b84820152838501528051611f2681611951565b600a815269323032342d30312d313560b01b84820152818501528051611f4b81611951565b60078152663ab735b737bbb760c91b8482015260608501525191611f6e83611951565b60088352820152608082015290565b91505090565b9091503d805f833e611f95818361196d565b810183828203126116e557815167ffffffffffffffff928382116116e557019060a0828203126116e557855192611fcb84611919565b82518181116116e55782611fe0918501611e36565b8452858301518181116116e55782611ff9918501611e36565b86850152868301518181116116e55782612014918501611e36565b8785015260608301518181116116e55782612030918501611e36565b606085015260808301519081116116e55761204b9201611e36565b6080820152905f611eb9565b51905f915f5b81518110156120d1576120708183612374565b5160f81c6030811015806120c6575b61208d575b5060010161205d565b600a94919491828102928184041490151715611cf657602f190160ff91828211611cf6576001926120bf921690611ce9565b9390612084565b50603981111561207f565b505090610320811015612121576102ee81101561211b576102bc8110156121155761028a81101561210f57610258111561210a57601e90565b603290565b50604190565b50604b90565b50605590565b50605f90565b60018060a01b0380911690815f5260016020526040805f205f905f93815460ff81168061233b575b61231d575b60ff8160081c168061230a575b6122de575b60101c60ff16806122cb575b6122a3575b6007820180549095909381158061229857612284570480955b5542600983015584612231575b50600a0160ff8154867f2743c09acd09f346fca50195f8b4ebf3056ef088f466f98e2bcfc562277146c8606060238910159687968688168719871617905588519081528960208201528689820152a2161515036121fb575b50505050565b7f74e405d0b260e01bf8bb805b85863b0197c75af32ab8952941f349c81f67492c9282519182526020820152a25f8080806121f5565b5f5416803b156116e5575f8091604486518094819363a75b24c760e01b83523360048401528a60248401525af180156116db5790600a9291612275575b509061219d565b61227e906118d4565b5f61226e565b634e487b7160e01b5f52601260045260245ffd5b5050505f8095612190565b93916122c5906122bf60068401549161026c6004548094612361565b93611ce9565b93612177565b506122d9600383015461234e565b612172565b949261230260ff916122fc60058601549161026c6003548094612361565b95611ce9565b959050612166565b50612318600284015461234e565b612161565b945091506004810154916123346002548094612361565b9294612154565b50612349600184015461234e565b61214f565b62278d008101809111611cf65742111590565b81810292918115918404141715611cf657565b908151811015612385570160200190565b634e487b7160e01b5f52603260045260245ffd5b80156124555780815f925b61243e5750806123b383611d74565b926123c1604051948561196d565b808452601f196123d082611d74565b01366020860137915b6123e257505090565b5f198201918211611cf65781600a9182810492808402908482041484151715611cf6578103908111611cf65760ff809116603001908111611cf65760f81b6001600160f81b0319165f1a906124379085612374565b53806123d9565b915f198114611cf6576001600a91019204806123a4565b5060405161246281611951565b60018152600360fc1b602082015290565b670de0b6b3a7640000810460648110156124be57600a8110156124b757600111156124b15767016345785d8a000011156124ac57600a90565b600f90565b50601490565b5050601990565b5050601e90565b6103e88110156124f85760648110156124b157600a8110156124f257600111156124ed575f90565b600a90565b50600f90565b5060199056fe52fd0ce03bb9cae00f43ca137835ddd590733f99ab7866f37f67bd582d2c16dea2646970667358221220960c3cfdee9ed63ce644474e2e5a08c1405ee4ce037393e8925c6f29740ef4c764736f6c63430008180033",
  "linkReferences": {},
  "deployedLinkReferences": {}
}