{
  "_format": "hh-sol-artifact-1",
  "contractName": "InterestRateModel",
  "sourceName": "backend/contracts/InterestRateModel.sol",
  "abi": [
    {
      "inputs": [
        {
          "internalType": "address",
          "name": "_ethUsdOracle",
          "type": "address"
        },
        {
          "internalType": "address",
          "name": "_timelock",
          "type": "address"
        },
        {
          "internalType": "uint256",
          "name": "_baseRate",
          "type": "uint256"
        },
        {
          "internalType": "uint256",
          "name": "_kink",
          "type": "uint256"
        },
        {
          "internalType": "uint256",
          "name": "_slope1",
          "type": "uint256"
        },
        {
          "internalType": "uint256",
          "name": "_slope2",
          "type": "uint256"
        },
        {
          "internalType": "uint256",
          "name": "_reserveFactor",
          "type": "uint256"
        },
        {
          "internalType": "uint256",
          "name": "_maxBorrowRate",
          "type": "uint256"
        },
        {
          "internalType": "uint256",
          "name": "_maxRateChange",
          "type": "uint256"
        },
        {
          "internalType": "uint256",
          "name": "_ethPriceRiskPremium",
          "type": "uint256"
        },
        {
          "internalType": "uint256",
          "name": "_ethVolatilityThreshold",
          "type": "uint256"
        },
        {
          "internalType": "uint256",
          "name": "_oracleStalenessWindow",
          "type": "uint256"
        }
      ],
      "stateMutability": "nonpayable",
      "type": "constructor"
    },
    {
      "inputs": [],
      "name": "OnlyTimelockInterestRateModel",
      "type": "error"
    },
    {
      "inputs": [],
      "name": "OracleNotSet",
      "type": "error"
    },
    {
      "inputs": [],
      "name": "StaleOracle",
      "type": "error"
    },
    {
      "anonymous": false,
      "inputs": [
        {
          "indexed": true,
          "internalType": "address",
          "name": "newOracle",
          "type": "address"
        }
      ],
      "name": "OracleUpdated",
      "type": "event"
    },
    {
      "anonymous": false,
      "inputs": [],
      "name": "ParametersUpdated",
      "type": "event"
    },
    {
      "anonymous": false,
      "inputs": [
        {
          "indexed": false,
          "internalType": "uint256",
          "name": "cappedRate",
          "type": "uint256"
        }
      ],
      "name": "RatesCapped",
      "type": "event"
    },
    {
      "inputs": [],
      "name": "baseRate",
      "outputs": [
        {
          "internalType": "uint256",
          "name": "",
          "type": "uint256"
        }
      ],
      "stateMutability": "view",
      "type": "function"
    },
    {
      "inputs": [],
      "name": "ethPriceRiskPremium",
      "outputs": [
        {
          "internalType": "uint256",
          "name": "",
          "type": "uint256"
        }
      ],
      "stateMutability": "view",
      "type": "function"
    },
    {
      "inputs": [],
      "name": "ethUsdOracle",
      "outputs": [
        {
          "internalType": "address",
          "name": "",
          "type": "address"
        }
      ],
      "stateMutability": "view",
      "type": "function"
    },
    {
      "inputs": [],
      "name": "ethVolatilityThreshold",
      "outputs": [
        {
          "internalType": "uint256",
          "name": "",
          "type": "uint256"
        }
      ],
      "stateMutability": "view",
      "type": "function"
    },
    {
      "inputs": [
        {
          "internalType": "uint256",
          "name": "utilization",
          "type": "uint256"
        }
      ],
      "name": "getBorrowRate",
      "outputs": [
        {
          "internalType": "uint256",
          "name": "",
          "type": "uint256"
        }
      ],
      "stateMutability": "view",
      "type": "function"
    },
    {
      "inputs": [
        {
          "internalType": "uint256",
          "name": "riskTier",
          "type": "uint256"
        }
      ],
      "name": "getBorrowerRate",
      "outputs": [
        {
          "internalType": "uint256",
          "name": "",
          "type": "uint256"
        }
      ],
      "stateMutability": "view",
      "type": "function"
    },
    {
      "inputs": [
        {
          "internalType": "uint256",
          "name": "totalBorrowed",
          "type": "uint256"
        },
        {
          "internalType": "uint256",
          "name": "totalSupplied",
          "type": "uint256"
        }
      ],
      "name": "getCurrentRates",
      "outputs": [
        {
          "internalType": "uint256",
          "name": "",
          "type": "uint256"
        },
        {
          "internalType": "uint256",
          "name": "",
          "type": "uint256"
        }
      ],
      "stateMutability": "view",
      "type": "function"
    },
    {
      "inputs": [],
      "name": "getEthPrice",
      "outputs": [
        {
          "internalType": "uint256",
          "name": "price",
          "type": "uint256"
        },
        {
          "internalType": "uint256",
          "name": "updatedAt",
          "type": "uint256"
        }
      ],
      "stateMutability": "view",
      "type": "function"
    },
    {
      "inputs": [
        {
          "internalType": "uint256",
          "name": "riskMult",
          "type": "uint256"
        },
        {
          "internalType": "uint256",
          "name": "repayMult",
          "type": "uint256"
        }
      ],
      "name": "getGlobalRiskMultiplier",
      "outputs": [
        {
          "internalType": "uint256",
          "name": "",
          "type": "uint256"
        }
      ],
      "stateMutability": "pure",
      "type": "function"
    },
    {
      "inputs": [
        {
          "internalType": "uint256",
          "name": "totalBorrowed",
          "type": "uint256"
        },
        {
          "internalType": "uint256",
          "name": "totalRepaid",
          "type": "uint256"
        }
      ],
      "name": "getRepaymentRatio",
      "outputs": [
        {
          "internalType": "uint256",
          "name": "",
          "type": "uint256"
        }
      ],
      "stateMutability": "pure",
      "type": "function"
    },
    {
      "inputs": [
        {
          "internalType": "uint256",
          "name": "repaymentRatio",
          "type": "uint256"
        }
      ],
      "name": "getRepaymentRiskMultiplier",
      "outputs": [
        {
          "internalType": "uint256",
          "name": "",
          "type": "uint256"
        }
      ],
      "stateMutability": "pure",
      "type": "function"
    },
    {
      "inputs": [
        {
          "internalType": "uint256",
          "name": "weightedScore",
          "type": "uint256"
        }
      ],
      "name": "getRiskMultiplier",
      "outputs": [
        {
          "internalType": "uint256",
          "name": "",
          "type": "uint256"
        }
      ],
      "stateMutability": "pure",
      "type": "function"
    },
    {
      "inputs": [
        {
          "internalType": "uint256",
          "name": "utilization",
          "type": "uint256"
        },
        {
          "internalType": "uint256",
          "name": "borrowRate",
          "type": "uint256"
        }
      ],
      "name": "getSupplyRate",
      "outputs": [
        {
          "internalType": "uint256",
          "name": "",
          "type": "uint256"
        }
      ],
      "stateMutability": "view",
      "type": "function"
    },
    {
      "inputs": [
        {
          "internalType": "uint256[4]",
          "name": "borrowedByTier",
          "type": "uint256[4]"
        }
      ],
      "name": "getWeightedRiskScore",
      "outputs": [
        {
          "internalType": "uint256",
          "name": "",
          "type": "uint256"
        }
      ],
      "stateMutability": "pure",
      "type": "function"
    },
    {
      "inputs": [],
      "name": "kink",
      "outputs": [
        {
          "internalType": "uint256",
          "name": "",
          "type": "uint256"
        }
      ],
      "stateMutability": "view",
      "type": "function"
    },
    {
      "inputs": [],
      "name": "lastBorrowRate",
      "outputs": [
        {
          "internalType": "uint256",
          "name": "",
          "type": "uint256"
        }
      ],
      "stateMutability": "view",
      "type": "function"
    },
    {
      "inputs": [],
      "name": "lastEthPrice",
      "outputs": [
        {
          "internalType": "uint256",
          "name": "",
          "type": "uint256"
        }
      ],
      "stateMutability": "view",
      "type": "function"
    },
    {
      "inputs": [],
      "name": "lastEthPriceTimestamp",
      "outputs": [
        {
          "internalType": "uint256",
          "name": "",
          "type": "uint256"
        }
      ],
      "stateMutability": "view",
      "type": "function"
    },
    {
      "inputs": [],
      "name": "lastUpdateTimestamp",
      "outputs": [
        {
          "internalType": "uint256",
          "name": "",
          "type": "uint256"
        }
      ],
      "stateMutability": "view",
      "type": "function"
    },
    {
      "inputs": [],
      "name": "maxBorrowRate",
      "outputs": [
        {
          "internalType": "uint256",
          "name": "",
          "type": "uint256"
        }
      ],
      "stateMutability": "view",
      "type": "function"
    },
    {
      "inputs": [],
      "name": "maxRateChange",
      "outputs": [
        {
          "internalType": "uint256",
          "name": "",
          "type": "uint256"
        }
      ],
      "stateMutability": "view",
      "type": "function"
    },
    {
      "inputs": [],
      "name": "oracleStalenessWindow",
      "outputs": [
        {
          "internalType": "uint256",
          "name": "",
          "type": "uint256"
        }
      ],
      "stateMutability": "view",
      "type": "function"
    },
    {
      "inputs": [],
      "name": "protocolRiskAdjustment",
      "outputs": [
        {
          "internalType": "int256",
          "name": "",
          "type": "int256"
        }
      ],
      "stateMutability": "view",
      "type": "function"
    },
    {
      "inputs": [],
      "name": "reserveFactor",
      "outputs": [
        {
          "internalType": "uint256",
          "name": "",
          "type": "uint256"
        }
      ],
      "stateMutability": "view",
      "type": "function"
    },
    {
      "inputs": [
        {
          "internalType": "address",
          "name": "newOracle",
          "type": "address"
        }
      ],
      "name": "setOracle",
      "outputs": [],
      "stateMutability": "nonpayable",
      "type": "function"
    },
    {
      "inputs": [
        {
          "internalType": "uint256",
          "name": "_baseRate",
          "type": "uint256"
        },
        {
          "internalType": "uint256",
          "name": "_kink",
          "type": "uint256"
        },
        {
          "internalType": "uint256",
          "name": "_slope1",
          "type": "uint256"
        },
        {
          "internalType": "uint256",
          "name": "_slope2",
          "type": "uint256"
        },
        {
          "internalType": "uint256",
          "name": "_reserveFactor",
          "type": "uint256"
        },
        {
          "internalType": "uint256",
          "name": "_maxBorrowRate",
          "type": "uint256"
        },
        {
          "internalType": "uint256",
          "name": "_maxRateChange",
          "type": "uint256"
        },
        {
          "internalType": "uint256",
          "name": "_ethPriceRiskPremium",
          "type": "uint256"
        },
        {
          "internalType": "uint256",
          "name": "_ethVolatilityThreshold",
          "type": "uint256"
        },
        {
          "internalType": "uint256",
          "name": "_oracleStalenessWindow",
          "type": "uint256"
        }
      ],
      "name": "setParameters",
      "outputs": [],
      "stateMutability": "nonpayable",
      "type": "function"
    },
    {
      "inputs": [
        {
          "internalType": "int256",
          "name": "adjustment",
          "type": "int256"
        }
      ],
      "name": "setProtocolRiskAdjustment",
      "outputs": [],
      "stateMutability": "nonpayable",
      "type": "function"
    },
    {
      "inputs": [
        {
          "internalType": "uint256",
          "name": "utilization",
          "type": "uint256"
        }
      ],
      "name": "simulateRates",
      "outputs": [
        {
          "internalType": "uint256",
          "name": "",
          "type": "uint256"
        },
        {
          "internalType": "uint256",
          "name": "",
          "type": "uint256"
        }
      ],
      "stateMutability": "view",
      "type": "function"
    },
    {
      "inputs": [],
      "name": "slope1",
      "outputs": [
        {
          "internalType": "uint256",
          "name": "",
          "type": "uint256"
        }
      ],
      "stateMutability": "view",
      "type": "function"
    },
    {
      "inputs": [],
      "name": "slope2",
      "outputs": [
        {
          "internalType": "uint256",
          "name": "",
          "type": "uint256"
        }
      ],
      "stateMutability": "view",
      "type": "function"
    },
    {
      "inputs": [],
      "name": "timelock",
      "outputs": [
        {
          "internalType": "address",
          "name": "",
          "type": "address"
        }
      ],
      "stateMutability": "view",
      "type": "function"
    }
  ],
  "bytecode": "0x608080604052346102c45761018081612045803803809161002082856102c8565b8339810103126102c457610033816102ff565b90610040602082016102ff565b906040810151926060820151608083015160a084015160c08501519060e08601519261010087015194610120880151966101606101408a01519901519961009b6040805167e02ecb0ab43f6c3c6020820152602081526102c8565b6100b960408051671abab4d4482b9cb86020820152602081526102c8565b60018060a01b031660018060a01b031960105416176010556100ef6040805167e3b85ff493a5661c6020820152602081526102c8565b60018060a01b031660018060a01b0319600c541617600c5561012560408051678be41e410174c1816020820152602081526102c8565b895f5561014660408051670e6aa6318f5654c36020820152602081526102c8565b6001556101676040805167173f7ed5064f2c146020820152602081526102c8565b6002556101876040805166de9b6424300ac06020820152602081526102c8565b6003556101a86040805167bbcbd613efbec7c36020820152602081526102c8565b6004556101c96040805167ce1e6098705ee7846020820152602081526102c8565b6005556101ea6040805167e56068f4c55cebb36020820152602081526102c8565b60065561020b6040805167481cc07950ddf5a36020820152602081526102c8565b60075561022c60408051674fd3a2dccb0c27646020820152602081526102c8565b60085561024d6040805167e5231c968d4d49b06020820152602081526102c8565b600b5561026e604080516706ce927edaa6fae76020820152602081526102c8565b5f600f556102906040805167dfec8e3b793197e76020820152602081526102c8565b6009556102b16040805167e9f231252e77fbea6020820152602081526102c8565b42600a55604051611d3190816103148239f35b5f80fd5b601f909101601f19168101906001600160401b038211908210176102eb57604052565b634e487b7160e01b5f52604160045260245ffd5b51906001600160a01b03821682036102c45756fe6080806040526004361015610012575f80fd5b5f3560e01c9081630730eb5614610e0c575080630f54772814610d905780630fa42b5a14610d7357806314bcec9f14610d5657806318ad418514610d385780631f68f20a14610d1c5780632a11a8a014610d035780634322b71414610ce65780634bdc9eaa14610c4957806367c9b01714610a245780637038fc4e14610a07578063764defb4146109ee57806377398f48146109d15780637adbf9731461082e5780638a97f9c9146108065780639b9066ca146107e15780639ea90e321461077e5780639fa83b5a14610760578063a52e39ab14610743578063a62b75a814610726578063c0798fe414610695578063c0f2c3c314610678578063d0134cb71461065b578063d33219b414610633578063e178dc5c14610616578063e28aa8f8146105f9578063e57ba155146105dc578063e89d92b8146105b6578063f2e140901461031c578063fd2da339146102ff5763fe98a36014610171575f80fd5b346102fb5760203660031901126102fb576101a06040805167ba514efafb248dc7602082015260208152610e26565b6101be604080516755d6073525434dfe602082015260208152610e26565b6101dc6040805167d8a1eb550857b80c602082015260208152610e26565b6010546001600160a01b0316331461021b5761020c604080516763966611a2c4563e602082015260208152610e26565b630659530560e21b5f5260045ffd5b6102396040805167140a31da181dbcbe602082015260208152610e26565b6102576040805167d3da1f804cc7fe06602082015260208152610e26565b6102756040805167ae00e82550105476602082015260208152610e26565b610293604080516720b51387422d1dae602082015260208152610e26565b6102b160408051675d8072b7a3d9bb49602082015260208152610e26565b600435600f556102d5604080516724ffe5bc20a311a1602082015260208152610e26565b7f1e75f48d565290d5600a063ae01f58a35d4cd270ef71d444bbeb914224ca5d775f80a1005b5f80fd5b346102fb575f3660031901126102fb576020600154604051908152f35b346102fb576101403660031901126102fb5761034c60408051678140897768e56221602082015260208152610e26565b61036a604080516755d6073525434dfe602082015260208152610e26565b6103886040805167d8a1eb550857b80c602082015260208152610e26565b6010546001600160a01b031633146103b85761020c604080516763966611a2c4563e602082015260208152610e26565b6103d66040805167140a31da181dbcbe602082015260208152610e26565b6103f46040805167d3da1f804cc7fe06602082015260208152610e26565b6104126040805167bca83b4380e85840602082015260208152610e26565b6104306040805167d90763ae0c852742602082015260208152610e26565b61044e604080516733e8588b1b835358602082015260208152610e26565b6004355f5561047160408051675fdd2547803b9a83602082015260208152610e26565b602435600155610495604080516791dab8d13a367813602082015260208152610e26565b6044356002556104b960408051670746bc72618110b5602082015260208152610e26565b6064356003556104dd6040805167486bc7b5ad8039a3602082015260208152610e26565b60843560045561050160408051675ba67c92aa279fd4602082015260208152610e26565b60a4356005556105256040805167076ccd185f0f2a56602082015260208152610e26565b60c43560065561054960408051679027c9e39c1351b7602082015260208152610e26565b60e43560075561056d6040805167b354bad2c292fd2b602082015260208152610e26565b610104356008556105916040805166a4db604b3b799c602082015260208152610e26565b61012435600b556102d5604080516794d3510a5f996537602082015260208152610e26565b346102fb5760203660031901126102fb5760206105d4600435611b76565b604051908152f35b346102fb575f3660031901126102fb576020600e54604051908152f35b346102fb575f3660031901126102fb576020600f54604051908152f35b346102fb575f3660031901126102fb576020600854604051908152f35b346102fb575f3660031901126102fb576010546040516001600160a01b039091168152602090f35b346102fb575f3660031901126102fb576020600354604051908152f35b346102fb575f3660031901126102fb576020600654604051908152f35b346102fb5760203660031901126102fb576004356106c76040805167892cbb1d05fbbaa4602082015260208152610e26565b6106e560408051676001383a06024737602082015260208152610e26565b5f54662386f26fc10000820291808304662386f26fc100001490151715610712576020916105d491610e71565b634e487b7160e01b5f52601160045260245ffd5b346102fb575f3660031901126102fb576020600254604051908152f35b346102fb575f3660031901126102fb576020600b54604051908152f35b346102fb5760203660031901126102fb5760206105d4600435611622565b346102fb576020670de0b6b3a76400006107d861079a36610e48565b906107b76040805167ee2a6f78fe5e544988820152878152610e26565b6107d36040805167a40aa0fb75ec7b0888820152878152610e26565b610e5e565b04604051908152f35b346102fb5760406107fa6107f436610e48565b90611433565b82519182526020820152f35b346102fb575f3660031901126102fb57600c546040516001600160a01b039091168152602090f35b346102fb5760203660031901126102fb576004356001600160a01b038116908190036102fb5761087260408051678df6b7bcc840cf04602082015260208152610e26565b610890604080516755d6073525434dfe602082015260208152610e26565b6108ae6040805167d8a1eb550857b80c602082015260208152610e26565b6010546001600160a01b031633146108de5761020c604080516763966611a2c4563e602082015260208152610e26565b6108fc6040805167140a31da181dbcbe602082015260208152610e26565b61091a6040805167d3da1f804cc7fe06602082015260208152610e26565b6109386040805167b3d873c575820157602082015260208152610e26565b6109566040805167f25320a2eeed8749602082015260208152610e26565b61097460408051670f9d53cc3d0ca944602082015260208152610e26565b806bffffffffffffffffffffffff60a01b600c541617600c556109ab6040805167e6b2e856d683662b602082015260208152610e26565b7f3df77beb5db05fcdd70a30fc8adf3f83f9501b68579455adbd100b81809403945f80a2005b346102fb575f3660031901126102fb576020600754604051908152f35b346102fb5760206105d4610a0136610e48565b9061136c565b346102fb575f3660031901126102fb576020600d54604051908152f35b346102fb575f3660031901126102fb57610a526040805167d564011752d0c97e602082015260208152610e26565b610a706040805167733b0ed0d26ba73f602082015260208152610e26565b600c546001600160a01b031680610aae57610a9f6040805167daafb5b2e3c90b3e602082015260208152610e26565b633e1e538160e21b5f5260045ffd5b60a0600491610ad16040805167a06ff949f9a837d8602082015260208152610e26565b610aef6040805167a323a30c928f9153602082015260208152610e26565b610b0d6040805167278748c757d980a3602082015260208152610e26565b604051633fabe5a360e21b815292839182905afa908115610c3e575f905f92610beb575b50610b506040805167f3be398b9cfe8343602082015260208152610e26565b610b5a824261120f565b600b541015610bae57610b816040805167b4b58749ae956555602082015260208152610e26565b610b9f60408051675b2aeffe14368e3c602082015260208152610e26565b6388cce42960e01b5f5260045ffd5b604091610bce8380516763a14db7fb4ed9df602082015260208152610e26565b6107fa83805167e4ecf16d36d92896602082015260208152610e26565b91505060a0813d60a011610c36575b81610c0760a09383610e26565b810103126102fb57610c1881611355565b506020810151610c2f608060608401519301611355565b5082610b31565b3d9150610bfa565b6040513d5f823e3d90fd5b346102fb5760203660031901126102fb576040600435610c7c828051673371307690d96fe7602082015260208152610e26565b610c9982805167278fde7fdd33dba3602082015260208152610e26565b610cc9610ca582611622565b8092610cc485805167713e1dcf84e84d43602082015260208152610e26565b61121c565b6107fa83805167e539507a2418a64e602082015260208152610e26565b346102fb575f3660031901126102fb576020600454604051908152f35b346102fb5760206105d4610d1636610e48565b9061121c565b346102fb575f3660031901126102fb5760205f54604051908152f35b346102fb5760203660031901126102fb5760206105d460043561101b565b346102fb575f3660031901126102fb576020600a54604051908152f35b346102fb575f3660031901126102fb576020600554604051908152f35b346102fb5760803660031901126102fb5736602312156102fb576040516080810181811067ffffffffffffffff821117610df85760405280366084116102fb576020916004915b60848310610de957836105d483610e9c565b82358152918301918301610dd7565b634e487b7160e01b5f52604160045260245ffd5b346102fb575f3660031901126102fb576020906009548152f35b90601f8019910116810190811067ffffffffffffffff821117610df857604052565b60409060031901126102fb576004359060243590565b8181029291811591840414171561071257565b9190820180921161071257565b8115610e88570490565b634e487b7160e01b5f52601260045260245ffd5b610eba6040805167a44ac79a001ea259602082015260208152610e26565b610ed86040805167655f4540db666509602082015260208152610e26565b80518080046001148115171561071257602082019081518060011b908082046002149015171561071257610f0b91610e71565b6040830190815160038102908082046003149015171561071257610f2e91610e71565b606084019182518060021b908082046004149015171561071257610f8c94610f5c610f8492610f8495610e71565b96610f7b60408051672603065f4c868ee2602082015260208152610e26565b51905190610e71565b905190610e71565b610faa6040805167b3abc9d6d9b27e18602082015260208152610e26565b80610fd3575050610fcf6040805167a6b3fc03fb3cd322602082015260208152610e26565b5f90565b61101891610ff56040805167e561e88a643675f1602082015260208152610e26565b6110136040805167bd39190c096731c9602082015260208152610e26565b610e7e565b90565b611039604080516758b0fa56ef751b5a602082015260208152610e26565b61105760408051672f839a241538c089602082015260208152610e26565b80611087575061107b6040805167815ca4d07bae9172602082015260208152610e26565b670de0b6b3a764000090565b6110a560408051671972c7b08f5da693602082015260208152610e26565b6110c3604080516717217a9c5a765396602082015260208152610e26565b600181116110f657506110ea604080516702e38b74bd106920602082015260208152610e26565b670c7d713b49da000090565b6111146040805167e02fd7beae97ad7e602082015260208152610e26565b6111326040805167a2440c7fffb36c63602082015260208152610e26565b60028111611159575061107b6040805167a4bf1102fbd6a836602082015260208152610e26565b60039061117a604080516757dd324809ed961b602082015260208152610e26565b6111986040805167fee94c205873c9fe602082015260208152610e26565b116111c7576111bb60408051674cc356549c2fc189602082015260208152610e26565b670f43fc2c04ee000090565b6111e560408051677035dd92d1cdeb3f602082015260208152610e26565b61120360408051671e9a516d0a20e668602082015260208152610e26565b6710a741a46278000090565b9190820391821161071257565b9061123b60408051670b078a768dd2d3e6602082015260208152610e26565b6112596040805167ac4f9e6491f4a9be602082015260208152610e26565b6112776040805167fc2fa176268d0f57602082015260208152610e26565b60045480670de0b6b3a764000010611318576112a76040805167a2ba7aaa40848f3a602082015260208152610e26565b6112c5604080516769acc9c71e4f9450602082015260208152610e26565b670de0b6b3a764000003670de0b6b3a76400008111610712576107d3611314926ec097ce7bc90715b34b9f1000000000946107d360408051671b456765383cbe23602082015260208152610e26565b0490565b60405162461bcd60e51b815260206004820152601560248201527424b73b30b634b2103932b9b2b93b32a330b1ba37b960591b6044820152606490fd5b519069ffffffffffffffffffff821682036102fb57565b61138a6040805167ce8b4ccdaf4c3cda602082015260208152610e26565b6113a86040805167df39486d05bd4ee9602082015260208152610e26565b806113cd57505061107b6040805167f0e7fb7274f452f6602082015260208152610e26565b6113eb604080516743ed9e166d485f5c602082015260208152610e26565b6114096040805167fe5dbe6a9a620f30602082015260208152610e26565b670de0b6b3a7640000820291808304670de0b6b3a764000014901517156107125761101891610e7e565b9061145260408051674d50d3142625877d602082015260208152610e26565b61147060408051675ab7fd293181dd94602082015260208152610e26565b8015801561149f57505050611499604080516709486eb9520074dd602082015260208152610e26565b5f905f90565b6114bd60408051678663d1523ca6b347602082015260208152610e26565b6114db6040805167c082ac5e93738a2a602082015260208152610e26565b6114f96040805167571160a4d0e9cecd602082015260208152610e26565b6115d15761151b6040805167d7fee4ca06842f53602082015260208152610e26565b61153960408051678197dc8fbb08abf7602082015260208152610e26565b670de0b6b3a7640000820291808304670de0b6b3a764000014901517156107125761156391610e7e565b9061158260408051676fd67174ca91cb7a602082015260208152610e26565b6115ae61158e83611622565b8093610cc460408051677f458e1374d67999602082015260208152610e26565b916115cd60408051676f9e0a619083f423602082015260208152610e26565b9190565b60405162461bcd60e51b815260206004820152602360248201527f4469766973696f6e206279207a65726f20696e2067657443757272656e74526160448201526274657360e81b6064820152608490fd5b6116406040805167e78d3cc1bf250912602082015260208152610e26565b61165e604080516772cdc27b3fcfa1ba602082015260208152610e26565b61167c60408051679c7d870de7a3801a602082015260208152610e26565b6001549081811161194b576116a56040805167c59c5b6341ff776e602082015260208152610e26565b6116c3604080516789e1eb30bbed1870602082015260208152610e26565b6116e16040805167261c4bf2ae6f050c602082015260208152610e26565b81156118f65761173861173e9261170c60408051674daca3e02543b58a602082015260208152610e26565b61172a6040805167998f487213f4fb51602082015260208152610e26565b6110135f5493600254610e5e565b90610e71565b61175c604080516714bf0a15e5a6614f602082015260208152610e26565b600f54905f82131561185857906117ae9161178b604080516711449af8ab71295c602082015260208152610e26565b6117a96040805167b92cd7e17cc354fa602082015260208152610e26565b610e71565b6117cc6040805167aa51c2dec02c62f0602082015260208152610e26565b600554908181111561183357506117f760408051679e8f903476868c7a602082015260208152610e26565b61181560408051671c291bf6aed3341c602082015260208152610e26565b61101860408051671f25f0669d42a5d7602082015260208152610e26565b9050611853604080516766f66d5825cb26e3602082015260208152610e26565b611815565b611876604080516764ceb720f5716a8f602082015260208152610e26565b5f8212156118d65761189c604080516787bbe8304422b06a602082015260208152610e26565b6118ba6040805167704d34ab97b9a3d4602082015260208152610e26565b600160ff1b8214610712576118d1915f039061120f565b6117ae565b90506118d1604080516725babd2382d1b9d6602082015260208152610e26565b60405162461bcd60e51b815260206004820152602760248201527f4469766973696f6e206279207a65726f20696e20676574426f72726f77526174604482015266653a206b696e6b60c81b6064820152608490fd5b6119696040805167d11c0dfdd7369adb602082015260208152610e26565b61198760408051679b701f40bae2ac50602082015260208152610e26565b6119a56040805167f7810786f237dac1602082015260208152610e26565b81670de0b6b3a76400001115611b3c57816119fb916119d86040805167a63f2e7c72ed2ae4602082015260208152610e26565b6119f66040805167a9880c99311bef8a602082015260208152610e26565b61120f565b611a196040805167703063904851ee63602082015260208152610e26565b81670de0b6b3a76400000391670de0b6b3a7640000831161071257611a526040805167da99dbc318e527c2602082015260208152610e26565b611a706040805167a238414630ee13cf602082015260208152610e26565b670de0b6b3a764000014611ae057611738611adb92611aa3604080516738b360053e0c66d6602082015260208152610e26565b611ac1604080516781cf16f6c83c20ce602082015260208152610e26565b611013611ad25f5460025490610e71565b93600354610e5e565b61173e565b60405162461bcd60e51b815260206004820152602e60248201527f4469766973696f6e206279207a65726f20696e20676574426f72726f7752617460448201526d329d103232b737b6b4b730ba37b960911b6064820152608490fd5b60405162461bcd60e51b8152602060048201526012602482015271496e76616c6964206b696e6b2076616c756560701b6044820152606490fd5b611b946040805167622e1579ea892f7e602082015260208152610e26565b611bb260408051672348c1cdb32e7136602082015260208152610e26565b670d2f13f7789f00008110611be0575061107b6040805167375c5c21a10410ef602082015260208152610e26565b611bfe6040805167d7423e1f689d67ec602082015260208152610e26565b611c1c604080516714e8d06f8122019d602082015260208152610e26565b670c7d713b49da00008110611c565750611c4a604080516790af1ef7c05a681f602082015260208152610e26565b670e92596fd629000090565b670b1a2bc2ec50000090611c7e60408051671b75082db8f6b30b602082015260208152610e26565b611c9c6040805167bdc002f19f0f858a602082015260208152610e26565b10611cbf576111bb604080516780fba7721600db9e602082015260208152610e26565b611cdd6040805167e6127a0d1a66c288602082015260208152610e26565b6112036040805167153bfc8293cc3dc9602082015260208152610e2656fea264697066735822122008039c2e459a50c5c415528ce4c3a88e57505bb9714d9d3e0a3b8cc53c0b897d64736f6c634300081c0033",
  "linkReferences": {},
  "deployedLinkReferences": {}
}