{
  "_format": "hh-sol-artifact-1",
  "contractName": "InterestRateModel",
  "sourceName": "contracts/InterestRateModel.sol",
  "abi": [
    {
      "inputs": [
        {
          "internalType": "address",
          "name": "_ethUsdOracle",
          "type": "address"
        },
        {
          "internalType": "address",
          "name": "_timelock",
          "type": "address"
        },
        {
          "internalType": "uint256",
          "name": "_baseRate",
          "type": "uint256"
        },
        {
          "internalType": "uint256",
          "name": "_kink",
          "type": "uint256"
        },
        {
          "internalType": "uint256",
          "name": "_slope1",
          "type": "uint256"
        },
        {
          "internalType": "uint256",
          "name": "_slope2",
          "type": "uint256"
        },
        {
          "internalType": "uint256",
          "name": "_reserveFactor",
          "type": "uint256"
        },
        {
          "internalType": "uint256",
          "name": "_maxBorrowRate",
          "type": "uint256"
        },
        {
          "internalType": "uint256",
          "name": "_maxRateChange",
          "type": "uint256"
        },
        {
          "internalType": "uint256",
          "name": "_ethPriceRiskPremium",
          "type": "uint256"
        },
        {
          "internalType": "uint256",
          "name": "_ethVolatilityThreshold",
          "type": "uint256"
        },
        {
          "internalType": "uint256",
          "name": "_oracleStalenessWindow",
          "type": "uint256"
        }
      ],
      "stateMutability": "nonpayable",
      "type": "constructor"
    },
    {
      "inputs": [],
      "name": "OnlyTimelockInterestRateModel",
      "type": "error"
    },
    {
      "inputs": [],
      "name": "OracleNotSet",
      "type": "error"
    },
    {
      "inputs": [],
      "name": "StaleOracle",
      "type": "error"
    },
    {
      "anonymous": false,
      "inputs": [
        {
          "indexed": true,
          "internalType": "address",
          "name": "newOracle",
          "type": "address"
        }
      ],
      "name": "OracleUpdated",
      "type": "event"
    },
    {
      "anonymous": false,
      "inputs": [],
      "name": "ParametersUpdated",
      "type": "event"
    },
    {
      "anonymous": false,
      "inputs": [
        {
          "indexed": false,
          "internalType": "uint256",
          "name": "cappedRate",
          "type": "uint256"
        }
      ],
      "name": "RatesCapped",
      "type": "event"
    },
    {
      "inputs": [],
      "name": "baseRate",
      "outputs": [
        {
          "internalType": "uint256",
          "name": "",
          "type": "uint256"
        }
      ],
      "stateMutability": "view",
      "type": "function"
    },
    {
      "inputs": [],
      "name": "ethPriceRiskPremium",
      "outputs": [
        {
          "internalType": "uint256",
          "name": "",
          "type": "uint256"
        }
      ],
      "stateMutability": "view",
      "type": "function"
    },
    {
      "inputs": [],
      "name": "ethUsdOracle",
      "outputs": [
        {
          "internalType": "address",
          "name": "",
          "type": "address"
        }
      ],
      "stateMutability": "view",
      "type": "function"
    },
    {
      "inputs": [],
      "name": "ethVolatilityThreshold",
      "outputs": [
        {
          "internalType": "uint256",
          "name": "",
          "type": "uint256"
        }
      ],
      "stateMutability": "view",
      "type": "function"
    },
    {
      "inputs": [
        {
          "internalType": "uint256",
          "name": "utilization",
          "type": "uint256"
        }
      ],
      "name": "getBorrowRate",
      "outputs": [
        {
          "internalType": "uint256",
          "name": "",
          "type": "uint256"
        }
      ],
      "stateMutability": "view",
      "type": "function"
    },
    {
      "inputs": [
        {
          "internalType": "uint256",
          "name": "riskTier",
          "type": "uint256"
        }
      ],
      "name": "getBorrowerRate",
      "outputs": [
        {
          "internalType": "uint256",
          "name": "",
          "type": "uint256"
        }
      ],
      "stateMutability": "view",
      "type": "function"
    },
    {
      "inputs": [
        {
          "internalType": "uint256",
          "name": "totalBorrowed",
          "type": "uint256"
        },
        {
          "internalType": "uint256",
          "name": "totalSupplied",
          "type": "uint256"
        }
      ],
      "name": "getCurrentRates",
      "outputs": [
        {
          "internalType": "uint256",
          "name": "",
          "type": "uint256"
        },
        {
          "internalType": "uint256",
          "name": "",
          "type": "uint256"
        }
      ],
      "stateMutability": "view",
      "type": "function"
    },
    {
      "inputs": [],
      "name": "getEthPrice",
      "outputs": [
        {
          "internalType": "uint256",
          "name": "price",
          "type": "uint256"
        },
        {
          "internalType": "uint256",
          "name": "updatedAt",
          "type": "uint256"
        }
      ],
      "stateMutability": "view",
      "type": "function"
    },
    {
      "inputs": [
        {
          "internalType": "uint256",
          "name": "riskMult",
          "type": "uint256"
        },
        {
          "internalType": "uint256",
          "name": "repayMult",
          "type": "uint256"
        }
      ],
      "name": "getGlobalRiskMultiplier",
      "outputs": [
        {
          "internalType": "uint256",
          "name": "",
          "type": "uint256"
        }
      ],
      "stateMutability": "pure",
      "type": "function"
    },
    {
      "inputs": [
        {
          "internalType": "uint256",
          "name": "totalBorrowed",
          "type": "uint256"
        },
        {
          "internalType": "uint256",
          "name": "totalRepaid",
          "type": "uint256"
        }
      ],
      "name": "getRepaymentRatio",
      "outputs": [
        {
          "internalType": "uint256",
          "name": "",
          "type": "uint256"
        }
      ],
      "stateMutability": "pure",
      "type": "function"
    },
    {
      "inputs": [
        {
          "internalType": "uint256",
          "name": "repaymentRatio",
          "type": "uint256"
        }
      ],
      "name": "getRepaymentRiskMultiplier",
      "outputs": [
        {
          "internalType": "uint256",
          "name": "",
          "type": "uint256"
        }
      ],
      "stateMutability": "pure",
      "type": "function"
    },
    {
      "inputs": [
        {
          "internalType": "uint256",
          "name": "weightedScore",
          "type": "uint256"
        }
      ],
      "name": "getRiskMultiplier",
      "outputs": [
        {
          "internalType": "uint256",
          "name": "",
          "type": "uint256"
        }
      ],
      "stateMutability": "pure",
      "type": "function"
    },
    {
      "inputs": [
        {
          "internalType": "uint256",
          "name": "utilization",
          "type": "uint256"
        },
        {
          "internalType": "uint256",
          "name": "borrowRate",
          "type": "uint256"
        }
      ],
      "name": "getSupplyRate",
      "outputs": [
        {
          "internalType": "uint256",
          "name": "",
          "type": "uint256"
        }
      ],
      "stateMutability": "view",
      "type": "function"
    },
    {
      "inputs": [
        {
          "internalType": "uint256",
          "name": "totalSupplied",
          "type": "uint256"
        },
        {
          "internalType": "uint256",
          "name": "totalBorrowed",
          "type": "uint256"
        }
      ],
      "name": "getUtilizationRate",
      "outputs": [
        {
          "internalType": "uint256",
          "name": "",
          "type": "uint256"
        }
      ],
      "stateMutability": "pure",
      "type": "function"
    },
    {
      "inputs": [
        {
          "internalType": "uint256[4]",
          "name": "borrowedByTier",
          "type": "uint256[4]"
        }
      ],
      "name": "getWeightedRiskScore",
      "outputs": [
        {
          "internalType": "uint256",
          "name": "",
          "type": "uint256"
        }
      ],
      "stateMutability": "pure",
      "type": "function"
    },
    {
      "inputs": [],
      "name": "kink",
      "outputs": [
        {
          "internalType": "uint256",
          "name": "",
          "type": "uint256"
        }
      ],
      "stateMutability": "view",
      "type": "function"
    },
    {
      "inputs": [],
      "name": "lastBorrowRate",
      "outputs": [
        {
          "internalType": "uint256",
          "name": "",
          "type": "uint256"
        }
      ],
      "stateMutability": "view",
      "type": "function"
    },
    {
      "inputs": [],
      "name": "lastEthPrice",
      "outputs": [
        {
          "internalType": "uint256",
          "name": "",
          "type": "uint256"
        }
      ],
      "stateMutability": "view",
      "type": "function"
    },
    {
      "inputs": [],
      "name": "lastEthPriceTimestamp",
      "outputs": [
        {
          "internalType": "uint256",
          "name": "",
          "type": "uint256"
        }
      ],
      "stateMutability": "view",
      "type": "function"
    },
    {
      "inputs": [],
      "name": "lastUpdateTimestamp",
      "outputs": [
        {
          "internalType": "uint256",
          "name": "",
          "type": "uint256"
        }
      ],
      "stateMutability": "view",
      "type": "function"
    },
    {
      "inputs": [],
      "name": "maxBorrowRate",
      "outputs": [
        {
          "internalType": "uint256",
          "name": "",
          "type": "uint256"
        }
      ],
      "stateMutability": "view",
      "type": "function"
    },
    {
      "inputs": [],
      "name": "maxRateChange",
      "outputs": [
        {
          "internalType": "uint256",
          "name": "",
          "type": "uint256"
        }
      ],
      "stateMutability": "view",
      "type": "function"
    },
    {
      "inputs": [],
      "name": "oracleStalenessWindow",
      "outputs": [
        {
          "internalType": "uint256",
          "name": "",
          "type": "uint256"
        }
      ],
      "stateMutability": "view",
      "type": "function"
    },
    {
      "inputs": [],
      "name": "protocolRiskAdjustment",
      "outputs": [
        {
          "internalType": "int256",
          "name": "",
          "type": "int256"
        }
      ],
      "stateMutability": "view",
      "type": "function"
    },
    {
      "inputs": [],
      "name": "reserveFactor",
      "outputs": [
        {
          "internalType": "uint256",
          "name": "",
          "type": "uint256"
        }
      ],
      "stateMutability": "view",
      "type": "function"
    },
    {
      "inputs": [
        {
          "internalType": "address",
          "name": "newOracle",
          "type": "address"
        }
      ],
      "name": "setOracle",
      "outputs": [],
      "stateMutability": "nonpayable",
      "type": "function"
    },
    {
      "inputs": [
        {
          "internalType": "uint256",
          "name": "_baseRate",
          "type": "uint256"
        },
        {
          "internalType": "uint256",
          "name": "_kink",
          "type": "uint256"
        },
        {
          "internalType": "uint256",
          "name": "_slope1",
          "type": "uint256"
        },
        {
          "internalType": "uint256",
          "name": "_slope2",
          "type": "uint256"
        },
        {
          "internalType": "uint256",
          "name": "_reserveFactor",
          "type": "uint256"
        },
        {
          "internalType": "uint256",
          "name": "_maxBorrowRate",
          "type": "uint256"
        },
        {
          "internalType": "uint256",
          "name": "_maxRateChange",
          "type": "uint256"
        },
        {
          "internalType": "uint256",
          "name": "_ethPriceRiskPremium",
          "type": "uint256"
        },
        {
          "internalType": "uint256",
          "name": "_ethVolatilityThreshold",
          "type": "uint256"
        },
        {
          "internalType": "uint256",
          "name": "_oracleStalenessWindow",
          "type": "uint256"
        }
      ],
      "name": "setParameters",
      "outputs": [],
      "stateMutability": "nonpayable",
      "type": "function"
    },
    {
      "inputs": [
        {
          "internalType": "int256",
          "name": "adjustment",
          "type": "int256"
        }
      ],
      "name": "setProtocolRiskAdjustment",
      "outputs": [],
      "stateMutability": "nonpayable",
      "type": "function"
    },
    {
      "inputs": [
        {
          "internalType": "uint256",
          "name": "utilization",
          "type": "uint256"
        }
      ],
      "name": "simulateRates",
      "outputs": [
        {
          "internalType": "uint256",
          "name": "",
          "type": "uint256"
        },
        {
          "internalType": "uint256",
          "name": "",
          "type": "uint256"
        }
      ],
      "stateMutability": "view",
      "type": "function"
    },
    {
      "inputs": [],
      "name": "slope1",
      "outputs": [
        {
          "internalType": "uint256",
          "name": "",
          "type": "uint256"
        }
      ],
      "stateMutability": "view",
      "type": "function"
    },
    {
      "inputs": [],
      "name": "slope2",
      "outputs": [
        {
          "internalType": "uint256",
          "name": "",
          "type": "uint256"
        }
      ],
      "stateMutability": "view",
      "type": "function"
    },
    {
      "inputs": [],
      "name": "timelock",
      "outputs": [
        {
          "internalType": "address",
          "name": "",
          "type": "address"
        }
      ],
      "stateMutability": "view",
      "type": "function"
    }
  ],
  "bytecode": "0x6080346100ef57601f610ded38819003918201601f19168301916001600160401b038311848410176100f357808492610180946040528339810103126100ef5761004881610107565b61005460208301610107565b916040810151926060820151608083015160a084015160c08501519060e08601519261010087015194610120880151966101606101408a01519901519960018060a01b03908160018060a01b031993168360105416176010551690600c541617600c55895f55600155600255600355600455600555600655600755600855600b555f600f5560095542600a55604051610cd1908161011c8239f35b5f80fd5b634e487b7160e01b5f52604160045260245ffd5b51906001600160a01b03821682036100ef5756fe6080604081815260049182361015610015575f80fd5b5f3560e01c9081630730eb56146107c3575080630f547728146107495780630fa42b5a1461072b57806314bcec9f1461070d57806318ad4185146106ef5780631f68f20a146106d25780632a11a8a0146106b75780634322b7141461069b57806345ade051146106805780634bdc9eaa1461065957806367c9b0171461054a5780637038fc4e1461052c578063764defb41461051157806377398f48146104f35780637adbf973146104875780638a97f9c91461045f5780639b9066ca1461043b5780639ea90e321461040f5780639fa83b5a146103f1578063a52e39ab146103d3578063a62b75a8146103b5578063c0798fe414610366578063c0f2c3c314610348578063d0134cb71461032a578063d33219b414610302578063e178dc5c146102e4578063e28aa8f8146102c6578063e57ba155146102a8578063e89d92b814610283578063f2e14090146101fc578063fd2da339146101de5763fe98a3601461017f575f80fd5b346101da5760203660031901126101da576010546001600160a01b031633036101cd575035600f557f1e75f48d565290d5600a063ae01f58a35d4cd270ef71d444bbeb914224ca5d775f80a1005b51630659530560e21b8152fd5b5f80fd5b50346101da575f3660031901126101da576020906001549051908152f35b50346101da576101403660031901126101da576010546001600160a01b031633036101cd575080355f55602435600155604435600255606435600355608435905560a43560055560c43560065560e4356007556101043560085561012435600b557f1e75f48d565290d5600a063ae01f58a35d4cd270ef71d444bbeb914224ca5d775f80a1005b50346101da5760203660031901126101da576102a160209235610c53565b9051908152f35b50346101da575f3660031901126101da57602090600e549051908152f35b50346101da575f3660031901126101da57602090600f549051908152f35b50346101da575f3660031901126101da576020906008549051908152f35b50346101da575f3660031901126101da5760105490516001600160a01b039091168152602090f35b50346101da575f3660031901126101da576020906003549051908152f35b50346101da575f3660031901126101da576020906006549051908152f35b50346101da5760203660031901126101da575f54662386f26fc100008335818102949181159186041417156103a257506020926102a19161081a565b601190634e487b7160e01b5f525260245ffd5b50346101da575f3660031901126101da576020906002549051908152f35b50346101da575f3660031901126101da57602090600b549051908152f35b50346101da5760203660031901126101da576102a160209235610a90565b50346101da57602090670de0b6b3a764000061043361042d366107dd565b906107f3565b049051908152f35b50346101da5761045361044d366107dd565b90610a4a565b82519182526020820152f35b50346101da575f3660031901126101da57600c5490516001600160a01b039091168152602090f35b5090346101da5760203660031901126101da5780356001600160a01b0381811693918490036101da576010541633036101cd57600c80546001600160a01b03191684179055827f3df77beb5db05fcdd70a30fc8adf3f83f9501b68579455adbd100b81809403945f80a2005b50346101da575f3660031901126101da576020906007549051908152f35b50346101da576020906102a1610526366107dd565b90610a13565b50346101da575f3660031901126101da57602090600d549051908152f35b5090346101da575f3660031901126101da57600c546001600160a01b0316801561064a5760a08291845193848092633fabe5a360e21b82525afa908115610640575f925f926105c2575b5061059f8242610945565b600b54106105b4575082519182526020820152f35b83516388cce42960e01b8152fd5b9250905060a03d60a011610639575b601f8101601f1916830167ffffffffffffffff8111848210176106265760a09184918652810103126101da57610606826109fc565b50602082015161061d6080606085015194016109fc565b5091905f610594565b604183634e487b7160e01b5f525260245ffd5b503d6105d1565b83513d5f823e3d90fd5b509051633e1e538160e21b8152fd5b5090346101da5760203660031901126101da573561045361067982610a90565b8092610952565b50346101da576020906102a1610695366107dd565b906109d3565b50346101da575f3660031901126101da57602091549051908152f35b50346101da576020906102a16106cc366107dd565b90610952565b50346101da575f3660031901126101da576020905f549051908152f35b50346101da5760203660031901126101da576102a1602092356108f3565b50346101da575f3660031901126101da57602090600a549051908152f35b50346101da575f3660031901126101da576020906005549051908152f35b50346101da5760803660031901126101da5736602312156101da5780516080810181811067ffffffffffffffff8211176107b05782526084813682116101da57602094905b8282106107a1575050506102a190610845565b8135815290850190850161078e565b604184634e487b7160e01b5f525260245ffd5b346101da575f3660031901126101da576020906009548152f35b60409060031901126101da576004359060243590565b8181029291811591840414171561080657565b634e487b7160e01b5f52601160045260245ffd5b9190820180921161080657565b8115610831570490565b634e487b7160e01b5f52601260045260245ffd5b80518080046001148115171561080657602082019081518060011b9080820460021490151715610806576108789161081a565b604083019081516003810290808204600314901517156108065761089b9161081a565b606084019182518060021b9080820460041490151715610806576108db946108c96108d3926108d39561081a565b965190519061081a565b90519061081a565b80156108ed576108ea91610827565b90565b50505f90565b801561092b57600181111561093857600281111561092b576003101561091f576710a741a46278000090565b670f43fc2c04ee000090565b50670de0b6b3a764000090565b50670c7d713b49da000090565b9190820391821161080657565b90600454670de0b6b3a7640000908082106109965781039081116108065761098d610992926ec097ce7bc90715b34b9f1000000000946107f3565b6107f3565b0490565b60405162461bcd60e51b815260206004820152601560248201527424b73b30b634b2103932b9b2b93b32a330b1ba37b960591b6044820152606490fd5b80156108ed57670de0b6b3a764000091828102928184041490151715610806576108ea91610827565b519069ffffffffffffffffffff821682036101da57565b8015610a3c57670de0b6b3a764000091828102928184041490151715610806576108ea91610827565b5050670de0b6b3a764000090565b908015610a8857670de0b6b3a76400009182810292818404149015171561080657610a7491610827565b906108ea610a8183610a90565b8093610952565b50505f905f90565b60015490818111610b69578115610b1457610abb610ac192610ab65f54936002546107f3565b610827565b9061081a565b600f545f811315610ae857610ad59161081a565b600554808211610ae3575090565b905090565b5f8112610af6575b50610ad5565b90600160ff1b821461080657610b0e915f0390610945565b5f610af0565b60405162461bcd60e51b815260206004820152602760248201527f4469766973696f6e206279207a65726f20696e20676574426f72726f77526174604482015266653a206b696e6b60c81b6064820152608490fd5b90670de0b6b3a76400009181831115610c195781610b8691610945565b90808303928084116108065714610bbd57610abb610bb892610ab6610baf5f546002549061081a565b936003546107f3565b610ac1565b60405162461bcd60e51b815260206004820152602e60248201527f4469766973696f6e206279207a65726f20696e20676574426f72726f7752617460448201526d329d103232b737b6b4b730ba37b960911b6064820152608490fd5b60405162461bcd60e51b8152602060048201526012602482015271496e76616c6964206b696e6b2076616c756560701b6044820152606490fd5b670d2f13f7789f000081101561092b57670c7d713b49da0000811015610c8e57670b1a2bc2ec500000111561091f576710a741a46278000090565b50670e92596fd62900009056fea2646970667358221220b3f72a12b96ae71350c65760a1c417f9c054a9d9f8dc6f79b16024cdbc51e06664736f6c63430008180033",
  "linkReferences": {},
  "deployedLinkReferences": {}
}