{
  "_format": "hh-sol-artifact-1",
  "contractName": "InterestRateModel",
  "sourceName": "contracts/InterestRateModel.sol",
  "abi": [
    {
      "inputs": [
        {
          "internalType": "address",
          "name": "_ethUsdOracle",
          "type": "address"
        },
        {
          "internalType": "address",
          "name": "_timelock",
          "type": "address"
        },
        {
          "internalType": "uint256",
          "name": "_baseRate",
          "type": "uint256"
        },
        {
          "internalType": "uint256",
          "name": "_kink",
          "type": "uint256"
        },
        {
          "internalType": "uint256",
          "name": "_slope1",
          "type": "uint256"
        },
        {
          "internalType": "uint256",
          "name": "_slope2",
          "type": "uint256"
        },
        {
          "internalType": "uint256",
          "name": "_reserveFactor",
          "type": "uint256"
        },
        {
          "internalType": "uint256",
          "name": "_maxBorrowRate",
          "type": "uint256"
        },
        {
          "internalType": "uint256",
          "name": "_maxRateChange",
          "type": "uint256"
        },
        {
          "internalType": "uint256",
          "name": "_ethPriceRiskPremium",
          "type": "uint256"
        },
        {
          "internalType": "uint256",
          "name": "_ethVolatilityThreshold",
          "type": "uint256"
        },
        {
          "internalType": "uint256",
          "name": "_oracleStalenessWindow",
          "type": "uint256"
        }
      ],
      "stateMutability": "nonpayable",
      "type": "constructor"
    },
    {
      "inputs": [],
      "name": "OnlyTimelockInterestRateModel",
      "type": "error"
    },
    {
      "inputs": [],
      "name": "OracleNotSet",
      "type": "error"
    },
    {
      "inputs": [],
      "name": "StaleOracle",
      "type": "error"
    },
    {
      "anonymous": false,
      "inputs": [
        {
          "indexed": true,
          "internalType": "address",
          "name": "newOracle",
          "type": "address"
        }
      ],
      "name": "OracleUpdated",
      "type": "event"
    },
    {
      "anonymous": false,
      "inputs": [],
      "name": "ParametersUpdated",
      "type": "event"
    },
    {
      "anonymous": false,
      "inputs": [
        {
          "indexed": false,
          "internalType": "uint256",
          "name": "cappedRate",
          "type": "uint256"
        }
      ],
      "name": "RatesCapped",
      "type": "event"
    },
    {
      "inputs": [],
      "name": "baseRate",
      "outputs": [
        {
          "internalType": "uint256",
          "name": "",
          "type": "uint256"
        }
      ],
      "stateMutability": "view",
      "type": "function"
    },
    {
      "inputs": [],
      "name": "ethPriceRiskPremium",
      "outputs": [
        {
          "internalType": "uint256",
          "name": "",
          "type": "uint256"
        }
      ],
      "stateMutability": "view",
      "type": "function"
    },
    {
      "inputs": [],
      "name": "ethUsdOracle",
      "outputs": [
        {
          "internalType": "address",
          "name": "",
          "type": "address"
        }
      ],
      "stateMutability": "view",
      "type": "function"
    },
    {
      "inputs": [],
      "name": "ethVolatilityThreshold",
      "outputs": [
        {
          "internalType": "uint256",
          "name": "",
          "type": "uint256"
        }
      ],
      "stateMutability": "view",
      "type": "function"
    },
    {
      "inputs": [
        {
          "internalType": "uint256",
          "name": "utilization",
          "type": "uint256"
        }
      ],
      "name": "getBorrowRate",
      "outputs": [
        {
          "internalType": "uint256",
          "name": "",
          "type": "uint256"
        }
      ],
      "stateMutability": "view",
      "type": "function"
    },
    {
      "inputs": [
        {
          "internalType": "uint256",
          "name": "riskTier",
          "type": "uint256"
        }
      ],
      "name": "getBorrowerRate",
      "outputs": [
        {
          "internalType": "uint256",
          "name": "",
          "type": "uint256"
        }
      ],
      "stateMutability": "view",
      "type": "function"
    },
    {
      "inputs": [
        {
          "internalType": "uint256",
          "name": "totalBorrowed",
          "type": "uint256"
        },
        {
          "internalType": "uint256",
          "name": "totalSupplied",
          "type": "uint256"
        }
      ],
      "name": "getCurrentRates",
      "outputs": [
        {
          "internalType": "uint256",
          "name": "",
          "type": "uint256"
        },
        {
          "internalType": "uint256",
          "name": "",
          "type": "uint256"
        }
      ],
      "stateMutability": "view",
      "type": "function"
    },
    {
      "inputs": [],
      "name": "getEthPrice",
      "outputs": [
        {
          "internalType": "uint256",
          "name": "price",
          "type": "uint256"
        },
        {
          "internalType": "uint256",
          "name": "updatedAt",
          "type": "uint256"
        }
      ],
      "stateMutability": "view",
      "type": "function"
    },
    {
      "inputs": [
        {
          "internalType": "uint256",
          "name": "riskMult",
          "type": "uint256"
        },
        {
          "internalType": "uint256",
          "name": "repayMult",
          "type": "uint256"
        }
      ],
      "name": "getGlobalRiskMultiplier",
      "outputs": [
        {
          "internalType": "uint256",
          "name": "",
          "type": "uint256"
        }
      ],
      "stateMutability": "pure",
      "type": "function"
    },
    {
      "inputs": [
        {
          "internalType": "uint256",
          "name": "totalBorrowed",
          "type": "uint256"
        },
        {
          "internalType": "uint256",
          "name": "totalRepaid",
          "type": "uint256"
        }
      ],
      "name": "getRepaymentRatio",
      "outputs": [
        {
          "internalType": "uint256",
          "name": "",
          "type": "uint256"
        }
      ],
      "stateMutability": "pure",
      "type": "function"
    },
    {
      "inputs": [
        {
          "internalType": "uint256",
          "name": "repaymentRatio",
          "type": "uint256"
        }
      ],
      "name": "getRepaymentRiskMultiplier",
      "outputs": [
        {
          "internalType": "uint256",
          "name": "",
          "type": "uint256"
        }
      ],
      "stateMutability": "pure",
      "type": "function"
    },
    {
      "inputs": [
        {
          "internalType": "uint256",
          "name": "weightedScore",
          "type": "uint256"
        }
      ],
      "name": "getRiskMultiplier",
      "outputs": [
        {
          "internalType": "uint256",
          "name": "",
          "type": "uint256"
        }
      ],
      "stateMutability": "pure",
      "type": "function"
    },
    {
      "inputs": [
        {
          "internalType": "uint256",
          "name": "utilization",
          "type": "uint256"
        },
        {
          "internalType": "uint256",
          "name": "borrowRate",
          "type": "uint256"
        }
      ],
      "name": "getSupplyRate",
      "outputs": [
        {
          "internalType": "uint256",
          "name": "",
          "type": "uint256"
        }
      ],
      "stateMutability": "view",
      "type": "function"
    },
    {
      "inputs": [
        {
          "internalType": "uint256[4]",
          "name": "borrowedByTier",
          "type": "uint256[4]"
        }
      ],
      "name": "getWeightedRiskScore",
      "outputs": [
        {
          "internalType": "uint256",
          "name": "",
          "type": "uint256"
        }
      ],
      "stateMutability": "pure",
      "type": "function"
    },
    {
      "inputs": [],
      "name": "kink",
      "outputs": [
        {
          "internalType": "uint256",
          "name": "",
          "type": "uint256"
        }
      ],
      "stateMutability": "view",
      "type": "function"
    },
    {
      "inputs": [],
      "name": "lastBorrowRate",
      "outputs": [
        {
          "internalType": "uint256",
          "name": "",
          "type": "uint256"
        }
      ],
      "stateMutability": "view",
      "type": "function"
    },
    {
      "inputs": [],
      "name": "lastEthPrice",
      "outputs": [
        {
          "internalType": "uint256",
          "name": "",
          "type": "uint256"
        }
      ],
      "stateMutability": "view",
      "type": "function"
    },
    {
      "inputs": [],
      "name": "lastEthPriceTimestamp",
      "outputs": [
        {
          "internalType": "uint256",
          "name": "",
          "type": "uint256"
        }
      ],
      "stateMutability": "view",
      "type": "function"
    },
    {
      "inputs": [],
      "name": "lastUpdateTimestamp",
      "outputs": [
        {
          "internalType": "uint256",
          "name": "",
          "type": "uint256"
        }
      ],
      "stateMutability": "view",
      "type": "function"
    },
    {
      "inputs": [],
      "name": "maxBorrowRate",
      "outputs": [
        {
          "internalType": "uint256",
          "name": "",
          "type": "uint256"
        }
      ],
      "stateMutability": "view",
      "type": "function"
    },
    {
      "inputs": [],
      "name": "maxRateChange",
      "outputs": [
        {
          "internalType": "uint256",
          "name": "",
          "type": "uint256"
        }
      ],
      "stateMutability": "view",
      "type": "function"
    },
    {
      "inputs": [],
      "name": "oracleStalenessWindow",
      "outputs": [
        {
          "internalType": "uint256",
          "name": "",
          "type": "uint256"
        }
      ],
      "stateMutability": "view",
      "type": "function"
    },
    {
      "inputs": [],
      "name": "protocolRiskAdjustment",
      "outputs": [
        {
          "internalType": "int256",
          "name": "",
          "type": "int256"
        }
      ],
      "stateMutability": "view",
      "type": "function"
    },
    {
      "inputs": [],
      "name": "reserveFactor",
      "outputs": [
        {
          "internalType": "uint256",
          "name": "",
          "type": "uint256"
        }
      ],
      "stateMutability": "view",
      "type": "function"
    },
    {
      "inputs": [
        {
          "internalType": "address",
          "name": "newOracle",
          "type": "address"
        }
      ],
      "name": "setOracle",
      "outputs": [],
      "stateMutability": "nonpayable",
      "type": "function"
    },
    {
      "inputs": [
        {
          "internalType": "uint256",
          "name": "_baseRate",
          "type": "uint256"
        },
        {
          "internalType": "uint256",
          "name": "_kink",
          "type": "uint256"
        },
        {
          "internalType": "uint256",
          "name": "_slope1",
          "type": "uint256"
        },
        {
          "internalType": "uint256",
          "name": "_slope2",
          "type": "uint256"
        },
        {
          "internalType": "uint256",
          "name": "_reserveFactor",
          "type": "uint256"
        },
        {
          "internalType": "uint256",
          "name": "_maxBorrowRate",
          "type": "uint256"
        },
        {
          "internalType": "uint256",
          "name": "_maxRateChange",
          "type": "uint256"
        },
        {
          "internalType": "uint256",
          "name": "_ethPriceRiskPremium",
          "type": "uint256"
        },
        {
          "internalType": "uint256",
          "name": "_ethVolatilityThreshold",
          "type": "uint256"
        },
        {
          "internalType": "uint256",
          "name": "_oracleStalenessWindow",
          "type": "uint256"
        }
      ],
      "name": "setParameters",
      "outputs": [],
      "stateMutability": "nonpayable",
      "type": "function"
    },
    {
      "inputs": [
        {
          "internalType": "int256",
          "name": "adjustment",
          "type": "int256"
        }
      ],
      "name": "setProtocolRiskAdjustment",
      "outputs": [],
      "stateMutability": "nonpayable",
      "type": "function"
    },
    {
      "inputs": [
        {
          "internalType": "uint256",
          "name": "utilization",
          "type": "uint256"
        }
      ],
      "name": "simulateRates",
      "outputs": [
        {
          "internalType": "uint256",
          "name": "",
          "type": "uint256"
        },
        {
          "internalType": "uint256",
          "name": "",
          "type": "uint256"
        }
      ],
      "stateMutability": "view",
      "type": "function"
    },
    {
      "inputs": [],
      "name": "slope1",
      "outputs": [
        {
          "internalType": "uint256",
          "name": "",
          "type": "uint256"
        }
      ],
      "stateMutability": "view",
      "type": "function"
    },
    {
      "inputs": [],
      "name": "slope2",
      "outputs": [
        {
          "internalType": "uint256",
          "name": "",
          "type": "uint256"
        }
      ],
      "stateMutability": "view",
      "type": "function"
    },
    {
      "inputs": [],
      "name": "timelock",
      "outputs": [
        {
          "internalType": "address",
          "name": "",
          "type": "address"
        }
      ],
      "stateMutability": "view",
      "type": "function"
    }
  ],
  "bytecode": "0x6080346100ef57601f610d9e38819003918201601f19168301916001600160401b038311848410176100f357808492610180946040528339810103126100ef5761004881610107565b61005460208301610107565b916040810151926060820151608083015160a084015160c08501519060e08601519261010087015194610120880151966101606101408a01519901519960018060a01b03908160018060a01b031993168360105416176010551690600c541617600c55895f55600155600255600355600455600555600655600755600855600b555f600f5560095542600a55604051610c82908161011c8239f35b5f80fd5b634e487b7160e01b5f52604160045260245ffd5b51906001600160a01b03821682036100ef5756fe6080604081815260049182361015610015575f80fd5b5f3560e01c9081630730eb561461079d575080630f547728146107235780630fa42b5a1461070557806314bcec9f146106e757806318ad4185146106c95780631f68f20a146106ac5780632a11a8a0146106915780634322b714146106755780634bdc9eaa1461064e57806367c9b0171461053f5780637038fc4e14610521578063764defb41461050657806377398f48146104e85780637adbf9731461047c5780638a97f9c9146104545780639b9066ca146104305780639ea90e32146104045780639fa83b5a146103e6578063a52e39ab146103c8578063a62b75a8146103aa578063c0798fe41461035b578063c0f2c3c31461033d578063d0134cb71461031f578063d33219b4146102f7578063e178dc5c146102d9578063e28aa8f8146102bb578063e57ba1551461029d578063e89d92b814610278578063f2e14090146101f1578063fd2da339146101d35763fe98a36014610174575f80fd5b346101cf5760203660031901126101cf576010546001600160a01b031633036101c2575035600f557f1e75f48d565290d5600a063ae01f58a35d4cd270ef71d444bbeb914224ca5d775f80a1005b51630659530560e21b8152fd5b5f80fd5b50346101cf575f3660031901126101cf576020906001549051908152f35b50346101cf576101403660031901126101cf576010546001600160a01b031633036101c2575080355f55602435600155604435600255606435600355608435905560a43560055560c43560065560e4356007556101043560085561012435600b557f1e75f48d565290d5600a063ae01f58a35d4cd270ef71d444bbeb914224ca5d775f80a1005b50346101cf5760203660031901126101cf5761029660209235610c04565b9051908152f35b50346101cf575f3660031901126101cf57602090600e549051908152f35b50346101cf575f3660031901126101cf57602090600f549051908152f35b50346101cf575f3660031901126101cf576020906008549051908152f35b50346101cf575f3660031901126101cf5760105490516001600160a01b039091168152602090f35b50346101cf575f3660031901126101cf576020906003549051908152f35b50346101cf575f3660031901126101cf576020906006549051908152f35b50346101cf5760203660031901126101cf575f54662386f26fc100008335818102949181159186041417156103975750602092610296916107f4565b601190634e487b7160e01b5f525260245ffd5b50346101cf575f3660031901126101cf576020906002549051908152f35b50346101cf575f3660031901126101cf57602090600b549051908152f35b50346101cf5760203660031901126101cf5761029660209235610a41565b50346101cf57602090670de0b6b3a7640000610428610422366107b7565b906107cd565b049051908152f35b50346101cf57610448610442366107b7565b906109fb565b82519182526020820152f35b50346101cf575f3660031901126101cf57600c5490516001600160a01b039091168152602090f35b5090346101cf5760203660031901126101cf5780356001600160a01b0381811693918490036101cf576010541633036101c257600c80546001600160a01b03191684179055827f3df77beb5db05fcdd70a30fc8adf3f83f9501b68579455adbd100b81809403945f80a2005b50346101cf575f3660031901126101cf576020906007549051908152f35b50346101cf5760209061029661051b366107b7565b906109c4565b50346101cf575f3660031901126101cf57602090600d549051908152f35b5090346101cf575f3660031901126101cf57600c546001600160a01b0316801561063f5760a08291845193848092633fabe5a360e21b82525afa908115610635575f925f926105b7575b50610594824261091f565b600b54106105a9575082519182526020820152f35b83516388cce42960e01b8152fd5b9250905060a03d60a01161062e575b601f8101601f1916830167ffffffffffffffff81118482101761061b5760a09184918652810103126101cf576105fb826109ad565b5060208201516106126080606085015194016109ad565b5091905f610589565b604183634e487b7160e01b5f525260245ffd5b503d6105c6565b83513d5f823e3d90fd5b509051633e1e538160e21b8152fd5b5090346101cf5760203660031901126101cf573561044861066e82610a41565b809261092c565b50346101cf575f3660031901126101cf57602091549051908152f35b50346101cf576020906102966106a6366107b7565b9061092c565b50346101cf575f3660031901126101cf576020905f549051908152f35b50346101cf5760203660031901126101cf57610296602092356108cd565b50346101cf575f3660031901126101cf57602090600a549051908152f35b50346101cf575f3660031901126101cf576020906005549051908152f35b50346101cf5760803660031901126101cf5736602312156101cf5780516080810181811067ffffffffffffffff82111761078a5782526084813682116101cf57602094905b82821061077b575050506102969061081f565b81358152908501908501610768565b604184634e487b7160e01b5f525260245ffd5b346101cf575f3660031901126101cf576020906009548152f35b60409060031901126101cf576004359060243590565b818102929181159184041417156107e057565b634e487b7160e01b5f52601160045260245ffd5b919082018092116107e057565b811561080b570490565b634e487b7160e01b5f52601260045260245ffd5b8051808004600114811517156107e057602082019081518060011b90808204600214901517156107e057610852916107f4565b604083019081516003810290808204600314901517156107e057610875916107f4565b606084019182518060021b90808204600414901517156107e0576108b5946108a36108ad926108ad956107f4565b96519051906107f4565b9051906107f4565b80156108c7576108c491610801565b90565b50505f90565b801561090557600181111561091257600281111561090557600310156108f9576710a741a46278000090565b670f43fc2c04ee000090565b50670de0b6b3a764000090565b50670c7d713b49da000090565b919082039182116107e057565b90600454670de0b6b3a7640000908082106109705781039081116107e05761096761096c926ec097ce7bc90715b34b9f1000000000946107cd565b6107cd565b0490565b60405162461bcd60e51b815260206004820152601560248201527424b73b30b634b2103932b9b2b93b32a330b1ba37b960591b6044820152606490fd5b519069ffffffffffffffffffff821682036101cf57565b80156109ed57670de0b6b3a7640000918281029281840414901517156107e0576108c491610801565b5050670de0b6b3a764000090565b908015610a3957670de0b6b3a7640000918281029281840414901517156107e057610a2591610801565b906108c4610a3283610a41565b809361092c565b50505f905f90565b60015490818111610b1a578115610ac557610a6c610a7292610a675f54936002546107cd565b610801565b906107f4565b600f545f811315610a9957610a86916107f4565b600554808211610a94575090565b905090565b5f8112610aa7575b50610a86565b90600160ff1b82146107e057610abf915f039061091f565b5f610aa1565b60405162461bcd60e51b815260206004820152602760248201527f4469766973696f6e206279207a65726f20696e20676574426f72726f77526174604482015266653a206b696e6b60c81b6064820152608490fd5b90670de0b6b3a76400009181831115610bca5781610b379161091f565b90808303928084116107e05714610b6e57610a6c610b6992610a67610b605f54600254906107f4565b936003546107cd565b610a72565b60405162461bcd60e51b815260206004820152602e60248201527f4469766973696f6e206279207a65726f20696e20676574426f72726f7752617460448201526d329d103232b737b6b4b730ba37b960911b6064820152608490fd5b60405162461bcd60e51b8152602060048201526012602482015271496e76616c6964206b696e6b2076616c756560701b6044820152606490fd5b670d2f13f7789f000081101561090557670c7d713b49da0000811015610c3f57670b1a2bc2ec50000011156108f9576710a741a46278000090565b50670e92596fd62900009056fea26469706673582212204d2d6589b2517a773de585bf0e95905a8be0b19b2a38c169850db75321fe4f4e64736f6c63430008180033",
  "linkReferences": {},
  "deployedLinkReferences": {}
}