{
  "_format": "hh-sol-artifact-1",
  "contractName": "IntegratedCreditSystem",
  "sourceName": "backend/contracts/IntegratedCreditSystem.sol",
  "abi": [
    {
      "inputs": [
        {
          "internalType": "address",
          "name": "_risc0Verifier",
          "type": "address"
        },
        {
          "internalType": "address",
          "name": "_liquidityPool",
          "type": "address"
        }
      ],
      "stateMutability": "nonpayable",
      "type": "constructor"
    },
    {
      "anonymous": false,
      "inputs": [
        {
          "indexed": true,
          "internalType": "address",
          "name": "user",
          "type": "address"
        },
        {
          "indexed": false,
          "internalType": "bool",
          "name": "eligible",
          "type": "bool"
        },
        {
          "indexed": false,
          "internalType": "uint256",
          "name": "creditScore",
          "type": "uint256"
        }
      ],
      "name": "BorrowingEligibilityChanged",
      "type": "event"
    },
    {
      "anonymous": false,
      "inputs": [
        {
          "indexed": true,
          "internalType": "address",
          "name": "user",
          "type": "address"
        },
        {
          "indexed": false,
          "internalType": "uint256",
          "name": "oldScore",
          "type": "uint256"
        },
        {
          "indexed": false,
          "internalType": "uint256",
          "name": "newScore",
          "type": "uint256"
        },
        {
          "indexed": false,
          "internalType": "bool",
          "name": "borrowingEligible",
          "type": "bool"
        }
      ],
      "name": "CreditScoreUpdated",
      "type": "event"
    },
    {
      "anonymous": false,
      "inputs": [
        {
          "indexed": true,
          "internalType": "address",
          "name": "user",
          "type": "address"
        },
        {
          "indexed": false,
          "internalType": "string",
          "name": "verificationType",
          "type": "string"
        },
        {
          "indexed": false,
          "internalType": "uint256",
          "name": "score",
          "type": "uint256"
        },
        {
          "indexed": false,
          "internalType": "uint256",
          "name": "timestamp",
          "type": "uint256"
        }
      ],
      "name": "CreditVerificationCompleted",
      "type": "event"
    },
    {
      "anonymous": false,
      "inputs": [
        {
          "indexed": true,
          "internalType": "address",
          "name": "user",
          "type": "address"
        },
        {
          "indexed": false,
          "internalType": "string",
          "name": "proofType",
          "type": "string"
        },
        {
          "indexed": false,
          "internalType": "string",
          "name": "details",
          "type": "string"
        }
      ],
      "name": "ProofDataParsed",
      "type": "event"
    },
    {
      "inputs": [],
      "name": "MIN_CREDIT_SCORE",
      "outputs": [
        {
          "internalType": "uint256",
          "name": "",
          "type": "uint256"
        }
      ],
      "stateMutability": "view",
      "type": "function"
    },
    {
      "inputs": [],
      "name": "VERIFICATION_VALIDITY_PERIOD",
      "outputs": [
        {
          "internalType": "uint256",
          "name": "",
          "type": "uint256"
        }
      ],
      "stateMutability": "view",
      "type": "function"
    },
    {
      "inputs": [],
      "name": "accountWeight",
      "outputs": [
        {
          "internalType": "uint256",
          "name": "",
          "type": "uint256"
        }
      ],
      "stateMutability": "view",
      "type": "function"
    },
    {
      "inputs": [
        {
          "internalType": "address",
          "name": "",
          "type": "address"
        }
      ],
      "name": "creditProfiles",
      "outputs": [
        {
          "internalType": "bool",
          "name": "hasTradFiVerification",
          "type": "bool"
        },
        {
          "internalType": "bool",
          "name": "hasAccountVerification",
          "type": "bool"
        },
        {
          "internalType": "bool",
          "name": "hasNestingVerification",
          "type": "bool"
        },
        {
          "internalType": "uint256",
          "name": "tradFiTimestamp",
          "type": "uint256"
        },
        {
          "internalType": "uint256",
          "name": "accountTimestamp",
          "type": "uint256"
        },
        {
          "internalType": "uint256",
          "name": "nestingTimestamp",
          "type": "uint256"
        },
        {
          "internalType": "uint256",
          "name": "tradFiScore",
          "type": "uint256"
        },
        {
          "internalType": "uint256",
          "name": "accountScore",
          "type": "uint256"
        },
        {
          "internalType": "uint256",
          "name": "hybridScore",
          "type": "uint256"
        },
        {
          "internalType": "uint256",
          "name": "finalCreditScore",
          "type": "uint256"
        },
        {
          "internalType": "string",
          "name": "tradFiDataSource",
          "type": "string"
        },
        {
          "internalType": "uint256",
          "name": "lastScoreUpdate",
          "type": "uint256"
        },
        {
          "internalType": "bool",
          "name": "isEligibleForBorrowing",
          "type": "bool"
        },
        {
          "components": [
            {
              "internalType": "address",
              "name": "account",
              "type": "address"
            },
            {
              "internalType": "uint256",
              "name": "nonce",
              "type": "uint256"
            },
            {
              "internalType": "uint256",
              "name": "balance",
              "type": "uint256"
            },
            {
              "internalType": "bytes32",
              "name": "storageRoot",
              "type": "bytes32"
            },
            {
              "internalType": "bytes32",
              "name": "codeHash",
              "type": "bytes32"
            },
            {
              "internalType": "uint256",
              "name": "blockNumber",
              "type": "uint256"
            },
            {
              "internalType": "bytes32",
              "name": "stateRoot",
              "type": "bytes32"
            }
          ],
          "internalType": "struct IntegratedCreditSystem.AccountProofData",
          "name": "accountData",
          "type": "tuple"
        },
        {
          "components": [
            {
              "internalType": "string",
              "name": "creditScore",
              "type": "string"
            },
            {
              "internalType": "string",
              "name": "dataSource",
              "type": "string"
            },
            {
              "internalType": "string",
              "name": "reportDate",
              "type": "string"
            },
            {
              "internalType": "string",
              "name": "accountAge",
              "type": "string"
            },
            {
              "internalType": "string",
              "name": "paymentHistory",
              "type": "string"
            }
          ],
          "internalType": "struct IntegratedCreditSystem.TradFiProofData",
          "name": "tradFiData",
          "type": "tuple"
        },
        {
          "components": [
            {
              "internalType": "address",
              "name": "account",
              "type": "address"
            },
            {
              "internalType": "uint256",
              "name": "defiScore",
              "type": "uint256"
            },
            {
              "internalType": "uint256",
              "name": "tradfiScore",
              "type": "uint256"
            },
            {
              "internalType": "uint256",
              "name": "hybridScore",
              "type": "uint256"
            },
            {
              "internalType": "uint256",
              "name": "timestamp",
              "type": "uint256"
            }
          ],
          "internalType": "struct IntegratedCreditSystem.NestingProofData",
          "name": "nestingData",
          "type": "tuple"
        }
      ],
      "stateMutability": "view",
      "type": "function"
    },
    {
      "inputs": [
        {
          "internalType": "bytes",
          "name": "journalData",
          "type": "bytes"
        }
      ],
      "name": "decodeTradFiJournal",
      "outputs": [
        {
          "components": [
            {
              "internalType": "string",
              "name": "creditScore",
              "type": "string"
            },
            {
              "internalType": "string",
              "name": "dataSource",
              "type": "string"
            },
            {
              "internalType": "string",
              "name": "reportDate",
              "type": "string"
            },
            {
              "internalType": "string",
              "name": "accountAge",
              "type": "string"
            },
            {
              "internalType": "string",
              "name": "paymentHistory",
              "type": "string"
            }
          ],
          "internalType": "struct IntegratedCreditSystem.TradFiProofData",
          "name": "",
          "type": "tuple"
        }
      ],
      "stateMutability": "pure",
      "type": "function"
    },
    {
      "inputs": [
        {
          "internalType": "address",
          "name": "user",
          "type": "address"
        }
      ],
      "name": "getDetailedVerificationStatus",
      "outputs": [
        {
          "internalType": "uint256",
          "name": "tradFiScore",
          "type": "uint256"
        },
        {
          "internalType": "uint256",
          "name": "accountScore",
          "type": "uint256"
        },
        {
          "internalType": "uint256",
          "name": "hybridScore",
          "type": "uint256"
        },
        {
          "components": [
            {
              "internalType": "address",
              "name": "account",
              "type": "address"
            },
            {
              "internalType": "uint256",
              "name": "nonce",
              "type": "uint256"
            },
            {
              "internalType": "uint256",
              "name": "balance",
              "type": "uint256"
            },
            {
              "internalType": "bytes32",
              "name": "storageRoot",
              "type": "bytes32"
            },
            {
              "internalType": "bytes32",
              "name": "codeHash",
              "type": "bytes32"
            },
            {
              "internalType": "uint256",
              "name": "blockNumber",
              "type": "uint256"
            },
            {
              "internalType": "bytes32",
              "name": "stateRoot",
              "type": "bytes32"
            }
          ],
          "internalType": "struct IntegratedCreditSystem.AccountProofData",
          "name": "accountData",
          "type": "tuple"
        },
        {
          "components": [
            {
              "internalType": "string",
              "name": "creditScore",
              "type": "string"
            },
            {
              "internalType": "string",
              "name": "dataSource",
              "type": "string"
            },
            {
              "internalType": "string",
              "name": "reportDate",
              "type": "string"
            },
            {
              "internalType": "string",
              "name": "accountAge",
              "type": "string"
            },
            {
              "internalType": "string",
              "name": "paymentHistory",
              "type": "string"
            }
          ],
          "internalType": "struct IntegratedCreditSystem.TradFiProofData",
          "name": "tradFiData",
          "type": "tuple"
        },
        {
          "components": [
            {
              "internalType": "address",
              "name": "account",
              "type": "address"
            },
            {
              "internalType": "uint256",
              "name": "defiScore",
              "type": "uint256"
            },
            {
              "internalType": "uint256",
              "name": "tradfiScore",
              "type": "uint256"
            },
            {
              "internalType": "uint256",
              "name": "hybridScore",
              "type": "uint256"
            },
            {
              "internalType": "uint256",
              "name": "timestamp",
              "type": "uint256"
            }
          ],
          "internalType": "struct IntegratedCreditSystem.NestingProofData",
          "name": "nestingData",
          "type": "tuple"
        }
      ],
      "stateMutability": "view",
      "type": "function"
    },
    {
      "inputs": [],
      "name": "getMinimumCreditScore",
      "outputs": [
        {
          "internalType": "uint256",
          "name": "",
          "type": "uint256"
        }
      ],
      "stateMutability": "pure",
      "type": "function"
    },
    {
      "inputs": [
        {
          "internalType": "address",
          "name": "user",
          "type": "address"
        }
      ],
      "name": "getUserCreditProfile",
      "outputs": [
        {
          "internalType": "bool",
          "name": "hasTradFi",
          "type": "bool"
        },
        {
          "internalType": "bool",
          "name": "hasAccount",
          "type": "bool"
        },
        {
          "internalType": "bool",
          "name": "hasNesting",
          "type": "bool"
        },
        {
          "internalType": "uint256",
          "name": "finalScore",
          "type": "uint256"
        },
        {
          "internalType": "bool",
          "name": "isEligible",
          "type": "bool"
        },
        {
          "internalType": "uint256",
          "name": "lastUpdate",
          "type": "uint256"
        }
      ],
      "stateMutability": "view",
      "type": "function"
    },
    {
      "inputs": [
        {
          "internalType": "address",
          "name": "user",
          "type": "address"
        }
      ],
      "name": "isEligibleToBorrow",
      "outputs": [
        {
          "internalType": "bool",
          "name": "",
          "type": "bool"
        }
      ],
      "stateMutability": "view",
      "type": "function"
    },
    {
      "inputs": [],
      "name": "liquidityPool",
      "outputs": [
        {
          "internalType": "contract LiquidityPool",
          "name": "",
          "type": "address"
        }
      ],
      "stateMutability": "view",
      "type": "function"
    },
    {
      "inputs": [],
      "name": "nestingWeight",
      "outputs": [
        {
          "internalType": "uint256",
          "name": "",
          "type": "uint256"
        }
      ],
      "stateMutability": "view",
      "type": "function"
    },
    {
      "inputs": [],
      "name": "risc0Verifier",
      "outputs": [
        {
          "internalType": "contract SimpleRISC0Test",
          "name": "",
          "type": "address"
        }
      ],
      "stateMutability": "view",
      "type": "function"
    },
    {
      "inputs": [
        {
          "internalType": "bytes",
          "name": "seal",
          "type": "bytes"
        },
        {
          "internalType": "bytes",
          "name": "journalData",
          "type": "bytes"
        }
      ],
      "name": "submitAccountProof",
      "outputs": [],
      "stateMutability": "nonpayable",
      "type": "function"
    },
    {
      "inputs": [
        {
          "internalType": "bytes",
          "name": "seal",
          "type": "bytes"
        },
        {
          "internalType": "bytes",
          "name": "journalData",
          "type": "bytes"
        }
      ],
      "name": "submitNestingProof",
      "outputs": [],
      "stateMutability": "nonpayable",
      "type": "function"
    },
    {
      "inputs": [
        {
          "internalType": "bytes",
          "name": "seal",
          "type": "bytes"
        },
        {
          "internalType": "bytes",
          "name": "journalData",
          "type": "bytes"
        }
      ],
      "name": "submitTradFiProof",
      "outputs": [],
      "stateMutability": "nonpayable",
      "type": "function"
    },
    {
      "inputs": [],
      "name": "tradFiWeight",
      "outputs": [
        {
          "internalType": "uint256",
          "name": "",
          "type": "uint256"
        }
      ],
      "stateMutability": "view",
      "type": "function"
    },
    {
      "inputs": [
        {
          "internalType": "uint256",
          "name": "_tradFiWeight",
          "type": "uint256"
        },
        {
          "internalType": "uint256",
          "name": "_accountWeight",
          "type": "uint256"
        },
        {
          "internalType": "uint256",
          "name": "_nestingWeight",
          "type": "uint256"
        }
      ],
      "name": "updateScoringWeights",
      "outputs": [],
      "stateMutability": "nonpayable",
      "type": "function"
    }
  ],
  "bytecode": "0x60a0346100b157601f61268038819003918201601f19168301916001600160401b038311848410176100b65780849260409485528339810103126100b157610052602061004b836100cc565b92016100cc565b6032600255601e60035560146004556001600160a01b03918216608052600080546001600160a01b0319169190921617905560405161259f90816100e182396080518181816101550152818161084801528181610e710152610eb60152f35b600080fd5b634e487b7160e01b600052604160045260246000fd5b51906001600160a01b03821682036100b15756fe608080604052600436101561001357600080fd5b600090813560e01c9081630a49cf4d1461188e5750806345171f261461171b5780634f0ca97114610ea05780635c9770c514610e5b5780636087c89f14610e3d5780636277f6c614610cee578063665a11ca14610cc75780636b0ad6fe14610b1b57806374601a8e146108325780637fa408d9146106f35780638922f3e3146106d557806393e30a6a146106b75780639de1b1ee146104fc578063b7161fac146104e0578063da4561e41461013f578063f25d4f33146100fc5763f511cab2146100dc57600080fd5b346100f957806003193601126100f9576020600254604051908152f35b80fd5b50346100f95760203660031901126100f95760209060ff90600a906040906001600160a01b0361012a6118a9565b16815260018552200154166040519015158152f35b50346100f95761014e36611c66565b90939290917f00000000000000000000000000000000000000000000000000000000000000006001600160a01b031691823b156104dc57839285928388936101ac60405197889687958694634295e81760e01b865260048601611cd7565b03925af180156104d157849184916104b4575b505060e0916101cc611dec565b50810103126100f9576040516101e18161195f565b6101ea836118c4565b92838252602082019160208201358352604081019160408101358352606082019560608201358752608083016080830135815261024660a085019260a0850135845260c08087019501358552339060018060a01b031614611d21565b60149761025386516124dd565b89018099116104a057610274889961026e899a98995161252f565b90611cfe565b7fc5d2460186f7233c927e7db2dcc703c0e500b653ca82273b7bfad8045d85a47082510361046e575b61038d946103f998948894610394989460119460089b5060648111600014610465575060406064975b338152600160205220805461ff001916610100178155426002820155600581018890559551600b870180546001600160a01b0319166001600160a01b03929092169190911790558c51600c8701558751600d87015551600e86015551600f850155516010840155519101556040516060808252600790820152661058d8dbdd5b9d60ca1b60808201527ff3e9df557a77817375ddbb676dd4856f795b087c5aa2761c428d196445cba7089060a081019260208201524260408201528033930390a2516123fe565b93516123fe565b9260296040519485926802130b630b731b29d160bd1b60208501526103c28151809260208688019101611b3c565b8301670102737b731b29d160c51b838201526103e8825180936020603185019101611b3c565b01010301601f19810183528261197a565b7f52fd0ce03bb9cae00f43ca137835ddd590733f99ab7866f37f67bd582d2c16de60405160408152806104566104476040830160409060078152661058d8dbdd5b9d60ca1b60208201520190565b82810360208401523395611b5f565b0390a261046233612174565b80f35b604090976102c6565b90919293949550600f810180911161048c578895949392919061029d565b634e487b7160e01b89526011600452602489fd5b634e487b7160e01b88526011600452602488fd5b819250906104c19161197a565b6104cd578282386101bf565b5080fd5b6040513d85823e3d90fd5b8480fd5b50346100f957806003193601126100f957602060405160198152f35b50346100f95760203660031901126100f9576040906105196118a9565b610521611dec565b5061052a611d60565b50610533611e23565b506001600160a01b031681526001602052206040519061055282611912565b60ff815481811615158452818160081c161515602085015260101c16151560408301526001810154606083015260028101546080830152600381015460a08301526101e06106b361067360048401549460c0810195865261065f60058601549560e08301968752600681015497610100840198895260078201546101208501526105de6008830161199b565b610140850152600982015461016085015260ff600a83015416151561018085015261060b600b8301611a3f565b936101a08101948552610634601761062560128601611a98565b946101c0840195865201611af7565b9788910152519651975192519051926040519889988952602089015260408801526060870190611b84565b610200610140860152610200850190611bcd565b82516001600160a01b0316610160850152602083015161018085015260408301516101a085015260608301516101c08501526080909201516101e0840152565b0390f35b50346100f957806003193601126100f957602060405162278d008152f35b50346100f957806003193601126100f9576020600454604051908152f35b50346100f95760203660031901126100f9576004356001600160401b0381116104cd57610724903690600401611c39565b61072f929192611d60565b508201916020818403126104cd578035906001600160401b03821161082e57019060a0828403126100f9576040519161076783611944565b80356001600160401b03811161082e5784610783918301611da5565b835260208101356001600160401b03811161082e57846107a4918301611da5565b602084015260408101356001600160401b03811161082e57846107c8918301611da5565b604084015260608101356001600160401b03811161082e57846107ec918301611da5565b60608401526080810135916001600160401b0383116100f9575092610815916106b39401611da5565b6080820152604051918291602083526020830190611bcd565b8280fd5b50346100f9578061084236611c66565b909390927f00000000000000000000000000000000000000000000000000000000000000006001600160a01b03169290833b1561082e57849383928388936108a0604051988996879586946318e4a27760e21b865260048601611cd7565b03925af1918215610b0e578492610af5575b505060a0916108bf611e23565b50810103126104cd57610aa760016009604051936108dc85611944565b6008610a0d610a0661038d896108f1866118c4565b998a8152601b602082019760208101358952604083019c8d604083013590526109386060850191606084013583526080808701940135845233908e8060a01b031614611d21565b60408151953381528d60205220936201000062ff0000198654161785554260038601558560068601558c8060a01b0390511660178501908d8060a01b03166bffffffffffffffffffffffff60a01b825416179055895160188501558d51601985015551601a84015551910155604051606081527ff3e9df557a77817375ddbb676dd4856f795b087c5aa2761c428d196445cba7086109ee6060830160409060078152664e657374696e6760c81b60208201520190565b918360208201524260408201528033930390a26123fe565b96516123fe565b602e6040519788946d0243cb13934b21029b1b7b9329d160951b6020870152610a3f815180926020868a019101611b3c565b850167010142232a3349d160c51b83820152610a65825180936020603685019101611b3c565b0101680102a3930b223349d160bd1b83820152610a8c825180936020601185019101611b3c565b0101602960f81b838201520301601e1981018452018261197a565b7f52fd0ce03bb9cae00f43ca137835ddd590733f99ab7866f37f67bd582d2c16de60405160408152806104566104476040830160409060078152664e657374696e6760c81b60208201520190565b81925090610b029161197a565b61082e578183386108b2565b50604051903d90823e3d90fd5b50346100f95760203660031901126100f95760c0906040906001600160a01b03610b436118a9565b16815260016020522060405190610b5982611912565b80549160ff831615158152602081019160ff8460081c161515835260ff604083019460101c1615158452600181015493606083019485526002820154936080840194855260038301549160a08501928352600484015488860152600584015460e086015260068401546101008601526007840154916101208601928352610be26008860161199b565b6101408701526009850154956101608101968752610c38601760ff600a890154169761018084019815158952610c1a600b8201611a3f565b6101a0850152610c2c60128201611a98565b6101c085015201611af7565b6101e08201525115159788610cb4575b505115159586610ca1575b505115159182610c8e575b505191511515925193604051951515865215156020860152151560408501526060840152608083015260a0820152f35b610c9a919250516123b1565b9038610c5e565b610cad919650516123b1565b9438610c53565b610cc0919850516123b1565b9638610c48565b50346100f957806003193601126100f957546040516001600160a01b039091168152602090f35b50346100f95760603660031901126100f95780546040516334cc866d60e21b815260443591602435916004803592602091839182906001600160a01b03165afa908115610e32578591610df0575b506001600160a01b03163303610db7576064610d6184610d5c8585611cfe565b611cfe565b03610d725760025560035560045580f35b60405162461bcd60e51b815260206004820152601760248201527f57656967687473206d7573742073756d20746f203130300000000000000000006044820152606490fd5b60405162461bcd60e51b81526020600482015260116024820152704f6e6c792044414f2f54696d656c6f636b60781b6044820152606490fd5b90506020813d602011610e2a575b81610e0b6020938361197a565b810103126104dc57516001600160a01b03811681036104dc5738610d3c565b3d9150610dfe565b6040513d87823e3d90fd5b50346100f957806003193601126100f9576020600354604051908152f35b50346100f957806003193601126100f9576040517f00000000000000000000000000000000000000000000000000000000000000006001600160a01b03168152602090f35b50346100f957610eaf36611c66565b90939290917f00000000000000000000000000000000000000000000000000000000000000006001600160a01b031691823b156104dc5783928592838893610f0d6040519788968795869463247ccb9560e01b865260048601611cd7565b03925af180156104d157611707575b50610f279192611e90565b610f30816120a4565b9033835260016020526040832091600160ff198454161783554260018401558060048401556020820192835160088201908051906001600160401b0382116113fb578190610f7e84546118d8565b601f81116116b7575b50602090601f8311600114611654578992611649575b50508160011b916000199060031b1c19161790555b6012810183518051906001600160401b0382116113fb578190610fd584546118d8565b601f81116115f9575b50602090601f831160011461159657899261158b575b50508160011b916000199060031b1c19161790555b6013810184518051906001600160401b0382116113fb57819061102c84546118d8565b601f811161153b575b50602090601f83116001146114d85789926114cd575b50508160011b916000199060031b1c19161790555b6014810160408401518051906001600160401b0382116113fb57819061108684546118d8565b601f811161147d575b50602090601f831160011461141a57899261140f575b50508160011b916000199060031b1c19161790555b6015810160608401518051906001600160401b0382116113fb576110de83546118d8565b601f81116113b6575b50602090601f831160011461134f57601694939291899183611344575b50508160011b916000199060031b1c19161790555b0160808301518051906001600160401b0382116113305761113a83546118d8565b601f81116112eb575b50602090601f8311600114611280579180611228969492600696948a92611275575b50508160011b916000199060031b1c19161790555b7ff3e9df557a77817375ddbb676dd4856f795b087c5aa2761c428d196445cba708604051606081526111c360608201604090600681526554726164466960d01b60208201520190565b9260208201524260408201528033930390a251925192602760405194859266029b1b7b9329d160cd1b60208501526112048151809260208688019101611b3c565b830165010333937b6960d51b838201526103e8825180936020602d85019101611b3c565b7f52fd0ce03bb9cae00f43ca137835ddd590733f99ab7866f37f67bd582d2c16de604051604081528061045661044760408301604090600681526554726164466960d01b60208201520190565b015190503880611165565b8388528188209190601f198416895b8181106112d35750926001928592600698966112289a9896106112ba575b505050811b01905561117a565b015160001960f88460031b161c191690553880806112ad565b9293602060018192878601518155019501930161128f565b83885260208820601f840160051c81019160208510611326575b601f0160051c01905b81811061131b5750611143565b88815560010161130e565b9091508190611305565b634e487b7160e01b87526041600452602487fd5b015190503880611104565b8389528189209190601f1984168a5b81811061139e575091600193918560169897969410611385575b505050811b019055611119565b015160001960f88460031b161c19169055388080611378565b9293602060018192878601518155019501930161135e565b83895260208920601f840160051c810191602085106113f1575b601f0160051c01905b8181106113e657506110e7565b8981556001016113d9565b90915081906113d0565b634e487b7160e01b88526041600452602488fd5b0151905038806110a5565b848a52818a209250601f1984168a5b818110611465575090846001959493921061144c575b505050811b0190556110ba565b015160001960f88460031b161c1916905538808061143f565b92936020600181928786015181550195019301611429565b90915083895260208920601f840160051c810191602085106114c3575b90601f859493920160051c01905b8181106114b5575061108f565b8a81558493506001016114a8565b909150819061149a565b01519050388061104b565b848a52818a209250601f1984168a5b818110611523575090846001959493921061150a575b505050811b019055611060565b015160001960f88460031b161c191690553880806114fd565b929360206001819287860151815501950193016114e7565b90915083895260208920601f840160051c81019160208510611581575b90601f859493920160051c01905b8181106115735750611035565b8a8155849350600101611566565b9091508190611558565b015190503880610ff4565b848a52818a209250601f1984168a5b8181106115e157509084600195949392106115c8575b505050811b019055611009565b015160001960f88460031b161c191690553880806115bb565b929360206001819287860151815501950193016115a5565b90915083895260208920601f840160051c8101916020851061163f575b90601f859493920160051c01905b8181106116315750610fde565b8a8155849350600101611624565b9091508190611616565b015190503880610f9d565b848a52818a209250601f1984168a5b81811061169f5750908460019594939210611686575b505050811b019055610fb2565b015160001960f88460031b161c19169055388080611679565b92936020600181928786015181550195019301611663565b90915083895260208920601f840160051c810191602085106116fd575b90601f859493920160051c01905b8181106116ef5750610f87565b8a81558493506001016116e2565b90915081906116d4565b9161171581610f279461197a565b91610f1c565b50346100f95760203660031901126100f9576001600160a01b0361173d6118a9565b16815260016020526040902080546001820154916002810154906003810154600482015490600583015491600684015460078501546008860161177f9061199b565b91600987015495600a88015460ff1694600b890161179c90611a3f565b966117a960128b01611a98565b996017016117b690611af7565b9a6040519d8e8e819f60ff16151582528060081c60ff161515602083015260101c60ff16151560408201526060015260808d015260a08c015260c08b015260e08a015261010089015261012088015261014087016103409052610340870161181d91611b5f565b9261016087015215156101808601526101a0850161183a91611b84565b83810361028085015261184c91611bcd565b81516001600160a01b03166102a084015260208201516102c084015260408201516102e084015260608201516103008401526080909101516103208301520390f35b9050346104cd57816003193601126104cd5780601960209252f35b600435906001600160a01b03821682036118bf57565b600080fd5b35906001600160a01b03821682036118bf57565b90600182811c92168015611908575b60208310146118f257565b634e487b7160e01b600052602260045260246000fd5b91607f16916118e7565b61020081019081106001600160401b0382111761192e57604052565b634e487b7160e01b600052604160045260246000fd5b60a081019081106001600160401b0382111761192e57604052565b60e081019081106001600160401b0382111761192e57604052565b90601f801991011681019081106001600160401b0382111761192e57604052565b90604051918260008254926119af846118d8565b8084529360018116908115611a1d57506001146119d6575b506119d49250038361197a565b565b90506000929192526020600020906000915b818310611a015750509060206119d492820101386119c7565b60209193508060019154838589010152019101909184926119e8565b9050602092506119d494915060ff191682840152151560051b820101386119c7565b90604051611a4c8161195f565b82546001600160a01b0316815260018301546020820152600283015460408201526003830154606082015260048301546080820152600583015460a082015260069092015460c0830152565b90604051611aa581611944565b6080611af260048395611ab78161199b565b8552611ac56001820161199b565b6020860152611ad66002820161199b565b6040860152611ae76003820161199b565b60608601520161199b565b910152565b90604051611b0481611944565b82546001600160a01b031681526001830154602082015260028301546040820152600383015460608201526004909201546080830152565b60005b838110611b4f5750506000910152565b8181015183820152602001611b3f565b90602091611b7881518092818552858086019101611b3c565b601f01601f1916010190565b60c0809160018060a01b0381511684526020810151602085015260408101516040850152606081015160608501526080810151608085015260a081015160a08501520151910152565b611c36916080611c25611c13611c01611bef865160a0875260a0870190611b5f565b60208701518682036020880152611b5f565b60408601518582036040870152611b5f565b60608501518482036060860152611b5f565b920151906080818403910152611b5f565b90565b9181601f840112156118bf578235916001600160401b0383116118bf57602083818601950101116118bf57565b60406003198201126118bf576004356001600160401b0381116118bf5781611c9091600401611c39565b92909291602435906001600160401b0382116118bf57611cb291600401611c39565b9091565b908060209392818452848401376000828201840152601f01601f1916010190565b9290611cf090611c369593604086526040860191611cb6565b926020818503910152611cb6565b91908201809211611d0b57565b634e487b7160e01b600052601160045260246000fd5b15611d2857565b60405162461bcd60e51b815260206004820152601060248201526f082c6c6deeadce840dad2e6dac2e8c6d60831b6044820152606490fd5b60405190611d6d82611944565b606060808382815282602082015282604082015282808201520152565b6001600160401b03811161192e57601f01601f191660200190565b81601f820112156118bf57803590611dbc82611d8a565b92611dca604051948561197a565b828452602083830101116118bf57816000926020809301838601378301015290565b60405190611df98261195f565b600060c0838281528260208201528260408201528260608201528260808201528260a08201520152565b60405190611e3082611944565b60006080838281528260208201528260408201528260608201520152565b81601f820112156118bf578051611e6481611d8a565b92611e72604051948561197a565b818452602082840101116118bf57611c369160208085019101611b3c565b600090611ec392611e9f611d60565b50604051637fa408d960e01b81526020600482015293849283926024840191611cb6565b0381305afa8091600091611fa5575b5090611c365750604051611ee581611944565b60408051611ef3828261197a565b600381526203735360ec1b602082015282528051611f11828261197a565b600d81526c1d1b1cdb8b5d995c9a599a5959609a1b602082015260208301528051611f3c828261197a565b600a815269323032342d30312d313560b01b6020820152818301528051611f63828261197a565b60078152663ab735b737bbb760c91b60208201526060830152611f888151918261197a565b60088152671d995c9a599a595960c21b6020820152608082015290565b3d8083833e611fb4818361197a565b81019060208183031261082e578051906001600160401b0382116120a057019160a0838303126100f95760405192611feb84611944565b80516001600160401b03811161082e5783612007918301611e4e565b845260208101516001600160401b03811161082e5783612028918301611e4e565b602085015260408101516001600160401b03811161082e578361204c918301611e4e565b604085015260608101516001600160401b03811161082e5783612070918301611e4e565b60608501526080810151916001600160401b0383116100f95750612095929101611e4e565b608082015238611ed2565b8380fd5b5190600091825b815181101561211e576120be81836123d7565b5160f81c603081101580612113575b6120db575b506001016120ab565b600a8592950291808304600a1490151715611d0b57602f190160ff8111611d0b5760019160ff61210c921690611cfe565b93906120d2565b5060398111156120cd565b50509061032081101561216e576102ee811015612168576102bc8110156121625761028a81101561215c57610258111561215757601e90565b603290565b50604190565b50604b90565b50605590565b50605f90565b6001600160a01b031660008181526001602052604081208054829190829060ff81168061239e575b612380575b60ff8160081c168061236d575b612341575b60101c60ff168061232e575b612306575b600782018054949093908115806122fb576122e7570480935b554260098301558261227d575b50600a0160ff815416847f2743c09acd09f346fca50195f8b4ebf3056ef088f466f98e2bcfc562277146c86060601986101596879560ff1981541660ff8816179055604051908152866020820152856040820152a215150361224b57505050565b7f74e405d0b260e01bf8bb805b85863b0197c75af32ab8952941f349c81f67492c9160409182519182526020820152a2565b80546001600160a01b0316803b156104cd5781809160446040518094819363a75b24c760e01b83523360048401528960248401525af180156122dc5790600a9392916122cc575b5050906121ea565b816122d69161197a565b386122c4565b6040513d84823e3d90fd5b634e487b7160e01b83526012600452602483fd5b5050508080936121dd565b91926123289061232260068401549161026e60045480946123c4565b94611cfe565b916121c4565b5061233c60038301546123b1565b6121bf565b929361236560ff9161235f60058601549161026e60035480946123c4565b96611cfe565b9390506121b3565b5061237b60028401546123b1565b6121ae565b9250925060048101549261239760025480956123c4565b93926121a1565b506123ac60018401546123b1565b61219c565b62278d008101809111611d0b5742111590565b81810292918115918404141715611d0b57565b9081518110156123e8570160200190565b634e487b7160e01b600052603260045260246000fd5b80156124bd5780816000925b6124a557508061241983611d8a565b92612427604051948561197a565b808452601f1961243682611d8a565b01366020860137915b61244857505090565b6000198201918211611d0b5781600a820491600a8302838104600a1484151715611d0b578103908111611d0b5760ff1660300160ff8111611d0b5760f81b6001600160f81b03191660001a9061249e90856123d7565b538061243f565b916000198114611d0b576001600a910192048061240a565b506040516124cc60408261197a565b60018152600360fc1b602082015290565b670de0b6b3a76400008104606481101561252857600a811015612521576001111561251b5767016345785d8a0000111561251657600a90565b600f90565b50601490565b5050601990565b5050601e90565b6103e881101561256357606481101561251b57600a81101561255d576001111561255857600090565b600a90565b50600f90565b5060199056fea2646970667358221220b2eb0527383f8befc8972d95d82442bd917278d02af3d756f40b7fbe272772e064736f6c634300081c0033",
  "linkReferences": {},
  "deployedLinkReferences": {}
}