{
  "_format": "hh-sol-artifact-1",
  "contractName": "LendingManager",
  "sourceName": "contracts/LendingManager.sol",
  "abi": [
    {
      "inputs": [
        {
          "internalType": "address",
          "name": "initialOwner",
          "type": "address"
        },
        {
          "internalType": "address",
          "name": "_liquidityPool",
          "type": "address"
        }
      ],
      "stateMutability": "nonpayable",
      "type": "constructor"
    },
    {
      "inputs": [
        {
          "internalType": "address",
          "name": "owner",
          "type": "address"
        }
      ],
      "name": "OwnableInvalidOwner",
      "type": "error"
    },
    {
      "inputs": [
        {
          "internalType": "address",
          "name": "account",
          "type": "address"
        }
      ],
      "name": "OwnableUnauthorizedAccount",
      "type": "error"
    },
    {
      "anonymous": false,
      "inputs": [
        {
          "indexed": true,
          "internalType": "address",
          "name": "lender",
          "type": "address"
        },
        {
          "indexed": false,
          "internalType": "uint256",
          "name": "penaltyAmount",
          "type": "uint256"
        }
      ],
      "name": "EarlyWithdrawalPenalty",
      "type": "event"
    },
    {
      "anonymous": false,
      "inputs": [
        {
          "indexed": true,
          "internalType": "address",
          "name": "lender",
          "type": "address"
        },
        {
          "indexed": false,
          "internalType": "uint256",
          "name": "amount",
          "type": "uint256"
        }
      ],
      "name": "FundsDeposited",
      "type": "event"
    },
    {
      "anonymous": false,
      "inputs": [
        {
          "indexed": true,
          "internalType": "address",
          "name": "lender",
          "type": "address"
        },
        {
          "indexed": false,
          "internalType": "uint256",
          "name": "amount",
          "type": "uint256"
        },
        {
          "indexed": false,
          "internalType": "uint256",
          "name": "penalty",
          "type": "uint256"
        }
      ],
      "name": "FundsWithdrawn",
      "type": "event"
    },
    {
      "anonymous": false,
      "inputs": [
        {
          "indexed": true,
          "internalType": "address",
          "name": "lender",
          "type": "address"
        },
        {
          "indexed": false,
          "internalType": "uint256",
          "name": "amount",
          "type": "uint256"
        }
      ],
      "name": "InterestAvailable",
      "type": "event"
    },
    {
      "anonymous": false,
      "inputs": [
        {
          "indexed": true,
          "internalType": "address",
          "name": "lender",
          "type": "address"
        },
        {
          "indexed": false,
          "internalType": "uint256",
          "name": "interest",
          "type": "uint256"
        }
      ],
      "name": "InterestClaimed",
      "type": "event"
    },
    {
      "anonymous": false,
      "inputs": [
        {
          "indexed": true,
          "internalType": "address",
          "name": "lender",
          "type": "address"
        },
        {
          "indexed": false,
          "internalType": "uint256",
          "name": "interest",
          "type": "uint256"
        }
      ],
      "name": "InterestCredited",
      "type": "event"
    },
    {
      "anonymous": false,
      "inputs": [
        {
          "indexed": true,
          "internalType": "address",
          "name": "previousOwner",
          "type": "address"
        },
        {
          "indexed": true,
          "internalType": "address",
          "name": "newOwner",
          "type": "address"
        }
      ],
      "name": "OwnershipTransferred",
      "type": "event"
    },
    {
      "anonymous": false,
      "inputs": [
        {
          "indexed": true,
          "internalType": "address",
          "name": "lender",
          "type": "address"
        },
        {
          "indexed": false,
          "internalType": "uint256",
          "name": "amount",
          "type": "uint256"
        },
        {
          "indexed": false,
          "internalType": "uint256",
          "name": "unlockTime",
          "type": "uint256"
        }
      ],
      "name": "PrincipalWithdrawalRequested",
      "type": "event"
    },
    {
      "anonymous": false,
      "inputs": [
        {
          "indexed": true,
          "internalType": "address",
          "name": "lender",
          "type": "address"
        },
        {
          "indexed": false,
          "internalType": "uint256",
          "name": "amount",
          "type": "uint256"
        }
      ],
      "name": "WithdrawalCancelled",
      "type": "event"
    },
    {
      "anonymous": false,
      "inputs": [
        {
          "indexed": true,
          "internalType": "address",
          "name": "lender",
          "type": "address"
        },
        {
          "indexed": false,
          "internalType": "uint256",
          "name": "amount",
          "type": "uint256"
        },
        {
          "indexed": false,
          "internalType": "uint256",
          "name": "unlockTime",
          "type": "uint256"
        }
      ],
      "name": "WithdrawalRequested",
      "type": "event"
    },
    {
      "inputs": [],
      "name": "EARLY_WITHDRAWAL_PENALTY",
      "outputs": [
        {
          "internalType": "uint256",
          "name": "",
          "type": "uint256"
        }
      ],
      "stateMutability": "view",
      "type": "function"
    },
    {
      "inputs": [],
      "name": "MAX_DEPOSIT_AMOUNT",
      "outputs": [
        {
          "internalType": "uint256",
          "name": "",
          "type": "uint256"
        }
      ],
      "stateMutability": "view",
      "type": "function"
    },
    {
      "inputs": [],
      "name": "MIN_DEPOSIT_AMOUNT",
      "outputs": [
        {
          "internalType": "uint256",
          "name": "",
          "type": "uint256"
        }
      ],
      "stateMutability": "view",
      "type": "function"
    },
    {
      "inputs": [],
      "name": "SECONDS_PER_DAY",
      "outputs": [
        {
          "internalType": "uint256",
          "name": "",
          "type": "uint256"
        }
      ],
      "stateMutability": "view",
      "type": "function"
    },
    {
      "inputs": [],
      "name": "WITHDRAWAL_COOLDOWN",
      "outputs": [
        {
          "internalType": "uint256",
          "name": "",
          "type": "uint256"
        }
      ],
      "stateMutability": "view",
      "type": "function"
    },
    {
      "inputs": [
        {
          "internalType": "address",
          "name": "lender",
          "type": "address"
        }
      ],
      "name": "calculateInterest",
      "outputs": [
        {
          "internalType": "uint256",
          "name": "interest",
          "type": "uint256"
        }
      ],
      "stateMutability": "view",
      "type": "function"
    },
    {
      "inputs": [
        {
          "internalType": "uint256",
          "name": "amount",
          "type": "uint256"
        },
        {
          "internalType": "uint256",
          "name": "numDays",
          "type": "uint256"
        }
      ],
      "name": "calculatePotentialInterest",
      "outputs": [
        {
          "internalType": "uint256",
          "name": "",
          "type": "uint256"
        }
      ],
      "stateMutability": "view",
      "type": "function"
    },
    {
      "inputs": [
        {
          "internalType": "address",
          "name": "lender",
          "type": "address"
        }
      ],
      "name": "canCompleteWithdrawal",
      "outputs": [
        {
          "internalType": "bool",
          "name": "",
          "type": "bool"
        }
      ],
      "stateMutability": "view",
      "type": "function"
    },
    {
      "inputs": [],
      "name": "cancelPrincipalWithdrawal",
      "outputs": [],
      "stateMutability": "nonpayable",
      "type": "function"
    },
    {
      "inputs": [],
      "name": "claimInterest",
      "outputs": [],
      "stateMutability": "nonpayable",
      "type": "function"
    },
    {
      "inputs": [],
      "name": "completeWithdrawal",
      "outputs": [],
      "stateMutability": "nonpayable",
      "type": "function"
    },
    {
      "inputs": [],
      "name": "currentDailyRate",
      "outputs": [
        {
          "internalType": "uint256",
          "name": "",
          "type": "uint256"
        }
      ],
      "stateMutability": "view",
      "type": "function"
    },
    {
      "inputs": [
        {
          "internalType": "uint256",
          "name": "",
          "type": "uint256"
        }
      ],
      "name": "dailyInterestRate",
      "outputs": [
        {
          "internalType": "uint256",
          "name": "",
          "type": "uint256"
        }
      ],
      "stateMutability": "view",
      "type": "function"
    },
    {
      "inputs": [],
      "name": "depositFunds",
      "outputs": [],
      "stateMutability": "payable",
      "type": "function"
    },
    {
      "inputs": [
        {
          "internalType": "address",
          "name": "lender",
          "type": "address"
        }
      ],
      "name": "getAvailableInterest",
      "outputs": [
        {
          "internalType": "uint256",
          "name": "",
          "type": "uint256"
        }
      ],
      "stateMutability": "view",
      "type": "function"
    },
    {
      "inputs": [
        {
          "internalType": "uint256",
          "name": "amount",
          "type": "uint256"
        }
      ],
      "name": "getInterestRate",
      "outputs": [
        {
          "internalType": "uint256",
          "name": "",
          "type": "uint256"
        }
      ],
      "stateMutability": "view",
      "type": "function"
    },
    {
      "inputs": [
        {
          "internalType": "uint256",
          "name": "index",
          "type": "uint256"
        }
      ],
      "name": "getInterestTier",
      "outputs": [
        {
          "internalType": "uint256",
          "name": "minAmount",
          "type": "uint256"
        },
        {
          "internalType": "uint256",
          "name": "rate",
          "type": "uint256"
        }
      ],
      "stateMutability": "view",
      "type": "function"
    },
    {
      "inputs": [],
      "name": "getInterestTierCount",
      "outputs": [
        {
          "internalType": "uint256",
          "name": "",
          "type": "uint256"
        }
      ],
      "stateMutability": "view",
      "type": "function"
    },
    {
      "inputs": [
        {
          "internalType": "address",
          "name": "lender",
          "type": "address"
        }
      ],
      "name": "getLenderInfo",
      "outputs": [
        {
          "internalType": "uint256",
          "name": "balance",
          "type": "uint256"
        },
        {
          "internalType": "uint256",
          "name": "pendingInterest",
          "type": "uint256"
        },
        {
          "internalType": "uint256",
          "name": "earnedInterest",
          "type": "uint256"
        },
        {
          "internalType": "uint256",
          "name": "nextInterestUpdate",
          "type": "uint256"
        },
        {
          "internalType": "uint256",
          "name": "penaltyFreeWithdrawalTime",
          "type": "uint256"
        },
        {
          "internalType": "uint256",
          "name": "lastDistributionTime",
          "type": "uint256"
        }
      ],
      "stateMutability": "view",
      "type": "function"
    },
    {
      "inputs": [
        {
          "internalType": "address",
          "name": "lender",
          "type": "address"
        }
      ],
      "name": "getWithdrawalStatus",
      "outputs": [
        {
          "internalType": "uint256",
          "name": "availableAt",
          "type": "uint256"
        },
        {
          "internalType": "uint256",
          "name": "penaltyIfWithdrawnNow",
          "type": "uint256"
        },
        {
          "internalType": "bool",
          "name": "isAvailableWithoutPenalty",
          "type": "bool"
        },
        {
          "internalType": "uint256",
          "name": "nextInterestDistribution",
          "type": "uint256"
        },
        {
          "internalType": "uint256",
          "name": "availableInterest",
          "type": "uint256"
        }
      ],
      "stateMutability": "view",
      "type": "function"
    },
    {
      "inputs": [
        {
          "internalType": "uint256",
          "name": "",
          "type": "uint256"
        }
      ],
      "name": "interestTiers",
      "outputs": [
        {
          "internalType": "uint256",
          "name": "minAmount",
          "type": "uint256"
        },
        {
          "internalType": "uint256",
          "name": "rate",
          "type": "uint256"
        }
      ],
      "stateMutability": "view",
      "type": "function"
    },
    {
      "inputs": [],
      "name": "lastRateUpdateDay",
      "outputs": [
        {
          "internalType": "uint256",
          "name": "",
          "type": "uint256"
        }
      ],
      "stateMutability": "view",
      "type": "function"
    },
    {
      "inputs": [
        {
          "internalType": "address",
          "name": "",
          "type": "address"
        }
      ],
      "name": "lenders",
      "outputs": [
        {
          "internalType": "uint256",
          "name": "balance",
          "type": "uint256"
        },
        {
          "internalType": "uint256",
          "name": "depositTimestamp",
          "type": "uint256"
        },
        {
          "internalType": "uint256",
          "name": "lastInterestUpdate",
          "type": "uint256"
        },
        {
          "internalType": "uint256",
          "name": "interestIndex",
          "type": "uint256"
        },
        {
          "internalType": "uint256",
          "name": "earnedInterest",
          "type": "uint256"
        },
        {
          "internalType": "uint256",
          "name": "pendingPrincipalWithdrawal",
          "type": "uint256"
        },
        {
          "internalType": "uint256",
          "name": "withdrawalRequestTime",
          "type": "uint256"
        },
        {
          "internalType": "uint256",
          "name": "lastInterestDistribution",
          "type": "uint256"
        },
        {
          "internalType": "uint256",
          "name": "lastWithdrawalTime",
          "type": "uint256"
        }
      ],
      "stateMutability": "view",
      "type": "function"
    },
    {
      "inputs": [],
      "name": "liquidityPool",
      "outputs": [
        {
          "internalType": "address",
          "name": "",
          "type": "address"
        }
      ],
      "stateMutability": "view",
      "type": "function"
    },
    {
      "inputs": [],
      "name": "owner",
      "outputs": [
        {
          "internalType": "address",
          "name": "",
          "type": "address"
        }
      ],
      "stateMutability": "view",
      "type": "function"
    },
    {
      "inputs": [],
      "name": "renounceOwnership",
      "outputs": [],
      "stateMutability": "nonpayable",
      "type": "function"
    },
    {
      "inputs": [
        {
          "internalType": "uint256",
          "name": "amount",
          "type": "uint256"
        }
      ],
      "name": "requestWithdrawal",
      "outputs": [],
      "stateMutability": "nonpayable",
      "type": "function"
    },
    {
      "inputs": [
        {
          "internalType": "uint256",
          "name": "newRate",
          "type": "uint256"
        }
      ],
      "name": "setCurrentDailyRate",
      "outputs": [],
      "stateMutability": "nonpayable",
      "type": "function"
    },
    {
      "inputs": [
        {
          "internalType": "uint256",
          "name": "newPenalty",
          "type": "uint256"
        }
      ],
      "name": "setEarlyWithdrawalPenalty",
      "outputs": [],
      "stateMutability": "nonpayable",
      "type": "function"
    },
    {
      "inputs": [
        {
          "internalType": "uint256",
          "name": "index",
          "type": "uint256"
        },
        {
          "internalType": "uint256",
          "name": "minAmount",
          "type": "uint256"
        },
        {
          "internalType": "uint256",
          "name": "rate",
          "type": "uint256"
        }
      ],
      "name": "setInterestTier",
      "outputs": [],
      "stateMutability": "nonpayable",
      "type": "function"
    },
    {
      "inputs": [],
      "name": "totalLent",
      "outputs": [
        {
          "internalType": "uint256",
          "name": "",
          "type": "uint256"
        }
      ],
      "stateMutability": "view",
      "type": "function"
    },
    {
      "inputs": [
        {
          "internalType": "address",
          "name": "newOwner",
          "type": "address"
        }
      ],
      "name": "transferOwnership",
      "outputs": [],
      "stateMutability": "nonpayable",
      "type": "function"
    },
    {
      "stateMutability": "payable",
      "type": "receive"
    }
  ],
  "bytecode": "0x60806040523461018357604051601f611a6238819003918201601f19168301916001600160401b03831184841017610188578084926040948552833981010312610183576100586020610051836101bd565b92016101bd565b906001600160a01b0316801561016d57600080546001600160a01b03198116831782556001600160a01b0316907f8be0079c531659141344cd1fd0a4f28419497f9722a3daafe3b4186f6b6457e09080a3600880546001600160a01b0319166001600160a01b03929092169190911790556005600755670de12d4cc511c00060035562015180420460045561010c6100ee61019e565b678ac7230489e800008152670de13f20401b600060208201526101d1565b61013561011761019e565b674563918244f400008152670de13607f1a8c00060208201526101d1565b61015e61014061019e565b670de0b6b3a76400008152670de12d4cc511c00060208201526101d1565b60405161183990816102298239f35b631e4fbdf760e01b600052600060045260246000fd5b600080fd5b634e487b7160e01b600052604160045260246000fd5b60408051919082016001600160401b0381118382101761018857604052565b51906001600160a01b038216820361018357565b6006546801000000000000000081101561018857600181018060065581101561021257602060019160066000528160002090831b0192805184550151910155565b634e487b7160e01b600052603260045260246000fdfe6080604052600436101561001b575b361561001957600080fd5b005b60003560e01c80630c196a74146111035780631876b415146110995780631a3f61cd1461105b5780631ea30fef1461103957806321bf898514610ffc57806328fd10d714610f6657806332aa9b6814610f3757806333ec339e14610e7d57806335981fd814610d435780634c34a98214610d1f578063537dd93a14610c93578063665a11ca14610c6a5780636d7c218b14610c4c578063715018a614610bf35780637491687e14610a4e57806374f0314f1461018157806382ee21fc14610a305780638a2e98f3146109cf5780638da5cb5b146109a657806394e95da3146109885780639ee679e81461086b578063ab19f09514610737578063ade2854d14610719578063b918ee25146106fb578063cca4391614610651578063d704731014610618578063e03ff7cb14610449578063e11932cf14610412578063e2c41dbc14610244578063f2fde38b146101b7578063fccf6a1e146101865763feedab000361000e575b611156565b346101b25760203660031901126101b25760043560005260056020526020604060002054604051908152f35b600080fd5b346101b25760203660031901126101b2576004356001600160a01b038116908190036101b2576101e5611648565b801561022e57600080546001600160a01b03198116831782556001600160a01b0316907f8be0079c531659141344cd1fd0a4f28419497f9722a3daafe3b4186f6b6457e09080a3005b631e4fbdf760e01b600052600060045260246000fd5b60003660031901126101b257662386f26fc1000034106103d45733600052600160205268056bc75e2d63100000610280604060002054346113c5565b116103845760008080803460018060a01b03600854165af16102a0611315565b501561032d5733600052600160205260406000206102bd33611671565b6102d08154801561030f575b34906113c5565b90556102de346002546113c5565b6002556040513481527f543ba50a5eec5e6178218e364b1d0f396157b3c8fa278522c2cb7fd99407d47460203392a2005b6103176115bc565b60038401554260018401554260078401556102c9565b60405162461bcd60e51b815260206004820152602960248201527f4661696c656420746f20666f72776172642066756e647320746f206c69717569604482015268191a5d1e481c1bdbdb60ba1b6064820152608490fd5b60405162461bcd60e51b815260206004820152602260248201527f4465706f73697420776f756c6420657863656564206d6178696d756d206c696d6044820152611a5d60f21b6064820152608490fd5b60405162461bcd60e51b81526020600482015260166024820152754465706f73697420616d6f756e7420746f6f206c6f7760501b6044820152606490fd5b346101b25760203660031901126101b2576004356001600160a01b03811681036101b257610441602091611469565b604051908152f35b346101b25760003660031901126101b25733600052600160205260406000206005810180549081156105db57819260009260018201546201518081018091116105c7574210610573575b50906000916104ac6104a585876113c5565b82546111a7565b90556104c36104bb84866113c5565b6002546111a7565b6002555561051260008060018060a01b036008541660405182602082019163e19fb8f560e01b83528860248201526024815261050060448261122d565b51925af161050c611315565b50611355565b816000811561056a575b600080809381933390f11561055e5760405191825260208201527ffbc3a599b784fe88772fc5abcc07223f64ca0b13acc341f4fb1e46bef0510eb460403392a2005b6040513d6000823e3d90fd5b506108fc61051c565b92509250600090610593606461058b60075486611174565b0480946111a7565b936040518481527fb6a45448c8250adf8d836e047d46f96410d632c7089720e3aed88fcb76644ded60203392a29091610493565b634e487b7160e01b85526011600452602485fd5b60405162461bcd60e51b8152602060048201526015602482015274139bc81c195b991a5b99c81dda5d1a191c985dd85b605a1b6044820152606490fd5b346101b25760203660031901126101b2576004356001600160a01b03811681036101b2576106476020916113d2565b6040519015158152f35b346101b25760003660031901126101b2573360005260016020526040600020600581019081549182156106b657600091826006925501556040519081527f2eed97477f07c07ec48f8f678f4e84f7c0de55bf33f51c3dc989b1335308031960203392a2005b60405162461bcd60e51b815260206004820152601f60248201527f4e6f2070656e64696e67207769746864726177616c20746f2063616e63656c006044820152606490fd5b346101b25760003660031901126101b2576020600754604051908152f35b346101b25760003660031901126101b2576020600654604051908152f35b346101b25760203660031901126101b2576004356001600160a01b0381168082036101b257600090600052600160205260406000209160405161077981611210565b8354928382526001850154918260208201526002860154604082015260038601549360608201948552600487015491826080820152600588015460a0820152600688015460c0820152610100600860078a01549960e084019a8b520154910152620151808401809411610855578560c09751958161081f575b50506107fd90611738565b91604051958652602086015260408501526060840152608083015260a0820152f35b6107fd9294509061084661084b9261083e6108386115bc565b84611174565b905190611187565b6111a7565b92905085886107f2565b634e487b7160e01b600052601160045260246000fd5b346101b25760203660031901126101b2576004353360005260016020526040600020600881019081546201518081018091116108555742106109435780548311610907576108b833611671565b8260058201556006429101554290556201518042018042116108555760405191825260208201527f24b91f4f47caf44230a57777a9be744924e82bf666f2d5702faf97df35e60f9f60403392a2005b60405162461bcd60e51b8152602060048201526014602482015273496e73756666696369656e742062616c616e636560601b6044820152606490fd5b60405162461bcd60e51b815260206004820152601d60248201527f4d757374207761697420666f7220636f6f6c646f776e20706572696f640000006044820152606490fd5b346101b25760003660031901126101b2576020600454604051908152f35b346101b25760003660031901126101b2576000546040516001600160a01b039091168152602090f35b346101b25760203660031901126101b2576004356109eb611648565b606481116109f857600755005b60405162461bcd60e51b815260206004820152601060248201526f0a0cadcc2d8e8f240e8dede40d0d2ced60831b6044820152606490fd5b346101b25760003660031901126101b2576020600354604051908152f35b346101b25760203660031901126101b2576004356001600160a01b038116908190036101b2576000809181526001602052604081209160405192610a9184611210565b80548452600181015492836020860152600282015460408601526003820154916060860192835260048101546080870152600581015460a0870152600681015460c0870152600860078201549160e088019283520154610100870152620151808501809511610bdf578442109182600014610bd8576064610b16885160075490611174565b04915b5180610bc4575062015180420190814211610bb057505b610b39426113b5565b811115610ba65750620151804201958642116108555760a096935b8151610b7a575b5050604051948552602085015215604084015260608301526080820152f35b610b9e929550610b969061083e610b8f6115bc565b8451611174565b9051906111a7565b928680610b5b565b9560a09693610b54565b634e487b7160e01b81526011600452602490fd5b90620151808201809211610bb05750610b30565b8091610b19565b634e487b7160e01b82526011600452602482fd5b346101b25760003660031901126101b257610c0c611648565b600080546001600160a01b0319811682556001600160a01b03167f8be0079c531659141344cd1fd0a4f28419497f9722a3daafe3b4186f6b6457e08280a3005b346101b25760003660031901126101b2576020600254604051908152f35b346101b25760003660031901126101b2576008546040516001600160a01b039091168152602090f35b346101b25760203660031901126101b257600435600654811015610ce557610cbc604091611121565b5060208251610cca816111f4565b60018354938483520154918291015282519182526020820152f35b60405162461bcd60e51b8152602060048201526012602482015271092dcecc2d8d2c840e8d2cae440d2dcc8caf60731b6044820152606490fd5b346101b25760003660031901126101b257602060405168056bc75e2d631000008152f35b346101b25760003660031901126101b2573360005260016020526040600020805415610e4357600490610d7533611671565b018054908115610e075760009055610d8f816002546111a7565b600255610dcb60008060018060a01b036008541660405182602082019163e19fb8f560e01b83528760248201526024815261050060448261122d565b6000808080843382f11561055e576040519081527ff9984c8173c4b4ff9cc454f76ed19c053f4490ccb224fd9ddffeb4ef4bea353060203392a2005b60405162461bcd60e51b81526020600482015260146024820152734e6f20696e74657265737420746f20636c61696d60601b6044820152606490fd5b60405162461bcd60e51b8152602060048201526012602482015271139bc8199d5b991cc819195c1bdcda5d195960721b6044820152606490fd5b346101b25760603660031901126101b257602435604435600435610e9f611648565b610eb3670de0b6b3a76400008310156111b4565b6006548110610f15575060405191610eca836111f4565b825260208201526006549068010000000000000000821015610eff57610ef98260016100199401600655611121565b906112e9565b634e487b7160e01b600052604160045260246000fd5b610ef990610019939260405193610f2b856111f4565b84526020840152611121565b346101b25760203660031901126101b2576004356001600160a01b03811681036101b25761044160209161124f565b346101b25760203660031901126101b2576004356001600160a01b038116908190036101b257600052600160205261012060406000208054906001810154906002810154600382015460048301546005840154916006850154936008600787015496015496604051988952602089015260408801526060870152608086015260a085015260c084015260e0830152610100820152f35b346101b25760203660031901126101b2576004356006548110156101b257611025604091611121565b506001815491015482519182526020820152f35b346101b25760003660031901126101b2576020604051662386f26fc100008152f35b346101b25760203660031901126101b257600435611077611648565b61108b670de0b6b3a76400008210156111b4565b600355620151804204600455005b346101b25760403660031901126101b2576004356024356110b86115bc565b80916000906003545b8183106110e157602061044187610846886110dc8984611174565b611187565b909192670de0b6b3a76400006110f983600193611174565b04930191906110c1565b346101b25760203660031901126101b2576020610441600435611566565b60065481101561114057600660005260206000209060011b0190600090565b634e487b7160e01b600052603260045260246000fd5b346101b25760003660031901126101b2576020604051620151808152f35b8181029291811591840414171561085557565b8115611191570490565b634e487b7160e01b600052601260045260246000fd5b9190820391821161085557565b156111bb57565b60405162461bcd60e51b815260206004820152601160248201527052617465206d757374206265203e3d203160781b6044820152606490fd5b6040810190811067ffffffffffffffff821117610eff57604052565b610120810190811067ffffffffffffffff821117610eff57604052565b90601f8019910116810190811067ffffffffffffffff821117610eff57604052565b60018060a01b03166000526001602052604060002060405161127081611210565b8154808252600183015460208301526002830154604083015260086003840154936060840194855260048101546080850152600581015460a0850152600681015460c0850152600781015460e08501520154610100830152156112e257610b966112df9261083e610b8f6115bc565b90565b5050600090565b91906112ff576020816001925184550151910155565b634e487b7160e01b600052600060045260246000fd5b3d15611350573d9067ffffffffffffffff8211610eff5760405191611344601f8201601f19166020018461122d565b82523d6000602084013e565b606090565b1561135c57565b60405162461bcd60e51b815260206004820152602b60248201527f4661696c656420746f20657874726163742066756e64732066726f6d206c697160448201526a1d5a591a5d1e481c1bdbdb60aa1b6064820152608490fd5b906202a300820180921161085557565b9190820180921161085557565b60018060a01b0316600052600160205260406000206040516113f381611210565b81548152600182015460208201526002820154604082015260038201546060820152600482015460808201526005820154908160a082015261010060086006850154948560c0850152600781015460e0850152015491015215611463576201518081018091116108555742101590565b50600090565b6001600160a01b031660009081526001602052604080822090519061148d82611210565b805491828152600182015460208201526002820154926040820193845260086003840154936060840194855260048101546080850152600581015460a0850152600681015460c0850152600781015460e085015201546101008301521561155d57620151806115056114fd6115bc565b9451426111a7565b049182611514575b5050505090565b611529929450610b969061083e858451611174565b916000915b81831061153b578061150d565b909192670de0b6b3a764000061155383600193611174565b049301919061152e565b50505050600090565b90600654805b61157857506003549150565b60001981018181116108555761158d81611121565b50548410156115a75750801561085557600019018061156c565b60019293506115b69150611121565b50015490565b6201518042046115ce600454826111a7565b9081156116195750600354906000906002545b8183106115ee5750505090565b909192670de0b6b3a764000061160f60019261160985611566565b90611174565b04930191906115e1565b6000818152600560205260409020549091501561164157600052600560205260406000205490565b5060035490565b6000546001600160a01b0316330361165c57565b63118cdaa760e01b6000523360045260246000fd5b6001600160a01b03166000818152600160205260409020805490919080156117335761169b6115bc565b916116a68383611174565b916116bb816108466003880195865490611187565b90816116ce575b50505055600242910155565b8161170d7f65724bab62e2b372c625ed834016c4e1750f8074aad18b22844457f35ea61d739360209360048a016117068382546113c5565b90556113c5565b875561171b816002546113c5565b600255426007880155604051908152a23880806116c2565b505050565b60018060a01b03166000526001602052604060002060405161175981611210565b81549081815260018301546020820152600283015460408201526003830154606082015260048301546080820152600583015460a0820152600683015460c082015261010060086007850154948560e0850152015491015215611463576000816117f0575050620151804201804211610855575b6117d6426113b5565b81116117df5790565b506201518042018042116108555790565b620151808201809211610bb057506117cd56fea26469706673582212208cdc7ace6818bfb7430c010aed87493695201a0baba43dc6370407b1933d222064736f6c634300081c0033",
  "linkReferences": {},
  "deployedLinkReferences": {}
}