{
  "_format": "hh-sol-artifact-1",
  "contractName": "LendingManager",
  "sourceName": "contracts/LendingManager.sol",
  "abi": [
    {
      "inputs": [
        {
          "internalType": "address",
          "name": "_liquidityPool",
          "type": "address"
        },
        {
          "internalType": "address",
          "name": "_timelock",
          "type": "address"
        }
      ],
      "stateMutability": "nonpayable",
      "type": "constructor"
    },
    {
      "inputs": [],
      "name": "InvalidAmount",
      "type": "error"
    },
    {
      "inputs": [],
      "name": "OnlyTimelockLendingManager",
      "type": "error"
    },
    {
      "inputs": [],
      "name": "ZeroAddress",
      "type": "error"
    },
    {
      "anonymous": false,
      "inputs": [
        {
          "indexed": false,
          "internalType": "uint256",
          "name": "count",
          "type": "uint256"
        }
      ],
      "name": "BatchInterestCredited",
      "type": "event"
    },
    {
      "anonymous": false,
      "inputs": [
        {
          "indexed": false,
          "internalType": "uint256",
          "name": "count",
          "type": "uint256"
        },
        {
          "indexed": false,
          "internalType": "uint256",
          "name": "totalAmount",
          "type": "uint256"
        }
      ],
      "name": "BatchWithdrawalsProcessed",
      "type": "event"
    },
    {
      "anonymous": false,
      "inputs": [
        {
          "indexed": true,
          "internalType": "address",
          "name": "lender",
          "type": "address"
        },
        {
          "indexed": false,
          "internalType": "uint256",
          "name": "penaltyAmount",
          "type": "uint256"
        }
      ],
      "name": "EarlyWithdrawalPenalty",
      "type": "event"
    },
    {
      "anonymous": false,
      "inputs": [
        {
          "indexed": true,
          "internalType": "address",
          "name": "user",
          "type": "address"
        },
        {
          "indexed": false,
          "internalType": "uint256",
          "name": "amount",
          "type": "uint256"
        },
        {
          "indexed": false,
          "internalType": "string",
          "name": "feeType",
          "type": "string"
        },
        {
          "indexed": false,
          "internalType": "uint256",
          "name": "tier",
          "type": "uint256"
        }
      ],
      "name": "FeeCollected",
      "type": "event"
    },
    {
      "anonymous": false,
      "inputs": [
        {
          "indexed": false,
          "internalType": "uint256",
          "name": "originationFee",
          "type": "uint256"
        },
        {
          "indexed": false,
          "internalType": "uint256",
          "name": "lateFee",
          "type": "uint256"
        }
      ],
      "name": "FeeParametersUpdated",
      "type": "event"
    },
    {
      "anonymous": false,
      "inputs": [
        {
          "indexed": true,
          "internalType": "address",
          "name": "lender",
          "type": "address"
        },
        {
          "indexed": false,
          "internalType": "uint256",
          "name": "amount",
          "type": "uint256"
        }
      ],
      "name": "FundsDeposited",
      "type": "event"
    },
    {
      "anonymous": false,
      "inputs": [
        {
          "indexed": true,
          "internalType": "address",
          "name": "lender",
          "type": "address"
        },
        {
          "indexed": false,
          "internalType": "uint256",
          "name": "amount",
          "type": "uint256"
        },
        {
          "indexed": false,
          "internalType": "uint256",
          "name": "penalty",
          "type": "uint256"
        }
      ],
      "name": "FundsWithdrawn",
      "type": "event"
    },
    {
      "anonymous": false,
      "inputs": [
        {
          "indexed": true,
          "internalType": "address",
          "name": "lender",
          "type": "address"
        },
        {
          "indexed": false,
          "internalType": "uint256",
          "name": "amount",
          "type": "uint256"
        }
      ],
      "name": "InterestAvailable",
      "type": "event"
    },
    {
      "anonymous": false,
      "inputs": [
        {
          "indexed": true,
          "internalType": "address",
          "name": "lender",
          "type": "address"
        },
        {
          "indexed": false,
          "internalType": "uint256",
          "name": "interest",
          "type": "uint256"
        }
      ],
      "name": "InterestClaimed",
      "type": "event"
    },
    {
      "anonymous": false,
      "inputs": [
        {
          "indexed": true,
          "internalType": "address",
          "name": "lender",
          "type": "address"
        },
        {
          "indexed": false,
          "internalType": "uint256",
          "name": "interest",
          "type": "uint256"
        }
      ],
      "name": "InterestCredited",
      "type": "event"
    },
    {
      "anonymous": false,
      "inputs": [
        {
          "indexed": true,
          "internalType": "address",
          "name": "lender",
          "type": "address"
        }
      ],
      "name": "LenderCleaned",
      "type": "event"
    },
    {
      "anonymous": false,
      "inputs": [
        {
          "indexed": true,
          "internalType": "address",
          "name": "lender",
          "type": "address"
        },
        {
          "indexed": false,
          "internalType": "uint256",
          "name": "interest",
          "type": "uint256"
        },
        {
          "indexed": false,
          "internalType": "uint256",
          "name": "rate",
          "type": "uint256"
        }
      ],
      "name": "LenderInterestAccrued",
      "type": "event"
    },
    {
      "anonymous": false,
      "inputs": [
        {
          "indexed": true,
          "internalType": "address",
          "name": "user",
          "type": "address"
        },
        {
          "indexed": true,
          "internalType": "address",
          "name": "liquidator",
          "type": "address"
        },
        {
          "indexed": false,
          "internalType": "uint256",
          "name": "amount",
          "type": "uint256"
        }
      ],
      "name": "LiquidationExecuted",
      "type": "event"
    },
    {
      "anonymous": false,
      "inputs": [
        {
          "indexed": true,
          "internalType": "address",
          "name": "recipient",
          "type": "address"
        },
        {
          "indexed": false,
          "internalType": "uint256",
          "name": "amount",
          "type": "uint256"
        }
      ],
      "name": "MintFailed",
      "type": "event"
    },
    {
      "anonymous": false,
      "inputs": [
        {
          "indexed": true,
          "internalType": "address",
          "name": "user",
          "type": "address"
        },
        {
          "indexed": true,
          "internalType": "address",
          "name": "liquidator",
          "type": "address"
        },
        {
          "indexed": true,
          "internalType": "address",
          "name": "collateralToken",
          "type": "address"
        },
        {
          "indexed": false,
          "internalType": "uint256",
          "name": "collateralSeized",
          "type": "uint256"
        },
        {
          "indexed": false,
          "internalType": "uint256",
          "name": "debtRepaid",
          "type": "uint256"
        }
      ],
      "name": "PartialLiquidation",
      "type": "event"
    },
    {
      "anonymous": false,
      "inputs": [
        {
          "indexed": true,
          "internalType": "address",
          "name": "lender",
          "type": "address"
        },
        {
          "indexed": false,
          "internalType": "uint256",
          "name": "amount",
          "type": "uint256"
        },
        {
          "indexed": false,
          "internalType": "uint256",
          "name": "unlockTime",
          "type": "uint256"
        }
      ],
      "name": "PrincipalWithdrawalRequested",
      "type": "event"
    },
    {
      "anonymous": false,
      "inputs": [
        {
          "indexed": true,
          "internalType": "address",
          "name": "newReserve",
          "type": "address"
        }
      ],
      "name": "ReserveAddressUpdated",
      "type": "event"
    },
    {
      "anonymous": false,
      "inputs": [
        {
          "indexed": true,
          "internalType": "address",
          "name": "newTimelock",
          "type": "address"
        }
      ],
      "name": "TimelockUpdated",
      "type": "event"
    },
    {
      "anonymous": false,
      "inputs": [
        {
          "indexed": true,
          "internalType": "address",
          "name": "lender",
          "type": "address"
        },
        {
          "indexed": false,
          "internalType": "uint256",
          "name": "amount",
          "type": "uint256"
        }
      ],
      "name": "WithdrawalCancelled",
      "type": "event"
    },
    {
      "anonymous": false,
      "inputs": [
        {
          "indexed": true,
          "internalType": "address",
          "name": "lender",
          "type": "address"
        },
        {
          "indexed": false,
          "internalType": "uint256",
          "name": "amount",
          "type": "uint256"
        }
      ],
      "name": "WithdrawalCompleted",
      "type": "event"
    },
    {
      "anonymous": false,
      "inputs": [
        {
          "indexed": true,
          "internalType": "address",
          "name": "lender",
          "type": "address"
        },
        {
          "indexed": false,
          "internalType": "uint256",
          "name": "amount",
          "type": "uint256"
        },
        {
          "indexed": false,
          "internalType": "uint256",
          "name": "unlockTime",
          "type": "uint256"
        }
      ],
      "name": "WithdrawalRequested",
      "type": "event"
    },
    {
      "inputs": [],
      "name": "EARLY_WITHDRAWAL_PENALTY",
      "outputs": [
        {
          "internalType": "uint256",
          "name": "",
          "type": "uint256"
        }
      ],
      "stateMutability": "view",
      "type": "function"
    },
    {
      "inputs": [],
      "name": "MAX_DEPOSIT_AMOUNT",
      "outputs": [
        {
          "internalType": "uint256",
          "name": "",
          "type": "uint256"
        }
      ],
      "stateMutability": "view",
      "type": "function"
    },
    {
      "inputs": [],
      "name": "MIN_DEPOSIT_AMOUNT",
      "outputs": [
        {
          "internalType": "uint256",
          "name": "",
          "type": "uint256"
        }
      ],
      "stateMutability": "view",
      "type": "function"
    },
    {
      "inputs": [],
      "name": "SECONDS_PER_DAY",
      "outputs": [
        {
          "internalType": "uint256",
          "name": "",
          "type": "uint256"
        }
      ],
      "stateMutability": "view",
      "type": "function"
    },
    {
      "inputs": [],
      "name": "SET_DAILY_RATE_PERMISSION",
      "outputs": [
        {
          "internalType": "bytes32",
          "name": "",
          "type": "bytes32"
        }
      ],
      "stateMutability": "view",
      "type": "function"
    },
    {
      "inputs": [],
      "name": "SET_EARLY_WITHDRAWAL_PENALTY_PERMISSION",
      "outputs": [
        {
          "internalType": "bytes32",
          "name": "",
          "type": "bytes32"
        }
      ],
      "stateMutability": "view",
      "type": "function"
    },
    {
      "inputs": [],
      "name": "SET_FEE_PARAMETERS_PERMISSION",
      "outputs": [
        {
          "internalType": "bytes32",
          "name": "",
          "type": "bytes32"
        }
      ],
      "stateMutability": "view",
      "type": "function"
    },
    {
      "inputs": [],
      "name": "SET_INTEREST_TIER_PERMISSION",
      "outputs": [
        {
          "internalType": "bytes32",
          "name": "",
          "type": "bytes32"
        }
      ],
      "stateMutability": "view",
      "type": "function"
    },
    {
      "inputs": [],
      "name": "SET_RESERVE_ADDRESS_PERMISSION",
      "outputs": [
        {
          "internalType": "bytes32",
          "name": "",
          "type": "bytes32"
        }
      ],
      "stateMutability": "view",
      "type": "function"
    },
    {
      "inputs": [],
      "name": "WITHDRAWAL_COOLDOWN",
      "outputs": [
        {
          "internalType": "uint256",
          "name": "",
          "type": "uint256"
        }
      ],
      "stateMutability": "view",
      "type": "function"
    },
    {
      "inputs": [
        {
          "internalType": "address[]",
          "name": "newLenders",
          "type": "address[]"
        }
      ],
      "name": "addLenders",
      "outputs": [],
      "stateMutability": "nonpayable",
      "type": "function"
    },
    {
      "inputs": [
        {
          "internalType": "address",
          "name": "lender",
          "type": "address"
        }
      ],
      "name": "baseLenderAPR",
      "outputs": [
        {
          "internalType": "uint256",
          "name": "",
          "type": "uint256"
        }
      ],
      "stateMutability": "view",
      "type": "function"
    },
    {
      "inputs": [
        {
          "internalType": "address[]",
          "name": "lenderAddresses",
          "type": "address[]"
        }
      ],
      "name": "batchCreditInterest",
      "outputs": [],
      "stateMutability": "nonpayable",
      "type": "function"
    },
    {
      "inputs": [
        {
          "internalType": "address[]",
          "name": "lenderAddresses",
          "type": "address[]"
        }
      ],
      "name": "batchProcessWithdrawals",
      "outputs": [],
      "stateMutability": "nonpayable",
      "type": "function"
    },
    {
      "inputs": [
        {
          "internalType": "address",
          "name": "lender",
          "type": "address"
        }
      ],
      "name": "calculateInterest",
      "outputs": [
        {
          "internalType": "uint256",
          "name": "interest",
          "type": "uint256"
        }
      ],
      "stateMutability": "view",
      "type": "function"
    },
    {
      "inputs": [
        {
          "internalType": "uint256",
          "name": "amount",
          "type": "uint256"
        },
        {
          "internalType": "uint256",
          "name": "numDays",
          "type": "uint256"
        }
      ],
      "name": "calculatePotentialInterest",
      "outputs": [
        {
          "internalType": "uint256",
          "name": "",
          "type": "uint256"
        }
      ],
      "stateMutability": "view",
      "type": "function"
    },
    {
      "inputs": [
        {
          "internalType": "address",
          "name": "governor",
          "type": "address"
        },
        {
          "internalType": "address",
          "name": "user",
          "type": "address"
        },
        {
          "internalType": "address",
          "name": "asset",
          "type": "address"
        },
        {
          "internalType": "uint256",
          "name": "amount",
          "type": "uint256"
        },
        {
          "internalType": "enum ProtocolGovernor.ActionType",
          "name": "action",
          "type": "uint8"
        }
      ],
      "name": "callGrantTokens",
      "outputs": [],
      "stateMutability": "nonpayable",
      "type": "function"
    },
    {
      "inputs": [
        {
          "internalType": "address",
          "name": "lender",
          "type": "address"
        }
      ],
      "name": "canCompleteWithdrawal",
      "outputs": [
        {
          "internalType": "bool",
          "name": "",
          "type": "bool"
        }
      ],
      "stateMutability": "view",
      "type": "function"
    },
    {
      "inputs": [],
      "name": "cancelPrincipalWithdrawal",
      "outputs": [],
      "stateMutability": "nonpayable",
      "type": "function"
    },
    {
      "inputs": [],
      "name": "claimInterest",
      "outputs": [],
      "stateMutability": "nonpayable",
      "type": "function"
    },
    {
      "inputs": [
        {
          "internalType": "address[]",
          "name": "lendersToCheck",
          "type": "address[]"
        }
      ],
      "name": "cleanupInactiveLenders",
      "outputs": [],
      "stateMutability": "nonpayable",
      "type": "function"
    },
    {
      "inputs": [
        {
          "internalType": "address",
          "name": "user",
          "type": "address"
        },
        {
          "internalType": "uint256",
          "name": "amount",
          "type": "uint256"
        },
        {
          "internalType": "uint256",
          "name": "tier",
          "type": "uint256"
        },
        {
          "internalType": "uint256",
          "name": "fee",
          "type": "uint256"
        }
      ],
      "name": "collectLateFee",
      "outputs": [],
      "stateMutability": "payable",
      "type": "function"
    },
    {
      "inputs": [
        {
          "internalType": "address",
          "name": "user",
          "type": "address"
        },
        {
          "internalType": "uint256",
          "name": "amount",
          "type": "uint256"
        },
        {
          "internalType": "uint256",
          "name": "tier",
          "type": "uint256"
        },
        {
          "internalType": "uint256",
          "name": "fee",
          "type": "uint256"
        }
      ],
      "name": "collectOriginationFee",
      "outputs": [],
      "stateMutability": "payable",
      "type": "function"
    },
    {
      "inputs": [],
      "name": "completeWithdrawal",
      "outputs": [],
      "stateMutability": "nonpayable",
      "type": "function"
    },
    {
      "inputs": [],
      "name": "currentDailyRate",
      "outputs": [
        {
          "internalType": "uint256",
          "name": "",
          "type": "uint256"
        }
      ],
      "stateMutability": "view",
      "type": "function"
    },
    {
      "inputs": [
        {
          "internalType": "uint256",
          "name": "",
          "type": "uint256"
        }
      ],
      "name": "dailyInterestRate",
      "outputs": [
        {
          "internalType": "uint256",
          "name": "",
          "type": "uint256"
        }
      ],
      "stateMutability": "view",
      "type": "function"
    },
    {
      "inputs": [],
      "name": "depositFunds",
      "outputs": [],
      "stateMutability": "payable",
      "type": "function"
    },
    {
      "inputs": [
        {
          "internalType": "address",
          "name": "pool",
          "type": "address"
        },
        {
          "internalType": "address",
          "name": "user",
          "type": "address"
        }
      ],
      "name": "executeLiquidation",
      "outputs": [],
      "stateMutability": "nonpayable",
      "type": "function"
    },
    {
      "inputs": [
        {
          "internalType": "address",
          "name": "pool",
          "type": "address"
        },
        {
          "internalType": "address",
          "name": "user",
          "type": "address"
        },
        {
          "internalType": "address",
          "name": "collateralToken",
          "type": "address"
        }
      ],
      "name": "executePartialLiquidation",
      "outputs": [],
      "stateMutability": "nonpayable",
      "type": "function"
    },
    {
      "inputs": [],
      "name": "getAllLenders",
      "outputs": [
        {
          "internalType": "address[]",
          "name": "",
          "type": "address[]"
        }
      ],
      "stateMutability": "view",
      "type": "function"
    },
    {
      "inputs": [
        {
          "internalType": "address",
          "name": "lender",
          "type": "address"
        }
      ],
      "name": "getAvailableInterest",
      "outputs": [
        {
          "internalType": "uint256",
          "name": "",
          "type": "uint256"
        }
      ],
      "stateMutability": "view",
      "type": "function"
    },
    {
      "inputs": [
        {
          "internalType": "uint256",
          "name": "tier",
          "type": "uint256"
        }
      ],
      "name": "getBorrowerRate",
      "outputs": [
        {
          "internalType": "uint256",
          "name": "",
          "type": "uint256"
        }
      ],
      "stateMutability": "view",
      "type": "function"
    },
    {
      "inputs": [],
      "name": "getDynamicSupplyRate",
      "outputs": [
        {
          "internalType": "uint256",
          "name": "",
          "type": "uint256"
        }
      ],
      "stateMutability": "view",
      "type": "function"
    },
    {
      "inputs": [
        {
          "internalType": "uint256",
          "name": "amount",
          "type": "uint256"
        }
      ],
      "name": "getInterestRate",
      "outputs": [
        {
          "internalType": "uint256",
          "name": "",
          "type": "uint256"
        }
      ],
      "stateMutability": "view",
      "type": "function"
    },
    {
      "inputs": [
        {
          "internalType": "uint256",
          "name": "index",
          "type": "uint256"
        }
      ],
      "name": "getInterestTier",
      "outputs": [
        {
          "internalType": "uint256",
          "name": "minAmount",
          "type": "uint256"
        },
        {
          "internalType": "uint256",
          "name": "rate",
          "type": "uint256"
        }
      ],
      "stateMutability": "view",
      "type": "function"
    },
    {
      "inputs": [],
      "name": "getInterestTierCount",
      "outputs": [
        {
          "internalType": "uint256",
          "name": "",
          "type": "uint256"
        }
      ],
      "stateMutability": "view",
      "type": "function"
    },
    {
      "inputs": [],
      "name": "getLenderCount",
      "outputs": [
        {
          "internalType": "uint256",
          "name": "",
          "type": "uint256"
        }
      ],
      "stateMutability": "view",
      "type": "function"
    },
    {
      "inputs": [
        {
          "internalType": "address",
          "name": "lender",
          "type": "address"
        }
      ],
      "name": "getLenderInfo",
      "outputs": [
        {
          "internalType": "uint256",
          "name": "balance",
          "type": "uint256"
        },
        {
          "internalType": "uint256",
          "name": "pendingInterest",
          "type": "uint256"
        },
        {
          "internalType": "uint256",
          "name": "earnedInterest",
          "type": "uint256"
        },
        {
          "internalType": "uint256",
          "name": "nextInterestUpdate",
          "type": "uint256"
        },
        {
          "internalType": "uint256",
          "name": "penaltyFreeWithdrawalTime",
          "type": "uint256"
        },
        {
          "internalType": "uint256",
          "name": "lastDistributionTime",
          "type": "uint256"
        }
      ],
      "stateMutability": "view",
      "type": "function"
    },
    {
      "inputs": [],
      "name": "getLenderRate",
      "outputs": [
        {
          "internalType": "uint256",
          "name": "",
          "type": "uint256"
        }
      ],
      "stateMutability": "view",
      "type": "function"
    },
    {
      "inputs": [
        {
          "internalType": "address",
          "name": "lender",
          "type": "address"
        }
      ],
      "name": "getLenderReport",
      "outputs": [
        {
          "components": [
            {
              "internalType": "uint256",
              "name": "balance",
              "type": "uint256"
            },
            {
              "internalType": "uint256",
              "name": "depositTimestamp",
              "type": "uint256"
            },
            {
              "internalType": "uint256",
              "name": "lastInterestUpdate",
              "type": "uint256"
            },
            {
              "internalType": "uint256",
              "name": "interestIndex",
              "type": "uint256"
            },
            {
              "internalType": "uint256",
              "name": "earnedInterest",
              "type": "uint256"
            },
            {
              "internalType": "uint256",
              "name": "pendingPrincipalWithdrawal",
              "type": "uint256"
            },
            {
              "internalType": "uint256",
              "name": "withdrawalRequestTime",
              "type": "uint256"
            },
            {
              "internalType": "uint256",
              "name": "lastInterestDistribution",
              "type": "uint256"
            },
            {
              "internalType": "uint256",
              "name": "lastWithdrawalTime",
              "type": "uint256"
            },
            {
              "internalType": "uint256",
              "name": "amountDeposited",
              "type": "uint256"
            },
            {
              "internalType": "uint256",
              "name": "lastDepositTime",
              "type": "uint256"
            },
            {
              "internalType": "bool",
              "name": "isActive",
              "type": "bool"
            }
          ],
          "internalType": "struct LendingManager.LenderInfo",
          "name": "",
          "type": "tuple"
        }
      ],
      "stateMutability": "view",
      "type": "function"
    },
    {
      "inputs": [
        {
          "internalType": "address",
          "name": "lender",
          "type": "address"
        }
      ],
      "name": "getRealTimeReturnRate",
      "outputs": [
        {
          "internalType": "uint256",
          "name": "",
          "type": "uint256"
        }
      ],
      "stateMutability": "view",
      "type": "function"
    },
    {
      "inputs": [
        {
          "internalType": "address",
          "name": "lender",
          "type": "address"
        }
      ],
      "name": "getWithdrawalStatus",
      "outputs": [
        {
          "internalType": "uint256",
          "name": "availableAt",
          "type": "uint256"
        },
        {
          "internalType": "uint256",
          "name": "penaltyIfWithdrawnNow",
          "type": "uint256"
        },
        {
          "internalType": "bool",
          "name": "isAvailableWithoutPenalty",
          "type": "bool"
        },
        {
          "internalType": "uint256",
          "name": "nextInterestDistribution",
          "type": "uint256"
        },
        {
          "internalType": "uint256",
          "name": "availableInterest",
          "type": "uint256"
        }
      ],
      "stateMutability": "view",
      "type": "function"
    },
    {
      "inputs": [
        {
          "internalType": "uint256",
          "name": "",
          "type": "uint256"
        }
      ],
      "name": "interestTiers",
      "outputs": [
        {
          "internalType": "uint256",
          "name": "minAmount",
          "type": "uint256"
        },
        {
          "internalType": "uint256",
          "name": "rate",
          "type": "uint256"
        }
      ],
      "stateMutability": "view",
      "type": "function"
    },
    {
      "inputs": [
        {
          "internalType": "address",
          "name": "lender",
          "type": "address"
        }
      ],
      "name": "isLender",
      "outputs": [
        {
          "internalType": "bool",
          "name": "",
          "type": "bool"
        }
      ],
      "stateMutability": "view",
      "type": "function"
    },
    {
      "inputs": [
        {
          "internalType": "address",
          "name": "pool",
          "type": "address"
        },
        {
          "internalType": "address",
          "name": "user",
          "type": "address"
        }
      ],
      "name": "isUndercollateralized",
      "outputs": [
        {
          "internalType": "bool",
          "name": "",
          "type": "bool"
        }
      ],
      "stateMutability": "view",
      "type": "function"
    },
    {
      "inputs": [],
      "name": "lastRateUpdateDay",
      "outputs": [
        {
          "internalType": "uint256",
          "name": "",
          "type": "uint256"
        }
      ],
      "stateMutability": "view",
      "type": "function"
    },
    {
      "inputs": [],
      "name": "lateFee",
      "outputs": [
        {
          "internalType": "uint256",
          "name": "",
          "type": "uint256"
        }
      ],
      "stateMutability": "view",
      "type": "function"
    },
    {
      "inputs": [
        {
          "internalType": "uint256",
          "name": "",
          "type": "uint256"
        }
      ],
      "name": "lenderAddresses",
      "outputs": [
        {
          "internalType": "address",
          "name": "",
          "type": "address"
        }
      ],
      "stateMutability": "view",
      "type": "function"
    },
    {
      "inputs": [
        {
          "internalType": "address",
          "name": "",
          "type": "address"
        }
      ],
      "name": "lenders",
      "outputs": [
        {
          "internalType": "uint256",
          "name": "balance",
          "type": "uint256"
        },
        {
          "internalType": "uint256",
          "name": "depositTimestamp",
          "type": "uint256"
        },
        {
          "internalType": "uint256",
          "name": "lastInterestUpdate",
          "type": "uint256"
        },
        {
          "internalType": "uint256",
          "name": "interestIndex",
          "type": "uint256"
        },
        {
          "internalType": "uint256",
          "name": "earnedInterest",
          "type": "uint256"
        },
        {
          "internalType": "uint256",
          "name": "pendingPrincipalWithdrawal",
          "type": "uint256"
        },
        {
          "internalType": "uint256",
          "name": "withdrawalRequestTime",
          "type": "uint256"
        },
        {
          "internalType": "uint256",
          "name": "lastInterestDistribution",
          "type": "uint256"
        },
        {
          "internalType": "uint256",
          "name": "lastWithdrawalTime",
          "type": "uint256"
        },
        {
          "internalType": "uint256",
          "name": "amountDeposited",
          "type": "uint256"
        },
        {
          "internalType": "uint256",
          "name": "lastDepositTime",
          "type": "uint256"
        },
        {
          "internalType": "bool",
          "name": "isActive",
          "type": "bool"
        }
      ],
      "stateMutability": "view",
      "type": "function"
    },
    {
      "inputs": [],
      "name": "liquidityPool",
      "outputs": [
        {
          "internalType": "address",
          "name": "",
          "type": "address"
        }
      ],
      "stateMutability": "view",
      "type": "function"
    },
    {
      "inputs": [],
      "name": "originationFee",
      "outputs": [
        {
          "internalType": "uint256",
          "name": "",
          "type": "uint256"
        }
      ],
      "stateMutability": "view",
      "type": "function"
    },
    {
      "inputs": [],
      "name": "paused",
      "outputs": [
        {
          "internalType": "bool",
          "name": "",
          "type": "bool"
        }
      ],
      "stateMutability": "view",
      "type": "function"
    },
    {
      "inputs": [],
      "name": "performMonthlyMaintenance",
      "outputs": [],
      "stateMutability": "nonpayable",
      "type": "function"
    },
    {
      "inputs": [
        {
          "internalType": "uint256",
          "name": "amount",
          "type": "uint256"
        }
      ],
      "name": "requestWithdrawal",
      "outputs": [],
      "stateMutability": "nonpayable",
      "type": "function"
    },
    {
      "inputs": [],
      "name": "reserveAddress",
      "outputs": [
        {
          "internalType": "address",
          "name": "",
          "type": "address"
        }
      ],
      "stateMutability": "view",
      "type": "function"
    },
    {
      "inputs": [
        {
          "internalType": "uint256",
          "name": "newRate",
          "type": "uint256"
        }
      ],
      "name": "setCurrentDailyRate",
      "outputs": [],
      "stateMutability": "nonpayable",
      "type": "function"
    },
    {
      "inputs": [
        {
          "internalType": "uint256",
          "name": "newPenalty",
          "type": "uint256"
        }
      ],
      "name": "setEarlyWithdrawalPenalty",
      "outputs": [],
      "stateMutability": "nonpayable",
      "type": "function"
    },
    {
      "inputs": [
        {
          "internalType": "uint256",
          "name": "_originationFee",
          "type": "uint256"
        },
        {
          "internalType": "uint256",
          "name": "_lateFee",
          "type": "uint256"
        }
      ],
      "name": "setFeeParameters",
      "outputs": [],
      "stateMutability": "nonpayable",
      "type": "function"
    },
    {
      "inputs": [
        {
          "internalType": "uint256",
          "name": "index",
          "type": "uint256"
        },
        {
          "internalType": "uint256",
          "name": "minAmount",
          "type": "uint256"
        },
        {
          "internalType": "uint256",
          "name": "rate",
          "type": "uint256"
        }
      ],
      "name": "setInterestTier",
      "outputs": [],
      "stateMutability": "nonpayable",
      "type": "function"
    },
    {
      "inputs": [
        {
          "internalType": "bool",
          "name": "_paused",
          "type": "bool"
        }
      ],
      "name": "setPaused",
      "outputs": [],
      "stateMutability": "nonpayable",
      "type": "function"
    },
    {
      "inputs": [
        {
          "internalType": "address",
          "name": "_reserve",
          "type": "address"
        }
      ],
      "name": "setReserveAddress",
      "outputs": [],
      "stateMutability": "nonpayable",
      "type": "function"
    },
    {
      "inputs": [
        {
          "internalType": "address",
          "name": "_votingToken",
          "type": "address"
        }
      ],
      "name": "setVotingToken",
      "outputs": [],
      "stateMutability": "nonpayable",
      "type": "function"
    },
    {
      "inputs": [],
      "name": "timelock",
      "outputs": [
        {
          "internalType": "address",
          "name": "",
          "type": "address"
        }
      ],
      "stateMutability": "view",
      "type": "function"
    },
    {
      "inputs": [],
      "name": "totalLent",
      "outputs": [
        {
          "internalType": "uint256",
          "name": "",
          "type": "uint256"
        }
      ],
      "stateMutability": "view",
      "type": "function"
    },
    {
      "inputs": [],
      "name": "votingToken",
      "outputs": [
        {
          "internalType": "contract IVotingToken",
          "name": "",
          "type": "address"
        }
      ],
      "stateMutability": "view",
      "type": "function"
    },
    {
      "stateMutability": "payable",
      "type": "receive"
    }
  ],
  "bytecode": "0x6080346200021357620050b2906001600160401b03601f38849003908101601f191683019082821184831017620001ff57808491604096879485528339810103126200021357620000508262000237565b6200005f602080940162000237565b60015f5560018060a01b03908160018060a01b0319931683600a541617600a551690600c541617600c556005600955670de12d4cc511c0009182600455620151804204600555620000d1620000b362000217565b678ac7230489e800008152670de13f20401b6000838201526200024c565b620000fd620000df62000217565b674563918244f400008152670de13607f1a8c000838201526200024c565b620001226200010b62000217565b670de0b6b3a764000094858252838201526200024c565b83519061018082019282841090841117620001ff575f93600b9386528483528183019085825286840190868252606085019081526080850187815260a0860188815260c087019189835260e08801938a85526101008901958b87526101208a01978c895260016101408c019a8e8c526101608d019e8f52335f52528d5f209a518b555160018b01555160028a015551600389015551600488015551600587015551600686015551600785015551600884015551600983015551600a820155019051151560ff8019835416911617905551614e109081620002a28239f35b634e487b7160e01b5f52604160045260245ffd5b5f80fd5b60408051919082016001600160401b03811183821017620001ff57604052565b51906001600160a01b03821682036200021357565b60075468010000000000000000811015620001ff5760018101806007558110156200028d57602060019160075f52815f2090831b0192805184550151910155565b634e487b7160e01b5f52603260045260245ffdfe608080604052600436101561001c575b50361561001a575f80fd5b005b5f803560e01c918263071156871461362d575081630c196a741461360f57816314673d311461355d57816316c38b3c1461351b5781631876b415146135025781631a3f61cd146134705781631ea30fef1461344f57816321bf89851461341257816328fd10d71461335a5781632cf588931461332e5781632d6963ce146132ec5781632ef55a06146130be57816332aa9b681461309b578163334bbd4d14612f1357816333ec339e14612e1f57816335981fd814612c4657816338e3ea1114612ba55781633f4de62f14612b88578163480d1aee14612acf5781634c34a98214612aac5781634d56022f146129fe57816352ace309146129da578163537dd93a1461294e57816355e87dbc146129145781635b12e733146128325781635c975abb14612810578163665a11ca146127e85781636a2bb879146127685781636a7ebf4a1461274e5781636d7c218b14612731578163709b8961146126ef5781637491687e1461248257816374f0314f146102f557816382ee21fc146124655781638a2e98f3146123f857816394e95da3146123db578163962a0da5146123a15781639ee679e814612236578163a1666b5414612171578163a6727ce714612136578163a7086ded14611f2e578163a74f099814611ef4578163a8d9e5ba14611eba578163ab19f09514611c71578163ade2854d14611c54578163b034012314611c2c578163b8bb5c4214611c0f578163b918ee2514611bf2578163bcebb1d7146115f7578163c0798fe41461133c578163c11feeb91461131f578163cca4391614611278578163d01cd45614610c71578163d33219b414610c49578163d704731014610c1c578163dc1df57214610ad9578163e03ff7cb1461085e578163e11932cf1461083b578163e2c41dbc146104a1578163e2d746281461042d578163e50649d114610370578163f6e180f51461034e578163f79ed94b14610326578163fccf6a1e146102fa575063feedab00146102f5575f61000f565b6137a5565b346103235760203660031901126103235760406020916004358152600683522054604051908152f35b80fd5b34610323578060031936011261032357600b546040516001600160a01b039091168152602090f35b3461032357806003193601126103235760206103686145d0565b604051908152f35b61037936613777565b92915060018060a01b0361039281600a54163314613e35565b848415801561039f575080f35b81808781936103b082341015613e6d565b86600b5416908390610424575bf115610419577f66aecc579aa1ef463c0ed1547c2cb6163370e6311a60cba815252acbb398f2139260a0926040519586526060602087015260046060870152636c61746560e01b608087015260408601521692a2818080808480f35b6040513d86823e3d90fd5b506108fc6103bd565b3461032357602036600319011261032357610446613665565b600c546001600160a01b0391908216330361048f5716801561047d576bffffffffffffffffffffffff60a01b600854161760085580f35b60405163d92e233d60e01b8152600490fd5b6040516359f8b11760e11b8152600490fd5b806003193601126103235760ff600f541661080457662386f26fc100008034106107f257600a54604051633af7305960e21b81523360048201526020926001600160a01b039290919084908290602490829087165afa9081156107e75785916107ae575b5015610769573384526001835268056bc75e2d6310000061052a604086205434613b5e565b116107195733845260018352604084206003810180546106e257670de0b6b3a7640000905542600182015542600282015542600a820155600b8101600160ff1982541617905561057933614239565b61058233614921565b61058d348254613b5e565b81556009810161059e348254613b5e565b9055600a429101556105b234600354613b5e565b600355838080803486600a54165af16105c9613b78565b50156106ac5734049060085416801515806106a3575b610614575b50507f543ba50a5eec5e6178218e364b1d0f396157b3c8fa278522c2cb7fd99407d474604051913483523392a280f35b803b1561069f576040516340c10f1960e01b81523360048201526024810183905290849081908390604490829084905af1918261068b575b5050610685576040519081527f5c0b206f3618d350db41c606c827006e7e9a725fea435a1cd618f657f81ea352823392a25b82806105e4565b5061067e565b61069490613947565b61069f57838561064c565b8380fd5b508115156105df565b60405162461bcd60e51b815260048101849052600e60248201526d11195c1bdcda5d0819985a5b195960921b6044820152606490fd5b50600b8101805460ff81161580610710575b610700575b5050610579565b60ff1916600117905585806106f9565b508254156106f4565b60405162461bcd60e51b815260048101849052602260248201527f4465706f73697420776f756c6420657863656564206d6178696d756d206c696d6044820152611a5d60f21b6064820152608490fd5b60405162461bcd60e51b815260048101849052601d60248201527f4372656469742073636f726520726571756972656420746f206c656e640000006044820152606490fd5b90508381813d83116107e0575b6107c58183613977565b810103126107dc576107d690613999565b85610505565b8480fd5b503d6107bb565b6040513d87823e3d90fd5b60405163162908e360e11b8152600490fd5b60405162461bcd60e51b815260206004820152600f60248201526e10dbdb9d1c9858dd081c185d5cd959608a1b6044820152606490fd5b34610323576020366003190112610323576020610368610859613665565b61437c565b346103235780600319360112610323576108766148cd565b3381526020600181526040822090600b82019061089660ff835416613df2565b6005830191825415610a9c576108ab33614921565b82549385936001820154620151808101809111610a88579087914210610a3b575b6108e06108d98789613b5e565b8454613b6b565b83556108f76108ef8789613b5e565b600354613b6b565b6003555554156109ee575b50838060018060a01b03600a5416604051828582019163e19fb8f560e01b8352886024820152602481526109358161395b565b51925af1610941613b78565b50156109aa5783808480156109a0575b8280929181923390f115610995576040519283528201527ffbc3a599b784fe88772fc5abcc07223f64ca0b13acc341f4fb1e46bef0510eb460403392a26001815580f35b6040513d85823e3d90fd5b6108fc9150610951565b6064906040519062461bcd60e51b82526004820152601760248201527f4661696c656420746f20657874726163742066756e64730000000000000000006044820152fd5b805460ff19169055604051610a028161392b565b600181528181019082368337805115610a2757610a2191339052614aef565b84610902565b634e487b7160e01b5f52603260045260245ffd5b959450610a576064610a4f600954886137e0565b048096613b6b565b956040518681527fb6a45448c8250adf8d836e047d46f96410d632c7089720e3aed88fcb76644ded863392a26108cc565b634e487b7160e01b88526011600452602488fd5b60405162461bcd60e51b8152600481018390526015602482015274139bc81c195b991a5b99c81dda5d1a191c985dd85b605a1b6044820152606490fd5b34610323578060031936011261032357600c546001600160a01b039081163303610be757600254610b098161434a565b918391845b818110610b6857505081610b20578380f35b610b298261434a565b92845b838110610b475750505050610b4090614aef565b8180808380f35b8083610b556001938561427c565b5116610b61828861427c565b5201610b2c565b82610b72826136f5565b90549060031b1c16808752600190816020526040882060ff600b82015416159081610bdd575b50610ba8575b5050600101610b0e565b610bb686889793949761427c565b525f198114610bc9570192600187610b9e565b634e487b7160e01b87526011600452602487fd5b9050541589610b98565b60405162461bcd60e51b815260206004820152600d60248201526c4f6e6c792074696d656c6f636b60981b6044820152606490fd5b34610323576020366003190112610323576020610c3f610c3a613665565b614290565b6040519015158152f35b34610323578060031936011261032357600c546040516001600160a01b039091168152602090f35b3461032357606036600319011261032357610c8a613665565b610c9261367b565b90610c9b613691565b610ca583836139a6565b15611240576040516339a37a4360e11b81526001600160a01b038281166004830181905294602494919260209284169083818881855afa9081156111c3578991611207575b50156111ce5760405163b69e5c7760e01b8152938216600485018190529483858881855afa9485156111c3578995611194575b506040516378e2eb6160e11b81526004810189905284818981865afa908115611189578a9161115c575b506040516356512fcd60e11b8152600481018a90529085828a81875afa918215610fd8578b9261112d575b5081156110fb5780156110b757604051630ef7fb6760e01b81528681600481885afa9081156110ac578c9161107f575b506064018060641161106c57610db890886137e0565b91670de0b6b3a76400009283810293818504149015171561106c5790610ddd916137e0565b9081156110185790610dee916137c2565b60405163e7602b9d60e01b81526001600160a01b038381166004830152851660248201529097908581604481875afa908115610fd8578b91610feb575b50808911610fe3575b5060405163200a4deb60e21b81528581600481875afa908115610fd8578b91610fa7575b508810610f6c575090889291813b1561069f576040516001622b512560e01b031981526001600160a01b039182166004820152908316602482015233604482015260648101889052838160848183865af1908115610419578491610f58575b5050803b15610f54576040516378974cbb60e01b81526001600160a01b039290921660048301526024820185905282908290604490829084905af18015610f4957610f31575b50506040519384528301527f61a26dafe158573397cb85ec41fab65aa51d01855779276c8eb8c6915f7c577e60403393a480f35b610f3a90613947565b610f45578587610efd565b8580fd5b6040513d84823e3d90fd5b8280fd5b610f6190613947565b610f5457828a610eb7565b8460156064926040519262461bcd60e51b84526004840152820152742132b637bb9036b4b7103634b8bab4b230ba34b7b760591b6044820152fd5b90508581813d8311610fd1575b610fbe8183613977565b81010312610fcd57518b610e58565b5f80fd5b503d610fb4565b6040513d8d823e3d90fd5b97508a610e34565b90508581813d8311611011575b6110028183613977565b81010312610fcd57518b610e2b565b503d610ff8565b60405162461bcd60e51b8152600481018790526027818b01527f4469766973696f6e206279207a65726f20696e207061727469616c206c69717560448201526634b230ba34b7b760c91b6064820152608490fd5b634e487b7160e01b8c526011600452898cfd5b90508681813d83116110a5575b6110968183613977565b81010312610fcd57518c610da2565b503d61108c565b6040513d8e823e3d90fd5b60405162461bcd60e51b8152600481018790526018818b01527f436f6c6c61746572616c207072696365206973207a65726f00000000000000006044820152606490fd5b60405162461bcd60e51b815260048101879052600b818b01526a131515881b9bdd081cd95d60aa1b6044820152606490fd5b9091508581813d8311611155575b6111458183613977565b81010312610fcd5751908b610d72565b503d61113b565b90508481813d8311611182575b6111738183613977565b81010312610fcd57518a610d47565b503d611169565b6040513d8c823e3d90fd5b9094508381813d83116111bc575b6111ac8183613977565b81010312610fcd57519389610d1d565b503d6111a2565b6040513d8b823e3d90fd5b60405162461bcd60e51b81526004810184905260128188015271125b9d985b1a590818dbdb1b185d195c985b60721b6044820152606490fd5b90508381813d8311611239575b61121e8183613977565b810103126112355761122f90613999565b89610cea565b8880fd5b503d611214565b60405162461bcd60e51b815260206004820152601060248201526f506f736974696f6e206865616c74687960801b6044820152606490fd5b34610323578060031936011261032357338152600160205260408120600581019081549182156112da578391826006925501556040519081527f2eed97477f07c07ec48f8f678f4e84f7c0de55bf33f51c3dc989b1335308031960203392a280f35b60405162461bcd60e51b815260206004820152601f60248201527f4e6f2070656e64696e67207769746864726177616c20746f2063616e63656c006044820152606490fd5b346103235780600319360112610323576020600254604051908152f35b34610323576020908160031936011261032357600a546001600160a01b03919082166113698115156141f5565b604051624b476b60e91b81528481600481855afa9081156109955783916115ca575b5060405163b8cdf56160e01b81528581600481865afa90811561041957849161159d575b50604051635e1ead1f60e11b8152908682600481875afa9081156107e757859161156c575b6113de9250613b6b565b811561156457670de0b6b3a7640000908181029181830414901517156115505790611408916137c2565b6040516379fed8ad60e11b8152908582600481865afa91821561041957908692918592611515575b506024906040519687938492634fd41dad60e11b84526004840152165afa928315610f495790849183946114e3575b50604051635467a5a960e11b81529190829060049082905afa9182156114d757916114a2575b5061149990670de0b6b3a7640000926137e0565b04604051908152f35b90508281813d83116114d0575b6114b98183613977565b81010312610fcd5751670de0b6b3a7640000611485565b503d6114af565b604051903d90823e3d90fd5b8281939295503d831161150e575b6114fb8183613977565b81010312610fcd5751918390600461145f565b503d6114f1565b8092508391933d8311611549575b61152d8183613977565b8101031261069f579060246115428793613ed1565b9190611430565b503d611523565b634e487b7160e01b84526011600452602484fd5b505081611408565b90508682813d8311611596575b6115838183613977565b81010312610fcd576113de9151906113d4565b503d611579565b90508581813d83116115c3575b6115b48183613977565b81010312610fcd5751866113af565b503d6115aa565b90508481813d83116115f0575b6115e18183613977565b81010312610fcd57518561138b565b503d6115d7565b3461032357604036600319011261032357611610613665565b9061161961367b565b60405163042e02cf60e01b81526001600160a01b0382811660048301819052946024946020949093918316929185818881875afa9081156107e7578591611bbd575b5015611b6e5760405163c23c69d560e01b81526004810188905285818881875afa9081156107e7578591611b41575b506040516360d143f160e11b8152908682600481885afa908115611b36578691611b05575b6116b99250613b5e565b4210611ac85760405163cf17622560e01b8152908482600481875afa9182156107e7578592611a29575b50845b82518110156117b857836116fa828561427c565b51604051637781200d60e11b81529116600482015287818a81895afa9081156117ad578791611774575b5015611732576001016116e6565b606488886040519162461bcd60e51b83528160048401528201527f4f7261636c65206369726375697420627265616b6572207472696767657265646044820152fd5b90508781813d83116117a6575b61178b8183613977565b810103126117a25761179c90613999565b8a611724565b8680fd5b503d611781565b6040513d89823e3d90fd5b5094939684604051809863b69e5c7760e01b825283600483015281875afa968715611a1e5788976119ef575b50604051639b8621d560e01b81528581600481885afa9081156111c35789916119c1575b50606461181861181f928a6137e0565b0488613b5e565b9088805b8451811015611932576118708661183a838861427c565b5160405163e7602b9d60e01b815291166001600160a01b0381811660048401528c16602483015290918a90839081906044820190565b03818c5afa918215610419578492611900575b5081611894575b5050600101611823565b883b1561069f576040516001622b512560e01b031981526001600160a01b039182166004820152908b16602482015233604482015260648101919091528281608481838c5af19081156109955783911561188a576118f190613947565b6118fc57818c61188a565b5080fd5b935090508883813d811161192b575b6119198183613977565b81010312610fcd578b9251908d611883565b503d61190f565b5094935095915095823b1561069f576040516378974cbb60e01b81526001600160a01b0392909216600483015260248201529082908290604490829084905af18015610f49576119ad575b50507f1175522017e08c2f400d7e516608eff60816ee9e8319158d174321234b602631906040519384523393a380f35b6119b690613947565b61069f57838561197d565b90508581813d83116119e8575b6119d88183613977565b81010312610fcd57516064611808565b503d6119ce565b9096508481813d8311611a17575b611a078183613977565b81010312610fcd575195886117e4565b503d6119fd565b6040513d8a823e3d90fd5b9091503d8086833e611a3b8183613977565b8101908681830312610f455780519067ffffffffffffffff82116117a257019080601f83011215610f45578151611a7181613eb9565b92611a7f6040519485613977565b818452888085019260051b820101928311611ac45788809101915b838310611aac575050505090886116e3565b8190611ab784613ed1565b8152019101908890611a9a565b8780fd5b60405162461bcd60e51b8152600481018690526016818801527511dc9858d9481c195c9a5bd9081b9bdd08195b99195960521b6044820152606490fd5b90508682813d8311611b2f575b611b1c8183613977565b81010312610fcd576116b99151906116af565b503d611b12565b6040513d88823e3d90fd5b90508581813d8311611b67575b611b588183613977565b81010312610fcd57518861168a565b503d611b4e565b60405162461bcd60e51b8152600481018690526022818801527f4163636f756e74206e6f74206d61726b656420666f72206c697175696461746960448201526137b760f11b6064820152608490fd5b90508581813d8311611beb575b611bd48183613977565b810103126107dc57611be590613999565b8861165b565b503d611bca565b346103235780600319360112610323576020600954604051908152f35b346103235780600319360112610323576020600d54604051908152f35b346103235780600319360112610323576008546040516001600160a01b039091168152602090f35b346103235780600319360112610323576020600754604051908152f35b3461032357602036600319011261032357611c8a613665565b6001600160a01b0381168252600160205260408083209051919280611cae8461390e565b8254938481526001840154928360208301526002850154604083015260038501549460608301958652600481015492836080820152600582015460a0820152600682015460c082015261016060ff600b60078501549460e0850195865260088101546101008601526009810154610120860152600a8101546101408601520154161515910152620151808501809511611ea657519486158015611d7c575b505050611d5a60c096614cdf565b91604051958652602086015260408501526060840152608083015260a0820152f35b9091979350611d8d82511515613bb7565b611d95614821565b90670de0b6b3a7640000918289029189830484141715611e925782820493898514611dce575050505050611d5a60c096925b9688611d4c565b837812725dd1d243aba0e75fe645cc4873f9e65afe688c928e1f218311611e7f575051838115611e7557611e0292026137c2565b905b8115611e615760c099611d5a948a94919390925f1982900410611e59576ec097ce7bc90715b34b9f1000000000925084020204905b82821115611e5057828210611e5057500392611dc7565b91505092611dc7565b040290611e39565b634e487b7160e01b8a52601260045260248afd5b5050508890611e04565b91611e8b9151906137c2565b0290611e04565b634e487b7160e01b8a52601160045260248afd5b634e487b7160e01b82526011600452602482fd5b3461032357806003193601126103235760206040517fbc37299a3f6cccd6c755dd8bfdf2500dcaabe80313ae76769173dd12db1d5fd98152f35b3461032357806003193601126103235760206040517f358559da74e98365ce10a27dc62f2c5b6fa4992108fa51890f8203b09b80f2628152f35b3461032357611f3c3661372a565b600c80546001600160a01b039392908416330361048f5780156120fd57845b818110611f66578580f35b611f79611f74828487613b2a565b613b3a565b90858216156120c9578582168752600160205260408720546120915761208b600192604051611fa78161390e565b898152896020820152896040820152670de0b6b3a764000060608201528960808201528960a08201528960c08201528960e0820152896101008201528961012082015289610140820152896101608201528882168a5284602052610160600b60408c208351815560208401518882015560408401516002820155606084015160038201556080840151600482015560a0840151600582015560c0840151600682015560e0840151600782015561010084015160088201556101208401516009820155610140840151600a82015501910151151560ff80198354169116179055614239565b01611f5b565b60405162461bcd60e51b815260206004820152601060248201526f20b63932b0b23c9030903632b73232b960811b6044820152606490fd5b60405162461bcd60e51b815260206004820152602481018590526b5a65726f206164647265737360a01b6044820152606490fd5b60405162461bcd60e51b8152602060048201526011602482015270115b5c1d1e481b195b99195c881b1a5cdd607a1b6044820152606490fd5b346103235760203660031901126103235761214f613665565b50600a54612167906001600160a01b031615156141f5565b6020610368613ee5565b3461032357806003193601126103235760405180916002549081835260208093018092600283527f405787fa12a823e0f2b7631cc41b3ba8828b3321ca811111fa75cd3aa3bb5ace90835b81811061221957505050846121d2910385613977565b60405193838594850191818652518092526040850193925b8281106121f957505050500390f35b83516001600160a01b0316855286955093810193928101926001016121ea565b82546001600160a01b0316845292860192600192830192016121bc565b34610323576020806003193601126118fc57600435903383526001815261226660ff600b60408620015416613db7565b3383526001815261228060ff600b60408620015416613df2565b3383526001815260408320600881018054916201518092838101809111610bc957421061235c57805485116123205760038101805415612310575b506122c533614921565b846005820155600642910155429055420190814211611550576040519283528201527f24b91f4f47caf44230a57777a9be744924e82bf666f2d5702faf97df35e60f9f60403392a280f35b612318614821565b9055866122bb565b60405162461bcd60e51b8152600481018590526014602482015273496e73756666696369656e742062616c616e636560601b6044820152606490fd5b60405162461bcd60e51b815260048101859052601d60248201527f4d757374207761697420666f7220636f6f6c646f776e20706572696f640000006044820152606490fd5b3461032357806003193601126103235760206040517f96737339a958f216173e690d06f324072e6dc3146e04c060bd723906d6b190768152f35b346103235780600319360112610323576020600554604051908152f35b3461032357602036600319011261032357600c54600435906001600160a01b0316330361048f576064811161242d5760095580f35b60405162461bcd60e51b815260206004820152601060248201526f0a0cadcc2d8e8f240e8dede40d0d2ced60831b6044820152606490fd5b346103235780600319360112610323576020600454604051908152f35b346103235760203660031901126103235761249b613665565b6001600160a01b0316815260016020526040808220905190919081906124c08161390e565b83548152600184015492836020830152600285015460408301526003850154946060830195865260048101546080840152600581015460a0840152600681015460c084015260ff600b60078301549260e0860193845260088101546101008701526009810154610120870152600a810154610140870152015416151561016084015262015180918286018096116126db5785421092835f146126d4578451600954908115612671575f19829004106126c05761257f60649187516137e0565b04925b51806126a1575080420180421161268d575b61259d42613b4e565b81111561268557504201804211611ea657935b80516125da575b505060a09550604051948552602085015215604084015260608301526080820152f35b909194506125ea87511515613bb7565b6125f2614821565b9681519780156126715760a0985f1982900410612655576126149083516137e0565b9051801561264c57612625916137c2565b905b51918282111561264357828210612643575003925b86806125b7565b9150509261263c565b50508190612627565b61266661266b9284519051906137c2565b6137e0565b90612627565b634e487b7160e01b84526012600452602484fd5b9050936125b0565b634e487b7160e01b83526011600452602483fd5b8181018091111561259457634e487b7160e01b83526011600452602483fd5b6126ce9060648751046137e0565b92612582565b8192612582565b634e487b7160e01b81526011600452602490fd5b346103235760203660031901126103235760209060ff90600b906040906001600160a01b0361271c613665565b16815260018552200154166040519015158152f35b346103235780600319360112610323576020600354604051908152f35b346103235780600319360112610323576020610368613ee5565b34610323576127763661372a565b600c546001600160a01b0392908316330361048f5761279482613eb9565b926127a26040519485613977565b828452602092602085019060051b8301923684116117a257905b8382106127d057866127cd87614aef565b80f35b81358381168103610fcd5781529084019084016127bc565b34610323578060031936011261032357600a546040516001600160a01b039091168152602090f35b34610323578060031936011261032357602060ff600f54166040519015158152f35b34610323576128403661372a565b9061284e6032831115613aa5565b612859821515613ae6565b825b82811061289157837f9765ab3445c5a4a779f6eeaae39ac242850ea470c65f6dda83fbb8cffc7812a4602085604051908152a180f35b6001906001600160a01b03806128ab611f74848888613b2a565b1686528260208181526040882054151592836128eb575b5050506128d0575b0161285b565b6128e66128e1611f74838787613b2a565b614921565b6128ca565b909192506128fd611f74858989613b2a565b1687525260ff600b604087200154168680806128c2565b3461032357806003193601126103235760206040517faacf4d9ce41c3977f13dda8d61dce041128ea08757d4cc0dab99105ca55f6d208152f35b34610323576020366003190112610323576004356007548110156129a0576129776040916136bd565b50602082516129858161392b565b60018354938483520154918291015282519182526020820152f35b60405162461bcd60e51b8152602060048201526012602482015271092dcecc2d8d2c840e8d2cae440d2dcc8caf60731b6044820152606490fd5b34610323576020366003190112610323576129f3613665565b506020610368613ee5565b3461032357612a0c366136a7565b600c546001600160a01b0316330361048f57612710808311159081612aa1575b5015612a6d57816040917f1ad8b45a83c0b03428f4eb1fc49e5e9e4ee40bea305c8dfde416980ea7d90c9893600d5580600e5582519182526020820152a180f35b60405162461bcd60e51b815260206004820152600c60248201526b08ccaca40e8dede40d0d2ced60a31b6044820152606490fd5b905081111584612a2c565b34610323578060031936011261032357602060405168056bc75e2d631000008152f35b612ad836613777565b92915060018060a01b03612af181600a54163314613e35565b8484158015612afe575080f35b8180878193612b0f82341015613e6d565b86600b5416908390612b7f575bf115610419577f66aecc579aa1ef463c0ed1547c2cb6163370e6311a60cba815252acbb398f2139260a09260405195865260606020870152600b60608701526a37b934b3b4b730ba34b7b760a91b608087015260408601521692a2818080808480f35b506108fc612b1c565b346103235780600319360112610323576020600e54604051908152f35b34610fcd5760a0366003190112610fcd57612bbe613665565b612bc661367b565b612bce613691565b91608435916003831015610fcd576001600160a01b0391821690813b15610fcd575f60849281958560405198899788966376e674df60e01b8852166004870152166024850152606435604485015260648401525af18015612c3b57612c31575080f35b61001a9150613947565b6040513d5f823e3d90fd5b34610fcd575f366003190112610fcd57612c5e6148cd565b335f52602060018152612c7a60ff600b60405f20015416613db7565b335f5260018152612c9460ff600b60405f20015416613df2565b335f526001815260405f20805415612de557600490612cb233614921565b01908154918215612da9575f9055612ccc82600354613b6b565b6003555f8060018060a01b03600a5416604051828582019163e19fb8f560e01b835287602482015260248152612d018161395b565b51925af1612d0d613b78565b5015612d51575f808080853382f115612c3b577ff9984c8173c4b4ff9cc454f76ed19c053f4490ccb224fd9ddffeb4ef4bea3530906040519283523392a260015f55005b6084906040519062461bcd60e51b82526004820152602b60248201527f4661696c656420746f20657874726163742066756e64732066726f6d206c697160448201526a1d5a591a5d1e481c1bdbdb60aa1b6064820152fd5b60405162461bcd60e51b81526004810183905260146024820152734e6f20696e74657265737420746f20636c61696d60601b6044820152606490fd5b60405162461bcd60e51b8152600481018390526012602482015271139bc8199d5b991cc819195c1bdcda5d195960721b6044820152606490fd5b34610fcd576060366003190112610fcd57600c546024359060443590600435906001600160a01b0316330361048f57670de0b6b3a76400008210612eda576007548110612eb8575060405191612e748361392b565b8252602082015260075490600160401b821015612ea457612e9e82600161001a94016007556136bd565b90613d8e565b634e487b7160e01b5f52604160045260245ffd5b612e9e9061001a939260405193612ece8561392b565b845260208401526136bd565b60405162461bcd60e51b815260206004820152601160248201527052617465206d757374206265203e3d203160781b6044820152606490fd5b34610fcd576020366003190112610fcd57612f2c613665565b5f610160604051612f3c8161390e565b8281528260208201528260408201528260608201528260808201528260a08201528260c08201528260e0820152826101008201528261012082015282610140820152015260018060a01b03165f52600160205261018060405f20610160604051612fa58161390e565b60ff600b84549485845260018101546020850152600281015460408501526003810154606085015260048101546080850152600581015460a0850152600681015460c0850152600781015460e085015260088101546101008501526009810154610120850152600a8101546101408501520154161515828201526040519283526020810151602084015260408101516040840152606081015160608401526080810151608084015260a081015160a084015260c081015160c084015260e081015160e084015261010081015161010084015261012081015161012084015261014081015161014084015201511515610160820152f35b34610fcd576020366003190112610fcd5760206103686130b9613665565b613c03565b34610fcd576130cc3661372a565b906130da6014831115613aa5565b6130e5821515613ae6565b5f905f5b8381106131bf575050806130f957005b5f8060018060a01b03600a541660405182602082019163e19fb8f560e01b83528660248201526024815261312c8161395b565b51925af1613138613b78565b5015613170577f3d6423b78eecbf9e43153ccd5a4ad162e04ca046dca21adc4a009a10fc3570f49160409182519182526020820152a1005b60405162461bcd60e51b815260206004820152602160248201527f4661696c656420746f20657874726163742066756e64732066726f6d20706f6f6044820152601b60fa1b6064820152608490fd5b6001600160a01b03806131d6611f74848887613b2a565b165f5260206001815260405f209160058301908154918215948515806132bd575b61320a575b5050505050506001016130e9565b928094969598918482809596549061322191613b6b565b905560038281549061323291613b6b565b90555f905561324091613b5e565b968261324d868b8a613b2a565b61325690613b3a565b16905f8093849384939284936132b4575bf115612c3b576001937f1a39b9c5044b9f0ff56c5951e30c1ebe24911353aafcceb9250e83a24fe158c4916132a0611f74868b8a613b2a565b1692604051908152a29085808080806131fc565b506108fc613267565b5060068101546201518081018091116132d8574210156131f7565b634e487b7160e01b5f52601160045260245ffd5b34610fcd576020366003190112610fcd57600435600254811015610fcd576133156020916136f5565b905460405160039290921b1c6001600160a01b03168152f35b34610fcd576040366003190112610fcd576020610c3f61334c613665565b61335461367b565b906139a6565b34610fcd576020366003190112610fcd576001600160a01b0361337b613665565b165f52600160205261018060405f20805490600181015490600281015460038201546004830154600584015460068501549060078601549260088701549460098801549660ff600b600a8b01549a015416996040519b8c5260208c015260408b015260608a0152608089015260a088015260c087015260e08601526101008501526101208401526101408301521515610160820152f35b34610fcd576020366003190112610fcd57600435600754811015610fcd5761343b6040916136bd565b506001815491015482519182526020820152f35b34610fcd575f366003190112610fcd576020604051662386f26fc100008152f35b34610fcd576020366003190112610fcd57600c54600435906001600160a01b0316330361048f57670de0b6b3a7640000811015806134f0575b156134bc57600455620151804204600555005b60405162461bcd60e51b815260206004820152600c60248201526b496e76616c6964207261746560a01b6044820152606490fd5b50670df27a2cdf4480008111156134a9565b34610fcd576020610368613515366136a7565b906137f3565b34610fcd576020366003190112610fcd57600435801515809103610fcd57600c546001600160a01b0316330361048f5760ff8019600f5416911617600f555f80f35b34610fcd576020366003190112610fcd57613576613665565b600c546001600160a01b0391908216330361048f571680156135ca57600b80546001600160a01b031916821790557f279ea638680bba6a87fddd8bcdbc37d94eee92841e1dfec2ab0f79662c7093115f80a2005b60405162461bcd60e51b815260206004820152601760248201527f496e76616c6964207265736572766520616464726573730000000000000000006044820152606490fd5b34610fcd576020366003190112610fcd5760206103686004356147cd565b34610fcd575f366003190112610fcd57807f30d714d36be891ba5851837992c580dee4624dc21d19d9fecbcabfcb0e7ce28060209252f35b600435906001600160a01b0382168203610fcd57565b602435906001600160a01b0382168203610fcd57565b604435906001600160a01b0382168203610fcd57565b6040906003190112610fcd576004359060243590565b600754811015610a275760075f5260011b7fa66cc928b5edb82af9bd49922954155ab7b0942694bea4ce44661d9a8736c68801905f90565b600254811015610a275760025f527f405787fa12a823e0f2b7631cc41b3ba8828b3321ca811111fa75cd3aa3bb5ace01905f90565b906020600319830112610fcd5760043567ffffffffffffffff92838211610fcd5780602383011215610fcd578160040135938411610fcd5760248460051b83010111610fcd576024019190565b6080906003190112610fcd576004356001600160a01b0381168103610fcd5790602435906044359060643590565b34610fcd575f366003190112610fcd576020604051620151808152f35b81156137cc570490565b634e487b7160e01b5f52601260045260245ffd5b818102929181159184041417156132d857565b906137fc614821565b9081156138fe575b81905f60049160045480155f1994828604915b8486106138715750505050505081156137cc57819004831161385f579061384161384692846137e0565b6137c2565b8181111561385957818110613859570390565b50505f90565b61266661386c92846137c2565b613846565b909192939496816138eb57848482116138cf57613897670de0b6b3a764000091836137e0565b049080821090816138c5575b506138b857600190975b019493929190613817565b5050505050509250505090565b905015155f6138a3565b6138e590670de0b6b3a7640000600193046137e0565b976138ad565b601283634e487b7160e01b5f525260245ffd5b670de0b6b3a76400009150613804565b610180810190811067ffffffffffffffff821117612ea457604052565b6040810190811067ffffffffffffffff821117612ea457604052565b67ffffffffffffffff8111612ea457604052565b6060810190811067ffffffffffffffff821117612ea457604052565b90601f8019910116810190811067ffffffffffffffff821117612ea457604052565b51908115158203610fcd57565b6040805163239ad4ef60e21b81526001600160a01b0393841660048201819052939192909116908281602481855afa908115613a9b575f91613a66575b501592836139f2575b50505090565b829350602460209293518094819363b69e5c7760e01b835260048301525afa918215613a5d57505f91613a2b575b5015155f80806139ec565b90506020813d602011613a55575b81613a4660209383613977565b81010312610fcd57515f613a20565b3d9150613a39565b513d5f823e3d90fd5b90508281813d8311613a94575b613a7d8183613977565b81010312610fcd57613a8e90613999565b5f6139e3565b503d613a73565b83513d5f823e3d90fd5b15613aac57565b60405162461bcd60e51b8152602060048201526012602482015271546f6f206d616e792061646472657373657360701b6044820152606490fd5b15613aed57565b60405162461bcd60e51b8152602060048201526015602482015274139bc81859191c995cdcd95cc81c1c9bdd9a591959605a1b6044820152606490fd5b9190811015610a275760051b0190565b356001600160a01b0381168103610fcd5790565b906202a30082018092116132d857565b919082018092116132d857565b919082039182116132d857565b3d15613bb2573d9067ffffffffffffffff8211612ea45760405191613ba7601f8201601f191660200184613977565b82523d5f602084013e565b606090565b15613bbe57565b60405162461bcd60e51b815260206004820152601e60248201527f696e746572657374496e646578206d757374206e6f74206265207a65726f00006044820152606490fd5b60018060a01b03165f52600160205260405f2060405190613c238261390e565b8054808352600182015460208401526002820154604084015260038201549060ff600b606086019484865260048101546080880152600581015460a0880152600681015460c0880152600781015460e088015260088101546101008801526009810154610120880152600a810154610140880152015416151561016085015215613d8757613cb2901515613bb7565b613cba614821565b825190670de0b6b3a764000091828102918183048414821517156132d8578383049486518603613d7c57847812725dd1d243aba0e75fe645cc4873f9e65afe688c928e1f218311613d69575051848115613d5f57613d1892026137c2565b915b82156137cc575f1983900410613d56576ec097ce7bc90715b34b9f10000000009350020204905b51908181111561385957818110613859570390565b50040290613d41565b5050505f91613d1a565b91613d759151906137c2565b0291613d1a565b505050505050505f90565b5050505f90565b9190613da4576020816001925184550151910155565b634e487b7160e01b5f525f60045260245ffd5b15613dbe57565b60405162461bcd60e51b815260206004820152600c60248201526b2737ba1030903632b73232b960a11b6044820152606490fd5b15613df957565b60405162461bcd60e51b81526020600482015260146024820152732737ba1030b71030b1ba34bb32903632b73232b960611b6044820152606490fd5b15613e3c57565b60405162461bcd60e51b815260206004820152600960248201526813db9b1e481c1bdbdb60ba1b6044820152606490fd5b15613e7457565b60405162461bcd60e51b815260206004820152601860248201527f496e73756666696369656e7420666565207061796d656e7400000000000000006044820152606490fd5b67ffffffffffffffff8111612ea45760051b60200190565b51906001600160a01b0382168203610fcd57565b600354600a546040805163b8cdf56160e01b81526004926001600160a01b039160209183169082818781855afa9081156141eb575f916141be575b508451635e1ead1f60e11b81529083828881865afa9081156141b4575f91614183575b613f4d9250613b6b565b95801561417857670de0b6b3a764000096878102908082048914901517156141655790613f79916137c2565b8451906379fed8ad60e11b9485835284838981875afa9283156140f5575f9361412e575b50848260248a848b519788948593634fd41dad60e11b8552840152165afa9283156140f5575f936140ff575b50865195865284868981875afa9586156140f5575f966140b4575b50849291604491885197889485936301508d4560e51b85528c8501526024840152165afa9283156140aa575f9361407b575b508190845195868092635467a5a960e11b82525afa928315613a5d57505f92614049575b5061404592506137e0565b0490565b90915082813d8311614074575b6140608183613977565b81010312610fcd576140459151905f61403a565b503d614056565b9092508181813d83116140a3575b6140938183613977565b81010312610fcd57519181614016565b503d614089565b84513d5f823e3d90fd5b9095508481819493943d83116140ee575b6140cf8183613977565b81010312610fcd5784926140e4604492613ed1565b9691509192613fe4565b503d6140c5565b87513d5f823e3d90fd5b9092508481813d8311614127575b6141178183613977565b81010312610fcd5751915f613fc9565b503d61410d565b9092508481813d831161415e575b6141468183613977565b81010312610fcd5761415790613ed1565b915f613f9d565b503d61413c565b601187634e487b7160e01b5f525260245ffd5b505050505090505490565b90508382813d83116141ad575b61419a8183613977565b81010312610fcd57613f4d915190613f43565b503d614190565b86513d5f823e3d90fd5b90508281813d83116141e4575b6141d58183613977565b81010312610fcd57515f613f20565b503d6141cb565b85513d5f823e3d90fd5b156141fc57565b60405162461bcd60e51b8152602060048201526015602482015274131a5c5d5a591a5d1e541bdbdb081b9bdd081cd95d605a1b6044820152606490fd5b60025490600160401b821015612ea45761425c82600161427a94016002556136f5565b90919060018060a01b038084549260031b9316831b921b1916179055565b565b8051821015610a275760209160051b010190565b60018060a01b03165f52600160205260405f206040516142af8161390e565b81548152600182015460208201526002820154604082015260038201546060820152600482015460808201526005820154908160a082015261016060ff600b6006860154958660c0860152600781015460e086015260088101546101008601526009810154610120860152600a810154610140860152015416151591015215614345576201518081018091116132d85742101590565b505f90565b9061435482613eb9565b6143616040519182613977565b8281528092614372601f1991613eb9565b0190602036910137565b60018060a01b03165f52600190600160205260405f2091604051926143a08461390e565b80549384815260018201546020820152600282015494604082019586526003830154606083019181835260ff600b60049660048101546080880152600581015460a0880152600681015460c0880152600781015460e088015260088101546101008801526009810154610120880152600a8101546101408801520154161515610160850152156145c657614435901515613bb7565b61443d614821565b825192670de0b6b3a764000092838502948086048514811517156132d85784860491835183036145b857857812725dd1d243aba0e75fe645cc4873f9e65afe688c928e1f2186116145a6575051801561459f5761449c908686026137c2565b80156137cc575f199686929082890410614596576ec097ce7bc90715b34b9f10000000009350020204905b519081811115614586578181106145865762015180916144eb9103985b5142613b6b565b04806144fa575b505050505050565b9291905f9594811590828504915b868910614517575050506144f2565b909192939495969799816138eb5788858786841161457557915061453b90836137e0565b0490808210908161456b575b5061455e5788909a5b019796959493929190614508565b5094985050505050505050565b905015155f614547565b6145809293046137e0565b9a614550565b5050620151806144eb5f986144e4565b500402906144c7565b505f61449c565b906145b29051866137c2565b0261449c565b505f99505050505050505050565b505f955050505050565b60035480156147c657600a546040805163b8cdf56160e01b8152909260209290916001600160a01b039182169160049185818481875afa9081156140f5575f91614799575b508651635e1ead1f60e11b81529086828581885afa90811561478f575f9161475e575b6146429250613b6b565b92831561475357670de0b6b3a76400008402670de0b6b3a763ffff19858204016147405783916146738789936137c2565b5088516379fed8ad60e11b815292839182905afa9081156140f5579087949392915f91614701575b50906044929185519687958694634dc8336560e11b86528501526024840152165afa928315613a5d575f936146d05750505090565b9080929350813d83116146fa575b6146e88183613977565b81010312610fcd5701515f80806139ec565b503d6146de565b8093929550878092503d8311614739575b61471c8183613977565b81010312610fcd578693614731604493613ed1565b90919261469b565b503d614712565b601184634e487b7160e01b5f525260245ffd5b505093505050505490565b90508682813d8311614788575b6147758183613977565b81010312610fcd57614642915190614638565b503d61476b565b88513d5f823e3d90fd5b90508581813d83116147bf575b6147b08183613977565b81010312610fcd57515f614615565b503d6147a6565b5060045490565b90600754805b6147df57506004549150565b5f1981018181116132d8576147f3816136bd565b505484101561480c575080156132d8575f1901806147d3565b600192935061481b91506136bd565b50015490565b600354156148c15761483a600554620151804204613b6b565b6148426145d0565b670de0b6b3a76400008082106148b9575b82156148b357919080925f915b83831061486e575050505090565b909192938261487d83836137e0565b049081106148915793926001019190614860565b50505050507812725dd1d243aba0e75fe645cc4873f9e65afe688c928e1f2190565b50905090565b905080614853565b670de0b6b3a764000090565b60025f54146148dc5760025f55565b60405162461bcd60e51b815260206004820152601f60248201527f5265656e7472616e637947756172643a207265656e7472616e742063616c6c006044820152606490fd5b6001600160a01b03165f818152600160205260409020805490918115614aea576003830190815415614ad557614955614821565b928315614ace57670de0b6b3a76400008082029082820481036132d85780820490838203614ac4577812725dd1d243aba0e75fe645cc4873f9e65afe688c928e1f218711614ab25785548015614aab576149b1908289026137c2565b80156137cc5784935f1982900410614aa4576ec097ce7bc90715b34b9f10000000009250830202045b81811115614a9b57818110614a9b5703905b83548511614a01575b50505055600242910155565b81156149f55781614a467fa8994c180af00cca393507749e1d830601910f8fd81f94fdcaf6dadb646cf5a19360409360048a01614a3f838254613b5e565b9055613b5e565b8755614a5481600354613b5e565b600355426007880155837f65724bab62e2b372c625ed834016c4e1750f8074aad18b22844457f35ea61d7360208451848152a28151908152856020820152a25f80806149f5565b50505f906149ec565b04026149da565b505f6149b1565b80614abe8754896137c2565b026149b1565b5050505050505050565b5050505050565b50670de0b6b3a7640000915055600242910155565b505050565b805115614ca457905f915b8051831015614c9f576001600160a01b039283614b17828461427c565b5116805f52600194602090868252604091825f2091600b9260ff8482015416159081614c95575b50614b57575b5050505050600191929350019190614afa565b5f895b614b9a575b50505050506001929394507f5d9d7e5f1ada1bcc5ddf7a5a4c417d004a64912af537c40f78badbf16754847b5f80a28392915f808080614b44565b6002805480831015614c8e5790839188614bb3856136f5565b949054600395861b1c1614614bcd57505050890189614b5a565b5f9c95949293979a9b9c19978882019182116132d85761425c84614bf3614c00946136f5565b905490881b1c16916136f5565b8054968715614c7a5760019a5f988996879586948a930190614c21826136f5565b90918254918b1b1b1916905585558b84525281209581875586015584015582015582600482015582600582015582600682015582600782015582600882015582600982015582600a82015501558493925f808080614b5f565b634e487b7160e01b5f52603160045260245ffd5b5050614b5f565b905054155f614b3e565b509050565b60405162461bcd60e51b81526020600482015260136024820152724e6f206c656e6465727320746f20636865636b60681b6044820152606490fd5b60018060a01b03165f52600160205260405f20604051614cfe8161390e565b81549081815260018301546020820152600283015460408201526003830154606082015260048301546080820152600583015460a0820152600683015460c082015261016060ff600b6007860154958660e086015260088101546101008601526009810154610120860152600a8101546101408601520154161515910152156143455780614db857506201518042018042116132d8575b614d9e42613b4e565b8111614da75790565b506201518042018042116132d85790565b62015180810180911115614d9557634e487b7160e01b5f52601160045260245ffdfea2646970667358221220bd92247822a1fb3709f26e9449a25d7daba9755f6796b0afe1b4480179ac191964736f6c63430008180033",
  "linkReferences": {},
  "deployedLinkReferences": {}
}