{
  "_format": "hh-sol-artifact-1",
  "contractName": "LendingManager",
  "sourceName": "backend/contracts/LendingManager.sol",
  "abi": [
    {
      "inputs": [
        {
          "internalType": "address",
          "name": "_liquidityPool",
          "type": "address"
        },
        {
          "internalType": "address",
          "name": "_timelock",
          "type": "address"
        }
      ],
      "stateMutability": "nonpayable",
      "type": "constructor"
    },
    {
      "inputs": [],
      "name": "OnlyTimelockLendingManager",
      "type": "error"
    },
    {
      "anonymous": false,
      "inputs": [
        {
          "indexed": true,
          "internalType": "address",
          "name": "lender",
          "type": "address"
        },
        {
          "indexed": false,
          "internalType": "uint256",
          "name": "penaltyAmount",
          "type": "uint256"
        }
      ],
      "name": "EarlyWithdrawalPenalty",
      "type": "event"
    },
    {
      "anonymous": false,
      "inputs": [
        {
          "indexed": true,
          "internalType": "address",
          "name": "user",
          "type": "address"
        },
        {
          "indexed": false,
          "internalType": "uint256",
          "name": "amount",
          "type": "uint256"
        },
        {
          "indexed": false,
          "internalType": "string",
          "name": "feeType",
          "type": "string"
        },
        {
          "indexed": false,
          "internalType": "uint256",
          "name": "tier",
          "type": "uint256"
        }
      ],
      "name": "FeeCollected",
      "type": "event"
    },
    {
      "anonymous": false,
      "inputs": [
        {
          "indexed": false,
          "internalType": "uint256",
          "name": "originationFee",
          "type": "uint256"
        },
        {
          "indexed": false,
          "internalType": "uint256",
          "name": "lateFee",
          "type": "uint256"
        }
      ],
      "name": "FeeParametersUpdated",
      "type": "event"
    },
    {
      "anonymous": false,
      "inputs": [
        {
          "indexed": true,
          "internalType": "address",
          "name": "lender",
          "type": "address"
        },
        {
          "indexed": false,
          "internalType": "uint256",
          "name": "amount",
          "type": "uint256"
        }
      ],
      "name": "FundsDeposited",
      "type": "event"
    },
    {
      "anonymous": false,
      "inputs": [
        {
          "indexed": true,
          "internalType": "address",
          "name": "lender",
          "type": "address"
        },
        {
          "indexed": false,
          "internalType": "uint256",
          "name": "amount",
          "type": "uint256"
        },
        {
          "indexed": false,
          "internalType": "uint256",
          "name": "penalty",
          "type": "uint256"
        }
      ],
      "name": "FundsWithdrawn",
      "type": "event"
    },
    {
      "anonymous": false,
      "inputs": [
        {
          "indexed": true,
          "internalType": "address",
          "name": "lender",
          "type": "address"
        },
        {
          "indexed": false,
          "internalType": "uint256",
          "name": "amount",
          "type": "uint256"
        }
      ],
      "name": "InterestAvailable",
      "type": "event"
    },
    {
      "anonymous": false,
      "inputs": [
        {
          "indexed": true,
          "internalType": "address",
          "name": "lender",
          "type": "address"
        },
        {
          "indexed": false,
          "internalType": "uint256",
          "name": "interest",
          "type": "uint256"
        }
      ],
      "name": "InterestClaimed",
      "type": "event"
    },
    {
      "anonymous": false,
      "inputs": [
        {
          "indexed": true,
          "internalType": "address",
          "name": "lender",
          "type": "address"
        },
        {
          "indexed": false,
          "internalType": "uint256",
          "name": "interest",
          "type": "uint256"
        }
      ],
      "name": "InterestCredited",
      "type": "event"
    },
    {
      "anonymous": false,
      "inputs": [
        {
          "indexed": true,
          "internalType": "address",
          "name": "lender",
          "type": "address"
        },
        {
          "indexed": false,
          "internalType": "uint256",
          "name": "interest",
          "type": "uint256"
        },
        {
          "indexed": false,
          "internalType": "uint256",
          "name": "rate",
          "type": "uint256"
        }
      ],
      "name": "LenderInterestAccrued",
      "type": "event"
    },
    {
      "anonymous": false,
      "inputs": [
        {
          "indexed": true,
          "internalType": "address",
          "name": "user",
          "type": "address"
        },
        {
          "indexed": true,
          "internalType": "address",
          "name": "liquidator",
          "type": "address"
        },
        {
          "indexed": false,
          "internalType": "uint256",
          "name": "amount",
          "type": "uint256"
        }
      ],
      "name": "LiquidationExecuted",
      "type": "event"
    },
    {
      "anonymous": false,
      "inputs": [
        {
          "indexed": true,
          "internalType": "address",
          "name": "user",
          "type": "address"
        },
        {
          "indexed": true,
          "internalType": "address",
          "name": "liquidator",
          "type": "address"
        },
        {
          "indexed": true,
          "internalType": "address",
          "name": "collateralToken",
          "type": "address"
        },
        {
          "indexed": false,
          "internalType": "uint256",
          "name": "collateralSeized",
          "type": "uint256"
        },
        {
          "indexed": false,
          "internalType": "uint256",
          "name": "debtRepaid",
          "type": "uint256"
        }
      ],
      "name": "PartialLiquidation",
      "type": "event"
    },
    {
      "anonymous": false,
      "inputs": [
        {
          "indexed": true,
          "internalType": "address",
          "name": "lender",
          "type": "address"
        },
        {
          "indexed": false,
          "internalType": "uint256",
          "name": "amount",
          "type": "uint256"
        },
        {
          "indexed": false,
          "internalType": "uint256",
          "name": "unlockTime",
          "type": "uint256"
        }
      ],
      "name": "PrincipalWithdrawalRequested",
      "type": "event"
    },
    {
      "anonymous": false,
      "inputs": [
        {
          "indexed": true,
          "internalType": "address",
          "name": "newReserve",
          "type": "address"
        }
      ],
      "name": "ReserveAddressUpdated",
      "type": "event"
    },
    {
      "anonymous": false,
      "inputs": [
        {
          "indexed": true,
          "internalType": "address",
          "name": "lender",
          "type": "address"
        },
        {
          "indexed": false,
          "internalType": "uint256",
          "name": "amount",
          "type": "uint256"
        }
      ],
      "name": "WithdrawalCancelled",
      "type": "event"
    },
    {
      "anonymous": false,
      "inputs": [
        {
          "indexed": true,
          "internalType": "address",
          "name": "lender",
          "type": "address"
        },
        {
          "indexed": false,
          "internalType": "uint256",
          "name": "amount",
          "type": "uint256"
        },
        {
          "indexed": false,
          "internalType": "uint256",
          "name": "unlockTime",
          "type": "uint256"
        }
      ],
      "name": "WithdrawalRequested",
      "type": "event"
    },
    {
      "inputs": [],
      "name": "EARLY_WITHDRAWAL_PENALTY",
      "outputs": [
        {
          "internalType": "uint256",
          "name": "",
          "type": "uint256"
        }
      ],
      "stateMutability": "view",
      "type": "function"
    },
    {
      "inputs": [],
      "name": "MAX_DEPOSIT_AMOUNT",
      "outputs": [
        {
          "internalType": "uint256",
          "name": "",
          "type": "uint256"
        }
      ],
      "stateMutability": "view",
      "type": "function"
    },
    {
      "inputs": [],
      "name": "MIN_DEPOSIT_AMOUNT",
      "outputs": [
        {
          "internalType": "uint256",
          "name": "",
          "type": "uint256"
        }
      ],
      "stateMutability": "view",
      "type": "function"
    },
    {
      "inputs": [],
      "name": "SECONDS_PER_DAY",
      "outputs": [
        {
          "internalType": "uint256",
          "name": "",
          "type": "uint256"
        }
      ],
      "stateMutability": "view",
      "type": "function"
    },
    {
      "inputs": [],
      "name": "SET_DAILY_RATE_PERMISSION",
      "outputs": [
        {
          "internalType": "bytes32",
          "name": "",
          "type": "bytes32"
        }
      ],
      "stateMutability": "view",
      "type": "function"
    },
    {
      "inputs": [],
      "name": "SET_EARLY_WITHDRAWAL_PENALTY_PERMISSION",
      "outputs": [
        {
          "internalType": "bytes32",
          "name": "",
          "type": "bytes32"
        }
      ],
      "stateMutability": "view",
      "type": "function"
    },
    {
      "inputs": [],
      "name": "SET_FEE_PARAMETERS_PERMISSION",
      "outputs": [
        {
          "internalType": "bytes32",
          "name": "",
          "type": "bytes32"
        }
      ],
      "stateMutability": "view",
      "type": "function"
    },
    {
      "inputs": [],
      "name": "SET_INTEREST_TIER_PERMISSION",
      "outputs": [
        {
          "internalType": "bytes32",
          "name": "",
          "type": "bytes32"
        }
      ],
      "stateMutability": "view",
      "type": "function"
    },
    {
      "inputs": [],
      "name": "SET_RESERVE_ADDRESS_PERMISSION",
      "outputs": [
        {
          "internalType": "bytes32",
          "name": "",
          "type": "bytes32"
        }
      ],
      "stateMutability": "view",
      "type": "function"
    },
    {
      "inputs": [],
      "name": "WITHDRAWAL_COOLDOWN",
      "outputs": [
        {
          "internalType": "uint256",
          "name": "",
          "type": "uint256"
        }
      ],
      "stateMutability": "view",
      "type": "function"
    },
    {
      "inputs": [
        {
          "internalType": "address",
          "name": "lender",
          "type": "address"
        }
      ],
      "name": "baseLenderAPR",
      "outputs": [
        {
          "internalType": "uint256",
          "name": "",
          "type": "uint256"
        }
      ],
      "stateMutability": "view",
      "type": "function"
    },
    {
      "inputs": [
        {
          "internalType": "address",
          "name": "lender",
          "type": "address"
        }
      ],
      "name": "calculateInterest",
      "outputs": [
        {
          "internalType": "uint256",
          "name": "interest",
          "type": "uint256"
        }
      ],
      "stateMutability": "view",
      "type": "function"
    },
    {
      "inputs": [
        {
          "internalType": "uint256",
          "name": "amount",
          "type": "uint256"
        },
        {
          "internalType": "uint256",
          "name": "numDays",
          "type": "uint256"
        }
      ],
      "name": "calculatePotentialInterest",
      "outputs": [
        {
          "internalType": "uint256",
          "name": "",
          "type": "uint256"
        }
      ],
      "stateMutability": "view",
      "type": "function"
    },
    {
      "inputs": [
        {
          "internalType": "address",
          "name": "governor",
          "type": "address"
        },
        {
          "internalType": "address",
          "name": "user",
          "type": "address"
        },
        {
          "internalType": "address",
          "name": "asset",
          "type": "address"
        },
        {
          "internalType": "uint256",
          "name": "amount",
          "type": "uint256"
        },
        {
          "internalType": "enum ProtocolGovernor.ActionType",
          "name": "action",
          "type": "uint8"
        }
      ],
      "name": "callGrantTokens",
      "outputs": [],
      "stateMutability": "nonpayable",
      "type": "function"
    },
    {
      "inputs": [
        {
          "internalType": "address",
          "name": "lender",
          "type": "address"
        }
      ],
      "name": "canCompleteWithdrawal",
      "outputs": [
        {
          "internalType": "bool",
          "name": "",
          "type": "bool"
        }
      ],
      "stateMutability": "view",
      "type": "function"
    },
    {
      "inputs": [],
      "name": "cancelPrincipalWithdrawal",
      "outputs": [],
      "stateMutability": "nonpayable",
      "type": "function"
    },
    {
      "inputs": [],
      "name": "claimInterest",
      "outputs": [],
      "stateMutability": "nonpayable",
      "type": "function"
    },
    {
      "inputs": [
        {
          "internalType": "address",
          "name": "user",
          "type": "address"
        },
        {
          "internalType": "uint256",
          "name": "amount",
          "type": "uint256"
        },
        {
          "internalType": "uint256",
          "name": "tier",
          "type": "uint256"
        },
        {
          "internalType": "uint256",
          "name": "fee",
          "type": "uint256"
        }
      ],
      "name": "collectLateFee",
      "outputs": [],
      "stateMutability": "payable",
      "type": "function"
    },
    {
      "inputs": [
        {
          "internalType": "address",
          "name": "user",
          "type": "address"
        },
        {
          "internalType": "uint256",
          "name": "amount",
          "type": "uint256"
        },
        {
          "internalType": "uint256",
          "name": "tier",
          "type": "uint256"
        },
        {
          "internalType": "uint256",
          "name": "fee",
          "type": "uint256"
        }
      ],
      "name": "collectOriginationFee",
      "outputs": [],
      "stateMutability": "payable",
      "type": "function"
    },
    {
      "inputs": [],
      "name": "completeWithdrawal",
      "outputs": [],
      "stateMutability": "nonpayable",
      "type": "function"
    },
    {
      "inputs": [],
      "name": "currentDailyRate",
      "outputs": [
        {
          "internalType": "uint256",
          "name": "",
          "type": "uint256"
        }
      ],
      "stateMutability": "view",
      "type": "function"
    },
    {
      "inputs": [
        {
          "internalType": "uint256",
          "name": "",
          "type": "uint256"
        }
      ],
      "name": "dailyInterestRate",
      "outputs": [
        {
          "internalType": "uint256",
          "name": "",
          "type": "uint256"
        }
      ],
      "stateMutability": "view",
      "type": "function"
    },
    {
      "inputs": [],
      "name": "depositFunds",
      "outputs": [],
      "stateMutability": "payable",
      "type": "function"
    },
    {
      "inputs": [
        {
          "internalType": "address",
          "name": "pool",
          "type": "address"
        },
        {
          "internalType": "address",
          "name": "user",
          "type": "address"
        }
      ],
      "name": "executeLiquidation",
      "outputs": [],
      "stateMutability": "nonpayable",
      "type": "function"
    },
    {
      "inputs": [
        {
          "internalType": "address",
          "name": "pool",
          "type": "address"
        },
        {
          "internalType": "address",
          "name": "user",
          "type": "address"
        },
        {
          "internalType": "address",
          "name": "collateralToken",
          "type": "address"
        }
      ],
      "name": "executePartialLiquidation",
      "outputs": [],
      "stateMutability": "nonpayable",
      "type": "function"
    },
    {
      "inputs": [
        {
          "internalType": "address",
          "name": "lender",
          "type": "address"
        }
      ],
      "name": "getAvailableInterest",
      "outputs": [
        {
          "internalType": "uint256",
          "name": "",
          "type": "uint256"
        }
      ],
      "stateMutability": "view",
      "type": "function"
    },
    {
      "inputs": [
        {
          "internalType": "uint256",
          "name": "tier",
          "type": "uint256"
        }
      ],
      "name": "getBorrowerRate",
      "outputs": [
        {
          "internalType": "uint256",
          "name": "",
          "type": "uint256"
        }
      ],
      "stateMutability": "view",
      "type": "function"
    },
    {
      "inputs": [],
      "name": "getDynamicSupplyRate",
      "outputs": [
        {
          "internalType": "uint256",
          "name": "",
          "type": "uint256"
        }
      ],
      "stateMutability": "view",
      "type": "function"
    },
    {
      "inputs": [
        {
          "internalType": "uint256",
          "name": "amount",
          "type": "uint256"
        }
      ],
      "name": "getInterestRate",
      "outputs": [
        {
          "internalType": "uint256",
          "name": "",
          "type": "uint256"
        }
      ],
      "stateMutability": "view",
      "type": "function"
    },
    {
      "inputs": [
        {
          "internalType": "uint256",
          "name": "index",
          "type": "uint256"
        }
      ],
      "name": "getInterestTier",
      "outputs": [
        {
          "internalType": "uint256",
          "name": "minAmount",
          "type": "uint256"
        },
        {
          "internalType": "uint256",
          "name": "rate",
          "type": "uint256"
        }
      ],
      "stateMutability": "view",
      "type": "function"
    },
    {
      "inputs": [],
      "name": "getInterestTierCount",
      "outputs": [
        {
          "internalType": "uint256",
          "name": "",
          "type": "uint256"
        }
      ],
      "stateMutability": "view",
      "type": "function"
    },
    {
      "inputs": [
        {
          "internalType": "address",
          "name": "lender",
          "type": "address"
        }
      ],
      "name": "getLenderInfo",
      "outputs": [
        {
          "internalType": "uint256",
          "name": "balance",
          "type": "uint256"
        },
        {
          "internalType": "uint256",
          "name": "pendingInterest",
          "type": "uint256"
        },
        {
          "internalType": "uint256",
          "name": "earnedInterest",
          "type": "uint256"
        },
        {
          "internalType": "uint256",
          "name": "nextInterestUpdate",
          "type": "uint256"
        },
        {
          "internalType": "uint256",
          "name": "penaltyFreeWithdrawalTime",
          "type": "uint256"
        },
        {
          "internalType": "uint256",
          "name": "lastDistributionTime",
          "type": "uint256"
        }
      ],
      "stateMutability": "view",
      "type": "function"
    },
    {
      "inputs": [],
      "name": "getLenderRate",
      "outputs": [
        {
          "internalType": "uint256",
          "name": "",
          "type": "uint256"
        }
      ],
      "stateMutability": "view",
      "type": "function"
    },
    {
      "inputs": [
        {
          "internalType": "address",
          "name": "lender",
          "type": "address"
        }
      ],
      "name": "getLenderReport",
      "outputs": [
        {
          "components": [
            {
              "internalType": "uint256",
              "name": "balance",
              "type": "uint256"
            },
            {
              "internalType": "uint256",
              "name": "depositTimestamp",
              "type": "uint256"
            },
            {
              "internalType": "uint256",
              "name": "lastInterestUpdate",
              "type": "uint256"
            },
            {
              "internalType": "uint256",
              "name": "interestIndex",
              "type": "uint256"
            },
            {
              "internalType": "uint256",
              "name": "earnedInterest",
              "type": "uint256"
            },
            {
              "internalType": "uint256",
              "name": "pendingPrincipalWithdrawal",
              "type": "uint256"
            },
            {
              "internalType": "uint256",
              "name": "withdrawalRequestTime",
              "type": "uint256"
            },
            {
              "internalType": "uint256",
              "name": "lastInterestDistribution",
              "type": "uint256"
            },
            {
              "internalType": "uint256",
              "name": "lastWithdrawalTime",
              "type": "uint256"
            }
          ],
          "internalType": "struct LendingManager.LenderInfo",
          "name": "",
          "type": "tuple"
        }
      ],
      "stateMutability": "view",
      "type": "function"
    },
    {
      "inputs": [
        {
          "internalType": "address",
          "name": "lender",
          "type": "address"
        }
      ],
      "name": "getRealTimeReturnRate",
      "outputs": [
        {
          "internalType": "uint256",
          "name": "",
          "type": "uint256"
        }
      ],
      "stateMutability": "view",
      "type": "function"
    },
    {
      "inputs": [
        {
          "internalType": "address",
          "name": "lender",
          "type": "address"
        }
      ],
      "name": "getWithdrawalStatus",
      "outputs": [
        {
          "internalType": "uint256",
          "name": "availableAt",
          "type": "uint256"
        },
        {
          "internalType": "uint256",
          "name": "penaltyIfWithdrawnNow",
          "type": "uint256"
        },
        {
          "internalType": "bool",
          "name": "isAvailableWithoutPenalty",
          "type": "bool"
        },
        {
          "internalType": "uint256",
          "name": "nextInterestDistribution",
          "type": "uint256"
        },
        {
          "internalType": "uint256",
          "name": "availableInterest",
          "type": "uint256"
        }
      ],
      "stateMutability": "view",
      "type": "function"
    },
    {
      "inputs": [
        {
          "internalType": "uint256",
          "name": "",
          "type": "uint256"
        }
      ],
      "name": "interestTiers",
      "outputs": [
        {
          "internalType": "uint256",
          "name": "minAmount",
          "type": "uint256"
        },
        {
          "internalType": "uint256",
          "name": "rate",
          "type": "uint256"
        }
      ],
      "stateMutability": "view",
      "type": "function"
    },
    {
      "inputs": [
        {
          "internalType": "address",
          "name": "pool",
          "type": "address"
        },
        {
          "internalType": "address",
          "name": "user",
          "type": "address"
        }
      ],
      "name": "isUndercollateralized",
      "outputs": [
        {
          "internalType": "bool",
          "name": "",
          "type": "bool"
        }
      ],
      "stateMutability": "view",
      "type": "function"
    },
    {
      "inputs": [],
      "name": "lastRateUpdateDay",
      "outputs": [
        {
          "internalType": "uint256",
          "name": "",
          "type": "uint256"
        }
      ],
      "stateMutability": "view",
      "type": "function"
    },
    {
      "inputs": [],
      "name": "lateFee",
      "outputs": [
        {
          "internalType": "uint256",
          "name": "",
          "type": "uint256"
        }
      ],
      "stateMutability": "view",
      "type": "function"
    },
    {
      "inputs": [
        {
          "internalType": "address",
          "name": "",
          "type": "address"
        }
      ],
      "name": "lenders",
      "outputs": [
        {
          "internalType": "uint256",
          "name": "balance",
          "type": "uint256"
        },
        {
          "internalType": "uint256",
          "name": "depositTimestamp",
          "type": "uint256"
        },
        {
          "internalType": "uint256",
          "name": "lastInterestUpdate",
          "type": "uint256"
        },
        {
          "internalType": "uint256",
          "name": "interestIndex",
          "type": "uint256"
        },
        {
          "internalType": "uint256",
          "name": "earnedInterest",
          "type": "uint256"
        },
        {
          "internalType": "uint256",
          "name": "pendingPrincipalWithdrawal",
          "type": "uint256"
        },
        {
          "internalType": "uint256",
          "name": "withdrawalRequestTime",
          "type": "uint256"
        },
        {
          "internalType": "uint256",
          "name": "lastInterestDistribution",
          "type": "uint256"
        },
        {
          "internalType": "uint256",
          "name": "lastWithdrawalTime",
          "type": "uint256"
        }
      ],
      "stateMutability": "view",
      "type": "function"
    },
    {
      "inputs": [],
      "name": "liquidityPool",
      "outputs": [
        {
          "internalType": "address",
          "name": "",
          "type": "address"
        }
      ],
      "stateMutability": "view",
      "type": "function"
    },
    {
      "inputs": [],
      "name": "originationFee",
      "outputs": [
        {
          "internalType": "uint256",
          "name": "",
          "type": "uint256"
        }
      ],
      "stateMutability": "view",
      "type": "function"
    },
    {
      "inputs": [
        {
          "internalType": "uint256",
          "name": "amount",
          "type": "uint256"
        }
      ],
      "name": "requestWithdrawal",
      "outputs": [],
      "stateMutability": "nonpayable",
      "type": "function"
    },
    {
      "inputs": [],
      "name": "reserveAddress",
      "outputs": [
        {
          "internalType": "address",
          "name": "",
          "type": "address"
        }
      ],
      "stateMutability": "view",
      "type": "function"
    },
    {
      "inputs": [
        {
          "internalType": "uint256",
          "name": "newRate",
          "type": "uint256"
        }
      ],
      "name": "setCurrentDailyRate",
      "outputs": [],
      "stateMutability": "nonpayable",
      "type": "function"
    },
    {
      "inputs": [
        {
          "internalType": "uint256",
          "name": "newPenalty",
          "type": "uint256"
        }
      ],
      "name": "setEarlyWithdrawalPenalty",
      "outputs": [],
      "stateMutability": "nonpayable",
      "type": "function"
    },
    {
      "inputs": [
        {
          "internalType": "uint256",
          "name": "_originationFee",
          "type": "uint256"
        },
        {
          "internalType": "uint256",
          "name": "_lateFee",
          "type": "uint256"
        }
      ],
      "name": "setFeeParameters",
      "outputs": [],
      "stateMutability": "nonpayable",
      "type": "function"
    },
    {
      "inputs": [
        {
          "internalType": "uint256",
          "name": "index",
          "type": "uint256"
        },
        {
          "internalType": "uint256",
          "name": "minAmount",
          "type": "uint256"
        },
        {
          "internalType": "uint256",
          "name": "rate",
          "type": "uint256"
        }
      ],
      "name": "setInterestTier",
      "outputs": [],
      "stateMutability": "nonpayable",
      "type": "function"
    },
    {
      "inputs": [
        {
          "internalType": "address",
          "name": "_reserve",
          "type": "address"
        }
      ],
      "name": "setReserveAddress",
      "outputs": [],
      "stateMutability": "nonpayable",
      "type": "function"
    },
    {
      "inputs": [
        {
          "internalType": "address",
          "name": "_votingToken",
          "type": "address"
        }
      ],
      "name": "setVotingToken",
      "outputs": [],
      "stateMutability": "nonpayable",
      "type": "function"
    },
    {
      "inputs": [],
      "name": "timelock",
      "outputs": [
        {
          "internalType": "address",
          "name": "",
          "type": "address"
        }
      ],
      "stateMutability": "view",
      "type": "function"
    },
    {
      "inputs": [],
      "name": "totalLent",
      "outputs": [
        {
          "internalType": "uint256",
          "name": "",
          "type": "uint256"
        }
      ],
      "stateMutability": "view",
      "type": "function"
    },
    {
      "inputs": [],
      "name": "votingToken",
      "outputs": [
        {
          "internalType": "contract IVotingToken",
          "name": "",
          "type": "address"
        }
      ],
      "stateMutability": "view",
      "type": "function"
    },
    {
      "stateMutability": "payable",
      "type": "receive"
    }
  ],
  "bytecode": "0x6080806040523461022d5760408161774a803803809161001f8285610260565b83398101031261022d5761003e602061003783610283565b9201610283565b9061005d604080516721fc04693ee73e21602082015260208152610260565b61007b604080516727ce6a533e46e7d4602082015260208152610260565b60018060a01b031660018060a01b031960085416176008556100b16040805167424d0c7e6a33e580602082015260208152610260565b60018060a01b031660018060a01b0319600a541617600a556100e760408051673cae434ccbea1ccc602082015260208152610260565b600560075561010a6040805167d45c33196d22468e602082015260208152610260565b670de12d4cc511c0006002556101346040805167de576691a8cde145602082015260208152610260565b62015180420460035561015b6040805167d5a33f6b69dfbd69602082015260208152610260565b61018860405161016a81610231565b678ac7230489e800008152670de13f20401b60006020820152610297565b6101a6604080516758a4e5106ebe5f1c602082015260208152610260565b6101d36040516101b581610231565b674563918244f400008152670de13607f1a8c0006020820152610297565b6101f160408051674c7f69cc675d993e602082015260208152610260565b61021e60405161020081610231565b670de0b6b3a76400008152670de12d4cc511c0006020820152610297565b60405161745f90816102eb8239f35b5f80fd5b604081019081106001600160401b0382111761024c57604052565b634e487b7160e01b5f52604160045260245ffd5b601f909101601f19168101906001600160401b0382119082101761024c57604052565b51906001600160a01b038216820361022d57565b6005546801000000000000000081101561024c5760018101806005558110156102d657602060019160055f52815f2090831b0192805184550151910155565b634e487b7160e01b5f52603260045260245ffdfe608080604052600436101561001c575b50361561001a575f80fd5b005b5f5f3560e01c9182630711568714615375575081630c196a741461531b57816314673d31146150d75781631876b41514614f405781631a3f61cd14614d725781631ea30fef14614d5157816321bf898514614d1457816328fd10d714614c855781632cf5889314614c5957816332aa9b6814614c36578163334bbd4d14614ade57816333ec339e1461482b57816335981fd81461448057816338e3ea11146143975781633f4de62f1461437a578163480d1aee146141525781634c34a9821461412f5781634d56022f14613ee057816352ace30914613e80578163537dd93a14613d4057816355e87dbc14613d06578163665a11ca14613cde5781636a7ebf4a14613cc45781636d7c218b14613ca75781637491687e146137e257816374f0314f1461027c57816382ee21fc146137c55781638a2e98f3146135ee57816394e95da3146135d1578163962a0da5146135975781639ee679e8146131fd578163a6727ce714613110578163a74f0998146130d6578163a8d9e5ba1461309c578163ab19f09514612c5b578163ade2854d14612c02578163b034012314612bda578163b8bb5c4214612bbd578163b918ee2514612ba0578163bcebb1d7146122a8578163c0798fe414611e1b578163cca4391614611c4a578163d01cd45614611216578163d33219b4146111ee578163d7047310146111c1578163e03ff7cb14610d33578163e11932cf14610d10578163e2c41dbc14610691578163e2d7462814610526578163e50649d1146102f7578163f6e180f5146102d5578163f79ed94b146102ad578163fccf6a1e14610281575063feedab001461027c575f61000f565b615463565b346102aa5760203660031901126102aa5760406020916004358152600483522054604051908152f35b80fd5b346102aa57806003193601126102aa576009546040516001600160a01b039091168152602090f35b346102aa57806003193601126102aa5760206102ef616517565b604051908152f35b61030036615435565b9291506103216040805167804095d86c49089d6020820152602081526154b9565b61033f6040805167566b14ba90326fe06020820152602081526154b9565b61035d6040805167ee7a1a0d7b6848006020820152602081526154b9565b61037260018060a01b03600854163314615acc565b61039060408051671a092adc23ea745d6020820152602081526154b9565b6103ae60408051677b969becb15d0e406020820152602081526154b9565b838315806105005781808681936103d9604080516743da484f3b71b7aa6020820152602081526154b9565b6103f76040805167fd1560738d1363956020820152602081526154b9565b6104156040805167ce7422d68a7604156020820152602081526154b9565b61042182341015615b04565b61043f604080516721d89e8d4071566b6020820152602081526154b9565b61045d60408051673ed56f0eae8d4eda6020820152602081526154b9565b6009546001600160a01b03169083906104f7575bf1156104ec577f66aecc579aa1ef463c0ed1547c2cb6163370e6311a60cba815252acbb398f2139160a0916104ba6040805167ae123dcf3b27d02d6020820152602081526154b9565b6040519485526060602086015260046060860152636c61746560e01b60808601526040850152600180831b031692a280f35b6040513d85823e3d90fd5b506108fc610471565b50505050506105236040805167210aa22ca35f5b666020820152602081526154b9565b80f35b346102aa5760203660031901126102aa5761053f6153ad565b61055d6040805167a6542766f0855e876020820152602081526154b9565b61057b6040805167015837eebc1a18376020820152602081526154b9565b610599604080516773fdeefcf78509036020820152602081526154b9565b600a546001600160a01b031633146105d8576004826105cc604080516793502700f5a3664d6020820152602081526154b9565b6359f8b11760e11b8152fd5b6105f6604080516715cff846f6c5d7b86020820152602081526154b9565b61061460408051675f1e73e5e2d096eb6020820152602081526154b9565b610632604080516775e5c8ac25785dff6020820152602081526154b9565b6106506040805167bb0f50dd207adaa56020820152602081526154b9565b61066e60408051678f57cf16a68de7d56020820152602081526154b9565b60018060a01b03166bffffffffffffffffffffffff60a01b600654161760065580f35b806003193601126102aa576106ba60408051673f371bb93ed6c2b46020820152602081526154b9565b6106d8604080516773853eb39e5b46266020820152602081526154b9565b6106f66040805167c6a7cf52735503cc6020820152602081526154b9565b600854604051633af7305960e21b815233600482015290602090829060249082906001600160a01b03165afa908115610b6e578291610cd2575b5015610c8d576107546040805167ae7eceaabdf965536020820152602081526154b9565b61077260408051672a8a999060d4ffaa6020820152602081526154b9565b6107906040805167d82d6940ed8a245a6020820152602081526154b9565b662386f26fc100003410610c56576107bc6040805167991d29a20ac56e146020820152602081526154b9565b6107da60408051678f9ef7e2cff6f19c6020820152602081526154b9565b6107f860408051674db32ac68619fbf46020820152602081526154b9565b3381528060205268056bc75e2d63100000610817604083205434615fe1565b11610c065761083a6040805167122fa0fd85bc161b6020820152602081526154b9565b610858604080516711e78f95e10b2a196020820152602081526154b9565b33815280602052604081206108816040805167d06dc169c9ea108a6020820152602081526154b9565b600381018054610be257670de0b6b3a7640000906108b360408051670114cd5b69e80e496020820152602081526154b9565b6108d160408051674e0e74708c10293e6020820152602081526154b9565b556108f0604080516780985853be8339e46020820152602081526154b9565b42600182015561091460408051674e5c822a5328e08f6020820152602081526154b9565b4260028201555b6109396040805167537486432bb576216020820152602081526154b9565b61094233616c49565b61096060408051672d02f4e0b5accaa16020820152602081526154b9565b61096b348254615fe1565b905561098b6040805167f03120ac34f8a9a66020820152602081526154b9565b61099734600154615fe1565b6001556109b860408051675eb41a8b6f5b72aa6020820152602081526154b9565b808080803460018060a01b03600854165af16109d2615a2d565b506109f160408051673d6b241f40408e1c6020820152602081526154b9565b610a0f6040805167b9a68a8a21a1d6596020820152602081526154b9565b15610bac57610a3260408051677bab0ce07f3aa9c16020820152602081526154b9565b610a5060408051676a3046bec50a641d6020820152602081526154b9565b80662386f26fc100003404610a7960408051677db79d097029c5a16020820152602081526154b9565b6006546001600160a01b031680151580610ba3575b15610b7d57610ab16040805167f7e39cf270321fbb6020820152602081526154b9565b610acf604080516750c94d13c18c447a6020820152602081526154b9565b803b15610b79576040516340c10f1960e01b8152336004820152602481019290925282908290604490829084905af18015610b6e57610b59575b50505b610b2a604080516719346c12fa9925c46020820152602081526154b9565b6040513481527f543ba50a5eec5e6178218e364b1d0f396157b3c8fa278522c2cb7fd99407d47460203392a280f35b81610b63916154b9565b6102aa578082610b09565b6040513d84823e3d90fd5b5050fd5b505050610b9e6040805167ddda752419b6e4696020820152602081526154b9565b610b0c565b50811515610a8e565b60405162461bcd60e51b815260206004820152600e60248201526d11195c1bdcda5d0819985a5b195960921b6044820152606490fd5b50610c016040805167461dd29b9026e6e66020820152602081526154b9565b61091b565b60405162461bcd60e51b815260206004820152602260248201527f4465706f73697420776f756c6420657863656564206d6178696d756d206c696d6044820152611a5d60f21b6064820152608490fd5b60405162461bcd60e51b815260206004820152600f60248201526e4465706f73697420746f6f206c6f7760881b6044820152606490fd5b60405162461bcd60e51b815260206004820152601d60248201527f4372656469742073636f726520726571756972656420746f206c656e640000006044820152606490fd5b90506020813d602011610d08575b81610ced602093836154b9565b81010312610d0457610cfe9061556d565b82610730565b5080fd5b3d9150610ce0565b346102aa5760203660031901126102aa5760206102ef610d2e6153ad565b61618c565b346102aa57806003193601126102aa57610d61604080516755abc1de04af3c156020820152602081526154b9565b610d7f60408051679fb5b86ba8b60e996020820152602081526154b9565b3381528060205260408120610da860408051673493088d2f3b4a6a6020820152602081526154b9565b600581018054610e2b57610dd060408051672d6e0bc52824e7f26020820152602081526154b9565b610dee6040805167f9e3fd695f9a05116020820152602081526154b9565b60405162461bcd60e51b8152602060048201526015602482015274139bc81c195b991a5b99c81dda5d1a191c985dd85b605a1b6044820152606490fd5b610e496040805167c9618e67e711a4656020820152602081526154b9565b610e676040805167269a308ac4e56c476020820152602081526154b9565b610e7033616c49565b610e8e6040805167ac4663d1b873b43a6020820152602081526154b9565b805490610eaf6040805167a1504ad587a99cc66020820152602081526154b9565b83610ece6040805167e6689a93d8a6d36f6020820152602081526154b9565b60018401546201518081018091116111ad57859291904210156111885750610f0a6040805167f18e2a6aad89f4ed6020820152602081526154b9565b610f286040805167e220fcb1ff31a4f86020820152602081526154b9565b610f5f6064610f39600754866154db565b048094610f5a60408051672b1e7d2d480b79d96020820152602081526154b9565b615520565b93610f7e6040805167538e3450fb383ea16020820152602081526154b9565b6040518481527fb6a45448c8250adf8d836e047d46f96410d632c7089720e3aed88fcb76644ded60203392a25b610fc960408051674e9e9d29b04f09526020820152602081526154b9565b610fdd610fd68587615fe1565b8254615520565b9055610ffd60408051671046af29114697756020820152602081526154b9565b61101261100a8486615fe1565b600154615520565b60015561103360408051674e6a6078143cd29f6020820152602081526154b9565b5561105260408051670d52fdbcd638b66a6020820152602081526154b9565b6110d8838060018060a01b036008541660405182602082019163e19fb8f560e01b83528860248201526024815261108a6044826154b9565b51925af1611096615a2d565b506110b56040805167d7691947a699fecb6020820152602081526154b9565b6110d36040805167dac84d569f782b346020820152602081526154b9565b615a6c565b6110f6604080516781a4d411861abbe86020820152602081526154b9565b6111146040805167bcf373f54d1a2d6f6020820152602081526154b9565b828083801561117e575b8280929181923390f115610b6e5761114a6040805167df40cdb7e5aef09f6020820152602081526154b9565b60405191825260208201527ffbc3a599b784fe88772fc5abcc07223f64ca0b13acc341f4fb1e46bef0510eb460403392a280f35b6108fc915061111e565b92936111a86040805167f8d1180e1a4f6cdb6020820152602081526154b9565b610fab565b634e487b7160e01b86526011600452602486fd5b346102aa5760203660031901126102aa5760206111e46111df6153ad565b616046565b6040519015158152f35b346102aa57806003193601126102aa57600a546040516001600160a01b039091168152602090f35b346102aa5760603660031901126102aa5761122f6153ad565b6112376153c3565b61123f6153d9565b9161125e6040805167d808cae40f1e299f6020820152602081526154b9565b61127c60408051675603f4e9dcd6f3f76020820152602081526154b9565b61129a60408051673b42541715744f026020820152602081526154b9565b6112a4828261557a565b15611c12576112c7604080516717c315d83b058cac6020820152602081526154b9565b6112e56040805167eeafe3703aa5dd376020820152602081526154b9565b61130360408051675fe9a6be08e64f296020820152602081526154b9565b6040516339a37a4360e11b81526001600160a01b0384811660048301819052949216929190602081602481875afa908115611c07578691611bc9575b5015611b8f5761136360408051673d0740888ecf00d76020820152602081526154b9565b6113816040805167238585bac0b0b38b6020820152602081526154b9565b60405163b69e5c7760e01b81526001600160a01b0383166004820181905292909190602083602481885afa928315611b84578793611b50575b506113d960408051676cf548f16f3763b46020820152602081526154b9565b6040516378e2eb6160e11b815260048101879052602081602481895afa908115611b45578891611b13575b5061142360408051672d8800d67e1e5d5e6020820152602081526154b9565b6040516356512fcd60e11b815260048101889052906020826024818a5afa91821561195c578992611adf575b5061146e60408051673bfad27b887657536020820152602081526154b9565b61148c6040805167c76b6f10bf5ff8e36020820152602081526154b9565b8115611aac576114b060408051677e009d091767bb5d6020820152602081526154b9565b6114cd604080516608ad40895f70f76020820152602081526154b9565b6114eb6040805167faf49bc2bab07ddd6020820152602081526154b9565b8015611a675761150f6040805167d7bf950e9f1471576020820152602081526154b9565b61152d604080516759771c56522777346020820152602081526154b9565b604051630ef7fb6760e01b81526020816004818b5afa908115611a5c578a91611a2a575b5061157060408051677761807d47b442f56020820152602081526154b9565b60640180606411611a165761158590866154db565b91670de0b6b3a7640000830292808404670de0b6b3a76400001490151715611a1657906115cf916115ca60408051675750238e821b35c16020820152602081526154b9565b6154db565b6115ed60408051679b3652989da776bb6020820152602081526154b9565b61160b604080516720b1ae4585c460df6020820152602081526154b9565b80156119c157611656916116336040805167c223f095c1efcbc36020820152602081526154b9565b6116516040805167328d6ed0d7b493586020820152602081526154b9565b615502565b6116746040805167ef74ff5d534166bc6020820152602081526154b9565b60405163e7602b9d60e01b81526001600160a01b03848116600483015283166024820152906020826044818a5afa91821561195c57899261198d575b506116cf60408051670f6ef3c096362e3f6020820152602081526154b9565b8181111561196757506116f660408051676436e404d33b6f796020820152602081526154b9565b945b6117166040805167729cd6c5107e92e26020820152602081526154b9565b6117346040805167aa038678d90f6aac6020820152602081526154b9565b60405163200a4deb60e21b8152602081600481855afa90811561195c578991611926575b5086106118e957879261177f6040805167cc344580324a2d4c6020820152602081526154b9565b61179d604080516722e952a1d9da00e96020820152602081526154b9565b813b156118e5576040516001622b512560e01b031981526001600160a01b039182166004820152908316602482015233604482015260648101879052838160848183865af19081156118da5784916118c5575b50506118106040805167cce5b5304c61ae9c6020820152602081526154b9565b803b156118c1576040516378974cbb60e01b81526001600160a01b039290921660048301526024820184905282908290604490829084905af18015610b6e576118a8575b50506118746040805167088efed735ad8fbf6020820152602081526154b9565b60405192835260208301527f61a26dafe158573397cb85ec41fab65aa51d01855779276c8eb8c6915f7c577e60403393a480f35b816118b2916154b9565b6118bd578486611854565b8480fd5b8280fd5b816118cf916154b9565b6118c15782896117f0565b6040513d86823e3d90fd5b8380fd5b60405162461bcd60e51b81526020600482015260156024820152742132b637bb9036b4b7103634b8bab4b230ba34b7b760591b6044820152606490fd5b90506020813d602011611954575b81611941602093836154b9565b81010312611950575189611758565b5f80fd5b3d9150611934565b6040513d8b823e3d90fd5b9590506119886040805167127a9354396bfe0c6020820152602081526154b9565b6116f8565b9091506020813d6020116119b9575b816119a9602093836154b9565b81010312611950575190896116b0565b3d915061199c565b60405162461bcd60e51b815260206004820152602760248201527f4469766973696f6e206279207a65726f20696e207061727469616c206c69717560448201526634b230ba34b7b760c91b6064820152608490fd5b634e487b7160e01b8a52601160045260248afd5b90506020813d602011611a54575b81611a45602093836154b9565b8101031261195057518a611551565b3d9150611a38565b6040513d8c823e3d90fd5b60405162461bcd60e51b815260206004820152601860248201527f436f6c6c61746572616c207072696365206973207a65726f00000000000000006044820152606490fd5b60405162461bcd60e51b815260206004820152600b60248201526a131515881b9bdd081cd95d60aa1b6044820152606490fd5b9091506020813d602011611b0b575b81611afb602093836154b9565b810103126119505751908961144f565b3d9150611aee565b90506020813d602011611b3d575b81611b2e602093836154b9565b81010312611950575188611404565b3d9150611b21565b6040513d8a823e3d90fd5b9092506020813d602011611b7c575b81611b6c602093836154b9565b81010312611950575191876113ba565b3d9150611b5f565b6040513d89823e3d90fd5b60405162461bcd60e51b8152602060048201526012602482015271125b9d985b1a590818dbdb1b185d195c985b60721b6044820152606490fd5b90506020813d602011611bff575b81611be4602093836154b9565b81010312611bfb57611bf59061556d565b8661133f565b8580fd5b3d9150611bd7565b6040513d88823e3d90fd5b60405162461bcd60e51b815260206004820152601060248201526f506f736974696f6e206865616c74687960801b6044820152606490fd5b346102aa57806003193601126102aa57611c786040805167393e8b86aae203d76020820152602081526154b9565b611c9660408051677927b23adb9a73586020820152602081526154b9565b3381528060205260408120611cbf6040805167336e1aad88d42b7b6020820152602081526154b9565b600581018054919082611d4d57611cea604080516782137eb20472e0126020820152602081526154b9565b611d08604080516729fbc3de036558426020820152602081526154b9565b60405162461bcd60e51b815260206004820152601f60248201527f4e6f2070656e64696e67207769746864726177616c20746f2063616e63656c006044820152606490fd5b839182600692611d7160408051671d7e2155e18b9dcb6020820152602081526154b9565b611d8f6040805167981071e7390752fa6020820152602081526154b9565b611dad604080516781bb4b58236b409e6020820152602081526154b9565b55611dcc604080516758e2d7bb814414d86020820152602081526154b9565b0155611dec6040805167d5e20a1c6be803f76020820152602081526154b9565b6040519081527f2eed97477f07c07ec48f8f678f4e84f7c0de55bf33f51c3dc989b1335308031960203392a280f35b346102aa5760203660031901126102aa57611e4a60408051671cd6a85a1f84afea6020820152602081526154b9565b611e6860408051672e12e5c4d32edf576020820152602081526154b9565b611e86604080516752cdea377c1b1ef86020820152602081526154b9565b6008546001600160a01b0316611e9d811515615fee565b611ebb604080516720a7e25f9afd06cb6020820152602081526154b9565b611ed96040805167a6447518366f6db76020820152602081526154b9565b604051624b476b60e91b8152602081600481855afa9081156104ec578391612276575b50611f1b60408051679a2142dd6c94d4db6020820152602081526154b9565b60405163b8cdf56160e01b8152602081600481865afa9081156118da578491612244575b50604051635e1ead1f60e11b815290602082600481875afa908115612239578591612203575b611f6f9250615520565b611f8d6040805167ddd5f1843f18daed6020820152602081526154b9565b81158015906121db575b806121b2575b156121a957670de0b6b3a7640000810290808204670de0b6b3a764000014901517156121955790611fcd91615502565b905b611fed6040805167056b772eea8f91826020820152602081526154b9565b6040516379fed8ad60e11b815291602083600481855afa9283156118da578493612157575b506020906120326040805167f5066b3932b5e7bd858201528481526154b9565b604051634fd41dad60e11b8152600481019190915292839060249082906001600160a01b03165afa9182156104ec578392612122575b50602060049161208a6040805167e589d2cbcab2a8c4858201528481526154b9565b604051635467a5a960e11b815292839182905afa92831561211657926120e0575b6020670de0b6b3a76400006120d785856115ca6040805167206239b0c1e32e00888201528781526154b9565b04604051908152f35b91506020823d60201161210e575b816120fb602093836154b9565b81010312611950579051906120d76120ab565b3d91506120ee565b604051903d90823e3d90fd5b9091506020813d60201161214f575b8161213e602093836154b9565b810103126119505751906020612068565b3d9150612131565b9092506020813d60201161218d575b81612173602093836154b9565b810103126118e557612186602091615b50565b9290612012565b3d9150612166565b634e487b7160e01b84526011600452602484fd5b50508190611fcf565b506121d46040805167d04a7cdbcc92c74b60c01b6020820152602081526154b9565b6001611f9d565b506121fd60408051670c74fd0f3378aa6d60c41b6020820152602081526154b9565b83611f97565b90506020823d602011612231575b8161221e602093836154b9565b8101031261195057611f6f915190611f65565b3d9150612211565b6040513d87823e3d90fd5b90506020813d60201161226e575b8161225f602093836154b9565b81010312611950575184611f3f565b3d9150612252565b90506020813d6020116122a0575b81612291602093836154b9565b81010312611950575183611efc565b3d9150612284565b346102aa5760403660031901126102aa576122c16153ad565b906122ca6153c3565b916122e96040805167cc278828a10e212d6020820152602081526154b9565b612307604080516762a05a6db1b079ec6020820152602081526154b9565b61232560408051677e392b723033d88d6020820152602081526154b9565b60405163042e02cf60e01b81526001600160a01b038481166004830181905292169190602081602481865afa9081156118da578491612b66575b5015612b1657612383604080516752c3fb5645f0cca06020820152602081526154b9565b6123a160408051673630009b96ef28886020820152602081526154b9565b6123bf6040805167475939bff2b025656020820152602081526154b9565b60405163c23c69d560e01b815260048101829052602081602481865afa9081156118da578491612ae4575b506040516360d143f160e11b815290602082600481875afa908115612239578591612aae575b61241a9250615fe1565b4210612a705761243e6040805167f9a2a5ddbe2acb796020820152602081526154b9565b61245c6040805167082fcdd16e501ba16020820152602081526154b9565b60405163cf17622560e01b8152908382600481865afa9182156118da5784926129b2575b5061249f604080516724b2a33b899e47d66020820152602081526154b9565b835b82518110156125ce576124c860408051678befea5b37eb95976020820152602081526154b9565b6124e66040805167ad6f2e9a411ce9316020820152602081526154b9565b6001600160a01b036124f88285616032565b51604051637781200d60e11b815291166004820152602081602481885afa908115611c07578691612595575b50156125515760019061254b6040805167db7268b9a41da0c26020820152602081526154b9565b016124a1565b606460405162461bcd60e51b815260206004820152602060248201527f4f7261636c65206369726375697420627265616b6572207472696767657265646044820152fd5b90506020813d82116125c6575b816125af602093836154b9565b81010312611bfb576125c09061556d565b87612524565b3d91506125a2565b509184916125f0604080516759c846af022e40476020820152602081526154b9565b60405163b69e5c7760e01b81526004810185905293602085602481865afa948515611c0757869561297e575b5061263b60408051674b57c955c65523ed6020820152602081526154b9565b604051639b8621d560e01b8152602081600481875afa908115611b8457879161294b575b50606461266f61269492886154db565b0461268e60408051676bc019455b71b3446020820152602081526154b9565b86615fe1565b906126b360408051675a3e834807ea8f776020820152602081526154b9565b86805b845181101561287f576126dd6040805167013e35eaa2b893926020820152602081526154b9565b6001600160a01b036126ef8287616032565b511661270f6040805167ff5a0d113c5b04c46020820152602081526154b9565b60405163e7602b9d60e01b81526001600160a01b03828116600483015289166024820152906020826044818b5afa9182156118da578492612849575b5061276a60408051670d157881b6ad95636020820152602081526154b9565b81156128215761278e6040805167204eae3285c85c9d6020820152602081526154b9565b6127ac6040805167427e6df8a70a72626020820152602081526154b9565b873b156118e5576040516001622b512560e01b031981526001600160a01b039182166004820152908916602482015233604482015260648101919091528281608481838b5af19081156104ec57839161280c575b50506001905b016126b6565b81612816916154b9565b610d0457818a612800565b50506001906128446040805167769fd2e5cc6f51cb6020820152602081526154b9565b612806565b935090506020833d8211612877575b81612865602093836154b9565b8101031261195057899251908b61274b565b3d9150612858565b509392509390946128a46040805167cfc09958e515aa026020820152602081526154b9565b823b156118e5576040516378974cbb60e01b81526001600160a01b0392909216600483015260248201529082908290604490829084905af18015610b6e57612936575b50506129076040805167118e25e2adfa68e36020820152602081526154b9565b6040519182527f1175522017e08c2f400d7e516608eff60816ee9e8319158d174321234b60263160203393a380f35b81612940916154b9565b6118c15782846128e7565b90506020813d602011612976575b81612966602093836154b9565b810103126119505751606461265f565b3d9150612959565b9094506020813d6020116129aa575b8161299a602093836154b9565b810103126119505751938661261c565b3d915061298d565b9091503d8085833e6129c481836154b9565b8101906020818303126118bd5780519067ffffffffffffffff8211611bfb57019080601f830112156118bd5781519167ffffffffffffffff8311612a5c578260051b9060405193612a1860208401866154b9565b8452602080850192820101928311612a5857602001905b828210612a40575050509085612480565b60208091612a4d84615b50565b815201910190612a2f565b8680fd5b634e487b7160e01b86526041600452602486fd5b60405162461bcd60e51b815260206004820152601660248201527511dc9858d9481c195c9a5bd9081b9bdd08195b99195960521b6044820152606490fd5b90506020823d602011612adc575b81612ac9602093836154b9565b810103126119505761241a915190612410565b3d9150612abc565b90506020813d602011612b0e575b81612aff602093836154b9565b810103126119505751856123ea565b3d9150612af2565b60405162461bcd60e51b815260206004820152602260248201527f4163636f756e74206e6f74206d61726b656420666f72206c697175696461746960448201526137b760f11b6064820152608490fd5b90506020813d602011612b98575b81612b81602093836154b9565b810103126118e557612b929061556d565b8561235f565b3d9150612b74565b346102aa57806003193601126102aa576020600754604051908152f35b346102aa57806003193601126102aa576020600b54604051908152f35b346102aa57806003193601126102aa576006546040516001600160a01b039091168152602090f35b346102aa57806003193601126102aa57612c3060408051674ddfc0c2d1c722466020820152602081526154b9565b612c4e6040805167f61852099ce5326a6020820152602081526154b9565b6020600554604051908152f35b346102aa5760203660031901126102aa57612c746153ad565b81612c93604080516730b4b2ae3b039e6e6020820152602081526154b9565b612cb1604080516717c121a369d2d8e96020820152602081526154b9565b6001600160a01b038216835260208390526040808420905192612cd384615480565b81548452600182015460208501908152600283015460408601526003830154936060860194855260048401549560808101968752600585015460a0820152600685015460c0820152600860078601549560e083019687520154610100820152612d5060408051670d89c9a19d7db6456020820152602081526154b9565b5195612d706040805167e6e0d1c3f95da6756020820152602081526154b9565b5191612d9060408051674e02a3dcdb11cc0d6020820152602081526154b9565b519362015180850180951161308857612dbd60408051673d12380609bd139c6020820152602081526154b9565b5194612ddd6040805167e71febb87c1d47316020820152602081526154b9565b861591826130595750612e0460408051672b50c67793cc3fa06020820152602081526154b9565b612e226040805167326d0f7d29a335116020820152602081526154b9565b612e406040805167944fae9902ab74536020820152602081526154b9565b612e4c815115156156bc565b612e6a6040805167aab1ce9b9641d2fa6020820152602081526154b9565b612e8860408051678b19e612b6bdbb8b6020820152602081526154b9565b612e90616980565b90612eaf6040805167e36833de410708ec6020820152602081526154b9565b670de0b6b3a7640000880292888404670de0b6b3a764000014171561304557612eeb60408051660933d7b5949aef6020820152602081526154b9565b670de0b6b3a7640000820291808304670de0b6b3a76400001490151715613045576ec097ce7bc90715b34b9f1000000000612f52612fdf94612f3360c09c958c955190615502565b906115ca6040805167904049c08021ccd36020820152602081526154b9565b04612f716040805167c3dd751ac49ddb126020820152602081526154b9565b8181111561300157612fba9250612f9c6040805167ef331ccc8d679db76020820152602081526154b9565b610f5a60408051677dbdb3054540825a6020820152602081526154b9565b925b612fda6040805167173875829afc89996020820152602081526154b9565b617175565b91604051958652602086015260408501526060840152608083015260a0820152f35b505061302160408051675431a0c289857af76020820152602081526154b9565b61303f60408051675a2684aa89b5414a6020820152602081526154b9565b92612fbc565b634e487b7160e01b89526011600452602489fd5b93905060c09750612fdf91506130836040805167c70d5d18355350076020820152602081526154b9565b612fbc565b634e487b7160e01b88526011600452602488fd5b346102aa57806003193601126102aa5760206040517fbc37299a3f6cccd6c755dd8bfdf2500dcaabe80313ae76769173dd12db1d5fd98152f35b346102aa57806003193601126102aa5760206040517f358559da74e98365ce10a27dc62f2c5b6fa4992108fa51890f8203b09b80f2628152f35b346102aa5760203660031901126102aa576131296153ad565b506131486040805167e4cf39b21dd7f6ed6020820152602081526154b9565b6131666040805167cb5e54510ec1f1d56020820152602081526154b9565b6131846040805167bb64735cacbb5a936020820152602081526154b9565b60085461319b906001600160a01b03161515615fee565b6131b9604080516745e239270feab4e46020820152602081526154b9565b6131d76040805167f9b2ad2138b837246020820152602081526154b9565b60206131e1615b64565b6102ef60408051677ae91a0a03a258c1858201528481526154b9565b346102aa5760203660031901126102aa5760043561322f60408051678ba74d6aaf3dd1ea6020820152602081526154b9565b61324d6040805167ada22e48724b8f046020820152602081526154b9565b338252816020526040822061327660408051670f8f77628c9ca2e26020820152602081526154b9565b6008810190815462015180810180911161358357421015613312576132af6040805167311d6f0919c662e46020820152602081526154b9565b6132cd6040805167a9f45e35929992d16020820152602081526154b9565b60405162461bcd60e51b815260206004820152601d60248201527f4d757374207761697420666f7220636f6f6c646f776e20706572696f640000006044820152606490fd5b61333060408051673e151edec518264a6020820152602081526154b9565b61334e6040805167e285475cabc8cb676020820152602081526154b9565b80548311156133cf576133756040805167a4a130c6695d0c156020820152602081526154b9565b6133936040805167a2a445fc592d0b796020820152602081526154b9565b60405162461bcd60e51b8152602060048201526014602482015273496e73756666696369656e742062616c616e636560601b6044820152606490fd5b6133ed6040805167d11adfb3c5d843796020820152602081526154b9565b61340b604080516738b87e0366759c786020820152602081526154b9565b60038101805461355f576134336040805167e598ee383df65e776020820152602081526154b9565b6134516040805167fb5f3069f8c8d71e6020820152602081526154b9565b613459616980565b90555b61347a6040805167e069e13e8cad75d06020820152602081526154b9565b61348333616c49565b6134a1604080516795d01aba0a191c7b6020820152602081526154b9565b8260058201556134c56040805167adedf908adb06a2e6020820152602081526154b9565b6006429101556134e96040805167bf0090fc57c0a2426020820152602081526154b9565b42905561350a6040805167676569e9960c85d86020820152602081526154b9565b62015180420180421161354b5760405191825260208201527f24b91f4f47caf44230a57777a9be744924e82bf666f2d5702faf97df35e60f9f60403392a280f35b634e487b7160e01b83526011600452602483fd5b5061357e604080516789511b7d53e6db516020820152602081526154b9565b61345c565b634e487b7160e01b85526011600452602485fd5b346102aa57806003193601126102aa5760206040517f96737339a958f216173e690d06f324072e6dc3146e04c060bd723906d6b190768152f35b346102aa57806003193601126102aa576020600354604051908152f35b346102aa5760203660031901126102aa576004356136206040805167f6d37772a3ebfc526020820152602081526154b9565b61363e6040805167015837eebc1a18376020820152602081526154b9565b61365c604080516773fdeefcf78509036020820152602081526154b9565b600a546001600160a01b0316331461368f576004826105cc604080516793502700f5a3664d6020820152602081526154b9565b6136ad604080516715cff846f6c5d7b86020820152602081526154b9565b6136cb60408051675f1e73e5e2d096eb6020820152602081526154b9565b6136e96040805167f1ff86ff7eb5aea06020820152602081526154b9565b6137076040805167e13c33c58855a7316020820152602081526154b9565b613725604080516701663104cbee69d96020820152602081526154b9565b61374360408051674d3090e70f642bba6020820152602081526154b9565b6064811161378d5761376960408051672c701c92fb369b866020820152602081526154b9565b613787604080516726385e11ca24083a6020820152602081526154b9565b60075580f35b60405162461bcd60e51b815260206004820152601060248201526f0a0cadcc2d8e8f240e8dede40d0d2ced60831b6044820152606490fd5b346102aa57806003193601126102aa576020600254604051908152f35b346102aa5760203660031901126102aa576137fb6153ad565b819061381b6040805167558ae2596d5e65116020820152602081526154b9565b61383960408051677f23e5f8d29d03db6020820152602081526154b9565b6001600160a01b031682526020829052604080832090519161385a83615480565b81548352600182015460208401908152600283015460408501526003830154906060850191825260048401546080860152600584015460a0860152600684015460c0860152600860078501549460e0870195865201546101008601526138d46040805167e45aaee7224010aa6020820152602081526154b9565b51936201518085018095116111ad5761390160408051672cef23dd4c0af0466020820152602081526154b9565b8442109182159283613c7f575b80613c56575b15613c4f5760646139298351600754906154db565b04945b61394a60408051678d3e11d62114ed426020820152602081526154b9565b61396860408051672ae60a2bd78bafcb6020820152602081526154b9565b6139866040805167a12efaf8729fa6e46020820152602081526154b9565b8051613bf057506139ab60408051671f0decfcd4743d9a6020820152602081526154b9565b6139c96040805167f551692fd8608ddc6020820152602081526154b9565b620151804201804211613088575b6139f560408051675195257b27b9d9f16020820152602081526154b9565b6139fe42615fd1565b811115613baa5750613a2460408051676cc47eadbee7d05a6020820152602081526154b9565b613a426040805167f9fbb26f7ee95a356020820152602081526154b9565b6201518042018042116130885760a09750935b613a7360408051674319e6d471ccf78e6020820152602081526154b9565b825115613b83575090613b5d613b6592613aa16040805167abb2e9d16bac18d36020820152602081526154b9565b613abf60408051679899ae8ceda710ba6020820152602081526154b9565b613add60408051675aef4077c7ca1cd76020820152602081526154b9565b613ae9815115156156bc565b613b076040805167021eb509add7ad196020820152602081526154b9565b613b25604080516765a650d1548f77626020820152602081526154b9565b613b55613b30616980565b613b4e6040805167ca7a632e8bbf2be06020820152602081526154b9565b84516154db565b905190615502565b905190615520565b925b6040519485526020850152604084015260608301526080820152f35b94915050613ba5604080516730b36b51f19346f96020820152602081526154b9565b613b67565b60a09750613bcc6040805167fd088f82d98127fa6020820152602081526154b9565b613bea6040805167b064dc8b7f612cb36020820152602081526154b9565b93613a55565b613c0e6040805167456d633e2144dd846020820152602081526154b9565b613c2c604080516792be34de0d2ac9216020820152602081526154b9565b51620151808101809111156139d757634e487b7160e01b88526011600452602488fd5b869461392c565b50613c7860408051679767336efc491ba960c01b6020820152602081526154b9565b6001613914565b50613ca16040805167086f19baf81369f960c41b6020820152602081526154b9565b8661390e565b346102aa57806003193601126102aa576020600154604051908152f35b346102aa57806003193601126102aa5760206102ef615b64565b346102aa57806003193601126102aa576008546040516001600160a01b039091168152602090f35b346102aa57806003193601126102aa5760206040517faacf4d9ce41c3977f13dda8d61dce041128ea08757d4cc0dab99105ca55f6d208152f35b346102aa5760203660031901126102aa57600435613d7260408051678c4b9660fbe674466020820152602081526154b9565b613d9060408051673b5465e6a28bb3856020820152602081526154b9565b613dae60408051675aa0547f6f54f1d86020820152602081526154b9565b600554811015613e4657613dfd604091613ddb83805167ccf1e52f151bc7ac6020820152602081526154b9565b613df883805167cd81185732d7db346020820152602081526154b9565b615405565b506001825191613e0c8361549d565b8054835201549060208101918252613e378380516787d7616c800d95866020820152602081526154b9565b51905182519182526020820152f35b60405162461bcd60e51b8152602060048201526012602482015271092dcecc2d8d2c840e8d2cae440d2dcc8caf60731b6044820152606490fd5b346102aa5760203660031901126102aa57613e996153ad565b50613eb86040805167a4a778196aca45486020820152602081526154b9565b613ed66040805167b3c733cffa70adff6020820152602081526154b9565b60206102ef615b64565b346102aa57613eee366153ef565b613f0c604080516754c8917fdef0a12d6020820152602081526154b9565b613f2a6040805167015837eebc1a18376020820152602081526154b9565b613f48604080516773fdeefcf78509036020820152602081526154b9565b600a546001600160a01b03163314613f7b576004836105cc604080516793502700f5a3664d6020820152602081526154b9565b613f99604080516715cff846f6c5d7b86020820152602081526154b9565b613fb760408051675f1e73e5e2d096eb6020820152602081526154b9565b613fd56040805167628105487426d7746020820152602081526154b9565b613ff36040805167814aa99cb2f6ead86020820152602081526154b9565b61401160408051679f9647fb5af2ea4b6020820152602081526154b9565b61402f6040805167c68e96b70a4c09e36020820152602081526154b9565b61271082111580614123575b156140ef577f1ad8b45a83c0b03428f4eb1fc49e5e9e4ee40bea305c8dfde416980ea7d90c989160409161408283805167162e0a72536c13c86020820152602081526154b9565b61409f838051677f444109422809ab6020820152602081526154b9565b81600b556140c0838051674c50bdd6804de8106020820152602081526154b9565b80600c556140e183805167b2eb4a57e43005c16020820152602081526154b9565b82519182526020820152a180f35b60405162461bcd60e51b815260206004820152600c60248201526b08ccaca40e8dede40d0d2ced60a31b6044820152606490fd5b5061271081111561403b565b346102aa57806003193601126102aa57602060405168056bc75e2d631000008152f35b61415b36615435565b92915061417c6040805167c9b240ec634338ea6020820152602081526154b9565b61419a60408051672d0cc33906c7a4ab6020820152602081526154b9565b6141b86040805167bf4abe948f33d7606020820152602081526154b9565b6141cd60018060a01b03600854163314615acc565b6141eb604080516701e1d1db2b0792b76020820152602081526154b9565b614209604080516710b68c12f4a556576020820152602081526154b9565b838315806143575781808681936142346040805167ca0634d0f1d4f9d56020820152602081526154b9565b61425260408051678ae13a7ce4bbf3a36020820152602081526154b9565b614270604080516705663b39b294b41d6020820152602081526154b9565b61427c82341015615b04565b61429a6040805167f2849242ea1a0b2d6020820152602081526154b9565b6142b86040805167e66e8c3d5ee88eb76020820152602081526154b9565b6009546001600160a01b031690839061434e575bf1156104ec577f66aecc579aa1ef463c0ed1547c2cb6163370e6311a60cba815252acbb398f2139160a0916143156040805167b72cdb63bbe1b5fc6020820152602081526154b9565b60405194855260606020860152600b60608601526a37b934b3b4b730ba34b7b760a91b60808601526040850152600180831b031692a280f35b506108fc6142cc565b505050505061052360408051678aae3dc62a7eaa936020820152602081526154b9565b346102aa57806003193601126102aa576020600c54604051908152f35b346119505760a0366003190112611950576143b06153ad565b6143b86153c3565b6143c06153d9565b608435926003841015611950576143eb604080516780522764571076016020820152602081526154b9565b61440960408051672d53aa75cec40d776020820152602081526154b9565b6001600160a01b0316803b15611950576040516376e674df60e01b81526001600160a01b0393841660048201529190921660248201526064803560448301528101929092525f908290608490829084905af1801561447557614469575080f35b61001a91505f906154b9565b6040513d5f823e3d90fd5b34611950575f366003190112611950576144ae60408051670409c11121252ef66020820152602081526154b9565b6144cc6040805167d8f522955d2d73216020820152602081526154b9565b335f525f60205260405f206144f56040805167f85a2b4cb26fa0d56020820152602081526154b9565b80546145715761451960408051670958a0d6dd4b36a56020820152602081526154b9565b614537604080516797a97e24b83a7fa96020820152602081526154b9565b60405162461bcd60e51b8152602060048201526012602482015271139bc8199d5b991cc819195c1bdcda5d195960721b6044820152606490fd5b6004906145926040805167435b0f797fa968666020820152602081526154b9565b6145b060408051675654cadbc72522446020820152602081526154b9565b6145b933616c49565b6145d76040805167e60935124d60caf86020820152602081526154b9565b018054906145f96040805167dbd44d9d7f2c65066020820152602081526154b9565b811580156146795761461f6040805167ec1e1ff3ac71fc026020820152602081526154b9565b61463d60408051678fbda6b46c9207506020820152602081526154b9565b60405162461bcd60e51b81526020600482015260146024820152734e6f20696e74657265737420746f20636c61696d60601b6044820152606490fd5b5f839261469a6040805167aa4e9e91f1763aca6020820152602081526154b9565b6146b860408051679484a6f91eb75db46020820152602081526154b9565b556146d760408051677ac1ca7a67a71a596020820152602081526154b9565b6146e382600154615520565b60015561470460408051670db8ff65a25d265a6020820152602081526154b9565b6147855f8060018060a01b036008541660405182602082019163e19fb8f560e01b83528860248201526024815261473c6044826154b9565b51925af1614748615a2d565b5061476760408051676f638dd98e7a25ef6020820152602081526154b9565b6110d3604080516745e1fb2daf848a5f6020820152602081526154b9565b6147a360408051670f76b0ded8e8b59a6020820152602081526154b9565b6147c16040805167ca5736a6e4fa438c6020820152602081526154b9565b5f90614822575b5f80809381933390f115614475576147f46040805167c6881f9bac41365a6020820152602081526154b9565b6040519081527ff9984c8173c4b4ff9cc454f76ed19c053f4490ccb224fd9ddffeb4ef4bea353060203392a2005b506108fc6147c8565b34611950576060366003190112611950576004356024359060443590614865604080516728e03e6344e6cbf06020820152602081526154b9565b6148836040805167015837eebc1a18376020820152602081526154b9565b6148a1604080516773fdeefcf78509036020820152602081526154b9565b600a546001600160a01b031633146148e0576148d1604080516793502700f5a3664d6020820152602081526154b9565b6359f8b11760e11b5f5260045ffd5b6148fe604080516715cff846f6c5d7b86020820152602081526154b9565b61491c60408051675f1e73e5e2d096eb6020820152602081526154b9565b61493a60408051678b7215e794a410146020820152602081526154b9565b61495860408051671a383e7d2411bbc96020820152602081526154b9565b6149766040805167355c3592df5a6e2b6020820152602081526154b9565b614994604080516727fb03afe0f5c47f6020820152602081526154b9565b6149a8670de0b6b3a764000083101561552d565b6149c66040805167395f491c7b565cbc6020820152602081526154b9565b6149e4604080516787bb04812ad83b696020820152602081526154b9565b6005548110614a805750614a0c6040805167ece8a7bcb9b359496020820152602081526154b9565b614a2a6040805167d3611916c704e7d86020820152602081526154b9565b60405191614a378361549d565b825260208201526005549068010000000000000000821015614a6c57614a6682600161001a9401600555615405565b90615a04565b634e487b7160e01b5f52604160045260245ffd5b614a669061001a9392614aa76040805167f0b90be59bcf66d26020820152602081526154b9565b614ac560408051671bb34f5d75458a4a6020820152602081526154b9565b60405193614ad28561549d565b84526020840152615405565b3461195057602036600319011261195057614af76153ad565b5f610100604051614b0781615480565b8281528260208201528260408201528260608201528260808201528260a08201528260c08201528260e08201520152614b546040805167a603f0c3667bab386020820152602081526154b9565b614b726040805167720968fa8af83b9d6020820152602081526154b9565b60018060a01b03165f525f60205261012060405f20604051614b9381615480565b8154918282526001810154602083019081526002820154604084019081526003830154606085019081526004840154906080860191825260058501549260a0870193845260068601549460c08801958652610100600860078901549860e08b01998a52015498019788526040519889525160208901525160408801525160608701525160808601525160a08501525160c08401525160e083015251610100820152f35b346119505760203660031901126119505760206102ef614c546153ad565b615708565b346119505760403660031901126119505760206111e4614c776153ad565b614c7f6153c3565b9061557a565b34611950576020366003190112611950576001600160a01b03614ca66153ad565b165f525f60205261012060405f208054906001810154906002810154600382015460048301546005840154916006850154936008600787015496015496604051988952602089015260408801526060870152608086015260a085015260c084015260e0830152610100820152f35b346119505760203660031901126119505760043560055481101561195057614d3d604091615405565b506001815491015482519182526020820152f35b34611950575f366003190112611950576020604051662386f26fc100008152f35b3461195057602036600319011261195057600435614da46040805167e4025db7dc561a2f6020820152602081526154b9565b614dc26040805167015837eebc1a18376020820152602081526154b9565b614de0604080516773fdeefcf78509036020820152602081526154b9565b600a546001600160a01b03163314614e10576148d1604080516793502700f5a3664d6020820152602081526154b9565b614e2e604080516715cff846f6c5d7b86020820152602081526154b9565b614e4c60408051675f1e73e5e2d096eb6020820152602081526154b9565b614e6a60408051671c568aca5f5ca2b06020820152602081526154b9565b614e88604080516750c728bb20e268ec6020820152602081526154b9565b614ea6604080516738575be4c426d1466020820152602081526154b9565b614ec4604080516778df2900c21dd8566020820152602081526154b9565b614ed8670de0b6b3a764000082101561552d565b614ef66040805167b14429ecdcc98fe66020820152602081526154b9565b614f14604080516708d58c0bd0c536746020820152602081526154b9565b600255614f356040805167931ae6a7a3d8f4ca6020820152602081526154b9565b620151804204600355005b3461195057614f4e366153ef565b614f6c60408051675e07ebdd91c080486020820152602081526154b9565b614f8a604080516769ebcf245cdb2d276020820152602081526154b9565b614f92616980565b614fb06040805167b970342963e62c546020820152602081526154b9565b806150b35750614fd46040805167b511af2e8dfedd2a6020820152602081526154b9565b614ff260408051677b37810ae2671dda6020820152602081526154b9565b670de0b6b3a7640000905b61501b6040805167cfad0fffa80677936020820152602081526154b9565b819061503b60408051677a3186945f3804356020820152602081526154b9565b5f906002545b8183106150785760206102ef87610f5a886116518961507260408051673d65847bbdf9b94a8a8201528981526154b9565b846154db565b909192670de0b6b3a76400006150a9836001936115ca60408051679a014535a005cd0d6020820152602081526154b9565b0493019190615041565b906150d26040805167fda6651ee0ad2f786020820152602081526154b9565b614ffd565b34611950576020366003190112611950576150f06153ad565b61510e6040805167dc92a7a6865a39116020820152602081526154b9565b61512c6040805167015837eebc1a18376020820152602081526154b9565b61514a604080516773fdeefcf78509036020820152602081526154b9565b600a546001600160a01b0316331461517a576148d1604080516793502700f5a3664d6020820152602081526154b9565b615198604080516715cff846f6c5d7b86020820152602081526154b9565b6151b660408051675f1e73e5e2d096eb6020820152602081526154b9565b6151d46040805167f1a7b50389b634f66020820152602081526154b9565b6151f26040805167d8c4e070f49a902b6020820152602081526154b9565b61521060408051677ae826db11d7ce4c6020820152602081526154b9565b61522e60408051671d3a28b6bbc2c47d6020820152602081526154b9565b6001600160a01b031680156152d65761525b60408051679bb5a4a75439f4fd6020820152602081526154b9565b6152796040805167364f86219a08949d6020820152602081526154b9565b806bffffffffffffffffffffffff60a01b60095416176009556152b0604080516798f1193f70ca621a6020820152602081526154b9565b7f279ea638680bba6a87fddd8bcdbc37d94eee92841e1dfec2ab0f79662c7093115f80a2005b60405162461bcd60e51b815260206004820152601760248201527f496e76616c6964207265736572766520616464726573730000000000000000006044820152606490fd5b346119505760203660031901126119505761534a6040805167bdbc2862257c4d4d6020820152602081526154b9565b61536860408051677fe8cb321ffc26826020820152602081526154b9565b60206102ef600435616864565b34611950575f36600319011261195057807f30d714d36be891ba5851837992c580dee4624dc21d19d9fecbcabfcb0e7ce28060209252f35b600435906001600160a01b038216820361195057565b602435906001600160a01b038216820361195057565b604435906001600160a01b038216820361195057565b6040906003190112611950576004359060243590565b6005548110156154215760055f5260205f209060011b01905f90565b634e487b7160e01b5f52603260045260245ffd5b6080906003190112611950576004356001600160a01b03811681036119505790602435906044359060643590565b34611950575f366003190112611950576020604051620151808152f35b610120810190811067ffffffffffffffff821117614a6c57604052565b6040810190811067ffffffffffffffff821117614a6c57604052565b90601f8019910116810190811067ffffffffffffffff821117614a6c57604052565b818102929181159184041417156154ee57565b634e487b7160e01b5f52601160045260245ffd5b811561550c570490565b634e487b7160e01b5f52601260045260245ffd5b919082039182116154ee57565b1561553457565b60405162461bcd60e51b815260206004820152601160248201527052617465206d757374206265203e3d203160781b6044820152606490fd5b5190811515820361195057565b6155986040805167ac766a739f9de4026020820152602081526154b9565b6155b6604080516733f8d706768d50806020820152602081526154b9565b6040805163239ad4ef60e21b81526001600160a01b03938416600482018190529392909216919081602481855afa908115614475575f91615682575b5061561160408051679fc039bfc5ca59756020820152602081526154b9565b15918261561d57505090565b602091925060246040518094819363b69e5c7760e01b835260048301525afa908115614475575f91615650575b50151590565b90506020813d60201161567a575b8161566b602093836154b9565b8101031261195057515f61564a565b3d915061565e565b90506040813d6040116156b4575b8161569d604093836154b9565b81010312611950576156ae9061556d565b5f6155f2565b3d9150615690565b156156c357565b60405162461bcd60e51b815260206004820152601e60248201527f696e746572657374496e646578206d757374206e6f74206265207a65726f00006044820152606490fd5b6157266040805167d5072ca10b486f2e6020820152602081526154b9565b61574460408051675ed14a69807fb1db6020820152602081526154b9565b60018060a01b03165f525f60205260405f206040519061576382615480565b80548252600181015460208301526002810154604083015260086003820154916060840192835260048101546080850152600581015460a0850152600681015460c0850152600781015460e085015201546101008301526157d86040805167b2a64c301cc3c4936020820152602081526154b9565b81516158025750506157fe604080516719853c9b56804d3d6020820152602081526154b9565b5f90565b615820604080516702aa5af329f22bc86020820152602081526154b9565b61583e6040805167dfb778e436ca5d476020820152602081526154b9565b61585c6040805167f04bfa46ea309e586020820152602081526154b9565b615868815115156156bc565b6158866040805167c502f632e90e88ce6020820152602081526154b9565b6158a460408051679f25062aac43c4056020820152602081526154b9565b6158ac616980565b6158ca60408051679e063c2b710ce6ca6020820152602081526154b9565b8251670de0b6b3a7640000810290808204670de0b6b3a764000014901517156154ee5761590b6040805167e6cc4b29b549c86e6020820152602081526154b9565b670de0b6b3a7640000820291808304670de0b6b3a764000014901517156154ee5761594b61596a926ec097ce7bc90715b34b9f1000000000945190615502565b906115ca6040805167313bcce388e52e4e6020820152602081526154b9565b0461598960408051676183e090b872d7cf6020820152602081526154b9565b8151811180156159dc575b806159b3575b156159ad576159aa915190615520565b90565b50505f90565b506159d5604080516723617c4aa3aadd9760c21b6020820152602081526154b9565b600161599a565b506159fe60408051671e6fc0d21a8ad24160c31b6020820152602081526154b9565b5f615994565b9190615a1a576020816001925184550151910155565b634e487b7160e01b5f525f60045260245ffd5b3d15615a67573d9067ffffffffffffffff8211614a6c5760405191615a5c601f8201601f1916602001846154b9565b82523d5f602084013e565b606090565b15615a7357565b60405162461bcd60e51b815260206004820152602b60248201527f4661696c656420746f20657874726163742066756e64732066726f6d206c697160448201526a1d5a591a5d1e481c1bdbdb60aa1b6064820152608490fd5b15615ad357565b60405162461bcd60e51b815260206004820152600960248201526813db9b1e481c1bdbdb60ba1b6044820152606490fd5b15615b0b57565b60405162461bcd60e51b815260206004820152601860248201527f496e73756666696369656e7420666565207061796d656e7400000000000000006044820152606490fd5b51906001600160a01b038216820361195057565b615b8260408051679ea53b94173309336020820152602081526154b9565b615ba060408051672edbbe0a2c89d2906020820152602081526154b9565b600154615bc16040805167d8d0cd00ce6e1cec6020820152602081526154b9565b60085460405163b8cdf56160e01b81526001600160a01b039091169190602081600481865afa908115614475575f91615f9f575b50604051635e1ead1f60e11b815290602082600481875afa908115614475575f91615f69575b615c259250615520565b90615c446040805167056ae4df81e56bd46020820152602081526154b9565b80615c7057505050615c6a60408051675bc26a25e6e8239e6020820152602081526154b9565b60025490565b615c8e6040805167e4e7cef2030e03e66020820152602081526154b9565b615cac6040805167c483b616774ce64a6020820152602081526154b9565b670de0b6b3a7640000820291808304670de0b6b3a764000014901517156154ee57615cd691615502565b90615cf560408051670f3d9e5423db63f76020820152602081526154b9565b6040516379fed8ad60e11b8152602081600481855afa908115614475575f91615f2a575b50604051634fd41dad60e11b81526004810184905290602090829060249082906001600160a01b03165afa908115614475575f91615ef8575b50615d716040805167c871adef5f6c0d096020820152602081526154b9565b6040516379fed8ad60e11b815292602084600481865afa938415614475575f94615eb5575b5090604460209260405195869384926301508d4560e51b84526004840152602483015260018060a01b03165afa918215614475575f92615e80575b506020600491615df360408051673aa72bee7087d22b858201528481526154b9565b604051635467a5a960e11b815292839182905afa908115614475575f91615e46575b50615e4290670de0b6b3a7640000926115ca6040805167d2746f62e3d68c936020820152602081526154b9565b0490565b90506020813d602011615e78575b81615e61602093836154b9565b810103126119505751670de0b6b3a7640000615e15565b3d9150615e54565b9091506020813d602011615ead575b81615e9c602093836154b9565b810103126119505751906020615dd1565b3d9150615e8f565b919093506020823d602011615ef0575b81615ed2602093836154b9565b81010312611950576044615ee7602093615b50565b94919250615d96565b3d9150615ec5565b90506020813d602011615f22575b81615f13602093836154b9565b8101031261195057515f615d52565b3d9150615f06565b90506020813d602011615f61575b81615f45602093836154b9565b81010312611950576020615f5a602492615b50565b9150615d19565b3d9150615f38565b90506020823d602011615f97575b81615f84602093836154b9565b8101031261195057615c25915190615c1b565b3d9150615f77565b90506020813d602011615fc9575b81615fba602093836154b9565b8101031261195057515f615bf5565b3d9150615fad565b906202a30082018092116154ee57565b919082018092116154ee57565b15615ff557565b60405162461bcd60e51b8152602060048201526015602482015274131a5c5d5a591a5d1e541bdbdb081b9bdd081cd95d605a1b6044820152606490fd5b80518210156154215760209160051b010190565b6160646040805167b1fbad845009fe686020820152602081526154b9565b616082604080516759ba9524e3c739eb6020820152602081526154b9565b60018060a01b03165f525f60205260405f206040516160a081615480565b815481526001820154602082015260028201546040820152600382015460608201526004820154608082015260058201549060a08101918252610100600860068501549460c08401958652600781015460e08501520154910152616118604080516789cd7dd8132f09b36020820152602081526154b9565b5161613c57506157fe604080516785de5ff9040780db6020820152602081526154b9565b61615a6040805167f5d83c5f4ee58d4e6020820152602081526154b9565b616178604080516750c5de1ed02942766020820152602081526154b9565b516201518081018091116154ee5742101590565b6161aa6040805167c9e09e12f9a7383f6020820152602081526154b9565b6161c8604080516757b95cf3f6fe3d236020820152602081526154b9565b60018060a01b03165f525f60205260405f206040516161e681615480565b81548152600182015460208201526002820154916040820192835260086003820154916060840192835260048101546080850152600581015460a0850152600681015460c0850152600781015460e0850152015461010083015261625e60408051676040e8a6aefebde36020820152602081526154b9565b8151616285575050506157fe6040805167939ca5a162369cb96020820152602081526154b9565b6162a3604080516733e67bd13f185fa46020820152602081526154b9565b6162c16040805167dc4ed764e9276df16020820152602081526154b9565b6162df6040805167b6dfe3de4b45d39a6020820152602081526154b9565b6162eb815115156156bc565b61630960408051675c700f92bbd6a92c6020820152602081526154b9565b6163276040805167226cf2572d365baf6020820152602081526154b9565b61632f616980565b9161634e60408051675033f898d33387536020820152602081526154b9565b8051670de0b6b3a7640000810290808204670de0b6b3a764000014901517156154ee5761638f6040805167709e9c66d10f5d8f6020820152602081526154b9565b670de0b6b3a7640000840291848304670de0b6b3a764000014851517156154ee576ec097ce7bc90715b34b9f10000000006163f9616402936163da6164289662015180985190615502565b906115ca6040805167ed7385c9cac1686a6020820152602081526154b9565b04905190615520565b93616421604080516729562649731a3c946020820152602081526154b9565b5142615520565b0490616448604080516747a6f3c73248f1e96020820152602081526154b9565b81156164f2579061646d6040805167ea3936a154201b4f6020820152602081526154b9565b61648b6040805167fb6c02ba0ec639496020820152602081526154b9565b5f915b8183106164b7575050505b6159aa604080516745004a8aa766c15c6020820152602081526154b9565b909192670de0b6b3a76400006164e8836001936115ca6040805167bcfe2333392cfefe6020820152602081526154b9565b049301919061648e565b5050616512604080516788efa5fa14c21aa66020820152602081526154b9565b616499565b61653560408051677cbacfe77caa691d6020820152602081526154b9565b616553604080516746b429bb1ad3de106020820152602081526154b9565b60015461657460408051671654e8059cbb6b3c6020820152602081526154b9565b806165985750615c6a604080516752ab26a35ebe82b46020820152602081526154b9565b6165b66040805167ae14b425b8de82036020820152602081526154b9565b6165d46040805167eee58c9b41c2dded6020820152602081526154b9565b60085460405163b8cdf56160e01b81526001600160a01b0390911690602081600481855afa908115614475575f91616832575b50604051635e1ead1f60e11b815290602082600481865afa908115614475575f916167fc575b6166379250615520565b916166566040805167bb53284b1c9a7b036020820152602081526154b9565b821580156166805750505050615c6a6040805167e0b3dd8e4963ee806020820152602081526154b9565b61669e60408051674a10b00b00a204dd6020820152602081526154b9565b6166bc604080516725deff0643b8964d6020820152602081526154b9565b670de0b6b3a7640000840290848204670de0b6b3a76400001417156154ee576004926166ea83602093615502565b50616707604080516777a0b6bdc9cb9508858201528481526154b9565b6040516379fed8ad60e11b815293849182905afa918215614475575f926167bd575b5060408051634dc8336560e11b81526004810194909452602484019190915290829060449082906001600160a01b03165afa908115614475575f91616788575b506159aa60408051670f5e0d2d678d09c96020820152602081526154b9565b90506040813d6040116167b5575b816167a3604093836154b9565b8101031261195057602001515f616769565b3d9150616796565b91506020823d6020116167f4575b816167d8602093836154b9565b810103126119505760446167ed604093615b50565b9250616729565b3d91506167cb565b90506020823d60201161682a575b81616817602093836154b9565b810103126119505761663791519061662d565b3d915061680a565b90506020813d60201161685c575b8161684d602093836154b9565b8101031261195057515f616607565b3d9150616840565b61688260408051671250536f866ec7756020820152602081526154b9565b6168a06040805167a76f16ef69ab71a86020820152602081526154b9565b60055490815b6168ca575050615c6a60408051678ad5d27f90b734226020820152602081526154b9565b6168e8604080516760a1fd6ccc9183896020820152602081526154b9565b5f198201918083116154ee576168fd83615405565b5054821061694f57505061694960019161692b604080516745f38ffbd538e9136020820152602081526154b9565b613df86040805167af564cc1ff3743476020820152602081526154b9565b50015490565b90915061697060408051671e3840fc10c4dbd06020820152602081526154b9565b80156154ee575f190190816168a6565b61699e60408051676c1207259eb32b9c6020820152602081526154b9565b6169bc604080516785c67edef8adbe066020820152602081526154b9565b6001546169ed576169e16040805167416eadc5fcf95eec6020820152602081526154b9565b670de0b6b3a764000090565b616a0b60408051677da18a1a5f7ba8eb6020820152602081526154b9565b616a296040805167fa9db24ef4db1b8a6020820152602081526154b9565b616a47604080516714445476303750c76020820152602081526154b9565b616a58600354620151804204615520565b616a7660408051679bc5a3e4a900c55b6020820152602081526154b9565b616a7e616517565b90616a9d604080516739f45124f704cc6a6020820152602081526154b9565b80616ac157506159aa604080516765dd42263fb8e4936020820152602081526154b9565b90616ae0604080516732f8de724c1950066020820152602081526154b9565b90616aff6040805167517c0bf071649eab6020820152602081526154b9565b81616b1e6040805167f0647b2cd979df606020820152602081526154b9565b5f905b828210616b49575050506159aa6040805167f593692e4398cfa66020820152602081526154b9565b909192616b6a6040805167c03913e688cdc6ea6020820152602081526154b9565b670de0b6b3a7640000616b7d83836154db565b0490616b9d60408051678a899aaac196b3c66020820152602081526154b9565b811015616c015750505050616bc6604080516776c06ee4eb826efb6020820152602081526154b9565b616be46040805167c22833cdbd7196df6020820152602081526154b9565b7812725dd1d243aba0e75fe645cc4873f9e65afe688c928e1f2190565b600190616c2260408051679408887e5a12ce8c6020820152602081526154b9565b616c406040805167c1561181a443666c6020820152602081526154b9565b93920190616b21565b616c676040805167033091cf8fa8f1726020820152602081526154b9565b616c856040805167ff9718f4a6385b956020820152602081526154b9565b60018060a01b0316805f525f60205260405f2090616cb760408051671fa3cf7e1c4915016020820152602081526154b9565b8154616cdf575050616cdd6040805167fe96fc44968f8ee36020820152602081526154b9565b565b616cfd60408051671596d7dbd824ca466020820152602081526154b9565b616d1b60408051672ff9aac743a968e96020820152602081526154b9565b600382018054616daf57670de0b6b3a76400009150616d4e60408051676ae1132373b268626020820152602081526154b9565b616d6c6040805167a3265a6dba50ca876020820152602081526154b9565b55616d8b60408051676beb96ad27e860a56020820152602081526154b9565b600242910155616cdd60408051675ef6792831b6497d6020820152602081526154b9565b616dcd60408051674e85e63013c3a0676020820152602081526154b9565b616deb604080516794bdd701700983736020820152602081526154b9565b616df3616980565b91616e126040805167985d08b5ea0a4c176020820152602081526154b9565b82158015616e5b575050505050616e3d6040805167fe449e3cb8f2fae26020820152602081526154b9565b616cdd6040805167f0e16129426c7d9b6020820152602081526154b9565b616e7960408051676155bafb2e1624626020820152602081526154b9565b616e97604080516715f1ca539778a48c6020820152602081526154b9565b845490616ea485836154db565b90616eb583610f5a87548095615502565b50616ed46040805167fbc47328525572076020820152602081526154b9565b8186111561715357616efa6040805167fe005a2bc9a64b8e6020820152602081526154b9565b616f186040805167e8cd957962725a7b6020820152602081526154b9565b670de0b6b3a7640000830290838204670de0b6b3a764000014841517156154ee57616f5760408051676200bb7214541dc76020820152602081526154b9565b670de0b6b3a7640000870290878204670de0b6b3a76400001417156154ee57616fb78492616f98616fbd956ec097ce7bc90715b34b9f100000000094615502565b906115ca604080516724a66776b8c490cc6020820152602081526154b9565b04615520565b90616fdc60408051679cc78e9e6170bfd96020820152602081526154b9565b811561712d57816170757f65724bab62e2b372c625ed834016c4e1750f8074aad18b22844457f35ea61d73936020936170276040805167cf171f6b6116b7bd888201528781526154b9565b61704360408051670257378b70bb3248888201528781526154b9565b60048a01617052838254615fe1565b9055617070604080516763dd4c7f8785104a888201528781526154b9565b615fe1565b875561709360408051677d672b2788898ba7858201528481526154b9565b61709f81600154615fe1565b6001556170be604080516764b238084a30ef8f858201528481526154b9565b4260078801556170e0604080516702c0a57ad66f54a9858201528481526154b9565b604051908152a25b6171066040805167f66bac212667b88e6020820152602081526154b9565b5561712560408051673b132f287f227fe56020820152602081526154b9565b600242910155565b50505061714e6040805167273cb58c84a76d0e6020820152602081526154b9565b6170e8565b5050505061714e60408051671b26e1f15a2e03fd6020820152602081526154b9565b6171936040805167468baf0d08d5ac866020820152602081526154b9565b6171b16040805167add4a2e16c29da4d6020820152602081526154b9565b60018060a01b03165f525f60205260405f206040516171cf81615480565b8154815260018201546020820152600282015460408201526003820154606082015260048201546080820152600582015460a0820152600682015460c0820152600860078301549260e0830193845201546101008201526172446040805167df7e07e6d2ce99406020820152602081526154b9565b5161726857506157fe6040805167ada94845f99ce1636020820152602081526154b9565b6172866040805167b13b6d610fc14dc46020820152602081526154b9565b6172a460408051675ae178641c1852216020820152602081526154b9565b6172c2604080516765cb75f308be617c6020820152602081526154b9565b80516173ca57506172e76040805167c24cb9663a41fb356020820152602081526154b9565b6173056040805167e13060baeaff95a86020820152602081526154b9565b6201518042018042116154ee575b61733160408051672394df016573ed0b6020820152602081526154b9565b61733a42615fd1565b81111561738e57506173606040805167e7ead1061467deaa6020820152602081526154b9565b61737e6040805167525cca5fb730808a6020820152602081526154b9565b6201518042018042116154ee5790565b6173ac60408051670d43cee9edd73edb6020820152602081526154b9565b6159aa604080516798a7fd83efd447616020820152602081526154b9565b6173e86040805167be2f9dde6c5f11f26020820152602081526154b9565b6174066040805167969390643824d0336020820152602081526154b9565b516201518081018091111561731357634e487b7160e01b5f52601160045260245ffdfea2646970667358221220d8fa8e5850b5a726f3e7db27fbf1a23db28a066f6c9e79f84755658098c4657464736f6c634300081c0033",
  "linkReferences": {},
  "deployedLinkReferences": {}
}