{
  "_format": "hh-sol-artifact-1",
  "contractName": "LendingManager",
  "sourceName": "backend/contracts/LendingManager.sol",
  "abi": [
    {
      "inputs": [
        {
          "internalType": "address",
          "name": "_liquidityPool",
          "type": "address"
        },
        {
          "internalType": "address",
          "name": "_timelock",
          "type": "address"
        }
      ],
      "stateMutability": "nonpayable",
      "type": "constructor"
    },
    {
      "inputs": [],
      "name": "OnlyTimelockLendingManager",
      "type": "error"
    },
    {
      "anonymous": false,
      "inputs": [
        {
          "indexed": true,
          "internalType": "address",
          "name": "lender",
          "type": "address"
        },
        {
          "indexed": false,
          "internalType": "uint256",
          "name": "penaltyAmount",
          "type": "uint256"
        }
      ],
      "name": "EarlyWithdrawalPenalty",
      "type": "event"
    },
    {
      "anonymous": false,
      "inputs": [
        {
          "indexed": true,
          "internalType": "address",
          "name": "user",
          "type": "address"
        },
        {
          "indexed": false,
          "internalType": "uint256",
          "name": "amount",
          "type": "uint256"
        },
        {
          "indexed": false,
          "internalType": "string",
          "name": "feeType",
          "type": "string"
        },
        {
          "indexed": false,
          "internalType": "uint256",
          "name": "tier",
          "type": "uint256"
        }
      ],
      "name": "FeeCollected",
      "type": "event"
    },
    {
      "anonymous": false,
      "inputs": [
        {
          "indexed": false,
          "internalType": "uint256",
          "name": "originationFee",
          "type": "uint256"
        },
        {
          "indexed": false,
          "internalType": "uint256",
          "name": "lateFee",
          "type": "uint256"
        }
      ],
      "name": "FeeParametersUpdated",
      "type": "event"
    },
    {
      "anonymous": false,
      "inputs": [
        {
          "indexed": true,
          "internalType": "address",
          "name": "lender",
          "type": "address"
        },
        {
          "indexed": false,
          "internalType": "uint256",
          "name": "amount",
          "type": "uint256"
        }
      ],
      "name": "FundsDeposited",
      "type": "event"
    },
    {
      "anonymous": false,
      "inputs": [
        {
          "indexed": true,
          "internalType": "address",
          "name": "lender",
          "type": "address"
        },
        {
          "indexed": false,
          "internalType": "uint256",
          "name": "amount",
          "type": "uint256"
        },
        {
          "indexed": false,
          "internalType": "uint256",
          "name": "penalty",
          "type": "uint256"
        }
      ],
      "name": "FundsWithdrawn",
      "type": "event"
    },
    {
      "anonymous": false,
      "inputs": [
        {
          "indexed": true,
          "internalType": "address",
          "name": "lender",
          "type": "address"
        },
        {
          "indexed": false,
          "internalType": "uint256",
          "name": "amount",
          "type": "uint256"
        }
      ],
      "name": "InterestAvailable",
      "type": "event"
    },
    {
      "anonymous": false,
      "inputs": [
        {
          "indexed": true,
          "internalType": "address",
          "name": "lender",
          "type": "address"
        },
        {
          "indexed": false,
          "internalType": "uint256",
          "name": "interest",
          "type": "uint256"
        }
      ],
      "name": "InterestClaimed",
      "type": "event"
    },
    {
      "anonymous": false,
      "inputs": [
        {
          "indexed": true,
          "internalType": "address",
          "name": "lender",
          "type": "address"
        },
        {
          "indexed": false,
          "internalType": "uint256",
          "name": "interest",
          "type": "uint256"
        }
      ],
      "name": "InterestCredited",
      "type": "event"
    },
    {
      "anonymous": false,
      "inputs": [
        {
          "indexed": true,
          "internalType": "address",
          "name": "lender",
          "type": "address"
        },
        {
          "indexed": false,
          "internalType": "uint256",
          "name": "interest",
          "type": "uint256"
        },
        {
          "indexed": false,
          "internalType": "uint256",
          "name": "rate",
          "type": "uint256"
        }
      ],
      "name": "LenderInterestAccrued",
      "type": "event"
    },
    {
      "anonymous": false,
      "inputs": [
        {
          "indexed": true,
          "internalType": "address",
          "name": "user",
          "type": "address"
        },
        {
          "indexed": true,
          "internalType": "address",
          "name": "liquidator",
          "type": "address"
        },
        {
          "indexed": false,
          "internalType": "uint256",
          "name": "amount",
          "type": "uint256"
        }
      ],
      "name": "LiquidationExecuted",
      "type": "event"
    },
    {
      "anonymous": false,
      "inputs": [
        {
          "indexed": true,
          "internalType": "address",
          "name": "user",
          "type": "address"
        },
        {
          "indexed": true,
          "internalType": "address",
          "name": "liquidator",
          "type": "address"
        },
        {
          "indexed": true,
          "internalType": "address",
          "name": "collateralToken",
          "type": "address"
        },
        {
          "indexed": false,
          "internalType": "uint256",
          "name": "collateralSeized",
          "type": "uint256"
        },
        {
          "indexed": false,
          "internalType": "uint256",
          "name": "debtRepaid",
          "type": "uint256"
        }
      ],
      "name": "PartialLiquidation",
      "type": "event"
    },
    {
      "anonymous": false,
      "inputs": [
        {
          "indexed": true,
          "internalType": "address",
          "name": "lender",
          "type": "address"
        },
        {
          "indexed": false,
          "internalType": "uint256",
          "name": "amount",
          "type": "uint256"
        },
        {
          "indexed": false,
          "internalType": "uint256",
          "name": "unlockTime",
          "type": "uint256"
        }
      ],
      "name": "PrincipalWithdrawalRequested",
      "type": "event"
    },
    {
      "anonymous": false,
      "inputs": [
        {
          "indexed": true,
          "internalType": "address",
          "name": "newReserve",
          "type": "address"
        }
      ],
      "name": "ReserveAddressUpdated",
      "type": "event"
    },
    {
      "anonymous": false,
      "inputs": [
        {
          "indexed": true,
          "internalType": "address",
          "name": "lender",
          "type": "address"
        },
        {
          "indexed": false,
          "internalType": "uint256",
          "name": "amount",
          "type": "uint256"
        }
      ],
      "name": "WithdrawalCancelled",
      "type": "event"
    },
    {
      "anonymous": false,
      "inputs": [
        {
          "indexed": true,
          "internalType": "address",
          "name": "lender",
          "type": "address"
        },
        {
          "indexed": false,
          "internalType": "uint256",
          "name": "amount",
          "type": "uint256"
        },
        {
          "indexed": false,
          "internalType": "uint256",
          "name": "unlockTime",
          "type": "uint256"
        }
      ],
      "name": "WithdrawalRequested",
      "type": "event"
    },
    {
      "inputs": [],
      "name": "EARLY_WITHDRAWAL_PENALTY",
      "outputs": [
        {
          "internalType": "uint256",
          "name": "",
          "type": "uint256"
        }
      ],
      "stateMutability": "view",
      "type": "function"
    },
    {
      "inputs": [],
      "name": "MAX_DEPOSIT_AMOUNT",
      "outputs": [
        {
          "internalType": "uint256",
          "name": "",
          "type": "uint256"
        }
      ],
      "stateMutability": "view",
      "type": "function"
    },
    {
      "inputs": [],
      "name": "MIN_DEPOSIT_AMOUNT",
      "outputs": [
        {
          "internalType": "uint256",
          "name": "",
          "type": "uint256"
        }
      ],
      "stateMutability": "view",
      "type": "function"
    },
    {
      "inputs": [],
      "name": "SECONDS_PER_DAY",
      "outputs": [
        {
          "internalType": "uint256",
          "name": "",
          "type": "uint256"
        }
      ],
      "stateMutability": "view",
      "type": "function"
    },
    {
      "inputs": [],
      "name": "SET_DAILY_RATE_PERMISSION",
      "outputs": [
        {
          "internalType": "bytes32",
          "name": "",
          "type": "bytes32"
        }
      ],
      "stateMutability": "view",
      "type": "function"
    },
    {
      "inputs": [],
      "name": "SET_EARLY_WITHDRAWAL_PENALTY_PERMISSION",
      "outputs": [
        {
          "internalType": "bytes32",
          "name": "",
          "type": "bytes32"
        }
      ],
      "stateMutability": "view",
      "type": "function"
    },
    {
      "inputs": [],
      "name": "SET_FEE_PARAMETERS_PERMISSION",
      "outputs": [
        {
          "internalType": "bytes32",
          "name": "",
          "type": "bytes32"
        }
      ],
      "stateMutability": "view",
      "type": "function"
    },
    {
      "inputs": [],
      "name": "SET_INTEREST_TIER_PERMISSION",
      "outputs": [
        {
          "internalType": "bytes32",
          "name": "",
          "type": "bytes32"
        }
      ],
      "stateMutability": "view",
      "type": "function"
    },
    {
      "inputs": [],
      "name": "SET_RESERVE_ADDRESS_PERMISSION",
      "outputs": [
        {
          "internalType": "bytes32",
          "name": "",
          "type": "bytes32"
        }
      ],
      "stateMutability": "view",
      "type": "function"
    },
    {
      "inputs": [],
      "name": "WITHDRAWAL_COOLDOWN",
      "outputs": [
        {
          "internalType": "uint256",
          "name": "",
          "type": "uint256"
        }
      ],
      "stateMutability": "view",
      "type": "function"
    },
    {
      "inputs": [
        {
          "internalType": "address",
          "name": "lender",
          "type": "address"
        }
      ],
      "name": "baseLenderAPR",
      "outputs": [
        {
          "internalType": "uint256",
          "name": "",
          "type": "uint256"
        }
      ],
      "stateMutability": "view",
      "type": "function"
    },
    {
      "inputs": [
        {
          "internalType": "address",
          "name": "lender",
          "type": "address"
        }
      ],
      "name": "calculateInterest",
      "outputs": [
        {
          "internalType": "uint256",
          "name": "interest",
          "type": "uint256"
        }
      ],
      "stateMutability": "view",
      "type": "function"
    },
    {
      "inputs": [
        {
          "internalType": "uint256",
          "name": "amount",
          "type": "uint256"
        },
        {
          "internalType": "uint256",
          "name": "numDays",
          "type": "uint256"
        }
      ],
      "name": "calculatePotentialInterest",
      "outputs": [
        {
          "internalType": "uint256",
          "name": "",
          "type": "uint256"
        }
      ],
      "stateMutability": "view",
      "type": "function"
    },
    {
      "inputs": [
        {
          "internalType": "address",
          "name": "governor",
          "type": "address"
        },
        {
          "internalType": "address",
          "name": "user",
          "type": "address"
        },
        {
          "internalType": "address",
          "name": "asset",
          "type": "address"
        },
        {
          "internalType": "uint256",
          "name": "amount",
          "type": "uint256"
        },
        {
          "internalType": "enum ProtocolGovernor.ActionType",
          "name": "action",
          "type": "uint8"
        }
      ],
      "name": "callGrantTokens",
      "outputs": [],
      "stateMutability": "nonpayable",
      "type": "function"
    },
    {
      "inputs": [
        {
          "internalType": "address",
          "name": "lender",
          "type": "address"
        }
      ],
      "name": "canCompleteWithdrawal",
      "outputs": [
        {
          "internalType": "bool",
          "name": "",
          "type": "bool"
        }
      ],
      "stateMutability": "view",
      "type": "function"
    },
    {
      "inputs": [],
      "name": "cancelPrincipalWithdrawal",
      "outputs": [],
      "stateMutability": "nonpayable",
      "type": "function"
    },
    {
      "inputs": [],
      "name": "claimInterest",
      "outputs": [],
      "stateMutability": "nonpayable",
      "type": "function"
    },
    {
      "inputs": [
        {
          "internalType": "address",
          "name": "user",
          "type": "address"
        },
        {
          "internalType": "uint256",
          "name": "amount",
          "type": "uint256"
        },
        {
          "internalType": "uint256",
          "name": "tier",
          "type": "uint256"
        },
        {
          "internalType": "uint256",
          "name": "fee",
          "type": "uint256"
        }
      ],
      "name": "collectLateFee",
      "outputs": [],
      "stateMutability": "payable",
      "type": "function"
    },
    {
      "inputs": [
        {
          "internalType": "address",
          "name": "user",
          "type": "address"
        },
        {
          "internalType": "uint256",
          "name": "amount",
          "type": "uint256"
        },
        {
          "internalType": "uint256",
          "name": "tier",
          "type": "uint256"
        },
        {
          "internalType": "uint256",
          "name": "fee",
          "type": "uint256"
        }
      ],
      "name": "collectOriginationFee",
      "outputs": [],
      "stateMutability": "payable",
      "type": "function"
    },
    {
      "inputs": [],
      "name": "completeWithdrawal",
      "outputs": [],
      "stateMutability": "nonpayable",
      "type": "function"
    },
    {
      "inputs": [],
      "name": "currentDailyRate",
      "outputs": [
        {
          "internalType": "uint256",
          "name": "",
          "type": "uint256"
        }
      ],
      "stateMutability": "view",
      "type": "function"
    },
    {
      "inputs": [
        {
          "internalType": "uint256",
          "name": "",
          "type": "uint256"
        }
      ],
      "name": "dailyInterestRate",
      "outputs": [
        {
          "internalType": "uint256",
          "name": "",
          "type": "uint256"
        }
      ],
      "stateMutability": "view",
      "type": "function"
    },
    {
      "inputs": [],
      "name": "depositFunds",
      "outputs": [],
      "stateMutability": "payable",
      "type": "function"
    },
    {
      "inputs": [
        {
          "internalType": "address",
          "name": "pool",
          "type": "address"
        },
        {
          "internalType": "address",
          "name": "user",
          "type": "address"
        }
      ],
      "name": "executeLiquidation",
      "outputs": [],
      "stateMutability": "nonpayable",
      "type": "function"
    },
    {
      "inputs": [
        {
          "internalType": "address",
          "name": "pool",
          "type": "address"
        },
        {
          "internalType": "address",
          "name": "user",
          "type": "address"
        },
        {
          "internalType": "address",
          "name": "collateralToken",
          "type": "address"
        }
      ],
      "name": "executePartialLiquidation",
      "outputs": [],
      "stateMutability": "nonpayable",
      "type": "function"
    },
    {
      "inputs": [
        {
          "internalType": "address",
          "name": "lender",
          "type": "address"
        }
      ],
      "name": "getAvailableInterest",
      "outputs": [
        {
          "internalType": "uint256",
          "name": "",
          "type": "uint256"
        }
      ],
      "stateMutability": "view",
      "type": "function"
    },
    {
      "inputs": [
        {
          "internalType": "uint256",
          "name": "tier",
          "type": "uint256"
        }
      ],
      "name": "getBorrowerRate",
      "outputs": [
        {
          "internalType": "uint256",
          "name": "",
          "type": "uint256"
        }
      ],
      "stateMutability": "view",
      "type": "function"
    },
    {
      "inputs": [],
      "name": "getDynamicSupplyRate",
      "outputs": [
        {
          "internalType": "uint256",
          "name": "",
          "type": "uint256"
        }
      ],
      "stateMutability": "view",
      "type": "function"
    },
    {
      "inputs": [
        {
          "internalType": "uint256",
          "name": "amount",
          "type": "uint256"
        }
      ],
      "name": "getInterestRate",
      "outputs": [
        {
          "internalType": "uint256",
          "name": "",
          "type": "uint256"
        }
      ],
      "stateMutability": "view",
      "type": "function"
    },
    {
      "inputs": [
        {
          "internalType": "uint256",
          "name": "index",
          "type": "uint256"
        }
      ],
      "name": "getInterestTier",
      "outputs": [
        {
          "internalType": "uint256",
          "name": "minAmount",
          "type": "uint256"
        },
        {
          "internalType": "uint256",
          "name": "rate",
          "type": "uint256"
        }
      ],
      "stateMutability": "view",
      "type": "function"
    },
    {
      "inputs": [],
      "name": "getInterestTierCount",
      "outputs": [
        {
          "internalType": "uint256",
          "name": "",
          "type": "uint256"
        }
      ],
      "stateMutability": "view",
      "type": "function"
    },
    {
      "inputs": [
        {
          "internalType": "address",
          "name": "lender",
          "type": "address"
        }
      ],
      "name": "getLenderInfo",
      "outputs": [
        {
          "internalType": "uint256",
          "name": "balance",
          "type": "uint256"
        },
        {
          "internalType": "uint256",
          "name": "pendingInterest",
          "type": "uint256"
        },
        {
          "internalType": "uint256",
          "name": "earnedInterest",
          "type": "uint256"
        },
        {
          "internalType": "uint256",
          "name": "nextInterestUpdate",
          "type": "uint256"
        },
        {
          "internalType": "uint256",
          "name": "penaltyFreeWithdrawalTime",
          "type": "uint256"
        },
        {
          "internalType": "uint256",
          "name": "lastDistributionTime",
          "type": "uint256"
        }
      ],
      "stateMutability": "view",
      "type": "function"
    },
    {
      "inputs": [],
      "name": "getLenderRate",
      "outputs": [
        {
          "internalType": "uint256",
          "name": "",
          "type": "uint256"
        }
      ],
      "stateMutability": "view",
      "type": "function"
    },
    {
      "inputs": [
        {
          "internalType": "address",
          "name": "lender",
          "type": "address"
        }
      ],
      "name": "getLenderReport",
      "outputs": [
        {
          "components": [
            {
              "internalType": "uint256",
              "name": "balance",
              "type": "uint256"
            },
            {
              "internalType": "uint256",
              "name": "depositTimestamp",
              "type": "uint256"
            },
            {
              "internalType": "uint256",
              "name": "lastInterestUpdate",
              "type": "uint256"
            },
            {
              "internalType": "uint256",
              "name": "interestIndex",
              "type": "uint256"
            },
            {
              "internalType": "uint256",
              "name": "earnedInterest",
              "type": "uint256"
            },
            {
              "internalType": "uint256",
              "name": "pendingPrincipalWithdrawal",
              "type": "uint256"
            },
            {
              "internalType": "uint256",
              "name": "withdrawalRequestTime",
              "type": "uint256"
            },
            {
              "internalType": "uint256",
              "name": "lastInterestDistribution",
              "type": "uint256"
            },
            {
              "internalType": "uint256",
              "name": "lastWithdrawalTime",
              "type": "uint256"
            }
          ],
          "internalType": "struct LendingManager.LenderInfo",
          "name": "",
          "type": "tuple"
        }
      ],
      "stateMutability": "view",
      "type": "function"
    },
    {
      "inputs": [
        {
          "internalType": "address",
          "name": "lender",
          "type": "address"
        }
      ],
      "name": "getRealTimeReturnRate",
      "outputs": [
        {
          "internalType": "uint256",
          "name": "",
          "type": "uint256"
        }
      ],
      "stateMutability": "view",
      "type": "function"
    },
    {
      "inputs": [
        {
          "internalType": "address",
          "name": "lender",
          "type": "address"
        }
      ],
      "name": "getWithdrawalStatus",
      "outputs": [
        {
          "internalType": "uint256",
          "name": "availableAt",
          "type": "uint256"
        },
        {
          "internalType": "uint256",
          "name": "penaltyIfWithdrawnNow",
          "type": "uint256"
        },
        {
          "internalType": "bool",
          "name": "isAvailableWithoutPenalty",
          "type": "bool"
        },
        {
          "internalType": "uint256",
          "name": "nextInterestDistribution",
          "type": "uint256"
        },
        {
          "internalType": "uint256",
          "name": "availableInterest",
          "type": "uint256"
        }
      ],
      "stateMutability": "view",
      "type": "function"
    },
    {
      "inputs": [
        {
          "internalType": "uint256",
          "name": "",
          "type": "uint256"
        }
      ],
      "name": "interestTiers",
      "outputs": [
        {
          "internalType": "uint256",
          "name": "minAmount",
          "type": "uint256"
        },
        {
          "internalType": "uint256",
          "name": "rate",
          "type": "uint256"
        }
      ],
      "stateMutability": "view",
      "type": "function"
    },
    {
      "inputs": [
        {
          "internalType": "address",
          "name": "pool",
          "type": "address"
        },
        {
          "internalType": "address",
          "name": "user",
          "type": "address"
        }
      ],
      "name": "isUndercollateralized",
      "outputs": [
        {
          "internalType": "bool",
          "name": "",
          "type": "bool"
        }
      ],
      "stateMutability": "view",
      "type": "function"
    },
    {
      "inputs": [],
      "name": "lastRateUpdateDay",
      "outputs": [
        {
          "internalType": "uint256",
          "name": "",
          "type": "uint256"
        }
      ],
      "stateMutability": "view",
      "type": "function"
    },
    {
      "inputs": [],
      "name": "lateFee",
      "outputs": [
        {
          "internalType": "uint256",
          "name": "",
          "type": "uint256"
        }
      ],
      "stateMutability": "view",
      "type": "function"
    },
    {
      "inputs": [
        {
          "internalType": "address",
          "name": "",
          "type": "address"
        }
      ],
      "name": "lenders",
      "outputs": [
        {
          "internalType": "uint256",
          "name": "balance",
          "type": "uint256"
        },
        {
          "internalType": "uint256",
          "name": "depositTimestamp",
          "type": "uint256"
        },
        {
          "internalType": "uint256",
          "name": "lastInterestUpdate",
          "type": "uint256"
        },
        {
          "internalType": "uint256",
          "name": "interestIndex",
          "type": "uint256"
        },
        {
          "internalType": "uint256",
          "name": "earnedInterest",
          "type": "uint256"
        },
        {
          "internalType": "uint256",
          "name": "pendingPrincipalWithdrawal",
          "type": "uint256"
        },
        {
          "internalType": "uint256",
          "name": "withdrawalRequestTime",
          "type": "uint256"
        },
        {
          "internalType": "uint256",
          "name": "lastInterestDistribution",
          "type": "uint256"
        },
        {
          "internalType": "uint256",
          "name": "lastWithdrawalTime",
          "type": "uint256"
        }
      ],
      "stateMutability": "view",
      "type": "function"
    },
    {
      "inputs": [],
      "name": "liquidityPool",
      "outputs": [
        {
          "internalType": "address",
          "name": "",
          "type": "address"
        }
      ],
      "stateMutability": "view",
      "type": "function"
    },
    {
      "inputs": [],
      "name": "originationFee",
      "outputs": [
        {
          "internalType": "uint256",
          "name": "",
          "type": "uint256"
        }
      ],
      "stateMutability": "view",
      "type": "function"
    },
    {
      "inputs": [
        {
          "internalType": "uint256",
          "name": "amount",
          "type": "uint256"
        }
      ],
      "name": "requestWithdrawal",
      "outputs": [],
      "stateMutability": "nonpayable",
      "type": "function"
    },
    {
      "inputs": [],
      "name": "reserveAddress",
      "outputs": [
        {
          "internalType": "address",
          "name": "",
          "type": "address"
        }
      ],
      "stateMutability": "view",
      "type": "function"
    },
    {
      "inputs": [
        {
          "internalType": "uint256",
          "name": "newRate",
          "type": "uint256"
        }
      ],
      "name": "setCurrentDailyRate",
      "outputs": [],
      "stateMutability": "nonpayable",
      "type": "function"
    },
    {
      "inputs": [
        {
          "internalType": "uint256",
          "name": "newPenalty",
          "type": "uint256"
        }
      ],
      "name": "setEarlyWithdrawalPenalty",
      "outputs": [],
      "stateMutability": "nonpayable",
      "type": "function"
    },
    {
      "inputs": [
        {
          "internalType": "uint256",
          "name": "_originationFee",
          "type": "uint256"
        },
        {
          "internalType": "uint256",
          "name": "_lateFee",
          "type": "uint256"
        }
      ],
      "name": "setFeeParameters",
      "outputs": [],
      "stateMutability": "nonpayable",
      "type": "function"
    },
    {
      "inputs": [
        {
          "internalType": "uint256",
          "name": "index",
          "type": "uint256"
        },
        {
          "internalType": "uint256",
          "name": "minAmount",
          "type": "uint256"
        },
        {
          "internalType": "uint256",
          "name": "rate",
          "type": "uint256"
        }
      ],
      "name": "setInterestTier",
      "outputs": [],
      "stateMutability": "nonpayable",
      "type": "function"
    },
    {
      "inputs": [
        {
          "internalType": "address",
          "name": "_reserve",
          "type": "address"
        }
      ],
      "name": "setReserveAddress",
      "outputs": [],
      "stateMutability": "nonpayable",
      "type": "function"
    },
    {
      "inputs": [
        {
          "internalType": "address",
          "name": "_votingToken",
          "type": "address"
        }
      ],
      "name": "setVotingToken",
      "outputs": [],
      "stateMutability": "nonpayable",
      "type": "function"
    },
    {
      "inputs": [],
      "name": "timelock",
      "outputs": [
        {
          "internalType": "address",
          "name": "",
          "type": "address"
        }
      ],
      "stateMutability": "view",
      "type": "function"
    },
    {
      "inputs": [],
      "name": "totalLent",
      "outputs": [
        {
          "internalType": "uint256",
          "name": "",
          "type": "uint256"
        }
      ],
      "stateMutability": "view",
      "type": "function"
    },
    {
      "inputs": [],
      "name": "votingToken",
      "outputs": [
        {
          "internalType": "contract IVotingToken",
          "name": "",
          "type": "address"
        }
      ],
      "stateMutability": "view",
      "type": "function"
    },
    {
      "stateMutability": "payable",
      "type": "receive"
    }
  ],
  "bytecode": "0x60806040523461012857604051601f613c7d38819003918201601f19168301916001600160401b0383118484101761012d57808492604094855283398101031261012857610058602061005183610162565b9201610162565b600880546001600160a01b039384166001600160a01b031991821617909155600a80549290931691161790556005600755670de12d4cc511c0006002556201518042046003556100c76100a9610143565b678ac7230489e800008152670de13f20401b60006020820152610176565b6100f06100d2610143565b674563918244f400008152670de13607f1a8c0006020820152610176565b6101196100fb610143565b670de0b6b3a76400008152670de12d4cc511c0006020820152610176565b604051613aaf90816101ce8239f35b600080fd5b634e487b7160e01b600052604160045260246000fd5b60408051919082016001600160401b0381118382101761012d57604052565b51906001600160a01b038216820361012857565b6005546801000000000000000081101561012d5760018101806005558110156101b757602060019160056000528160002090831b0192805184550151910155565b634e487b7160e01b600052603260045260246000fdfe608080604052600436101561001d575b50361561001b57600080fd5b005b6000803560e01c91826307115687146129eb575081630c196a74146129cd57816314673d31146129155781631876b415146128975781631a3f61cd1461284d5781631ea30fef1461282c57816321bf8985146127ee57816328fd10d71461275e5781632cf588931461273257816332aa9b681461270f578163334bbd4d146125f557816333ec339e1461251e57816335981fd8146123ea57816338e3ea11146123395781633f4de62f1461231c578163480d1aee146122565781634c34a982146122335781634d56022f1461217857816352ace30914612154578163537dd93a146120c857816355e87dbc1461208e578163665a11ca146120665781636a7ebf4a1461204c5781636d7c218b1461202f5781637491687e14611e8557816374f0314f1461027e57816382ee21fc14611e685781638a2e98f314611dfb57816394e95da314611dde578163962a0da514611da45781639ee679e814611c44578163a6727ce714611c09578163a74f099814611bcf578163a8d9e5ba14611b95578163ab19f095146119dc578163ade2854d146119bf578163b034012314611997578163b8bb5c421461197a578163b918ee251461195d578163bcebb1d71461133c578163c0798fe41461104f578163cca4391614610fa9578163d01cd45614610953578163d33219b41461092b578163d7047310146108fe578163e03ff7cb1461073e578163e11932cf1461071b578163e2c41dbc14610420578163e2d74628146103c3578163e50649d1146102f9578163f6e180f5146102d7578163f79ed94b146102af578163fccf6a1e14610283575063feedab001461027e573861000f565b612ade565b346102ac5760203660031901126102ac5760406020916004358152600483522054604051908152f35b80fd5b346102ac57806003193601126102ac576009546040516001600160a01b039091168152602090f35b346102ac57806003193601126102ac5760206102f1613570565b604051908152f35b61030236612ab0565b92915061031a60018060a01b03600854163314612f3c565b8383158015610327575080f35b818086819361033882341015612f74565b6009546001600160a01b03169083906103ba575bf1156103af5760408051938452606060208501819052600490850152636c61746560e01b60808501528301526001600160a01b0316907f66aecc579aa1ef463c0ed1547c2cb6163370e6311a60cba815252acbb398f2139060a090a28180808380f35b6040513d85823e3d90fd5b506108fc61034c565b346102ac5760203660031901126102ac576103dc612a23565b600a546001600160a01b031633036104115760018060a01b03166bffffffffffffffffffffffff60a01b600654161760065580f35b6359f8b11760e11b8252600482fd5b806003193601126102ac57600854604051633af7305960e21b815233600482015290602090829060249082906001600160a01b03165afa9081156105a65782916106dd575b501561069857662386f26fc100003410610661573381528060205268056bc75e2d63100000610498604083205434613315565b11610611573381528060205260408120600381018054156105f4575b506104be33613842565b6104c9348254613315565b90556104d734600154613315565b600155808080803460018060a01b03600854165af16104f4612e9c565b50156105be576006548190662386f26fc100003404906001600160a01b0316801515806105b5575b610551575b826040513481527f543ba50a5eec5e6178218e364b1d0f396157b3c8fa278522c2cb7fd99407d47460203392a280f35b803b156105b1576040516340c10f1960e01b8152336004820152602481019290925282908290604490829084905af180156105a657610591575b80610521565b8161059b91612be1565b6102ac57808261058b565b6040513d84823e3d90fd5b5050fd5b5081151561051c565b60405162461bcd60e51b815260206004820152600e60248201526d11195c1bdcda5d0819985a5b195960921b6044820152606490fd5b670de0b6b3a76400009055426001820155426002820155826104b4565b60405162461bcd60e51b815260206004820152602260248201527f4465706f73697420776f756c6420657863656564206d6178696d756d206c696d6044820152611a5d60f21b6064820152608490fd5b60405162461bcd60e51b815260206004820152600f60248201526e4465706f73697420746f6f206c6f7760881b6044820152606490fd5b60405162461bcd60e51b815260206004820152601d60248201527f4372656469742073636f726520726571756972656420746f206c656e640000006044820152606490fd5b90506020813d602011610713575b816106f860209383612be1565b8101031261070f5761070990612c03565b82610465565b5080fd5b3d91506106eb565b346102ac5760203660031901126102ac5760206102f1610739612a23565b613411565b346102ac57806003193601126102ac57338152806020526040812060058101908154156108c15761076e33613842565b815491839160018101546201518081018091116108ad5790859291421061085f575b6107a461079d8587613315565b8254612b45565b90556107bb6107b38486613315565b600154612b45565b60015555610809838060018060a01b036008541660405182602082019163e19fb8f560e01b8352886024820152602481526107f7604482612be1565b51925af1610803612e9c565b50612edc565b8280838015610855575b8280929181923390f1156105a65760405191825260208201527ffbc3a599b784fe88772fc5abcc07223f64ca0b13acc341f4fb1e46bef0510eb460403392a280f35b6108fc9150610813565b93925061087b606461087360075486612afc565b048094612b45565b936040518481527fb6a45448c8250adf8d836e047d46f96410d632c7089720e3aed88fcb76644ded60203392a2610790565b634e487b7160e01b86526011600452602486fd5b60405162461bcd60e51b8152602060048201526015602482015274139bc81c195b991a5b99c81dda5d1a191c985dd85b605a1b6044820152606490fd5b346102ac5760203660031901126102ac57602061092161091c612a23565b61337a565b6040519015158152f35b346102ac57806003193601126102ac57600a546040516001600160a01b039091168152602090f35b346102ac5760603660031901126102ac5761096c612a23565b610974612a39565b61097c612a4f565b916109878282612c10565b15610f71576040516339a37a4360e11b81526001600160a01b0384811660048301819052949216929190602081602481875afa908115610f66578691610f28575b5015610eee5760405163b69e5c7760e01b81526001600160a01b0383166004820181905292909190602083602481885afa928315610ee3578793610eaf575b506040516378e2eb6160e11b815260048101879052602081602481895afa908115610ea4578891610e72575b506040516356512fcd60e11b815260048101889052906020826024818a5afa918215610cdb578992610e3e575b508115610e0b578015610dc657604051630ef7fb6760e01b81526020816004818b5afa908115610dbb578a91610d89575b5060640180606411610d7557610aa79086612afc565b91670de0b6b3a7640000830292808404670de0b6b3a76400001490151715610d755790610ad391612afc565b8015610d2057610ae291612b25565b60405163e7602b9d60e01b81526001600160a01b03848116600483015283166024820152909590602081604481855afa908115610cdb578991610cee575b50808711610ce6575b5060405163200a4deb60e21b8152602081600481855afa908115610cdb578991610ca4575b508610610c67578792813b15610c63576040516001622b512560e01b031981526001600160a01b039182166004820152908316602482015233604482015260648101879052838160848183865af1908115610c58578491610c43575b5050803b15610c3f576040516378974cbb60e01b81526001600160a01b039290921660048301526024820184905282908290604490829084905af180156105a657610c26575b505060405192835260208301527f61a26dafe158573397cb85ec41fab65aa51d01855779276c8eb8c6915f7c577e60403393a480f35b81610c3091612be1565b610c3b578486610bf0565b8480fd5b8280fd5b81610c4d91612be1565b610c3f578289610baa565b6040513d86823e3d90fd5b8380fd5b60405162461bcd60e51b81526020600482015260156024820152742132b637bb9036b4b7103634b8bab4b230ba34b7b760591b6044820152606490fd5b90506020813d602011610cd3575b81610cbf60209383612be1565b81010312610cce575189610b4e565b600080fd5b3d9150610cb2565b6040513d8b823e3d90fd5b955088610b29565b90506020813d602011610d18575b81610d0960209383612be1565b81010312610cce575189610b20565b3d9150610cfc565b60405162461bcd60e51b815260206004820152602760248201527f4469766973696f6e206279207a65726f20696e207061727469616c206c69717560448201526634b230ba34b7b760c91b6064820152608490fd5b634e487b7160e01b8a52601160045260248afd5b90506020813d602011610db3575b81610da460209383612be1565b81010312610cce57518a610a91565b3d9150610d97565b6040513d8c823e3d90fd5b60405162461bcd60e51b815260206004820152601860248201527f436f6c6c61746572616c207072696365206973207a65726f00000000000000006044820152606490fd5b60405162461bcd60e51b815260206004820152600b60248201526a131515881b9bdd081cd95d60aa1b6044820152606490fd5b9091506020813d602011610e6a575b81610e5a60209383612be1565b81010312610cce57519089610a60565b3d9150610e4d565b90506020813d602011610e9c575b81610e8d60209383612be1565b81010312610cce575188610a33565b3d9150610e80565b6040513d8a823e3d90fd5b9092506020813d602011610edb575b81610ecb60209383612be1565b81010312610cce57519187610a07565b3d9150610ebe565b6040513d89823e3d90fd5b60405162461bcd60e51b8152602060048201526012602482015271125b9d985b1a590818dbdb1b185d195c985b60721b6044820152606490fd5b90506020813d602011610f5e575b81610f4360209383612be1565b81010312610f5a57610f5490612c03565b866109c8565b8580fd5b3d9150610f36565b6040513d88823e3d90fd5b60405162461bcd60e51b815260206004820152601060248201526f506f736974696f6e206865616c74687960801b6044820152606490fd5b346102ac57806003193601126102ac5733815280602052604081206005810190815491821561100a578391826006925501556040519081527f2eed97477f07c07ec48f8f678f4e84f7c0de55bf33f51c3dc989b1335308031960203392a280f35b60405162461bcd60e51b815260206004820152601f60248201527f4e6f2070656e64696e67207769746864726177616c20746f2063616e63656c006044820152606490fd5b346102ac5760203660031901126102ac576008546001600160a01b0316611077811515613322565b604051624b476b60e91b8152602081600481855afa9081156103af57839161130a575b5060405163b8cdf56160e01b8152602081600481865afa908115610c585784916112d8575b50604051635e1ead1f60e11b815290602082600481875afa9081156112cd578591611297575b6110ef9250612b45565b811561128e57670de0b6b3a7640000810290808204670de0b6b3a7640000149015171561127a579061112091612b25565b905b6040516379fed8ad60e11b815291602083600481855afa928315610c5857849361123c575b50604051634fd41dad60e11b8152600481019190915291602090839060249082906001600160a01b03165afa9182156103af578392611207575b50602060049160405192838092635467a5a960e11b82525afa9283156111fb57926111c5575b6020670de0b6b3a76400006111bc8585612afc565b04604051908152f35b91506020823d6020116111f3575b816111e060209383612be1565b81010312610cce579051906111bc6111a7565b3d91506111d3565b604051903d90823e3d90fd5b9091506020813d602011611234575b8161122360209383612be1565b81010312610cce5751906020611181565b3d9150611216565b9092506020813d602011611272575b8161125860209383612be1565b81010312610c635761126b602091612fc0565b9290611147565b3d915061124b565b634e487b7160e01b84526011600452602484fd5b50508190611122565b90506020823d6020116112c5575b816112b260209383612be1565b81010312610cce576110ef9151906110e5565b3d91506112a5565b6040513d87823e3d90fd5b90506020813d602011611302575b816112f360209383612be1565b81010312610cce5751846110bf565b3d91506112e6565b90506020813d602011611334575b8161132560209383612be1565b81010312610cce57518361109a565b3d9150611318565b346102ac5760403660031901126102ac57611355612a23565b9061135e612a39565b60405163042e02cf60e01b81526001600160a01b03808316600483018190529294169190602081602481865afa908115610c58578491611923575b50156118d35760405163c23c69d560e01b815260048101829052602081602481865afa908115610c585784916118a1575b506040516360d143f160e11b815290602082600481875afa9081156112cd57859161186b575b6113fa9250613315565b421061182d5760405163cf17622560e01b8152908382600481865afa918215610c5857849261176f575b50835b82518110156114f9576001600160a01b036114428285613366565b51604051637781200d60e11b815291166004820152602081602481885afa908115610f665786916114c0575b501561147c57600101611427565b606460405162461bcd60e51b815260206004820152602060248201527f4f7261636c65206369726375697420627265616b6572207472696767657265646044820152fd5b90506020813d82116114f1575b816114da60209383612be1565b81010312610f5a576114eb90612c03565b8761146e565b3d91506114cd565b509184916040519363b69e5c7760e01b8552806004860152602085602481865afa948515610f6657869561173b575b50604051639b8621d560e01b8152602081600481875afa908115610ee3578791611708575b50606461155d6115649288612afc565b0486613315565b9086805b8451811015611678576001600160a01b036115838287613366565b5160405163e7602b9d60e01b815291166001600160a01b03818116600484015289166024830152602082806044810103818b5afa918215610c5857849261163f575b50816115d6575b5050600101611568565b873b15610c63576040516001622b512560e01b031981526001600160a01b039182166004820152908916602482015233604482015260648101919091528281608481838b5af19081156103af578391156115cc578161163491612be1565b61070f57818a6115cc565b915091925060203d8111611671575b6116588183612be1565b602082600092810103126102ac5750518992918b6115c5565b503d61164e565b50939250939094823b15610c63576040516378974cbb60e01b81526001600160a01b0392909216600483015260248201529082908290604490829084905af180156105a6576116f3575b50506040519182527f1175522017e08c2f400d7e516608eff60816ee9e8319158d174321234b60263160203393a380f35b816116fd91612be1565b610c3f5782846116c2565b90506020813d602011611733575b8161172360209383612be1565b81010312610cce5751606461154d565b3d9150611716565b9094506020813d602011611767575b8161175760209383612be1565b81010312610cce57519386611528565b3d915061174a565b9091503d8085833e6117818183612be1565b810190602081830312610c3b5780519067ffffffffffffffff8211610f5a57019080601f83011215610c3b5781519167ffffffffffffffff8311611819578260051b90604051936117d56020840186612be1565b845260208085019282010192831161181557602001905b8282106117fd575050509085611424565b6020809161180a84612fc0565b8152019101906117ec565b8680fd5b634e487b7160e01b86526041600452602486fd5b60405162461bcd60e51b815260206004820152601660248201527511dc9858d9481c195c9a5bd9081b9bdd08195b99195960521b6044820152606490fd5b90506020823d602011611899575b8161188660209383612be1565b81010312610cce576113fa9151906113f0565b3d9150611879565b90506020813d6020116118cb575b816118bc60209383612be1565b81010312610cce5751856113ca565b3d91506118af565b60405162461bcd60e51b815260206004820152602260248201527f4163636f756e74206e6f74206d61726b656420666f72206c697175696461746960448201526137b760f11b6064820152608490fd5b90506020813d602011611955575b8161193e60209383612be1565b81010312610c635761194f90612c03565b85611399565b3d9150611931565b346102ac57806003193601126102ac576020600754604051908152f35b346102ac57806003193601126102ac576020600b54604051908152f35b346102ac57806003193601126102ac576006546040516001600160a01b039091168152602090f35b346102ac57806003193601126102ac576020600554604051908152f35b346102ac5760203660031901126102ac576119f5612a23565b6001600160a01b0381168252602082905260408083209051919280611a1984612b92565b8254938481526001840154928360208301526002850154604083015260038501549460608301958652600481015492836080820152600582015460a0820152600682015460c0820152610100600860078401549360e084019485520154910152620151808501809511611b815751948615908115611ac2575b505050611aa060c09661399a565b91604051958652602086015260408501526060840152608083015260a0820152f35b9091979350611ad381511515612d06565b611adb6137ae565b90670de0b6b3a7640000880292888404670de0b6b3a7640000141715611b6d57670de0b6b3a7640000820291808304670de0b6b3a76400001490151715611b6d576ec097ce7bc90715b34b9f1000000000611b49611aa094611b4360c09c958c955190612b25565b90612afc565b0481811115611b6557611b5c9250612b45565b925b9688611a92565b505092611b5e565b634e487b7160e01b89526011600452602489fd5b634e487b7160e01b82526011600452602482fd5b346102ac57806003193601126102ac5760206040517fbc37299a3f6cccd6c755dd8bfdf2500dcaabe80313ae76769173dd12db1d5fd98152f35b346102ac57806003193601126102ac5760206040517f358559da74e98365ce10a27dc62f2c5b6fa4992108fa51890f8203b09b80f2628152f35b346102ac5760203660031901126102ac57611c22612a23565b50600854611c3a906001600160a01b03161515613322565b60206102f1612fd4565b346102ac5760203660031901126102ac57600435338252816020526040822060088101908154620151808101809111611d90574210611d4b5780548311611d0f5760038101805415611cff575b50611c9b33613842565b826005820155600642910155429055620151804201804211611ceb5760405191825260208201527f24b91f4f47caf44230a57777a9be744924e82bf666f2d5702faf97df35e60f9f60403392a280f35b634e487b7160e01b83526011600452602483fd5b611d076137ae565b905584611c91565b60405162461bcd60e51b8152602060048201526014602482015273496e73756666696369656e742062616c616e636560601b6044820152606490fd5b60405162461bcd60e51b815260206004820152601d60248201527f4d757374207761697420666f7220636f6f6c646f776e20706572696f640000006044820152606490fd5b634e487b7160e01b85526011600452602485fd5b346102ac57806003193601126102ac5760206040517f96737339a958f216173e690d06f324072e6dc3146e04c060bd723906d6b190768152f35b346102ac57806003193601126102ac576020600354604051908152f35b346102ac5760203660031901126102ac57600a54600435906001600160a01b031633036104115760648111611e305760075580f35b60405162461bcd60e51b815260206004820152601060248201526f0a0cadcc2d8e8f240e8dede40d0d2ced60831b6044820152606490fd5b346102ac57806003193601126102ac576020600254604051908152f35b346102ac5760203660031901126102ac57611e9e612a23565b6001600160a01b03168152602081905260408082209051908290611ec183612b92565b80548352600181015492836020820152600282015460408201526003820154916060820192835260048101546080830152600581015460a0830152600681015460c0830152600860078201549160e0840192835201546101008301526201518085018095116108ad578442109182600014612028576064611f46825160075490612afc565b04915b51806120065750620151804201804211611fe8575b611f6742613305565b811115611ffc5750620151804201804211611fe85760a09750935b8151611fa8575b5050604051948552602085015215604084015260608301526080820152f35b611fe092955080611fbe611fd892511515612d06565b611fd0611fc96137ae565b8451612afc565b905190612b25565b905190612b45565b928680611f89565b634e487b7160e01b88526011600452602488fd5b60a0975093611f82565b62015180810180911115611f5e57634e487b7160e01b88526011600452602488fd5b8691611f49565b346102ac57806003193601126102ac576020600154604051908152f35b346102ac57806003193601126102ac5760206102f1612fd4565b346102ac57806003193601126102ac576008546040516001600160a01b039091168152602090f35b346102ac57806003193601126102ac5760206040517faacf4d9ce41c3977f13dda8d61dce041128ea08757d4cc0dab99105ca55f6d208152f35b346102ac5760203660031901126102ac5760043560055481101561211a576120f1604091612a7b565b50602082516120ff81612bc5565b60018354938483520154918291015282519182526020820152f35b60405162461bcd60e51b8152602060048201526012602482015271092dcecc2d8d2c840e8d2cae440d2dcc8caf60731b6044820152606490fd5b346102ac5760203660031901126102ac5761216d612a23565b5060206102f1612fd4565b346102ac5761218636612a65565b600a546001600160a01b031633036122245761271082111580612218575b156121e457816040917f1ad8b45a83c0b03428f4eb1fc49e5e9e4ee40bea305c8dfde416980ea7d90c9893600b5580600c5582519182526020820152a180f35b60405162461bcd60e51b815260206004820152600c60248201526b08ccaca40e8dede40d0d2ced60a31b6044820152606490fd5b506127108111156121a4565b6359f8b11760e11b8352600483fd5b346102ac57806003193601126102ac57602060405168056bc75e2d631000008152f35b61225f36612ab0565b92915061227760018060a01b03600854163314612f3c565b8383158015612284575080f35b818086819361229582341015612f74565b6009546001600160a01b0316908390612313575bf1156103af5760408051938452606060208501819052600b908501526a37b934b3b4b730ba34b7b760a91b60808501528301526001600160a01b0316907f66aecc579aa1ef463c0ed1547c2cb6163370e6311a60cba815252acbb398f2139060a090a28180808380f35b506108fc6122a9565b346102ac57806003193601126102ac576020600c54604051908152f35b346102ac5760a03660031901126102ac57612352612a23565b8161235b612a39565b612363612a4f565b608435936003851015610c63576001600160a01b0316803b15610c63576040516376e674df60e01b81526001600160a01b03938416600482015291909216602482015260648035604483015281019390935281908390608490829084905af180156123dd576123cf5780f35b6123d891612be1565b818180f35b50604051903d90823e3d90fd5b346102ac57806003193601126102ac5733815280602052604081208054156124e45760049061241833613842565b0180549081156124a85782905561243181600154612b45565b60015561246c828060018060a01b036008541660405182602082019163e19fb8f560e01b8352876024820152602481526107f7604482612be1565b81808080843382f1156123dd576040519081527ff9984c8173c4b4ff9cc454f76ed19c053f4490ccb224fd9ddffeb4ef4bea353060203392a280f35b60405162461bcd60e51b81526020600482015260146024820152734e6f20696e74657265737420746f20636c61696d60601b6044820152606490fd5b60405162461bcd60e51b8152602060048201526012602482015271139bc8199d5b991cc819195c1bdcda5d195960721b6044820152606490fd5b346102ac5760603660031901126102ac57600a546024359060443590600435906001600160a01b031633036125e657612561670de0b6b3a7640000831015612b52565b60055481106125c457506040519161257883612bc5565b82526020820152600554680100000000000000008110156125b057906125a78260016125ad9401600555612a7b565b90612e70565b80f35b634e487b7160e01b83526041600452602483fd5b6125a7906125ad9392604051936125da85612bc5565b84526020840152612a7b565b6359f8b11760e11b8452600484fd5b346102ac5760203660031901126102ac57604061012091612614612a23565b81610100845161262381612b92565b82815282602082015282868201528260608201528260808201528260a08201528260c08201528260e0820152015260018060a01b03168152806020522060405161266c81612b92565b8154918282526001810154602083019081526002820154604084019081526003830154606085019081526004840154906080860191825260058501549260a0870193845260068601549460c08801958652610100600860078901549860e08b01998a52015498019788526040519889525160208901525160408801525160608701525160808601525160a08501525160c08401525160e083015251610100820152f35b346102ac5760203660031901126102ac5760206102f161272d612a23565b612d52565b346102ac5760403660031901126102ac576020610921612750612a23565b612758612a39565b90612c10565b346102ac5760203660031901126102ac57610120906040906001600160a01b03612786612a23565b16815280602052208054906001810154906002810154600382015460048301546005840154916006850154936008600787015496015496604051988952602089015260408801526060870152608086015260a085015260c084015260e0830152610100820152f35b346102ac5760203660031901126102ac57600435906005548210156102ac57604061281883612a7b565b506001815491015482519182526020820152f35b346102ac57806003193601126102ac576020604051662386f26fc100008152f35b346102ac5760203660031901126102ac57600a54600435906001600160a01b0316330361041157612888670de0b6b3a7640000821015612b52565b60025562015180420460035580f35b346102ac576128a536612a65565b90916128af6137ae565b918215612905575b8291906002545b8183106128e35760206102f1876128de886128d98984612afc565b612b25565b612b45565b909192670de0b6b3a76400006128fb83600193612afc565b04930191906128be565b670de0b6b3a764000092506128b7565b346102ac5760203660031901126102ac5761292e612a23565b600a546001600160a01b03163303610411576001600160a01b0316801561298857600980546001600160a01b031916821790557f279ea638680bba6a87fddd8bcdbc37d94eee92841e1dfec2ab0f79662c7093118280a280f35b60405162461bcd60e51b815260206004820152601760248201527f496e76616c6964207265736572766520616464726573730000000000000000006044820152606490fd5b346102ac5760203660031901126102ac5760206102f1600435613758565b3461070f578160031936011261070f57807f30d714d36be891ba5851837992c580dee4624dc21d19d9fecbcabfcb0e7ce28060209252f35b600435906001600160a01b0382168203610cce57565b602435906001600160a01b0382168203610cce57565b604435906001600160a01b0382168203610cce57565b6040906003190112610cce576004359060243590565b600554811015612a9a57600560005260206000209060011b0190600090565b634e487b7160e01b600052603260045260246000fd5b6080906003190112610cce576004356001600160a01b0381168103610cce5790602435906044359060643590565b34610cce576000366003190112610cce576020604051620151808152f35b81810292918115918404141715612b0f57565b634e487b7160e01b600052601160045260246000fd5b8115612b2f570490565b634e487b7160e01b600052601260045260246000fd5b91908203918211612b0f57565b15612b5957565b60405162461bcd60e51b815260206004820152601160248201527052617465206d757374206265203e3d203160781b6044820152606490fd5b610120810190811067ffffffffffffffff821117612baf57604052565b634e487b7160e01b600052604160045260246000fd5b6040810190811067ffffffffffffffff821117612baf57604052565b90601f8019910116810190811067ffffffffffffffff821117612baf57604052565b51908115158203610cce57565b6040805163239ad4ef60e21b81526001600160a01b03938416600482018190529392909216919081602481855afa908115612cc057600091612ccc575b50159182612c5a57505090565b602091925060246040518094819363b69e5c7760e01b835260048301525afa908115612cc057600091612c8e575b50151590565b90506020813d602011612cb8575b81612ca960209383612be1565b81010312610cce575138612c88565b3d9150612c9c565b6040513d6000823e3d90fd5b90506040813d604011612cfe575b81612ce760409383612be1565b81010312610cce57612cf890612c03565b38612c4d565b3d9150612cda565b15612d0d57565b60405162461bcd60e51b815260206004820152601e60248201527f696e746572657374496e646578206d757374206e6f74206265207a65726f00006044820152606490fd5b60018060a01b03166000526000602052604060002060405190612d7482612b92565b805480835260018201546020840152600282015460408401526003820154906008606085019383855260048101546080870152600581015460a0870152600681015460c0870152600781015460e0870152015461010085015215612e6857612ddd901515612d06565b612de56137ae565b8251670de0b6b3a7640000810290808204670de0b6b3a76400001490151715612b0f57670de0b6b3a7640000820291808304670de0b6b3a76400001490151715612b0f57611b43612e48926ec097ce7bc90715b34b9f1000000000945190612b25565b049051808211600014612e6157612e5e91612b45565b90565b5050600090565b505050600090565b9190612e86576020816001925184550151910155565b634e487b7160e01b600052600060045260246000fd5b3d15612ed7573d9067ffffffffffffffff8211612baf5760405191612ecb601f8201601f191660200184612be1565b82523d6000602084013e565b606090565b15612ee357565b60405162461bcd60e51b815260206004820152602b60248201527f4661696c656420746f20657874726163742066756e64732066726f6d206c697160448201526a1d5a591a5d1e481c1bdbdb60aa1b6064820152608490fd5b15612f4357565b60405162461bcd60e51b815260206004820152600960248201526813db9b1e481c1bdbdb60ba1b6044820152606490fd5b15612f7b57565b60405162461bcd60e51b815260206004820152601860248201527f496e73756666696369656e7420666565207061796d656e7400000000000000006044820152606490fd5b51906001600160a01b0382168203610cce57565b60015460085460405163b8cdf56160e01b81526001600160a01b039091169190602081600481865afa908115612cc0576000916132d3575b50604051635e1ead1f60e11b815290602082600481875afa908115612cc05760009161329d575b61303d9250612b45565b90801561329457670de0b6b3a7640000820291808304670de0b6b3a76400001490151715612b0f5761306e91612b25565b906040516379fed8ad60e11b8152602081600481855afa908115612cc057600091613255575b50604051634fd41dad60e11b81526004810184905290602090829060249082906001600160a01b03165afa908115612cc057600091613223575b506040516379fed8ad60e11b815292602084600481865afa938415612cc0576000946131e0575b5090604460209260405195869384926301508d4560e51b84526004840152602483015260018060a01b03165afa918215612cc0576000926131ab575b50602060049160405192838092635467a5a960e11b82525afa908115612cc057600091613171575b5061316d90670de0b6b3a764000092612afc565b0490565b90506020813d6020116131a3575b8161318c60209383612be1565b81010312610cce5751670de0b6b3a7640000613159565b3d915061317f565b9091506020813d6020116131d8575b816131c760209383612be1565b81010312610cce5751906020613131565b3d91506131ba565b919093506020823d60201161321b575b816131fd60209383612be1565b81010312610cce576044613212602093612fc0565b949192506130f5565b3d91506131f0565b90506020813d60201161324d575b8161323e60209383612be1565b81010312610cce5751386130ce565b3d9150613231565b90506020813d60201161328c575b8161327060209383612be1565b81010312610cce576020613285602492612fc0565b9150613094565b3d9150613263565b50505060025490565b90506020823d6020116132cb575b816132b860209383612be1565b81010312610cce5761303d915190613033565b3d91506132ab565b90506020813d6020116132fd575b816132ee60209383612be1565b81010312610cce57513861300c565b3d91506132e1565b906202a3008201809211612b0f57565b91908201809211612b0f57565b1561332957565b60405162461bcd60e51b8152602060048201526015602482015274131a5c5d5a591a5d1e541bdbdb081b9bdd081cd95d605a1b6044820152606490fd5b8051821015612a9a5760209160051b010190565b60018060a01b03166000526000602052604060002060405161339b81612b92565b81548152600182015460208201526002820154604082015260038201546060820152600482015460808201526005820154908160a082015261010060086006850154948560c0850152600781015460e085015201549101521561340b57620151808101809111612b0f5742101590565b50600090565b60018060a01b03166000526000602052604060002060405161343281612b92565b81549182825260018101546020830152600281015492604083019384526003820154906008606085019383855260048101546080870152600581015460a0870152600681015460c0870152600781015460e08701520154610100850152156135675761349f901515612d06565b6134a76137ae565b918051670de0b6b3a7640000810290808204670de0b6b3a76400001490151715612b0f57670de0b6b3a7640000840291848304670de0b6b3a76400001485151715612b0f576ec097ce7bc90715b34b9f100000000061351661351f93611b436135279662015180985190612b25565b04905190612b45565b935142612b45565b04908161353357505090565b906000915b8183106135455750505090565b909192670de0b6b3a764000061355d83600193612afc565b0493019190613538565b50505050600090565b60015480156137515760085460405163b8cdf56160e01b81526001600160a01b0390911690602081600481855afa908115612cc05760009161371f575b50604051635e1ead1f60e11b815290602082600481865afa908115612cc0576000916136e9575b6135de9250612b45565b91821561329457670de0b6b3a76400008302838104670de0b6b3a764000003612b0f5760049261361083602093612b25565b506040516379fed8ad60e11b815293849182905afa918215612cc0576000926136aa575b5060408051634dc8336560e11b81526004810194909452602484019190915290829060449082906001600160a01b03165afa908115612cc057600091613678575090565b90506040813d6040116136a2575b8161369360409383612be1565b81010312610cce576020015190565b3d9150613686565b91506020823d6020116136e1575b816136c560209383612be1565b81010312610cce5760446136da604093612fc0565b9250613634565b3d91506136b8565b90506020823d602011613717575b8161370460209383612be1565b81010312610cce576135de9151906135d4565b3d91506136f7565b90506020813d602011613749575b8161373a60209383612be1565b81010312610cce5751386135ad565b3d915061372d565b5060025490565b90600554805b61376a57506002549150565b6000198101818111612b0f5761377f81612a7b565b505484101561379957508015612b0f57600019018061375e565b60019293506137a89150612a7b565b50015490565b60015415613836576137c7600354620151804204612b45565b6137cf613570565b811561383157906000825b8282106137e75750505090565b909192670de0b6b3a76400006137fd8383612afc565b04908110613810579291600101906137da565b505050507812725dd1d243aba0e75fe645cc4873f9e65afe688c928e1f2190565b905090565b670de0b6b3a764000090565b6001600160a01b03166000818152602081905260409020805490918115613995576003830190815415613980576138776137ae565b928315613979576138888482612afc565b613898826128de86548094612b25565b508085116138ad575b50505055600242910155565b670de0b6b3a76400008202828104670de0b6b3a764000003612b0f57670de0b6b3a76400008602868104670de0b6b3a764000003612b0f576139078492611b4361390d956ec097ce7bc90715b34b9f100000000094612b25565b04612b45565b9081156138a157816139537f65724bab62e2b372c625ed834016c4e1750f8074aad18b22844457f35ea61d739360209360048a0161394c838254613315565b9055613315565b875561396181600154613315565b600155426007880155604051908152a23880806138a1565b5050505050565b50670de0b6b3a7640000915055600242910155565b505050565b60018060a01b0316600052600060205260406000206040516139bb81612b92565b81549081815260018301546020820152600283015460408201526003830154606082015260048301546080820152600583015460a0820152600683015460c082015261010060086007850154948560e085015201549101521561340b57600081613a52575050620151804201804211612b0f575b613a3842613305565b8111613a415790565b50620151804201804211612b0f5790565b620151808201809211613a655750613a2f565b634e487b7160e01b81526011600452602490fdfea26469706673582212201af7a21c831dc323b1fcfacc9c1caa3a7bbb52c45a15f2f8d1fb857cdfac462764736f6c634300081c0033",
  "linkReferences": {},
  "deployedLinkReferences": {}
}