{
  "_format": "hh-sol-artifact-1",
  "contractName": "LiquidityPool",
  "sourceName": "contracts/LiquidityPool.sol",
  "abi": [
    {
      "inputs": [],
      "name": "OnlyTimelockLiquidityPool",
      "type": "error"
    },
    {
      "anonymous": false,
      "inputs": [
        {
          "indexed": true,
          "internalType": "address",
          "name": "user",
          "type": "address"
        },
        {
          "indexed": false,
          "internalType": "uint256",
          "name": "amount",
          "type": "uint256"
        }
      ],
      "name": "Borrowed",
      "type": "event"
    },
    {
      "anonymous": false,
      "inputs": [
        {
          "indexed": true,
          "internalType": "address",
          "name": "user",
          "type": "address"
        },
        {
          "indexed": true,
          "internalType": "address",
          "name": "token",
          "type": "address"
        },
        {
          "indexed": false,
          "internalType": "uint256",
          "name": "amount",
          "type": "uint256"
        }
      ],
      "name": "CollateralDeposited",
      "type": "event"
    },
    {
      "anonymous": false,
      "inputs": [
        {
          "indexed": true,
          "internalType": "address",
          "name": "token",
          "type": "address"
        },
        {
          "indexed": false,
          "internalType": "bool",
          "name": "isAllowed",
          "type": "bool"
        }
      ],
      "name": "CollateralTokenStatusChanged",
      "type": "event"
    },
    {
      "anonymous": false,
      "inputs": [
        {
          "indexed": true,
          "internalType": "address",
          "name": "user",
          "type": "address"
        },
        {
          "indexed": true,
          "internalType": "address",
          "name": "token",
          "type": "address"
        },
        {
          "indexed": false,
          "internalType": "uint256",
          "name": "amount",
          "type": "uint256"
        }
      ],
      "name": "CollateralWithdrawn",
      "type": "event"
    },
    {
      "anonymous": false,
      "inputs": [
        {
          "indexed": true,
          "internalType": "address",
          "name": "user",
          "type": "address"
        },
        {
          "indexed": false,
          "internalType": "uint256",
          "name": "score",
          "type": "uint256"
        }
      ],
      "name": "CreditScoreAssigned",
      "type": "event"
    },
    {
      "anonymous": false,
      "inputs": [
        {
          "indexed": true,
          "internalType": "address",
          "name": "oldContract",
          "type": "address"
        },
        {
          "indexed": true,
          "internalType": "address",
          "name": "newContract",
          "type": "address"
        }
      ],
      "name": "CreditScoreContractUpdated",
      "type": "event"
    },
    {
      "anonymous": false,
      "inputs": [
        {
          "indexed": false,
          "internalType": "bool",
          "name": "isPaused",
          "type": "bool"
        }
      ],
      "name": "EmergencyPaused",
      "type": "event"
    },
    {
      "anonymous": false,
      "inputs": [
        {
          "indexed": true,
          "internalType": "address",
          "name": "user",
          "type": "address"
        },
        {
          "indexed": false,
          "internalType": "uint256",
          "name": "amount",
          "type": "uint256"
        },
        {
          "indexed": false,
          "internalType": "string",
          "name": "feeType",
          "type": "string"
        },
        {
          "indexed": false,
          "internalType": "uint256",
          "name": "tier",
          "type": "uint256"
        }
      ],
      "name": "FeeCollected",
      "type": "event"
    },
    {
      "anonymous": false,
      "inputs": [
        {
          "indexed": true,
          "internalType": "address",
          "name": "user",
          "type": "address"
        },
        {
          "indexed": false,
          "internalType": "uint256",
          "name": "newDeadline",
          "type": "uint256"
        }
      ],
      "name": "GracePeriodExtended",
      "type": "event"
    },
    {
      "anonymous": false,
      "inputs": [
        {
          "indexed": false,
          "internalType": "uint8",
          "name": "version",
          "type": "uint8"
        }
      ],
      "name": "Initialized",
      "type": "event"
    },
    {
      "anonymous": false,
      "inputs": [
        {
          "indexed": true,
          "internalType": "address",
          "name": "user",
          "type": "address"
        },
        {
          "indexed": true,
          "internalType": "address",
          "name": "liquidator",
          "type": "address"
        },
        {
          "indexed": false,
          "internalType": "uint256",
          "name": "amount",
          "type": "uint256"
        }
      ],
      "name": "LiquidationExecuted",
      "type": "event"
    },
    {
      "anonymous": false,
      "inputs": [
        {
          "indexed": true,
          "internalType": "address",
          "name": "user",
          "type": "address"
        }
      ],
      "name": "LiquidationStarted",
      "type": "event"
    },
    {
      "anonymous": false,
      "inputs": [
        {
          "indexed": true,
          "internalType": "address",
          "name": "applicant",
          "type": "address"
        },
        {
          "indexed": false,
          "internalType": "uint256",
          "name": "amount",
          "type": "uint256"
        },
        {
          "indexed": false,
          "internalType": "uint256",
          "name": "collateral",
          "type": "uint256"
        }
      ],
      "name": "LoanApplied",
      "type": "event"
    },
    {
      "anonymous": false,
      "inputs": [
        {
          "indexed": true,
          "internalType": "address",
          "name": "applicant",
          "type": "address"
        },
        {
          "indexed": false,
          "internalType": "uint256",
          "name": "amount",
          "type": "uint256"
        }
      ],
      "name": "LoanApproved",
      "type": "event"
    },
    {
      "anonymous": false,
      "inputs": [
        {
          "indexed": true,
          "internalType": "address",
          "name": "borrower",
          "type": "address"
        },
        {
          "indexed": false,
          "internalType": "uint256",
          "name": "amount",
          "type": "uint256"
        },
        {
          "indexed": false,
          "internalType": "uint256",
          "name": "rate",
          "type": "uint256"
        }
      ],
      "name": "LoanDisbursed",
      "type": "event"
    },
    {
      "anonymous": false,
      "inputs": [
        {
          "indexed": true,
          "internalType": "address",
          "name": "borrower",
          "type": "address"
        }
      ],
      "name": "LoanFullyRepaid",
      "type": "event"
    },
    {
      "anonymous": false,
      "inputs": [
        {
          "indexed": true,
          "internalType": "address",
          "name": "borrower",
          "type": "address"
        },
        {
          "indexed": false,
          "internalType": "uint256",
          "name": "amount",
          "type": "uint256"
        },
        {
          "indexed": false,
          "internalType": "uint256",
          "name": "remaining",
          "type": "uint256"
        }
      ],
      "name": "LoanInstallmentPaid",
      "type": "event"
    },
    {
      "anonymous": false,
      "inputs": [
        {
          "indexed": true,
          "internalType": "address",
          "name": "borrower",
          "type": "address"
        },
        {
          "indexed": false,
          "internalType": "uint256",
          "name": "penalty",
          "type": "uint256"
        }
      ],
      "name": "LoanLatePenaltyApplied",
      "type": "event"
    },
    {
      "anonymous": false,
      "inputs": [
        {
          "indexed": true,
          "internalType": "address",
          "name": "applicant",
          "type": "address"
        },
        {
          "indexed": false,
          "internalType": "uint256",
          "name": "amount",
          "type": "uint256"
        }
      ],
      "name": "LoanRejected",
      "type": "event"
    },
    {
      "anonymous": false,
      "inputs": [
        {
          "indexed": true,
          "internalType": "address",
          "name": "user",
          "type": "address"
        },
        {
          "indexed": true,
          "internalType": "address",
          "name": "liquidator",
          "type": "address"
        },
        {
          "indexed": true,
          "internalType": "address",
          "name": "collateralToken",
          "type": "address"
        },
        {
          "indexed": false,
          "internalType": "uint256",
          "name": "collateralSeized",
          "type": "uint256"
        },
        {
          "indexed": false,
          "internalType": "uint256",
          "name": "debtRepaid",
          "type": "uint256"
        }
      ],
      "name": "PartialLiquidation",
      "type": "event"
    },
    {
      "anonymous": false,
      "inputs": [
        {
          "indexed": false,
          "internalType": "bool",
          "name": "useRISC0",
          "type": "bool"
        }
      ],
      "name": "RISC0ScoreToggled",
      "type": "event"
    },
    {
      "anonymous": false,
      "inputs": [
        {
          "indexed": true,
          "internalType": "address",
          "name": "user",
          "type": "address"
        },
        {
          "indexed": false,
          "internalType": "uint256",
          "name": "amount",
          "type": "uint256"
        }
      ],
      "name": "Repaid",
      "type": "event"
    },
    {
      "anonymous": false,
      "inputs": [
        {
          "indexed": true,
          "internalType": "address",
          "name": "newReserve",
          "type": "address"
        }
      ],
      "name": "ReserveAddressUpdated",
      "type": "event"
    },
    {
      "anonymous": false,
      "inputs": [
        {
          "indexed": true,
          "internalType": "bytes32",
          "name": "role",
          "type": "bytes32"
        },
        {
          "indexed": true,
          "internalType": "bytes32",
          "name": "previousAdminRole",
          "type": "bytes32"
        },
        {
          "indexed": true,
          "internalType": "bytes32",
          "name": "newAdminRole",
          "type": "bytes32"
        }
      ],
      "name": "RoleAdminChanged",
      "type": "event"
    },
    {
      "anonymous": false,
      "inputs": [
        {
          "indexed": true,
          "internalType": "bytes32",
          "name": "role",
          "type": "bytes32"
        },
        {
          "indexed": true,
          "internalType": "address",
          "name": "account",
          "type": "address"
        },
        {
          "indexed": true,
          "internalType": "address",
          "name": "sender",
          "type": "address"
        }
      ],
      "name": "RoleGranted",
      "type": "event"
    },
    {
      "anonymous": false,
      "inputs": [
        {
          "indexed": true,
          "internalType": "bytes32",
          "name": "role",
          "type": "bytes32"
        },
        {
          "indexed": true,
          "internalType": "address",
          "name": "account",
          "type": "address"
        },
        {
          "indexed": true,
          "internalType": "address",
          "name": "sender",
          "type": "address"
        }
      ],
      "name": "RoleRevoked",
      "type": "event"
    },
    {
      "anonymous": false,
      "inputs": [
        {
          "indexed": true,
          "internalType": "address",
          "name": "token",
          "type": "address"
        },
        {
          "indexed": false,
          "internalType": "uint256",
          "name": "updatedAt",
          "type": "uint256"
        },
        {
          "indexed": false,
          "internalType": "uint256",
          "name": "currentTime",
          "type": "uint256"
        }
      ],
      "name": "StaleOracleTriggered",
      "type": "event"
    },
    {
      "anonymous": false,
      "inputs": [
        {
          "indexed": true,
          "internalType": "uint256",
          "name": "tier",
          "type": "uint256"
        },
        {
          "indexed": false,
          "internalType": "uint256",
          "name": "originationFee",
          "type": "uint256"
        },
        {
          "indexed": false,
          "internalType": "uint256",
          "name": "lateFeeAPR",
          "type": "uint256"
        }
      ],
      "name": "TierFeeUpdated",
      "type": "event"
    },
    {
      "anonymous": false,
      "inputs": [
        {
          "indexed": true,
          "internalType": "address",
          "name": "user",
          "type": "address"
        },
        {
          "indexed": false,
          "internalType": "string",
          "name": "message",
          "type": "string"
        }
      ],
      "name": "UserError",
      "type": "event"
    },
    {
      "anonymous": false,
      "inputs": [
        {
          "indexed": true,
          "internalType": "address",
          "name": "user",
          "type": "address"
        },
        {
          "indexed": false,
          "internalType": "string",
          "name": "action",
          "type": "string"
        },
        {
          "indexed": false,
          "internalType": "uint256",
          "name": "timestamp",
          "type": "uint256"
        }
      ],
      "name": "UserHistoryUpdated",
      "type": "event"
    },
    {
      "inputs": [],
      "name": "ALLOW_COLLATERAL_PERMISSION",
      "outputs": [
        {
          "internalType": "bytes32",
          "name": "",
          "type": "bytes32"
        }
      ],
      "stateMutability": "view",
      "type": "function"
    },
    {
      "inputs": [],
      "name": "DEFAULT_ADMIN_ROLE",
      "outputs": [
        {
          "internalType": "bytes32",
          "name": "",
          "type": "bytes32"
        }
      ],
      "stateMutability": "view",
      "type": "function"
    },
    {
      "inputs": [],
      "name": "DEFAULT_LIQUIDATION_THRESHOLD",
      "outputs": [
        {
          "internalType": "uint256",
          "name": "",
          "type": "uint256"
        }
      ],
      "stateMutability": "view",
      "type": "function"
    },
    {
      "inputs": [],
      "name": "DEFAULT_STALENESS_STABLE",
      "outputs": [
        {
          "internalType": "uint256",
          "name": "",
          "type": "uint256"
        }
      ],
      "stateMutability": "view",
      "type": "function"
    },
    {
      "inputs": [],
      "name": "DEFAULT_STALENESS_VOLATILE",
      "outputs": [
        {
          "internalType": "uint256",
          "name": "",
          "type": "uint256"
        }
      ],
      "stateMutability": "view",
      "type": "function"
    },
    {
      "inputs": [],
      "name": "GRACE_PERIOD",
      "outputs": [
        {
          "internalType": "uint256",
          "name": "",
          "type": "uint256"
        }
      ],
      "stateMutability": "view",
      "type": "function"
    },
    {
      "inputs": [],
      "name": "LIQUIDATION_PENALTY",
      "outputs": [
        {
          "internalType": "uint256",
          "name": "",
          "type": "uint256"
        }
      ],
      "stateMutability": "view",
      "type": "function"
    },
    {
      "inputs": [],
      "name": "SAFETY_BUFFER",
      "outputs": [
        {
          "internalType": "uint256",
          "name": "",
          "type": "uint256"
        }
      ],
      "stateMutability": "view",
      "type": "function"
    },
    {
      "inputs": [],
      "name": "SCORE_EXPIRY_PERIOD",
      "outputs": [
        {
          "internalType": "uint256",
          "name": "",
          "type": "uint256"
        }
      ],
      "stateMutability": "view",
      "type": "function"
    },
    {
      "inputs": [],
      "name": "SET_ADMIN_PERMISSION",
      "outputs": [
        {
          "internalType": "bytes32",
          "name": "",
          "type": "bytes32"
        }
      ],
      "stateMutability": "view",
      "type": "function"
    },
    {
      "inputs": [],
      "name": "SET_CREDIT_SCORE_PERMISSION",
      "outputs": [
        {
          "internalType": "bytes32",
          "name": "",
          "type": "bytes32"
        }
      ],
      "stateMutability": "view",
      "type": "function"
    },
    {
      "inputs": [],
      "name": "SET_LENDING_MANAGER_PERMISSION",
      "outputs": [
        {
          "internalType": "bytes32",
          "name": "",
          "type": "bytes32"
        }
      ],
      "stateMutability": "view",
      "type": "function"
    },
    {
      "inputs": [],
      "name": "SET_MAX_PRICE_AGE_PERMISSION",
      "outputs": [
        {
          "internalType": "bytes32",
          "name": "",
          "type": "bytes32"
        }
      ],
      "stateMutability": "view",
      "type": "function"
    },
    {
      "inputs": [],
      "name": "SET_MIN_PARTIAL_LIQUIDATION_AMOUNT_PERMISSION",
      "outputs": [
        {
          "internalType": "bytes32",
          "name": "",
          "type": "bytes32"
        }
      ],
      "stateMutability": "view",
      "type": "function"
    },
    {
      "inputs": [],
      "name": "SET_PRICE_FEED_PERMISSION",
      "outputs": [
        {
          "internalType": "bytes32",
          "name": "",
          "type": "bytes32"
        }
      ],
      "stateMutability": "view",
      "type": "function"
    },
    {
      "inputs": [],
      "name": "SET_RESERVE_ADDRESS_PERMISSION",
      "outputs": [
        {
          "internalType": "bytes32",
          "name": "",
          "type": "bytes32"
        }
      ],
      "stateMutability": "view",
      "type": "function"
    },
    {
      "inputs": [],
      "name": "SET_TIER_FEE_PERMISSION",
      "outputs": [
        {
          "internalType": "bytes32",
          "name": "",
          "type": "bytes32"
        }
      ],
      "stateMutability": "view",
      "type": "function"
    },
    {
      "inputs": [],
      "name": "TOGGLE_PAUSE_PERMISSION",
      "outputs": [
        {
          "internalType": "bytes32",
          "name": "",
          "type": "bytes32"
        }
      ],
      "stateMutability": "view",
      "type": "function"
    },
    {
      "inputs": [],
      "name": "UPDATE_BORROW_TIER_PERMISSION",
      "outputs": [
        {
          "internalType": "bytes32",
          "name": "",
          "type": "bytes32"
        }
      ],
      "stateMutability": "view",
      "type": "function"
    },
    {
      "inputs": [],
      "name": "UPKEEP_COOLDOWN",
      "outputs": [
        {
          "internalType": "uint256",
          "name": "",
          "type": "uint256"
        }
      ],
      "stateMutability": "view",
      "type": "function"
    },
    {
      "inputs": [
        {
          "internalType": "address",
          "name": "token",
          "type": "address"
        }
      ],
      "name": "allowedCollateralTokens",
      "outputs": [
        {
          "internalType": "bool",
          "name": "",
          "type": "bool"
        }
      ],
      "stateMutability": "view",
      "type": "function"
    },
    {
      "inputs": [
        {
          "internalType": "uint256",
          "name": "amount",
          "type": "uint256"
        }
      ],
      "name": "borrow",
      "outputs": [],
      "stateMutability": "payable",
      "type": "function"
    },
    {
      "inputs": [
        {
          "internalType": "uint256",
          "name": "",
          "type": "uint256"
        }
      ],
      "name": "borrowTierConfigs",
      "outputs": [
        {
          "internalType": "uint256",
          "name": "minScore",
          "type": "uint256"
        },
        {
          "internalType": "uint256",
          "name": "maxScore",
          "type": "uint256"
        },
        {
          "internalType": "uint256",
          "name": "collateralRatio",
          "type": "uint256"
        },
        {
          "internalType": "int256",
          "name": "interestRateModifier",
          "type": "int256"
        },
        {
          "internalType": "uint256",
          "name": "maxLoanAmount",
          "type": "uint256"
        }
      ],
      "stateMutability": "view",
      "type": "function"
    },
    {
      "inputs": [
        {
          "internalType": "address",
          "name": "",
          "type": "address"
        }
      ],
      "name": "borrowTimestamp",
      "outputs": [
        {
          "internalType": "uint256",
          "name": "",
          "type": "uint256"
        }
      ],
      "stateMutability": "view",
      "type": "function"
    },
    {
      "inputs": [
        {
          "internalType": "enum LiquidityPool.RiskTier",
          "name": "",
          "type": "uint8"
        }
      ],
      "name": "borrowedAmountByRiskTier",
      "outputs": [
        {
          "internalType": "uint256",
          "name": "",
          "type": "uint256"
        }
      ],
      "stateMutability": "view",
      "type": "function"
    },
    {
      "inputs": [
        {
          "internalType": "address",
          "name": "user",
          "type": "address"
        }
      ],
      "name": "calculateBorrowCapacity",
      "outputs": [
        {
          "internalType": "uint256",
          "name": "",
          "type": "uint256"
        }
      ],
      "stateMutability": "view",
      "type": "function"
    },
    {
      "inputs": [
        {
          "internalType": "address",
          "name": "user",
          "type": "address"
        }
      ],
      "name": "calculateCollateralValue",
      "outputs": [
        {
          "internalType": "uint256",
          "name": "",
          "type": "uint256"
        }
      ],
      "stateMutability": "view",
      "type": "function"
    },
    {
      "inputs": [
        {
          "internalType": "address",
          "name": "user",
          "type": "address"
        }
      ],
      "name": "calculateHealthFactor",
      "outputs": [
        {
          "internalType": "uint256",
          "name": "",
          "type": "uint256"
        }
      ],
      "stateMutability": "view",
      "type": "function"
    },
    {
      "inputs": [
        {
          "internalType": "address",
          "name": "user",
          "type": "address"
        }
      ],
      "name": "calculateLiquidation",
      "outputs": [
        {
          "internalType": "uint256",
          "name": "",
          "type": "uint256"
        },
        {
          "internalType": "uint256",
          "name": "",
          "type": "uint256"
        }
      ],
      "stateMutability": "view",
      "type": "function"
    },
    {
      "inputs": [
        {
          "internalType": "address",
          "name": "user",
          "type": "address"
        }
      ],
      "name": "calculateUserDebt",
      "outputs": [
        {
          "internalType": "uint256",
          "name": "",
          "type": "uint256"
        }
      ],
      "stateMutability": "view",
      "type": "function"
    },
    {
      "inputs": [
        {
          "internalType": "address",
          "name": "user",
          "type": "address"
        }
      ],
      "name": "canLend",
      "outputs": [
        {
          "internalType": "bool",
          "name": "",
          "type": "bool"
        }
      ],
      "stateMutability": "view",
      "type": "function"
    },
    {
      "inputs": [],
      "name": "checkCircuitBreakers",
      "outputs": [],
      "stateMutability": "nonpayable",
      "type": "function"
    },
    {
      "inputs": [
        {
          "internalType": "address",
          "name": "user",
          "type": "address"
        }
      ],
      "name": "checkCollateralization",
      "outputs": [
        {
          "internalType": "bool",
          "name": "isHealthy",
          "type": "bool"
        },
        {
          "internalType": "uint256",
          "name": "ratio",
          "type": "uint256"
        }
      ],
      "stateMutability": "view",
      "type": "function"
    },
    {
      "inputs": [
        {
          "internalType": "bytes",
          "name": "",
          "type": "bytes"
        }
      ],
      "name": "checkUpkeep",
      "outputs": [
        {
          "internalType": "bool",
          "name": "upkeepNeeded",
          "type": "bool"
        },
        {
          "internalType": "bytes",
          "name": "performData",
          "type": "bytes"
        }
      ],
      "stateMutability": "view",
      "type": "function"
    },
    {
      "inputs": [
        {
          "internalType": "address",
          "name": "token",
          "type": "address"
        },
        {
          "internalType": "address",
          "name": "user",
          "type": "address"
        },
        {
          "internalType": "address",
          "name": "to",
          "type": "address"
        },
        {
          "internalType": "uint256",
          "name": "amount",
          "type": "uint256"
        }
      ],
      "name": "clearCollateral",
      "outputs": [],
      "stateMutability": "nonpayable",
      "type": "function"
    },
    {
      "inputs": [
        {
          "internalType": "address",
          "name": "user",
          "type": "address"
        },
        {
          "internalType": "uint256",
          "name": "amount",
          "type": "uint256"
        }
      ],
      "name": "clearDebt",
      "outputs": [],
      "stateMutability": "nonpayable",
      "type": "function"
    },
    {
      "inputs": [
        {
          "internalType": "address",
          "name": "",
          "type": "address"
        },
        {
          "internalType": "address",
          "name": "",
          "type": "address"
        }
      ],
      "name": "collateralBalance",
      "outputs": [
        {
          "internalType": "uint256",
          "name": "",
          "type": "uint256"
        }
      ],
      "stateMutability": "view",
      "type": "function"
    },
    {
      "inputs": [
        {
          "internalType": "uint256",
          "name": "",
          "type": "uint256"
        }
      ],
      "name": "collateralTokenList",
      "outputs": [
        {
          "internalType": "address",
          "name": "",
          "type": "address"
        }
      ],
      "stateMutability": "view",
      "type": "function"
    },
    {
      "inputs": [
        {
          "internalType": "uint64",
          "name": "ficoScore",
          "type": "uint64"
        }
      ],
      "name": "convertFICOToContractScore",
      "outputs": [
        {
          "internalType": "uint256",
          "name": "",
          "type": "uint256"
        }
      ],
      "stateMutability": "pure",
      "type": "function"
    },
    {
      "inputs": [
        {
          "internalType": "address",
          "name": "",
          "type": "address"
        }
      ],
      "name": "creditScore",
      "outputs": [
        {
          "internalType": "uint256",
          "name": "",
          "type": "uint256"
        }
      ],
      "stateMutability": "view",
      "type": "function"
    },
    {
      "inputs": [],
      "name": "creditScoreContract",
      "outputs": [
        {
          "internalType": "contract ICreditScore",
          "name": "",
          "type": "address"
        }
      ],
      "stateMutability": "view",
      "type": "function"
    },
    {
      "inputs": [
        {
          "internalType": "address",
          "name": "token",
          "type": "address"
        },
        {
          "internalType": "uint256",
          "name": "amount",
          "type": "uint256"
        }
      ],
      "name": "depositCollateral",
      "outputs": [],
      "stateMutability": "nonpayable",
      "type": "function"
    },
    {
      "inputs": [
        {
          "internalType": "uint256",
          "name": "amount",
          "type": "uint256"
        },
        {
          "internalType": "address payable",
          "name": "to",
          "type": "address"
        }
      ],
      "name": "extract",
      "outputs": [],
      "stateMutability": "nonpayable",
      "type": "function"
    },
    {
      "inputs": [],
      "name": "getAdmin",
      "outputs": [
        {
          "internalType": "address",
          "name": "",
          "type": "address"
        }
      ],
      "stateMutability": "view",
      "type": "function"
    },
    {
      "inputs": [],
      "name": "getAllCollateralTokens",
      "outputs": [
        {
          "internalType": "address[]",
          "name": "",
          "type": "address[]"
        }
      ],
      "stateMutability": "view",
      "type": "function"
    },
    {
      "inputs": [],
      "name": "getAllUsers",
      "outputs": [
        {
          "internalType": "address[]",
          "name": "",
          "type": "address[]"
        }
      ],
      "stateMutability": "view",
      "type": "function"
    },
    {
      "inputs": [],
      "name": "getAllowedCollateralTokens",
      "outputs": [
        {
          "internalType": "address[]",
          "name": "",
          "type": "address[]"
        }
      ],
      "stateMutability": "view",
      "type": "function"
    },
    {
      "inputs": [],
      "name": "getAvailableLiquidity",
      "outputs": [
        {
          "internalType": "uint256",
          "name": "",
          "type": "uint256"
        }
      ],
      "stateMutability": "view",
      "type": "function"
    },
    {
      "inputs": [],
      "name": "getBalance",
      "outputs": [
        {
          "internalType": "uint256",
          "name": "",
          "type": "uint256"
        }
      ],
      "stateMutability": "view",
      "type": "function"
    },
    {
      "inputs": [],
      "name": "getBorrowRate",
      "outputs": [
        {
          "internalType": "uint256",
          "name": "",
          "type": "uint256"
        }
      ],
      "stateMutability": "pure",
      "type": "function"
    },
    {
      "inputs": [
        {
          "internalType": "address",
          "name": "user",
          "type": "address"
        }
      ],
      "name": "getBorrowTerms",
      "outputs": [
        {
          "internalType": "uint256",
          "name": "collateralRatio",
          "type": "uint256"
        },
        {
          "internalType": "int256",
          "name": "interestRateModifier",
          "type": "int256"
        },
        {
          "internalType": "uint256",
          "name": "maxLoanAmount",
          "type": "uint256"
        }
      ],
      "stateMutability": "view",
      "type": "function"
    },
    {
      "inputs": [
        {
          "internalType": "address",
          "name": "user",
          "type": "address"
        }
      ],
      "name": "getBorrowerRate",
      "outputs": [
        {
          "internalType": "uint256",
          "name": "",
          "type": "uint256"
        }
      ],
      "stateMutability": "view",
      "type": "function"
    },
    {
      "inputs": [
        {
          "internalType": "address",
          "name": "user",
          "type": "address"
        },
        {
          "internalType": "address",
          "name": "token",
          "type": "address"
        }
      ],
      "name": "getCollateral",
      "outputs": [
        {
          "internalType": "uint256",
          "name": "",
          "type": "uint256"
        }
      ],
      "stateMutability": "view",
      "type": "function"
    },
    {
      "inputs": [
        {
          "internalType": "address",
          "name": "user",
          "type": "address"
        }
      ],
      "name": "getCollateralReductionInfo",
      "outputs": [
        {
          "internalType": "enum LiquidityPool.RiskTier",
          "name": "currentTier",
          "type": "uint8"
        },
        {
          "internalType": "uint256",
          "name": "currentCollateralRatio",
          "type": "uint256"
        },
        {
          "internalType": "uint256",
          "name": "adjustedCollateralRatio",
          "type": "uint256"
        },
        {
          "internalType": "uint256",
          "name": "potentialReductionPercent",
          "type": "uint256"
        }
      ],
      "stateMutability": "view",
      "type": "function"
    },
    {
      "inputs": [
        {
          "internalType": "address",
          "name": "user",
          "type": "address"
        }
      ],
      "name": "getCreditScore",
      "outputs": [
        {
          "internalType": "uint256",
          "name": "",
          "type": "uint256"
        }
      ],
      "stateMutability": "view",
      "type": "function"
    },
    {
      "inputs": [],
      "name": "getExchangeRate",
      "outputs": [
        {
          "internalType": "uint256",
          "name": "",
          "type": "uint256"
        }
      ],
      "stateMutability": "pure",
      "type": "function"
    },
    {
      "inputs": [],
      "name": "getGlobalRiskMultiplier",
      "outputs": [
        {
          "internalType": "uint256",
          "name": "",
          "type": "uint256"
        }
      ],
      "stateMutability": "pure",
      "type": "function"
    },
    {
      "inputs": [
        {
          "internalType": "address",
          "name": "token",
          "type": "address"
        }
      ],
      "name": "getLTV",
      "outputs": [
        {
          "internalType": "uint256",
          "name": "",
          "type": "uint256"
        }
      ],
      "stateMutability": "view",
      "type": "function"
    },
    {
      "inputs": [
        {
          "internalType": "address",
          "name": "user",
          "type": "address"
        }
      ],
      "name": "getLoan",
      "outputs": [
        {
          "components": [
            {
              "internalType": "uint256",
              "name": "principal",
              "type": "uint256"
            },
            {
              "internalType": "uint256",
              "name": "outstanding",
              "type": "uint256"
            },
            {
              "internalType": "uint256",
              "name": "interestRate",
              "type": "uint256"
            },
            {
              "internalType": "uint256",
              "name": "nextDueDate",
              "type": "uint256"
            },
            {
              "internalType": "uint256",
              "name": "installmentAmount",
              "type": "uint256"
            },
            {
              "internalType": "uint256",
              "name": "penaltyBps",
              "type": "uint256"
            },
            {
              "internalType": "bool",
              "name": "active",
              "type": "bool"
            }
          ],
          "internalType": "struct LiquidityPool.Loan",
          "name": "",
          "type": "tuple"
        }
      ],
      "stateMutability": "view",
      "type": "function"
    },
    {
      "inputs": [
        {
          "internalType": "address",
          "name": "user",
          "type": "address"
        }
      ],
      "name": "getLoanDetails",
      "outputs": [
        {
          "internalType": "uint256",
          "name": "principal",
          "type": "uint256"
        },
        {
          "internalType": "uint256",
          "name": "outstanding",
          "type": "uint256"
        },
        {
          "internalType": "uint256",
          "name": "interestRate",
          "type": "uint256"
        },
        {
          "internalType": "uint256",
          "name": "nextDueDate",
          "type": "uint256"
        },
        {
          "internalType": "uint256",
          "name": "installmentAmount",
          "type": "uint256"
        },
        {
          "internalType": "uint256",
          "name": "penaltyBps",
          "type": "uint256"
        },
        {
          "internalType": "bool",
          "name": "active",
          "type": "bool"
        },
        {
          "internalType": "uint256",
          "name": "daysUntilDue",
          "type": "uint256"
        },
        {
          "internalType": "uint256",
          "name": "latePenaltyIfPaidNow",
          "type": "uint256"
        },
        {
          "internalType": "uint256",
          "name": "totalInstallmentsRemaining",
          "type": "uint256"
        }
      ],
      "stateMutability": "view",
      "type": "function"
    },
    {
      "inputs": [
        {
          "internalType": "address",
          "name": "user",
          "type": "address"
        },
        {
          "internalType": "address",
          "name": "token",
          "type": "address"
        }
      ],
      "name": "getMaxWithdrawableCollateral",
      "outputs": [
        {
          "internalType": "uint256",
          "name": "maxWithdrawable",
          "type": "uint256"
        }
      ],
      "stateMutability": "view",
      "type": "function"
    },
    {
      "inputs": [],
      "name": "getMinCollateralRatio",
      "outputs": [
        {
          "internalType": "uint256",
          "name": "",
          "type": "uint256"
        }
      ],
      "stateMutability": "pure",
      "type": "function"
    },
    {
      "inputs": [],
      "name": "getMyDebt",
      "outputs": [
        {
          "internalType": "uint256",
          "name": "",
          "type": "uint256"
        }
      ],
      "stateMutability": "view",
      "type": "function"
    },
    {
      "inputs": [
        {
          "internalType": "address",
          "name": "token",
          "type": "address"
        }
      ],
      "name": "getPriceFeed",
      "outputs": [
        {
          "internalType": "address",
          "name": "",
          "type": "address"
        }
      ],
      "stateMutability": "view",
      "type": "function"
    },
    {
      "inputs": [],
      "name": "getProtocolReserves",
      "outputs": [
        {
          "internalType": "uint256",
          "name": "",
          "type": "uint256"
        }
      ],
      "stateMutability": "view",
      "type": "function"
    },
    {
      "inputs": [],
      "name": "getReserveFactor",
      "outputs": [
        {
          "internalType": "uint256",
          "name": "",
          "type": "uint256"
        }
      ],
      "stateMutability": "pure",
      "type": "function"
    },
    {
      "inputs": [
        {
          "internalType": "address",
          "name": "user",
          "type": "address"
        }
      ],
      "name": "getRiskTier",
      "outputs": [
        {
          "internalType": "enum LiquidityPool.RiskTier",
          "name": "",
          "type": "uint8"
        }
      ],
      "stateMutability": "view",
      "type": "function"
    },
    {
      "inputs": [
        {
          "internalType": "bytes32",
          "name": "role",
          "type": "bytes32"
        }
      ],
      "name": "getRoleAdmin",
      "outputs": [
        {
          "internalType": "bytes32",
          "name": "",
          "type": "bytes32"
        }
      ],
      "stateMutability": "view",
      "type": "function"
    },
    {
      "inputs": [],
      "name": "getSupplyRate",
      "outputs": [
        {
          "internalType": "uint256",
          "name": "",
          "type": "uint256"
        }
      ],
      "stateMutability": "pure",
      "type": "function"
    },
    {
      "inputs": [
        {
          "internalType": "address",
          "name": "token",
          "type": "address"
        }
      ],
      "name": "getTokenValue",
      "outputs": [
        {
          "internalType": "uint256",
          "name": "",
          "type": "uint256"
        }
      ],
      "stateMutability": "view",
      "type": "function"
    },
    {
      "inputs": [],
      "name": "getTotalBorrows",
      "outputs": [
        {
          "internalType": "uint256",
          "name": "",
          "type": "uint256"
        }
      ],
      "stateMutability": "view",
      "type": "function"
    },
    {
      "inputs": [
        {
          "internalType": "address",
          "name": "user",
          "type": "address"
        }
      ],
      "name": "getTotalCollateralValue",
      "outputs": [
        {
          "internalType": "uint256",
          "name": "",
          "type": "uint256"
        }
      ],
      "stateMutability": "view",
      "type": "function"
    },
    {
      "inputs": [],
      "name": "getTotalSupply",
      "outputs": [
        {
          "internalType": "uint256",
          "name": "",
          "type": "uint256"
        }
      ],
      "stateMutability": "view",
      "type": "function"
    },
    {
      "inputs": [
        {
          "internalType": "address",
          "name": "user",
          "type": "address"
        }
      ],
      "name": "getUserHistory",
      "outputs": [
        {
          "components": [
            {
              "internalType": "uint256",
              "name": "firstInteractionTimestamp",
              "type": "uint256"
            },
            {
              "internalType": "uint256",
              "name": "liquidations",
              "type": "uint256"
            },
            {
              "internalType": "uint256",
              "name": "succesfullPayments",
              "type": "uint256"
            }
          ],
          "internalType": "struct UserHistory",
          "name": "",
          "type": "tuple"
        }
      ],
      "stateMutability": "view",
      "type": "function"
    },
    {
      "inputs": [],
      "name": "getUtilizationRate",
      "outputs": [
        {
          "internalType": "uint256",
          "name": "",
          "type": "uint256"
        }
      ],
      "stateMutability": "view",
      "type": "function"
    },
    {
      "inputs": [
        {
          "internalType": "bytes32",
          "name": "role",
          "type": "bytes32"
        },
        {
          "internalType": "address",
          "name": "account",
          "type": "address"
        }
      ],
      "name": "grantRole",
      "outputs": [],
      "stateMutability": "nonpayable",
      "type": "function"
    },
    {
      "inputs": [
        {
          "internalType": "bytes32",
          "name": "role",
          "type": "bytes32"
        },
        {
          "internalType": "address",
          "name": "account",
          "type": "address"
        }
      ],
      "name": "hasRole",
      "outputs": [
        {
          "internalType": "bool",
          "name": "",
          "type": "bool"
        }
      ],
      "stateMutability": "view",
      "type": "function"
    },
    {
      "inputs": [
        {
          "internalType": "address",
          "name": "user",
          "type": "address"
        }
      ],
      "name": "hasValidRISC0Score",
      "outputs": [
        {
          "internalType": "bool",
          "name": "hasValidScore",
          "type": "bool"
        },
        {
          "internalType": "uint256",
          "name": "score",
          "type": "uint256"
        },
        {
          "internalType": "uint256",
          "name": "timestamp",
          "type": "uint256"
        }
      ],
      "stateMutability": "view",
      "type": "function"
    },
    {
      "inputs": [
        {
          "internalType": "address",
          "name": "_timelock",
          "type": "address"
        },
        {
          "internalType": "address",
          "name": "_stablecoinManager",
          "type": "address"
        },
        {
          "internalType": "address",
          "name": "_lendingManager",
          "type": "address"
        },
        {
          "internalType": "address",
          "name": "_interestRateModel",
          "type": "address"
        }
      ],
      "name": "initialize",
      "outputs": [],
      "stateMutability": "nonpayable",
      "type": "function"
    },
    {
      "inputs": [],
      "name": "interestRateModel",
      "outputs": [
        {
          "internalType": "contract InterestRateModel",
          "name": "",
          "type": "address"
        }
      ],
      "stateMutability": "view",
      "type": "function"
    },
    {
      "inputs": [
        {
          "internalType": "address",
          "name": "",
          "type": "address"
        }
      ],
      "name": "isAllowedCollateral",
      "outputs": [
        {
          "internalType": "bool",
          "name": "",
          "type": "bool"
        }
      ],
      "stateMutability": "view",
      "type": "function"
    },
    {
      "inputs": [
        {
          "internalType": "address",
          "name": "",
          "type": "address"
        }
      ],
      "name": "isKnownUser",
      "outputs": [
        {
          "internalType": "bool",
          "name": "",
          "type": "bool"
        }
      ],
      "stateMutability": "view",
      "type": "function"
    },
    {
      "inputs": [
        {
          "internalType": "address",
          "name": "",
          "type": "address"
        }
      ],
      "name": "isLiquidatable",
      "outputs": [
        {
          "internalType": "bool",
          "name": "",
          "type": "bool"
        }
      ],
      "stateMutability": "view",
      "type": "function"
    },
    {
      "inputs": [],
      "name": "isPaused",
      "outputs": [
        {
          "internalType": "bool",
          "name": "",
          "type": "bool"
        }
      ],
      "stateMutability": "view",
      "type": "function"
    },
    {
      "inputs": [],
      "name": "lastUpkeep",
      "outputs": [
        {
          "internalType": "uint256",
          "name": "",
          "type": "uint256"
        }
      ],
      "stateMutability": "view",
      "type": "function"
    },
    {
      "inputs": [],
      "name": "lendingManager",
      "outputs": [
        {
          "internalType": "contract LendingManager",
          "name": "",
          "type": "address"
        }
      ],
      "stateMutability": "view",
      "type": "function"
    },
    {
      "inputs": [
        {
          "internalType": "address",
          "name": "user",
          "type": "address"
        }
      ],
      "name": "liquidationInfo",
      "outputs": [
        {
          "internalType": "bool",
          "name": "",
          "type": "bool"
        },
        {
          "internalType": "uint256",
          "name": "",
          "type": "uint256"
        },
        {
          "internalType": "uint256",
          "name": "",
          "type": "uint256"
        }
      ],
      "stateMutability": "view",
      "type": "function"
    },
    {
      "inputs": [
        {
          "internalType": "address",
          "name": "",
          "type": "address"
        }
      ],
      "name": "liquidationStartTime",
      "outputs": [
        {
          "internalType": "uint256",
          "name": "",
          "type": "uint256"
        }
      ],
      "stateMutability": "view",
      "type": "function"
    },
    {
      "inputs": [],
      "name": "liquidator",
      "outputs": [
        {
          "internalType": "address",
          "name": "",
          "type": "address"
        }
      ],
      "stateMutability": "view",
      "type": "function"
    },
    {
      "inputs": [
        {
          "internalType": "address",
          "name": "",
          "type": "address"
        }
      ],
      "name": "loans",
      "outputs": [
        {
          "internalType": "uint256",
          "name": "principal",
          "type": "uint256"
        },
        {
          "internalType": "uint256",
          "name": "outstanding",
          "type": "uint256"
        },
        {
          "internalType": "uint256",
          "name": "interestRate",
          "type": "uint256"
        },
        {
          "internalType": "uint256",
          "name": "nextDueDate",
          "type": "uint256"
        },
        {
          "internalType": "uint256",
          "name": "installmentAmount",
          "type": "uint256"
        },
        {
          "internalType": "uint256",
          "name": "penaltyBps",
          "type": "uint256"
        },
        {
          "internalType": "bool",
          "name": "active",
          "type": "bool"
        }
      ],
      "stateMutability": "view",
      "type": "function"
    },
    {
      "inputs": [],
      "name": "locked",
      "outputs": [
        {
          "internalType": "bool",
          "name": "",
          "type": "bool"
        }
      ],
      "stateMutability": "view",
      "type": "function"
    },
    {
      "inputs": [
        {
          "internalType": "address",
          "name": "",
          "type": "address"
        }
      ],
      "name": "maxPriceAge",
      "outputs": [
        {
          "internalType": "uint256",
          "name": "",
          "type": "uint256"
        }
      ],
      "stateMutability": "view",
      "type": "function"
    },
    {
      "inputs": [],
      "name": "minPartialLiquidationAmount",
      "outputs": [
        {
          "internalType": "uint256",
          "name": "",
          "type": "uint256"
        }
      ],
      "stateMutability": "view",
      "type": "function"
    },
    {
      "inputs": [],
      "name": "paused",
      "outputs": [
        {
          "internalType": "bool",
          "name": "",
          "type": "bool"
        }
      ],
      "stateMutability": "view",
      "type": "function"
    },
    {
      "inputs": [
        {
          "internalType": "bytes",
          "name": "performData",
          "type": "bytes"
        }
      ],
      "name": "performUpkeep",
      "outputs": [],
      "stateMutability": "nonpayable",
      "type": "function"
    },
    {
      "inputs": [
        {
          "internalType": "address",
          "name": "",
          "type": "address"
        }
      ],
      "name": "priceFeed",
      "outputs": [
        {
          "internalType": "address",
          "name": "",
          "type": "address"
        }
      ],
      "stateMutability": "view",
      "type": "function"
    },
    {
      "inputs": [
        {
          "internalType": "address",
          "name": "token",
          "type": "address"
        },
        {
          "internalType": "uint256",
          "name": "amount",
          "type": "uint256"
        }
      ],
      "name": "recoverFromLiquidation",
      "outputs": [],
      "stateMutability": "nonpayable",
      "type": "function"
    },
    {
      "inputs": [
        {
          "internalType": "bytes32",
          "name": "role",
          "type": "bytes32"
        },
        {
          "internalType": "address",
          "name": "account",
          "type": "address"
        }
      ],
      "name": "renounceRole",
      "outputs": [],
      "stateMutability": "nonpayable",
      "type": "function"
    },
    {
      "inputs": [],
      "name": "repay",
      "outputs": [],
      "stateMutability": "payable",
      "type": "function"
    },
    {
      "inputs": [],
      "name": "repayInstallment",
      "outputs": [],
      "stateMutability": "payable",
      "type": "function"
    },
    {
      "inputs": [],
      "name": "reserveAddress",
      "outputs": [
        {
          "internalType": "address",
          "name": "",
          "type": "address"
        }
      ],
      "stateMutability": "view",
      "type": "function"
    },
    {
      "inputs": [
        {
          "internalType": "bytes32",
          "name": "role",
          "type": "bytes32"
        },
        {
          "internalType": "address",
          "name": "account",
          "type": "address"
        }
      ],
      "name": "revokeRole",
      "outputs": [],
      "stateMutability": "nonpayable",
      "type": "function"
    },
    {
      "inputs": [
        {
          "internalType": "address",
          "name": "newAdmin",
          "type": "address"
        }
      ],
      "name": "setAdmin",
      "outputs": [],
      "stateMutability": "nonpayable",
      "type": "function"
    },
    {
      "inputs": [
        {
          "internalType": "address",
          "name": "token",
          "type": "address"
        },
        {
          "internalType": "bool",
          "name": "allowed",
          "type": "bool"
        }
      ],
      "name": "setAllowedCollateral",
      "outputs": [],
      "stateMutability": "nonpayable",
      "type": "function"
    },
    {
      "inputs": [
        {
          "internalType": "address",
          "name": "user",
          "type": "address"
        },
        {
          "internalType": "uint256",
          "name": "score",
          "type": "uint256"
        }
      ],
      "name": "setCreditScore",
      "outputs": [],
      "stateMutability": "nonpayable",
      "type": "function"
    },
    {
      "inputs": [
        {
          "internalType": "address",
          "name": "_creditScoreContract",
          "type": "address"
        }
      ],
      "name": "setCreditScoreContract",
      "outputs": [],
      "stateMutability": "nonpayable",
      "type": "function"
    },
    {
      "inputs": [
        {
          "internalType": "address",
          "name": "_lendingManager",
          "type": "address"
        }
      ],
      "name": "setLendingManager",
      "outputs": [],
      "stateMutability": "nonpayable",
      "type": "function"
    },
    {
      "inputs": [
        {
          "internalType": "address",
          "name": "_liquidator",
          "type": "address"
        }
      ],
      "name": "setLiquidator",
      "outputs": [],
      "stateMutability": "nonpayable",
      "type": "function"
    },
    {
      "inputs": [
        {
          "internalType": "address",
          "name": "token",
          "type": "address"
        },
        {
          "internalType": "uint256",
          "name": "age",
          "type": "uint256"
        }
      ],
      "name": "setMaxPriceAge",
      "outputs": [],
      "stateMutability": "nonpayable",
      "type": "function"
    },
    {
      "inputs": [
        {
          "internalType": "uint256",
          "name": "amount",
          "type": "uint256"
        }
      ],
      "name": "setMinPartialLiquidationAmount",
      "outputs": [],
      "stateMutability": "nonpayable",
      "type": "function"
    },
    {
      "inputs": [
        {
          "internalType": "address",
          "name": "token",
          "type": "address"
        },
        {
          "internalType": "address",
          "name": "feed",
          "type": "address"
        }
      ],
      "name": "setPriceFeed",
      "outputs": [],
      "stateMutability": "nonpayable",
      "type": "function"
    },
    {
      "inputs": [
        {
          "internalType": "address",
          "name": "_reserve",
          "type": "address"
        }
      ],
      "name": "setReserveAddress",
      "outputs": [],
      "stateMutability": "nonpayable",
      "type": "function"
    },
    {
      "inputs": [
        {
          "internalType": "uint256",
          "name": "tier",
          "type": "uint256"
        },
        {
          "internalType": "uint256",
          "name": "originationFee",
          "type": "uint256"
        },
        {
          "internalType": "uint256",
          "name": "lateFeeAPR",
          "type": "uint256"
        }
      ],
      "name": "setTierFee",
      "outputs": [],
      "stateMutability": "nonpayable",
      "type": "function"
    },
    {
      "inputs": [
        {
          "internalType": "address",
          "name": "_votingToken",
          "type": "address"
        }
      ],
      "name": "setVotingToken",
      "outputs": [],
      "stateMutability": "nonpayable",
      "type": "function"
    },
    {
      "inputs": [],
      "name": "stablecoinManager",
      "outputs": [
        {
          "internalType": "contract StablecoinManager",
          "name": "",
          "type": "address"
        }
      ],
      "stateMutability": "view",
      "type": "function"
    },
    {
      "inputs": [
        {
          "internalType": "address",
          "name": "user",
          "type": "address"
        }
      ],
      "name": "startLiquidation",
      "outputs": [],
      "stateMutability": "nonpayable",
      "type": "function"
    },
    {
      "inputs": [
        {
          "internalType": "bytes4",
          "name": "interfaceId",
          "type": "bytes4"
        }
      ],
      "name": "supportsInterface",
      "outputs": [
        {
          "internalType": "bool",
          "name": "",
          "type": "bool"
        }
      ],
      "stateMutability": "view",
      "type": "function"
    },
    {
      "inputs": [
        {
          "internalType": "uint256",
          "name": "",
          "type": "uint256"
        }
      ],
      "name": "tierFees",
      "outputs": [
        {
          "internalType": "uint256",
          "name": "originationFee",
          "type": "uint256"
        },
        {
          "internalType": "uint256",
          "name": "lateFeeAPR",
          "type": "uint256"
        }
      ],
      "stateMutability": "view",
      "type": "function"
    },
    {
      "inputs": [],
      "name": "timelock",
      "outputs": [
        {
          "internalType": "address",
          "name": "",
          "type": "address"
        }
      ],
      "stateMutability": "view",
      "type": "function"
    },
    {
      "inputs": [],
      "name": "togglePause",
      "outputs": [],
      "stateMutability": "nonpayable",
      "type": "function"
    },
    {
      "inputs": [
        {
          "internalType": "bool",
          "name": "_useRISC0",
          "type": "bool"
        }
      ],
      "name": "toggleRISC0CreditScores",
      "outputs": [],
      "stateMutability": "nonpayable",
      "type": "function"
    },
    {
      "inputs": [],
      "name": "totalBorrowedAllTime",
      "outputs": [
        {
          "internalType": "uint256",
          "name": "",
          "type": "uint256"
        }
      ],
      "stateMutability": "view",
      "type": "function"
    },
    {
      "inputs": [],
      "name": "totalFunds",
      "outputs": [
        {
          "internalType": "uint256",
          "name": "",
          "type": "uint256"
        }
      ],
      "stateMutability": "view",
      "type": "function"
    },
    {
      "inputs": [],
      "name": "totalRepaidAllTime",
      "outputs": [
        {
          "internalType": "uint256",
          "name": "",
          "type": "uint256"
        }
      ],
      "stateMutability": "view",
      "type": "function"
    },
    {
      "inputs": [
        {
          "internalType": "uint256",
          "name": "tierIndex",
          "type": "uint256"
        },
        {
          "internalType": "uint256",
          "name": "minScore",
          "type": "uint256"
        },
        {
          "internalType": "uint256",
          "name": "maxScore",
          "type": "uint256"
        },
        {
          "internalType": "uint256",
          "name": "collateralRatio",
          "type": "uint256"
        },
        {
          "internalType": "int256",
          "name": "interestRateModifier",
          "type": "int256"
        },
        {
          "internalType": "uint256",
          "name": "maxLoanAmount",
          "type": "uint256"
        }
      ],
      "name": "updateBorrowTier",
      "outputs": [],
      "stateMutability": "nonpayable",
      "type": "function"
    },
    {
      "inputs": [],
      "name": "useRISC0CreditScores",
      "outputs": [
        {
          "internalType": "bool",
          "name": "",
          "type": "bool"
        }
      ],
      "stateMutability": "view",
      "type": "function"
    },
    {
      "inputs": [
        {
          "internalType": "address",
          "name": "",
          "type": "address"
        }
      ],
      "name": "userDebt",
      "outputs": [
        {
          "internalType": "uint256",
          "name": "",
          "type": "uint256"
        }
      ],
      "stateMutability": "view",
      "type": "function"
    },
    {
      "inputs": [
        {
          "internalType": "address",
          "name": "",
          "type": "address"
        }
      ],
      "name": "userHistory",
      "outputs": [
        {
          "internalType": "uint256",
          "name": "firstInteractionTimestamp",
          "type": "uint256"
        },
        {
          "internalType": "uint256",
          "name": "liquidations",
          "type": "uint256"
        },
        {
          "internalType": "uint256",
          "name": "succesfullPayments",
          "type": "uint256"
        }
      ],
      "stateMutability": "view",
      "type": "function"
    },
    {
      "inputs": [
        {
          "internalType": "address",
          "name": "user",
          "type": "address"
        }
      ],
      "name": "userPositions",
      "outputs": [
        {
          "internalType": "uint256",
          "name": "",
          "type": "uint256"
        },
        {
          "internalType": "uint256",
          "name": "",
          "type": "uint256"
        },
        {
          "internalType": "uint256",
          "name": "",
          "type": "uint256"
        }
      ],
      "stateMutability": "view",
      "type": "function"
    },
    {
      "inputs": [
        {
          "internalType": "uint256",
          "name": "",
          "type": "uint256"
        }
      ],
      "name": "users",
      "outputs": [
        {
          "internalType": "address",
          "name": "",
          "type": "address"
        }
      ],
      "stateMutability": "view",
      "type": "function"
    },
    {
      "inputs": [],
      "name": "votingToken",
      "outputs": [
        {
          "internalType": "contract VotingToken",
          "name": "",
          "type": "address"
        }
      ],
      "stateMutability": "view",
      "type": "function"
    },
    {
      "inputs": [
        {
          "internalType": "address",
          "name": "token",
          "type": "address"
        },
        {
          "internalType": "uint256",
          "name": "amount",
          "type": "uint256"
        }
      ],
      "name": "withdrawCollateral",
      "outputs": [],
      "stateMutability": "nonpayable",
      "type": "function"
    },
    {
      "inputs": [
        {
          "internalType": "uint256",
          "name": "amount",
          "type": "uint256"
        }
      ],
      "name": "withdrawForLendingManager",
      "outputs": [],
      "stateMutability": "nonpayable",
      "type": "function"
    },
    {
      "inputs": [
        {
          "internalType": "address",
          "name": "token",
          "type": "address"
        },
        {
          "internalType": "uint256",
          "name": "amount",
          "type": "uint256"
        }
      ],
      "name": "withdrawPartialCollateral",
      "outputs": [],
      "stateMutability": "nonpayable",
      "type": "function"
    },
    {
      "stateMutability": "payable",
      "type": "receive"
    }
  ],
  "bytecode": "0x608080604052346100175761615f90816200001c8239f35b5f80fdfe6080604081815260048036101561002f575b505050361561001e575f80fd5b61002a3460a354614cab565b60a355005b5f925f3560e01c90816301c76f81146149125750806301ffc9a7146148bf57806303a42b6f14614897578063042e02cf1461485b57806305510b9114614789578063080d9c2b1461464a5780630835e1451461462a5780630b044c791461460e5780630ef7fb67146145f35780630f61b8101461457b578063100cd71d1461452157806312065fe01461262b57806314673d311461446e5780631bfe4261146144345780631fd48b9a146143fb57806320dfcae1146140ef57806323fe5a33146140d7578063248a9ca3146140ac5780632a28ec441461402b5780632a7beafe14613ffc5780632f2ff15d14613f5a57806330332f9f14613ee157806333481fc914613df7578063350c35e914613b7b578063357619a914613b4157806335f6798114613b1557806336568abe14613a83578063365b98b214613a5a57806338053ef314613a225780633d7c5d3e14613a04578063402d88831461376c5780634046ebae1461373f578063418eea3114613704578063450a375a146136de5780634585e33b14613526578063488683cd146134eb5780634a417a53146134ce5780634c8f35ab14611eab5780634c95da661461349c5780634fb3d3b11461341a5780635141df41146133e057806352226ef01461339557806355f4d9e214613233578063594ad93f1461321557806359705bb3146131f75780635a70348f14612bc65780635b66e7fc146131da5780635b6cca80146131895780635c44f10d1461316d5780635c975abb14611fd15780635f558e5314613151578063613cf420146130ec5780636579b73e146130b457806369ff0a0d1461308d5780636c648fc4146130675780636e04ff0d14612e8d5780636e9960c31461143e578063704b6c0214612dfc57806370ed11bc14612d9e57806372ed9f7b14612c045780637346f48614612bc657806373b4086b14612b4b57806376e1128614612aca57806378974cbb146129c95780637a8ce68b1461298e578063802937ac1461296f57806383475f0c1461293457806383ae734514611f2857806384bdc9a8146129125780638e6b53bc146128e057806391d148541461289d57806393a517a21461281e5780639490a51e146127e057806395eb0d15146127b2578063962a0da514612777578063968ed60014611d7857806397ed81cf146126305780639b745aec1461262b5780639b8621d51461260f5780639ce625f7146125e95780639e3b77af146125c0578063a217fddf146125a5578063a36e4ad614612306578063a5d5db0c1461209c578063a787572e14612047578063a8cf4b5214610fb9578063aca25f9a14612021578063b034012314611ff8578063b187bd2614611fd1578063b3075fb714611fa0578063b3a5a0a214611f60578063b69e5c7714611f28578063b8cdf56114611f09578063ba1c5e8014611ee6578063bc3d5a3e14611ec7578063c129d50414611eab578063c1a287e214611e8d578063c23c69d514611e55578063c39537e114611e1a578063c4ae316814611d97578063c4e41b2214611d78578063c5ebeaec146116e6578063c869d0ed14611644578063c941f3211461161b578063cc484c5c146115b9578063cf17622514611590578063cf3090121461156c578063d1f151c11461149f578063d29255f914611467578063d33219b41461143e578063d3dd2bdf1461141d578063d547741f146113df578063ddac7f1b14611356578063e19fb8f514611245578063e1c501001461113e578063e1f7c2c9146110a7578063e2842d7914611016578063e2d7462814610fbe578063e6aa216c14610fb9578063e6ae357614610f7e578063e7602b9d14610f31578063e84bae4514610f00578063e8a7da8e14610cbb578063e9ffb29114610c80578063eb8d655114610c45578063ebdcc16414610c16578063f1c5d6c214610be9578063f3fdb15a14610bc0578063f79ed94b14610b97578063f7e590ee14610b5f578063f8c8765e1461086d578063fbbff3d1146107f9578063feb50e52146106f85763ffd4aedb0361001157346106f45760803660031901126106f4576106a091610616614972565b61061e614988565b9261062761499e565b90606435918760018060a01b0380956106458260a654163314615463565b169283825260209788966097885288842091165f528652865f2061066a868254614bf8565b9055865163a9059cbb60e01b81526001600160a01b03909316908301908152602081019490945290968793849291839160400190565b03925af19081156106eb57506106b4578280f35b81813d83116106e4575b6106c88183614c7d565b810103126106e0576106d990614c9e565b505f808280f35b5080fd5b503d6106be565b513d85823e3d90fd5b8280fd5b5090346106f457806003193601126106f45781356024356001600160a01b03818116918290036107f55760a9541633036107e6578147106107cb578480809381935af13d156107c6573d6001600160401b0381116107b357825190610767601f8201601f191660200183614c7d565b81528460203d92013e5b1561077a578280f35b906020606492519162461bcd60e51b83528201526013602482015272115512081d1c985b9cd9995c8819985a5b1959606a1b6044820152fd5b604184634e487b7160e01b5f525260245ffd5b610771565b825162461bcd60e51b8152806107e281870161505b565b0390fd5b505051630925c89960e31b8152fd5b8580fd5b508290346106e05760203660031901126106e057610815614972565b6001600160a01b0381168352609a60205283832054929061083590615398565b9160058402938085046005149015171561085a57505060648351920482526020820152f35b634e487b7160e01b825260119052602490fd5b50346106f45760809081600319360112610b5b57610889614972565b610891614988565b9061089a61499e565b6064356001600160a01b0381811694909291859003610b575788549560ff8760081c161596878098610b4a575b8015610b33575b15610ad95760ff1981166001178b5587610ac8575b5060ff8a5460081c1615610a7157508290816001600160601b0360a01b95168560a954161760a955168360a554161760a555168160a654161760a65560a754161760a75560ff60a01b1960aa541660aa55610a2783519261094384614c05565b605a845261096c602094606486820152606e878201526018196060820152603283820152615ff0565b61099d855161097a81614c05565b60508152605986820152607d878201526009196060820152602883820152615ff0565b6109cc85516109ab81614c05565b60468152604f86820152608c87820152876060820152601e83820152615ff0565b6109fc85516109da81614c05565b603c815260458682015260a087820152600f6060820152601483820152615ff0565b85855191610a0983614c05565b818352603b8684015260c887840152601e6060840152820152615ff0565b662386f26fc1000060b055610a3a578280f35b7f7f26b83ff96e1f2b6a682f133852f6798a09c465da95921460cefb38474024989161ff001984541684555160018152a15f808280f35b60849060208a519162461bcd60e51b8352820152602b60248201527f496e697469616c697a61626c653a20636f6e7472616374206973206e6f74206960448201526a6e697469616c697a696e6760a81b6064820152fd5b61ffff1916610101178a555f6108e3565b895162461bcd60e51b8152602081840152602e60248201527f496e697469616c697a61626c653a20636f6e747261637420697320616c72656160448201526d191e481a5b9a5d1a585b1a5e995960921b6064820152608490fd5b50303b1580156108ce5750600160ff8216146108ce565b50600160ff8216106108c7565b5f80fd5b8380fd5b5050346106e05760203660031901126106e05760209181906001600160a01b03610b87614972565b1681526099845220549051908152f35b5050346106e057816003193601126106e05760b15490516001600160a01b039091168152602090f35b5050346106e057816003193601126106e05760a75490516001600160a01b039091168152602090f35b5050346106e05760203660031901126106e057602090610c0f610c0a614972565b615724565b9051908152f35b5050346106e05760203660031901126106e057602090610c3c610c37614972565b615d8b565b15159051908152f35b5050346106e057816003193601126106e057602090517f742d8195bebb59905cedb6c02453745e9ef7090c163e7dea727ab0849b3dfc008152f35b5050346106e057816003193601126106e057602090517fa22cb6bd33c714cffaf72f196d1ebf87829cac5214f3ad84491fa8669ede7a6a8152f35b509134610efd576020366003190112610efd57610cd6614972565b6001600160a01b038116825260b36020528282208351610cf581614c34565b60a08254958683526001840154956020840191878352600286015490818187015260038701549260608701978489528c8101549560c060ff600660808c01948a86528c60058201549c8d9101520154169901981515988981528642105f14610ef65762015180610d654289614bf8565b049a5b849c81519062093a8091828101809111610edf57421180610ed5575b610e22575b50505051151580610e18575b15610e0b57518151610da691614cab565b5f19810192908311610df85750516101409c50610dc291614bda565b985b81519a8b5260208b01528901526060880152608087015260a086015260c085015260e0840152610100830152610120820152f35b634e487b7160e01b815260118e52602490fd5b50506101409b5098610dc4565b5080511515610d95565b610e2e610e3391615d8b565b615e7e565b6005811015610ebf57865260b2602052600187872001549151908101809111610eaa57610e64620151809142614bf8565b049081151580610ea1575b610e7a575b80610d89565b612710929d5061016d91610e92610e97928651614bb3565b614bb3565b04049a5f80610e74565b50801515610e6f565b508f856011602492634e487b7160e01b835252fd5b50508f856021602492634e487b7160e01b835252fd5b5083511515610d84565b5050508f856011602492634e487b7160e01b835252fd5b839a610d68565b80fd5b50346106f45760203660031901126106f45735916005831015610efd5750610f29602092614b9c565b549051908152f35b5050346106e057806003193601126106e057602091610f4e614972565b82610f57614988565b6001600160a01b03928316845260978652922091165f908152908352819020549051908152f35b5050346106e057816003193601126106e057602090517fb438992c2c4c65322b65fd8e2dacea9efd63443e69e5ed52f4a77ed6c78f7c2a8152f35b614b7a565b50346106f45760203660031901126106f457610fd8614972565b60a9546001600160a01b03939192919084163303611009575050166001600160601b0360a01b60a854161760a85580f35b51630925c89960e31b8152fd5b828434610efd5780600319360112610efd57815191829160a15480855260208095019460a183527faadc37b8ba5645e62f4546802db221593a94729ccbfc5a97d01365a88f64987892905b828210611087576110838686611079828b0383614c7d565b51918291826149f0565b0390f35b83546001600160a01b031687529586019560019384019390910190611061565b5090346106f45760203660031901126106f4576110c2614972565b60a95490926001600160a01b03929091831633036110095750508060aa54921691826001600160601b0360a01b82161760aa5582611123575b167f7fc5e57c5215ef3b834df4680694bbed4808bf88ddc971b470cb8ef9365e63868380a380f35b6001600160a81b031981168317600160a01b1760aa556110fb565b5090346106f457602080600319360112610b5b5761115a614972565b611163816154a5565b5061120d576001600160a01b0316808552609c82528285205490939060ff166111cc5750828452609c8152818420805460ff19166001179055609d905282204290557f7f62ed89ea2c6fb057e4ea77729c1d3f18056339791fce29ac89760197b45b298280a280f35b915162461bcd60e51b815291820152601b60248201527f4c69717569646174696f6e20616c7265616479207374617274656400000000006044820152606490fd5b50905162461bcd60e51b8152918201526013602482015272506f736974696f6e206973206865616c74687960681b6044820152606490fd5b5090346106f45760203660031901126106f457813560a4549261126b60ff851615615115565b60ff1993841660011760a45560a6546001600160a01b03163303611308574782116112c5575083808080938181156112bc575b3390f1156112b1575060a4541660a45580f35b51913d9150823e3d90fd5b506108fc61129e565b606490602084519162461bcd60e51b8352820152601d60248201527f496e73756666696369656e7420636f6e74726163742062616c616e63650000006044820152fd5b608490602084519162461bcd60e51b8352820152602260248201527f4f6e6c79206c656e64696e67206d616e616765722063616e2063616c6c207468604482015261697360f01b6064820152fd5b5090346106f457806003193601126106f457611370614972565b60a954602435936001600160a01b039291831633036113d1576201518085116113a2575016835260af60205282205580f35b606490602085519162461bcd60e51b83528201526009602482015268546f6f206c6172676560b81b6044820152fd5b8351630925c89960e31b8152fd5b5090346106f457806003193601126106f45761141a91356114156001611403614988565b93838752606560205286200154615a8b565b615cb2565b80f35b5050346106e05760203660031901126106e057602090610c0f610c37614972565b5050346106e057816003193601126106e05760a95490516001600160a01b039091168152602090f35b5050346106e05760203660031901126106e05760209181906001600160a01b0361148f614972565b168152609b845220549051908152f35b509190346106e05760603660031901126106e05760a9548335919060243590604435906001600160a01b0316330361155c576114de60ab548510614fad565b82518381018181106001600160401b03821117611549577f7543d68ffbde1802767cee31f14403e1b914f7249f14f2724e7398aa10de092395969750845282815260016020820183815287895260b2602052858920925183555191015582519182526020820152a280f35b604188634e487b7160e01b5f525260245ffd5b8251630925c89960e31b81528690fd5b5050346106e057816003193601126106e05760209060ff60a4541690519015158152f35b5050346106e057816003193601126106e057611083906115ae615661565b9051918291826149f0565b5050346106e057816003193601126106e05781908260a1545b8082106115e3576020848451908152f35b90926116136001916115f486614a34565b848060a01b0391549060031b1c168752609a6020528487205490614cab565b9301906115d2565b5050346106e057816003193601126106e05760a55490516001600160a01b039091168152602090f35b50346106f45760203660031901126106f45761165e614972565b60a9546001600160a01b039190821633036116d657169182156116935750506001600160601b0360a01b60a654161760a65580f35b906020606492519162461bcd60e51b8352820152601f60248201527f496e76616c6964206c656e64696e67206d616e616765722061646472657373006044820152fd5b8351630925c89960e31b81528390fd5b5090602080600319360112610b5b5782359160a4549361170c60ff8660081c1615614cb8565b61171960ff861615615115565b60ff1994851660011760a455338652609a835281862054611d375761174661174033615eea565b50615e7e565b60058110159081611d2457828114611cea5760a35460011c8611611c8e5761176d81615d25565b8892919211611c3d5761177f33615398565b90606482029180830460641490151715611a6c5761179d9089614bb3565b11611bec5760b1546001600160a01b03908116939091908a9085611bcb575b8b6117c7838c614bf8565b9683158015611b33575b50505050508660a354926117ea60ad5460ae5490614bf8565b938c9481611aee575b505060a75416926024885180958193634fd41dad60e11b83528a8301525afa918215611ae4578a92611ab5575b50818a821215611a7f575061183490615453565b9061271091820390828211611a6c579061184d91614bb3565b04925b600c8710611a1a5762278d004201804211611a0757899361191085946118f98960068c898f99819a829a8f87519761188789614c34565b83895286890190848252808a0192835260608a01938452600c60808b019504855260a08a01966101f4885260b360c08c019960018b52338352522098518955516001890155516002880155516003870155519085015551600584015551151591019060ff801983541691151516179055565b609a8a528a89852055609b8a524289852055614b9c565b61191b8a8254614cab565b90556119298960ad54614cab565b60ad55338252609f88528682208054156119c6575b508181156119bd575b3390f1156119b357907fac59582e5396aca512fa873a2047e7f4c80f8f55d4a06cb34a78a0187f62719f9291815190858252838201527f5660f932172e1664b98577a703dd9484d374b28e3bf8c87b345bee97af612412823392a2519283523392a260a4541660a45580f35b81513d87823e3d90fd5b506108fc611947565b4290558651878152600c888201526b66697273745f626f72726f7760a01b606082015242898201525f8051602061610a83398151915260803392a25f61193e565b634e487b7160e01b8a526011825260248afd5b845162461bcd60e51b8152908101869052602660248201527f4c6f616e20616d6f756e7420746f6f20736d616c6c20666f7220616d6f7274696044820152653d30ba34b7b760d11b6064820152608490fd5b634e487b7160e01b8b526011865260248bfd5b94918a8213611a90575b5050611850565b9091945061271091820190818311611a6c5790611aac91614bb3565b04925f80611a89565b9091508681813d8311611add575b611acd8183614c7d565b81010312610b575751905f611820565b503d611ac3565b86513d8c823e3d90fd5b9194509150670de0b6b3a764000090818102918183041490151715611b20578891611b1891614bda565b925f806117f3565b634e487b7160e01b8c526011875260248cfd5b8285819382938390611bc2575bf115611bb857611ba5578651908152606088820152600b60608201526a37b934b3b4b730ba34b7b760a91b608082015283878201527f66aecc579aa1ef463c0ed1547c2cb6163370e6311a60cba815252acbb398f21360a03392a25f808b81806117d1565b634e487b7160e01b8b526021865260248bfd5b87513d8d823e3d90fd5b506108fc611b40565b50505f838b5260b28852612710611be5888d20548b614bb3565b04906117bc565b845162461bcd60e51b8152808501879052602560248201527f496e73756666696369656e7420636f6c6c61746572616c20666f722074686973604482015264103637b0b760d91b6064820152608490fd5b855162461bcd60e51b8152808601889052602560248201527f426f72726f7720616d6f756e74206578636565647320796f75722074696572206044820152641b1a5b5a5d60da1b6064820152608490fd5b835162461bcd60e51b8152808401869052603060248201527f426f72726f7720616d6f756e74206578636565647320617661696c61626c652060448201526f6c656e64696e6720636170616369747960801b6064820152608490fd5b835162461bcd60e51b815280840186905260146024820152734372656469742073636f726520746f6f206c6f7760601b6044820152606490fd5b634e487b7160e01b885260218352602488fd5b82606492519162461bcd60e51b8352820152601e60248201527f526570617920796f7572206578697374696e67206465627420666972737400006044820152fd5b5050346106e057816003193601126106e05760209060a3549051908152f35b50346106f457826003193601126106f45760a9546001600160a01b03163303611e0c575060207f228f455d7bc3d0b24a3a08d7847f391c3e78fc8aeb83acf226b7a96ee162b8ac9160ff60a45461ff00828260081c161560081b169061ff00191617918260a455519160081c1615158152a180f35b9051630925c89960e31b8152fd5b5050346106e057816003193601126106e057602090517facd38b7c4e04b2b78fc2ca994eae1a3eb206005ffa4c11fcf4a9d81c94684b2d8152f35b5050346106e05760203660031901126106e05760209181906001600160a01b03611e7d614972565b168152609d845220549051908152f35b5050346106e057816003193601126106e057602090516203f4808152f35b5050346106e057816003193601126106e0576020905160828152f35b5050346106e057816003193601126106e05760209060ae549051908152f35b5050346106e057816003193601126106e0576020905167011c37937e0800008152f35b5050346106e057816003193601126106e05760209060ad549051908152f35b5050346106e05760203660031901126106e05760209181906001600160a01b03611f50614972565b168152609a845220549051908152f35b50346106f45760203660031901126106f457359160a054831015610efd5750611f8a602092614a7d565b905491519160018060a01b039160031b1c168152f35b50346106f45760203660031901126106f45791819235815260b2602052206001815491015482519182526020820152f35b5050346106e057816003193601126106e05760209060ff60a45460081c1690519015158152f35b5050346106e057816003193601126106e05760a85490516001600160a01b039091168152602090f35b5050346106e05760203660031901126106e05760209061203f614972565b505160508152f35b5050346106e05760203660031901126106e057606091906203f480906001600160a01b03612073614972565b168352609c6020528060ff818520541693609d6020522054815193151584526020840152820152f35b5090346106f457806003193601126106f4576120b6614972565b6024359160018060a01b03809216938486526020926098845260ff8388205416156122ce57841561229657338752609c845260ff838820541661225e5790849133885260a28552838820805460ff8116156121f9575b505083516323b872dd60e01b815233928101928352306020840152604083019390935250909291908290849081906060015b038189895af180156121ef5761219b575b7ff1c0dd7e9b98bbff859029005ef89b127af049cd18df1a8d79f0b7e019911e56925084865260978252808620335f528252805f2061218f858254614cab565b9055519283523392a380f35b8183813d83116121e8575b6121b08183614c7d565b810103126107f5576121e27ff1c0dd7e9b98bbff859029005ef89b127af049cd18df1a8d79f0b7e019911e5693614c9e565b5061214f565b503d6121a6565b81513d88823e3d90fd5b60ff1916600117905560a15491925090600160401b81101561224b5784939261213e959261222e8360018a950160a155614a34565b819291549060031b9133831b921b1916179055919481939461210c565b604183634e487b7160e01b5f525260245ffd5b50816107e292515f805160206160ea83398151915233918061227f8161508a565b0390a25162461bcd60e51b8152918291820161508a565b50816107e292515f805160206160ea8339815191523391806122b781615634565b0390a25162461bcd60e51b81529182918201615634565b50816107e292515f805160206160ea8339815191523391806122ef8161502f565b0390a25162461bcd60e51b8152918291820161502f565b50346106f457816003193601126106f45761231f614972565b6024359060a4549361233760ff8660081c1615614cb8565b61234460ff861615615115565b60ff1994851660011760a455821561258f5760018060a01b0382169384875260209260978452828820335f52845284835f20541061254d57338852609a84528288205485929181612463575b5050928092916123e294878a5260978352838a20335f528352835f206123b7838254614bf8565b9055835163a9059cbb60e01b8152339181019182526020820192909252909485918291604090910190565b03818a895af1801561245957612414575b5f805160206160ca8339815191529250519283523392a360a4541660a45580f35b8183813d8311612452575b6124298183614c7d565b8101031261244e576124485f805160206160ca83398151915293614c9e565b506123f3565b8680fd5b503d61241f565b81513d89823e3d90fd5b6124d8919293506124a2670de0b6b3a764000091898c5260978852868c20335f52885261249c6124968a895f2054614bf8565b91615724565b90614bb3565b04916124b0610e2e33615d8b565b60646124d26124c96124c4610e2e33615d8b565b615d25565b50503394614bb3565b046157da565b116124e65783905f80612390565b82608492519162461bcd60e51b8352820152603b60248201527f5769746864726177616c20776f756c642076696f6c61746520746965722d626160448201527f73656420636f6c6c61746572616c20726571756972656d656e747300000000006064820152fd5b5082606492519162461bcd60e51b8352820152601760248201527f496e73756666696369656e7420636f6c6c61746572616c0000000000000000006044820152fd5b5162461bcd60e51b8152806107e2818601615634565b5050346106e057816003193601126106e05751908152602090f35b5050346106e057816003193601126106e05760a65490516001600160a01b039091168152602090f35b5050346106e05760203660031901126106e057602090610c0f61260a614972565b6155e8565b5050346106e057816003193601126106e0576020905160058152f35b6149d5565b5090346106f457806003193601126106f45761264a614972565b60a95460243592916001600160a01b0391821633036127675716928315612725573084146126eb57606483116126b457507f4afae6838a181695abc7978598380d73bc2144eb38580c130f86e4b1e6531e159160209184865260998352818187205551908152a280f35b6020606492519162461bcd60e51b8352820152601260248201527153636f7265206f7574206f662072616e676560701b6044820152fd5b6020606492519162461bcd60e51b8352820152601560248201527424b73b30b634b21030b2323932b9b99d1039b2b63360591b6044820152fd5b6020606492519162461bcd60e51b8352820152601d60248201527f496e76616c696420616464726573733a207a65726f20616464726573730000006044820152fd5b8251630925c89960e31b81528590fd5b5050346106e057816003193601126106e057602090517f96737339a958f216173e690d06f324072e6dc3146e04c060bd723906d6b190768152f35b5050346106e057806003193601126106e057602090610c0f6127d2614972565b6127da614988565b9061551b565b5050346106e05760203660031901126106e05760209160ff9082906001600160a01b0361280b614972565b16815260a2855220541690519015158152f35b509134610efd576020366003190112610efd57612839614972565b6128516124c4610e2e61284b84615398565b93615d8b565b92605080820293508115918404141715905061288a5760209450606490049150808210156128825750905b51908152f35b90509061287c565b634e487b7160e01b835260118552602483fd5b50346106f457816003193601126106f457816020936128ba614988565b9235815260658552209060018060a01b03165f52825260ff815f20541690519015158152f35b828434610efd576020366003190112610efd57506129046128ff614972565b6154a5565b825191151582526020820152f35b5050346106e057816003193601126106e0576020905166b1a2bc2ec500008152f35b5050346106e057816003193601126106e057602090517fce802e42c93d0fbd61dfc706a0e806b78ac046397e07510da2f223464e4788e08152f35b5050346106e057816003193601126106e05760209060b0549051908152f35b5050346106e057816003193601126106e057602090517f0e0e24c52bc4f24612e3f568966757426acd82325205933a9270e1ce7c4d93c28152f35b5090346106f457806003193601126106f4576129e3614972565b60243592612a5b60018060a01b03612a008160a654163314615463565b831694858752612a46612a41610e2e602096609a88528a89812055609b88528a89812055609c8852888b2060ff198154169055609d88528a89812055615d8b565b614b9c565b612a51828254614bf8565b905560ae54614cab565b60ae55838552609f825260018386200180549160018301809311612ab75750915f8051602061610a833981519152939160809355600b8251928084528301526a3634b8bab4b230ba34b7b760a91b60608301524290820152a280f35b634e487b7160e01b875260119052602486fd5b50346106f457816003193601126106f457612ae3614972565b91612aec614988565b60a95490936001600160a01b0393909184163303612b3d575082168085526098602052612b1e60ff838720541661534c565b8452609e602052832091166001600160601b0360a01b82541617905580f35b8251630925c89960e31b8152fd5b50346106f45760203660031901126106f45760e09282906001600160a01b03612b72614972565b16815260b36020522080549260018201549260028301546003840154918401549260ff600660058701549601541695815197885260208801528601526060850152608084015260a0830152151560c0820152f35b5050346106e05760203660031901126106e05760209160ff9082906001600160a01b03612bf1614972565b1681526098855220541690519015158152f35b5090346106f45760209283600319360112610efd57612c21614972565b9260a354612c3460ad5460ae5490614bf8565b8115612d9557670de0b6b3a764000090818102918183041490151715612d825790612c5e91614bda565b935b60a7548451634fd41dad60e11b8152838101969096528690869060249082906001600160a01b03165afa948515612d78578395612d47575b50610e2e612ca591615d8b565b6005811015612d3457612cb9600391614b41565b500154849083811215612cf757612cd4919293949550615453565b926127109384039284841161085a57505090612cef91614bb3565b049051908152f35b92808413612d09575b5050505061287c565b9091929394506127109384019283851161085a57505090612d2991614bb3565b04905f808080612d00565b634e487b7160e01b835260218252602483fd5b9094508581813d8311612d71575b612d5f8183614c7d565b81010312610b57575193610e2e612c98565b503d612d55565b84513d85823e3d90fd5b634e487b7160e01b845260118352602484fd5b50508193612c60565b5090346106f45760203660031901126106f45781359260ab54841015610efd5750612dca60a093614b41565b508054926001820154926002830154916003840154930154938151958652602086015284015260608301526080820152f35b50346106f45760203660031901126106f457612e16614972565b60a95491906001600160a01b03908184163303612e7d5716928315612e485750506001600160a01b0319161760a95580f35b906020606492519162461bcd60e51b8352820152600f60248201526e496e76616c6964206164647265737360881b6044820152fd5b8451630925c89960e31b81528390fd5b509190346106e057612e9e36614ab2565b505060609160b454603c810180911161305457612ebc904211615151565b8151809160a15480835283602080940160a184527faadc37b8ba5645e62f4546802db221593a94729ccbfc5a97d01365a88f64987892845b8682821061303557505050612f0b92500384614c7d565b612f158351615421565b938193825b8151811015612fa0576001600160a01b03612f358284614cf9565b5116808552609c865260ff8486205416612f53575b50600101612f1a565b609d8652838520546203f4808101809111612f8d574210612f4a5786612f8691612f80600194998b614cf9565b52614d0d565b9590612f4a565b634e487b7160e01b865260118b52602486fd5b50849050858782156130295750612fb682615421565b935b8281106130015750505061108390612fdc612fea60019483519283918883016149f0565b03601f198101835282614c7d565b905b80805195869515158652850152830190614b1c565b6001906001600160a01b036130168285614cf9565b51166130228288614cf9565b5201612fb8565b91505061108391612fec565b85546001600160a01b0316845260019586019589955093019201612ef4565b634e487b7160e01b825260118552602482fd5b5050346106e05760203660031901126106e057602090610c0f613088614972565b615398565b5050346106e057816003193601126106e05760209060ff60aa5460a01c1690519015158152f35b5050346106e05760203660031901126106e05760209181906001600160a01b036130dc614972565b16815260af845220549051908152f35b5050346106e05760203660031901126106e05761108361310a614972565b918060018060a01b03841694858152609a60205261312b8282205495615398565b958152609b60205220549051938493846040919493926060820195825260208201520152565b5050346106e057816003193601126106e05760209051600a8152f35b5050346106e057816003193601126106e05760209051603c8152f35b5050346106e05760203660031901126106e0576020916001600160a01b03908290826131b3614972565b16808252609886526131ca60ff848420541661534c565b8152609e85522054169051908152f35b5050346106e057816003193601126106e057602090516103848152f35b5050346106e057816003193601126106e057602090516276a7008152f35b5050346106e057816003193601126106e05751600a47048152602090f35b5090346106f457806003193601126106f45761324d614972565b906024359182151592838103610b575760a9546001600160a01b03929083163303613385578216948587526098602052613295828589209060ff801983541691151516179055565b60a0549187805b84811061335b575b5081613352575b506132e1575b5050507f15f5cc64ca777db85f6c05fdba671568758b38329616d4d4b43bb8b092fe9a8d9160209151908152a280f35b600160401b82101561333f5750917f15f5cc64ca777db85f6c05fdba671568758b38329616d4d4b43bb8b092fe9a8d93916133248460016020960160a055614a7d565b819291549060031b9188831b921b19161790559181936132b1565b604190634e487b7160e01b5f525260245ffd5b9050155f6132ab565b888661336683614a7d565b90549060031b1c161461337b5760010161329c565b505060015f6132a4565b8351630925c89960e31b81528690fd5b5050346106e057806003193601126106e0576020916133b2614972565b906001600160a01b03908390826133c7614988565b168152609786522091165f528252805f20549051908152f35b5050346106e05760203660031901126106e057606090613406613401614972565b61524f565b919290815193151584526020840152820152f35b5050346106e05760203660031901126106e05780606092613439614972565b8183805161344681614c62565b828152826020820152015260018060a01b03168152609f6020522090805161346d81614c62565b825492838252826002600183015492602085019384520154920191825282519384525160208401525190820152f35b5050346106e05760203660031901126106e0576020906134cc6134c3610e2e610c37614972565b915180926149b4565bf35b5050346106e057816003193601126106e057602090610c0f6151a7565b5050346106e057816003193601126106e057602090517f430b074324c1d9f1ce97c9e9efd8cc6b779c8a501b53808a5cafe19682f95dd58152f35b50346106f45761353536614ab2565b60b493919354603c81018091116136cb57613551904211615151565b4260b45583019260209081818603126107f5578035906001600160401b03821161244e57019380601f860112156107f557843561358d81615190565b9561359a85519788614c7d565b818752838088019260051b8201019283116136c7578301905b8282106136a857505050845b84518110156136a4576001600160a01b03806135db8388614cf9565b511690818852609c845260ff85892054166135fb575b50506001016135bf565b609d8452848820546203f48081018091116136915790889291421015613622575b506135f1565b60a65416803b156106f457855163bcebb1d760e01b8152308882019081526001600160a01b039093166020840152918391839182908490829060400103925af1801561368757613673575b8061361c565b61367c90614c4f565b6107f557855f61366d565b85513d84823e3d90fd5b634e487b7160e01b895260118752602489fd5b8580f35b81356001600160a01b0381168103610b575781529083019083016135b3565b8780fd5b634e487b7160e01b865260118452602486fd5b5050346106e057816003193601126106e05780602092338152609a845220549051908152f35b5050346106e057816003193601126106e057602090517f5fef09193e4e8110de1cc5ba269e889a5fb9093ba33c4df4b67dc2eaa1ca1fff8152f35b5050346106e057816003193601126106e05760a454905160109190911c6001600160a01b03168152602090f35b505f366003190112610b575760a4549161378c60ff8460081c1615614cb8565b61379960ff841615615115565b600160ff198094161760a455335f52602090609a8252805f205480156139cf57341561399d57803411805f146139965781945b335f52609a8552835f206137e1878254614bf8565b90556137ef8660ae54614cab565b60ae55613801612a41610e2e33615d8b565b61380c878254614bf8565b9055335f52609f85526002845f20018054906001820180921161398357908994939291558451858152600986820152681c995c185e5b595b9d60ba1b606082015242878201525f8051602061610a83398151915260803392a2335f52609c8652845f2088815460ff811661396f575b505060a8546001600160a01b03169050806138fb575b50506138ce575b5050907f0516911bcc3a0a7412a44601057c0a0a1ec628bde049a84284bc42886653448891519283523392a260a4541660a45580f35b81806138db819334614bf8565b8181156138f2575b3390f1156106eb57845f613898565b506108fc6138e3565b8091929394503b15610b575784516340c10f1960e01b815233928101928352662386f26fc1000088046020840152915f91839182908490829060400103925af1801561396557613950575b9081889392613891565b61395c91929750614c4f565b5f95905f613946565b84513d5f823e3d90fd5b169055609d86525f858120555f888161387b565b601183634e487b7160e01b5f525260245ffd5b34946137cc565b505162461bcd60e51b815291820152600d60248201526c09aeae6e840e6cadcc8408aa89609b1b604482015260649150fd5b505162461bcd60e51b815291820152601060248201526f4e6f206465627420746f20726570617960801b604482015260649150fd5b8234610b57575f366003190112610b575760209060b4549051908152f35b8234610b57576020366003190112610b5757606090613a486124c4610e2e610c37614972565b91929081519384526020840152820152f35b5034610b57576020366003190112610b5757359060a154821015610b5757611f8a602092614a34565b5034610b575781600319360112610b5757613a9c614988565b90336001600160a01b03831603613aba57613ab8925035615cb2565b005b608490602084519162461bcd60e51b8352820152602f60248201527f416363657373436f6e74726f6c3a2063616e206f6e6c792072656e6f756e636560448201526e103937b632b9903337b91039b2b63360891b6064820152fd5b509034610b57576020366003190112610b575760a9546001600160a01b0316330361100957503560b055005b8234610b57575f366003190112610b5757602090517ffed613f2d4bec2209ff904769fa3c094c155ec5048c0bb2e17f16e523671ca2c8152f35b509034610b575780600319360112610b5757613b95614972565b6024359160018060a01b039384831694855f526020936098855260ff845f20541615613dd657865f5260978552835f20335f52855285845f205410613d9e57335f52609c855260ff845f205416613d7d57613c1590670de0b6b3a7640000613c0e613c08613c0233615398565b93615724565b89614bb3565b0490614bf8565b9060648202918083046064149015171561398357602490335f52609a865285855f20549160a55416865193848092631ee1b90b60e21b82528c898301525afa908115613d73575f91613d42575b613c6c9250614bb3565b11613d0b57908284613c969493875f5260978352835f20335f528352835f206123b7838254614bf8565b03815f895af18015613d0157613cc0575b5f805160206160ca8339815191529250519283523392a3005b8183813d8311613cfa575b613cd58183614c7d565b81010312610b5757613cf45f805160206160ca83398151915293614c9e565b50613ca7565b503d613ccb565b50513d5f823e3d90fd5b816107e292515f805160206160ea833981519152339180613d2b816150c2565b0390a25162461bcd60e51b815291829182016150c2565b90508582813d8311613d6c575b613d598183614c7d565b81010312610b5757613c6c915190613c62565b503d613d4f565b85513d5f823e3d90fd5b6107e2838580515f805160206160ea83398151915233918061227f8161508a565b6107e2838580515f805160206160ea833981519152339180613dbf8161505b565b0390a25162461bcd60e51b8152918291820161505b565b6107e2838580515f805160206160ea8339815191523391806122ef8161502f565b5034610b57576020366003190112610b575760e091613e14614972565b5f60c08351613e2281614c34565b82815282602082015282858201528260608201528260808201528260a0820152015260018060a01b03165f5260b3602052805f20815191613e6283614c34565b81549384845260018301549160208501928352600284015481860190815260038501549260608701938452850154936080870194855260c060ff600660058901549860a08b01998a5201541697019615158752825197885251602088015251908601525160608501525160808401525160a083015251151560c0820152f35b509034610b575760c0366003190112610b575760a954823592906001600160a01b03163303611e0c5750613f54613ab892613f1f60ab548210614fad565b825192613f2b84614c05565b6024358452604435602085015260643590840152608435606084015260a4356080840152614b41565b90614fe8565b5034610b575781600319360112610b57573590613f75614988565b90825f526065602052613f8d6001825f200154615a8b565b825f526065602052805f209160018060a01b031691825f5260205260ff815f20541615613fb657005b825f526065602052805f20825f526020525f20600160ff1982541617905533917f2f8788117e7eff1d82e926ec794901d17c78024a50270940304540a733656f0d5f80a4005b5034610b57576020366003190112610b575735906001600160401b0382168203610b5757610c0f602092614f5d565b8234610b57575f366003190112610b5757805160a080548083525f918252602080840194927f78fdc8d422c49ced035a9edf18d00d3c6a8d81df210f3e5e448e045e77b41e8892915b82821061408c576110838686611079828b0383614c7d565b83546001600160a01b031687529586019560019384019390910190614074565b509034610b57576020366003190112610b5757602091355f52606582526001815f2001549051908152f35b34610b57575f366003190112610b5757613ab8614d1b565b50905f366003190112610b575761410e60ff60a45460081c1615614cb8565b335f52602060b38152815f20600681019360ff855416156143c7578082019182549283341061438457600382019182548042106143555762093a8081018091116143425780421161427d575b5090600161419192019461416f818754614bf8565b8655335f52609a8752614186885f20918254614bf8565b90555460ae54614cab565b60ae5580549062278d0082018092116139835755335f52609f83526002845f20018054916001830180931161426a5750907fd3cf6d8c55fed98c7b9f9d18d95a51dbdb316503bb854fc1f676c8974cb10f4f9291558351848152601385820152721a5b9cdd185b1b1b595b9d17dc185e5b595b9d606a1b606082015242848201525f8051602061610a83398151915260803392a25492838151933485528401523392a21561423b57005b805460ff19169055337f59bd56f70adeefb0cd83dca0f34f066bed6ee442068f3d07b5fc974b944d5aa65f80a2005b601190634e487b7160e01b5f525260245ffd5b614289610e2e33615d8b565b600581101561432f579160019161419194935f5260b28952620151806142b5848c5f2001549242614bf8565b0480151580614326575b6142ce575b505091925061415a565b6142f361271061016d6142ea87870194610e9286549788614bb3565b04048093614cab565b905589519081527fce0d6b567089a0bce35e0693cdb625006f0cf915f9f3686bb0343bc2c667c1b2893392a28a806142c4565b508115156142bf565b602186634e487b7160e01b5f525260245ffd5b601185634e487b7160e01b5f525260245ffd5b875162461bcd60e51b81528086018890526009602482015268546f6f206561726c7960b81b6044820152606490fd5b855162461bcd60e51b8152808401869052601860248201527f496e73756666696369656e7420696e7374616c6c6d656e7400000000000000006044820152606490fd5b835162461bcd60e51b8152908101839052600e60248201526d27379030b1ba34bb32903637b0b760911b6044820152606490fd5b8234610b57576020366003190112610b57576020906001600160a01b0380614421614972565b165f52609e8352815f2054169051908152f35b8234610b57575f366003190112610b5757602090517f8b473ac3e35dc431c1dba0191b7615ccaca6bfeb14f9573dcaae9e614fbe8b208152f35b5034610b57576020366003190112610b5757614488614972565b60a9546001600160a01b039190821633036116d657169182156144de5760b180546001600160a01b03191684179055827f279ea638680bba6a87fddd8bcdbc37d94eee92841e1dfec2ab0f79662c7093115f80a2005b906020606492519162461bcd60e51b8352820152601760248201527f496e76616c6964207265736572766520616464726573730000000000000000006044820152fd5b8234610b57576020366003190112610b57576001600160a01b03614543614972565b165f52609f602052805f2090611083825491600260018501549401549051938493846040919493926060820195825260208201520152565b509034610b57576020366003190112610b5757813591821515809303610b575760a9546001600160a01b03163303611e0c5760aa805460ff60a01b191660a085901b60ff60a01b1617905581518381527fb01450010edba5be11857fe89630b2ff764d237a9f9f77ab651643effd86998890602090a1005b8234610b57575f366003190112610b575760209051600a8152f35b8234610b57575f366003190112610b575760209051610e108152f35b8234610b57576020366003190112610b5757602090610c0f613088614972565b509034610b575780600319360112610b5757614664614972565b9160243590335f52602093609c855260ff845f205416156147465783516323b872dd60e01b815233928101928352306020840152604083018490526001600160a01b039091169185908290819060600103815f865af1801561396557614712575b505f5260978352815f20335f5283526146e2825f20918254614cab565b90556146ed336154a5565b506146f457005b335f908152609c8352818120805460ff19169055609d909252812055005b8481813d831161473f575b6147278183614c7d565b81010312610b575761473890614c9e565b50846146c5565b503d61471d565b835162461bcd60e51b8152808301869052601a60248201527f4163636f756e74206e6f7420696e206c69717569646174696f6e0000000000006044820152606490fd5b509034610b57576020366003190112610b57576147a4614972565b916147b1610e2e84615d8b565b916147c16124c4610e2e86615d8b565b50506001600160a01b0385165f908152609a6020528290205494909290851561484c576147f5908560646124d2878a614bb3565b9060648202918083046064149015171561426a575060809461481691614bda565b9081831115614846576148298284614bf8565b925b614837825180966149b4565b60208501528301526060820152f35b5f614829565b50506080935081905f9261482b565b8234610b57576020366003190112610b57576020906001600160a01b03614880614972565b165f52609c825260ff815f20541690519015158152f35b8234610b57575f366003190112610b575760aa5490516001600160a01b039091168152602090f35b5034610b57576020366003190112610b57573563ffffffff60e01b8116809103610b5757602091637965db0b60e01b8214918215614901575b50519015158152f35b6301ffc9a760e01b149150836148f8565b8234610b57576020366003190112610b575761492c614972565b60a9549092906001600160a01b031633036149665760a4805462010000600160b01b031916601085901b62010000600160b01b0316179055005b630925c89960e31b8152fd5b600435906001600160a01b0382168203610b5757565b602435906001600160a01b0382168203610b5757565b604435906001600160a01b0382168203610b5757565b9060058210156149c15752565b634e487b7160e01b5f52602160045260245ffd5b34610b57575f366003190112610b5757602047604051908152f35b60209060206040818301928281528551809452019301915f5b828110614a17575050505090565b83516001600160a01b031685529381019392810192600101614a09565b60a154811015614a695760a15f527faadc37b8ba5645e62f4546802db221593a94729ccbfc5a97d01365a88f64987801905f90565b634e487b7160e01b5f52603260045260245ffd5b60a054811015614a695760a05f527f78fdc8d422c49ced035a9edf18d00d3c6a8d81df210f3e5e448e045e77b41e8801905f90565b906020600319830112610b57576004356001600160401b0392838211610b575780602383011215610b57578160040135938411610b575760248483010111610b57576024019190565b5f5b838110614b0c5750505f910152565b8181015183820152602001614afd565b90602091614b3581518092818552858086019101614afb565b601f01601f1916010190565b60ab54811015614a695760059060ab5f52027ffc377260a69a39dd786235c89f4bcd5d9639157731cac38071a0508750eb115a01905f90565b34610b57575f366003190112610b57576020604051670de0b6b3a76400008152f35b60058110156149c1575f5260ac60205260405f2090565b81810292918115918404141715614bc657565b634e487b7160e01b5f52601160045260245ffd5b8115614be4570490565b634e487b7160e01b5f52601260045260245ffd5b91908203918211614bc657565b60a081019081106001600160401b03821117614c2057604052565b634e487b7160e01b5f52604160045260245ffd5b60e081019081106001600160401b03821117614c2057604052565b6001600160401b038111614c2057604052565b606081019081106001600160401b03821117614c2057604052565b90601f801991011681019081106001600160401b03821117614c2057604052565b51908115158203610b5757565b91908201809211614bc657565b15614cbf57565b60405162461bcd60e51b815260206004820152601260248201527110dbdb9d1c9858dd081a5cc81c185d5cd95960721b6044820152606490fd5b8051821015614a695760209160051b010190565b5f198114614bc65760010190565b614d23615661565b5f5b8151811015614dc5576001600160a01b0380614d418385614cf9565b511690815f52602091609e8352604091825f205416614d66575b505050600101614d25565b614d7d614d75610e1092615912565b905042614bf8565b11614d885780614d5b565b60a4805461ff00191661010017905551600181527f228f455d7bc3d0b24a3a08d7847f391c3e78fc8aeb83acf226b7a96ee162b8ac9350909150a1565b505060a3548015159081614f26575b50614e0b5760a15460a6545f91906001600160a01b03908116835b838110614e71575050508015159182614e47575b5050614e0b57565b61010061ff001960a454161760a4557f228f455d7bc3d0b24a3a08d7847f391c3e78fc8aeb83acf226b7a96ee162b8ac602060405160018152a1565b909150606481029080820460641490151715614bc657600591614e6991614bda565b115f80614e03565b614e7a81614a34565b905460408051632cf5889360e01b815230600482015260039390931b9190911c85166001600160a01b031660248301529060208082604481885afa928315614f1d57505f92614ee7575b5050614ed3575b600101614def565b93614edf600191614d0d565b949050614ecb565b90809250813d8311614f16575b614efe8183614c7d565b81010312610b5757614f0f90614c9e565b5f80614ec4565b503d614ef4565b513d5f823e3d90fd5b9050614f3760ad5460ae5490614bf8565b606481029080820460641490151715614bc657605f91614f5691614bda565b115f614dd4565b6001600160401b0380911661012c811115614fa757610352811015614fa05761012b1901818111614bc6578116606402808216908103614bc65761022690041690565b5050606490565b50505f90565b15614fb457565b60405162461bcd60e51b815260206004820152600c60248201526b24b73b30b634b2103a34b2b960a11b6044820152606490fd5b919061501c576080816004925184556020810151600185015560408101516002850155606081015160038501550151910155565b634e487b7160e01b5f525f60045260245ffd5b606090602081526011602082015270151bdad95b881b9bdd08185b1b1bddd959607a1b60408201520190565b606090602081526014602082015273496e73756666696369656e742062616c616e636560601b60408201520190565b60609060208152601960208201527f4163636f756e7420697320696e206c69717569646174696f6e0000000000000060408201520190565b60809060208152603260208201527f5769746864726177616c20776f756c64206d616b6520706f736974696f6e20756040820152711b99195c98dbdb1b185d195c985b1a5e995960721b60608201520190565b1561511c57565b60405162461bcd60e51b815260206004820152600d60248201526c4e6f207265656e7472616e637960981b6044820152606490fd5b1561515857565b60405162461bcd60e51b815260206004820152601060248201526f155c1ad9595c081d1a1c9bdd1d1b195960821b6044820152606490fd5b6001600160401b038111614c205760051b60200190565b60a3548015615218575f905f60a1545b8082106151df575050606482029180830460641490151715614bc6576151dc91614bda565b90565b90926152106001916151f086614a34565b848060a01b0391549060031b1c165f52609a60205260405f205490614cab565b9301906151b7565b505f90565b90816060910312610b575780516001600160401b0381168103610b575791604061524960208401614c9e565b92015190565b60aa549060ff8260a01c1615801561533b575b6153315760405163d3dd2bdf60e01b81526001600160a01b0391821660048201529160609183916024918391165afa5f9182918291816152fd575b506152ae575b5050505f905f905f90565b806152eb575b806152d5575b6152c457806152a3565b6152cd90614f5d565b916001929190565b506276a7008201808311614bc6574211156152ba565b506001600160401b03811615156152b4565b91509250615323915060603d60601161532a575b61531b8183614c7d565b81019061521d565b925f61529d565b503d615311565b50505f905f905f90565b506001600160a01b03821615615262565b1561535357565b60405162461bcd60e51b815260206004820152601f60248201527f546f6b656e206e6f7420616c6c6f77656420617320636f6c6c61746572616c006044820152606490fd5b905f916153a3615661565b925f5b845181101561541b576001600160a01b03806153c28388614cf9565b511690815f5260209060978252604091825f209187165f52525f205490816153ef575b50506001016153a6565b92670de0b6b3a764000061540c6154139361249c60019697615724565b0490614cab565b91905f6153e5565b50925050565b9061542b82615190565b6154386040519182614c7d565b8281528092615449601f1991615190565b0190602036910137565b600160ff1b8114614bc6575f0390565b1561546a57565b60405162461bcd60e51b815260206004820152601360248201527227b7363c902632b73234b733a6b0b730b3b2b960691b6044820152606490fd5b906154af82615398565b6001600160a01b0383165f908152609a602052604090205492831561550f578115615505576124c4610e2e6154e392615d8b565b50509260648202918204606403614bc6576154fd91614bda565b918210159190565b505090505f905f90565b50600192505f19919050565b91909160018060a01b038084165f52609760205260405f209082165f5260205260405f205492609a60205260405f20549081156155e35761555b90615724565b9061559f670de0b6b3a764000093846155748589614bb3565b049260646124d2615587610e2e85615d8b565b926155976124c4610e2e87615d8b565b505090614bb3565b90818111156155da57906155b291614bf8565b828102928184041490151715614bc6576155cb91614bda565b918083116155d65750565b9150565b505f9450505050565b505050565b6001600160a01b0381165f908152609a602052604090205490811561562d5761561090615398565b90606482029180830460641490151715614bc6576151dc91614bda565b50505f1990565b6060906020815260126020820152710416d6f756e74206d757374206265203e20360741b60408201520190565b60a0545f805b8281106156dc575061567890615421565b905f805b8281106156895750505090565b61569281614a7d565b905460039190911b1c6001600160a01b03165f8181526098602052604090205460ff166156c3575b5060010161567c565b826156d591612f806001949588614cf9565b91906156ba565b6156e581614a7d565b60018060a01b0391549060031b1c165f52609860205260ff60405f205416615710575b600101615667565b9061571c600191614d0d565b919050615708565b6004602061573183615912565b509260018060a01b038091165f52609e825260405f2054166040519283809263313ce56760e01b82525afa80156157cf575f90615792575b60ff91501660120360ff8111614bc65760ff1690604d8211614bc6576151dc91600a0a90614bb3565b506020813d6020116157c7575b816157ac60209383614c7d565b81010312610b57575160ff81168103610b575760ff90615769565b3d915061579f565b6040513d5f823e3d90fd5b916157e490615d8b565b9060058110156149c1576157f781614b41565b5050806158245750605f111561580a5790565b605f810290808204605f1490151715614bc6576064900490565b6001810361585b5750605581106158505750605a810290808204605a1490151715614bc6576064900490565b6052111561580a5790565b600281036158a85750604b81106158875750605581029080820460551490151715614bc6576064900490565b6048116151dc57605c810290808204605c1490151715614bc6576064900490565b6003146158b3575090565b604181106158d65750605081029080820460501490151715614bc6576064900490565b603e11156158e15790565b605a810290808204605a1490151715614bc6576064900490565b519069ffffffffffffffffffff82168203610b5757565b9060018060a01b03918281165f52609e602052604092835f2054168015615a52579260a0600494825195868092633fabe5a360e21b82525afa8015613d01575f80935f965f936159f8575b5061597161596b8842614bf8565b91616015565b106159c65769ffffffffffffffffffff80911691161061599057509190565b5162461bcd60e51b815260206004820152601060248201526f5374616c6520726f756e64206461746160801b6044820152606490fd5b825162461bcd60e51b815260206004820152600b60248201526a5374616c6520707269636560a81b6044820152606490fd5b94509550505060a0823d60a011615a4a575b81615a1760a09383614c7d565b81010312610b5757615a28826158fb565b936020830151615a3f6080606086015195016158fb565b95909395915f61595d565b3d9150615a0a565b835162461bcd60e51b8152602060048201526012602482015271141c9a58d94819995959081b9bdd081cd95d60721b6044820152606490fd5b805f52602060658152604091825f20335f52825260ff835f20541615615ab057505050565b33835191615abd83614c62565b602a83528383019085368337835115614a69576030825383519260019360011015614a69576078602186015360295b848111615c715750615bec5790855191608083018381106001600160401b03821117614c2057875260428352858301936060368637835115614a695760308553835160011015614a6957607860218501536041905b808211615c2e575050615bec576107e2938693615bd093615bc1604894615b989a519a8b957f416363657373436f6e74726f6c3a206163636f756e74200000000000000000008c8801525180926037880190614afb565b8401917001034b99036b4b9b9b4b733903937b6329607d1b603784015251809386840190614afb565b01036028810187520185614c7d565b5192839262461bcd60e51b845260048401526024830190614b1c565b60648587519062461bcd60e51b825280600483015260248201527f537472696e67733a20686578206c656e67746820696e73756666696369656e746044820152fd5b9091600f81166010811015614a69576f181899199a1a9b1b9c1cb0b131b232b360811b901a615c5d84876160b8565b5360041c918015614bc6575f190190615b41565b90600f81166010811015614a69576f181899199a1a9b1b9c1cb0b131b232b360811b901a615c9f83886160b8565b5360041c908015614bc6575f1901615aec565b90815f52606560205260405f209060018060a01b031690815f5260205260ff60405f205416615cdf575050565b815f52606560205260405f20815f5260205260405f2060ff19815416905533917ff6391f5c32d9c69d2a47ea670b442974b53935d1edc7fd64eb21e047a839171b5f80a4565b60058110156149c157615d3790614b41565b509060405190615d4682614c05565b82548252600183015460208301526064615d84608060028601549485604082015260046003880154978860608401520154918291015260a354614bb3565b0491929190565b60aa5460ff8160a01c1680615e6c575b615dbb575b506001600160a01b03165f9081526099602052604090205490565b60405163d3dd2bdf60e01b81526001600160a01b038381166004830152909160609183916024918391165afa5f91815f915f93615e47575b50615e00575b5050615da0565b80615e35575b615e11575b80615df9565b6276a7008101809111614bc657421115615e2b5780615e0b565b6151dc9150614f5d565b506001600160401b0382161515615e06565b91509250615e64915060603d60601161532a5761531b8183614c7d565b91925f615df3565b506001600160a01b0381161515615d9b565b60ab54905f5b828110615ea45750505f198101908111614bc65760058110156149c15790565b615ead81614b41565b505482101580615ed3575b615ec457600101615e84565b91505060058110156149c15790565b506001615edf82614b41565b500154821115615eb8565b60aa5460ff8160a01c1680615fde575b615f1e575b506001600160a01b03165f908152609960205260409020549081151590565b60405163d3dd2bdf60e01b81526001600160a01b038381166004830152909160609183916024918391165afa5f918291829181615fb6575b50615f63575b5050615eff565b81615fa3575b81615f8b575b50615f7b578080615f5c565b615f859150614f5d565b90600190565b90506276a7008101809111614bc6574211155f615f6f565b6001600160401b03831615159150615f69565b91509250615fd3915060603d60601161532a5761531b8183614c7d565b91929091905f615f56565b506001600160a01b0381161515615efa565b60ab5490600160401b821015614c2057613f54826001616013940160ab55614b41565b565b6001600160a01b039081165f81815260af6020526040902054909190806160b2575060209060a5541691602460405180948193631a650cc760e01b835260048301525afa9081156157cf575f91616078575b506160725761038490565b610e1090565b90506020813d6020116160aa575b8161609360209383614c7d565b81010312610b57576160a490614c9e565b5f616067565b3d9150616086565b91505090565b908151811015614a6957016020019056fe45892a46e6cef329bb642da6d69846d324db43d19008edc141ed82382eda1bee3c364b9decdac59fbe037e99687219ac0feed46572bfbcbd5284b6b8e67f402d3f7c433051856ef6c6f502f4e60ac20498082f86a4d68de64f1a2d06924432c4a26469706673582212209fe8b7ebf44515f670a249b58c3c5e7758e592619160338e62951c9e71a2abce64736f6c63430008180033",
  "linkReferences": {},
  "deployedLinkReferences": {}
}