{
  "_format": "hh-sol-artifact-1",
  "contractName": "LiquidityPool",
  "sourceName": "contracts/LiquidityPool.sol",
  "abi": [
    {
      "inputs": [],
      "name": "OnlyTimelockLiquidityPool",
      "type": "error"
    },
    {
      "anonymous": false,
      "inputs": [
        {
          "indexed": true,
          "internalType": "address",
          "name": "user",
          "type": "address"
        },
        {
          "indexed": false,
          "internalType": "uint256",
          "name": "amount",
          "type": "uint256"
        },
        {
          "indexed": false,
          "internalType": "bytes32",
          "name": "nullifier",
          "type": "bytes32"
        }
      ],
      "name": "BorrowWithNullifier",
      "type": "event"
    },
    {
      "anonymous": false,
      "inputs": [
        {
          "indexed": true,
          "internalType": "address",
          "name": "user",
          "type": "address"
        },
        {
          "indexed": false,
          "internalType": "uint256",
          "name": "amount",
          "type": "uint256"
        }
      ],
      "name": "Borrowed",
      "type": "event"
    },
    {
      "anonymous": false,
      "inputs": [
        {
          "indexed": true,
          "internalType": "address",
          "name": "user",
          "type": "address"
        },
        {
          "indexed": true,
          "internalType": "address",
          "name": "token",
          "type": "address"
        },
        {
          "indexed": false,
          "internalType": "uint256",
          "name": "amount",
          "type": "uint256"
        }
      ],
      "name": "CollateralDeposited",
      "type": "event"
    },
    {
      "anonymous": false,
      "inputs": [
        {
          "indexed": true,
          "internalType": "address",
          "name": "token",
          "type": "address"
        },
        {
          "indexed": false,
          "internalType": "bool",
          "name": "isAllowed",
          "type": "bool"
        }
      ],
      "name": "CollateralTokenStatusChanged",
      "type": "event"
    },
    {
      "anonymous": false,
      "inputs": [
        {
          "indexed": true,
          "internalType": "address",
          "name": "user",
          "type": "address"
        },
        {
          "indexed": true,
          "internalType": "address",
          "name": "token",
          "type": "address"
        },
        {
          "indexed": false,
          "internalType": "uint256",
          "name": "amount",
          "type": "uint256"
        }
      ],
      "name": "CollateralWithdrawn",
      "type": "event"
    },
    {
      "anonymous": false,
      "inputs": [
        {
          "indexed": true,
          "internalType": "address",
          "name": "user",
          "type": "address"
        },
        {
          "indexed": false,
          "internalType": "uint256",
          "name": "score",
          "type": "uint256"
        }
      ],
      "name": "CreditScoreAssigned",
      "type": "event"
    },
    {
      "anonymous": false,
      "inputs": [
        {
          "indexed": true,
          "internalType": "address",
          "name": "oldContract",
          "type": "address"
        },
        {
          "indexed": true,
          "internalType": "address",
          "name": "newContract",
          "type": "address"
        }
      ],
      "name": "CreditScoreContractUpdated",
      "type": "event"
    },
    {
      "anonymous": false,
      "inputs": [
        {
          "indexed": true,
          "internalType": "address",
          "name": "user",
          "type": "address"
        },
        {
          "indexed": false,
          "internalType": "string",
          "name": "source",
          "type": "string"
        },
        {
          "indexed": false,
          "internalType": "uint256",
          "name": "score",
          "type": "uint256"
        },
        {
          "indexed": false,
          "internalType": "uint256",
          "name": "convertedScore",
          "type": "uint256"
        }
      ],
      "name": "CreditScoreSourceUsed",
      "type": "event"
    },
    {
      "anonymous": false,
      "inputs": [
        {
          "indexed": true,
          "internalType": "address",
          "name": "oldSystem",
          "type": "address"
        },
        {
          "indexed": true,
          "internalType": "address",
          "name": "newSystem",
          "type": "address"
        }
      ],
      "name": "CreditSystemUpdated",
      "type": "event"
    },
    {
      "anonymous": false,
      "inputs": [
        {
          "indexed": false,
          "internalType": "bool",
          "name": "isPaused",
          "type": "bool"
        }
      ],
      "name": "EmergencyPaused",
      "type": "event"
    },
    {
      "anonymous": false,
      "inputs": [
        {
          "indexed": true,
          "internalType": "address",
          "name": "user",
          "type": "address"
        },
        {
          "indexed": false,
          "internalType": "uint256",
          "name": "amount",
          "type": "uint256"
        },
        {
          "indexed": false,
          "internalType": "string",
          "name": "feeType",
          "type": "string"
        },
        {
          "indexed": false,
          "internalType": "uint256",
          "name": "tier",
          "type": "uint256"
        }
      ],
      "name": "FeeCollected",
      "type": "event"
    },
    {
      "anonymous": false,
      "inputs": [
        {
          "indexed": true,
          "internalType": "address",
          "name": "user",
          "type": "address"
        },
        {
          "indexed": false,
          "internalType": "uint256",
          "name": "newDeadline",
          "type": "uint256"
        }
      ],
      "name": "GracePeriodExtended",
      "type": "event"
    },
    {
      "anonymous": false,
      "inputs": [
        {
          "indexed": false,
          "internalType": "uint8",
          "name": "version",
          "type": "uint8"
        }
      ],
      "name": "Initialized",
      "type": "event"
    },
    {
      "anonymous": false,
      "inputs": [
        {
          "indexed": true,
          "internalType": "address",
          "name": "user",
          "type": "address"
        },
        {
          "indexed": true,
          "internalType": "address",
          "name": "liquidator",
          "type": "address"
        },
        {
          "indexed": false,
          "internalType": "uint256",
          "name": "amount",
          "type": "uint256"
        }
      ],
      "name": "LiquidationExecuted",
      "type": "event"
    },
    {
      "anonymous": false,
      "inputs": [
        {
          "indexed": true,
          "internalType": "address",
          "name": "user",
          "type": "address"
        }
      ],
      "name": "LiquidationStarted",
      "type": "event"
    },
    {
      "anonymous": false,
      "inputs": [
        {
          "indexed": true,
          "internalType": "address",
          "name": "applicant",
          "type": "address"
        },
        {
          "indexed": false,
          "internalType": "uint256",
          "name": "amount",
          "type": "uint256"
        },
        {
          "indexed": false,
          "internalType": "uint256",
          "name": "collateral",
          "type": "uint256"
        }
      ],
      "name": "LoanApplied",
      "type": "event"
    },
    {
      "anonymous": false,
      "inputs": [
        {
          "indexed": true,
          "internalType": "address",
          "name": "applicant",
          "type": "address"
        },
        {
          "indexed": false,
          "internalType": "uint256",
          "name": "amount",
          "type": "uint256"
        }
      ],
      "name": "LoanApproved",
      "type": "event"
    },
    {
      "anonymous": false,
      "inputs": [
        {
          "indexed": true,
          "internalType": "address",
          "name": "borrower",
          "type": "address"
        },
        {
          "indexed": false,
          "internalType": "uint256",
          "name": "amount",
          "type": "uint256"
        },
        {
          "indexed": false,
          "internalType": "uint256",
          "name": "rate",
          "type": "uint256"
        }
      ],
      "name": "LoanDisbursed",
      "type": "event"
    },
    {
      "anonymous": false,
      "inputs": [
        {
          "indexed": true,
          "internalType": "address",
          "name": "borrower",
          "type": "address"
        }
      ],
      "name": "LoanFullyRepaid",
      "type": "event"
    },
    {
      "anonymous": false,
      "inputs": [
        {
          "indexed": true,
          "internalType": "address",
          "name": "borrower",
          "type": "address"
        },
        {
          "indexed": false,
          "internalType": "uint256",
          "name": "amount",
          "type": "uint256"
        },
        {
          "indexed": false,
          "internalType": "uint256",
          "name": "remaining",
          "type": "uint256"
        }
      ],
      "name": "LoanInstallmentPaid",
      "type": "event"
    },
    {
      "anonymous": false,
      "inputs": [
        {
          "indexed": true,
          "internalType": "address",
          "name": "borrower",
          "type": "address"
        },
        {
          "indexed": false,
          "internalType": "uint256",
          "name": "penalty",
          "type": "uint256"
        }
      ],
      "name": "LoanLatePenaltyApplied",
      "type": "event"
    },
    {
      "anonymous": false,
      "inputs": [
        {
          "indexed": true,
          "internalType": "address",
          "name": "applicant",
          "type": "address"
        },
        {
          "indexed": false,
          "internalType": "uint256",
          "name": "amount",
          "type": "uint256"
        }
      ],
      "name": "LoanRejected",
      "type": "event"
    },
    {
      "anonymous": false,
      "inputs": [
        {
          "indexed": true,
          "internalType": "address",
          "name": "user",
          "type": "address"
        },
        {
          "indexed": true,
          "internalType": "address",
          "name": "liquidator",
          "type": "address"
        },
        {
          "indexed": true,
          "internalType": "address",
          "name": "collateralToken",
          "type": "address"
        },
        {
          "indexed": false,
          "internalType": "uint256",
          "name": "collateralSeized",
          "type": "uint256"
        },
        {
          "indexed": false,
          "internalType": "uint256",
          "name": "debtRepaid",
          "type": "uint256"
        }
      ],
      "name": "PartialLiquidation",
      "type": "event"
    },
    {
      "anonymous": false,
      "inputs": [
        {
          "indexed": false,
          "internalType": "bool",
          "name": "useRISC0",
          "type": "bool"
        }
      ],
      "name": "RISC0ScoreToggled",
      "type": "event"
    },
    {
      "anonymous": false,
      "inputs": [
        {
          "indexed": true,
          "internalType": "address",
          "name": "user",
          "type": "address"
        },
        {
          "indexed": false,
          "internalType": "uint256",
          "name": "amount",
          "type": "uint256"
        }
      ],
      "name": "Repaid",
      "type": "event"
    },
    {
      "anonymous": false,
      "inputs": [
        {
          "indexed": true,
          "internalType": "address",
          "name": "newReserve",
          "type": "address"
        }
      ],
      "name": "ReserveAddressUpdated",
      "type": "event"
    },
    {
      "anonymous": false,
      "inputs": [
        {
          "indexed": true,
          "internalType": "bytes32",
          "name": "role",
          "type": "bytes32"
        },
        {
          "indexed": true,
          "internalType": "bytes32",
          "name": "previousAdminRole",
          "type": "bytes32"
        },
        {
          "indexed": true,
          "internalType": "bytes32",
          "name": "newAdminRole",
          "type": "bytes32"
        }
      ],
      "name": "RoleAdminChanged",
      "type": "event"
    },
    {
      "anonymous": false,
      "inputs": [
        {
          "indexed": true,
          "internalType": "bytes32",
          "name": "role",
          "type": "bytes32"
        },
        {
          "indexed": true,
          "internalType": "address",
          "name": "account",
          "type": "address"
        },
        {
          "indexed": true,
          "internalType": "address",
          "name": "sender",
          "type": "address"
        }
      ],
      "name": "RoleGranted",
      "type": "event"
    },
    {
      "anonymous": false,
      "inputs": [
        {
          "indexed": true,
          "internalType": "bytes32",
          "name": "role",
          "type": "bytes32"
        },
        {
          "indexed": true,
          "internalType": "address",
          "name": "account",
          "type": "address"
        },
        {
          "indexed": true,
          "internalType": "address",
          "name": "sender",
          "type": "address"
        }
      ],
      "name": "RoleRevoked",
      "type": "event"
    },
    {
      "anonymous": false,
      "inputs": [
        {
          "indexed": true,
          "internalType": "address",
          "name": "token",
          "type": "address"
        },
        {
          "indexed": false,
          "internalType": "uint256",
          "name": "updatedAt",
          "type": "uint256"
        },
        {
          "indexed": false,
          "internalType": "uint256",
          "name": "currentTime",
          "type": "uint256"
        }
      ],
      "name": "StaleOracleTriggered",
      "type": "event"
    },
    {
      "anonymous": false,
      "inputs": [
        {
          "indexed": true,
          "internalType": "uint256",
          "name": "tier",
          "type": "uint256"
        },
        {
          "indexed": false,
          "internalType": "uint256",
          "name": "originationFee",
          "type": "uint256"
        },
        {
          "indexed": false,
          "internalType": "uint256",
          "name": "lateFeeAPR",
          "type": "uint256"
        }
      ],
      "name": "TierFeeUpdated",
      "type": "event"
    },
    {
      "anonymous": false,
      "inputs": [
        {
          "indexed": true,
          "internalType": "address",
          "name": "user",
          "type": "address"
        },
        {
          "indexed": false,
          "internalType": "string",
          "name": "message",
          "type": "string"
        }
      ],
      "name": "UserError",
      "type": "event"
    },
    {
      "anonymous": false,
      "inputs": [
        {
          "indexed": false,
          "internalType": "bool",
          "name": "required",
          "type": "bool"
        }
      ],
      "name": "ZKProofRequirementToggled",
      "type": "event"
    },
    {
      "anonymous": false,
      "inputs": [
        {
          "indexed": true,
          "internalType": "address",
          "name": "user",
          "type": "address"
        },
        {
          "indexed": false,
          "internalType": "string",
          "name": "reason",
          "type": "string"
        }
      ],
      "name": "ZKProofValidationFailed",
      "type": "event"
    },
    {
      "inputs": [],
      "name": "ALLOW_COLLATERAL_PERMISSION",
      "outputs": [
        {
          "internalType": "bytes32",
          "name": "",
          "type": "bytes32"
        }
      ],
      "stateMutability": "view",
      "type": "function"
    },
    {
      "inputs": [],
      "name": "DEFAULT_ADMIN_ROLE",
      "outputs": [
        {
          "internalType": "bytes32",
          "name": "",
          "type": "bytes32"
        }
      ],
      "stateMutability": "view",
      "type": "function"
    },
    {
      "inputs": [],
      "name": "DEFAULT_LIQUIDATION_THRESHOLD",
      "outputs": [
        {
          "internalType": "uint256",
          "name": "",
          "type": "uint256"
        }
      ],
      "stateMutability": "view",
      "type": "function"
    },
    {
      "inputs": [],
      "name": "DEFAULT_STALENESS_STABLE",
      "outputs": [
        {
          "internalType": "uint256",
          "name": "",
          "type": "uint256"
        }
      ],
      "stateMutability": "view",
      "type": "function"
    },
    {
      "inputs": [],
      "name": "DEFAULT_STALENESS_VOLATILE",
      "outputs": [
        {
          "internalType": "uint256",
          "name": "",
          "type": "uint256"
        }
      ],
      "stateMutability": "view",
      "type": "function"
    },
    {
      "inputs": [],
      "name": "GRACE_PERIOD",
      "outputs": [
        {
          "internalType": "uint256",
          "name": "",
          "type": "uint256"
        }
      ],
      "stateMutability": "view",
      "type": "function"
    },
    {
      "inputs": [],
      "name": "LIQUIDATION_PENALTY",
      "outputs": [
        {
          "internalType": "uint256",
          "name": "",
          "type": "uint256"
        }
      ],
      "stateMutability": "view",
      "type": "function"
    },
    {
      "inputs": [],
      "name": "SAFETY_BUFFER",
      "outputs": [
        {
          "internalType": "uint256",
          "name": "",
          "type": "uint256"
        }
      ],
      "stateMutability": "view",
      "type": "function"
    },
    {
      "inputs": [],
      "name": "SCORE_EXPIRY_PERIOD",
      "outputs": [
        {
          "internalType": "uint256",
          "name": "",
          "type": "uint256"
        }
      ],
      "stateMutability": "view",
      "type": "function"
    },
    {
      "inputs": [],
      "name": "SET_ADMIN_PERMISSION",
      "outputs": [
        {
          "internalType": "bytes32",
          "name": "",
          "type": "bytes32"
        }
      ],
      "stateMutability": "view",
      "type": "function"
    },
    {
      "inputs": [],
      "name": "SET_CREDIT_SCORE_PERMISSION",
      "outputs": [
        {
          "internalType": "bytes32",
          "name": "",
          "type": "bytes32"
        }
      ],
      "stateMutability": "view",
      "type": "function"
    },
    {
      "inputs": [],
      "name": "SET_LENDING_MANAGER_PERMISSION",
      "outputs": [
        {
          "internalType": "bytes32",
          "name": "",
          "type": "bytes32"
        }
      ],
      "stateMutability": "view",
      "type": "function"
    },
    {
      "inputs": [],
      "name": "SET_MAX_PRICE_AGE_PERMISSION",
      "outputs": [
        {
          "internalType": "bytes32",
          "name": "",
          "type": "bytes32"
        }
      ],
      "stateMutability": "view",
      "type": "function"
    },
    {
      "inputs": [],
      "name": "SET_MIN_PARTIAL_LIQUIDATION_AMOUNT_PERMISSION",
      "outputs": [
        {
          "internalType": "bytes32",
          "name": "",
          "type": "bytes32"
        }
      ],
      "stateMutability": "view",
      "type": "function"
    },
    {
      "inputs": [],
      "name": "SET_PRICE_FEED_PERMISSION",
      "outputs": [
        {
          "internalType": "bytes32",
          "name": "",
          "type": "bytes32"
        }
      ],
      "stateMutability": "view",
      "type": "function"
    },
    {
      "inputs": [],
      "name": "SET_RESERVE_ADDRESS_PERMISSION",
      "outputs": [
        {
          "internalType": "bytes32",
          "name": "",
          "type": "bytes32"
        }
      ],
      "stateMutability": "view",
      "type": "function"
    },
    {
      "inputs": [],
      "name": "SET_TIER_FEE_PERMISSION",
      "outputs": [
        {
          "internalType": "bytes32",
          "name": "",
          "type": "bytes32"
        }
      ],
      "stateMutability": "view",
      "type": "function"
    },
    {
      "inputs": [],
      "name": "TOGGLE_PAUSE_PERMISSION",
      "outputs": [
        {
          "internalType": "bytes32",
          "name": "",
          "type": "bytes32"
        }
      ],
      "stateMutability": "view",
      "type": "function"
    },
    {
      "inputs": [],
      "name": "UPDATE_BORROW_TIER_PERMISSION",
      "outputs": [
        {
          "internalType": "bytes32",
          "name": "",
          "type": "bytes32"
        }
      ],
      "stateMutability": "view",
      "type": "function"
    },
    {
      "inputs": [],
      "name": "UPKEEP_COOLDOWN",
      "outputs": [
        {
          "internalType": "uint256",
          "name": "",
          "type": "uint256"
        }
      ],
      "stateMutability": "view",
      "type": "function"
    },
    {
      "inputs": [
        {
          "internalType": "uint256",
          "name": "amount",
          "type": "uint256"
        },
        {
          "internalType": "bytes32",
          "name": "nullifier",
          "type": "bytes32"
        }
      ],
      "name": "borrow",
      "outputs": [],
      "stateMutability": "payable",
      "type": "function"
    },
    {
      "inputs": [
        {
          "internalType": "uint256",
          "name": "",
          "type": "uint256"
        }
      ],
      "name": "borrowTierConfigs",
      "outputs": [
        {
          "internalType": "uint256",
          "name": "minScore",
          "type": "uint256"
        },
        {
          "internalType": "uint256",
          "name": "maxScore",
          "type": "uint256"
        },
        {
          "internalType": "uint256",
          "name": "collateralRatio",
          "type": "uint256"
        },
        {
          "internalType": "int256",
          "name": "interestRateModifier",
          "type": "int256"
        },
        {
          "internalType": "uint256",
          "name": "maxLoanAmount",
          "type": "uint256"
        }
      ],
      "stateMutability": "view",
      "type": "function"
    },
    {
      "inputs": [
        {
          "internalType": "address",
          "name": "",
          "type": "address"
        }
      ],
      "name": "borrowTimestamp",
      "outputs": [
        {
          "internalType": "uint256",
          "name": "",
          "type": "uint256"
        }
      ],
      "stateMutability": "view",
      "type": "function"
    },
    {
      "inputs": [
        {
          "internalType": "enum LiquidityPool.RiskTier",
          "name": "",
          "type": "uint8"
        }
      ],
      "name": "borrowedAmountByRiskTier",
      "outputs": [
        {
          "internalType": "uint256",
          "name": "",
          "type": "uint256"
        }
      ],
      "stateMutability": "view",
      "type": "function"
    },
    {
      "inputs": [
        {
          "internalType": "address",
          "name": "user",
          "type": "address"
        }
      ],
      "name": "canLend",
      "outputs": [
        {
          "internalType": "bool",
          "name": "",
          "type": "bool"
        }
      ],
      "stateMutability": "view",
      "type": "function"
    },
    {
      "inputs": [],
      "name": "checkCircuitBreakers",
      "outputs": [],
      "stateMutability": "nonpayable",
      "type": "function"
    },
    {
      "inputs": [
        {
          "internalType": "address",
          "name": "user",
          "type": "address"
        }
      ],
      "name": "checkCollateralization",
      "outputs": [
        {
          "internalType": "bool",
          "name": "isHealthy",
          "type": "bool"
        },
        {
          "internalType": "uint256",
          "name": "ratio",
          "type": "uint256"
        }
      ],
      "stateMutability": "view",
      "type": "function"
    },
    {
      "inputs": [
        {
          "internalType": "bytes",
          "name": "",
          "type": "bytes"
        }
      ],
      "name": "checkUpkeep",
      "outputs": [
        {
          "internalType": "bool",
          "name": "upkeepNeeded",
          "type": "bool"
        },
        {
          "internalType": "bytes",
          "name": "performData",
          "type": "bytes"
        }
      ],
      "stateMutability": "view",
      "type": "function"
    },
    {
      "inputs": [
        {
          "internalType": "address",
          "name": "token",
          "type": "address"
        },
        {
          "internalType": "address",
          "name": "user",
          "type": "address"
        },
        {
          "internalType": "address",
          "name": "to",
          "type": "address"
        },
        {
          "internalType": "uint256",
          "name": "amount",
          "type": "uint256"
        }
      ],
      "name": "clearCollateral",
      "outputs": [],
      "stateMutability": "nonpayable",
      "type": "function"
    },
    {
      "inputs": [
        {
          "internalType": "address",
          "name": "user",
          "type": "address"
        },
        {
          "internalType": "uint256",
          "name": "amount",
          "type": "uint256"
        }
      ],
      "name": "clearDebt",
      "outputs": [],
      "stateMutability": "nonpayable",
      "type": "function"
    },
    {
      "inputs": [
        {
          "internalType": "address",
          "name": "",
          "type": "address"
        },
        {
          "internalType": "address",
          "name": "",
          "type": "address"
        }
      ],
      "name": "collateralBalance",
      "outputs": [
        {
          "internalType": "uint256",
          "name": "",
          "type": "uint256"
        }
      ],
      "stateMutability": "view",
      "type": "function"
    },
    {
      "inputs": [
        {
          "internalType": "uint256",
          "name": "",
          "type": "uint256"
        }
      ],
      "name": "collateralTokenList",
      "outputs": [
        {
          "internalType": "address",
          "name": "",
          "type": "address"
        }
      ],
      "stateMutability": "view",
      "type": "function"
    },
    {
      "inputs": [
        {
          "internalType": "uint64",
          "name": "ficoScore",
          "type": "uint64"
        }
      ],
      "name": "convertFICOToContractScore",
      "outputs": [
        {
          "internalType": "uint256",
          "name": "",
          "type": "uint256"
        }
      ],
      "stateMutability": "pure",
      "type": "function"
    },
    {
      "inputs": [
        {
          "internalType": "address",
          "name": "",
          "type": "address"
        }
      ],
      "name": "creditScore",
      "outputs": [
        {
          "internalType": "uint256",
          "name": "",
          "type": "uint256"
        }
      ],
      "stateMutability": "view",
      "type": "function"
    },
    {
      "inputs": [],
      "name": "creditScoreContract",
      "outputs": [
        {
          "internalType": "contract ICreditScore",
          "name": "",
          "type": "address"
        }
      ],
      "stateMutability": "view",
      "type": "function"
    },
    {
      "inputs": [],
      "name": "creditSystem",
      "outputs": [
        {
          "internalType": "contract IntegratedCreditSystem",
          "name": "",
          "type": "address"
        }
      ],
      "stateMutability": "view",
      "type": "function"
    },
    {
      "inputs": [
        {
          "internalType": "address",
          "name": "token",
          "type": "address"
        },
        {
          "internalType": "uint256",
          "name": "amount",
          "type": "uint256"
        }
      ],
      "name": "depositCollateral",
      "outputs": [],
      "stateMutability": "nonpayable",
      "type": "function"
    },
    {
      "inputs": [
        {
          "internalType": "uint256",
          "name": "amount",
          "type": "uint256"
        },
        {
          "internalType": "address payable",
          "name": "to",
          "type": "address"
        }
      ],
      "name": "extract",
      "outputs": [],
      "stateMutability": "nonpayable",
      "type": "function"
    },
    {
      "inputs": [],
      "name": "getAdmin",
      "outputs": [
        {
          "internalType": "address",
          "name": "",
          "type": "address"
        }
      ],
      "stateMutability": "view",
      "type": "function"
    },
    {
      "inputs": [],
      "name": "getAllUsers",
      "outputs": [
        {
          "internalType": "address[]",
          "name": "",
          "type": "address[]"
        }
      ],
      "stateMutability": "view",
      "type": "function"
    },
    {
      "inputs": [],
      "name": "getAllowedCollateralTokens",
      "outputs": [
        {
          "internalType": "address[]",
          "name": "",
          "type": "address[]"
        }
      ],
      "stateMutability": "view",
      "type": "function"
    },
    {
      "inputs": [],
      "name": "getBalance",
      "outputs": [
        {
          "internalType": "uint256",
          "name": "",
          "type": "uint256"
        }
      ],
      "stateMutability": "view",
      "type": "function"
    },
    {
      "inputs": [
        {
          "internalType": "address",
          "name": "user",
          "type": "address"
        }
      ],
      "name": "getBorrowTerms",
      "outputs": [
        {
          "internalType": "uint256",
          "name": "collateralRatio",
          "type": "uint256"
        },
        {
          "internalType": "int256",
          "name": "interestRateModifier",
          "type": "int256"
        },
        {
          "internalType": "uint256",
          "name": "maxLoanAmount",
          "type": "uint256"
        }
      ],
      "stateMutability": "view",
      "type": "function"
    },
    {
      "inputs": [
        {
          "internalType": "address",
          "name": "user",
          "type": "address"
        }
      ],
      "name": "getBorrowerRate",
      "outputs": [
        {
          "internalType": "uint256",
          "name": "",
          "type": "uint256"
        }
      ],
      "stateMutability": "view",
      "type": "function"
    },
    {
      "inputs": [
        {
          "internalType": "address",
          "name": "user",
          "type": "address"
        },
        {
          "internalType": "address",
          "name": "token",
          "type": "address"
        }
      ],
      "name": "getCollateral",
      "outputs": [
        {
          "internalType": "uint256",
          "name": "",
          "type": "uint256"
        }
      ],
      "stateMutability": "view",
      "type": "function"
    },
    {
      "inputs": [
        {
          "internalType": "address",
          "name": "user",
          "type": "address"
        }
      ],
      "name": "getCreditScore",
      "outputs": [
        {
          "internalType": "uint256",
          "name": "",
          "type": "uint256"
        }
      ],
      "stateMutability": "view",
      "type": "function"
    },
    {
      "inputs": [
        {
          "internalType": "address",
          "name": "user",
          "type": "address"
        }
      ],
      "name": "getCreditScoreWithSource",
      "outputs": [
        {
          "internalType": "uint256",
          "name": "score",
          "type": "uint256"
        },
        {
          "internalType": "string",
          "name": "source",
          "type": "string"
        },
        {
          "internalType": "bool",
          "name": "isVerified",
          "type": "bool"
        }
      ],
      "stateMutability": "view",
      "type": "function"
    },
    {
      "inputs": [
        {
          "internalType": "address",
          "name": "user",
          "type": "address"
        }
      ],
      "name": "getLoan",
      "outputs": [
        {
          "components": [
            {
              "internalType": "uint256",
              "name": "principal",
              "type": "uint256"
            },
            {
              "internalType": "uint256",
              "name": "outstanding",
              "type": "uint256"
            },
            {
              "internalType": "uint256",
              "name": "interestRate",
              "type": "uint256"
            },
            {
              "internalType": "uint256",
              "name": "nextDueDate",
              "type": "uint256"
            },
            {
              "internalType": "uint256",
              "name": "installmentAmount",
              "type": "uint256"
            },
            {
              "internalType": "uint256",
              "name": "penaltyBps",
              "type": "uint256"
            },
            {
              "internalType": "bool",
              "name": "active",
              "type": "bool"
            }
          ],
          "internalType": "struct LiquidityPool.Loan",
          "name": "",
          "type": "tuple"
        }
      ],
      "stateMutability": "view",
      "type": "function"
    },
    {
      "inputs": [],
      "name": "getMinCollateralRatio",
      "outputs": [
        {
          "internalType": "uint256",
          "name": "",
          "type": "uint256"
        }
      ],
      "stateMutability": "pure",
      "type": "function"
    },
    {
      "inputs": [],
      "name": "getMyDebt",
      "outputs": [
        {
          "internalType": "uint256",
          "name": "",
          "type": "uint256"
        }
      ],
      "stateMutability": "view",
      "type": "function"
    },
    {
      "inputs": [
        {
          "internalType": "address",
          "name": "token",
          "type": "address"
        }
      ],
      "name": "getPriceFeed",
      "outputs": [
        {
          "internalType": "address",
          "name": "",
          "type": "address"
        }
      ],
      "stateMutability": "view",
      "type": "function"
    },
    {
      "inputs": [
        {
          "internalType": "address",
          "name": "user",
          "type": "address"
        }
      ],
      "name": "getRiskTier",
      "outputs": [
        {
          "internalType": "enum LiquidityPool.RiskTier",
          "name": "",
          "type": "uint8"
        }
      ],
      "stateMutability": "view",
      "type": "function"
    },
    {
      "inputs": [
        {
          "internalType": "bytes32",
          "name": "role",
          "type": "bytes32"
        }
      ],
      "name": "getRoleAdmin",
      "outputs": [
        {
          "internalType": "bytes32",
          "name": "",
          "type": "bytes32"
        }
      ],
      "stateMutability": "view",
      "type": "function"
    },
    {
      "inputs": [
        {
          "internalType": "address",
          "name": "token",
          "type": "address"
        }
      ],
      "name": "getTokenValue",
      "outputs": [
        {
          "internalType": "uint256",
          "name": "",
          "type": "uint256"
        }
      ],
      "stateMutability": "view",
      "type": "function"
    },
    {
      "inputs": [
        {
          "internalType": "address",
          "name": "user",
          "type": "address"
        }
      ],
      "name": "getTotalCollateralValue",
      "outputs": [
        {
          "internalType": "uint256",
          "name": "",
          "type": "uint256"
        }
      ],
      "stateMutability": "view",
      "type": "function"
    },
    {
      "inputs": [
        {
          "internalType": "address",
          "name": "user",
          "type": "address"
        }
      ],
      "name": "getZKVerificationStatus",
      "outputs": [
        {
          "internalType": "bool",
          "name": "hasTradFi",
          "type": "bool"
        },
        {
          "internalType": "bool",
          "name": "hasAccount",
          "type": "bool"
        },
        {
          "internalType": "bool",
          "name": "hasNesting",
          "type": "bool"
        },
        {
          "internalType": "uint256",
          "name": "finalScore",
          "type": "uint256"
        },
        {
          "internalType": "bool",
          "name": "isEligible",
          "type": "bool"
        }
      ],
      "stateMutability": "view",
      "type": "function"
    },
    {
      "inputs": [
        {
          "internalType": "bytes32",
          "name": "role",
          "type": "bytes32"
        },
        {
          "internalType": "address",
          "name": "account",
          "type": "address"
        }
      ],
      "name": "grantRole",
      "outputs": [],
      "stateMutability": "nonpayable",
      "type": "function"
    },
    {
      "inputs": [
        {
          "internalType": "bytes32",
          "name": "role",
          "type": "bytes32"
        },
        {
          "internalType": "address",
          "name": "account",
          "type": "address"
        }
      ],
      "name": "hasRole",
      "outputs": [
        {
          "internalType": "bool",
          "name": "",
          "type": "bool"
        }
      ],
      "stateMutability": "view",
      "type": "function"
    },
    {
      "inputs": [
        {
          "internalType": "address",
          "name": "user",
          "type": "address"
        }
      ],
      "name": "hasValidRISC0Score",
      "outputs": [
        {
          "internalType": "bool",
          "name": "hasValidScore",
          "type": "bool"
        },
        {
          "internalType": "uint256",
          "name": "score",
          "type": "uint256"
        },
        {
          "internalType": "uint256",
          "name": "timestamp",
          "type": "uint256"
        }
      ],
      "stateMutability": "view",
      "type": "function"
    },
    {
      "inputs": [
        {
          "internalType": "address",
          "name": "_timelock",
          "type": "address"
        },
        {
          "internalType": "address",
          "name": "_stablecoinManager",
          "type": "address"
        },
        {
          "internalType": "address",
          "name": "_lendingManager",
          "type": "address"
        },
        {
          "internalType": "address",
          "name": "_interestRateModel",
          "type": "address"
        },
        {
          "internalType": "address",
          "name": "_creditSystem",
          "type": "address"
        },
        {
          "internalType": "address",
          "name": "_nullifierRegistry",
          "type": "address"
        }
      ],
      "name": "initialize",
      "outputs": [],
      "stateMutability": "nonpayable",
      "type": "function"
    },
    {
      "inputs": [],
      "name": "interestRateModel",
      "outputs": [
        {
          "internalType": "contract InterestRateModel",
          "name": "",
          "type": "address"
        }
      ],
      "stateMutability": "view",
      "type": "function"
    },
    {
      "inputs": [
        {
          "internalType": "address",
          "name": "",
          "type": "address"
        }
      ],
      "name": "isAllowedCollateral",
      "outputs": [
        {
          "internalType": "bool",
          "name": "",
          "type": "bool"
        }
      ],
      "stateMutability": "view",
      "type": "function"
    },
    {
      "inputs": [
        {
          "internalType": "address",
          "name": "",
          "type": "address"
        }
      ],
      "name": "isKnownUser",
      "outputs": [
        {
          "internalType": "bool",
          "name": "",
          "type": "bool"
        }
      ],
      "stateMutability": "view",
      "type": "function"
    },
    {
      "inputs": [
        {
          "internalType": "address",
          "name": "",
          "type": "address"
        }
      ],
      "name": "isLiquidatable",
      "outputs": [
        {
          "internalType": "bool",
          "name": "",
          "type": "bool"
        }
      ],
      "stateMutability": "view",
      "type": "function"
    },
    {
      "inputs": [],
      "name": "isPaused",
      "outputs": [
        {
          "internalType": "bool",
          "name": "",
          "type": "bool"
        }
      ],
      "stateMutability": "view",
      "type": "function"
    },
    {
      "inputs": [],
      "name": "lastUpkeep",
      "outputs": [
        {
          "internalType": "uint256",
          "name": "",
          "type": "uint256"
        }
      ],
      "stateMutability": "view",
      "type": "function"
    },
    {
      "inputs": [],
      "name": "lendingManager",
      "outputs": [
        {
          "internalType": "contract LendingManager",
          "name": "",
          "type": "address"
        }
      ],
      "stateMutability": "view",
      "type": "function"
    },
    {
      "inputs": [
        {
          "internalType": "address",
          "name": "",
          "type": "address"
        }
      ],
      "name": "liquidationStartTime",
      "outputs": [
        {
          "internalType": "uint256",
          "name": "",
          "type": "uint256"
        }
      ],
      "stateMutability": "view",
      "type": "function"
    },
    {
      "inputs": [],
      "name": "liquidator",
      "outputs": [
        {
          "internalType": "address",
          "name": "",
          "type": "address"
        }
      ],
      "stateMutability": "view",
      "type": "function"
    },
    {
      "inputs": [
        {
          "internalType": "address",
          "name": "",
          "type": "address"
        }
      ],
      "name": "loans",
      "outputs": [
        {
          "internalType": "uint256",
          "name": "principal",
          "type": "uint256"
        },
        {
          "internalType": "uint256",
          "name": "outstanding",
          "type": "uint256"
        },
        {
          "internalType": "uint256",
          "name": "interestRate",
          "type": "uint256"
        },
        {
          "internalType": "uint256",
          "name": "nextDueDate",
          "type": "uint256"
        },
        {
          "internalType": "uint256",
          "name": "installmentAmount",
          "type": "uint256"
        },
        {
          "internalType": "uint256",
          "name": "penaltyBps",
          "type": "uint256"
        },
        {
          "internalType": "bool",
          "name": "active",
          "type": "bool"
        }
      ],
      "stateMutability": "view",
      "type": "function"
    },
    {
      "inputs": [],
      "name": "locked",
      "outputs": [
        {
          "internalType": "bool",
          "name": "",
          "type": "bool"
        }
      ],
      "stateMutability": "view",
      "type": "function"
    },
    {
      "inputs": [
        {
          "internalType": "address",
          "name": "",
          "type": "address"
        }
      ],
      "name": "maxPriceAge",
      "outputs": [
        {
          "internalType": "uint256",
          "name": "",
          "type": "uint256"
        }
      ],
      "stateMutability": "view",
      "type": "function"
    },
    {
      "inputs": [],
      "name": "minPartialLiquidationAmount",
      "outputs": [
        {
          "internalType": "uint256",
          "name": "",
          "type": "uint256"
        }
      ],
      "stateMutability": "view",
      "type": "function"
    },
    {
      "inputs": [],
      "name": "nullifierRegistry",
      "outputs": [
        {
          "internalType": "contract NullifierRegistry",
          "name": "",
          "type": "address"
        }
      ],
      "stateMutability": "view",
      "type": "function"
    },
    {
      "inputs": [],
      "name": "paused",
      "outputs": [
        {
          "internalType": "bool",
          "name": "",
          "type": "bool"
        }
      ],
      "stateMutability": "view",
      "type": "function"
    },
    {
      "inputs": [
        {
          "internalType": "bytes",
          "name": "performData",
          "type": "bytes"
        }
      ],
      "name": "performUpkeep",
      "outputs": [],
      "stateMutability": "nonpayable",
      "type": "function"
    },
    {
      "inputs": [
        {
          "internalType": "address",
          "name": "",
          "type": "address"
        }
      ],
      "name": "priceFeed",
      "outputs": [
        {
          "internalType": "address",
          "name": "",
          "type": "address"
        }
      ],
      "stateMutability": "view",
      "type": "function"
    },
    {
      "inputs": [
        {
          "internalType": "address",
          "name": "token",
          "type": "address"
        },
        {
          "internalType": "uint256",
          "name": "amount",
          "type": "uint256"
        }
      ],
      "name": "recoverFromLiquidation",
      "outputs": [],
      "stateMutability": "nonpayable",
      "type": "function"
    },
    {
      "inputs": [
        {
          "internalType": "bytes32",
          "name": "role",
          "type": "bytes32"
        },
        {
          "internalType": "address",
          "name": "account",
          "type": "address"
        }
      ],
      "name": "renounceRole",
      "outputs": [],
      "stateMutability": "nonpayable",
      "type": "function"
    },
    {
      "inputs": [],
      "name": "repay",
      "outputs": [],
      "stateMutability": "payable",
      "type": "function"
    },
    {
      "inputs": [],
      "name": "repayInstallment",
      "outputs": [],
      "stateMutability": "payable",
      "type": "function"
    },
    {
      "inputs": [],
      "name": "reserveAddress",
      "outputs": [
        {
          "internalType": "address",
          "name": "",
          "type": "address"
        }
      ],
      "stateMutability": "view",
      "type": "function"
    },
    {
      "inputs": [
        {
          "internalType": "bytes32",
          "name": "role",
          "type": "bytes32"
        },
        {
          "internalType": "address",
          "name": "account",
          "type": "address"
        }
      ],
      "name": "revokeRole",
      "outputs": [],
      "stateMutability": "nonpayable",
      "type": "function"
    },
    {
      "inputs": [
        {
          "internalType": "address",
          "name": "newAdmin",
          "type": "address"
        }
      ],
      "name": "setAdmin",
      "outputs": [],
      "stateMutability": "nonpayable",
      "type": "function"
    },
    {
      "inputs": [
        {
          "internalType": "address",
          "name": "token",
          "type": "address"
        },
        {
          "internalType": "bool",
          "name": "allowed",
          "type": "bool"
        }
      ],
      "name": "setAllowedCollateral",
      "outputs": [],
      "stateMutability": "nonpayable",
      "type": "function"
    },
    {
      "inputs": [
        {
          "internalType": "address",
          "name": "user",
          "type": "address"
        },
        {
          "internalType": "uint256",
          "name": "score",
          "type": "uint256"
        }
      ],
      "name": "setCreditScore",
      "outputs": [],
      "stateMutability": "nonpayable",
      "type": "function"
    },
    {
      "inputs": [
        {
          "internalType": "address",
          "name": "_creditScoreContract",
          "type": "address"
        }
      ],
      "name": "setCreditScoreContract",
      "outputs": [],
      "stateMutability": "nonpayable",
      "type": "function"
    },
    {
      "inputs": [
        {
          "internalType": "address",
          "name": "_creditSystem",
          "type": "address"
        }
      ],
      "name": "setCreditSystem",
      "outputs": [],
      "stateMutability": "nonpayable",
      "type": "function"
    },
    {
      "inputs": [
        {
          "internalType": "address",
          "name": "_lendingManager",
          "type": "address"
        }
      ],
      "name": "setLendingManager",
      "outputs": [],
      "stateMutability": "nonpayable",
      "type": "function"
    },
    {
      "inputs": [
        {
          "internalType": "address",
          "name": "_liquidator",
          "type": "address"
        }
      ],
      "name": "setLiquidator",
      "outputs": [],
      "stateMutability": "nonpayable",
      "type": "function"
    },
    {
      "inputs": [
        {
          "internalType": "address",
          "name": "token",
          "type": "address"
        },
        {
          "internalType": "uint256",
          "name": "age",
          "type": "uint256"
        }
      ],
      "name": "setMaxPriceAge",
      "outputs": [],
      "stateMutability": "nonpayable",
      "type": "function"
    },
    {
      "inputs": [
        {
          "internalType": "uint256",
          "name": "amount",
          "type": "uint256"
        }
      ],
      "name": "setMinPartialLiquidationAmount",
      "outputs": [],
      "stateMutability": "nonpayable",
      "type": "function"
    },
    {
      "inputs": [
        {
          "internalType": "address",
          "name": "token",
          "type": "address"
        },
        {
          "internalType": "address",
          "name": "feed",
          "type": "address"
        }
      ],
      "name": "setPriceFeed",
      "outputs": [],
      "stateMutability": "nonpayable",
      "type": "function"
    },
    {
      "inputs": [
        {
          "internalType": "address",
          "name": "_reserve",
          "type": "address"
        }
      ],
      "name": "setReserveAddress",
      "outputs": [],
      "stateMutability": "nonpayable",
      "type": "function"
    },
    {
      "inputs": [
        {
          "internalType": "uint256",
          "name": "tier",
          "type": "uint256"
        },
        {
          "internalType": "uint256",
          "name": "originationFee",
          "type": "uint256"
        },
        {
          "internalType": "uint256",
          "name": "lateFeeAPR",
          "type": "uint256"
        }
      ],
      "name": "setTierFee",
      "outputs": [],
      "stateMutability": "nonpayable",
      "type": "function"
    },
    {
      "inputs": [
        {
          "internalType": "address",
          "name": "_votingToken",
          "type": "address"
        }
      ],
      "name": "setVotingToken",
      "outputs": [],
      "stateMutability": "nonpayable",
      "type": "function"
    },
    {
      "inputs": [
        {
          "internalType": "bool",
          "name": "required",
          "type": "bool"
        }
      ],
      "name": "setZKProofRequirement",
      "outputs": [],
      "stateMutability": "nonpayable",
      "type": "function"
    },
    {
      "inputs": [],
      "name": "stablecoinManager",
      "outputs": [
        {
          "internalType": "contract StablecoinManager",
          "name": "",
          "type": "address"
        }
      ],
      "stateMutability": "view",
      "type": "function"
    },
    {
      "inputs": [
        {
          "internalType": "address",
          "name": "user",
          "type": "address"
        }
      ],
      "name": "startLiquidation",
      "outputs": [],
      "stateMutability": "nonpayable",
      "type": "function"
    },
    {
      "inputs": [
        {
          "internalType": "bytes4",
          "name": "interfaceId",
          "type": "bytes4"
        }
      ],
      "name": "supportsInterface",
      "outputs": [
        {
          "internalType": "bool",
          "name": "",
          "type": "bool"
        }
      ],
      "stateMutability": "view",
      "type": "function"
    },
    {
      "inputs": [
        {
          "internalType": "uint256",
          "name": "",
          "type": "uint256"
        }
      ],
      "name": "tierFees",
      "outputs": [
        {
          "internalType": "uint256",
          "name": "originationFee",
          "type": "uint256"
        },
        {
          "internalType": "uint256",
          "name": "lateFeeAPR",
          "type": "uint256"
        }
      ],
      "stateMutability": "view",
      "type": "function"
    },
    {
      "inputs": [],
      "name": "timelock",
      "outputs": [
        {
          "internalType": "address",
          "name": "",
          "type": "address"
        }
      ],
      "stateMutability": "view",
      "type": "function"
    },
    {
      "inputs": [],
      "name": "togglePause",
      "outputs": [],
      "stateMutability": "nonpayable",
      "type": "function"
    },
    {
      "inputs": [
        {
          "internalType": "bool",
          "name": "_useRISC0",
          "type": "bool"
        }
      ],
      "name": "toggleRISC0CreditScores",
      "outputs": [],
      "stateMutability": "nonpayable",
      "type": "function"
    },
    {
      "inputs": [],
      "name": "totalBorrowedAllTime",
      "outputs": [
        {
          "internalType": "uint256",
          "name": "",
          "type": "uint256"
        }
      ],
      "stateMutability": "view",
      "type": "function"
    },
    {
      "inputs": [],
      "name": "totalFunds",
      "outputs": [
        {
          "internalType": "uint256",
          "name": "",
          "type": "uint256"
        }
      ],
      "stateMutability": "view",
      "type": "function"
    },
    {
      "inputs": [],
      "name": "totalRepaidAllTime",
      "outputs": [
        {
          "internalType": "uint256",
          "name": "",
          "type": "uint256"
        }
      ],
      "stateMutability": "view",
      "type": "function"
    },
    {
      "inputs": [
        {
          "internalType": "uint256",
          "name": "tierIndex",
          "type": "uint256"
        },
        {
          "internalType": "uint256",
          "name": "minScore",
          "type": "uint256"
        },
        {
          "internalType": "uint256",
          "name": "maxScore",
          "type": "uint256"
        },
        {
          "internalType": "uint256",
          "name": "collateralRatio",
          "type": "uint256"
        },
        {
          "internalType": "int256",
          "name": "interestRateModifier",
          "type": "int256"
        },
        {
          "internalType": "uint256",
          "name": "maxLoanAmount",
          "type": "uint256"
        }
      ],
      "name": "updateBorrowTier",
      "outputs": [],
      "stateMutability": "nonpayable",
      "type": "function"
    },
    {
      "inputs": [
        {
          "internalType": "address",
          "name": "user",
          "type": "address"
        },
        {
          "internalType": "uint256",
          "name": "score",
          "type": "uint256"
        }
      ],
      "name": "updateCreditScoreFromZK",
      "outputs": [],
      "stateMutability": "nonpayable",
      "type": "function"
    },
    {
      "inputs": [],
      "name": "useRISC0CreditScores",
      "outputs": [
        {
          "internalType": "bool",
          "name": "",
          "type": "bool"
        }
      ],
      "stateMutability": "view",
      "type": "function"
    },
    {
      "inputs": [
        {
          "internalType": "address",
          "name": "",
          "type": "address"
        }
      ],
      "name": "userDebt",
      "outputs": [
        {
          "internalType": "uint256",
          "name": "",
          "type": "uint256"
        }
      ],
      "stateMutability": "view",
      "type": "function"
    },
    {
      "inputs": [
        {
          "internalType": "uint256",
          "name": "",
          "type": "uint256"
        }
      ],
      "name": "users",
      "outputs": [
        {
          "internalType": "address",
          "name": "",
          "type": "address"
        }
      ],
      "stateMutability": "view",
      "type": "function"
    },
    {
      "inputs": [],
      "name": "votingToken",
      "outputs": [
        {
          "internalType": "contract VotingToken",
          "name": "",
          "type": "address"
        }
      ],
      "stateMutability": "view",
      "type": "function"
    },
    {
      "inputs": [
        {
          "internalType": "address",
          "name": "token",
          "type": "address"
        },
        {
          "internalType": "uint256",
          "name": "amount",
          "type": "uint256"
        }
      ],
      "name": "withdrawCollateral",
      "outputs": [],
      "stateMutability": "nonpayable",
      "type": "function"
    },
    {
      "inputs": [
        {
          "internalType": "uint256",
          "name": "amount",
          "type": "uint256"
        }
      ],
      "name": "withdrawForLendingManager",
      "outputs": [],
      "stateMutability": "nonpayable",
      "type": "function"
    },
    {
      "inputs": [
        {
          "internalType": "address",
          "name": "token",
          "type": "address"
        },
        {
          "internalType": "uint256",
          "name": "amount",
          "type": "uint256"
        }
      ],
      "name": "withdrawPartialCollateral",
      "outputs": [],
      "stateMutability": "nonpayable",
      "type": "function"
    },
    {
      "inputs": [],
      "name": "zkProofRequired",
      "outputs": [
        {
          "internalType": "bool",
          "name": "",
          "type": "bool"
        }
      ],
      "stateMutability": "view",
      "type": "function"
    },
    {
      "stateMutability": "payable",
      "type": "receive"
    }
  ],
  "bytecode": "0x6080806040523461001757615e4a90816200001c8239f35b5f80fdfe6080604081815260048036101561002f575b505050361561001e575f80fd5b61002a3460a254614809565b60a255005b5f925f3560e01c90816301c76f81146144fd5750806301ffc9a7146144aa57806303a42b6f14614482578063042e02cf14614446578063080d9c2b146143075780630b044c79146142eb5780630ef7fb67146142d05780630f61b8101461425857806312065fe01461423e57806314673d311461418b5780631bfe4261146141515780631fd48b9a1461411857806320dfcae114613e6557806323fe5a3314613e4d578063248a9ca314613e225780632a7beafe14613df35780632f2ff15d14613d5157806330332f9f14613cd857806333481fc914613bee578063350c35e91461395f578063357619a91461392557806335f67981146138f957806336568abe14613867578063365b98b21461383e57806338053ef3146138075780633d7c5d3e146137e9578063402d8883146135bc5780634046ebae1461358f578063418eea3114613554578063450a375a1461352e5780634585e33b14613376578063488683cd1461333b5780634c8f35ab14611dc45780634c95da66146132f05780635141df41146132b657806352226ef01461326b57806355f4d9e21461310957806359705bb3146130eb5780635b66e7fc146130ce5780635b6cca801461307d5780635c44f10d146130615780635c975abb14611ef05780636579b73e1461302957806368272ecc14612fb057806369ff0a0d14612f895780636c648fc414612f635780636e04ff0d14612d895780636e9960c314611735578063704b6c0214612cf857806370ed11bc14612c9a57806372ed9f7b14612b175780637346f48614612ad957806373b4086b14612a5e57806376e11286146129dd57806378974cbb146129495780637a8ce68b1461290e578063802937ac146128ef57806383475f0c146128b457806386d785e6146128675780638e6b53bc1461283557806391d14854146127f25780639490a51e146127b4578063962a0da514612779578063968ed6001461275a57806397ed81cf146126455780639ac77e1b146125cf5780639b8621d5146125b35780639e3b77af1461258a578063a217fddf1461256f578063a36e4ad6146122de578063a5d5db0c14612074578063a6f48e5d14612028578063a75b24c714611f69578063a89ef5ca14611f40578063b034012314611f17578063b187bd2614611ef0578063b3075fb714611ebf578063b3a5a0a214611e7f578063b69e5c7714611e47578063b870676c14611e1e578063b8cdf56114611dff578063bc3d5a3e14611de0578063c129d50414611dc4578063c1a287e214611da6578063c23c69d514611d6e578063c39537e114611d33578063c4ae316814611cb0578063c869d0ed14611c0e578063c941f32114611be5578063cc2a9a5b146118b0578063cf17622514611887578063cf30901214611863578063d1f151c114611796578063d29255f91461175e578063d33219b414611735578063d3dd2bdf14611714578063d547741f146116d6578063ddac7f1b1461164d578063e19fb8f51461153c578063e1c5010014611431578063e1f7c2c91461139a578063e2842d7914611309578063e2d74628146112b1578063e6ae357614611276578063e7602b9d14611229578063e84bae45146111f5578063e884cf23146111ce578063e9ffb29114611193578063eb8d655114611158578063ebdcc16414611129578063ec9ab599146107d3578063f1c5d6c2146107a6578063f3fdb15a1461077d578063f79ed94b14610754578063f7e590ee1461071c578063feb50e521461063d5763ffd4aedb036100115734610639576080366003190112610639576105e59161055b61455d565b610563614573565b9261056c614589565b90606435918760018060a01b03809561058a8260a554163314615081565b169283825260209788966097885288842091165f528652865f206105af86825461486b565b9055865163a9059cbb60e01b81526001600160a01b03909316908301908152602081019490945290968793849291839160400190565b03925af190811561063057506105f9578280f35b81813d8311610629575b61060d81836147db565b810103126106255761061e906147fc565b505f808280f35b5080fd5b503d610603565b513d85823e3d90fd5b8280fd5b50903461063957806003193601126106395781356024356001600160a01b03818116918290036107185760a954163303610709578147106106ee578480809381935af13d156106e9573d6106908161528e565b9061069d845192836147db565b81528460203d92013e5b156106b0578280f35b906020606492519162461bcd60e51b83528201526013602482015272115512081d1c985b9cd9995c8819985a5b1959606a1b6044820152fd5b6106a7565b825162461bcd60e51b815280610705818701614c0b565b0390fd5b505051630925c89960e31b8152fd5b8580fd5b5050346106255760203660031901126106255760209181906001600160a01b0361074461455d565b1681526099845220549051908152f35b50503461062557816003193601126106255760b25490516001600160a01b039091168152602090f35b50503461062557816003193601126106255760a65490516001600160a01b039091168152602090f35b505034610625576020366003190112610625576020906107cc6107c761455d565b615550565b9051908152f35b50919080600319360112610625578235602491823560a354936107fc60ff8660081c161561482a565b61080960ff861615614d34565b600160ff198096161760a355338652602090609a8252838720546110e85760a85484516308b71ed360e21b8152808a018590526001600160a01b039182169991929190848184818e5afa908115611073578a916110b3575b5061107d5785516345d92d7760e01b81523382820152848184818e5afa908115611073578a9161103e575b50156110065789899a3b15610ff8578990818851809263305ccc3960e01b8252898683015233878301528160449e8f925af18015610ffc57610fe4575b50506108d433615a7f565b865163a6f48e5d60e01b815233838201528b818581305afa8015610fda578c918d91610f23575b507f0dda2aa47a3db5dda18a4f06501647c631e2c43e7e7876dbeaf21023b8266fb591926109338a5192606084526060840190614696565b9388830152898201528033930390a261094b33614dc6565b91600583101580610ca057828414610eeb5760a25460011c8911610e915761097233614cc5565b9150508911610e425761098433614cc5565b505061098f33614fb6565b90606482029180830460641490151715610c58576109ad908b614896565b11610df3578b908682968060b25416978c8c8a610dca575b50816109d09161486b565b9881158015610d33575b50505060a2546109ef60ae5460af549061486b565b81610cef575b505060a6541692848b5180958193634fd41dad60e11b8352898301525afa918215610ce5578d92610cb2575b50610ca0576003610a31856146bb565b500154818d821215610c6a5750610a4790615071565b9061271091820390828211610c585790610a6091614896565b04995b600c8910610c09575062278d00420190814211610bf857508a93610b278594610b108a60068f898f99819a829a8f94875197610a9e89614792565b83895286890190848252808a0192835260608a01938452600c60808b019504855260a08a01966101f4885260b460c08c019960018b52338352522098518955516001890155516002880155516003870155519085015551600584015551151591019060ff801983541691151516179055565b609a88528a8a852055609b8852428a852055614738565b610b328a8254614809565b9055610b408960ae54614809565b60ae55818115610bef575b3390f115610be5577f6a0741a9322a7aded3431ce697f586d89a196820acf4bd0430035d7b3dab74c0939495835190868252828201527f5660f932172e1664b98577a703dd9484d374b28e3bf8c87b345bee97af612412843392a282518581527fac59582e5396aca512fa873a2047e7f4c80f8f55d4a06cb34a78a0187f62719f823392a282519485528401523392a260a3541660a35580f35b82513d88823e3d90fd5b506108fc610b4b565b634e487b7160e01b8c52601183528bfd5b6084935060267f4c6f616e20616d6f756e7420746f6f20736d616c6c20666f7220616d6f72746992878a519562461bcd60e51b8752860152840152820152653d30ba34b7b760d11b6064820152fd5b634e487b7160e01b8e5260118552838efd5b9b918d8213610c7b575b5050610a63565b90919b5061271091820190818311610c585790610c9791614896565b04995f80610c74565b50634e487b7160e01b8b52602182528afd5b9091508681813d8311610cde575b610cca81836147db565b81010312610cda5751905f610a21565b5f80fd5b503d610cc0565b89513d8f823e3d90fd5b9194509150670de0b6b3a764000090818102918183041490151715610d21578891610d1991614878565b925f806109f5565b634e487b7160e01b8f5260118652848ffd5b8287949697939550839283928390610dc1575bf115610ce55782610daf578d929188918b51908152606083820152600b60608201526a37b934b3b4b730ba34b7b760a91b6080820152878c8201527f66aecc579aa1ef463c0ed1547c2cb6163370e6311a60cba815252acbb398f21360a03392a25f80806109da565b634e487b7160e01b8e5260218552838efd5b506108fc610d46565b945090506109d0612710610de95f968b895260b3875288205484614896565b049190508c6109c5565b875162461bcd60e51b81528084018790526025818401527f496e73756666696369656e7420636f6c6c61746572616c20666f722074686973818d015264103637b0b760d91b6064820152608490fd5b875162461bcd60e51b81528084018790526025818401527f426f72726f7720616d6f756e74206578636565647320796f7572207469657220818d0152641b1a5b5a5d60da1b6064820152608490fd5b875162461bcd60e51b81528084018790526030818401527f426f72726f7720616d6f756e74206578636565647320617661696c61626c6520818d01526f6c656e64696e6720636170616369747960801b6064820152608490fd5b875162461bcd60e51b8152808401879052601481840152734372656469742073636f726520746f6f206c6f7760601b818d0152606490fd5b9150503d808d833e610f3581836147db565b810191606082840312610fd6578151878301516001600160401b038111610fd257830184601f82011215610fd2578051610f6e8161528e565b95610f7b8d5197886147db565b8187528a8284010111610fce577f0dda2aa47a3db5dda18a4f06501647c631e2c43e7e7876dbeaf21023b8266fb594610fbe8d92610fc4948d808b019101614675565b016147fc565b50929092916108fb565b8f80fd5b8e80fd5b8c80fd5b88513d8e823e3d90fd5b610fed906147ad565b610ff857895f6108c9565b8980fd5b88513d84823e3d90fd5b60156064928588519362461bcd60e51b85528401528201527414d95b1958dd081858d8dbdd5b9d1cc8199a5c9cdd605a1b6044820152fd5b90508481813d831161106c575b61105581836147db565b81010312610ff857611066906147fc565b5f61088c565b503d61104b565b87513d8c823e3d90fd5b60136064928588519362461bcd60e51b85528401528201527250726f6f6620616c726561647920757365642160681b6044820152fd5b90508481813d83116110e1575b6110ca81836147db565b81010312610ff8576110db906147fc565b5f610861565b503d6110c0565b601e889160649386519362461bcd60e51b85528401528201527f526570617920796f7572206578697374696e67206465627420666972737400006044820152fd5b5050346106255760203660031901126106255760209061114f61114a61455d565b615a7f565b15159051908152f35b505034610625578160031936011261062557602090517f742d8195bebb59905cedb6c02453745e9ef7090c163e7dea727ab0849b3dfc008152f35b505034610625578160031936011261062557602090517fa22cb6bd33c714cffaf72f196d1ebf87829cac5214f3ad84491fa8669ede7a6a8152f35b50503461062557816003193601126106255760209060ff60aa5460a01c1690519015158152f35b50346106395760203660031901126106395735916005831015611226575061121e602092614738565b549051908152f35b80fd5b50503461062557806003193601126106255760209161124661455d565b8261124f614573565b6001600160a01b03928316845260978652922091165f908152908352819020549051908152f35b505034610625578160031936011261062557602090517fb438992c2c4c65322b65fd8e2dacea9efd63443e69e5ed52f4a77ed6c78f7c2a8152f35b5034610639576020366003190112610639576112cb61455d565b60a9546001600160a01b039391929190841633036112fc575050166001600160601b0360a01b60a754161760a75580f35b51630925c89960e31b8152fd5b828434611226578060031936011261122657815191829160a05480855260208095019460a083527f78fdc8d422c49ced035a9edf18d00d3c6a8d81df210f3e5e448e045e77b41e8892905b82821061137a57611376868661136c828b03836147db565b51918291826146f4565b0390f35b83546001600160a01b031687529586019560019384019390910190611354565b509034610639576020366003190112610639576113b561455d565b60a95490926001600160a01b03929091831633036112fc5750508060ab54921691826001600160601b0360a01b82161760ab5582611416575b167f7fc5e57c5215ef3b834df4680694bbed4808bf88ddc971b470cb8ef9365e63868380a380f35b6001600160a81b031981168317600160a01b1760ab556113ee565b509034610639576020806003193601126115385761144d61455d565b611456816151b0565b50611500576001600160a01b0316808552609c82528285205490939060ff166114bf5750828452609c8152818420805460ff19166001179055609d905282204290557f7f62ed89ea2c6fb057e4ea77729c1d3f18056339791fce29ac89760197b45b298280a280f35b915162461bcd60e51b815291820152601b60248201527f4c69717569646174696f6e20616c7265616479207374617274656400000000006044820152606490fd5b50905162461bcd60e51b8152918201526013602482015272506f736974696f6e206973206865616c74687960681b6044820152606490fd5b8380fd5b50903461063957602036600319011261063957813560a3549261156260ff851615614d34565b60ff1993841660011760a35560a5546001600160a01b031633036115ff574782116115bc575083808080938181156115b3575b3390f1156115a8575060a3541660a35580f35b51913d9150823e3d90fd5b506108fc611595565b606490602084519162461bcd60e51b8352820152601d60248201527f496e73756666696369656e7420636f6e74726163742062616c616e63650000006044820152fd5b608490602084519162461bcd60e51b8352820152602260248201527f4f6e6c79206c656e64696e67206d616e616765722063616e2063616c6c207468604482015261697360f01b6064820152fd5b50903461063957806003193601126106395761166761455d565b60a954602435936001600160a01b039291831633036116c857620151808511611699575016835260b060205282205580f35b606490602085519162461bcd60e51b83528201526009602482015268546f6f206c6172676560b81b6044820152fd5b8351630925c89960e31b8152fd5b509034610639578060031936011261063957611711913561170c60016116fa614573565b93838752606560205286200154615799565b615a0c565b80f35b505034610625576020366003190112610625576020906107cc61114a61455d565b50503461062557816003193601126106255760a95490516001600160a01b039091168152602090f35b5050346106255760203660031901126106255760209181906001600160a01b0361178661455d565b168152609b845220549051908152f35b509190346106255760603660031901126106255760a9548335919060243590604435906001600160a01b03163303611853576117d560ac548510614b5d565b82518381018181106001600160401b03821117611840577f7543d68ffbde1802767cee31f14403e1b914f7249f14f2724e7398aa10de092395969750845282815260016020820183815287895260b3602052858920925183555191015582519182526020820152a280f35b604188634e487b7160e01b5f525260245ffd5b8251630925c89960e31b81528690fd5b50503461062557816003193601126106255760209060ff60a3541690519015158152f35b505034610625578160031936011261062557611376906118a561548d565b9051918291826146f4565b50346106395760c0366003190112610639576118ca61455d565b6118d2614573565b6118da614589565b916064356001600160a01b0381811691829003610cda5760843594818616809603610cda5760a43594828616809603610cda5789549760ff8960081c16159889809a611bd8575b8015611bc1575b15611b675760ff1981166001178c5589611b56575b5060ff8b5460081c1615611aff57508290816001600160601b0360a01b96168660a954161760a955168460a454161760a455168260a554161760a5558160a654161760a65560a854161760a85580611ae0575b5060ab805460ff60a01b191690558151906119aa82614763565b605a82526119d4602092606484820152606e85820152601819606082015260326080820152615d01565b611a0683516119e281614763565b60508152605984820152607d85820152600919606082015260286080820152615d01565b611a368351611a1481614763565b60468152604f84820152608c85820152856060820152601e6080820152615d01565b611a678351611a4481614763565b603c815260458482015260a085820152600f606082015260146080820152615d01565b611a968351611a7581614763565b858152603b8482015260c885820152601e6060820152856080820152615d01565b662386f26fc1000060b155611aa9578280f35b7f7f26b83ff96e1f2b6a682f133852f6798a09c465da95921460cefb38474024989161ff001984541684555160018152a15f808280f35b60aa80546001600160a81b031916909117600160a01b1790555f611990565b60849060208b519162461bcd60e51b8352820152602b60248201527f496e697469616c697a61626c653a20636f6e7472616374206973206e6f74206960448201526a6e697469616c697a696e6760a81b6064820152fd5b61ffff1916610101178b555f61193d565b8a5162461bcd60e51b8152602081840152602e60248201527f496e697469616c697a61626c653a20636f6e747261637420697320616c72656160448201526d191e481a5b9a5d1a585b1a5e995960921b6064820152608490fd5b50303b1580156119285750600160ff821614611928565b50600160ff821610611921565b50503461062557816003193601126106255760a45490516001600160a01b039091168152602090f35b503461063957602036600319011261063957611c2861455d565b60a9546001600160a01b03919082163303611ca05716918215611c5d5750506001600160601b0360a01b60a554161760a55580f35b906020606492519162461bcd60e51b8352820152601f60248201527f496e76616c6964206c656e64696e67206d616e616765722061646472657373006044820152fd5b8351630925c89960e31b81528390fd5b503461063957826003193601126106395760a9546001600160a01b03163303611d25575060207f228f455d7bc3d0b24a3a08d7847f391c3e78fc8aeb83acf226b7a96ee162b8ac9160ff60a35461ff00828260081c161560081b169061ff00191617918260a355519160081c1615158152a180f35b9051630925c89960e31b8152fd5b505034610625578160031936011261062557602090517facd38b7c4e04b2b78fc2ca994eae1a3eb206005ffa4c11fcf4a9d81c94684b2d8152f35b5050346106255760203660031901126106255760209181906001600160a01b03611d9661455d565b168152609d845220549051908152f35b505034610625578160031936011261062557602090516203f4808152f35b5050346106255781600319360112610625576020905160828152f35b50503461062557816003193601126106255760209060af549051908152f35b50503461062557816003193601126106255760209060ae549051908152f35b50503461062557816003193601126106255760a85490516001600160a01b039091168152602090f35b5050346106255760203660031901126106255760209181906001600160a01b03611e6f61455d565b168152609a845220549051908152f35b5034610639576020366003190112610639573591609f548310156112265750611ea96020926145f7565b905491519160018060a01b039160031b1c168152f35b50346106395760203660031901126106395791819235815260b3602052206001815491015482519182526020820152f35b50503461062557816003193601126106255760209060ff60a35460081c1690519015158152f35b50503461062557816003193601126106255760a75490516001600160a01b039091168152602090f35b50503461062557816003193601126106255760aa5490516001600160a01b039091168152602090f35b5034610639578160031936011261063957611f8261455d565b60aa54602435926001600160a01b03929183163303611fe55750916020917f4afae6838a181695abc7978598380d73bc2144eb38580c130f86e4b1e6531e1593611fcf6064841115615220565b169384865260998352818187205551908152a280f35b606490602086519162461bcd60e51b8352820152601d60248201527f4f6e6c79206372656469742073797374656d2063616e207570646174650000006044820152fd5b828434611226576020366003190112611226575061204c61204761455d565b6152a9565b909261206981519485948552606060208601526060850190614696565b911515908301520390f35b50903461063957806003193601126106395761208e61455d565b6024359160018060a01b03809216938486526020926098845260ff8388205416156122a657841561226e57338752609c845260ff83882054166122365790849133885260a18552838820805460ff8116156121d1575b505083516323b872dd60e01b815233928101928352306020840152604083019390935250909291908290849081906060015b038189895af180156121c757612173575b7ff1c0dd7e9b98bbff859029005ef89b127af049cd18df1a8d79f0b7e019911e56925084865260978252808620335f528252805f20612167858254614809565b9055519283523392a380f35b8183813d83116121c0575b61218881836147db565b81010312610718576121ba7ff1c0dd7e9b98bbff859029005ef89b127af049cd18df1a8d79f0b7e019911e56936147fc565b50612127565b503d61217e565b81513d88823e3d90fd5b60ff1916600117905560a05491925090600160401b8110156122235784939261211695926122068360018a950160a0556145ae565b819291549060031b9133831b921b191617905591948193946120e4565b604183634e487b7160e01b5f525260245ffd5b508161070592515f80516020615df583398151915233918061225781614c3a565b0390a25162461bcd60e51b81529182918201614c3a565b508161070592515f80516020615df583398151915233918061228f81615261565b0390a25162461bcd60e51b81529182918201615261565b508161070592515f80516020615df58339815191523391806122c781614bdf565b0390a25162461bcd60e51b81529182918201614bdf565b50346106395781600319360112610639576122f761455d565b6024359060a3549361230f60ff8660081c161561482a565b61231c60ff861615614d34565b60ff1994851660011760a35582156125595760018060a01b0382169384875260209260978452828820335f52845284835f20541061251757338852609a8452828820548592918161243b575b5050928092916123ba94878a5260978352838a20335f528352835f2061238f83825461486b565b9055835163a9059cbb60e01b8152339181019182526020820192909252909485918291604090910190565b03818a895af18015612431576123ec575b5f80516020615dd58339815191529250519283523392a360a3541660a35580f35b8183813d831161242a575b61240181836147db565b81010312612426576124205f80516020615dd5833981519152936147fc565b506123cb565b8680fd5b503d6123f7565b81513d89823e3d90fd5b6124a29192935061247a670de0b6b3a764000091898c5260978852868c20335f52885261247461246e8a895f205461486b565b91615550565b90614896565b049161248533614dc6565b606461249c61249333614cc5565b50503394614896565b04615be0565b116124b05783905f80612368565b82608492519162461bcd60e51b8352820152603b60248201527f5769746864726177616c20776f756c642076696f6c61746520746965722d626160448201527f73656420636f6c6c61746572616c20726571756972656d656e747300000000006064820152fd5b5082606492519162461bcd60e51b8352820152601760248201527f496e73756666696369656e7420636f6c6c61746572616c0000000000000000006044820152fd5b5162461bcd60e51b815280610705818601615261565b50503461062557816003193601126106255751908152602090f35b50503461062557816003193601126106255760a55490516001600160a01b039091168152602090f35b5050346106255781600319360112610625576020905160058152f35b509034610639576020366003190112610639576125ea61455d565b60a95490926001600160a01b03929091831633036112fc5750508060aa54921691826001600160601b0360a01b82161760aa55167f3637d79e8b0bd63fa3bcc41c2ab614b349b83626b91f73211bc80c6ec5ec4e958380a380f35b50903461063957806003193601126106395761265f61455d565b60a95460243592916001600160a01b03918216330361274a5716928315612708573084146126ce5750816020916126ba60647f4afae6838a181695abc7978598380d73bc2144eb38580c130f86e4b1e6531e15951115615220565b84865260998352818187205551908152a280f35b6020606492519162461bcd60e51b8352820152601560248201527424b73b30b634b21030b2323932b9b99d1039b2b63360591b6044820152fd5b6020606492519162461bcd60e51b8352820152601d60248201527f496e76616c696420616464726573733a207a65726f20616464726573730000006044820152fd5b8251630925c89960e31b81528590fd5b50503461062557816003193601126106255760209060a2549051908152f35b505034610625578160031936011261062557602090517f96737339a958f216173e690d06f324072e6dc3146e04c060bd723906d6b190768152f35b5050346106255760203660031901126106255760209160ff9082906001600160a01b036127df61455d565b16815260a1855220541690519015158152f35b50346106395781600319360112610639578160209361280f614573565b9235815260658552209060018060a01b03165f52825260ff815f20541690519015158152f35b828434611226576020366003190112611226575061285961285461455d565b6151b0565b825191151582526020820152f35b5050346106255760203660031901126106255760a09061288d61288861455d565b615107565b93949190928251951515865215156020860152151590840152606083015215156080820152f35b505034610625578160031936011261062557602090517fce802e42c93d0fbd61dfc706a0e806b78ac046397e07510da2f223464e4788e08152f35b50503461062557816003193601126106255760209060b1549051908152f35b505034610625578160031936011261062557602090517f0e0e24c52bc4f24612e3f568966757426acd82325205933a9270e1ce7c4d93c28152f35b5050346106255780600319360112610625576129d7906129c26129bd61296d61455d565b856024359460018060a01b036129888160a554163314615081565b83168252609a6020528181812055609b6020528181812055609c60205280822060ff198154169055609d602052812055614dc6565b614738565b6129cd82825461486b565b905560af54614809565b60af5580f35b50346106395781600319360112610639576129f661455d565b916129ff614573565b60a95490936001600160a01b0393909184163303612a50575082168085526098602052612a3160ff8387205416614f6a565b8452609e602052832091166001600160601b0360a01b82541617905580f35b8251630925c89960e31b8152fd5b50346106395760203660031901126106395760e09282906001600160a01b03612a8561455d565b16815260b46020522080549260018201549260028301546003840154918401549260ff600660058701549601541695815197885260208801528601526060850152608084015260a0830152151560c0820152f35b5050346106255760203660031901126106255760209160ff9082906001600160a01b03612b0461455d565b1681526098855220541690519015158152f35b509034610639576020928360031936011261122657612b3461455d565b9260a254612b4760ae5460af549061486b565b8115612c9157670de0b6b3a764000090818102918183041490151715612c7e5790612b7191614878565b935b60a6548451634fd41dad60e11b8152838101969096528690869060249082906001600160a01b03165afa948515612c74578395612c43575b50612bb590614cc5565b5085915083811215612c0657612bcf919293949550615071565b9261271093840392848411612bf357505090612bea91614896565b04905b51908152f35b634e487b7160e01b825260119052602490fd5b92808413612c18575b50505050612bed565b90919293945061271093840192838511612bf357505090612c3891614896565b04905f808080612c0f565b9094508581813d8311612c6d575b612c5b81836147db565b81010312610cda575193612bb5612bab565b503d612c51565b84513d85823e3d90fd5b634e487b7160e01b845260118352602484fd5b50508193612b73565b5090346106395760203660031901126106395781359260ac548410156112265750612cc660a0936146bb565b508054926001820154926002830154916003840154930154938151958652602086015284015260608301526080820152f35b503461063957602036600319011261063957612d1261455d565b60a95491906001600160a01b03908184163303612d795716928315612d445750506001600160a01b0319161760a95580f35b906020606492519162461bcd60e51b8352820152600f60248201526e496e76616c6964206164647265737360881b6044820152fd5b8451630925c89960e31b81528390fd5b5091903461062557612d9a3661462c565b505060609160b554603c8101809111612f5057612db8904211614d70565b8151809160a05480835283602080940160a084527f78fdc8d422c49ced035a9edf18d00d3c6a8d81df210f3e5e448e045e77b41e8892845b86828210612f3157505050612e07925003846147db565b612e11835161503f565b938193825b8151811015612e9c576001600160a01b03612e3182846148a9565b5116808552609c865260ff8486205416612e4f575b50600101612e16565b609d8652838520546203f4808101809111612e89574210612e465786612e8291612e7c600194998b6148a9565b526148bd565b9590612e46565b634e487b7160e01b865260118b52602486fd5b5084905085878215612f255750612eb28261503f565b935b828110612efd5750505061137690612ed8612ee660019483519283918883016146f4565b03601f1981018352826147db565b905b80805195869515158652850152830190614696565b6001906001600160a01b03612f1282856148a9565b5116612f1e82886148a9565b5201612eb4565b91505061137691612ee8565b85546001600160a01b0316845260019586019589955093019201612df0565b634e487b7160e01b825260118552602482fd5b505034610625576020366003190112610625576020906107cc612f8461455d565b614fb6565b50503461062557816003193601126106255760209060ff60ab5460a01c1690519015158152f35b503461063957602036600319011261063957612fca61459f565b60a9549091906001600160a01b03163303612a5057507f895b395338611f71448ee682a563b0c13233e238236eb6700d45720ec4bf44459160209115159060aa5460ff60a01b8360a01b169060ff60a01b19161760aa5551908152a180f35b5050346106255760203660031901126106255760209181906001600160a01b0361305161455d565b16815260b0845220549051908152f35b50503461062557816003193601126106255760209051603c8152f35b505034610625576020366003190112610625576020916001600160a01b03908290826130a761455d565b16808252609886526130be60ff8484205416614f6a565b8152609e85522054169051908152f35b505034610625578160031936011261062557602090516103848152f35b505034610625578160031936011261062557602090516276a7008152f35b50903461063957806003193601126106395761312361455d565b906024359182151592838103610cda5760a9546001600160a01b0392908316330361325b57821694858752609860205261316b828589209060ff801983541691151516179055565b609f549187805b848110613231575b5081613228575b506131b7575b5050507f15f5cc64ca777db85f6c05fdba671568758b38329616d4d4b43bb8b092fe9a8d9160209151908152a280f35b600160401b8210156132155750917f15f5cc64ca777db85f6c05fdba671568758b38329616d4d4b43bb8b092fe9a8d93916131fa84600160209601609f556145f7565b819291549060031b9188831b921b1916179055918193613187565b604190634e487b7160e01b5f525260245ffd5b9050155f613181565b888661323c836145f7565b90549060031b1c161461325157600101613172565b505060015f61317a565b8351630925c89960e31b81528690fd5b50503461062557806003193601126106255760209161328861455d565b906001600160a01b039083908261329d614573565b168152609786522091165f528252805f20549051908152f35b505034610625576020366003190112610625576060906132dc6132d761455d565b614e6d565b919290815193151584526020840152820152f35b509190346106255760203660031901126106255761331461330f61455d565b614dc6565b905191600582101561332857602083838152f35b634e487b7160e01b815260218452602490fd5b505034610625578160031936011261062557602090517f430b074324c1d9f1ce97c9e9efd8cc6b779c8a501b53808a5cafe19682f95dd58152f35b5034610639576133853661462c565b60b593919354603c810180911161351b576133a1904211614d70565b4260b5558301926020908181860312610718578035906001600160401b03821161242657019380601f860112156107185784356133dd81614daf565b956133ea855197886147db565b818752838088019260051b820101928311613517578301905b8282106134f857505050845b84518110156134f4576001600160a01b038061342b83886148a9565b511690818852609c845260ff858920541661344b575b505060010161340f565b609d8452848820546203f48081018091116134e15790889291421015613472575b50613441565b60a55416803b1561063957855163bcebb1d760e01b8152308882019081526001600160a01b039093166020840152918391839182908490829060400103925af180156134d7576134c3575b8061346c565b6134cc906147ad565b61071857855f6134bd565b85513d84823e3d90fd5b634e487b7160e01b895260118752602489fd5b8580f35b81356001600160a01b0381168103610cda578152908301908301613403565b8780fd5b634e487b7160e01b865260118452602486fd5b50503461062557816003193601126106255780602092338152609a845220549051908152f35b505034610625578160031936011261062557602090517f5fef09193e4e8110de1cc5ba269e889a5fb9093ba33c4df4b67dc2eaa1ca1fff8152f35b50503461062557816003193601126106255760a354905160109190911c6001600160a01b03168152602090f35b505f366003190112610cda5760a354916135dc60ff8460081c161561482a565b6135e960ff841615614d34565b600160ff198094161760a355335f52602090609a8252805f205480156137b4573415613782578086913411805f1461377b5781955b335f52609a8652845f2061363388825461486b565b90556136418760af54614809565b60af556136506129bd33614dc6565b61365b88825461486b565b9055335f52609c8652845f2088815460ff8116613767575b505060a7546001600160a01b03169050806136f3575b50506136c6575b5050907f0516911bcc3a0a7412a44601057c0a0a1ec628bde049a84284bc42886653448891519283523392a260a3541660a35580f35b81806136d381933461486b565b8181156136ea575b3390f11561063057845f613690565b506108fc6136db565b8091929394503b15610cda5784516340c10f1960e01b815233928101928352662386f26fc1000088046020840152915f91839182908490829060400103925af1801561375d57613748575b9081889392613689565b613754919297506147ad565b5f95905f61373e565b84513d5f823e3d90fd5b169055609d86525f858120555f8881613673565b349561361e565b505162461bcd60e51b815291820152600d60248201526c09aeae6e840e6cadcc8408aa89609b1b604482015260649150fd5b505162461bcd60e51b815291820152601060248201526f4e6f206465627420746f20726570617960801b604482015260649150fd5b8234610cda575f366003190112610cda5760209060b5549051908152f35b8234610cda576020366003190112610cda5760609061382c61382761455d565b614cc5565b91929081519384526020840152820152f35b5034610cda576020366003190112610cda57359060a054821015610cda57611ea96020926145ae565b5034610cda5781600319360112610cda57613880614573565b90336001600160a01b0383160361389e5761389c925035615a0c565b005b608490602084519162461bcd60e51b8352820152602f60248201527f416363657373436f6e74726f6c3a2063616e206f6e6c792072656e6f756e636560448201526e103937b632b9903337b91039b2b63360891b6064820152fd5b509034610cda576020366003190112610cda5760a9546001600160a01b031633036112fc57503560b155005b8234610cda575f366003190112610cda57602090517ffed613f2d4bec2209ff904769fa3c094c155ec5048c0bb2e17f16e523671ca2c8152f35b509034610cda5780600319360112610cda5761397961455d565b6024359160018060a01b039384831694855f526020936098855260ff845f20541615613bcd57865f5260978552835f20335f52855285845f205410613b9557335f52609c855260ff845f205416613b74576139f990670de0b6b3a76400006139f26139ec6139e633614fb6565b93615550565b89614896565b049061486b565b90606482029180830460641490151715613b6157602490335f52609a865285855f20549160a45416865193848092631ee1b90b60e21b82528c898301525afa908115613b57575f91613b26575b613a509250614896565b11613aef57908284613a7a9493875f5260978352835f20335f528352835f2061238f83825461486b565b03815f895af18015613ae557613aa4575b5f80516020615dd58339815191529250519283523392a3005b8183813d8311613ade575b613ab981836147db565b81010312610cda57613ad85f80516020615dd5833981519152936147fc565b50613a8b565b503d613aaf565b50513d5f823e3d90fd5b8161070592515f80516020615df5833981519152339180613b0f81614c72565b0390a25162461bcd60e51b81529182918201614c72565b90508582813d8311613b50575b613b3d81836147db565b81010312610cda57613a50915190613a46565b503d613b33565b85513d5f823e3d90fd5b601183634e487b7160e01b5f525260245ffd5b610705838580515f80516020615df583398151915233918061225781614c3a565b610705838580515f80516020615df5833981519152339180613bb681614c0b565b0390a25162461bcd60e51b81529182918201614c0b565b610705838580515f80516020615df58339815191523391806122c781614bdf565b5034610cda576020366003190112610cda5760e091613c0b61455d565b5f60c08351613c1981614792565b82815282602082015282858201528260608201528260808201528260a0820152015260018060a01b03165f5260b4602052805f20815191613c5983614792565b81549384845260018301549160208501928352600284015481860190815260038501549260608701938452850154936080870194855260c060ff600660058901549860a08b01998a5201541697019615158752825197885251602088015251908601525160608501525160808401525160a083015251151560c0820152f35b509034610cda5760c0366003190112610cda5760a954823592906001600160a01b03163303611d255750613d4b61389c92613d1660ac548210614b5d565b825192613d2284614763565b6024358452604435602085015260643590840152608435606084015260a43560808401526146bb565b90614b98565b5034610cda5781600319360112610cda573590613d6c614573565b90825f526065602052613d846001825f200154615799565b825f526065602052805f209160018060a01b031691825f5260205260ff815f20541615613dad57005b825f526065602052805f20825f526020525f20600160ff1982541617905533917f2f8788117e7eff1d82e926ec794901d17c78024a50270940304540a733656f0d5f80a4005b5034610cda576020366003190112610cda5735906001600160401b0382168203610cda576107cc602092614b0d565b509034610cda576020366003190112610cda57602091355f52606582526001815f2001549051908152f35b34610cda575f366003190112610cda5761389c6148cb565b50905f366003190112610cda57613e8460ff60a35460081c161561482a565b335f52602060b48152815f20600681019360ff855416156140e457808201918254928334106140a157600382019182548042106140725762093a80810180911161405f57804211613f98575b50906001613f07920194613ee581875461486b565b8655335f52609a8752613efc885f2091825461486b565b90555460af54614809565b60af5580549162278d008301809311613f855750907fd3cf6d8c55fed98c7b9f9d18d95a51dbdb316503bb854fc1f676c8974cb10f4f9291555492838151933485528401523392a215613f5657005b805460ff19169055337f59bd56f70adeefb0cd83dca0f34f066bed6ee442068f3d07b5fc974b944d5aa65f80a2005b601190634e487b7160e01b5f525260245ffd5b613fa133614dc6565b600581101561404c5791600191613f0794935f5260b3895262015180613fcd848c5f200154924261486b565b0480151580614043575b613fe6575b5050919250613ed0565b61401061271061016d6140078787019461400286549788614896565b614896565b04048093614809565b905589519081527fce0d6b567089a0bce35e0693cdb625006f0cf915f9f3686bb0343bc2c667c1b2893392a28a80613fdc565b50811515613fd7565b602186634e487b7160e01b5f525260245ffd5b601185634e487b7160e01b5f525260245ffd5b875162461bcd60e51b81528086018890526009602482015268546f6f206561726c7960b81b6044820152606490fd5b855162461bcd60e51b8152808401869052601860248201527f496e73756666696369656e7420696e7374616c6c6d656e7400000000000000006044820152606490fd5b835162461bcd60e51b8152908101839052600e60248201526d27379030b1ba34bb32903637b0b760911b6044820152606490fd5b8234610cda576020366003190112610cda576020906001600160a01b038061413e61455d565b165f52609e8352815f2054169051908152f35b8234610cda575f366003190112610cda57602090517f8b473ac3e35dc431c1dba0191b7615ccaca6bfeb14f9573dcaae9e614fbe8b208152f35b5034610cda576020366003190112610cda576141a561455d565b60a9546001600160a01b03919082163303611ca057169182156141fb5760b280546001600160a01b03191684179055827f279ea638680bba6a87fddd8bcdbc37d94eee92841e1dfec2ab0f79662c7093115f80a2005b906020606492519162461bcd60e51b8352820152601760248201527f496e76616c6964207265736572766520616464726573730000000000000000006044820152fd5b8234610cda575f366003190112610cda5751478152602090f35b509034610cda576020366003190112610cda5761427361459f565b60a9549092906001600160a01b03163303611d25577fb01450010edba5be11857fe89630b2ff764d237a9f9f77ab651643effd8699886020838515159060ab5460ff60a01b8360a01b169060ff60a01b19161760ab5551908152a1005b8234610cda575f366003190112610cda5760209051600a8152f35b8234610cda575f366003190112610cda5760209051610e108152f35b509034610cda5780600319360112610cda5761432161455d565b9160243590335f52602093609c855260ff845f205416156144035783516323b872dd60e01b815233928101928352306020840152604083018490526001600160a01b039091169185908290819060600103815f865af1801561375d576143cf575b505f5260978352815f20335f52835261439f825f20918254614809565b90556143aa336151b0565b506143b157005b335f908152609c8352818120805460ff19169055609d909252812055005b8481813d83116143fc575b6143e481836147db565b81010312610cda576143f5906147fc565b5084614382565b503d6143da565b835162461bcd60e51b8152808301869052601a60248201527f4163636f756e74206e6f7420696e206c69717569646174696f6e0000000000006044820152606490fd5b8234610cda576020366003190112610cda576020906001600160a01b0361446b61455d565b165f52609c825260ff815f20541690519015158152f35b8234610cda575f366003190112610cda5760ab5490516001600160a01b039091168152602090f35b5034610cda576020366003190112610cda573563ffffffff60e01b8116809103610cda57602091637965db0b60e01b82149182156144ec575b50519015158152f35b6301ffc9a760e01b149150836144e3565b8234610cda576020366003190112610cda5761451761455d565b60a9549092906001600160a01b031633036145515760a3805462010000600160b01b031916601085901b62010000600160b01b0316179055005b630925c89960e31b8152fd5b600435906001600160a01b0382168203610cda57565b602435906001600160a01b0382168203610cda57565b604435906001600160a01b0382168203610cda57565b600435908115158203610cda57565b60a0548110156145e35760a05f527f78fdc8d422c49ced035a9edf18d00d3c6a8d81df210f3e5e448e045e77b41e8801905f90565b634e487b7160e01b5f52603260045260245ffd5b609f548110156145e357609f5f527f0bc14066c33013fe88f66e314e4cf150b0b2d4d6451a1a51dbbd1c27cd11de2801905f90565b906020600319830112610cda576004356001600160401b0392838211610cda5780602383011215610cda578160040135938411610cda5760248483010111610cda576024019190565b5f5b8381106146865750505f910152565b8181015183820152602001614677565b906020916146af81518092818552858086019101614675565b601f01601f1916010190565b60ac548110156145e35760059060ac5f52027f0a0a1bcadd9f6a5539376fa82276e043ae3cb4499daaaf8136572ecb1f9f0d6001905f90565b60209060206040818301928281528551809452019301915f5b82811061471b575050505090565b83516001600160a01b03168552938101939281019260010161470d565b600581101561474f575f5260ad60205260405f2090565b634e487b7160e01b5f52602160045260245ffd5b60a081019081106001600160401b0382111761477e57604052565b634e487b7160e01b5f52604160045260245ffd5b60e081019081106001600160401b0382111761477e57604052565b6001600160401b03811161477e57604052565b604081019081106001600160401b0382111761477e57604052565b90601f801991011681019081106001600160401b0382111761477e57604052565b51908115158203610cda57565b9190820180921161481657565b634e487b7160e01b5f52601160045260245ffd5b1561483157565b60405162461bcd60e51b815260206004820152601260248201527110dbdb9d1c9858dd081a5cc81c185d5cd95960721b6044820152606490fd5b9190820391821161481657565b8115614882570490565b634e487b7160e01b5f52601260045260245ffd5b8181029291811591840414171561481657565b80518210156145e35760209160051b010190565b5f1981146148165760010190565b6148d361548d565b5f5b8151811015614975576001600160a01b03806148f183856148a9565b511690815f52602091609e8352604091825f205416614916575b5050506001016148d5565b61492d614925610e1092615620565b90504261486b565b11614938578061490b565b60a3805461ff00191661010017905551600181527f228f455d7bc3d0b24a3a08d7847f391c3e78fc8aeb83acf226b7a96ee162b8ac9350909150a1565b505060a2548015159081614ad6575b506149bb5760a05460a5545f91906001600160a01b03908116835b838110614a215750505080151591826149f7575b50506149bb57565b61010061ff001960a354161760a3557f228f455d7bc3d0b24a3a08d7847f391c3e78fc8aeb83acf226b7a96ee162b8ac602060405160018152a1565b90915060648102908082046064149015171561481657600591614a1991614878565b115f806149b3565b614a2a816145ae565b905460408051632cf5889360e01b815230600482015260039390931b9190911c85166001600160a01b031660248301529060208082604481885afa928315614acd57505f92614a97575b5050614a83575b60010161499f565b93614a8f6001916148bd565b949050614a7b565b90809250813d8311614ac6575b614aae81836147db565b81010312610cda57614abf906147fc565b5f80614a74565b503d614aa4565b513d5f823e3d90fd5b9050614ae760ae5460af549061486b565b60648102908082046064149015171561481657605f91614b0691614878565b115f614984565b6001600160401b0380911661012c811115614b5757610352811015614b505761012b19018181116148165781166064028082169081036148165761022690041690565b5050606490565b50505f90565b15614b6457565b60405162461bcd60e51b815260206004820152600c60248201526b24b73b30b634b2103a34b2b960a11b6044820152606490fd5b9190614bcc576080816004925184556020810151600185015560408101516002850155606081015160038501550151910155565b634e487b7160e01b5f525f60045260245ffd5b606090602081526011602082015270151bdad95b881b9bdd08185b1b1bddd959607a1b60408201520190565b606090602081526014602082015273496e73756666696369656e742062616c616e636560601b60408201520190565b60609060208152601960208201527f4163636f756e7420697320696e206c69717569646174696f6e0000000000000060408201520190565b60809060208152603260208201527f5769746864726177616c20776f756c64206d616b6520706f736974696f6e20756040820152711b99195c98dbdb1b185d195c985b1a5e995960721b60608201520190565b614cce90614dc6565b600581101561474f57614ce0906146bb565b509060405190614cef82614763565b82548252600183015460208301526064614d2d608060028601549485604082015260046003880154978860608401520154918291015260a254614896565b0491929190565b15614d3b57565b60405162461bcd60e51b815260206004820152600d60248201526c4e6f207265656e7472616e637960981b6044820152606490fd5b15614d7757565b60405162461bcd60e51b815260206004820152601060248201526f155c1ad9595c081d1a1c9bdd1d1b195960821b6044820152606490fd5b6001600160401b03811161477e5760051b60200190565b614dcf90615a7f565b60ac54905f5b828110614df55750505f19810190811161481657600581101561474f5790565b614dfe816146bb565b505482101580614e24575b614e1557600101614dd5565b915050600581101561474f5790565b506001614e30826146bb565b500154821115614e09565b90816060910312610cda5780516001600160401b0381168103610cda57916040614e67602084016147fc565b92015190565b60ab549060ff8260a01c16158015614f59575b614f4f5760405163d3dd2bdf60e01b81526001600160a01b0391821660048201529160609183916024918391165afa5f918291829181614f1b575b50614ecc575b5050505f905f905f90565b80614f09575b80614ef3575b614ee25780614ec1565b614eeb90614b0d565b916001929190565b506276a700820180831161481657421115614ed8565b506001600160401b0381161515614ed2565b91509250614f41915060603d606011614f48575b614f3981836147db565b810190614e3b565b925f614ebb565b503d614f2f565b50505f905f905f90565b506001600160a01b03821615614e80565b15614f7157565b60405162461bcd60e51b815260206004820152601f60248201527f546f6b656e206e6f7420616c6c6f77656420617320636f6c6c61746572616c006044820152606490fd5b905f91614fc161548d565b925f5b8451811015615039576001600160a01b0380614fe083886148a9565b511690815f5260209060978252604091825f209187165f52525f2054908161500d575b5050600101614fc4565b92670de0b6b3a764000061502a6150319361247460019697615550565b0490614809565b91905f615003565b50925050565b9061504982614daf565b61505660405191826147db565b8281528092615067601f1991614daf565b0190602036910137565b600160ff1b8114614816575f0390565b1561508857565b60405162461bcd60e51b815260206004820152601360248201527227b7363c902632b73234b733a6b0b730b3b2b960691b6044820152606490fd5b91908260c0910312610cda576150d8826147fc565b916150e5602082016147fc565b916150f2604083016147fc565b9160608101519160a0614e67608084016147fc565b60aa546001600160a01b0390811691908261512b575050505f905f905f905f905f90565b602460c09260405194859384926335856b7f60e11b84521660048301525afa5f91829182918291829181615173575b506151705750505050505f905f905f905f905f90565b94565b93509450505061519b915060c03d60c0116151a9575b61519381836147db565b8101906150c3565b50929491939092915f61515a565b503d615189565b906151ba82614fb6565b6001600160a01b0383165f908152609a602052604090205492831561521457811561520a576151e890614cc5565b505092606482029182046064036148165761520291614878565b918210159190565b505090505f905f90565b50600192505f19919050565b1561522757565b60405162461bcd60e51b815260206004820152601260248201527153636f7265206f7574206f662072616e676560701b6044820152606490fd5b6060906020815260126020820152710416d6f756e74206d757374206265203e20360741b60408201520190565b6001600160401b03811161477e57601f01601f191660200190565b60ab5460ff8160a01c168061547b575b61539c575b5060aa546001600160a01b03919082168061530e575b50165f52609960205260405f2054906040516152ef816147c0565b600d81526c4c4f43414c5f53544f5241474560981b6020820152905f90565b60c0602491604051928380926335856b7f60e11b825287871660048301525afa5f9181615375575b50156152d45780156152d45791505090604051615352816147c0565b6011815270494e54454752415445445f53595354454d60781b6020820152905f90565b61538f91925060c03d60c0116151a95761519381836147db565b505092505050905f615336565b60405163d3dd2bdf60e01b81526001600160a01b038381166004830152909160609183916024918391165afa5f91815f915f93615456575b506153e1575b50506152be565b80615444575b6153f2575b806153da565b6276a70081018091116148165742111561540c57806153ec565b6154169150614b0d565b90604051615423816147c0565b600e81526d149254d0cc17d59154925192515160921b602082015290600190565b506001600160401b03821615156153e7565b91509250615473915060603d606011614f4857614f3981836147db565b91925f6153d4565b506001600160a01b03811615156152b9565b609f545f805b82811061550857506154a49061503f565b905f805b8281106154b55750505090565b6154be816145f7565b905460039190911b1c6001600160a01b03165f8181526098602052604090205460ff166154ef575b506001016154a8565b8261550191612e7c60019495886148a9565b91906154e6565b615511816145f7565b60018060a01b0391549060031b1c165f52609860205260ff60405f20541661553c575b600101615493565b906155486001916148bd565b919050615534565b6004602061555d83615620565b509260018060a01b038091165f52609e825260405f2054166040519283809263313ce56760e01b82525afa80156155fe575f906155c1575b60ff91501660120360ff81116148165760ff1690604d8211614816576155be91600a0a90614896565b90565b506020813d6020116155f6575b816155db602093836147db565b81010312610cda575160ff81168103610cda5760ff90615595565b3d91506155ce565b6040513d5f823e3d90fd5b519069ffffffffffffffffffff82168203610cda57565b9060018060a01b03918281165f52609e602052604092835f2054168015615760579260a0600494825195868092633fabe5a360e21b82525afa8015613ae5575f80935f965f93615706575b5061567f615679884261486b565b91615d26565b106156d45769ffffffffffffffffffff80911691161061569e57509190565b5162461bcd60e51b815260206004820152601060248201526f5374616c6520726f756e64206461746160801b6044820152606490fd5b825162461bcd60e51b815260206004820152600b60248201526a5374616c6520707269636560a81b6044820152606490fd5b94509550505060a0823d60a011615758575b8161572560a093836147db565b81010312610cda5761573682615609565b93602083015161574d608060608601519501615609565b95909395915f61566b565b3d9150615718565b835162461bcd60e51b8152602060048201526012602482015271141c9a58d94819995959081b9bdd081cd95d60721b6044820152606490fd5b805f52602060658152604091825f20335f52825260ff835f205416156157be57505050565b3383519160608301906001600160401b03918481108382111761477e578652602a845284840190863683378451156145e35760308253845193600194600110156145e3576078602187015360295b8581116159cb575061598957865192608084019081118482101761477e578752604283528583019360603686378351156145e357603085538351600110156145e357607860218501536041905b808211615946575050615904576107059386936158e8936158d96048946158b09a519a8b957f416363657373436f6e74726f6c3a206163636f756e74200000000000000000008c8801525180926037880190614675565b8401917001034b99036b4b9b9b4b733903937b6329607d1b603784015251809386840190614675565b010360288101875201856147db565b5192839262461bcd60e51b845260048401526024830190614696565b60648587519062461bcd60e51b825280600483015260248201527f537472696e67733a20686578206c656e67746820696e73756666696369656e746044820152fd5b9091600f811660108110156145e3576f181899199a1a9b1b9c1cb0b131b232b360811b901a6159758487615dc3565b5360041c918015614816575f190190615859565b60648688519062461bcd60e51b825280600483015260248201527f537472696e67733a20686578206c656e67746820696e73756666696369656e746044820152fd5b90600f811660108110156145e3576f181899199a1a9b1b9c1cb0b131b232b360811b901a6159f98389615dc3565b5360041c908015614816575f190161580c565b90815f52606560205260405f209060018060a01b031690815f5260205260ff60405f205416615a39575050565b815f52606560205260405f20815f5260205260405f2060ff19815416905533917ff6391f5c32d9c69d2a47ea670b442974b53935d1edc7fd64eb21e047a839171b5f80a4565b60ab5460ff8160a01c1680615bce575b615b1d575b5060aa546001600160a01b039190821680615abb575b50165f52609960205260405f205490565b60c0602491604051928380926335856b7f60e11b825287871660048301525afa5f9181615af6575b5015615aaa578015615aaa575b91505090565b615b1091925060c03d60c0116151a95761519381836147db565b505092505050905f615ae3565b60405163d3dd2bdf60e01b81526001600160a01b038381166004830152909160609183916024918391165afa5f91815f915f93615ba9575b50615b62575b5050615a94565b80615b97575b615b73575b80615b5b565b6276a700810180911161481657421115615b8d5780615b6d565b6155be9150614b0d565b506001600160401b0382161515615b68565b91509250615bc6915060603d606011614f4857614f3981836147db565b91925f615b55565b506001600160a01b0381161515615a8f565b91615bea90615a7f565b90600581101561474f57615bfd816146bb565b505080615c2a5750605f1115615c105790565b605f810290808204605f1490151715614816576064900490565b60018103615c61575060558110615c565750605a810290808204605a1490151715614816576064900490565b60521115615c105790565b60028103615cae5750604b8110615c8d5750605581029080820460551490151715614816576064900490565b6048116155be57605c810290808204605c1490151715614816576064900490565b600314615cb9575090565b60418110615cdc5750605081029080820460501490151715614816576064900490565b603e1115615ce75790565b605a810290808204605a1490151715614816576064900490565b60ac5490600160401b82101561477e57613d4b826001615d24940160ac556146bb565b565b6001600160a01b039081165f81815260b0602052604090205490919080615af0575060209060a4541691602460405180948193631a650cc760e01b835260048301525afa9081156155fe575f91615d89575b50615d835761038490565b610e1090565b90506020813d602011615dbb575b81615da4602093836147db565b81010312610cda57615db5906147fc565b5f615d78565b3d9150615d97565b9081518110156145e357016020019056fe45892a46e6cef329bb642da6d69846d324db43d19008edc141ed82382eda1bee3c364b9decdac59fbe037e99687219ac0feed46572bfbcbd5284b6b8e67f402da26469706673582212207d0fd323a4e6d137a5b6ebbc2419d327a57e6dfaef7e736ba4b374ec41aa466564736f6c63430008180033",
  "linkReferences": {},
  "deployedLinkReferences": {}
}