{
  "_format": "hh-sol-artifact-1",
  "contractName": "LiquidityPoolV3",
  "sourceName": "contracts/LiquidityPoolV3.sol",
  "abi": [
    {
      "inputs": [],
      "name": "AccessControlBadConfirmation",
      "type": "error"
    },
    {
      "inputs": [
        {
          "internalType": "address",
          "name": "account",
          "type": "address"
        },
        {
          "internalType": "bytes32",
          "name": "neededRole",
          "type": "bytes32"
        }
      ],
      "name": "AccessControlUnauthorizedAccount",
      "type": "error"
    },
    {
      "inputs": [],
      "name": "InvalidInitialization",
      "type": "error"
    },
    {
      "inputs": [],
      "name": "NotInitializing",
      "type": "error"
    },
    {
      "inputs": [
        {
          "internalType": "address",
          "name": "owner",
          "type": "address"
        }
      ],
      "name": "OwnableInvalidOwner",
      "type": "error"
    },
    {
      "inputs": [
        {
          "internalType": "address",
          "name": "account",
          "type": "address"
        }
      ],
      "name": "OwnableUnauthorizedAccount",
      "type": "error"
    },
    {
      "anonymous": false,
      "inputs": [
        {
          "indexed": true,
          "internalType": "address",
          "name": "user",
          "type": "address"
        },
        {
          "indexed": false,
          "internalType": "uint256",
          "name": "amount",
          "type": "uint256"
        }
      ],
      "name": "Borrowed",
      "type": "event"
    },
    {
      "anonymous": false,
      "inputs": [
        {
          "indexed": true,
          "internalType": "address",
          "name": "user",
          "type": "address"
        },
        {
          "indexed": true,
          "internalType": "address",
          "name": "token",
          "type": "address"
        },
        {
          "indexed": false,
          "internalType": "uint256",
          "name": "amount",
          "type": "uint256"
        }
      ],
      "name": "CollateralDeposited",
      "type": "event"
    },
    {
      "anonymous": false,
      "inputs": [
        {
          "indexed": true,
          "internalType": "address",
          "name": "token",
          "type": "address"
        },
        {
          "indexed": false,
          "internalType": "bool",
          "name": "isAllowed",
          "type": "bool"
        }
      ],
      "name": "CollateralTokenStatusChanged",
      "type": "event"
    },
    {
      "anonymous": false,
      "inputs": [
        {
          "indexed": true,
          "internalType": "address",
          "name": "user",
          "type": "address"
        },
        {
          "indexed": true,
          "internalType": "address",
          "name": "token",
          "type": "address"
        },
        {
          "indexed": false,
          "internalType": "uint256",
          "name": "amount",
          "type": "uint256"
        }
      ],
      "name": "CollateralWithdrawn",
      "type": "event"
    },
    {
      "anonymous": false,
      "inputs": [
        {
          "indexed": true,
          "internalType": "address",
          "name": "user",
          "type": "address"
        },
        {
          "indexed": false,
          "internalType": "uint256",
          "name": "score",
          "type": "uint256"
        }
      ],
      "name": "CreditScoreAssigned",
      "type": "event"
    },
    {
      "anonymous": false,
      "inputs": [
        {
          "indexed": true,
          "internalType": "address",
          "name": "oldSystem",
          "type": "address"
        },
        {
          "indexed": true,
          "internalType": "address",
          "name": "newSystem",
          "type": "address"
        }
      ],
      "name": "CreditSystemUpdated",
      "type": "event"
    },
    {
      "anonymous": false,
      "inputs": [
        {
          "indexed": false,
          "internalType": "bool",
          "name": "isPaused",
          "type": "bool"
        }
      ],
      "name": "EmergencyPaused",
      "type": "event"
    },
    {
      "anonymous": false,
      "inputs": [
        {
          "indexed": true,
          "internalType": "address",
          "name": "owner",
          "type": "address"
        },
        {
          "indexed": false,
          "internalType": "uint256",
          "name": "amount",
          "type": "uint256"
        }
      ],
      "name": "Extracted",
      "type": "event"
    },
    {
      "anonymous": false,
      "inputs": [
        {
          "indexed": true,
          "internalType": "address",
          "name": "user",
          "type": "address"
        },
        {
          "indexed": false,
          "internalType": "uint256",
          "name": "newDeadline",
          "type": "uint256"
        }
      ],
      "name": "GracePeriodExtended",
      "type": "event"
    },
    {
      "anonymous": false,
      "inputs": [
        {
          "indexed": false,
          "internalType": "uint64",
          "name": "version",
          "type": "uint64"
        }
      ],
      "name": "Initialized",
      "type": "event"
    },
    {
      "anonymous": false,
      "inputs": [
        {
          "indexed": true,
          "internalType": "address",
          "name": "user",
          "type": "address"
        },
        {
          "indexed": true,
          "internalType": "address",
          "name": "liquidator",
          "type": "address"
        },
        {
          "indexed": false,
          "internalType": "uint256",
          "name": "amount",
          "type": "uint256"
        }
      ],
      "name": "LiquidationExecuted",
      "type": "event"
    },
    {
      "anonymous": false,
      "inputs": [
        {
          "indexed": true,
          "internalType": "address",
          "name": "user",
          "type": "address"
        }
      ],
      "name": "LiquidationStarted",
      "type": "event"
    },
    {
      "anonymous": false,
      "inputs": [
        {
          "indexed": true,
          "internalType": "address",
          "name": "previousOwner",
          "type": "address"
        },
        {
          "indexed": true,
          "internalType": "address",
          "name": "newOwner",
          "type": "address"
        }
      ],
      "name": "OwnershipTransferred",
      "type": "event"
    },
    {
      "anonymous": false,
      "inputs": [
        {
          "indexed": true,
          "internalType": "address",
          "name": "user",
          "type": "address"
        },
        {
          "indexed": false,
          "internalType": "uint256",
          "name": "amount",
          "type": "uint256"
        }
      ],
      "name": "Repaid",
      "type": "event"
    },
    {
      "anonymous": false,
      "inputs": [
        {
          "indexed": true,
          "internalType": "bytes32",
          "name": "role",
          "type": "bytes32"
        },
        {
          "indexed": true,
          "internalType": "bytes32",
          "name": "previousAdminRole",
          "type": "bytes32"
        },
        {
          "indexed": true,
          "internalType": "bytes32",
          "name": "newAdminRole",
          "type": "bytes32"
        }
      ],
      "name": "RoleAdminChanged",
      "type": "event"
    },
    {
      "anonymous": false,
      "inputs": [
        {
          "indexed": true,
          "internalType": "bytes32",
          "name": "role",
          "type": "bytes32"
        },
        {
          "indexed": true,
          "internalType": "address",
          "name": "account",
          "type": "address"
        },
        {
          "indexed": true,
          "internalType": "address",
          "name": "sender",
          "type": "address"
        }
      ],
      "name": "RoleGranted",
      "type": "event"
    },
    {
      "anonymous": false,
      "inputs": [
        {
          "indexed": true,
          "internalType": "bytes32",
          "name": "role",
          "type": "bytes32"
        },
        {
          "indexed": true,
          "internalType": "address",
          "name": "account",
          "type": "address"
        },
        {
          "indexed": true,
          "internalType": "address",
          "name": "sender",
          "type": "address"
        }
      ],
      "name": "RoleRevoked",
      "type": "event"
    },
    {
      "anonymous": false,
      "inputs": [
        {
          "indexed": true,
          "internalType": "address",
          "name": "token",
          "type": "address"
        },
        {
          "indexed": false,
          "internalType": "uint256",
          "name": "updatedAt",
          "type": "uint256"
        },
        {
          "indexed": false,
          "internalType": "uint256",
          "name": "currentTime",
          "type": "uint256"
        }
      ],
      "name": "StaleOracleTriggered",
      "type": "event"
    },
    {
      "anonymous": false,
      "inputs": [
        {
          "indexed": true,
          "internalType": "address",
          "name": "user",
          "type": "address"
        },
        {
          "indexed": false,
          "internalType": "string",
          "name": "message",
          "type": "string"
        }
      ],
      "name": "UserError",
      "type": "event"
    },
    {
      "anonymous": false,
      "inputs": [
        {
          "indexed": false,
          "internalType": "bool",
          "name": "required",
          "type": "bool"
        }
      ],
      "name": "ZKProofRequirementToggled",
      "type": "event"
    },
    {
      "anonymous": false,
      "inputs": [
        {
          "indexed": true,
          "internalType": "address",
          "name": "user",
          "type": "address"
        },
        {
          "indexed": false,
          "internalType": "string",
          "name": "reason",
          "type": "string"
        }
      ],
      "name": "ZKProofValidationFailed",
      "type": "event"
    },
    {
      "inputs": [],
      "name": "DEFAULT_ADMIN_ROLE",
      "outputs": [
        {
          "internalType": "bytes32",
          "name": "",
          "type": "bytes32"
        }
      ],
      "stateMutability": "view",
      "type": "function"
    },
    {
      "inputs": [],
      "name": "DEFAULT_LIQUIDATION_THRESHOLD",
      "outputs": [
        {
          "internalType": "uint256",
          "name": "",
          "type": "uint256"
        }
      ],
      "stateMutability": "view",
      "type": "function"
    },
    {
      "inputs": [],
      "name": "DEFAULT_STALENESS_STABLE",
      "outputs": [
        {
          "internalType": "uint256",
          "name": "",
          "type": "uint256"
        }
      ],
      "stateMutability": "view",
      "type": "function"
    },
    {
      "inputs": [],
      "name": "DEFAULT_STALENESS_VOLATILE",
      "outputs": [
        {
          "internalType": "uint256",
          "name": "",
          "type": "uint256"
        }
      ],
      "stateMutability": "view",
      "type": "function"
    },
    {
      "inputs": [],
      "name": "GRACE_PERIOD",
      "outputs": [
        {
          "internalType": "uint256",
          "name": "",
          "type": "uint256"
        }
      ],
      "stateMutability": "view",
      "type": "function"
    },
    {
      "inputs": [],
      "name": "LIQUIDATION_PENALTY",
      "outputs": [
        {
          "internalType": "uint256",
          "name": "",
          "type": "uint256"
        }
      ],
      "stateMutability": "view",
      "type": "function"
    },
    {
      "inputs": [],
      "name": "UPKEEP_COOLDOWN",
      "outputs": [
        {
          "internalType": "uint256",
          "name": "",
          "type": "uint256"
        }
      ],
      "stateMutability": "view",
      "type": "function"
    },
    {
      "inputs": [
        {
          "internalType": "address",
          "name": "lender",
          "type": "address"
        }
      ],
      "name": "baseLenderAPR",
      "outputs": [
        {
          "internalType": "uint256",
          "name": "",
          "type": "uint256"
        }
      ],
      "stateMutability": "view",
      "type": "function"
    },
    {
      "inputs": [
        {
          "internalType": "uint256",
          "name": "amount",
          "type": "uint256"
        }
      ],
      "name": "borrow",
      "outputs": [],
      "stateMutability": "nonpayable",
      "type": "function"
    },
    {
      "inputs": [
        {
          "internalType": "uint256",
          "name": "",
          "type": "uint256"
        }
      ],
      "name": "borrowTierConfigs",
      "outputs": [
        {
          "internalType": "uint256",
          "name": "minScore",
          "type": "uint256"
        },
        {
          "internalType": "uint256",
          "name": "maxScore",
          "type": "uint256"
        },
        {
          "internalType": "uint256",
          "name": "collateralRatio",
          "type": "uint256"
        },
        {
          "internalType": "int256",
          "name": "interestRateModifier",
          "type": "int256"
        },
        {
          "internalType": "uint256",
          "name": "maxLoanAmount",
          "type": "uint256"
        }
      ],
      "stateMutability": "view",
      "type": "function"
    },
    {
      "inputs": [
        {
          "internalType": "address",
          "name": "",
          "type": "address"
        }
      ],
      "name": "borrowTimestamp",
      "outputs": [
        {
          "internalType": "uint256",
          "name": "",
          "type": "uint256"
        }
      ],
      "stateMutability": "view",
      "type": "function"
    },
    {
      "inputs": [
        {
          "internalType": "enum LiquidityPoolV3.RiskTier",
          "name": "",
          "type": "uint8"
        }
      ],
      "name": "borrowedAmountByRiskTier",
      "outputs": [
        {
          "internalType": "uint256",
          "name": "",
          "type": "uint256"
        }
      ],
      "stateMutability": "view",
      "type": "function"
    },
    {
      "inputs": [
        {
          "internalType": "address",
          "name": "user",
          "type": "address"
        }
      ],
      "name": "checkCollateralization",
      "outputs": [
        {
          "internalType": "bool",
          "name": "isHealthy",
          "type": "bool"
        },
        {
          "internalType": "uint256",
          "name": "ratio",
          "type": "uint256"
        }
      ],
      "stateMutability": "view",
      "type": "function"
    },
    {
      "inputs": [
        {
          "internalType": "bytes",
          "name": "",
          "type": "bytes"
        }
      ],
      "name": "checkUpkeep",
      "outputs": [
        {
          "internalType": "bool",
          "name": "upkeepNeeded",
          "type": "bool"
        },
        {
          "internalType": "bytes",
          "name": "performData",
          "type": "bytes"
        }
      ],
      "stateMutability": "view",
      "type": "function"
    },
    {
      "inputs": [
        {
          "internalType": "address",
          "name": "",
          "type": "address"
        },
        {
          "internalType": "address",
          "name": "",
          "type": "address"
        }
      ],
      "name": "collateralBalance",
      "outputs": [
        {
          "internalType": "uint256",
          "name": "",
          "type": "uint256"
        }
      ],
      "stateMutability": "view",
      "type": "function"
    },
    {
      "inputs": [
        {
          "internalType": "uint256",
          "name": "",
          "type": "uint256"
        }
      ],
      "name": "collateralTokenList",
      "outputs": [
        {
          "internalType": "address",
          "name": "",
          "type": "address"
        }
      ],
      "stateMutability": "view",
      "type": "function"
    },
    {
      "inputs": [
        {
          "internalType": "address",
          "name": "",
          "type": "address"
        }
      ],
      "name": "creditScore",
      "outputs": [
        {
          "internalType": "uint256",
          "name": "",
          "type": "uint256"
        }
      ],
      "stateMutability": "view",
      "type": "function"
    },
    {
      "inputs": [],
      "name": "creditSystem",
      "outputs": [
        {
          "internalType": "contract IntegratedCreditSystem",
          "name": "",
          "type": "address"
        }
      ],
      "stateMutability": "view",
      "type": "function"
    },
    {
      "inputs": [
        {
          "internalType": "address",
          "name": "token",
          "type": "address"
        },
        {
          "internalType": "uint256",
          "name": "amount",
          "type": "uint256"
        }
      ],
      "name": "depositCollateral",
      "outputs": [],
      "stateMutability": "nonpayable",
      "type": "function"
    },
    {
      "inputs": [
        {
          "internalType": "address",
          "name": "user",
          "type": "address"
        }
      ],
      "name": "executeLiquidation",
      "outputs": [],
      "stateMutability": "nonpayable",
      "type": "function"
    },
    {
      "inputs": [
        {
          "internalType": "uint256",
          "name": "amount",
          "type": "uint256"
        }
      ],
      "name": "extract",
      "outputs": [],
      "stateMutability": "nonpayable",
      "type": "function"
    },
    {
      "inputs": [],
      "name": "getAdmin",
      "outputs": [
        {
          "internalType": "address",
          "name": "",
          "type": "address"
        }
      ],
      "stateMutability": "view",
      "type": "function"
    },
    {
      "inputs": [],
      "name": "getAllUsers",
      "outputs": [
        {
          "internalType": "address[]",
          "name": "",
          "type": "address[]"
        }
      ],
      "stateMutability": "view",
      "type": "function"
    },
    {
      "inputs": [],
      "name": "getAllowedCollateralTokens",
      "outputs": [
        {
          "internalType": "address[]",
          "name": "",
          "type": "address[]"
        }
      ],
      "stateMutability": "view",
      "type": "function"
    },
    {
      "inputs": [],
      "name": "getBalance",
      "outputs": [
        {
          "internalType": "uint256",
          "name": "",
          "type": "uint256"
        }
      ],
      "stateMutability": "view",
      "type": "function"
    },
    {
      "inputs": [
        {
          "internalType": "address",
          "name": "user",
          "type": "address"
        }
      ],
      "name": "getBorrowTerms",
      "outputs": [
        {
          "internalType": "uint256",
          "name": "collateralRatio",
          "type": "uint256"
        },
        {
          "internalType": "int256",
          "name": "interestRateModifier",
          "type": "int256"
        },
        {
          "internalType": "uint256",
          "name": "maxLoanAmount",
          "type": "uint256"
        }
      ],
      "stateMutability": "view",
      "type": "function"
    },
    {
      "inputs": [
        {
          "internalType": "enum LiquidityPoolV3.RiskTier",
          "name": "tier",
          "type": "uint8"
        }
      ],
      "name": "getBorrowerRate",
      "outputs": [
        {
          "internalType": "uint256",
          "name": "",
          "type": "uint256"
        }
      ],
      "stateMutability": "view",
      "type": "function"
    },
    {
      "inputs": [
        {
          "internalType": "address",
          "name": "user",
          "type": "address"
        },
        {
          "internalType": "address",
          "name": "token",
          "type": "address"
        }
      ],
      "name": "getCollateral",
      "outputs": [
        {
          "internalType": "uint256",
          "name": "",
          "type": "uint256"
        }
      ],
      "stateMutability": "view",
      "type": "function"
    },
    {
      "inputs": [
        {
          "internalType": "address",
          "name": "user",
          "type": "address"
        }
      ],
      "name": "getCreditScore",
      "outputs": [
        {
          "internalType": "uint256",
          "name": "",
          "type": "uint256"
        }
      ],
      "stateMutability": "view",
      "type": "function"
    },
    {
      "inputs": [],
      "name": "getGlobalRiskMultiplier",
      "outputs": [
        {
          "internalType": "uint256",
          "name": "",
          "type": "uint256"
        }
      ],
      "stateMutability": "view",
      "type": "function"
    },
    {
      "inputs": [
        {
          "internalType": "address",
          "name": "token",
          "type": "address"
        }
      ],
      "name": "getLiquidationThreshold",
      "outputs": [
        {
          "internalType": "uint256",
          "name": "",
          "type": "uint256"
        }
      ],
      "stateMutability": "view",
      "type": "function"
    },
    {
      "inputs": [
        {
          "internalType": "address",
          "name": "user",
          "type": "address"
        },
        {
          "internalType": "address",
          "name": "token",
          "type": "address"
        }
      ],
      "name": "getMaxBorrowAmount",
      "outputs": [
        {
          "internalType": "uint256",
          "name": "",
          "type": "uint256"
        }
      ],
      "stateMutability": "view",
      "type": "function"
    },
    {
      "inputs": [],
      "name": "getMinCollateralRatio",
      "outputs": [
        {
          "internalType": "uint256",
          "name": "",
          "type": "uint256"
        }
      ],
      "stateMutability": "pure",
      "type": "function"
    },
    {
      "inputs": [],
      "name": "getMyDebt",
      "outputs": [
        {
          "internalType": "uint256",
          "name": "",
          "type": "uint256"
        }
      ],
      "stateMutability": "view",
      "type": "function"
    },
    {
      "inputs": [
        {
          "internalType": "address",
          "name": "token",
          "type": "address"
        }
      ],
      "name": "getPriceFeed",
      "outputs": [
        {
          "internalType": "address",
          "name": "",
          "type": "address"
        }
      ],
      "stateMutability": "view",
      "type": "function"
    },
    {
      "inputs": [
        {
          "internalType": "address",
          "name": "lender",
          "type": "address"
        }
      ],
      "name": "getRealTimeReturnRate",
      "outputs": [
        {
          "internalType": "uint256",
          "name": "",
          "type": "uint256"
        }
      ],
      "stateMutability": "view",
      "type": "function"
    },
    {
      "inputs": [],
      "name": "getRepaymentRatio",
      "outputs": [
        {
          "internalType": "uint256",
          "name": "",
          "type": "uint256"
        }
      ],
      "stateMutability": "view",
      "type": "function"
    },
    {
      "inputs": [],
      "name": "getRepaymentRiskMultiplier",
      "outputs": [
        {
          "internalType": "uint256",
          "name": "",
          "type": "uint256"
        }
      ],
      "stateMutability": "view",
      "type": "function"
    },
    {
      "inputs": [],
      "name": "getRiskMultiplier",
      "outputs": [
        {
          "internalType": "uint256",
          "name": "",
          "type": "uint256"
        }
      ],
      "stateMutability": "view",
      "type": "function"
    },
    {
      "inputs": [
        {
          "internalType": "address",
          "name": "user",
          "type": "address"
        }
      ],
      "name": "getRiskTier",
      "outputs": [
        {
          "internalType": "enum LiquidityPoolV3.RiskTier",
          "name": "",
          "type": "uint8"
        }
      ],
      "stateMutability": "view",
      "type": "function"
    },
    {
      "inputs": [
        {
          "internalType": "bytes32",
          "name": "role",
          "type": "bytes32"
        }
      ],
      "name": "getRoleAdmin",
      "outputs": [
        {
          "internalType": "bytes32",
          "name": "",
          "type": "bytes32"
        }
      ],
      "stateMutability": "view",
      "type": "function"
    },
    {
      "inputs": [
        {
          "internalType": "address",
          "name": "token",
          "type": "address"
        }
      ],
      "name": "getTokenValue",
      "outputs": [
        {
          "internalType": "uint256",
          "name": "",
          "type": "uint256"
        }
      ],
      "stateMutability": "view",
      "type": "function"
    },
    {
      "inputs": [
        {
          "internalType": "address",
          "name": "user",
          "type": "address"
        }
      ],
      "name": "getTotalCollateralValue",
      "outputs": [
        {
          "internalType": "uint256",
          "name": "",
          "type": "uint256"
        }
      ],
      "stateMutability": "view",
      "type": "function"
    },
    {
      "inputs": [],
      "name": "getWeightedRiskScore",
      "outputs": [
        {
          "internalType": "uint256",
          "name": "",
          "type": "uint256"
        }
      ],
      "stateMutability": "view",
      "type": "function"
    },
    {
      "inputs": [
        {
          "internalType": "address",
          "name": "user",
          "type": "address"
        }
      ],
      "name": "getZKVerificationStatus",
      "outputs": [
        {
          "internalType": "bool",
          "name": "hasTradFi",
          "type": "bool"
        },
        {
          "internalType": "bool",
          "name": "hasAccount",
          "type": "bool"
        },
        {
          "internalType": "bool",
          "name": "hasNesting",
          "type": "bool"
        },
        {
          "internalType": "uint256",
          "name": "finalScore",
          "type": "uint256"
        },
        {
          "internalType": "bool",
          "name": "isEligible",
          "type": "bool"
        }
      ],
      "stateMutability": "view",
      "type": "function"
    },
    {
      "inputs": [
        {
          "internalType": "bytes32",
          "name": "role",
          "type": "bytes32"
        },
        {
          "internalType": "address",
          "name": "account",
          "type": "address"
        }
      ],
      "name": "grantRole",
      "outputs": [],
      "stateMutability": "nonpayable",
      "type": "function"
    },
    {
      "inputs": [
        {
          "internalType": "bytes32",
          "name": "role",
          "type": "bytes32"
        },
        {
          "internalType": "address",
          "name": "account",
          "type": "address"
        }
      ],
      "name": "hasRole",
      "outputs": [
        {
          "internalType": "bool",
          "name": "",
          "type": "bool"
        }
      ],
      "stateMutability": "view",
      "type": "function"
    },
    {
      "inputs": [
        {
          "internalType": "address",
          "name": "initialOwner",
          "type": "address"
        },
        {
          "internalType": "address",
          "name": "_stablecoinManager",
          "type": "address"
        },
        {
          "internalType": "address",
          "name": "_lendingManager",
          "type": "address"
        },
        {
          "internalType": "address",
          "name": "_creditSystem",
          "type": "address"
        }
      ],
      "name": "initialize",
      "outputs": [],
      "stateMutability": "nonpayable",
      "type": "function"
    },
    {
      "inputs": [
        {
          "internalType": "address",
          "name": "",
          "type": "address"
        }
      ],
      "name": "isAllowedCollateral",
      "outputs": [
        {
          "internalType": "bool",
          "name": "",
          "type": "bool"
        }
      ],
      "stateMutability": "view",
      "type": "function"
    },
    {
      "inputs": [
        {
          "internalType": "address",
          "name": "",
          "type": "address"
        }
      ],
      "name": "isKnownUser",
      "outputs": [
        {
          "internalType": "bool",
          "name": "",
          "type": "bool"
        }
      ],
      "stateMutability": "view",
      "type": "function"
    },
    {
      "inputs": [
        {
          "internalType": "address",
          "name": "",
          "type": "address"
        }
      ],
      "name": "isLiquidatable",
      "outputs": [
        {
          "internalType": "bool",
          "name": "",
          "type": "bool"
        }
      ],
      "stateMutability": "view",
      "type": "function"
    },
    {
      "inputs": [
        {
          "internalType": "address",
          "name": "token",
          "type": "address"
        }
      ],
      "name": "isOracleHealthy",
      "outputs": [
        {
          "internalType": "bool",
          "name": "",
          "type": "bool"
        }
      ],
      "stateMutability": "view",
      "type": "function"
    },
    {
      "inputs": [],
      "name": "isPaused",
      "outputs": [
        {
          "internalType": "bool",
          "name": "",
          "type": "bool"
        }
      ],
      "stateMutability": "view",
      "type": "function"
    },
    {
      "inputs": [],
      "name": "lastUpkeep",
      "outputs": [
        {
          "internalType": "uint256",
          "name": "",
          "type": "uint256"
        }
      ],
      "stateMutability": "view",
      "type": "function"
    },
    {
      "inputs": [],
      "name": "lendingManager",
      "outputs": [
        {
          "internalType": "contract LendingManager",
          "name": "",
          "type": "address"
        }
      ],
      "stateMutability": "view",
      "type": "function"
    },
    {
      "inputs": [
        {
          "internalType": "address",
          "name": "",
          "type": "address"
        }
      ],
      "name": "liquidationStartTime",
      "outputs": [
        {
          "internalType": "uint256",
          "name": "",
          "type": "uint256"
        }
      ],
      "stateMutability": "view",
      "type": "function"
    },
    {
      "inputs": [
        {
          "internalType": "address",
          "name": "",
          "type": "address"
        }
      ],
      "name": "liquidationThreshold",
      "outputs": [
        {
          "internalType": "uint256",
          "name": "",
          "type": "uint256"
        }
      ],
      "stateMutability": "view",
      "type": "function"
    },
    {
      "inputs": [],
      "name": "liquidator",
      "outputs": [
        {
          "internalType": "address",
          "name": "",
          "type": "address"
        }
      ],
      "stateMutability": "view",
      "type": "function"
    },
    {
      "inputs": [],
      "name": "locked",
      "outputs": [
        {
          "internalType": "bool",
          "name": "",
          "type": "bool"
        }
      ],
      "stateMutability": "view",
      "type": "function"
    },
    {
      "inputs": [
        {
          "internalType": "address",
          "name": "",
          "type": "address"
        }
      ],
      "name": "maxPriceAge",
      "outputs": [
        {
          "internalType": "uint256",
          "name": "",
          "type": "uint256"
        }
      ],
      "stateMutability": "view",
      "type": "function"
    },
    {
      "inputs": [],
      "name": "owner",
      "outputs": [
        {
          "internalType": "address",
          "name": "",
          "type": "address"
        }
      ],
      "stateMutability": "view",
      "type": "function"
    },
    {
      "inputs": [],
      "name": "paused",
      "outputs": [
        {
          "internalType": "bool",
          "name": "",
          "type": "bool"
        }
      ],
      "stateMutability": "view",
      "type": "function"
    },
    {
      "inputs": [
        {
          "internalType": "bytes",
          "name": "performData",
          "type": "bytes"
        }
      ],
      "name": "performUpkeep",
      "outputs": [],
      "stateMutability": "nonpayable",
      "type": "function"
    },
    {
      "inputs": [
        {
          "internalType": "address",
          "name": "",
          "type": "address"
        }
      ],
      "name": "priceFeed",
      "outputs": [
        {
          "internalType": "address",
          "name": "",
          "type": "address"
        }
      ],
      "stateMutability": "view",
      "type": "function"
    },
    {
      "inputs": [
        {
          "internalType": "address",
          "name": "token",
          "type": "address"
        },
        {
          "internalType": "uint256",
          "name": "amount",
          "type": "uint256"
        }
      ],
      "name": "recoverFromLiquidation",
      "outputs": [],
      "stateMutability": "nonpayable",
      "type": "function"
    },
    {
      "inputs": [],
      "name": "renounceOwnership",
      "outputs": [],
      "stateMutability": "nonpayable",
      "type": "function"
    },
    {
      "inputs": [
        {
          "internalType": "bytes32",
          "name": "role",
          "type": "bytes32"
        },
        {
          "internalType": "address",
          "name": "callerConfirmation",
          "type": "address"
        }
      ],
      "name": "renounceRole",
      "outputs": [],
      "stateMutability": "nonpayable",
      "type": "function"
    },
    {
      "inputs": [],
      "name": "repay",
      "outputs": [],
      "stateMutability": "payable",
      "type": "function"
    },
    {
      "inputs": [
        {
          "internalType": "bytes32",
          "name": "role",
          "type": "bytes32"
        },
        {
          "internalType": "address",
          "name": "account",
          "type": "address"
        }
      ],
      "name": "revokeRole",
      "outputs": [],
      "stateMutability": "nonpayable",
      "type": "function"
    },
    {
      "inputs": [
        {
          "internalType": "address",
          "name": "newAdmin",
          "type": "address"
        }
      ],
      "name": "setAdmin",
      "outputs": [],
      "stateMutability": "nonpayable",
      "type": "function"
    },
    {
      "inputs": [
        {
          "internalType": "address",
          "name": "token",
          "type": "address"
        },
        {
          "internalType": "bool",
          "name": "allowed",
          "type": "bool"
        }
      ],
      "name": "setAllowedCollateral",
      "outputs": [],
      "stateMutability": "nonpayable",
      "type": "function"
    },
    {
      "inputs": [
        {
          "internalType": "address",
          "name": "user",
          "type": "address"
        },
        {
          "internalType": "uint256",
          "name": "score",
          "type": "uint256"
        }
      ],
      "name": "setCreditScore",
      "outputs": [],
      "stateMutability": "nonpayable",
      "type": "function"
    },
    {
      "inputs": [
        {
          "internalType": "address",
          "name": "_creditSystem",
          "type": "address"
        }
      ],
      "name": "setCreditSystem",
      "outputs": [],
      "stateMutability": "nonpayable",
      "type": "function"
    },
    {
      "inputs": [
        {
          "internalType": "address",
          "name": "_lendingManager",
          "type": "address"
        }
      ],
      "name": "setLendingManager",
      "outputs": [],
      "stateMutability": "nonpayable",
      "type": "function"
    },
    {
      "inputs": [
        {
          "internalType": "address",
          "name": "token",
          "type": "address"
        },
        {
          "internalType": "uint256",
          "name": "threshold",
          "type": "uint256"
        }
      ],
      "name": "setLiquidationThreshold",
      "outputs": [],
      "stateMutability": "nonpayable",
      "type": "function"
    },
    {
      "inputs": [
        {
          "internalType": "address",
          "name": "_liquidator",
          "type": "address"
        }
      ],
      "name": "setLiquidator",
      "outputs": [],
      "stateMutability": "nonpayable",
      "type": "function"
    },
    {
      "inputs": [
        {
          "internalType": "address",
          "name": "token",
          "type": "address"
        },
        {
          "internalType": "uint256",
          "name": "age",
          "type": "uint256"
        }
      ],
      "name": "setMaxPriceAge",
      "outputs": [],
      "stateMutability": "nonpayable",
      "type": "function"
    },
    {
      "inputs": [
        {
          "internalType": "address",
          "name": "token",
          "type": "address"
        },
        {
          "internalType": "address",
          "name": "feed",
          "type": "address"
        }
      ],
      "name": "setPriceFeed",
      "outputs": [],
      "stateMutability": "nonpayable",
      "type": "function"
    },
    {
      "inputs": [
        {
          "internalType": "bool",
          "name": "required",
          "type": "bool"
        }
      ],
      "name": "setZKProofRequirement",
      "outputs": [],
      "stateMutability": "nonpayable",
      "type": "function"
    },
    {
      "inputs": [],
      "name": "stablecoinManager",
      "outputs": [
        {
          "internalType": "contract StablecoinManager",
          "name": "",
          "type": "address"
        }
      ],
      "stateMutability": "view",
      "type": "function"
    },
    {
      "inputs": [
        {
          "internalType": "address",
          "name": "user",
          "type": "address"
        }
      ],
      "name": "startLiquidation",
      "outputs": [],
      "stateMutability": "nonpayable",
      "type": "function"
    },
    {
      "inputs": [
        {
          "internalType": "bytes4",
          "name": "interfaceId",
          "type": "bytes4"
        }
      ],
      "name": "supportsInterface",
      "outputs": [
        {
          "internalType": "bool",
          "name": "",
          "type": "bool"
        }
      ],
      "stateMutability": "view",
      "type": "function"
    },
    {
      "inputs": [],
      "name": "togglePause",
      "outputs": [],
      "stateMutability": "nonpayable",
      "type": "function"
    },
    {
      "inputs": [],
      "name": "totalBorrowedAllTime",
      "outputs": [
        {
          "internalType": "uint256",
          "name": "",
          "type": "uint256"
        }
      ],
      "stateMutability": "view",
      "type": "function"
    },
    {
      "inputs": [],
      "name": "totalFunds",
      "outputs": [
        {
          "internalType": "uint256",
          "name": "",
          "type": "uint256"
        }
      ],
      "stateMutability": "view",
      "type": "function"
    },
    {
      "inputs": [],
      "name": "totalRepaidAllTime",
      "outputs": [
        {
          "internalType": "uint256",
          "name": "",
          "type": "uint256"
        }
      ],
      "stateMutability": "view",
      "type": "function"
    },
    {
      "inputs": [
        {
          "internalType": "address",
          "name": "newOwner",
          "type": "address"
        }
      ],
      "name": "transferOwnership",
      "outputs": [],
      "stateMutability": "nonpayable",
      "type": "function"
    },
    {
      "inputs": [
        {
          "internalType": "uint256",
          "name": "tierIndex",
          "type": "uint256"
        },
        {
          "internalType": "uint256",
          "name": "minScore",
          "type": "uint256"
        },
        {
          "internalType": "uint256",
          "name": "maxScore",
          "type": "uint256"
        },
        {
          "internalType": "uint256",
          "name": "collateralRatio",
          "type": "uint256"
        },
        {
          "internalType": "int256",
          "name": "interestRateModifier",
          "type": "int256"
        },
        {
          "internalType": "uint256",
          "name": "maxLoanAmount",
          "type": "uint256"
        }
      ],
      "name": "updateBorrowTier",
      "outputs": [],
      "stateMutability": "nonpayable",
      "type": "function"
    },
    {
      "inputs": [
        {
          "internalType": "address",
          "name": "user",
          "type": "address"
        },
        {
          "internalType": "uint256",
          "name": "score",
          "type": "uint256"
        }
      ],
      "name": "updateCreditScoreFromZK",
      "outputs": [],
      "stateMutability": "nonpayable",
      "type": "function"
    },
    {
      "inputs": [
        {
          "internalType": "address",
          "name": "",
          "type": "address"
        }
      ],
      "name": "userDebt",
      "outputs": [
        {
          "internalType": "uint256",
          "name": "",
          "type": "uint256"
        }
      ],
      "stateMutability": "view",
      "type": "function"
    },
    {
      "inputs": [
        {
          "internalType": "uint256",
          "name": "",
          "type": "uint256"
        }
      ],
      "name": "users",
      "outputs": [
        {
          "internalType": "address",
          "name": "",
          "type": "address"
        }
      ],
      "stateMutability": "view",
      "type": "function"
    },
    {
      "inputs": [
        {
          "internalType": "address",
          "name": "token",
          "type": "address"
        },
        {
          "internalType": "uint256",
          "name": "amount",
          "type": "uint256"
        }
      ],
      "name": "withdrawCollateral",
      "outputs": [],
      "stateMutability": "nonpayable",
      "type": "function"
    },
    {
      "inputs": [
        {
          "internalType": "uint256",
          "name": "amount",
          "type": "uint256"
        }
      ],
      "name": "withdrawForLendingManager",
      "outputs": [],
      "stateMutability": "nonpayable",
      "type": "function"
    },
    {
      "inputs": [],
      "name": "zkProofRequired",
      "outputs": [
        {
          "internalType": "bool",
          "name": "",
          "type": "bool"
        }
      ],
      "stateMutability": "view",
      "type": "function"
    },
    {
      "stateMutability": "payable",
      "type": "receive"
    }
  ],
  "bytecode": "0x60808060405234601557614bbd908161001b8239f35b600080fdfe6080604052600436101561002a575b361561001957600080fd5b61002534600c546134cb565b600c55005b60003560e01c806301c76f81146132be57806301ffc9a714613268578063042e02cf14613229578063080d9c2b146130d35780630b044c79146130b65780630e30428d1461300c57806312065fe014612ff05780631fd48b9a14612fae578063248a9ca314612f905780632f2ff15d14612f5f57806330332f9f14612ec1578063350c35e914612c6d57806336568abe14612c27578063365b98b214612bab57806338053ef314612b755780633d7c5d3e14612b57578063402d88831461287b5780634046ebae1461284e578063450a375a146128245780634585e33b146126f15780634c8f35ab146114585780634c95da66146126bd57806352226ef01461266757806352ace3091461263c57806355f4d9e2146124df57806359ad586f146124055780635b66e7fc146123e85780635b6cca801461238c5780635c44f10d146123705780635c975abb1461156e578063603f4ab9146123555780636579b73e1461231b57806368272ecc146122af5780636c648fc41461228c5780636e04ff0d146120935780636e9960c314611d20578063704b6c021461201057806370ed11bc14611fb1578063715018a614611f475780637346f48614611f0857806376e1128614611e8d5780637b86e42c14611e6a57806385b3978214611da157806386d785e614611d565780638da5cb5b14611d205780638e6b53bc14611cef57806391d1485414611c955780639490a51e14611c56578063968ed60014611c3857806397ed81cf14611b315780639ac77e1b14611ac75780639b8621d514611aab5780639e3b77af14611a82578063a217fddf14611a66578063a4cde48e14611a4b578063a5d5db0c1461175c578063a6727ce7146116fe578063a75b24c714611635578063a89ef5ca1461160c578063a8cf4b52146115ce578063b1732b2514611594578063b187bd261461156e578063b3a5a0a21461152c578063b69e5c77146114f2578063b849c884146114d7578063b8cdf561146114b9578063bc3d5a3e1461149b578063be8c3c8414611474578063c129d50414611458578063c1a287e21461143a578063c23c69d514611400578063c4ae316814611396578063c5ebeaec14610dae578063c869d0ed14610d21578063c941f32114610cf8578063cf17622514610cdc578063cf30901214610cb9578063d29255f914610c7f578063d3dd2bdf14610c5c578063d547741f14610c26578063ddac7f1b14610bac578063e19fb8f514610ad9578063e1c50100146109c3578063e2842d7914610933578063e2e2967914610912578063e7602b9d146108c3578063e84bae4514610892578063e884cf231461086c578063ef02401a1461083f578063f1c5d6c21461081c578063f2fde38b146107f1578063f7e590ee146107b7578063f8c8765e146104615763feca846a0361000e573461045c57600036600319011261045c57602061045461450a565b604051908152f35b600080fd5b3461045c57608036600319011261045c5761047a61333f565b610482613355565b6044356001600160a01b0381169081900361045c576064356001600160a01b038116929083900361045c57600080516020614b688339815191525460ff8160401c16159467ffffffffffffffff8216801590816107af575b60011490816107a5575b15908161079c575b5061078b5767ffffffffffffffff198216600117600080516020614b68833981519152556105a4918661075e575b50610523614ab9565b61052b614ab9565b610534816144da565b61053c614ab9565b6000808052600080516020614b488339815191526020527fb7db2dd08fcb62d0c9e08c51941cae53c267786a0b75803fb7960902fc8ef97e805490829055817fbd79b86ffe0ab8e8776151514217cd7cacd52c909f66475c3af44e129f0b00ff8180a4614716565b5060018060a01b03166001600160601b0360a01b600e541617600e556001600160601b0360a01b600f541617600f558061073f575b5061060f6040516105e981613480565b605a815260646020820152606e6040820152601819606082015260326080820152614a67565b61064460405161061e81613480565b6050815260596020820152607d6040820152600919606082015260286080820152614a67565b61067860405161065381613480565b60468152604f6020820152608c604082015260006060820152601e6080820152614a67565b6106ac60405161068781613480565b603c81526045602082015260a06040820152600f606082015260146080820152614a67565b6106e06040516106bb81613480565b60008152603b602082015260c86040820152601e606082015260006080820152614a67565b6106e657005b68ff000000000000000019600080516020614b688339815191525416600080516020614b68833981519152557fc7f505b2f371ae2175ee4913f4499e1f2633a7b5936321eed1cdaeb6115181d2602060405160018152a1005b601080546001600160a81b031916909117600160a01b179055816105d9565b68ffffffffffffffffff19166801000000000000000117600080516020614b68833981519152558661051a565b63f92ee8a960e01b60005260046000fd5b905015876104ec565b303b1591506104e4565b8791506104da565b3461045c57602036600319011261045c576001600160a01b036107d861333f565b1660005260026020526020604060002054604051908152f35b3461045c57602036600319011261045c5761081a61080d61333f565b6108156146e0565b6144da565b005b3461045c57602036600319011261045c57602061045461083a61333f565b6142e0565b3461045c57602036600319011261045c57602061086261085d61333f565b614213565b6040519015158152f35b3461045c57600036600319011261045c57602060ff60105460a01c166040519015158152f35b3461045c57602036600319011261045c57600435600581101561045c576108ba602091613467565b54604051908152f35b3461045c57604036600319011261045c576108dc61333f565b6108e4613355565b6001600160a01b03918216600090815260208181526040808320949093168252928352819020549051908152f35b3461045c57602036600319011261045c5761081a61092e61333f565b613ed8565b3461045c57600036600319011261045c57604051806020600a54918281520190600a6000527fc65a7bb8d6351c1cf70c95a316cc6a92839c986682d98bc35f958f4883f9d2a89060005b8181106109a4576109a0856109948187038261349c565b60405191829182613424565b0390f35b82546001600160a01b031684526020909301926001928301920161097d565b3461045c57602036600319011261045c576109dc61333f565b6109e581613b49565b50610a9e576001600160a01b031660008181526005602052604090205460ff16610a59578060005260056020526040600020600160ff19825416179055806000526006602052426040600020557f7f62ed89ea2c6fb057e4ea77729c1d3f18056339791fce29ac89760197b45b29600080a2005b60405162461bcd60e51b815260206004820152601b60248201527f4c69717569646174696f6e20616c7265616479207374617274656400000000006044820152606490fd5b60405162461bcd60e51b8152602060048201526013602482015272506f736974696f6e206973206865616c74687960681b6044820152606490fd5b3461045c57602036600319011261045c576004356001600d54610aff60ff8216156139bc565b60ff191617600d55600f546001600160a01b03163303610b5c57600080808093610b2b478211156139f8565b818115610b53575b3390f115610b4757600d805460ff19169055005b6040513d6000823e3d90fd5b506108fc610b33565b60405162461bcd60e51b815260206004820152602260248201527f4f6e6c79206c656e64696e67206d616e616765722063616e2063616c6c207468604482015261697360f01b6064820152608490fd5b3461045c57604036600319011261045c57610bc561333f565b60243590610bd16146e0565b620151808211610bf5576001600160a01b0316600090815260156020526040902055005b60405162461bcd60e51b8152602060048201526009602482015268546f6f206c6172676560b81b6044820152606490fd5b3461045c57604036600319011261045c5761081a600435610c45613355565b90610c57610c5282613524565b614696565b6148cc565b3461045c57602036600319011261045c576020610454610c7a61333f565b613e40565b3461045c57602036600319011261045c576001600160a01b03610ca061333f565b1660005260046020526020604060002054604051908152f35b3461045c57600036600319011261045c57602060ff600d54166040519015158152f35b3461045c57600036600319011261045c576109a0610994613d78565b3461045c57600036600319011261045c57600e546040516001600160a01b039091168152602090f35b3461045c57602036600319011261045c57610d3a61333f565b610d426146e0565b6001600160a01b03168015610d69576001600160601b0360a01b600f541617600f55600080f35b60405162461bcd60e51b815260206004820152601f60248201527f496e76616c6964206c656e64696e67206d616e616765722061646472657373006044820152606490fd5b3461045c57602036600319011261045c576004356001600d54610dd760ff8260081c1615613691565b610de460ff8216156139bc565b60ff191617600d5560105460ff8160a01c1680611384575b6112c1575b50801561122857610e113361373d565b610e1a33613622565b6005849392941015611212576004831461118b57600c5460011c85116111515784116111175733600052600360205260406000205461107e5733600052600b60205260ff6040600020541615611057575b610e743361384d565b90606482029180830460641490151715610f9857610e92908561358f565b1161101957600f546040516303065a9d60e21b8152600481018590529290602090849060249082906001600160a01b03165afa928315610b4757600093610fe2575b506000811215610fae57600160ff1b8114610f985760640160648111610f9857610f03606491610f369461358f565b50505b3360005260036020526040600020610f1f8482546134cb565b905533600052600460205242604060002055613467565b610f418282546134cb565b9055610f4f816013546134cb565b6013556000808080843382f115610b47576040519081527fac59582e5396aca512fa873a2047e7f4c80f8f55d4a06cb34a78a0187f62719f60203392a2600d805460ff19169055005b634e487b7160e01b600052601160045260246000fd5b60008113610fc2575b50610f369150610f06565b60640180606411610f9857610fdc606491610f369461358f565b04610fb7565b90926020823d602011611011575b81610ffd6020938361349c565b8101031261100e5750519184610ed4565b80fd5b3d9150610ff0565b604051600080516020614ae883398151915233918061103781613d32565b0390a260405162461bcd60e51b81528061105360048201613d32565b0390fd5b33600052600b6020526040600020600160ff19825416179055611079336137c1565b610e6b565b604051600080516020614ae88339815191523391806110cf8160609060208152601e60208201527f526570617920796f7572206578697374696e672064656274206669727374000060408201520190565b0390a260405162461bcd60e51b815260206004820152601e60248201527f526570617920796f7572206578697374696e67206465627420666972737400006044820152606490fd5b604051600080516020614ae883398151915233918061113581613cec565b0390a260405162461bcd60e51b81528061105360048201613cec565b604051600080516020614ae883398151915233918061116f81613c9b565b0390a260405162461bcd60e51b81528061105360048201613c9b565b604051600080516020614ae88339815191523391806111d3816060906020815260146020820152734372656469742073636f726520746f6f206c6f7760601b60408201520190565b0390a260405162461bcd60e51b81526020600482015260146024820152734372656469742073636f726520746f6f206c6f7760601b6044820152606490fd5b634e487b7160e01b600052602160045260246000fd5b604051600080516020614ae88339815191523391806112798160609060208152601d60208201527f416d6f756e74206d7573742062652067726561746572207468616e203000000060408201520190565b0390a260405162461bcd60e51b815260206004820152601d60248201527f416d6f756e74206d7573742062652067726561746572207468616e20300000006044820152606490fd5b60405163f25d4f3360e01b815233600482015290602090829060249082906001600160a01b03165afa908115610b475760009161134a575b50156113055781610e01565b60405162461bcd60e51b815260206004820152601e60248201527f5a4b2070726f6f6620766572696669636174696f6e20726571756972656400006044820152606490fd5b90506020813d60201161137c575b816113656020938361349c565b8101031261045c57611376906134be565b826112f9565b3d9150611358565b506001600160a01b0381161515610dfc565b3461045c57600036600319011261045c576113af6146e0565b7f228f455d7bc3d0b24a3a08d7847f391c3e78fc8aeb83acf226b7a96ee162b8ac6020600d5461ff0060ff8260081c161560081b169061ff0019161780600d5560ff6040519160081c1615158152a1005b3461045c57602036600319011261045c576001600160a01b0361142161333f565b1660005260066020526020604060002054604051908152f35b3461045c57600036600319011261045c5760206040516203f4808152f35b3461045c57600036600319011261045c57602060405160828152f35b3461045c57602036600319011261045c576005600435101561045c57602060405160008152f35b3461045c57600036600319011261045c576020601454604051908152f35b3461045c57600036600319011261045c576020601354604051908152f35b3461045c57600036600319011261045c576020610454613c4b565b3461045c57602036600319011261045c576001600160a01b0361151361333f565b1660005260036020526020604060002054604051908152f35b3461045c57602036600319011261045c5760043560095481101561045c5761155560209161336b565b905460405160039290921b1c6001600160a01b03168152f35b3461045c57600036600319011261045c57602060ff600d5460081c166040519015158152f35b3461045c57602036600319011261045c576001600160a01b036115b561333f565b1660005260076020526020604060002054604051908152f35b3461045c57600036600319011261045c576020670de0b6b3a76400006116036115f5613bfe565b6115fd613c4b565b9061358f565b04604051908152f35b3461045c57600036600319011261045c576010546040516001600160a01b039091168152602090f35b3461045c57604036600319011261045c5761164e61333f565b60105460243591906001600160a01b031633036116b95760207f4afae6838a181695abc7978598380d73bc2144eb38580c130f86e4b1e6531e15916116966064851115613bbd565b6001600160a01b03166000818152600283526040908190208590555193845292a2005b60405162461bcd60e51b815260206004820152601d60248201527f4f6e6c79206372656469742073797374656d2063616e207570646174650000006044820152606490fd5b3461045c57602036600319011261045c5761171761333f565b50670de0b6b3a764000061172c6115f5613bfe565b048066d529ae9e860000029066d529ae9e860000820403610f9857602090670de0b6b3a764000060405191048152f35b3461045c57604036600319011261045c5761177561333f565b6001600160a01b03166000818152600160205260409020546024359060ff16156119ca5780156119475733600052600560205260ff604060002054166118b65733600052600b60205260ff604060002054161561188f575b6040516323b872dd60e01b8152336004820152306024820152604481018290526020816064816000875af18015610b4757611858575b50600082815260208181526040808320338452909152902080546118289083906134cb565b90556040519081527ff1c0dd7e9b98bbff859029005ef89b127af049cd18df1a8d79f0b7e019911e5660203392a3005b6020813d602011611887575b816118716020938361349c565b8101031261045c57611882906134be565b611803565b3d9150611864565b33600052600b6020526040600020600160ff198254161790556118b1336137c1565b6117cd565b604051600080516020614ae88339815191523391806119038160609060208152601960208201527820b1b1b7bab73a1034b99034b7103634b8bab4b230ba34b7b760391b60408201520190565b0390a260405162461bcd60e51b815260206004820152601960248201527820b1b1b7bab73a1034b99034b7103634b8bab4b230ba34b7b760391b6044820152606490fd5b604051600080516020614ae883398151915233918061198d816060906020815260126020820152710416d6f756e74206d757374206265203e20360741b60408201520190565b0390a260405162461bcd60e51b81526020600482015260126024820152710416d6f756e74206d757374206265203e20360741b6044820152606490fd5b604051600080516020614ae8833981519152339180611a0f81606090602081526011602082015270151bdad95b881b9bdd08185b1b1bddd959607a1b60408201520190565b0390a260405162461bcd60e51b8152602060048201526011602482015270151bdad95b881b9bdd08185b1b1bddd959607a1b6044820152606490fd5b3461045c57600036600319011261045c576020610454613bfe565b3461045c57600036600319011261045c57602060405160008152f35b3461045c57600036600319011261045c57600f546040516001600160a01b039091168152602090f35b3461045c57600036600319011261045c57602060405160058152f35b3461045c57602036600319011261045c57611ae061333f565b611ae86146e0565b601080546001600160a01b039283166001600160a01b0319821681179092559091167f3637d79e8b0bd63fa3bcc41c2ab614b349b83626b91f73211bc80c6ec5ec4e95600080a3005b3461045c57604036600319011261045c57611b4a61333f565b60243590611b566146e0565b6001600160a01b0316908115611bf357308214611bb657602081611b9e60647f4afae6838a181695abc7978598380d73bc2144eb38580c130f86e4b1e6531e15941115613bbd565b836000526002825280604060002055604051908152a2005b60405162461bcd60e51b815260206004820152601560248201527424b73b30b634b21030b2323932b9b99d1039b2b63360591b6044820152606490fd5b60405162461bcd60e51b815260206004820152601d60248201527f496e76616c696420616464726573733a207a65726f20616464726573730000006044820152606490fd5b3461045c57600036600319011261045c576020600c54604051908152f35b3461045c57602036600319011261045c576001600160a01b03611c7761333f565b16600052600b602052602060ff604060002054166040519015158152f35b3461045c57604036600319011261045c57611cae613355565b600435600052600080516020614b4883398151915260205260406000209060018060a01b0316600052602052602060ff604060002054166040519015158152f35b3461045c57602036600319011261045c576040611d12611d0d61333f565b613b49565b825191151582526020820152f35b3461045c57600036600319011261045c57600080516020614b08833981519152546040516001600160a01b039091168152602090f35b3461045c57602036600319011261045c5760a0611d79611d7461333f565b613a8e565b9260409291925194151585521515602085015215156040840152606083015215156080820152f35b3461045c57602036600319011261045c57600435611dbd6146e0565b6001600d54611dcf60ff8216156139bc565b60ff191617600d55611de3478211156139f8565b60008080808460018060a01b03600080516020614b088339815191525416828215611e61575bf115610b4757600080516020614b08833981519152546040519182526001600160a01b0316907f69c169e5c85af54e1ca7e16608ccc812437821387924fb3353a7d053264ddaa090602090a2600d805460ff19169055005b506108fc611e09565b3461045c57602036600319011261045c576020610454611e8861333f565b61391f565b3461045c57604036600319011261045c57611ea661333f565b611eae613355565b90611eb76146e0565b6001600160a01b0316600081815260016020526040902054611edb9060ff166134d8565b600090815260086020526040902080546001600160a01b0319166001600160a01b03909216919091179055005b3461045c57602036600319011261045c576001600160a01b03611f2961333f565b166000526001602052602060ff604060002054166040519015158152f35b3461045c57600036600319011261045c57611f606146e0565b600080516020614b0883398151915280546001600160a01b031981169091556000906001600160a01b03167f8be0079c531659141344cd1fd0a4f28419497f9722a3daafe3b4186f6b6457e08280a3005b3461045c57602036600319011261045c5760043560115481101561045c57611fda60a091613405565b50805490600181015490600281015460046003830154920154926040519485526020850152604084015260608301526080820152f35b3461045c57602036600319011261045c5761202961333f565b6120316146e0565b6001600160a01b0381161561205c578061204d6120529261496c565b614716565b5061081a33614846565b60405162461bcd60e51b815260206004820152600f60248201526e496e76616c6964206164647265737360881b6044820152606490fd5b3461045c576120a1366133b4565b50506060601654603c8101809111610f98576120be9042116136d2565b6040519081826020600a549283815201600a6000527fc65a7bb8d6351c1cf70c95a316cc6a92839c986682d98bc35f958f4883f9d2a89260005b81811061226a57505061210d9250038361349c565b61211782516138de565b600092835b815181101561219a576001600160a01b036121378284613729565b511680600052600560205260ff60406000205416612159575b5060010161211c565b8060005260066020526040600020546203f4808101809111610f9857421061215057856121939161218d6001949887613729565b52613910565b9490612150565b828585811561225f57506121ad816138de565b9160005b828110612237575050506121d36121e160019260405192839160208301613424565b03601f19810183528261349c565b6040519115158252604060208301528181519182604083015260005b83811061221f5750508160006060809484010152601f80199101168101030190f35b602082820181015160608784010152859350016121fd565b6001906001600160a01b0361224c8285613729565b51166122588287613729565b52016121b1565b9150506000906121e1565b84546001600160a01b03168352600194850194879450602090930192016120f8565b3461045c57602036600319011261045c5760206104546122aa61333f565b61384d565b3461045c57602036600319011261045c5760043580151580910361045c5760207f895b395338611f71448ee682a563b0c13233e238236eb6700d45720ec4bf4445916122f96146e0565b6010805460ff60a01b191660a083901b60ff60a01b16179055604051908152a1005b3461045c57602036600319011261045c576001600160a01b0361233c61333f565b1660005260156020526020604060002054604051908152f35b3461045c57600036600319011261045c576020610454613806565b3461045c57600036600319011261045c576020604051603c8152f35b3461045c57602036600319011261045c576001600160a01b036123ad61333f565b168060005260016020526123c860ff604060002054166134d8565b6000526008602052602060018060a01b0360406000205416604051908152f35b3461045c57600036600319011261045c5760206040516103848152f35b3461045c57604036600319011261045c5761241e61333f565b670de0b6b3a7640000612463612432613355565b6001600160a01b0381811660008181526020818152604080832098909416825296909652942054906115fd906142e0565b04602060018060a01b03600e5416926024604051809581936356512fcd60e11b835260048301525afa918215610b47576000926124a9575b60206064611603858561358f565b91506020823d6020116124d7575b816124c46020938361349c565b8101031261045c5790519061160361249b565b3d91506124b7565b3461045c57604036600319011261045c576124f861333f565b602435908115159081830361045c5761250f6146e0565b6001600160a01b03166000818152600160205260408120805460ff191660ff8516179055600954919391815b818110612607575b5050816125fe575b5061257e575b60207f15f5cc64ca777db85f6c05fdba671568758b38329616d4d4b43bb8b092fe9a8d91604051908152a2005b600954600160401b8110156125e8577f15f5cc64ca777db85f6c05fdba671568758b38329616d4d4b43bb8b092fe9a8d916125c382600160209401600955600961339c565b81546001600160a01b0360039290921b91821b19169086901b17905591506125519050565b634e487b7160e01b600052604160045260246000fd5b9050158361254b565b856126118261336b565b905460039190911b1c6001600160a01b0316146126305760010161253b565b50505060018480612543565b3461045c57602036600319011261045c5761265561333f565b50602060405166d529ae9e8600008152f35b3461045c57604036600319011261045c5761268061333f565b6001600160a01b03612690613355565b16600052600060205260406000209060018060a01b03166000526020526020604060002054604051908152f35b3461045c57602036600319011261045c576126de6126d961333f565b61373d565b6040516005821015611212576020918152f35b3461045c576126ff366133b4565b601654603c8101809111610f98576127189042116136d2565b4260165581019060208183031261045c5780359067ffffffffffffffff821161045c57019080601f8301121561045c5781359061275482613711565b92612762604051948561349c565b82845260208085019360051b82010191821161045c57602001915b818310612804578360005b815181101561081a576001600160a01b036127a38284613729565b51169081600052600560205260ff604060002054166127c7575b6001915001612788565b816000526006602052604060002054916203f4808301809311610f98576001924210156127f5575b506127bd565b6127fe90613ed8565b836127ef565b82356001600160a01b038116810361045c5781526020928301920161277d565b3461045c57600036600319011261045c573360005260036020526020604060002054604051908152f35b3461045c57600036600319011261045c57600d5460405160109190911c6001600160a01b03168152602090f35b600036600319011261045c5761289960ff600d5460081c1615613691565b33600052600360205260406000205415612ad2573415612a435733600052600360205260406000205434116129aa576128d96128d43361373d565b613467565b6128e43482546135c2565b905533600052600360205260406000206128ff3482546135c2565b905561290d346014546134cb565b60145533600052600360205260406000205415612995575b33600052600560205260ff6040600020541661296a575b6040513481527f0516911bcc3a0a7412a44601057c0a0a1ec628bde049a84284bc42886653448860203392a2005b336000526005602052604060002060ff1981541690553360005260066020526000604081205561293c565b33600052600460205260006040812055612925565b604051600080516020614ae88339815191523391806129fb8160609060208152601c60208201527f52657061796d656e74206578636565647320746f74616c20646562740000000060408201520190565b0390a260405162461bcd60e51b815260206004820152601c60248201527f52657061796d656e74206578636565647320746f74616c2064656274000000006044820152606490fd5b604051600080516020614ae8833981519152339180612a8f816060906020815260186020820152774d7573742073656e642066756e647320746f20726570617960401b60408201520190565b0390a260405162461bcd60e51b81526020600482015260186024820152774d7573742073656e642066756e647320746f20726570617960401b6044820152606490fd5b604051600080516020614ae8833981519152339180612b1981606090602081526013602082015272139bc81bdd5d1cdd185b991a5b99c81919589d606a1b60408201520190565b0390a260405162461bcd60e51b8152602060048201526013602482015272139bc81bdd5d1cdd185b991a5b99c81919589d606a1b6044820152606490fd5b3461045c57600036600319011261045c576020601654604051908152f35b3461045c57602036600319011261045c576060612b98612b9361333f565b613622565b9060405192835260208301526040820152f35b3461045c57602036600319011261045c57600435600a5481101561045c57600090600a54811015612c1357600a9091527fc65a7bb8d6351c1cf70c95a316cc6a92839c986682d98bc35f958f4883f9d2a801546040516001600160a01b039091168152602090f35b634e487b7160e01b82526032600452602482fd5b3461045c57604036600319011261045c57612c40613355565b336001600160a01b03821603612c5c5761081a906004356148cc565b63334bd91960e11b60005260046000fd5b3461045c57604036600319011261045c57612c8661333f565b6001600160a01b03811660008181526001602052604090205490916024359160ff16156119ca576000838152602081815260408083203384529091529020548211612e3a5733600052600560205260ff604060002054166118b657612d0f612ced3361384d565b670de0b6b3a7640000612d08612d02856142e0565b8661358f565b04906135c2565b90606482029180830460641490151715610f9857612d3f903360005260036020526115fd6040600020549161391f565b11612e005760008281526020818152604080832033845290915290208054612d689083906135c2565b905560405163a9059cbb60e01b8152336004820152602481018290526020816044816000875af18015610b4757612dc9575b506040519081527f45892a46e6cef329bb642da6d69846d324db43d19008edc141ed82382eda1bee60203392a3005b6020813d602011612df8575b81612de26020938361349c565b8101031261045c57612df3906134be565b612d9a565b3d9150612dd5565b604051600080516020614ae8833981519152339180612e1e816135cf565b0390a260405162461bcd60e51b815280611053600482016135cf565b604051600080516020614ae8833981519152339180612e8281606090602081526014602082015273496e73756666696369656e742062616c616e636560601b60408201520190565b0390a260405162461bcd60e51b8152602060048201526014602482015273496e73756666696369656e742062616c616e636560601b6044820152606490fd5b3461045c5760c036600319011261045c57600435612edd6146e0565b601154811015612f2b5761081a90612f2560405191612efb83613480565b602435835260443560208401526064356040840152608435606084015260a4356080840152613405565b90613545565b60405162461bcd60e51b815260206004820152600c60248201526b24b73b30b634b2103a34b2b960a11b6044820152606490fd5b3461045c57604036600319011261045c5761081a600435612f7e613355565b90612f8b610c5282613524565b6147a4565b3461045c57602036600319011261045c576020610454600435613524565b3461045c57602036600319011261045c576001600160a01b03612fcf61333f565b166000526008602052602060018060a01b0360406000205416604051908152f35b3461045c57600036600319011261045c57602047604051908152f35b3461045c57604036600319011261045c5761302561333f565b602435906130316146e0565b6001600160a01b03166000818152600160205260409020546130559060ff166134d8565b6064821115613071576000526007602052604060002055600080f35b60405162461bcd60e51b815260206004820152601860248201527f5468726573686f6c64206d757374206265203e203130302500000000000000006044820152606490fd5b3461045c57600036600319011261045c576020604051610e108152f35b3461045c57604036600319011261045c576130ec61333f565b6024359033600052600560205260ff60406000205416156131e4576040516323b872dd60e01b8152336004820152306024820152604481018390526001600160a01b0391909116906020816064816000865af18015610b47576131ad575b506000526000602052604060002060018060a01b03331660005260205261317760406000209182546134cb565b905561318233613b49565b5061318957005b336000908152600560209081526040808320805460ff191690556006909152812055005b6020813d6020116131dc575b816131c66020938361349c565b8101031261045c576131d7906134be565b61314a565b3d91506131b9565b60405162461bcd60e51b815260206004820152601a60248201527f4163636f756e74206e6f7420696e206c69717569646174696f6e0000000000006044820152606490fd5b3461045c57602036600319011261045c576001600160a01b0361324a61333f565b166000526005602052602060ff604060002054166040519015158152f35b3461045c57602036600319011261045c5760043563ffffffff60e01b811680910361045c57602090637965db0b60e01b81149081156132ad575b506040519015158152f35b6301ffc9a760e01b149050826132a2565b3461045c57602036600319011261045c576132d761333f565b336000908152600080516020614b28833981519152602052604090205460ff161561332557600d805462010000600160b01b03191660109290921b62010000600160b01b0316919091179055005b63e2517d3f60e01b60005233600452600060245260446000fd5b600435906001600160a01b038216820361045c57565b602435906001600160a01b038216820361045c57565b60095481101561338657600960005260206000200190600090565b634e487b7160e01b600052603260045260246000fd5b80548210156133865760005260206000200190600090565b90602060031983011261045c5760043567ffffffffffffffff811161045c578260238201121561045c5780600401359267ffffffffffffffff841161045c576024848301011161045c576024019190565b6011548110156133865760116000526005602060002091020190600090565b602060408183019282815284518094520192019060005b8181106134485750505090565b82516001600160a01b031684526020938401939092019160010161343b565b6005811015611212576000526012602052604060002090565b60a0810190811067ffffffffffffffff8211176125e857604052565b90601f8019910116810190811067ffffffffffffffff8211176125e857604052565b5190811515820361045c57565b91908201809211610f9857565b156134df57565b60405162461bcd60e51b815260206004820152601f60248201527f546f6b656e206e6f7420616c6c6f77656420617320636f6c6c61746572616c006044820152606490fd5b600052600080516020614b4883398151915260205260016040600020015490565b9190613579576080816004925184556020810151600185015560408101516002850155606081015160038501550151910155565b634e487b7160e01b600052600060045260246000fd5b81810292918115918404141715610f9857565b81156135ac570490565b634e487b7160e01b600052601260045260246000fd5b91908203918211610f9857565b60809060208152603260208201527f5769746864726177616c20776f756c64206d616b6520706f736974696f6e20756040820152711b99195c98dbdb1b185d195c985b1a5e995960721b60608201520190565b61362b9061373d565b60058110156112125761363d90613405565b50906040519061364c82613480565b8254825260018301546020830152606461368a6080600286015494856040820152600460038801549788606084015201549182910152600c5461358f565b0491929190565b1561369857565b60405162461bcd60e51b815260206004820152601260248201527110dbdb9d1c9858dd081a5cc81c185d5cd95960721b6044820152606490fd5b156136d957565b60405162461bcd60e51b815260206004820152601060248201526f155c1ad9595c081d1a1c9bdd1d1b195960821b6044820152606490fd5b67ffffffffffffffff81116125e85760051b60200190565b80518210156133865760209160051b010190565b6001600160a01b0316600090815260026020526040812054601154915b82811061377b5750506000198101908111610f985760058110156112125790565b61378481613405565b5054821015806137aa575b61379b5760010161375a565b91505060058110156112125790565b5060016137b682613405565b50015482111561378f565b600a54600160401b8110156125e8578060016137e29201600a55600a61339c565b81546001600160a01b0393841660039290921b91821b9390911b1916919091179055565b60135480156138405760145490670de0b6b3a7640000820291808304670de0b6b3a76400001490151715610f985761383d916135a2565b90565b50670de0b6b3a764000090565b90600091613859613d78565b9260005b84518110156138d8576001600160a01b036138788287613729565b51166000818152602081815260408083206001600160a01b038816845290915290205490816138ac575b505060010161385d565b92670de0b6b3a76400006138c96138d0936115fd600196976142e0565b04906134cb565b9190386138a2565b50925050565b906138e882613711565b6138f5604051918261349c565b8281528092613906601f1991613711565b0190602036910137565b6000198114610f985760010190565b600e54604051631ee1b90b60e21b81526001600160a01b039283166004820181905292909160209183916024918391165afa908115610b475760009161398a575b50806139855750600090815260076020526040902054801561397f5790565b50608290565b905090565b906020823d6020116139b4575b816139a46020938361349c565b8101031261100e57505138613960565b3d9150613997565b156139c357565b60405162461bcd60e51b815260206004820152600d60248201526c4e6f207265656e7472616e637960981b6044820152606490fd5b156139ff57565b60405162461bcd60e51b815260206004820152601d60248201527f496e73756666696369656e7420636f6e74726163742062616c616e63650000006044820152606490fd5b91908260c091031261045c57613a59826134be565b91613a66602082016134be565b91613a73604083016134be565b9160608101519160a0613a88608084016134be565b92015190565b6010546001600160a01b03169081613ab3575050600090600090600090600090600090565b6040516335856b7f60e11b81526001600160a01b0390911660048201529060c090829060249082905afa906000908192828181938293613b0c575b50613b09575050505050600090600090600090600090600090565b94565b935094505050613b34915060c03d60c011613b42575b613b2c818361349c565b810190613a44565b509294919390929138613aee565b503d613b22565b90613b538261384d565b6001600160a01b038316600090815260036020526040902054928315613bb0578115613ba457613b8290613622565b50509260648202918204606403610f9857613b9c916135a2565b918210159190565b50509050600090600090565b5060019250600019919050565b15613bc457565b60405162461bcd60e51b815260206004820152601260248201527153636f7265206f7574206f662072616e676560701b6044820152606490fd5b613c0661450a565b8015613840576001811115613c3e5760028111156138405760031015613c32576710a741a46278000090565b670f43fc2c04ee000090565b50670c7d713b49da000090565b613c53613806565b670d2f13f7789f000081101561384057670c7d713b49da0000811015613c8e57670b1a2bc2ec5000001115613c32576710a741a46278000090565b50670e92596fd629000090565b60809060208152603060208201527f426f72726f7720616d6f756e74206578636565647320617661696c61626c652060408201526f6c656e64696e6720636170616369747960801b60608201520190565b60809060208152602560208201527f426f72726f7720616d6f756e74206578636565647320796f75722074696572206040820152641b1a5b5a5d60da1b60608201520190565b60809060208152602560208201527f496e73756666696369656e7420636f6c6c61746572616c20666f722074686973604082015264103637b0b760d91b60608201520190565b6009546000805b828110613df65750613d90906138de565b906000805b828110613da25750505090565b613dab8161336b565b905460039190911b1c6001600160a01b031660008181526001602052604090205460ff16613ddd575b50600101613d95565b82613def9161218d6001949588613729565b9190613dd4565b613dff8161336b565b60018060a01b0391549060031b1c16600052600160205260ff60406000205416613e2c575b600101613d7f565b90613e38600191613910565b919050613e24565b6010546001600160a01b031680613e6e575b506001600160a01b031660009081526002602052604090205490565b6040516335856b7f60e11b81526001600160a01b03831660048201529060c090829060249082905afa60009181613eb1575b5015613e52578015613e5257905090565b613ecb91925060c03d60c011613b4257613b2c818361349c565b5050925050509038613ea0565b6001600160a01b0381166000818152600560205260409020549092919060ff161561417a578260005260066020526040600020546203f4808101809111610f9857421061413c57613f27613d78565b9060005b8251811015613fa157613f506001600160a01b03613f498386613729565b5116614213565b15613f5d57600101613f2b565b606460405162461bcd60e51b815260206004820152602060248201527f4f7261636c65206369726375697420627265616b6572207472696767657265646044820152fd5b50918360005260036020526040600020546005810281810460051482151715610f98576064613fd19104826134cb565b9060005b84518110156140a7576001600160a01b03613ff08287613729565b5116908160005260006020526040806000206000908a825260205220548061401e575b506001915001613fd5565b6000838152602081815260408083208c845282528083208390555163a9059cbb60e01b81523360048201526024810193909352919384916044918391905af18015610b475761406e575b81614013565b6020823d821161409f575b816140866020938361349c565b8101031261045c576140996001926134be565b50614068565b3d9150614079565b5060008681526003602090815260408083208390556004825280832083905560058252808320805460ff1916905560069091528120559194909390925061410b91906140f6906128d49061373d565b6141018282546135c2565b90556014546134cb565b6014556040519182527f1175522017e08c2f400d7e516608eff60816ee9e8319158d174321234b60263160203393a3565b60405162461bcd60e51b815260206004820152601660248201527511dc9858d9481c195c9a5bd9081b9bdd08195b99195960521b6044820152606490fd5b60405162461bcd60e51b815260206004820152602260248201527f4163636f756e74206e6f74206d61726b656420666f72206c697175696461746960448201526137b760f11b6064820152608490fd5b519069ffffffffffffffffffff8216820361045c57565b908160a091031261045c576141f5816141ca565b9160208201519160408101519161383d6080606084015193016141ca565b6001600160a01b038181166000908152600860205260409020541680156142995760a060049160405192838092633fabe5a360e21b82525afa918215610b47576000916000906000946142a0575b5061426f61427591426135c2565b916149c2565b106142995769ffffffffffffffffffff80911691161061429457600190565b600090565b5050600090565b614275945061426f93506142cc915060a03d60a0116142d9575b6142c4818361349c565b8101906141e1565b9650929491506142619050565b503d6142ba565b6001600160a01b038181166000818152600860205260409020549091169182156144a05760a060049360405194858092633fabe5a360e21b82525afa908115610b475760009060009460009060009461446c575b5061426f61434291426135c2565b106144395769ffffffffffffffffffff8091169116106144015760005260086020526004602060018060a01b03604060002054166040519283809263313ce56760e01b82525afa908115610b47576000916143c0575b5060ff1660120360ff8111610f985760ff1690604d8211610f985761383d91600a0a9061358f565b6020813d6020116143f9575b816143d96020938361349c565b810103126143f557519060ff8216820361100e575060ff614398565b5080fd5b3d91506143cc565b60405162461bcd60e51b815260206004820152601060248201526f5374616c6520726f756e64206461746160801b6044820152606490fd5b60405162461bcd60e51b815260206004820152600b60248201526a5374616c6520707269636560a81b6044820152606490fd5b9050614342955061449291935061426f925060a03d60a0116142d9576142c4818361349c565b929750919492939050614334565b60405162461bcd60e51b8152602060048201526012602482015271141c9a58d94819995959081b9bdd081cd95d60721b6044820152606490fd5b6001600160a01b038116156144f4576144f29061496c565b565b631e4fbdf760e01b600052600060045260246000fd5b6000805260126020527f7e7fa33969761a458e04f477e039a608702b4f924981d6653935a8319a08ad7b5480156001828004141715610f98576040600060018152601260205220548060011b9080820460021490151715610f985761456e916134cb565b604060006002815260126020522054600381029080820460031490151715610f9857614599916134cb565b6040600060038152601260205220548060021b9080820460041490151715610f98576145c4916134cb565b60126020527f7e7fa33969761a458e04f477e039a608702b4f924981d6653935a8319a08ad7b5460016000527f71a67924699a20698523213e55fe499d539379d7769cd5567e2c45d583f815a3546146879161465591614623916134cb565b600260005260126020527f8e1fee8c88a9e04123b21e90cae2727a7715bf522a1e46eb5934ccd05203a6b254906134cb565b600360005260126020527f0f36ad39aee03e7108cc48f54934702a5f0d4066f10344cebf8198978d86976a54906134cb565b80156142995761383d916135a2565b6000818152600080516020614b488339815191526020908152604080832033845290915290205460ff16156146c85750565b63e2517d3f60e01b6000523360045260245260446000fd5b600080516020614b08833981519152546001600160a01b0316330361470157565b63118cdaa760e01b6000523360045260246000fd5b6001600160a01b0381166000908152600080516020614b28833981519152602052604090205460ff1661479e576001600160a01b03166000818152600080516020614b2883398151915260205260408120805460ff191660011790553391907f2f8788117e7eff1d82e926ec794901d17c78024a50270940304540a733656f0d8180a4600190565b50600090565b6000818152600080516020614b48833981519152602090815260408083206001600160a01b038616845290915290205460ff16614299576000818152600080516020614b48833981519152602090815260408083206001600160a01b0395909516808452949091528120805460ff19166001179055339291907f2f8788117e7eff1d82e926ec794901d17c78024a50270940304540a733656f0d9080a4600190565b6001600160a01b0381166000908152600080516020614b28833981519152602052604090205460ff161561479e576001600160a01b03166000818152600080516020614b2883398151915260205260408120805460ff191690553391907ff6391f5c32d9c69d2a47ea670b442974b53935d1edc7fd64eb21e047a839171b8180a4600190565b6000818152600080516020614b48833981519152602090815260408083206001600160a01b038616845290915290205460ff1615614299576000818152600080516020614b48833981519152602090815260408083206001600160a01b0395909516808452949091528120805460ff19169055339291907ff6391f5c32d9c69d2a47ea670b442974b53935d1edc7fd64eb21e047a839171b9080a4600190565b600080516020614b0883398151915280546001600160a01b039283166001600160a01b0319821681179092559091167f8be0079c531659141344cd1fd0a4f28419497f9722a3daafe3b4186f6b6457e0600080a3565b6001600160a01b0316600081815260156020526040902054806139855750600e54604051631a650cc760e01b81526004810192909252602090829060249082906001600160a01b03165afa908115610b4757600091614a2d575b50614a275761038490565b610e1090565b90506020813d602011614a5f575b81614a486020938361349c565b8101031261045c57614a59906134be565b38614a1c565b3d9150614a3b565b9060115491600160401b8310156125e85760018301601155600092601154811015614aa557600090600560208660116144f297985220910201613545565b634e487b7160e01b84526032600452602484fd5b60ff600080516020614b688339815191525460401c1615614ad657565b631afcd79f60e31b60005260046000fdfe3c364b9decdac59fbe037e99687219ac0feed46572bfbcbd5284b6b8e67f402d9016d09d72d40fdae2fd8ceac6b6234c7706214fd39c1cd1e609a0528c199300b7db2dd08fcb62d0c9e08c51941cae53c267786a0b75803fb7960902fc8ef97d02dd7bc7dec4dceedda775e58dd541e08a116c6c53815c0bd028192f7b626800f0c57e16840df040f15088dc2f81fe391c3923bec73e23a9662efc9c229c6a00a2646970667358221220d79b8bf14cefca62bb958ac4ff9432c0f035cf5578a54d6d8bd70eacf79c773764736f6c634300081c0033",
  "linkReferences": {},
  "deployedLinkReferences": {}
}