{
  "_format": "hh-sol-artifact-1",
  "contractName": "LiquidityPool",
  "sourceName": "contracts/LiquidityPool.sol",
  "abi": [
    {
      "inputs": [],
      "name": "OnlyTimelockLiquidityPool",
      "type": "error"
    },
    {
      "anonymous": false,
      "inputs": [
        {
          "indexed": true,
          "internalType": "address",
          "name": "user",
          "type": "address"
        },
        {
          "indexed": false,
          "internalType": "uint256",
          "name": "amount",
          "type": "uint256"
        }
      ],
      "name": "Borrowed",
      "type": "event"
    },
    {
      "anonymous": false,
      "inputs": [
        {
          "indexed": true,
          "internalType": "address",
          "name": "user",
          "type": "address"
        },
        {
          "indexed": true,
          "internalType": "address",
          "name": "token",
          "type": "address"
        },
        {
          "indexed": false,
          "internalType": "uint256",
          "name": "amount",
          "type": "uint256"
        }
      ],
      "name": "CollateralDeposited",
      "type": "event"
    },
    {
      "anonymous": false,
      "inputs": [
        {
          "indexed": true,
          "internalType": "address",
          "name": "token",
          "type": "address"
        },
        {
          "indexed": false,
          "internalType": "bool",
          "name": "isAllowed",
          "type": "bool"
        }
      ],
      "name": "CollateralTokenStatusChanged",
      "type": "event"
    },
    {
      "anonymous": false,
      "inputs": [
        {
          "indexed": true,
          "internalType": "address",
          "name": "user",
          "type": "address"
        },
        {
          "indexed": true,
          "internalType": "address",
          "name": "token",
          "type": "address"
        },
        {
          "indexed": false,
          "internalType": "uint256",
          "name": "amount",
          "type": "uint256"
        }
      ],
      "name": "CollateralWithdrawn",
      "type": "event"
    },
    {
      "anonymous": false,
      "inputs": [
        {
          "indexed": true,
          "internalType": "address",
          "name": "user",
          "type": "address"
        },
        {
          "indexed": false,
          "internalType": "uint256",
          "name": "score",
          "type": "uint256"
        }
      ],
      "name": "CreditScoreAssigned",
      "type": "event"
    },
    {
      "anonymous": false,
      "inputs": [
        {
          "indexed": true,
          "internalType": "address",
          "name": "oldContract",
          "type": "address"
        },
        {
          "indexed": true,
          "internalType": "address",
          "name": "newContract",
          "type": "address"
        }
      ],
      "name": "CreditScoreContractUpdated",
      "type": "event"
    },
    {
      "anonymous": false,
      "inputs": [
        {
          "indexed": true,
          "internalType": "address",
          "name": "user",
          "type": "address"
        },
        {
          "indexed": false,
          "internalType": "string",
          "name": "source",
          "type": "string"
        },
        {
          "indexed": false,
          "internalType": "uint256",
          "name": "score",
          "type": "uint256"
        },
        {
          "indexed": false,
          "internalType": "uint256",
          "name": "convertedScore",
          "type": "uint256"
        }
      ],
      "name": "CreditScoreSourceUsed",
      "type": "event"
    },
    {
      "anonymous": false,
      "inputs": [
        {
          "indexed": true,
          "internalType": "address",
          "name": "oldSystem",
          "type": "address"
        },
        {
          "indexed": true,
          "internalType": "address",
          "name": "newSystem",
          "type": "address"
        }
      ],
      "name": "CreditSystemUpdated",
      "type": "event"
    },
    {
      "anonymous": false,
      "inputs": [
        {
          "indexed": false,
          "internalType": "bool",
          "name": "isPaused",
          "type": "bool"
        }
      ],
      "name": "EmergencyPaused",
      "type": "event"
    },
    {
      "anonymous": false,
      "inputs": [
        {
          "indexed": true,
          "internalType": "address",
          "name": "user",
          "type": "address"
        },
        {
          "indexed": false,
          "internalType": "uint256",
          "name": "amount",
          "type": "uint256"
        },
        {
          "indexed": false,
          "internalType": "string",
          "name": "feeType",
          "type": "string"
        },
        {
          "indexed": false,
          "internalType": "uint256",
          "name": "tier",
          "type": "uint256"
        }
      ],
      "name": "FeeCollected",
      "type": "event"
    },
    {
      "anonymous": false,
      "inputs": [
        {
          "indexed": true,
          "internalType": "address",
          "name": "user",
          "type": "address"
        },
        {
          "indexed": false,
          "internalType": "uint256",
          "name": "newDeadline",
          "type": "uint256"
        }
      ],
      "name": "GracePeriodExtended",
      "type": "event"
    },
    {
      "anonymous": false,
      "inputs": [
        {
          "indexed": false,
          "internalType": "uint8",
          "name": "version",
          "type": "uint8"
        }
      ],
      "name": "Initialized",
      "type": "event"
    },
    {
      "anonymous": false,
      "inputs": [
        {
          "indexed": true,
          "internalType": "address",
          "name": "user",
          "type": "address"
        },
        {
          "indexed": true,
          "internalType": "address",
          "name": "liquidator",
          "type": "address"
        },
        {
          "indexed": false,
          "internalType": "uint256",
          "name": "amount",
          "type": "uint256"
        }
      ],
      "name": "LiquidationExecuted",
      "type": "event"
    },
    {
      "anonymous": false,
      "inputs": [
        {
          "indexed": true,
          "internalType": "address",
          "name": "user",
          "type": "address"
        }
      ],
      "name": "LiquidationStarted",
      "type": "event"
    },
    {
      "anonymous": false,
      "inputs": [
        {
          "indexed": true,
          "internalType": "address",
          "name": "applicant",
          "type": "address"
        },
        {
          "indexed": false,
          "internalType": "uint256",
          "name": "amount",
          "type": "uint256"
        },
        {
          "indexed": false,
          "internalType": "uint256",
          "name": "collateral",
          "type": "uint256"
        }
      ],
      "name": "LoanApplied",
      "type": "event"
    },
    {
      "anonymous": false,
      "inputs": [
        {
          "indexed": true,
          "internalType": "address",
          "name": "applicant",
          "type": "address"
        },
        {
          "indexed": false,
          "internalType": "uint256",
          "name": "amount",
          "type": "uint256"
        }
      ],
      "name": "LoanApproved",
      "type": "event"
    },
    {
      "anonymous": false,
      "inputs": [
        {
          "indexed": true,
          "internalType": "address",
          "name": "borrower",
          "type": "address"
        },
        {
          "indexed": false,
          "internalType": "uint256",
          "name": "amount",
          "type": "uint256"
        },
        {
          "indexed": false,
          "internalType": "uint256",
          "name": "rate",
          "type": "uint256"
        }
      ],
      "name": "LoanDisbursed",
      "type": "event"
    },
    {
      "anonymous": false,
      "inputs": [
        {
          "indexed": true,
          "internalType": "address",
          "name": "borrower",
          "type": "address"
        }
      ],
      "name": "LoanFullyRepaid",
      "type": "event"
    },
    {
      "anonymous": false,
      "inputs": [
        {
          "indexed": true,
          "internalType": "address",
          "name": "borrower",
          "type": "address"
        },
        {
          "indexed": false,
          "internalType": "uint256",
          "name": "amount",
          "type": "uint256"
        },
        {
          "indexed": false,
          "internalType": "uint256",
          "name": "remaining",
          "type": "uint256"
        }
      ],
      "name": "LoanInstallmentPaid",
      "type": "event"
    },
    {
      "anonymous": false,
      "inputs": [
        {
          "indexed": true,
          "internalType": "address",
          "name": "borrower",
          "type": "address"
        },
        {
          "indexed": false,
          "internalType": "uint256",
          "name": "penalty",
          "type": "uint256"
        }
      ],
      "name": "LoanLatePenaltyApplied",
      "type": "event"
    },
    {
      "anonymous": false,
      "inputs": [
        {
          "indexed": true,
          "internalType": "address",
          "name": "applicant",
          "type": "address"
        },
        {
          "indexed": false,
          "internalType": "uint256",
          "name": "amount",
          "type": "uint256"
        }
      ],
      "name": "LoanRejected",
      "type": "event"
    },
    {
      "anonymous": false,
      "inputs": [
        {
          "indexed": true,
          "internalType": "address",
          "name": "user",
          "type": "address"
        },
        {
          "indexed": true,
          "internalType": "address",
          "name": "liquidator",
          "type": "address"
        },
        {
          "indexed": true,
          "internalType": "address",
          "name": "collateralToken",
          "type": "address"
        },
        {
          "indexed": false,
          "internalType": "uint256",
          "name": "collateralSeized",
          "type": "uint256"
        },
        {
          "indexed": false,
          "internalType": "uint256",
          "name": "debtRepaid",
          "type": "uint256"
        }
      ],
      "name": "PartialLiquidation",
      "type": "event"
    },
    {
      "anonymous": false,
      "inputs": [
        {
          "indexed": false,
          "internalType": "bool",
          "name": "useRISC0",
          "type": "bool"
        }
      ],
      "name": "RISC0ScoreToggled",
      "type": "event"
    },
    {
      "anonymous": false,
      "inputs": [
        {
          "indexed": true,
          "internalType": "address",
          "name": "user",
          "type": "address"
        },
        {
          "indexed": false,
          "internalType": "uint256",
          "name": "amount",
          "type": "uint256"
        }
      ],
      "name": "Repaid",
      "type": "event"
    },
    {
      "anonymous": false,
      "inputs": [
        {
          "indexed": true,
          "internalType": "address",
          "name": "newReserve",
          "type": "address"
        }
      ],
      "name": "ReserveAddressUpdated",
      "type": "event"
    },
    {
      "anonymous": false,
      "inputs": [
        {
          "indexed": true,
          "internalType": "bytes32",
          "name": "role",
          "type": "bytes32"
        },
        {
          "indexed": true,
          "internalType": "bytes32",
          "name": "previousAdminRole",
          "type": "bytes32"
        },
        {
          "indexed": true,
          "internalType": "bytes32",
          "name": "newAdminRole",
          "type": "bytes32"
        }
      ],
      "name": "RoleAdminChanged",
      "type": "event"
    },
    {
      "anonymous": false,
      "inputs": [
        {
          "indexed": true,
          "internalType": "bytes32",
          "name": "role",
          "type": "bytes32"
        },
        {
          "indexed": true,
          "internalType": "address",
          "name": "account",
          "type": "address"
        },
        {
          "indexed": true,
          "internalType": "address",
          "name": "sender",
          "type": "address"
        }
      ],
      "name": "RoleGranted",
      "type": "event"
    },
    {
      "anonymous": false,
      "inputs": [
        {
          "indexed": true,
          "internalType": "bytes32",
          "name": "role",
          "type": "bytes32"
        },
        {
          "indexed": true,
          "internalType": "address",
          "name": "account",
          "type": "address"
        },
        {
          "indexed": true,
          "internalType": "address",
          "name": "sender",
          "type": "address"
        }
      ],
      "name": "RoleRevoked",
      "type": "event"
    },
    {
      "anonymous": false,
      "inputs": [
        {
          "indexed": true,
          "internalType": "address",
          "name": "token",
          "type": "address"
        },
        {
          "indexed": false,
          "internalType": "uint256",
          "name": "updatedAt",
          "type": "uint256"
        },
        {
          "indexed": false,
          "internalType": "uint256",
          "name": "currentTime",
          "type": "uint256"
        }
      ],
      "name": "StaleOracleTriggered",
      "type": "event"
    },
    {
      "anonymous": false,
      "inputs": [
        {
          "indexed": true,
          "internalType": "uint256",
          "name": "tier",
          "type": "uint256"
        },
        {
          "indexed": false,
          "internalType": "uint256",
          "name": "originationFee",
          "type": "uint256"
        },
        {
          "indexed": false,
          "internalType": "uint256",
          "name": "lateFeeAPR",
          "type": "uint256"
        }
      ],
      "name": "TierFeeUpdated",
      "type": "event"
    },
    {
      "anonymous": false,
      "inputs": [
        {
          "indexed": true,
          "internalType": "address",
          "name": "user",
          "type": "address"
        },
        {
          "indexed": false,
          "internalType": "string",
          "name": "message",
          "type": "string"
        }
      ],
      "name": "UserError",
      "type": "event"
    },
    {
      "anonymous": false,
      "inputs": [
        {
          "indexed": false,
          "internalType": "bool",
          "name": "required",
          "type": "bool"
        }
      ],
      "name": "ZKProofRequirementToggled",
      "type": "event"
    },
    {
      "anonymous": false,
      "inputs": [
        {
          "indexed": true,
          "internalType": "address",
          "name": "user",
          "type": "address"
        },
        {
          "indexed": false,
          "internalType": "string",
          "name": "reason",
          "type": "string"
        }
      ],
      "name": "ZKProofValidationFailed",
      "type": "event"
    },
    {
      "inputs": [],
      "name": "ALLOW_COLLATERAL_PERMISSION",
      "outputs": [
        {
          "internalType": "bytes32",
          "name": "",
          "type": "bytes32"
        }
      ],
      "stateMutability": "view",
      "type": "function"
    },
    {
      "inputs": [],
      "name": "DEFAULT_ADMIN_ROLE",
      "outputs": [
        {
          "internalType": "bytes32",
          "name": "",
          "type": "bytes32"
        }
      ],
      "stateMutability": "view",
      "type": "function"
    },
    {
      "inputs": [],
      "name": "DEFAULT_LIQUIDATION_THRESHOLD",
      "outputs": [
        {
          "internalType": "uint256",
          "name": "",
          "type": "uint256"
        }
      ],
      "stateMutability": "view",
      "type": "function"
    },
    {
      "inputs": [],
      "name": "DEFAULT_STALENESS_STABLE",
      "outputs": [
        {
          "internalType": "uint256",
          "name": "",
          "type": "uint256"
        }
      ],
      "stateMutability": "view",
      "type": "function"
    },
    {
      "inputs": [],
      "name": "DEFAULT_STALENESS_VOLATILE",
      "outputs": [
        {
          "internalType": "uint256",
          "name": "",
          "type": "uint256"
        }
      ],
      "stateMutability": "view",
      "type": "function"
    },
    {
      "inputs": [],
      "name": "GRACE_PERIOD",
      "outputs": [
        {
          "internalType": "uint256",
          "name": "",
          "type": "uint256"
        }
      ],
      "stateMutability": "view",
      "type": "function"
    },
    {
      "inputs": [],
      "name": "LIQUIDATION_PENALTY",
      "outputs": [
        {
          "internalType": "uint256",
          "name": "",
          "type": "uint256"
        }
      ],
      "stateMutability": "view",
      "type": "function"
    },
    {
      "inputs": [],
      "name": "SAFETY_BUFFER",
      "outputs": [
        {
          "internalType": "uint256",
          "name": "",
          "type": "uint256"
        }
      ],
      "stateMutability": "view",
      "type": "function"
    },
    {
      "inputs": [],
      "name": "SCORE_EXPIRY_PERIOD",
      "outputs": [
        {
          "internalType": "uint256",
          "name": "",
          "type": "uint256"
        }
      ],
      "stateMutability": "view",
      "type": "function"
    },
    {
      "inputs": [],
      "name": "SET_ADMIN_PERMISSION",
      "outputs": [
        {
          "internalType": "bytes32",
          "name": "",
          "type": "bytes32"
        }
      ],
      "stateMutability": "view",
      "type": "function"
    },
    {
      "inputs": [],
      "name": "SET_CREDIT_SCORE_PERMISSION",
      "outputs": [
        {
          "internalType": "bytes32",
          "name": "",
          "type": "bytes32"
        }
      ],
      "stateMutability": "view",
      "type": "function"
    },
    {
      "inputs": [],
      "name": "SET_LENDING_MANAGER_PERMISSION",
      "outputs": [
        {
          "internalType": "bytes32",
          "name": "",
          "type": "bytes32"
        }
      ],
      "stateMutability": "view",
      "type": "function"
    },
    {
      "inputs": [],
      "name": "SET_MAX_PRICE_AGE_PERMISSION",
      "outputs": [
        {
          "internalType": "bytes32",
          "name": "",
          "type": "bytes32"
        }
      ],
      "stateMutability": "view",
      "type": "function"
    },
    {
      "inputs": [],
      "name": "SET_MIN_PARTIAL_LIQUIDATION_AMOUNT_PERMISSION",
      "outputs": [
        {
          "internalType": "bytes32",
          "name": "",
          "type": "bytes32"
        }
      ],
      "stateMutability": "view",
      "type": "function"
    },
    {
      "inputs": [],
      "name": "SET_PRICE_FEED_PERMISSION",
      "outputs": [
        {
          "internalType": "bytes32",
          "name": "",
          "type": "bytes32"
        }
      ],
      "stateMutability": "view",
      "type": "function"
    },
    {
      "inputs": [],
      "name": "SET_RESERVE_ADDRESS_PERMISSION",
      "outputs": [
        {
          "internalType": "bytes32",
          "name": "",
          "type": "bytes32"
        }
      ],
      "stateMutability": "view",
      "type": "function"
    },
    {
      "inputs": [],
      "name": "SET_TIER_FEE_PERMISSION",
      "outputs": [
        {
          "internalType": "bytes32",
          "name": "",
          "type": "bytes32"
        }
      ],
      "stateMutability": "view",
      "type": "function"
    },
    {
      "inputs": [],
      "name": "TOGGLE_PAUSE_PERMISSION",
      "outputs": [
        {
          "internalType": "bytes32",
          "name": "",
          "type": "bytes32"
        }
      ],
      "stateMutability": "view",
      "type": "function"
    },
    {
      "inputs": [],
      "name": "UPDATE_BORROW_TIER_PERMISSION",
      "outputs": [
        {
          "internalType": "bytes32",
          "name": "",
          "type": "bytes32"
        }
      ],
      "stateMutability": "view",
      "type": "function"
    },
    {
      "inputs": [],
      "name": "UPKEEP_COOLDOWN",
      "outputs": [
        {
          "internalType": "uint256",
          "name": "",
          "type": "uint256"
        }
      ],
      "stateMutability": "view",
      "type": "function"
    },
    {
      "inputs": [
        {
          "internalType": "uint256",
          "name": "amount",
          "type": "uint256"
        }
      ],
      "name": "borrow",
      "outputs": [],
      "stateMutability": "payable",
      "type": "function"
    },
    {
      "inputs": [
        {
          "internalType": "uint256",
          "name": "",
          "type": "uint256"
        }
      ],
      "name": "borrowTierConfigs",
      "outputs": [
        {
          "internalType": "uint256",
          "name": "minScore",
          "type": "uint256"
        },
        {
          "internalType": "uint256",
          "name": "maxScore",
          "type": "uint256"
        },
        {
          "internalType": "uint256",
          "name": "collateralRatio",
          "type": "uint256"
        },
        {
          "internalType": "int256",
          "name": "interestRateModifier",
          "type": "int256"
        },
        {
          "internalType": "uint256",
          "name": "maxLoanAmount",
          "type": "uint256"
        }
      ],
      "stateMutability": "view",
      "type": "function"
    },
    {
      "inputs": [
        {
          "internalType": "address",
          "name": "",
          "type": "address"
        }
      ],
      "name": "borrowTimestamp",
      "outputs": [
        {
          "internalType": "uint256",
          "name": "",
          "type": "uint256"
        }
      ],
      "stateMutability": "view",
      "type": "function"
    },
    {
      "inputs": [
        {
          "internalType": "enum LiquidityPool.RiskTier",
          "name": "",
          "type": "uint8"
        }
      ],
      "name": "borrowedAmountByRiskTier",
      "outputs": [
        {
          "internalType": "uint256",
          "name": "",
          "type": "uint256"
        }
      ],
      "stateMutability": "view",
      "type": "function"
    },
    {
      "inputs": [
        {
          "internalType": "address",
          "name": "user",
          "type": "address"
        }
      ],
      "name": "canLend",
      "outputs": [
        {
          "internalType": "bool",
          "name": "",
          "type": "bool"
        }
      ],
      "stateMutability": "view",
      "type": "function"
    },
    {
      "inputs": [],
      "name": "checkCircuitBreakers",
      "outputs": [],
      "stateMutability": "nonpayable",
      "type": "function"
    },
    {
      "inputs": [
        {
          "internalType": "address",
          "name": "user",
          "type": "address"
        }
      ],
      "name": "checkCollateralization",
      "outputs": [
        {
          "internalType": "bool",
          "name": "isHealthy",
          "type": "bool"
        },
        {
          "internalType": "uint256",
          "name": "ratio",
          "type": "uint256"
        }
      ],
      "stateMutability": "view",
      "type": "function"
    },
    {
      "inputs": [
        {
          "internalType": "bytes",
          "name": "",
          "type": "bytes"
        }
      ],
      "name": "checkUpkeep",
      "outputs": [
        {
          "internalType": "bool",
          "name": "upkeepNeeded",
          "type": "bool"
        },
        {
          "internalType": "bytes",
          "name": "performData",
          "type": "bytes"
        }
      ],
      "stateMutability": "view",
      "type": "function"
    },
    {
      "inputs": [
        {
          "internalType": "address",
          "name": "token",
          "type": "address"
        },
        {
          "internalType": "address",
          "name": "user",
          "type": "address"
        },
        {
          "internalType": "address",
          "name": "to",
          "type": "address"
        },
        {
          "internalType": "uint256",
          "name": "amount",
          "type": "uint256"
        }
      ],
      "name": "clearCollateral",
      "outputs": [],
      "stateMutability": "nonpayable",
      "type": "function"
    },
    {
      "inputs": [
        {
          "internalType": "address",
          "name": "user",
          "type": "address"
        },
        {
          "internalType": "uint256",
          "name": "amount",
          "type": "uint256"
        }
      ],
      "name": "clearDebt",
      "outputs": [],
      "stateMutability": "nonpayable",
      "type": "function"
    },
    {
      "inputs": [
        {
          "internalType": "address",
          "name": "",
          "type": "address"
        },
        {
          "internalType": "address",
          "name": "",
          "type": "address"
        }
      ],
      "name": "collateralBalance",
      "outputs": [
        {
          "internalType": "uint256",
          "name": "",
          "type": "uint256"
        }
      ],
      "stateMutability": "view",
      "type": "function"
    },
    {
      "inputs": [
        {
          "internalType": "uint256",
          "name": "",
          "type": "uint256"
        }
      ],
      "name": "collateralTokenList",
      "outputs": [
        {
          "internalType": "address",
          "name": "",
          "type": "address"
        }
      ],
      "stateMutability": "view",
      "type": "function"
    },
    {
      "inputs": [
        {
          "internalType": "uint64",
          "name": "ficoScore",
          "type": "uint64"
        }
      ],
      "name": "convertFICOToContractScore",
      "outputs": [
        {
          "internalType": "uint256",
          "name": "",
          "type": "uint256"
        }
      ],
      "stateMutability": "pure",
      "type": "function"
    },
    {
      "inputs": [
        {
          "internalType": "address",
          "name": "",
          "type": "address"
        }
      ],
      "name": "creditScore",
      "outputs": [
        {
          "internalType": "uint256",
          "name": "",
          "type": "uint256"
        }
      ],
      "stateMutability": "view",
      "type": "function"
    },
    {
      "inputs": [],
      "name": "creditScoreContract",
      "outputs": [
        {
          "internalType": "contract ICreditScore",
          "name": "",
          "type": "address"
        }
      ],
      "stateMutability": "view",
      "type": "function"
    },
    {
      "inputs": [],
      "name": "creditSystem",
      "outputs": [
        {
          "internalType": "contract IntegratedCreditSystem",
          "name": "",
          "type": "address"
        }
      ],
      "stateMutability": "view",
      "type": "function"
    },
    {
      "inputs": [
        {
          "internalType": "address",
          "name": "token",
          "type": "address"
        },
        {
          "internalType": "uint256",
          "name": "amount",
          "type": "uint256"
        }
      ],
      "name": "depositCollateral",
      "outputs": [],
      "stateMutability": "nonpayable",
      "type": "function"
    },
    {
      "inputs": [
        {
          "internalType": "uint256",
          "name": "amount",
          "type": "uint256"
        },
        {
          "internalType": "address payable",
          "name": "to",
          "type": "address"
        }
      ],
      "name": "extract",
      "outputs": [],
      "stateMutability": "nonpayable",
      "type": "function"
    },
    {
      "inputs": [],
      "name": "getAdmin",
      "outputs": [
        {
          "internalType": "address",
          "name": "",
          "type": "address"
        }
      ],
      "stateMutability": "view",
      "type": "function"
    },
    {
      "inputs": [],
      "name": "getAllUsers",
      "outputs": [
        {
          "internalType": "address[]",
          "name": "",
          "type": "address[]"
        }
      ],
      "stateMutability": "view",
      "type": "function"
    },
    {
      "inputs": [],
      "name": "getAllowedCollateralTokens",
      "outputs": [
        {
          "internalType": "address[]",
          "name": "",
          "type": "address[]"
        }
      ],
      "stateMutability": "view",
      "type": "function"
    },
    {
      "inputs": [],
      "name": "getBalance",
      "outputs": [
        {
          "internalType": "uint256",
          "name": "",
          "type": "uint256"
        }
      ],
      "stateMutability": "view",
      "type": "function"
    },
    {
      "inputs": [
        {
          "internalType": "address",
          "name": "user",
          "type": "address"
        }
      ],
      "name": "getBorrowTerms",
      "outputs": [
        {
          "internalType": "uint256",
          "name": "collateralRatio",
          "type": "uint256"
        },
        {
          "internalType": "int256",
          "name": "interestRateModifier",
          "type": "int256"
        },
        {
          "internalType": "uint256",
          "name": "maxLoanAmount",
          "type": "uint256"
        }
      ],
      "stateMutability": "view",
      "type": "function"
    },
    {
      "inputs": [
        {
          "internalType": "address",
          "name": "user",
          "type": "address"
        }
      ],
      "name": "getBorrowerRate",
      "outputs": [
        {
          "internalType": "uint256",
          "name": "",
          "type": "uint256"
        }
      ],
      "stateMutability": "view",
      "type": "function"
    },
    {
      "inputs": [
        {
          "internalType": "address",
          "name": "user",
          "type": "address"
        },
        {
          "internalType": "address",
          "name": "token",
          "type": "address"
        }
      ],
      "name": "getCollateral",
      "outputs": [
        {
          "internalType": "uint256",
          "name": "",
          "type": "uint256"
        }
      ],
      "stateMutability": "view",
      "type": "function"
    },
    {
      "inputs": [
        {
          "internalType": "address",
          "name": "user",
          "type": "address"
        }
      ],
      "name": "getCreditScore",
      "outputs": [
        {
          "internalType": "uint256",
          "name": "",
          "type": "uint256"
        }
      ],
      "stateMutability": "view",
      "type": "function"
    },
    {
      "inputs": [
        {
          "internalType": "address",
          "name": "user",
          "type": "address"
        }
      ],
      "name": "getCreditScoreWithSource",
      "outputs": [
        {
          "internalType": "uint256",
          "name": "score",
          "type": "uint256"
        },
        {
          "internalType": "string",
          "name": "source",
          "type": "string"
        },
        {
          "internalType": "bool",
          "name": "isVerified",
          "type": "bool"
        }
      ],
      "stateMutability": "view",
      "type": "function"
    },
    {
      "inputs": [
        {
          "internalType": "address",
          "name": "user",
          "type": "address"
        }
      ],
      "name": "getLoan",
      "outputs": [
        {
          "components": [
            {
              "internalType": "uint256",
              "name": "principal",
              "type": "uint256"
            },
            {
              "internalType": "uint256",
              "name": "outstanding",
              "type": "uint256"
            },
            {
              "internalType": "uint256",
              "name": "interestRate",
              "type": "uint256"
            },
            {
              "internalType": "uint256",
              "name": "nextDueDate",
              "type": "uint256"
            },
            {
              "internalType": "uint256",
              "name": "installmentAmount",
              "type": "uint256"
            },
            {
              "internalType": "uint256",
              "name": "penaltyBps",
              "type": "uint256"
            },
            {
              "internalType": "bool",
              "name": "active",
              "type": "bool"
            }
          ],
          "internalType": "struct LiquidityPool.Loan",
          "name": "",
          "type": "tuple"
        }
      ],
      "stateMutability": "view",
      "type": "function"
    },
    {
      "inputs": [
        {
          "internalType": "address",
          "name": "user",
          "type": "address"
        }
      ],
      "name": "getLoanDetails",
      "outputs": [
        {
          "internalType": "uint256",
          "name": "principal",
          "type": "uint256"
        },
        {
          "internalType": "uint256",
          "name": "outstanding",
          "type": "uint256"
        },
        {
          "internalType": "uint256",
          "name": "interestRate",
          "type": "uint256"
        },
        {
          "internalType": "uint256",
          "name": "nextDueDate",
          "type": "uint256"
        },
        {
          "internalType": "uint256",
          "name": "installmentAmount",
          "type": "uint256"
        },
        {
          "internalType": "uint256",
          "name": "penaltyBps",
          "type": "uint256"
        },
        {
          "internalType": "bool",
          "name": "active",
          "type": "bool"
        },
        {
          "internalType": "uint256",
          "name": "daysUntilDue",
          "type": "uint256"
        },
        {
          "internalType": "uint256",
          "name": "latePenaltyIfPaidNow",
          "type": "uint256"
        },
        {
          "internalType": "uint256",
          "name": "totalInstallmentsRemaining",
          "type": "uint256"
        }
      ],
      "stateMutability": "view",
      "type": "function"
    },
    {
      "inputs": [],
      "name": "getMinCollateralRatio",
      "outputs": [
        {
          "internalType": "uint256",
          "name": "",
          "type": "uint256"
        }
      ],
      "stateMutability": "pure",
      "type": "function"
    },
    {
      "inputs": [],
      "name": "getMyDebt",
      "outputs": [
        {
          "internalType": "uint256",
          "name": "",
          "type": "uint256"
        }
      ],
      "stateMutability": "view",
      "type": "function"
    },
    {
      "inputs": [
        {
          "internalType": "address",
          "name": "token",
          "type": "address"
        }
      ],
      "name": "getPriceFeed",
      "outputs": [
        {
          "internalType": "address",
          "name": "",
          "type": "address"
        }
      ],
      "stateMutability": "view",
      "type": "function"
    },
    {
      "inputs": [
        {
          "internalType": "address",
          "name": "user",
          "type": "address"
        }
      ],
      "name": "getRiskTier",
      "outputs": [
        {
          "internalType": "enum LiquidityPool.RiskTier",
          "name": "",
          "type": "uint8"
        }
      ],
      "stateMutability": "view",
      "type": "function"
    },
    {
      "inputs": [
        {
          "internalType": "bytes32",
          "name": "role",
          "type": "bytes32"
        }
      ],
      "name": "getRoleAdmin",
      "outputs": [
        {
          "internalType": "bytes32",
          "name": "",
          "type": "bytes32"
        }
      ],
      "stateMutability": "view",
      "type": "function"
    },
    {
      "inputs": [
        {
          "internalType": "address",
          "name": "token",
          "type": "address"
        }
      ],
      "name": "getTokenValue",
      "outputs": [
        {
          "internalType": "uint256",
          "name": "",
          "type": "uint256"
        }
      ],
      "stateMutability": "view",
      "type": "function"
    },
    {
      "inputs": [
        {
          "internalType": "address",
          "name": "user",
          "type": "address"
        }
      ],
      "name": "getTotalCollateralValue",
      "outputs": [
        {
          "internalType": "uint256",
          "name": "",
          "type": "uint256"
        }
      ],
      "stateMutability": "view",
      "type": "function"
    },
    {
      "inputs": [
        {
          "internalType": "address",
          "name": "user",
          "type": "address"
        }
      ],
      "name": "getZKVerificationStatus",
      "outputs": [
        {
          "internalType": "bool",
          "name": "hasTradFi",
          "type": "bool"
        },
        {
          "internalType": "bool",
          "name": "hasAccount",
          "type": "bool"
        },
        {
          "internalType": "bool",
          "name": "hasNesting",
          "type": "bool"
        },
        {
          "internalType": "uint256",
          "name": "finalScore",
          "type": "uint256"
        },
        {
          "internalType": "bool",
          "name": "isEligible",
          "type": "bool"
        }
      ],
      "stateMutability": "view",
      "type": "function"
    },
    {
      "inputs": [
        {
          "internalType": "bytes32",
          "name": "role",
          "type": "bytes32"
        },
        {
          "internalType": "address",
          "name": "account",
          "type": "address"
        }
      ],
      "name": "grantRole",
      "outputs": [],
      "stateMutability": "nonpayable",
      "type": "function"
    },
    {
      "inputs": [
        {
          "internalType": "bytes32",
          "name": "role",
          "type": "bytes32"
        },
        {
          "internalType": "address",
          "name": "account",
          "type": "address"
        }
      ],
      "name": "hasRole",
      "outputs": [
        {
          "internalType": "bool",
          "name": "",
          "type": "bool"
        }
      ],
      "stateMutability": "view",
      "type": "function"
    },
    {
      "inputs": [
        {
          "internalType": "address",
          "name": "user",
          "type": "address"
        }
      ],
      "name": "hasValidRISC0Score",
      "outputs": [
        {
          "internalType": "bool",
          "name": "hasValidScore",
          "type": "bool"
        },
        {
          "internalType": "uint256",
          "name": "score",
          "type": "uint256"
        },
        {
          "internalType": "uint256",
          "name": "timestamp",
          "type": "uint256"
        }
      ],
      "stateMutability": "view",
      "type": "function"
    },
    {
      "inputs": [
        {
          "internalType": "address",
          "name": "_timelock",
          "type": "address"
        },
        {
          "internalType": "address",
          "name": "_stablecoinManager",
          "type": "address"
        },
        {
          "internalType": "address",
          "name": "_lendingManager",
          "type": "address"
        },
        {
          "internalType": "address",
          "name": "_interestRateModel",
          "type": "address"
        },
        {
          "internalType": "address",
          "name": "_creditSystem",
          "type": "address"
        }
      ],
      "name": "initialize",
      "outputs": [],
      "stateMutability": "nonpayable",
      "type": "function"
    },
    {
      "inputs": [],
      "name": "interestRateModel",
      "outputs": [
        {
          "internalType": "contract InterestRateModel",
          "name": "",
          "type": "address"
        }
      ],
      "stateMutability": "view",
      "type": "function"
    },
    {
      "inputs": [
        {
          "internalType": "address",
          "name": "",
          "type": "address"
        }
      ],
      "name": "isAllowedCollateral",
      "outputs": [
        {
          "internalType": "bool",
          "name": "",
          "type": "bool"
        }
      ],
      "stateMutability": "view",
      "type": "function"
    },
    {
      "inputs": [
        {
          "internalType": "address",
          "name": "",
          "type": "address"
        }
      ],
      "name": "isKnownUser",
      "outputs": [
        {
          "internalType": "bool",
          "name": "",
          "type": "bool"
        }
      ],
      "stateMutability": "view",
      "type": "function"
    },
    {
      "inputs": [
        {
          "internalType": "address",
          "name": "",
          "type": "address"
        }
      ],
      "name": "isLiquidatable",
      "outputs": [
        {
          "internalType": "bool",
          "name": "",
          "type": "bool"
        }
      ],
      "stateMutability": "view",
      "type": "function"
    },
    {
      "inputs": [],
      "name": "isPaused",
      "outputs": [
        {
          "internalType": "bool",
          "name": "",
          "type": "bool"
        }
      ],
      "stateMutability": "view",
      "type": "function"
    },
    {
      "inputs": [],
      "name": "lastUpkeep",
      "outputs": [
        {
          "internalType": "uint256",
          "name": "",
          "type": "uint256"
        }
      ],
      "stateMutability": "view",
      "type": "function"
    },
    {
      "inputs": [],
      "name": "lendingManager",
      "outputs": [
        {
          "internalType": "contract LendingManager",
          "name": "",
          "type": "address"
        }
      ],
      "stateMutability": "view",
      "type": "function"
    },
    {
      "inputs": [
        {
          "internalType": "address",
          "name": "",
          "type": "address"
        }
      ],
      "name": "liquidationStartTime",
      "outputs": [
        {
          "internalType": "uint256",
          "name": "",
          "type": "uint256"
        }
      ],
      "stateMutability": "view",
      "type": "function"
    },
    {
      "inputs": [],
      "name": "liquidator",
      "outputs": [
        {
          "internalType": "address",
          "name": "",
          "type": "address"
        }
      ],
      "stateMutability": "view",
      "type": "function"
    },
    {
      "inputs": [
        {
          "internalType": "address",
          "name": "",
          "type": "address"
        }
      ],
      "name": "loans",
      "outputs": [
        {
          "internalType": "uint256",
          "name": "principal",
          "type": "uint256"
        },
        {
          "internalType": "uint256",
          "name": "outstanding",
          "type": "uint256"
        },
        {
          "internalType": "uint256",
          "name": "interestRate",
          "type": "uint256"
        },
        {
          "internalType": "uint256",
          "name": "nextDueDate",
          "type": "uint256"
        },
        {
          "internalType": "uint256",
          "name": "installmentAmount",
          "type": "uint256"
        },
        {
          "internalType": "uint256",
          "name": "penaltyBps",
          "type": "uint256"
        },
        {
          "internalType": "bool",
          "name": "active",
          "type": "bool"
        }
      ],
      "stateMutability": "view",
      "type": "function"
    },
    {
      "inputs": [],
      "name": "locked",
      "outputs": [
        {
          "internalType": "bool",
          "name": "",
          "type": "bool"
        }
      ],
      "stateMutability": "view",
      "type": "function"
    },
    {
      "inputs": [
        {
          "internalType": "address",
          "name": "",
          "type": "address"
        }
      ],
      "name": "maxPriceAge",
      "outputs": [
        {
          "internalType": "uint256",
          "name": "",
          "type": "uint256"
        }
      ],
      "stateMutability": "view",
      "type": "function"
    },
    {
      "inputs": [],
      "name": "minPartialLiquidationAmount",
      "outputs": [
        {
          "internalType": "uint256",
          "name": "",
          "type": "uint256"
        }
      ],
      "stateMutability": "view",
      "type": "function"
    },
    {
      "inputs": [],
      "name": "paused",
      "outputs": [
        {
          "internalType": "bool",
          "name": "",
          "type": "bool"
        }
      ],
      "stateMutability": "view",
      "type": "function"
    },
    {
      "inputs": [
        {
          "internalType": "bytes",
          "name": "performData",
          "type": "bytes"
        }
      ],
      "name": "performUpkeep",
      "outputs": [],
      "stateMutability": "nonpayable",
      "type": "function"
    },
    {
      "inputs": [
        {
          "internalType": "address",
          "name": "",
          "type": "address"
        }
      ],
      "name": "priceFeed",
      "outputs": [
        {
          "internalType": "address",
          "name": "",
          "type": "address"
        }
      ],
      "stateMutability": "view",
      "type": "function"
    },
    {
      "inputs": [
        {
          "internalType": "address",
          "name": "token",
          "type": "address"
        },
        {
          "internalType": "uint256",
          "name": "amount",
          "type": "uint256"
        }
      ],
      "name": "recoverFromLiquidation",
      "outputs": [],
      "stateMutability": "nonpayable",
      "type": "function"
    },
    {
      "inputs": [
        {
          "internalType": "bytes32",
          "name": "role",
          "type": "bytes32"
        },
        {
          "internalType": "address",
          "name": "account",
          "type": "address"
        }
      ],
      "name": "renounceRole",
      "outputs": [],
      "stateMutability": "nonpayable",
      "type": "function"
    },
    {
      "inputs": [],
      "name": "repay",
      "outputs": [],
      "stateMutability": "payable",
      "type": "function"
    },
    {
      "inputs": [],
      "name": "repayInstallment",
      "outputs": [],
      "stateMutability": "payable",
      "type": "function"
    },
    {
      "inputs": [],
      "name": "reserveAddress",
      "outputs": [
        {
          "internalType": "address",
          "name": "",
          "type": "address"
        }
      ],
      "stateMutability": "view",
      "type": "function"
    },
    {
      "inputs": [
        {
          "internalType": "bytes32",
          "name": "role",
          "type": "bytes32"
        },
        {
          "internalType": "address",
          "name": "account",
          "type": "address"
        }
      ],
      "name": "revokeRole",
      "outputs": [],
      "stateMutability": "nonpayable",
      "type": "function"
    },
    {
      "inputs": [
        {
          "internalType": "address",
          "name": "newAdmin",
          "type": "address"
        }
      ],
      "name": "setAdmin",
      "outputs": [],
      "stateMutability": "nonpayable",
      "type": "function"
    },
    {
      "inputs": [
        {
          "internalType": "address",
          "name": "token",
          "type": "address"
        },
        {
          "internalType": "bool",
          "name": "allowed",
          "type": "bool"
        }
      ],
      "name": "setAllowedCollateral",
      "outputs": [],
      "stateMutability": "nonpayable",
      "type": "function"
    },
    {
      "inputs": [
        {
          "internalType": "address",
          "name": "user",
          "type": "address"
        },
        {
          "internalType": "uint256",
          "name": "score",
          "type": "uint256"
        }
      ],
      "name": "setCreditScore",
      "outputs": [],
      "stateMutability": "nonpayable",
      "type": "function"
    },
    {
      "inputs": [
        {
          "internalType": "address",
          "name": "_creditScoreContract",
          "type": "address"
        }
      ],
      "name": "setCreditScoreContract",
      "outputs": [],
      "stateMutability": "nonpayable",
      "type": "function"
    },
    {
      "inputs": [
        {
          "internalType": "address",
          "name": "_creditSystem",
          "type": "address"
        }
      ],
      "name": "setCreditSystem",
      "outputs": [],
      "stateMutability": "nonpayable",
      "type": "function"
    },
    {
      "inputs": [
        {
          "internalType": "address",
          "name": "_lendingManager",
          "type": "address"
        }
      ],
      "name": "setLendingManager",
      "outputs": [],
      "stateMutability": "nonpayable",
      "type": "function"
    },
    {
      "inputs": [
        {
          "internalType": "address",
          "name": "_liquidator",
          "type": "address"
        }
      ],
      "name": "setLiquidator",
      "outputs": [],
      "stateMutability": "nonpayable",
      "type": "function"
    },
    {
      "inputs": [
        {
          "internalType": "address",
          "name": "token",
          "type": "address"
        },
        {
          "internalType": "uint256",
          "name": "age",
          "type": "uint256"
        }
      ],
      "name": "setMaxPriceAge",
      "outputs": [],
      "stateMutability": "nonpayable",
      "type": "function"
    },
    {
      "inputs": [
        {
          "internalType": "uint256",
          "name": "amount",
          "type": "uint256"
        }
      ],
      "name": "setMinPartialLiquidationAmount",
      "outputs": [],
      "stateMutability": "nonpayable",
      "type": "function"
    },
    {
      "inputs": [
        {
          "internalType": "address",
          "name": "token",
          "type": "address"
        },
        {
          "internalType": "address",
          "name": "feed",
          "type": "address"
        }
      ],
      "name": "setPriceFeed",
      "outputs": [],
      "stateMutability": "nonpayable",
      "type": "function"
    },
    {
      "inputs": [
        {
          "internalType": "address",
          "name": "_reserve",
          "type": "address"
        }
      ],
      "name": "setReserveAddress",
      "outputs": [],
      "stateMutability": "nonpayable",
      "type": "function"
    },
    {
      "inputs": [
        {
          "internalType": "uint256",
          "name": "tier",
          "type": "uint256"
        },
        {
          "internalType": "uint256",
          "name": "originationFee",
          "type": "uint256"
        },
        {
          "internalType": "uint256",
          "name": "lateFeeAPR",
          "type": "uint256"
        }
      ],
      "name": "setTierFee",
      "outputs": [],
      "stateMutability": "nonpayable",
      "type": "function"
    },
    {
      "inputs": [
        {
          "internalType": "address",
          "name": "_votingToken",
          "type": "address"
        }
      ],
      "name": "setVotingToken",
      "outputs": [],
      "stateMutability": "nonpayable",
      "type": "function"
    },
    {
      "inputs": [
        {
          "internalType": "bool",
          "name": "required",
          "type": "bool"
        }
      ],
      "name": "setZKProofRequirement",
      "outputs": [],
      "stateMutability": "nonpayable",
      "type": "function"
    },
    {
      "inputs": [],
      "name": "stablecoinManager",
      "outputs": [
        {
          "internalType": "contract StablecoinManager",
          "name": "",
          "type": "address"
        }
      ],
      "stateMutability": "view",
      "type": "function"
    },
    {
      "inputs": [
        {
          "internalType": "address",
          "name": "user",
          "type": "address"
        }
      ],
      "name": "startLiquidation",
      "outputs": [],
      "stateMutability": "nonpayable",
      "type": "function"
    },
    {
      "inputs": [
        {
          "internalType": "bytes4",
          "name": "interfaceId",
          "type": "bytes4"
        }
      ],
      "name": "supportsInterface",
      "outputs": [
        {
          "internalType": "bool",
          "name": "",
          "type": "bool"
        }
      ],
      "stateMutability": "view",
      "type": "function"
    },
    {
      "inputs": [
        {
          "internalType": "uint256",
          "name": "",
          "type": "uint256"
        }
      ],
      "name": "tierFees",
      "outputs": [
        {
          "internalType": "uint256",
          "name": "originationFee",
          "type": "uint256"
        },
        {
          "internalType": "uint256",
          "name": "lateFeeAPR",
          "type": "uint256"
        }
      ],
      "stateMutability": "view",
      "type": "function"
    },
    {
      "inputs": [],
      "name": "timelock",
      "outputs": [
        {
          "internalType": "address",
          "name": "",
          "type": "address"
        }
      ],
      "stateMutability": "view",
      "type": "function"
    },
    {
      "inputs": [],
      "name": "togglePause",
      "outputs": [],
      "stateMutability": "nonpayable",
      "type": "function"
    },
    {
      "inputs": [
        {
          "internalType": "bool",
          "name": "_useRISC0",
          "type": "bool"
        }
      ],
      "name": "toggleRISC0CreditScores",
      "outputs": [],
      "stateMutability": "nonpayable",
      "type": "function"
    },
    {
      "inputs": [],
      "name": "totalBorrowedAllTime",
      "outputs": [
        {
          "internalType": "uint256",
          "name": "",
          "type": "uint256"
        }
      ],
      "stateMutability": "view",
      "type": "function"
    },
    {
      "inputs": [],
      "name": "totalFunds",
      "outputs": [
        {
          "internalType": "uint256",
          "name": "",
          "type": "uint256"
        }
      ],
      "stateMutability": "view",
      "type": "function"
    },
    {
      "inputs": [],
      "name": "totalRepaidAllTime",
      "outputs": [
        {
          "internalType": "uint256",
          "name": "",
          "type": "uint256"
        }
      ],
      "stateMutability": "view",
      "type": "function"
    },
    {
      "inputs": [
        {
          "internalType": "uint256",
          "name": "tierIndex",
          "type": "uint256"
        },
        {
          "internalType": "uint256",
          "name": "minScore",
          "type": "uint256"
        },
        {
          "internalType": "uint256",
          "name": "maxScore",
          "type": "uint256"
        },
        {
          "internalType": "uint256",
          "name": "collateralRatio",
          "type": "uint256"
        },
        {
          "internalType": "int256",
          "name": "interestRateModifier",
          "type": "int256"
        },
        {
          "internalType": "uint256",
          "name": "maxLoanAmount",
          "type": "uint256"
        }
      ],
      "name": "updateBorrowTier",
      "outputs": [],
      "stateMutability": "nonpayable",
      "type": "function"
    },
    {
      "inputs": [
        {
          "internalType": "address",
          "name": "user",
          "type": "address"
        },
        {
          "internalType": "uint256",
          "name": "score",
          "type": "uint256"
        }
      ],
      "name": "updateCreditScoreFromZK",
      "outputs": [],
      "stateMutability": "nonpayable",
      "type": "function"
    },
    {
      "inputs": [],
      "name": "useRISC0CreditScores",
      "outputs": [
        {
          "internalType": "bool",
          "name": "",
          "type": "bool"
        }
      ],
      "stateMutability": "view",
      "type": "function"
    },
    {
      "inputs": [
        {
          "internalType": "address",
          "name": "",
          "type": "address"
        }
      ],
      "name": "userDebt",
      "outputs": [
        {
          "internalType": "uint256",
          "name": "",
          "type": "uint256"
        }
      ],
      "stateMutability": "view",
      "type": "function"
    },
    {
      "inputs": [
        {
          "internalType": "uint256",
          "name": "",
          "type": "uint256"
        }
      ],
      "name": "users",
      "outputs": [
        {
          "internalType": "address",
          "name": "",
          "type": "address"
        }
      ],
      "stateMutability": "view",
      "type": "function"
    },
    {
      "inputs": [],
      "name": "votingToken",
      "outputs": [
        {
          "internalType": "contract VotingToken",
          "name": "",
          "type": "address"
        }
      ],
      "stateMutability": "view",
      "type": "function"
    },
    {
      "inputs": [
        {
          "internalType": "address",
          "name": "token",
          "type": "address"
        },
        {
          "internalType": "uint256",
          "name": "amount",
          "type": "uint256"
        }
      ],
      "name": "withdrawCollateral",
      "outputs": [],
      "stateMutability": "nonpayable",
      "type": "function"
    },
    {
      "inputs": [
        {
          "internalType": "uint256",
          "name": "amount",
          "type": "uint256"
        }
      ],
      "name": "withdrawForLendingManager",
      "outputs": [],
      "stateMutability": "nonpayable",
      "type": "function"
    },
    {
      "inputs": [
        {
          "internalType": "address",
          "name": "token",
          "type": "address"
        },
        {
          "internalType": "uint256",
          "name": "amount",
          "type": "uint256"
        }
      ],
      "name": "withdrawPartialCollateral",
      "outputs": [],
      "stateMutability": "nonpayable",
      "type": "function"
    },
    {
      "inputs": [],
      "name": "zkProofRequired",
      "outputs": [
        {
          "internalType": "bool",
          "name": "",
          "type": "bool"
        }
      ],
      "stateMutability": "view",
      "type": "function"
    },
    {
      "stateMutability": "payable",
      "type": "receive"
    }
  ],
  "bytecode": "0x6080806040523461001757615e8290816200001c8239f35b5f80fdfe6080604081815260048036101561002f575b505050361561001e575f80fd5b61002a3460a254614841565b60a255005b5f925f3560e01c90816301c76f81146145355750806301ffc9a7146144e257806303a42b6f146144ba578063042e02cf1461447e578063080d9c2b1461433f5780630b044c79146143235780630ef7fb67146143085780630f61b8101461429057806312065fe0146142765780631459457a14613f5c57806314673d3114613ea95780631bfe426114613e6f5780631fd48b9a14613e3657806320dfcae114613b8857806323fe5a3314613b70578063248a9ca314613b455780632a7beafe14613b165780632f2ff15d14613a7457806330332f9f146139fb57806333481fc914613911578063350c35e914613682578063357619a91461364857806335f679811461361c57806336568abe1461358a578063365b98b21461356157806338053ef31461352a5780633d7c5d3e1461350c578063402d8883146132df5780634046ebae146132b2578063418eea3114613277578063450a375a146132515780634585e33b14613099578063488683cd1461305e5780634c8f35ab14611b105780634c95da66146130135780635141df4114612fd957806352226ef014612f8e57806355f4d9e214612e2c57806359705bb314612e0e5780635b66e7fc14612df15780635b6cca8014612da05780635c44f10d14612d845780635c975abb14611c135780636579b73e14612d4c57806368272ecc14612cd357806369ff0a0d14612cac5780636c648fc414612c865780636e04ff0d14612aac5780636e9960c314611019578063704b6c0214612a1b57806370ed11bc146129bd57806372ed9f7b1461283a5780637346f486146127fc57806373b4086b1461278157806376e112861461270057806378974cbb1461266c5780637a8ce68b14612631578063802937ac1461261257806383475f0c146125d757806386d785e61461258a5780638e6b53bc1461255857806391d14854146125155780639490a51e146124d7578063962a0da51461249c578063968ed6001461247d57806397ed81cf146123685780639ac77e1b146122f25780639b8621d5146122d65780639e3b77af146122ad578063a217fddf14612292578063a36e4ad614612001578063a5d5db0c14611d97578063a6f48e5d14611d4b578063a75b24c714611c8c578063a89ef5ca14611c63578063b034012314611c3a578063b187bd2614611c13578063b3075fb714611be2578063b3a5a0a214611ba2578063b69e5c7714611b6a578063b8cdf56114611b4b578063bc3d5a3e14611b2c578063c129d50414611b10578063c1a287e214611af2578063c23c69d514611aba578063c39537e114611a7f578063c4ae3168146119fc578063c5ebeaec1461125f578063c869d0ed146111bd578063c941f32114611194578063cf1762251461116b578063cf30901214611147578063d1f151c11461107a578063d29255f914611042578063d33219b414611019578063d3dd2bdf14610ff8578063d547741f14610fba578063ddac7f1b14610f31578063e19fb8f514610e20578063e1c5010014610d15578063e1f7c2c914610c7e578063e2842d7914610bed578063e2d7462814610b95578063e6ae357614610b5a578063e7602b9d14610b0d578063e84bae4514610adc578063e884cf2314610ab5578063e8a7da8e14610878578063e9ffb2911461083d578063eb8d655114610802578063ebdcc164146107d3578063f1c5d6c2146107a6578063f3fdb15a1461077d578063f79ed94b14610754578063f7e590ee1461071c578063feb50e521461063d5763ffd4aedb036100115734610639576080366003190112610639576105e59161055b614595565b6105636145ab565b9261056c6145c1565b90606435918760018060a01b03809561058a8260a5541633146150b9565b169283825260209788966097885288842091165f528652865f206105af8682546148a3565b9055865163a9059cbb60e01b81526001600160a01b03909316908301908152602081019490945290968793849291839160400190565b03925af190811561063057506105f9578280f35b81813d8311610629575b61060d8183614813565b810103126106255761061e90614834565b505f808280f35b5080fd5b503d610603565b513d85823e3d90fd5b8280fd5b50903461063957806003193601126106395781356024356001600160a01b03818116918290036107185760a854163303610709578147106106ee578480809381935af13d156106e9573d610690816152c6565b9061069d84519283614813565b81528460203d92013e5b156106b0578280f35b906020606492519162461bcd60e51b83528201526013602482015272115512081d1c985b9cd9995c8819985a5b1959606a1b6044820152fd5b6106a7565b825162461bcd60e51b815280610705818701614c43565b0390fd5b505051630925c89960e31b8152fd5b8580fd5b5050346106255760203660031901126106255760209181906001600160a01b03610744614595565b1681526099845220549051908152f35b50503461062557816003193601126106255760b15490516001600160a01b039091168152602090f35b50503461062557816003193601126106255760a65490516001600160a01b039091168152602090f35b505034610625576020366003190112610625576020906107cc6107c7614595565b615588565b9051908152f35b505034610625576020366003190112610625576020906107f96107f4614595565b615adc565b15159051908152f35b505034610625578160031936011261062557602090517f742d8195bebb59905cedb6c02453745e9ef7090c163e7dea727ab0849b3dfc008152f35b505034610625578160031936011261062557602090517fa22cb6bd33c714cffaf72f196d1ebf87829cac5214f3ad84491fa8669ede7a6a8152f35b509134610ab2576020366003190112610ab257610893614595565b6001600160a01b038116825260b360205282822083516108b2816147ca565b60a08254958683526001840154956020840191878352600286015490818187015260038701549260608701978489528c8101549560c060ff600660808c01948a86528c60058201549c8d9101520154169901981515988981528642105f14610aab576201518061092242896148a3565b049a5b849c81519062093a8091828101809111610a9457421180610a8a575b6109df575b505050511515806109d5575b156109c85751815161096391614841565b5f198101929083116109b55750516101409c5061097f916148b0565b985b81519a8b5260208b01528901526060880152608087015260a086015260c085015260e0840152610100830152610120820152f35b634e487b7160e01b815260118e52602490fd5b50506101409b5098610981565b5080511515610952565b6109e890614dfe565b6005811015610a7457865260b2602052600187872001549151908101809111610a5f57610a196201518091426148a3565b049081151580610a56575b610a2f575b80610946565b612710929d5061016d91610a47610a4c9286516148ce565b6148ce565b04049a5f80610a29565b50801515610a24565b508f856011602492634e487b7160e01b835252fd5b50508f856021602492634e487b7160e01b835252fd5b5083511515610941565b5050508f856011602492634e487b7160e01b835252fd5b839a610925565b80fd5b50503461062557816003193601126106255760209060ff60a95460a01c1690519015158152f35b50346106395760203660031901126106395735916005831015610ab25750610b05602092614770565b549051908152f35b505034610625578060031936011261062557602091610b2a614595565b82610b336145ab565b6001600160a01b03928316845260978652922091165f908152908352819020549051908152f35b505034610625578160031936011261062557602090517fb438992c2c4c65322b65fd8e2dacea9efd63443e69e5ed52f4a77ed6c78f7c2a8152f35b503461063957602036600319011261063957610baf614595565b60a8546001600160a01b03939192919084163303610be0575050166001600160601b0360a01b60a754161760a75580f35b51630925c89960e31b8152fd5b828434610ab25780600319360112610ab257815191829160a05480855260208095019460a083527f78fdc8d422c49ced035a9edf18d00d3c6a8d81df210f3e5e448e045e77b41e8892905b828210610c5e57610c5a8686610c50828b0383614813565b519182918261472c565b0390f35b83546001600160a01b031687529586019560019384019390910190610c38565b50903461063957602036600319011261063957610c99614595565b60a85490926001600160a01b0392909183163303610be05750508060aa54921691826001600160601b0360a01b82161760aa5582610cfa575b167f7fc5e57c5215ef3b834df4680694bbed4808bf88ddc971b470cb8ef9365e63868380a380f35b6001600160a81b031981168317600160a01b1760aa55610cd2565b50903461063957602080600319360112610e1c57610d31614595565b610d3a816151e8565b50610de4576001600160a01b0316808552609c82528285205490939060ff16610da35750828452609c8152818420805460ff19166001179055609d905282204290557f7f62ed89ea2c6fb057e4ea77729c1d3f18056339791fce29ac89760197b45b298280a280f35b915162461bcd60e51b815291820152601b60248201527f4c69717569646174696f6e20616c7265616479207374617274656400000000006044820152606490fd5b50905162461bcd60e51b8152918201526013602482015272506f736974696f6e206973206865616c74687960681b6044820152606490fd5b8380fd5b50903461063957602036600319011261063957813560a35492610e4660ff851615614d6c565b60ff1993841660011760a35560a5546001600160a01b03163303610ee357478211610ea057508380808093818115610e97575b3390f115610e8c575060a3541660a35580f35b51913d9150823e3d90fd5b506108fc610e79565b606490602084519162461bcd60e51b8352820152601d60248201527f496e73756666696369656e7420636f6e74726163742062616c616e63650000006044820152fd5b608490602084519162461bcd60e51b8352820152602260248201527f4f6e6c79206c656e64696e67206d616e616765722063616e2063616c6c207468604482015261697360f01b6064820152fd5b509034610639578060031936011261063957610f4b614595565b60a854602435936001600160a01b03929183163303610fac57620151808511610f7d575016835260af60205282205580f35b606490602085519162461bcd60e51b83528201526009602482015268546f6f206c6172676560b81b6044820152fd5b8351630925c89960e31b8152fd5b509034610639578060031936011261063957610ff59135610ff06001610fde6145ab565b938387526065602052862001546157f6565b615a69565b80f35b505034610625576020366003190112610625576020906107cc6107f4614595565b50503461062557816003193601126106255760a85490516001600160a01b039091168152602090f35b5050346106255760203660031901126106255760209181906001600160a01b0361106a614595565b168152609b845220549051908152f35b509190346106255760603660031901126106255760a8548335919060243590604435906001600160a01b03163303611137576110b960ab548510614b95565b82518381018181106001600160401b03821117611124577f7543d68ffbde1802767cee31f14403e1b914f7249f14f2724e7398aa10de092395969750845282815260016020820183815287895260b2602052858920925183555191015582519182526020820152a280f35b604188634e487b7160e01b5f525260245ffd5b8251630925c89960e31b81528690fd5b50503461062557816003193601126106255760209060ff60a3541690519015158152f35b505034610625578160031936011261062557610c5a906111896154c5565b90519182918261472c565b50503461062557816003193601126106255760a45490516001600160a01b039091168152602090f35b5034610639576020366003190112610639576111d7614595565b60a8546001600160a01b0391908216330361124f571691821561120c5750506001600160601b0360a01b60a554161760a55580f35b906020606492519162461bcd60e51b8352820152601f60248201527f496e76616c6964206c656e64696e67206d616e616765722061646472657373006044820152fd5b8351630925c89960e31b81528390fd5b5090602080600319360112610e1c5782359160a3549361128560ff8660081c1615614862565b61129260ff861615614d6c565b60ff1994851660011760a355338652609a8352818620546119bb576112b633615adc565b825163a6f48e5d60e01b81523381840152602492919088818581305afa80156119b15789918a916118fa575b507f0dda2aa47a3db5dda18a4f06501647c631e2c43e7e7876dbeaf21023b8266fb5919261131a8751926060845260608401906146ce565b9388830152868201528033930390a261133233614dfe565b600581101591826118e8578082146118af5760a25460011c87116118545761135933614cfd565b91505087116118045761136b33614cfd565b505061137633614fee565b906064820291808304606414901517156117f25761139490896148ce565b116117a25760b1546001600160a01b03908116938a85611782575b8b6113ba828c6148a3565b96821580156116f5575b505050508760a254926113dc60ad5460ae54906148a3565b938d94816116b1575b505060a654169287895180958193634fd41dad60e11b8352888301525afa9182156116a7578b92611674575b50611662576003611421846146f3565b500154818b82121561162c5750611437906150a9565b906127109182039082821161161a5790611450916148ce565b04935b600c88106115c95762278d004201908142116115b85750899361151585946114fe8960068c898f99819a829a8f87519761148c896147ca565b83895286890190848252808a0192835260608a01938452600c60808b019504855260a08a01966101f4885260b360c08c019960018b52338352522098518955516001890155516002880155516003870155519085015551600584015551151591019060ff801983541691151516179055565b609a8a528a89852055609b8a524289852055614770565b6115208a8254614841565b905561152e8960ad54614841565b60ad558181156115af575b3390f1156115a557907fac59582e5396aca512fa873a2047e7f4c80f8f55d4a06cb34a78a0187f62719f9291815190858252838201527f5660f932172e1664b98577a703dd9484d374b28e3bf8c87b345bee97af612412823392a2519283523392a260a3541660a35580f35b81513d87823e3d90fd5b506108fc611539565b634e487b7160e01b8b52601183528afd5b855162461bcd60e51b81529182018790526026908201527f4c6f616e20616d6f756e7420746f6f20736d616c6c20666f7220616d6f7274696044820152653d30ba34b7b760d11b6064820152608490fd5b634e487b7160e01b8c5260118452868cfd5b95918b821361163d575b5050611453565b909195506127109182019081831161161a5790611659916148ce565b04935f80611636565b634e487b7160e01b8a5260218252848afd5b9091508781813d83116116a0575b61168c8183614813565b8101031261169c5751905f611411565b5f80fd5b503d611682565b87513d8d823e3d90fd5b9194509150670de0b6b3a7640000908181029181830414901517156116e35789916116db916148b0565b925f806113e5565b634e487b7160e01b8d5260118552878dfd5b8284819382938390611779575bf1156116a75781611767578751908152606089820152600b60608201526a37b934b3b4b730ba34b7b760a91b608082015284888201527f66aecc579aa1ef463c0ed1547c2cb6163370e6311a60cba815252acbb398f21360a03392a25f8b81806113c4565b634e487b7160e01b8c5260218452868cfd5b506108fc611702565b50505f838b5260b2885261271061179c888d20548b6148ce565b046113af565b845162461bcd60e51b81529081018690526025818501527f496e73756666696369656e7420636f6c6c61746572616c20666f722074686973604482015264103637b0b760d91b6064820152608490fd5b634e487b7160e01b8b5260118352858bfd5b845162461bcd60e51b81529081018690526025818501527f426f72726f7720616d6f756e74206578636565647320796f75722074696572206044820152641b1a5b5a5d60da1b6064820152608490fd5b845162461bcd60e51b81529081018690526030818501527f426f72726f7720616d6f756e74206578636565647320617661696c61626c652060448201526f6c656e64696e6720636170616369747960801b6064820152608490fd5b845162461bcd60e51b8152908101869052601481850152734372656469742073636f726520746f6f206c6f7760601b6044820152606490fd5b634e487b7160e01b8952602190528288fd5b9150503d808a833e61190c8183614813565b8101916060828403126119ad578151878301516001600160401b0381116119a957830184601f820112156119a9578051611945816152c6565b956119528a519788614813565b8187528a82840101116119a5577f0dda2aa47a3db5dda18a4f06501647c631e2c43e7e7876dbeaf21023b8266fb5946119958a9261199b948d808b0191016146ad565b01614834565b50929092916112e2565b8c80fd5b8b80fd5b8980fd5b85513d8b823e3d90fd5b82606492519162461bcd60e51b8352820152601e60248201527f526570617920796f7572206578697374696e67206465627420666972737400006044820152fd5b503461063957826003193601126106395760a8546001600160a01b03163303611a71575060207f228f455d7bc3d0b24a3a08d7847f391c3e78fc8aeb83acf226b7a96ee162b8ac9160ff60a35461ff00828260081c161560081b169061ff00191617918260a355519160081c1615158152a180f35b9051630925c89960e31b8152fd5b505034610625578160031936011261062557602090517facd38b7c4e04b2b78fc2ca994eae1a3eb206005ffa4c11fcf4a9d81c94684b2d8152f35b5050346106255760203660031901126106255760209181906001600160a01b03611ae2614595565b168152609d845220549051908152f35b505034610625578160031936011261062557602090516203f4808152f35b5050346106255781600319360112610625576020905160828152f35b50503461062557816003193601126106255760209060ae549051908152f35b50503461062557816003193601126106255760209060ad549051908152f35b5050346106255760203660031901126106255760209181906001600160a01b03611b92614595565b168152609a845220549051908152f35b5034610639576020366003190112610639573591609f54831015610ab25750611bcc60209261462f565b905491519160018060a01b039160031b1c168152f35b50346106395760203660031901126106395791819235815260b2602052206001815491015482519182526020820152f35b50503461062557816003193601126106255760209060ff60a35460081c1690519015158152f35b50503461062557816003193601126106255760a75490516001600160a01b039091168152602090f35b50503461062557816003193601126106255760a95490516001600160a01b039091168152602090f35b5034610639578160031936011261063957611ca5614595565b60a954602435926001600160a01b03929183163303611d085750916020917f4afae6838a181695abc7978598380d73bc2144eb38580c130f86e4b1e6531e1593611cf26064841115615258565b169384865260998352818187205551908152a280f35b606490602086519162461bcd60e51b8352820152601d60248201527f4f6e6c79206372656469742073797374656d2063616e207570646174650000006044820152fd5b828434610ab2576020366003190112610ab25750611d6f611d6a614595565b6152e1565b9092611d8c815194859485526060602086015260608501906146ce565b911515908301520390f35b509034610639578060031936011261063957611db1614595565b6024359160018060a01b03809216938486526020926098845260ff838820541615611fc9578415611f9157338752609c845260ff8388205416611f595790849133885260a18552838820805460ff811615611ef4575b505083516323b872dd60e01b815233928101928352306020840152604083019390935250909291908290849081906060015b038189895af18015611eea57611e96575b7ff1c0dd7e9b98bbff859029005ef89b127af049cd18df1a8d79f0b7e019911e56925084865260978252808620335f528252805f20611e8a858254614841565b9055519283523392a380f35b8183813d8311611ee3575b611eab8183614813565b8101031261071857611edd7ff1c0dd7e9b98bbff859029005ef89b127af049cd18df1a8d79f0b7e019911e5693614834565b50611e4a565b503d611ea1565b81513d88823e3d90fd5b60ff1916600117905560a05491925090600160401b811015611f4657849392611e399592611f298360018a950160a0556145e6565b819291549060031b9133831b921b19161790559194819394611e07565b604183634e487b7160e01b5f525260245ffd5b508161070592515f80516020615e2d833981519152339180611f7a81614c72565b0390a25162461bcd60e51b81529182918201614c72565b508161070592515f80516020615e2d833981519152339180611fb281615299565b0390a25162461bcd60e51b81529182918201615299565b508161070592515f80516020615e2d833981519152339180611fea81614c17565b0390a25162461bcd60e51b81529182918201614c17565b503461063957816003193601126106395761201a614595565b6024359060a3549361203260ff8660081c1615614862565b61203f60ff861615614d6c565b60ff1994851660011760a355821561227c5760018060a01b0382169384875260209260978452828820335f52845284835f20541061223a57338852609a8452828820548592918161215e575b5050928092916120dd94878a5260978352838a20335f528352835f206120b28382546148a3565b9055835163a9059cbb60e01b8152339181019182526020820192909252909485918291604090910190565b03818a895af180156121545761210f575b5f80516020615e0d8339815191529250519283523392a360a3541660a35580f35b8183813d831161214d575b6121248183614813565b81010312612149576121435f80516020615e0d83398151915293614834565b506120ee565b8680fd5b503d61211a565b81513d89823e3d90fd5b6121c59192935061219d670de0b6b3a764000091898c5260978852868c20335f5288526121976121918a895f20546148a3565b91615588565b906148ce565b04916121a833614dfe565b60646121bf6121b633614cfd565b505033946148ce565b04615c3d565b116121d35783905f8061208b565b82608492519162461bcd60e51b8352820152603b60248201527f5769746864726177616c20776f756c642076696f6c61746520746965722d626160448201527f73656420636f6c6c61746572616c20726571756972656d656e747300000000006064820152fd5b5082606492519162461bcd60e51b8352820152601760248201527f496e73756666696369656e7420636f6c6c61746572616c0000000000000000006044820152fd5b5162461bcd60e51b815280610705818601615299565b50503461062557816003193601126106255751908152602090f35b50503461062557816003193601126106255760a55490516001600160a01b039091168152602090f35b5050346106255781600319360112610625576020905160058152f35b5090346106395760203660031901126106395761230d614595565b60a85490926001600160a01b0392909183163303610be05750508060a954921691826001600160601b0360a01b82161760a955167f3637d79e8b0bd63fa3bcc41c2ab614b349b83626b91f73211bc80c6ec5ec4e958380a380f35b509034610639578060031936011261063957612382614595565b60a85460243592916001600160a01b03918216330361246d571692831561242b573084146123f15750816020916123dd60647f4afae6838a181695abc7978598380d73bc2144eb38580c130f86e4b1e6531e15951115615258565b84865260998352818187205551908152a280f35b6020606492519162461bcd60e51b8352820152601560248201527424b73b30b634b21030b2323932b9b99d1039b2b63360591b6044820152fd5b6020606492519162461bcd60e51b8352820152601d60248201527f496e76616c696420616464726573733a207a65726f20616464726573730000006044820152fd5b8251630925c89960e31b81528590fd5b50503461062557816003193601126106255760209060a2549051908152f35b505034610625578160031936011261062557602090517f96737339a958f216173e690d06f324072e6dc3146e04c060bd723906d6b190768152f35b5050346106255760203660031901126106255760209160ff9082906001600160a01b03612502614595565b16815260a1855220541690519015158152f35b5034610639578160031936011261063957816020936125326145ab565b9235815260658552209060018060a01b03165f52825260ff815f20541690519015158152f35b828434610ab2576020366003190112610ab2575061257c612577614595565b6151e8565b825191151582526020820152f35b5050346106255760203660031901126106255760a0906125b06125ab614595565b61513f565b93949190928251951515865215156020860152151590840152606083015215156080820152f35b505034610625578160031936011261062557602090517fce802e42c93d0fbd61dfc706a0e806b78ac046397e07510da2f223464e4788e08152f35b50503461062557816003193601126106255760209060b0549051908152f35b505034610625578160031936011261062557602090517f0e0e24c52bc4f24612e3f568966757426acd82325205933a9270e1ce7c4d93c28152f35b5050346106255780600319360112610625576126fa906126e56126e0612690614595565b856024359460018060a01b036126ab8160a5541633146150b9565b83168252609a6020528181812055609b6020528181812055609c60205280822060ff198154169055609d602052812055614dfe565b614770565b6126f08282546148a3565b905560ae54614841565b60ae5580f35b5034610639578160031936011261063957612719614595565b916127226145ab565b60a85490936001600160a01b039390918416330361277357508216808552609860205261275460ff8387205416614fa2565b8452609e602052832091166001600160601b0360a01b82541617905580f35b8251630925c89960e31b8152fd5b50346106395760203660031901126106395760e09282906001600160a01b036127a8614595565b16815260b36020522080549260018201549260028301546003840154918401549260ff600660058701549601541695815197885260208801528601526060850152608084015260a0830152151560c0820152f35b5050346106255760203660031901126106255760209160ff9082906001600160a01b03612827614595565b1681526098855220541690519015158152f35b5090346106395760209283600319360112610ab257612857614595565b9260a25461286a60ad5460ae54906148a3565b81156129b457670de0b6b3a7640000908181029181830414901517156129a15790612894916148b0565b935b60a6548451634fd41dad60e11b8152838101969096528690869060249082906001600160a01b03165afa948515612997578395612966575b506128d890614cfd565b5085915083811215612929576128f29192939495506150a9565b92612710938403928484116129165750509061290d916148ce565b04905b51908152f35b634e487b7160e01b825260119052602490fd5b9280841361293b575b50505050612910565b909192939450612710938401928385116129165750509061295b916148ce565b04905f808080612932565b9094508581813d8311612990575b61297e8183614813565b8101031261169c5751936128d86128ce565b503d612974565b84513d85823e3d90fd5b634e487b7160e01b845260118352602484fd5b50508193612896565b5090346106395760203660031901126106395781359260ab54841015610ab257506129e960a0936146f3565b508054926001820154926002830154916003840154930154938151958652602086015284015260608301526080820152f35b503461063957602036600319011261063957612a35614595565b60a85491906001600160a01b03908184163303612a9c5716928315612a675750506001600160a01b0319161760a85580f35b906020606492519162461bcd60e51b8352820152600f60248201526e496e76616c6964206164647265737360881b6044820152fd5b8451630925c89960e31b81528390fd5b5091903461062557612abd36614664565b505060609160b454603c8101809111612c7357612adb904211614da8565b8151809160a05480835283602080940160a084527f78fdc8d422c49ced035a9edf18d00d3c6a8d81df210f3e5e448e045e77b41e8892845b86828210612c5457505050612b2a92500384614813565b612b348351615077565b938193825b8151811015612bbf576001600160a01b03612b5482846148e1565b5116808552609c865260ff8486205416612b72575b50600101612b39565b609d8652838520546203f4808101809111612bac574210612b695786612ba591612b9f600194998b6148e1565b526148f5565b9590612b69565b634e487b7160e01b865260118b52602486fd5b5084905085878215612c485750612bd582615077565b935b828110612c2057505050610c5a90612bfb612c09600194835192839188830161472c565b03601f198101835282614813565b905b808051958695151586528501528301906146ce565b6001906001600160a01b03612c3582856148e1565b5116612c4182886148e1565b5201612bd7565b915050610c5a91612c0b565b85546001600160a01b0316845260019586019589955093019201612b13565b634e487b7160e01b825260118552602482fd5b505034610625576020366003190112610625576020906107cc612ca7614595565b614fee565b50503461062557816003193601126106255760209060ff60aa5460a01c1690519015158152f35b503461063957602036600319011261063957612ced6145d7565b60a8549091906001600160a01b0316330361277357507f895b395338611f71448ee682a563b0c13233e238236eb6700d45720ec4bf44459160209115159060a95460ff60a01b8360a01b169060ff60a01b19161760a95551908152a180f35b5050346106255760203660031901126106255760209181906001600160a01b03612d74614595565b16815260af845220549051908152f35b50503461062557816003193601126106255760209051603c8152f35b505034610625576020366003190112610625576020916001600160a01b0390829082612dca614595565b1680825260988652612de160ff8484205416614fa2565b8152609e85522054169051908152f35b505034610625578160031936011261062557602090516103848152f35b505034610625578160031936011261062557602090516276a7008152f35b509034610639578060031936011261063957612e46614595565b90602435918215159283810361169c5760a8546001600160a01b03929083163303612f7e578216948587526098602052612e8e828589209060ff801983541691151516179055565b609f549187805b848110612f54575b5081612f4b575b50612eda575b5050507f15f5cc64ca777db85f6c05fdba671568758b38329616d4d4b43bb8b092fe9a8d9160209151908152a280f35b600160401b821015612f385750917f15f5cc64ca777db85f6c05fdba671568758b38329616d4d4b43bb8b092fe9a8d9391612f1d84600160209601609f5561462f565b819291549060031b9188831b921b1916179055918193612eaa565b604190634e487b7160e01b5f525260245ffd5b9050155f612ea4565b8886612f5f8361462f565b90549060031b1c1614612f7457600101612e95565b505060015f612e9d565b8351630925c89960e31b81528690fd5b505034610625578060031936011261062557602091612fab614595565b906001600160a01b0390839082612fc06145ab565b168152609786522091165f528252805f20549051908152f35b50503461062557602036600319011261062557606090612fff612ffa614595565b614ea5565b919290815193151584526020840152820152f35b5091903461062557602036600319011261062557613037613032614595565b614dfe565b905191600582101561304b57602083838152f35b634e487b7160e01b815260218452602490fd5b505034610625578160031936011261062557602090517f430b074324c1d9f1ce97c9e9efd8cc6b779c8a501b53808a5cafe19682f95dd58152f35b5034610639576130a836614664565b60b493919354603c810180911161323e576130c4904211614da8565b4260b4558301926020908181860312610718578035906001600160401b03821161214957019380601f8601121561071857843561310081614de7565b9561310d85519788614813565b818752838088019260051b82010192831161323a578301905b82821061321b57505050845b8451811015613217576001600160a01b038061314e83886148e1565b511690818852609c845260ff858920541661316e575b5050600101613132565b609d8452848820546203f48081018091116132045790889291421015613195575b50613164565b60a55416803b1561063957855163bcebb1d760e01b8152308882019081526001600160a01b039093166020840152918391839182908490829060400103925af180156131fa576131e6575b8061318f565b6131ef906147e5565b61071857855f6131e0565b85513d84823e3d90fd5b634e487b7160e01b895260118752602489fd5b8580f35b81356001600160a01b038116810361169c578152908301908301613126565b8780fd5b634e487b7160e01b865260118452602486fd5b50503461062557816003193601126106255780602092338152609a845220549051908152f35b505034610625578160031936011261062557602090517f5fef09193e4e8110de1cc5ba269e889a5fb9093ba33c4df4b67dc2eaa1ca1fff8152f35b50503461062557816003193601126106255760a354905160109190911c6001600160a01b03168152602090f35b505f36600319011261169c5760a354916132ff60ff8460081c1615614862565b61330c60ff841615614d6c565b600160ff198094161760a355335f52602090609a8252805f205480156134d75734156134a5578086913411805f1461349e5781955b335f52609a8652845f206133568882546148a3565b90556133648760ae54614841565b60ae556133736126e033614dfe565b61337e8882546148a3565b9055335f52609c8652845f2088815460ff811661348a575b505060a7546001600160a01b0316905080613416575b50506133e9575b5050907f0516911bcc3a0a7412a44601057c0a0a1ec628bde049a84284bc42886653448891519283523392a260a3541660a35580f35b81806133f68193346148a3565b81811561340d575b3390f11561063057845f6133b3565b506108fc6133fe565b8091929394503b1561169c5784516340c10f1960e01b815233928101928352662386f26fc1000088046020840152915f91839182908490829060400103925af180156134805761346b575b90818893926133ac565b613477919297506147e5565b5f95905f613461565b84513d5f823e3d90fd5b169055609d86525f858120555f8881613396565b3495613341565b505162461bcd60e51b815291820152600d60248201526c09aeae6e840e6cadcc8408aa89609b1b604482015260649150fd5b505162461bcd60e51b815291820152601060248201526f4e6f206465627420746f20726570617960801b604482015260649150fd5b823461169c575f36600319011261169c5760209060b4549051908152f35b823461169c57602036600319011261169c5760609061354f61354a614595565b614cfd565b91929081519384526020840152820152f35b503461169c57602036600319011261169c57359060a05482101561169c57611bcc6020926145e6565b503461169c578160031936011261169c576135a36145ab565b90336001600160a01b038316036135c1576135bf925035615a69565b005b608490602084519162461bcd60e51b8352820152602f60248201527f416363657373436f6e74726f6c3a2063616e206f6e6c792072656e6f756e636560448201526e103937b632b9903337b91039b2b63360891b6064820152fd5b50903461169c57602036600319011261169c5760a8546001600160a01b03163303610be057503560b055005b823461169c575f36600319011261169c57602090517ffed613f2d4bec2209ff904769fa3c094c155ec5048c0bb2e17f16e523671ca2c8152f35b50903461169c578060031936011261169c5761369c614595565b6024359160018060a01b039384831694855f526020936098855260ff845f205416156138f057865f5260978552835f20335f52855285845f2054106138b857335f52609c855260ff845f2054166138975761371c90670de0b6b3a764000061371561370f61370933614fee565b93615588565b896148ce565b04906148a3565b9060648202918083046064149015171561388457602490335f52609a865285855f20549160a45416865193848092631ee1b90b60e21b82528c898301525afa90811561387a575f91613849575b61377392506148ce565b116138125790828461379d9493875f5260978352835f20335f528352835f206120b28382546148a3565b03815f895af18015613808576137c7575b5f80516020615e0d8339815191529250519283523392a3005b8183813d8311613801575b6137dc8183614813565b8101031261169c576137fb5f80516020615e0d83398151915293614834565b506137ae565b503d6137d2565b50513d5f823e3d90fd5b8161070592515f80516020615e2d83398151915233918061383281614caa565b0390a25162461bcd60e51b81529182918201614caa565b90508582813d8311613873575b6138608183614813565b8101031261169c57613773915190613769565b503d613856565b85513d5f823e3d90fd5b601183634e487b7160e01b5f525260245ffd5b610705838580515f80516020615e2d833981519152339180611f7a81614c72565b610705838580515f80516020615e2d8339815191523391806138d981614c43565b0390a25162461bcd60e51b81529182918201614c43565b610705838580515f80516020615e2d833981519152339180611fea81614c17565b503461169c57602036600319011261169c5760e09161392e614595565b5f60c0835161393c816147ca565b82815282602082015282858201528260608201528260808201528260a0820152015260018060a01b03165f5260b3602052805f2081519161397c836147ca565b81549384845260018301549160208501928352600284015481860190815260038501549260608701938452850154936080870194855260c060ff600660058901549860a08b01998a5201541697019615158752825197885251602088015251908601525160608501525160808401525160a083015251151560c0820152f35b50903461169c5760c036600319011261169c5760a854823592906001600160a01b03163303611a715750613a6e6135bf92613a3960ab548210614b95565b825192613a458461479b565b6024358452604435602085015260643590840152608435606084015260a43560808401526146f3565b90614bd0565b503461169c578160031936011261169c573590613a8f6145ab565b90825f526065602052613aa76001825f2001546157f6565b825f526065602052805f209160018060a01b031691825f5260205260ff815f20541615613ad057005b825f526065602052805f20825f526020525f20600160ff1982541617905533917f2f8788117e7eff1d82e926ec794901d17c78024a50270940304540a733656f0d5f80a4005b503461169c57602036600319011261169c5735906001600160401b038216820361169c576107cc602092614b45565b50903461169c57602036600319011261169c57602091355f52606582526001815f2001549051908152f35b3461169c575f36600319011261169c576135bf614903565b50905f36600319011261169c57613ba760ff60a35460081c1615614862565b335f52602060b38152815f20600681019360ff85541615613e025780820191825492833410613dbf5760038201918254804210613d905762093a808101809111613d7d57804211613cbb575b50906001613c2a920194613c088187546148a3565b8655335f52609a8752613c1f885f209182546148a3565b90555460ae54614841565b60ae5580549162278d008301809311613ca85750907fd3cf6d8c55fed98c7b9f9d18d95a51dbdb316503bb854fc1f676c8974cb10f4f9291555492838151933485528401523392a215613c7957005b805460ff19169055337f59bd56f70adeefb0cd83dca0f34f066bed6ee442068f3d07b5fc974b944d5aa65f80a2005b601190634e487b7160e01b5f525260245ffd5b613cc433614dfe565b6005811015613d6a5791600191613c2a94935f5260b2895262015180613cf0848c5f20015492426148a3565b0480151580613d61575b613d09575b5050919250613bf3565b613d2e61271061016d613d2587870194610a47865497886148ce565b04048093614841565b905589519081527fce0d6b567089a0bce35e0693cdb625006f0cf915f9f3686bb0343bc2c667c1b2893392a28a80613cff565b50811515613cfa565b602186634e487b7160e01b5f525260245ffd5b601185634e487b7160e01b5f525260245ffd5b875162461bcd60e51b81528086018890526009602482015268546f6f206561726c7960b81b6044820152606490fd5b855162461bcd60e51b8152808401869052601860248201527f496e73756666696369656e7420696e7374616c6c6d656e7400000000000000006044820152606490fd5b835162461bcd60e51b8152908101839052600e60248201526d27379030b1ba34bb32903637b0b760911b6044820152606490fd5b823461169c57602036600319011261169c576020906001600160a01b0380613e5c614595565b165f52609e8352815f2054169051908152f35b823461169c575f36600319011261169c57602090517f8b473ac3e35dc431c1dba0191b7615ccaca6bfeb14f9573dcaae9e614fbe8b208152f35b503461169c57602036600319011261169c57613ec3614595565b60a8546001600160a01b0391908216330361124f5716918215613f195760b180546001600160a01b03191684179055827f279ea638680bba6a87fddd8bcdbc37d94eee92841e1dfec2ab0f79662c7093115f80a2005b906020606492519162461bcd60e51b8352820152601760248201527f496e76616c6964207265736572766520616464726573730000000000000000006044820152fd5b503461169c5760a036600319011261169c57613f76614595565b613f7e6145ab565b90613f876145c1565b6001600160a01b0360643581811693929084900361169c576084359482861680960361169c575f549660ff8860081c161597888099614269575b8015614252575b156141f85760ff1981166001175f55886141e7575b5060ff5f5460081c161561419057508290816001600160601b0360a01b95168560a854161760a855168360a454161760a455168160a554161760a55560a654161760a65580614171575b5060aa805460ff60a01b191690558151906140418261479b565b605a825261406b602092606484820152606e85820152601819606082015260326080820152615641565b61409d83516140798161479b565b60508152605984820152607d85820152600919606082015260286080820152615641565b6140cd83516140ab8161479b565b60468152604f84820152608c858201525f6060820152601e6080820152615641565b6140fe83516140db8161479b565b603c815260458482015260a085820152600f606082015260146080820152615641565b61412d835161410c8161479b565b5f8152603b8482015260c885820152601e60608201525f6080820152615641565b662386f26fc1000060b05561413e57005b7f7f26b83ff96e1f2b6a682f133852f6798a09c465da95921460cefb38474024989161ff00195f54165f555160018152a1005b60a980546001600160a81b031916909117600160a01b17905582614027565b60849060208a519162461bcd60e51b8352820152602b60248201527f496e697469616c697a61626c653a20636f6e7472616374206973206e6f74206960448201526a6e697469616c697a696e6760a81b6064820152fd5b61ffff1916610101175f5589613fdd565b895162461bcd60e51b8152602081840152602e60248201527f496e697469616c697a61626c653a20636f6e747261637420697320616c72656160448201526d191e481a5b9a5d1a585b1a5e995960921b6064820152608490fd5b50303b158015613fc85750600160ff821614613fc8565b50600160ff821610613fc1565b823461169c575f36600319011261169c5751478152602090f35b50903461169c57602036600319011261169c576142ab6145d7565b60a8549092906001600160a01b03163303611a71577fb01450010edba5be11857fe89630b2ff764d237a9f9f77ab651643effd8699886020838515159060aa5460ff60a01b8360a01b169060ff60a01b19161760aa5551908152a1005b823461169c575f36600319011261169c5760209051600a8152f35b823461169c575f36600319011261169c5760209051610e108152f35b50903461169c578060031936011261169c57614359614595565b9160243590335f52602093609c855260ff845f2054161561443b5783516323b872dd60e01b815233928101928352306020840152604083018490526001600160a01b039091169185908290819060600103815f865af1801561348057614407575b505f5260978352815f20335f5283526143d7825f20918254614841565b90556143e2336151e8565b506143e957005b335f908152609c8352818120805460ff19169055609d909252812055005b8481813d8311614434575b61441c8183614813565b8101031261169c5761442d90614834565b50846143ba565b503d614412565b835162461bcd60e51b8152808301869052601a60248201527f4163636f756e74206e6f7420696e206c69717569646174696f6e0000000000006044820152606490fd5b823461169c57602036600319011261169c576020906001600160a01b036144a3614595565b165f52609c825260ff815f20541690519015158152f35b823461169c575f36600319011261169c5760aa5490516001600160a01b039091168152602090f35b503461169c57602036600319011261169c573563ffffffff60e01b811680910361169c57602091637965db0b60e01b8214918215614524575b50519015158152f35b6301ffc9a760e01b1491508361451b565b823461169c57602036600319011261169c5761454f614595565b60a8549092906001600160a01b031633036145895760a3805462010000600160b01b031916601085901b62010000600160b01b0316179055005b630925c89960e31b8152fd5b600435906001600160a01b038216820361169c57565b602435906001600160a01b038216820361169c57565b604435906001600160a01b038216820361169c57565b60043590811515820361169c57565b60a05481101561461b5760a05f527f78fdc8d422c49ced035a9edf18d00d3c6a8d81df210f3e5e448e045e77b41e8801905f90565b634e487b7160e01b5f52603260045260245ffd5b609f5481101561461b57609f5f527f0bc14066c33013fe88f66e314e4cf150b0b2d4d6451a1a51dbbd1c27cd11de2801905f90565b90602060031983011261169c576004356001600160401b039283821161169c578060238301121561169c57816004013593841161169c576024848301011161169c576024019190565b5f5b8381106146be5750505f910152565b81810151838201526020016146af565b906020916146e7815180928185528580860191016146ad565b601f01601f1916010190565b60ab5481101561461b5760059060ab5f52027ffc377260a69a39dd786235c89f4bcd5d9639157731cac38071a0508750eb115a01905f90565b60209060206040818301928281528551809452019301915f5b828110614753575050505090565b83516001600160a01b031685529381019392810192600101614745565b6005811015614787575f5260ac60205260405f2090565b634e487b7160e01b5f52602160045260245ffd5b60a081019081106001600160401b038211176147b657604052565b634e487b7160e01b5f52604160045260245ffd5b60e081019081106001600160401b038211176147b657604052565b6001600160401b0381116147b657604052565b604081019081106001600160401b038211176147b657604052565b90601f801991011681019081106001600160401b038211176147b657604052565b5190811515820361169c57565b9190820180921161484e57565b634e487b7160e01b5f52601160045260245ffd5b1561486957565b60405162461bcd60e51b815260206004820152601260248201527110dbdb9d1c9858dd081a5cc81c185d5cd95960721b6044820152606490fd5b9190820391821161484e57565b81156148ba570490565b634e487b7160e01b5f52601260045260245ffd5b8181029291811591840414171561484e57565b805182101561461b5760209160051b010190565b5f19811461484e5760010190565b61490b6154c5565b5f5b81518110156149ad576001600160a01b038061492983856148e1565b511690815f52602091609e8352604091825f20541661494e575b50505060010161490d565b61496561495d610e109261567d565b9050426148a3565b116149705780614943565b60a3805461ff00191661010017905551600181527f228f455d7bc3d0b24a3a08d7847f391c3e78fc8aeb83acf226b7a96ee162b8ac9350909150a1565b505060a2548015159081614b0e575b506149f35760a05460a5545f91906001600160a01b03908116835b838110614a59575050508015159182614a2f575b50506149f357565b61010061ff001960a354161760a3557f228f455d7bc3d0b24a3a08d7847f391c3e78fc8aeb83acf226b7a96ee162b8ac602060405160018152a1565b90915060648102908082046064149015171561484e57600591614a51916148b0565b115f806149eb565b614a62816145e6565b905460408051632cf5889360e01b815230600482015260039390931b9190911c85166001600160a01b031660248301529060208082604481885afa928315614b0557505f92614acf575b5050614abb575b6001016149d7565b93614ac76001916148f5565b949050614ab3565b90809250813d8311614afe575b614ae68183614813565b8101031261169c57614af790614834565b5f80614aac565b503d614adc565b513d5f823e3d90fd5b9050614b1f60ad5460ae54906148a3565b60648102908082046064149015171561484e57605f91614b3e916148b0565b115f6149bc565b6001600160401b0380911661012c811115614b8f57610352811015614b885761012b190181811161484e57811660640280821690810361484e5761022690041690565b5050606490565b50505f90565b15614b9c57565b60405162461bcd60e51b815260206004820152600c60248201526b24b73b30b634b2103a34b2b960a11b6044820152606490fd5b9190614c04576080816004925184556020810151600185015560408101516002850155606081015160038501550151910155565b634e487b7160e01b5f525f60045260245ffd5b606090602081526011602082015270151bdad95b881b9bdd08185b1b1bddd959607a1b60408201520190565b606090602081526014602082015273496e73756666696369656e742062616c616e636560601b60408201520190565b60609060208152601960208201527f4163636f756e7420697320696e206c69717569646174696f6e0000000000000060408201520190565b60809060208152603260208201527f5769746864726177616c20776f756c64206d616b6520706f736974696f6e20756040820152711b99195c98dbdb1b185d195c985b1a5e995960721b60608201520190565b614d0690614dfe565b600581101561478757614d18906146f3565b509060405190614d278261479b565b82548252600183015460208301526064614d65608060028601549485604082015260046003880154978860608401520154918291015260a2546148ce565b0491929190565b15614d7357565b60405162461bcd60e51b815260206004820152600d60248201526c4e6f207265656e7472616e637960981b6044820152606490fd5b15614daf57565b60405162461bcd60e51b815260206004820152601060248201526f155c1ad9595c081d1a1c9bdd1d1b195960821b6044820152606490fd5b6001600160401b0381116147b65760051b60200190565b614e0790615adc565b60ab54905f5b828110614e2d5750505f19810190811161484e5760058110156147875790565b614e36816146f3565b505482101580614e5c575b614e4d57600101614e0d565b91505060058110156147875790565b506001614e68826146f3565b500154821115614e41565b9081606091031261169c5780516001600160401b038116810361169c57916040614e9f60208401614834565b92015190565b60aa549060ff8260a01c16158015614f91575b614f875760405163d3dd2bdf60e01b81526001600160a01b0391821660048201529160609183916024918391165afa5f918291829181614f53575b50614f04575b5050505f905f905f90565b80614f41575b80614f2b575b614f1a5780614ef9565b614f2390614b45565b916001929190565b506276a700820180831161484e57421115614f10565b506001600160401b0381161515614f0a565b91509250614f79915060603d606011614f80575b614f718183614813565b810190614e73565b925f614ef3565b503d614f67565b50505f905f905f90565b506001600160a01b03821615614eb8565b15614fa957565b60405162461bcd60e51b815260206004820152601f60248201527f546f6b656e206e6f7420616c6c6f77656420617320636f6c6c61746572616c006044820152606490fd5b905f91614ff96154c5565b925f5b8451811015615071576001600160a01b038061501883886148e1565b511690815f5260209060978252604091825f209187165f52525f20549081615045575b5050600101614ffc565b92670de0b6b3a76400006150626150699361219760019697615588565b0490614841565b91905f61503b565b50925050565b9061508182614de7565b61508e6040519182614813565b828152809261509f601f1991614de7565b0190602036910137565b600160ff1b811461484e575f0390565b156150c057565b60405162461bcd60e51b815260206004820152601360248201527227b7363c902632b73234b733a6b0b730b3b2b960691b6044820152606490fd5b91908260c091031261169c5761511082614834565b9161511d60208201614834565b9161512a60408301614834565b9160608101519160a0614e9f60808401614834565b60a9546001600160a01b03908116919082615163575050505f905f905f905f905f90565b602460c09260405194859384926335856b7f60e11b84521660048301525afa5f918291829182918291816151ab575b506151a85750505050505f905f905f905f905f90565b94565b9350945050506151d3915060c03d60c0116151e1575b6151cb8183614813565b8101906150fb565b50929491939092915f615192565b503d6151c1565b906151f282614fee565b6001600160a01b0383165f908152609a602052604090205492831561524c5781156152425761522090614cfd565b5050926064820291820460640361484e5761523a916148b0565b918210159190565b505090505f905f90565b50600192505f19919050565b1561525f57565b60405162461bcd60e51b815260206004820152601260248201527153636f7265206f7574206f662072616e676560701b6044820152606490fd5b6060906020815260126020820152710416d6f756e74206d757374206265203e20360741b60408201520190565b6001600160401b0381116147b657601f01601f191660200190565b60aa5460ff8160a01c16806154b3575b6153d4575b5060a9546001600160a01b039190821680615346575b50165f52609960205260405f205490604051615327816147f8565b600d81526c4c4f43414c5f53544f5241474560981b6020820152905f90565b60c0602491604051928380926335856b7f60e11b825287871660048301525afa5f91816153ad575b501561530c57801561530c579150509060405161538a816147f8565b6011815270494e54454752415445445f53595354454d60781b6020820152905f90565b6153c791925060c03d60c0116151e1576151cb8183614813565b505092505050905f61536e565b60405163d3dd2bdf60e01b81526001600160a01b038381166004830152909160609183916024918391165afa5f91815f915f9361548e575b50615419575b50506152f6565b8061547c575b61542a575b80615412565b6276a700810180911161484e574211156154445780615424565b61544e9150614b45565b9060405161545b816147f8565b600e81526d149254d0cc17d59154925192515160921b602082015290600190565b506001600160401b038216151561541f565b915092506154ab915060603d606011614f8057614f718183614813565b91925f61540c565b506001600160a01b03811615156152f1565b609f545f805b82811061554057506154dc90615077565b905f805b8281106154ed5750505090565b6154f68161462f565b905460039190911b1c6001600160a01b03165f8181526098602052604090205460ff16615527575b506001016154e0565b8261553991612b9f60019495886148e1565b919061551e565b6155498161462f565b60018060a01b0391549060031b1c165f52609860205260ff60405f205416615574575b6001016154cb565b906155806001916148f5565b91905061556c565b600460206155958361567d565b509260018060a01b038091165f52609e825260405f2054166040519283809263313ce56760e01b82525afa8015615636575f906155f9575b60ff91501660120360ff811161484e5760ff1690604d821161484e576155f691600a0a906148ce565b90565b506020813d60201161562e575b8161561360209383614813565b8101031261169c575160ff8116810361169c5760ff906155cd565b3d9150615606565b6040513d5f823e3d90fd5b60ab5490600160401b8210156147b657613a6e826001615664940160ab556146f3565b565b519069ffffffffffffffffffff8216820361169c57565b9060018060a01b03918281165f52609e602052604092835f20541680156157bd579260a0600494825195868092633fabe5a360e21b82525afa8015613808575f80935f965f93615763575b506156dc6156d688426148a3565b91615d5e565b106157315769ffffffffffffffffffff8091169116106156fb57509190565b5162461bcd60e51b815260206004820152601060248201526f5374616c6520726f756e64206461746160801b6044820152606490fd5b825162461bcd60e51b815260206004820152600b60248201526a5374616c6520707269636560a81b6044820152606490fd5b94509550505060a0823d60a0116157b5575b8161578260a09383614813565b8101031261169c5761579382615666565b9360208301516157aa608060608601519501615666565b95909395915f6156c8565b3d9150615775565b835162461bcd60e51b8152602060048201526012602482015271141c9a58d94819995959081b9bdd081cd95d60721b6044820152606490fd5b805f52602060658152604091825f20335f52825260ff835f2054161561581b57505050565b3383519160608301906001600160401b0391848110838211176147b6578652602a8452848401908636833784511561461b57603082538451936001946001101561461b576078602187015360295b858111615a2857506159e65786519260808401908111848210176147b65787526042835285830193606036863783511561461b576030855383516001101561461b57607860218501536041905b8082116159a3575050615961576107059386936159459361593660489461590d9a519a8b957f416363657373436f6e74726f6c3a206163636f756e74200000000000000000008c88015251809260378801906146ad565b8401917001034b99036b4b9b9b4b733903937b6329607d1b6037840152518093868401906146ad565b01036028810187520185614813565b5192839262461bcd60e51b8452600484015260248301906146ce565b60648587519062461bcd60e51b825280600483015260248201527f537472696e67733a20686578206c656e67746820696e73756666696369656e746044820152fd5b9091600f8116601081101561461b576f181899199a1a9b1b9c1cb0b131b232b360811b901a6159d28487615dfb565b5360041c91801561484e575f1901906158b6565b60648688519062461bcd60e51b825280600483015260248201527f537472696e67733a20686578206c656e67746820696e73756666696369656e746044820152fd5b90600f8116601081101561461b576f181899199a1a9b1b9c1cb0b131b232b360811b901a615a568389615dfb565b5360041c90801561484e575f1901615869565b90815f52606560205260405f209060018060a01b031690815f5260205260ff60405f205416615a96575050565b815f52606560205260405f20815f5260205260405f2060ff19815416905533917ff6391f5c32d9c69d2a47ea670b442974b53935d1edc7fd64eb21e047a839171b5f80a4565b60aa5460ff8160a01c1680615c2b575b615b7a575b5060a9546001600160a01b039190821680615b18575b50165f52609960205260405f205490565b60c0602491604051928380926335856b7f60e11b825287871660048301525afa5f9181615b53575b5015615b07578015615b07575b91505090565b615b6d91925060c03d60c0116151e1576151cb8183614813565b505092505050905f615b40565b60405163d3dd2bdf60e01b81526001600160a01b038381166004830152909160609183916024918391165afa5f91815f915f93615c06575b50615bbf575b5050615af1565b80615bf4575b615bd0575b80615bb8565b6276a700810180911161484e57421115615bea5780615bca565b6155f69150614b45565b506001600160401b0382161515615bc5565b91509250615c23915060603d606011614f8057614f718183614813565b91925f615bb2565b506001600160a01b0381161515615aec565b91615c4790615adc565b90600581101561478757615c5a816146f3565b505080615c875750605f1115615c6d5790565b605f810290808204605f149015171561484e576064900490565b60018103615cbe575060558110615cb35750605a810290808204605a149015171561484e576064900490565b60521115615c6d5790565b60028103615d0b5750604b8110615cea575060558102908082046055149015171561484e576064900490565b6048116155f657605c810290808204605c149015171561484e576064900490565b600314615d16575090565b60418110615d39575060508102908082046050149015171561484e576064900490565b603e1115615d445790565b605a810290808204605a149015171561484e576064900490565b6001600160a01b039081165f81815260af602052604090205490919080615b4d575060209060a4541691602460405180948193631a650cc760e01b835260048301525afa908115615636575f91615dc1575b50615dbb5761038490565b610e1090565b90506020813d602011615df3575b81615ddc60209383614813565b8101031261169c57615ded90614834565b5f615db0565b3d9150615dcf565b90815181101561461b57016020019056fe45892a46e6cef329bb642da6d69846d324db43d19008edc141ed82382eda1bee3c364b9decdac59fbe037e99687219ac0feed46572bfbcbd5284b6b8e67f402da264697066735822122044b0549d6e08f205f52d48a77e5f50b98d9b22c894189ba107555698ecc7e5d964736f6c63430008180033",
  "linkReferences": {},
  "deployedLinkReferences": {}
}