{
  "_format": "hh-sol-artifact-1",
  "contractName": "LiquidityPool",
  "sourceName": "contracts/LiquidityPool.sol",
  "abi": [
    {
      "inputs": [],
      "name": "OnlyTimelockLiquidityPool",
      "type": "error"
    },
    {
      "anonymous": false,
      "inputs": [
        {
          "indexed": true,
          "internalType": "address",
          "name": "user",
          "type": "address"
        },
        {
          "indexed": false,
          "internalType": "uint256",
          "name": "amount",
          "type": "uint256"
        },
        {
          "indexed": false,
          "internalType": "bytes32",
          "name": "nullifier",
          "type": "bytes32"
        }
      ],
      "name": "BorrowWithNullifier",
      "type": "event"
    },
    {
      "anonymous": false,
      "inputs": [
        {
          "indexed": true,
          "internalType": "address",
          "name": "user",
          "type": "address"
        },
        {
          "indexed": false,
          "internalType": "uint256",
          "name": "amount",
          "type": "uint256"
        }
      ],
      "name": "Borrowed",
      "type": "event"
    },
    {
      "anonymous": false,
      "inputs": [
        {
          "indexed": true,
          "internalType": "address",
          "name": "user",
          "type": "address"
        },
        {
          "indexed": true,
          "internalType": "address",
          "name": "token",
          "type": "address"
        },
        {
          "indexed": false,
          "internalType": "uint256",
          "name": "amount",
          "type": "uint256"
        }
      ],
      "name": "CollateralDeposited",
      "type": "event"
    },
    {
      "anonymous": false,
      "inputs": [
        {
          "indexed": true,
          "internalType": "address",
          "name": "token",
          "type": "address"
        },
        {
          "indexed": false,
          "internalType": "bool",
          "name": "isAllowed",
          "type": "bool"
        }
      ],
      "name": "CollateralTokenStatusChanged",
      "type": "event"
    },
    {
      "anonymous": false,
      "inputs": [
        {
          "indexed": true,
          "internalType": "address",
          "name": "user",
          "type": "address"
        },
        {
          "indexed": true,
          "internalType": "address",
          "name": "token",
          "type": "address"
        },
        {
          "indexed": false,
          "internalType": "uint256",
          "name": "amount",
          "type": "uint256"
        }
      ],
      "name": "CollateralWithdrawn",
      "type": "event"
    },
    {
      "anonymous": false,
      "inputs": [
        {
          "indexed": true,
          "internalType": "address",
          "name": "user",
          "type": "address"
        },
        {
          "indexed": false,
          "internalType": "uint256",
          "name": "score",
          "type": "uint256"
        }
      ],
      "name": "CreditScoreAssigned",
      "type": "event"
    },
    {
      "anonymous": false,
      "inputs": [
        {
          "indexed": true,
          "internalType": "address",
          "name": "oldContract",
          "type": "address"
        },
        {
          "indexed": true,
          "internalType": "address",
          "name": "newContract",
          "type": "address"
        }
      ],
      "name": "CreditScoreContractUpdated",
      "type": "event"
    },
    {
      "anonymous": false,
      "inputs": [
        {
          "indexed": true,
          "internalType": "address",
          "name": "user",
          "type": "address"
        },
        {
          "indexed": false,
          "internalType": "string",
          "name": "source",
          "type": "string"
        },
        {
          "indexed": false,
          "internalType": "uint256",
          "name": "score",
          "type": "uint256"
        },
        {
          "indexed": false,
          "internalType": "uint256",
          "name": "convertedScore",
          "type": "uint256"
        }
      ],
      "name": "CreditScoreSourceUsed",
      "type": "event"
    },
    {
      "anonymous": false,
      "inputs": [
        {
          "indexed": true,
          "internalType": "address",
          "name": "oldSystem",
          "type": "address"
        },
        {
          "indexed": true,
          "internalType": "address",
          "name": "newSystem",
          "type": "address"
        }
      ],
      "name": "CreditSystemUpdated",
      "type": "event"
    },
    {
      "anonymous": false,
      "inputs": [
        {
          "indexed": false,
          "internalType": "bool",
          "name": "isPaused",
          "type": "bool"
        }
      ],
      "name": "EmergencyPaused",
      "type": "event"
    },
    {
      "anonymous": false,
      "inputs": [
        {
          "indexed": true,
          "internalType": "address",
          "name": "user",
          "type": "address"
        },
        {
          "indexed": false,
          "internalType": "uint256",
          "name": "amount",
          "type": "uint256"
        },
        {
          "indexed": false,
          "internalType": "string",
          "name": "feeType",
          "type": "string"
        },
        {
          "indexed": false,
          "internalType": "uint256",
          "name": "tier",
          "type": "uint256"
        }
      ],
      "name": "FeeCollected",
      "type": "event"
    },
    {
      "anonymous": false,
      "inputs": [
        {
          "indexed": true,
          "internalType": "address",
          "name": "user",
          "type": "address"
        },
        {
          "indexed": false,
          "internalType": "uint256",
          "name": "newDeadline",
          "type": "uint256"
        }
      ],
      "name": "GracePeriodExtended",
      "type": "event"
    },
    {
      "anonymous": false,
      "inputs": [
        {
          "indexed": false,
          "internalType": "uint8",
          "name": "version",
          "type": "uint8"
        }
      ],
      "name": "Initialized",
      "type": "event"
    },
    {
      "anonymous": false,
      "inputs": [
        {
          "indexed": true,
          "internalType": "address",
          "name": "user",
          "type": "address"
        },
        {
          "indexed": true,
          "internalType": "address",
          "name": "liquidator",
          "type": "address"
        },
        {
          "indexed": false,
          "internalType": "uint256",
          "name": "amount",
          "type": "uint256"
        }
      ],
      "name": "LiquidationExecuted",
      "type": "event"
    },
    {
      "anonymous": false,
      "inputs": [
        {
          "indexed": true,
          "internalType": "address",
          "name": "user",
          "type": "address"
        }
      ],
      "name": "LiquidationStarted",
      "type": "event"
    },
    {
      "anonymous": false,
      "inputs": [
        {
          "indexed": true,
          "internalType": "address",
          "name": "applicant",
          "type": "address"
        },
        {
          "indexed": false,
          "internalType": "uint256",
          "name": "amount",
          "type": "uint256"
        },
        {
          "indexed": false,
          "internalType": "uint256",
          "name": "collateral",
          "type": "uint256"
        }
      ],
      "name": "LoanApplied",
      "type": "event"
    },
    {
      "anonymous": false,
      "inputs": [
        {
          "indexed": true,
          "internalType": "address",
          "name": "applicant",
          "type": "address"
        },
        {
          "indexed": false,
          "internalType": "uint256",
          "name": "amount",
          "type": "uint256"
        }
      ],
      "name": "LoanApproved",
      "type": "event"
    },
    {
      "anonymous": false,
      "inputs": [
        {
          "indexed": true,
          "internalType": "address",
          "name": "borrower",
          "type": "address"
        },
        {
          "indexed": false,
          "internalType": "uint256",
          "name": "amount",
          "type": "uint256"
        },
        {
          "indexed": false,
          "internalType": "uint256",
          "name": "rate",
          "type": "uint256"
        }
      ],
      "name": "LoanDisbursed",
      "type": "event"
    },
    {
      "anonymous": false,
      "inputs": [
        {
          "indexed": true,
          "internalType": "address",
          "name": "borrower",
          "type": "address"
        }
      ],
      "name": "LoanFullyRepaid",
      "type": "event"
    },
    {
      "anonymous": false,
      "inputs": [
        {
          "indexed": true,
          "internalType": "address",
          "name": "borrower",
          "type": "address"
        },
        {
          "indexed": false,
          "internalType": "uint256",
          "name": "amount",
          "type": "uint256"
        },
        {
          "indexed": false,
          "internalType": "uint256",
          "name": "remaining",
          "type": "uint256"
        }
      ],
      "name": "LoanInstallmentPaid",
      "type": "event"
    },
    {
      "anonymous": false,
      "inputs": [
        {
          "indexed": true,
          "internalType": "address",
          "name": "borrower",
          "type": "address"
        },
        {
          "indexed": false,
          "internalType": "uint256",
          "name": "penalty",
          "type": "uint256"
        }
      ],
      "name": "LoanLatePenaltyApplied",
      "type": "event"
    },
    {
      "anonymous": false,
      "inputs": [
        {
          "indexed": true,
          "internalType": "address",
          "name": "applicant",
          "type": "address"
        },
        {
          "indexed": false,
          "internalType": "uint256",
          "name": "amount",
          "type": "uint256"
        }
      ],
      "name": "LoanRejected",
      "type": "event"
    },
    {
      "anonymous": false,
      "inputs": [
        {
          "indexed": true,
          "internalType": "address",
          "name": "user",
          "type": "address"
        },
        {
          "indexed": true,
          "internalType": "address",
          "name": "liquidator",
          "type": "address"
        },
        {
          "indexed": true,
          "internalType": "address",
          "name": "collateralToken",
          "type": "address"
        },
        {
          "indexed": false,
          "internalType": "uint256",
          "name": "collateralSeized",
          "type": "uint256"
        },
        {
          "indexed": false,
          "internalType": "uint256",
          "name": "debtRepaid",
          "type": "uint256"
        }
      ],
      "name": "PartialLiquidation",
      "type": "event"
    },
    {
      "anonymous": false,
      "inputs": [
        {
          "indexed": false,
          "internalType": "bool",
          "name": "useRISC0",
          "type": "bool"
        }
      ],
      "name": "RISC0ScoreToggled",
      "type": "event"
    },
    {
      "anonymous": false,
      "inputs": [
        {
          "indexed": true,
          "internalType": "address",
          "name": "user",
          "type": "address"
        },
        {
          "indexed": false,
          "internalType": "uint256",
          "name": "amount",
          "type": "uint256"
        }
      ],
      "name": "Repaid",
      "type": "event"
    },
    {
      "anonymous": false,
      "inputs": [
        {
          "indexed": true,
          "internalType": "address",
          "name": "newReserve",
          "type": "address"
        }
      ],
      "name": "ReserveAddressUpdated",
      "type": "event"
    },
    {
      "anonymous": false,
      "inputs": [
        {
          "indexed": true,
          "internalType": "bytes32",
          "name": "role",
          "type": "bytes32"
        },
        {
          "indexed": true,
          "internalType": "bytes32",
          "name": "previousAdminRole",
          "type": "bytes32"
        },
        {
          "indexed": true,
          "internalType": "bytes32",
          "name": "newAdminRole",
          "type": "bytes32"
        }
      ],
      "name": "RoleAdminChanged",
      "type": "event"
    },
    {
      "anonymous": false,
      "inputs": [
        {
          "indexed": true,
          "internalType": "bytes32",
          "name": "role",
          "type": "bytes32"
        },
        {
          "indexed": true,
          "internalType": "address",
          "name": "account",
          "type": "address"
        },
        {
          "indexed": true,
          "internalType": "address",
          "name": "sender",
          "type": "address"
        }
      ],
      "name": "RoleGranted",
      "type": "event"
    },
    {
      "anonymous": false,
      "inputs": [
        {
          "indexed": true,
          "internalType": "bytes32",
          "name": "role",
          "type": "bytes32"
        },
        {
          "indexed": true,
          "internalType": "address",
          "name": "account",
          "type": "address"
        },
        {
          "indexed": true,
          "internalType": "address",
          "name": "sender",
          "type": "address"
        }
      ],
      "name": "RoleRevoked",
      "type": "event"
    },
    {
      "anonymous": false,
      "inputs": [
        {
          "indexed": true,
          "internalType": "address",
          "name": "token",
          "type": "address"
        },
        {
          "indexed": false,
          "internalType": "uint256",
          "name": "updatedAt",
          "type": "uint256"
        },
        {
          "indexed": false,
          "internalType": "uint256",
          "name": "currentTime",
          "type": "uint256"
        }
      ],
      "name": "StaleOracleTriggered",
      "type": "event"
    },
    {
      "anonymous": false,
      "inputs": [
        {
          "indexed": true,
          "internalType": "uint256",
          "name": "tier",
          "type": "uint256"
        },
        {
          "indexed": false,
          "internalType": "uint256",
          "name": "originationFee",
          "type": "uint256"
        },
        {
          "indexed": false,
          "internalType": "uint256",
          "name": "lateFeeAPR",
          "type": "uint256"
        }
      ],
      "name": "TierFeeUpdated",
      "type": "event"
    },
    {
      "anonymous": false,
      "inputs": [
        {
          "indexed": true,
          "internalType": "address",
          "name": "user",
          "type": "address"
        },
        {
          "indexed": false,
          "internalType": "string",
          "name": "message",
          "type": "string"
        }
      ],
      "name": "UserError",
      "type": "event"
    },
    {
      "anonymous": false,
      "inputs": [
        {
          "indexed": true,
          "internalType": "address",
          "name": "user",
          "type": "address"
        },
        {
          "indexed": false,
          "internalType": "string",
          "name": "action",
          "type": "string"
        },
        {
          "indexed": false,
          "internalType": "uint256",
          "name": "timestamp",
          "type": "uint256"
        }
      ],
      "name": "UserHistoryUpdated",
      "type": "event"
    },
    {
      "anonymous": false,
      "inputs": [
        {
          "indexed": false,
          "internalType": "bool",
          "name": "required",
          "type": "bool"
        }
      ],
      "name": "ZKProofRequirementToggled",
      "type": "event"
    },
    {
      "anonymous": false,
      "inputs": [
        {
          "indexed": true,
          "internalType": "address",
          "name": "user",
          "type": "address"
        },
        {
          "indexed": false,
          "internalType": "string",
          "name": "reason",
          "type": "string"
        }
      ],
      "name": "ZKProofValidationFailed",
      "type": "event"
    },
    {
      "inputs": [],
      "name": "ALLOW_COLLATERAL_PERMISSION",
      "outputs": [
        {
          "internalType": "bytes32",
          "name": "",
          "type": "bytes32"
        }
      ],
      "stateMutability": "view",
      "type": "function"
    },
    {
      "inputs": [],
      "name": "DEFAULT_ADMIN_ROLE",
      "outputs": [
        {
          "internalType": "bytes32",
          "name": "",
          "type": "bytes32"
        }
      ],
      "stateMutability": "view",
      "type": "function"
    },
    {
      "inputs": [],
      "name": "DEFAULT_LIQUIDATION_THRESHOLD",
      "outputs": [
        {
          "internalType": "uint256",
          "name": "",
          "type": "uint256"
        }
      ],
      "stateMutability": "view",
      "type": "function"
    },
    {
      "inputs": [],
      "name": "DEFAULT_STALENESS_STABLE",
      "outputs": [
        {
          "internalType": "uint256",
          "name": "",
          "type": "uint256"
        }
      ],
      "stateMutability": "view",
      "type": "function"
    },
    {
      "inputs": [],
      "name": "DEFAULT_STALENESS_VOLATILE",
      "outputs": [
        {
          "internalType": "uint256",
          "name": "",
          "type": "uint256"
        }
      ],
      "stateMutability": "view",
      "type": "function"
    },
    {
      "inputs": [],
      "name": "GRACE_PERIOD",
      "outputs": [
        {
          "internalType": "uint256",
          "name": "",
          "type": "uint256"
        }
      ],
      "stateMutability": "view",
      "type": "function"
    },
    {
      "inputs": [],
      "name": "LIQUIDATION_PENALTY",
      "outputs": [
        {
          "internalType": "uint256",
          "name": "",
          "type": "uint256"
        }
      ],
      "stateMutability": "view",
      "type": "function"
    },
    {
      "inputs": [],
      "name": "SAFETY_BUFFER",
      "outputs": [
        {
          "internalType": "uint256",
          "name": "",
          "type": "uint256"
        }
      ],
      "stateMutability": "view",
      "type": "function"
    },
    {
      "inputs": [],
      "name": "SCORE_EXPIRY_PERIOD",
      "outputs": [
        {
          "internalType": "uint256",
          "name": "",
          "type": "uint256"
        }
      ],
      "stateMutability": "view",
      "type": "function"
    },
    {
      "inputs": [],
      "name": "SET_ADMIN_PERMISSION",
      "outputs": [
        {
          "internalType": "bytes32",
          "name": "",
          "type": "bytes32"
        }
      ],
      "stateMutability": "view",
      "type": "function"
    },
    {
      "inputs": [],
      "name": "SET_CREDIT_SCORE_PERMISSION",
      "outputs": [
        {
          "internalType": "bytes32",
          "name": "",
          "type": "bytes32"
        }
      ],
      "stateMutability": "view",
      "type": "function"
    },
    {
      "inputs": [],
      "name": "SET_LENDING_MANAGER_PERMISSION",
      "outputs": [
        {
          "internalType": "bytes32",
          "name": "",
          "type": "bytes32"
        }
      ],
      "stateMutability": "view",
      "type": "function"
    },
    {
      "inputs": [],
      "name": "SET_MAX_PRICE_AGE_PERMISSION",
      "outputs": [
        {
          "internalType": "bytes32",
          "name": "",
          "type": "bytes32"
        }
      ],
      "stateMutability": "view",
      "type": "function"
    },
    {
      "inputs": [],
      "name": "SET_MIN_PARTIAL_LIQUIDATION_AMOUNT_PERMISSION",
      "outputs": [
        {
          "internalType": "bytes32",
          "name": "",
          "type": "bytes32"
        }
      ],
      "stateMutability": "view",
      "type": "function"
    },
    {
      "inputs": [],
      "name": "SET_PRICE_FEED_PERMISSION",
      "outputs": [
        {
          "internalType": "bytes32",
          "name": "",
          "type": "bytes32"
        }
      ],
      "stateMutability": "view",
      "type": "function"
    },
    {
      "inputs": [],
      "name": "SET_RESERVE_ADDRESS_PERMISSION",
      "outputs": [
        {
          "internalType": "bytes32",
          "name": "",
          "type": "bytes32"
        }
      ],
      "stateMutability": "view",
      "type": "function"
    },
    {
      "inputs": [],
      "name": "SET_TIER_FEE_PERMISSION",
      "outputs": [
        {
          "internalType": "bytes32",
          "name": "",
          "type": "bytes32"
        }
      ],
      "stateMutability": "view",
      "type": "function"
    },
    {
      "inputs": [],
      "name": "TOGGLE_PAUSE_PERMISSION",
      "outputs": [
        {
          "internalType": "bytes32",
          "name": "",
          "type": "bytes32"
        }
      ],
      "stateMutability": "view",
      "type": "function"
    },
    {
      "inputs": [],
      "name": "UPDATE_BORROW_TIER_PERMISSION",
      "outputs": [
        {
          "internalType": "bytes32",
          "name": "",
          "type": "bytes32"
        }
      ],
      "stateMutability": "view",
      "type": "function"
    },
    {
      "inputs": [],
      "name": "UPKEEP_COOLDOWN",
      "outputs": [
        {
          "internalType": "uint256",
          "name": "",
          "type": "uint256"
        }
      ],
      "stateMutability": "view",
      "type": "function"
    },
    {
      "inputs": [
        {
          "internalType": "address",
          "name": "token",
          "type": "address"
        }
      ],
      "name": "allowedCollateralTokens",
      "outputs": [
        {
          "internalType": "bool",
          "name": "",
          "type": "bool"
        }
      ],
      "stateMutability": "view",
      "type": "function"
    },
    {
      "inputs": [
        {
          "internalType": "uint256",
          "name": "amount",
          "type": "uint256"
        },
        {
          "internalType": "bytes32",
          "name": "nullifier",
          "type": "bytes32"
        }
      ],
      "name": "borrow",
      "outputs": [],
      "stateMutability": "payable",
      "type": "function"
    },
    {
      "inputs": [
        {
          "internalType": "uint256",
          "name": "",
          "type": "uint256"
        }
      ],
      "name": "borrowTierConfigs",
      "outputs": [
        {
          "internalType": "uint256",
          "name": "minScore",
          "type": "uint256"
        },
        {
          "internalType": "uint256",
          "name": "maxScore",
          "type": "uint256"
        },
        {
          "internalType": "uint256",
          "name": "collateralRatio",
          "type": "uint256"
        },
        {
          "internalType": "int256",
          "name": "interestRateModifier",
          "type": "int256"
        },
        {
          "internalType": "uint256",
          "name": "maxLoanAmount",
          "type": "uint256"
        }
      ],
      "stateMutability": "view",
      "type": "function"
    },
    {
      "inputs": [
        {
          "internalType": "address",
          "name": "",
          "type": "address"
        }
      ],
      "name": "borrowTimestamp",
      "outputs": [
        {
          "internalType": "uint256",
          "name": "",
          "type": "uint256"
        }
      ],
      "stateMutability": "view",
      "type": "function"
    },
    {
      "inputs": [
        {
          "internalType": "enum LiquidityPool.RiskTier",
          "name": "",
          "type": "uint8"
        }
      ],
      "name": "borrowedAmountByRiskTier",
      "outputs": [
        {
          "internalType": "uint256",
          "name": "",
          "type": "uint256"
        }
      ],
      "stateMutability": "view",
      "type": "function"
    },
    {
      "inputs": [
        {
          "internalType": "address",
          "name": "user",
          "type": "address"
        }
      ],
      "name": "calculateBorrowCapacity",
      "outputs": [
        {
          "internalType": "uint256",
          "name": "",
          "type": "uint256"
        }
      ],
      "stateMutability": "view",
      "type": "function"
    },
    {
      "inputs": [
        {
          "internalType": "address",
          "name": "user",
          "type": "address"
        }
      ],
      "name": "calculateCollateralValue",
      "outputs": [
        {
          "internalType": "uint256",
          "name": "",
          "type": "uint256"
        }
      ],
      "stateMutability": "view",
      "type": "function"
    },
    {
      "inputs": [
        {
          "internalType": "address",
          "name": "user",
          "type": "address"
        }
      ],
      "name": "calculateHealthFactor",
      "outputs": [
        {
          "internalType": "uint256",
          "name": "",
          "type": "uint256"
        }
      ],
      "stateMutability": "view",
      "type": "function"
    },
    {
      "inputs": [
        {
          "internalType": "address",
          "name": "user",
          "type": "address"
        }
      ],
      "name": "calculateLiquidation",
      "outputs": [
        {
          "internalType": "uint256",
          "name": "",
          "type": "uint256"
        },
        {
          "internalType": "uint256",
          "name": "",
          "type": "uint256"
        }
      ],
      "stateMutability": "view",
      "type": "function"
    },
    {
      "inputs": [
        {
          "internalType": "address",
          "name": "user",
          "type": "address"
        }
      ],
      "name": "calculateUserDebt",
      "outputs": [
        {
          "internalType": "uint256",
          "name": "",
          "type": "uint256"
        }
      ],
      "stateMutability": "view",
      "type": "function"
    },
    {
      "inputs": [
        {
          "internalType": "address",
          "name": "user",
          "type": "address"
        }
      ],
      "name": "canLend",
      "outputs": [
        {
          "internalType": "bool",
          "name": "",
          "type": "bool"
        }
      ],
      "stateMutability": "view",
      "type": "function"
    },
    {
      "inputs": [],
      "name": "checkCircuitBreakers",
      "outputs": [],
      "stateMutability": "nonpayable",
      "type": "function"
    },
    {
      "inputs": [
        {
          "internalType": "address",
          "name": "user",
          "type": "address"
        }
      ],
      "name": "checkCollateralization",
      "outputs": [
        {
          "internalType": "bool",
          "name": "isHealthy",
          "type": "bool"
        },
        {
          "internalType": "uint256",
          "name": "ratio",
          "type": "uint256"
        }
      ],
      "stateMutability": "view",
      "type": "function"
    },
    {
      "inputs": [
        {
          "internalType": "bytes",
          "name": "",
          "type": "bytes"
        }
      ],
      "name": "checkUpkeep",
      "outputs": [
        {
          "internalType": "bool",
          "name": "upkeepNeeded",
          "type": "bool"
        },
        {
          "internalType": "bytes",
          "name": "performData",
          "type": "bytes"
        }
      ],
      "stateMutability": "view",
      "type": "function"
    },
    {
      "inputs": [
        {
          "internalType": "address",
          "name": "token",
          "type": "address"
        },
        {
          "internalType": "address",
          "name": "user",
          "type": "address"
        },
        {
          "internalType": "address",
          "name": "to",
          "type": "address"
        },
        {
          "internalType": "uint256",
          "name": "amount",
          "type": "uint256"
        }
      ],
      "name": "clearCollateral",
      "outputs": [],
      "stateMutability": "nonpayable",
      "type": "function"
    },
    {
      "inputs": [
        {
          "internalType": "address",
          "name": "user",
          "type": "address"
        },
        {
          "internalType": "uint256",
          "name": "amount",
          "type": "uint256"
        }
      ],
      "name": "clearDebt",
      "outputs": [],
      "stateMutability": "nonpayable",
      "type": "function"
    },
    {
      "inputs": [
        {
          "internalType": "address",
          "name": "",
          "type": "address"
        },
        {
          "internalType": "address",
          "name": "",
          "type": "address"
        }
      ],
      "name": "collateralBalance",
      "outputs": [
        {
          "internalType": "uint256",
          "name": "",
          "type": "uint256"
        }
      ],
      "stateMutability": "view",
      "type": "function"
    },
    {
      "inputs": [
        {
          "internalType": "uint256",
          "name": "",
          "type": "uint256"
        }
      ],
      "name": "collateralTokenList",
      "outputs": [
        {
          "internalType": "address",
          "name": "",
          "type": "address"
        }
      ],
      "stateMutability": "view",
      "type": "function"
    },
    {
      "inputs": [
        {
          "internalType": "uint64",
          "name": "ficoScore",
          "type": "uint64"
        }
      ],
      "name": "convertFICOToContractScore",
      "outputs": [
        {
          "internalType": "uint256",
          "name": "",
          "type": "uint256"
        }
      ],
      "stateMutability": "pure",
      "type": "function"
    },
    {
      "inputs": [
        {
          "internalType": "address",
          "name": "",
          "type": "address"
        }
      ],
      "name": "creditScore",
      "outputs": [
        {
          "internalType": "uint256",
          "name": "",
          "type": "uint256"
        }
      ],
      "stateMutability": "view",
      "type": "function"
    },
    {
      "inputs": [],
      "name": "creditScoreContract",
      "outputs": [
        {
          "internalType": "contract ICreditScore",
          "name": "",
          "type": "address"
        }
      ],
      "stateMutability": "view",
      "type": "function"
    },
    {
      "inputs": [],
      "name": "creditSystem",
      "outputs": [
        {
          "internalType": "contract IntegratedCreditSystem",
          "name": "",
          "type": "address"
        }
      ],
      "stateMutability": "view",
      "type": "function"
    },
    {
      "inputs": [
        {
          "internalType": "address",
          "name": "token",
          "type": "address"
        },
        {
          "internalType": "uint256",
          "name": "amount",
          "type": "uint256"
        }
      ],
      "name": "depositCollateral",
      "outputs": [],
      "stateMutability": "nonpayable",
      "type": "function"
    },
    {
      "inputs": [
        {
          "internalType": "uint256",
          "name": "amount",
          "type": "uint256"
        },
        {
          "internalType": "address payable",
          "name": "to",
          "type": "address"
        }
      ],
      "name": "extract",
      "outputs": [],
      "stateMutability": "nonpayable",
      "type": "function"
    },
    {
      "inputs": [],
      "name": "getAdmin",
      "outputs": [
        {
          "internalType": "address",
          "name": "",
          "type": "address"
        }
      ],
      "stateMutability": "view",
      "type": "function"
    },
    {
      "inputs": [],
      "name": "getAllCollateralTokens",
      "outputs": [
        {
          "internalType": "address[]",
          "name": "",
          "type": "address[]"
        }
      ],
      "stateMutability": "view",
      "type": "function"
    },
    {
      "inputs": [],
      "name": "getAllUsers",
      "outputs": [
        {
          "internalType": "address[]",
          "name": "",
          "type": "address[]"
        }
      ],
      "stateMutability": "view",
      "type": "function"
    },
    {
      "inputs": [],
      "name": "getAllowedCollateralTokens",
      "outputs": [
        {
          "internalType": "address[]",
          "name": "",
          "type": "address[]"
        }
      ],
      "stateMutability": "view",
      "type": "function"
    },
    {
      "inputs": [],
      "name": "getAvailableLiquidity",
      "outputs": [
        {
          "internalType": "uint256",
          "name": "",
          "type": "uint256"
        }
      ],
      "stateMutability": "view",
      "type": "function"
    },
    {
      "inputs": [],
      "name": "getBalance",
      "outputs": [
        {
          "internalType": "uint256",
          "name": "",
          "type": "uint256"
        }
      ],
      "stateMutability": "view",
      "type": "function"
    },
    {
      "inputs": [],
      "name": "getBorrowRate",
      "outputs": [
        {
          "internalType": "uint256",
          "name": "",
          "type": "uint256"
        }
      ],
      "stateMutability": "pure",
      "type": "function"
    },
    {
      "inputs": [
        {
          "internalType": "address",
          "name": "user",
          "type": "address"
        }
      ],
      "name": "getBorrowTerms",
      "outputs": [
        {
          "internalType": "uint256",
          "name": "collateralRatio",
          "type": "uint256"
        },
        {
          "internalType": "int256",
          "name": "interestRateModifier",
          "type": "int256"
        },
        {
          "internalType": "uint256",
          "name": "maxLoanAmount",
          "type": "uint256"
        }
      ],
      "stateMutability": "view",
      "type": "function"
    },
    {
      "inputs": [
        {
          "internalType": "address",
          "name": "user",
          "type": "address"
        }
      ],
      "name": "getBorrowerRate",
      "outputs": [
        {
          "internalType": "uint256",
          "name": "",
          "type": "uint256"
        }
      ],
      "stateMutability": "view",
      "type": "function"
    },
    {
      "inputs": [
        {
          "internalType": "address",
          "name": "user",
          "type": "address"
        },
        {
          "internalType": "address",
          "name": "token",
          "type": "address"
        }
      ],
      "name": "getCollateral",
      "outputs": [
        {
          "internalType": "uint256",
          "name": "",
          "type": "uint256"
        }
      ],
      "stateMutability": "view",
      "type": "function"
    },
    {
      "inputs": [
        {
          "internalType": "address",
          "name": "user",
          "type": "address"
        }
      ],
      "name": "getCreditScore",
      "outputs": [
        {
          "internalType": "uint256",
          "name": "",
          "type": "uint256"
        }
      ],
      "stateMutability": "view",
      "type": "function"
    },
    {
      "inputs": [
        {
          "internalType": "address",
          "name": "user",
          "type": "address"
        }
      ],
      "name": "getCreditScoreWithSource",
      "outputs": [
        {
          "internalType": "uint256",
          "name": "score",
          "type": "uint256"
        },
        {
          "internalType": "string",
          "name": "source",
          "type": "string"
        },
        {
          "internalType": "bool",
          "name": "isVerified",
          "type": "bool"
        }
      ],
      "stateMutability": "view",
      "type": "function"
    },
    {
      "inputs": [],
      "name": "getExchangeRate",
      "outputs": [
        {
          "internalType": "uint256",
          "name": "",
          "type": "uint256"
        }
      ],
      "stateMutability": "pure",
      "type": "function"
    },
    {
      "inputs": [],
      "name": "getGlobalRiskMultiplier",
      "outputs": [
        {
          "internalType": "uint256",
          "name": "",
          "type": "uint256"
        }
      ],
      "stateMutability": "pure",
      "type": "function"
    },
    {
      "inputs": [
        {
          "internalType": "address",
          "name": "token",
          "type": "address"
        }
      ],
      "name": "getLTV",
      "outputs": [
        {
          "internalType": "uint256",
          "name": "",
          "type": "uint256"
        }
      ],
      "stateMutability": "view",
      "type": "function"
    },
    {
      "inputs": [
        {
          "internalType": "address",
          "name": "user",
          "type": "address"
        }
      ],
      "name": "getLoan",
      "outputs": [
        {
          "components": [
            {
              "internalType": "uint256",
              "name": "principal",
              "type": "uint256"
            },
            {
              "internalType": "uint256",
              "name": "outstanding",
              "type": "uint256"
            },
            {
              "internalType": "uint256",
              "name": "interestRate",
              "type": "uint256"
            },
            {
              "internalType": "uint256",
              "name": "nextDueDate",
              "type": "uint256"
            },
            {
              "internalType": "uint256",
              "name": "installmentAmount",
              "type": "uint256"
            },
            {
              "internalType": "uint256",
              "name": "penaltyBps",
              "type": "uint256"
            },
            {
              "internalType": "bool",
              "name": "active",
              "type": "bool"
            }
          ],
          "internalType": "struct LiquidityPool.Loan",
          "name": "",
          "type": "tuple"
        }
      ],
      "stateMutability": "view",
      "type": "function"
    },
    {
      "inputs": [],
      "name": "getMinCollateralRatio",
      "outputs": [
        {
          "internalType": "uint256",
          "name": "",
          "type": "uint256"
        }
      ],
      "stateMutability": "pure",
      "type": "function"
    },
    {
      "inputs": [],
      "name": "getMyDebt",
      "outputs": [
        {
          "internalType": "uint256",
          "name": "",
          "type": "uint256"
        }
      ],
      "stateMutability": "view",
      "type": "function"
    },
    {
      "inputs": [
        {
          "internalType": "address",
          "name": "token",
          "type": "address"
        }
      ],
      "name": "getPriceFeed",
      "outputs": [
        {
          "internalType": "address",
          "name": "",
          "type": "address"
        }
      ],
      "stateMutability": "view",
      "type": "function"
    },
    {
      "inputs": [],
      "name": "getProtocolReserves",
      "outputs": [
        {
          "internalType": "uint256",
          "name": "",
          "type": "uint256"
        }
      ],
      "stateMutability": "view",
      "type": "function"
    },
    {
      "inputs": [],
      "name": "getReserveFactor",
      "outputs": [
        {
          "internalType": "uint256",
          "name": "",
          "type": "uint256"
        }
      ],
      "stateMutability": "pure",
      "type": "function"
    },
    {
      "inputs": [
        {
          "internalType": "address",
          "name": "user",
          "type": "address"
        }
      ],
      "name": "getRiskTier",
      "outputs": [
        {
          "internalType": "enum LiquidityPool.RiskTier",
          "name": "",
          "type": "uint8"
        }
      ],
      "stateMutability": "view",
      "type": "function"
    },
    {
      "inputs": [
        {
          "internalType": "bytes32",
          "name": "role",
          "type": "bytes32"
        }
      ],
      "name": "getRoleAdmin",
      "outputs": [
        {
          "internalType": "bytes32",
          "name": "",
          "type": "bytes32"
        }
      ],
      "stateMutability": "view",
      "type": "function"
    },
    {
      "inputs": [],
      "name": "getSupplyRate",
      "outputs": [
        {
          "internalType": "uint256",
          "name": "",
          "type": "uint256"
        }
      ],
      "stateMutability": "pure",
      "type": "function"
    },
    {
      "inputs": [
        {
          "internalType": "address",
          "name": "token",
          "type": "address"
        }
      ],
      "name": "getTokenValue",
      "outputs": [
        {
          "internalType": "uint256",
          "name": "",
          "type": "uint256"
        }
      ],
      "stateMutability": "view",
      "type": "function"
    },
    {
      "inputs": [],
      "name": "getTotalBorrows",
      "outputs": [
        {
          "internalType": "uint256",
          "name": "",
          "type": "uint256"
        }
      ],
      "stateMutability": "view",
      "type": "function"
    },
    {
      "inputs": [
        {
          "internalType": "address",
          "name": "user",
          "type": "address"
        }
      ],
      "name": "getTotalCollateralValue",
      "outputs": [
        {
          "internalType": "uint256",
          "name": "",
          "type": "uint256"
        }
      ],
      "stateMutability": "view",
      "type": "function"
    },
    {
      "inputs": [],
      "name": "getTotalSupply",
      "outputs": [
        {
          "internalType": "uint256",
          "name": "",
          "type": "uint256"
        }
      ],
      "stateMutability": "view",
      "type": "function"
    },
    {
      "inputs": [
        {
          "internalType": "address",
          "name": "user",
          "type": "address"
        }
      ],
      "name": "getUserHistory",
      "outputs": [
        {
          "components": [
            {
              "internalType": "uint256",
              "name": "firstInteractionTimestamp",
              "type": "uint256"
            },
            {
              "internalType": "uint256",
              "name": "liquidations",
              "type": "uint256"
            },
            {
              "internalType": "uint256",
              "name": "succesfullPayments",
              "type": "uint256"
            }
          ],
          "internalType": "struct UserHistory",
          "name": "",
          "type": "tuple"
        }
      ],
      "stateMutability": "view",
      "type": "function"
    },
    {
      "inputs": [],
      "name": "getUtilizationRate",
      "outputs": [
        {
          "internalType": "uint256",
          "name": "",
          "type": "uint256"
        }
      ],
      "stateMutability": "view",
      "type": "function"
    },
    {
      "inputs": [
        {
          "internalType": "address",
          "name": "user",
          "type": "address"
        }
      ],
      "name": "getZKVerificationStatus",
      "outputs": [
        {
          "internalType": "bool",
          "name": "hasTradFi",
          "type": "bool"
        },
        {
          "internalType": "bool",
          "name": "hasAccount",
          "type": "bool"
        },
        {
          "internalType": "bool",
          "name": "hasNesting",
          "type": "bool"
        },
        {
          "internalType": "uint256",
          "name": "finalScore",
          "type": "uint256"
        },
        {
          "internalType": "bool",
          "name": "isEligible",
          "type": "bool"
        }
      ],
      "stateMutability": "view",
      "type": "function"
    },
    {
      "inputs": [
        {
          "internalType": "bytes32",
          "name": "role",
          "type": "bytes32"
        },
        {
          "internalType": "address",
          "name": "account",
          "type": "address"
        }
      ],
      "name": "grantRole",
      "outputs": [],
      "stateMutability": "nonpayable",
      "type": "function"
    },
    {
      "inputs": [
        {
          "internalType": "bytes32",
          "name": "role",
          "type": "bytes32"
        },
        {
          "internalType": "address",
          "name": "account",
          "type": "address"
        }
      ],
      "name": "hasRole",
      "outputs": [
        {
          "internalType": "bool",
          "name": "",
          "type": "bool"
        }
      ],
      "stateMutability": "view",
      "type": "function"
    },
    {
      "inputs": [
        {
          "internalType": "address",
          "name": "user",
          "type": "address"
        }
      ],
      "name": "hasValidRISC0Score",
      "outputs": [
        {
          "internalType": "bool",
          "name": "hasValidScore",
          "type": "bool"
        },
        {
          "internalType": "uint256",
          "name": "score",
          "type": "uint256"
        },
        {
          "internalType": "uint256",
          "name": "timestamp",
          "type": "uint256"
        }
      ],
      "stateMutability": "view",
      "type": "function"
    },
    {
      "inputs": [
        {
          "internalType": "address",
          "name": "_timelock",
          "type": "address"
        },
        {
          "internalType": "address",
          "name": "_stablecoinManager",
          "type": "address"
        },
        {
          "internalType": "address",
          "name": "_lendingManager",
          "type": "address"
        },
        {
          "internalType": "address",
          "name": "_interestRateModel",
          "type": "address"
        },
        {
          "internalType": "address",
          "name": "_creditSystem",
          "type": "address"
        },
        {
          "internalType": "address",
          "name": "_nullifierRegistry",
          "type": "address"
        }
      ],
      "name": "initialize",
      "outputs": [],
      "stateMutability": "nonpayable",
      "type": "function"
    },
    {
      "inputs": [],
      "name": "interestRateModel",
      "outputs": [
        {
          "internalType": "contract InterestRateModel",
          "name": "",
          "type": "address"
        }
      ],
      "stateMutability": "view",
      "type": "function"
    },
    {
      "inputs": [
        {
          "internalType": "address",
          "name": "",
          "type": "address"
        }
      ],
      "name": "isAllowedCollateral",
      "outputs": [
        {
          "internalType": "bool",
          "name": "",
          "type": "bool"
        }
      ],
      "stateMutability": "view",
      "type": "function"
    },
    {
      "inputs": [
        {
          "internalType": "address",
          "name": "",
          "type": "address"
        }
      ],
      "name": "isKnownUser",
      "outputs": [
        {
          "internalType": "bool",
          "name": "",
          "type": "bool"
        }
      ],
      "stateMutability": "view",
      "type": "function"
    },
    {
      "inputs": [
        {
          "internalType": "address",
          "name": "",
          "type": "address"
        }
      ],
      "name": "isLiquidatable",
      "outputs": [
        {
          "internalType": "bool",
          "name": "",
          "type": "bool"
        }
      ],
      "stateMutability": "view",
      "type": "function"
    },
    {
      "inputs": [],
      "name": "isPaused",
      "outputs": [
        {
          "internalType": "bool",
          "name": "",
          "type": "bool"
        }
      ],
      "stateMutability": "view",
      "type": "function"
    },
    {
      "inputs": [],
      "name": "lastUpkeep",
      "outputs": [
        {
          "internalType": "uint256",
          "name": "",
          "type": "uint256"
        }
      ],
      "stateMutability": "view",
      "type": "function"
    },
    {
      "inputs": [],
      "name": "lendingManager",
      "outputs": [
        {
          "internalType": "contract LendingManager",
          "name": "",
          "type": "address"
        }
      ],
      "stateMutability": "view",
      "type": "function"
    },
    {
      "inputs": [
        {
          "internalType": "address",
          "name": "user",
          "type": "address"
        }
      ],
      "name": "liquidationInfo",
      "outputs": [
        {
          "internalType": "bool",
          "name": "",
          "type": "bool"
        },
        {
          "internalType": "uint256",
          "name": "",
          "type": "uint256"
        },
        {
          "internalType": "uint256",
          "name": "",
          "type": "uint256"
        }
      ],
      "stateMutability": "view",
      "type": "function"
    },
    {
      "inputs": [
        {
          "internalType": "address",
          "name": "",
          "type": "address"
        }
      ],
      "name": "liquidationStartTime",
      "outputs": [
        {
          "internalType": "uint256",
          "name": "",
          "type": "uint256"
        }
      ],
      "stateMutability": "view",
      "type": "function"
    },
    {
      "inputs": [],
      "name": "liquidator",
      "outputs": [
        {
          "internalType": "address",
          "name": "",
          "type": "address"
        }
      ],
      "stateMutability": "view",
      "type": "function"
    },
    {
      "inputs": [
        {
          "internalType": "address",
          "name": "",
          "type": "address"
        }
      ],
      "name": "loans",
      "outputs": [
        {
          "internalType": "uint256",
          "name": "principal",
          "type": "uint256"
        },
        {
          "internalType": "uint256",
          "name": "outstanding",
          "type": "uint256"
        },
        {
          "internalType": "uint256",
          "name": "interestRate",
          "type": "uint256"
        },
        {
          "internalType": "uint256",
          "name": "nextDueDate",
          "type": "uint256"
        },
        {
          "internalType": "uint256",
          "name": "installmentAmount",
          "type": "uint256"
        },
        {
          "internalType": "uint256",
          "name": "penaltyBps",
          "type": "uint256"
        },
        {
          "internalType": "bool",
          "name": "active",
          "type": "bool"
        }
      ],
      "stateMutability": "view",
      "type": "function"
    },
    {
      "inputs": [],
      "name": "locked",
      "outputs": [
        {
          "internalType": "bool",
          "name": "",
          "type": "bool"
        }
      ],
      "stateMutability": "view",
      "type": "function"
    },
    {
      "inputs": [
        {
          "internalType": "address",
          "name": "",
          "type": "address"
        }
      ],
      "name": "maxPriceAge",
      "outputs": [
        {
          "internalType": "uint256",
          "name": "",
          "type": "uint256"
        }
      ],
      "stateMutability": "view",
      "type": "function"
    },
    {
      "inputs": [],
      "name": "minPartialLiquidationAmount",
      "outputs": [
        {
          "internalType": "uint256",
          "name": "",
          "type": "uint256"
        }
      ],
      "stateMutability": "view",
      "type": "function"
    },
    {
      "inputs": [],
      "name": "nullifierRegistry",
      "outputs": [
        {
          "internalType": "contract NullifierRegistry",
          "name": "",
          "type": "address"
        }
      ],
      "stateMutability": "view",
      "type": "function"
    },
    {
      "inputs": [],
      "name": "paused",
      "outputs": [
        {
          "internalType": "bool",
          "name": "",
          "type": "bool"
        }
      ],
      "stateMutability": "view",
      "type": "function"
    },
    {
      "inputs": [
        {
          "internalType": "bytes",
          "name": "performData",
          "type": "bytes"
        }
      ],
      "name": "performUpkeep",
      "outputs": [],
      "stateMutability": "nonpayable",
      "type": "function"
    },
    {
      "inputs": [
        {
          "internalType": "address",
          "name": "",
          "type": "address"
        }
      ],
      "name": "priceFeed",
      "outputs": [
        {
          "internalType": "address",
          "name": "",
          "type": "address"
        }
      ],
      "stateMutability": "view",
      "type": "function"
    },
    {
      "inputs": [
        {
          "internalType": "address",
          "name": "token",
          "type": "address"
        },
        {
          "internalType": "uint256",
          "name": "amount",
          "type": "uint256"
        }
      ],
      "name": "recoverFromLiquidation",
      "outputs": [],
      "stateMutability": "nonpayable",
      "type": "function"
    },
    {
      "inputs": [
        {
          "internalType": "bytes32",
          "name": "role",
          "type": "bytes32"
        },
        {
          "internalType": "address",
          "name": "account",
          "type": "address"
        }
      ],
      "name": "renounceRole",
      "outputs": [],
      "stateMutability": "nonpayable",
      "type": "function"
    },
    {
      "inputs": [],
      "name": "repay",
      "outputs": [],
      "stateMutability": "payable",
      "type": "function"
    },
    {
      "inputs": [],
      "name": "repayInstallment",
      "outputs": [],
      "stateMutability": "payable",
      "type": "function"
    },
    {
      "inputs": [],
      "name": "reserveAddress",
      "outputs": [
        {
          "internalType": "address",
          "name": "",
          "type": "address"
        }
      ],
      "stateMutability": "view",
      "type": "function"
    },
    {
      "inputs": [
        {
          "internalType": "bytes32",
          "name": "role",
          "type": "bytes32"
        },
        {
          "internalType": "address",
          "name": "account",
          "type": "address"
        }
      ],
      "name": "revokeRole",
      "outputs": [],
      "stateMutability": "nonpayable",
      "type": "function"
    },
    {
      "inputs": [
        {
          "internalType": "address",
          "name": "newAdmin",
          "type": "address"
        }
      ],
      "name": "setAdmin",
      "outputs": [],
      "stateMutability": "nonpayable",
      "type": "function"
    },
    {
      "inputs": [
        {
          "internalType": "address",
          "name": "token",
          "type": "address"
        },
        {
          "internalType": "bool",
          "name": "allowed",
          "type": "bool"
        }
      ],
      "name": "setAllowedCollateral",
      "outputs": [],
      "stateMutability": "nonpayable",
      "type": "function"
    },
    {
      "inputs": [
        {
          "internalType": "address",
          "name": "user",
          "type": "address"
        },
        {
          "internalType": "uint256",
          "name": "score",
          "type": "uint256"
        }
      ],
      "name": "setCreditScore",
      "outputs": [],
      "stateMutability": "nonpayable",
      "type": "function"
    },
    {
      "inputs": [
        {
          "internalType": "address",
          "name": "_creditScoreContract",
          "type": "address"
        }
      ],
      "name": "setCreditScoreContract",
      "outputs": [],
      "stateMutability": "nonpayable",
      "type": "function"
    },
    {
      "inputs": [
        {
          "internalType": "address",
          "name": "_creditSystem",
          "type": "address"
        }
      ],
      "name": "setCreditSystem",
      "outputs": [],
      "stateMutability": "nonpayable",
      "type": "function"
    },
    {
      "inputs": [
        {
          "internalType": "address",
          "name": "_lendingManager",
          "type": "address"
        }
      ],
      "name": "setLendingManager",
      "outputs": [],
      "stateMutability": "nonpayable",
      "type": "function"
    },
    {
      "inputs": [
        {
          "internalType": "address",
          "name": "_liquidator",
          "type": "address"
        }
      ],
      "name": "setLiquidator",
      "outputs": [],
      "stateMutability": "nonpayable",
      "type": "function"
    },
    {
      "inputs": [
        {
          "internalType": "address",
          "name": "token",
          "type": "address"
        },
        {
          "internalType": "uint256",
          "name": "age",
          "type": "uint256"
        }
      ],
      "name": "setMaxPriceAge",
      "outputs": [],
      "stateMutability": "nonpayable",
      "type": "function"
    },
    {
      "inputs": [
        {
          "internalType": "uint256",
          "name": "amount",
          "type": "uint256"
        }
      ],
      "name": "setMinPartialLiquidationAmount",
      "outputs": [],
      "stateMutability": "nonpayable",
      "type": "function"
    },
    {
      "inputs": [
        {
          "internalType": "address",
          "name": "token",
          "type": "address"
        },
        {
          "internalType": "address",
          "name": "feed",
          "type": "address"
        }
      ],
      "name": "setPriceFeed",
      "outputs": [],
      "stateMutability": "nonpayable",
      "type": "function"
    },
    {
      "inputs": [
        {
          "internalType": "address",
          "name": "_reserve",
          "type": "address"
        }
      ],
      "name": "setReserveAddress",
      "outputs": [],
      "stateMutability": "nonpayable",
      "type": "function"
    },
    {
      "inputs": [
        {
          "internalType": "uint256",
          "name": "tier",
          "type": "uint256"
        },
        {
          "internalType": "uint256",
          "name": "originationFee",
          "type": "uint256"
        },
        {
          "internalType": "uint256",
          "name": "lateFeeAPR",
          "type": "uint256"
        }
      ],
      "name": "setTierFee",
      "outputs": [],
      "stateMutability": "nonpayable",
      "type": "function"
    },
    {
      "inputs": [
        {
          "internalType": "address",
          "name": "_votingToken",
          "type": "address"
        }
      ],
      "name": "setVotingToken",
      "outputs": [],
      "stateMutability": "nonpayable",
      "type": "function"
    },
    {
      "inputs": [
        {
          "internalType": "bool",
          "name": "required",
          "type": "bool"
        }
      ],
      "name": "setZKProofRequirement",
      "outputs": [],
      "stateMutability": "nonpayable",
      "type": "function"
    },
    {
      "inputs": [],
      "name": "stablecoinManager",
      "outputs": [
        {
          "internalType": "contract StablecoinManager",
          "name": "",
          "type": "address"
        }
      ],
      "stateMutability": "view",
      "type": "function"
    },
    {
      "inputs": [
        {
          "internalType": "address",
          "name": "user",
          "type": "address"
        }
      ],
      "name": "startLiquidation",
      "outputs": [],
      "stateMutability": "nonpayable",
      "type": "function"
    },
    {
      "inputs": [
        {
          "internalType": "bytes4",
          "name": "interfaceId",
          "type": "bytes4"
        }
      ],
      "name": "supportsInterface",
      "outputs": [
        {
          "internalType": "bool",
          "name": "",
          "type": "bool"
        }
      ],
      "stateMutability": "view",
      "type": "function"
    },
    {
      "inputs": [
        {
          "internalType": "uint256",
          "name": "",
          "type": "uint256"
        }
      ],
      "name": "tierFees",
      "outputs": [
        {
          "internalType": "uint256",
          "name": "originationFee",
          "type": "uint256"
        },
        {
          "internalType": "uint256",
          "name": "lateFeeAPR",
          "type": "uint256"
        }
      ],
      "stateMutability": "view",
      "type": "function"
    },
    {
      "inputs": [],
      "name": "timelock",
      "outputs": [
        {
          "internalType": "address",
          "name": "",
          "type": "address"
        }
      ],
      "stateMutability": "view",
      "type": "function"
    },
    {
      "inputs": [],
      "name": "togglePause",
      "outputs": [],
      "stateMutability": "nonpayable",
      "type": "function"
    },
    {
      "inputs": [
        {
          "internalType": "bool",
          "name": "_useRISC0",
          "type": "bool"
        }
      ],
      "name": "toggleRISC0CreditScores",
      "outputs": [],
      "stateMutability": "nonpayable",
      "type": "function"
    },
    {
      "inputs": [],
      "name": "toggleZKProofRequirement",
      "outputs": [],
      "stateMutability": "nonpayable",
      "type": "function"
    },
    {
      "inputs": [],
      "name": "totalBorrowedAllTime",
      "outputs": [
        {
          "internalType": "uint256",
          "name": "",
          "type": "uint256"
        }
      ],
      "stateMutability": "view",
      "type": "function"
    },
    {
      "inputs": [],
      "name": "totalFunds",
      "outputs": [
        {
          "internalType": "uint256",
          "name": "",
          "type": "uint256"
        }
      ],
      "stateMutability": "view",
      "type": "function"
    },
    {
      "inputs": [],
      "name": "totalRepaidAllTime",
      "outputs": [
        {
          "internalType": "uint256",
          "name": "",
          "type": "uint256"
        }
      ],
      "stateMutability": "view",
      "type": "function"
    },
    {
      "inputs": [
        {
          "internalType": "uint256",
          "name": "tierIndex",
          "type": "uint256"
        },
        {
          "internalType": "uint256",
          "name": "minScore",
          "type": "uint256"
        },
        {
          "internalType": "uint256",
          "name": "maxScore",
          "type": "uint256"
        },
        {
          "internalType": "uint256",
          "name": "collateralRatio",
          "type": "uint256"
        },
        {
          "internalType": "int256",
          "name": "interestRateModifier",
          "type": "int256"
        },
        {
          "internalType": "uint256",
          "name": "maxLoanAmount",
          "type": "uint256"
        }
      ],
      "name": "updateBorrowTier",
      "outputs": [],
      "stateMutability": "nonpayable",
      "type": "function"
    },
    {
      "inputs": [
        {
          "internalType": "address",
          "name": "user",
          "type": "address"
        },
        {
          "internalType": "uint256",
          "name": "score",
          "type": "uint256"
        }
      ],
      "name": "updateCreditScoreFromZK",
      "outputs": [],
      "stateMutability": "nonpayable",
      "type": "function"
    },
    {
      "inputs": [],
      "name": "useRISC0CreditScores",
      "outputs": [
        {
          "internalType": "bool",
          "name": "",
          "type": "bool"
        }
      ],
      "stateMutability": "view",
      "type": "function"
    },
    {
      "inputs": [
        {
          "internalType": "address",
          "name": "",
          "type": "address"
        }
      ],
      "name": "userDebt",
      "outputs": [
        {
          "internalType": "uint256",
          "name": "",
          "type": "uint256"
        }
      ],
      "stateMutability": "view",
      "type": "function"
    },
    {
      "inputs": [
        {
          "internalType": "address",
          "name": "",
          "type": "address"
        }
      ],
      "name": "userHistory",
      "outputs": [
        {
          "internalType": "uint256",
          "name": "firstInteractionTimestamp",
          "type": "uint256"
        },
        {
          "internalType": "uint256",
          "name": "liquidations",
          "type": "uint256"
        },
        {
          "internalType": "uint256",
          "name": "succesfullPayments",
          "type": "uint256"
        }
      ],
      "stateMutability": "view",
      "type": "function"
    },
    {
      "inputs": [
        {
          "internalType": "address",
          "name": "user",
          "type": "address"
        }
      ],
      "name": "userPositions",
      "outputs": [
        {
          "internalType": "uint256",
          "name": "",
          "type": "uint256"
        },
        {
          "internalType": "uint256",
          "name": "",
          "type": "uint256"
        },
        {
          "internalType": "uint256",
          "name": "",
          "type": "uint256"
        }
      ],
      "stateMutability": "view",
      "type": "function"
    },
    {
      "inputs": [
        {
          "internalType": "uint256",
          "name": "",
          "type": "uint256"
        }
      ],
      "name": "users",
      "outputs": [
        {
          "internalType": "address",
          "name": "",
          "type": "address"
        }
      ],
      "stateMutability": "view",
      "type": "function"
    },
    {
      "inputs": [],
      "name": "votingToken",
      "outputs": [
        {
          "internalType": "contract VotingToken",
          "name": "",
          "type": "address"
        }
      ],
      "stateMutability": "view",
      "type": "function"
    },
    {
      "inputs": [
        {
          "internalType": "address",
          "name": "token",
          "type": "address"
        },
        {
          "internalType": "uint256",
          "name": "amount",
          "type": "uint256"
        }
      ],
      "name": "withdrawCollateral",
      "outputs": [],
      "stateMutability": "nonpayable",
      "type": "function"
    },
    {
      "inputs": [
        {
          "internalType": "uint256",
          "name": "amount",
          "type": "uint256"
        }
      ],
      "name": "withdrawForLendingManager",
      "outputs": [],
      "stateMutability": "nonpayable",
      "type": "function"
    },
    {
      "inputs": [
        {
          "internalType": "address",
          "name": "token",
          "type": "address"
        },
        {
          "internalType": "uint256",
          "name": "amount",
          "type": "uint256"
        }
      ],
      "name": "withdrawPartialCollateral",
      "outputs": [],
      "stateMutability": "nonpayable",
      "type": "function"
    },
    {
      "inputs": [],
      "name": "zkProofRequired",
      "outputs": [
        {
          "internalType": "bool",
          "name": "",
          "type": "bool"
        }
      ],
      "stateMutability": "view",
      "type": "function"
    },
    {
      "stateMutability": "payable",
      "type": "receive"
    }
  ],
  "bytecode": "0x608080604052346100175761668690816200001c8239f35b5f80fdfe6080604081815260048036101561002f575b505050361561001e575f80fd5b61002a3460a354614fb2565b60a355005b5f925f3560e01c90816301c76f8114614c4e5750806301ffc9a714614bfb57806303a42b6f14614bd3578063042e02cf14614b97578063080d9c2b14614a585780630835e14514614a385780630b044c7914614a1c5780630ef7fb6714614a015780630f61b81014614989578063100cd71d1461492f57806312065fe01461297a57806314673d311461487c5780631bfe4261146148425780631fd48b9a1461480957806320dfcae1146144fb57806323fe5a33146144e3578063248a9ca3146144b85780632a28ec44146144375780632a7beafe146144085780632f2ff15d1461436657806330332f9f146142ed57806333481fc914614203578063350c35e914613f87578063357619a914613f4d57806335f6798114613f2157806336568abe14613e8f578063365b98b214613e6657806338053ef314613e2f5780633d7c5d3e14613e11578063402d888314613b7c5780634046ebae14613b4f578063418eea3114613b14578063450a375a14613aee5780634585e33b14613936578063488683cd146138fb5780634a417a53146138de5780634c8f35ab146120345780634c95da66146138935780634fb3d3b1146138115780635141df41146137d757806352226ef01461378c57806355f4d9e21461362a578063594ad93f1461360c57806359705bb3146135ee5780635a70348f14612f6f5780635b66e7fc146135d15780635b6cca80146135805780635c44f10d146135645780635c975abb146121835780635f558e5314613548578063613cf420146134e35780636579b73e146134ab57806368272ecc1461343257806369ff0a0d1461340b5780636c648fc4146133e55780636e04ff0d1461320b5780636e9960c314611924578063704b6c021461317a57806370ed11bc1461311c57806372ed9f7b14612fad5780637346f48614612f6f57806373b4086b14612ef457806376e1128614612e7357806378974cbb14612d755780637a8ce68b14612d3a578063802937ac14612d1b57806383475f0c14612ce057806383ae7345146120da57806384bdc9a814612cbe57806386d785e614612c715780638e6b53bc14612c3f57806391d1485414612bfc57806393a517a214612b835780639490a51e14612b45578063962a0da514612b0a578063968ed60014611f0157806397ed81cf146129f55780639ac77e1b1461297f5780639b745aec1461297a5780639b8621d51461295e5780639ce625f7146129385780639e3b77af1461290f578063a217fddf146128f4578063a36e4ad614612663578063a5d5db0c146123f9578063a6f48e5d146123ad578063a75b24c7146122ee578063a787572e14612299578063a814519114612222578063a89ef5ca146121f9578063a8cf4b521461149b578063aca25f9a146121d3578063b0340123146121aa578063b187bd2614612183578063b3075fb714612152578063b3a5a0a214612112578063b69e5c77146120da578063b870676c146120b1578063b8cdf56114612092578063ba1c5e801461206f578063bc3d5a3e14612050578063c129d50414612034578063c1a287e214612016578063c23c69d514611fde578063c39537e114611fa3578063c4ae316814611f20578063c4e41b2214611f01578063c869d0ed14611e5f578063c941f32114611e36578063cc2a9a5b14611b01578063cc484c5c14611a9f578063cf17622514611a76578063cf30901214611a52578063d1f151c114611985578063d29255f91461194d578063d33219b414611924578063d3dd2bdf14611903578063d547741f146118c5578063ddac7f1b1461183c578063e19fb8f51461172b578063e1c5010014611620578063e1f7c2c914611589578063e2842d79146114f8578063e2d74628146114a0578063e6aa216c1461149b578063e6ae357614611460578063e7602b9d14611413578063e84bae45146113df578063e884cf23146113b8578063e9ffb2911461137d578063eb8d655114611342578063ebdcc16414611313578063ec9ab59914610944578063f1c5d6c214610917578063f3fdb15a146108ee578063f79ed94b146108c5578063f7e590ee1461088d578063fbbff3d114610819578063feb50e521461073a5763ffd4aedb036100115734610736576080366003190112610736576106e291610658614cae565b610660614cc4565b92610669614cda565b90606435918760018060a01b0380956106878260a6541633146158a0565b169283825260209788966097885288842091165f528652865f206106ac868254615014565b9055865163a9059cbb60e01b81526001600160a01b03909316908301908152602081019490945290968793849291839160400190565b03925af190811561072d57506106f6578280f35b81813d8311610726575b61070a8183614f84565b810103126107225761071b90614fa5565b505f808280f35b5080fd5b503d610700565b513d85823e3d90fd5b8280fd5b50903461073657806003193601126107365781356024356001600160a01b03818116918290036108155760aa54163303610806578147106107eb578480809381935af13d156107e6573d61078d81615af9565b9061079a84519283614f84565b81528460203d92013e5b156107ad578280f35b906020606492519162461bcd60e51b83528201526013602482015272115512081d1c985b9cd9995c8819985a5b1959606a1b6044820152fd5b6107a4565b825162461bcd60e51b8152806108028187016153b4565b0390fd5b505051630925c89960e31b8152fd5b8580fd5b5082903461072257602036600319011261072257610835614cae565b6001600160a01b0381168352609a602052838320549290610855906157d5565b9160058402938085046005149015171561087a57505060648351920482526020820152f35b634e487b7160e01b825260119052602490fd5b5050346107225760203660031901126107225760209181906001600160a01b036108b5614cae565b1681526099845220549051908152f35b50503461072257816003193601126107225760b35490516001600160a01b039091168152602090f35b50503461072257816003193601126107225760a75490516001600160a01b039091168152602090f35b5050346107225760203660031901126107225760209061093d610938614cae565b615dbb565b9051908152f35b50829082600319360112610722578035602493843560a4549361096d60ff8660081c1615614fd3565b61097a60ff8616156154dd565b600160ff198096161760a455338652602090609a8252838720546112d35760a95484516308b71ed360e21b81528083018590526001600160a01b039182169991929190848183818e5afa90811561125c578a9161129e575b506112665785516345d92d7760e01b81523383820152848183818e5afa90811561125c578a91611227575b50156111ed5789899a3b156111df578990818851809263305ccc3960e01b8252898783015233868301528160449e8f925af180156111e3576111cb575b5050610a453361629b565b91865163a6f48e5d60e01b815233828201528b818481305afa9384156111c1578c918d9561110a575b507f0dda2aa47a3db5dda18a4f06501647c631e2c43e7e7876dbeaf21023b8266fb590895190610aa660609788845288840190614e46565b93898301528a8201528033930390a2610abe336155e5565b91600583101580610e74578284146110d25760a35460011c8a1161107857610ae53361546e565b9150508a1161102957610af73361546e565b5050610b02336157d5565b90606482029180830460641490151715610e2b57610b20908c61503f565b11610fda578c9081968060b35416978c8a8d8b610fae575b505081610b4491615014565b9881158015610f0f575b5050508860a35491610b6560af5460b05490615014565b92859381610ec4575b505060a7541691858d5180948193634fd41dad60e11b83528a8301525afa928315610eb95792610e86575b50610e74576003610ba985614e6b565b500154818e80831215610e3d575050610bc190615890565b9061271091820390828211610e2b5790610bda9161503f565b049a5b600c8a10610ddc575062278d00420190814211610dcb5750938b9493610ca5869594610c8e8b8f8b8f8b9a998b9a918b92600695875197610c1d89614f20565b83895286890190848252808a019283528d8a01938452600c60808b019504855260a08a01966101f4885260b560c08c019960018b52338352522098518955516001890155516002880155516003870155519085015551600584015551151591019060ff801983541691151516179055565b609a89528b8b862055609b8952428b862055614ec6565b610cb08b8254614fb2565b9055610cbe8a60af54614fb2565b60af55338352609f8752888320805415610d8a575b5050818115610d81575b3390f115610d77577f6a0741a9322a7aded3431ce697f586d89a196820acf4bd0430035d7b3dab74c0939495835190868252828201527f5660f932172e1664b98577a703dd9484d374b28e3bf8c87b345bee97af612412843392a282518581527fac59582e5396aca512fa873a2047e7f4c80f8f55d4a06cb34a78a0187f62719f823392a282519485528401523392a260a4541660a45580f35b82513d88823e3d90fd5b506108fc610cdd565b4290556b66697273745f626f72726f7760a01b8951918a8352600c8b84015282015242878201525f8051602061663183398151915260803392a28c80610cd3565b634e487b7160e01b8d52601183528cfd5b6084935060267f4c6f616e20616d6f756e7420746f6f20736d616c6c20666f7220616d6f72746992888b519562461bcd60e51b8752860152840152820152653d30ba34b7b760d11b6064820152fd5b634e487b7160e01b8f5260118552838ffd5b829e93919e13610e4f575b5050610bdd565b90919c5061271091820190818311610e2b5790610e6b9161503f565b049a8d80610e48565b50634e487b7160e01b8c52602182528bfd5b9091508781813d8311610eb2575b610e9e8183614f84565b81010312610eae5751908e610b99565b5f80fd5b503d610e94565b8b51903d90823e3d90fd5b92509250929350670de0b6b3a764000090818102918183041490151715610efc578f939291610ef4908b92615021565b915f80610b6e565b50634e487b7160e01b8f5260118552838ffd5b94808381949596979382948390610fa5575bf115610f995782610f8757908e92918b51908152878a820152600b888201526a37b934b3b4b730ba34b7b760a91b6080820152868c8201527f66aecc579aa1ef463c0ed1547c2cb6163370e6311a60cba815252acbb398f21360a03392a28f8080610b4e565b634e487b7160e01b8f5260218552838ffd5b8e8b51903d90823e3d90fd5b506108fc610f21565b612710919550610b44929350610fcf9060b45f978c8a52528720548461503f565b049190508a8d610b38565b885162461bcd60e51b81528084018890526025818401527f496e73756666696369656e7420636f6c6c61746572616c20666f722074686973818e015264103637b0b760d91b6064820152608490fd5b885162461bcd60e51b81528084018890526025818401527f426f72726f7720616d6f756e74206578636565647320796f7572207469657220818e0152641b1a5b5a5d60da1b6064820152608490fd5b885162461bcd60e51b81528084018890526030818401527f426f72726f7720616d6f756e74206578636565647320617661696c61626c6520818e01526f6c656e64696e6720636170616369747960801b6064820152608490fd5b885162461bcd60e51b8152808401889052601481840152734372656469742073636f726520746f6f206c6f7760601b818e0152606490fd5b915093503d808d833e61111d8183614f84565b8101906060818303126111bd578051878201516001600160401b0381116111b957820183601f820112156111b957805161115681615af9565b946111638d519687614f84565b8186528a82840101116111b5577f0dda2aa47a3db5dda18a4f06501647c631e2c43e7e7876dbeaf21023b8266fb5936111a68d926111ac948d808a019101614e25565b01614fa5565b50919490610a6e565b8f80fd5b8e80fd5b8c80fd5b88513d8e823e3d90fd5b6111d490614f3b565b6111df57898b610a3a565b8980fd5b88513d84823e3d90fd5b855162461bcd60e51b81529182018490526015908201527414d95b1958dd081858d8dbdd5b9d1cc8199a5c9cdd605a1b6044820152606490fd5b90508481813d8311611255575b61123e8183614f84565b810103126111df5761124f90614fa5565b8b6109fd565b503d611234565b87513d8c823e3d90fd5b855162461bcd60e51b81529182018490526013908201527250726f6f6620616c726561647920757365642160681b6044820152606490fd5b90508481813d83116112cc575b6112b58183614f84565b810103126111df576112c690614fa5565b8b6109d2565b503d6112ab565b601e8860649386519362461bcd60e51b85528401528201527f526570617920796f7572206578697374696e67206465627420666972737400006044820152fd5b50503461072257602036600319011261072257602090611339611334614cae565b61629b565b15159051908152f35b505034610722578160031936011261072257602090517f742d8195bebb59905cedb6c02453745e9ef7090c163e7dea727ab0849b3dfc008152f35b505034610722578160031936011261072257602090517fa22cb6bd33c714cffaf72f196d1ebf87829cac5214f3ad84491fa8669ede7a6a8152f35b50503461072257816003193601126107225760209060ff60ab5460a01c1690519015158152f35b503461073657602036600319011261073657359160058310156114105750611408602092614ec6565b549051908152f35b80fd5b505034610722578060031936011261072257602091611430614cae565b82611439614cc4565b6001600160a01b03928316845260978652922091165f908152908352819020549051908152f35b505034610722578160031936011261072257602090517fb438992c2c4c65322b65fd8e2dacea9efd63443e69e5ed52f4a77ed6c78f7c2a8152f35b614ea4565b5034610736576020366003190112610736576114ba614cae565b60aa546001600160a01b039391929190841633036114eb575050166001600160601b0360a01b60a854161760a85580f35b51630925c89960e31b8152fd5b828434611410578060031936011261141057815191829160a15480855260208095019460a183527faadc37b8ba5645e62f4546802db221593a94729ccbfc5a97d01365a88f64987892905b82821061156957611565868661155b828b0383614f84565b5191829182614d1a565b0390f35b83546001600160a01b031687529586019560019384019390910190611543565b509034610736576020366003190112610736576115a4614cae565b60aa5490926001600160a01b03929091831633036114eb5750508060ac54921691826001600160601b0360a01b82161760ac5582611605575b167f7fc5e57c5215ef3b834df4680694bbed4808bf88ddc971b470cb8ef9365e63868380a380f35b6001600160a81b031981168317600160a01b1760ac556115dd565b509034610736576020806003193601126117275761163c614cae565b611645816159cf565b506116ef576001600160a01b0316808552609c82528285205490939060ff166116ae5750828452609c8152818420805460ff19166001179055609d905282204290557f7f62ed89ea2c6fb057e4ea77729c1d3f18056339791fce29ac89760197b45b298280a280f35b915162461bcd60e51b815291820152601b60248201527f4c69717569646174696f6e20616c7265616479207374617274656400000000006044820152606490fd5b50905162461bcd60e51b8152918201526013602482015272506f736974696f6e206973206865616c74687960681b6044820152606490fd5b8380fd5b50903461073657602036600319011261073657813560a4549261175160ff8516156154dd565b60ff1993841660011760a45560a6546001600160a01b031633036117ee574782116117ab575083808080938181156117a2575b3390f115611797575060a4541660a45580f35b51913d9150823e3d90fd5b506108fc611784565b606490602084519162461bcd60e51b8352820152601d60248201527f496e73756666696369656e7420636f6e74726163742062616c616e63650000006044820152fd5b608490602084519162461bcd60e51b8352820152602260248201527f4f6e6c79206c656e64696e67206d616e616765722063616e2063616c6c207468604482015261697360f01b6064820152fd5b509034610736578060031936011261073657611856614cae565b60aa54602435936001600160a01b039291831633036118b757620151808511611888575016835260b160205282205580f35b606490602085519162461bcd60e51b83528201526009602482015268546f6f206c6172676560b81b6044820152fd5b8351630925c89960e31b8152fd5b50903461073657806003193601126107365761190091356118fb60016118e9614cc4565b93838752606560205286200154616001565b616228565b80f35b5050346107225760203660031901126107225760209061093d611334614cae565b50503461072257816003193601126107225760aa5490516001600160a01b039091168152602090f35b5050346107225760203660031901126107225760209181906001600160a01b03611975614cae565b168152609b845220549051908152f35b509190346107225760603660031901126107225760aa548335919060243590604435906001600160a01b03163303611a42576119c460ad548510615306565b82518381018181106001600160401b03821117611a2f577f7543d68ffbde1802767cee31f14403e1b914f7249f14f2724e7398aa10de092395969750845282815260016020820183815287895260b4602052858920925183555191015582519182526020820152a280f35b604188634e487b7160e01b5f525260245ffd5b8251630925c89960e31b81528690fd5b50503461072257816003193601126107225760209060ff60a4541690519015158152f35b50503461072257816003193601126107225761156590611a94615cf8565b905191829182614d1a565b50503461072257816003193601126107225781908260a1545b808210611ac9576020848451908152f35b9092611af9600191611ada86614d5e565b848060a01b0391549060031b1c168752609a6020528487205490614fb2565b930190611ab8565b50346107365760c036600319011261073657611b1b614cae565b611b23614cc4565b611b2b614cda565b916064356001600160a01b0381811691829003610eae5760843594818616809603610eae5760a43594828616809603610eae5789549760ff8960081c16159889809a611e29575b8015611e12575b15611db85760ff1981166001178c5589611da7575b5060ff8b5460081c1615611d5057508290816001600160601b0360a01b96168660aa54161760aa55168460a554161760a555168260a654161760a6558160a754161760a75560a954161760a95580611d31575b5060ac805460ff60a01b19169055815190611bfb82614ef1565b605a8252611c25602092606484820152606e8582015260181960608201526032608082015261651d565b611c578351611c3381614ef1565b60508152605984820152607d8582015260091960608201526028608082015261651d565b611c878351611c6581614ef1565b60468152604f84820152608c85820152856060820152601e608082015261651d565b611cb88351611c9581614ef1565b603c815260458482015260a085820152600f60608201526014608082015261651d565b611ce78351611cc681614ef1565b858152603b8482015260c885820152601e606082015285608082015261651d565b662386f26fc1000060b255611cfa578280f35b7f7f26b83ff96e1f2b6a682f133852f6798a09c465da95921460cefb38474024989161ff001984541684555160018152a15f808280f35b60ab80546001600160a81b031916909117600160a01b1790555f611be1565b60849060208b519162461bcd60e51b8352820152602b60248201527f496e697469616c697a61626c653a20636f6e7472616374206973206e6f74206960448201526a6e697469616c697a696e6760a81b6064820152fd5b61ffff1916610101178b555f611b8e565b8a5162461bcd60e51b8152602081840152602e60248201527f496e697469616c697a61626c653a20636f6e747261637420697320616c72656160448201526d191e481a5b9a5d1a585b1a5e995960921b6064820152608490fd5b50303b158015611b795750600160ff821614611b79565b50600160ff821610611b72565b50503461072257816003193601126107225760a55490516001600160a01b039091168152602090f35b503461073657602036600319011261073657611e79614cae565b60aa546001600160a01b03919082163303611ef15716918215611eae5750506001600160601b0360a01b60a654161760a65580f35b906020606492519162461bcd60e51b8352820152601f60248201527f496e76616c6964206c656e64696e67206d616e616765722061646472657373006044820152fd5b8351630925c89960e31b81528390fd5b50503461072257816003193601126107225760209060a3549051908152f35b503461073657826003193601126107365760aa546001600160a01b03163303611f95575060207f228f455d7bc3d0b24a3a08d7847f391c3e78fc8aeb83acf226b7a96ee162b8ac9160ff60a45461ff00828260081c161560081b169061ff00191617918260a455519160081c1615158152a180f35b9051630925c89960e31b8152fd5b505034610722578160031936011261072257602090517facd38b7c4e04b2b78fc2ca994eae1a3eb206005ffa4c11fcf4a9d81c94684b2d8152f35b5050346107225760203660031901126107225760209181906001600160a01b03612006614cae565b168152609d845220549051908152f35b505034610722578160031936011261072257602090516203f4808152f35b5050346107225781600319360112610722576020905160828152f35b50503461072257816003193601126107225760209060b0549051908152f35b5050346107225781600319360112610722576020905167011c37937e0800008152f35b50503461072257816003193601126107225760209060af549051908152f35b50503461072257816003193601126107225760a95490516001600160a01b039091168152602090f35b5050346107225760203660031901126107225760209181906001600160a01b03612102614cae565b168152609a845220549051908152f35b503461073657602036600319011261073657359160a054831015611410575061213c602092614da7565b905491519160018060a01b039160031b1c168152f35b50346107365760203660031901126107365791819235815260b4602052206001815491015482519182526020820152f35b50503461072257816003193601126107225760209060ff60a45460081c1690519015158152f35b50503461072257816003193601126107225760a85490516001600160a01b039091168152602090f35b505034610722576020366003190112610722576020906121f1614cae565b505160508152f35b50503461072257816003193601126107225760ab5490516001600160a01b039091168152602090f35b503461073657826003193601126107365760aa546001600160a01b03163303611f95575060207f895b395338611f71448ee682a563b0c13233e238236eb6700d45720ec4bf44459160ff60ab548160a01b828260a01c161560a01b16908260a01b191617918260ab55519160a01c1615158152a180f35b50503461072257602036600319011261072257606091906203f480906001600160a01b036122c5614cae565b168352609c6020528060ff818520541693609d6020522054815193151584526020840152820152f35b5034610736578160031936011261073657612307614cae565b60ab54602435926001600160a01b0392918316330361236a5750916020917f4afae6838a181695abc7978598380d73bc2144eb38580c130f86e4b1e6531e15936123546064841115615a3f565b169384865260998352818187205551908152a280f35b606490602086519162461bcd60e51b8352820152601d60248201527f4f6e6c79206372656469742073797374656d2063616e207570646174650000006044820152fd5b82843461141057602036600319011261141057506123d16123cc614cae565b615b14565b90926123ee81519485948552606060208601526060850190614e46565b911515908301520390f35b509034610736578060031936011261073657612413614cae565b6024359160018060a01b03809216938486526020926098845260ff83882054161561262b5784156125f357338752609c845260ff83882054166125bb5790849133885260a28552838820805460ff811615612556575b505083516323b872dd60e01b815233928101928352306020840152604083019390935250909291908290849081906060015b038189895af1801561254c576124f8575b7ff1c0dd7e9b98bbff859029005ef89b127af049cd18df1a8d79f0b7e019911e56925084865260978252808620335f528252805f206124ec858254614fb2565b9055519283523392a380f35b8183813d8311612545575b61250d8183614f84565b810103126108155761253f7ff1c0dd7e9b98bbff859029005ef89b127af049cd18df1a8d79f0b7e019911e5693614fa5565b506124ac565b503d612503565b81513d88823e3d90fd5b60ff1916600117905560a15491925090600160401b8110156125a85784939261249b959261258b8360018a950160a155614d5e565b819291549060031b9133831b921b19161790559194819394612469565b604183634e487b7160e01b5f525260245ffd5b508161080292515f805160206166118339815191523391806125dc816153e3565b0390a25162461bcd60e51b815291829182016153e3565b508161080292515f8051602061661183398151915233918061261481615acc565b0390a25162461bcd60e51b81529182918201615acc565b508161080292515f8051602061661183398151915233918061264c81615388565b0390a25162461bcd60e51b81529182918201615388565b503461073657816003193601126107365761267c614cae565b6024359060a4549361269460ff8660081c1615614fd3565b6126a160ff8616156154dd565b60ff1994851660011760a45582156128de5760018060a01b0382169384875260209260978452828820335f52845284835f20541061289c57338852609a845282882054859291816127c0575b50509280929161273f94878a5260978352838a20335f528352835f20612714838254615014565b9055835163a9059cbb60e01b8152339181019182526020820192909252909485918291604090910190565b03818a895af180156127b657612771575b5f805160206165f18339815191529250519283523392a360a4541660a45580f35b8183813d83116127af575b6127868183614f84565b810103126127ab576127a55f805160206165f183398151915293614fa5565b50612750565b8680fd5b503d61277c565b81513d89823e3d90fd5b612827919293506127ff670de0b6b3a764000091898c5260978852868c20335f5288526127f96127f38a895f2054615014565b91615dbb565b9061503f565b049161280a336155e5565b60646128216128183361546e565b5050339461503f565b046163fc565b116128355783905f806126ed565b82608492519162461bcd60e51b8352820152603b60248201527f5769746864726177616c20776f756c642076696f6c61746520746965722d626160448201527f73656420636f6c6c61746572616c20726571756972656d656e747300000000006064820152fd5b5082606492519162461bcd60e51b8352820152601760248201527f496e73756666696369656e7420636f6c6c61746572616c0000000000000000006044820152fd5b5162461bcd60e51b815280610802818601615acc565b50503461072257816003193601126107225751908152602090f35b50503461072257816003193601126107225760a65490516001600160a01b039091168152602090f35b5050346107225760203660031901126107225760209061093d612959614cae565b615a80565b5050346107225781600319360112610722576020905160058152f35b614cff565b5090346107365760203660031901126107365761299a614cae565b60aa5490926001600160a01b03929091831633036114eb5750508060ab54921691826001600160601b0360a01b82161760ab55167f3637d79e8b0bd63fa3bcc41c2ab614b349b83626b91f73211bc80c6ec5ec4e958380a380f35b509034610736578060031936011261073657612a0f614cae565b60aa5460243592916001600160a01b039182163303612afa5716928315612ab857308414612a7e575081602091612a6a60647f4afae6838a181695abc7978598380d73bc2144eb38580c130f86e4b1e6531e15951115615a3f565b84865260998352818187205551908152a280f35b6020606492519162461bcd60e51b8352820152601560248201527424b73b30b634b21030b2323932b9b99d1039b2b63360591b6044820152fd5b6020606492519162461bcd60e51b8352820152601d60248201527f496e76616c696420616464726573733a207a65726f20616464726573730000006044820152fd5b8251630925c89960e31b81528590fd5b505034610722578160031936011261072257602090517f96737339a958f216173e690d06f324072e6dc3146e04c060bd723906d6b190768152f35b5050346107225760203660031901126107225760209160ff9082906001600160a01b03612b70614cae565b16815260a2855220541690519015158152f35b50913461141057602036600319011261141057612b9e614cae565b612bb0612baa826157d5565b9161546e565b926050808202935081159184041417159050612be9576020945060649004915080821015612be15750905b51908152f35b905090612bdb565b634e487b7160e01b835260118552602483fd5b503461073657816003193601126107365781602093612c19614cc4565b9235815260658552209060018060a01b03165f52825260ff815f20541690519015158152f35b8284346114105760203660031901126114105750612c63612c5e614cae565b6159cf565b825191151582526020820152f35b5050346107225760203660031901126107225760a090612c97612c92614cae565b615926565b93949190928251951515865215156020860152151590840152606083015215156080820152f35b5050346107225781600319360112610722576020905166b1a2bc2ec500008152f35b505034610722578160031936011261072257602090517fce802e42c93d0fbd61dfc706a0e806b78ac046397e07510da2f223464e4788e08152f35b50503461072257816003193601126107225760209060b2549051908152f35b505034610722578160031936011261072257602090517f0e0e24c52bc4f24612e3f568966757426acd82325205933a9270e1ce7c4d93c28152f35b509034610736578060031936011261073657612d8f614cae565b60243592612e0460018060a01b03612dac8160a6541633146158a0565b831694858752612def612dea602095609a87528988812055609b87528988812055609c8752878a2060ff198154169055609d875289888120556155e5565b614ec6565b612dfa828254615014565b905560b054614fb2565b60b055838552609f825260018386200180549160018301809311612e605750915f80516020616631833981519152939160809355600b8251928084528301526a3634b8bab4b230ba34b7b760a91b60608301524290820152a280f35b634e487b7160e01b875260119052602486fd5b5034610736578160031936011261073657612e8c614cae565b91612e95614cc4565b60aa5490936001600160a01b0393909184163303612ee6575082168085526098602052612ec760ff8387205416615789565b8452609e602052832091166001600160601b0360a01b82541617905580f35b8251630925c89960e31b8152fd5b50346107365760203660031901126107365760e09282906001600160a01b03612f1b614cae565b16815260b56020522080549260018201549260028301546003840154918401549260ff600660058701549601541695815197885260208801528601526060850152608084015260a0830152151560c0820152f35b5050346107225760203660031901126107225760209160ff9082906001600160a01b03612f9a614cae565b1681526098855220541690519015158152f35b509034610736576020928360031936011261141057612fca614cae565b9260a354612fdd60af5460b05490615014565b811561311357670de0b6b3a764000090818102918183041490151715613100579061300791615021565b935b60a7548451634fd41dad60e11b8152838101969096528690869060249082906001600160a01b03165afa9485156130f65783956130c5575b5061304b9061546e565b508591508381121561308857613065919293949550615890565b926127109384039284841161087a575050906130809161503f565b049051908152f35b9280841361309a575b50505050612bdb565b9091929394506127109384019283851161087a575050906130ba9161503f565b04905f808080613091565b9094508581813d83116130ef575b6130dd8183614f84565b81010312610eae57519361304b613041565b503d6130d3565b84513d85823e3d90fd5b634e487b7160e01b845260118352602484fd5b50508193613009565b5090346107365760203660031901126107365781359260ad54841015611410575061314860a093614e6b565b508054926001820154926002830154916003840154930154938151958652602086015284015260608301526080820152f35b503461073657602036600319011261073657613194614cae565b60aa5491906001600160a01b039081841633036131fb57169283156131c65750506001600160a01b0319161760aa5580f35b906020606492519162461bcd60e51b8352820152600f60248201526e496e76616c6964206164647265737360881b6044820152fd5b8451630925c89960e31b81528390fd5b509190346107225761321c36614ddc565b505060609160b654603c81018091116133d25761323a904211615519565b8151809160a15480835283602080940160a184527faadc37b8ba5645e62f4546802db221593a94729ccbfc5a97d01365a88f64987892845b868282106133b35750505061328992500384614f84565b613293835161585e565b938193825b815181101561331e576001600160a01b036132b38284615052565b5116808552609c865260ff84862054166132d1575b50600101613298565b609d8652838520546203f480810180911161330b5742106132c85786613304916132fe600194998b615052565b52615066565b95906132c8565b634e487b7160e01b865260118b52602486fd5b50849050858782156133a757506133348261585e565b935b82811061337f575050506115659061335a6133686001948351928391888301614d1a565b03601f198101835282614f84565b905b80805195869515158652850152830190614e46565b6001906001600160a01b036133948285615052565b51166133a08288615052565b5201613336565b9150506115659161336a565b85546001600160a01b0316845260019586019589955093019201613272565b634e487b7160e01b825260118552602482fd5b5050346107225760203660031901126107225760209061093d613406614cae565b6157d5565b50503461072257816003193601126107225760209060ff60ac5460a01c1690519015158152f35b50346107365760203660031901126107365761344c614cf0565b60aa549091906001600160a01b03163303612ee657507f895b395338611f71448ee682a563b0c13233e238236eb6700d45720ec4bf44459160209115159060ab5460ff60a01b8360a01b169060ff60a01b19161760ab5551908152a180f35b5050346107225760203660031901126107225760209181906001600160a01b036134d3614cae565b16815260b1845220549051908152f35b50503461072257602036600319011261072257611565613501614cae565b918060018060a01b03841694858152609a60205261352282822054956157d5565b958152609b60205220549051938493846040919493926060820195825260208201520152565b50503461072257816003193601126107225760209051600a8152f35b50503461072257816003193601126107225760209051603c8152f35b505034610722576020366003190112610722576020916001600160a01b03908290826135aa614cae565b16808252609886526135c160ff8484205416615789565b8152609e85522054169051908152f35b505034610722578160031936011261072257602090516103848152f35b505034610722578160031936011261072257602090516276a7008152f35b50503461072257816003193601126107225751600a47048152602090f35b509034610736578060031936011261073657613644614cae565b906024359182151592838103610eae5760aa546001600160a01b0392908316330361377c57821694858752609860205261368c828589209060ff801983541691151516179055565b60a0549187805b848110613752575b5081613749575b506136d8575b5050507f15f5cc64ca777db85f6c05fdba671568758b38329616d4d4b43bb8b092fe9a8d9160209151908152a280f35b600160401b8210156137365750917f15f5cc64ca777db85f6c05fdba671568758b38329616d4d4b43bb8b092fe9a8d939161371b8460016020960160a055614da7565b819291549060031b9188831b921b19161790559181936136a8565b604190634e487b7160e01b5f525260245ffd5b9050155f6136a2565b888661375d83614da7565b90549060031b1c161461377257600101613693565b505060015f61369b565b8351630925c89960e31b81528690fd5b5050346107225780600319360112610722576020916137a9614cae565b906001600160a01b03908390826137be614cc4565b168152609786522091165f528252805f20549051908152f35b505034610722576020366003190112610722576060906137fd6137f8614cae565b61568c565b919290815193151584526020840152820152f35b5050346107225760203660031901126107225780606092613830614cae565b8183805161383d81614f4e565b828152826020820152015260018060a01b03168152609f6020522090805161386481614f4e565b825492838252826002600183015492602085019384520154920191825282519384525160208401525190820152f35b50919034610722576020366003190112610722576138b76138b2614cae565b6155e5565b90519160058210156138cb57602083838152f35b634e487b7160e01b815260218452602490fd5b50503461072257816003193601126107225760209061093d61556f565b505034610722578160031936011261072257602090517f430b074324c1d9f1ce97c9e9efd8cc6b779c8a501b53808a5cafe19682f95dd58152f35b50346107365761394536614ddc565b60b693919354603c8101809111613adb57613961904211615519565b4260b6558301926020908181860312610815578035906001600160401b0382116127ab57019380601f8601121561081557843561399d81615558565b956139aa85519788614f84565b818752838088019260051b820101928311613ad7578301905b828210613ab857505050845b8451811015613ab4576001600160a01b03806139eb8388615052565b511690818852609c845260ff8589205416613a0b575b50506001016139cf565b609d8452848820546203f4808101809111613aa15790889291421015613a32575b50613a01565b60a65416803b1561073657855163bcebb1d760e01b8152308882019081526001600160a01b039093166020840152918391839182908490829060400103925af18015613a9757613a83575b80613a2c565b613a8c90614f3b565b61081557855f613a7d565b85513d84823e3d90fd5b634e487b7160e01b895260118752602489fd5b8580f35b81356001600160a01b0381168103610eae5781529083019083016139c3565b8780fd5b634e487b7160e01b865260118452602486fd5b50503461072257816003193601126107225780602092338152609a845220549051908152f35b505034610722578160031936011261072257602090517f5fef09193e4e8110de1cc5ba269e889a5fb9093ba33c4df4b67dc2eaa1ca1fff8152f35b50503461072257816003193601126107225760a454905160109190911c6001600160a01b03168152602090f35b505f366003190112610eae5760a45491613b9c60ff8460081c1615614fd3565b613ba960ff8416156154dd565b600160ff198094161760a455335f52602090609a8252805f20548015613ddc573415613daa57803411805f14613da35781945b335f52609a8552835f20613bf1878254615014565b9055613bff8660b054614fb2565b60b055613c0e612dea336155e5565b613c19878254615014565b9055335f52609f85526002845f200180549060018201809211613d9057908994939291558451858152600986820152681c995c185e5b595b9d60ba1b606082015242878201525f8051602061663183398151915260803392a2335f52609c8652845f2088815460ff8116613d7c575b505060a8546001600160a01b0316905080613d08575b5050613cdb575b5050907f0516911bcc3a0a7412a44601057c0a0a1ec628bde049a84284bc42886653448891519283523392a260a4541660a45580f35b8180613ce8819334615014565b818115613cff575b3390f11561072d57845f613ca5565b506108fc613cf0565b8091929394503b15610eae5784516340c10f1960e01b815233928101928352662386f26fc1000088046020840152915f91839182908490829060400103925af18015613d7257613d5d575b9081889392613c9e565b613d6991929750614f3b565b5f95905f613d53565b84513d5f823e3d90fd5b169055609d86525f858120555f8881613c88565b601183634e487b7160e01b5f525260245ffd5b3494613bdc565b505162461bcd60e51b815291820152600d60248201526c09aeae6e840e6cadcc8408aa89609b1b604482015260649150fd5b505162461bcd60e51b815291820152601060248201526f4e6f206465627420746f20726570617960801b604482015260649150fd5b8234610eae575f366003190112610eae5760209060b6549051908152f35b8234610eae576020366003190112610eae57606090613e54613e4f614cae565b61546e565b91929081519384526020840152820152f35b5034610eae576020366003190112610eae57359060a154821015610eae5761213c602092614d5e565b5034610eae5781600319360112610eae57613ea8614cc4565b90336001600160a01b03831603613ec657613ec4925035616228565b005b608490602084519162461bcd60e51b8352820152602f60248201527f416363657373436f6e74726f6c3a2063616e206f6e6c792072656e6f756e636560448201526e103937b632b9903337b91039b2b63360891b6064820152fd5b509034610eae576020366003190112610eae5760aa546001600160a01b031633036114eb57503560b255005b8234610eae575f366003190112610eae57602090517ffed613f2d4bec2209ff904769fa3c094c155ec5048c0bb2e17f16e523671ca2c8152f35b509034610eae5780600319360112610eae57613fa1614cae565b6024359160018060a01b039384831694855f526020936098855260ff845f205416156141e257865f5260978552835f20335f52855285845f2054106141aa57335f52609c855260ff845f2054166141895761402190670de0b6b3a764000061401a61401461400e336157d5565b93615dbb565b8961503f565b0490615014565b90606482029180830460641490151715613d9057602490335f52609a865285855f20549160a55416865193848092631ee1b90b60e21b82528c898301525afa90811561417f575f9161414e575b614078925061503f565b11614117579082846140a29493875f5260978352835f20335f528352835f20612714838254615014565b03815f895af1801561410d576140cc575b5f805160206165f18339815191529250519283523392a3005b8183813d8311614106575b6140e18183614f84565b81010312610eae576141005f805160206165f183398151915293614fa5565b506140b3565b503d6140d7565b50513d5f823e3d90fd5b8161080292515f805160206166118339815191523391806141378161541b565b0390a25162461bcd60e51b8152918291820161541b565b90508582813d8311614178575b6141658183614f84565b81010312610eae5761407891519061406e565b503d61415b565b85513d5f823e3d90fd5b610802838580515f805160206166118339815191523391806125dc816153e3565b610802838580515f805160206166118339815191523391806141cb816153b4565b0390a25162461bcd60e51b815291829182016153b4565b610802838580515f8051602061661183398151915233918061264c81615388565b5034610eae576020366003190112610eae5760e091614220614cae565b5f60c0835161422e81614f20565b82815282602082015282858201528260608201528260808201528260a0820152015260018060a01b03165f5260b5602052805f2081519161426e83614f20565b81549384845260018301549160208501928352600284015481860190815260038501549260608701938452850154936080870194855260c060ff600660058901549860a08b01998a5201541697019615158752825197885251602088015251908601525160608501525160808401525160a083015251151560c0820152f35b509034610eae5760c0366003190112610eae5760aa54823592906001600160a01b03163303611f955750614360613ec49261432b60ad548210615306565b82519261433784614ef1565b6024358452604435602085015260643590840152608435606084015260a4356080840152614e6b565b90615341565b5034610eae5781600319360112610eae573590614381614cc4565b90825f5260656020526143996001825f200154616001565b825f526065602052805f209160018060a01b031691825f5260205260ff815f205416156143c257005b825f526065602052805f20825f526020525f20600160ff1982541617905533917f2f8788117e7eff1d82e926ec794901d17c78024a50270940304540a733656f0d5f80a4005b5034610eae576020366003190112610eae5735906001600160401b0382168203610eae5761093d6020926152b6565b8234610eae575f366003190112610eae57805160a080548083525f918252602080840194927f78fdc8d422c49ced035a9edf18d00d3c6a8d81df210f3e5e448e045e77b41e8892915b82821061449857611565868661155b828b0383614f84565b83546001600160a01b031687529586019560019384019390910190614480565b509034610eae576020366003190112610eae57602091355f52606582526001815f2001549051908152f35b34610eae575f366003190112610eae57613ec4615074565b50905f366003190112610eae5761451a60ff60a45460081c1615614fd3565b335f52602060b58152815f20600681019360ff855416156147d5578082019182549283341061479257600382019182548042106147635762093a80810180911161475057804211614689575b5090600161459d92019461457b818754615014565b8655335f52609a8752614592885f20918254615014565b90555460b054614fb2565b60b05580549062278d008201809211613d905755335f52609f83526002845f2001805491600183018093116146765750907fd3cf6d8c55fed98c7b9f9d18d95a51dbdb316503bb854fc1f676c8974cb10f4f9291558351848152601385820152721a5b9cdd185b1b1b595b9d17dc185e5b595b9d606a1b606082015242848201525f8051602061663183398151915260803392a25492838151933485528401523392a21561464757005b805460ff19169055337f59bd56f70adeefb0cd83dca0f34f066bed6ee442068f3d07b5fc974b944d5aa65f80a2005b601190634e487b7160e01b5f525260245ffd5b614692336155e5565b600581101561473d579160019161459d94935f5260b48952620151806146be848c5f2001549242615014565b0480151580614734575b6146d7575b5050919250614566565b61470161271061016d6146f8878701946146f38654978861503f565b61503f565b04048093614fb2565b905589519081527fce0d6b567089a0bce35e0693cdb625006f0cf915f9f3686bb0343bc2c667c1b2893392a28a806146cd565b508115156146c8565b602186634e487b7160e01b5f525260245ffd5b601185634e487b7160e01b5f525260245ffd5b875162461bcd60e51b81528086018890526009602482015268546f6f206561726c7960b81b6044820152606490fd5b855162461bcd60e51b8152808401869052601860248201527f496e73756666696369656e7420696e7374616c6c6d656e7400000000000000006044820152606490fd5b835162461bcd60e51b8152908101839052600e60248201526d27379030b1ba34bb32903637b0b760911b6044820152606490fd5b8234610eae576020366003190112610eae576020906001600160a01b038061482f614cae565b165f52609e8352815f2054169051908152f35b8234610eae575f366003190112610eae57602090517f8b473ac3e35dc431c1dba0191b7615ccaca6bfeb14f9573dcaae9e614fbe8b208152f35b5034610eae576020366003190112610eae57614896614cae565b60aa546001600160a01b03919082163303611ef157169182156148ec5760b380546001600160a01b03191684179055827f279ea638680bba6a87fddd8bcdbc37d94eee92841e1dfec2ab0f79662c7093115f80a2005b906020606492519162461bcd60e51b8352820152601760248201527f496e76616c6964207265736572766520616464726573730000000000000000006044820152fd5b8234610eae576020366003190112610eae576001600160a01b03614951614cae565b165f52609f602052805f2090611565825491600260018501549401549051938493846040919493926060820195825260208201520152565b509034610eae576020366003190112610eae576149a4614cf0565b60aa549092906001600160a01b03163303611f95577fb01450010edba5be11857fe89630b2ff764d237a9f9f77ab651643effd8699886020838515159060ac5460ff60a01b8360a01b169060ff60a01b19161760ac5551908152a1005b8234610eae575f366003190112610eae5760209051600a8152f35b8234610eae575f366003190112610eae5760209051610e108152f35b8234610eae576020366003190112610eae5760209061093d613406614cae565b509034610eae5780600319360112610eae57614a72614cae565b9160243590335f52602093609c855260ff845f20541615614b545783516323b872dd60e01b815233928101928352306020840152604083018490526001600160a01b039091169185908290819060600103815f865af18015613d7257614b20575b505f5260978352815f20335f528352614af0825f20918254614fb2565b9055614afb336159cf565b50614b0257005b335f908152609c8352818120805460ff19169055609d909252812055005b8481813d8311614b4d575b614b358183614f84565b81010312610eae57614b4690614fa5565b5084614ad3565b503d614b2b565b835162461bcd60e51b8152808301869052601a60248201527f4163636f756e74206e6f7420696e206c69717569646174696f6e0000000000006044820152606490fd5b8234610eae576020366003190112610eae576020906001600160a01b03614bbc614cae565b165f52609c825260ff815f20541690519015158152f35b8234610eae575f366003190112610eae5760ac5490516001600160a01b039091168152602090f35b5034610eae576020366003190112610eae573563ffffffff60e01b8116809103610eae57602091637965db0b60e01b8214918215614c3d575b50519015158152f35b6301ffc9a760e01b14915083614c34565b8234610eae576020366003190112610eae57614c68614cae565b60aa549092906001600160a01b03163303614ca25760a4805462010000600160b01b031916601085901b62010000600160b01b0316179055005b630925c89960e31b8152fd5b600435906001600160a01b0382168203610eae57565b602435906001600160a01b0382168203610eae57565b604435906001600160a01b0382168203610eae57565b600435908115158203610eae57565b34610eae575f366003190112610eae57602047604051908152f35b60209060206040818301928281528551809452019301915f5b828110614d41575050505090565b83516001600160a01b031685529381019392810192600101614d33565b60a154811015614d935760a15f527faadc37b8ba5645e62f4546802db221593a94729ccbfc5a97d01365a88f64987801905f90565b634e487b7160e01b5f52603260045260245ffd5b60a054811015614d935760a05f527f78fdc8d422c49ced035a9edf18d00d3c6a8d81df210f3e5e448e045e77b41e8801905f90565b906020600319830112610eae576004356001600160401b0392838211610eae5780602383011215610eae578160040135938411610eae5760248483010111610eae576024019190565b5f5b838110614e365750505f910152565b8181015183820152602001614e27565b90602091614e5f81518092818552858086019101614e25565b601f01601f1916010190565b60ad54811015614d935760059060ad5f52027f0440fd76b4e685d17019b0eef836cea9994650028b99dddfb48be06fa4240aa601905f90565b34610eae575f366003190112610eae576020604051670de0b6b3a76400008152f35b6005811015614edd575f5260ae60205260405f2090565b634e487b7160e01b5f52602160045260245ffd5b60a081019081106001600160401b03821117614f0c57604052565b634e487b7160e01b5f52604160045260245ffd5b60e081019081106001600160401b03821117614f0c57604052565b6001600160401b038111614f0c57604052565b606081019081106001600160401b03821117614f0c57604052565b604081019081106001600160401b03821117614f0c57604052565b90601f801991011681019081106001600160401b03821117614f0c57604052565b51908115158203610eae57565b91908201809211614fbf57565b634e487b7160e01b5f52601160045260245ffd5b15614fda57565b60405162461bcd60e51b815260206004820152601260248201527110dbdb9d1c9858dd081a5cc81c185d5cd95960721b6044820152606490fd5b91908203918211614fbf57565b811561502b570490565b634e487b7160e01b5f52601260045260245ffd5b81810292918115918404141715614fbf57565b8051821015614d935760209160051b010190565b5f198114614fbf5760010190565b61507c615cf8565b5f5b815181101561511e576001600160a01b038061509a8385615052565b511690815f52602091609e8352604091825f2054166150bf575b50505060010161507e565b6150d66150ce610e1092615e88565b905042615014565b116150e157806150b4565b60a4805461ff00191661010017905551600181527f228f455d7bc3d0b24a3a08d7847f391c3e78fc8aeb83acf226b7a96ee162b8ac9350909150a1565b505060a354801515908161527f575b506151645760a15460a6545f91906001600160a01b03908116835b8381106151ca5750505080151591826151a0575b505061516457565b61010061ff001960a454161760a4557f228f455d7bc3d0b24a3a08d7847f391c3e78fc8aeb83acf226b7a96ee162b8ac602060405160018152a1565b909150606481029080820460641490151715614fbf576005916151c291615021565b115f8061515c565b6151d381614d5e565b905460408051632cf5889360e01b815230600482015260039390931b9190911c85166001600160a01b031660248301529060208082604481885afa92831561527657505f92615240575b505061522c575b600101615148565b93615238600191615066565b949050615224565b90809250813d831161526f575b6152578183614f84565b81010312610eae5761526890614fa5565b5f8061521d565b503d61524d565b513d5f823e3d90fd5b905061529060af5460b05490615014565b606481029080820460641490151715614fbf57605f916152af91615021565b115f61512d565b6001600160401b0380911661012c811115615300576103528110156152f95761012b1901818111614fbf578116606402808216908103614fbf5761022690041690565b5050606490565b50505f90565b1561530d57565b60405162461bcd60e51b815260206004820152600c60248201526b24b73b30b634b2103a34b2b960a11b6044820152606490fd5b9190615375576080816004925184556020810151600185015560408101516002850155606081015160038501550151910155565b634e487b7160e01b5f525f60045260245ffd5b606090602081526011602082015270151bdad95b881b9bdd08185b1b1bddd959607a1b60408201520190565b606090602081526014602082015273496e73756666696369656e742062616c616e636560601b60408201520190565b60609060208152601960208201527f4163636f756e7420697320696e206c69717569646174696f6e0000000000000060408201520190565b60809060208152603260208201527f5769746864726177616c20776f756c64206d616b6520706f736974696f6e20756040820152711b99195c98dbdb1b185d195c985b1a5e995960721b60608201520190565b615477906155e5565b6005811015614edd5761548990614e6b565b50906040519061549882614ef1565b825482526001830154602083015260646154d6608060028601549485604082015260046003880154978860608401520154918291015260a35461503f565b0491929190565b156154e457565b60405162461bcd60e51b815260206004820152600d60248201526c4e6f207265656e7472616e637960981b6044820152606490fd5b1561552057565b60405162461bcd60e51b815260206004820152601060248201526f155c1ad9595c081d1a1c9bdd1d1b195960821b6044820152606490fd5b6001600160401b038111614f0c5760051b60200190565b60a35480156155e0575f905f60a1545b8082106155a7575050606482029180830460641490151715614fbf576155a491615021565b90565b90926155d86001916155b886614d5e565b848060a01b0391549060031b1c165f52609a60205260405f205490614fb2565b93019061557f565b505f90565b6155ee9061629b565b60ad54905f5b8281106156145750505f198101908111614fbf576005811015614edd5790565b61561d81614e6b565b505482101580615643575b615634576001016155f4565b9150506005811015614edd5790565b50600161564f82614e6b565b500154821115615628565b90816060910312610eae5780516001600160401b0381168103610eae5791604061568660208401614fa5565b92015190565b60ac549060ff8260a01c16158015615778575b61576e5760405163d3dd2bdf60e01b81526001600160a01b0391821660048201529160609183916024918391165afa5f91829182918161573a575b506156eb575b5050505f905f905f90565b80615728575b80615712575b61570157806156e0565b61570a906152b6565b916001929190565b506276a7008201808311614fbf574211156156f7565b506001600160401b03811615156156f1565b91509250615760915060603d606011615767575b6157588183614f84565b81019061565a565b925f6156da565b503d61574e565b50505f905f905f90565b506001600160a01b0382161561569f565b1561579057565b60405162461bcd60e51b815260206004820152601f60248201527f546f6b656e206e6f7420616c6c6f77656420617320636f6c6c61746572616c006044820152606490fd5b905f916157e0615cf8565b925f5b8451811015615858576001600160a01b03806157ff8388615052565b511690815f5260209060978252604091825f209187165f52525f2054908161582c575b50506001016157e3565b92670de0b6b3a7640000615849615850936127f960019697615dbb565b0490614fb2565b91905f615822565b50925050565b9061586882615558565b6158756040519182614f84565b8281528092615886601f1991615558565b0190602036910137565b600160ff1b8114614fbf575f0390565b156158a757565b60405162461bcd60e51b815260206004820152601360248201527227b7363c902632b73234b733a6b0b730b3b2b960691b6044820152606490fd5b91908260c0910312610eae576158f782614fa5565b9161590460208201614fa5565b9161591160408301614fa5565b9160608101519160a061568660808401614fa5565b60ab546001600160a01b0390811691908261594a575050505f905f905f905f905f90565b602460c09260405194859384926335856b7f60e11b84521660048301525afa5f91829182918291829181615992575b5061598f5750505050505f905f905f905f905f90565b94565b9350945050506159ba915060c03d60c0116159c8575b6159b28183614f84565b8101906158e2565b50929491939092915f615979565b503d6159a8565b906159d9826157d5565b6001600160a01b0383165f908152609a6020526040902054928315615a33578115615a2957615a079061546e565b50509260648202918204606403614fbf57615a2191615021565b918210159190565b505090505f905f90565b50600192505f19919050565b15615a4657565b60405162461bcd60e51b815260206004820152601260248201527153636f7265206f7574206f662072616e676560701b6044820152606490fd5b6001600160a01b0381165f908152609a6020526040902054908115615ac557615aa8906157d5565b90606482029180830460641490151715614fbf576155a491615021565b50505f1990565b6060906020815260126020820152710416d6f756e74206d757374206265203e20360741b60408201520190565b6001600160401b038111614f0c57601f01601f191660200190565b60ac5460ff8160a01c1680615ce6575b615c07575b5060ab546001600160a01b039190821680615b79575b50165f52609960205260405f205490604051615b5a81614f69565b600d81526c4c4f43414c5f53544f5241474560981b6020820152905f90565b60c0602491604051928380926335856b7f60e11b825287871660048301525afa5f9181615be0575b5015615b3f578015615b3f5791505090604051615bbd81614f69565b6011815270494e54454752415445445f53595354454d60781b6020820152905f90565b615bfa91925060c03d60c0116159c8576159b28183614f84565b505092505050905f615ba1565b60405163d3dd2bdf60e01b81526001600160a01b038381166004830152909160609183916024918391165afa5f91815f915f93615cc1575b50615c4c575b5050615b29565b80615caf575b615c5d575b80615c45565b6276a7008101809111614fbf57421115615c775780615c57565b615c8191506152b6565b90604051615c8e81614f69565b600e81526d149254d0cc17d59154925192515160921b602082015290600190565b506001600160401b0382161515615c52565b91509250615cde915060603d606011615767576157588183614f84565b91925f615c3f565b506001600160a01b0381161515615b24565b60a0545f805b828110615d735750615d0f9061585e565b905f805b828110615d205750505090565b615d2981614da7565b905460039190911b1c6001600160a01b03165f8181526098602052604090205460ff16615d5a575b50600101615d13565b82615d6c916132fe6001949588615052565b9190615d51565b615d7c81614da7565b60018060a01b0391549060031b1c165f52609860205260ff60405f205416615da7575b600101615cfe565b90615db3600191615066565b919050615d9f565b60046020615dc883615e88565b509260018060a01b038091165f52609e825260405f2054166040519283809263313ce56760e01b82525afa8015615e66575f90615e29575b60ff91501660120360ff8111614fbf5760ff1690604d8211614fbf576155a491600a0a9061503f565b506020813d602011615e5e575b81615e4360209383614f84565b81010312610eae575160ff81168103610eae5760ff90615e00565b3d9150615e36565b6040513d5f823e3d90fd5b519069ffffffffffffffffffff82168203610eae57565b9060018060a01b03918281165f52609e602052604092835f2054168015615fc8579260a0600494825195868092633fabe5a360e21b82525afa801561410d575f80935f965f93615f6e575b50615ee7615ee18842615014565b91616542565b10615f3c5769ffffffffffffffffffff809116911610615f0657509190565b5162461bcd60e51b815260206004820152601060248201526f5374616c6520726f756e64206461746160801b6044820152606490fd5b825162461bcd60e51b815260206004820152600b60248201526a5374616c6520707269636560a81b6044820152606490fd5b94509550505060a0823d60a011615fc0575b81615f8d60a09383614f84565b81010312610eae57615f9e82615e71565b936020830151615fb5608060608601519501615e71565b95909395915f615ed3565b3d9150615f80565b835162461bcd60e51b8152602060048201526012602482015271141c9a58d94819995959081b9bdd081cd95d60721b6044820152606490fd5b805f52602060658152604091825f20335f52825260ff835f2054161561602657505050565b3383519161603383614f4e565b602a83528383019085368337835115614d93576030825383519260019360011015614d93576078602186015360295b8481116161e757506161625790855191608083018381106001600160401b03821117614f0c57875260428352858301936060368637835115614d935760308553835160011015614d9357607860218501536041905b8082116161a4575050616162576108029386936161469361613760489461610e9a519a8b957f416363657373436f6e74726f6c3a206163636f756e74200000000000000000008c8801525180926037880190614e25565b8401917001034b99036b4b9b9b4b733903937b6329607d1b603784015251809386840190614e25565b01036028810187520185614f84565b5192839262461bcd60e51b845260048401526024830190614e46565b60648587519062461bcd60e51b825280600483015260248201527f537472696e67733a20686578206c656e67746820696e73756666696369656e746044820152fd5b9091600f81166010811015614d93576f181899199a1a9b1b9c1cb0b131b232b360811b901a6161d384876165df565b5360041c918015614fbf575f1901906160b7565b90600f81166010811015614d93576f181899199a1a9b1b9c1cb0b131b232b360811b901a61621583886165df565b5360041c908015614fbf575f1901616062565b90815f52606560205260405f209060018060a01b031690815f5260205260ff60405f205416616255575050565b815f52606560205260405f20815f5260205260405f2060ff19815416905533917ff6391f5c32d9c69d2a47ea670b442974b53935d1edc7fd64eb21e047a839171b5f80a4565b60ac5460ff8160a01c16806163ea575b616339575b5060ab546001600160a01b0391908216806162d7575b50165f52609960205260405f205490565b60c0602491604051928380926335856b7f60e11b825287871660048301525afa5f9181616312575b50156162c65780156162c6575b91505090565b61632c91925060c03d60c0116159c8576159b28183614f84565b505092505050905f6162ff565b60405163d3dd2bdf60e01b81526001600160a01b038381166004830152909160609183916024918391165afa5f91815f915f936163c5575b5061637e575b50506162b0565b806163b3575b61638f575b80616377565b6276a7008101809111614fbf574211156163a95780616389565b6155a491506152b6565b506001600160401b0382161515616384565b915092506163e2915060603d606011615767576157588183614f84565b91925f616371565b506001600160a01b03811615156162ab565b916164069061629b565b906005811015614edd5761641981614e6b565b5050806164465750605f111561642c5790565b605f810290808204605f1490151715614fbf576064900490565b6001810361647d5750605581106164725750605a810290808204605a1490151715614fbf576064900490565b6052111561642c5790565b600281036164ca5750604b81106164a95750605581029080820460551490151715614fbf576064900490565b6048116155a457605c810290808204605c1490151715614fbf576064900490565b6003146164d5575090565b604181106164f85750605081029080820460501490151715614fbf576064900490565b603e11156165035790565b605a810290808204605a1490151715614fbf576064900490565b60ad5490600160401b821015614f0c57614360826001616540940160ad55614e6b565b565b6001600160a01b039081165f81815260b160205260409020549091908061630c575060209060a5541691602460405180948193631a650cc760e01b835260048301525afa908115615e66575f916165a5575b5061659f5761038490565b610e1090565b90506020813d6020116165d7575b816165c060209383614f84565b81010312610eae576165d190614fa5565b5f616594565b3d91506165b3565b908151811015614d9357016020019056fe45892a46e6cef329bb642da6d69846d324db43d19008edc141ed82382eda1bee3c364b9decdac59fbe037e99687219ac0feed46572bfbcbd5284b6b8e67f402d3f7c433051856ef6c6f502f4e60ac20498082f86a4d68de64f1a2d06924432c4a2646970667358221220d7f8e6d98dbc4ecea374f026b75524eccf7d44f354db06a8ae071d6ca92bb2e764736f6c63430008180033",
  "linkReferences": {},
  "deployedLinkReferences": {}
}