{
  "_format": "hh-sol-artifact-1",
  "contractName": "LiquidityPool",
  "sourceName": "contracts/LiquidityPool.sol",
  "abi": [
    {
      "inputs": [],
      "name": "OnlyTimelockLiquidityPool",
      "type": "error"
    },
    {
      "anonymous": false,
      "inputs": [
        {
          "indexed": true,
          "internalType": "address",
          "name": "user",
          "type": "address"
        },
        {
          "indexed": false,
          "internalType": "uint256",
          "name": "amount",
          "type": "uint256"
        }
      ],
      "name": "Borrowed",
      "type": "event"
    },
    {
      "anonymous": false,
      "inputs": [
        {
          "indexed": true,
          "internalType": "address",
          "name": "user",
          "type": "address"
        },
        {
          "indexed": true,
          "internalType": "address",
          "name": "token",
          "type": "address"
        },
        {
          "indexed": false,
          "internalType": "uint256",
          "name": "amount",
          "type": "uint256"
        }
      ],
      "name": "CollateralDeposited",
      "type": "event"
    },
    {
      "anonymous": false,
      "inputs": [
        {
          "indexed": true,
          "internalType": "address",
          "name": "token",
          "type": "address"
        },
        {
          "indexed": false,
          "internalType": "bool",
          "name": "isAllowed",
          "type": "bool"
        }
      ],
      "name": "CollateralTokenStatusChanged",
      "type": "event"
    },
    {
      "anonymous": false,
      "inputs": [
        {
          "indexed": true,
          "internalType": "address",
          "name": "user",
          "type": "address"
        },
        {
          "indexed": true,
          "internalType": "address",
          "name": "token",
          "type": "address"
        },
        {
          "indexed": false,
          "internalType": "uint256",
          "name": "amount",
          "type": "uint256"
        }
      ],
      "name": "CollateralWithdrawn",
      "type": "event"
    },
    {
      "anonymous": false,
      "inputs": [
        {
          "indexed": true,
          "internalType": "address",
          "name": "user",
          "type": "address"
        },
        {
          "indexed": false,
          "internalType": "uint256",
          "name": "score",
          "type": "uint256"
        }
      ],
      "name": "CreditScoreAssigned",
      "type": "event"
    },
    {
      "anonymous": false,
      "inputs": [
        {
          "indexed": true,
          "internalType": "address",
          "name": "oldContract",
          "type": "address"
        },
        {
          "indexed": true,
          "internalType": "address",
          "name": "newContract",
          "type": "address"
        }
      ],
      "name": "CreditScoreContractUpdated",
      "type": "event"
    },
    {
      "anonymous": false,
      "inputs": [
        {
          "indexed": false,
          "internalType": "bool",
          "name": "isPaused",
          "type": "bool"
        }
      ],
      "name": "EmergencyPaused",
      "type": "event"
    },
    {
      "anonymous": false,
      "inputs": [
        {
          "indexed": true,
          "internalType": "address",
          "name": "user",
          "type": "address"
        },
        {
          "indexed": false,
          "internalType": "uint256",
          "name": "amount",
          "type": "uint256"
        },
        {
          "indexed": false,
          "internalType": "string",
          "name": "feeType",
          "type": "string"
        },
        {
          "indexed": false,
          "internalType": "uint256",
          "name": "tier",
          "type": "uint256"
        }
      ],
      "name": "FeeCollected",
      "type": "event"
    },
    {
      "anonymous": false,
      "inputs": [
        {
          "indexed": true,
          "internalType": "address",
          "name": "user",
          "type": "address"
        },
        {
          "indexed": false,
          "internalType": "uint256",
          "name": "newDeadline",
          "type": "uint256"
        }
      ],
      "name": "GracePeriodExtended",
      "type": "event"
    },
    {
      "anonymous": false,
      "inputs": [
        {
          "indexed": false,
          "internalType": "uint8",
          "name": "version",
          "type": "uint8"
        }
      ],
      "name": "Initialized",
      "type": "event"
    },
    {
      "anonymous": false,
      "inputs": [
        {
          "indexed": true,
          "internalType": "address",
          "name": "user",
          "type": "address"
        },
        {
          "indexed": true,
          "internalType": "address",
          "name": "liquidator",
          "type": "address"
        },
        {
          "indexed": false,
          "internalType": "uint256",
          "name": "amount",
          "type": "uint256"
        }
      ],
      "name": "LiquidationExecuted",
      "type": "event"
    },
    {
      "anonymous": false,
      "inputs": [
        {
          "indexed": true,
          "internalType": "address",
          "name": "user",
          "type": "address"
        }
      ],
      "name": "LiquidationStarted",
      "type": "event"
    },
    {
      "anonymous": false,
      "inputs": [
        {
          "indexed": true,
          "internalType": "address",
          "name": "applicant",
          "type": "address"
        },
        {
          "indexed": false,
          "internalType": "uint256",
          "name": "amount",
          "type": "uint256"
        },
        {
          "indexed": false,
          "internalType": "uint256",
          "name": "collateral",
          "type": "uint256"
        }
      ],
      "name": "LoanApplied",
      "type": "event"
    },
    {
      "anonymous": false,
      "inputs": [
        {
          "indexed": true,
          "internalType": "address",
          "name": "applicant",
          "type": "address"
        },
        {
          "indexed": false,
          "internalType": "uint256",
          "name": "amount",
          "type": "uint256"
        }
      ],
      "name": "LoanApproved",
      "type": "event"
    },
    {
      "anonymous": false,
      "inputs": [
        {
          "indexed": true,
          "internalType": "address",
          "name": "borrower",
          "type": "address"
        },
        {
          "indexed": false,
          "internalType": "uint256",
          "name": "amount",
          "type": "uint256"
        },
        {
          "indexed": false,
          "internalType": "uint256",
          "name": "rate",
          "type": "uint256"
        }
      ],
      "name": "LoanDisbursed",
      "type": "event"
    },
    {
      "anonymous": false,
      "inputs": [
        {
          "indexed": true,
          "internalType": "address",
          "name": "borrower",
          "type": "address"
        }
      ],
      "name": "LoanFullyRepaid",
      "type": "event"
    },
    {
      "anonymous": false,
      "inputs": [
        {
          "indexed": true,
          "internalType": "address",
          "name": "borrower",
          "type": "address"
        },
        {
          "indexed": false,
          "internalType": "uint256",
          "name": "amount",
          "type": "uint256"
        },
        {
          "indexed": false,
          "internalType": "uint256",
          "name": "remaining",
          "type": "uint256"
        }
      ],
      "name": "LoanInstallmentPaid",
      "type": "event"
    },
    {
      "anonymous": false,
      "inputs": [
        {
          "indexed": true,
          "internalType": "address",
          "name": "borrower",
          "type": "address"
        },
        {
          "indexed": false,
          "internalType": "uint256",
          "name": "penalty",
          "type": "uint256"
        }
      ],
      "name": "LoanLatePenaltyApplied",
      "type": "event"
    },
    {
      "anonymous": false,
      "inputs": [
        {
          "indexed": true,
          "internalType": "address",
          "name": "applicant",
          "type": "address"
        },
        {
          "indexed": false,
          "internalType": "uint256",
          "name": "amount",
          "type": "uint256"
        }
      ],
      "name": "LoanRejected",
      "type": "event"
    },
    {
      "anonymous": false,
      "inputs": [
        {
          "indexed": true,
          "internalType": "address",
          "name": "user",
          "type": "address"
        },
        {
          "indexed": true,
          "internalType": "address",
          "name": "liquidator",
          "type": "address"
        },
        {
          "indexed": true,
          "internalType": "address",
          "name": "collateralToken",
          "type": "address"
        },
        {
          "indexed": false,
          "internalType": "uint256",
          "name": "collateralSeized",
          "type": "uint256"
        },
        {
          "indexed": false,
          "internalType": "uint256",
          "name": "debtRepaid",
          "type": "uint256"
        }
      ],
      "name": "PartialLiquidation",
      "type": "event"
    },
    {
      "anonymous": false,
      "inputs": [
        {
          "indexed": false,
          "internalType": "bool",
          "name": "useRISC0",
          "type": "bool"
        }
      ],
      "name": "RISC0ScoreToggled",
      "type": "event"
    },
    {
      "anonymous": false,
      "inputs": [
        {
          "indexed": true,
          "internalType": "address",
          "name": "user",
          "type": "address"
        },
        {
          "indexed": false,
          "internalType": "uint256",
          "name": "amount",
          "type": "uint256"
        }
      ],
      "name": "Repaid",
      "type": "event"
    },
    {
      "anonymous": false,
      "inputs": [
        {
          "indexed": true,
          "internalType": "address",
          "name": "newReserve",
          "type": "address"
        }
      ],
      "name": "ReserveAddressUpdated",
      "type": "event"
    },
    {
      "anonymous": false,
      "inputs": [
        {
          "indexed": true,
          "internalType": "bytes32",
          "name": "role",
          "type": "bytes32"
        },
        {
          "indexed": true,
          "internalType": "bytes32",
          "name": "previousAdminRole",
          "type": "bytes32"
        },
        {
          "indexed": true,
          "internalType": "bytes32",
          "name": "newAdminRole",
          "type": "bytes32"
        }
      ],
      "name": "RoleAdminChanged",
      "type": "event"
    },
    {
      "anonymous": false,
      "inputs": [
        {
          "indexed": true,
          "internalType": "bytes32",
          "name": "role",
          "type": "bytes32"
        },
        {
          "indexed": true,
          "internalType": "address",
          "name": "account",
          "type": "address"
        },
        {
          "indexed": true,
          "internalType": "address",
          "name": "sender",
          "type": "address"
        }
      ],
      "name": "RoleGranted",
      "type": "event"
    },
    {
      "anonymous": false,
      "inputs": [
        {
          "indexed": true,
          "internalType": "bytes32",
          "name": "role",
          "type": "bytes32"
        },
        {
          "indexed": true,
          "internalType": "address",
          "name": "account",
          "type": "address"
        },
        {
          "indexed": true,
          "internalType": "address",
          "name": "sender",
          "type": "address"
        }
      ],
      "name": "RoleRevoked",
      "type": "event"
    },
    {
      "anonymous": false,
      "inputs": [
        {
          "indexed": true,
          "internalType": "address",
          "name": "token",
          "type": "address"
        },
        {
          "indexed": false,
          "internalType": "uint256",
          "name": "updatedAt",
          "type": "uint256"
        },
        {
          "indexed": false,
          "internalType": "uint256",
          "name": "currentTime",
          "type": "uint256"
        }
      ],
      "name": "StaleOracleTriggered",
      "type": "event"
    },
    {
      "anonymous": false,
      "inputs": [
        {
          "indexed": true,
          "internalType": "uint256",
          "name": "tier",
          "type": "uint256"
        },
        {
          "indexed": false,
          "internalType": "uint256",
          "name": "originationFee",
          "type": "uint256"
        },
        {
          "indexed": false,
          "internalType": "uint256",
          "name": "lateFeeAPR",
          "type": "uint256"
        }
      ],
      "name": "TierFeeUpdated",
      "type": "event"
    },
    {
      "anonymous": false,
      "inputs": [
        {
          "indexed": true,
          "internalType": "address",
          "name": "user",
          "type": "address"
        },
        {
          "indexed": false,
          "internalType": "string",
          "name": "message",
          "type": "string"
        }
      ],
      "name": "UserError",
      "type": "event"
    },
    {
      "anonymous": false,
      "inputs": [
        {
          "indexed": true,
          "internalType": "address",
          "name": "user",
          "type": "address"
        },
        {
          "indexed": false,
          "internalType": "string",
          "name": "action",
          "type": "string"
        },
        {
          "indexed": false,
          "internalType": "uint256",
          "name": "timestamp",
          "type": "uint256"
        }
      ],
      "name": "UserHistoryUpdated",
      "type": "event"
    },
    {
      "inputs": [],
      "name": "ALLOW_COLLATERAL_PERMISSION",
      "outputs": [
        {
          "internalType": "bytes32",
          "name": "",
          "type": "bytes32"
        }
      ],
      "stateMutability": "view",
      "type": "function"
    },
    {
      "inputs": [],
      "name": "DEFAULT_ADMIN_ROLE",
      "outputs": [
        {
          "internalType": "bytes32",
          "name": "",
          "type": "bytes32"
        }
      ],
      "stateMutability": "view",
      "type": "function"
    },
    {
      "inputs": [],
      "name": "DEFAULT_LIQUIDATION_THRESHOLD",
      "outputs": [
        {
          "internalType": "uint256",
          "name": "",
          "type": "uint256"
        }
      ],
      "stateMutability": "view",
      "type": "function"
    },
    {
      "inputs": [],
      "name": "DEFAULT_STALENESS_STABLE",
      "outputs": [
        {
          "internalType": "uint256",
          "name": "",
          "type": "uint256"
        }
      ],
      "stateMutability": "view",
      "type": "function"
    },
    {
      "inputs": [],
      "name": "DEFAULT_STALENESS_VOLATILE",
      "outputs": [
        {
          "internalType": "uint256",
          "name": "",
          "type": "uint256"
        }
      ],
      "stateMutability": "view",
      "type": "function"
    },
    {
      "inputs": [],
      "name": "GRACE_PERIOD",
      "outputs": [
        {
          "internalType": "uint256",
          "name": "",
          "type": "uint256"
        }
      ],
      "stateMutability": "view",
      "type": "function"
    },
    {
      "inputs": [],
      "name": "LIQUIDATION_PENALTY",
      "outputs": [
        {
          "internalType": "uint256",
          "name": "",
          "type": "uint256"
        }
      ],
      "stateMutability": "view",
      "type": "function"
    },
    {
      "inputs": [],
      "name": "SAFETY_BUFFER",
      "outputs": [
        {
          "internalType": "uint256",
          "name": "",
          "type": "uint256"
        }
      ],
      "stateMutability": "view",
      "type": "function"
    },
    {
      "inputs": [],
      "name": "SCORE_EXPIRY_PERIOD",
      "outputs": [
        {
          "internalType": "uint256",
          "name": "",
          "type": "uint256"
        }
      ],
      "stateMutability": "view",
      "type": "function"
    },
    {
      "inputs": [],
      "name": "SET_ADMIN_PERMISSION",
      "outputs": [
        {
          "internalType": "bytes32",
          "name": "",
          "type": "bytes32"
        }
      ],
      "stateMutability": "view",
      "type": "function"
    },
    {
      "inputs": [],
      "name": "SET_CREDIT_SCORE_PERMISSION",
      "outputs": [
        {
          "internalType": "bytes32",
          "name": "",
          "type": "bytes32"
        }
      ],
      "stateMutability": "view",
      "type": "function"
    },
    {
      "inputs": [],
      "name": "SET_LENDING_MANAGER_PERMISSION",
      "outputs": [
        {
          "internalType": "bytes32",
          "name": "",
          "type": "bytes32"
        }
      ],
      "stateMutability": "view",
      "type": "function"
    },
    {
      "inputs": [],
      "name": "SET_MAX_PRICE_AGE_PERMISSION",
      "outputs": [
        {
          "internalType": "bytes32",
          "name": "",
          "type": "bytes32"
        }
      ],
      "stateMutability": "view",
      "type": "function"
    },
    {
      "inputs": [],
      "name": "SET_MIN_PARTIAL_LIQUIDATION_AMOUNT_PERMISSION",
      "outputs": [
        {
          "internalType": "bytes32",
          "name": "",
          "type": "bytes32"
        }
      ],
      "stateMutability": "view",
      "type": "function"
    },
    {
      "inputs": [],
      "name": "SET_PRICE_FEED_PERMISSION",
      "outputs": [
        {
          "internalType": "bytes32",
          "name": "",
          "type": "bytes32"
        }
      ],
      "stateMutability": "view",
      "type": "function"
    },
    {
      "inputs": [],
      "name": "SET_RESERVE_ADDRESS_PERMISSION",
      "outputs": [
        {
          "internalType": "bytes32",
          "name": "",
          "type": "bytes32"
        }
      ],
      "stateMutability": "view",
      "type": "function"
    },
    {
      "inputs": [],
      "name": "SET_TIER_FEE_PERMISSION",
      "outputs": [
        {
          "internalType": "bytes32",
          "name": "",
          "type": "bytes32"
        }
      ],
      "stateMutability": "view",
      "type": "function"
    },
    {
      "inputs": [],
      "name": "TOGGLE_PAUSE_PERMISSION",
      "outputs": [
        {
          "internalType": "bytes32",
          "name": "",
          "type": "bytes32"
        }
      ],
      "stateMutability": "view",
      "type": "function"
    },
    {
      "inputs": [],
      "name": "UPDATE_BORROW_TIER_PERMISSION",
      "outputs": [
        {
          "internalType": "bytes32",
          "name": "",
          "type": "bytes32"
        }
      ],
      "stateMutability": "view",
      "type": "function"
    },
    {
      "inputs": [],
      "name": "UPKEEP_COOLDOWN",
      "outputs": [
        {
          "internalType": "uint256",
          "name": "",
          "type": "uint256"
        }
      ],
      "stateMutability": "view",
      "type": "function"
    },
    {
      "inputs": [
        {
          "internalType": "address",
          "name": "token",
          "type": "address"
        }
      ],
      "name": "allowedCollateralTokens",
      "outputs": [
        {
          "internalType": "bool",
          "name": "",
          "type": "bool"
        }
      ],
      "stateMutability": "view",
      "type": "function"
    },
    {
      "inputs": [
        {
          "internalType": "address",
          "name": "server",
          "type": "address"
        }
      ],
      "name": "authorizeCreditScoreServer",
      "outputs": [],
      "stateMutability": "nonpayable",
      "type": "function"
    },
    {
      "inputs": [
        {
          "internalType": "address",
          "name": "provider",
          "type": "address"
        }
      ],
      "name": "authorizeCreditScoreStateRootProvider",
      "outputs": [],
      "stateMutability": "nonpayable",
      "type": "function"
    },
    {
      "inputs": [
        {
          "internalType": "address",
          "name": "",
          "type": "address"
        }
      ],
      "name": "authorizedCreditScoreServers",
      "outputs": [
        {
          "internalType": "bool",
          "name": "",
          "type": "bool"
        }
      ],
      "stateMutability": "view",
      "type": "function"
    },
    {
      "inputs": [
        {
          "internalType": "address",
          "name": "",
          "type": "address"
        }
      ],
      "name": "authorizedStateRootProviders",
      "outputs": [
        {
          "internalType": "bool",
          "name": "",
          "type": "bool"
        }
      ],
      "stateMutability": "view",
      "type": "function"
    },
    {
      "inputs": [
        {
          "internalType": "uint256",
          "name": "amount",
          "type": "uint256"
        }
      ],
      "name": "borrow",
      "outputs": [],
      "stateMutability": "payable",
      "type": "function"
    },
    {
      "inputs": [
        {
          "internalType": "uint256",
          "name": "",
          "type": "uint256"
        }
      ],
      "name": "borrowTierConfigs",
      "outputs": [
        {
          "internalType": "uint256",
          "name": "minScore",
          "type": "uint256"
        },
        {
          "internalType": "uint256",
          "name": "maxScore",
          "type": "uint256"
        },
        {
          "internalType": "uint256",
          "name": "collateralRatio",
          "type": "uint256"
        },
        {
          "internalType": "int256",
          "name": "interestRateModifier",
          "type": "int256"
        },
        {
          "internalType": "uint256",
          "name": "maxLoanAmount",
          "type": "uint256"
        }
      ],
      "stateMutability": "view",
      "type": "function"
    },
    {
      "inputs": [
        {
          "internalType": "address",
          "name": "",
          "type": "address"
        }
      ],
      "name": "borrowTimestamp",
      "outputs": [
        {
          "internalType": "uint256",
          "name": "",
          "type": "uint256"
        }
      ],
      "stateMutability": "view",
      "type": "function"
    },
    {
      "inputs": [
        {
          "internalType": "enum LiquidityPool.RiskTier",
          "name": "",
          "type": "uint8"
        }
      ],
      "name": "borrowedAmountByRiskTier",
      "outputs": [
        {
          "internalType": "uint256",
          "name": "",
          "type": "uint256"
        }
      ],
      "stateMutability": "view",
      "type": "function"
    },
    {
      "inputs": [
        {
          "internalType": "address",
          "name": "user",
          "type": "address"
        }
      ],
      "name": "calculateBorrowCapacity",
      "outputs": [
        {
          "internalType": "uint256",
          "name": "",
          "type": "uint256"
        }
      ],
      "stateMutability": "view",
      "type": "function"
    },
    {
      "inputs": [
        {
          "internalType": "address",
          "name": "user",
          "type": "address"
        }
      ],
      "name": "calculateCollateralValue",
      "outputs": [
        {
          "internalType": "uint256",
          "name": "",
          "type": "uint256"
        }
      ],
      "stateMutability": "view",
      "type": "function"
    },
    {
      "inputs": [
        {
          "internalType": "address",
          "name": "user",
          "type": "address"
        }
      ],
      "name": "calculateHealthFactor",
      "outputs": [
        {
          "internalType": "uint256",
          "name": "",
          "type": "uint256"
        }
      ],
      "stateMutability": "view",
      "type": "function"
    },
    {
      "inputs": [
        {
          "internalType": "address",
          "name": "user",
          "type": "address"
        }
      ],
      "name": "calculateLiquidation",
      "outputs": [
        {
          "internalType": "uint256",
          "name": "",
          "type": "uint256"
        },
        {
          "internalType": "uint256",
          "name": "",
          "type": "uint256"
        }
      ],
      "stateMutability": "view",
      "type": "function"
    },
    {
      "inputs": [
        {
          "internalType": "address",
          "name": "user",
          "type": "address"
        }
      ],
      "name": "calculateUserDebt",
      "outputs": [
        {
          "internalType": "uint256",
          "name": "",
          "type": "uint256"
        }
      ],
      "stateMutability": "view",
      "type": "function"
    },
    {
      "inputs": [
        {
          "internalType": "address",
          "name": "user",
          "type": "address"
        }
      ],
      "name": "canLend",
      "outputs": [
        {
          "internalType": "bool",
          "name": "",
          "type": "bool"
        }
      ],
      "stateMutability": "view",
      "type": "function"
    },
    {
      "inputs": [],
      "name": "checkCircuitBreakers",
      "outputs": [],
      "stateMutability": "nonpayable",
      "type": "function"
    },
    {
      "inputs": [
        {
          "internalType": "address",
          "name": "user",
          "type": "address"
        }
      ],
      "name": "checkCollateralization",
      "outputs": [
        {
          "internalType": "bool",
          "name": "isHealthy",
          "type": "bool"
        },
        {
          "internalType": "uint256",
          "name": "ratio",
          "type": "uint256"
        }
      ],
      "stateMutability": "view",
      "type": "function"
    },
    {
      "inputs": [
        {
          "internalType": "bytes",
          "name": "",
          "type": "bytes"
        }
      ],
      "name": "checkUpkeep",
      "outputs": [
        {
          "internalType": "bool",
          "name": "upkeepNeeded",
          "type": "bool"
        },
        {
          "internalType": "bytes",
          "name": "performData",
          "type": "bytes"
        }
      ],
      "stateMutability": "view",
      "type": "function"
    },
    {
      "inputs": [
        {
          "internalType": "address",
          "name": "token",
          "type": "address"
        },
        {
          "internalType": "address",
          "name": "user",
          "type": "address"
        },
        {
          "internalType": "address",
          "name": "to",
          "type": "address"
        },
        {
          "internalType": "uint256",
          "name": "amount",
          "type": "uint256"
        }
      ],
      "name": "clearCollateral",
      "outputs": [],
      "stateMutability": "nonpayable",
      "type": "function"
    },
    {
      "inputs": [
        {
          "internalType": "address",
          "name": "user",
          "type": "address"
        },
        {
          "internalType": "uint256",
          "name": "amount",
          "type": "uint256"
        }
      ],
      "name": "clearDebt",
      "outputs": [],
      "stateMutability": "nonpayable",
      "type": "function"
    },
    {
      "inputs": [
        {
          "internalType": "address",
          "name": "",
          "type": "address"
        },
        {
          "internalType": "address",
          "name": "",
          "type": "address"
        }
      ],
      "name": "collateralBalance",
      "outputs": [
        {
          "internalType": "uint256",
          "name": "",
          "type": "uint256"
        }
      ],
      "stateMutability": "view",
      "type": "function"
    },
    {
      "inputs": [
        {
          "internalType": "uint256",
          "name": "",
          "type": "uint256"
        }
      ],
      "name": "collateralTokenList",
      "outputs": [
        {
          "internalType": "address",
          "name": "",
          "type": "address"
        }
      ],
      "stateMutability": "view",
      "type": "function"
    },
    {
      "inputs": [
        {
          "internalType": "uint64",
          "name": "ficoScore",
          "type": "uint64"
        }
      ],
      "name": "convertFICOToContractScore",
      "outputs": [
        {
          "internalType": "uint256",
          "name": "",
          "type": "uint256"
        }
      ],
      "stateMutability": "pure",
      "type": "function"
    },
    {
      "inputs": [
        {
          "internalType": "address",
          "name": "",
          "type": "address"
        }
      ],
      "name": "creditScore",
      "outputs": [
        {
          "internalType": "uint256",
          "name": "",
          "type": "uint256"
        }
      ],
      "stateMutability": "view",
      "type": "function"
    },
    {
      "inputs": [],
      "name": "creditScoreContract",
      "outputs": [
        {
          "internalType": "contract ICreditScore",
          "name": "",
          "type": "address"
        }
      ],
      "stateMutability": "view",
      "type": "function"
    },
    {
      "inputs": [
        {
          "internalType": "address",
          "name": "token",
          "type": "address"
        },
        {
          "internalType": "uint256",
          "name": "amount",
          "type": "uint256"
        }
      ],
      "name": "depositCollateral",
      "outputs": [],
      "stateMutability": "nonpayable",
      "type": "function"
    },
    {
      "inputs": [
        {
          "internalType": "uint256",
          "name": "amount",
          "type": "uint256"
        },
        {
          "internalType": "address payable",
          "name": "to",
          "type": "address"
        }
      ],
      "name": "extract",
      "outputs": [],
      "stateMutability": "nonpayable",
      "type": "function"
    },
    {
      "inputs": [],
      "name": "getAdmin",
      "outputs": [
        {
          "internalType": "address",
          "name": "",
          "type": "address"
        }
      ],
      "stateMutability": "view",
      "type": "function"
    },
    {
      "inputs": [],
      "name": "getAllCollateralTokens",
      "outputs": [
        {
          "internalType": "address[]",
          "name": "",
          "type": "address[]"
        }
      ],
      "stateMutability": "view",
      "type": "function"
    },
    {
      "inputs": [],
      "name": "getAllUsers",
      "outputs": [
        {
          "internalType": "address[]",
          "name": "",
          "type": "address[]"
        }
      ],
      "stateMutability": "view",
      "type": "function"
    },
    {
      "inputs": [],
      "name": "getAllowedCollateralTokens",
      "outputs": [
        {
          "internalType": "address[]",
          "name": "",
          "type": "address[]"
        }
      ],
      "stateMutability": "view",
      "type": "function"
    },
    {
      "inputs": [],
      "name": "getAvailableLiquidity",
      "outputs": [
        {
          "internalType": "uint256",
          "name": "",
          "type": "uint256"
        }
      ],
      "stateMutability": "view",
      "type": "function"
    },
    {
      "inputs": [],
      "name": "getBalance",
      "outputs": [
        {
          "internalType": "uint256",
          "name": "",
          "type": "uint256"
        }
      ],
      "stateMutability": "view",
      "type": "function"
    },
    {
      "inputs": [],
      "name": "getBorrowRate",
      "outputs": [
        {
          "internalType": "uint256",
          "name": "",
          "type": "uint256"
        }
      ],
      "stateMutability": "pure",
      "type": "function"
    },
    {
      "inputs": [
        {
          "internalType": "address",
          "name": "user",
          "type": "address"
        }
      ],
      "name": "getBorrowTerms",
      "outputs": [
        {
          "internalType": "uint256",
          "name": "collateralRatio",
          "type": "uint256"
        },
        {
          "internalType": "int256",
          "name": "interestRateModifier",
          "type": "int256"
        },
        {
          "internalType": "uint256",
          "name": "maxLoanAmount",
          "type": "uint256"
        }
      ],
      "stateMutability": "view",
      "type": "function"
    },
    {
      "inputs": [
        {
          "internalType": "address",
          "name": "user",
          "type": "address"
        }
      ],
      "name": "getBorrowerRate",
      "outputs": [
        {
          "internalType": "uint256",
          "name": "",
          "type": "uint256"
        }
      ],
      "stateMutability": "view",
      "type": "function"
    },
    {
      "inputs": [
        {
          "internalType": "address",
          "name": "user",
          "type": "address"
        },
        {
          "internalType": "address",
          "name": "token",
          "type": "address"
        }
      ],
      "name": "getCollateral",
      "outputs": [
        {
          "internalType": "uint256",
          "name": "",
          "type": "uint256"
        }
      ],
      "stateMutability": "view",
      "type": "function"
    },
    {
      "inputs": [
        {
          "internalType": "address",
          "name": "user",
          "type": "address"
        }
      ],
      "name": "getCollateralReductionInfo",
      "outputs": [
        {
          "internalType": "enum LiquidityPool.RiskTier",
          "name": "currentTier",
          "type": "uint8"
        },
        {
          "internalType": "uint256",
          "name": "currentCollateralRatio",
          "type": "uint256"
        },
        {
          "internalType": "uint256",
          "name": "adjustedCollateralRatio",
          "type": "uint256"
        },
        {
          "internalType": "uint256",
          "name": "potentialReductionPercent",
          "type": "uint256"
        }
      ],
      "stateMutability": "view",
      "type": "function"
    },
    {
      "inputs": [
        {
          "internalType": "address",
          "name": "user",
          "type": "address"
        }
      ],
      "name": "getCreditScore",
      "outputs": [
        {
          "internalType": "uint256",
          "name": "",
          "type": "uint256"
        }
      ],
      "stateMutability": "view",
      "type": "function"
    },
    {
      "inputs": [],
      "name": "getExchangeRate",
      "outputs": [
        {
          "internalType": "uint256",
          "name": "",
          "type": "uint256"
        }
      ],
      "stateMutability": "pure",
      "type": "function"
    },
    {
      "inputs": [],
      "name": "getGlobalRiskMultiplier",
      "outputs": [
        {
          "internalType": "uint256",
          "name": "",
          "type": "uint256"
        }
      ],
      "stateMutability": "pure",
      "type": "function"
    },
    {
      "inputs": [],
      "name": "getGovernanceStatus",
      "outputs": [
        {
          "internalType": "bool",
          "name": "status",
          "type": "bool"
        }
      ],
      "stateMutability": "view",
      "type": "function"
    },
    {
      "inputs": [
        {
          "internalType": "address",
          "name": "token",
          "type": "address"
        }
      ],
      "name": "getLTV",
      "outputs": [
        {
          "internalType": "uint256",
          "name": "",
          "type": "uint256"
        }
      ],
      "stateMutability": "view",
      "type": "function"
    },
    {
      "inputs": [
        {
          "internalType": "address",
          "name": "user",
          "type": "address"
        }
      ],
      "name": "getLoan",
      "outputs": [
        {
          "components": [
            {
              "internalType": "uint256",
              "name": "principal",
              "type": "uint256"
            },
            {
              "internalType": "uint256",
              "name": "outstanding",
              "type": "uint256"
            },
            {
              "internalType": "uint256",
              "name": "interestRate",
              "type": "uint256"
            },
            {
              "internalType": "uint256",
              "name": "nextDueDate",
              "type": "uint256"
            },
            {
              "internalType": "uint256",
              "name": "installmentAmount",
              "type": "uint256"
            },
            {
              "internalType": "uint256",
              "name": "penaltyBps",
              "type": "uint256"
            },
            {
              "internalType": "bool",
              "name": "active",
              "type": "bool"
            }
          ],
          "internalType": "struct LiquidityPool.Loan",
          "name": "",
          "type": "tuple"
        }
      ],
      "stateMutability": "view",
      "type": "function"
    },
    {
      "inputs": [
        {
          "internalType": "address",
          "name": "user",
          "type": "address"
        }
      ],
      "name": "getLoanDetails",
      "outputs": [
        {
          "internalType": "uint256",
          "name": "principal",
          "type": "uint256"
        },
        {
          "internalType": "uint256",
          "name": "outstanding",
          "type": "uint256"
        },
        {
          "internalType": "uint256",
          "name": "interestRate",
          "type": "uint256"
        },
        {
          "internalType": "uint256",
          "name": "nextDueDate",
          "type": "uint256"
        },
        {
          "internalType": "uint256",
          "name": "installmentAmount",
          "type": "uint256"
        },
        {
          "internalType": "uint256",
          "name": "penaltyBps",
          "type": "uint256"
        },
        {
          "internalType": "bool",
          "name": "active",
          "type": "bool"
        },
        {
          "internalType": "uint256",
          "name": "daysUntilDue",
          "type": "uint256"
        },
        {
          "internalType": "uint256",
          "name": "latePenaltyIfPaidNow",
          "type": "uint256"
        },
        {
          "internalType": "uint256",
          "name": "totalInstallmentsRemaining",
          "type": "uint256"
        }
      ],
      "stateMutability": "view",
      "type": "function"
    },
    {
      "inputs": [
        {
          "internalType": "address",
          "name": "user",
          "type": "address"
        },
        {
          "internalType": "address",
          "name": "token",
          "type": "address"
        }
      ],
      "name": "getMaxWithdrawableCollateral",
      "outputs": [
        {
          "internalType": "uint256",
          "name": "maxWithdrawable",
          "type": "uint256"
        }
      ],
      "stateMutability": "view",
      "type": "function"
    },
    {
      "inputs": [],
      "name": "getMinCollateralRatio",
      "outputs": [
        {
          "internalType": "uint256",
          "name": "",
          "type": "uint256"
        }
      ],
      "stateMutability": "pure",
      "type": "function"
    },
    {
      "inputs": [],
      "name": "getMyDebt",
      "outputs": [
        {
          "internalType": "uint256",
          "name": "",
          "type": "uint256"
        }
      ],
      "stateMutability": "view",
      "type": "function"
    },
    {
      "inputs": [
        {
          "internalType": "address",
          "name": "token",
          "type": "address"
        }
      ],
      "name": "getPriceFeed",
      "outputs": [
        {
          "internalType": "address",
          "name": "",
          "type": "address"
        }
      ],
      "stateMutability": "view",
      "type": "function"
    },
    {
      "inputs": [],
      "name": "getProtocolReserves",
      "outputs": [
        {
          "internalType": "uint256",
          "name": "",
          "type": "uint256"
        }
      ],
      "stateMutability": "view",
      "type": "function"
    },
    {
      "inputs": [],
      "name": "getReserveFactor",
      "outputs": [
        {
          "internalType": "uint256",
          "name": "",
          "type": "uint256"
        }
      ],
      "stateMutability": "pure",
      "type": "function"
    },
    {
      "inputs": [
        {
          "internalType": "address",
          "name": "user",
          "type": "address"
        }
      ],
      "name": "getRiskTier",
      "outputs": [
        {
          "internalType": "enum LiquidityPool.RiskTier",
          "name": "",
          "type": "uint8"
        }
      ],
      "stateMutability": "view",
      "type": "function"
    },
    {
      "inputs": [
        {
          "internalType": "bytes32",
          "name": "role",
          "type": "bytes32"
        }
      ],
      "name": "getRoleAdmin",
      "outputs": [
        {
          "internalType": "bytes32",
          "name": "",
          "type": "bytes32"
        }
      ],
      "stateMutability": "view",
      "type": "function"
    },
    {
      "inputs": [],
      "name": "getSupplyRate",
      "outputs": [
        {
          "internalType": "uint256",
          "name": "",
          "type": "uint256"
        }
      ],
      "stateMutability": "pure",
      "type": "function"
    },
    {
      "inputs": [
        {
          "internalType": "address",
          "name": "token",
          "type": "address"
        }
      ],
      "name": "getTokenValue",
      "outputs": [
        {
          "internalType": "uint256",
          "name": "",
          "type": "uint256"
        }
      ],
      "stateMutability": "view",
      "type": "function"
    },
    {
      "inputs": [],
      "name": "getTotalBorrows",
      "outputs": [
        {
          "internalType": "uint256",
          "name": "",
          "type": "uint256"
        }
      ],
      "stateMutability": "view",
      "type": "function"
    },
    {
      "inputs": [
        {
          "internalType": "address",
          "name": "user",
          "type": "address"
        }
      ],
      "name": "getTotalCollateralValue",
      "outputs": [
        {
          "internalType": "uint256",
          "name": "",
          "type": "uint256"
        }
      ],
      "stateMutability": "view",
      "type": "function"
    },
    {
      "inputs": [],
      "name": "getTotalSupply",
      "outputs": [
        {
          "internalType": "uint256",
          "name": "",
          "type": "uint256"
        }
      ],
      "stateMutability": "view",
      "type": "function"
    },
    {
      "inputs": [
        {
          "internalType": "address",
          "name": "user",
          "type": "address"
        }
      ],
      "name": "getUserHistory",
      "outputs": [
        {
          "components": [
            {
              "internalType": "uint256",
              "name": "firstInteractionTimestamp",
              "type": "uint256"
            },
            {
              "internalType": "uint256",
              "name": "liquidations",
              "type": "uint256"
            },
            {
              "internalType": "uint256",
              "name": "succesfullPayments",
              "type": "uint256"
            }
          ],
          "internalType": "struct UserHistory",
          "name": "",
          "type": "tuple"
        }
      ],
      "stateMutability": "view",
      "type": "function"
    },
    {
      "inputs": [],
      "name": "getUtilizationRate",
      "outputs": [
        {
          "internalType": "uint256",
          "name": "",
          "type": "uint256"
        }
      ],
      "stateMutability": "view",
      "type": "function"
    },
    {
      "inputs": [],
      "name": "governanceStatus",
      "outputs": [
        {
          "internalType": "bool",
          "name": "",
          "type": "bool"
        }
      ],
      "stateMutability": "view",
      "type": "function"
    },
    {
      "inputs": [
        {
          "internalType": "bytes32",
          "name": "role",
          "type": "bytes32"
        },
        {
          "internalType": "address",
          "name": "account",
          "type": "address"
        }
      ],
      "name": "grantRole",
      "outputs": [],
      "stateMutability": "nonpayable",
      "type": "function"
    },
    {
      "inputs": [
        {
          "internalType": "bytes32",
          "name": "role",
          "type": "bytes32"
        },
        {
          "internalType": "address",
          "name": "account",
          "type": "address"
        }
      ],
      "name": "hasRole",
      "outputs": [
        {
          "internalType": "bool",
          "name": "",
          "type": "bool"
        }
      ],
      "stateMutability": "view",
      "type": "function"
    },
    {
      "inputs": [
        {
          "internalType": "address",
          "name": "user",
          "type": "address"
        }
      ],
      "name": "hasValidRISC0Score",
      "outputs": [
        {
          "internalType": "bool",
          "name": "hasValidScore",
          "type": "bool"
        },
        {
          "internalType": "uint256",
          "name": "score",
          "type": "uint256"
        },
        {
          "internalType": "uint256",
          "name": "timestamp",
          "type": "uint256"
        }
      ],
      "stateMutability": "view",
      "type": "function"
    },
    {
      "inputs": [
        {
          "internalType": "address",
          "name": "_timelock",
          "type": "address"
        },
        {
          "internalType": "address",
          "name": "_stablecoinManager",
          "type": "address"
        },
        {
          "internalType": "address",
          "name": "_lendingManager",
          "type": "address"
        },
        {
          "internalType": "address",
          "name": "_interestRateModel",
          "type": "address"
        }
      ],
      "name": "initialize",
      "outputs": [],
      "stateMutability": "nonpayable",
      "type": "function"
    },
    {
      "inputs": [],
      "name": "interestRateModel",
      "outputs": [
        {
          "internalType": "contract InterestRateModel",
          "name": "",
          "type": "address"
        }
      ],
      "stateMutability": "view",
      "type": "function"
    },
    {
      "inputs": [
        {
          "internalType": "address",
          "name": "",
          "type": "address"
        }
      ],
      "name": "isAllowedCollateral",
      "outputs": [
        {
          "internalType": "bool",
          "name": "",
          "type": "bool"
        }
      ],
      "stateMutability": "view",
      "type": "function"
    },
    {
      "inputs": [
        {
          "internalType": "address",
          "name": "",
          "type": "address"
        }
      ],
      "name": "isKnownUser",
      "outputs": [
        {
          "internalType": "bool",
          "name": "",
          "type": "bool"
        }
      ],
      "stateMutability": "view",
      "type": "function"
    },
    {
      "inputs": [
        {
          "internalType": "address",
          "name": "",
          "type": "address"
        }
      ],
      "name": "isLiquidatable",
      "outputs": [
        {
          "internalType": "bool",
          "name": "",
          "type": "bool"
        }
      ],
      "stateMutability": "view",
      "type": "function"
    },
    {
      "inputs": [],
      "name": "isPaused",
      "outputs": [
        {
          "internalType": "bool",
          "name": "",
          "type": "bool"
        }
      ],
      "stateMutability": "view",
      "type": "function"
    },
    {
      "inputs": [],
      "name": "lastUpkeep",
      "outputs": [
        {
          "internalType": "uint256",
          "name": "",
          "type": "uint256"
        }
      ],
      "stateMutability": "view",
      "type": "function"
    },
    {
      "inputs": [],
      "name": "lendingManager",
      "outputs": [
        {
          "internalType": "contract LendingManager",
          "name": "",
          "type": "address"
        }
      ],
      "stateMutability": "view",
      "type": "function"
    },
    {
      "inputs": [
        {
          "internalType": "address",
          "name": "user",
          "type": "address"
        }
      ],
      "name": "liquidationInfo",
      "outputs": [
        {
          "internalType": "bool",
          "name": "",
          "type": "bool"
        },
        {
          "internalType": "uint256",
          "name": "",
          "type": "uint256"
        },
        {
          "internalType": "uint256",
          "name": "",
          "type": "uint256"
        }
      ],
      "stateMutability": "view",
      "type": "function"
    },
    {
      "inputs": [
        {
          "internalType": "address",
          "name": "",
          "type": "address"
        }
      ],
      "name": "liquidationStartTime",
      "outputs": [
        {
          "internalType": "uint256",
          "name": "",
          "type": "uint256"
        }
      ],
      "stateMutability": "view",
      "type": "function"
    },
    {
      "inputs": [],
      "name": "liquidator",
      "outputs": [
        {
          "internalType": "address",
          "name": "",
          "type": "address"
        }
      ],
      "stateMutability": "view",
      "type": "function"
    },
    {
      "inputs": [
        {
          "internalType": "address",
          "name": "",
          "type": "address"
        }
      ],
      "name": "loans",
      "outputs": [
        {
          "internalType": "uint256",
          "name": "principal",
          "type": "uint256"
        },
        {
          "internalType": "uint256",
          "name": "outstanding",
          "type": "uint256"
        },
        {
          "internalType": "uint256",
          "name": "interestRate",
          "type": "uint256"
        },
        {
          "internalType": "uint256",
          "name": "nextDueDate",
          "type": "uint256"
        },
        {
          "internalType": "uint256",
          "name": "installmentAmount",
          "type": "uint256"
        },
        {
          "internalType": "uint256",
          "name": "penaltyBps",
          "type": "uint256"
        },
        {
          "internalType": "bool",
          "name": "active",
          "type": "bool"
        }
      ],
      "stateMutability": "view",
      "type": "function"
    },
    {
      "inputs": [],
      "name": "locked",
      "outputs": [
        {
          "internalType": "bool",
          "name": "",
          "type": "bool"
        }
      ],
      "stateMutability": "view",
      "type": "function"
    },
    {
      "inputs": [
        {
          "internalType": "address",
          "name": "",
          "type": "address"
        }
      ],
      "name": "maxPriceAge",
      "outputs": [
        {
          "internalType": "uint256",
          "name": "",
          "type": "uint256"
        }
      ],
      "stateMutability": "view",
      "type": "function"
    },
    {
      "inputs": [],
      "name": "minPartialLiquidationAmount",
      "outputs": [
        {
          "internalType": "uint256",
          "name": "",
          "type": "uint256"
        }
      ],
      "stateMutability": "view",
      "type": "function"
    },
    {
      "inputs": [],
      "name": "paused",
      "outputs": [
        {
          "internalType": "bool",
          "name": "",
          "type": "bool"
        }
      ],
      "stateMutability": "view",
      "type": "function"
    },
    {
      "inputs": [
        {
          "internalType": "bytes",
          "name": "performData",
          "type": "bytes"
        }
      ],
      "name": "performUpkeep",
      "outputs": [],
      "stateMutability": "nonpayable",
      "type": "function"
    },
    {
      "inputs": [
        {
          "internalType": "address",
          "name": "",
          "type": "address"
        }
      ],
      "name": "priceFeed",
      "outputs": [
        {
          "internalType": "address",
          "name": "",
          "type": "address"
        }
      ],
      "stateMutability": "view",
      "type": "function"
    },
    {
      "inputs": [
        {
          "internalType": "address",
          "name": "token",
          "type": "address"
        },
        {
          "internalType": "uint256",
          "name": "amount",
          "type": "uint256"
        }
      ],
      "name": "recoverFromLiquidation",
      "outputs": [],
      "stateMutability": "nonpayable",
      "type": "function"
    },
    {
      "inputs": [
        {
          "internalType": "bytes32",
          "name": "role",
          "type": "bytes32"
        },
        {
          "internalType": "address",
          "name": "account",
          "type": "address"
        }
      ],
      "name": "renounceRole",
      "outputs": [],
      "stateMutability": "nonpayable",
      "type": "function"
    },
    {
      "inputs": [],
      "name": "repay",
      "outputs": [],
      "stateMutability": "payable",
      "type": "function"
    },
    {
      "inputs": [],
      "name": "repayInstallment",
      "outputs": [],
      "stateMutability": "payable",
      "type": "function"
    },
    {
      "inputs": [],
      "name": "reserveAddress",
      "outputs": [
        {
          "internalType": "address",
          "name": "",
          "type": "address"
        }
      ],
      "stateMutability": "view",
      "type": "function"
    },
    {
      "inputs": [
        {
          "internalType": "address",
          "name": "user",
          "type": "address"
        }
      ],
      "name": "resetUsedCreditScore",
      "outputs": [],
      "stateMutability": "nonpayable",
      "type": "function"
    },
    {
      "inputs": [
        {
          "internalType": "bytes32",
          "name": "role",
          "type": "bytes32"
        },
        {
          "internalType": "address",
          "name": "account",
          "type": "address"
        }
      ],
      "name": "revokeRole",
      "outputs": [],
      "stateMutability": "nonpayable",
      "type": "function"
    },
    {
      "inputs": [
        {
          "internalType": "address",
          "name": "newAdmin",
          "type": "address"
        }
      ],
      "name": "setAdmin",
      "outputs": [],
      "stateMutability": "nonpayable",
      "type": "function"
    },
    {
      "inputs": [
        {
          "internalType": "address",
          "name": "token",
          "type": "address"
        },
        {
          "internalType": "bool",
          "name": "allowed",
          "type": "bool"
        }
      ],
      "name": "setAllowedCollateral",
      "outputs": [],
      "stateMutability": "nonpayable",
      "type": "function"
    },
    {
      "inputs": [
        {
          "internalType": "address",
          "name": "user",
          "type": "address"
        },
        {
          "internalType": "uint256",
          "name": "score",
          "type": "uint256"
        }
      ],
      "name": "setCreditScore",
      "outputs": [],
      "stateMutability": "nonpayable",
      "type": "function"
    },
    {
      "inputs": [
        {
          "internalType": "address",
          "name": "_creditScoreContract",
          "type": "address"
        }
      ],
      "name": "setCreditScoreContract",
      "outputs": [],
      "stateMutability": "nonpayable",
      "type": "function"
    },
    {
      "inputs": [
        {
          "internalType": "bool",
          "name": "status",
          "type": "bool"
        }
      ],
      "name": "setGovernanceStatus",
      "outputs": [],
      "stateMutability": "nonpayable",
      "type": "function"
    },
    {
      "inputs": [
        {
          "internalType": "address",
          "name": "_lendingManager",
          "type": "address"
        }
      ],
      "name": "setLendingManager",
      "outputs": [],
      "stateMutability": "nonpayable",
      "type": "function"
    },
    {
      "inputs": [
        {
          "internalType": "address",
          "name": "_liquidator",
          "type": "address"
        }
      ],
      "name": "setLiquidator",
      "outputs": [],
      "stateMutability": "nonpayable",
      "type": "function"
    },
    {
      "inputs": [
        {
          "internalType": "address",
          "name": "token",
          "type": "address"
        },
        {
          "internalType": "uint256",
          "name": "age",
          "type": "uint256"
        }
      ],
      "name": "setMaxPriceAge",
      "outputs": [],
      "stateMutability": "nonpayable",
      "type": "function"
    },
    {
      "inputs": [
        {
          "internalType": "uint256",
          "name": "amount",
          "type": "uint256"
        }
      ],
      "name": "setMinPartialLiquidationAmount",
      "outputs": [],
      "stateMutability": "nonpayable",
      "type": "function"
    },
    {
      "inputs": [
        {
          "internalType": "address",
          "name": "token",
          "type": "address"
        },
        {
          "internalType": "address",
          "name": "feed",
          "type": "address"
        }
      ],
      "name": "setPriceFeed",
      "outputs": [],
      "stateMutability": "nonpayable",
      "type": "function"
    },
    {
      "inputs": [
        {
          "internalType": "address",
          "name": "_reserve",
          "type": "address"
        }
      ],
      "name": "setReserveAddress",
      "outputs": [],
      "stateMutability": "nonpayable",
      "type": "function"
    },
    {
      "inputs": [
        {
          "internalType": "uint256",
          "name": "tier",
          "type": "uint256"
        },
        {
          "internalType": "uint256",
          "name": "originationFee",
          "type": "uint256"
        },
        {
          "internalType": "uint256",
          "name": "lateFeeAPR",
          "type": "uint256"
        }
      ],
      "name": "setTierFee",
      "outputs": [],
      "stateMutability": "nonpayable",
      "type": "function"
    },
    {
      "inputs": [
        {
          "internalType": "address",
          "name": "_votingToken",
          "type": "address"
        }
      ],
      "name": "setVotingToken",
      "outputs": [],
      "stateMutability": "nonpayable",
      "type": "function"
    },
    {
      "inputs": [],
      "name": "stablecoinManager",
      "outputs": [
        {
          "internalType": "contract StablecoinManager",
          "name": "",
          "type": "address"
        }
      ],
      "stateMutability": "view",
      "type": "function"
    },
    {
      "inputs": [
        {
          "internalType": "address",
          "name": "user",
          "type": "address"
        }
      ],
      "name": "startLiquidation",
      "outputs": [],
      "stateMutability": "nonpayable",
      "type": "function"
    },
    {
      "inputs": [
        {
          "internalType": "bytes4",
          "name": "interfaceId",
          "type": "bytes4"
        }
      ],
      "name": "supportsInterface",
      "outputs": [
        {
          "internalType": "bool",
          "name": "",
          "type": "bool"
        }
      ],
      "stateMutability": "view",
      "type": "function"
    },
    {
      "inputs": [
        {
          "internalType": "uint256",
          "name": "",
          "type": "uint256"
        }
      ],
      "name": "tierFees",
      "outputs": [
        {
          "internalType": "uint256",
          "name": "originationFee",
          "type": "uint256"
        },
        {
          "internalType": "uint256",
          "name": "lateFeeAPR",
          "type": "uint256"
        }
      ],
      "stateMutability": "view",
      "type": "function"
    },
    {
      "inputs": [],
      "name": "timelock",
      "outputs": [
        {
          "internalType": "address",
          "name": "",
          "type": "address"
        }
      ],
      "stateMutability": "view",
      "type": "function"
    },
    {
      "inputs": [],
      "name": "togglePause",
      "outputs": [],
      "stateMutability": "nonpayable",
      "type": "function"
    },
    {
      "inputs": [
        {
          "internalType": "bool",
          "name": "_useRISC0",
          "type": "bool"
        }
      ],
      "name": "toggleRISC0CreditScores",
      "outputs": [],
      "stateMutability": "nonpayable",
      "type": "function"
    },
    {
      "inputs": [],
      "name": "totalBorrowedAllTime",
      "outputs": [
        {
          "internalType": "uint256",
          "name": "",
          "type": "uint256"
        }
      ],
      "stateMutability": "view",
      "type": "function"
    },
    {
      "inputs": [],
      "name": "totalFunds",
      "outputs": [
        {
          "internalType": "uint256",
          "name": "",
          "type": "uint256"
        }
      ],
      "stateMutability": "view",
      "type": "function"
    },
    {
      "inputs": [],
      "name": "totalRepaidAllTime",
      "outputs": [
        {
          "internalType": "uint256",
          "name": "",
          "type": "uint256"
        }
      ],
      "stateMutability": "view",
      "type": "function"
    },
    {
      "inputs": [
        {
          "internalType": "uint256",
          "name": "tierIndex",
          "type": "uint256"
        },
        {
          "internalType": "uint256",
          "name": "minScore",
          "type": "uint256"
        },
        {
          "internalType": "uint256",
          "name": "maxScore",
          "type": "uint256"
        },
        {
          "internalType": "uint256",
          "name": "collateralRatio",
          "type": "uint256"
        },
        {
          "internalType": "int256",
          "name": "interestRateModifier",
          "type": "int256"
        },
        {
          "internalType": "uint256",
          "name": "maxLoanAmount",
          "type": "uint256"
        }
      ],
      "name": "updateBorrowTier",
      "outputs": [],
      "stateMutability": "nonpayable",
      "type": "function"
    },
    {
      "inputs": [],
      "name": "useRISC0CreditScores",
      "outputs": [
        {
          "internalType": "bool",
          "name": "",
          "type": "bool"
        }
      ],
      "stateMutability": "view",
      "type": "function"
    },
    {
      "inputs": [
        {
          "internalType": "address",
          "name": "",
          "type": "address"
        }
      ],
      "name": "usedCreditScores",
      "outputs": [
        {
          "internalType": "bool",
          "name": "",
          "type": "bool"
        }
      ],
      "stateMutability": "view",
      "type": "function"
    },
    {
      "inputs": [
        {
          "internalType": "address",
          "name": "",
          "type": "address"
        }
      ],
      "name": "userDebt",
      "outputs": [
        {
          "internalType": "uint256",
          "name": "",
          "type": "uint256"
        }
      ],
      "stateMutability": "view",
      "type": "function"
    },
    {
      "inputs": [
        {
          "internalType": "address",
          "name": "",
          "type": "address"
        }
      ],
      "name": "userHistory",
      "outputs": [
        {
          "internalType": "uint256",
          "name": "firstInteractionTimestamp",
          "type": "uint256"
        },
        {
          "internalType": "uint256",
          "name": "liquidations",
          "type": "uint256"
        },
        {
          "internalType": "uint256",
          "name": "succesfullPayments",
          "type": "uint256"
        }
      ],
      "stateMutability": "view",
      "type": "function"
    },
    {
      "inputs": [
        {
          "internalType": "address",
          "name": "user",
          "type": "address"
        }
      ],
      "name": "userPositions",
      "outputs": [
        {
          "internalType": "uint256",
          "name": "",
          "type": "uint256"
        },
        {
          "internalType": "uint256",
          "name": "",
          "type": "uint256"
        },
        {
          "internalType": "uint256",
          "name": "",
          "type": "uint256"
        }
      ],
      "stateMutability": "view",
      "type": "function"
    },
    {
      "inputs": [
        {
          "internalType": "uint256",
          "name": "",
          "type": "uint256"
        }
      ],
      "name": "users",
      "outputs": [
        {
          "internalType": "address",
          "name": "",
          "type": "address"
        }
      ],
      "stateMutability": "view",
      "type": "function"
    },
    {
      "inputs": [],
      "name": "votingToken",
      "outputs": [
        {
          "internalType": "contract VotingToken",
          "name": "",
          "type": "address"
        }
      ],
      "stateMutability": "view",
      "type": "function"
    },
    {
      "inputs": [
        {
          "internalType": "address",
          "name": "token",
          "type": "address"
        },
        {
          "internalType": "uint256",
          "name": "amount",
          "type": "uint256"
        }
      ],
      "name": "withdrawCollateral",
      "outputs": [],
      "stateMutability": "nonpayable",
      "type": "function"
    },
    {
      "inputs": [
        {
          "internalType": "uint256",
          "name": "amount",
          "type": "uint256"
        }
      ],
      "name": "withdrawForLendingManager",
      "outputs": [],
      "stateMutability": "nonpayable",
      "type": "function"
    },
    {
      "inputs": [
        {
          "internalType": "address",
          "name": "token",
          "type": "address"
        },
        {
          "internalType": "uint256",
          "name": "amount",
          "type": "uint256"
        }
      ],
      "name": "withdrawPartialCollateral",
      "outputs": [],
      "stateMutability": "nonpayable",
      "type": "function"
    },
    {
      "stateMutability": "payable",
      "type": "receive"
    }
  ],
  "bytecode": "0x608080604052346100175761655e90816200001c8239f35b5f80fdfe6080604081815260048036101561002f575b505050361561001e575f80fd5b61002a3460a354615084565b60a355005b5f925f3560e01c90816301c76f8114614cdc5750806301ffc9a714614c8957806303a42b6f14614c61578063042e02cf14614c2557806305510b9114614b53578063080d9c2b14614a145780630835e145146149f45780630b044c79146149d85780630ef7fb67146149bd5780630f61b81014614945578063100cd71d146148eb57806312065fe0146128e457806314673d31146148385780631bfe4261146147fe5780631fd48b9a146147c557806320dfcae1146144a9578063213180891461446d578063238ebfc31461443157806323fe5a3314614419578063248a9ca3146143ee578063255a59cb146143a65780632a205d941461436a5780632a28ec44146142e95780632a7beafe146142ba5780632f2ff15d1461421857806330332f9f1461419f57806333481fc9146140b5578063350c35e914613e39578063357619a914613dff57806335f6798114613dd357806336568abe14613d41578063365b98b214613d1857806338053ef314613ce05780633d7c5d3e14613cc2578063402d888314613a1b5780634046ebae146139ee578063418eea31146139b3578063450a375a1461398d5780634585e33b146137d5578063488683cd1461379a5780634a417a531461377d5780634a6922041461141b5780634c8f35ab146120d85780634c95da661461374b5780634fb3d3b1146136c95780635141df411461368f57806352226ef01461364457806355f4d9e2146134e2578063594ad93f146134c457806359705bb3146134a65780635a70348f14612e7f5780635b66e7fc146134895780635b6cca80146134385780635c44f10d1461341c5780635c975abb1461228a5780635f558e5314613400578063613cf4201461339b5780636579b73e1461336357806369ff0a0d1461333c5780636c648fc4146133165780636e04ff0d1461313c5780636e9960c314611519578063704b6c02146130ab57806370ed11bc1461304d57806372ed9f7b14612ebd5780637346f48614612e7f57806373b4086b14612e0457806376e1128614612d8357806378974cbb14612c825780637a8ce68b14612c47578063802937ac14612c2857806383475f0c14612bed57806383ae73451461219957806384bdc9a814612bcb5780638e6b53bc14612b9957806391d1485414612b5657806393a517a214612ad75780639490a51e14612a9957806395eb0d1514612a6b578063962a0da514612a30578063968ed60014611fa557806397ed81cf146128e95780639b745aec146128e45780639b8621d5146128c85780639ce625f7146128a25780639e3b77af14612879578063a217fddf1461285e578063a36e4ad6146125bf578063a5d5db0c14612355578063a787572e14612300578063a8cf4b521461106f578063aca25f9a146122da578063b0340123146122b1578063b187bd261461228a578063b3075fb714612259578063b3a5a0a214612219578063b43d6f63146121d1578063b69e5c7714612199578063b8cdf5611461217a578063ba1c5e8014612157578063bc3d5a3e14612138578063bf78e6a0146120f4578063c129d504146120d8578063c1a287e2146120ba578063c23c69d514612082578063c39537e114612047578063c4ae316814611fc4578063c4e41b2214611fa5578063c5ebeaec146117c1578063c869d0ed1461171f578063c941f321146116f6578063cc484c5c14611694578063cf1762251461166b578063cf30901214611647578063d1f151c11461157a578063d29255f914611542578063d33219b414611519578063d3dd2bdf146114f8578063d547741f146114ba578063ddac7f1b1461143f578063de3d9f5d1461141b578063e19fb8f5146112fb578063e1c50100146111f4578063e1f7c2c91461115d578063e2842d79146110cc578063e2d7462814611074578063e6aa216c1461106f578063e6ae357614611034578063e7602b9d14610fe7578063e84bae4514610fb6578063e8a7da8e14610d71578063e9ffb29114610d36578063eb8d655114610cfb578063ebdcc16414610ccc578063f0b558ae14610c79578063f1c5d6c214610c4c578063f3fdb15a14610c23578063f79ed94b14610bfa578063f7e590ee14610bc2578063f8c8765e146108d0578063fbbff3d11461085c578063feb50e521461075b5763ffd4aedb0361001157346107575760803660031901126107575761070391610679614d3c565b610681614d52565b9261068a614d68565b90606435918760018060a01b0380956106a88260a65416331461583c565b169283825260209788966097885288842091165f528652865f206106cd868254614fd1565b9055865163a9059cbb60e01b81526001600160a01b03909316908301908152602081019490945290968793849291839160400190565b03925af190811561074e5750610717578280f35b81813d8311610747575b61072b8183615056565b810103126107435761073c90615077565b505f808280f35b5080fd5b503d610721565b513d85823e3d90fd5b8280fd5b50903461075757806003193601126107575781356024356001600160a01b03818116918290036108585760a9541633036108495781471061082e578480809381935af13d15610829573d6001600160401b038111610816578251906107ca601f8201601f191660200183615056565b81528460203d92013e5b156107dd578280f35b906020606492519162461bcd60e51b83528201526013602482015272115512081d1c985b9cd9995c8819985a5b1959606a1b6044820152fd5b604184634e487b7160e01b5f525260245ffd5b6107d4565b825162461bcd60e51b815280610845818701615434565b0390fd5b505051630925c89960e31b8152fd5b8580fd5b5082903461074357602036600319011261074357610878614d3c565b6001600160a01b0381168352609a60205283832054929061089890615771565b916005840293808504600514901517156108bd57505060648351920482526020820152f35b634e487b7160e01b825260119052602490fd5b50346107575760809081600319360112610bbe576108ec614d3c565b6108f4614d52565b906108fd614d68565b6064356001600160a01b0381811694909291859003610bba5788549560ff8760081c161596878098610bad575b8015610b96575b15610b3c5760ff1981166001178b5587610b2b575b5060ff8a5460081c1615610ad457508290816001600160601b0360a01b95168560a954161760a955168360a554161760a555168160a654161760a65560a754161760a75560ff60a01b1960aa541660aa55610a8a8351926109a684614fde565b605a84526109cf602094606486820152606e8782015260181960608201526032838201526163ef565b610a0085516109dd81614fde565b60508152605986820152607d8782015260091960608201526028838201526163ef565b610a2f8551610a0e81614fde565b60468152604f86820152608c87820152876060820152601e838201526163ef565b610a5f8551610a3d81614fde565b603c815260458682015260a087820152600f60608201526014838201526163ef565b85855191610a6c83614fde565b818352603b8684015260c887840152601e60608401528201526163ef565b662386f26fc1000060b155610a9d578280f35b7f7f26b83ff96e1f2b6a682f133852f6798a09c465da95921460cefb38474024989161ff001984541684555160018152a15f808280f35b60849060208a519162461bcd60e51b8352820152602b60248201527f496e697469616c697a61626c653a20636f6e7472616374206973206e6f74206960448201526a6e697469616c697a696e6760a81b6064820152fd5b61ffff1916610101178a555f610946565b895162461bcd60e51b8152602081840152602e60248201527f496e697469616c697a61626c653a20636f6e747261637420697320616c72656160448201526d191e481a5b9a5d1a585b1a5e995960921b6064820152608490fd5b50303b1580156109315750600160ff821614610931565b50600160ff82161061092a565b5f80fd5b8380fd5b5050346107435760203660031901126107435760209181906001600160a01b03610bea614d3c565b1681526099845220549051908152f35b50503461074357816003193601126107435760b25490516001600160a01b039091168152602090f35b50503461074357816003193601126107435760a75490516001600160a01b039091168152602090f35b50503461074357602036600319011261074357602090610c72610c6d614d3c565b615afd565b9051908152f35b503461075757602036600319011261075757610c93614d3c565b60a9546001600160a01b03929083163303610cbe575016825260ab6020528120805460ff1916905580f35b8351630925c89960e31b8152fd5b50503461074357602036600319011261074357602090610cf2610ced614d3c565b616164565b15159051908152f35b505034610743578160031936011261074357602090517f742d8195bebb59905cedb6c02453745e9ef7090c163e7dea727ab0849b3dfc008152f35b505034610743578160031936011261074357602090517fa22cb6bd33c714cffaf72f196d1ebf87829cac5214f3ad84491fa8669ede7a6a8152f35b509134610fb3576020366003190112610fb357610d8c614d3c565b6001600160a01b038116825260b46020528282208351610dab8161500d565b60a08254958683526001840154956020840191878352600286015490818187015260038701549260608701978489528c8101549560c060ff600660808c01948a86528c60058201549c8d9101520154169901981515988981528642105f14610fac5762015180610e1b4289614fd1565b049a5b849c81519062093a8091828101809111610f9557421180610f8b575b610ed8575b50505051151580610ece575b15610ec157518151610e5c91615084565b5f19810192908311610eae5750516101409c50610e7891614fb3565b985b81519a8b5260208b01528901526060880152608087015260a086015260c085015260e0840152610100830152610120820152f35b634e487b7160e01b815260118e52602490fd5b50506101409b5098610e7a565b5080511515610e4b565b610ee4610ee991616164565b616257565b6005811015610f7557865260b3602052600187872001549151908101809111610f6057610f1a620151809142614fd1565b049081151580610f57575b610f30575b80610e3f565b612710929d5061016d91610f48610f4d928651614f8c565b614f8c565b04049a5f80610f2a565b50801515610f25565b508f856011602492634e487b7160e01b835252fd5b50508f856021602492634e487b7160e01b835252fd5b5083511515610e3a565b5050508f856011602492634e487b7160e01b835252fd5b839a610e1e565b80fd5b50346107575760203660031901126107575735916005831015610fb35750610fdf602092614f75565b549051908152f35b505034610743578060031936011261074357602091611004614d3c565b8261100d614d52565b6001600160a01b03928316845260978652922091165f908152908352819020549051908152f35b505034610743578160031936011261074357602090517fb438992c2c4c65322b65fd8e2dacea9efd63443e69e5ed52f4a77ed6c78f7c2a8152f35b614f53565b50346107575760203660031901126107575761108e614d3c565b60a9546001600160a01b039391929190841633036110bf575050166001600160601b0360a01b60a854161760a85580f35b51630925c89960e31b8152fd5b828434610fb35780600319360112610fb357815191829160a15480855260208095019460a183527faadc37b8ba5645e62f4546802db221593a94729ccbfc5a97d01365a88f64987892905b82821061113d57611139868661112f828b0383615056565b5191829182614dc9565b0390f35b83546001600160a01b031687529586019560019384019390910190611117565b50903461075757602036600319011261075757611178614d3c565b60a95490926001600160a01b03929091831633036110bf5750508060aa54921691826001600160601b0360a01b82161760aa55826111d9575b167f7fc5e57c5215ef3b834df4680694bbed4808bf88ddc971b470cb8ef9365e63868380a380f35b6001600160a81b031981168317600160a01b1760aa556111b1565b50903461075757602080600319360112610bbe57611210614d3c565b6112198161587e565b506112c3576001600160a01b0316808552609c82528285205490939060ff166112825750828452609c8152818420805460ff19166001179055609d905282204290557f7f62ed89ea2c6fb057e4ea77729c1d3f18056339791fce29ac89760197b45b298280a280f35b915162461bcd60e51b815291820152601b60248201527f4c69717569646174696f6e20616c7265616479207374617274656400000000006044820152606490fd5b50905162461bcd60e51b8152918201526013602482015272506f736974696f6e206973206865616c74687960681b6044820152606490fd5b50903461075757602036600319011261075757813560a4549261132160ff8516156154ee565b60ff1993841660011760a45560a6546001600160a01b031633036113cd5747821161138a575083808083611358829560a354614fd1565b60a355818115611381575b3390f115611376575060a4541660a45580f35b51913d9150823e3d90fd5b506108fc611363565b606490602084519162461bcd60e51b8352820152601d60248201527f496e73756666696369656e7420636f6e74726163742062616c616e63650000006044820152fd5b608490602084519162461bcd60e51b8352820152602260248201527f4f6e6c79206c656e64696e67206d616e616765722063616e2063616c6c207468604482015261697360f01b6064820152fd5b50503461074357816003193601126107435760209060ff60b8541690519015158152f35b509034610757578060031936011261075757611459614d3c565b60a954602435936001600160a01b03929183163303610cbe5762015180851161148b575016835260b060205282205580f35b606490602085519162461bcd60e51b83528201526009602482015268546f6f206c6172676560b81b6044820152fd5b5090346107575780600319360112610757576114f591356114f060016114de614d52565b93838752606560205286200154615e64565b61608b565b80f35b50503461074357602036600319011261074357602090610c72610ced614d3c565b50503461074357816003193601126107435760a95490516001600160a01b039091168152602090f35b5050346107435760203660031901126107435760209181906001600160a01b0361156a614d3c565b168152609b845220549051908152f35b509190346107435760603660031901126107435760a9548335919060243590604435906001600160a01b03163303611637576115b960ac548510615386565b82518381018181106001600160401b03821117611624577f7543d68ffbde1802767cee31f14403e1b914f7249f14f2724e7398aa10de092395969750845282815260016020820183815287895260b3602052858920925183555191015582519182526020820152a280f35b604188634e487b7160e01b5f525260245ffd5b8251630925c89960e31b81528690fd5b50503461074357816003193601126107435760209060ff60a4541690519015158152f35b50503461074357816003193601126107435761113990611689615a3a565b905191829182614dc9565b50503461074357816003193601126107435781908260a1545b8082106116be576020848451908152f35b90926116ee6001916116cf86614e0d565b848060a01b0391549060031b1c168752609a6020528487205490615084565b9301906116ad565b50503461074357816003193601126107435760a55490516001600160a01b039091168152602090f35b503461075757602036600319011261075757611739614d3c565b60a9546001600160a01b039190821633036117b1571691821561176e5750506001600160601b0360a01b60a654161760a65580f35b906020606492519162461bcd60e51b8352820152601f60248201527f496e76616c6964206c656e64696e67206d616e616765722061646472657373006044820152fd5b8351630925c89960e31b81528390fd5b5060209081600319360112610bbe5780359160a454936117e760ff8660081c1615615091565b6117f460ff8616156154ee565b60ff1994851660011760a455338652609a825280862054611f6457611818336162c3565b15611ee35761182690616257565b9260058410159081611ed057808514611e965760a35460011c8611611e3a5761184e856160fe565b889492919411611de95761186133615771565b90606482029180830460641490151715611dd65761187f9089614f8c565b11611d855760b2546001600160a01b0391908216908a9082611d64575b8b6118a7838c614fd1565b9383158015611ccc575b505050505060a3546118c860ae5460af5490614fd1565b908b9181611c8b575b50508260a754169487875180978194634fd41dad60e11b83528883015260249889915afa918215611c81578c92611c52575b50818c821215611c1c57506119179061582c565b9061271091820390828211611c0a579061193091614f8c565b04965b600c8910611bb95762278d004201804211611ba7578b808695948c611a08611a00849b9a978f8f8f806119ed8a9d9c6006858d9f8e90609b998e9851956119798761500d565b898752848701918a8352898801908152606088019182526080880192600c8c0484528a60a08a01966101f4885260b460c08c019960018b52338352522098518955516001890155516002880155516003870155519085015551600584015551151591019060ff801983541691151516179055565b609a8352892055528d4290872055614f75565b918254615084565b9055611a168d60ae54615084565b60ae55338252609f8b52898220805415611b66575b50611a388d60a354614fd1565b60a355818115611b5d575b3390f115611b535760aa548160ff8260a01c169182611b47575b505015611b095760aa5416803b15610bbe5783928392865194859384926336aa845560e01b845233908401525af1611af5575b50507fac59582e5396aca512fa873a2047e7f4c80f8f55d4a06cb34a78a0187f62719f925b815190858252838201527f5660f932172e1664b98577a703dd9484d374b28e3bf8c87b345bee97af612412823392a2519283523392a260a4541660a45580f35b611afe90615028565b61085857855f611a90565b505050507fac59582e5396aca512fa873a2047e7f4c80f8f55d4a06cb34a78a0187f62719f9233875260ab8352818720600187825416179055611ab5565b1615159050815f611a5d565b84513d85823e3d90fd5b506108fc611a43565b42905589518a8152600c8b8201526b66697273745f626f72726f7760a01b6060820152428c8201525f8051602061650983398151915260803392a25f611a2b565b634e487b7160e01b8c5260118552858cfd5b855162461bcd60e51b81528085018890526026818701527f4c6f616e20616d6f756e7420746f6f20736d616c6c20666f7220616d6f7274696044820152653d30ba34b7b760d11b6064820152608490fd5b634e487b7160e01b8d5260118652868dfd5b98918c8213611c2d575b5050611933565b9091985061271091820190818311611c0a5790611c4991614f8c565b04965f80611c26565b9091508781813d8311611c7a575b611c6a8183615056565b81010312610bba5751905f611903565b503d611c60565b87513d8e823e3d90fd5b909150670de0b6b3a764000090818102918183041490151715611cb95790611cb291614fb3565b5f806118d1565b634e487b7160e01b8c526011855260248cfd5b8285819382938390611d5b575bf115611d5157611d3e578551908152606087820152600b60608201526a37b934b3b4b730ba34b7b760a91b608082015287868201527f66aecc579aa1ef463c0ed1547c2cb6163370e6311a60cba815252acbb398f21360a03392a25f808b81806118b1565b634e487b7160e01b8b526021845260248bfd5b86513d8d823e3d90fd5b506108fc611cd9565b50505f878b5260b38752612710611d7e878d20548b614f8c565b049061189c565b835162461bcd60e51b8152808301869052602560248201527f496e73756666696369656e7420636f6c6c61746572616c20666f722074686973604482015264103637b0b760d91b6064820152608490fd5b634e487b7160e01b8b526011845260248bfd5b845162461bcd60e51b8152808401879052602560248201527f426f72726f7720616d6f756e74206578636565647320796f75722074696572206044820152641b1a5b5a5d60da1b6064820152608490fd5b825162461bcd60e51b8152908101849052603060248201527f426f72726f7720616d6f756e74206578636565647320617661696c61626c652060448201526f6c656e64696e6720636170616369747960801b6064820152608490fd5b825162461bcd60e51b815290810184905260146024820152734372656469742073636f726520746f6f206c6f7760601b6044820152606490fd5b634e487b7160e01b885260219052602487fd5b505162461bcd60e51b815291820152605060248201527f4372656469742073636f726520616c7265616479207573656420666f7220626f60448201527f72726f77696e67206f7220696e76616c69642e20506c65617365207375626d6960648201526f3a103090333932b9b410383937b7b31760811b608482015260a49150fd5b5162461bcd60e51b815291820152601e60248201527f526570617920796f7572206578697374696e6720646562742066697273740000604482015260649150fd5b50503461074357816003193601126107435760209060a3549051908152f35b503461075757826003193601126107575760a9546001600160a01b03163303612039575060207f228f455d7bc3d0b24a3a08d7847f391c3e78fc8aeb83acf226b7a96ee162b8ac9160ff60a45461ff00828260081c161560081b169061ff00191617918260a455519160081c1615158152a180f35b9051630925c89960e31b8152fd5b505034610743578160031936011261074357602090517facd38b7c4e04b2b78fc2ca994eae1a3eb206005ffa4c11fcf4a9d81c94684b2d8152f35b5050346107435760203660031901126107435760209181906001600160a01b036120aa614d3c565b168152609d845220549051908152f35b505034610743578160031936011261074357602090516203f4808152f35b5050346107435781600319360112610743576020905160828152f35b50346107575760203660031901126107575761210e614d9f565b60a9549092906001600160a01b031633036110bf57505060ff801960b85416911515161760b85580f35b50503461074357816003193601126107435760209060af549051908152f35b5050346107435781600319360112610743576020905167011c37937e0800008152f35b50503461074357816003193601126107435760209060ae549051908152f35b5050346107435760203660031901126107435760209181906001600160a01b036121c1614d3c565b168152609a845220549051908152f35b5034610757576020366003190112610757576121eb614d3c565b60a9546001600160a01b03929083163303610cbe575016825260b76020528120805460ff1916600117905580f35b503461075757602036600319011261075757359160a054831015610fb35750612243602092614e56565b905491519160018060a01b039160031b1c168152f35b50346107575760203660031901126107575791819235815260b3602052206001815491015482519182526020820152f35b50503461074357816003193601126107435760209060ff60a45460081c1690519015158152f35b50503461074357816003193601126107435760a85490516001600160a01b039091168152602090f35b505034610743576020366003190112610743576020906122f8614d3c565b505160508152f35b50503461074357602036600319011261074357606091906203f480906001600160a01b0361232c614d3c565b168352609c6020528060ff818520541693609d6020522054815193151584526020840152820152f35b50903461075757806003193601126107575761236f614d3c565b6024359160018060a01b03809216938486526020926098845260ff83882054161561258757841561254f57338752609c845260ff83882054166125175790849133885260a28552838820805460ff8116156124b2575b505083516323b872dd60e01b815233928101928352306020840152604083019390935250909291908290849081906060015b038189895af180156124a857612454575b7ff1c0dd7e9b98bbff859029005ef89b127af049cd18df1a8d79f0b7e019911e56925084865260978252808620335f528252805f20612448858254615084565b9055519283523392a380f35b8183813d83116124a1575b6124698183615056565b810103126108585761249b7ff1c0dd7e9b98bbff859029005ef89b127af049cd18df1a8d79f0b7e019911e5693615077565b50612408565b503d61245f565b81513d88823e3d90fd5b60ff1916600117905560a15491925090600160401b811015612504578493926123f795926124e78360018a950160a155614e0d565b819291549060031b9133831b921b191617905591948193946123c5565b604183634e487b7160e01b5f525260245ffd5b508161084592515f805160206164e983398151915233918061253881615463565b0390a25162461bcd60e51b81529182918201615463565b508161084592515f805160206164e983398151915233918061257081615a0d565b0390a25162461bcd60e51b81529182918201615a0d565b508161084592515f805160206164e98339815191523391806125a881615408565b0390a25162461bcd60e51b81529182918201615408565b50346107575781600319360112610757576125d8614d3c565b6024359060a454936125f060ff8660081c1615615091565b6125fd60ff8616156154ee565b60ff1994851660011760a45582156128485760018060a01b0382169384875260209260978452828820335f52845284835f20541061280657338852609a8452828820548592918161271c575b50509280929161269b94878a5260978352838a20335f528352835f20612670838254614fd1565b9055835163a9059cbb60e01b8152339181019182526020820192909252909485918291604090910190565b03818a895af18015612712576126cd575b5f805160206164c98339815191529250519283523392a360a4541660a45580f35b8183813d831161270b575b6126e28183615056565b81010312612707576127015f805160206164c983398151915293615077565b506126ac565b8680fd5b503d6126d8565b81513d89823e3d90fd5b6127919192935061275b670de0b6b3a764000091898c5260978852868c20335f52885261275561274f8a895f2054614fd1565b91615afd565b90614f8c565b0491612769610ee433616164565b606461278b61278261277d610ee433616164565b6160fe565b50503394614f8c565b04615bb3565b1161279f5783905f80612649565b82608492519162461bcd60e51b8352820152603b60248201527f5769746864726177616c20776f756c642076696f6c61746520746965722d626160448201527f73656420636f6c6c61746572616c20726571756972656d656e747300000000006064820152fd5b5082606492519162461bcd60e51b8352820152601760248201527f496e73756666696369656e7420636f6c6c61746572616c0000000000000000006044820152fd5b5162461bcd60e51b815280610845818601615a0d565b50503461074357816003193601126107435751908152602090f35b50503461074357816003193601126107435760a65490516001600160a01b039091168152602090f35b50503461074357602036600319011261074357602090610c726128c3614d3c565b6159c1565b5050346107435781600319360112610743576020905160058152f35b614dae565b509034610757578060031936011261075757612903614d3c565b60a95460243592916001600160a01b039182163303612a2057169283156129de573084146129a4576064831161296d57507f4afae6838a181695abc7978598380d73bc2144eb38580c130f86e4b1e6531e159160209184865260998352818187205551908152a280f35b6020606492519162461bcd60e51b8352820152601260248201527153636f7265206f7574206f662072616e676560701b6044820152fd5b6020606492519162461bcd60e51b8352820152601560248201527424b73b30b634b21030b2323932b9b99d1039b2b63360591b6044820152fd5b6020606492519162461bcd60e51b8352820152601d60248201527f496e76616c696420616464726573733a207a65726f20616464726573730000006044820152fd5b8251630925c89960e31b81528590fd5b505034610743578160031936011261074357602090517f96737339a958f216173e690d06f324072e6dc3146e04c060bd723906d6b190768152f35b505034610743578060031936011261074357602090610c72612a8b614d3c565b612a93614d52565b906158f4565b5050346107435760203660031901126107435760209160ff9082906001600160a01b03612ac4614d3c565b16815260a2855220541690519015158152f35b509134610fb3576020366003190112610fb357612af2614d3c565b612b0a61277d610ee4612b0484615771565b93616164565b926050808202935081159184041417159050612b43576020945060649004915080821015612b3b5750905b51908152f35b905090612b35565b634e487b7160e01b835260118552602483fd5b503461075757816003193601126107575781602093612b73614d52565b9235815260658552209060018060a01b03165f52825260ff815f20541690519015158152f35b828434610fb3576020366003190112610fb35750612bbd612bb8614d3c565b61587e565b825191151582526020820152f35b5050346107435781600319360112610743576020905166b1a2bc2ec500008152f35b505034610743578160031936011261074357602090517fce802e42c93d0fbd61dfc706a0e806b78ac046397e07510da2f223464e4788e08152f35b50503461074357816003193601126107435760209060b1549051908152f35b505034610743578160031936011261074357602090517f0e0e24c52bc4f24612e3f568966757426acd82325205933a9270e1ce7c4d93c28152f35b509034610757578060031936011261075757612c9c614d3c565b60243592612d1460018060a01b03612cb98160a65416331461583c565b831694858752612cff612cfa610ee4602096609a88528a89812055609b88528a89812055609c8852888b2060ff198154169055609d88528a89812055616164565b614f75565b612d0a828254614fd1565b905560af54615084565b60af55838552609f825260018386200180549160018301809311612d705750915f80516020616509833981519152939160809355600b8251928084528301526a3634b8bab4b230ba34b7b760a91b60608301524290820152a280f35b634e487b7160e01b875260119052602486fd5b5034610757578160031936011261075757612d9c614d3c565b91612da5614d52565b60a95490936001600160a01b0393909184163303612df6575082168085526098602052612dd760ff8387205416615725565b8452609e602052832091166001600160601b0360a01b82541617905580f35b8251630925c89960e31b8152fd5b50346107575760203660031901126107575760e09282906001600160a01b03612e2b614d3c565b16815260b46020522080549260018201549260028301546003840154918401549260ff600660058701549601541695815197885260208801528601526060850152608084015260a0830152151560c0820152f35b5050346107435760203660031901126107435760209160ff9082906001600160a01b03612eaa614d3c565b1681526098855220541690519015158152f35b5090346107575760209283600319360112610fb357612eda614d3c565b9260a354612eed60ae5460af5490614fd1565b811561304457670de0b6b3a7640000908181029181830414901517156130315790612f1791614fb3565b935b60a7548451634fd41dad60e11b8152838101969096528690869060249082906001600160a01b03165afa948515611b53578395613000575b50610ee4612f5e91616164565b6005811015612fed57612f72600391614f1a565b500154849083811215612fb057612f8d91929394955061582c565b92612710938403928484116108bd57505090612fa891614f8c565b049051908152f35b92808413612fc2575b50505050612b35565b909192939450612710938401928385116108bd57505090612fe291614f8c565b04905f808080612fb9565b634e487b7160e01b835260218252602483fd5b9094508581813d831161302a575b6130188183615056565b81010312610bba575193610ee4612f51565b503d61300e565b634e487b7160e01b845260118352602484fd5b50508193612f19565b5090346107575760203660031901126107575781359260ac54841015610fb3575061307960a093614f1a565b508054926001820154926002830154916003840154930154938151958652602086015284015260608301526080820152f35b5034610757576020366003190112610757576130c5614d3c565b60a95491906001600160a01b0390818416330361312c57169283156130f75750506001600160a01b0319161760a95580f35b906020606492519162461bcd60e51b8352820152600f60248201526e496e76616c6964206164647265737360881b6044820152fd5b8451630925c89960e31b81528390fd5b509190346107435761314d36614e8b565b505060609160b554603c81018091116133035761316b90421161552a565b8151809160a15480835283602080940160a184527faadc37b8ba5645e62f4546802db221593a94729ccbfc5a97d01365a88f64987892845b868282106132e4575050506131ba92500384615056565b6131c483516157fa565b938193825b815181101561324f576001600160a01b036131e482846150d2565b5116808552609c865260ff8486205416613202575b506001016131c9565b609d8652838520546203f480810180911161323c5742106131f957866132359161322f600194998b6150d2565b526150e6565b95906131f9565b634e487b7160e01b865260118b52602486fd5b50849050858782156132d85750613265826157fa565b935b8281106132b0575050506111399061328b6132996001948351928391888301614dc9565b03601f198101835282615056565b905b80805195869515158652850152830190614ef5565b6001906001600160a01b036132c582856150d2565b51166132d182886150d2565b5201613267565b9150506111399161329b565b85546001600160a01b03168452600195860195899550930192016131a3565b634e487b7160e01b825260118552602482fd5b50503461074357602036600319011261074357602090610c72613337614d3c565b615771565b50503461074357816003193601126107435760209060ff60aa5460a01c1690519015158152f35b5050346107435760203660031901126107435760209181906001600160a01b0361338b614d3c565b16815260b0845220549051908152f35b505034610743576020366003190112610743576111396133b9614d3c565b918060018060a01b03841694858152609a6020526133da8282205495615771565b958152609b60205220549051938493846040919493926060820195825260208201520152565b50503461074357816003193601126107435760209051600a8152f35b50503461074357816003193601126107435760209051603c8152f35b505034610743576020366003190112610743576020916001600160a01b0390829082613462614d3c565b168082526098865261347960ff8484205416615725565b8152609e85522054169051908152f35b505034610743578160031936011261074357602090516103848152f35b505034610743578160031936011261074357602090516276a7008152f35b50503461074357816003193601126107435751600a47048152602090f35b5090346107575780600319360112610757576134fc614d3c565b906024359182151592838103610bba5760a9546001600160a01b03929083163303613634578216948587526098602052613544828589209060ff801983541691151516179055565b60a0549187805b84811061360a575b5081613601575b50613590575b5050507f15f5cc64ca777db85f6c05fdba671568758b38329616d4d4b43bb8b092fe9a8d9160209151908152a280f35b600160401b8210156135ee5750917f15f5cc64ca777db85f6c05fdba671568758b38329616d4d4b43bb8b092fe9a8d93916135d38460016020960160a055614e56565b819291549060031b9188831b921b1916179055918193613560565b604190634e487b7160e01b5f525260245ffd5b9050155f61355a565b888661361583614e56565b90549060031b1c161461362a5760010161354b565b505060015f613553565b8351630925c89960e31b81528690fd5b505034610743578060031936011261074357602091613661614d3c565b906001600160a01b0390839082613676614d52565b168152609786522091165f528252805f20549051908152f35b505034610743576020366003190112610743576060906136b56136b0614d3c565b615628565b919290815193151584526020840152820152f35b50503461074357602036600319011261074357806060926136e8614d3c565b818380516136f58161503b565b828152826020820152015260018060a01b03168152609f6020522090805161371c8161503b565b825492838252826002600183015492602085019384520154920191825282519384525160208401525190820152f35b5050346107435760203660031901126107435760209061377b613772610ee4610ced614d3c565b91518092614d7e565bf35b505034610743578160031936011261074357602090610c72615580565b505034610743578160031936011261074357602090517f430b074324c1d9f1ce97c9e9efd8cc6b779c8a501b53808a5cafe19682f95dd58152f35b5034610757576137e436614e8b565b60b593919354603c810180911161397a5761380090421161552a565b4260b5558301926020908181860312610858578035906001600160401b03821161270757019380601f8601121561085857843561383c81615569565b9561384985519788615056565b818752838088019260051b820101928311613976578301905b82821061395757505050845b8451811015613953576001600160a01b038061388a83886150d2565b511690818852609c845260ff85892054166138aa575b505060010161386e565b609d8452848820546203f480810180911161394057908892914210156138d1575b506138a0565b60a65416803b1561075757855163bcebb1d760e01b8152308882019081526001600160a01b039093166020840152918391839182908490829060400103925af1801561393657613922575b806138cb565b61392b90615028565b61085857855f61391c565b85513d84823e3d90fd5b634e487b7160e01b895260118752602489fd5b8580f35b81356001600160a01b0381168103610bba578152908301908301613862565b8780fd5b634e487b7160e01b865260118452602486fd5b50503461074357816003193601126107435780602092338152609a845220549051908152f35b505034610743578160031936011261074357602090517f5fef09193e4e8110de1cc5ba269e889a5fb9093ba33c4df4b67dc2eaa1ca1fff8152f35b50503461074357816003193601126107435760a454905160109190911c6001600160a01b03168152602090f35b505f366003190112610bba5760a45491613a3b60ff8460081c1615615091565b613a4860ff8416156154ee565b600160ff198094161760a455335f52602090609a8252805f20548015613c8d573415613c5b57803411805f14613c545781945b335f52609a8552835f20613a90878254614fd1565b9055613a9e8660af54615084565b60af55613aad8660a354615084565b60a355613abf612cfa610ee433616164565b613aca878254614fd1565b9055335f52609f85526002845f200180549060018201809211613c4157908994939291558451858152600986820152681c995c185e5b595b9d60ba1b606082015242878201525f8051602061650983398151915260803392a2335f52609c8652845f2088815460ff8116613c2d575b505060a8546001600160a01b0316905080613bb9575b5050613b8c575b5050907f0516911bcc3a0a7412a44601057c0a0a1ec628bde049a84284bc42886653448891519283523392a260a4541660a45580f35b8180613b99819334614fd1565b818115613bb0575b3390f11561074e57845f613b56565b506108fc613ba1565b8091929394503b15610bba5784516340c10f1960e01b815233928101928352662386f26fc1000088046020840152915f91839182908490829060400103925af18015613c2357613c0e575b9081889392613b4f565b613c1a91929750615028565b5f95905f613c04565b84513d5f823e3d90fd5b169055609d86525f858120555f8881613b39565b601183634e487b7160e01b5f525260245ffd5b3494613a7b565b505162461bcd60e51b815291820152600d60248201526c09aeae6e840e6cadcc8408aa89609b1b604482015260649150fd5b505162461bcd60e51b815291820152601060248201526f4e6f206465627420746f20726570617960801b604482015260649150fd5b8234610bba575f366003190112610bba5760209060b5549051908152f35b8234610bba576020366003190112610bba57606090613d0661277d610ee4610ced614d3c565b91929081519384526020840152820152f35b5034610bba576020366003190112610bba57359060a154821015610bba57612243602092614e0d565b5034610bba5781600319360112610bba57613d5a614d52565b90336001600160a01b03831603613d7857613d7692503561608b565b005b608490602084519162461bcd60e51b8352820152602f60248201527f416363657373436f6e74726f6c3a2063616e206f6e6c792072656e6f756e636560448201526e103937b632b9903337b91039b2b63360891b6064820152fd5b509034610bba576020366003190112610bba5760a9546001600160a01b031633036110bf57503560b155005b8234610bba575f366003190112610bba57602090517ffed613f2d4bec2209ff904769fa3c094c155ec5048c0bb2e17f16e523671ca2c8152f35b509034610bba5780600319360112610bba57613e53614d3c565b6024359160018060a01b039384831694855f526020936098855260ff845f2054161561409457865f5260978552835f20335f52855285845f20541061405c57335f52609c855260ff845f20541661403b57613ed390670de0b6b3a7640000613ecc613ec6613ec033615771565b93615afd565b89614f8c565b0490614fd1565b90606482029180830460641490151715613c4157602490335f52609a865285855f20549160a55416865193848092631ee1b90b60e21b82528c898301525afa908115614031575f91614000575b613f2a9250614f8c565b11613fc957908284613f549493875f5260978352835f20335f528352835f20612670838254614fd1565b03815f895af18015613fbf57613f7e575b5f805160206164c98339815191529250519283523392a3005b8183813d8311613fb8575b613f938183615056565b81010312610bba57613fb25f805160206164c983398151915293615077565b50613f65565b503d613f89565b50513d5f823e3d90fd5b8161084592515f805160206164e9833981519152339180613fe98161549b565b0390a25162461bcd60e51b8152918291820161549b565b90508582813d831161402a575b6140178183615056565b81010312610bba57613f2a915190613f20565b503d61400d565b85513d5f823e3d90fd5b610845838580515f805160206164e983398151915233918061253881615463565b610845838580515f805160206164e983398151915233918061407d81615434565b0390a25162461bcd60e51b81529182918201615434565b610845838580515f805160206164e98339815191523391806125a881615408565b5034610bba576020366003190112610bba5760e0916140d2614d3c565b5f60c083516140e08161500d565b82815282602082015282858201528260608201528260808201528260a0820152015260018060a01b03165f5260b4602052805f208151916141208361500d565b81549384845260018301549160208501928352600284015481860190815260038501549260608701938452850154936080870194855260c060ff600660058901549860a08b01998a5201541697019615158752825197885251602088015251908601525160608501525160808401525160a083015251151560c0820152f35b509034610bba5760c0366003190112610bba5760a954823592906001600160a01b031633036120395750614212613d76926141dd60ac548210615386565b8251926141e984614fde565b6024358452604435602085015260643590840152608435606084015260a4356080840152614f1a565b906153c1565b5034610bba5781600319360112610bba573590614233614d52565b90825f52606560205261424b6001825f200154615e64565b825f526065602052805f209160018060a01b031691825f5260205260ff815f2054161561427457005b825f526065602052805f20825f526020525f20600160ff1982541617905533917f2f8788117e7eff1d82e926ec794901d17c78024a50270940304540a733656f0d5f80a4005b5034610bba576020366003190112610bba5735906001600160401b0382168203610bba57610c72602092615336565b8234610bba575f366003190112610bba57805160a080548083525f918252602080840194927f78fdc8d422c49ced035a9edf18d00d3c6a8d81df210f3e5e448e045e77b41e8892915b82821061434a57611139868661112f828b0383615056565b83546001600160a01b031687529586019560019384019390910190614332565b8234610bba576020366003190112610bba576020906001600160a01b0361438f614d3c565b165f5260b6825260ff815f20541690519015158152f35b5034610bba576020366003190112610bba576143c0614d3c565b60a9546001600160a01b03929083163303610cbe5750165f90815260b660205220805460ff19166001179055005b509034610bba576020366003190112610bba57602091355f52606582526001815f2001549051908152f35b34610bba575f366003190112610bba57613d766150f4565b8234610bba576020366003190112610bba576020906001600160a01b03614456614d3c565b165f5260ab825260ff815f20541690519015158152f35b8234610bba576020366003190112610bba576020906001600160a01b03614492614d3c565b165f5260b7825260ff815f20541690519015158152f35b50905f366003190112610bba576144c860ff60a45460081c1615615091565b335f52602060b48152815f20600681019360ff85541615614791578082019182549283341061474e576003820191825480421061471f5762093a80810180911161470c57804211614647575b5090600161455b920194614529818754614fd1565b8655335f52609a8752614540885f20918254614fd1565b905561454f815460af54615084565b60af555460a354615084565b60a35580549062278d008201809211613c415755335f52609f83526002845f2001805491600183018093116146345750907fd3cf6d8c55fed98c7b9f9d18d95a51dbdb316503bb854fc1f676c8974cb10f4f9291558351848152601385820152721a5b9cdd185b1b1b595b9d17dc185e5b595b9d606a1b606082015242848201525f8051602061650983398151915260803392a25492838151933485528401523392a21561460557005b805460ff19169055337f59bd56f70adeefb0cd83dca0f34f066bed6ee442068f3d07b5fc974b944d5aa65f80a2005b601190634e487b7160e01b5f525260245ffd5b614653610ee433616164565b60058110156146f9579160019161455b94935f5260b389526201518061467f848c5f2001549242614fd1565b04801515806146f0575b614698575b5050919250614514565b6146bd61271061016d6146b487870194610f4886549788614f8c565b04048093615084565b905589519081527fce0d6b567089a0bce35e0693cdb625006f0cf915f9f3686bb0343bc2c667c1b2893392a28a8061468e565b50811515614689565b602186634e487b7160e01b5f525260245ffd5b601185634e487b7160e01b5f525260245ffd5b875162461bcd60e51b81528086018890526009602482015268546f6f206561726c7960b81b6044820152606490fd5b855162461bcd60e51b8152808401869052601860248201527f496e73756666696369656e7420696e7374616c6c6d656e7400000000000000006044820152606490fd5b835162461bcd60e51b8152908101839052600e60248201526d27379030b1ba34bb32903637b0b760911b6044820152606490fd5b8234610bba576020366003190112610bba576020906001600160a01b03806147eb614d3c565b165f52609e8352815f2054169051908152f35b8234610bba575f366003190112610bba57602090517f8b473ac3e35dc431c1dba0191b7615ccaca6bfeb14f9573dcaae9e614fbe8b208152f35b5034610bba576020366003190112610bba57614852614d3c565b60a9546001600160a01b039190821633036117b157169182156148a85760b280546001600160a01b03191684179055827f279ea638680bba6a87fddd8bcdbc37d94eee92841e1dfec2ab0f79662c7093115f80a2005b906020606492519162461bcd60e51b8352820152601760248201527f496e76616c6964207265736572766520616464726573730000000000000000006044820152fd5b8234610bba576020366003190112610bba576001600160a01b0361490d614d3c565b165f52609f602052805f2090611139825491600260018501549401549051938493846040919493926060820195825260208201520152565b509034610bba576020366003190112610bba57614960614d9f565b60a9549092906001600160a01b03163303612039577fb01450010edba5be11857fe89630b2ff764d237a9f9f77ab651643effd8699886020838515159060aa5460ff60a01b8360a01b169060ff60a01b19161760aa5551908152a1005b8234610bba575f366003190112610bba5760209051600a8152f35b8234610bba575f366003190112610bba5760209051610e108152f35b8234610bba576020366003190112610bba57602090610c72613337614d3c565b509034610bba5780600319360112610bba57614a2e614d3c565b9160243590335f52602093609c855260ff845f20541615614b105783516323b872dd60e01b815233928101928352306020840152604083018490526001600160a01b039091169185908290819060600103815f865af18015613c2357614adc575b505f5260978352815f20335f528352614aac825f20918254615084565b9055614ab73361587e565b50614abe57005b335f908152609c8352818120805460ff19169055609d909252812055005b8481813d8311614b09575b614af18183615056565b81010312610bba57614b0290615077565b5084614a8f565b503d614ae7565b835162461bcd60e51b8152808301869052601a60248201527f4163636f756e74206e6f7420696e206c69717569646174696f6e0000000000006044820152606490fd5b509034610bba576020366003190112610bba57614b6e614d3c565b91614b7b610ee484616164565b91614b8b61277d610ee486616164565b50506001600160a01b0385165f908152609a60205282902054949092908515614c1657614bbf9085606461278b878a614f8c565b906064820291808304606414901517156146345750608094614be091614fb3565b9081831115614c1057614bf38284614fd1565b925b614c0182518096614d7e565b60208501528301526060820152f35b5f614bf3565b50506080935081905f92614bf5565b8234610bba576020366003190112610bba576020906001600160a01b03614c4a614d3c565b165f52609c825260ff815f20541690519015158152f35b8234610bba575f366003190112610bba5760aa5490516001600160a01b039091168152602090f35b5034610bba576020366003190112610bba573563ffffffff60e01b8116809103610bba57602091637965db0b60e01b8214918215614ccb575b50519015158152f35b6301ffc9a760e01b14915083614cc2565b8234610bba576020366003190112610bba57614cf6614d3c565b60a9549092906001600160a01b03163303614d305760a4805462010000600160b01b031916601085901b62010000600160b01b0316179055005b630925c89960e31b8152fd5b600435906001600160a01b0382168203610bba57565b602435906001600160a01b0382168203610bba57565b604435906001600160a01b0382168203610bba57565b906005821015614d8b5752565b634e487b7160e01b5f52602160045260245ffd5b600435908115158203610bba57565b34610bba575f366003190112610bba57602047604051908152f35b60209060206040818301928281528551809452019301915f5b828110614df0575050505090565b83516001600160a01b031685529381019392810192600101614de2565b60a154811015614e425760a15f527faadc37b8ba5645e62f4546802db221593a94729ccbfc5a97d01365a88f64987801905f90565b634e487b7160e01b5f52603260045260245ffd5b60a054811015614e425760a05f527f78fdc8d422c49ced035a9edf18d00d3c6a8d81df210f3e5e448e045e77b41e8801905f90565b906020600319830112610bba576004356001600160401b0392838211610bba5780602383011215610bba578160040135938411610bba5760248483010111610bba576024019190565b5f5b838110614ee55750505f910152565b8181015183820152602001614ed6565b90602091614f0e81518092818552858086019101614ed4565b601f01601f1916010190565b60ac54811015614e425760059060ac5f52027f0a0a1bcadd9f6a5539376fa82276e043ae3cb4499daaaf8136572ecb1f9f0d6001905f90565b34610bba575f366003190112610bba576020604051670de0b6b3a76400008152f35b6005811015614d8b575f5260ad60205260405f2090565b81810292918115918404141715614f9f57565b634e487b7160e01b5f52601160045260245ffd5b8115614fbd570490565b634e487b7160e01b5f52601260045260245ffd5b91908203918211614f9f57565b60a081019081106001600160401b03821117614ff957604052565b634e487b7160e01b5f52604160045260245ffd5b60e081019081106001600160401b03821117614ff957604052565b6001600160401b038111614ff957604052565b606081019081106001600160401b03821117614ff957604052565b90601f801991011681019081106001600160401b03821117614ff957604052565b51908115158203610bba57565b91908201809211614f9f57565b1561509857565b60405162461bcd60e51b815260206004820152601260248201527110dbdb9d1c9858dd081a5cc81c185d5cd95960721b6044820152606490fd5b8051821015614e425760209160051b010190565b5f198114614f9f5760010190565b6150fc615a3a565b5f5b815181101561519e576001600160a01b038061511a83856150d2565b511690815f52602091609e8352604091825f20541661513f575b5050506001016150fe565b61515661514e610e1092615ceb565b905042614fd1565b116151615780615134565b60a4805461ff00191661010017905551600181527f228f455d7bc3d0b24a3a08d7847f391c3e78fc8aeb83acf226b7a96ee162b8ac9350909150a1565b505060a35480151590816152ff575b506151e45760a15460a6545f91906001600160a01b03908116835b83811061524a575050508015159182615220575b50506151e457565b61010061ff001960a454161760a4557f228f455d7bc3d0b24a3a08d7847f391c3e78fc8aeb83acf226b7a96ee162b8ac602060405160018152a1565b909150606481029080820460641490151715614f9f5760059161524291614fb3565b115f806151dc565b61525381614e0d565b905460408051632cf5889360e01b815230600482015260039390931b9190911c85166001600160a01b031660248301529060208082604481885afa9283156152f657505f926152c0575b50506152ac575b6001016151c8565b936152b86001916150e6565b9490506152a4565b90809250813d83116152ef575b6152d78183615056565b81010312610bba576152e890615077565b5f8061529d565b503d6152cd565b513d5f823e3d90fd5b905061531060ae5460af5490614fd1565b606481029080820460641490151715614f9f57605f9161532f91614fb3565b115f6151ad565b6001600160401b0380911661012c811115615380576103528110156153795761012b1901818111614f9f578116606402808216908103614f9f5761022690041690565b5050606490565b50505f90565b1561538d57565b60405162461bcd60e51b815260206004820152600c60248201526b24b73b30b634b2103a34b2b960a11b6044820152606490fd5b91906153f5576080816004925184556020810151600185015560408101516002850155606081015160038501550151910155565b634e487b7160e01b5f525f60045260245ffd5b606090602081526011602082015270151bdad95b881b9bdd08185b1b1bddd959607a1b60408201520190565b606090602081526014602082015273496e73756666696369656e742062616c616e636560601b60408201520190565b60609060208152601960208201527f4163636f756e7420697320696e206c69717569646174696f6e0000000000000060408201520190565b60809060208152603260208201527f5769746864726177616c20776f756c64206d616b6520706f736974696f6e20756040820152711b99195c98dbdb1b185d195c985b1a5e995960721b60608201520190565b156154f557565b60405162461bcd60e51b815260206004820152600d60248201526c4e6f207265656e7472616e637960981b6044820152606490fd5b1561553157565b60405162461bcd60e51b815260206004820152601060248201526f155c1ad9595c081d1a1c9bdd1d1b195960821b6044820152606490fd5b6001600160401b038111614ff95760051b60200190565b60a35480156155f1575f905f60a1545b8082106155b8575050606482029180830460641490151715614f9f576155b591614fb3565b90565b90926155e96001916155c986614e0d565b848060a01b0391549060031b1c165f52609a60205260405f205490615084565b930190615590565b505f90565b90816060910312610bba5780516001600160401b0381168103610bba5791604061562260208401615077565b92015190565b60aa549060ff8260a01c16158015615714575b61570a5760405163d3dd2bdf60e01b81526001600160a01b0391821660048201529160609183916024918391165afa5f9182918291816156d6575b50615687575b5050505f905f905f90565b806156c4575b806156ae575b61569d578061567c565b6156a690615336565b916001929190565b506276a7008201808311614f9f57421115615693565b506001600160401b038116151561568d565b915092506156fc915060603d606011615703575b6156f48183615056565b8101906155f6565b925f615676565b503d6156ea565b50505f905f905f90565b506001600160a01b0382161561563b565b1561572c57565b60405162461bcd60e51b815260206004820152601f60248201527f546f6b656e206e6f7420616c6c6f77656420617320636f6c6c61746572616c006044820152606490fd5b905f9161577c615a3a565b925f5b84518110156157f4576001600160a01b038061579b83886150d2565b511690815f5260209060978252604091825f209187165f52525f205490816157c8575b505060010161577f565b92670de0b6b3a76400006157e56157ec9361275560019697615afd565b0490615084565b91905f6157be565b50925050565b9061580482615569565b6158116040519182615056565b8281528092615822601f1991615569565b0190602036910137565b600160ff1b8114614f9f575f0390565b1561584357565b60405162461bcd60e51b815260206004820152601360248201527227b7363c902632b73234b733a6b0b730b3b2b960691b6044820152606490fd5b9061588882615771565b6001600160a01b0383165f908152609a60205260409020549283156158e85781156158de5761277d610ee46158bc92616164565b50509260648202918204606403614f9f576158d691614fb3565b918210159190565b505090505f905f90565b50600192505f19919050565b91909160018060a01b038084165f52609760205260405f209082165f5260205260405f205492609a60205260405f20549081156159bc5761593490615afd565b90615978670de0b6b3a7640000938461594d8589614f8c565b0492606461278b615960610ee485616164565b9261597061277d610ee487616164565b505090614f8c565b90818111156159b3579061598b91614fd1565b828102928184041490151715614f9f576159a491614fb3565b918083116159af5750565b9150565b505f9450505050565b505050565b6001600160a01b0381165f908152609a6020526040902054908115615a06576159e990615771565b90606482029180830460641490151715614f9f576155b591614fb3565b50505f1990565b6060906020815260126020820152710416d6f756e74206d757374206265203e20360741b60408201520190565b60a0545f805b828110615ab55750615a51906157fa565b905f805b828110615a625750505090565b615a6b81614e56565b905460039190911b1c6001600160a01b03165f8181526098602052604090205460ff16615a9c575b50600101615a55565b82615aae9161322f60019495886150d2565b9190615a93565b615abe81614e56565b60018060a01b0391549060031b1c165f52609860205260ff60405f205416615ae9575b600101615a40565b90615af56001916150e6565b919050615ae1565b60046020615b0a83615ceb565b509260018060a01b038091165f52609e825260405f2054166040519283809263313ce56760e01b82525afa8015615ba8575f90615b6b575b60ff91501660120360ff8111614f9f5760ff1690604d8211614f9f576155b591600a0a90614f8c565b506020813d602011615ba0575b81615b8560209383615056565b81010312610bba575160ff81168103610bba5760ff90615b42565b3d9150615b78565b6040513d5f823e3d90fd5b91615bbd90616164565b906005811015614d8b57615bd081614f1a565b505080615bfd5750605f1115615be35790565b605f810290808204605f1490151715614f9f576064900490565b60018103615c34575060558110615c295750605a810290808204605a1490151715614f9f576064900490565b60521115615be35790565b60028103615c815750604b8110615c605750605581029080820460551490151715614f9f576064900490565b6048116155b557605c810290808204605c1490151715614f9f576064900490565b600314615c8c575090565b60418110615caf5750605081029080820460501490151715614f9f576064900490565b603e1115615cba5790565b605a810290808204605a1490151715614f9f576064900490565b519069ffffffffffffffffffff82168203610bba57565b9060018060a01b03918281165f52609e602052604092835f2054168015615e2b579260a0600494825195868092633fabe5a360e21b82525afa8015613fbf575f80935f965f93615dd1575b50615d4a615d448842614fd1565b91616414565b10615d9f5769ffffffffffffffffffff809116911610615d6957509190565b5162461bcd60e51b815260206004820152601060248201526f5374616c6520726f756e64206461746160801b6044820152606490fd5b825162461bcd60e51b815260206004820152600b60248201526a5374616c6520707269636560a81b6044820152606490fd5b94509550505060a0823d60a011615e23575b81615df060a09383615056565b81010312610bba57615e0182615cd4565b936020830151615e18608060608601519501615cd4565b95909395915f615d36565b3d9150615de3565b835162461bcd60e51b8152602060048201526012602482015271141c9a58d94819995959081b9bdd081cd95d60721b6044820152606490fd5b805f52602060658152604091825f20335f52825260ff835f20541615615e8957505050565b33835191615e968361503b565b602a83528383019085368337835115614e42576030825383519260019360011015614e42576078602186015360295b84811161604a5750615fc55790855191608083018381106001600160401b03821117614ff957875260428352858301936060368637835115614e425760308553835160011015614e4257607860218501536041905b808211616007575050615fc557610845938693615fa993615f9a604894615f719a519a8b957f416363657373436f6e74726f6c3a206163636f756e74200000000000000000008c8801525180926037880190614ed4565b8401917001034b99036b4b9b9b4b733903937b6329607d1b603784015251809386840190614ed4565b01036028810187520185615056565b5192839262461bcd60e51b845260048401526024830190614ef5565b60648587519062461bcd60e51b825280600483015260248201527f537472696e67733a20686578206c656e67746820696e73756666696369656e746044820152fd5b9091600f81166010811015614e42576f181899199a1a9b1b9c1cb0b131b232b360811b901a61603684876164b7565b5360041c918015614f9f575f190190615f1a565b90600f81166010811015614e42576f181899199a1a9b1b9c1cb0b131b232b360811b901a61607883886164b7565b5360041c908015614f9f575f1901615ec5565b90815f52606560205260405f209060018060a01b031690815f5260205260ff60405f2054166160b8575050565b815f52606560205260405f20815f5260205260405f2060ff19815416905533917ff6391f5c32d9c69d2a47ea670b442974b53935d1edc7fd64eb21e047a839171b5f80a4565b6005811015614d8b5761611090614f1a565b50906040519061611f82614fde565b8254825260018301546020830152606461615d608060028601549485604082015260046003880154978860608401520154918291015260a354614f8c565b0491929190565b60aa5460ff8160a01c1680616245575b616194575b506001600160a01b03165f9081526099602052604090205490565b60405163d3dd2bdf60e01b81526001600160a01b038381166004830152909160609183916024918391165afa5f91815f915f93616220575b506161d9575b5050616179565b8061620e575b6161ea575b806161d2565b6276a7008101809111614f9f5742111561620457806161e4565b6155b59150615336565b506001600160401b03821615156161df565b9150925061623d915060603d606011615703576156f48183615056565b91925f6161cc565b506001600160a01b0381161515616174565b60ac54905f5b82811061627d5750505f198101908111614f9f576005811015614d8b5790565b61628681614f1a565b5054821015806162ac575b61629d5760010161625d565b9150506005811015614d8b5790565b5060016162b882614f1a565b500154821115616291565b6001600160a01b039081165f81815260ab602052604090205490919060ff166163e75760aa5460ff8160a01c16806163dc575b61632a575b50505f52609960205260405f2054908115159182616317579190565b915060ab60205260ff60405f2054161590565b60609060246040518094819363d3dd2bdf60e01b8352876004840152165afa5f9182918291816163b4575b50616361575b506162fb565b816163a1575b81616389575b5061637957808061635b565b6163839150615336565b90600190565b90506276a7008101809111614f9f574211155f61636d565b6001600160401b03831615159150616367565b915092506163d1915060603d606011615703576156f48183615056565b91929091905f616355565b5081811615156162f6565b50505f905f90565b60ac5490600160401b821015614ff957614212826001616412940160ac55614f1a565b565b6001600160a01b039081165f81815260b06020526040902054909190806164b1575060209060a5541691602460405180948193631a650cc760e01b835260048301525afa908115615ba8575f91616477575b506164715761038490565b610e1090565b90506020813d6020116164a9575b8161649260209383615056565b81010312610bba576164a390615077565b5f616466565b3d9150616485565b91505090565b908151811015614e4257016020019056fe45892a46e6cef329bb642da6d69846d324db43d19008edc141ed82382eda1bee3c364b9decdac59fbe037e99687219ac0feed46572bfbcbd5284b6b8e67f402d3f7c433051856ef6c6f502f4e60ac20498082f86a4d68de64f1a2d06924432c4a2646970667358221220154dbdcfb66a7d48f7c84217a8c184e48fa0a74e9e886cb71d39d59fdcb52d7b64736f6c63430008180033",
  "linkReferences": {},
  "deployedLinkReferences": {}
}