{
  "_format": "hh-sol-artifact-1",
  "contractName": "LiquidityPool",
  "sourceName": "contracts/LiquidityPool.sol",
  "abi": [
    {
      "inputs": [],
      "name": "OnlyTimelockLiquidityPool",
      "type": "error"
    },
    {
      "anonymous": false,
      "inputs": [
        {
          "indexed": true,
          "internalType": "address",
          "name": "user",
          "type": "address"
        },
        {
          "indexed": false,
          "internalType": "uint256",
          "name": "amount",
          "type": "uint256"
        }
      ],
      "name": "Borrowed",
      "type": "event"
    },
    {
      "anonymous": false,
      "inputs": [
        {
          "indexed": true,
          "internalType": "address",
          "name": "user",
          "type": "address"
        },
        {
          "indexed": true,
          "internalType": "address",
          "name": "token",
          "type": "address"
        },
        {
          "indexed": false,
          "internalType": "uint256",
          "name": "amount",
          "type": "uint256"
        }
      ],
      "name": "CollateralDeposited",
      "type": "event"
    },
    {
      "anonymous": false,
      "inputs": [
        {
          "indexed": true,
          "internalType": "address",
          "name": "token",
          "type": "address"
        },
        {
          "indexed": false,
          "internalType": "bool",
          "name": "isAllowed",
          "type": "bool"
        }
      ],
      "name": "CollateralTokenStatusChanged",
      "type": "event"
    },
    {
      "anonymous": false,
      "inputs": [
        {
          "indexed": true,
          "internalType": "address",
          "name": "user",
          "type": "address"
        },
        {
          "indexed": true,
          "internalType": "address",
          "name": "token",
          "type": "address"
        },
        {
          "indexed": false,
          "internalType": "uint256",
          "name": "amount",
          "type": "uint256"
        }
      ],
      "name": "CollateralWithdrawn",
      "type": "event"
    },
    {
      "anonymous": false,
      "inputs": [
        {
          "indexed": true,
          "internalType": "address",
          "name": "user",
          "type": "address"
        },
        {
          "indexed": false,
          "internalType": "uint256",
          "name": "score",
          "type": "uint256"
        }
      ],
      "name": "CreditScoreAssigned",
      "type": "event"
    },
    {
      "anonymous": false,
      "inputs": [
        {
          "indexed": true,
          "internalType": "address",
          "name": "oldSystem",
          "type": "address"
        },
        {
          "indexed": true,
          "internalType": "address",
          "name": "newSystem",
          "type": "address"
        }
      ],
      "name": "CreditSystemUpdated",
      "type": "event"
    },
    {
      "anonymous": false,
      "inputs": [
        {
          "indexed": false,
          "internalType": "bool",
          "name": "isPaused",
          "type": "bool"
        }
      ],
      "name": "EmergencyPaused",
      "type": "event"
    },
    {
      "anonymous": false,
      "inputs": [
        {
          "indexed": true,
          "internalType": "address",
          "name": "user",
          "type": "address"
        },
        {
          "indexed": false,
          "internalType": "uint256",
          "name": "amount",
          "type": "uint256"
        },
        {
          "indexed": false,
          "internalType": "string",
          "name": "feeType",
          "type": "string"
        },
        {
          "indexed": false,
          "internalType": "uint256",
          "name": "tier",
          "type": "uint256"
        }
      ],
      "name": "FeeCollected",
      "type": "event"
    },
    {
      "anonymous": false,
      "inputs": [
        {
          "indexed": true,
          "internalType": "address",
          "name": "user",
          "type": "address"
        },
        {
          "indexed": false,
          "internalType": "uint256",
          "name": "newDeadline",
          "type": "uint256"
        }
      ],
      "name": "GracePeriodExtended",
      "type": "event"
    },
    {
      "anonymous": false,
      "inputs": [
        {
          "indexed": false,
          "internalType": "uint8",
          "name": "version",
          "type": "uint8"
        }
      ],
      "name": "Initialized",
      "type": "event"
    },
    {
      "anonymous": false,
      "inputs": [
        {
          "indexed": true,
          "internalType": "address",
          "name": "user",
          "type": "address"
        },
        {
          "indexed": true,
          "internalType": "address",
          "name": "liquidator",
          "type": "address"
        },
        {
          "indexed": false,
          "internalType": "uint256",
          "name": "amount",
          "type": "uint256"
        }
      ],
      "name": "LiquidationExecuted",
      "type": "event"
    },
    {
      "anonymous": false,
      "inputs": [
        {
          "indexed": true,
          "internalType": "address",
          "name": "user",
          "type": "address"
        }
      ],
      "name": "LiquidationStarted",
      "type": "event"
    },
    {
      "anonymous": false,
      "inputs": [
        {
          "indexed": true,
          "internalType": "address",
          "name": "applicant",
          "type": "address"
        },
        {
          "indexed": false,
          "internalType": "uint256",
          "name": "amount",
          "type": "uint256"
        },
        {
          "indexed": false,
          "internalType": "uint256",
          "name": "collateral",
          "type": "uint256"
        }
      ],
      "name": "LoanApplied",
      "type": "event"
    },
    {
      "anonymous": false,
      "inputs": [
        {
          "indexed": true,
          "internalType": "address",
          "name": "applicant",
          "type": "address"
        },
        {
          "indexed": false,
          "internalType": "uint256",
          "name": "amount",
          "type": "uint256"
        }
      ],
      "name": "LoanApproved",
      "type": "event"
    },
    {
      "anonymous": false,
      "inputs": [
        {
          "indexed": true,
          "internalType": "address",
          "name": "borrower",
          "type": "address"
        },
        {
          "indexed": false,
          "internalType": "uint256",
          "name": "amount",
          "type": "uint256"
        },
        {
          "indexed": false,
          "internalType": "uint256",
          "name": "rate",
          "type": "uint256"
        }
      ],
      "name": "LoanDisbursed",
      "type": "event"
    },
    {
      "anonymous": false,
      "inputs": [
        {
          "indexed": true,
          "internalType": "address",
          "name": "borrower",
          "type": "address"
        }
      ],
      "name": "LoanFullyRepaid",
      "type": "event"
    },
    {
      "anonymous": false,
      "inputs": [
        {
          "indexed": true,
          "internalType": "address",
          "name": "borrower",
          "type": "address"
        },
        {
          "indexed": false,
          "internalType": "uint256",
          "name": "amount",
          "type": "uint256"
        },
        {
          "indexed": false,
          "internalType": "uint256",
          "name": "remaining",
          "type": "uint256"
        }
      ],
      "name": "LoanInstallmentPaid",
      "type": "event"
    },
    {
      "anonymous": false,
      "inputs": [
        {
          "indexed": true,
          "internalType": "address",
          "name": "borrower",
          "type": "address"
        },
        {
          "indexed": false,
          "internalType": "uint256",
          "name": "penalty",
          "type": "uint256"
        }
      ],
      "name": "LoanLatePenaltyApplied",
      "type": "event"
    },
    {
      "anonymous": false,
      "inputs": [
        {
          "indexed": true,
          "internalType": "address",
          "name": "applicant",
          "type": "address"
        },
        {
          "indexed": false,
          "internalType": "uint256",
          "name": "amount",
          "type": "uint256"
        }
      ],
      "name": "LoanRejected",
      "type": "event"
    },
    {
      "anonymous": false,
      "inputs": [
        {
          "indexed": true,
          "internalType": "address",
          "name": "user",
          "type": "address"
        },
        {
          "indexed": true,
          "internalType": "address",
          "name": "liquidator",
          "type": "address"
        },
        {
          "indexed": true,
          "internalType": "address",
          "name": "collateralToken",
          "type": "address"
        },
        {
          "indexed": false,
          "internalType": "uint256",
          "name": "collateralSeized",
          "type": "uint256"
        },
        {
          "indexed": false,
          "internalType": "uint256",
          "name": "debtRepaid",
          "type": "uint256"
        }
      ],
      "name": "PartialLiquidation",
      "type": "event"
    },
    {
      "anonymous": false,
      "inputs": [
        {
          "indexed": true,
          "internalType": "address",
          "name": "user",
          "type": "address"
        },
        {
          "indexed": false,
          "internalType": "uint256",
          "name": "amount",
          "type": "uint256"
        }
      ],
      "name": "Repaid",
      "type": "event"
    },
    {
      "anonymous": false,
      "inputs": [
        {
          "indexed": true,
          "internalType": "address",
          "name": "newReserve",
          "type": "address"
        }
      ],
      "name": "ReserveAddressUpdated",
      "type": "event"
    },
    {
      "anonymous": false,
      "inputs": [
        {
          "indexed": true,
          "internalType": "bytes32",
          "name": "role",
          "type": "bytes32"
        },
        {
          "indexed": true,
          "internalType": "bytes32",
          "name": "previousAdminRole",
          "type": "bytes32"
        },
        {
          "indexed": true,
          "internalType": "bytes32",
          "name": "newAdminRole",
          "type": "bytes32"
        }
      ],
      "name": "RoleAdminChanged",
      "type": "event"
    },
    {
      "anonymous": false,
      "inputs": [
        {
          "indexed": true,
          "internalType": "bytes32",
          "name": "role",
          "type": "bytes32"
        },
        {
          "indexed": true,
          "internalType": "address",
          "name": "account",
          "type": "address"
        },
        {
          "indexed": true,
          "internalType": "address",
          "name": "sender",
          "type": "address"
        }
      ],
      "name": "RoleGranted",
      "type": "event"
    },
    {
      "anonymous": false,
      "inputs": [
        {
          "indexed": true,
          "internalType": "bytes32",
          "name": "role",
          "type": "bytes32"
        },
        {
          "indexed": true,
          "internalType": "address",
          "name": "account",
          "type": "address"
        },
        {
          "indexed": true,
          "internalType": "address",
          "name": "sender",
          "type": "address"
        }
      ],
      "name": "RoleRevoked",
      "type": "event"
    },
    {
      "anonymous": false,
      "inputs": [
        {
          "indexed": true,
          "internalType": "address",
          "name": "token",
          "type": "address"
        },
        {
          "indexed": false,
          "internalType": "uint256",
          "name": "updatedAt",
          "type": "uint256"
        },
        {
          "indexed": false,
          "internalType": "uint256",
          "name": "currentTime",
          "type": "uint256"
        }
      ],
      "name": "StaleOracleTriggered",
      "type": "event"
    },
    {
      "anonymous": false,
      "inputs": [
        {
          "indexed": true,
          "internalType": "uint256",
          "name": "tier",
          "type": "uint256"
        },
        {
          "indexed": false,
          "internalType": "uint256",
          "name": "originationFee",
          "type": "uint256"
        },
        {
          "indexed": false,
          "internalType": "uint256",
          "name": "lateFeeAPR",
          "type": "uint256"
        }
      ],
      "name": "TierFeeUpdated",
      "type": "event"
    },
    {
      "anonymous": false,
      "inputs": [
        {
          "indexed": true,
          "internalType": "address",
          "name": "user",
          "type": "address"
        },
        {
          "indexed": false,
          "internalType": "string",
          "name": "message",
          "type": "string"
        }
      ],
      "name": "UserError",
      "type": "event"
    },
    {
      "anonymous": false,
      "inputs": [
        {
          "indexed": false,
          "internalType": "bool",
          "name": "required",
          "type": "bool"
        }
      ],
      "name": "ZKProofRequirementToggled",
      "type": "event"
    },
    {
      "anonymous": false,
      "inputs": [
        {
          "indexed": true,
          "internalType": "address",
          "name": "user",
          "type": "address"
        },
        {
          "indexed": false,
          "internalType": "string",
          "name": "reason",
          "type": "string"
        }
      ],
      "name": "ZKProofValidationFailed",
      "type": "event"
    },
    {
      "inputs": [],
      "name": "ALLOW_COLLATERAL_PERMISSION",
      "outputs": [
        {
          "internalType": "bytes32",
          "name": "",
          "type": "bytes32"
        }
      ],
      "stateMutability": "view",
      "type": "function"
    },
    {
      "inputs": [],
      "name": "DEFAULT_ADMIN_ROLE",
      "outputs": [
        {
          "internalType": "bytes32",
          "name": "",
          "type": "bytes32"
        }
      ],
      "stateMutability": "view",
      "type": "function"
    },
    {
      "inputs": [],
      "name": "DEFAULT_LIQUIDATION_THRESHOLD",
      "outputs": [
        {
          "internalType": "uint256",
          "name": "",
          "type": "uint256"
        }
      ],
      "stateMutability": "view",
      "type": "function"
    },
    {
      "inputs": [],
      "name": "DEFAULT_STALENESS_STABLE",
      "outputs": [
        {
          "internalType": "uint256",
          "name": "",
          "type": "uint256"
        }
      ],
      "stateMutability": "view",
      "type": "function"
    },
    {
      "inputs": [],
      "name": "DEFAULT_STALENESS_VOLATILE",
      "outputs": [
        {
          "internalType": "uint256",
          "name": "",
          "type": "uint256"
        }
      ],
      "stateMutability": "view",
      "type": "function"
    },
    {
      "inputs": [],
      "name": "GRACE_PERIOD",
      "outputs": [
        {
          "internalType": "uint256",
          "name": "",
          "type": "uint256"
        }
      ],
      "stateMutability": "view",
      "type": "function"
    },
    {
      "inputs": [],
      "name": "LIQUIDATION_PENALTY",
      "outputs": [
        {
          "internalType": "uint256",
          "name": "",
          "type": "uint256"
        }
      ],
      "stateMutability": "view",
      "type": "function"
    },
    {
      "inputs": [],
      "name": "SAFETY_BUFFER",
      "outputs": [
        {
          "internalType": "uint256",
          "name": "",
          "type": "uint256"
        }
      ],
      "stateMutability": "view",
      "type": "function"
    },
    {
      "inputs": [],
      "name": "SET_ADMIN_PERMISSION",
      "outputs": [
        {
          "internalType": "bytes32",
          "name": "",
          "type": "bytes32"
        }
      ],
      "stateMutability": "view",
      "type": "function"
    },
    {
      "inputs": [],
      "name": "SET_CREDIT_SCORE_PERMISSION",
      "outputs": [
        {
          "internalType": "bytes32",
          "name": "",
          "type": "bytes32"
        }
      ],
      "stateMutability": "view",
      "type": "function"
    },
    {
      "inputs": [],
      "name": "SET_LENDING_MANAGER_PERMISSION",
      "outputs": [
        {
          "internalType": "bytes32",
          "name": "",
          "type": "bytes32"
        }
      ],
      "stateMutability": "view",
      "type": "function"
    },
    {
      "inputs": [],
      "name": "SET_MAX_PRICE_AGE_PERMISSION",
      "outputs": [
        {
          "internalType": "bytes32",
          "name": "",
          "type": "bytes32"
        }
      ],
      "stateMutability": "view",
      "type": "function"
    },
    {
      "inputs": [],
      "name": "SET_MIN_PARTIAL_LIQUIDATION_AMOUNT_PERMISSION",
      "outputs": [
        {
          "internalType": "bytes32",
          "name": "",
          "type": "bytes32"
        }
      ],
      "stateMutability": "view",
      "type": "function"
    },
    {
      "inputs": [],
      "name": "SET_PRICE_FEED_PERMISSION",
      "outputs": [
        {
          "internalType": "bytes32",
          "name": "",
          "type": "bytes32"
        }
      ],
      "stateMutability": "view",
      "type": "function"
    },
    {
      "inputs": [],
      "name": "SET_RESERVE_ADDRESS_PERMISSION",
      "outputs": [
        {
          "internalType": "bytes32",
          "name": "",
          "type": "bytes32"
        }
      ],
      "stateMutability": "view",
      "type": "function"
    },
    {
      "inputs": [],
      "name": "SET_TIER_FEE_PERMISSION",
      "outputs": [
        {
          "internalType": "bytes32",
          "name": "",
          "type": "bytes32"
        }
      ],
      "stateMutability": "view",
      "type": "function"
    },
    {
      "inputs": [],
      "name": "TOGGLE_PAUSE_PERMISSION",
      "outputs": [
        {
          "internalType": "bytes32",
          "name": "",
          "type": "bytes32"
        }
      ],
      "stateMutability": "view",
      "type": "function"
    },
    {
      "inputs": [],
      "name": "UPDATE_BORROW_TIER_PERMISSION",
      "outputs": [
        {
          "internalType": "bytes32",
          "name": "",
          "type": "bytes32"
        }
      ],
      "stateMutability": "view",
      "type": "function"
    },
    {
      "inputs": [],
      "name": "UPKEEP_COOLDOWN",
      "outputs": [
        {
          "internalType": "uint256",
          "name": "",
          "type": "uint256"
        }
      ],
      "stateMutability": "view",
      "type": "function"
    },
    {
      "inputs": [
        {
          "internalType": "uint256",
          "name": "amount",
          "type": "uint256"
        }
      ],
      "name": "borrow",
      "outputs": [],
      "stateMutability": "payable",
      "type": "function"
    },
    {
      "inputs": [
        {
          "internalType": "uint256",
          "name": "",
          "type": "uint256"
        }
      ],
      "name": "borrowTierConfigs",
      "outputs": [
        {
          "internalType": "uint256",
          "name": "minScore",
          "type": "uint256"
        },
        {
          "internalType": "uint256",
          "name": "maxScore",
          "type": "uint256"
        },
        {
          "internalType": "uint256",
          "name": "collateralRatio",
          "type": "uint256"
        },
        {
          "internalType": "int256",
          "name": "interestRateModifier",
          "type": "int256"
        },
        {
          "internalType": "uint256",
          "name": "maxLoanAmount",
          "type": "uint256"
        }
      ],
      "stateMutability": "view",
      "type": "function"
    },
    {
      "inputs": [
        {
          "internalType": "address",
          "name": "",
          "type": "address"
        }
      ],
      "name": "borrowTimestamp",
      "outputs": [
        {
          "internalType": "uint256",
          "name": "",
          "type": "uint256"
        }
      ],
      "stateMutability": "view",
      "type": "function"
    },
    {
      "inputs": [
        {
          "internalType": "enum LiquidityPool.RiskTier",
          "name": "",
          "type": "uint8"
        }
      ],
      "name": "borrowedAmountByRiskTier",
      "outputs": [
        {
          "internalType": "uint256",
          "name": "",
          "type": "uint256"
        }
      ],
      "stateMutability": "view",
      "type": "function"
    },
    {
      "inputs": [
        {
          "internalType": "address",
          "name": "user",
          "type": "address"
        }
      ],
      "name": "canLend",
      "outputs": [
        {
          "internalType": "bool",
          "name": "",
          "type": "bool"
        }
      ],
      "stateMutability": "view",
      "type": "function"
    },
    {
      "inputs": [],
      "name": "checkCircuitBreakers",
      "outputs": [],
      "stateMutability": "nonpayable",
      "type": "function"
    },
    {
      "inputs": [
        {
          "internalType": "address",
          "name": "user",
          "type": "address"
        }
      ],
      "name": "checkCollateralization",
      "outputs": [
        {
          "internalType": "bool",
          "name": "isHealthy",
          "type": "bool"
        },
        {
          "internalType": "uint256",
          "name": "ratio",
          "type": "uint256"
        }
      ],
      "stateMutability": "view",
      "type": "function"
    },
    {
      "inputs": [
        {
          "internalType": "bytes",
          "name": "",
          "type": "bytes"
        }
      ],
      "name": "checkUpkeep",
      "outputs": [
        {
          "internalType": "bool",
          "name": "upkeepNeeded",
          "type": "bool"
        },
        {
          "internalType": "bytes",
          "name": "performData",
          "type": "bytes"
        }
      ],
      "stateMutability": "view",
      "type": "function"
    },
    {
      "inputs": [
        {
          "internalType": "address",
          "name": "token",
          "type": "address"
        },
        {
          "internalType": "address",
          "name": "user",
          "type": "address"
        },
        {
          "internalType": "address",
          "name": "to",
          "type": "address"
        },
        {
          "internalType": "uint256",
          "name": "amount",
          "type": "uint256"
        }
      ],
      "name": "clearCollateral",
      "outputs": [],
      "stateMutability": "nonpayable",
      "type": "function"
    },
    {
      "inputs": [
        {
          "internalType": "address",
          "name": "user",
          "type": "address"
        },
        {
          "internalType": "uint256",
          "name": "amount",
          "type": "uint256"
        }
      ],
      "name": "clearDebt",
      "outputs": [],
      "stateMutability": "nonpayable",
      "type": "function"
    },
    {
      "inputs": [
        {
          "internalType": "address",
          "name": "",
          "type": "address"
        },
        {
          "internalType": "address",
          "name": "",
          "type": "address"
        }
      ],
      "name": "collateralBalance",
      "outputs": [
        {
          "internalType": "uint256",
          "name": "",
          "type": "uint256"
        }
      ],
      "stateMutability": "view",
      "type": "function"
    },
    {
      "inputs": [
        {
          "internalType": "uint256",
          "name": "",
          "type": "uint256"
        }
      ],
      "name": "collateralTokenList",
      "outputs": [
        {
          "internalType": "address",
          "name": "",
          "type": "address"
        }
      ],
      "stateMutability": "view",
      "type": "function"
    },
    {
      "inputs": [
        {
          "internalType": "address",
          "name": "",
          "type": "address"
        }
      ],
      "name": "creditScore",
      "outputs": [
        {
          "internalType": "uint256",
          "name": "",
          "type": "uint256"
        }
      ],
      "stateMutability": "view",
      "type": "function"
    },
    {
      "inputs": [],
      "name": "creditSystem",
      "outputs": [
        {
          "internalType": "contract IntegratedCreditSystem",
          "name": "",
          "type": "address"
        }
      ],
      "stateMutability": "view",
      "type": "function"
    },
    {
      "inputs": [
        {
          "internalType": "address",
          "name": "token",
          "type": "address"
        },
        {
          "internalType": "uint256",
          "name": "amount",
          "type": "uint256"
        }
      ],
      "name": "depositCollateral",
      "outputs": [],
      "stateMutability": "nonpayable",
      "type": "function"
    },
    {
      "inputs": [
        {
          "internalType": "uint256",
          "name": "amount",
          "type": "uint256"
        },
        {
          "internalType": "address payable",
          "name": "to",
          "type": "address"
        }
      ],
      "name": "extract",
      "outputs": [],
      "stateMutability": "nonpayable",
      "type": "function"
    },
    {
      "inputs": [],
      "name": "getAdmin",
      "outputs": [
        {
          "internalType": "address",
          "name": "",
          "type": "address"
        }
      ],
      "stateMutability": "view",
      "type": "function"
    },
    {
      "inputs": [],
      "name": "getAllUsers",
      "outputs": [
        {
          "internalType": "address[]",
          "name": "",
          "type": "address[]"
        }
      ],
      "stateMutability": "view",
      "type": "function"
    },
    {
      "inputs": [],
      "name": "getAllowedCollateralTokens",
      "outputs": [
        {
          "internalType": "address[]",
          "name": "",
          "type": "address[]"
        }
      ],
      "stateMutability": "view",
      "type": "function"
    },
    {
      "inputs": [],
      "name": "getBalance",
      "outputs": [
        {
          "internalType": "uint256",
          "name": "",
          "type": "uint256"
        }
      ],
      "stateMutability": "view",
      "type": "function"
    },
    {
      "inputs": [
        {
          "internalType": "address",
          "name": "user",
          "type": "address"
        }
      ],
      "name": "getBorrowTerms",
      "outputs": [
        {
          "internalType": "uint256",
          "name": "collateralRatio",
          "type": "uint256"
        },
        {
          "internalType": "int256",
          "name": "interestRateModifier",
          "type": "int256"
        },
        {
          "internalType": "uint256",
          "name": "maxLoanAmount",
          "type": "uint256"
        }
      ],
      "stateMutability": "view",
      "type": "function"
    },
    {
      "inputs": [
        {
          "internalType": "address",
          "name": "user",
          "type": "address"
        }
      ],
      "name": "getBorrowerRate",
      "outputs": [
        {
          "internalType": "uint256",
          "name": "",
          "type": "uint256"
        }
      ],
      "stateMutability": "view",
      "type": "function"
    },
    {
      "inputs": [
        {
          "internalType": "address",
          "name": "user",
          "type": "address"
        },
        {
          "internalType": "address",
          "name": "token",
          "type": "address"
        }
      ],
      "name": "getCollateral",
      "outputs": [
        {
          "internalType": "uint256",
          "name": "",
          "type": "uint256"
        }
      ],
      "stateMutability": "view",
      "type": "function"
    },
    {
      "inputs": [
        {
          "internalType": "address",
          "name": "user",
          "type": "address"
        }
      ],
      "name": "getCollateralReductionInfo",
      "outputs": [
        {
          "internalType": "enum LiquidityPool.RiskTier",
          "name": "currentTier",
          "type": "uint8"
        },
        {
          "internalType": "uint256",
          "name": "currentCollateralRatio",
          "type": "uint256"
        },
        {
          "internalType": "uint256",
          "name": "adjustedCollateralRatio",
          "type": "uint256"
        },
        {
          "internalType": "uint256",
          "name": "potentialReductionPercent",
          "type": "uint256"
        }
      ],
      "stateMutability": "view",
      "type": "function"
    },
    {
      "inputs": [
        {
          "internalType": "address",
          "name": "user",
          "type": "address"
        }
      ],
      "name": "getCreditScore",
      "outputs": [
        {
          "internalType": "uint256",
          "name": "",
          "type": "uint256"
        }
      ],
      "stateMutability": "view",
      "type": "function"
    },
    {
      "inputs": [
        {
          "internalType": "address",
          "name": "user",
          "type": "address"
        }
      ],
      "name": "getLoan",
      "outputs": [
        {
          "components": [
            {
              "internalType": "uint256",
              "name": "principal",
              "type": "uint256"
            },
            {
              "internalType": "uint256",
              "name": "outstanding",
              "type": "uint256"
            },
            {
              "internalType": "uint256",
              "name": "interestRate",
              "type": "uint256"
            },
            {
              "internalType": "uint256",
              "name": "nextDueDate",
              "type": "uint256"
            },
            {
              "internalType": "uint256",
              "name": "installmentAmount",
              "type": "uint256"
            },
            {
              "internalType": "uint256",
              "name": "penaltyBps",
              "type": "uint256"
            },
            {
              "internalType": "bool",
              "name": "active",
              "type": "bool"
            }
          ],
          "internalType": "struct LiquidityPool.Loan",
          "name": "",
          "type": "tuple"
        }
      ],
      "stateMutability": "view",
      "type": "function"
    },
    {
      "inputs": [
        {
          "internalType": "address",
          "name": "user",
          "type": "address"
        }
      ],
      "name": "getLoanDetails",
      "outputs": [
        {
          "internalType": "uint256",
          "name": "principal",
          "type": "uint256"
        },
        {
          "internalType": "uint256",
          "name": "outstanding",
          "type": "uint256"
        },
        {
          "internalType": "uint256",
          "name": "interestRate",
          "type": "uint256"
        },
        {
          "internalType": "uint256",
          "name": "nextDueDate",
          "type": "uint256"
        },
        {
          "internalType": "uint256",
          "name": "installmentAmount",
          "type": "uint256"
        },
        {
          "internalType": "uint256",
          "name": "penaltyBps",
          "type": "uint256"
        },
        {
          "internalType": "bool",
          "name": "active",
          "type": "bool"
        },
        {
          "internalType": "uint256",
          "name": "daysUntilDue",
          "type": "uint256"
        },
        {
          "internalType": "uint256",
          "name": "latePenaltyIfPaidNow",
          "type": "uint256"
        },
        {
          "internalType": "uint256",
          "name": "totalInstallmentsRemaining",
          "type": "uint256"
        }
      ],
      "stateMutability": "view",
      "type": "function"
    },
    {
      "inputs": [
        {
          "internalType": "address",
          "name": "user",
          "type": "address"
        },
        {
          "internalType": "address",
          "name": "token",
          "type": "address"
        }
      ],
      "name": "getMaxWithdrawableCollateral",
      "outputs": [
        {
          "internalType": "uint256",
          "name": "maxWithdrawable",
          "type": "uint256"
        }
      ],
      "stateMutability": "view",
      "type": "function"
    },
    {
      "inputs": [],
      "name": "getMinCollateralRatio",
      "outputs": [
        {
          "internalType": "uint256",
          "name": "",
          "type": "uint256"
        }
      ],
      "stateMutability": "pure",
      "type": "function"
    },
    {
      "inputs": [],
      "name": "getMyDebt",
      "outputs": [
        {
          "internalType": "uint256",
          "name": "",
          "type": "uint256"
        }
      ],
      "stateMutability": "view",
      "type": "function"
    },
    {
      "inputs": [
        {
          "internalType": "address",
          "name": "token",
          "type": "address"
        }
      ],
      "name": "getPriceFeed",
      "outputs": [
        {
          "internalType": "address",
          "name": "",
          "type": "address"
        }
      ],
      "stateMutability": "view",
      "type": "function"
    },
    {
      "inputs": [
        {
          "internalType": "address",
          "name": "user",
          "type": "address"
        }
      ],
      "name": "getRiskTier",
      "outputs": [
        {
          "internalType": "enum LiquidityPool.RiskTier",
          "name": "",
          "type": "uint8"
        }
      ],
      "stateMutability": "view",
      "type": "function"
    },
    {
      "inputs": [
        {
          "internalType": "bytes32",
          "name": "role",
          "type": "bytes32"
        }
      ],
      "name": "getRoleAdmin",
      "outputs": [
        {
          "internalType": "bytes32",
          "name": "",
          "type": "bytes32"
        }
      ],
      "stateMutability": "view",
      "type": "function"
    },
    {
      "inputs": [
        {
          "internalType": "address",
          "name": "token",
          "type": "address"
        }
      ],
      "name": "getTokenValue",
      "outputs": [
        {
          "internalType": "uint256",
          "name": "",
          "type": "uint256"
        }
      ],
      "stateMutability": "view",
      "type": "function"
    },
    {
      "inputs": [
        {
          "internalType": "address",
          "name": "user",
          "type": "address"
        }
      ],
      "name": "getTotalCollateralValue",
      "outputs": [
        {
          "internalType": "uint256",
          "name": "",
          "type": "uint256"
        }
      ],
      "stateMutability": "view",
      "type": "function"
    },
    {
      "inputs": [
        {
          "internalType": "address",
          "name": "user",
          "type": "address"
        }
      ],
      "name": "getZKVerificationStatus",
      "outputs": [
        {
          "internalType": "bool",
          "name": "hasTradFi",
          "type": "bool"
        },
        {
          "internalType": "bool",
          "name": "hasAccount",
          "type": "bool"
        },
        {
          "internalType": "bool",
          "name": "hasNesting",
          "type": "bool"
        },
        {
          "internalType": "uint256",
          "name": "finalScore",
          "type": "uint256"
        },
        {
          "internalType": "bool",
          "name": "isEligible",
          "type": "bool"
        }
      ],
      "stateMutability": "view",
      "type": "function"
    },
    {
      "inputs": [
        {
          "internalType": "bytes32",
          "name": "role",
          "type": "bytes32"
        },
        {
          "internalType": "address",
          "name": "account",
          "type": "address"
        }
      ],
      "name": "grantRole",
      "outputs": [],
      "stateMutability": "nonpayable",
      "type": "function"
    },
    {
      "inputs": [
        {
          "internalType": "bytes32",
          "name": "role",
          "type": "bytes32"
        },
        {
          "internalType": "address",
          "name": "account",
          "type": "address"
        }
      ],
      "name": "hasRole",
      "outputs": [
        {
          "internalType": "bool",
          "name": "",
          "type": "bool"
        }
      ],
      "stateMutability": "view",
      "type": "function"
    },
    {
      "inputs": [
        {
          "internalType": "address",
          "name": "_timelock",
          "type": "address"
        },
        {
          "internalType": "address",
          "name": "_stablecoinManager",
          "type": "address"
        },
        {
          "internalType": "address",
          "name": "_lendingManager",
          "type": "address"
        },
        {
          "internalType": "address",
          "name": "_interestRateModel",
          "type": "address"
        },
        {
          "internalType": "address",
          "name": "_creditSystem",
          "type": "address"
        }
      ],
      "name": "initialize",
      "outputs": [],
      "stateMutability": "nonpayable",
      "type": "function"
    },
    {
      "inputs": [],
      "name": "interestRateModel",
      "outputs": [
        {
          "internalType": "contract InterestRateModel",
          "name": "",
          "type": "address"
        }
      ],
      "stateMutability": "view",
      "type": "function"
    },
    {
      "inputs": [
        {
          "internalType": "address",
          "name": "",
          "type": "address"
        }
      ],
      "name": "isAllowedCollateral",
      "outputs": [
        {
          "internalType": "bool",
          "name": "",
          "type": "bool"
        }
      ],
      "stateMutability": "view",
      "type": "function"
    },
    {
      "inputs": [
        {
          "internalType": "address",
          "name": "",
          "type": "address"
        }
      ],
      "name": "isKnownUser",
      "outputs": [
        {
          "internalType": "bool",
          "name": "",
          "type": "bool"
        }
      ],
      "stateMutability": "view",
      "type": "function"
    },
    {
      "inputs": [
        {
          "internalType": "address",
          "name": "",
          "type": "address"
        }
      ],
      "name": "isLiquidatable",
      "outputs": [
        {
          "internalType": "bool",
          "name": "",
          "type": "bool"
        }
      ],
      "stateMutability": "view",
      "type": "function"
    },
    {
      "inputs": [
        {
          "internalType": "address",
          "name": "token",
          "type": "address"
        }
      ],
      "name": "isOracleHealthy",
      "outputs": [
        {
          "internalType": "bool",
          "name": "",
          "type": "bool"
        }
      ],
      "stateMutability": "view",
      "type": "function"
    },
    {
      "inputs": [],
      "name": "isPaused",
      "outputs": [
        {
          "internalType": "bool",
          "name": "",
          "type": "bool"
        }
      ],
      "stateMutability": "view",
      "type": "function"
    },
    {
      "inputs": [],
      "name": "lastUpkeep",
      "outputs": [
        {
          "internalType": "uint256",
          "name": "",
          "type": "uint256"
        }
      ],
      "stateMutability": "view",
      "type": "function"
    },
    {
      "inputs": [],
      "name": "lendingManager",
      "outputs": [
        {
          "internalType": "contract LendingManager",
          "name": "",
          "type": "address"
        }
      ],
      "stateMutability": "view",
      "type": "function"
    },
    {
      "inputs": [
        {
          "internalType": "address",
          "name": "",
          "type": "address"
        }
      ],
      "name": "liquidationStartTime",
      "outputs": [
        {
          "internalType": "uint256",
          "name": "",
          "type": "uint256"
        }
      ],
      "stateMutability": "view",
      "type": "function"
    },
    {
      "inputs": [],
      "name": "liquidator",
      "outputs": [
        {
          "internalType": "address",
          "name": "",
          "type": "address"
        }
      ],
      "stateMutability": "view",
      "type": "function"
    },
    {
      "inputs": [
        {
          "internalType": "address",
          "name": "",
          "type": "address"
        }
      ],
      "name": "loans",
      "outputs": [
        {
          "internalType": "uint256",
          "name": "principal",
          "type": "uint256"
        },
        {
          "internalType": "uint256",
          "name": "outstanding",
          "type": "uint256"
        },
        {
          "internalType": "uint256",
          "name": "interestRate",
          "type": "uint256"
        },
        {
          "internalType": "uint256",
          "name": "nextDueDate",
          "type": "uint256"
        },
        {
          "internalType": "uint256",
          "name": "installmentAmount",
          "type": "uint256"
        },
        {
          "internalType": "uint256",
          "name": "penaltyBps",
          "type": "uint256"
        },
        {
          "internalType": "bool",
          "name": "active",
          "type": "bool"
        }
      ],
      "stateMutability": "view",
      "type": "function"
    },
    {
      "inputs": [],
      "name": "locked",
      "outputs": [
        {
          "internalType": "bool",
          "name": "",
          "type": "bool"
        }
      ],
      "stateMutability": "view",
      "type": "function"
    },
    {
      "inputs": [
        {
          "internalType": "address",
          "name": "",
          "type": "address"
        }
      ],
      "name": "maxPriceAge",
      "outputs": [
        {
          "internalType": "uint256",
          "name": "",
          "type": "uint256"
        }
      ],
      "stateMutability": "view",
      "type": "function"
    },
    {
      "inputs": [],
      "name": "minPartialLiquidationAmount",
      "outputs": [
        {
          "internalType": "uint256",
          "name": "",
          "type": "uint256"
        }
      ],
      "stateMutability": "view",
      "type": "function"
    },
    {
      "inputs": [],
      "name": "paused",
      "outputs": [
        {
          "internalType": "bool",
          "name": "",
          "type": "bool"
        }
      ],
      "stateMutability": "view",
      "type": "function"
    },
    {
      "inputs": [
        {
          "internalType": "bytes",
          "name": "performData",
          "type": "bytes"
        }
      ],
      "name": "performUpkeep",
      "outputs": [],
      "stateMutability": "nonpayable",
      "type": "function"
    },
    {
      "inputs": [
        {
          "internalType": "address",
          "name": "",
          "type": "address"
        }
      ],
      "name": "priceFeed",
      "outputs": [
        {
          "internalType": "address",
          "name": "",
          "type": "address"
        }
      ],
      "stateMutability": "view",
      "type": "function"
    },
    {
      "inputs": [
        {
          "internalType": "address",
          "name": "token",
          "type": "address"
        },
        {
          "internalType": "uint256",
          "name": "amount",
          "type": "uint256"
        }
      ],
      "name": "recoverFromLiquidation",
      "outputs": [],
      "stateMutability": "nonpayable",
      "type": "function"
    },
    {
      "inputs": [
        {
          "internalType": "bytes32",
          "name": "role",
          "type": "bytes32"
        },
        {
          "internalType": "address",
          "name": "account",
          "type": "address"
        }
      ],
      "name": "renounceRole",
      "outputs": [],
      "stateMutability": "nonpayable",
      "type": "function"
    },
    {
      "inputs": [],
      "name": "repay",
      "outputs": [],
      "stateMutability": "payable",
      "type": "function"
    },
    {
      "inputs": [],
      "name": "repayInstallment",
      "outputs": [],
      "stateMutability": "payable",
      "type": "function"
    },
    {
      "inputs": [],
      "name": "reserveAddress",
      "outputs": [
        {
          "internalType": "address",
          "name": "",
          "type": "address"
        }
      ],
      "stateMutability": "view",
      "type": "function"
    },
    {
      "inputs": [
        {
          "internalType": "bytes32",
          "name": "role",
          "type": "bytes32"
        },
        {
          "internalType": "address",
          "name": "account",
          "type": "address"
        }
      ],
      "name": "revokeRole",
      "outputs": [],
      "stateMutability": "nonpayable",
      "type": "function"
    },
    {
      "inputs": [
        {
          "internalType": "address",
          "name": "newAdmin",
          "type": "address"
        }
      ],
      "name": "setAdmin",
      "outputs": [],
      "stateMutability": "nonpayable",
      "type": "function"
    },
    {
      "inputs": [
        {
          "internalType": "address",
          "name": "token",
          "type": "address"
        },
        {
          "internalType": "bool",
          "name": "allowed",
          "type": "bool"
        }
      ],
      "name": "setAllowedCollateral",
      "outputs": [],
      "stateMutability": "nonpayable",
      "type": "function"
    },
    {
      "inputs": [
        {
          "internalType": "address",
          "name": "user",
          "type": "address"
        },
        {
          "internalType": "uint256",
          "name": "score",
          "type": "uint256"
        }
      ],
      "name": "setCreditScore",
      "outputs": [],
      "stateMutability": "nonpayable",
      "type": "function"
    },
    {
      "inputs": [
        {
          "internalType": "address",
          "name": "_creditSystem",
          "type": "address"
        }
      ],
      "name": "setCreditSystem",
      "outputs": [],
      "stateMutability": "nonpayable",
      "type": "function"
    },
    {
      "inputs": [
        {
          "internalType": "address",
          "name": "_lendingManager",
          "type": "address"
        }
      ],
      "name": "setLendingManager",
      "outputs": [],
      "stateMutability": "nonpayable",
      "type": "function"
    },
    {
      "inputs": [
        {
          "internalType": "address",
          "name": "_liquidator",
          "type": "address"
        }
      ],
      "name": "setLiquidator",
      "outputs": [],
      "stateMutability": "nonpayable",
      "type": "function"
    },
    {
      "inputs": [
        {
          "internalType": "address",
          "name": "token",
          "type": "address"
        },
        {
          "internalType": "uint256",
          "name": "age",
          "type": "uint256"
        }
      ],
      "name": "setMaxPriceAge",
      "outputs": [],
      "stateMutability": "nonpayable",
      "type": "function"
    },
    {
      "inputs": [
        {
          "internalType": "uint256",
          "name": "amount",
          "type": "uint256"
        }
      ],
      "name": "setMinPartialLiquidationAmount",
      "outputs": [],
      "stateMutability": "nonpayable",
      "type": "function"
    },
    {
      "inputs": [
        {
          "internalType": "address",
          "name": "token",
          "type": "address"
        },
        {
          "internalType": "address",
          "name": "feed",
          "type": "address"
        }
      ],
      "name": "setPriceFeed",
      "outputs": [],
      "stateMutability": "nonpayable",
      "type": "function"
    },
    {
      "inputs": [
        {
          "internalType": "address",
          "name": "_reserve",
          "type": "address"
        }
      ],
      "name": "setReserveAddress",
      "outputs": [],
      "stateMutability": "nonpayable",
      "type": "function"
    },
    {
      "inputs": [
        {
          "internalType": "uint256",
          "name": "tier",
          "type": "uint256"
        },
        {
          "internalType": "uint256",
          "name": "originationFee",
          "type": "uint256"
        },
        {
          "internalType": "uint256",
          "name": "lateFeeAPR",
          "type": "uint256"
        }
      ],
      "name": "setTierFee",
      "outputs": [],
      "stateMutability": "nonpayable",
      "type": "function"
    },
    {
      "inputs": [
        {
          "internalType": "address",
          "name": "_votingToken",
          "type": "address"
        }
      ],
      "name": "setVotingToken",
      "outputs": [],
      "stateMutability": "nonpayable",
      "type": "function"
    },
    {
      "inputs": [
        {
          "internalType": "bool",
          "name": "required",
          "type": "bool"
        }
      ],
      "name": "setZKProofRequirement",
      "outputs": [],
      "stateMutability": "nonpayable",
      "type": "function"
    },
    {
      "inputs": [],
      "name": "stablecoinManager",
      "outputs": [
        {
          "internalType": "contract StablecoinManager",
          "name": "",
          "type": "address"
        }
      ],
      "stateMutability": "view",
      "type": "function"
    },
    {
      "inputs": [
        {
          "internalType": "address",
          "name": "user",
          "type": "address"
        }
      ],
      "name": "startLiquidation",
      "outputs": [],
      "stateMutability": "nonpayable",
      "type": "function"
    },
    {
      "inputs": [
        {
          "internalType": "bytes4",
          "name": "interfaceId",
          "type": "bytes4"
        }
      ],
      "name": "supportsInterface",
      "outputs": [
        {
          "internalType": "bool",
          "name": "",
          "type": "bool"
        }
      ],
      "stateMutability": "view",
      "type": "function"
    },
    {
      "inputs": [
        {
          "internalType": "uint256",
          "name": "",
          "type": "uint256"
        }
      ],
      "name": "tierFees",
      "outputs": [
        {
          "internalType": "uint256",
          "name": "originationFee",
          "type": "uint256"
        },
        {
          "internalType": "uint256",
          "name": "lateFeeAPR",
          "type": "uint256"
        }
      ],
      "stateMutability": "view",
      "type": "function"
    },
    {
      "inputs": [],
      "name": "timelock",
      "outputs": [
        {
          "internalType": "address",
          "name": "",
          "type": "address"
        }
      ],
      "stateMutability": "view",
      "type": "function"
    },
    {
      "inputs": [],
      "name": "togglePause",
      "outputs": [],
      "stateMutability": "nonpayable",
      "type": "function"
    },
    {
      "inputs": [],
      "name": "totalBorrowedAllTime",
      "outputs": [
        {
          "internalType": "uint256",
          "name": "",
          "type": "uint256"
        }
      ],
      "stateMutability": "view",
      "type": "function"
    },
    {
      "inputs": [],
      "name": "totalFunds",
      "outputs": [
        {
          "internalType": "uint256",
          "name": "",
          "type": "uint256"
        }
      ],
      "stateMutability": "view",
      "type": "function"
    },
    {
      "inputs": [],
      "name": "totalRepaidAllTime",
      "outputs": [
        {
          "internalType": "uint256",
          "name": "",
          "type": "uint256"
        }
      ],
      "stateMutability": "view",
      "type": "function"
    },
    {
      "inputs": [
        {
          "internalType": "uint256",
          "name": "tierIndex",
          "type": "uint256"
        },
        {
          "internalType": "uint256",
          "name": "minScore",
          "type": "uint256"
        },
        {
          "internalType": "uint256",
          "name": "maxScore",
          "type": "uint256"
        },
        {
          "internalType": "uint256",
          "name": "collateralRatio",
          "type": "uint256"
        },
        {
          "internalType": "int256",
          "name": "interestRateModifier",
          "type": "int256"
        },
        {
          "internalType": "uint256",
          "name": "maxLoanAmount",
          "type": "uint256"
        }
      ],
      "name": "updateBorrowTier",
      "outputs": [],
      "stateMutability": "nonpayable",
      "type": "function"
    },
    {
      "inputs": [
        {
          "internalType": "address",
          "name": "user",
          "type": "address"
        },
        {
          "internalType": "uint256",
          "name": "score",
          "type": "uint256"
        }
      ],
      "name": "updateCreditScoreFromZK",
      "outputs": [],
      "stateMutability": "nonpayable",
      "type": "function"
    },
    {
      "inputs": [
        {
          "internalType": "address",
          "name": "",
          "type": "address"
        }
      ],
      "name": "userDebt",
      "outputs": [
        {
          "internalType": "uint256",
          "name": "",
          "type": "uint256"
        }
      ],
      "stateMutability": "view",
      "type": "function"
    },
    {
      "inputs": [
        {
          "internalType": "uint256",
          "name": "",
          "type": "uint256"
        }
      ],
      "name": "users",
      "outputs": [
        {
          "internalType": "address",
          "name": "",
          "type": "address"
        }
      ],
      "stateMutability": "view",
      "type": "function"
    },
    {
      "inputs": [],
      "name": "votingToken",
      "outputs": [
        {
          "internalType": "contract VotingToken",
          "name": "",
          "type": "address"
        }
      ],
      "stateMutability": "view",
      "type": "function"
    },
    {
      "inputs": [
        {
          "internalType": "address",
          "name": "token",
          "type": "address"
        },
        {
          "internalType": "uint256",
          "name": "amount",
          "type": "uint256"
        }
      ],
      "name": "withdrawCollateral",
      "outputs": [],
      "stateMutability": "nonpayable",
      "type": "function"
    },
    {
      "inputs": [
        {
          "internalType": "uint256",
          "name": "amount",
          "type": "uint256"
        }
      ],
      "name": "withdrawForLendingManager",
      "outputs": [],
      "stateMutability": "nonpayable",
      "type": "function"
    },
    {
      "inputs": [
        {
          "internalType": "address",
          "name": "token",
          "type": "address"
        },
        {
          "internalType": "uint256",
          "name": "amount",
          "type": "uint256"
        }
      ],
      "name": "withdrawPartialCollateral",
      "outputs": [],
      "stateMutability": "nonpayable",
      "type": "function"
    },
    {
      "inputs": [],
      "name": "zkProofRequired",
      "outputs": [
        {
          "internalType": "bool",
          "name": "",
          "type": "bool"
        }
      ],
      "stateMutability": "view",
      "type": "function"
    },
    {
      "stateMutability": "payable",
      "type": "receive"
    }
  ],
  "bytecode": "0x608080604052346100175761594690816200001c8239f35b5f80fdfe6080604081815260048036101561002f575b505050361561001e575f80fd5b61002a3460a25461460c565b60a255005b5f925f3560e01c90816301c76f81146142c65750806301ffc9a714614273578063042e02cf1461423757806305510b911461416e578063080d9c2b1461402f5780630b044c79146140135780630ef7fb6714613ff857806312065fe014613fde5780631459457a14613cd157806314673d3114613c1e5780631bfe426114613be45780631fd48b9a14613bab57806320dfcae1146138fd57806323fe5a33146138e5578063248a9ca3146138ba5780632f2ff15d1461381857806330332f9f1461379f57806333481fc9146136b5578063350c35e914613426578063357619a9146133ec57806335f67981146133c057806336568abe1461332e578063365b98b21461330557806338053ef3146132ce5780633d7c5d3e146132b0578063402d88831461309c5780634046ebae1461306f578063418eea3114613034578063450a375a1461300e5780634585e33b14612e55578063488683cd14612e1a5780634c8f35ab146119805780634c95da6614612de657806352226ef014612d9b57806355f4d9e214612c395780635b66e7fc14612c1c5780635b6cca8014612bcb5780635c44f10d14612baf5780635c975abb14611a835780636579b73e14612b7757806368272ecc14612afe5780636c648fc414612ad85780636e04ff0d146128fe5780636e9960c314610fad578063704b6c021461286d57806370ed11bc1461280f57806372ed9f7b1461268c5780637346f4861461264e57806373b4086b146125d357806376e112861461255257806378974cbb146124be5780637a8ce68b14612483578063802937ac1461246457806383475f0c1461242957806386d785e6146123dc5780638e6b53bc146123aa57806391d14854146123675780639490a51e1461232957806395eb0d15146122fb578063962a0da5146122c0578063968ed600146122a157806397ed81cf1461218c5780639ac77e1b146121165780639b8621d5146120fa5780639e3b77af146120d1578063a217fddf146120b6578063a36e4ad614611e25578063a5d5db0c14611bbb578063a75b24c714611afc578063a89ef5ca14611ad3578063b034012314611aaa578063b187bd2614611a83578063b3075fb714611a52578063b3a5a0a214611a12578063b69e5c77146119da578063b8cdf561146119bb578063bc3d5a3e1461199c578063c129d50414611980578063c1a287e214611962578063c23c69d51461192a578063c39537e1146118ef578063c4ae31681461186c578063c5ebeaec146111f4578063c869d0ed14611152578063c941f32114611129578063cf17622514611100578063cf309012146110dc578063d1f151c11461100e578063d29255f914610fd6578063d33219b414610fad578063d3dd2bdf14610f87578063d547741f14610f49578063ddac7f1b14610ec0578063e19fb8f514610daf578063e1c5010014610ca4578063e2842d7914610c13578063e2d7462814610bbb578063e6ae357614610b80578063e7602b9d14610b33578063e84bae4514610b02578063e884cf2314610adb578063e8a7da8e1461089e578063e9ffb29114610863578063eb8d655114610828578063ebdcc164146107ee578063ef02401a146107bf578063f1c5d6c214610792578063f3fdb15a14610769578063f79ed94b14610740578063f7e590ee14610708578063feb50e52146106065763ffd4aedb036100115734610602576080366003190112610602576105ae91610524614326565b61052c61433c565b92610535614352565b90606435918760018060a01b0380956105538260a554163314614cc1565b169283825260209788966097885288842091165f528652865f20610578868254614570565b9055865163a9059cbb60e01b81526001600160a01b03909316908301908152602081019490945290968793849291839160400190565b03925af19081156105f957506105c2578280f35b81813d83116105f2575b6105d681836145dd565b810103126105ee576105e7906145ff565b505f808280f35b5080fd5b503d6105cc565b513d85823e3d90fd5b8280fd5b50903461060257806003193601126106025781356024356001600160a01b03818116918290036107045760a8541633036106f5578147106106da578480809381935af13d156106d5573d67ffffffffffffffff81116106c257825190610676601f8201601f1916602001836145dd565b81528460203d92013e5b15610689578280f35b906020606492519162461bcd60e51b83528201526013602482015272115512081d1c985b9cd9995c8819985a5b1959606a1b6044820152fd5b604184634e487b7160e01b5f525260245ffd5b610680565b825162461bcd60e51b8152806106f181870161496c565b0390fd5b505051630925c89960e31b8152fd5b8580fd5b5050346105ee5760203660031901126105ee5760209181906001600160a01b03610730614326565b1681526099845220549051908152f35b5050346105ee57816003193601126105ee5760b05490516001600160a01b039091168152602090f35b5050346105ee57816003193601126105ee5760a65490516001600160a01b039091168152602090f35b5050346105ee5760203660031901126105ee576020906107b86107b3614326565b615179565b9051908152f35b5050346105ee5760203660031901126105ee576020906107e56107e0614326565b6150a7565b90519015158152f35b5050346105ee5760203660031901126105ee5760209181906001600160a01b03610816614326565b16815260998452205415159051908152f35b5050346105ee57816003193601126105ee57602090517f742d8195bebb59905cedb6c02453745e9ef7090c163e7dea727ab0849b3dfc008152f35b5050346105ee57816003193601126105ee57602090517fa22cb6bd33c714cffaf72f196d1ebf87829cac5214f3ad84491fa8669ede7a6a8152f35b509134610ad8576020366003190112610ad8576108b9614326565b6001600160a01b038116825260b260205282822083516108d8816145ad565b60a08254958683526001840154956020840191878352600286015490818187015260038701549260608701978489528c8101549560c060ff600660808c01948a86528c60058201549c8d9101520154169901981515988981528642105f14610ad157620151806109484289614570565b049a5b849c81519062093a8091828101809111610aba57421180610ab0575b610a05575b505050511515806109fb575b156109ee575181516109899161460c565b5f198101929083116109db5750516101409c506109a591614552565b985b81519a8b5260208b01528901526060880152608087015260a086015260c085015260e0840152610100830152610120820152f35b634e487b7160e01b815260118e52602490fd5b50506101409b50986109a7565b5080511515610978565b610a0e90614b28565b6005811015610a9a57865260b1602052600187872001549151908101809111610a8557610a3f620151809142614570565b049081151580610a7c575b610a55575b8061096c565b612710929d5061016d91610a6d610a7292865161452b565b61452b565b04049a5f80610a4f565b50801515610a4a565b508f856011602492634e487b7160e01b835252fd5b50508f856021602492634e487b7160e01b835252fd5b5083511515610967565b5050508f856011602492634e487b7160e01b835252fd5b839a61094b565b80fd5b5050346105ee57816003193601126105ee5760209060ff60a95460a01c1690519015158152f35b50346106025760203660031901126106025735916005831015610ad85750610b2b602092614514565b549051908152f35b5050346105ee57806003193601126105ee57602091610b50614326565b82610b5961433c565b6001600160a01b03928316845260978652922091165f908152908352819020549051908152f35b5050346105ee57816003193601126105ee57602090517fb438992c2c4c65322b65fd8e2dacea9efd63443e69e5ed52f4a77ed6c78f7c2a8152f35b503461060257602036600319011261060257610bd5614326565b60a8546001600160a01b03939192919084163303610c06575050166001600160601b0360a01b60a754161760a75580f35b51630925c89960e31b8152fd5b828434610ad85780600319360112610ad857815191829160a05480855260208095019460a083527f78fdc8d422c49ced035a9edf18d00d3c6a8d81df210f3e5e448e045e77b41e8892905b828210610c8457610c808686610c76828b03836145dd565b51918291826144d0565b0390f35b83546001600160a01b031687529586019560019384019390910190610c5e565b50903461060257602080600319360112610dab57610cc0614326565b610cc981614df6565b50610d73576001600160a01b0316808552609c82528285205490939060ff16610d325750828452609c8152818420805460ff19166001179055609d905282204290557f7f62ed89ea2c6fb057e4ea77729c1d3f18056339791fce29ac89760197b45b298280a280f35b915162461bcd60e51b815291820152601b60248201527f4c69717569646174696f6e20616c7265616479207374617274656400000000006044820152606490fd5b50905162461bcd60e51b8152918201526013602482015272506f736974696f6e206973206865616c74687960681b6044820152606490fd5b8380fd5b50903461060257602036600319011261060257813560a35492610dd560ff851615614a95565b60ff1993841660011760a35560a5546001600160a01b03163303610e7257478211610e2f57508380808093818115610e26575b3390f115610e1b575060a3541660a35580f35b51913d9150823e3d90fd5b506108fc610e08565b606490602084519162461bcd60e51b8352820152601d60248201527f496e73756666696369656e7420636f6e74726163742062616c616e63650000006044820152fd5b608490602084519162461bcd60e51b8352820152602260248201527f4f6e6c79206c656e64696e67206d616e616765722063616e2063616c6c207468604482015261697360f01b6064820152fd5b509034610602578060031936011261060257610eda614326565b60a854602435936001600160a01b03929183163303610f3b57620151808511610f0c575016835260ae60205282205580f35b606490602085519162461bcd60e51b83528201526009602482015268546f6f206c6172676560b81b6044820152fd5b8351630925c89960e31b8152fd5b509034610602578060031936011261060257610f849135610f7f6001610f6d61433c565b938387526065602052862001546154b3565b615727565b80f35b5050346105ee5760203660031901126105ee576020906107b8610fa8614326565b61579a565b5050346105ee57816003193601126105ee5760a85490516001600160a01b039091168152602090f35b5050346105ee5760203660031901126105ee5760209181906001600160a01b03610ffe614326565b168152609b845220549051908152f35b509190346105ee5760603660031901126105ee5760a8548335919060243590604435906001600160a01b031633036110cc5761104d60aa5485106148be565b825183810181811067ffffffffffffffff8211176110b9577f7543d68ffbde1802767cee31f14403e1b914f7249f14f2724e7398aa10de092395969750845282815260016020820183815287895260b1602052858920925183555191015582519182526020820152a280f35b604188634e487b7160e01b5f525260245ffd5b8251630925c89960e31b81528690fd5b5050346105ee57816003193601126105ee5760209060ff60a3541690519015158152f35b5050346105ee57816003193601126105ee57610c809061111e614f98565b9051918291826144d0565b5050346105ee57816003193601126105ee5760a45490516001600160a01b039091168152602090f35b50346106025760203660031901126106025761116c614326565b60a8546001600160a01b039190821633036111e457169182156111a15750506001600160601b0360a01b60a554161760a55580f35b906020606492519162461bcd60e51b8352820152601f60248201527f496e76616c6964206c656e64696e67206d616e616765722061646472657373006044820152fd5b8351630925c89960e31b81528390fd5b5090602080600319360112610dab5782359160a3549361121a60ff8660081c1615614619565b61122760ff861615614a95565b60ff1994851660011760a355338652609a83528186205461182b5761124b33614b28565b9060058210159182611818578181146117de5760a25460011c86116117825761127333614a26565b91505086116117315761128533614a26565b505061129033614bf6565b9060648202918083046064149015171561171e576112ae908861452b565b116116cd5760b0546001600160a01b03908116929089846116ab575b8a6112d5828b614570565b9582158015611613575b5050505060a254906112f660ac5460ad5490614570565b918b92816115d0575b505060a654169487875180978194634fd41dad60e11b83528683015260249889915afa9182156115c6578b92611593575b5061158157600361134084614497565b500154818b82121561154b575061135690614cb1565b9061271091820390828211611539579061136f9161452b565b04935b600c88106114e85762278d004201908142116114d757508993611434859461141d8960068c898f99819a829a8f8751976113ab896145ad565b83895286890190848252808a0192835260608a01938452600c60808b019504855260a08a01966101f4885260b260c08c019960018b52338352522098518955516001890155516002880155516003870155519085015551600584015551151591019060ff801983541691151516179055565b609a8a528a89852055609b8a524289852055614514565b61143f8a825461460c565b905561144d8960ac5461460c565b60ac558181156114ce575b3390f1156114c457907fac59582e5396aca512fa873a2047e7f4c80f8f55d4a06cb34a78a0187f62719f9291815190858252838201527f5660f932172e1664b98577a703dd9484d374b28e3bf8c87b345bee97af612412823392a2519283523392a260a3541660a35580f35b81513d87823e3d90fd5b506108fc611458565b634e487b7160e01b8b52601183528afd5b855162461bcd60e51b81529182018790526026908201527f4c6f616e20616d6f756e7420746f6f20736d616c6c20666f7220616d6f7274696044820152653d30ba34b7b760d11b6064820152608490fd5b634e487b7160e01b8c5260118452868cfd5b95918b821361155c575b5050611372565b909195506127109182019081831161153957906115789161452b565b04935f80611555565b634e487b7160e01b8a5260218252848afd5b9091508781813d83116115bf575b6115ab81836145dd565b810103126115bb5751905f611330565b5f80fd5b503d6115a1565b87513d8d823e3d90fd5b90919250670de0b6b3a76400009081810291818304149015171561160057906115f891614552565b905f806112ff565b634e487b7160e01b8c526011845260248cfd5b82848193829383906116a2575bf1156116985785611685578651908152606088820152600b60608201526a37b934b3b4b730ba34b7b760a91b608082015283878201527f66aecc579aa1ef463c0ed1547c2cb6163370e6311a60cba815252acbb398f21360a03392a25f8a81806112df565b634e487b7160e01b8b526021835260248bfd5b86513d8c823e3d90fd5b506108fc611620565b5093505f93828a5260b187526127106116c7878c20548a61452b565b046112ca565b835162461bcd60e51b8152808301869052602560248201527f496e73756666696369656e7420636f6c6c61746572616c20666f722074686973604482015264103637b0b760d91b6064820152608490fd5b634e487b7160e01b8a526011845260248afd5b835162461bcd60e51b8152808301869052602560248201527f426f72726f7720616d6f756e74206578636565647320796f75722074696572206044820152641b1a5b5a5d60da1b6064820152608490fd5b835162461bcd60e51b8152808301869052603060248201527f426f72726f7720616d6f756e74206578636565647320617661696c61626c652060448201526f6c656e64696e6720636170616369747960801b6064820152608490fd5b835162461bcd60e51b815280830186905260146024820152734372656469742073636f726520746f6f206c6f7760601b6044820152606490fd5b634e487b7160e01b885260218252602488fd5b82606492519162461bcd60e51b8352820152601e60248201527f526570617920796f7572206578697374696e67206465627420666972737400006044820152fd5b503461060257826003193601126106025760a8546001600160a01b031633036118e1575060207f228f455d7bc3d0b24a3a08d7847f391c3e78fc8aeb83acf226b7a96ee162b8ac9160ff60a35461ff00828260081c161560081b169061ff00191617918260a355519160081c1615158152a180f35b9051630925c89960e31b8152fd5b5050346105ee57816003193601126105ee57602090517facd38b7c4e04b2b78fc2ca994eae1a3eb206005ffa4c11fcf4a9d81c94684b2d8152f35b5050346105ee5760203660031901126105ee5760209181906001600160a01b03611952614326565b168152609d845220549051908152f35b5050346105ee57816003193601126105ee57602090516203f4808152f35b5050346105ee57816003193601126105ee576020905160828152f35b5050346105ee57816003193601126105ee5760209060ad549051908152f35b5050346105ee57816003193601126105ee5760209060ac549051908152f35b5050346105ee5760203660031901126105ee5760209181906001600160a01b03611a02614326565b168152609a845220549051908152f35b5034610602576020366003190112610602573591609f54831015610ad85750611a3c6020926143d2565b905491519160018060a01b039160031b1c168152f35b50346106025760203660031901126106025791819235815260b1602052206001815491015482519182526020820152f35b5050346105ee57816003193601126105ee5760209060ff60a35460081c1690519015158152f35b5050346105ee57816003193601126105ee5760a75490516001600160a01b039091168152602090f35b5050346105ee57816003193601126105ee5760a95490516001600160a01b039091168152602090f35b5034610602578160031936011261060257611b15614326565b60a954602435926001600160a01b03929183163303611b785750916020917f4afae6838a181695abc7978598380d73bc2144eb38580c130f86e4b1e6531e1593611b626064841115614f2a565b169384865260998352818187205551908152a280f35b606490602086519162461bcd60e51b8352820152601d60248201527f4f6e6c79206372656469742073797374656d2063616e207570646174650000006044820152fd5b509034610602578060031936011261060257611bd5614326565b6024359160018060a01b03809216938486526020926098845260ff838820541615611ded578415611db557338752609c845260ff8388205416611d7d5790849133885260a18552838820805460ff811615611d18575b505083516323b872dd60e01b815233928101928352306020840152604083019390935250909291908290849081906060015b038189895af18015611d0e57611cba575b7ff1c0dd7e9b98bbff859029005ef89b127af049cd18df1a8d79f0b7e019911e56925084865260978252808620335f528252805f20611cae85825461460c565b9055519283523392a380f35b8183813d8311611d07575b611ccf81836145dd565b8101031261070457611d017ff1c0dd7e9b98bbff859029005ef89b127af049cd18df1a8d79f0b7e019911e56936145ff565b50611c6e565b503d611cc5565b81513d88823e3d90fd5b60ff1916600117905560a05491925090600160401b811015611d6a57849392611c5d9592611d4d8360018a950160a055614389565b819291549060031b9133831b921b19161790559194819394611c2b565b604183634e487b7160e01b5f525260245ffd5b50816106f192515f805160206158f1833981519152339180611d9e8161499b565b0390a25162461bcd60e51b8152918291820161499b565b50816106f192515f805160206158f1833981519152339180611dd681614f6b565b0390a25162461bcd60e51b81529182918201614f6b565b50816106f192515f805160206158f1833981519152339180611e0e81614940565b0390a25162461bcd60e51b81529182918201614940565b5034610602578160031936011261060257611e3e614326565b6024359060a35493611e5660ff8660081c1615614619565b611e6360ff861615614a95565b60ff1994851660011760a35582156120a05760018060a01b0382169384875260209260978452828820335f52845284835f20541061205e57338852609a84528288205485929181611f82575b505092809291611f0194878a5260978352838a20335f528352835f20611ed6838254614570565b9055835163a9059cbb60e01b8152339181019182526020820192909252909485918291604090910190565b03818a895af18015611f7857611f33575b5f805160206158d18339815191529250519283523392a360a3541660a35580f35b8183813d8311611f71575b611f4881836145dd565b81010312611f6d57611f675f805160206158d1833981519152936145ff565b50611f12565b8680fd5b503d611f3e565b81513d89823e3d90fd5b611fe991929350611fc1670de0b6b3a764000091898c5260978852868c20335f528852611fbb611fb58a895f2054614570565b91615179565b9061452b565b0491611fcc33614b28565b6064611fe3611fda33614a26565b5050339461452b565b04615224565b11611ff75783905f80611eaf565b82608492519162461bcd60e51b8352820152603b60248201527f5769746864726177616c20776f756c642076696f6c61746520746965722d626160448201527f73656420636f6c6c61746572616c20726571756972656d656e747300000000006064820152fd5b5082606492519162461bcd60e51b8352820152601760248201527f496e73756666696369656e7420636f6c6c61746572616c0000000000000000006044820152fd5b5162461bcd60e51b8152806106f1818601614f6b565b5050346105ee57816003193601126105ee5751908152602090f35b5050346105ee57816003193601126105ee5760a55490516001600160a01b039091168152602090f35b5050346105ee57816003193601126105ee576020905160058152f35b50903461060257602036600319011261060257612131614326565b60a85490926001600160a01b0392909183163303610c065750508060a954921691826001600160601b0360a01b82161760a955167f3637d79e8b0bd63fa3bcc41c2ab614b349b83626b91f73211bc80c6ec5ec4e958380a380f35b5090346106025780600319360112610602576121a6614326565b60a85460243592916001600160a01b039182163303612291571692831561224f5730841461221557508160209161220160647f4afae6838a181695abc7978598380d73bc2144eb38580c130f86e4b1e6531e15951115614f2a565b84865260998352818187205551908152a280f35b6020606492519162461bcd60e51b8352820152601560248201527424b73b30b634b21030b2323932b9b99d1039b2b63360591b6044820152fd5b6020606492519162461bcd60e51b8352820152601d60248201527f496e76616c696420616464726573733a207a65726f20616464726573730000006044820152fd5b8251630925c89960e31b81528590fd5b5050346105ee57816003193601126105ee5760209060a2549051908152f35b5050346105ee57816003193601126105ee57602090517f96737339a958f216173e690d06f324072e6dc3146e04c060bd723906d6b190768152f35b5050346105ee57806003193601126105ee576020906107b861231b614326565b61232361433c565b90614e66565b5050346105ee5760203660031901126105ee5760209160ff9082906001600160a01b03612354614326565b16815260a1855220541690519015158152f35b50346106025781600319360112610602578160209361238461433c565b9235815260658552209060018060a01b03165f52825260ff815f20541690519015158152f35b828434610ad8576020366003190112610ad857506123ce6123c9614326565b614df6565b825191151582526020820152f35b5050346105ee5760203660031901126105ee5760a0906124026123fd614326565b614d4d565b93949190928251951515865215156020860152151590840152606083015215156080820152f35b5050346105ee57816003193601126105ee57602090517fce802e42c93d0fbd61dfc706a0e806b78ac046397e07510da2f223464e4788e08152f35b5050346105ee57816003193601126105ee5760209060af549051908152f35b5050346105ee57816003193601126105ee57602090517f0e0e24c52bc4f24612e3f568966757426acd82325205933a9270e1ce7c4d93c28152f35b5050346105ee57806003193601126105ee5761254c906125376125326124e2614326565b856024359460018060a01b036124fd8160a554163314614cc1565b83168252609a6020528181812055609b6020528181812055609c60205280822060ff198154169055609d602052812055614b28565b614514565b612542828254614570565b905560ad5461460c565b60ad5580f35b503461060257816003193601126106025761256b614326565b9161257461433c565b60a85490936001600160a01b03939091841633036125c55750821680855260986020526125a660ff8387205416614baa565b8452609e602052832091166001600160601b0360a01b82541617905580f35b8251630925c89960e31b8152fd5b50346106025760203660031901126106025760e09282906001600160a01b036125fa614326565b16815260b26020522080549260018201549260028301546003840154918401549260ff600660058701549601541695815197885260208801528601526060850152608084015260a0830152151560c0820152f35b5050346105ee5760203660031901126105ee5760209160ff9082906001600160a01b03612679614326565b1681526098855220541690519015158152f35b5090346106025760209283600319360112610ad8576126a9614326565b9260a2546126bc60ac5460ad5490614570565b811561280657670de0b6b3a7640000908181029181830414901517156127f357906126e691614552565b935b60a6548451634fd41dad60e11b8152838101969096528690869060249082906001600160a01b03165afa9485156127e95783956127b8575b5061272a90614a26565b508591508381121561277b57612744919293949550614cb1565b92612710938403928484116127685750509061275f9161452b565b04905b51908152f35b634e487b7160e01b825260119052602490fd5b9280841361278d575b50505050612762565b90919293945061271093840192838511612768575050906127ad9161452b565b04905f808080612784565b9094508581813d83116127e2575b6127d081836145dd565b810103126115bb57519361272a612720565b503d6127c6565b84513d85823e3d90fd5b634e487b7160e01b845260118352602484fd5b505081936126e8565b5090346106025760203660031901126106025781359260aa54841015610ad8575061283b60a093614497565b508054926001820154926002830154916003840154930154938151958652602086015284015260608301526080820152f35b503461060257602036600319011261060257612887614326565b60a85491906001600160a01b039081841633036128ee57169283156128b95750506001600160a01b0319161760a85580f35b906020606492519162461bcd60e51b8352820152600f60248201526e496e76616c6964206164647265737360881b6044820152fd5b8451630925c89960e31b81528390fd5b509190346105ee5761290f36614407565b505060609160b354603c8101809111612ac55761292d904211614ad1565b8151809160a05480835283602080940160a084527f78fdc8d422c49ced035a9edf18d00d3c6a8d81df210f3e5e448e045e77b41e8892845b86828210612aa65750505061297c925003846145dd565b6129868351614c7f565b938193825b8151811015612a11576001600160a01b036129a6828461465a565b5116808552609c865260ff84862054166129c4575b5060010161298b565b609d8652838520546203f48081018091116129fe5742106129bb57866129f7916129f1600194998b61465a565b5261466e565b95906129bb565b634e487b7160e01b865260118b52602486fd5b5084905085878215612a9a5750612a2782614c7f565b935b828110612a7257505050610c8090612a4d612a5b60019483519283918883016144d0565b03601f1981018352826145dd565b905b80805195869515158652850152830190614472565b6001906001600160a01b03612a87828561465a565b5116612a93828861465a565b5201612a29565b915050610c8091612a5d565b85546001600160a01b0316845260019586019589955093019201612965565b634e487b7160e01b825260118552602482fd5b5050346105ee5760203660031901126105ee576020906107b8612af9614326565b614bf6565b509034610602576020366003190112610602578135918215158093036115bb5760a8546001600160a01b031633036118e1575060a9805460ff60a01b191660a084901b60ff60a01b16179055519081527f895b395338611f71448ee682a563b0c13233e238236eb6700d45720ec4bf444590602090a180f35b5050346105ee5760203660031901126105ee5760209181906001600160a01b03612b9f614326565b16815260ae845220549051908152f35b5050346105ee57816003193601126105ee5760209051603c8152f35b5050346105ee5760203660031901126105ee576020916001600160a01b0390829082612bf5614326565b1680825260988652612c0c60ff8484205416614baa565b8152609e85522054169051908152f35b5050346105ee57816003193601126105ee57602090516103848152f35b509034610602578060031936011261060257612c53614326565b9060243591821515928381036115bb5760a8546001600160a01b03929083163303612d8b578216948587526098602052612c9b828589209060ff801983541691151516179055565b609f549187805b848110612d61575b5081612d58575b50612ce7575b5050507f15f5cc64ca777db85f6c05fdba671568758b38329616d4d4b43bb8b092fe9a8d9160209151908152a280f35b600160401b821015612d455750917f15f5cc64ca777db85f6c05fdba671568758b38329616d4d4b43bb8b092fe9a8d9391612d2a84600160209601609f556143d2565b819291549060031b9188831b921b1916179055918193612cb7565b604190634e487b7160e01b5f525260245ffd5b9050155f612cb1565b8886612d6c836143d2565b90549060031b1c1614612d8157600101612ca2565b505060015f612caa565b8351630925c89960e31b81528690fd5b5050346105ee57806003193601126105ee57602091612db8614326565b906001600160a01b0390839082612dcd61433c565b168152609786522091165f528252805f20549051908152f35b5050346105ee5760203660031901126105ee57602090612e18612e0f612e0a614326565b614b28565b91518092614368565bf35b5050346105ee57816003193601126105ee57602090517f430b074324c1d9f1ce97c9e9efd8cc6b779c8a501b53808a5cafe19682f95dd58152f35b503461060257612e6436614407565b60b393919354603c8101809111612ffb57612e80904211614ad1565b4260b35583019260209081818603126107045780359067ffffffffffffffff8211611f6d57019380601f86011215610704578435612ebd81614b10565b95612eca855197886145dd565b818752838088019260051b820101928311612ff7578301905b828210612fd857505050845b8451811015612fd4576001600160a01b0380612f0b838861465a565b511690818852609c845260ff8589205416612f2b575b5050600101612eef565b609d8452848820546203f4808101809111612fc15790889291421015612f52575b50612f21565b60a55416803b1561060257855163bcebb1d760e01b8152308882019081526001600160a01b039093166020840152918391839182908490829060400103925af18015612fb757612fa3575b80612f4c565b612fac906145c9565b61070457855f612f9d565b85513d84823e3d90fd5b634e487b7160e01b895260118752602489fd5b8580f35b81356001600160a01b03811681036115bb578152908301908301612ee3565b8780fd5b634e487b7160e01b865260118452602486fd5b5050346105ee57816003193601126105ee5780602092338152609a845220549051908152f35b5050346105ee57816003193601126105ee57602090517f5fef09193e4e8110de1cc5ba269e889a5fb9093ba33c4df4b67dc2eaa1ca1fff8152f35b5050346105ee57816003193601126105ee5760a354905160109190911c6001600160a01b03168152602090f35b505f3660031901126115bb5760a354916130bc60ff8460081c1615614619565b6130c960ff841615614a95565b600160ff198094161760a355335f52602090609a8252805f2054801561327b573415613249578086913411805f146132425781955b335f52609a8652845f20613113888254614570565b90556131218760ad5461460c565b60ad55335f52609c8652845f2088815460ff811661322e575b505060a7546001600160a01b03169050806131ba575b505061318d575b5050907f0516911bcc3a0a7412a44601057c0a0a1ec628bde049a84284bc42886653448891519283523392a260a3541660a35580f35b818061319a819334614570565b8181156131b1575b3390f1156105f957845f613157565b506108fc6131a2565b8091929394503b156115bb5784516340c10f1960e01b815233928101928352662386f26fc1000088046020840152915f91839182908490829060400103925af180156132245761320f575b9081889392613150565b61321b919297506145c9565b5f95905f613205565b84513d5f823e3d90fd5b169055609d86525f858120555f888161313a565b34956130fe565b505162461bcd60e51b815291820152600d60248201526c09aeae6e840e6cadcc8408aa89609b1b604482015260649150fd5b505162461bcd60e51b815291820152601060248201526f4e6f206465627420746f20726570617960801b604482015260649150fd5b82346115bb575f3660031901126115bb5760209060b3549051908152f35b82346115bb5760203660031901126115bb576060906132f36132ee614326565b614a26565b91929081519384526020840152820152f35b50346115bb5760203660031901126115bb57359060a0548210156115bb57611a3c602092614389565b50346115bb57816003193601126115bb5761334761433c565b90336001600160a01b0383160361336557613363925035615727565b005b608490602084519162461bcd60e51b8352820152602f60248201527f416363657373436f6e74726f6c3a2063616e206f6e6c792072656e6f756e636560448201526e103937b632b9903337b91039b2b63360891b6064820152fd5b5090346115bb5760203660031901126115bb5760a8546001600160a01b03163303610c0657503560af55005b82346115bb575f3660031901126115bb57602090517ffed613f2d4bec2209ff904769fa3c094c155ec5048c0bb2e17f16e523671ca2c8152f35b5090346115bb57806003193601126115bb57613440614326565b6024359160018060a01b039384831694855f526020936098855260ff845f2054161561369457865f5260978552835f20335f52855285845f20541061365c57335f52609c855260ff845f20541661363b576134c090670de0b6b3a76400006134b96134b36134ad33614bf6565b93615179565b8961452b565b0490614570565b9060648202918083046064149015171561362857602490335f52609a865285855f20549160a45416865193848092631ee1b90b60e21b82528c898301525afa90811561361e575f916135ed575b613517925061452b565b116135b6579082846135419493875f5260978352835f20335f528352835f20611ed6838254614570565b03815f895af180156135ac5761356b575b5f805160206158d18339815191529250519283523392a3005b8183813d83116135a5575b61358081836145dd565b810103126115bb5761359f5f805160206158d1833981519152936145ff565b50613552565b503d613576565b50513d5f823e3d90fd5b816106f192515f805160206158f18339815191523391806135d6816149d3565b0390a25162461bcd60e51b815291829182016149d3565b90508582813d8311613617575b61360481836145dd565b810103126115bb5761351791519061350d565b503d6135fa565b85513d5f823e3d90fd5b601183634e487b7160e01b5f525260245ffd5b6106f1838580515f805160206158f1833981519152339180611d9e8161499b565b6106f1838580515f805160206158f183398151915233918061367d8161496c565b0390a25162461bcd60e51b8152918291820161496c565b6106f1838580515f805160206158f1833981519152339180611e0e81614940565b50346115bb5760203660031901126115bb5760e0916136d2614326565b5f60c083516136e0816145ad565b82815282602082015282858201528260608201528260808201528260a0820152015260018060a01b03165f5260b2602052805f20815191613720836145ad565b81549384845260018301549160208501928352600284015481860190815260038501549260608701938452850154936080870194855260c060ff600660058901549860a08b01998a5201541697019615158752825197885251602088015251908601525160608501525160808401525160a083015251151560c0820152f35b5090346115bb5760c03660031901126115bb5760a854823592906001600160a01b031633036118e15750613812613363926137dd60aa5482106148be565b8251926137e98461457d565b6024358452604435602085015260643590840152608435606084015260a4356080840152614497565b906148f9565b50346115bb57816003193601126115bb57359061383361433c565b90825f52606560205261384b6001825f2001546154b3565b825f526065602052805f209160018060a01b031691825f5260205260ff815f2054161561387457005b825f526065602052805f20825f526020525f20600160ff1982541617905533917f2f8788117e7eff1d82e926ec794901d17c78024a50270940304540a733656f0d5f80a4005b5090346115bb5760203660031901126115bb57602091355f52606582526001815f2001549051908152f35b346115bb575f3660031901126115bb5761336361467c565b50905f3660031901126115bb5761391c60ff60a35460081c1615614619565b335f52602060b28152815f20600681019360ff85541615613b775780820191825492833410613b345760038201918254804210613b055762093a808101809111613af257804211613a30575b5090600161399f92019461397d818754614570565b8655335f52609a8752613994885f20918254614570565b90555460ad5461460c565b60ad5580549162278d008301809311613a1d5750907fd3cf6d8c55fed98c7b9f9d18d95a51dbdb316503bb854fc1f676c8974cb10f4f9291555492838151933485528401523392a2156139ee57005b805460ff19169055337f59bd56f70adeefb0cd83dca0f34f066bed6ee442068f3d07b5fc974b944d5aa65f80a2005b601190634e487b7160e01b5f525260245ffd5b613a3933614b28565b6005811015613adf579160019161399f94935f5260b1895262015180613a65848c5f2001549242614570565b0480151580613ad6575b613a7e575b5050919250613968565b613aa361271061016d613a9a87870194610a6d8654978861452b565b0404809361460c565b905589519081527fce0d6b567089a0bce35e0693cdb625006f0cf915f9f3686bb0343bc2c667c1b2893392a28a80613a74565b50811515613a6f565b602186634e487b7160e01b5f525260245ffd5b601185634e487b7160e01b5f525260245ffd5b875162461bcd60e51b81528086018890526009602482015268546f6f206561726c7960b81b6044820152606490fd5b855162461bcd60e51b8152808401869052601860248201527f496e73756666696369656e7420696e7374616c6c6d656e7400000000000000006044820152606490fd5b835162461bcd60e51b8152908101839052600e60248201526d27379030b1ba34bb32903637b0b760911b6044820152606490fd5b82346115bb5760203660031901126115bb576020906001600160a01b0380613bd1614326565b165f52609e8352815f2054169051908152f35b82346115bb575f3660031901126115bb57602090517f8b473ac3e35dc431c1dba0191b7615ccaca6bfeb14f9573dcaae9e614fbe8b208152f35b50346115bb5760203660031901126115bb57613c38614326565b60a8546001600160a01b039190821633036111e45716918215613c8e5760b080546001600160a01b03191684179055827f279ea638680bba6a87fddd8bcdbc37d94eee92841e1dfec2ab0f79662c7093115f80a2005b906020606492519162461bcd60e51b8352820152601760248201527f496e76616c6964207265736572766520616464726573730000000000000000006044820152fd5b50346115bb5760a03660031901126115bb57613ceb614326565b613cf361433c565b90613cfc614352565b6001600160a01b036064358181169392908490036115bb57608435948286168096036115bb575f549660ff8860081c161597888099613fd1575b8015613fba575b15613f605760ff1981166001175f5588613f4f575b5060ff5f5460081c1615613ef857508290816001600160601b0360a01b95168560a854161760a855168360a454161760a455168160a554161760a55560a654161760a65580613ed9575b50815190613da98261457d565b605a8252613dd3602092606484820152606e85820152601819606082015260326080820152615345565b613e058351613de18161457d565b60508152605984820152607d85820152600919606082015260286080820152615345565b613e358351613e138161457d565b60468152604f84820152608c858201525f6060820152601e6080820152615345565b613e668351613e438161457d565b603c815260458482015260a085820152600f606082015260146080820152615345565b613e958351613e748161457d565b5f8152603b8482015260c885820152601e60608201525f6080820152615345565b662386f26fc1000060af55613ea657005b7f7f26b83ff96e1f2b6a682f133852f6798a09c465da95921460cefb38474024989161ff00195f54165f555160018152a1005b60a980546001600160a81b031916909117600160a01b17905582613d9c565b60849060208a519162461bcd60e51b8352820152602b60248201527f496e697469616c697a61626c653a20636f6e7472616374206973206e6f74206960448201526a6e697469616c697a696e6760a81b6064820152fd5b61ffff1916610101175f5589613d52565b895162461bcd60e51b8152602081840152602e60248201527f496e697469616c697a61626c653a20636f6e747261637420697320616c72656160448201526d191e481a5b9a5d1a585b1a5e995960921b6064820152608490fd5b50303b158015613d3d5750600160ff821614613d3d565b50600160ff821610613d36565b82346115bb575f3660031901126115bb5751478152602090f35b82346115bb575f3660031901126115bb5760209051600a8152f35b82346115bb575f3660031901126115bb5760209051610e108152f35b5090346115bb57806003193601126115bb57614049614326565b9160243590335f52602093609c855260ff845f2054161561412b5783516323b872dd60e01b815233928101928352306020840152604083018490526001600160a01b039091169185908290819060600103815f865af18015613224576140f7575b505f5260978352815f20335f5283526140c7825f2091825461460c565b90556140d233614df6565b506140d957005b335f908152609c8352818120805460ff19169055609d909252812055005b8481813d8311614124575b61410c81836145dd565b810103126115bb5761411d906145ff565b50846140aa565b503d614102565b835162461bcd60e51b8152808301869052601a60248201527f4163636f756e74206e6f7420696e206c69717569646174696f6e0000000000006044820152606490fd5b5090346115bb5760203660031901126115bb57614189614326565b9161419383614b28565b9161419d84614a26565b50506001600160a01b0385165f908152609a60205282902054949092908515614228576141d190856064611fe3878a61452b565b90606482029180830460641490151715613a1d57506080946141f291614552565b9081831115614222576142058284614570565b925b61421382518096614368565b60208501528301526060820152f35b5f614205565b50506080935081905f92614207565b82346115bb5760203660031901126115bb576020906001600160a01b0361425c614326565b165f52609c825260ff815f20541690519015158152f35b50346115bb5760203660031901126115bb573563ffffffff60e01b81168091036115bb57602091637965db0b60e01b82149182156142b5575b50519015158152f35b6301ffc9a760e01b149150836142ac565b82346115bb5760203660031901126115bb576142e0614326565b60a8549092906001600160a01b0316330361431a5760a3805462010000600160b01b031916601085901b62010000600160b01b0316179055005b630925c89960e31b8152fd5b600435906001600160a01b03821682036115bb57565b602435906001600160a01b03821682036115bb57565b604435906001600160a01b03821682036115bb57565b9060058210156143755752565b634e487b7160e01b5f52602160045260245ffd5b60a0548110156143be5760a05f527f78fdc8d422c49ced035a9edf18d00d3c6a8d81df210f3e5e448e045e77b41e8801905f90565b634e487b7160e01b5f52603260045260245ffd5b609f548110156143be57609f5f527f0bc14066c33013fe88f66e314e4cf150b0b2d4d6451a1a51dbbd1c27cd11de2801905f90565b9060206003198301126115bb5760043567ffffffffffffffff928382116115bb57806023830112156115bb5781600401359384116115bb57602484830101116115bb576024019190565b5f5b8381106144625750505f910152565b8181015183820152602001614453565b9060209161448b81518092818552858086019101614451565b601f01601f1916010190565b60aa548110156143be5760059060aa5f52027f550d3de95be0bd28a79c3eb4ea7f05692c60b0602e48b49461e703379b08a71a01905f90565b60209060206040818301928281528551809452019301915f5b8281106144f7575050505090565b83516001600160a01b0316855293810193928101926001016144e9565b6005811015614375575f5260ab60205260405f2090565b8181029291811591840414171561453e57565b634e487b7160e01b5f52601160045260245ffd5b811561455c570490565b634e487b7160e01b5f52601260045260245ffd5b9190820391821161453e57565b60a0810190811067ffffffffffffffff82111761459957604052565b634e487b7160e01b5f52604160045260245ffd5b60e0810190811067ffffffffffffffff82111761459957604052565b67ffffffffffffffff811161459957604052565b90601f8019910116810190811067ffffffffffffffff82111761459957604052565b519081151582036115bb57565b9190820180921161453e57565b1561462057565b60405162461bcd60e51b815260206004820152601260248201527110dbdb9d1c9858dd081a5cc81c185d5cd95960721b6044820152606490fd5b80518210156143be5760209160051b010190565b5f19811461453e5760010190565b614684614f98565b5f5b8151811015614726576001600160a01b03806146a2838561465a565b511690815f52602091609e8352604091825f2054166146c7575b505050600101614686565b6146de6146d6610e109261536a565b905042614570565b116146e957806146bc565b60a3805461ff00191661010017905551600181527f228f455d7bc3d0b24a3a08d7847f391c3e78fc8aeb83acf226b7a96ee162b8ac9350909150a1565b505060a2548015159081614887575b5061476c5760a05460a5545f91906001600160a01b03908116835b8381106147d25750505080151591826147a8575b505061476c57565b61010061ff001960a354161760a3557f228f455d7bc3d0b24a3a08d7847f391c3e78fc8aeb83acf226b7a96ee162b8ac602060405160018152a1565b90915060648102908082046064149015171561453e576005916147ca91614552565b115f80614764565b6147db81614389565b905460408051632cf5889360e01b815230600482015260039390931b9190911c85166001600160a01b031660248301529060208082604481885afa92831561487e57505f92614848575b5050614834575b600101614750565b9361484060019161466e565b94905061482c565b90809250813d8311614877575b61485f81836145dd565b810103126115bb57614870906145ff565b5f80614825565b503d614855565b513d5f823e3d90fd5b905061489860ac5460ad5490614570565b60648102908082046064149015171561453e57605f916148b791614552565b115f614735565b156148c557565b60405162461bcd60e51b815260206004820152600c60248201526b24b73b30b634b2103a34b2b960a11b6044820152606490fd5b919061492d576080816004925184556020810151600185015560408101516002850155606081015160038501550151910155565b634e487b7160e01b5f525f60045260245ffd5b606090602081526011602082015270151bdad95b881b9bdd08185b1b1bddd959607a1b60408201520190565b606090602081526014602082015273496e73756666696369656e742062616c616e636560601b60408201520190565b60609060208152601960208201527f4163636f756e7420697320696e206c69717569646174696f6e0000000000000060408201520190565b60809060208152603260208201527f5769746864726177616c20776f756c64206d616b6520706f736974696f6e20756040820152711b99195c98dbdb1b185d195c985b1a5e995960721b60608201520190565b614a2f90614b28565b600581101561437557614a4190614497565b509060405190614a508261457d565b82548252600183015460208301526064614a8e608060028601549485604082015260046003880154978860608401520154918291015260a25461452b565b0491929190565b15614a9c57565b60405162461bcd60e51b815260206004820152600d60248201526c4e6f207265656e7472616e637960981b6044820152606490fd5b15614ad857565b60405162461bcd60e51b815260206004820152601060248201526f155c1ad9595c081d1a1c9bdd1d1b195960821b6044820152606490fd5b67ffffffffffffffff81116145995760051b60200190565b6001600160a01b03165f9081526099602052604081205460aa54915b828110614b645750505f19810190811161453e5760058110156143755790565b614b6d81614497565b505482101580614b93575b614b8457600101614b44565b91505060058110156143755790565b506001614b9f82614497565b500154821115614b78565b15614bb157565b60405162461bcd60e51b815260206004820152601f60248201527f546f6b656e206e6f7420616c6c6f77656420617320636f6c6c61746572616c006044820152606490fd5b905f91614c01614f98565b925f5b8451811015614c79576001600160a01b0380614c20838861465a565b511690815f5260209060978252604091825f209187165f52525f20549081614c4d575b5050600101614c04565b92670de0b6b3a7640000614c6a614c7193611fbb60019697615179565b049061460c565b91905f614c43565b50925050565b90614c8982614b10565b614c9660405191826145dd565b8281528092614ca7601f1991614b10565b0190602036910137565b600160ff1b811461453e575f0390565b15614cc857565b60405162461bcd60e51b815260206004820152601360248201527227b7363c902632b73234b733a6b0b730b3b2b960691b6044820152606490fd5b91908260c09103126115bb57614d18826145ff565b91614d25602082016145ff565b91614d32604083016145ff565b9160608101519160a0614d47608084016145ff565b92015190565b60a9546001600160a01b03908116919082614d71575050505f905f905f905f905f90565b602460c09260405194859384926335856b7f60e11b84521660048301525afa5f91829182918291829181614db9575b50614db65750505050505f905f905f905f905f90565b94565b935094505050614de1915060c03d60c011614def575b614dd981836145dd565b810190614d03565b50929491939092915f614da0565b503d614dcf565b90614e0082614bf6565b6001600160a01b0383165f908152609a6020526040902054928315614e5a578115614e5057614e2e90614a26565b5050926064820291820460640361453e57614e4891614552565b918210159190565b505090505f905f90565b50600192505f19919050565b91909160018060a01b038084165f52609760205260405f209082165f5260205260405f205492609a60205260405f2054908115614f2557614ea690615179565b90614ee1670de0b6b3a76400009384614ebf858961452b565b04926064611fe3614ecf84614b28565b92614ed985614a26565b50509061452b565b9081811115614f1c5790614ef491614570565b82810292818404149015171561453e57614f0d91614552565b91808311614f185750565b9150565b505f9450505050565b505050565b15614f3157565b60405162461bcd60e51b815260206004820152601260248201527153636f7265206f7574206f662072616e676560701b6044820152606490fd5b6060906020815260126020820152710416d6f756e74206d757374206265203e20360741b60408201520190565b609f545f805b8281106150135750614faf90614c7f565b905f805b828110614fc05750505090565b614fc9816143d2565b905460039190911b1c6001600160a01b03165f8181526098602052604090205460ff16614ffa575b50600101614fb3565b8261500c916129f1600194958861465a565b9190614ff1565b61501c816143d2565b60018060a01b0391549060031b1c165f52609860205260ff60405f205416615047575b600101614f9e565b9061505360019161466e565b91905061503f565b519069ffffffffffffffffffff821682036115bb57565b908160a09103126115bb576150868161505b565b916020820151916040810151916150a460806060840151930161505b565b90565b6001600160a01b038181165f908152609e60205260409020541680156151285760a060049160405192838092633fabe5a360e21b82525afa91821561516e575f915f905f9461512e575b506150ff6151059142614570565b91615822565b106151285769ffffffffffffffffffff80911691161061512457600190565b5f90565b50505f90565b61510594506150ff935061515a915060a03d60a011615167575b61515281836145dd565b810190615072565b9650929491506150f19050565b503d615148565b6040513d5f823e3d90fd5b600460206151868361536a565b509260018060a01b038091165f52609e825260405f2054166040519283809263313ce56760e01b82525afa801561516e575f906151e7575b60ff91501660120360ff811161453e5760ff1690604d821161453e576150a491600a0a9061452b565b506020813d60201161521c575b81615201602093836145dd565b810103126115bb575160ff811681036115bb5760ff906151be565b3d91506151f4565b9161522e9061579a565b9060058110156143755761524181614497565b50508061526e5750605f11156152545790565b605f810290808204605f149015171561453e576064900490565b600181036152a557506055811061529a5750605a810290808204605a149015171561453e576064900490565b605211156152545790565b600281036152f25750604b81106152d1575060558102908082046055149015171561453e576064900490565b6048116150a457605c810290808204605c149015171561453e576064900490565b6003146152fd575090565b60418110615320575060508102908082046050149015171561453e576064900490565b603e111561532b5790565b605a810290808204605a149015171561453e576064900490565b60aa5490600160401b82101561459957613812826001615368940160aa55614497565b565b9060018060a01b03918281165f52609e602052604092835f205416801561547a579260a0600494825195868092633fabe5a360e21b82525afa80156135ac575f80935f965f9361544a575b506153c36150ff8842614570565b106154185769ffffffffffffffffffff8091169116106153e257509190565b5162461bcd60e51b815260206004820152601060248201526f5374616c6520726f756e64206461746160801b6044820152606490fd5b825162461bcd60e51b815260206004820152600b60248201526a5374616c6520707269636560a81b6044820152606490fd5b925093505061546991945060a03d60a0116151675761515281836145dd565b96939094929150909395915f6153b5565b835162461bcd60e51b8152602060048201526012602482015271141c9a58d94819995959081b9bdd081cd95d60721b6044820152606490fd5b805f52602060658152604091825f20335f52825260ff835f205416156154d857505050565b33835191606083019067ffffffffffffffff9184811083821117614599578652602a845284840190863683378451156143be5760308253845193600194600110156143be576078602187015360295b8581116156e657506156a4578651926080840190811184821017614599578752604283528583019360603686378351156143be57603085538351600110156143be57607860218501536041905b80821161566157505061561f576106f1938693615603936155f46048946155cb9a519a8b957f416363657373436f6e74726f6c3a206163636f756e74200000000000000000008c8801525180926037880190614451565b8401917001034b99036b4b9b9b4b733903937b6329607d1b603784015251809386840190614451565b010360288101875201856145dd565b5192839262461bcd60e51b845260048401526024830190614472565b60648587519062461bcd60e51b825280600483015260248201527f537472696e67733a20686578206c656e67746820696e73756666696369656e746044820152fd5b9091600f811660108110156143be576f181899199a1a9b1b9c1cb0b131b232b360811b901a61569084876158bf565b5360041c91801561453e575f190190615574565b60648688519062461bcd60e51b825280600483015260248201527f537472696e67733a20686578206c656e67746820696e73756666696369656e746044820152fd5b90600f811660108110156143be576f181899199a1a9b1b9c1cb0b131b232b360811b901a61571483896158bf565b5360041c90801561453e575f1901615527565b90815f52606560205260405f209060018060a01b031690815f5260205260ff60405f205416615754575050565b815f52606560205260405f20815f5260205260405f2060ff19815416905533917ff6391f5c32d9c69d2a47ea670b442974b53935d1edc7fd64eb21e047a839171b5f80a4565b60a9546001600160a01b0391908216806157c0575b50165f52609960205260405f205490565b60c0602491604051928380926335856b7f60e11b825287871660048301525afa5f91816157fb575b50156157af5780156157af575b91505090565b61581591925060c03d60c011614def57614dd981836145dd565b505092505050905f6157e8565b6001600160a01b039081165f81815260ae6020526040902054909190806157f5575060209060a4541691602460405180948193631a650cc760e01b835260048301525afa90811561516e575f91615885575b5061587f5761038490565b610e1090565b90506020813d6020116158b7575b816158a0602093836145dd565b810103126115bb576158b1906145ff565b5f615874565b3d9150615893565b9081518110156143be57016020019056fe45892a46e6cef329bb642da6d69846d324db43d19008edc141ed82382eda1bee3c364b9decdac59fbe037e99687219ac0feed46572bfbcbd5284b6b8e67f402da264697066735822122074bb60dd551a8abed46b1a99473502f24b289373221b43135662a3cb319afe2864736f6c63430008180033",
  "linkReferences": {},
  "deployedLinkReferences": {}
}