{
  "_format": "hh-sol-artifact-1",
  "contractName": "LiquidityPool",
  "sourceName": "contracts/LiquidityPool.sol",
  "abi": [
    {
      "inputs": [],
      "name": "OnlyTimelockLiquidityPool",
      "type": "error"
    },
    {
      "anonymous": false,
      "inputs": [
        {
          "indexed": true,
          "internalType": "address",
          "name": "user",
          "type": "address"
        },
        {
          "indexed": false,
          "internalType": "uint256",
          "name": "amount",
          "type": "uint256"
        }
      ],
      "name": "Borrowed",
      "type": "event"
    },
    {
      "anonymous": false,
      "inputs": [
        {
          "indexed": true,
          "internalType": "address",
          "name": "user",
          "type": "address"
        },
        {
          "indexed": true,
          "internalType": "address",
          "name": "token",
          "type": "address"
        },
        {
          "indexed": false,
          "internalType": "uint256",
          "name": "amount",
          "type": "uint256"
        }
      ],
      "name": "CollateralDeposited",
      "type": "event"
    },
    {
      "anonymous": false,
      "inputs": [
        {
          "indexed": true,
          "internalType": "address",
          "name": "token",
          "type": "address"
        },
        {
          "indexed": false,
          "internalType": "bool",
          "name": "isAllowed",
          "type": "bool"
        }
      ],
      "name": "CollateralTokenStatusChanged",
      "type": "event"
    },
    {
      "anonymous": false,
      "inputs": [
        {
          "indexed": true,
          "internalType": "address",
          "name": "user",
          "type": "address"
        },
        {
          "indexed": true,
          "internalType": "address",
          "name": "token",
          "type": "address"
        },
        {
          "indexed": false,
          "internalType": "uint256",
          "name": "amount",
          "type": "uint256"
        }
      ],
      "name": "CollateralWithdrawn",
      "type": "event"
    },
    {
      "anonymous": false,
      "inputs": [
        {
          "indexed": true,
          "internalType": "address",
          "name": "user",
          "type": "address"
        },
        {
          "indexed": false,
          "internalType": "uint256",
          "name": "score",
          "type": "uint256"
        }
      ],
      "name": "CreditScoreAssigned",
      "type": "event"
    },
    {
      "anonymous": false,
      "inputs": [
        {
          "indexed": true,
          "internalType": "address",
          "name": "oldContract",
          "type": "address"
        },
        {
          "indexed": true,
          "internalType": "address",
          "name": "newContract",
          "type": "address"
        }
      ],
      "name": "CreditScoreContractUpdated",
      "type": "event"
    },
    {
      "anonymous": false,
      "inputs": [
        {
          "indexed": false,
          "internalType": "bool",
          "name": "isPaused",
          "type": "bool"
        }
      ],
      "name": "EmergencyPaused",
      "type": "event"
    },
    {
      "anonymous": false,
      "inputs": [
        {
          "indexed": true,
          "internalType": "address",
          "name": "user",
          "type": "address"
        },
        {
          "indexed": false,
          "internalType": "uint256",
          "name": "amount",
          "type": "uint256"
        },
        {
          "indexed": false,
          "internalType": "string",
          "name": "feeType",
          "type": "string"
        },
        {
          "indexed": false,
          "internalType": "uint256",
          "name": "tier",
          "type": "uint256"
        }
      ],
      "name": "FeeCollected",
      "type": "event"
    },
    {
      "anonymous": false,
      "inputs": [
        {
          "indexed": true,
          "internalType": "string",
          "name": "proposalType",
          "type": "string"
        },
        {
          "indexed": true,
          "internalType": "address",
          "name": "target",
          "type": "address"
        },
        {
          "indexed": false,
          "internalType": "bool",
          "name": "success",
          "type": "bool"
        }
      ],
      "name": "GovernanceProposalExecuted",
      "type": "event"
    },
    {
      "anonymous": false,
      "inputs": [
        {
          "indexed": true,
          "internalType": "address",
          "name": "user",
          "type": "address"
        },
        {
          "indexed": false,
          "internalType": "uint256",
          "name": "newDeadline",
          "type": "uint256"
        }
      ],
      "name": "GracePeriodExtended",
      "type": "event"
    },
    {
      "anonymous": false,
      "inputs": [
        {
          "indexed": false,
          "internalType": "uint8",
          "name": "version",
          "type": "uint8"
        }
      ],
      "name": "Initialized",
      "type": "event"
    },
    {
      "anonymous": false,
      "inputs": [
        {
          "indexed": true,
          "internalType": "address",
          "name": "user",
          "type": "address"
        },
        {
          "indexed": true,
          "internalType": "address",
          "name": "liquidator",
          "type": "address"
        },
        {
          "indexed": false,
          "internalType": "uint256",
          "name": "amount",
          "type": "uint256"
        }
      ],
      "name": "LiquidationExecuted",
      "type": "event"
    },
    {
      "anonymous": false,
      "inputs": [
        {
          "indexed": true,
          "internalType": "address",
          "name": "user",
          "type": "address"
        }
      ],
      "name": "LiquidationStarted",
      "type": "event"
    },
    {
      "anonymous": false,
      "inputs": [
        {
          "indexed": true,
          "internalType": "address",
          "name": "applicant",
          "type": "address"
        },
        {
          "indexed": false,
          "internalType": "uint256",
          "name": "amount",
          "type": "uint256"
        },
        {
          "indexed": false,
          "internalType": "uint256",
          "name": "collateral",
          "type": "uint256"
        }
      ],
      "name": "LoanApplied",
      "type": "event"
    },
    {
      "anonymous": false,
      "inputs": [
        {
          "indexed": true,
          "internalType": "address",
          "name": "applicant",
          "type": "address"
        },
        {
          "indexed": false,
          "internalType": "uint256",
          "name": "amount",
          "type": "uint256"
        }
      ],
      "name": "LoanApproved",
      "type": "event"
    },
    {
      "anonymous": false,
      "inputs": [
        {
          "indexed": true,
          "internalType": "address",
          "name": "borrower",
          "type": "address"
        },
        {
          "indexed": false,
          "internalType": "uint256",
          "name": "amount",
          "type": "uint256"
        },
        {
          "indexed": false,
          "internalType": "uint256",
          "name": "rate",
          "type": "uint256"
        }
      ],
      "name": "LoanDisbursed",
      "type": "event"
    },
    {
      "anonymous": false,
      "inputs": [
        {
          "indexed": true,
          "internalType": "address",
          "name": "borrower",
          "type": "address"
        }
      ],
      "name": "LoanFullyRepaid",
      "type": "event"
    },
    {
      "anonymous": false,
      "inputs": [
        {
          "indexed": true,
          "internalType": "address",
          "name": "borrower",
          "type": "address"
        },
        {
          "indexed": false,
          "internalType": "uint256",
          "name": "amount",
          "type": "uint256"
        },
        {
          "indexed": false,
          "internalType": "uint256",
          "name": "remaining",
          "type": "uint256"
        }
      ],
      "name": "LoanInstallmentPaid",
      "type": "event"
    },
    {
      "anonymous": false,
      "inputs": [
        {
          "indexed": true,
          "internalType": "address",
          "name": "borrower",
          "type": "address"
        },
        {
          "indexed": false,
          "internalType": "uint256",
          "name": "penalty",
          "type": "uint256"
        }
      ],
      "name": "LoanLatePenaltyApplied",
      "type": "event"
    },
    {
      "anonymous": false,
      "inputs": [
        {
          "indexed": true,
          "internalType": "address",
          "name": "applicant",
          "type": "address"
        },
        {
          "indexed": false,
          "internalType": "uint256",
          "name": "amount",
          "type": "uint256"
        }
      ],
      "name": "LoanRejected",
      "type": "event"
    },
    {
      "anonymous": false,
      "inputs": [
        {
          "indexed": true,
          "internalType": "address",
          "name": "user",
          "type": "address"
        },
        {
          "indexed": true,
          "internalType": "address",
          "name": "liquidator",
          "type": "address"
        },
        {
          "indexed": true,
          "internalType": "address",
          "name": "collateralToken",
          "type": "address"
        },
        {
          "indexed": false,
          "internalType": "uint256",
          "name": "collateralSeized",
          "type": "uint256"
        },
        {
          "indexed": false,
          "internalType": "uint256",
          "name": "debtRepaid",
          "type": "uint256"
        }
      ],
      "name": "PartialLiquidation",
      "type": "event"
    },
    {
      "anonymous": false,
      "inputs": [
        {
          "indexed": false,
          "internalType": "bool",
          "name": "useRISC0",
          "type": "bool"
        }
      ],
      "name": "RISC0ScoreToggled",
      "type": "event"
    },
    {
      "anonymous": false,
      "inputs": [
        {
          "indexed": true,
          "internalType": "address",
          "name": "user",
          "type": "address"
        },
        {
          "indexed": false,
          "internalType": "uint256",
          "name": "amount",
          "type": "uint256"
        }
      ],
      "name": "Repaid",
      "type": "event"
    },
    {
      "anonymous": false,
      "inputs": [
        {
          "indexed": true,
          "internalType": "address",
          "name": "newReserve",
          "type": "address"
        }
      ],
      "name": "ReserveAddressUpdated",
      "type": "event"
    },
    {
      "anonymous": false,
      "inputs": [
        {
          "indexed": true,
          "internalType": "bytes32",
          "name": "role",
          "type": "bytes32"
        },
        {
          "indexed": true,
          "internalType": "bytes32",
          "name": "previousAdminRole",
          "type": "bytes32"
        },
        {
          "indexed": true,
          "internalType": "bytes32",
          "name": "newAdminRole",
          "type": "bytes32"
        }
      ],
      "name": "RoleAdminChanged",
      "type": "event"
    },
    {
      "anonymous": false,
      "inputs": [
        {
          "indexed": true,
          "internalType": "bytes32",
          "name": "role",
          "type": "bytes32"
        },
        {
          "indexed": true,
          "internalType": "address",
          "name": "account",
          "type": "address"
        },
        {
          "indexed": true,
          "internalType": "address",
          "name": "sender",
          "type": "address"
        }
      ],
      "name": "RoleGranted",
      "type": "event"
    },
    {
      "anonymous": false,
      "inputs": [
        {
          "indexed": true,
          "internalType": "bytes32",
          "name": "role",
          "type": "bytes32"
        },
        {
          "indexed": true,
          "internalType": "address",
          "name": "account",
          "type": "address"
        },
        {
          "indexed": true,
          "internalType": "address",
          "name": "sender",
          "type": "address"
        }
      ],
      "name": "RoleRevoked",
      "type": "event"
    },
    {
      "anonymous": false,
      "inputs": [
        {
          "indexed": true,
          "internalType": "address",
          "name": "token",
          "type": "address"
        },
        {
          "indexed": false,
          "internalType": "uint256",
          "name": "updatedAt",
          "type": "uint256"
        },
        {
          "indexed": false,
          "internalType": "uint256",
          "name": "currentTime",
          "type": "uint256"
        }
      ],
      "name": "StaleOracleTriggered",
      "type": "event"
    },
    {
      "anonymous": false,
      "inputs": [
        {
          "indexed": true,
          "internalType": "uint256",
          "name": "tier",
          "type": "uint256"
        },
        {
          "indexed": false,
          "internalType": "uint256",
          "name": "originationFee",
          "type": "uint256"
        },
        {
          "indexed": false,
          "internalType": "uint256",
          "name": "lateFeeAPR",
          "type": "uint256"
        }
      ],
      "name": "TierFeeUpdated",
      "type": "event"
    },
    {
      "anonymous": false,
      "inputs": [
        {
          "indexed": true,
          "internalType": "address",
          "name": "user",
          "type": "address"
        },
        {
          "indexed": false,
          "internalType": "string",
          "name": "message",
          "type": "string"
        }
      ],
      "name": "UserError",
      "type": "event"
    },
    {
      "anonymous": false,
      "inputs": [
        {
          "indexed": true,
          "internalType": "address",
          "name": "user",
          "type": "address"
        },
        {
          "indexed": false,
          "internalType": "string",
          "name": "action",
          "type": "string"
        },
        {
          "indexed": false,
          "internalType": "uint256",
          "name": "timestamp",
          "type": "uint256"
        }
      ],
      "name": "UserHistoryUpdated",
      "type": "event"
    },
    {
      "inputs": [],
      "name": "ALLOW_COLLATERAL_PERMISSION",
      "outputs": [
        {
          "internalType": "bytes32",
          "name": "",
          "type": "bytes32"
        }
      ],
      "stateMutability": "view",
      "type": "function"
    },
    {
      "inputs": [],
      "name": "DEFAULT_ADMIN_ROLE",
      "outputs": [
        {
          "internalType": "bytes32",
          "name": "",
          "type": "bytes32"
        }
      ],
      "stateMutability": "view",
      "type": "function"
    },
    {
      "inputs": [],
      "name": "DEFAULT_LIQUIDATION_THRESHOLD",
      "outputs": [
        {
          "internalType": "uint256",
          "name": "",
          "type": "uint256"
        }
      ],
      "stateMutability": "view",
      "type": "function"
    },
    {
      "inputs": [],
      "name": "DEFAULT_STALENESS_STABLE",
      "outputs": [
        {
          "internalType": "uint256",
          "name": "",
          "type": "uint256"
        }
      ],
      "stateMutability": "view",
      "type": "function"
    },
    {
      "inputs": [],
      "name": "DEFAULT_STALENESS_VOLATILE",
      "outputs": [
        {
          "internalType": "uint256",
          "name": "",
          "type": "uint256"
        }
      ],
      "stateMutability": "view",
      "type": "function"
    },
    {
      "inputs": [],
      "name": "GRACE_PERIOD",
      "outputs": [
        {
          "internalType": "uint256",
          "name": "",
          "type": "uint256"
        }
      ],
      "stateMutability": "view",
      "type": "function"
    },
    {
      "inputs": [],
      "name": "LIQUIDATION_PENALTY",
      "outputs": [
        {
          "internalType": "uint256",
          "name": "",
          "type": "uint256"
        }
      ],
      "stateMutability": "view",
      "type": "function"
    },
    {
      "inputs": [],
      "name": "SAFETY_BUFFER",
      "outputs": [
        {
          "internalType": "uint256",
          "name": "",
          "type": "uint256"
        }
      ],
      "stateMutability": "view",
      "type": "function"
    },
    {
      "inputs": [],
      "name": "SCORE_EXPIRY_PERIOD",
      "outputs": [
        {
          "internalType": "uint256",
          "name": "",
          "type": "uint256"
        }
      ],
      "stateMutability": "view",
      "type": "function"
    },
    {
      "inputs": [],
      "name": "SET_ADMIN_PERMISSION",
      "outputs": [
        {
          "internalType": "bytes32",
          "name": "",
          "type": "bytes32"
        }
      ],
      "stateMutability": "view",
      "type": "function"
    },
    {
      "inputs": [],
      "name": "SET_CREDIT_SCORE_PERMISSION",
      "outputs": [
        {
          "internalType": "bytes32",
          "name": "",
          "type": "bytes32"
        }
      ],
      "stateMutability": "view",
      "type": "function"
    },
    {
      "inputs": [],
      "name": "SET_LENDING_MANAGER_PERMISSION",
      "outputs": [
        {
          "internalType": "bytes32",
          "name": "",
          "type": "bytes32"
        }
      ],
      "stateMutability": "view",
      "type": "function"
    },
    {
      "inputs": [],
      "name": "SET_MAX_PRICE_AGE_PERMISSION",
      "outputs": [
        {
          "internalType": "bytes32",
          "name": "",
          "type": "bytes32"
        }
      ],
      "stateMutability": "view",
      "type": "function"
    },
    {
      "inputs": [],
      "name": "SET_MIN_PARTIAL_LIQUIDATION_AMOUNT_PERMISSION",
      "outputs": [
        {
          "internalType": "bytes32",
          "name": "",
          "type": "bytes32"
        }
      ],
      "stateMutability": "view",
      "type": "function"
    },
    {
      "inputs": [],
      "name": "SET_PRICE_FEED_PERMISSION",
      "outputs": [
        {
          "internalType": "bytes32",
          "name": "",
          "type": "bytes32"
        }
      ],
      "stateMutability": "view",
      "type": "function"
    },
    {
      "inputs": [],
      "name": "SET_RESERVE_ADDRESS_PERMISSION",
      "outputs": [
        {
          "internalType": "bytes32",
          "name": "",
          "type": "bytes32"
        }
      ],
      "stateMutability": "view",
      "type": "function"
    },
    {
      "inputs": [],
      "name": "SET_TIER_FEE_PERMISSION",
      "outputs": [
        {
          "internalType": "bytes32",
          "name": "",
          "type": "bytes32"
        }
      ],
      "stateMutability": "view",
      "type": "function"
    },
    {
      "inputs": [],
      "name": "TOGGLE_PAUSE_PERMISSION",
      "outputs": [
        {
          "internalType": "bytes32",
          "name": "",
          "type": "bytes32"
        }
      ],
      "stateMutability": "view",
      "type": "function"
    },
    {
      "inputs": [],
      "name": "UPDATE_BORROW_TIER_PERMISSION",
      "outputs": [
        {
          "internalType": "bytes32",
          "name": "",
          "type": "bytes32"
        }
      ],
      "stateMutability": "view",
      "type": "function"
    },
    {
      "inputs": [],
      "name": "UPKEEP_COOLDOWN",
      "outputs": [
        {
          "internalType": "uint256",
          "name": "",
          "type": "uint256"
        }
      ],
      "stateMutability": "view",
      "type": "function"
    },
    {
      "inputs": [
        {
          "internalType": "address",
          "name": "token",
          "type": "address"
        }
      ],
      "name": "allowedCollateralTokens",
      "outputs": [
        {
          "internalType": "bool",
          "name": "",
          "type": "bool"
        }
      ],
      "stateMutability": "view",
      "type": "function"
    },
    {
      "inputs": [
        {
          "internalType": "string",
          "name": "serverName",
          "type": "string"
        }
      ],
      "name": "authorizeCreditScoreServer",
      "outputs": [],
      "stateMutability": "nonpayable",
      "type": "function"
    },
    {
      "inputs": [
        {
          "internalType": "string",
          "name": "providerName",
          "type": "string"
        }
      ],
      "name": "authorizeCreditScoreStateRootProvider",
      "outputs": [],
      "stateMutability": "nonpayable",
      "type": "function"
    },
    {
      "inputs": [
        {
          "internalType": "uint256",
          "name": "amount",
          "type": "uint256"
        }
      ],
      "name": "borrow",
      "outputs": [],
      "stateMutability": "payable",
      "type": "function"
    },
    {
      "inputs": [
        {
          "internalType": "uint256",
          "name": "",
          "type": "uint256"
        }
      ],
      "name": "borrowTierConfigs",
      "outputs": [
        {
          "internalType": "uint256",
          "name": "minScore",
          "type": "uint256"
        },
        {
          "internalType": "uint256",
          "name": "maxScore",
          "type": "uint256"
        },
        {
          "internalType": "uint256",
          "name": "collateralRatio",
          "type": "uint256"
        },
        {
          "internalType": "int256",
          "name": "interestRateModifier",
          "type": "int256"
        },
        {
          "internalType": "uint256",
          "name": "maxLoanAmount",
          "type": "uint256"
        }
      ],
      "stateMutability": "view",
      "type": "function"
    },
    {
      "inputs": [
        {
          "internalType": "address",
          "name": "",
          "type": "address"
        }
      ],
      "name": "borrowTimestamp",
      "outputs": [
        {
          "internalType": "uint256",
          "name": "",
          "type": "uint256"
        }
      ],
      "stateMutability": "view",
      "type": "function"
    },
    {
      "inputs": [
        {
          "internalType": "enum LiquidityPool.RiskTier",
          "name": "",
          "type": "uint8"
        }
      ],
      "name": "borrowedAmountByRiskTier",
      "outputs": [
        {
          "internalType": "uint256",
          "name": "",
          "type": "uint256"
        }
      ],
      "stateMutability": "view",
      "type": "function"
    },
    {
      "inputs": [
        {
          "internalType": "address",
          "name": "user",
          "type": "address"
        }
      ],
      "name": "calculateBorrowCapacity",
      "outputs": [
        {
          "internalType": "uint256",
          "name": "",
          "type": "uint256"
        }
      ],
      "stateMutability": "view",
      "type": "function"
    },
    {
      "inputs": [
        {
          "internalType": "address",
          "name": "user",
          "type": "address"
        }
      ],
      "name": "calculateCollateralValue",
      "outputs": [
        {
          "internalType": "uint256",
          "name": "",
          "type": "uint256"
        }
      ],
      "stateMutability": "view",
      "type": "function"
    },
    {
      "inputs": [
        {
          "internalType": "address",
          "name": "user",
          "type": "address"
        }
      ],
      "name": "calculateHealthFactor",
      "outputs": [
        {
          "internalType": "uint256",
          "name": "",
          "type": "uint256"
        }
      ],
      "stateMutability": "view",
      "type": "function"
    },
    {
      "inputs": [
        {
          "internalType": "address",
          "name": "user",
          "type": "address"
        }
      ],
      "name": "calculateLiquidation",
      "outputs": [
        {
          "internalType": "uint256",
          "name": "",
          "type": "uint256"
        },
        {
          "internalType": "uint256",
          "name": "",
          "type": "uint256"
        }
      ],
      "stateMutability": "view",
      "type": "function"
    },
    {
      "inputs": [
        {
          "internalType": "address",
          "name": "user",
          "type": "address"
        }
      ],
      "name": "calculateUserDebt",
      "outputs": [
        {
          "internalType": "uint256",
          "name": "",
          "type": "uint256"
        }
      ],
      "stateMutability": "view",
      "type": "function"
    },
    {
      "inputs": [
        {
          "internalType": "address",
          "name": "user",
          "type": "address"
        }
      ],
      "name": "canLend",
      "outputs": [
        {
          "internalType": "bool",
          "name": "",
          "type": "bool"
        }
      ],
      "stateMutability": "view",
      "type": "function"
    },
    {
      "inputs": [],
      "name": "checkCircuitBreakers",
      "outputs": [],
      "stateMutability": "nonpayable",
      "type": "function"
    },
    {
      "inputs": [
        {
          "internalType": "address",
          "name": "user",
          "type": "address"
        }
      ],
      "name": "checkCollateralization",
      "outputs": [
        {
          "internalType": "bool",
          "name": "isHealthy",
          "type": "bool"
        },
        {
          "internalType": "uint256",
          "name": "ratio",
          "type": "uint256"
        }
      ],
      "stateMutability": "view",
      "type": "function"
    },
    {
      "inputs": [
        {
          "internalType": "bytes",
          "name": "",
          "type": "bytes"
        }
      ],
      "name": "checkUpkeep",
      "outputs": [
        {
          "internalType": "bool",
          "name": "upkeepNeeded",
          "type": "bool"
        },
        {
          "internalType": "bytes",
          "name": "performData",
          "type": "bytes"
        }
      ],
      "stateMutability": "view",
      "type": "function"
    },
    {
      "inputs": [
        {
          "internalType": "address",
          "name": "token",
          "type": "address"
        },
        {
          "internalType": "address",
          "name": "user",
          "type": "address"
        },
        {
          "internalType": "address",
          "name": "to",
          "type": "address"
        },
        {
          "internalType": "uint256",
          "name": "amount",
          "type": "uint256"
        }
      ],
      "name": "clearCollateral",
      "outputs": [],
      "stateMutability": "nonpayable",
      "type": "function"
    },
    {
      "inputs": [
        {
          "internalType": "address",
          "name": "user",
          "type": "address"
        },
        {
          "internalType": "uint256",
          "name": "amount",
          "type": "uint256"
        }
      ],
      "name": "clearDebt",
      "outputs": [],
      "stateMutability": "nonpayable",
      "type": "function"
    },
    {
      "inputs": [
        {
          "internalType": "address",
          "name": "",
          "type": "address"
        },
        {
          "internalType": "address",
          "name": "",
          "type": "address"
        }
      ],
      "name": "collateralBalance",
      "outputs": [
        {
          "internalType": "uint256",
          "name": "",
          "type": "uint256"
        }
      ],
      "stateMutability": "view",
      "type": "function"
    },
    {
      "inputs": [
        {
          "internalType": "uint256",
          "name": "",
          "type": "uint256"
        }
      ],
      "name": "collateralTokenList",
      "outputs": [
        {
          "internalType": "address",
          "name": "",
          "type": "address"
        }
      ],
      "stateMutability": "view",
      "type": "function"
    },
    {
      "inputs": [
        {
          "internalType": "uint64",
          "name": "ficoScore",
          "type": "uint64"
        }
      ],
      "name": "convertFICOToContractScore",
      "outputs": [
        {
          "internalType": "uint256",
          "name": "",
          "type": "uint256"
        }
      ],
      "stateMutability": "pure",
      "type": "function"
    },
    {
      "inputs": [
        {
          "internalType": "address",
          "name": "",
          "type": "address"
        }
      ],
      "name": "creditScore",
      "outputs": [
        {
          "internalType": "uint256",
          "name": "",
          "type": "uint256"
        }
      ],
      "stateMutability": "view",
      "type": "function"
    },
    {
      "inputs": [],
      "name": "creditScoreContract",
      "outputs": [
        {
          "internalType": "contract ICreditScore",
          "name": "",
          "type": "address"
        }
      ],
      "stateMutability": "view",
      "type": "function"
    },
    {
      "inputs": [
        {
          "internalType": "address",
          "name": "token",
          "type": "address"
        },
        {
          "internalType": "uint256",
          "name": "amount",
          "type": "uint256"
        }
      ],
      "name": "depositCollateral",
      "outputs": [],
      "stateMutability": "nonpayable",
      "type": "function"
    },
    {
      "inputs": [],
      "name": "emergencyDisableRISC0",
      "outputs": [],
      "stateMutability": "nonpayable",
      "type": "function"
    },
    {
      "inputs": [
        {
          "internalType": "uint256",
          "name": "amount",
          "type": "uint256"
        },
        {
          "internalType": "address payable",
          "name": "to",
          "type": "address"
        }
      ],
      "name": "extract",
      "outputs": [],
      "stateMutability": "nonpayable",
      "type": "function"
    },
    {
      "inputs": [],
      "name": "getAdmin",
      "outputs": [
        {
          "internalType": "address",
          "name": "",
          "type": "address"
        }
      ],
      "stateMutability": "view",
      "type": "function"
    },
    {
      "inputs": [],
      "name": "getAllCollateralTokens",
      "outputs": [
        {
          "internalType": "address[]",
          "name": "",
          "type": "address[]"
        }
      ],
      "stateMutability": "view",
      "type": "function"
    },
    {
      "inputs": [],
      "name": "getAllUsers",
      "outputs": [
        {
          "internalType": "address[]",
          "name": "",
          "type": "address[]"
        }
      ],
      "stateMutability": "view",
      "type": "function"
    },
    {
      "inputs": [],
      "name": "getAllowedCollateralTokens",
      "outputs": [
        {
          "internalType": "address[]",
          "name": "",
          "type": "address[]"
        }
      ],
      "stateMutability": "view",
      "type": "function"
    },
    {
      "inputs": [],
      "name": "getAvailableLiquidity",
      "outputs": [
        {
          "internalType": "uint256",
          "name": "",
          "type": "uint256"
        }
      ],
      "stateMutability": "view",
      "type": "function"
    },
    {
      "inputs": [],
      "name": "getBalance",
      "outputs": [
        {
          "internalType": "uint256",
          "name": "",
          "type": "uint256"
        }
      ],
      "stateMutability": "view",
      "type": "function"
    },
    {
      "inputs": [],
      "name": "getBorrowRate",
      "outputs": [
        {
          "internalType": "uint256",
          "name": "",
          "type": "uint256"
        }
      ],
      "stateMutability": "pure",
      "type": "function"
    },
    {
      "inputs": [
        {
          "internalType": "address",
          "name": "user",
          "type": "address"
        }
      ],
      "name": "getBorrowTerms",
      "outputs": [
        {
          "internalType": "uint256",
          "name": "collateralRatio",
          "type": "uint256"
        },
        {
          "internalType": "int256",
          "name": "interestRateModifier",
          "type": "int256"
        },
        {
          "internalType": "uint256",
          "name": "maxLoanAmount",
          "type": "uint256"
        }
      ],
      "stateMutability": "view",
      "type": "function"
    },
    {
      "inputs": [
        {
          "internalType": "address",
          "name": "user",
          "type": "address"
        }
      ],
      "name": "getBorrowerRate",
      "outputs": [
        {
          "internalType": "uint256",
          "name": "",
          "type": "uint256"
        }
      ],
      "stateMutability": "view",
      "type": "function"
    },
    {
      "inputs": [
        {
          "internalType": "address",
          "name": "user",
          "type": "address"
        },
        {
          "internalType": "address",
          "name": "token",
          "type": "address"
        }
      ],
      "name": "getCollateral",
      "outputs": [
        {
          "internalType": "uint256",
          "name": "",
          "type": "uint256"
        }
      ],
      "stateMutability": "view",
      "type": "function"
    },
    {
      "inputs": [
        {
          "internalType": "address",
          "name": "user",
          "type": "address"
        }
      ],
      "name": "getCollateralReductionInfo",
      "outputs": [
        {
          "internalType": "enum LiquidityPool.RiskTier",
          "name": "currentTier",
          "type": "uint8"
        },
        {
          "internalType": "uint256",
          "name": "currentCollateralRatio",
          "type": "uint256"
        },
        {
          "internalType": "uint256",
          "name": "adjustedCollateralRatio",
          "type": "uint256"
        },
        {
          "internalType": "uint256",
          "name": "potentialReductionPercent",
          "type": "uint256"
        }
      ],
      "stateMutability": "view",
      "type": "function"
    },
    {
      "inputs": [
        {
          "internalType": "address",
          "name": "user",
          "type": "address"
        }
      ],
      "name": "getCreditScore",
      "outputs": [
        {
          "internalType": "uint256",
          "name": "",
          "type": "uint256"
        }
      ],
      "stateMutability": "view",
      "type": "function"
    },
    {
      "inputs": [],
      "name": "getExchangeRate",
      "outputs": [
        {
          "internalType": "uint256",
          "name": "",
          "type": "uint256"
        }
      ],
      "stateMutability": "pure",
      "type": "function"
    },
    {
      "inputs": [],
      "name": "getGlobalRiskMultiplier",
      "outputs": [
        {
          "internalType": "uint256",
          "name": "",
          "type": "uint256"
        }
      ],
      "stateMutability": "pure",
      "type": "function"
    },
    {
      "inputs": [],
      "name": "getGovernanceStatus",
      "outputs": [
        {
          "internalType": "address",
          "name": "governance",
          "type": "address"
        },
        {
          "internalType": "bool",
          "name": "risc0Enabled",
          "type": "bool"
        },
        {
          "internalType": "address",
          "name": "currentCreditContract",
          "type": "address"
        },
        {
          "internalType": "uint256",
          "name": "expiryPeriod",
          "type": "uint256"
        }
      ],
      "stateMutability": "view",
      "type": "function"
    },
    {
      "inputs": [
        {
          "internalType": "address",
          "name": "token",
          "type": "address"
        }
      ],
      "name": "getLTV",
      "outputs": [
        {
          "internalType": "uint256",
          "name": "",
          "type": "uint256"
        }
      ],
      "stateMutability": "view",
      "type": "function"
    },
    {
      "inputs": [
        {
          "internalType": "address",
          "name": "user",
          "type": "address"
        }
      ],
      "name": "getLoan",
      "outputs": [
        {
          "components": [
            {
              "internalType": "uint256",
              "name": "principal",
              "type": "uint256"
            },
            {
              "internalType": "uint256",
              "name": "outstanding",
              "type": "uint256"
            },
            {
              "internalType": "uint256",
              "name": "interestRate",
              "type": "uint256"
            },
            {
              "internalType": "uint256",
              "name": "nextDueDate",
              "type": "uint256"
            },
            {
              "internalType": "uint256",
              "name": "installmentAmount",
              "type": "uint256"
            },
            {
              "internalType": "uint256",
              "name": "penaltyBps",
              "type": "uint256"
            },
            {
              "internalType": "bool",
              "name": "active",
              "type": "bool"
            }
          ],
          "internalType": "struct LiquidityPool.Loan",
          "name": "",
          "type": "tuple"
        }
      ],
      "stateMutability": "view",
      "type": "function"
    },
    {
      "inputs": [
        {
          "internalType": "address",
          "name": "user",
          "type": "address"
        }
      ],
      "name": "getLoanDetails",
      "outputs": [
        {
          "internalType": "uint256",
          "name": "principal",
          "type": "uint256"
        },
        {
          "internalType": "uint256",
          "name": "outstanding",
          "type": "uint256"
        },
        {
          "internalType": "uint256",
          "name": "interestRate",
          "type": "uint256"
        },
        {
          "internalType": "uint256",
          "name": "nextDueDate",
          "type": "uint256"
        },
        {
          "internalType": "uint256",
          "name": "installmentAmount",
          "type": "uint256"
        },
        {
          "internalType": "uint256",
          "name": "penaltyBps",
          "type": "uint256"
        },
        {
          "internalType": "bool",
          "name": "active",
          "type": "bool"
        },
        {
          "internalType": "uint256",
          "name": "daysUntilDue",
          "type": "uint256"
        },
        {
          "internalType": "uint256",
          "name": "latePenaltyIfPaidNow",
          "type": "uint256"
        },
        {
          "internalType": "uint256",
          "name": "totalInstallmentsRemaining",
          "type": "uint256"
        }
      ],
      "stateMutability": "view",
      "type": "function"
    },
    {
      "inputs": [
        {
          "internalType": "address",
          "name": "user",
          "type": "address"
        },
        {
          "internalType": "address",
          "name": "token",
          "type": "address"
        }
      ],
      "name": "getMaxWithdrawableCollateral",
      "outputs": [
        {
          "internalType": "uint256",
          "name": "maxWithdrawable",
          "type": "uint256"
        }
      ],
      "stateMutability": "view",
      "type": "function"
    },
    {
      "inputs": [],
      "name": "getMinCollateralRatio",
      "outputs": [
        {
          "internalType": "uint256",
          "name": "",
          "type": "uint256"
        }
      ],
      "stateMutability": "pure",
      "type": "function"
    },
    {
      "inputs": [],
      "name": "getMyDebt",
      "outputs": [
        {
          "internalType": "uint256",
          "name": "",
          "type": "uint256"
        }
      ],
      "stateMutability": "view",
      "type": "function"
    },
    {
      "inputs": [
        {
          "internalType": "address",
          "name": "token",
          "type": "address"
        }
      ],
      "name": "getPriceFeed",
      "outputs": [
        {
          "internalType": "address",
          "name": "",
          "type": "address"
        }
      ],
      "stateMutability": "view",
      "type": "function"
    },
    {
      "inputs": [],
      "name": "getProtocolReserves",
      "outputs": [
        {
          "internalType": "uint256",
          "name": "",
          "type": "uint256"
        }
      ],
      "stateMutability": "view",
      "type": "function"
    },
    {
      "inputs": [],
      "name": "getReserveFactor",
      "outputs": [
        {
          "internalType": "uint256",
          "name": "",
          "type": "uint256"
        }
      ],
      "stateMutability": "pure",
      "type": "function"
    },
    {
      "inputs": [
        {
          "internalType": "address",
          "name": "user",
          "type": "address"
        }
      ],
      "name": "getRiskTier",
      "outputs": [
        {
          "internalType": "enum LiquidityPool.RiskTier",
          "name": "",
          "type": "uint8"
        }
      ],
      "stateMutability": "view",
      "type": "function"
    },
    {
      "inputs": [
        {
          "internalType": "bytes32",
          "name": "role",
          "type": "bytes32"
        }
      ],
      "name": "getRoleAdmin",
      "outputs": [
        {
          "internalType": "bytes32",
          "name": "",
          "type": "bytes32"
        }
      ],
      "stateMutability": "view",
      "type": "function"
    },
    {
      "inputs": [],
      "name": "getSupplyRate",
      "outputs": [
        {
          "internalType": "uint256",
          "name": "",
          "type": "uint256"
        }
      ],
      "stateMutability": "pure",
      "type": "function"
    },
    {
      "inputs": [
        {
          "internalType": "address",
          "name": "token",
          "type": "address"
        }
      ],
      "name": "getTokenValue",
      "outputs": [
        {
          "internalType": "uint256",
          "name": "",
          "type": "uint256"
        }
      ],
      "stateMutability": "view",
      "type": "function"
    },
    {
      "inputs": [],
      "name": "getTotalBorrows",
      "outputs": [
        {
          "internalType": "uint256",
          "name": "",
          "type": "uint256"
        }
      ],
      "stateMutability": "view",
      "type": "function"
    },
    {
      "inputs": [
        {
          "internalType": "address",
          "name": "user",
          "type": "address"
        }
      ],
      "name": "getTotalCollateralValue",
      "outputs": [
        {
          "internalType": "uint256",
          "name": "",
          "type": "uint256"
        }
      ],
      "stateMutability": "view",
      "type": "function"
    },
    {
      "inputs": [],
      "name": "getTotalSupply",
      "outputs": [
        {
          "internalType": "uint256",
          "name": "",
          "type": "uint256"
        }
      ],
      "stateMutability": "view",
      "type": "function"
    },
    {
      "inputs": [
        {
          "internalType": "address",
          "name": "user",
          "type": "address"
        }
      ],
      "name": "getUserHistory",
      "outputs": [
        {
          "components": [
            {
              "internalType": "uint256",
              "name": "firstInteractionTimestamp",
              "type": "uint256"
            },
            {
              "internalType": "uint256",
              "name": "liquidations",
              "type": "uint256"
            },
            {
              "internalType": "uint256",
              "name": "succesfullPayments",
              "type": "uint256"
            }
          ],
          "internalType": "struct UserHistory",
          "name": "",
          "type": "tuple"
        }
      ],
      "stateMutability": "view",
      "type": "function"
    },
    {
      "inputs": [],
      "name": "getUtilizationRate",
      "outputs": [
        {
          "internalType": "uint256",
          "name": "",
          "type": "uint256"
        }
      ],
      "stateMutability": "view",
      "type": "function"
    },
    {
      "inputs": [
        {
          "internalType": "bytes32",
          "name": "role",
          "type": "bytes32"
        },
        {
          "internalType": "address",
          "name": "account",
          "type": "address"
        }
      ],
      "name": "grantRole",
      "outputs": [],
      "stateMutability": "nonpayable",
      "type": "function"
    },
    {
      "inputs": [
        {
          "internalType": "bytes32",
          "name": "role",
          "type": "bytes32"
        },
        {
          "internalType": "address",
          "name": "account",
          "type": "address"
        }
      ],
      "name": "hasRole",
      "outputs": [
        {
          "internalType": "bool",
          "name": "",
          "type": "bool"
        }
      ],
      "stateMutability": "view",
      "type": "function"
    },
    {
      "inputs": [
        {
          "internalType": "address",
          "name": "user",
          "type": "address"
        }
      ],
      "name": "hasValidRISC0Score",
      "outputs": [
        {
          "internalType": "bool",
          "name": "hasValidScore",
          "type": "bool"
        },
        {
          "internalType": "uint256",
          "name": "score",
          "type": "uint256"
        },
        {
          "internalType": "uint256",
          "name": "timestamp",
          "type": "uint256"
        }
      ],
      "stateMutability": "view",
      "type": "function"
    },
    {
      "inputs": [
        {
          "internalType": "address",
          "name": "_timelock",
          "type": "address"
        },
        {
          "internalType": "address",
          "name": "_stablecoinManager",
          "type": "address"
        },
        {
          "internalType": "address",
          "name": "_lendingManager",
          "type": "address"
        },
        {
          "internalType": "address",
          "name": "_interestRateModel",
          "type": "address"
        }
      ],
      "name": "initialize",
      "outputs": [],
      "stateMutability": "nonpayable",
      "type": "function"
    },
    {
      "inputs": [],
      "name": "interestRateModel",
      "outputs": [
        {
          "internalType": "contract InterestRateModel",
          "name": "",
          "type": "address"
        }
      ],
      "stateMutability": "view",
      "type": "function"
    },
    {
      "inputs": [
        {
          "internalType": "address",
          "name": "",
          "type": "address"
        }
      ],
      "name": "isAllowedCollateral",
      "outputs": [
        {
          "internalType": "bool",
          "name": "",
          "type": "bool"
        }
      ],
      "stateMutability": "view",
      "type": "function"
    },
    {
      "inputs": [
        {
          "internalType": "address",
          "name": "",
          "type": "address"
        }
      ],
      "name": "isKnownUser",
      "outputs": [
        {
          "internalType": "bool",
          "name": "",
          "type": "bool"
        }
      ],
      "stateMutability": "view",
      "type": "function"
    },
    {
      "inputs": [
        {
          "internalType": "address",
          "name": "",
          "type": "address"
        }
      ],
      "name": "isLiquidatable",
      "outputs": [
        {
          "internalType": "bool",
          "name": "",
          "type": "bool"
        }
      ],
      "stateMutability": "view",
      "type": "function"
    },
    {
      "inputs": [],
      "name": "isPaused",
      "outputs": [
        {
          "internalType": "bool",
          "name": "",
          "type": "bool"
        }
      ],
      "stateMutability": "view",
      "type": "function"
    },
    {
      "inputs": [],
      "name": "lastUpkeep",
      "outputs": [
        {
          "internalType": "uint256",
          "name": "",
          "type": "uint256"
        }
      ],
      "stateMutability": "view",
      "type": "function"
    },
    {
      "inputs": [],
      "name": "lendingManager",
      "outputs": [
        {
          "internalType": "contract LendingManager",
          "name": "",
          "type": "address"
        }
      ],
      "stateMutability": "view",
      "type": "function"
    },
    {
      "inputs": [
        {
          "internalType": "address",
          "name": "user",
          "type": "address"
        }
      ],
      "name": "liquidationInfo",
      "outputs": [
        {
          "internalType": "bool",
          "name": "",
          "type": "bool"
        },
        {
          "internalType": "uint256",
          "name": "",
          "type": "uint256"
        },
        {
          "internalType": "uint256",
          "name": "",
          "type": "uint256"
        }
      ],
      "stateMutability": "view",
      "type": "function"
    },
    {
      "inputs": [
        {
          "internalType": "address",
          "name": "",
          "type": "address"
        }
      ],
      "name": "liquidationStartTime",
      "outputs": [
        {
          "internalType": "uint256",
          "name": "",
          "type": "uint256"
        }
      ],
      "stateMutability": "view",
      "type": "function"
    },
    {
      "inputs": [],
      "name": "liquidator",
      "outputs": [
        {
          "internalType": "address",
          "name": "",
          "type": "address"
        }
      ],
      "stateMutability": "view",
      "type": "function"
    },
    {
      "inputs": [
        {
          "internalType": "address",
          "name": "",
          "type": "address"
        }
      ],
      "name": "loans",
      "outputs": [
        {
          "internalType": "uint256",
          "name": "principal",
          "type": "uint256"
        },
        {
          "internalType": "uint256",
          "name": "outstanding",
          "type": "uint256"
        },
        {
          "internalType": "uint256",
          "name": "interestRate",
          "type": "uint256"
        },
        {
          "internalType": "uint256",
          "name": "nextDueDate",
          "type": "uint256"
        },
        {
          "internalType": "uint256",
          "name": "installmentAmount",
          "type": "uint256"
        },
        {
          "internalType": "uint256",
          "name": "penaltyBps",
          "type": "uint256"
        },
        {
          "internalType": "bool",
          "name": "active",
          "type": "bool"
        }
      ],
      "stateMutability": "view",
      "type": "function"
    },
    {
      "inputs": [],
      "name": "locked",
      "outputs": [
        {
          "internalType": "bool",
          "name": "",
          "type": "bool"
        }
      ],
      "stateMutability": "view",
      "type": "function"
    },
    {
      "inputs": [
        {
          "internalType": "address",
          "name": "",
          "type": "address"
        }
      ],
      "name": "maxPriceAge",
      "outputs": [
        {
          "internalType": "uint256",
          "name": "",
          "type": "uint256"
        }
      ],
      "stateMutability": "view",
      "type": "function"
    },
    {
      "inputs": [],
      "name": "minPartialLiquidationAmount",
      "outputs": [
        {
          "internalType": "uint256",
          "name": "",
          "type": "uint256"
        }
      ],
      "stateMutability": "view",
      "type": "function"
    },
    {
      "inputs": [],
      "name": "paused",
      "outputs": [
        {
          "internalType": "bool",
          "name": "",
          "type": "bool"
        }
      ],
      "stateMutability": "view",
      "type": "function"
    },
    {
      "inputs": [
        {
          "internalType": "bytes",
          "name": "performData",
          "type": "bytes"
        }
      ],
      "name": "performUpkeep",
      "outputs": [],
      "stateMutability": "nonpayable",
      "type": "function"
    },
    {
      "inputs": [
        {
          "internalType": "address",
          "name": "",
          "type": "address"
        }
      ],
      "name": "priceFeed",
      "outputs": [
        {
          "internalType": "address",
          "name": "",
          "type": "address"
        }
      ],
      "stateMutability": "view",
      "type": "function"
    },
    {
      "inputs": [
        {
          "internalType": "address",
          "name": "token",
          "type": "address"
        },
        {
          "internalType": "uint256",
          "name": "amount",
          "type": "uint256"
        }
      ],
      "name": "recoverFromLiquidation",
      "outputs": [],
      "stateMutability": "nonpayable",
      "type": "function"
    },
    {
      "inputs": [
        {
          "internalType": "bytes32",
          "name": "role",
          "type": "bytes32"
        },
        {
          "internalType": "address",
          "name": "account",
          "type": "address"
        }
      ],
      "name": "renounceRole",
      "outputs": [],
      "stateMutability": "nonpayable",
      "type": "function"
    },
    {
      "inputs": [],
      "name": "repay",
      "outputs": [],
      "stateMutability": "payable",
      "type": "function"
    },
    {
      "inputs": [],
      "name": "repayInstallment",
      "outputs": [],
      "stateMutability": "payable",
      "type": "function"
    },
    {
      "inputs": [],
      "name": "reserveAddress",
      "outputs": [
        {
          "internalType": "address",
          "name": "",
          "type": "address"
        }
      ],
      "stateMutability": "view",
      "type": "function"
    },
    {
      "inputs": [
        {
          "internalType": "bytes32",
          "name": "role",
          "type": "bytes32"
        },
        {
          "internalType": "address",
          "name": "account",
          "type": "address"
        }
      ],
      "name": "revokeRole",
      "outputs": [],
      "stateMutability": "nonpayable",
      "type": "function"
    },
    {
      "inputs": [
        {
          "internalType": "address",
          "name": "newAdmin",
          "type": "address"
        }
      ],
      "name": "setAdmin",
      "outputs": [],
      "stateMutability": "nonpayable",
      "type": "function"
    },
    {
      "inputs": [
        {
          "internalType": "address",
          "name": "token",
          "type": "address"
        },
        {
          "internalType": "bool",
          "name": "allowed",
          "type": "bool"
        }
      ],
      "name": "setAllowedCollateral",
      "outputs": [],
      "stateMutability": "nonpayable",
      "type": "function"
    },
    {
      "inputs": [
        {
          "internalType": "address",
          "name": "user",
          "type": "address"
        },
        {
          "internalType": "uint256",
          "name": "score",
          "type": "uint256"
        }
      ],
      "name": "setCreditScore",
      "outputs": [],
      "stateMutability": "nonpayable",
      "type": "function"
    },
    {
      "inputs": [
        {
          "internalType": "address",
          "name": "_creditScoreContract",
          "type": "address"
        }
      ],
      "name": "setCreditScoreContract",
      "outputs": [],
      "stateMutability": "nonpayable",
      "type": "function"
    },
    {
      "inputs": [
        {
          "internalType": "address",
          "name": "_creditScoreContract",
          "type": "address"
        }
      ],
      "name": "setCreditScoreContractWithValidation",
      "outputs": [],
      "stateMutability": "nonpayable",
      "type": "function"
    },
    {
      "inputs": [
        {
          "internalType": "address",
          "name": "_lendingManager",
          "type": "address"
        }
      ],
      "name": "setLendingManager",
      "outputs": [],
      "stateMutability": "nonpayable",
      "type": "function"
    },
    {
      "inputs": [
        {
          "internalType": "address",
          "name": "_liquidator",
          "type": "address"
        }
      ],
      "name": "setLiquidator",
      "outputs": [],
      "stateMutability": "nonpayable",
      "type": "function"
    },
    {
      "inputs": [
        {
          "internalType": "address",
          "name": "token",
          "type": "address"
        },
        {
          "internalType": "uint256",
          "name": "age",
          "type": "uint256"
        }
      ],
      "name": "setMaxPriceAge",
      "outputs": [],
      "stateMutability": "nonpayable",
      "type": "function"
    },
    {
      "inputs": [
        {
          "internalType": "uint256",
          "name": "amount",
          "type": "uint256"
        }
      ],
      "name": "setMinPartialLiquidationAmount",
      "outputs": [],
      "stateMutability": "nonpayable",
      "type": "function"
    },
    {
      "inputs": [
        {
          "internalType": "address",
          "name": "token",
          "type": "address"
        },
        {
          "internalType": "address",
          "name": "feed",
          "type": "address"
        }
      ],
      "name": "setPriceFeed",
      "outputs": [],
      "stateMutability": "nonpayable",
      "type": "function"
    },
    {
      "inputs": [
        {
          "internalType": "address",
          "name": "_reserve",
          "type": "address"
        }
      ],
      "name": "setReserveAddress",
      "outputs": [],
      "stateMutability": "nonpayable",
      "type": "function"
    },
    {
      "inputs": [
        {
          "internalType": "uint256",
          "name": "tier",
          "type": "uint256"
        },
        {
          "internalType": "uint256",
          "name": "originationFee",
          "type": "uint256"
        },
        {
          "internalType": "uint256",
          "name": "lateFeeAPR",
          "type": "uint256"
        }
      ],
      "name": "setTierFee",
      "outputs": [],
      "stateMutability": "nonpayable",
      "type": "function"
    },
    {
      "inputs": [
        {
          "internalType": "address",
          "name": "_votingToken",
          "type": "address"
        }
      ],
      "name": "setVotingToken",
      "outputs": [],
      "stateMutability": "nonpayable",
      "type": "function"
    },
    {
      "inputs": [],
      "name": "stablecoinManager",
      "outputs": [
        {
          "internalType": "contract StablecoinManager",
          "name": "",
          "type": "address"
        }
      ],
      "stateMutability": "view",
      "type": "function"
    },
    {
      "inputs": [
        {
          "internalType": "address",
          "name": "user",
          "type": "address"
        }
      ],
      "name": "startLiquidation",
      "outputs": [],
      "stateMutability": "nonpayable",
      "type": "function"
    },
    {
      "inputs": [
        {
          "internalType": "bytes4",
          "name": "interfaceId",
          "type": "bytes4"
        }
      ],
      "name": "supportsInterface",
      "outputs": [
        {
          "internalType": "bool",
          "name": "",
          "type": "bool"
        }
      ],
      "stateMutability": "view",
      "type": "function"
    },
    {
      "inputs": [
        {
          "internalType": "uint256",
          "name": "",
          "type": "uint256"
        }
      ],
      "name": "tierFees",
      "outputs": [
        {
          "internalType": "uint256",
          "name": "originationFee",
          "type": "uint256"
        },
        {
          "internalType": "uint256",
          "name": "lateFeeAPR",
          "type": "uint256"
        }
      ],
      "stateMutability": "view",
      "type": "function"
    },
    {
      "inputs": [],
      "name": "timelock",
      "outputs": [
        {
          "internalType": "address",
          "name": "",
          "type": "address"
        }
      ],
      "stateMutability": "view",
      "type": "function"
    },
    {
      "inputs": [],
      "name": "togglePause",
      "outputs": [],
      "stateMutability": "nonpayable",
      "type": "function"
    },
    {
      "inputs": [
        {
          "internalType": "bool",
          "name": "_useRISC0",
          "type": "bool"
        }
      ],
      "name": "toggleRISC0CreditScores",
      "outputs": [],
      "stateMutability": "nonpayable",
      "type": "function"
    },
    {
      "inputs": [
        {
          "internalType": "bool",
          "name": "_useRISC0",
          "type": "bool"
        }
      ],
      "name": "toggleRISC0CreditScoresWithValidation",
      "outputs": [],
      "stateMutability": "nonpayable",
      "type": "function"
    },
    {
      "inputs": [],
      "name": "totalBorrowedAllTime",
      "outputs": [
        {
          "internalType": "uint256",
          "name": "",
          "type": "uint256"
        }
      ],
      "stateMutability": "view",
      "type": "function"
    },
    {
      "inputs": [],
      "name": "totalFunds",
      "outputs": [
        {
          "internalType": "uint256",
          "name": "",
          "type": "uint256"
        }
      ],
      "stateMutability": "view",
      "type": "function"
    },
    {
      "inputs": [],
      "name": "totalRepaidAllTime",
      "outputs": [
        {
          "internalType": "uint256",
          "name": "",
          "type": "uint256"
        }
      ],
      "stateMutability": "view",
      "type": "function"
    },
    {
      "inputs": [
        {
          "internalType": "uint256",
          "name": "tierIndex",
          "type": "uint256"
        },
        {
          "internalType": "uint256",
          "name": "minScore",
          "type": "uint256"
        },
        {
          "internalType": "uint256",
          "name": "maxScore",
          "type": "uint256"
        },
        {
          "internalType": "uint256",
          "name": "collateralRatio",
          "type": "uint256"
        },
        {
          "internalType": "int256",
          "name": "interestRateModifier",
          "type": "int256"
        },
        {
          "internalType": "uint256",
          "name": "maxLoanAmount",
          "type": "uint256"
        }
      ],
      "name": "updateBorrowTier",
      "outputs": [],
      "stateMutability": "nonpayable",
      "type": "function"
    },
    {
      "inputs": [],
      "name": "useRISC0CreditScores",
      "outputs": [
        {
          "internalType": "bool",
          "name": "",
          "type": "bool"
        }
      ],
      "stateMutability": "view",
      "type": "function"
    },
    {
      "inputs": [
        {
          "internalType": "address",
          "name": "",
          "type": "address"
        }
      ],
      "name": "userDebt",
      "outputs": [
        {
          "internalType": "uint256",
          "name": "",
          "type": "uint256"
        }
      ],
      "stateMutability": "view",
      "type": "function"
    },
    {
      "inputs": [
        {
          "internalType": "address",
          "name": "",
          "type": "address"
        }
      ],
      "name": "userHistory",
      "outputs": [
        {
          "internalType": "uint256",
          "name": "firstInteractionTimestamp",
          "type": "uint256"
        },
        {
          "internalType": "uint256",
          "name": "liquidations",
          "type": "uint256"
        },
        {
          "internalType": "uint256",
          "name": "succesfullPayments",
          "type": "uint256"
        }
      ],
      "stateMutability": "view",
      "type": "function"
    },
    {
      "inputs": [
        {
          "internalType": "address",
          "name": "user",
          "type": "address"
        }
      ],
      "name": "userPositions",
      "outputs": [
        {
          "internalType": "uint256",
          "name": "",
          "type": "uint256"
        },
        {
          "internalType": "uint256",
          "name": "",
          "type": "uint256"
        },
        {
          "internalType": "uint256",
          "name": "",
          "type": "uint256"
        }
      ],
      "stateMutability": "view",
      "type": "function"
    },
    {
      "inputs": [
        {
          "internalType": "uint256",
          "name": "",
          "type": "uint256"
        }
      ],
      "name": "users",
      "outputs": [
        {
          "internalType": "address",
          "name": "",
          "type": "address"
        }
      ],
      "stateMutability": "view",
      "type": "function"
    },
    {
      "inputs": [],
      "name": "votingToken",
      "outputs": [
        {
          "internalType": "contract VotingToken",
          "name": "",
          "type": "address"
        }
      ],
      "stateMutability": "view",
      "type": "function"
    },
    {
      "inputs": [
        {
          "internalType": "address",
          "name": "token",
          "type": "address"
        },
        {
          "internalType": "uint256",
          "name": "amount",
          "type": "uint256"
        }
      ],
      "name": "withdrawCollateral",
      "outputs": [],
      "stateMutability": "nonpayable",
      "type": "function"
    },
    {
      "inputs": [
        {
          "internalType": "uint256",
          "name": "amount",
          "type": "uint256"
        }
      ],
      "name": "withdrawForLendingManager",
      "outputs": [],
      "stateMutability": "nonpayable",
      "type": "function"
    },
    {
      "inputs": [
        {
          "internalType": "address",
          "name": "token",
          "type": "address"
        },
        {
          "internalType": "uint256",
          "name": "amount",
          "type": "uint256"
        }
      ],
      "name": "withdrawPartialCollateral",
      "outputs": [],
      "stateMutability": "nonpayable",
      "type": "function"
    },
    {
      "stateMutability": "payable",
      "type": "receive"
    }
  ],
  "bytecode": "0x60808060405234610017576169d290816200001c8239f35b5f80fdfe6080604081815260048036101561002f575b505050361561001e575f80fd5b61002a3460a354615473565b60a355005b5f925f3560e01c90816301c76f81146150e75750806301ffc9a71461509457806303a42b6f1461506c578063042e02cf1461503057806305510b9114614f5e578063080d9c2b14614e1f5780630835e14514614dff5780630b044c7914614de35780630ef7fb6714614dc85780630f61b81014614d63578063100cd71d14614d0957806312065fe014612bbc57806314673d3114614c565780631bfe426114614c1c5780631fd48b9a14614be357806320dfcae1146148d757806323fe5a33146148bf578063248a9ca3146148945780632a28ec44146148135780632a7beafe146147e45780632f2ff15d1461474257806330332f9f146146c957806333481fc9146145df578063350c35e914614363578063357619a91461432957806335f67981146142fd57806336568abe1461426b578063365b98b21461424257806338053ef31461420a5780633d7c5d3e146141ec578063402d888314613f545780634046ebae14613f27578063418eea3114613eec578063450a375a14613ec65780634585e33b14613cf5578063488683cd14613cba5780634a417a5314613c9d5780634a69220414613c505780634c8f35ab146122f55780634c95da6614613c1e5780634fb3d3b114613b9c5780635141df4114613b6257806352226ef014613b1757806355f4d9e2146139b5578063594ad93f1461399757806359705bb3146139795780635a70348f146131f75780635b66e7fc1461395c5780635b6cca801461390b5780635c44f10d146138ef5780635c975abb146125625780635f182477146137b45780635f558e5314613798578063613cf420146137335780636579b73e146136fb57806369ff0a0d146136d45780636c648fc4146136ae5780636e04ff0d146134b45780636e9960c3146115e8578063704b6c021461342357806370ed11bc146133c557806372ed9f7b146132355780637346f486146131f757806373b4086b1461317c57806376e11286146130fb57806378974cbb14612ffa57806379f877f614612f4a5780637a8ce68b14612f0f578063802937ac14612ef057806383475f0c14612eb557806383ae7345146124b957806384bdc9a814612e935780638e6b53bc14612e6157806391d1485414612e1e57806393a517a214612d9f5780639490a51e14612d6157806395eb0d1514612d33578063962a0da514612cf8578063968ed600146121c257806397ed81cf14612bc15780639b745aec14612bbc5780639b8621d514612ba05780639ce625f714612b7a5780639e3b77af14612b51578063a217fddf14612b36578063a36e4ad614612897578063a5d5db0c1461262d578063a787572e146125d8578063a8cf4b5214611163578063aca25f9a146125b2578063b034012314612589578063b187bd2614612562578063b3075fb714612531578063b3a5a0a2146124f1578063b69e5c77146124b9578063b6e202ab14612372578063b8cdf56114612353578063ba1c5e8014612330578063bc3d5a3e14612311578063c129d504146122f5578063c1a287e2146122d7578063c23c69d51461229f578063c39537e114612264578063c4ae3168146121e1578063c4e41b22146121c2578063c5ebeaec14611a19578063c869d0ed14611977578063c941f3211461194e578063cc484c5c146118ec578063cf176225146118c3578063cf3090121461189f578063d1f151c1146117d2578063d29255f91461179a578063d2c0f18814611611578063d33219b4146115e8578063d3dd2bdf146115c7578063d547741f14611589578063ddac7f1b14611500578063e19fb8f5146113ef578063e1c50100146112e8578063e1f7c2c914611251578063e2842d79146111c0578063e2d7462814611168578063e6aa216c14611163578063e6ae357614611128578063e7602b9d146110db578063e84bae45146110aa578063e8a7da8e14610e65578063e8f16f7f14610cfd578063e9ffb29114610cc2578063eb8d655114610c87578063ebdcc16414610c58578063f1c5d6c214610c2b578063f3fdb15a14610c02578063f79ed94b14610bd9578063f7e590ee14610ba1578063f8c8765e146108af578063fbbff3d11461083b578063feb50e521461073a5763ffd4aedb036100115734610736576080366003190112610736576106e291610658615147565b61066061515d565b92610669615173565b90606435918760018060a01b0380956106878260a654163314615ca6565b169283825260209788966097885288842091165f528652865f206106ac8682546153c0565b9055865163a9059cbb60e01b81526001600160a01b03909316908301908152602081019490945290968793849291839160400190565b03925af190811561072d57506106f6578280f35b81813d8311610726575b61070a8183615445565b810103126107225761071b90615466565b505f808280f35b5080fd5b503d610700565b513d85823e3d90fd5b8280fd5b50903461073657806003193601126107365781356024356001600160a01b03818116918290036108375760a9541633036108285781471061080d578480809381935af13d15610808573d6001600160401b0381116107f5578251906107a9601f8201601f191660200183615445565b81528460203d92013e5b156107bc578280f35b906020606492519162461bcd60e51b83528201526013602482015272115512081d1c985b9cd9995c8819985a5b1959606a1b6044820152fd5b604184634e487b7160e01b5f525260245ffd5b6107b3565b825162461bcd60e51b815280610824818701615823565b0390fd5b505051630925c89960e31b8152fd5b8580fd5b5082903461072257602036600319011261072257610857615147565b6001600160a01b0381168352609a60205283832054929061087790615bdb565b9160058402938085046005149015171561089c57505060648351920482526020820152f35b634e487b7160e01b825260119052602490fd5b50346107365760809081600319360112610b9d576108cb615147565b6108d361515d565b906108dc615173565b6064356001600160a01b0381811694909291859003610b995788549560ff8760081c161596878098610b8c575b8015610b75575b15610b1b5760ff1981166001178b5587610b0a575b5060ff8a5460081c1615610ab357508290816001600160601b0360a01b95168560a954161760a955168360a554161760a555168160a654161760a65560a754161760a75560ff60a01b1960aa541660aa55610a69835192610985846153cd565b605a84526109ae602094606486820152606e878201526018196060820152603283820152616823565b6109df85516109bc816153cd565b60508152605986820152607d878201526009196060820152602883820152616823565b610a0e85516109ed816153cd565b60468152604f86820152608c87820152876060820152601e83820152616823565b610a3e8551610a1c816153cd565b603c815260458682015260a087820152600f6060820152601483820152616823565b85855191610a4b836153cd565b818352603b8684015260c887840152601e6060840152820152616823565b662386f26fc1000060b055610a7c578280f35b7f7f26b83ff96e1f2b6a682f133852f6798a09c465da95921460cefb38474024989161ff001984541684555160018152a15f808280f35b60849060208a519162461bcd60e51b8352820152602b60248201527f496e697469616c697a61626c653a20636f6e7472616374206973206e6f74206960448201526a6e697469616c697a696e6760a81b6064820152fd5b61ffff1916610101178a555f610925565b895162461bcd60e51b8152602081840152602e60248201527f496e697469616c697a61626c653a20636f6e747261637420697320616c72656160448201526d191e481a5b9a5d1a585b1a5e995960921b6064820152608490fd5b50303b1580156109105750600160ff821614610910565b50600160ff821610610909565b5f80fd5b8380fd5b5050346107225760203660031901126107225760209181906001600160a01b03610bc9615147565b1681526099845220549051908152f35b50503461072257816003193601126107225760b15490516001600160a01b039091168152602090f35b50503461072257816003193601126107225760a75490516001600160a01b039091168152602090f35b50503461072257602036600319011261072257602090610c51610c4c615147565b615f67565b9051908152f35b50503461072257602036600319011261072257602090610c7e610c79615147565b6165ce565b15159051908152f35b505034610722578160031936011261072257602090517f742d8195bebb59905cedb6c02453745e9ef7090c163e7dea727ab0849b3dfc008152f35b505034610722578160031936011261072257602090517fa22cb6bd33c714cffaf72f196d1ebf87829cac5214f3ad84491fa8669ede7a6a8152f35b509190346107225760203660031901126107225782356001600160401b03811161073657610d2e9036908501615296565b60a9549094906001600160a01b039081163303610e565760aa541694610d55861515615b60565b8015610e1b578585963b1561083757610d85938680948751968795869485936382e949af60e01b85528401615bac565b03925af18015610e0f57908391610df8575b50505f8051602061691d8339815191526020827f617574686f72697a655f73746174655f726f6f745f70726f76696465720000007f6ac3bf2e8fa0f073accc3d3a4296fc5284af0f9103f16fb2df412e8339ceb29b9451525160018152a380f35b610e0190615417565b610e0c57815f610d97565b50fd5b505051903d90823e3d90fd5b835162461bcd60e51b81526020818401526015602482015274496e76616c69642070726f7669646572206e616d6560581b6044820152606490fd5b508251630925c89960e31b8152fd5b5091346110a75760203660031901126110a757610e80615147565b6001600160a01b038116825260b36020528282208351610e9f816153fc565b60a08254958683526001840154956020840191878352600286015490818187015260038701549260608701978489528c8101549560c060ff600660808c01948a86528c60058201549c8d9101520154169901981515988981528642105f146110a05762015180610f0f42896153c0565b049a5b849c81519062093a80918281018091116110895742118061107f575b610fcc575b50505051151580610fc2575b15610fb557518151610f5091615473565b5f19810192908311610fa25750516101409c50610f6c916153a2565b985b81519a8b5260208b01528901526060880152608087015260a086015260c085015260e0840152610100830152610120820152f35b634e487b7160e01b815260118e52602490fd5b50506101409b5098610f6e565b5080511515610f3f565b610fd8610fdd916165ce565b6166c1565b600581101561106957865260b26020526001878720015491519081018091116110545761100e6201518091426153c0565b04908115158061104b575b611024575b80610f33565b612710929d5061016d9161103c61104192865161537b565b61537b565b04049a5f8061101e565b50801515611019565b508f856011602492634e487b7160e01b835252fd5b50508f856021602492634e487b7160e01b835252fd5b5083511515610f2e565b5050508f856011602492634e487b7160e01b835252fd5b839a610f12565b80fd5b503461073657602036600319011261073657359160058310156110a757506110d3602092615364565b549051908152f35b5050346107225780600319360112610722576020916110f8615147565b8261110161515d565b6001600160a01b03928316845260978652922091165f908152908352819020549051908152f35b505034610722578160031936011261072257602090517fb438992c2c4c65322b65fd8e2dacea9efd63443e69e5ed52f4a77ed6c78f7c2a8152f35b615342565b503461073657602036600319011261073657611182615147565b60a9546001600160a01b039391929190841633036111b3575050166001600160601b0360a01b60a854161760a85580f35b51630925c89960e31b8152fd5b8284346110a757806003193601126110a757815191829160a15480855260208095019460a183527faadc37b8ba5645e62f4546802db221593a94729ccbfc5a97d01365a88f64987892905b8282106112315761122d8686611223828b0383615445565b51918291826151d4565b0390f35b83546001600160a01b03168752958601956001938401939091019061120b565b5090346107365760203660031901126107365761126c615147565b60a95490926001600160a01b03929091831633036111b35750508060aa54921691826001600160601b0360a01b82161760aa55826112cd575b167f7fc5e57c5215ef3b834df4680694bbed4808bf88ddc971b470cb8ef9365e63868380a380f35b6001600160a81b031981168317600160a01b1760aa556112a5565b50903461073657602080600319360112610b9d57611304615147565b61130d81615ce8565b506113b7576001600160a01b0316808552609c82528285205490939060ff166113765750828452609c8152818420805460ff19166001179055609d905282204290557f7f62ed89ea2c6fb057e4ea77729c1d3f18056339791fce29ac89760197b45b298280a280f35b915162461bcd60e51b815291820152601b60248201527f4c69717569646174696f6e20616c7265616479207374617274656400000000006044820152606490fd5b50905162461bcd60e51b8152918201526013602482015272506f736974696f6e206973206865616c74687960681b6044820152606490fd5b50903461073657602036600319011261073657813560a4549261141560ff8516156158dd565b60ff1993841660011760a45560a6546001600160a01b031633036114b25747821161146f57508380808093818115611466575b3390f11561145b575060a4541660a45580f35b51913d9150823e3d90fd5b506108fc611448565b606490602084519162461bcd60e51b8352820152601d60248201527f496e73756666696369656e7420636f6e74726163742062616c616e63650000006044820152fd5b608490602084519162461bcd60e51b8352820152602260248201527f4f6e6c79206c656e64696e67206d616e616765722063616e2063616c6c207468604482015261697360f01b6064820152fd5b50903461073657806003193601126107365761151a615147565b60a954602435936001600160a01b0392918316330361157b5762015180851161154c575016835260af60205282205580f35b606490602085519162461bcd60e51b83528201526009602482015268546f6f206c6172676560b81b6044820152fd5b8351630925c89960e31b8152fd5b5090346107365780600319360112610736576115c491356115bf60016115ad61515d565b938387526065602052862001546162ce565b6164f5565b80f35b50503461072257602036600319011261072257602090610c51610c79615147565b50503461072257816003193601126107225760a95490516001600160a01b039091168152602090f35b5090346107365760209081600319360112610b9d5761162e6151aa565b60a9546001600160a01b0391908216330361178a57858115611718575060aa549182169485156116d55750915f805160206168fd833981519152847fda204e19a4970f56f8e6e17eaeddbdcb1a220fe70dff8a0085e1c24ec618191a95935f8051602061691d8339815191529515159060ff60a01b8260a01b169060ff60a01b19161760aa558351908152a16a0746f67676c6552495343360ac1b8151525160018152a380f35b835162461bcd60e51b8152908101859052601c60248201527f4e6f206372656469742073636f726520636f6e747261637420736574000000006044820152606490fd5b945050507fda204e19a4970f56f8e6e17eaeddbdcb1a220fe70dff8a0085e1c24ec618191a915f8051602061691d8339815191529160ff60a01b1960aa541660aa555f805160206168fd833981519152828251878152a16a0746f67676c6552495343360ac1b8151525160018152a380f35b8251630925c89960e31b81528590fd5b5050346107225760203660031901126107225760209181906001600160a01b036117c2615147565b168152609b845220549051908152f35b509190346107225760603660031901126107225760a9548335919060243590604435906001600160a01b0316330361188f5761181160ab548510615775565b82518381018181106001600160401b0382111761187c577f7543d68ffbde1802767cee31f14403e1b914f7249f14f2724e7398aa10de092395969750845282815260016020820183815287895260b2602052858920925183555191015582519182526020820152a280f35b604188634e487b7160e01b5f525260245ffd5b8251630925c89960e31b81528690fd5b50503461072257816003193601126107225760209060ff60a4541690519015158152f35b50503461072257816003193601126107225761122d906118e1615ea4565b9051918291826151d4565b50503461072257816003193601126107225781908260a1545b808210611916576020848451908152f35b909261194660019161192786615218565b848060a01b0391549060031b1c168752609a6020528487205490615473565b930190611905565b50503461072257816003193601126107225760a55490516001600160a01b039091168152602090f35b503461073657602036600319011261073657611991615147565b60a9546001600160a01b03919082163303611a0957169182156119c65750506001600160601b0360a01b60a654161760a65580f35b906020606492519162461bcd60e51b8352820152601f60248201527f496e76616c6964206c656e64696e67206d616e616765722061646472657373006044820152fd5b8351630925c89960e31b81528390fd5b5060209081600319360112610b9d5780359160a45493611a3f60ff8660081c1615615480565b611a4c60ff8616156158dd565b60ff1994851660011760a455338652609a82528086205461218157611a703361672d565b1561210057611a7e906166c1565b92600584101590816120ed578085146120b35760a35460011c861161205757611aa685616568565b88949291941161200657611ab933615bdb565b90606482029180830460641490151715611ff357611ad7908961537b565b11611fa25760b1546001600160a01b0391908216908a9082611f81575b8b611aff838c6153c0565b9383158015611ee9575b505050505060a354611b2060ad5460ae54906153c0565b908b9181611ea8575b50508260a754169487875180978194634fd41dad60e11b83528883015260249889915afa918215611e9e578c92611e6f575b50818c821215611e395750611b6f90615c96565b9061271091820390828211611e275790611b889161537b565b04965b600c8910611dd65762278d004201804211611dc4578b808695948c611c60611c58849b9a978f8f8f80611c458a9d9c6006858d9f8e90609b998e985195611bd1876153fc565b898752848701918a8352898801908152606088019182526080880192600c8c0484528a60a08a01966101f4885260b360c08c019960018b52338352522098518955516001890155516002880155516003870155519085015551600584015551151591019060ff801983541691151516179055565b609a8352892055528d4290872055615364565b918254615473565b9055611c6e8d60ad54615473565b60ad55338252609f8b52898220805415611d83575b50818115611d7a575b3390f115611d705760aa5460ff8160a01c1680611d65575b611d10575b50505050507fac59582e5396aca512fa873a2047e7f4c80f8f55d4a06cb34a78a0187f62719f92815190858252838201527f5660f932172e1664b98577a703dd9484d374b28e3bf8c87b345bee97af612412823392a2519283523392a260a4541660a45580f35b16803b15610b9d5783928392865194859384926336aa845560e01b845233908401525af18015611d5b57611d47575b808080611ca9565b611d5090615417565b61083757855f611d3f565b83513d84823e3d90fd5b508181161515611ca4565b84513d85823e3d90fd5b506108fc611c8c565b42905589518a8152600c8b8201526b66697273745f626f72726f7760a01b6060820152428c8201525f8051602061697d83398151915260803392a25f611c83565b634e487b7160e01b8c5260118552858cfd5b855162461bcd60e51b81528085018890526026818701527f4c6f616e20616d6f756e7420746f6f20736d616c6c20666f7220616d6f7274696044820152653d30ba34b7b760d11b6064820152608490fd5b634e487b7160e01b8d5260118652868dfd5b98918c8213611e4a575b5050611b8b565b9091985061271091820190818311611e275790611e669161537b565b04965f80611e43565b9091508781813d8311611e97575b611e878183615445565b81010312610b995751905f611b5b565b503d611e7d565b87513d8e823e3d90fd5b909150670de0b6b3a764000090818102918183041490151715611ed65790611ecf916153a2565b5f80611b29565b634e487b7160e01b8c526011855260248cfd5b8285819382938390611f78575bf115611f6e57611f5b578551908152606087820152600b60608201526a37b934b3b4b730ba34b7b760a91b608082015287868201527f66aecc579aa1ef463c0ed1547c2cb6163370e6311a60cba815252acbb398f21360a03392a25f808b8180611b09565b634e487b7160e01b8b526021845260248bfd5b86513d8d823e3d90fd5b506108fc611ef6565b50505f878b5260b28752612710611f9b878d20548b61537b565b0490611af4565b835162461bcd60e51b8152808301869052602560248201527f496e73756666696369656e7420636f6c6c61746572616c20666f722074686973604482015264103637b0b760d91b6064820152608490fd5b634e487b7160e01b8b526011845260248bfd5b845162461bcd60e51b8152808401879052602560248201527f426f72726f7720616d6f756e74206578636565647320796f75722074696572206044820152641b1a5b5a5d60da1b6064820152608490fd5b825162461bcd60e51b8152908101849052603060248201527f426f72726f7720616d6f756e74206578636565647320617661696c61626c652060448201526f6c656e64696e6720636170616369747960801b6064820152608490fd5b825162461bcd60e51b815290810184905260146024820152734372656469742073636f726520746f6f206c6f7760601b6044820152606490fd5b634e487b7160e01b885260219052602487fd5b505162461bcd60e51b815291820152605060248201527f4372656469742073636f726520616c7265616479207573656420666f7220626f60448201527f72726f77696e67206f7220696e76616c69642e20506c65617365207375626d6960648201526f3a103090333932b9b410383937b7b31760811b608482015260a49150fd5b5162461bcd60e51b815291820152601e60248201527f526570617920796f7572206578697374696e6720646562742066697273740000604482015260649150fd5b50503461072257816003193601126107225760209060a3549051908152f35b503461073657826003193601126107365760a9546001600160a01b03163303612256575060207f228f455d7bc3d0b24a3a08d7847f391c3e78fc8aeb83acf226b7a96ee162b8ac9160ff60a45461ff00828260081c161560081b169061ff00191617918260a455519160081c1615158152a180f35b9051630925c89960e31b8152fd5b505034610722578160031936011261072257602090517facd38b7c4e04b2b78fc2ca994eae1a3eb206005ffa4c11fcf4a9d81c94684b2d8152f35b5050346107225760203660031901126107225760209181906001600160a01b036122c7615147565b168152609d845220549051908152f35b505034610722578160031936011261072257602090516203f4808152f35b5050346107225781600319360112610722576020905160828152f35b50503461072257816003193601126107225760209060ae549051908152f35b5050346107225781600319360112610722576020905167011c37937e0800008152f35b50503461072257816003193601126107225760209060ad549051908152f35b5090346107365760203660031901126107365761238d615147565b60a9546001600160a01b03939190841633036124aa578316928315918261246757507f1627ff5f63c3dfa9cced143709c9c21b6af493b5e8594baf16c5587c4a7c20dd92751cd95d10dc99591a5d14d8dbdc9950dbdb9d1c9858dd60521b5f8051602061691d833981519152938660209460aa5492826001600160601b0360a01b85161760aa551561244c575b845192167f7fc5e57c5215ef3b834df4680694bbed4808bf88ddc971b470cb8ef9365e63868a80a3525160018152a380f35b6001600160a81b031983168217600160a01b1760aa5561241a565b606490602085519162461bcd60e51b8352820152601860248201527f496e76616c696420636f6e7472616374206164647265737300000000000000006044820152fd5b509051630925c89960e31b8152fd5b5050346107225760203660031901126107225760209181906001600160a01b036124e1615147565b168152609a845220549051908152f35b503461073657602036600319011261073657359160a0548310156110a7575061251b602092615261565b905491519160018060a01b039160031b1c168152f35b50346107365760203660031901126107365791819235815260b2602052206001815491015482519182526020820152f35b50503461072257816003193601126107225760209060ff60a45460081c1690519015158152f35b50503461072257816003193601126107225760a85490516001600160a01b039091168152602090f35b505034610722576020366003190112610722576020906125d0615147565b505160508152f35b50503461072257602036600319011261072257606091906203f480906001600160a01b03612604615147565b168352609c6020528060ff818520541693609d6020522054815193151584526020840152820152f35b509034610736578060031936011261073657612647615147565b6024359160018060a01b03809216938486526020926098845260ff83882054161561285f57841561282757338752609c845260ff83882054166127ef5790849133885260a28552838820805460ff81161561278a575b505083516323b872dd60e01b815233928101928352306020840152604083019390935250909291908290849081906060015b038189895af180156127805761272c575b7ff1c0dd7e9b98bbff859029005ef89b127af049cd18df1a8d79f0b7e019911e56925084865260978252808620335f528252805f20612720858254615473565b9055519283523392a380f35b8183813d8311612779575b6127418183615445565b81010312610837576127737ff1c0dd7e9b98bbff859029005ef89b127af049cd18df1a8d79f0b7e019911e5693615466565b506126e0565b503d612737565b81513d88823e3d90fd5b60ff1916600117905560a15491925090600160401b8110156127dc578493926126cf95926127bf8360018a950160a155615218565b819291549060031b9133831b921b1916179055919481939461269d565b604183634e487b7160e01b5f525260245ffd5b508161082492515f8051602061695d83398151915233918061281081615852565b0390a25162461bcd60e51b81529182918201615852565b508161082492515f8051602061695d83398151915233918061284881615e77565b0390a25162461bcd60e51b81529182918201615e77565b508161082492515f8051602061695d833981519152339180612880816157f7565b0390a25162461bcd60e51b815291829182016157f7565b50346107365781600319360112610736576128b0615147565b6024359060a454936128c860ff8660081c1615615480565b6128d560ff8616156158dd565b60ff1994851660011760a4558215612b205760018060a01b0382169384875260209260978452828820335f52845284835f205410612ade57338852609a845282882054859291816129f4575b50509280929161297394878a5260978352838a20335f528352835f206129488382546153c0565b9055835163a9059cbb60e01b8152339181019182526020820192909252909485918291604090910190565b03818a895af180156129ea576129a5575b5f8051602061693d8339815191529250519283523392a360a4541660a45580f35b8183813d83116129e3575b6129ba8183615445565b810103126129df576129d95f8051602061693d83398151915293615466565b50612984565b8680fd5b503d6129b0565b81513d89823e3d90fd5b612a6991929350612a33670de0b6b3a764000091898c5260978852868c20335f528852612a2d612a278a895f20546153c0565b91615f67565b9061537b565b0491612a41610fd8336165ce565b6064612a63612a5a612a55610fd8336165ce565b616568565b5050339461537b565b0461601d565b11612a775783905f80612921565b82608492519162461bcd60e51b8352820152603b60248201527f5769746864726177616c20776f756c642076696f6c61746520746965722d626160448201527f73656420636f6c6c61746572616c20726571756972656d656e747300000000006064820152fd5b5082606492519162461bcd60e51b8352820152601760248201527f496e73756666696369656e7420636f6c6c61746572616c0000000000000000006044820152fd5b5162461bcd60e51b815280610824818601615e77565b50503461072257816003193601126107225751908152602090f35b50503461072257816003193601126107225760a65490516001600160a01b039091168152602090f35b50503461072257602036600319011261072257602090610c51612b9b615147565b615e2b565b5050346107225781600319360112610722576020905160058152f35b6151b9565b509034610736578060031936011261073657612bdb615147565b60a95460243592916001600160a01b03918216330361178a5716928315612cb657308414612c7c5760648311612c4557507f4afae6838a181695abc7978598380d73bc2144eb38580c130f86e4b1e6531e159160209184865260998352818187205551908152a280f35b6020606492519162461bcd60e51b8352820152601260248201527153636f7265206f7574206f662072616e676560701b6044820152fd5b6020606492519162461bcd60e51b8352820152601560248201527424b73b30b634b21030b2323932b9b99d1039b2b63360591b6044820152fd5b6020606492519162461bcd60e51b8352820152601d60248201527f496e76616c696420616464726573733a207a65726f20616464726573730000006044820152fd5b505034610722578160031936011261072257602090517f96737339a958f216173e690d06f324072e6dc3146e04c060bd723906d6b190768152f35b505034610722578060031936011261072257602090610c51612d53615147565b612d5b61515d565b90615d5e565b5050346107225760203660031901126107225760209160ff9082906001600160a01b03612d8c615147565b16815260a2855220541690519015158152f35b5091346110a75760203660031901126110a757612dba615147565b612dd2612a55610fd8612dcc84615bdb565b936165ce565b926050808202935081159184041417159050612e0b576020945060649004915080821015612e035750905b51908152f35b905090612dfd565b634e487b7160e01b835260118552602483fd5b503461073657816003193601126107365781602093612e3b61515d565b9235815260658552209060018060a01b03165f52825260ff815f20541690519015158152f35b8284346110a75760203660031901126110a75750612e85612e80615147565b615ce8565b825191151582526020820152f35b5050346107225781600319360112610722576020905166b1a2bc2ec500008152f35b505034610722578160031936011261072257602090517fce802e42c93d0fbd61dfc706a0e806b78ac046397e07510da2f223464e4788e08152f35b50503461072257816003193601126107225760209060b0549051908152f35b505034610722578160031936011261072257602090517f0e0e24c52bc4f24612e3f568966757426acd82325205933a9270e1ce7c4d93c28152f35b503461073657826003193601126107365760a9546001600160a01b031633036122565750819060aa549060ff8260a01c16612f83575050f35b60205f8051602061691d833981519152917f66bf2b11c53d5241aae052b8d94ae87df6db75d903937feef344d82289829b169360ff60a01b191660aa555f805160206168fd833981519152828251878152a1740656d657267656e637944697361626c65524953433605c1b8151525160018152a380f35b509034610736578060031936011261073657613014615147565b6024359261308c60018060a01b036130318160a654163314615ca6565b831694858752613077613072610fd8602096609a88528a89812055609b88528a89812055609c8852888b2060ff198154169055609d88528a898120556165ce565b615364565b6130828282546153c0565b905560ae54615473565b60ae55838552609f8252600183862001805491600183018093116130e85750915f8051602061697d833981519152939160809355600b8251928084528301526a3634b8bab4b230ba34b7b760a91b60608301524290820152a280f35b634e487b7160e01b875260119052602486fd5b5034610736578160031936011261073657613114615147565b9161311d61515d565b60a95490936001600160a01b039390918416330361316e57508216808552609860205261314f60ff8387205416615b14565b8452609e602052832091166001600160601b0360a01b82541617905580f35b8251630925c89960e31b8152fd5b50346107365760203660031901126107365760e09282906001600160a01b036131a3615147565b16815260b36020522080549260018201549260028301546003840154918401549260ff600660058701549601541695815197885260208801528601526060850152608084015260a0830152151560c0820152f35b5050346107225760203660031901126107225760209160ff9082906001600160a01b03613222615147565b1681526098855220541690519015158152f35b50903461073657602092836003193601126110a757613252615147565b9260a35461326560ad5460ae54906153c0565b81156133bc57670de0b6b3a7640000908181029181830414901517156133a9579061328f916153a2565b935b60a7548451634fd41dad60e11b8152838101969096528690869060249082906001600160a01b03165afa948515611d70578395613378575b50610fd86132d6916165ce565b6005811015613365576132ea600391615309565b50015484908381121561332857613305919293949550615c96565b926127109384039284841161089c575050906133209161537b565b049051908152f35b9280841361333a575b50505050612dfd565b9091929394506127109384019283851161089c5750509061335a9161537b565b04905f808080613331565b634e487b7160e01b835260218252602483fd5b9094508581813d83116133a2575b6133908183615445565b81010312610b99575193610fd86132c9565b503d613386565b634e487b7160e01b845260118352602484fd5b50508193613291565b5090346107365760203660031901126107365781359260ab548410156110a757506133f160a093615309565b508054926001820154926002830154916003840154930154938151958652602086015284015260608301526080820152f35b50346107365760203660031901126107365761343d615147565b60a95491906001600160a01b039081841633036134a4571692831561346f5750506001600160a01b0319161760a95580f35b906020606492519162461bcd60e51b8352820152600f60248201526e496e76616c6964206164647265737360881b6044820152fd5b8451630925c89960e31b81528390fd5b5091903461072257602091826003193601126110a75783356001600160401b038111610722576134e79036908601615296565b505060609260b454603c810180911161369b57613505904211615919565b82519182838360a154928381520160a184527faadc37b8ba5645e62f4546802db221593a94729ccbfc5a97d01365a88f64987892845b8682821061367c5750505061355292500384615445565b61355c8351615c64565b938193825b81518110156135e7576001600160a01b0361357c82846154c1565b5116808552609c865260ff848620541661359a575b50600101613561565b609d8652838520546203f48081018091116135d457421061359157866135cd916135c7600194998b6154c1565b526154d5565b9590613591565b634e487b7160e01b865260118b52602486fd5b508490508587821561367057506135fd82615c64565b935b8281106136485750505061122d9061362361363160019483519283918883016151d4565b03601f198101835282615445565b905b808051958695151586528501528301906152e4565b6001906001600160a01b0361365d82856154c1565b511661366982886154c1565b52016135ff565b91505061122d91613633565b85546001600160a01b031684526001958601958995509301920161353b565b634e487b7160e01b835260118652602483fd5b50503461072257602036600319011261072257602090610c516136cf615147565b615bdb565b50503461072257816003193601126107225760209060ff60aa5460a01c1690519015158152f35b5050346107225760203660031901126107225760209181906001600160a01b03613723615147565b16815260af845220549051908152f35b5050346107225760203660031901126107225761122d613751615147565b918060018060a01b03841694858152609a6020526137728282205495615bdb565b958152609b60205220549051938493846040919493926060820195825260208201520152565b50503461072257816003193601126107225760209051600a8152f35b509190346107225760203660031901126107225782356001600160401b038111610736576137e59036908501615296565b60a9549094906001600160a01b039081163303610e565760aa54169461380c861515615b60565b80156138b6578585963b156108375761383c9386809487519687958694859363fbc4a11d60e01b85528401615bac565b03925af18015610e0f579083916138a2575b50505f8051602061691d8339815191526020826f30baba3437b934bd32afb9b2b93b32b960811b7f691250ac2f75e8c843268c88b7e052f2ad41dfdca45aee52fff0b2a7aca8414e9451525160018152a380f35b6138ab90615417565b610e0c57815f61384e565b835162461bcd60e51b81526020818401526013602482015272496e76616c696420736572766572206e616d6560681b6044820152606490fd5b50503461072257816003193601126107225760209051603c8152f35b505034610722576020366003190112610722576020916001600160a01b0390829082613935615147565b168082526098865261394c60ff8484205416615b14565b8152609e85522054169051908152f35b505034610722578160031936011261072257602090516103848152f35b505034610722578160031936011261072257602090516276a7008152f35b50503461072257816003193601126107225751600a47048152602090f35b5090346107365780600319360112610736576139cf615147565b906024359182151592838103610b995760a9546001600160a01b03929083163303613b07578216948587526098602052613a17828589209060ff801983541691151516179055565b60a0549187805b848110613add575b5081613ad4575b50613a63575b5050507f15f5cc64ca777db85f6c05fdba671568758b38329616d4d4b43bb8b092fe9a8d9160209151908152a280f35b600160401b821015613ac15750917f15f5cc64ca777db85f6c05fdba671568758b38329616d4d4b43bb8b092fe9a8d9391613aa68460016020960160a055615261565b819291549060031b9188831b921b1916179055918193613a33565b604190634e487b7160e01b5f525260245ffd5b9050155f613a2d565b8886613ae883615261565b90549060031b1c1614613afd57600101613a1e565b505060015f613a26565b8351630925c89960e31b81528690fd5b505034610722578060031936011261072257602091613b34615147565b906001600160a01b0390839082613b4961515d565b168152609786522091165f528252805f20549051908152f35b50503461072257602036600319011261072257606090613b88613b83615147565b615a17565b919290815193151584526020840152820152f35b5050346107225760203660031901126107225780606092613bbb615147565b81838051613bc88161542a565b828152826020820152015260018060a01b03168152609f60205220908051613bef8161542a565b825492838252826002600183015492602085019384520154920191825282519384525160208401525190820152f35b50503461072257602036600319011261072257602090613c4e613c45610fd8610c79615147565b91518092615189565bf35b50503461072257816003193601126107225760a95460aa5482516001600160a01b03928316815260a082901c60ff16151560208201529116918101919091526276a7006060820152608090f35b505034610722578160031936011261072257602090610c5161596f565b505034610722578160031936011261072257602090517f430b074324c1d9f1ce97c9e9efd8cc6b779c8a501b53808a5cafe19682f95dd58152f35b50346107365760209182600319360112610b9d576001600160401b0392823584811161083757613d289036908501615296565b60b495919554603c8101809111613eb357613d44904211615919565b4260b45585019482818703126129df5780359182116129df57019380601f86011215610837578435613d7581615958565b95613d8285519788615445565b818752838088019260051b820101928311613eaf578301905b828210613e9057505050845b8451811015613e8c576001600160a01b0380613dc383886154c1565b511690818852609c845260ff8589205416613de3575b5050600101613da7565b609d8452848820546203f4808101809111613e795790889291421015613e0a575b50613dd9565b60a65416803b1561073657855163bcebb1d760e01b8152308882019081526001600160a01b039093166020840152918391839182908490829060400103925af18015613e6f57613e5b575b80613e04565b613e6490615417565b61083757855f613e55565b85513d84823e3d90fd5b634e487b7160e01b895260118752602489fd5b8580f35b81356001600160a01b0381168103610b99578152908301908301613d9b565b8780fd5b634e487b7160e01b885260118652602488fd5b50503461072257816003193601126107225780602092338152609a845220549051908152f35b505034610722578160031936011261072257602090517f5fef09193e4e8110de1cc5ba269e889a5fb9093ba33c4df4b67dc2eaa1ca1fff8152f35b50503461072257816003193601126107225760a454905160109190911c6001600160a01b03168152602090f35b505f366003190112610b995760a45491613f7460ff8460081c1615615480565b613f8160ff8416156158dd565b600160ff198094161760a455335f52602090609a8252805f205480156141b757341561418557803411805f1461417e5781945b335f52609a8552835f20613fc98782546153c0565b9055613fd78660ae54615473565b60ae55613fe9613072610fd8336165ce565b613ff48782546153c0565b9055335f52609f85526002845f20018054906001820180921161416b57908994939291558451858152600986820152681c995c185e5b595b9d60ba1b606082015242878201525f8051602061697d83398151915260803392a2335f52609c8652845f2088815460ff8116614157575b505060a8546001600160a01b03169050806140e3575b50506140b6575b5050907f0516911bcc3a0a7412a44601057c0a0a1ec628bde049a84284bc42886653448891519283523392a260a4541660a45580f35b81806140c38193346153c0565b8181156140da575b3390f11561072d57845f614080565b506108fc6140cb565b8091929394503b15610b995784516340c10f1960e01b815233928101928352662386f26fc1000088046020840152915f91839182908490829060400103925af1801561414d57614138575b9081889392614079565b61414491929750615417565b5f95905f61412e565b84513d5f823e3d90fd5b169055609d86525f858120555f8881614063565b601183634e487b7160e01b5f525260245ffd5b3494613fb4565b505162461bcd60e51b815291820152600d60248201526c09aeae6e840e6cadcc8408aa89609b1b604482015260649150fd5b505162461bcd60e51b815291820152601060248201526f4e6f206465627420746f20726570617960801b604482015260649150fd5b8234610b99575f366003190112610b995760209060b4549051908152f35b8234610b99576020366003190112610b9957606090614230612a55610fd8610c79615147565b91929081519384526020840152820152f35b5034610b99576020366003190112610b9957359060a154821015610b995761251b602092615218565b5034610b995781600319360112610b995761428461515d565b90336001600160a01b038316036142a2576142a09250356164f5565b005b608490602084519162461bcd60e51b8352820152602f60248201527f416363657373436f6e74726f6c3a2063616e206f6e6c792072656e6f756e636560448201526e103937b632b9903337b91039b2b63360891b6064820152fd5b509034610b99576020366003190112610b995760a9546001600160a01b031633036111b357503560b055005b8234610b99575f366003190112610b9957602090517ffed613f2d4bec2209ff904769fa3c094c155ec5048c0bb2e17f16e523671ca2c8152f35b509034610b995780600319360112610b995761437d615147565b6024359160018060a01b039384831694855f526020936098855260ff845f205416156145be57865f5260978552835f20335f52855285845f20541061458657335f52609c855260ff845f205416614565576143fd90670de0b6b3a76400006143f66143f06143ea33615bdb565b93615f67565b8961537b565b04906153c0565b9060648202918083046064149015171561416b57602490335f52609a865285855f20549160a55416865193848092631ee1b90b60e21b82528c898301525afa90811561455b575f9161452a575b614454925061537b565b116144f35790828461447e9493875f5260978352835f20335f528352835f206129488382546153c0565b03815f895af180156144e9576144a8575b5f8051602061693d8339815191529250519283523392a3005b8183813d83116144e2575b6144bd8183615445565b81010312610b99576144dc5f8051602061693d83398151915293615466565b5061448f565b503d6144b3565b50513d5f823e3d90fd5b8161082492515f8051602061695d8339815191523391806145138161588a565b0390a25162461bcd60e51b8152918291820161588a565b90508582813d8311614554575b6145418183615445565b81010312610b995761445491519061444a565b503d614537565b85513d5f823e3d90fd5b610824838580515f8051602061695d83398151915233918061281081615852565b610824838580515f8051602061695d8339815191523391806145a781615823565b0390a25162461bcd60e51b81529182918201615823565b610824838580515f8051602061695d833981519152339180612880816157f7565b5034610b99576020366003190112610b995760e0916145fc615147565b5f60c0835161460a816153fc565b82815282602082015282858201528260608201528260808201528260a0820152015260018060a01b03165f5260b3602052805f2081519161464a836153fc565b81549384845260018301549160208501928352600284015481860190815260038501549260608701938452850154936080870194855260c060ff600660058901549860a08b01998a5201541697019615158752825197885251602088015251908601525160608501525160808401525160a083015251151560c0820152f35b509034610b995760c0366003190112610b995760a954823592906001600160a01b03163303612256575061473c6142a09261470760ab548210615775565b825192614713846153cd565b6024358452604435602085015260643590840152608435606084015260a4356080840152615309565b906157b0565b5034610b995781600319360112610b9957359061475d61515d565b90825f5260656020526147756001825f2001546162ce565b825f526065602052805f209160018060a01b031691825f5260205260ff815f2054161561479e57005b825f526065602052805f20825f526020525f20600160ff1982541617905533917f2f8788117e7eff1d82e926ec794901d17c78024a50270940304540a733656f0d5f80a4005b5034610b99576020366003190112610b995735906001600160401b0382168203610b9957610c51602092615725565b8234610b99575f366003190112610b9957805160a080548083525f918252602080840194927f78fdc8d422c49ced035a9edf18d00d3c6a8d81df210f3e5e448e045e77b41e8892915b8282106148745761122d8686611223828b0383615445565b83546001600160a01b03168752958601956001938401939091019061485c565b509034610b99576020366003190112610b9957602091355f52606582526001815f2001549051908152f35b34610b99575f366003190112610b99576142a06154e3565b50905f366003190112610b99576148f660ff60a45460081c1615615480565b335f52602060b38152815f20600681019360ff85541615614baf5780820191825492833410614b6c5760038201918254804210614b3d5762093a808101809111614b2a57804211614a65575b509060016149799201946149578187546153c0565b8655335f52609a875261496e885f209182546153c0565b90555460ae54615473565b60ae5580549062278d00820180921161416b5755335f52609f83526002845f200180549160018301809311614a525750907fd3cf6d8c55fed98c7b9f9d18d95a51dbdb316503bb854fc1f676c8974cb10f4f9291558351848152601385820152721a5b9cdd185b1b1b595b9d17dc185e5b595b9d606a1b606082015242848201525f8051602061697d83398151915260803392a25492838151933485528401523392a215614a2357005b805460ff19169055337f59bd56f70adeefb0cd83dca0f34f066bed6ee442068f3d07b5fc974b944d5aa65f80a2005b601190634e487b7160e01b5f525260245ffd5b614a71610fd8336165ce565b6005811015614b17579160019161497994935f5260b2895262015180614a9d848c5f20015492426153c0565b0480151580614b0e575b614ab6575b5050919250614942565b614adb61271061016d614ad28787019461103c8654978861537b565b04048093615473565b905589519081527fce0d6b567089a0bce35e0693cdb625006f0cf915f9f3686bb0343bc2c667c1b2893392a28a80614aac565b50811515614aa7565b602186634e487b7160e01b5f525260245ffd5b601185634e487b7160e01b5f525260245ffd5b875162461bcd60e51b81528086018890526009602482015268546f6f206561726c7960b81b6044820152606490fd5b855162461bcd60e51b8152808401869052601860248201527f496e73756666696369656e7420696e7374616c6c6d656e7400000000000000006044820152606490fd5b835162461bcd60e51b8152908101839052600e60248201526d27379030b1ba34bb32903637b0b760911b6044820152606490fd5b8234610b99576020366003190112610b99576020906001600160a01b0380614c09615147565b165f52609e8352815f2054169051908152f35b8234610b99575f366003190112610b9957602090517f8b473ac3e35dc431c1dba0191b7615ccaca6bfeb14f9573dcaae9e614fbe8b208152f35b5034610b99576020366003190112610b9957614c70615147565b60a9546001600160a01b03919082163303611a095716918215614cc65760b180546001600160a01b03191684179055827f279ea638680bba6a87fddd8bcdbc37d94eee92841e1dfec2ab0f79662c7093115f80a2005b906020606492519162461bcd60e51b8352820152601760248201527f496e76616c6964207265736572766520616464726573730000000000000000006044820152fd5b8234610b99576020366003190112610b99576001600160a01b03614d2b615147565b165f52609f602052805f209061122d825491600260018501549401549051938493846040919493926060820195825260208201520152565b509034610b99576020366003190112610b9957614d7e6151aa565b60a9549092906001600160a01b03163303612256575f805160206168fd8339815191526020838515159060aa5460ff60a01b8360a01b169060ff60a01b19161760aa5551908152a1005b8234610b99575f366003190112610b995760209051600a8152f35b8234610b99575f366003190112610b995760209051610e108152f35b8234610b99576020366003190112610b9957602090610c516136cf615147565b509034610b995780600319360112610b9957614e39615147565b9160243590335f52602093609c855260ff845f20541615614f1b5783516323b872dd60e01b815233928101928352306020840152604083018490526001600160a01b039091169185908290819060600103815f865af1801561414d57614ee7575b505f5260978352815f20335f528352614eb7825f20918254615473565b9055614ec233615ce8565b50614ec957005b335f908152609c8352818120805460ff19169055609d909252812055005b8481813d8311614f14575b614efc8183615445565b81010312610b9957614f0d90615466565b5084614e9a565b503d614ef2565b835162461bcd60e51b8152808301869052601a60248201527f4163636f756e74206e6f7420696e206c69717569646174696f6e0000000000006044820152606490fd5b509034610b99576020366003190112610b9957614f79615147565b91614f86610fd8846165ce565b91614f96612a55610fd8866165ce565b50506001600160a01b0385165f908152609a6020528290205494909290851561502157614fca90856064612a63878a61537b565b90606482029180830460641490151715614a525750608094614feb916153a2565b908183111561501b57614ffe82846153c0565b925b61500c82518096615189565b60208501528301526060820152f35b5f614ffe565b50506080935081905f92615000565b8234610b99576020366003190112610b99576020906001600160a01b03615055615147565b165f52609c825260ff815f20541690519015158152f35b8234610b99575f366003190112610b995760aa5490516001600160a01b039091168152602090f35b5034610b99576020366003190112610b99573563ffffffff60e01b8116809103610b9957602091637965db0b60e01b82149182156150d6575b50519015158152f35b6301ffc9a760e01b149150836150cd565b8234610b99576020366003190112610b9957615101615147565b60a9549092906001600160a01b0316330361513b5760a4805462010000600160b01b031916601085901b62010000600160b01b0316179055005b630925c89960e31b8152fd5b600435906001600160a01b0382168203610b9957565b602435906001600160a01b0382168203610b9957565b604435906001600160a01b0382168203610b9957565b9060058210156151965752565b634e487b7160e01b5f52602160045260245ffd5b600435908115158203610b9957565b34610b99575f366003190112610b9957602047604051908152f35b60209060206040818301928281528551809452019301915f5b8281106151fb575050505090565b83516001600160a01b0316855293810193928101926001016151ed565b60a15481101561524d5760a15f527faadc37b8ba5645e62f4546802db221593a94729ccbfc5a97d01365a88f64987801905f90565b634e487b7160e01b5f52603260045260245ffd5b60a05481101561524d5760a05f527f78fdc8d422c49ced035a9edf18d00d3c6a8d81df210f3e5e448e045e77b41e8801905f90565b9181601f84011215610b99578235916001600160401b038311610b995760208381860195010111610b9957565b5f5b8381106152d45750505f910152565b81810151838201526020016152c5565b906020916152fd815180928185528580860191016152c3565b601f01601f1916010190565b60ab5481101561524d5760059060ab5f52027ffc377260a69a39dd786235c89f4bcd5d9639157731cac38071a0508750eb115a01905f90565b34610b99575f366003190112610b99576020604051670de0b6b3a76400008152f35b6005811015615196575f5260ac60205260405f2090565b8181029291811591840414171561538e57565b634e487b7160e01b5f52601160045260245ffd5b81156153ac570490565b634e487b7160e01b5f52601260045260245ffd5b9190820391821161538e57565b60a081019081106001600160401b038211176153e857604052565b634e487b7160e01b5f52604160045260245ffd5b60e081019081106001600160401b038211176153e857604052565b6001600160401b0381116153e857604052565b606081019081106001600160401b038211176153e857604052565b90601f801991011681019081106001600160401b038211176153e857604052565b51908115158203610b9957565b9190820180921161538e57565b1561548757565b60405162461bcd60e51b815260206004820152601260248201527110dbdb9d1c9858dd081a5cc81c185d5cd95960721b6044820152606490fd5b805182101561524d5760209160051b010190565b5f19811461538e5760010190565b6154eb615ea4565b5f5b815181101561558d576001600160a01b038061550983856154c1565b511690815f52602091609e8352604091825f20541661552e575b5050506001016154ed565b61554561553d610e1092616155565b9050426153c0565b116155505780615523565b60a4805461ff00191661010017905551600181527f228f455d7bc3d0b24a3a08d7847f391c3e78fc8aeb83acf226b7a96ee162b8ac9350909150a1565b505060a35480151590816156ee575b506155d35760a15460a6545f91906001600160a01b03908116835b83811061563957505050801515918261560f575b50506155d357565b61010061ff001960a454161760a4557f228f455d7bc3d0b24a3a08d7847f391c3e78fc8aeb83acf226b7a96ee162b8ac602060405160018152a1565b90915060648102908082046064149015171561538e57600591615631916153a2565b115f806155cb565b61564281615218565b905460408051632cf5889360e01b815230600482015260039390931b9190911c85166001600160a01b031660248301529060208082604481885afa9283156156e557505f926156af575b505061569b575b6001016155b7565b936156a76001916154d5565b949050615693565b90809250813d83116156de575b6156c68183615445565b81010312610b99576156d790615466565b5f8061568c565b503d6156bc565b513d5f823e3d90fd5b90506156ff60ad5460ae54906153c0565b60648102908082046064149015171561538e57605f9161571e916153a2565b115f61559c565b6001600160401b0380911661012c81111561576f576103528110156157685761012b190181811161538e57811660640280821690810361538e5761022690041690565b5050606490565b50505f90565b1561577c57565b60405162461bcd60e51b815260206004820152600c60248201526b24b73b30b634b2103a34b2b960a11b6044820152606490fd5b91906157e4576080816004925184556020810151600185015560408101516002850155606081015160038501550151910155565b634e487b7160e01b5f525f60045260245ffd5b606090602081526011602082015270151bdad95b881b9bdd08185b1b1bddd959607a1b60408201520190565b606090602081526014602082015273496e73756666696369656e742062616c616e636560601b60408201520190565b60609060208152601960208201527f4163636f756e7420697320696e206c69717569646174696f6e0000000000000060408201520190565b60809060208152603260208201527f5769746864726177616c20776f756c64206d616b6520706f736974696f6e20756040820152711b99195c98dbdb1b185d195c985b1a5e995960721b60608201520190565b156158e457565b60405162461bcd60e51b815260206004820152600d60248201526c4e6f207265656e7472616e637960981b6044820152606490fd5b1561592057565b60405162461bcd60e51b815260206004820152601060248201526f155c1ad9595c081d1a1c9bdd1d1b195960821b6044820152606490fd5b6001600160401b0381116153e85760051b60200190565b60a35480156159e0575f905f60a1545b8082106159a757505060648202918083046064149015171561538e576159a4916153a2565b90565b90926159d86001916159b886615218565b848060a01b0391549060031b1c165f52609a60205260405f205490615473565b93019061597f565b505f90565b90816060910312610b995780516001600160401b0381168103610b9957916040615a1160208401615466565b92015190565b60aa549060ff8260a01c16158015615b03575b615af95760405163d3dd2bdf60e01b81526001600160a01b0391821660048201529160609183916024918391165afa5f918291829181615ac5575b50615a76575b5050505f905f905f90565b80615ab3575b80615a9d575b615a8c5780615a6b565b615a9590615725565b916001929190565b506276a700820180831161538e57421115615a82565b506001600160401b0381161515615a7c565b91509250615aeb915060603d606011615af2575b615ae38183615445565b8101906159e5565b925f615a65565b503d615ad9565b50505f905f905f90565b506001600160a01b03821615615a2a565b15615b1b57565b60405162461bcd60e51b815260206004820152601f60248201527f546f6b656e206e6f7420616c6c6f77656420617320636f6c6c61746572616c006044820152606490fd5b15615b6757565b60405162461bcd60e51b815260206004820152601c60248201527f43726564697453636f726520636f6e7472616374206e6f7420736574000000006044820152606490fd5b929160608160209260019460408852816040890152838801375f828288010152601f8019910116850101930152565b905f91615be6615ea4565b925f5b8451811015615c5e576001600160a01b0380615c0583886154c1565b511690815f5260209060978252604091825f209187165f52525f20549081615c32575b5050600101615be9565b92670de0b6b3a7640000615c4f615c5693612a2d60019697615f67565b0490615473565b91905f615c28565b50925050565b90615c6e82615958565b615c7b6040519182615445565b8281528092615c8c601f1991615958565b0190602036910137565b600160ff1b811461538e575f0390565b15615cad57565b60405162461bcd60e51b815260206004820152601360248201527227b7363c902632b73234b733a6b0b730b3b2b960691b6044820152606490fd5b90615cf282615bdb565b6001600160a01b0383165f908152609a6020526040902054928315615d52578115615d4857612a55610fd8615d26926165ce565b5050926064820291820460640361538e57615d40916153a2565b918210159190565b505090505f905f90565b50600192505f19919050565b91909160018060a01b038084165f52609760205260405f209082165f5260205260405f205492609a60205260405f2054908115615e2657615d9e90615f67565b90615de2670de0b6b3a76400009384615db7858961537b565b04926064612a63615dca610fd8856165ce565b92615dda612a55610fd8876165ce565b50509061537b565b9081811115615e1d5790615df5916153c0565b82810292818404149015171561538e57615e0e916153a2565b91808311615e195750565b9150565b505f9450505050565b505050565b6001600160a01b0381165f908152609a6020526040902054908115615e7057615e5390615bdb565b9060648202918083046064149015171561538e576159a4916153a2565b50505f1990565b6060906020815260126020820152710416d6f756e74206d757374206265203e20360741b60408201520190565b60a0545f805b828110615f1f5750615ebb90615c64565b905f805b828110615ecc5750505090565b615ed581615261565b905460039190911b1c6001600160a01b03165f8181526098602052604090205460ff16615f06575b50600101615ebf565b82615f18916135c760019495886154c1565b9190615efd565b615f2881615261565b60018060a01b0391549060031b1c165f52609860205260ff60405f205416615f53575b600101615eaa565b90615f5f6001916154d5565b919050615f4b565b60046020615f7483616155565b509260018060a01b038091165f52609e825260405f2054166040519283809263313ce56760e01b82525afa8015616012575f90615fd5575b60ff91501660120360ff811161538e5760ff1690604d821161538e576159a491600a0a9061537b565b506020813d60201161600a575b81615fef60209383615445565b81010312610b99575160ff81168103610b995760ff90615fac565b3d9150615fe2565b6040513d5f823e3d90fd5b91616027906165ce565b9060058110156151965761603a81615309565b5050806160675750605f111561604d5790565b605f810290808204605f149015171561538e576064900490565b6001810361609e5750605581106160935750605a810290808204605a149015171561538e576064900490565b6052111561604d5790565b600281036160eb5750604b81106160ca575060558102908082046055149015171561538e576064900490565b6048116159a457605c810290808204605c149015171561538e576064900490565b6003146160f6575090565b60418110616119575060508102908082046050149015171561538e576064900490565b603e11156161245790565b605a810290808204605a149015171561538e576064900490565b519069ffffffffffffffffffff82168203610b9957565b9060018060a01b03918281165f52609e602052604092835f2054168015616295579260a0600494825195868092633fabe5a360e21b82525afa80156144e9575f80935f965f9361623b575b506161b46161ae88426153c0565b91616848565b106162095769ffffffffffffffffffff8091169116106161d357509190565b5162461bcd60e51b815260206004820152601060248201526f5374616c6520726f756e64206461746160801b6044820152606490fd5b825162461bcd60e51b815260206004820152600b60248201526a5374616c6520707269636560a81b6044820152606490fd5b94509550505060a0823d60a01161628d575b8161625a60a09383615445565b81010312610b995761626b8261613e565b93602083015161628260806060860151950161613e565b95909395915f6161a0565b3d915061624d565b835162461bcd60e51b8152602060048201526012602482015271141c9a58d94819995959081b9bdd081cd95d60721b6044820152606490fd5b805f52602060658152604091825f20335f52825260ff835f205416156162f357505050565b338351916163008361542a565b602a8352838301908536833783511561524d57603082538351926001936001101561524d576078602186015360295b8481116164b4575061642f5790855191608083018381106001600160401b038211176153e85787526042835285830193606036863783511561524d576030855383516001101561524d57607860218501536041905b80821161647157505061642f57610824938693616413936164046048946163db9a519a8b957f416363657373436f6e74726f6c3a206163636f756e74200000000000000000008c88015251809260378801906152c3565b8401917001034b99036b4b9b9b4b733903937b6329607d1b6037840152518093868401906152c3565b01036028810187520185615445565b5192839262461bcd60e51b8452600484015260248301906152e4565b60648587519062461bcd60e51b825280600483015260248201527f537472696e67733a20686578206c656e67746820696e73756666696369656e746044820152fd5b9091600f8116601081101561524d576f181899199a1a9b1b9c1cb0b131b232b360811b901a6164a084876168eb565b5360041c91801561538e575f190190616384565b90600f8116601081101561524d576f181899199a1a9b1b9c1cb0b131b232b360811b901a6164e283886168eb565b5360041c90801561538e575f190161632f565b90815f52606560205260405f209060018060a01b031690815f5260205260ff60405f205416616522575050565b815f52606560205260405f20815f5260205260405f2060ff19815416905533917ff6391f5c32d9c69d2a47ea670b442974b53935d1edc7fd64eb21e047a839171b5f80a4565b60058110156151965761657a90615309565b509060405190616589826153cd565b825482526001830154602083015260646165c7608060028601549485604082015260046003880154978860608401520154918291015260a35461537b565b0491929190565b60aa5460ff8160a01c16806166af575b6165fe575b506001600160a01b03165f9081526099602052604090205490565b60405163d3dd2bdf60e01b81526001600160a01b038381166004830152909160609183916024918391165afa5f91815f915f9361668a575b50616643575b50506165e3565b80616678575b616654575b8061663c565b6276a700810180911161538e5742111561666e578061664e565b6159a49150615725565b506001600160401b0382161515616649565b915092506166a7915060603d606011615af257615ae38183615445565b91925f616636565b506001600160a01b03811615156165de565b60ab54905f5b8281106166e75750505f19810190811161538e5760058110156151965790565b6166f081615309565b505482101580616716575b616707576001016166c7565b91505060058110156151965790565b50600161672282615309565b5001548211156166fb565b60aa5460ff8160a01c1680616811575b616761575b506001600160a01b03165f908152609960205260409020549081151590565b60405163d3dd2bdf60e01b81526001600160a01b038381166004830152909160609183916024918391165afa5f90805f935f926167ec575b506167a6575b5050616742565b6001600160401b038216151590816167d4575b506167c4578061679f565b6167d091939250615725565b9190565b90506276a700810180911161538e574211155f6167b9565b91509250616809915060603d606011615af257615ae38183615445565b90925f616799565b506001600160a01b038116151561673d565b60ab5490600160401b8210156153e85761473c826001616846940160ab55615309565b565b6001600160a01b039081165f81815260af6020526040902054909190806168e5575060209060a5541691602460405180948193631a650cc760e01b835260048301525afa908115616012575f916168ab575b506168a55761038490565b610e1090565b90506020813d6020116168dd575b816168c660209383615445565b81010312610b99576168d790615466565b5f61689a565b3d91506168b9565b91505090565b90815181101561524d57016020019056feb01450010edba5be11857fe89630b2ff764d237a9f9f77ab651643effd869988faf96530ecdff5da493c046dd96d0c91448b62457d616c690351898f661bcd2645892a46e6cef329bb642da6d69846d324db43d19008edc141ed82382eda1bee3c364b9decdac59fbe037e99687219ac0feed46572bfbcbd5284b6b8e67f402d3f7c433051856ef6c6f502f4e60ac20498082f86a4d68de64f1a2d06924432c4a2646970667358221220bae4a464e7d780e7fa2cfe6513b3e071d7c773b979d62df964205b260b9d7e3f64736f6c63430008180033",
  "linkReferences": {},
  "deployedLinkReferences": {}
}