{
  "_format": "hh-sol-artifact-1",
  "contractName": "LiquidityPool",
  "sourceName": "contracts/LiquidityPool.sol",
  "abi": [
    {
      "inputs": [],
      "name": "OnlyTimelockLiquidityPool",
      "type": "error"
    },
    {
      "anonymous": false,
      "inputs": [
        {
          "indexed": true,
          "internalType": "address",
          "name": "user",
          "type": "address"
        },
        {
          "indexed": false,
          "internalType": "uint256",
          "name": "amount",
          "type": "uint256"
        }
      ],
      "name": "Borrowed",
      "type": "event"
    },
    {
      "anonymous": false,
      "inputs": [
        {
          "indexed": true,
          "internalType": "address",
          "name": "user",
          "type": "address"
        },
        {
          "indexed": true,
          "internalType": "address",
          "name": "token",
          "type": "address"
        },
        {
          "indexed": false,
          "internalType": "uint256",
          "name": "amount",
          "type": "uint256"
        }
      ],
      "name": "CollateralDeposited",
      "type": "event"
    },
    {
      "anonymous": false,
      "inputs": [
        {
          "indexed": true,
          "internalType": "address",
          "name": "token",
          "type": "address"
        },
        {
          "indexed": false,
          "internalType": "bool",
          "name": "isAllowed",
          "type": "bool"
        }
      ],
      "name": "CollateralTokenStatusChanged",
      "type": "event"
    },
    {
      "anonymous": false,
      "inputs": [
        {
          "indexed": true,
          "internalType": "address",
          "name": "user",
          "type": "address"
        },
        {
          "indexed": true,
          "internalType": "address",
          "name": "token",
          "type": "address"
        },
        {
          "indexed": false,
          "internalType": "uint256",
          "name": "amount",
          "type": "uint256"
        }
      ],
      "name": "CollateralWithdrawn",
      "type": "event"
    },
    {
      "anonymous": false,
      "inputs": [
        {
          "indexed": true,
          "internalType": "address",
          "name": "user",
          "type": "address"
        },
        {
          "indexed": false,
          "internalType": "uint256",
          "name": "score",
          "type": "uint256"
        }
      ],
      "name": "CreditScoreAssigned",
      "type": "event"
    },
    {
      "anonymous": false,
      "inputs": [
        {
          "indexed": true,
          "internalType": "address",
          "name": "oldContract",
          "type": "address"
        },
        {
          "indexed": true,
          "internalType": "address",
          "name": "newContract",
          "type": "address"
        }
      ],
      "name": "CreditScoreContractUpdated",
      "type": "event"
    },
    {
      "anonymous": false,
      "inputs": [
        {
          "indexed": false,
          "internalType": "bool",
          "name": "isPaused",
          "type": "bool"
        }
      ],
      "name": "EmergencyPaused",
      "type": "event"
    },
    {
      "anonymous": false,
      "inputs": [
        {
          "indexed": true,
          "internalType": "address",
          "name": "user",
          "type": "address"
        },
        {
          "indexed": false,
          "internalType": "uint256",
          "name": "amount",
          "type": "uint256"
        },
        {
          "indexed": false,
          "internalType": "string",
          "name": "feeType",
          "type": "string"
        },
        {
          "indexed": false,
          "internalType": "uint256",
          "name": "tier",
          "type": "uint256"
        }
      ],
      "name": "FeeCollected",
      "type": "event"
    },
    {
      "anonymous": false,
      "inputs": [
        {
          "indexed": true,
          "internalType": "address",
          "name": "user",
          "type": "address"
        },
        {
          "indexed": false,
          "internalType": "uint256",
          "name": "newDeadline",
          "type": "uint256"
        }
      ],
      "name": "GracePeriodExtended",
      "type": "event"
    },
    {
      "anonymous": false,
      "inputs": [
        {
          "indexed": false,
          "internalType": "uint8",
          "name": "version",
          "type": "uint8"
        }
      ],
      "name": "Initialized",
      "type": "event"
    },
    {
      "anonymous": false,
      "inputs": [
        {
          "indexed": true,
          "internalType": "address",
          "name": "user",
          "type": "address"
        },
        {
          "indexed": true,
          "internalType": "address",
          "name": "liquidator",
          "type": "address"
        },
        {
          "indexed": false,
          "internalType": "uint256",
          "name": "amount",
          "type": "uint256"
        }
      ],
      "name": "LiquidationExecuted",
      "type": "event"
    },
    {
      "anonymous": false,
      "inputs": [
        {
          "indexed": true,
          "internalType": "address",
          "name": "user",
          "type": "address"
        }
      ],
      "name": "LiquidationStarted",
      "type": "event"
    },
    {
      "anonymous": false,
      "inputs": [
        {
          "indexed": true,
          "internalType": "address",
          "name": "applicant",
          "type": "address"
        },
        {
          "indexed": false,
          "internalType": "uint256",
          "name": "amount",
          "type": "uint256"
        },
        {
          "indexed": false,
          "internalType": "uint256",
          "name": "collateral",
          "type": "uint256"
        }
      ],
      "name": "LoanApplied",
      "type": "event"
    },
    {
      "anonymous": false,
      "inputs": [
        {
          "indexed": true,
          "internalType": "address",
          "name": "applicant",
          "type": "address"
        },
        {
          "indexed": false,
          "internalType": "uint256",
          "name": "amount",
          "type": "uint256"
        }
      ],
      "name": "LoanApproved",
      "type": "event"
    },
    {
      "anonymous": false,
      "inputs": [
        {
          "indexed": true,
          "internalType": "address",
          "name": "borrower",
          "type": "address"
        },
        {
          "indexed": false,
          "internalType": "uint256",
          "name": "amount",
          "type": "uint256"
        },
        {
          "indexed": false,
          "internalType": "uint256",
          "name": "rate",
          "type": "uint256"
        }
      ],
      "name": "LoanDisbursed",
      "type": "event"
    },
    {
      "anonymous": false,
      "inputs": [
        {
          "indexed": true,
          "internalType": "address",
          "name": "borrower",
          "type": "address"
        }
      ],
      "name": "LoanFullyRepaid",
      "type": "event"
    },
    {
      "anonymous": false,
      "inputs": [
        {
          "indexed": true,
          "internalType": "address",
          "name": "borrower",
          "type": "address"
        },
        {
          "indexed": false,
          "internalType": "uint256",
          "name": "amount",
          "type": "uint256"
        },
        {
          "indexed": false,
          "internalType": "uint256",
          "name": "remaining",
          "type": "uint256"
        }
      ],
      "name": "LoanInstallmentPaid",
      "type": "event"
    },
    {
      "anonymous": false,
      "inputs": [
        {
          "indexed": true,
          "internalType": "address",
          "name": "borrower",
          "type": "address"
        },
        {
          "indexed": false,
          "internalType": "uint256",
          "name": "penalty",
          "type": "uint256"
        }
      ],
      "name": "LoanLatePenaltyApplied",
      "type": "event"
    },
    {
      "anonymous": false,
      "inputs": [
        {
          "indexed": true,
          "internalType": "address",
          "name": "applicant",
          "type": "address"
        },
        {
          "indexed": false,
          "internalType": "uint256",
          "name": "amount",
          "type": "uint256"
        }
      ],
      "name": "LoanRejected",
      "type": "event"
    },
    {
      "anonymous": false,
      "inputs": [
        {
          "indexed": true,
          "internalType": "address",
          "name": "user",
          "type": "address"
        },
        {
          "indexed": true,
          "internalType": "address",
          "name": "liquidator",
          "type": "address"
        },
        {
          "indexed": true,
          "internalType": "address",
          "name": "collateralToken",
          "type": "address"
        },
        {
          "indexed": false,
          "internalType": "uint256",
          "name": "collateralSeized",
          "type": "uint256"
        },
        {
          "indexed": false,
          "internalType": "uint256",
          "name": "debtRepaid",
          "type": "uint256"
        }
      ],
      "name": "PartialLiquidation",
      "type": "event"
    },
    {
      "anonymous": false,
      "inputs": [
        {
          "indexed": false,
          "internalType": "bool",
          "name": "useRISC0",
          "type": "bool"
        }
      ],
      "name": "RISC0ScoreToggled",
      "type": "event"
    },
    {
      "anonymous": false,
      "inputs": [
        {
          "indexed": true,
          "internalType": "address",
          "name": "user",
          "type": "address"
        },
        {
          "indexed": false,
          "internalType": "uint256",
          "name": "amount",
          "type": "uint256"
        }
      ],
      "name": "Repaid",
      "type": "event"
    },
    {
      "anonymous": false,
      "inputs": [
        {
          "indexed": true,
          "internalType": "address",
          "name": "newReserve",
          "type": "address"
        }
      ],
      "name": "ReserveAddressUpdated",
      "type": "event"
    },
    {
      "anonymous": false,
      "inputs": [
        {
          "indexed": true,
          "internalType": "bytes32",
          "name": "role",
          "type": "bytes32"
        },
        {
          "indexed": true,
          "internalType": "bytes32",
          "name": "previousAdminRole",
          "type": "bytes32"
        },
        {
          "indexed": true,
          "internalType": "bytes32",
          "name": "newAdminRole",
          "type": "bytes32"
        }
      ],
      "name": "RoleAdminChanged",
      "type": "event"
    },
    {
      "anonymous": false,
      "inputs": [
        {
          "indexed": true,
          "internalType": "bytes32",
          "name": "role",
          "type": "bytes32"
        },
        {
          "indexed": true,
          "internalType": "address",
          "name": "account",
          "type": "address"
        },
        {
          "indexed": true,
          "internalType": "address",
          "name": "sender",
          "type": "address"
        }
      ],
      "name": "RoleGranted",
      "type": "event"
    },
    {
      "anonymous": false,
      "inputs": [
        {
          "indexed": true,
          "internalType": "bytes32",
          "name": "role",
          "type": "bytes32"
        },
        {
          "indexed": true,
          "internalType": "address",
          "name": "account",
          "type": "address"
        },
        {
          "indexed": true,
          "internalType": "address",
          "name": "sender",
          "type": "address"
        }
      ],
      "name": "RoleRevoked",
      "type": "event"
    },
    {
      "anonymous": false,
      "inputs": [
        {
          "indexed": true,
          "internalType": "address",
          "name": "token",
          "type": "address"
        },
        {
          "indexed": false,
          "internalType": "uint256",
          "name": "updatedAt",
          "type": "uint256"
        },
        {
          "indexed": false,
          "internalType": "uint256",
          "name": "currentTime",
          "type": "uint256"
        }
      ],
      "name": "StaleOracleTriggered",
      "type": "event"
    },
    {
      "anonymous": false,
      "inputs": [
        {
          "indexed": true,
          "internalType": "uint256",
          "name": "tier",
          "type": "uint256"
        },
        {
          "indexed": false,
          "internalType": "uint256",
          "name": "originationFee",
          "type": "uint256"
        },
        {
          "indexed": false,
          "internalType": "uint256",
          "name": "lateFeeAPR",
          "type": "uint256"
        }
      ],
      "name": "TierFeeUpdated",
      "type": "event"
    },
    {
      "anonymous": false,
      "inputs": [
        {
          "indexed": true,
          "internalType": "address",
          "name": "user",
          "type": "address"
        },
        {
          "indexed": false,
          "internalType": "string",
          "name": "message",
          "type": "string"
        }
      ],
      "name": "UserError",
      "type": "event"
    },
    {
      "anonymous": false,
      "inputs": [
        {
          "indexed": true,
          "internalType": "address",
          "name": "user",
          "type": "address"
        },
        {
          "indexed": false,
          "internalType": "string",
          "name": "action",
          "type": "string"
        },
        {
          "indexed": false,
          "internalType": "uint256",
          "name": "timestamp",
          "type": "uint256"
        }
      ],
      "name": "UserHistoryUpdated",
      "type": "event"
    },
    {
      "inputs": [],
      "name": "ALLOW_COLLATERAL_PERMISSION",
      "outputs": [
        {
          "internalType": "bytes32",
          "name": "",
          "type": "bytes32"
        }
      ],
      "stateMutability": "view",
      "type": "function"
    },
    {
      "inputs": [],
      "name": "DEFAULT_ADMIN_ROLE",
      "outputs": [
        {
          "internalType": "bytes32",
          "name": "",
          "type": "bytes32"
        }
      ],
      "stateMutability": "view",
      "type": "function"
    },
    {
      "inputs": [],
      "name": "DEFAULT_LIQUIDATION_THRESHOLD",
      "outputs": [
        {
          "internalType": "uint256",
          "name": "",
          "type": "uint256"
        }
      ],
      "stateMutability": "view",
      "type": "function"
    },
    {
      "inputs": [],
      "name": "DEFAULT_STALENESS_STABLE",
      "outputs": [
        {
          "internalType": "uint256",
          "name": "",
          "type": "uint256"
        }
      ],
      "stateMutability": "view",
      "type": "function"
    },
    {
      "inputs": [],
      "name": "DEFAULT_STALENESS_VOLATILE",
      "outputs": [
        {
          "internalType": "uint256",
          "name": "",
          "type": "uint256"
        }
      ],
      "stateMutability": "view",
      "type": "function"
    },
    {
      "inputs": [],
      "name": "GRACE_PERIOD",
      "outputs": [
        {
          "internalType": "uint256",
          "name": "",
          "type": "uint256"
        }
      ],
      "stateMutability": "view",
      "type": "function"
    },
    {
      "inputs": [],
      "name": "LIQUIDATION_PENALTY",
      "outputs": [
        {
          "internalType": "uint256",
          "name": "",
          "type": "uint256"
        }
      ],
      "stateMutability": "view",
      "type": "function"
    },
    {
      "inputs": [],
      "name": "SAFETY_BUFFER",
      "outputs": [
        {
          "internalType": "uint256",
          "name": "",
          "type": "uint256"
        }
      ],
      "stateMutability": "view",
      "type": "function"
    },
    {
      "inputs": [],
      "name": "SCORE_EXPIRY_PERIOD",
      "outputs": [
        {
          "internalType": "uint256",
          "name": "",
          "type": "uint256"
        }
      ],
      "stateMutability": "view",
      "type": "function"
    },
    {
      "inputs": [],
      "name": "SET_ADMIN_PERMISSION",
      "outputs": [
        {
          "internalType": "bytes32",
          "name": "",
          "type": "bytes32"
        }
      ],
      "stateMutability": "view",
      "type": "function"
    },
    {
      "inputs": [],
      "name": "SET_CREDIT_SCORE_PERMISSION",
      "outputs": [
        {
          "internalType": "bytes32",
          "name": "",
          "type": "bytes32"
        }
      ],
      "stateMutability": "view",
      "type": "function"
    },
    {
      "inputs": [],
      "name": "SET_LENDING_MANAGER_PERMISSION",
      "outputs": [
        {
          "internalType": "bytes32",
          "name": "",
          "type": "bytes32"
        }
      ],
      "stateMutability": "view",
      "type": "function"
    },
    {
      "inputs": [],
      "name": "SET_MAX_PRICE_AGE_PERMISSION",
      "outputs": [
        {
          "internalType": "bytes32",
          "name": "",
          "type": "bytes32"
        }
      ],
      "stateMutability": "view",
      "type": "function"
    },
    {
      "inputs": [],
      "name": "SET_MIN_PARTIAL_LIQUIDATION_AMOUNT_PERMISSION",
      "outputs": [
        {
          "internalType": "bytes32",
          "name": "",
          "type": "bytes32"
        }
      ],
      "stateMutability": "view",
      "type": "function"
    },
    {
      "inputs": [],
      "name": "SET_PRICE_FEED_PERMISSION",
      "outputs": [
        {
          "internalType": "bytes32",
          "name": "",
          "type": "bytes32"
        }
      ],
      "stateMutability": "view",
      "type": "function"
    },
    {
      "inputs": [],
      "name": "SET_RESERVE_ADDRESS_PERMISSION",
      "outputs": [
        {
          "internalType": "bytes32",
          "name": "",
          "type": "bytes32"
        }
      ],
      "stateMutability": "view",
      "type": "function"
    },
    {
      "inputs": [],
      "name": "SET_TIER_FEE_PERMISSION",
      "outputs": [
        {
          "internalType": "bytes32",
          "name": "",
          "type": "bytes32"
        }
      ],
      "stateMutability": "view",
      "type": "function"
    },
    {
      "inputs": [],
      "name": "TOGGLE_PAUSE_PERMISSION",
      "outputs": [
        {
          "internalType": "bytes32",
          "name": "",
          "type": "bytes32"
        }
      ],
      "stateMutability": "view",
      "type": "function"
    },
    {
      "inputs": [],
      "name": "UPDATE_BORROW_TIER_PERMISSION",
      "outputs": [
        {
          "internalType": "bytes32",
          "name": "",
          "type": "bytes32"
        }
      ],
      "stateMutability": "view",
      "type": "function"
    },
    {
      "inputs": [],
      "name": "UPKEEP_COOLDOWN",
      "outputs": [
        {
          "internalType": "uint256",
          "name": "",
          "type": "uint256"
        }
      ],
      "stateMutability": "view",
      "type": "function"
    },
    {
      "inputs": [
        {
          "internalType": "address",
          "name": "token",
          "type": "address"
        }
      ],
      "name": "allowedCollateralTokens",
      "outputs": [
        {
          "internalType": "bool",
          "name": "",
          "type": "bool"
        }
      ],
      "stateMutability": "view",
      "type": "function"
    },
    {
      "inputs": [
        {
          "internalType": "uint256",
          "name": "amount",
          "type": "uint256"
        }
      ],
      "name": "borrow",
      "outputs": [],
      "stateMutability": "payable",
      "type": "function"
    },
    {
      "inputs": [
        {
          "internalType": "uint256",
          "name": "",
          "type": "uint256"
        }
      ],
      "name": "borrowTierConfigs",
      "outputs": [
        {
          "internalType": "uint256",
          "name": "minScore",
          "type": "uint256"
        },
        {
          "internalType": "uint256",
          "name": "maxScore",
          "type": "uint256"
        },
        {
          "internalType": "uint256",
          "name": "collateralRatio",
          "type": "uint256"
        },
        {
          "internalType": "int256",
          "name": "interestRateModifier",
          "type": "int256"
        },
        {
          "internalType": "uint256",
          "name": "maxLoanAmount",
          "type": "uint256"
        }
      ],
      "stateMutability": "view",
      "type": "function"
    },
    {
      "inputs": [
        {
          "internalType": "address",
          "name": "",
          "type": "address"
        }
      ],
      "name": "borrowTimestamp",
      "outputs": [
        {
          "internalType": "uint256",
          "name": "",
          "type": "uint256"
        }
      ],
      "stateMutability": "view",
      "type": "function"
    },
    {
      "inputs": [
        {
          "internalType": "enum LiquidityPool.RiskTier",
          "name": "",
          "type": "uint8"
        }
      ],
      "name": "borrowedAmountByRiskTier",
      "outputs": [
        {
          "internalType": "uint256",
          "name": "",
          "type": "uint256"
        }
      ],
      "stateMutability": "view",
      "type": "function"
    },
    {
      "inputs": [
        {
          "internalType": "address",
          "name": "user",
          "type": "address"
        }
      ],
      "name": "calculateBorrowCapacity",
      "outputs": [
        {
          "internalType": "uint256",
          "name": "",
          "type": "uint256"
        }
      ],
      "stateMutability": "view",
      "type": "function"
    },
    {
      "inputs": [
        {
          "internalType": "address",
          "name": "user",
          "type": "address"
        }
      ],
      "name": "calculateCollateralValue",
      "outputs": [
        {
          "internalType": "uint256",
          "name": "",
          "type": "uint256"
        }
      ],
      "stateMutability": "view",
      "type": "function"
    },
    {
      "inputs": [
        {
          "internalType": "address",
          "name": "user",
          "type": "address"
        }
      ],
      "name": "calculateHealthFactor",
      "outputs": [
        {
          "internalType": "uint256",
          "name": "",
          "type": "uint256"
        }
      ],
      "stateMutability": "view",
      "type": "function"
    },
    {
      "inputs": [
        {
          "internalType": "address",
          "name": "user",
          "type": "address"
        }
      ],
      "name": "calculateLiquidation",
      "outputs": [
        {
          "internalType": "uint256",
          "name": "",
          "type": "uint256"
        },
        {
          "internalType": "uint256",
          "name": "",
          "type": "uint256"
        }
      ],
      "stateMutability": "view",
      "type": "function"
    },
    {
      "inputs": [
        {
          "internalType": "address",
          "name": "user",
          "type": "address"
        }
      ],
      "name": "calculateUserDebt",
      "outputs": [
        {
          "internalType": "uint256",
          "name": "",
          "type": "uint256"
        }
      ],
      "stateMutability": "view",
      "type": "function"
    },
    {
      "inputs": [
        {
          "internalType": "address",
          "name": "user",
          "type": "address"
        }
      ],
      "name": "canLend",
      "outputs": [
        {
          "internalType": "bool",
          "name": "",
          "type": "bool"
        }
      ],
      "stateMutability": "view",
      "type": "function"
    },
    {
      "inputs": [],
      "name": "checkCircuitBreakers",
      "outputs": [],
      "stateMutability": "nonpayable",
      "type": "function"
    },
    {
      "inputs": [
        {
          "internalType": "address",
          "name": "user",
          "type": "address"
        }
      ],
      "name": "checkCollateralization",
      "outputs": [
        {
          "internalType": "bool",
          "name": "isHealthy",
          "type": "bool"
        },
        {
          "internalType": "uint256",
          "name": "ratio",
          "type": "uint256"
        }
      ],
      "stateMutability": "view",
      "type": "function"
    },
    {
      "inputs": [
        {
          "internalType": "bytes",
          "name": "",
          "type": "bytes"
        }
      ],
      "name": "checkUpkeep",
      "outputs": [
        {
          "internalType": "bool",
          "name": "upkeepNeeded",
          "type": "bool"
        },
        {
          "internalType": "bytes",
          "name": "performData",
          "type": "bytes"
        }
      ],
      "stateMutability": "view",
      "type": "function"
    },
    {
      "inputs": [
        {
          "internalType": "address",
          "name": "token",
          "type": "address"
        },
        {
          "internalType": "address",
          "name": "user",
          "type": "address"
        },
        {
          "internalType": "address",
          "name": "to",
          "type": "address"
        },
        {
          "internalType": "uint256",
          "name": "amount",
          "type": "uint256"
        }
      ],
      "name": "clearCollateral",
      "outputs": [],
      "stateMutability": "nonpayable",
      "type": "function"
    },
    {
      "inputs": [
        {
          "internalType": "address",
          "name": "user",
          "type": "address"
        },
        {
          "internalType": "uint256",
          "name": "amount",
          "type": "uint256"
        }
      ],
      "name": "clearDebt",
      "outputs": [],
      "stateMutability": "nonpayable",
      "type": "function"
    },
    {
      "inputs": [
        {
          "internalType": "address",
          "name": "",
          "type": "address"
        },
        {
          "internalType": "address",
          "name": "",
          "type": "address"
        }
      ],
      "name": "collateralBalance",
      "outputs": [
        {
          "internalType": "uint256",
          "name": "",
          "type": "uint256"
        }
      ],
      "stateMutability": "view",
      "type": "function"
    },
    {
      "inputs": [
        {
          "internalType": "uint256",
          "name": "",
          "type": "uint256"
        }
      ],
      "name": "collateralTokenList",
      "outputs": [
        {
          "internalType": "address",
          "name": "",
          "type": "address"
        }
      ],
      "stateMutability": "view",
      "type": "function"
    },
    {
      "inputs": [
        {
          "internalType": "uint64",
          "name": "ficoScore",
          "type": "uint64"
        }
      ],
      "name": "convertFICOToContractScore",
      "outputs": [
        {
          "internalType": "uint256",
          "name": "",
          "type": "uint256"
        }
      ],
      "stateMutability": "pure",
      "type": "function"
    },
    {
      "inputs": [
        {
          "internalType": "address",
          "name": "",
          "type": "address"
        }
      ],
      "name": "creditScore",
      "outputs": [
        {
          "internalType": "uint256",
          "name": "",
          "type": "uint256"
        }
      ],
      "stateMutability": "view",
      "type": "function"
    },
    {
      "inputs": [],
      "name": "creditScoreContract",
      "outputs": [
        {
          "internalType": "contract ICreditScore",
          "name": "",
          "type": "address"
        }
      ],
      "stateMutability": "view",
      "type": "function"
    },
    {
      "inputs": [
        {
          "internalType": "address",
          "name": "token",
          "type": "address"
        },
        {
          "internalType": "uint256",
          "name": "amount",
          "type": "uint256"
        }
      ],
      "name": "depositCollateral",
      "outputs": [],
      "stateMutability": "nonpayable",
      "type": "function"
    },
    {
      "inputs": [
        {
          "internalType": "uint256",
          "name": "amount",
          "type": "uint256"
        },
        {
          "internalType": "address payable",
          "name": "to",
          "type": "address"
        }
      ],
      "name": "extract",
      "outputs": [],
      "stateMutability": "nonpayable",
      "type": "function"
    },
    {
      "inputs": [],
      "name": "getAdmin",
      "outputs": [
        {
          "internalType": "address",
          "name": "",
          "type": "address"
        }
      ],
      "stateMutability": "view",
      "type": "function"
    },
    {
      "inputs": [],
      "name": "getAllCollateralTokens",
      "outputs": [
        {
          "internalType": "address[]",
          "name": "",
          "type": "address[]"
        }
      ],
      "stateMutability": "view",
      "type": "function"
    },
    {
      "inputs": [],
      "name": "getAllUsers",
      "outputs": [
        {
          "internalType": "address[]",
          "name": "",
          "type": "address[]"
        }
      ],
      "stateMutability": "view",
      "type": "function"
    },
    {
      "inputs": [],
      "name": "getAllowedCollateralTokens",
      "outputs": [
        {
          "internalType": "address[]",
          "name": "",
          "type": "address[]"
        }
      ],
      "stateMutability": "view",
      "type": "function"
    },
    {
      "inputs": [],
      "name": "getAvailableLiquidity",
      "outputs": [
        {
          "internalType": "uint256",
          "name": "",
          "type": "uint256"
        }
      ],
      "stateMutability": "view",
      "type": "function"
    },
    {
      "inputs": [],
      "name": "getBalance",
      "outputs": [
        {
          "internalType": "uint256",
          "name": "",
          "type": "uint256"
        }
      ],
      "stateMutability": "view",
      "type": "function"
    },
    {
      "inputs": [],
      "name": "getBorrowRate",
      "outputs": [
        {
          "internalType": "uint256",
          "name": "",
          "type": "uint256"
        }
      ],
      "stateMutability": "pure",
      "type": "function"
    },
    {
      "inputs": [
        {
          "internalType": "address",
          "name": "user",
          "type": "address"
        }
      ],
      "name": "getBorrowTerms",
      "outputs": [
        {
          "internalType": "uint256",
          "name": "collateralRatio",
          "type": "uint256"
        },
        {
          "internalType": "int256",
          "name": "interestRateModifier",
          "type": "int256"
        },
        {
          "internalType": "uint256",
          "name": "maxLoanAmount",
          "type": "uint256"
        }
      ],
      "stateMutability": "view",
      "type": "function"
    },
    {
      "inputs": [
        {
          "internalType": "address",
          "name": "user",
          "type": "address"
        }
      ],
      "name": "getBorrowerRate",
      "outputs": [
        {
          "internalType": "uint256",
          "name": "",
          "type": "uint256"
        }
      ],
      "stateMutability": "view",
      "type": "function"
    },
    {
      "inputs": [
        {
          "internalType": "address",
          "name": "user",
          "type": "address"
        },
        {
          "internalType": "address",
          "name": "token",
          "type": "address"
        }
      ],
      "name": "getCollateral",
      "outputs": [
        {
          "internalType": "uint256",
          "name": "",
          "type": "uint256"
        }
      ],
      "stateMutability": "view",
      "type": "function"
    },
    {
      "inputs": [
        {
          "internalType": "address",
          "name": "user",
          "type": "address"
        }
      ],
      "name": "getCollateralReductionInfo",
      "outputs": [
        {
          "internalType": "enum LiquidityPool.RiskTier",
          "name": "currentTier",
          "type": "uint8"
        },
        {
          "internalType": "uint256",
          "name": "currentCollateralRatio",
          "type": "uint256"
        },
        {
          "internalType": "uint256",
          "name": "adjustedCollateralRatio",
          "type": "uint256"
        },
        {
          "internalType": "uint256",
          "name": "potentialReductionPercent",
          "type": "uint256"
        }
      ],
      "stateMutability": "view",
      "type": "function"
    },
    {
      "inputs": [
        {
          "internalType": "address",
          "name": "user",
          "type": "address"
        }
      ],
      "name": "getCreditScore",
      "outputs": [
        {
          "internalType": "uint256",
          "name": "",
          "type": "uint256"
        }
      ],
      "stateMutability": "view",
      "type": "function"
    },
    {
      "inputs": [],
      "name": "getExchangeRate",
      "outputs": [
        {
          "internalType": "uint256",
          "name": "",
          "type": "uint256"
        }
      ],
      "stateMutability": "pure",
      "type": "function"
    },
    {
      "inputs": [],
      "name": "getGlobalRiskMultiplier",
      "outputs": [
        {
          "internalType": "uint256",
          "name": "",
          "type": "uint256"
        }
      ],
      "stateMutability": "pure",
      "type": "function"
    },
    {
      "inputs": [
        {
          "internalType": "address",
          "name": "token",
          "type": "address"
        }
      ],
      "name": "getLTV",
      "outputs": [
        {
          "internalType": "uint256",
          "name": "",
          "type": "uint256"
        }
      ],
      "stateMutability": "view",
      "type": "function"
    },
    {
      "inputs": [
        {
          "internalType": "address",
          "name": "user",
          "type": "address"
        }
      ],
      "name": "getLoan",
      "outputs": [
        {
          "components": [
            {
              "internalType": "uint256",
              "name": "principal",
              "type": "uint256"
            },
            {
              "internalType": "uint256",
              "name": "outstanding",
              "type": "uint256"
            },
            {
              "internalType": "uint256",
              "name": "interestRate",
              "type": "uint256"
            },
            {
              "internalType": "uint256",
              "name": "nextDueDate",
              "type": "uint256"
            },
            {
              "internalType": "uint256",
              "name": "installmentAmount",
              "type": "uint256"
            },
            {
              "internalType": "uint256",
              "name": "penaltyBps",
              "type": "uint256"
            },
            {
              "internalType": "bool",
              "name": "active",
              "type": "bool"
            }
          ],
          "internalType": "struct LiquidityPool.Loan",
          "name": "",
          "type": "tuple"
        }
      ],
      "stateMutability": "view",
      "type": "function"
    },
    {
      "inputs": [
        {
          "internalType": "address",
          "name": "user",
          "type": "address"
        }
      ],
      "name": "getLoanDetails",
      "outputs": [
        {
          "internalType": "uint256",
          "name": "principal",
          "type": "uint256"
        },
        {
          "internalType": "uint256",
          "name": "outstanding",
          "type": "uint256"
        },
        {
          "internalType": "uint256",
          "name": "interestRate",
          "type": "uint256"
        },
        {
          "internalType": "uint256",
          "name": "nextDueDate",
          "type": "uint256"
        },
        {
          "internalType": "uint256",
          "name": "installmentAmount",
          "type": "uint256"
        },
        {
          "internalType": "uint256",
          "name": "penaltyBps",
          "type": "uint256"
        },
        {
          "internalType": "bool",
          "name": "active",
          "type": "bool"
        },
        {
          "internalType": "uint256",
          "name": "daysUntilDue",
          "type": "uint256"
        },
        {
          "internalType": "uint256",
          "name": "latePenaltyIfPaidNow",
          "type": "uint256"
        },
        {
          "internalType": "uint256",
          "name": "totalInstallmentsRemaining",
          "type": "uint256"
        }
      ],
      "stateMutability": "view",
      "type": "function"
    },
    {
      "inputs": [
        {
          "internalType": "address",
          "name": "user",
          "type": "address"
        },
        {
          "internalType": "address",
          "name": "token",
          "type": "address"
        }
      ],
      "name": "getMaxWithdrawableCollateral",
      "outputs": [
        {
          "internalType": "uint256",
          "name": "maxWithdrawable",
          "type": "uint256"
        }
      ],
      "stateMutability": "view",
      "type": "function"
    },
    {
      "inputs": [],
      "name": "getMinCollateralRatio",
      "outputs": [
        {
          "internalType": "uint256",
          "name": "",
          "type": "uint256"
        }
      ],
      "stateMutability": "pure",
      "type": "function"
    },
    {
      "inputs": [],
      "name": "getMyDebt",
      "outputs": [
        {
          "internalType": "uint256",
          "name": "",
          "type": "uint256"
        }
      ],
      "stateMutability": "view",
      "type": "function"
    },
    {
      "inputs": [
        {
          "internalType": "address",
          "name": "token",
          "type": "address"
        }
      ],
      "name": "getPriceFeed",
      "outputs": [
        {
          "internalType": "address",
          "name": "",
          "type": "address"
        }
      ],
      "stateMutability": "view",
      "type": "function"
    },
    {
      "inputs": [],
      "name": "getProtocolReserves",
      "outputs": [
        {
          "internalType": "uint256",
          "name": "",
          "type": "uint256"
        }
      ],
      "stateMutability": "view",
      "type": "function"
    },
    {
      "inputs": [],
      "name": "getReserveFactor",
      "outputs": [
        {
          "internalType": "uint256",
          "name": "",
          "type": "uint256"
        }
      ],
      "stateMutability": "pure",
      "type": "function"
    },
    {
      "inputs": [
        {
          "internalType": "address",
          "name": "user",
          "type": "address"
        }
      ],
      "name": "getRiskTier",
      "outputs": [
        {
          "internalType": "enum LiquidityPool.RiskTier",
          "name": "",
          "type": "uint8"
        }
      ],
      "stateMutability": "view",
      "type": "function"
    },
    {
      "inputs": [
        {
          "internalType": "bytes32",
          "name": "role",
          "type": "bytes32"
        }
      ],
      "name": "getRoleAdmin",
      "outputs": [
        {
          "internalType": "bytes32",
          "name": "",
          "type": "bytes32"
        }
      ],
      "stateMutability": "view",
      "type": "function"
    },
    {
      "inputs": [],
      "name": "getSupplyRate",
      "outputs": [
        {
          "internalType": "uint256",
          "name": "",
          "type": "uint256"
        }
      ],
      "stateMutability": "pure",
      "type": "function"
    },
    {
      "inputs": [
        {
          "internalType": "address",
          "name": "token",
          "type": "address"
        }
      ],
      "name": "getTokenValue",
      "outputs": [
        {
          "internalType": "uint256",
          "name": "",
          "type": "uint256"
        }
      ],
      "stateMutability": "view",
      "type": "function"
    },
    {
      "inputs": [],
      "name": "getTotalBorrows",
      "outputs": [
        {
          "internalType": "uint256",
          "name": "",
          "type": "uint256"
        }
      ],
      "stateMutability": "view",
      "type": "function"
    },
    {
      "inputs": [
        {
          "internalType": "address",
          "name": "user",
          "type": "address"
        }
      ],
      "name": "getTotalCollateralValue",
      "outputs": [
        {
          "internalType": "uint256",
          "name": "",
          "type": "uint256"
        }
      ],
      "stateMutability": "view",
      "type": "function"
    },
    {
      "inputs": [],
      "name": "getTotalSupply",
      "outputs": [
        {
          "internalType": "uint256",
          "name": "",
          "type": "uint256"
        }
      ],
      "stateMutability": "view",
      "type": "function"
    },
    {
      "inputs": [
        {
          "internalType": "address",
          "name": "user",
          "type": "address"
        }
      ],
      "name": "getUserHistory",
      "outputs": [
        {
          "components": [
            {
              "internalType": "uint256",
              "name": "firstInteractionTimestamp",
              "type": "uint256"
            },
            {
              "internalType": "uint256",
              "name": "liquidations",
              "type": "uint256"
            },
            {
              "internalType": "uint256",
              "name": "succesfullPayments",
              "type": "uint256"
            }
          ],
          "internalType": "struct UserHistory",
          "name": "",
          "type": "tuple"
        }
      ],
      "stateMutability": "view",
      "type": "function"
    },
    {
      "inputs": [],
      "name": "getUtilizationRate",
      "outputs": [
        {
          "internalType": "uint256",
          "name": "",
          "type": "uint256"
        }
      ],
      "stateMutability": "view",
      "type": "function"
    },
    {
      "inputs": [
        {
          "internalType": "bytes32",
          "name": "role",
          "type": "bytes32"
        },
        {
          "internalType": "address",
          "name": "account",
          "type": "address"
        }
      ],
      "name": "grantRole",
      "outputs": [],
      "stateMutability": "nonpayable",
      "type": "function"
    },
    {
      "inputs": [
        {
          "internalType": "bytes32",
          "name": "role",
          "type": "bytes32"
        },
        {
          "internalType": "address",
          "name": "account",
          "type": "address"
        }
      ],
      "name": "hasRole",
      "outputs": [
        {
          "internalType": "bool",
          "name": "",
          "type": "bool"
        }
      ],
      "stateMutability": "view",
      "type": "function"
    },
    {
      "inputs": [
        {
          "internalType": "address",
          "name": "user",
          "type": "address"
        }
      ],
      "name": "hasValidRISC0Score",
      "outputs": [
        {
          "internalType": "bool",
          "name": "hasValidScore",
          "type": "bool"
        },
        {
          "internalType": "uint256",
          "name": "score",
          "type": "uint256"
        },
        {
          "internalType": "uint256",
          "name": "timestamp",
          "type": "uint256"
        }
      ],
      "stateMutability": "view",
      "type": "function"
    },
    {
      "inputs": [
        {
          "internalType": "address",
          "name": "_timelock",
          "type": "address"
        },
        {
          "internalType": "address",
          "name": "_stablecoinManager",
          "type": "address"
        },
        {
          "internalType": "address",
          "name": "_lendingManager",
          "type": "address"
        },
        {
          "internalType": "address",
          "name": "_interestRateModel",
          "type": "address"
        }
      ],
      "name": "initialize",
      "outputs": [],
      "stateMutability": "nonpayable",
      "type": "function"
    },
    {
      "inputs": [],
      "name": "interestRateModel",
      "outputs": [
        {
          "internalType": "contract InterestRateModel",
          "name": "",
          "type": "address"
        }
      ],
      "stateMutability": "view",
      "type": "function"
    },
    {
      "inputs": [
        {
          "internalType": "address",
          "name": "",
          "type": "address"
        }
      ],
      "name": "isAllowedCollateral",
      "outputs": [
        {
          "internalType": "bool",
          "name": "",
          "type": "bool"
        }
      ],
      "stateMutability": "view",
      "type": "function"
    },
    {
      "inputs": [
        {
          "internalType": "address",
          "name": "",
          "type": "address"
        }
      ],
      "name": "isKnownUser",
      "outputs": [
        {
          "internalType": "bool",
          "name": "",
          "type": "bool"
        }
      ],
      "stateMutability": "view",
      "type": "function"
    },
    {
      "inputs": [
        {
          "internalType": "address",
          "name": "",
          "type": "address"
        }
      ],
      "name": "isLiquidatable",
      "outputs": [
        {
          "internalType": "bool",
          "name": "",
          "type": "bool"
        }
      ],
      "stateMutability": "view",
      "type": "function"
    },
    {
      "inputs": [],
      "name": "isPaused",
      "outputs": [
        {
          "internalType": "bool",
          "name": "",
          "type": "bool"
        }
      ],
      "stateMutability": "view",
      "type": "function"
    },
    {
      "inputs": [],
      "name": "lastUpkeep",
      "outputs": [
        {
          "internalType": "uint256",
          "name": "",
          "type": "uint256"
        }
      ],
      "stateMutability": "view",
      "type": "function"
    },
    {
      "inputs": [],
      "name": "lendingManager",
      "outputs": [
        {
          "internalType": "contract LendingManager",
          "name": "",
          "type": "address"
        }
      ],
      "stateMutability": "view",
      "type": "function"
    },
    {
      "inputs": [
        {
          "internalType": "address",
          "name": "user",
          "type": "address"
        }
      ],
      "name": "liquidationInfo",
      "outputs": [
        {
          "internalType": "bool",
          "name": "",
          "type": "bool"
        },
        {
          "internalType": "uint256",
          "name": "",
          "type": "uint256"
        },
        {
          "internalType": "uint256",
          "name": "",
          "type": "uint256"
        }
      ],
      "stateMutability": "view",
      "type": "function"
    },
    {
      "inputs": [
        {
          "internalType": "address",
          "name": "",
          "type": "address"
        }
      ],
      "name": "liquidationStartTime",
      "outputs": [
        {
          "internalType": "uint256",
          "name": "",
          "type": "uint256"
        }
      ],
      "stateMutability": "view",
      "type": "function"
    },
    {
      "inputs": [],
      "name": "liquidator",
      "outputs": [
        {
          "internalType": "address",
          "name": "",
          "type": "address"
        }
      ],
      "stateMutability": "view",
      "type": "function"
    },
    {
      "inputs": [
        {
          "internalType": "address",
          "name": "",
          "type": "address"
        }
      ],
      "name": "loans",
      "outputs": [
        {
          "internalType": "uint256",
          "name": "principal",
          "type": "uint256"
        },
        {
          "internalType": "uint256",
          "name": "outstanding",
          "type": "uint256"
        },
        {
          "internalType": "uint256",
          "name": "interestRate",
          "type": "uint256"
        },
        {
          "internalType": "uint256",
          "name": "nextDueDate",
          "type": "uint256"
        },
        {
          "internalType": "uint256",
          "name": "installmentAmount",
          "type": "uint256"
        },
        {
          "internalType": "uint256",
          "name": "penaltyBps",
          "type": "uint256"
        },
        {
          "internalType": "bool",
          "name": "active",
          "type": "bool"
        }
      ],
      "stateMutability": "view",
      "type": "function"
    },
    {
      "inputs": [],
      "name": "locked",
      "outputs": [
        {
          "internalType": "bool",
          "name": "",
          "type": "bool"
        }
      ],
      "stateMutability": "view",
      "type": "function"
    },
    {
      "inputs": [
        {
          "internalType": "address",
          "name": "",
          "type": "address"
        }
      ],
      "name": "maxPriceAge",
      "outputs": [
        {
          "internalType": "uint256",
          "name": "",
          "type": "uint256"
        }
      ],
      "stateMutability": "view",
      "type": "function"
    },
    {
      "inputs": [],
      "name": "minPartialLiquidationAmount",
      "outputs": [
        {
          "internalType": "uint256",
          "name": "",
          "type": "uint256"
        }
      ],
      "stateMutability": "view",
      "type": "function"
    },
    {
      "inputs": [],
      "name": "paused",
      "outputs": [
        {
          "internalType": "bool",
          "name": "",
          "type": "bool"
        }
      ],
      "stateMutability": "view",
      "type": "function"
    },
    {
      "inputs": [
        {
          "internalType": "bytes",
          "name": "performData",
          "type": "bytes"
        }
      ],
      "name": "performUpkeep",
      "outputs": [],
      "stateMutability": "nonpayable",
      "type": "function"
    },
    {
      "inputs": [
        {
          "internalType": "address",
          "name": "",
          "type": "address"
        }
      ],
      "name": "priceFeed",
      "outputs": [
        {
          "internalType": "address",
          "name": "",
          "type": "address"
        }
      ],
      "stateMutability": "view",
      "type": "function"
    },
    {
      "inputs": [
        {
          "internalType": "address",
          "name": "token",
          "type": "address"
        },
        {
          "internalType": "uint256",
          "name": "amount",
          "type": "uint256"
        }
      ],
      "name": "recoverFromLiquidation",
      "outputs": [],
      "stateMutability": "nonpayable",
      "type": "function"
    },
    {
      "inputs": [
        {
          "internalType": "bytes32",
          "name": "role",
          "type": "bytes32"
        },
        {
          "internalType": "address",
          "name": "account",
          "type": "address"
        }
      ],
      "name": "renounceRole",
      "outputs": [],
      "stateMutability": "nonpayable",
      "type": "function"
    },
    {
      "inputs": [],
      "name": "repay",
      "outputs": [],
      "stateMutability": "payable",
      "type": "function"
    },
    {
      "inputs": [],
      "name": "repayInstallment",
      "outputs": [],
      "stateMutability": "payable",
      "type": "function"
    },
    {
      "inputs": [],
      "name": "reserveAddress",
      "outputs": [
        {
          "internalType": "address",
          "name": "",
          "type": "address"
        }
      ],
      "stateMutability": "view",
      "type": "function"
    },
    {
      "inputs": [
        {
          "internalType": "bytes32",
          "name": "role",
          "type": "bytes32"
        },
        {
          "internalType": "address",
          "name": "account",
          "type": "address"
        }
      ],
      "name": "revokeRole",
      "outputs": [],
      "stateMutability": "nonpayable",
      "type": "function"
    },
    {
      "inputs": [
        {
          "internalType": "address",
          "name": "newAdmin",
          "type": "address"
        }
      ],
      "name": "setAdmin",
      "outputs": [],
      "stateMutability": "nonpayable",
      "type": "function"
    },
    {
      "inputs": [
        {
          "internalType": "address",
          "name": "token",
          "type": "address"
        },
        {
          "internalType": "bool",
          "name": "allowed",
          "type": "bool"
        }
      ],
      "name": "setAllowedCollateral",
      "outputs": [],
      "stateMutability": "nonpayable",
      "type": "function"
    },
    {
      "inputs": [
        {
          "internalType": "address",
          "name": "user",
          "type": "address"
        },
        {
          "internalType": "uint256",
          "name": "score",
          "type": "uint256"
        }
      ],
      "name": "setCreditScore",
      "outputs": [],
      "stateMutability": "nonpayable",
      "type": "function"
    },
    {
      "inputs": [
        {
          "internalType": "address",
          "name": "_creditScoreContract",
          "type": "address"
        }
      ],
      "name": "setCreditScoreContract",
      "outputs": [],
      "stateMutability": "nonpayable",
      "type": "function"
    },
    {
      "inputs": [
        {
          "internalType": "address",
          "name": "_lendingManager",
          "type": "address"
        }
      ],
      "name": "setLendingManager",
      "outputs": [],
      "stateMutability": "nonpayable",
      "type": "function"
    },
    {
      "inputs": [
        {
          "internalType": "address",
          "name": "_liquidator",
          "type": "address"
        }
      ],
      "name": "setLiquidator",
      "outputs": [],
      "stateMutability": "nonpayable",
      "type": "function"
    },
    {
      "inputs": [
        {
          "internalType": "address",
          "name": "token",
          "type": "address"
        },
        {
          "internalType": "uint256",
          "name": "age",
          "type": "uint256"
        }
      ],
      "name": "setMaxPriceAge",
      "outputs": [],
      "stateMutability": "nonpayable",
      "type": "function"
    },
    {
      "inputs": [
        {
          "internalType": "uint256",
          "name": "amount",
          "type": "uint256"
        }
      ],
      "name": "setMinPartialLiquidationAmount",
      "outputs": [],
      "stateMutability": "nonpayable",
      "type": "function"
    },
    {
      "inputs": [
        {
          "internalType": "address",
          "name": "token",
          "type": "address"
        },
        {
          "internalType": "address",
          "name": "feed",
          "type": "address"
        }
      ],
      "name": "setPriceFeed",
      "outputs": [],
      "stateMutability": "nonpayable",
      "type": "function"
    },
    {
      "inputs": [
        {
          "internalType": "address",
          "name": "_reserve",
          "type": "address"
        }
      ],
      "name": "setReserveAddress",
      "outputs": [],
      "stateMutability": "nonpayable",
      "type": "function"
    },
    {
      "inputs": [
        {
          "internalType": "uint256",
          "name": "tier",
          "type": "uint256"
        },
        {
          "internalType": "uint256",
          "name": "originationFee",
          "type": "uint256"
        },
        {
          "internalType": "uint256",
          "name": "lateFeeAPR",
          "type": "uint256"
        }
      ],
      "name": "setTierFee",
      "outputs": [],
      "stateMutability": "nonpayable",
      "type": "function"
    },
    {
      "inputs": [
        {
          "internalType": "address",
          "name": "_votingToken",
          "type": "address"
        }
      ],
      "name": "setVotingToken",
      "outputs": [],
      "stateMutability": "nonpayable",
      "type": "function"
    },
    {
      "inputs": [],
      "name": "stablecoinManager",
      "outputs": [
        {
          "internalType": "contract StablecoinManager",
          "name": "",
          "type": "address"
        }
      ],
      "stateMutability": "view",
      "type": "function"
    },
    {
      "inputs": [
        {
          "internalType": "address",
          "name": "user",
          "type": "address"
        }
      ],
      "name": "startLiquidation",
      "outputs": [],
      "stateMutability": "nonpayable",
      "type": "function"
    },
    {
      "inputs": [
        {
          "internalType": "bytes4",
          "name": "interfaceId",
          "type": "bytes4"
        }
      ],
      "name": "supportsInterface",
      "outputs": [
        {
          "internalType": "bool",
          "name": "",
          "type": "bool"
        }
      ],
      "stateMutability": "view",
      "type": "function"
    },
    {
      "inputs": [
        {
          "internalType": "uint256",
          "name": "",
          "type": "uint256"
        }
      ],
      "name": "tierFees",
      "outputs": [
        {
          "internalType": "uint256",
          "name": "originationFee",
          "type": "uint256"
        },
        {
          "internalType": "uint256",
          "name": "lateFeeAPR",
          "type": "uint256"
        }
      ],
      "stateMutability": "view",
      "type": "function"
    },
    {
      "inputs": [],
      "name": "timelock",
      "outputs": [
        {
          "internalType": "address",
          "name": "",
          "type": "address"
        }
      ],
      "stateMutability": "view",
      "type": "function"
    },
    {
      "inputs": [],
      "name": "togglePause",
      "outputs": [],
      "stateMutability": "nonpayable",
      "type": "function"
    },
    {
      "inputs": [
        {
          "internalType": "bool",
          "name": "_useRISC0",
          "type": "bool"
        }
      ],
      "name": "toggleRISC0CreditScores",
      "outputs": [],
      "stateMutability": "nonpayable",
      "type": "function"
    },
    {
      "inputs": [],
      "name": "totalBorrowedAllTime",
      "outputs": [
        {
          "internalType": "uint256",
          "name": "",
          "type": "uint256"
        }
      ],
      "stateMutability": "view",
      "type": "function"
    },
    {
      "inputs": [],
      "name": "totalFunds",
      "outputs": [
        {
          "internalType": "uint256",
          "name": "",
          "type": "uint256"
        }
      ],
      "stateMutability": "view",
      "type": "function"
    },
    {
      "inputs": [],
      "name": "totalRepaidAllTime",
      "outputs": [
        {
          "internalType": "uint256",
          "name": "",
          "type": "uint256"
        }
      ],
      "stateMutability": "view",
      "type": "function"
    },
    {
      "inputs": [
        {
          "internalType": "uint256",
          "name": "tierIndex",
          "type": "uint256"
        },
        {
          "internalType": "uint256",
          "name": "minScore",
          "type": "uint256"
        },
        {
          "internalType": "uint256",
          "name": "maxScore",
          "type": "uint256"
        },
        {
          "internalType": "uint256",
          "name": "collateralRatio",
          "type": "uint256"
        },
        {
          "internalType": "int256",
          "name": "interestRateModifier",
          "type": "int256"
        },
        {
          "internalType": "uint256",
          "name": "maxLoanAmount",
          "type": "uint256"
        }
      ],
      "name": "updateBorrowTier",
      "outputs": [],
      "stateMutability": "nonpayable",
      "type": "function"
    },
    {
      "inputs": [],
      "name": "useRISC0CreditScores",
      "outputs": [
        {
          "internalType": "bool",
          "name": "",
          "type": "bool"
        }
      ],
      "stateMutability": "view",
      "type": "function"
    },
    {
      "inputs": [
        {
          "internalType": "address",
          "name": "",
          "type": "address"
        }
      ],
      "name": "userDebt",
      "outputs": [
        {
          "internalType": "uint256",
          "name": "",
          "type": "uint256"
        }
      ],
      "stateMutability": "view",
      "type": "function"
    },
    {
      "inputs": [
        {
          "internalType": "address",
          "name": "",
          "type": "address"
        }
      ],
      "name": "userHistory",
      "outputs": [
        {
          "internalType": "uint256",
          "name": "firstInteractionTimestamp",
          "type": "uint256"
        },
        {
          "internalType": "uint256",
          "name": "liquidations",
          "type": "uint256"
        },
        {
          "internalType": "uint256",
          "name": "succesfullPayments",
          "type": "uint256"
        }
      ],
      "stateMutability": "view",
      "type": "function"
    },
    {
      "inputs": [
        {
          "internalType": "address",
          "name": "user",
          "type": "address"
        }
      ],
      "name": "userPositions",
      "outputs": [
        {
          "internalType": "uint256",
          "name": "",
          "type": "uint256"
        },
        {
          "internalType": "uint256",
          "name": "",
          "type": "uint256"
        },
        {
          "internalType": "uint256",
          "name": "",
          "type": "uint256"
        }
      ],
      "stateMutability": "view",
      "type": "function"
    },
    {
      "inputs": [
        {
          "internalType": "uint256",
          "name": "",
          "type": "uint256"
        }
      ],
      "name": "users",
      "outputs": [
        {
          "internalType": "address",
          "name": "",
          "type": "address"
        }
      ],
      "stateMutability": "view",
      "type": "function"
    },
    {
      "inputs": [],
      "name": "votingToken",
      "outputs": [
        {
          "internalType": "contract VotingToken",
          "name": "",
          "type": "address"
        }
      ],
      "stateMutability": "view",
      "type": "function"
    },
    {
      "inputs": [
        {
          "internalType": "address",
          "name": "token",
          "type": "address"
        },
        {
          "internalType": "uint256",
          "name": "amount",
          "type": "uint256"
        }
      ],
      "name": "withdrawCollateral",
      "outputs": [],
      "stateMutability": "nonpayable",
      "type": "function"
    },
    {
      "inputs": [
        {
          "internalType": "uint256",
          "name": "amount",
          "type": "uint256"
        }
      ],
      "name": "withdrawForLendingManager",
      "outputs": [],
      "stateMutability": "nonpayable",
      "type": "function"
    },
    {
      "inputs": [
        {
          "internalType": "address",
          "name": "token",
          "type": "address"
        },
        {
          "internalType": "uint256",
          "name": "amount",
          "type": "uint256"
        }
      ],
      "name": "withdrawPartialCollateral",
      "outputs": [],
      "stateMutability": "nonpayable",
      "type": "function"
    },
    {
      "stateMutability": "payable",
      "type": "receive"
    }
  ],
  "bytecode": "0x608080604052346100175761619c90816200001c8239f35b5f80fdfe6080604081815260048036101561002f575b505050361561001e575f80fd5b61002a3460a354614ce8565b60a355005b5f925f3560e01c90816301c76f811461494f5750806301ffc9a7146148fc57806303a42b6f146148d4578063042e02cf1461489857806305510b91146147c6578063080d9c2b146146875780630835e145146146675780630b044c791461464b5780630ef7fb67146146305780630f61b810146145b8578063100cd71d1461455e57806312065fe01461264957806314673d31146144ab5780631bfe4261146144715780631fd48b9a1461443857806320dfcae11461411c57806323fe5a3314614104578063248a9ca3146140d95780632a28ec44146140585780632a7beafe146140295780632f2ff15d14613f8757806330332f9f14613f0e57806333481fc914613e24578063350c35e914613ba8578063357619a914613b6e57806335f6798114613b4257806336568abe14613ab0578063365b98b214613a8757806338053ef314613a4f5780633d7c5d3e14613a31578063402d88831461378a5780634046ebae1461375d578063418eea3114613722578063450a375a146136fc5780634585e33b14613544578063488683cd146135095780634a417a53146134ec5780634c8f35ab14611ec95780634c95da66146134ba5780634fb3d3b1146134385780635141df41146133fe57806352226ef0146133b357806355f4d9e214613251578063594ad93f1461323357806359705bb3146132155780635a70348f14612be45780635b66e7fc146131f85780635b6cca80146131a75780635c44f10d1461318b5780635c975abb14611fef5780635f558e531461316f578063613cf4201461310a5780636579b73e146130d257806369ff0a0d146130ab5780636c648fc4146130855780636e04ff0d14612eab5780636e9960c31461144d578063704b6c0214612e1a57806370ed11bc14612dbc57806372ed9f7b14612c225780637346f48614612be457806373b4086b14612b6957806376e1128614612ae857806378974cbb146129e75780637a8ce68b146129ac578063802937ac1461298d57806383475f0c1461295257806383ae734514611f4657806384bdc9a8146129305780638e6b53bc146128fe57806391d14854146128bb57806393a517a21461283c5780639490a51e146127fe57806395eb0d15146127d0578063962a0da514612795578063968ed60014611d9657806397ed81cf1461264e5780639b745aec146126495780639b8621d51461262d5780639ce625f7146126075780639e3b77af146125de578063a217fddf146125c3578063a36e4ad614612324578063a5d5db0c146120ba578063a787572e14612065578063a8cf4b5214610fb9578063aca25f9a1461203f578063b034012314612016578063b187bd2614611fef578063b3075fb714611fbe578063b3a5a0a214611f7e578063b69e5c7714611f46578063b8cdf56114611f27578063ba1c5e8014611f04578063bc3d5a3e14611ee5578063c129d50414611ec9578063c1a287e214611eab578063c23c69d514611e73578063c39537e114611e38578063c4ae316814611db5578063c4e41b2214611d96578063c5ebeaec146116f5578063c869d0ed14611653578063c941f3211461162a578063cc484c5c146115c8578063cf1762251461159f578063cf3090121461157b578063d1f151c1146114ae578063d29255f914611476578063d33219b41461144d578063d3dd2bdf1461142c578063d547741f146113ee578063ddac7f1b14611365578063e19fb8f514611245578063e1c501001461113e578063e1f7c2c9146110a7578063e2842d7914611016578063e2d7462814610fbe578063e6aa216c14610fb9578063e6ae357614610f7e578063e7602b9d14610f31578063e84bae4514610f00578063e8a7da8e14610cbb578063e9ffb29114610c80578063eb8d655114610c45578063ebdcc16414610c16578063f1c5d6c214610be9578063f3fdb15a14610bc0578063f79ed94b14610b97578063f7e590ee14610b5f578063f8c8765e1461086d578063fbbff3d1146107f9578063feb50e52146106f85763ffd4aedb0361001157346106f45760803660031901126106f4576106a0916106166149af565b61061e6149c5565b926106276149db565b90606435918760018060a01b0380956106458260a6541633146154a0565b169283825260209788966097885288842091165f528652865f2061066a868254614c35565b9055865163a9059cbb60e01b81526001600160a01b03909316908301908152602081019490945290968793849291839160400190565b03925af19081156106eb57506106b4578280f35b81813d83116106e4575b6106c88183614cba565b810103126106e0576106d990614cdb565b505f808280f35b5080fd5b503d6106be565b513d85823e3d90fd5b8280fd5b5090346106f457806003193601126106f45781356024356001600160a01b03818116918290036107f55760a9541633036107e6578147106107cb578480809381935af13d156107c6573d6001600160401b0381116107b357825190610767601f8201601f191660200183614cba565b81528460203d92013e5b1561077a578280f35b906020606492519162461bcd60e51b83528201526013602482015272115512081d1c985b9cd9995c8819985a5b1959606a1b6044820152fd5b604184634e487b7160e01b5f525260245ffd5b610771565b825162461bcd60e51b8152806107e2818701615098565b0390fd5b505051630925c89960e31b8152fd5b8580fd5b508290346106e05760203660031901126106e0576108156149af565b6001600160a01b0381168352609a602052838320549290610835906153d5565b9160058402938085046005149015171561085a57505060648351920482526020820152f35b634e487b7160e01b825260119052602490fd5b50346106f45760809081600319360112610b5b576108896149af565b6108916149c5565b9061089a6149db565b6064356001600160a01b0381811694909291859003610b575788549560ff8760081c161596878098610b4a575b8015610b33575b15610ad95760ff1981166001178b5587610ac8575b5060ff8a5460081c1615610a7157508290816001600160601b0360a01b95168560a954161760a955168360a554161760a555168160a654161760a65560a754161760a75560ff60a01b1960aa541660aa55610a2783519261094384614c42565b605a845261096c602094606486820152606e87820152601819606082015260328382015261602d565b61099d855161097a81614c42565b60508152605986820152607d87820152600919606082015260288382015261602d565b6109cc85516109ab81614c42565b60468152604f86820152608c87820152876060820152601e8382015261602d565b6109fc85516109da81614c42565b603c815260458682015260a087820152600f606082015260148382015261602d565b85855191610a0983614c42565b818352603b8684015260c887840152601e606084015282015261602d565b662386f26fc1000060b055610a3a578280f35b7f7f26b83ff96e1f2b6a682f133852f6798a09c465da95921460cefb38474024989161ff001984541684555160018152a15f808280f35b60849060208a519162461bcd60e51b8352820152602b60248201527f496e697469616c697a61626c653a20636f6e7472616374206973206e6f74206960448201526a6e697469616c697a696e6760a81b6064820152fd5b61ffff1916610101178a555f6108e3565b895162461bcd60e51b8152602081840152602e60248201527f496e697469616c697a61626c653a20636f6e747261637420697320616c72656160448201526d191e481a5b9a5d1a585b1a5e995960921b6064820152608490fd5b50303b1580156108ce5750600160ff8216146108ce565b50600160ff8216106108c7565b5f80fd5b8380fd5b5050346106e05760203660031901126106e05760209181906001600160a01b03610b876149af565b1681526099845220549051908152f35b5050346106e057816003193601126106e05760b15490516001600160a01b039091168152602090f35b5050346106e057816003193601126106e05760a75490516001600160a01b039091168152602090f35b5050346106e05760203660031901126106e057602090610c0f610c0a6149af565b615761565b9051908152f35b5050346106e05760203660031901126106e057602090610c3c610c376149af565b615dc8565b15159051908152f35b5050346106e057816003193601126106e057602090517f742d8195bebb59905cedb6c02453745e9ef7090c163e7dea727ab0849b3dfc008152f35b5050346106e057816003193601126106e057602090517fa22cb6bd33c714cffaf72f196d1ebf87829cac5214f3ad84491fa8669ede7a6a8152f35b509134610efd576020366003190112610efd57610cd66149af565b6001600160a01b038116825260b36020528282208351610cf581614c71565b60a08254958683526001840154956020840191878352600286015490818187015260038701549260608701978489528c8101549560c060ff600660808c01948a86528c60058201549c8d9101520154169901981515988981528642105f14610ef65762015180610d654289614c35565b049a5b849c81519062093a8091828101809111610edf57421180610ed5575b610e22575b50505051151580610e18575b15610e0b57518151610da691614ce8565b5f19810192908311610df85750516101409c50610dc291614c17565b985b81519a8b5260208b01528901526060880152608087015260a086015260c085015260e0840152610100830152610120820152f35b634e487b7160e01b815260118e52602490fd5b50506101409b5098610dc4565b5080511515610d95565b610e2e610e3391615dc8565b615ebb565b6005811015610ebf57865260b2602052600187872001549151908101809111610eaa57610e64620151809142614c35565b049081151580610ea1575b610e7a575b80610d89565b612710929d5061016d91610e92610e97928651614bf0565b614bf0565b04049a5f80610e74565b50801515610e6f565b508f856011602492634e487b7160e01b835252fd5b50508f856021602492634e487b7160e01b835252fd5b5083511515610d84565b5050508f856011602492634e487b7160e01b835252fd5b839a610d68565b80fd5b50346106f45760203660031901126106f45735916005831015610efd5750610f29602092614bd9565b549051908152f35b5050346106e057806003193601126106e057602091610f4e6149af565b82610f576149c5565b6001600160a01b03928316845260978652922091165f908152908352819020549051908152f35b5050346106e057816003193601126106e057602090517fb438992c2c4c65322b65fd8e2dacea9efd63443e69e5ed52f4a77ed6c78f7c2a8152f35b614bb7565b50346106f45760203660031901126106f457610fd86149af565b60a9546001600160a01b03939192919084163303611009575050166001600160601b0360a01b60a854161760a85580f35b51630925c89960e31b8152fd5b828434610efd5780600319360112610efd57815191829160a15480855260208095019460a183527faadc37b8ba5645e62f4546802db221593a94729ccbfc5a97d01365a88f64987892905b828210611087576110838686611079828b0383614cba565b5191829182614a2d565b0390f35b83546001600160a01b031687529586019560019384019390910190611061565b5090346106f45760203660031901126106f4576110c26149af565b60a95490926001600160a01b03929091831633036110095750508060aa54921691826001600160601b0360a01b82161760aa5582611123575b167f7fc5e57c5215ef3b834df4680694bbed4808bf88ddc971b470cb8ef9365e63868380a380f35b6001600160a81b031981168317600160a01b1760aa556110fb565b5090346106f457602080600319360112610b5b5761115a6149af565b611163816154e2565b5061120d576001600160a01b0316808552609c82528285205490939060ff166111cc5750828452609c8152818420805460ff19166001179055609d905282204290557f7f62ed89ea2c6fb057e4ea77729c1d3f18056339791fce29ac89760197b45b298280a280f35b915162461bcd60e51b815291820152601b60248201527f4c69717569646174696f6e20616c7265616479207374617274656400000000006044820152606490fd5b50905162461bcd60e51b8152918201526013602482015272506f736974696f6e206973206865616c74687960681b6044820152606490fd5b5090346106f45760203660031901126106f457813560a4549261126b60ff851615615152565b60ff1993841660011760a45560a6546001600160a01b03163303611317574782116112d45750838080836112a2829560a354614c35565b60a3558181156112cb575b3390f1156112c0575060a4541660a45580f35b51913d9150823e3d90fd5b506108fc6112ad565b606490602084519162461bcd60e51b8352820152601d60248201527f496e73756666696369656e7420636f6e74726163742062616c616e63650000006044820152fd5b608490602084519162461bcd60e51b8352820152602260248201527f4f6e6c79206c656e64696e67206d616e616765722063616e2063616c6c207468604482015261697360f01b6064820152fd5b5090346106f457806003193601126106f45761137f6149af565b60a954602435936001600160a01b039291831633036113e0576201518085116113b1575016835260af60205282205580f35b606490602085519162461bcd60e51b83528201526009602482015268546f6f206c6172676560b81b6044820152fd5b8351630925c89960e31b8152fd5b5090346106f457806003193601126106f457611429913561142460016114126149c5565b93838752606560205286200154615ac8565b615cef565b80f35b5050346106e05760203660031901126106e057602090610c0f610c376149af565b5050346106e057816003193601126106e05760a95490516001600160a01b039091168152602090f35b5050346106e05760203660031901126106e05760209181906001600160a01b0361149e6149af565b168152609b845220549051908152f35b509190346106e05760603660031901126106e05760a9548335919060243590604435906001600160a01b0316330361156b576114ed60ab548510614fea565b82518381018181106001600160401b03821117611558577f7543d68ffbde1802767cee31f14403e1b914f7249f14f2724e7398aa10de092395969750845282815260016020820183815287895260b2602052858920925183555191015582519182526020820152a280f35b604188634e487b7160e01b5f525260245ffd5b8251630925c89960e31b81528690fd5b5050346106e057816003193601126106e05760209060ff60a4541690519015158152f35b5050346106e057816003193601126106e057611083906115bd61569e565b905191829182614a2d565b5050346106e057816003193601126106e05781908260a1545b8082106115f2576020848451908152f35b909261162260019161160386614a71565b848060a01b0391549060031b1c168752609a6020528487205490614ce8565b9301906115e1565b5050346106e057816003193601126106e05760a55490516001600160a01b039091168152602090f35b50346106f45760203660031901126106f45761166d6149af565b60a9546001600160a01b039190821633036116e557169182156116a25750506001600160601b0360a01b60a654161760a65580f35b906020606492519162461bcd60e51b8352820152601f60248201527f496e76616c6964206c656e64696e67206d616e616765722061646472657373006044820152fd5b8351630925c89960e31b81528390fd5b5090602080600319360112610b5b5782359160a4549361171b60ff8660081c1615614cf5565b61172860ff861615615152565b60ff1994851660011760a455338652609a835281862054611d555761175561174f33615f27565b50615ebb565b60058110159081611d4257828114611d085760a35460011c8611611cac5761177c81615d62565b8892919211611c5b5761178e336153d5565b90606482029180830460641490151715611a8a576117ac9089614bf0565b11611c0a5760b1546001600160a01b03908116939091908a9085611be9575b8b6117d6838c614c35565b9683158015611b51575b50505050508660a354926117f960ad5460ae5490614c35565b938c9481611b0c575b505060a75416926024885180958193634fd41dad60e11b83528a8301525afa918215611b02578a92611ad3575b50818a821215611a9d575061184390615490565b9061271091820390828211611a8a579061185c91614bf0565b04925b600c8710611a385762278d004201804211611a2557899361191f85946119088960068c898f99819a829a8f87519761189689614c71565b83895286890190848252808a0192835260608a01938452600c60808b019504855260a08a01966101f4885260b360c08c019960018b52338352522098518955516001890155516002880155516003870155519085015551600584015551151591019060ff801983541691151516179055565b609a8a528a89852055609b8a524289852055614bd9565b61192a8a8254614ce8565b90556119388960ad54614ce8565b60ad55338252609f88528682208054156119e4575b5061195a8960a354614c35565b60a3558181156119db575b3390f1156119d157907fac59582e5396aca512fa873a2047e7f4c80f8f55d4a06cb34a78a0187f62719f9291815190858252838201527f5660f932172e1664b98577a703dd9484d374b28e3bf8c87b345bee97af612412823392a2519283523392a260a4541660a45580f35b81513d87823e3d90fd5b506108fc611965565b4290558651878152600c888201526b66697273745f626f72726f7760a01b606082015242898201525f8051602061614783398151915260803392a25f61194d565b634e487b7160e01b8a526011825260248afd5b845162461bcd60e51b8152908101869052602660248201527f4c6f616e20616d6f756e7420746f6f20736d616c6c20666f7220616d6f7274696044820152653d30ba34b7b760d11b6064820152608490fd5b634e487b7160e01b8b526011865260248bfd5b94918a8213611aae575b505061185f565b9091945061271091820190818311611a8a5790611aca91614bf0565b04925f80611aa7565b9091508681813d8311611afb575b611aeb8183614cba565b81010312610b575751905f61182f565b503d611ae1565b86513d8c823e3d90fd5b9194509150670de0b6b3a764000090818102918183041490151715611b3e578891611b3691614c17565b925f80611802565b634e487b7160e01b8c526011875260248cfd5b8285819382938390611be0575bf115611bd657611bc3578651908152606088820152600b60608201526a37b934b3b4b730ba34b7b760a91b608082015283878201527f66aecc579aa1ef463c0ed1547c2cb6163370e6311a60cba815252acbb398f21360a03392a25f808b81806117e0565b634e487b7160e01b8b526021865260248bfd5b87513d8d823e3d90fd5b506108fc611b5e565b50505f838b5260b28852612710611c03888d20548b614bf0565b04906117cb565b845162461bcd60e51b8152808501879052602560248201527f496e73756666696369656e7420636f6c6c61746572616c20666f722074686973604482015264103637b0b760d91b6064820152608490fd5b855162461bcd60e51b8152808601889052602560248201527f426f72726f7720616d6f756e74206578636565647320796f75722074696572206044820152641b1a5b5a5d60da1b6064820152608490fd5b835162461bcd60e51b8152808401869052603060248201527f426f72726f7720616d6f756e74206578636565647320617661696c61626c652060448201526f6c656e64696e6720636170616369747960801b6064820152608490fd5b835162461bcd60e51b815280840186905260146024820152734372656469742073636f726520746f6f206c6f7760601b6044820152606490fd5b634e487b7160e01b885260218352602488fd5b82606492519162461bcd60e51b8352820152601e60248201527f526570617920796f7572206578697374696e67206465627420666972737400006044820152fd5b5050346106e057816003193601126106e05760209060a3549051908152f35b50346106f457826003193601126106f45760a9546001600160a01b03163303611e2a575060207f228f455d7bc3d0b24a3a08d7847f391c3e78fc8aeb83acf226b7a96ee162b8ac9160ff60a45461ff00828260081c161560081b169061ff00191617918260a455519160081c1615158152a180f35b9051630925c89960e31b8152fd5b5050346106e057816003193601126106e057602090517facd38b7c4e04b2b78fc2ca994eae1a3eb206005ffa4c11fcf4a9d81c94684b2d8152f35b5050346106e05760203660031901126106e05760209181906001600160a01b03611e9b6149af565b168152609d845220549051908152f35b5050346106e057816003193601126106e057602090516203f4808152f35b5050346106e057816003193601126106e0576020905160828152f35b5050346106e057816003193601126106e05760209060ae549051908152f35b5050346106e057816003193601126106e0576020905167011c37937e0800008152f35b5050346106e057816003193601126106e05760209060ad549051908152f35b5050346106e05760203660031901126106e05760209181906001600160a01b03611f6e6149af565b168152609a845220549051908152f35b50346106f45760203660031901126106f457359160a054831015610efd5750611fa8602092614aba565b905491519160018060a01b039160031b1c168152f35b50346106f45760203660031901126106f45791819235815260b2602052206001815491015482519182526020820152f35b5050346106e057816003193601126106e05760209060ff60a45460081c1690519015158152f35b5050346106e057816003193601126106e05760a85490516001600160a01b039091168152602090f35b5050346106e05760203660031901126106e05760209061205d6149af565b505160508152f35b5050346106e05760203660031901126106e057606091906203f480906001600160a01b036120916149af565b168352609c6020528060ff818520541693609d6020522054815193151584526020840152820152f35b5090346106f457806003193601126106f4576120d46149af565b6024359160018060a01b03809216938486526020926098845260ff8388205416156122ec5784156122b457338752609c845260ff838820541661227c5790849133885260a28552838820805460ff811615612217575b505083516323b872dd60e01b815233928101928352306020840152604083019390935250909291908290849081906060015b038189895af1801561220d576121b9575b7ff1c0dd7e9b98bbff859029005ef89b127af049cd18df1a8d79f0b7e019911e56925084865260978252808620335f528252805f206121ad858254614ce8565b9055519283523392a380f35b8183813d8311612206575b6121ce8183614cba565b810103126107f5576122007ff1c0dd7e9b98bbff859029005ef89b127af049cd18df1a8d79f0b7e019911e5693614cdb565b5061216d565b503d6121c4565b81513d88823e3d90fd5b60ff1916600117905560a15491925090600160401b8110156122695784939261215c959261224c8360018a950160a155614a71565b819291549060031b9133831b921b1916179055919481939461212a565b604183634e487b7160e01b5f525260245ffd5b50816107e292515f8051602061612783398151915233918061229d816150c7565b0390a25162461bcd60e51b815291829182016150c7565b50816107e292515f805160206161278339815191523391806122d581615671565b0390a25162461bcd60e51b81529182918201615671565b50816107e292515f8051602061612783398151915233918061230d8161506c565b0390a25162461bcd60e51b8152918291820161506c565b50346106f457816003193601126106f45761233d6149af565b6024359060a4549361235560ff8660081c1615614cf5565b61236260ff861615615152565b60ff1994851660011760a45582156125ad5760018060a01b0382169384875260209260978452828820335f52845284835f20541061256b57338852609a84528288205485929181612481575b50509280929161240094878a5260978352838a20335f528352835f206123d5838254614c35565b9055835163a9059cbb60e01b8152339181019182526020820192909252909485918291604090910190565b03818a895af1801561247757612432575b5f805160206161078339815191529250519283523392a360a4541660a45580f35b8183813d8311612470575b6124478183614cba565b8101031261246c576124665f8051602061610783398151915293614cdb565b50612411565b8680fd5b503d61243d565b81513d89823e3d90fd5b6124f6919293506124c0670de0b6b3a764000091898c5260978852868c20335f5288526124ba6124b48a895f2054614c35565b91615761565b90614bf0565b04916124ce610e2e33615dc8565b60646124f06124e76124e2610e2e33615dc8565b615d62565b50503394614bf0565b04615817565b116125045783905f806123ae565b82608492519162461bcd60e51b8352820152603b60248201527f5769746864726177616c20776f756c642076696f6c61746520746965722d626160448201527f73656420636f6c6c61746572616c20726571756972656d656e747300000000006064820152fd5b5082606492519162461bcd60e51b8352820152601760248201527f496e73756666696369656e7420636f6c6c61746572616c0000000000000000006044820152fd5b5162461bcd60e51b8152806107e2818601615671565b5050346106e057816003193601126106e05751908152602090f35b5050346106e057816003193601126106e05760a65490516001600160a01b039091168152602090f35b5050346106e05760203660031901126106e057602090610c0f6126286149af565b615625565b5050346106e057816003193601126106e0576020905160058152f35b614a12565b5090346106f457806003193601126106f4576126686149af565b60a95460243592916001600160a01b03918216330361278557169283156127435730841461270957606483116126d257507f4afae6838a181695abc7978598380d73bc2144eb38580c130f86e4b1e6531e159160209184865260998352818187205551908152a280f35b6020606492519162461bcd60e51b8352820152601260248201527153636f7265206f7574206f662072616e676560701b6044820152fd5b6020606492519162461bcd60e51b8352820152601560248201527424b73b30b634b21030b2323932b9b99d1039b2b63360591b6044820152fd5b6020606492519162461bcd60e51b8352820152601d60248201527f496e76616c696420616464726573733a207a65726f20616464726573730000006044820152fd5b8251630925c89960e31b81528590fd5b5050346106e057816003193601126106e057602090517f96737339a958f216173e690d06f324072e6dc3146e04c060bd723906d6b190768152f35b5050346106e057806003193601126106e057602090610c0f6127f06149af565b6127f86149c5565b90615558565b5050346106e05760203660031901126106e05760209160ff9082906001600160a01b036128296149af565b16815260a2855220541690519015158152f35b509134610efd576020366003190112610efd576128576149af565b61286f6124e2610e2e612869846153d5565b93615dc8565b9260508082029350811591840414171590506128a85760209450606490049150808210156128a05750905b51908152f35b90509061289a565b634e487b7160e01b835260118552602483fd5b50346106f457816003193601126106f457816020936128d86149c5565b9235815260658552209060018060a01b03165f52825260ff815f20541690519015158152f35b828434610efd576020366003190112610efd575061292261291d6149af565b6154e2565b825191151582526020820152f35b5050346106e057816003193601126106e0576020905166b1a2bc2ec500008152f35b5050346106e057816003193601126106e057602090517fce802e42c93d0fbd61dfc706a0e806b78ac046397e07510da2f223464e4788e08152f35b5050346106e057816003193601126106e05760209060b0549051908152f35b5050346106e057816003193601126106e057602090517f0e0e24c52bc4f24612e3f568966757426acd82325205933a9270e1ce7c4d93c28152f35b5090346106f457806003193601126106f457612a016149af565b60243592612a7960018060a01b03612a1e8160a6541633146154a0565b831694858752612a64612a5f610e2e602096609a88528a89812055609b88528a89812055609c8852888b2060ff198154169055609d88528a89812055615dc8565b614bd9565b612a6f828254614c35565b905560ae54614ce8565b60ae55838552609f825260018386200180549160018301809311612ad55750915f80516020616147833981519152939160809355600b8251928084528301526a3634b8bab4b230ba34b7b760a91b60608301524290820152a280f35b634e487b7160e01b875260119052602486fd5b50346106f457816003193601126106f457612b016149af565b91612b0a6149c5565b60a95490936001600160a01b0393909184163303612b5b575082168085526098602052612b3c60ff8387205416615389565b8452609e602052832091166001600160601b0360a01b82541617905580f35b8251630925c89960e31b8152fd5b50346106f45760203660031901126106f45760e09282906001600160a01b03612b906149af565b16815260b36020522080549260018201549260028301546003840154918401549260ff600660058701549601541695815197885260208801528601526060850152608084015260a0830152151560c0820152f35b5050346106e05760203660031901126106e05760209160ff9082906001600160a01b03612c0f6149af565b1681526098855220541690519015158152f35b5090346106f45760209283600319360112610efd57612c3f6149af565b9260a354612c5260ad5460ae5490614c35565b8115612db357670de0b6b3a764000090818102918183041490151715612da05790612c7c91614c17565b935b60a7548451634fd41dad60e11b8152838101969096528690869060249082906001600160a01b03165afa948515612d96578395612d65575b50610e2e612cc391615dc8565b6005811015612d5257612cd7600391614b7e565b500154849083811215612d1557612cf2919293949550615490565b926127109384039284841161085a57505090612d0d91614bf0565b049051908152f35b92808413612d27575b5050505061289a565b9091929394506127109384019283851161085a57505090612d4791614bf0565b04905f808080612d1e565b634e487b7160e01b835260218252602483fd5b9094508581813d8311612d8f575b612d7d8183614cba565b81010312610b57575193610e2e612cb6565b503d612d73565b84513d85823e3d90fd5b634e487b7160e01b845260118352602484fd5b50508193612c7e565b5090346106f45760203660031901126106f45781359260ab54841015610efd5750612de860a093614b7e565b508054926001820154926002830154916003840154930154938151958652602086015284015260608301526080820152f35b50346106f45760203660031901126106f457612e346149af565b60a95491906001600160a01b03908184163303612e9b5716928315612e665750506001600160a01b0319161760a95580f35b906020606492519162461bcd60e51b8352820152600f60248201526e496e76616c6964206164647265737360881b6044820152fd5b8451630925c89960e31b81528390fd5b509190346106e057612ebc36614aef565b505060609160b454603c810180911161307257612eda90421161518e565b8151809160a15480835283602080940160a184527faadc37b8ba5645e62f4546802db221593a94729ccbfc5a97d01365a88f64987892845b8682821061305357505050612f2992500384614cba565b612f33835161545e565b938193825b8151811015612fbe576001600160a01b03612f538284614d36565b5116808552609c865260ff8486205416612f71575b50600101612f38565b609d8652838520546203f4808101809111612fab574210612f685786612fa491612f9e600194998b614d36565b52614d4a565b9590612f68565b634e487b7160e01b865260118b52602486fd5b50849050858782156130475750612fd48261545e565b935b82811061301f5750505061108390612ffa6130086001948351928391888301614a2d565b03601f198101835282614cba565b905b80805195869515158652850152830190614b59565b6001906001600160a01b036130348285614d36565b51166130408288614d36565b5201612fd6565b9150506110839161300a565b85546001600160a01b0316845260019586019589955093019201612f12565b634e487b7160e01b825260118552602482fd5b5050346106e05760203660031901126106e057602090610c0f6130a66149af565b6153d5565b5050346106e057816003193601126106e05760209060ff60aa5460a01c1690519015158152f35b5050346106e05760203660031901126106e05760209181906001600160a01b036130fa6149af565b16815260af845220549051908152f35b5050346106e05760203660031901126106e0576110836131286149af565b918060018060a01b03841694858152609a60205261314982822054956153d5565b958152609b60205220549051938493846040919493926060820195825260208201520152565b5050346106e057816003193601126106e05760209051600a8152f35b5050346106e057816003193601126106e05760209051603c8152f35b5050346106e05760203660031901126106e0576020916001600160a01b03908290826131d16149af565b16808252609886526131e860ff8484205416615389565b8152609e85522054169051908152f35b5050346106e057816003193601126106e057602090516103848152f35b5050346106e057816003193601126106e057602090516276a7008152f35b5050346106e057816003193601126106e05751600a47048152602090f35b5090346106f457806003193601126106f45761326b6149af565b906024359182151592838103610b575760a9546001600160a01b039290831633036133a35782169485875260986020526132b3828589209060ff801983541691151516179055565b60a0549187805b848110613379575b5081613370575b506132ff575b5050507f15f5cc64ca777db85f6c05fdba671568758b38329616d4d4b43bb8b092fe9a8d9160209151908152a280f35b600160401b82101561335d5750917f15f5cc64ca777db85f6c05fdba671568758b38329616d4d4b43bb8b092fe9a8d93916133428460016020960160a055614aba565b819291549060031b9188831b921b19161790559181936132cf565b604190634e487b7160e01b5f525260245ffd5b9050155f6132c9565b888661338483614aba565b90549060031b1c1614613399576001016132ba565b505060015f6132c2565b8351630925c89960e31b81528690fd5b5050346106e057806003193601126106e0576020916133d06149af565b906001600160a01b03908390826133e56149c5565b168152609786522091165f528252805f20549051908152f35b5050346106e05760203660031901126106e05760609061342461341f6149af565b61528c565b919290815193151584526020840152820152f35b5050346106e05760203660031901126106e057806060926134576149af565b8183805161346481614c9f565b828152826020820152015260018060a01b03168152609f6020522090805161348b81614c9f565b825492838252826002600183015492602085019384520154920191825282519384525160208401525190820152f35b5050346106e05760203660031901126106e0576020906134ea6134e1610e2e610c376149af565b915180926149f1565bf35b5050346106e057816003193601126106e057602090610c0f6151e4565b5050346106e057816003193601126106e057602090517f430b074324c1d9f1ce97c9e9efd8cc6b779c8a501b53808a5cafe19682f95dd58152f35b50346106f45761355336614aef565b60b493919354603c81018091116136e95761356f90421161518e565b4260b45583019260209081818603126107f5578035906001600160401b03821161246c57019380601f860112156107f55784356135ab816151cd565b956135b885519788614cba565b818752838088019260051b8201019283116136e5578301905b8282106136c657505050845b84518110156136c2576001600160a01b03806135f98388614d36565b511690818852609c845260ff8589205416613619575b50506001016135dd565b609d8452848820546203f48081018091116136af5790889291421015613640575b5061360f565b60a65416803b156106f457855163bcebb1d760e01b8152308882019081526001600160a01b039093166020840152918391839182908490829060400103925af180156136a557613691575b8061363a565b61369a90614c8c565b6107f557855f61368b565b85513d84823e3d90fd5b634e487b7160e01b895260118752602489fd5b8580f35b81356001600160a01b0381168103610b575781529083019083016135d1565b8780fd5b634e487b7160e01b865260118452602486fd5b5050346106e057816003193601126106e05780602092338152609a845220549051908152f35b5050346106e057816003193601126106e057602090517f5fef09193e4e8110de1cc5ba269e889a5fb9093ba33c4df4b67dc2eaa1ca1fff8152f35b5050346106e057816003193601126106e05760a454905160109190911c6001600160a01b03168152602090f35b505f366003190112610b575760a454916137aa60ff8460081c1615614cf5565b6137b760ff841615615152565b600160ff198094161760a455335f52602090609a8252805f205480156139fc5734156139ca57803411805f146139c35781945b335f52609a8552835f206137ff878254614c35565b905561380d8660ae54614ce8565b60ae5561381c8660a354614ce8565b60a35561382e612a5f610e2e33615dc8565b613839878254614c35565b9055335f52609f85526002845f2001805490600182018092116139b057908994939291558451858152600986820152681c995c185e5b595b9d60ba1b606082015242878201525f8051602061614783398151915260803392a2335f52609c8652845f2088815460ff811661399c575b505060a8546001600160a01b0316905080613928575b50506138fb575b5050907f0516911bcc3a0a7412a44601057c0a0a1ec628bde049a84284bc42886653448891519283523392a260a4541660a45580f35b8180613908819334614c35565b81811561391f575b3390f1156106eb57845f6138c5565b506108fc613910565b8091929394503b15610b575784516340c10f1960e01b815233928101928352662386f26fc1000088046020840152915f91839182908490829060400103925af180156139925761397d575b90818893926138be565b61398991929750614c8c565b5f95905f613973565b84513d5f823e3d90fd5b169055609d86525f858120555f88816138a8565b601183634e487b7160e01b5f525260245ffd5b34946137ea565b505162461bcd60e51b815291820152600d60248201526c09aeae6e840e6cadcc8408aa89609b1b604482015260649150fd5b505162461bcd60e51b815291820152601060248201526f4e6f206465627420746f20726570617960801b604482015260649150fd5b8234610b57575f366003190112610b575760209060b4549051908152f35b8234610b57576020366003190112610b5757606090613a756124e2610e2e610c376149af565b91929081519384526020840152820152f35b5034610b57576020366003190112610b5757359060a154821015610b5757611fa8602092614a71565b5034610b575781600319360112610b5757613ac96149c5565b90336001600160a01b03831603613ae757613ae5925035615cef565b005b608490602084519162461bcd60e51b8352820152602f60248201527f416363657373436f6e74726f6c3a2063616e206f6e6c792072656e6f756e636560448201526e103937b632b9903337b91039b2b63360891b6064820152fd5b509034610b57576020366003190112610b575760a9546001600160a01b0316330361100957503560b055005b8234610b57575f366003190112610b5757602090517ffed613f2d4bec2209ff904769fa3c094c155ec5048c0bb2e17f16e523671ca2c8152f35b509034610b575780600319360112610b5757613bc26149af565b6024359160018060a01b039384831694855f526020936098855260ff845f20541615613e0357865f5260978552835f20335f52855285845f205410613dcb57335f52609c855260ff845f205416613daa57613c4290670de0b6b3a7640000613c3b613c35613c2f336153d5565b93615761565b89614bf0565b0490614c35565b906064820291808304606414901517156139b057602490335f52609a865285855f20549160a55416865193848092631ee1b90b60e21b82528c898301525afa908115613da0575f91613d6f575b613c999250614bf0565b11613d3857908284613cc39493875f5260978352835f20335f528352835f206123d5838254614c35565b03815f895af18015613d2e57613ced575b5f805160206161078339815191529250519283523392a3005b8183813d8311613d27575b613d028183614cba565b81010312610b5757613d215f8051602061610783398151915293614cdb565b50613cd4565b503d613cf8565b50513d5f823e3d90fd5b816107e292515f80516020616127833981519152339180613d58816150ff565b0390a25162461bcd60e51b815291829182016150ff565b90508582813d8311613d99575b613d868183614cba565b81010312610b5757613c99915190613c8f565b503d613d7c565b85513d5f823e3d90fd5b6107e2838580515f8051602061612783398151915233918061229d816150c7565b6107e2838580515f80516020616127833981519152339180613dec81615098565b0390a25162461bcd60e51b81529182918201615098565b6107e2838580515f8051602061612783398151915233918061230d8161506c565b5034610b57576020366003190112610b575760e091613e416149af565b5f60c08351613e4f81614c71565b82815282602082015282858201528260608201528260808201528260a0820152015260018060a01b03165f5260b3602052805f20815191613e8f83614c71565b81549384845260018301549160208501928352600284015481860190815260038501549260608701938452850154936080870194855260c060ff600660058901549860a08b01998a5201541697019615158752825197885251602088015251908601525160608501525160808401525160a083015251151560c0820152f35b509034610b575760c0366003190112610b575760a954823592906001600160a01b03163303611e2a5750613f81613ae592613f4c60ab548210614fea565b825192613f5884614c42565b6024358452604435602085015260643590840152608435606084015260a4356080840152614b7e565b90615025565b5034610b575781600319360112610b57573590613fa26149c5565b90825f526065602052613fba6001825f200154615ac8565b825f526065602052805f209160018060a01b031691825f5260205260ff815f20541615613fe357005b825f526065602052805f20825f526020525f20600160ff1982541617905533917f2f8788117e7eff1d82e926ec794901d17c78024a50270940304540a733656f0d5f80a4005b5034610b57576020366003190112610b575735906001600160401b0382168203610b5757610c0f602092614f9a565b8234610b57575f366003190112610b5757805160a080548083525f918252602080840194927f78fdc8d422c49ced035a9edf18d00d3c6a8d81df210f3e5e448e045e77b41e8892915b8282106140b9576110838686611079828b0383614cba565b83546001600160a01b0316875295860195600193840193909101906140a1565b509034610b57576020366003190112610b5757602091355f52606582526001815f2001549051908152f35b34610b57575f366003190112610b5757613ae5614d58565b50905f366003190112610b575761413b60ff60a45460081c1615614cf5565b335f52602060b38152815f20600681019360ff8554161561440457808201918254928334106143c157600382019182548042106143925762093a80810180911161437f578042116142ba575b509060016141ce92019461419c818754614c35565b8655335f52609a87526141b3885f20918254614c35565b90556141c2815460ae54614ce8565b60ae555460a354614ce8565b60a35580549062278d0082018092116139b05755335f52609f83526002845f2001805491600183018093116142a75750907fd3cf6d8c55fed98c7b9f9d18d95a51dbdb316503bb854fc1f676c8974cb10f4f9291558351848152601385820152721a5b9cdd185b1b1b595b9d17dc185e5b595b9d606a1b606082015242848201525f8051602061614783398151915260803392a25492838151933485528401523392a21561427857005b805460ff19169055337f59bd56f70adeefb0cd83dca0f34f066bed6ee442068f3d07b5fc974b944d5aa65f80a2005b601190634e487b7160e01b5f525260245ffd5b6142c6610e2e33615dc8565b600581101561436c57916001916141ce94935f5260b28952620151806142f2848c5f2001549242614c35565b0480151580614363575b61430b575b5050919250614187565b61433061271061016d61432787870194610e9286549788614bf0565b04048093614ce8565b905589519081527fce0d6b567089a0bce35e0693cdb625006f0cf915f9f3686bb0343bc2c667c1b2893392a28a80614301565b508115156142fc565b602186634e487b7160e01b5f525260245ffd5b601185634e487b7160e01b5f525260245ffd5b875162461bcd60e51b81528086018890526009602482015268546f6f206561726c7960b81b6044820152606490fd5b855162461bcd60e51b8152808401869052601860248201527f496e73756666696369656e7420696e7374616c6c6d656e7400000000000000006044820152606490fd5b835162461bcd60e51b8152908101839052600e60248201526d27379030b1ba34bb32903637b0b760911b6044820152606490fd5b8234610b57576020366003190112610b57576020906001600160a01b038061445e6149af565b165f52609e8352815f2054169051908152f35b8234610b57575f366003190112610b5757602090517f8b473ac3e35dc431c1dba0191b7615ccaca6bfeb14f9573dcaae9e614fbe8b208152f35b5034610b57576020366003190112610b57576144c56149af565b60a9546001600160a01b039190821633036116e5571691821561451b5760b180546001600160a01b03191684179055827f279ea638680bba6a87fddd8bcdbc37d94eee92841e1dfec2ab0f79662c7093115f80a2005b906020606492519162461bcd60e51b8352820152601760248201527f496e76616c6964207265736572766520616464726573730000000000000000006044820152fd5b8234610b57576020366003190112610b57576001600160a01b036145806149af565b165f52609f602052805f2090611083825491600260018501549401549051938493846040919493926060820195825260208201520152565b509034610b57576020366003190112610b5757813591821515809303610b575760a9546001600160a01b03163303611e2a5760aa805460ff60a01b191660a085901b60ff60a01b1617905581518381527fb01450010edba5be11857fe89630b2ff764d237a9f9f77ab651643effd86998890602090a1005b8234610b57575f366003190112610b575760209051600a8152f35b8234610b57575f366003190112610b575760209051610e108152f35b8234610b57576020366003190112610b5757602090610c0f6130a66149af565b509034610b575780600319360112610b57576146a16149af565b9160243590335f52602093609c855260ff845f205416156147835783516323b872dd60e01b815233928101928352306020840152604083018490526001600160a01b039091169185908290819060600103815f865af180156139925761474f575b505f5260978352815f20335f52835261471f825f20918254614ce8565b905561472a336154e2565b5061473157005b335f908152609c8352818120805460ff19169055609d909252812055005b8481813d831161477c575b6147648183614cba565b81010312610b575761477590614cdb565b5084614702565b503d61475a565b835162461bcd60e51b8152808301869052601a60248201527f4163636f756e74206e6f7420696e206c69717569646174696f6e0000000000006044820152606490fd5b509034610b57576020366003190112610b57576147e16149af565b916147ee610e2e84615dc8565b916147fe6124e2610e2e86615dc8565b50506001600160a01b0385165f908152609a6020528290205494909290851561488957614832908560646124f0878a614bf0565b906064820291808304606414901517156142a7575060809461485391614c17565b9081831115614883576148668284614c35565b925b614874825180966149f1565b60208501528301526060820152f35b5f614866565b50506080935081905f92614868565b8234610b57576020366003190112610b57576020906001600160a01b036148bd6149af565b165f52609c825260ff815f20541690519015158152f35b8234610b57575f366003190112610b575760aa5490516001600160a01b039091168152602090f35b5034610b57576020366003190112610b57573563ffffffff60e01b8116809103610b5757602091637965db0b60e01b821491821561493e575b50519015158152f35b6301ffc9a760e01b14915083614935565b8234610b57576020366003190112610b57576149696149af565b60a9549092906001600160a01b031633036149a35760a4805462010000600160b01b031916601085901b62010000600160b01b0316179055005b630925c89960e31b8152fd5b600435906001600160a01b0382168203610b5757565b602435906001600160a01b0382168203610b5757565b604435906001600160a01b0382168203610b5757565b9060058210156149fe5752565b634e487b7160e01b5f52602160045260245ffd5b34610b57575f366003190112610b5757602047604051908152f35b60209060206040818301928281528551809452019301915f5b828110614a54575050505090565b83516001600160a01b031685529381019392810192600101614a46565b60a154811015614aa65760a15f527faadc37b8ba5645e62f4546802db221593a94729ccbfc5a97d01365a88f64987801905f90565b634e487b7160e01b5f52603260045260245ffd5b60a054811015614aa65760a05f527f78fdc8d422c49ced035a9edf18d00d3c6a8d81df210f3e5e448e045e77b41e8801905f90565b906020600319830112610b57576004356001600160401b0392838211610b575780602383011215610b57578160040135938411610b575760248483010111610b57576024019190565b5f5b838110614b495750505f910152565b8181015183820152602001614b3a565b90602091614b7281518092818552858086019101614b38565b601f01601f1916010190565b60ab54811015614aa65760059060ab5f52027ffc377260a69a39dd786235c89f4bcd5d9639157731cac38071a0508750eb115a01905f90565b34610b57575f366003190112610b57576020604051670de0b6b3a76400008152f35b60058110156149fe575f5260ac60205260405f2090565b81810292918115918404141715614c0357565b634e487b7160e01b5f52601160045260245ffd5b8115614c21570490565b634e487b7160e01b5f52601260045260245ffd5b91908203918211614c0357565b60a081019081106001600160401b03821117614c5d57604052565b634e487b7160e01b5f52604160045260245ffd5b60e081019081106001600160401b03821117614c5d57604052565b6001600160401b038111614c5d57604052565b606081019081106001600160401b03821117614c5d57604052565b90601f801991011681019081106001600160401b03821117614c5d57604052565b51908115158203610b5757565b91908201809211614c0357565b15614cfc57565b60405162461bcd60e51b815260206004820152601260248201527110dbdb9d1c9858dd081a5cc81c185d5cd95960721b6044820152606490fd5b8051821015614aa65760209160051b010190565b5f198114614c035760010190565b614d6061569e565b5f5b8151811015614e02576001600160a01b0380614d7e8385614d36565b511690815f52602091609e8352604091825f205416614da3575b505050600101614d62565b614dba614db2610e109261594f565b905042614c35565b11614dc55780614d98565b60a4805461ff00191661010017905551600181527f228f455d7bc3d0b24a3a08d7847f391c3e78fc8aeb83acf226b7a96ee162b8ac9350909150a1565b505060a3548015159081614f63575b50614e485760a15460a6545f91906001600160a01b03908116835b838110614eae575050508015159182614e84575b5050614e4857565b61010061ff001960a454161760a4557f228f455d7bc3d0b24a3a08d7847f391c3e78fc8aeb83acf226b7a96ee162b8ac602060405160018152a1565b909150606481029080820460641490151715614c0357600591614ea691614c17565b115f80614e40565b614eb781614a71565b905460408051632cf5889360e01b815230600482015260039390931b9190911c85166001600160a01b031660248301529060208082604481885afa928315614f5a57505f92614f24575b5050614f10575b600101614e2c565b93614f1c600191614d4a565b949050614f08565b90809250813d8311614f53575b614f3b8183614cba565b81010312610b5757614f4c90614cdb565b5f80614f01565b503d614f31565b513d5f823e3d90fd5b9050614f7460ad5460ae5490614c35565b606481029080820460641490151715614c0357605f91614f9391614c17565b115f614e11565b6001600160401b0380911661012c811115614fe457610352811015614fdd5761012b1901818111614c03578116606402808216908103614c035761022690041690565b5050606490565b50505f90565b15614ff157565b60405162461bcd60e51b815260206004820152600c60248201526b24b73b30b634b2103a34b2b960a11b6044820152606490fd5b9190615059576080816004925184556020810151600185015560408101516002850155606081015160038501550151910155565b634e487b7160e01b5f525f60045260245ffd5b606090602081526011602082015270151bdad95b881b9bdd08185b1b1bddd959607a1b60408201520190565b606090602081526014602082015273496e73756666696369656e742062616c616e636560601b60408201520190565b60609060208152601960208201527f4163636f756e7420697320696e206c69717569646174696f6e0000000000000060408201520190565b60809060208152603260208201527f5769746864726177616c20776f756c64206d616b6520706f736974696f6e20756040820152711b99195c98dbdb1b185d195c985b1a5e995960721b60608201520190565b1561515957565b60405162461bcd60e51b815260206004820152600d60248201526c4e6f207265656e7472616e637960981b6044820152606490fd5b1561519557565b60405162461bcd60e51b815260206004820152601060248201526f155c1ad9595c081d1a1c9bdd1d1b195960821b6044820152606490fd5b6001600160401b038111614c5d5760051b60200190565b60a3548015615255575f905f60a1545b80821061521c575050606482029180830460641490151715614c035761521991614c17565b90565b909261524d60019161522d86614a71565b848060a01b0391549060031b1c165f52609a60205260405f205490614ce8565b9301906151f4565b505f90565b90816060910312610b575780516001600160401b0381168103610b575791604061528660208401614cdb565b92015190565b60aa549060ff8260a01c16158015615378575b61536e5760405163d3dd2bdf60e01b81526001600160a01b0391821660048201529160609183916024918391165afa5f91829182918161533a575b506152eb575b5050505f905f905f90565b80615328575b80615312575b61530157806152e0565b61530a90614f9a565b916001929190565b506276a7008201808311614c03574211156152f7565b506001600160401b03811615156152f1565b91509250615360915060603d606011615367575b6153588183614cba565b81019061525a565b925f6152da565b503d61534e565b50505f905f905f90565b506001600160a01b0382161561529f565b1561539057565b60405162461bcd60e51b815260206004820152601f60248201527f546f6b656e206e6f7420616c6c6f77656420617320636f6c6c61746572616c006044820152606490fd5b905f916153e061569e565b925f5b8451811015615458576001600160a01b03806153ff8388614d36565b511690815f5260209060978252604091825f209187165f52525f2054908161542c575b50506001016153e3565b92670de0b6b3a7640000615449615450936124ba60019697615761565b0490614ce8565b91905f615422565b50925050565b90615468826151cd565b6154756040519182614cba565b8281528092615486601f19916151cd565b0190602036910137565b600160ff1b8114614c03575f0390565b156154a757565b60405162461bcd60e51b815260206004820152601360248201527227b7363c902632b73234b733a6b0b730b3b2b960691b6044820152606490fd5b906154ec826153d5565b6001600160a01b0383165f908152609a602052604090205492831561554c578115615542576124e2610e2e61552092615dc8565b50509260648202918204606403614c035761553a91614c17565b918210159190565b505090505f905f90565b50600192505f19919050565b91909160018060a01b038084165f52609760205260405f209082165f5260205260405f205492609a60205260405f20549081156156205761559890615761565b906155dc670de0b6b3a764000093846155b18589614bf0565b049260646124f06155c4610e2e85615dc8565b926155d46124e2610e2e87615dc8565b505090614bf0565b908181111561561757906155ef91614c35565b828102928184041490151715614c035761560891614c17565b918083116156135750565b9150565b505f9450505050565b505050565b6001600160a01b0381165f908152609a602052604090205490811561566a5761564d906153d5565b90606482029180830460641490151715614c035761521991614c17565b50505f1990565b6060906020815260126020820152710416d6f756e74206d757374206265203e20360741b60408201520190565b60a0545f805b82811061571957506156b59061545e565b905f805b8281106156c65750505090565b6156cf81614aba565b905460039190911b1c6001600160a01b03165f8181526098602052604090205460ff16615700575b506001016156b9565b8261571291612f9e6001949588614d36565b91906156f7565b61572281614aba565b60018060a01b0391549060031b1c165f52609860205260ff60405f20541661574d575b6001016156a4565b90615759600191614d4a565b919050615745565b6004602061576e8361594f565b509260018060a01b038091165f52609e825260405f2054166040519283809263313ce56760e01b82525afa801561580c575f906157cf575b60ff91501660120360ff8111614c035760ff1690604d8211614c035761521991600a0a90614bf0565b506020813d602011615804575b816157e960209383614cba565b81010312610b57575160ff81168103610b575760ff906157a6565b3d91506157dc565b6040513d5f823e3d90fd5b9161582190615dc8565b9060058110156149fe5761583481614b7e565b5050806158615750605f11156158475790565b605f810290808204605f1490151715614c03576064900490565b6001810361589857506055811061588d5750605a810290808204605a1490151715614c03576064900490565b605211156158475790565b600281036158e55750604b81106158c45750605581029080820460551490151715614c03576064900490565b60481161521957605c810290808204605c1490151715614c03576064900490565b6003146158f0575090565b604181106159135750605081029080820460501490151715614c03576064900490565b603e111561591e5790565b605a810290808204605a1490151715614c03576064900490565b519069ffffffffffffffffffff82168203610b5757565b9060018060a01b03918281165f52609e602052604092835f2054168015615a8f579260a0600494825195868092633fabe5a360e21b82525afa8015613d2e575f80935f965f93615a35575b506159ae6159a88842614c35565b91616052565b10615a035769ffffffffffffffffffff8091169116106159cd57509190565b5162461bcd60e51b815260206004820152601060248201526f5374616c6520726f756e64206461746160801b6044820152606490fd5b825162461bcd60e51b815260206004820152600b60248201526a5374616c6520707269636560a81b6044820152606490fd5b94509550505060a0823d60a011615a87575b81615a5460a09383614cba565b81010312610b5757615a6582615938565b936020830151615a7c608060608601519501615938565b95909395915f61599a565b3d9150615a47565b835162461bcd60e51b8152602060048201526012602482015271141c9a58d94819995959081b9bdd081cd95d60721b6044820152606490fd5b805f52602060658152604091825f20335f52825260ff835f20541615615aed57505050565b33835191615afa83614c9f565b602a83528383019085368337835115614aa6576030825383519260019360011015614aa6576078602186015360295b848111615cae5750615c295790855191608083018381106001600160401b03821117614c5d57875260428352858301936060368637835115614aa65760308553835160011015614aa657607860218501536041905b808211615c6b575050615c29576107e2938693615c0d93615bfe604894615bd59a519a8b957f416363657373436f6e74726f6c3a206163636f756e74200000000000000000008c8801525180926037880190614b38565b8401917001034b99036b4b9b9b4b733903937b6329607d1b603784015251809386840190614b38565b01036028810187520185614cba565b5192839262461bcd60e51b845260048401526024830190614b59565b60648587519062461bcd60e51b825280600483015260248201527f537472696e67733a20686578206c656e67746820696e73756666696369656e746044820152fd5b9091600f81166010811015614aa6576f181899199a1a9b1b9c1cb0b131b232b360811b901a615c9a84876160f5565b5360041c918015614c03575f190190615b7e565b90600f81166010811015614aa6576f181899199a1a9b1b9c1cb0b131b232b360811b901a615cdc83886160f5565b5360041c908015614c03575f1901615b29565b90815f52606560205260405f209060018060a01b031690815f5260205260ff60405f205416615d1c575050565b815f52606560205260405f20815f5260205260405f2060ff19815416905533917ff6391f5c32d9c69d2a47ea670b442974b53935d1edc7fd64eb21e047a839171b5f80a4565b60058110156149fe57615d7490614b7e565b509060405190615d8382614c42565b82548252600183015460208301526064615dc1608060028601549485604082015260046003880154978860608401520154918291015260a354614bf0565b0491929190565b60aa5460ff8160a01c1680615ea9575b615df8575b506001600160a01b03165f9081526099602052604090205490565b60405163d3dd2bdf60e01b81526001600160a01b038381166004830152909160609183916024918391165afa5f91815f915f93615e84575b50615e3d575b5050615ddd565b80615e72575b615e4e575b80615e36565b6276a7008101809111614c0357421115615e685780615e48565b6152199150614f9a565b506001600160401b0382161515615e43565b91509250615ea1915060603d606011615367576153588183614cba565b91925f615e30565b506001600160a01b0381161515615dd8565b60ab54905f5b828110615ee15750505f198101908111614c035760058110156149fe5790565b615eea81614b7e565b505482101580615f10575b615f0157600101615ec1565b91505060058110156149fe5790565b506001615f1c82614b7e565b500154821115615ef5565b60aa5460ff8160a01c168061601b575b615f5b575b506001600160a01b03165f908152609960205260409020549081151590565b60405163d3dd2bdf60e01b81526001600160a01b038381166004830152909160609183916024918391165afa5f918291829181615ff3575b50615fa0575b5050615f3c565b81615fe0575b81615fc8575b50615fb8578080615f99565b615fc29150614f9a565b90600190565b90506276a7008101809111614c03574211155f615fac565b6001600160401b03831615159150615fa6565b91509250616010915060603d606011615367576153588183614cba565b91929091905f615f93565b506001600160a01b0381161515615f37565b60ab5490600160401b821015614c5d57613f81826001616050940160ab55614b7e565b565b6001600160a01b039081165f81815260af6020526040902054909190806160ef575060209060a5541691602460405180948193631a650cc760e01b835260048301525afa90811561580c575f916160b5575b506160af5761038490565b610e1090565b90506020813d6020116160e7575b816160d060209383614cba565b81010312610b57576160e190614cdb565b5f6160a4565b3d91506160c3565b91505090565b908151811015614aa657016020019056fe45892a46e6cef329bb642da6d69846d324db43d19008edc141ed82382eda1bee3c364b9decdac59fbe037e99687219ac0feed46572bfbcbd5284b6b8e67f402d3f7c433051856ef6c6f502f4e60ac20498082f86a4d68de64f1a2d06924432c4a26469706673582212204bb3e79566afd093b55b9e89f3b96abdd4e0062876747413b4eed4499e2e340b64736f6c63430008180033",
  "linkReferences": {},
  "deployedLinkReferences": {}
}