{
  "_format": "hh-sol-artifact-1",
  "contractName": "LiquidityPool",
  "sourceName": "contracts/LiquidityPool.sol",
  "abi": [
    {
      "inputs": [],
      "name": "OnlyTimelockLiquidityPool",
      "type": "error"
    },
    {
      "anonymous": false,
      "inputs": [
        {
          "indexed": true,
          "internalType": "address",
          "name": "user",
          "type": "address"
        },
        {
          "indexed": false,
          "internalType": "uint256",
          "name": "amount",
          "type": "uint256"
        },
        {
          "indexed": false,
          "internalType": "bytes32",
          "name": "nullifier",
          "type": "bytes32"
        }
      ],
      "name": "BorrowWithNullifier",
      "type": "event"
    },
    {
      "anonymous": false,
      "inputs": [
        {
          "indexed": true,
          "internalType": "address",
          "name": "user",
          "type": "address"
        },
        {
          "indexed": false,
          "internalType": "uint256",
          "name": "amount",
          "type": "uint256"
        }
      ],
      "name": "Borrowed",
      "type": "event"
    },
    {
      "anonymous": false,
      "inputs": [
        {
          "indexed": true,
          "internalType": "address",
          "name": "user",
          "type": "address"
        },
        {
          "indexed": true,
          "internalType": "address",
          "name": "token",
          "type": "address"
        },
        {
          "indexed": false,
          "internalType": "uint256",
          "name": "amount",
          "type": "uint256"
        }
      ],
      "name": "CollateralDeposited",
      "type": "event"
    },
    {
      "anonymous": false,
      "inputs": [
        {
          "indexed": true,
          "internalType": "address",
          "name": "token",
          "type": "address"
        },
        {
          "indexed": false,
          "internalType": "bool",
          "name": "isAllowed",
          "type": "bool"
        }
      ],
      "name": "CollateralTokenStatusChanged",
      "type": "event"
    },
    {
      "anonymous": false,
      "inputs": [
        {
          "indexed": true,
          "internalType": "address",
          "name": "user",
          "type": "address"
        },
        {
          "indexed": true,
          "internalType": "address",
          "name": "token",
          "type": "address"
        },
        {
          "indexed": false,
          "internalType": "uint256",
          "name": "amount",
          "type": "uint256"
        }
      ],
      "name": "CollateralWithdrawn",
      "type": "event"
    },
    {
      "anonymous": false,
      "inputs": [
        {
          "indexed": true,
          "internalType": "address",
          "name": "user",
          "type": "address"
        },
        {
          "indexed": false,
          "internalType": "uint256",
          "name": "score",
          "type": "uint256"
        }
      ],
      "name": "CreditScoreAssigned",
      "type": "event"
    },
    {
      "anonymous": false,
      "inputs": [
        {
          "indexed": true,
          "internalType": "address",
          "name": "oldContract",
          "type": "address"
        },
        {
          "indexed": true,
          "internalType": "address",
          "name": "newContract",
          "type": "address"
        }
      ],
      "name": "CreditScoreContractUpdated",
      "type": "event"
    },
    {
      "anonymous": false,
      "inputs": [
        {
          "indexed": true,
          "internalType": "address",
          "name": "user",
          "type": "address"
        },
        {
          "indexed": false,
          "internalType": "string",
          "name": "source",
          "type": "string"
        },
        {
          "indexed": false,
          "internalType": "uint256",
          "name": "score",
          "type": "uint256"
        },
        {
          "indexed": false,
          "internalType": "uint256",
          "name": "convertedScore",
          "type": "uint256"
        }
      ],
      "name": "CreditScoreSourceUsed",
      "type": "event"
    },
    {
      "anonymous": false,
      "inputs": [
        {
          "indexed": true,
          "internalType": "address",
          "name": "oldSystem",
          "type": "address"
        },
        {
          "indexed": true,
          "internalType": "address",
          "name": "newSystem",
          "type": "address"
        }
      ],
      "name": "CreditSystemUpdated",
      "type": "event"
    },
    {
      "anonymous": false,
      "inputs": [
        {
          "indexed": false,
          "internalType": "bool",
          "name": "isPaused",
          "type": "bool"
        }
      ],
      "name": "EmergencyPaused",
      "type": "event"
    },
    {
      "anonymous": false,
      "inputs": [
        {
          "indexed": true,
          "internalType": "address",
          "name": "user",
          "type": "address"
        },
        {
          "indexed": false,
          "internalType": "uint256",
          "name": "amount",
          "type": "uint256"
        },
        {
          "indexed": false,
          "internalType": "string",
          "name": "feeType",
          "type": "string"
        },
        {
          "indexed": false,
          "internalType": "uint256",
          "name": "tier",
          "type": "uint256"
        }
      ],
      "name": "FeeCollected",
      "type": "event"
    },
    {
      "anonymous": false,
      "inputs": [
        {
          "indexed": true,
          "internalType": "address",
          "name": "user",
          "type": "address"
        },
        {
          "indexed": false,
          "internalType": "uint256",
          "name": "newDeadline",
          "type": "uint256"
        }
      ],
      "name": "GracePeriodExtended",
      "type": "event"
    },
    {
      "anonymous": false,
      "inputs": [
        {
          "indexed": false,
          "internalType": "uint8",
          "name": "version",
          "type": "uint8"
        }
      ],
      "name": "Initialized",
      "type": "event"
    },
    {
      "anonymous": false,
      "inputs": [
        {
          "indexed": true,
          "internalType": "address",
          "name": "user",
          "type": "address"
        },
        {
          "indexed": true,
          "internalType": "address",
          "name": "liquidator",
          "type": "address"
        },
        {
          "indexed": false,
          "internalType": "uint256",
          "name": "amount",
          "type": "uint256"
        }
      ],
      "name": "LiquidationExecuted",
      "type": "event"
    },
    {
      "anonymous": false,
      "inputs": [
        {
          "indexed": true,
          "internalType": "address",
          "name": "user",
          "type": "address"
        }
      ],
      "name": "LiquidationStarted",
      "type": "event"
    },
    {
      "anonymous": false,
      "inputs": [
        {
          "indexed": true,
          "internalType": "address",
          "name": "applicant",
          "type": "address"
        },
        {
          "indexed": false,
          "internalType": "uint256",
          "name": "amount",
          "type": "uint256"
        },
        {
          "indexed": false,
          "internalType": "uint256",
          "name": "collateral",
          "type": "uint256"
        }
      ],
      "name": "LoanApplied",
      "type": "event"
    },
    {
      "anonymous": false,
      "inputs": [
        {
          "indexed": true,
          "internalType": "address",
          "name": "applicant",
          "type": "address"
        },
        {
          "indexed": false,
          "internalType": "uint256",
          "name": "amount",
          "type": "uint256"
        }
      ],
      "name": "LoanApproved",
      "type": "event"
    },
    {
      "anonymous": false,
      "inputs": [
        {
          "indexed": true,
          "internalType": "address",
          "name": "borrower",
          "type": "address"
        },
        {
          "indexed": false,
          "internalType": "uint256",
          "name": "amount",
          "type": "uint256"
        },
        {
          "indexed": false,
          "internalType": "uint256",
          "name": "rate",
          "type": "uint256"
        }
      ],
      "name": "LoanDisbursed",
      "type": "event"
    },
    {
      "anonymous": false,
      "inputs": [
        {
          "indexed": true,
          "internalType": "address",
          "name": "borrower",
          "type": "address"
        }
      ],
      "name": "LoanFullyRepaid",
      "type": "event"
    },
    {
      "anonymous": false,
      "inputs": [
        {
          "indexed": true,
          "internalType": "address",
          "name": "borrower",
          "type": "address"
        },
        {
          "indexed": false,
          "internalType": "uint256",
          "name": "amount",
          "type": "uint256"
        },
        {
          "indexed": false,
          "internalType": "uint256",
          "name": "remaining",
          "type": "uint256"
        }
      ],
      "name": "LoanInstallmentPaid",
      "type": "event"
    },
    {
      "anonymous": false,
      "inputs": [
        {
          "indexed": true,
          "internalType": "address",
          "name": "borrower",
          "type": "address"
        },
        {
          "indexed": false,
          "internalType": "uint256",
          "name": "penalty",
          "type": "uint256"
        }
      ],
      "name": "LoanLatePenaltyApplied",
      "type": "event"
    },
    {
      "anonymous": false,
      "inputs": [
        {
          "indexed": true,
          "internalType": "address",
          "name": "applicant",
          "type": "address"
        },
        {
          "indexed": false,
          "internalType": "uint256",
          "name": "amount",
          "type": "uint256"
        }
      ],
      "name": "LoanRejected",
      "type": "event"
    },
    {
      "anonymous": false,
      "inputs": [
        {
          "indexed": true,
          "internalType": "address",
          "name": "user",
          "type": "address"
        },
        {
          "indexed": true,
          "internalType": "address",
          "name": "liquidator",
          "type": "address"
        },
        {
          "indexed": true,
          "internalType": "address",
          "name": "collateralToken",
          "type": "address"
        },
        {
          "indexed": false,
          "internalType": "uint256",
          "name": "collateralSeized",
          "type": "uint256"
        },
        {
          "indexed": false,
          "internalType": "uint256",
          "name": "debtRepaid",
          "type": "uint256"
        }
      ],
      "name": "PartialLiquidation",
      "type": "event"
    },
    {
      "anonymous": false,
      "inputs": [
        {
          "indexed": false,
          "internalType": "bool",
          "name": "useRISC0",
          "type": "bool"
        }
      ],
      "name": "RISC0ScoreToggled",
      "type": "event"
    },
    {
      "anonymous": false,
      "inputs": [
        {
          "indexed": true,
          "internalType": "address",
          "name": "user",
          "type": "address"
        },
        {
          "indexed": false,
          "internalType": "uint256",
          "name": "amount",
          "type": "uint256"
        }
      ],
      "name": "Repaid",
      "type": "event"
    },
    {
      "anonymous": false,
      "inputs": [
        {
          "indexed": true,
          "internalType": "address",
          "name": "newReserve",
          "type": "address"
        }
      ],
      "name": "ReserveAddressUpdated",
      "type": "event"
    },
    {
      "anonymous": false,
      "inputs": [
        {
          "indexed": true,
          "internalType": "bytes32",
          "name": "role",
          "type": "bytes32"
        },
        {
          "indexed": true,
          "internalType": "bytes32",
          "name": "previousAdminRole",
          "type": "bytes32"
        },
        {
          "indexed": true,
          "internalType": "bytes32",
          "name": "newAdminRole",
          "type": "bytes32"
        }
      ],
      "name": "RoleAdminChanged",
      "type": "event"
    },
    {
      "anonymous": false,
      "inputs": [
        {
          "indexed": true,
          "internalType": "bytes32",
          "name": "role",
          "type": "bytes32"
        },
        {
          "indexed": true,
          "internalType": "address",
          "name": "account",
          "type": "address"
        },
        {
          "indexed": true,
          "internalType": "address",
          "name": "sender",
          "type": "address"
        }
      ],
      "name": "RoleGranted",
      "type": "event"
    },
    {
      "anonymous": false,
      "inputs": [
        {
          "indexed": true,
          "internalType": "bytes32",
          "name": "role",
          "type": "bytes32"
        },
        {
          "indexed": true,
          "internalType": "address",
          "name": "account",
          "type": "address"
        },
        {
          "indexed": true,
          "internalType": "address",
          "name": "sender",
          "type": "address"
        }
      ],
      "name": "RoleRevoked",
      "type": "event"
    },
    {
      "anonymous": false,
      "inputs": [
        {
          "indexed": true,
          "internalType": "address",
          "name": "token",
          "type": "address"
        },
        {
          "indexed": false,
          "internalType": "uint256",
          "name": "updatedAt",
          "type": "uint256"
        },
        {
          "indexed": false,
          "internalType": "uint256",
          "name": "currentTime",
          "type": "uint256"
        }
      ],
      "name": "StaleOracleTriggered",
      "type": "event"
    },
    {
      "anonymous": false,
      "inputs": [
        {
          "indexed": true,
          "internalType": "uint256",
          "name": "tier",
          "type": "uint256"
        },
        {
          "indexed": false,
          "internalType": "uint256",
          "name": "originationFee",
          "type": "uint256"
        },
        {
          "indexed": false,
          "internalType": "uint256",
          "name": "lateFeeAPR",
          "type": "uint256"
        }
      ],
      "name": "TierFeeUpdated",
      "type": "event"
    },
    {
      "anonymous": false,
      "inputs": [
        {
          "indexed": true,
          "internalType": "address",
          "name": "user",
          "type": "address"
        },
        {
          "indexed": false,
          "internalType": "string",
          "name": "message",
          "type": "string"
        }
      ],
      "name": "UserError",
      "type": "event"
    },
    {
      "anonymous": false,
      "inputs": [
        {
          "indexed": false,
          "internalType": "bool",
          "name": "required",
          "type": "bool"
        }
      ],
      "name": "ZKProofRequirementToggled",
      "type": "event"
    },
    {
      "anonymous": false,
      "inputs": [
        {
          "indexed": true,
          "internalType": "address",
          "name": "user",
          "type": "address"
        },
        {
          "indexed": false,
          "internalType": "string",
          "name": "reason",
          "type": "string"
        }
      ],
      "name": "ZKProofValidationFailed",
      "type": "event"
    },
    {
      "inputs": [],
      "name": "ALLOW_COLLATERAL_PERMISSION",
      "outputs": [
        {
          "internalType": "bytes32",
          "name": "",
          "type": "bytes32"
        }
      ],
      "stateMutability": "view",
      "type": "function"
    },
    {
      "inputs": [],
      "name": "DEFAULT_ADMIN_ROLE",
      "outputs": [
        {
          "internalType": "bytes32",
          "name": "",
          "type": "bytes32"
        }
      ],
      "stateMutability": "view",
      "type": "function"
    },
    {
      "inputs": [],
      "name": "DEFAULT_LIQUIDATION_THRESHOLD",
      "outputs": [
        {
          "internalType": "uint256",
          "name": "",
          "type": "uint256"
        }
      ],
      "stateMutability": "view",
      "type": "function"
    },
    {
      "inputs": [],
      "name": "DEFAULT_STALENESS_STABLE",
      "outputs": [
        {
          "internalType": "uint256",
          "name": "",
          "type": "uint256"
        }
      ],
      "stateMutability": "view",
      "type": "function"
    },
    {
      "inputs": [],
      "name": "DEFAULT_STALENESS_VOLATILE",
      "outputs": [
        {
          "internalType": "uint256",
          "name": "",
          "type": "uint256"
        }
      ],
      "stateMutability": "view",
      "type": "function"
    },
    {
      "inputs": [],
      "name": "GRACE_PERIOD",
      "outputs": [
        {
          "internalType": "uint256",
          "name": "",
          "type": "uint256"
        }
      ],
      "stateMutability": "view",
      "type": "function"
    },
    {
      "inputs": [],
      "name": "LIQUIDATION_PENALTY",
      "outputs": [
        {
          "internalType": "uint256",
          "name": "",
          "type": "uint256"
        }
      ],
      "stateMutability": "view",
      "type": "function"
    },
    {
      "inputs": [],
      "name": "SAFETY_BUFFER",
      "outputs": [
        {
          "internalType": "uint256",
          "name": "",
          "type": "uint256"
        }
      ],
      "stateMutability": "view",
      "type": "function"
    },
    {
      "inputs": [],
      "name": "SCORE_EXPIRY_PERIOD",
      "outputs": [
        {
          "internalType": "uint256",
          "name": "",
          "type": "uint256"
        }
      ],
      "stateMutability": "view",
      "type": "function"
    },
    {
      "inputs": [],
      "name": "SET_ADMIN_PERMISSION",
      "outputs": [
        {
          "internalType": "bytes32",
          "name": "",
          "type": "bytes32"
        }
      ],
      "stateMutability": "view",
      "type": "function"
    },
    {
      "inputs": [],
      "name": "SET_CREDIT_SCORE_PERMISSION",
      "outputs": [
        {
          "internalType": "bytes32",
          "name": "",
          "type": "bytes32"
        }
      ],
      "stateMutability": "view",
      "type": "function"
    },
    {
      "inputs": [],
      "name": "SET_LENDING_MANAGER_PERMISSION",
      "outputs": [
        {
          "internalType": "bytes32",
          "name": "",
          "type": "bytes32"
        }
      ],
      "stateMutability": "view",
      "type": "function"
    },
    {
      "inputs": [],
      "name": "SET_MAX_PRICE_AGE_PERMISSION",
      "outputs": [
        {
          "internalType": "bytes32",
          "name": "",
          "type": "bytes32"
        }
      ],
      "stateMutability": "view",
      "type": "function"
    },
    {
      "inputs": [],
      "name": "SET_MIN_PARTIAL_LIQUIDATION_AMOUNT_PERMISSION",
      "outputs": [
        {
          "internalType": "bytes32",
          "name": "",
          "type": "bytes32"
        }
      ],
      "stateMutability": "view",
      "type": "function"
    },
    {
      "inputs": [],
      "name": "SET_PRICE_FEED_PERMISSION",
      "outputs": [
        {
          "internalType": "bytes32",
          "name": "",
          "type": "bytes32"
        }
      ],
      "stateMutability": "view",
      "type": "function"
    },
    {
      "inputs": [],
      "name": "SET_RESERVE_ADDRESS_PERMISSION",
      "outputs": [
        {
          "internalType": "bytes32",
          "name": "",
          "type": "bytes32"
        }
      ],
      "stateMutability": "view",
      "type": "function"
    },
    {
      "inputs": [],
      "name": "SET_TIER_FEE_PERMISSION",
      "outputs": [
        {
          "internalType": "bytes32",
          "name": "",
          "type": "bytes32"
        }
      ],
      "stateMutability": "view",
      "type": "function"
    },
    {
      "inputs": [],
      "name": "TOGGLE_PAUSE_PERMISSION",
      "outputs": [
        {
          "internalType": "bytes32",
          "name": "",
          "type": "bytes32"
        }
      ],
      "stateMutability": "view",
      "type": "function"
    },
    {
      "inputs": [],
      "name": "UPDATE_BORROW_TIER_PERMISSION",
      "outputs": [
        {
          "internalType": "bytes32",
          "name": "",
          "type": "bytes32"
        }
      ],
      "stateMutability": "view",
      "type": "function"
    },
    {
      "inputs": [],
      "name": "UPKEEP_COOLDOWN",
      "outputs": [
        {
          "internalType": "uint256",
          "name": "",
          "type": "uint256"
        }
      ],
      "stateMutability": "view",
      "type": "function"
    },
    {
      "inputs": [
        {
          "internalType": "address",
          "name": "token",
          "type": "address"
        }
      ],
      "name": "allowedCollateralTokens",
      "outputs": [
        {
          "internalType": "bool",
          "name": "",
          "type": "bool"
        }
      ],
      "stateMutability": "view",
      "type": "function"
    },
    {
      "inputs": [
        {
          "internalType": "uint256",
          "name": "amount",
          "type": "uint256"
        },
        {
          "internalType": "bytes32",
          "name": "nullifier",
          "type": "bytes32"
        }
      ],
      "name": "borrow",
      "outputs": [],
      "stateMutability": "payable",
      "type": "function"
    },
    {
      "inputs": [
        {
          "internalType": "uint256",
          "name": "",
          "type": "uint256"
        }
      ],
      "name": "borrowTierConfigs",
      "outputs": [
        {
          "internalType": "uint256",
          "name": "minScore",
          "type": "uint256"
        },
        {
          "internalType": "uint256",
          "name": "maxScore",
          "type": "uint256"
        },
        {
          "internalType": "uint256",
          "name": "collateralRatio",
          "type": "uint256"
        },
        {
          "internalType": "int256",
          "name": "interestRateModifier",
          "type": "int256"
        },
        {
          "internalType": "uint256",
          "name": "maxLoanAmount",
          "type": "uint256"
        }
      ],
      "stateMutability": "view",
      "type": "function"
    },
    {
      "inputs": [
        {
          "internalType": "address",
          "name": "",
          "type": "address"
        }
      ],
      "name": "borrowTimestamp",
      "outputs": [
        {
          "internalType": "uint256",
          "name": "",
          "type": "uint256"
        }
      ],
      "stateMutability": "view",
      "type": "function"
    },
    {
      "inputs": [
        {
          "internalType": "enum LiquidityPool.RiskTier",
          "name": "",
          "type": "uint8"
        }
      ],
      "name": "borrowedAmountByRiskTier",
      "outputs": [
        {
          "internalType": "uint256",
          "name": "",
          "type": "uint256"
        }
      ],
      "stateMutability": "view",
      "type": "function"
    },
    {
      "inputs": [
        {
          "internalType": "address",
          "name": "user",
          "type": "address"
        }
      ],
      "name": "calculateBorrowCapacity",
      "outputs": [
        {
          "internalType": "uint256",
          "name": "",
          "type": "uint256"
        }
      ],
      "stateMutability": "view",
      "type": "function"
    },
    {
      "inputs": [
        {
          "internalType": "address",
          "name": "user",
          "type": "address"
        }
      ],
      "name": "calculateCollateralValue",
      "outputs": [
        {
          "internalType": "uint256",
          "name": "",
          "type": "uint256"
        }
      ],
      "stateMutability": "view",
      "type": "function"
    },
    {
      "inputs": [
        {
          "internalType": "address",
          "name": "user",
          "type": "address"
        }
      ],
      "name": "calculateHealthFactor",
      "outputs": [
        {
          "internalType": "uint256",
          "name": "",
          "type": "uint256"
        }
      ],
      "stateMutability": "view",
      "type": "function"
    },
    {
      "inputs": [
        {
          "internalType": "address",
          "name": "user",
          "type": "address"
        }
      ],
      "name": "calculateLiquidation",
      "outputs": [
        {
          "internalType": "uint256",
          "name": "",
          "type": "uint256"
        },
        {
          "internalType": "uint256",
          "name": "",
          "type": "uint256"
        }
      ],
      "stateMutability": "view",
      "type": "function"
    },
    {
      "inputs": [
        {
          "internalType": "address",
          "name": "user",
          "type": "address"
        }
      ],
      "name": "calculateUserDebt",
      "outputs": [
        {
          "internalType": "uint256",
          "name": "",
          "type": "uint256"
        }
      ],
      "stateMutability": "view",
      "type": "function"
    },
    {
      "inputs": [
        {
          "internalType": "address",
          "name": "user",
          "type": "address"
        }
      ],
      "name": "canLend",
      "outputs": [
        {
          "internalType": "bool",
          "name": "",
          "type": "bool"
        }
      ],
      "stateMutability": "view",
      "type": "function"
    },
    {
      "inputs": [],
      "name": "checkCircuitBreakers",
      "outputs": [],
      "stateMutability": "nonpayable",
      "type": "function"
    },
    {
      "inputs": [
        {
          "internalType": "address",
          "name": "user",
          "type": "address"
        }
      ],
      "name": "checkCollateralization",
      "outputs": [
        {
          "internalType": "bool",
          "name": "isHealthy",
          "type": "bool"
        },
        {
          "internalType": "uint256",
          "name": "ratio",
          "type": "uint256"
        }
      ],
      "stateMutability": "view",
      "type": "function"
    },
    {
      "inputs": [
        {
          "internalType": "bytes",
          "name": "",
          "type": "bytes"
        }
      ],
      "name": "checkUpkeep",
      "outputs": [
        {
          "internalType": "bool",
          "name": "upkeepNeeded",
          "type": "bool"
        },
        {
          "internalType": "bytes",
          "name": "performData",
          "type": "bytes"
        }
      ],
      "stateMutability": "view",
      "type": "function"
    },
    {
      "inputs": [
        {
          "internalType": "address",
          "name": "token",
          "type": "address"
        },
        {
          "internalType": "address",
          "name": "user",
          "type": "address"
        },
        {
          "internalType": "address",
          "name": "to",
          "type": "address"
        },
        {
          "internalType": "uint256",
          "name": "amount",
          "type": "uint256"
        }
      ],
      "name": "clearCollateral",
      "outputs": [],
      "stateMutability": "nonpayable",
      "type": "function"
    },
    {
      "inputs": [
        {
          "internalType": "address",
          "name": "user",
          "type": "address"
        },
        {
          "internalType": "uint256",
          "name": "amount",
          "type": "uint256"
        }
      ],
      "name": "clearDebt",
      "outputs": [],
      "stateMutability": "nonpayable",
      "type": "function"
    },
    {
      "inputs": [
        {
          "internalType": "address",
          "name": "",
          "type": "address"
        },
        {
          "internalType": "address",
          "name": "",
          "type": "address"
        }
      ],
      "name": "collateralBalance",
      "outputs": [
        {
          "internalType": "uint256",
          "name": "",
          "type": "uint256"
        }
      ],
      "stateMutability": "view",
      "type": "function"
    },
    {
      "inputs": [
        {
          "internalType": "uint256",
          "name": "",
          "type": "uint256"
        }
      ],
      "name": "collateralTokenList",
      "outputs": [
        {
          "internalType": "address",
          "name": "",
          "type": "address"
        }
      ],
      "stateMutability": "view",
      "type": "function"
    },
    {
      "inputs": [
        {
          "internalType": "uint64",
          "name": "ficoScore",
          "type": "uint64"
        }
      ],
      "name": "convertFICOToContractScore",
      "outputs": [
        {
          "internalType": "uint256",
          "name": "",
          "type": "uint256"
        }
      ],
      "stateMutability": "pure",
      "type": "function"
    },
    {
      "inputs": [
        {
          "internalType": "address",
          "name": "",
          "type": "address"
        }
      ],
      "name": "creditScore",
      "outputs": [
        {
          "internalType": "uint256",
          "name": "",
          "type": "uint256"
        }
      ],
      "stateMutability": "view",
      "type": "function"
    },
    {
      "inputs": [],
      "name": "creditScoreContract",
      "outputs": [
        {
          "internalType": "contract ICreditScore",
          "name": "",
          "type": "address"
        }
      ],
      "stateMutability": "view",
      "type": "function"
    },
    {
      "inputs": [],
      "name": "creditSystem",
      "outputs": [
        {
          "internalType": "contract IntegratedCreditSystem",
          "name": "",
          "type": "address"
        }
      ],
      "stateMutability": "view",
      "type": "function"
    },
    {
      "inputs": [
        {
          "internalType": "address",
          "name": "token",
          "type": "address"
        },
        {
          "internalType": "uint256",
          "name": "amount",
          "type": "uint256"
        }
      ],
      "name": "depositCollateral",
      "outputs": [],
      "stateMutability": "nonpayable",
      "type": "function"
    },
    {
      "inputs": [
        {
          "internalType": "uint256",
          "name": "amount",
          "type": "uint256"
        },
        {
          "internalType": "address payable",
          "name": "to",
          "type": "address"
        }
      ],
      "name": "extract",
      "outputs": [],
      "stateMutability": "nonpayable",
      "type": "function"
    },
    {
      "inputs": [],
      "name": "getAdmin",
      "outputs": [
        {
          "internalType": "address",
          "name": "",
          "type": "address"
        }
      ],
      "stateMutability": "view",
      "type": "function"
    },
    {
      "inputs": [],
      "name": "getAllCollateralTokens",
      "outputs": [
        {
          "internalType": "address[]",
          "name": "",
          "type": "address[]"
        }
      ],
      "stateMutability": "view",
      "type": "function"
    },
    {
      "inputs": [],
      "name": "getAllUsers",
      "outputs": [
        {
          "internalType": "address[]",
          "name": "",
          "type": "address[]"
        }
      ],
      "stateMutability": "view",
      "type": "function"
    },
    {
      "inputs": [],
      "name": "getAllowedCollateralTokens",
      "outputs": [
        {
          "internalType": "address[]",
          "name": "",
          "type": "address[]"
        }
      ],
      "stateMutability": "view",
      "type": "function"
    },
    {
      "inputs": [],
      "name": "getAvailableLiquidity",
      "outputs": [
        {
          "internalType": "uint256",
          "name": "",
          "type": "uint256"
        }
      ],
      "stateMutability": "view",
      "type": "function"
    },
    {
      "inputs": [],
      "name": "getBalance",
      "outputs": [
        {
          "internalType": "uint256",
          "name": "",
          "type": "uint256"
        }
      ],
      "stateMutability": "view",
      "type": "function"
    },
    {
      "inputs": [],
      "name": "getBorrowRate",
      "outputs": [
        {
          "internalType": "uint256",
          "name": "",
          "type": "uint256"
        }
      ],
      "stateMutability": "pure",
      "type": "function"
    },
    {
      "inputs": [
        {
          "internalType": "address",
          "name": "user",
          "type": "address"
        }
      ],
      "name": "getBorrowTerms",
      "outputs": [
        {
          "internalType": "uint256",
          "name": "collateralRatio",
          "type": "uint256"
        },
        {
          "internalType": "int256",
          "name": "interestRateModifier",
          "type": "int256"
        },
        {
          "internalType": "uint256",
          "name": "maxLoanAmount",
          "type": "uint256"
        }
      ],
      "stateMutability": "view",
      "type": "function"
    },
    {
      "inputs": [
        {
          "internalType": "address",
          "name": "user",
          "type": "address"
        }
      ],
      "name": "getBorrowerRate",
      "outputs": [
        {
          "internalType": "uint256",
          "name": "",
          "type": "uint256"
        }
      ],
      "stateMutability": "view",
      "type": "function"
    },
    {
      "inputs": [
        {
          "internalType": "address",
          "name": "user",
          "type": "address"
        },
        {
          "internalType": "address",
          "name": "token",
          "type": "address"
        }
      ],
      "name": "getCollateral",
      "outputs": [
        {
          "internalType": "uint256",
          "name": "",
          "type": "uint256"
        }
      ],
      "stateMutability": "view",
      "type": "function"
    },
    {
      "inputs": [
        {
          "internalType": "address",
          "name": "user",
          "type": "address"
        }
      ],
      "name": "getCreditScore",
      "outputs": [
        {
          "internalType": "uint256",
          "name": "",
          "type": "uint256"
        }
      ],
      "stateMutability": "view",
      "type": "function"
    },
    {
      "inputs": [
        {
          "internalType": "address",
          "name": "user",
          "type": "address"
        }
      ],
      "name": "getCreditScoreWithSource",
      "outputs": [
        {
          "internalType": "uint256",
          "name": "score",
          "type": "uint256"
        },
        {
          "internalType": "string",
          "name": "source",
          "type": "string"
        },
        {
          "internalType": "bool",
          "name": "isVerified",
          "type": "bool"
        }
      ],
      "stateMutability": "view",
      "type": "function"
    },
    {
      "inputs": [],
      "name": "getExchangeRate",
      "outputs": [
        {
          "internalType": "uint256",
          "name": "",
          "type": "uint256"
        }
      ],
      "stateMutability": "pure",
      "type": "function"
    },
    {
      "inputs": [],
      "name": "getGlobalRiskMultiplier",
      "outputs": [
        {
          "internalType": "uint256",
          "name": "",
          "type": "uint256"
        }
      ],
      "stateMutability": "pure",
      "type": "function"
    },
    {
      "inputs": [
        {
          "internalType": "address",
          "name": "token",
          "type": "address"
        }
      ],
      "name": "getLTV",
      "outputs": [
        {
          "internalType": "uint256",
          "name": "",
          "type": "uint256"
        }
      ],
      "stateMutability": "view",
      "type": "function"
    },
    {
      "inputs": [
        {
          "internalType": "address",
          "name": "user",
          "type": "address"
        }
      ],
      "name": "getLoan",
      "outputs": [
        {
          "components": [
            {
              "internalType": "uint256",
              "name": "principal",
              "type": "uint256"
            },
            {
              "internalType": "uint256",
              "name": "outstanding",
              "type": "uint256"
            },
            {
              "internalType": "uint256",
              "name": "interestRate",
              "type": "uint256"
            },
            {
              "internalType": "uint256",
              "name": "nextDueDate",
              "type": "uint256"
            },
            {
              "internalType": "uint256",
              "name": "installmentAmount",
              "type": "uint256"
            },
            {
              "internalType": "uint256",
              "name": "penaltyBps",
              "type": "uint256"
            },
            {
              "internalType": "bool",
              "name": "active",
              "type": "bool"
            }
          ],
          "internalType": "struct LiquidityPool.Loan",
          "name": "",
          "type": "tuple"
        }
      ],
      "stateMutability": "view",
      "type": "function"
    },
    {
      "inputs": [],
      "name": "getMinCollateralRatio",
      "outputs": [
        {
          "internalType": "uint256",
          "name": "",
          "type": "uint256"
        }
      ],
      "stateMutability": "pure",
      "type": "function"
    },
    {
      "inputs": [],
      "name": "getMyDebt",
      "outputs": [
        {
          "internalType": "uint256",
          "name": "",
          "type": "uint256"
        }
      ],
      "stateMutability": "view",
      "type": "function"
    },
    {
      "inputs": [
        {
          "internalType": "address",
          "name": "token",
          "type": "address"
        }
      ],
      "name": "getPriceFeed",
      "outputs": [
        {
          "internalType": "address",
          "name": "",
          "type": "address"
        }
      ],
      "stateMutability": "view",
      "type": "function"
    },
    {
      "inputs": [],
      "name": "getProtocolReserves",
      "outputs": [
        {
          "internalType": "uint256",
          "name": "",
          "type": "uint256"
        }
      ],
      "stateMutability": "view",
      "type": "function"
    },
    {
      "inputs": [],
      "name": "getReserveFactor",
      "outputs": [
        {
          "internalType": "uint256",
          "name": "",
          "type": "uint256"
        }
      ],
      "stateMutability": "pure",
      "type": "function"
    },
    {
      "inputs": [
        {
          "internalType": "address",
          "name": "user",
          "type": "address"
        }
      ],
      "name": "getRiskTier",
      "outputs": [
        {
          "internalType": "enum LiquidityPool.RiskTier",
          "name": "",
          "type": "uint8"
        }
      ],
      "stateMutability": "view",
      "type": "function"
    },
    {
      "inputs": [
        {
          "internalType": "bytes32",
          "name": "role",
          "type": "bytes32"
        }
      ],
      "name": "getRoleAdmin",
      "outputs": [
        {
          "internalType": "bytes32",
          "name": "",
          "type": "bytes32"
        }
      ],
      "stateMutability": "view",
      "type": "function"
    },
    {
      "inputs": [],
      "name": "getSupplyRate",
      "outputs": [
        {
          "internalType": "uint256",
          "name": "",
          "type": "uint256"
        }
      ],
      "stateMutability": "pure",
      "type": "function"
    },
    {
      "inputs": [
        {
          "internalType": "address",
          "name": "token",
          "type": "address"
        }
      ],
      "name": "getTokenValue",
      "outputs": [
        {
          "internalType": "uint256",
          "name": "",
          "type": "uint256"
        }
      ],
      "stateMutability": "view",
      "type": "function"
    },
    {
      "inputs": [],
      "name": "getTotalBorrows",
      "outputs": [
        {
          "internalType": "uint256",
          "name": "",
          "type": "uint256"
        }
      ],
      "stateMutability": "view",
      "type": "function"
    },
    {
      "inputs": [
        {
          "internalType": "address",
          "name": "user",
          "type": "address"
        }
      ],
      "name": "getTotalCollateralValue",
      "outputs": [
        {
          "internalType": "uint256",
          "name": "",
          "type": "uint256"
        }
      ],
      "stateMutability": "view",
      "type": "function"
    },
    {
      "inputs": [],
      "name": "getTotalSupply",
      "outputs": [
        {
          "internalType": "uint256",
          "name": "",
          "type": "uint256"
        }
      ],
      "stateMutability": "view",
      "type": "function"
    },
    {
      "inputs": [],
      "name": "getUtilizationRate",
      "outputs": [
        {
          "internalType": "uint256",
          "name": "",
          "type": "uint256"
        }
      ],
      "stateMutability": "view",
      "type": "function"
    },
    {
      "inputs": [
        {
          "internalType": "address",
          "name": "user",
          "type": "address"
        }
      ],
      "name": "getZKVerificationStatus",
      "outputs": [
        {
          "internalType": "bool",
          "name": "hasTradFi",
          "type": "bool"
        },
        {
          "internalType": "bool",
          "name": "hasAccount",
          "type": "bool"
        },
        {
          "internalType": "bool",
          "name": "hasNesting",
          "type": "bool"
        },
        {
          "internalType": "uint256",
          "name": "finalScore",
          "type": "uint256"
        },
        {
          "internalType": "bool",
          "name": "isEligible",
          "type": "bool"
        }
      ],
      "stateMutability": "view",
      "type": "function"
    },
    {
      "inputs": [
        {
          "internalType": "bytes32",
          "name": "role",
          "type": "bytes32"
        },
        {
          "internalType": "address",
          "name": "account",
          "type": "address"
        }
      ],
      "name": "grantRole",
      "outputs": [],
      "stateMutability": "nonpayable",
      "type": "function"
    },
    {
      "inputs": [
        {
          "internalType": "bytes32",
          "name": "role",
          "type": "bytes32"
        },
        {
          "internalType": "address",
          "name": "account",
          "type": "address"
        }
      ],
      "name": "hasRole",
      "outputs": [
        {
          "internalType": "bool",
          "name": "",
          "type": "bool"
        }
      ],
      "stateMutability": "view",
      "type": "function"
    },
    {
      "inputs": [
        {
          "internalType": "address",
          "name": "user",
          "type": "address"
        }
      ],
      "name": "hasValidRISC0Score",
      "outputs": [
        {
          "internalType": "bool",
          "name": "hasValidScore",
          "type": "bool"
        },
        {
          "internalType": "uint256",
          "name": "score",
          "type": "uint256"
        },
        {
          "internalType": "uint256",
          "name": "timestamp",
          "type": "uint256"
        }
      ],
      "stateMutability": "view",
      "type": "function"
    },
    {
      "inputs": [
        {
          "internalType": "address",
          "name": "_timelock",
          "type": "address"
        },
        {
          "internalType": "address",
          "name": "_stablecoinManager",
          "type": "address"
        },
        {
          "internalType": "address",
          "name": "_lendingManager",
          "type": "address"
        },
        {
          "internalType": "address",
          "name": "_interestRateModel",
          "type": "address"
        },
        {
          "internalType": "address",
          "name": "_creditSystem",
          "type": "address"
        },
        {
          "internalType": "address",
          "name": "_nullifierRegistry",
          "type": "address"
        }
      ],
      "name": "initialize",
      "outputs": [],
      "stateMutability": "nonpayable",
      "type": "function"
    },
    {
      "inputs": [],
      "name": "interestRateModel",
      "outputs": [
        {
          "internalType": "contract InterestRateModel",
          "name": "",
          "type": "address"
        }
      ],
      "stateMutability": "view",
      "type": "function"
    },
    {
      "inputs": [
        {
          "internalType": "address",
          "name": "",
          "type": "address"
        }
      ],
      "name": "isAllowedCollateral",
      "outputs": [
        {
          "internalType": "bool",
          "name": "",
          "type": "bool"
        }
      ],
      "stateMutability": "view",
      "type": "function"
    },
    {
      "inputs": [
        {
          "internalType": "address",
          "name": "",
          "type": "address"
        }
      ],
      "name": "isKnownUser",
      "outputs": [
        {
          "internalType": "bool",
          "name": "",
          "type": "bool"
        }
      ],
      "stateMutability": "view",
      "type": "function"
    },
    {
      "inputs": [
        {
          "internalType": "address",
          "name": "",
          "type": "address"
        }
      ],
      "name": "isLiquidatable",
      "outputs": [
        {
          "internalType": "bool",
          "name": "",
          "type": "bool"
        }
      ],
      "stateMutability": "view",
      "type": "function"
    },
    {
      "inputs": [],
      "name": "isPaused",
      "outputs": [
        {
          "internalType": "bool",
          "name": "",
          "type": "bool"
        }
      ],
      "stateMutability": "view",
      "type": "function"
    },
    {
      "inputs": [],
      "name": "lastUpkeep",
      "outputs": [
        {
          "internalType": "uint256",
          "name": "",
          "type": "uint256"
        }
      ],
      "stateMutability": "view",
      "type": "function"
    },
    {
      "inputs": [],
      "name": "lendingManager",
      "outputs": [
        {
          "internalType": "contract LendingManager",
          "name": "",
          "type": "address"
        }
      ],
      "stateMutability": "view",
      "type": "function"
    },
    {
      "inputs": [
        {
          "internalType": "address",
          "name": "user",
          "type": "address"
        }
      ],
      "name": "liquidationInfo",
      "outputs": [
        {
          "internalType": "bool",
          "name": "",
          "type": "bool"
        },
        {
          "internalType": "uint256",
          "name": "",
          "type": "uint256"
        },
        {
          "internalType": "uint256",
          "name": "",
          "type": "uint256"
        }
      ],
      "stateMutability": "view",
      "type": "function"
    },
    {
      "inputs": [
        {
          "internalType": "address",
          "name": "",
          "type": "address"
        }
      ],
      "name": "liquidationStartTime",
      "outputs": [
        {
          "internalType": "uint256",
          "name": "",
          "type": "uint256"
        }
      ],
      "stateMutability": "view",
      "type": "function"
    },
    {
      "inputs": [],
      "name": "liquidator",
      "outputs": [
        {
          "internalType": "address",
          "name": "",
          "type": "address"
        }
      ],
      "stateMutability": "view",
      "type": "function"
    },
    {
      "inputs": [
        {
          "internalType": "address",
          "name": "",
          "type": "address"
        }
      ],
      "name": "loans",
      "outputs": [
        {
          "internalType": "uint256",
          "name": "principal",
          "type": "uint256"
        },
        {
          "internalType": "uint256",
          "name": "outstanding",
          "type": "uint256"
        },
        {
          "internalType": "uint256",
          "name": "interestRate",
          "type": "uint256"
        },
        {
          "internalType": "uint256",
          "name": "nextDueDate",
          "type": "uint256"
        },
        {
          "internalType": "uint256",
          "name": "installmentAmount",
          "type": "uint256"
        },
        {
          "internalType": "uint256",
          "name": "penaltyBps",
          "type": "uint256"
        },
        {
          "internalType": "bool",
          "name": "active",
          "type": "bool"
        }
      ],
      "stateMutability": "view",
      "type": "function"
    },
    {
      "inputs": [],
      "name": "locked",
      "outputs": [
        {
          "internalType": "bool",
          "name": "",
          "type": "bool"
        }
      ],
      "stateMutability": "view",
      "type": "function"
    },
    {
      "inputs": [
        {
          "internalType": "address",
          "name": "",
          "type": "address"
        }
      ],
      "name": "maxPriceAge",
      "outputs": [
        {
          "internalType": "uint256",
          "name": "",
          "type": "uint256"
        }
      ],
      "stateMutability": "view",
      "type": "function"
    },
    {
      "inputs": [],
      "name": "minPartialLiquidationAmount",
      "outputs": [
        {
          "internalType": "uint256",
          "name": "",
          "type": "uint256"
        }
      ],
      "stateMutability": "view",
      "type": "function"
    },
    {
      "inputs": [],
      "name": "nullifierRegistry",
      "outputs": [
        {
          "internalType": "contract NullifierRegistry",
          "name": "",
          "type": "address"
        }
      ],
      "stateMutability": "view",
      "type": "function"
    },
    {
      "inputs": [],
      "name": "paused",
      "outputs": [
        {
          "internalType": "bool",
          "name": "",
          "type": "bool"
        }
      ],
      "stateMutability": "view",
      "type": "function"
    },
    {
      "inputs": [
        {
          "internalType": "bytes",
          "name": "performData",
          "type": "bytes"
        }
      ],
      "name": "performUpkeep",
      "outputs": [],
      "stateMutability": "nonpayable",
      "type": "function"
    },
    {
      "inputs": [
        {
          "internalType": "address",
          "name": "",
          "type": "address"
        }
      ],
      "name": "priceFeed",
      "outputs": [
        {
          "internalType": "address",
          "name": "",
          "type": "address"
        }
      ],
      "stateMutability": "view",
      "type": "function"
    },
    {
      "inputs": [
        {
          "internalType": "address",
          "name": "token",
          "type": "address"
        },
        {
          "internalType": "uint256",
          "name": "amount",
          "type": "uint256"
        }
      ],
      "name": "recoverFromLiquidation",
      "outputs": [],
      "stateMutability": "nonpayable",
      "type": "function"
    },
    {
      "inputs": [
        {
          "internalType": "bytes32",
          "name": "role",
          "type": "bytes32"
        },
        {
          "internalType": "address",
          "name": "account",
          "type": "address"
        }
      ],
      "name": "renounceRole",
      "outputs": [],
      "stateMutability": "nonpayable",
      "type": "function"
    },
    {
      "inputs": [],
      "name": "repay",
      "outputs": [],
      "stateMutability": "payable",
      "type": "function"
    },
    {
      "inputs": [],
      "name": "repayInstallment",
      "outputs": [],
      "stateMutability": "payable",
      "type": "function"
    },
    {
      "inputs": [],
      "name": "reserveAddress",
      "outputs": [
        {
          "internalType": "address",
          "name": "",
          "type": "address"
        }
      ],
      "stateMutability": "view",
      "type": "function"
    },
    {
      "inputs": [
        {
          "internalType": "bytes32",
          "name": "role",
          "type": "bytes32"
        },
        {
          "internalType": "address",
          "name": "account",
          "type": "address"
        }
      ],
      "name": "revokeRole",
      "outputs": [],
      "stateMutability": "nonpayable",
      "type": "function"
    },
    {
      "inputs": [
        {
          "internalType": "address",
          "name": "newAdmin",
          "type": "address"
        }
      ],
      "name": "setAdmin",
      "outputs": [],
      "stateMutability": "nonpayable",
      "type": "function"
    },
    {
      "inputs": [
        {
          "internalType": "address",
          "name": "token",
          "type": "address"
        },
        {
          "internalType": "bool",
          "name": "allowed",
          "type": "bool"
        }
      ],
      "name": "setAllowedCollateral",
      "outputs": [],
      "stateMutability": "nonpayable",
      "type": "function"
    },
    {
      "inputs": [
        {
          "internalType": "address",
          "name": "user",
          "type": "address"
        },
        {
          "internalType": "uint256",
          "name": "score",
          "type": "uint256"
        }
      ],
      "name": "setCreditScore",
      "outputs": [],
      "stateMutability": "nonpayable",
      "type": "function"
    },
    {
      "inputs": [
        {
          "internalType": "address",
          "name": "_creditScoreContract",
          "type": "address"
        }
      ],
      "name": "setCreditScoreContract",
      "outputs": [],
      "stateMutability": "nonpayable",
      "type": "function"
    },
    {
      "inputs": [
        {
          "internalType": "address",
          "name": "_creditSystem",
          "type": "address"
        }
      ],
      "name": "setCreditSystem",
      "outputs": [],
      "stateMutability": "nonpayable",
      "type": "function"
    },
    {
      "inputs": [
        {
          "internalType": "address",
          "name": "_lendingManager",
          "type": "address"
        }
      ],
      "name": "setLendingManager",
      "outputs": [],
      "stateMutability": "nonpayable",
      "type": "function"
    },
    {
      "inputs": [
        {
          "internalType": "address",
          "name": "_liquidator",
          "type": "address"
        }
      ],
      "name": "setLiquidator",
      "outputs": [],
      "stateMutability": "nonpayable",
      "type": "function"
    },
    {
      "inputs": [
        {
          "internalType": "address",
          "name": "token",
          "type": "address"
        },
        {
          "internalType": "uint256",
          "name": "age",
          "type": "uint256"
        }
      ],
      "name": "setMaxPriceAge",
      "outputs": [],
      "stateMutability": "nonpayable",
      "type": "function"
    },
    {
      "inputs": [
        {
          "internalType": "uint256",
          "name": "amount",
          "type": "uint256"
        }
      ],
      "name": "setMinPartialLiquidationAmount",
      "outputs": [],
      "stateMutability": "nonpayable",
      "type": "function"
    },
    {
      "inputs": [
        {
          "internalType": "address",
          "name": "token",
          "type": "address"
        },
        {
          "internalType": "address",
          "name": "feed",
          "type": "address"
        }
      ],
      "name": "setPriceFeed",
      "outputs": [],
      "stateMutability": "nonpayable",
      "type": "function"
    },
    {
      "inputs": [
        {
          "internalType": "address",
          "name": "_reserve",
          "type": "address"
        }
      ],
      "name": "setReserveAddress",
      "outputs": [],
      "stateMutability": "nonpayable",
      "type": "function"
    },
    {
      "inputs": [
        {
          "internalType": "uint256",
          "name": "tier",
          "type": "uint256"
        },
        {
          "internalType": "uint256",
          "name": "originationFee",
          "type": "uint256"
        },
        {
          "internalType": "uint256",
          "name": "lateFeeAPR",
          "type": "uint256"
        }
      ],
      "name": "setTierFee",
      "outputs": [],
      "stateMutability": "nonpayable",
      "type": "function"
    },
    {
      "inputs": [
        {
          "internalType": "address",
          "name": "_votingToken",
          "type": "address"
        }
      ],
      "name": "setVotingToken",
      "outputs": [],
      "stateMutability": "nonpayable",
      "type": "function"
    },
    {
      "inputs": [
        {
          "internalType": "bool",
          "name": "required",
          "type": "bool"
        }
      ],
      "name": "setZKProofRequirement",
      "outputs": [],
      "stateMutability": "nonpayable",
      "type": "function"
    },
    {
      "inputs": [],
      "name": "stablecoinManager",
      "outputs": [
        {
          "internalType": "contract StablecoinManager",
          "name": "",
          "type": "address"
        }
      ],
      "stateMutability": "view",
      "type": "function"
    },
    {
      "inputs": [
        {
          "internalType": "address",
          "name": "user",
          "type": "address"
        }
      ],
      "name": "startLiquidation",
      "outputs": [],
      "stateMutability": "nonpayable",
      "type": "function"
    },
    {
      "inputs": [
        {
          "internalType": "bytes4",
          "name": "interfaceId",
          "type": "bytes4"
        }
      ],
      "name": "supportsInterface",
      "outputs": [
        {
          "internalType": "bool",
          "name": "",
          "type": "bool"
        }
      ],
      "stateMutability": "view",
      "type": "function"
    },
    {
      "inputs": [
        {
          "internalType": "uint256",
          "name": "",
          "type": "uint256"
        }
      ],
      "name": "tierFees",
      "outputs": [
        {
          "internalType": "uint256",
          "name": "originationFee",
          "type": "uint256"
        },
        {
          "internalType": "uint256",
          "name": "lateFeeAPR",
          "type": "uint256"
        }
      ],
      "stateMutability": "view",
      "type": "function"
    },
    {
      "inputs": [],
      "name": "timelock",
      "outputs": [
        {
          "internalType": "address",
          "name": "",
          "type": "address"
        }
      ],
      "stateMutability": "view",
      "type": "function"
    },
    {
      "inputs": [],
      "name": "togglePause",
      "outputs": [],
      "stateMutability": "nonpayable",
      "type": "function"
    },
    {
      "inputs": [
        {
          "internalType": "bool",
          "name": "_useRISC0",
          "type": "bool"
        }
      ],
      "name": "toggleRISC0CreditScores",
      "outputs": [],
      "stateMutability": "nonpayable",
      "type": "function"
    },
    {
      "inputs": [],
      "name": "toggleZKProofRequirement",
      "outputs": [],
      "stateMutability": "nonpayable",
      "type": "function"
    },
    {
      "inputs": [],
      "name": "totalBorrowedAllTime",
      "outputs": [
        {
          "internalType": "uint256",
          "name": "",
          "type": "uint256"
        }
      ],
      "stateMutability": "view",
      "type": "function"
    },
    {
      "inputs": [],
      "name": "totalFunds",
      "outputs": [
        {
          "internalType": "uint256",
          "name": "",
          "type": "uint256"
        }
      ],
      "stateMutability": "view",
      "type": "function"
    },
    {
      "inputs": [],
      "name": "totalRepaidAllTime",
      "outputs": [
        {
          "internalType": "uint256",
          "name": "",
          "type": "uint256"
        }
      ],
      "stateMutability": "view",
      "type": "function"
    },
    {
      "inputs": [
        {
          "internalType": "uint256",
          "name": "tierIndex",
          "type": "uint256"
        },
        {
          "internalType": "uint256",
          "name": "minScore",
          "type": "uint256"
        },
        {
          "internalType": "uint256",
          "name": "maxScore",
          "type": "uint256"
        },
        {
          "internalType": "uint256",
          "name": "collateralRatio",
          "type": "uint256"
        },
        {
          "internalType": "int256",
          "name": "interestRateModifier",
          "type": "int256"
        },
        {
          "internalType": "uint256",
          "name": "maxLoanAmount",
          "type": "uint256"
        }
      ],
      "name": "updateBorrowTier",
      "outputs": [],
      "stateMutability": "nonpayable",
      "type": "function"
    },
    {
      "inputs": [
        {
          "internalType": "address",
          "name": "user",
          "type": "address"
        },
        {
          "internalType": "uint256",
          "name": "score",
          "type": "uint256"
        }
      ],
      "name": "updateCreditScoreFromZK",
      "outputs": [],
      "stateMutability": "nonpayable",
      "type": "function"
    },
    {
      "inputs": [],
      "name": "useRISC0CreditScores",
      "outputs": [
        {
          "internalType": "bool",
          "name": "",
          "type": "bool"
        }
      ],
      "stateMutability": "view",
      "type": "function"
    },
    {
      "inputs": [
        {
          "internalType": "address",
          "name": "",
          "type": "address"
        }
      ],
      "name": "userDebt",
      "outputs": [
        {
          "internalType": "uint256",
          "name": "",
          "type": "uint256"
        }
      ],
      "stateMutability": "view",
      "type": "function"
    },
    {
      "inputs": [
        {
          "internalType": "address",
          "name": "user",
          "type": "address"
        }
      ],
      "name": "userPositions",
      "outputs": [
        {
          "internalType": "uint256",
          "name": "",
          "type": "uint256"
        },
        {
          "internalType": "uint256",
          "name": "",
          "type": "uint256"
        },
        {
          "internalType": "uint256",
          "name": "",
          "type": "uint256"
        }
      ],
      "stateMutability": "view",
      "type": "function"
    },
    {
      "inputs": [
        {
          "internalType": "uint256",
          "name": "",
          "type": "uint256"
        }
      ],
      "name": "users",
      "outputs": [
        {
          "internalType": "address",
          "name": "",
          "type": "address"
        }
      ],
      "stateMutability": "view",
      "type": "function"
    },
    {
      "inputs": [],
      "name": "votingToken",
      "outputs": [
        {
          "internalType": "contract VotingToken",
          "name": "",
          "type": "address"
        }
      ],
      "stateMutability": "view",
      "type": "function"
    },
    {
      "inputs": [
        {
          "internalType": "address",
          "name": "token",
          "type": "address"
        },
        {
          "internalType": "uint256",
          "name": "amount",
          "type": "uint256"
        }
      ],
      "name": "withdrawCollateral",
      "outputs": [],
      "stateMutability": "nonpayable",
      "type": "function"
    },
    {
      "inputs": [
        {
          "internalType": "uint256",
          "name": "amount",
          "type": "uint256"
        }
      ],
      "name": "withdrawForLendingManager",
      "outputs": [],
      "stateMutability": "nonpayable",
      "type": "function"
    },
    {
      "inputs": [
        {
          "internalType": "address",
          "name": "token",
          "type": "address"
        },
        {
          "internalType": "uint256",
          "name": "amount",
          "type": "uint256"
        }
      ],
      "name": "withdrawPartialCollateral",
      "outputs": [],
      "stateMutability": "nonpayable",
      "type": "function"
    },
    {
      "inputs": [],
      "name": "zkProofRequired",
      "outputs": [
        {
          "internalType": "bool",
          "name": "",
          "type": "bool"
        }
      ],
      "stateMutability": "view",
      "type": "function"
    },
    {
      "stateMutability": "payable",
      "type": "receive"
    }
  ],
  "bytecode": "0x6080806040523461001757615f1b90816200001c8239f35b5f80fdfe6080604081815260048036101561002f575b505050361561001e575f80fd5b61002a3460a254614b22565b60a255005b5f925f3560e01c90816301c76f811461479f5750806301ffc9a71461474c578063042e02cf1461471057806305510b9114614647578063080d9c2b146145085780630835e145146144e85780630b044c79146144cc5780630ef7fb67146144b157806312065fe0146124325780631459457a146141a457806314673d31146140f15780631bfe4261146140b75780631fd48b9a1461407e57806320dfcae114613dd057806323fe5a3314613db8578063248a9ca314613d8d5780632a28ec4414613d0c5780632f2ff15d14613c6a57806330332f9f14613bf157806333481fc914613b07578063350c35e914613878578063357619a91461383e57806335f679811461381257806336568abe14613780578063365b98b21461375757806338053ef3146137205780633d7c5d3e14613702578063402d8883146134d55780634046ebae146134a8578063418eea311461346d578063450a375a146134475780634585e33b1461328e578063488683cd146132535780634a417a53146132365780634c8f35ab14611b615780634c95da661461320257806352226ef0146131b757806355f4d9e214613055578063594ad93f146130375780635a70348f146129eb5780635b66e7fc1461301a5780635b6cca8014612fc95780635c44f10d14612fad5780635c975abb14611c875780635f558e5314612f91578063613cf42014612f385780636579b73e14612f0057806368272ecc14612e875780636c648fc414612e615780636e04ff0d14612c875780636e9960c31461110d578063704b6c0214612bf657806370ed11bc14612b9857806372ed9f7b14612a295780637346f486146129eb57806373b4086b1461297057806376e11286146128ef57806378974cbb1461285b5780637a8ce68b14612820578063802937ac1461280157806383475f0c146127c657806383ae734514611bde57806384bdc9a8146127a457806386d785e6146127575780638e6b53bc1461272557806391d14854146126e257806393a517a2146126695780639490a51e1461262b57806395eb0d15146125fd578063962a0da5146125c2578063968ed60014611a2e57806397ed81cf146124ad5780639ac77e1b146124375780639b745aec146124325780639b8621d5146124165780639ce625f7146123f05780639e3b77af146123c7578063a217fddf146123ac578063a36e4ad61461211b578063a5d5db0c14611eb1578063a75b24c714611df2578063a787572e14611d9d578063a814519114611d26578063a89ef5ca14611cfd578063a8cf4b5214610d16578063aca25f9a14611cd7578063b034012314611cae578063b187bd2614611c87578063b3075fb714611c56578063b3a5a0a214611c16578063b69e5c7714611bde578063b8cdf56114611bbf578063ba1c5e8014611b9c578063bc3d5a3e14611b7d578063c129d50414611b61578063c1a287e214611b43578063c23c69d514611b0b578063c39537e114611ad0578063c4ae316814611a4d578063c4e41b2214611a2e578063c5ebeaec146113b6578063c869d0ed14611314578063c941f321146112eb578063cc484c5c14611289578063cf17622514611260578063cf3090121461123c578063d1f151c11461116e578063d29255f914611136578063d33219b41461110d578063d3dd2bdf146110e7578063d547741f146110a9578063ddac7f1b14611020578063e19fb8f514610f0f578063e1c5010014610e04578063e2842d7914610d73578063e2d7462814610d1b578063e6aa216c14610d16578063e6ae357614610cdb578063e7602b9d14610c8e578063e84bae4514610c5d578063e884cf2314610c36578063e8a7da8e146109f9578063e9ffb291146109be578063eb8d655114610983578063ebdcc16414610949578063ef02401a1461091a578063f1c5d6c2146108ed578063f3fdb15a146108c4578063f79ed94b1461089b578063f7e590ee14610863578063fbbff3d1146107ef578063feb50e52146106ed5763ffd4aedb0361001157346106e95760803660031901126106e9576106959161060b6147ff565b610613614815565b9261061c61482b565b90606435918760018060a01b03809561063a8260a55416331461524d565b169283825260209788966097885288842091165f528652865f2061065f868254614a86565b9055865163a9059cbb60e01b81526001600160a01b03909316908301908152602081019490945290968793849291839160400190565b03925af19081156106e057506106a9578280f35b81813d83116106d9575b6106bd8183614af3565b810103126106d5576106ce90614b15565b505f808280f35b5080fd5b503d6106b3565b513d85823e3d90fd5b8280fd5b5090346106e957806003193601126106e95781356024356001600160a01b03818116918290036107eb5760a8541633036107dc578147106107c1578480809381935af13d156107bc573d67ffffffffffffffff81116107a95782519061075d601f8201601f191660200183614af3565b81528460203d92013e5b15610770578280f35b906020606492519162461bcd60e51b83528201526013602482015272115512081d1c985b9cd9995c8819985a5b1959606a1b6044820152fd5b604184634e487b7160e01b5f525260245ffd5b610767565b825162461bcd60e51b8152806107d8818701614e82565b0390fd5b505051630925c89960e31b8152fd5b8580fd5b508290346106d55760203660031901126106d55761080b6147ff565b6001600160a01b0381168352609a60205283832054929061082b90615182565b9160058402938085046005149015171561085057505060648351920482526020820152f35b634e487b7160e01b825260119052602490fd5b5050346106d55760203660031901126106d55760209181906001600160a01b0361088b6147ff565b1681526099845220549051908152f35b5050346106d557816003193601126106d55760b05490516001600160a01b039091168152602090f35b5050346106d557816003193601126106d55760a65490516001600160a01b039091168152602090f35b5050346106d55760203660031901126106d55760209061091361090e6147ff565b61574e565b9051908152f35b5050346106d55760203660031901126106d55760209061094061093b6147ff565b61567c565b90519015158152f35b5050346106d55760203660031901126106d55760209181906001600160a01b036109716147ff565b16815260998452205415159051908152f35b5050346106d557816003193601126106d557602090517f742d8195bebb59905cedb6c02453745e9ef7090c163e7dea727ab0849b3dfc008152f35b5050346106d557816003193601126106d557602090517fa22cb6bd33c714cffaf72f196d1ebf87829cac5214f3ad84491fa8669ede7a6a8152f35b509134610c33576020366003190112610c3357610a146147ff565b6001600160a01b038116825260b26020528282208351610a3381614ac3565b60a08254958683526001840154956020840191878352600286015490818187015260038701549260608701978489528c8101549560c060ff600660808c01948a86528c60058201549c8d9101520154169901981515988981528642105f14610c2c5762015180610aa34289614a86565b049a5b849c81519062093a8091828101809111610c1557421180610c0b575b610b60575b50505051151580610b56575b15610b4957518151610ae491614b22565b5f19810192908311610b365750516101409c50610b0091614a68565b985b81519a8b5260208b01528901526060880152608087015260a086015260c085015260e0840152610100830152610120820152f35b634e487b7160e01b815260118e52602490fd5b50506101409b5098610b02565b5080511515610ad3565b610b69906150b4565b6005811015610bf557865260b1602052600187872001549151908101809111610be057610b9a620151809142614a86565b049081151580610bd7575b610bb0575b80610ac7565b612710929d5061016d91610bc8610bcd928651614a41565b614a41565b04049a5f80610baa565b50801515610ba5565b508f856011602492634e487b7160e01b835252fd5b50508f856021602492634e487b7160e01b835252fd5b5083511515610ac2565b5050508f856011602492634e487b7160e01b835252fd5b839a610aa6565b80fd5b5050346106d557816003193601126106d55760209060ff60a95460a01c1690519015158152f35b50346106e95760203660031901126106e95735916005831015610c335750610c86602092614a2a565b549051908152f35b5050346106d557806003193601126106d557602091610cab6147ff565b82610cb4614815565b6001600160a01b03928316845260978652922091165f908152908352819020549051908152f35b5050346106d557816003193601126106d557602090517fb438992c2c4c65322b65fd8e2dacea9efd63443e69e5ed52f4a77ed6c78f7c2a8152f35b614a08565b50346106e95760203660031901126106e957610d356147ff565b60a8546001600160a01b03939192919084163303610d66575050166001600160601b0360a01b60a754161760a75580f35b51630925c89960e31b8152fd5b828434610c335780600319360112610c3357815191829160a05480855260208095019460a083527f78fdc8d422c49ced035a9edf18d00d3c6a8d81df210f3e5e448e045e77b41e8892905b828210610de457610de08686610dd6828b0383614af3565b519182918261487d565b0390f35b83546001600160a01b031687529586019560019384019390910190610dbe565b5090346106e957602080600319360112610f0b57610e206147ff565b610e2981615382565b50610ed3576001600160a01b0316808552609c82528285205490939060ff16610e925750828452609c8152818420805460ff19166001179055609d905282204290557f7f62ed89ea2c6fb057e4ea77729c1d3f18056339791fce29ac89760197b45b298280a280f35b915162461bcd60e51b815291820152601b60248201527f4c69717569646174696f6e20616c7265616479207374617274656400000000006044820152606490fd5b50905162461bcd60e51b8152918201526013602482015272506f736974696f6e206973206865616c74687960681b6044820152606490fd5b8380fd5b5090346106e95760203660031901126106e957813560a35492610f3560ff851615614fab565b60ff1993841660011760a35560a5546001600160a01b03163303610fd257478211610f8f57508380808093818115610f86575b3390f115610f7b575060a3541660a35580f35b51913d9150823e3d90fd5b506108fc610f68565b606490602084519162461bcd60e51b8352820152601d60248201527f496e73756666696369656e7420636f6e74726163742062616c616e63650000006044820152fd5b608490602084519162461bcd60e51b8352820152602260248201527f4f6e6c79206c656e64696e67206d616e616765722063616e2063616c6c207468604482015261697360f01b6064820152fd5b5090346106e957806003193601126106e95761103a6147ff565b60a854602435936001600160a01b0392918316330361109b5762015180851161106c575016835260ae60205282205580f35b606490602085519162461bcd60e51b83528201526009602482015268546f6f206c6172676560b81b6044820152fd5b8351630925c89960e31b8152fd5b5090346106e957806003193601126106e9576110e491356110df60016110cd614815565b93838752606560205286200154615a88565b615cfc565b80f35b5050346106d55760203660031901126106d5576020906109136111086147ff565b615d6f565b5050346106d557816003193601126106d55760a85490516001600160a01b039091168152602090f35b5050346106d55760203660031901126106d55760209181906001600160a01b0361115e6147ff565b168152609b845220549051908152f35b509190346106d55760603660031901126106d55760a8548335919060243590604435906001600160a01b0316330361122c576111ad60aa548510614dd4565b825183810181811067ffffffffffffffff821117611219577f7543d68ffbde1802767cee31f14403e1b914f7249f14f2724e7398aa10de092395969750845282815260016020820183815287895260b1602052858920925183555191015582519182526020820152a280f35b604188634e487b7160e01b5f525260245ffd5b8251630925c89960e31b81528690fd5b5050346106d557816003193601126106d55760209060ff60a3541690519015158152f35b5050346106d557816003193601126106d557610de09061127e615570565b90519182918261487d565b5050346106d557816003193601126106d55781908260a0545b8082106112b3576020848451908152f35b90926112e36001916112c4866148c1565b848060a01b0391549060031b1c168752609a6020528487205490614b22565b9301906112a2565b5050346106d557816003193601126106d55760a45490516001600160a01b039091168152602090f35b50346106e95760203660031901126106e95761132e6147ff565b60a8546001600160a01b039190821633036113a657169182156113635750506001600160601b0360a01b60a554161760a55580f35b906020606492519162461bcd60e51b8352820152601f60248201527f496e76616c6964206c656e64696e67206d616e616765722061646472657373006044820152fd5b8351630925c89960e31b81528390fd5b5090602080600319360112610f0b5782359160a354936113dc60ff8660081c1615614b2f565b6113e960ff861615614fab565b60ff1994851660011760a355338652609a8352818620546119ed5761140d336150b4565b90600582101591826119da578181146119a05760a25460011c86116119445761143533614f3c565b91505086116118f35761144733614f3c565b505061145233615182565b906064820291808304606414901517156118e0576114709088614a41565b1161188f5760b0546001600160a01b039081169290898461186d575b8a611497828b614a86565b95821580156117d5575b5050505060a254906114b860ac5460ad5490614a86565b918b9281611792575b505060a654169487875180978194634fd41dad60e11b83528683015260249889915afa918215611788578b92611755575b50611743576003611502846149cf565b500154818b82121561170d57506115189061523d565b90612710918203908282116116fb579061153191614a41565b04935b600c88106116aa5762278d00420190814211611699575089936115f685946115df8960068c898f99819a829a8f87519761156d89614ac3565b83895286890190848252808a0192835260608a01938452600c60808b019504855260a08a01966101f4885260b260c08c019960018b52338352522098518955516001890155516002880155516003870155519085015551600584015551151591019060ff801983541691151516179055565b609a8a528a89852055609b8a524289852055614a2a565b6116018a8254614b22565b905561160f8960ac54614b22565b60ac55818115611690575b3390f11561168657907fac59582e5396aca512fa873a2047e7f4c80f8f55d4a06cb34a78a0187f62719f9291815190858252838201527f5660f932172e1664b98577a703dd9484d374b28e3bf8c87b345bee97af612412823392a2519283523392a260a3541660a35580f35b81513d87823e3d90fd5b506108fc61161a565b634e487b7160e01b8b52601183528afd5b855162461bcd60e51b81529182018790526026908201527f4c6f616e20616d6f756e7420746f6f20736d616c6c20666f7220616d6f7274696044820152653d30ba34b7b760d11b6064820152608490fd5b634e487b7160e01b8c5260118452868cfd5b95918b821361171e575b5050611534565b90919550612710918201908183116116fb579061173a91614a41565b04935f80611717565b634e487b7160e01b8a5260218252848afd5b9091508781813d8311611781575b61176d8183614af3565b8101031261177d5751905f6114f2565b5f80fd5b503d611763565b87513d8d823e3d90fd5b90919250670de0b6b3a7640000908181029181830414901517156117c257906117ba91614a68565b905f806114c1565b634e487b7160e01b8c526011845260248cfd5b8284819382938390611864575bf11561185a5785611847578651908152606088820152600b60608201526a37b934b3b4b730ba34b7b760a91b608082015283878201527f66aecc579aa1ef463c0ed1547c2cb6163370e6311a60cba815252acbb398f21360a03392a25f8a81806114a1565b634e487b7160e01b8b526021835260248bfd5b86513d8c823e3d90fd5b506108fc6117e2565b5093505f93828a5260b18752612710611889878c20548a614a41565b0461148c565b835162461bcd60e51b8152808301869052602560248201527f496e73756666696369656e7420636f6c6c61746572616c20666f722074686973604482015264103637b0b760d91b6064820152608490fd5b634e487b7160e01b8a526011845260248afd5b835162461bcd60e51b8152808301869052602560248201527f426f72726f7720616d6f756e74206578636565647320796f75722074696572206044820152641b1a5b5a5d60da1b6064820152608490fd5b835162461bcd60e51b8152808301869052603060248201527f426f72726f7720616d6f756e74206578636565647320617661696c61626c652060448201526f6c656e64696e6720636170616369747960801b6064820152608490fd5b835162461bcd60e51b815280830186905260146024820152734372656469742073636f726520746f6f206c6f7760601b6044820152606490fd5b634e487b7160e01b885260218252602488fd5b82606492519162461bcd60e51b8352820152601e60248201527f526570617920796f7572206578697374696e67206465627420666972737400006044820152fd5b5050346106d557816003193601126106d55760209060a2549051908152f35b50346106e957826003193601126106e95760a8546001600160a01b03163303611ac2575060207f228f455d7bc3d0b24a3a08d7847f391c3e78fc8aeb83acf226b7a96ee162b8ac9160ff60a35461ff00828260081c161560081b169061ff00191617918260a355519160081c1615158152a180f35b9051630925c89960e31b8152fd5b5050346106d557816003193601126106d557602090517facd38b7c4e04b2b78fc2ca994eae1a3eb206005ffa4c11fcf4a9d81c94684b2d8152f35b5050346106d55760203660031901126106d55760209181906001600160a01b03611b336147ff565b168152609d845220549051908152f35b5050346106d557816003193601126106d557602090516203f4808152f35b5050346106d557816003193601126106d5576020905160828152f35b5050346106d557816003193601126106d55760209060ad549051908152f35b5050346106d557816003193601126106d5576020905167011c37937e0800008152f35b5050346106d557816003193601126106d55760209060ac549051908152f35b5050346106d55760203660031901126106d55760209181906001600160a01b03611c066147ff565b168152609a845220549051908152f35b50346106e95760203660031901126106e9573591609f54831015610c335750611c4060209261490a565b905491519160018060a01b039160031b1c168152f35b50346106e95760203660031901126106e95791819235815260b1602052206001815491015482519182526020820152f35b5050346106d557816003193601126106d55760209060ff60a35460081c1690519015158152f35b5050346106d557816003193601126106d55760a75490516001600160a01b039091168152602090f35b5050346106d55760203660031901126106d557602090611cf56147ff565b505160508152f35b5050346106d557816003193601126106d55760a95490516001600160a01b039091168152602090f35b50346106e957826003193601126106e95760a8546001600160a01b03163303611ac2575060207f895b395338611f71448ee682a563b0c13233e238236eb6700d45720ec4bf44459160ff60a9548160a01b828260a01c161560a01b16908260a01b191617918260a955519160a01c1615158152a180f35b5050346106d55760203660031901126106d557606091906203f480906001600160a01b03611dc96147ff565b168352609c6020528060ff818520541693609d6020522054815193151584526020840152820152f35b50346106e957816003193601126106e957611e0b6147ff565b60a954602435926001600160a01b03929183163303611e6e5750916020917f4afae6838a181695abc7978598380d73bc2144eb38580c130f86e4b1e6531e1593611e5860648411156154b6565b169384865260998352818187205551908152a280f35b606490602086519162461bcd60e51b8352820152601d60248201527f4f6e6c79206372656469742073797374656d2063616e207570646174650000006044820152fd5b5090346106e957806003193601126106e957611ecb6147ff565b6024359160018060a01b03809216938486526020926098845260ff8388205416156120e35784156120ab57338752609c845260ff83882054166120735790849133885260a18552838820805460ff81161561200e575b505083516323b872dd60e01b815233928101928352306020840152604083019390935250909291908290849081906060015b038189895af1801561200457611fb0575b7ff1c0dd7e9b98bbff859029005ef89b127af049cd18df1a8d79f0b7e019911e56925084865260978252808620335f528252805f20611fa4858254614b22565b9055519283523392a380f35b8183813d8311611ffd575b611fc58183614af3565b810103126107eb57611ff77ff1c0dd7e9b98bbff859029005ef89b127af049cd18df1a8d79f0b7e019911e5693614b15565b50611f64565b503d611fbb565b81513d88823e3d90fd5b60ff1916600117905560a05491925090600160401b81101561206057849392611f5395926120438360018a950160a0556148c1565b819291549060031b9133831b921b19161790559194819394611f21565b604183634e487b7160e01b5f525260245ffd5b50816107d892515f80516020615ec683398151915233918061209481614eb1565b0390a25162461bcd60e51b81529182918201614eb1565b50816107d892515f80516020615ec68339815191523391806120cc81615543565b0390a25162461bcd60e51b81529182918201615543565b50816107d892515f80516020615ec683398151915233918061210481614e56565b0390a25162461bcd60e51b81529182918201614e56565b50346106e957816003193601126106e9576121346147ff565b6024359060a3549361214c60ff8660081c1615614b2f565b61215960ff861615614fab565b60ff1994851660011760a35582156123965760018060a01b0382169384875260209260978452828820335f52845284835f20541061235457338852609a84528288205485929181612278575b5050928092916121f794878a5260978352838a20335f528352835f206121cc838254614a86565b9055835163a9059cbb60e01b8152339181019182526020820192909252909485918291604090910190565b03818a895af1801561226e57612229575b5f80516020615ea68339815191529250519283523392a360a3541660a35580f35b8183813d8311612267575b61223e8183614af3565b810103126122635761225d5f80516020615ea683398151915293614b15565b50612208565b8680fd5b503d612234565b81513d89823e3d90fd5b6122df919293506122b7670de0b6b3a764000091898c5260978852868c20335f5288526122b16122ab8a895f2054614a86565b9161574e565b90614a41565b04916122c2336150b4565b60646122d96122d033614f3c565b50503394614a41565b046157f9565b116122ed5783905f806121a5565b82608492519162461bcd60e51b8352820152603b60248201527f5769746864726177616c20776f756c642076696f6c61746520746965722d626160448201527f73656420636f6c6c61746572616c20726571756972656d656e747300000000006064820152fd5b5082606492519162461bcd60e51b8352820152601760248201527f496e73756666696369656e7420636f6c6c61746572616c0000000000000000006044820152fd5b5162461bcd60e51b8152806107d8818601615543565b5050346106d557816003193601126106d55751908152602090f35b5050346106d557816003193601126106d55760a55490516001600160a01b039091168152602090f35b5050346106d55760203660031901126106d5576020906109136124116147ff565b6154f7565b5050346106d557816003193601126106d5576020905160058152f35b614862565b5090346106e95760203660031901126106e9576124526147ff565b60a85490926001600160a01b0392909183163303610d665750508060a954921691826001600160601b0360a01b82161760a955167f3637d79e8b0bd63fa3bcc41c2ab614b349b83626b91f73211bc80c6ec5ec4e958380a380f35b5090346106e957806003193601126106e9576124c76147ff565b60a85460243592916001600160a01b0391821633036125b257169283156125705730841461253657508160209161252260647f4afae6838a181695abc7978598380d73bc2144eb38580c130f86e4b1e6531e159511156154b6565b84865260998352818187205551908152a280f35b6020606492519162461bcd60e51b8352820152601560248201527424b73b30b634b21030b2323932b9b99d1039b2b63360591b6044820152fd5b6020606492519162461bcd60e51b8352820152601d60248201527f496e76616c696420616464726573733a207a65726f20616464726573730000006044820152fd5b8251630925c89960e31b81528590fd5b5050346106d557816003193601126106d557602090517f96737339a958f216173e690d06f324072e6dc3146e04c060bd723906d6b190768152f35b5050346106d557806003193601126106d55760209061091361261d6147ff565b612625614815565b906153f2565b5050346106d55760203660031901126106d55760209160ff9082906001600160a01b036126566147ff565b16815260a1855220541690519015158152f35b509134610c33576020366003190112610c33576126846147ff565b61269661269082615182565b91614f3c565b9260508082029350811591840414171590506126cf5760209450606490049150808210156126c75750905b51908152f35b9050906126c1565b634e487b7160e01b835260118552602483fd5b50346106e957816003193601126106e957816020936126ff614815565b9235815260658552209060018060a01b03165f52825260ff815f20541690519015158152f35b828434610c33576020366003190112610c3357506127496127446147ff565b615382565b825191151582526020820152f35b5050346106d55760203660031901126106d55760a09061277d6127786147ff565b6152d9565b93949190928251951515865215156020860152151590840152606083015215156080820152f35b5050346106d557816003193601126106d5576020905166b1a2bc2ec500008152f35b5050346106d557816003193601126106d557602090517fce802e42c93d0fbd61dfc706a0e806b78ac046397e07510da2f223464e4788e08152f35b5050346106d557816003193601126106d55760209060af549051908152f35b5050346106d557816003193601126106d557602090517f0e0e24c52bc4f24612e3f568966757426acd82325205933a9270e1ce7c4d93c28152f35b5050346106d557806003193601126106d5576128e9906128d46128cf61287f6147ff565b856024359460018060a01b0361289a8160a55416331461524d565b83168252609a6020528181812055609b6020528181812055609c60205280822060ff198154169055609d6020528120556150b4565b614a2a565b6128df828254614a86565b905560ad54614b22565b60ad5580f35b50346106e957816003193601126106e9576129086147ff565b91612911614815565b60a85490936001600160a01b039390918416330361296257508216808552609860205261294360ff8387205416615136565b8452609e602052832091166001600160601b0360a01b82541617905580f35b8251630925c89960e31b8152fd5b50346106e95760203660031901126106e95760e09282906001600160a01b036129976147ff565b16815260b26020522080549260018201549260028301546003840154918401549260ff600660058701549601541695815197885260208801528601526060850152608084015260a0830152151560c0820152f35b5050346106d55760203660031901126106d55760209160ff9082906001600160a01b03612a166147ff565b1681526098855220541690519015158152f35b5090346106e95760209283600319360112610c3357612a466147ff565b9260a254612a5960ac5460ad5490614a86565b8115612b8f57670de0b6b3a764000090818102918183041490151715612b7c5790612a8391614a68565b935b60a6548451634fd41dad60e11b8152838101969096528690869060249082906001600160a01b03165afa948515612b72578395612b41575b50612ac790614f3c565b5085915083811215612b0457612ae191929394955061523d565b926127109384039284841161085057505090612afc91614a41565b049051908152f35b92808413612b16575b505050506126c1565b9091929394506127109384019283851161085057505090612b3691614a41565b04905f808080612b0d565b9094508581813d8311612b6b575b612b598183614af3565b8101031261177d575193612ac7612abd565b503d612b4f565b84513d85823e3d90fd5b634e487b7160e01b845260118352602484fd5b50508193612a85565b5090346106e95760203660031901126106e95781359260aa54841015610c335750612bc460a0936149cf565b508054926001820154926002830154916003840154930154938151958652602086015284015260608301526080820152f35b50346106e95760203660031901126106e957612c106147ff565b60a85491906001600160a01b03908184163303612c775716928315612c425750506001600160a01b0319161760a85580f35b906020606492519162461bcd60e51b8352820152600f60248201526e496e76616c6964206164647265737360881b6044820152fd5b8451630925c89960e31b81528390fd5b509190346106d557612c983661493f565b505060609160b354603c8101809111612e4e57612cb6904211614fe7565b8151809160a05480835283602080940160a084527f78fdc8d422c49ced035a9edf18d00d3c6a8d81df210f3e5e448e045e77b41e8892845b86828210612e2f57505050612d0592500384614af3565b612d0f835161520b565b938193825b8151811015612d9a576001600160a01b03612d2f8284614b70565b5116808552609c865260ff8486205416612d4d575b50600101612d14565b609d8652838520546203f4808101809111612d87574210612d445786612d8091612d7a600194998b614b70565b52614b84565b9590612d44565b634e487b7160e01b865260118b52602486fd5b5084905085878215612e235750612db08261520b565b935b828110612dfb57505050610de090612dd6612de4600194835192839188830161487d565b03601f198101835282614af3565b905b808051958695151586528501528301906149aa565b6001906001600160a01b03612e108285614b70565b5116612e1c8288614b70565b5201612db2565b915050610de091612de6565b85546001600160a01b0316845260019586019589955093019201612cee565b634e487b7160e01b825260118552602482fd5b5050346106d55760203660031901126106d557602090610913612e826147ff565b615182565b5090346106e95760203660031901126106e95781359182151580930361177d5760a8546001600160a01b03163303611ac2575060a9805460ff60a01b191660a084901b60ff60a01b16179055519081527f895b395338611f71448ee682a563b0c13233e238236eb6700d45720ec4bf444590602090a180f35b5050346106d55760203660031901126106d55760209181906001600160a01b03612f286147ff565b16815260ae845220549051908152f35b5050346106d55760203660031901126106d557606091612f566147ff565b918060018060a01b03841692838152609a602052612f778282205495615182565b938152609b60205220549181519384526020840152820152f35b5050346106d557816003193601126106d55760209051600a8152f35b5050346106d557816003193601126106d55760209051603c8152f35b5050346106d55760203660031901126106d5576020916001600160a01b0390829082612ff36147ff565b168082526098865261300a60ff8484205416615136565b8152609e85522054169051908152f35b5050346106d557816003193601126106d557602090516103848152f35b5050346106d557816003193601126106d55751600a47048152602090f35b5090346106e957806003193601126106e95761306f6147ff565b90602435918215159283810361177d5760a8546001600160a01b039290831633036131a75782169485875260986020526130b7828589209060ff801983541691151516179055565b609f549187805b84811061317d575b5081613174575b50613103575b5050507f15f5cc64ca777db85f6c05fdba671568758b38329616d4d4b43bb8b092fe9a8d9160209151908152a280f35b600160401b8210156131615750917f15f5cc64ca777db85f6c05fdba671568758b38329616d4d4b43bb8b092fe9a8d939161314684600160209601609f5561490a565b819291549060031b9188831b921b19161790559181936130d3565b604190634e487b7160e01b5f525260245ffd5b9050155f6130cd565b88866131888361490a565b90549060031b1c161461319d576001016130be565b505060015f6130c6565b8351630925c89960e31b81528690fd5b5050346106d557806003193601126106d5576020916131d46147ff565b906001600160a01b03908390826131e9614815565b168152609786522091165f528252805f20549051908152f35b5050346106d55760203660031901126106d55760209061323461322b6132266147ff565b6150b4565b91518092614841565bf35b5050346106d557816003193601126106d55760209061091361503e565b5050346106d557816003193601126106d557602090517f430b074324c1d9f1ce97c9e9efd8cc6b779c8a501b53808a5cafe19682f95dd58152f35b50346106e95761329d3661493f565b60b393919354603c8101809111613434576132b9904211614fe7565b4260b35583019260209081818603126107eb5780359067ffffffffffffffff821161226357019380601f860112156107eb5784356132f681615026565b9561330385519788614af3565b818752838088019260051b820101928311613430578301905b82821061341157505050845b845181101561340d576001600160a01b03806133448388614b70565b511690818852609c845260ff8589205416613364575b5050600101613328565b609d8452848820546203f48081018091116133fa579088929142101561338b575b5061335a565b60a55416803b156106e957855163bcebb1d760e01b8152308882019081526001600160a01b039093166020840152918391839182908490829060400103925af180156133f0576133dc575b80613385565b6133e590614adf565b6107eb57855f6133d6565b85513d84823e3d90fd5b634e487b7160e01b895260118752602489fd5b8580f35b81356001600160a01b038116810361177d57815290830190830161331c565b8780fd5b634e487b7160e01b865260118452602486fd5b5050346106d557816003193601126106d55780602092338152609a845220549051908152f35b5050346106d557816003193601126106d557602090517f5fef09193e4e8110de1cc5ba269e889a5fb9093ba33c4df4b67dc2eaa1ca1fff8152f35b5050346106d557816003193601126106d55760a354905160109190911c6001600160a01b03168152602090f35b505f36600319011261177d5760a354916134f560ff8460081c1615614b2f565b61350260ff841615614fab565b600160ff198094161760a355335f52602090609a8252805f205480156136cd57341561369b578086913411805f146136945781955b335f52609a8652845f2061354c888254614a86565b905561355a8760ad54614b22565b60ad556135696128cf336150b4565b613574888254614a86565b9055335f52609c8652845f2088815460ff8116613680575b505060a7546001600160a01b031690508061360c575b50506135df575b5050907f0516911bcc3a0a7412a44601057c0a0a1ec628bde049a84284bc42886653448891519283523392a260a3541660a35580f35b81806135ec819334614a86565b818115613603575b3390f1156106e057845f6135a9565b506108fc6135f4565b8091929394503b1561177d5784516340c10f1960e01b815233928101928352662386f26fc1000088046020840152915f91839182908490829060400103925af1801561367657613661575b90818893926135a2565b61366d91929750614adf565b5f95905f613657565b84513d5f823e3d90fd5b169055609d86525f858120555f888161358c565b3495613537565b505162461bcd60e51b815291820152600d60248201526c09aeae6e840e6cadcc8408aa89609b1b604482015260649150fd5b505162461bcd60e51b815291820152601060248201526f4e6f206465627420746f20726570617960801b604482015260649150fd5b823461177d575f36600319011261177d5760209060b3549051908152f35b823461177d57602036600319011261177d576060906137456137406147ff565b614f3c565b91929081519384526020840152820152f35b503461177d57602036600319011261177d57359060a05482101561177d57611c406020926148c1565b503461177d578160031936011261177d57613799614815565b90336001600160a01b038316036137b7576137b5925035615cfc565b005b608490602084519162461bcd60e51b8352820152602f60248201527f416363657373436f6e74726f6c3a2063616e206f6e6c792072656e6f756e636560448201526e103937b632b9903337b91039b2b63360891b6064820152fd5b50903461177d57602036600319011261177d5760a8546001600160a01b03163303610d6657503560af55005b823461177d575f36600319011261177d57602090517ffed613f2d4bec2209ff904769fa3c094c155ec5048c0bb2e17f16e523671ca2c8152f35b50903461177d578060031936011261177d576138926147ff565b6024359160018060a01b039384831694855f526020936098855260ff845f20541615613ae657865f5260978552835f20335f52855285845f205410613aae57335f52609c855260ff845f205416613a8d5761391290670de0b6b3a764000061390b6139056138ff33615182565b9361574e565b89614a41565b0490614a86565b90606482029180830460641490151715613a7a57602490335f52609a865285855f20549160a45416865193848092631ee1b90b60e21b82528c898301525afa908115613a70575f91613a3f575b6139699250614a41565b11613a08579082846139939493875f5260978352835f20335f528352835f206121cc838254614a86565b03815f895af180156139fe576139bd575b5f80516020615ea68339815191529250519283523392a3005b8183813d83116139f7575b6139d28183614af3565b8101031261177d576139f15f80516020615ea683398151915293614b15565b506139a4565b503d6139c8565b50513d5f823e3d90fd5b816107d892515f80516020615ec6833981519152339180613a2881614ee9565b0390a25162461bcd60e51b81529182918201614ee9565b90508582813d8311613a69575b613a568183614af3565b8101031261177d5761396991519061395f565b503d613a4c565b85513d5f823e3d90fd5b601183634e487b7160e01b5f525260245ffd5b6107d8838580515f80516020615ec683398151915233918061209481614eb1565b6107d8838580515f80516020615ec6833981519152339180613acf81614e82565b0390a25162461bcd60e51b81529182918201614e82565b6107d8838580515f80516020615ec683398151915233918061210481614e56565b503461177d57602036600319011261177d5760e091613b246147ff565b5f60c08351613b3281614ac3565b82815282602082015282858201528260608201528260808201528260a0820152015260018060a01b03165f5260b2602052805f20815191613b7283614ac3565b81549384845260018301549160208501928352600284015481860190815260038501549260608701938452850154936080870194855260c060ff600660058901549860a08b01998a5201541697019615158752825197885251602088015251908601525160608501525160808401525160a083015251151560c0820152f35b50903461177d5760c036600319011261177d5760a854823592906001600160a01b03163303611ac25750613c646137b592613c2f60aa548210614dd4565b825192613c3b84614a93565b6024358452604435602085015260643590840152608435606084015260a43560808401526149cf565b90614e0f565b503461177d578160031936011261177d573590613c85614815565b90825f526065602052613c9d6001825f200154615a88565b825f526065602052805f209160018060a01b031691825f5260205260ff815f20541615613cc657005b825f526065602052805f20825f526020525f20600160ff1982541617905533917f2f8788117e7eff1d82e926ec794901d17c78024a50270940304540a733656f0d5f80a4005b823461177d575f36600319011261177d578051609f80548083525f918252602080840194927f0bc14066c33013fe88f66e314e4cf150b0b2d4d6451a1a51dbbd1c27cd11de2892915b828210613d6d57610de08686610dd6828b0383614af3565b83546001600160a01b031687529586019560019384019390910190613d55565b50903461177d57602036600319011261177d57602091355f52606582526001815f2001549051908152f35b3461177d575f36600319011261177d576137b5614b92565b50905f36600319011261177d57613def60ff60a35460081c1615614b2f565b335f52602060b28152815f20600681019360ff8554161561404a57808201918254928334106140075760038201918254804210613fd85762093a808101809111613fc557804211613f03575b50906001613e72920194613e50818754614a86565b8655335f52609a8752613e67885f20918254614a86565b90555460ad54614b22565b60ad5580549162278d008301809311613ef05750907fd3cf6d8c55fed98c7b9f9d18d95a51dbdb316503bb854fc1f676c8974cb10f4f9291555492838151933485528401523392a215613ec157005b805460ff19169055337f59bd56f70adeefb0cd83dca0f34f066bed6ee442068f3d07b5fc974b944d5aa65f80a2005b601190634e487b7160e01b5f525260245ffd5b613f0c336150b4565b6005811015613fb25791600191613e7294935f5260b1895262015180613f38848c5f2001549242614a86565b0480151580613fa9575b613f51575b5050919250613e3b565b613f7661271061016d613f6d87870194610bc886549788614a41565b04048093614b22565b905589519081527fce0d6b567089a0bce35e0693cdb625006f0cf915f9f3686bb0343bc2c667c1b2893392a28a80613f47565b50811515613f42565b602186634e487b7160e01b5f525260245ffd5b601185634e487b7160e01b5f525260245ffd5b875162461bcd60e51b81528086018890526009602482015268546f6f206561726c7960b81b6044820152606490fd5b855162461bcd60e51b8152808401869052601860248201527f496e73756666696369656e7420696e7374616c6c6d656e7400000000000000006044820152606490fd5b835162461bcd60e51b8152908101839052600e60248201526d27379030b1ba34bb32903637b0b760911b6044820152606490fd5b823461177d57602036600319011261177d576020906001600160a01b03806140a46147ff565b165f52609e8352815f2054169051908152f35b823461177d575f36600319011261177d57602090517f8b473ac3e35dc431c1dba0191b7615ccaca6bfeb14f9573dcaae9e614fbe8b208152f35b503461177d57602036600319011261177d5761410b6147ff565b60a8546001600160a01b039190821633036113a657169182156141615760b080546001600160a01b03191684179055827f279ea638680bba6a87fddd8bcdbc37d94eee92841e1dfec2ab0f79662c7093115f80a2005b906020606492519162461bcd60e51b8352820152601760248201527f496e76616c6964207265736572766520616464726573730000000000000000006044820152fd5b503461177d5760a036600319011261177d576141be6147ff565b6141c6614815565b906141cf61482b565b6001600160a01b0360643581811693929084900361177d576084359482861680960361177d575f549660ff8860081c1615978880996144a4575b801561448d575b156144335760ff1981166001175f5588614422575b5060ff5f5460081c16156143cb57508290816001600160601b0360a01b95168560a854161760a855168360a454161760a455168160a554161760a55560a654161760a655806143ac575b5081519061427c82614a93565b605a82526142a6602092606484820152606e8582015260181960608201526032608082015261591a565b6142d883516142b481614a93565b60508152605984820152607d8582015260091960608201526028608082015261591a565b61430883516142e681614a93565b60468152604f84820152608c858201525f6060820152601e608082015261591a565b614339835161431681614a93565b603c815260458482015260a085820152600f60608201526014608082015261591a565b614368835161434781614a93565b5f8152603b8482015260c885820152601e60608201525f608082015261591a565b662386f26fc1000060af5561437957005b7f7f26b83ff96e1f2b6a682f133852f6798a09c465da95921460cefb38474024989161ff00195f54165f555160018152a1005b60a980546001600160a81b031916909117600160a01b1790558261426f565b60849060208a519162461bcd60e51b8352820152602b60248201527f496e697469616c697a61626c653a20636f6e7472616374206973206e6f74206960448201526a6e697469616c697a696e6760a81b6064820152fd5b61ffff1916610101175f5589614225565b895162461bcd60e51b8152602081840152602e60248201527f496e697469616c697a61626c653a20636f6e747261637420697320616c72656160448201526d191e481a5b9a5d1a585b1a5e995960921b6064820152608490fd5b50303b1580156142105750600160ff821614614210565b50600160ff821610614209565b823461177d575f36600319011261177d5760209051600a8152f35b823461177d575f36600319011261177d5760209051610e108152f35b823461177d57602036600319011261177d57602090610913612e826147ff565b50903461177d578060031936011261177d576145226147ff565b9160243590335f52602093609c855260ff845f205416156146045783516323b872dd60e01b815233928101928352306020840152604083018490526001600160a01b039091169185908290819060600103815f865af18015613676576145d0575b505f5260978352815f20335f5283526145a0825f20918254614b22565b90556145ab33615382565b506145b257005b335f908152609c8352818120805460ff19169055609d909252812055005b8481813d83116145fd575b6145e58183614af3565b8101031261177d576145f690614b15565b5084614583565b503d6145db565b835162461bcd60e51b8152808301869052601a60248201527f4163636f756e74206e6f7420696e206c69717569646174696f6e0000000000006044820152606490fd5b50903461177d57602036600319011261177d576146626147ff565b9161466c836150b4565b9161467684614f3c565b50506001600160a01b0385165f908152609a60205282902054949092908515614701576146aa908560646122d9878a614a41565b90606482029180830460641490151715613ef057506080946146cb91614a68565b90818311156146fb576146de8284614a86565b925b6146ec82518096614841565b60208501528301526060820152f35b5f6146de565b50506080935081905f926146e0565b823461177d57602036600319011261177d576020906001600160a01b036147356147ff565b165f52609c825260ff815f20541690519015158152f35b503461177d57602036600319011261177d573563ffffffff60e01b811680910361177d57602091637965db0b60e01b821491821561478e575b50519015158152f35b6301ffc9a760e01b14915083614785565b823461177d57602036600319011261177d576147b96147ff565b60a8549092906001600160a01b031633036147f35760a3805462010000600160b01b031916601085901b62010000600160b01b0316179055005b630925c89960e31b8152fd5b600435906001600160a01b038216820361177d57565b602435906001600160a01b038216820361177d57565b604435906001600160a01b038216820361177d57565b90600582101561484e5752565b634e487b7160e01b5f52602160045260245ffd5b3461177d575f36600319011261177d57602047604051908152f35b60209060206040818301928281528551809452019301915f5b8281106148a4575050505090565b83516001600160a01b031685529381019392810192600101614896565b60a0548110156148f65760a05f527f78fdc8d422c49ced035a9edf18d00d3c6a8d81df210f3e5e448e045e77b41e8801905f90565b634e487b7160e01b5f52603260045260245ffd5b609f548110156148f657609f5f527f0bc14066c33013fe88f66e314e4cf150b0b2d4d6451a1a51dbbd1c27cd11de2801905f90565b90602060031983011261177d5760043567ffffffffffffffff9283821161177d578060238301121561177d57816004013593841161177d576024848301011161177d576024019190565b5f5b83811061499a5750505f910152565b818101518382015260200161498b565b906020916149c381518092818552858086019101614989565b601f01601f1916010190565b60aa548110156148f65760059060aa5f52027f550d3de95be0bd28a79c3eb4ea7f05692c60b0602e48b49461e703379b08a71a01905f90565b3461177d575f36600319011261177d576020604051670de0b6b3a76400008152f35b600581101561484e575f5260ab60205260405f2090565b81810292918115918404141715614a5457565b634e487b7160e01b5f52601160045260245ffd5b8115614a72570490565b634e487b7160e01b5f52601260045260245ffd5b91908203918211614a5457565b60a0810190811067ffffffffffffffff821117614aaf57604052565b634e487b7160e01b5f52604160045260245ffd5b60e0810190811067ffffffffffffffff821117614aaf57604052565b67ffffffffffffffff8111614aaf57604052565b90601f8019910116810190811067ffffffffffffffff821117614aaf57604052565b5190811515820361177d57565b91908201809211614a5457565b15614b3657565b60405162461bcd60e51b815260206004820152601260248201527110dbdb9d1c9858dd081a5cc81c185d5cd95960721b6044820152606490fd5b80518210156148f65760209160051b010190565b5f198114614a545760010190565b614b9a615570565b5f5b8151811015614c3c576001600160a01b0380614bb88385614b70565b511690815f52602091609e8352604091825f205416614bdd575b505050600101614b9c565b614bf4614bec610e109261593f565b905042614a86565b11614bff5780614bd2565b60a3805461ff00191661010017905551600181527f228f455d7bc3d0b24a3a08d7847f391c3e78fc8aeb83acf226b7a96ee162b8ac9350909150a1565b505060a2548015159081614d9d575b50614c825760a05460a5545f91906001600160a01b03908116835b838110614ce8575050508015159182614cbe575b5050614c8257565b61010061ff001960a354161760a3557f228f455d7bc3d0b24a3a08d7847f391c3e78fc8aeb83acf226b7a96ee162b8ac602060405160018152a1565b909150606481029080820460641490151715614a5457600591614ce091614a68565b115f80614c7a565b614cf1816148c1565b905460408051632cf5889360e01b815230600482015260039390931b9190911c85166001600160a01b031660248301529060208082604481885afa928315614d9457505f92614d5e575b5050614d4a575b600101614c66565b93614d56600191614b84565b949050614d42565b90809250813d8311614d8d575b614d758183614af3565b8101031261177d57614d8690614b15565b5f80614d3b565b503d614d6b565b513d5f823e3d90fd5b9050614dae60ac5460ad5490614a86565b606481029080820460641490151715614a5457605f91614dcd91614a68565b115f614c4b565b15614ddb57565b60405162461bcd60e51b815260206004820152600c60248201526b24b73b30b634b2103a34b2b960a11b6044820152606490fd5b9190614e43576080816004925184556020810151600185015560408101516002850155606081015160038501550151910155565b634e487b7160e01b5f525f60045260245ffd5b606090602081526011602082015270151bdad95b881b9bdd08185b1b1bddd959607a1b60408201520190565b606090602081526014602082015273496e73756666696369656e742062616c616e636560601b60408201520190565b60609060208152601960208201527f4163636f756e7420697320696e206c69717569646174696f6e0000000000000060408201520190565b60809060208152603260208201527f5769746864726177616c20776f756c64206d616b6520706f736974696f6e20756040820152711b99195c98dbdb1b185d195c985b1a5e995960721b60608201520190565b614f45906150b4565b600581101561484e57614f57906149cf565b509060405190614f6682614a93565b82548252600183015460208301526064614fa4608060028601549485604082015260046003880154978860608401520154918291015260a254614a41565b0491929190565b15614fb257565b60405162461bcd60e51b815260206004820152600d60248201526c4e6f207265656e7472616e637960981b6044820152606490fd5b15614fee57565b60405162461bcd60e51b815260206004820152601060248201526f155c1ad9595c081d1a1c9bdd1d1b195960821b6044820152606490fd5b67ffffffffffffffff8111614aaf5760051b60200190565b60a25480156150af575f905f60a0545b808210615076575050606482029180830460641490151715614a545761507391614a68565b90565b90926150a7600191615087866148c1565b848060a01b0391549060031b1c165f52609a60205260405f205490614b22565b93019061504e565b505f90565b6001600160a01b03165f9081526099602052604081205460aa54915b8281106150f05750505f198101908111614a5457600581101561484e5790565b6150f9816149cf565b50548210158061511f575b615110576001016150d0565b915050600581101561484e5790565b50600161512b826149cf565b500154821115615104565b1561513d57565b60405162461bcd60e51b815260206004820152601f60248201527f546f6b656e206e6f7420616c6c6f77656420617320636f6c6c61746572616c006044820152606490fd5b905f9161518d615570565b925f5b8451811015615205576001600160a01b03806151ac8388614b70565b511690815f5260209060978252604091825f209187165f52525f205490816151d9575b5050600101615190565b92670de0b6b3a76400006151f66151fd936122b16001969761574e565b0490614b22565b91905f6151cf565b50925050565b9061521582615026565b6152226040519182614af3565b8281528092615233601f1991615026565b0190602036910137565b600160ff1b8114614a54575f0390565b1561525457565b60405162461bcd60e51b815260206004820152601360248201527227b7363c902632b73234b733a6b0b730b3b2b960691b6044820152606490fd5b91908260c091031261177d576152a482614b15565b916152b160208201614b15565b916152be60408301614b15565b9160608101519160a06152d360808401614b15565b92015190565b60a9546001600160a01b039081169190826152fd575050505f905f905f905f905f90565b602460c09260405194859384926335856b7f60e11b84521660048301525afa5f91829182918291829181615345575b506153425750505050505f905f905f905f905f90565b94565b93509450505061536d915060c03d60c01161537b575b6153658183614af3565b81019061528f565b50929491939092915f61532c565b503d61535b565b9061538c82615182565b6001600160a01b0383165f908152609a60205260409020549283156153e65781156153dc576153ba90614f3c565b50509260648202918204606403614a54576153d491614a68565b918210159190565b505090505f905f90565b50600192505f19919050565b91909160018060a01b038084165f52609760205260405f209082165f5260205260405f205492609a60205260405f20549081156154b1576154329061574e565b9061546d670de0b6b3a7640000938461544b8589614a41565b049260646122d961545b846150b4565b9261546585614f3c565b505090614a41565b90818111156154a8579061548091614a86565b828102928184041490151715614a545761549991614a68565b918083116154a45750565b9150565b505f9450505050565b505050565b156154bd57565b60405162461bcd60e51b815260206004820152601260248201527153636f7265206f7574206f662072616e676560701b6044820152606490fd5b6001600160a01b0381165f908152609a602052604090205490811561553c5761551f90615182565b90606482029180830460641490151715614a545761507391614a68565b50505f1990565b6060906020815260126020820152710416d6f756e74206d757374206265203e20360741b60408201520190565b609f545f805b8281106155eb57506155879061520b565b905f805b8281106155985750505090565b6155a18161490a565b905460039190911b1c6001600160a01b03165f8181526098602052604090205460ff166155d2575b5060010161558b565b826155e491612d7a6001949588614b70565b91906155c9565b6155f48161490a565b60018060a01b0391549060031b1c165f52609860205260ff60405f20541661561f575b600101615576565b9061562b600191614b84565b919050615617565b519069ffffffffffffffffffff8216820361177d57565b908160a091031261177d5761565e81615633565b91602082015191604081015191615073608060608401519301615633565b6001600160a01b038181165f908152609e60205260409020541680156156fd5760a060049160405192838092633fabe5a360e21b82525afa918215615743575f915f905f94615703575b506156d46156da9142614a86565b91615df7565b106156fd5769ffffffffffffffffffff8091169116106156f957600190565b5f90565b50505f90565b6156da94506156d4935061572f915060a03d60a01161573c575b6157278183614af3565b81019061564a565b9650929491506156c69050565b503d61571d565b6040513d5f823e3d90fd5b6004602061575b8361593f565b509260018060a01b038091165f52609e825260405f2054166040519283809263313ce56760e01b82525afa8015615743575f906157bc575b60ff91501660120360ff8111614a545760ff1690604d8211614a545761507391600a0a90614a41565b506020813d6020116157f1575b816157d660209383614af3565b8101031261177d575160ff8116810361177d5760ff90615793565b3d91506157c9565b9161580390615d6f565b90600581101561484e57615816816149cf565b5050806158435750605f11156158295790565b605f810290808204605f1490151715614a54576064900490565b6001810361587a57506055811061586f5750605a810290808204605a1490151715614a54576064900490565b605211156158295790565b600281036158c75750604b81106158a65750605581029080820460551490151715614a54576064900490565b60481161507357605c810290808204605c1490151715614a54576064900490565b6003146158d2575090565b604181106158f55750605081029080820460501490151715614a54576064900490565b603e11156159005790565b605a810290808204605a1490151715614a54576064900490565b60aa5490600160401b821015614aaf57613c6482600161593d940160aa556149cf565b565b9060018060a01b03918281165f52609e602052604092835f2054168015615a4f579260a0600494825195868092633fabe5a360e21b82525afa80156139fe575f80935f965f93615a1f575b506159986156d48842614a86565b106159ed5769ffffffffffffffffffff8091169116106159b757509190565b5162461bcd60e51b815260206004820152601060248201526f5374616c6520726f756e64206461746160801b6044820152606490fd5b825162461bcd60e51b815260206004820152600b60248201526a5374616c6520707269636560a81b6044820152606490fd5b9250935050615a3e91945060a03d60a01161573c576157278183614af3565b96939094929150909395915f61598a565b835162461bcd60e51b8152602060048201526012602482015271141c9a58d94819995959081b9bdd081cd95d60721b6044820152606490fd5b805f52602060658152604091825f20335f52825260ff835f20541615615aad57505050565b33835191606083019067ffffffffffffffff9184811083821117614aaf578652602a845284840190863683378451156148f65760308253845193600194600110156148f6576078602187015360295b858111615cbb5750615c79578651926080840190811184821017614aaf578752604283528583019360603686378351156148f657603085538351600110156148f657607860218501536041905b808211615c36575050615bf4576107d8938693615bd893615bc9604894615ba09a519a8b957f416363657373436f6e74726f6c3a206163636f756e74200000000000000000008c8801525180926037880190614989565b8401917001034b99036b4b9b9b4b733903937b6329607d1b603784015251809386840190614989565b01036028810187520185614af3565b5192839262461bcd60e51b8452600484015260248301906149aa565b60648587519062461bcd60e51b825280600483015260248201527f537472696e67733a20686578206c656e67746820696e73756666696369656e746044820152fd5b9091600f811660108110156148f6576f181899199a1a9b1b9c1cb0b131b232b360811b901a615c658487615e94565b5360041c918015614a54575f190190615b49565b60648688519062461bcd60e51b825280600483015260248201527f537472696e67733a20686578206c656e67746820696e73756666696369656e746044820152fd5b90600f811660108110156148f6576f181899199a1a9b1b9c1cb0b131b232b360811b901a615ce98389615e94565b5360041c908015614a54575f1901615afc565b90815f52606560205260405f209060018060a01b031690815f5260205260ff60405f205416615d29575050565b815f52606560205260405f20815f5260205260405f2060ff19815416905533917ff6391f5c32d9c69d2a47ea670b442974b53935d1edc7fd64eb21e047a839171b5f80a4565b60a9546001600160a01b039190821680615d95575b50165f52609960205260405f205490565b60c0602491604051928380926335856b7f60e11b825287871660048301525afa5f9181615dd0575b5015615d84578015615d84575b91505090565b615dea91925060c03d60c01161537b576153658183614af3565b505092505050905f615dbd565b6001600160a01b039081165f81815260ae602052604090205490919080615dca575060209060a4541691602460405180948193631a650cc760e01b835260048301525afa908115615743575f91615e5a575b50615e545761038490565b610e1090565b90506020813d602011615e8c575b81615e7560209383614af3565b8101031261177d57615e8690614b15565b5f615e49565b3d9150615e68565b9081518110156148f657016020019056fe45892a46e6cef329bb642da6d69846d324db43d19008edc141ed82382eda1bee3c364b9decdac59fbe037e99687219ac0feed46572bfbcbd5284b6b8e67f402da264697066735822122008dff9b992b4109577de8b3fbe8832fe52f517ac7bab7c020ff2eff4c2e7088764736f6c63430008180033",
  "linkReferences": {},
  "deployedLinkReferences": {}
}