{
  "_format": "hh-sol-artifact-1",
  "contractName": "LiquidityPool",
  "sourceName": "backend/contracts/LiquidityPool.sol",
  "abi": [
    {
      "inputs": [],
      "name": "AccessControlBadConfirmation",
      "type": "error"
    },
    {
      "inputs": [
        {
          "internalType": "address",
          "name": "account",
          "type": "address"
        },
        {
          "internalType": "bytes32",
          "name": "neededRole",
          "type": "bytes32"
        }
      ],
      "name": "AccessControlUnauthorizedAccount",
      "type": "error"
    },
    {
      "inputs": [],
      "name": "InvalidInitialization",
      "type": "error"
    },
    {
      "inputs": [],
      "name": "NotInitializing",
      "type": "error"
    },
    {
      "inputs": [],
      "name": "OnlyTimelockLiquidityPool",
      "type": "error"
    },
    {
      "anonymous": false,
      "inputs": [
        {
          "indexed": true,
          "internalType": "address",
          "name": "user",
          "type": "address"
        },
        {
          "indexed": false,
          "internalType": "uint256",
          "name": "amount",
          "type": "uint256"
        }
      ],
      "name": "Borrowed",
      "type": "event"
    },
    {
      "anonymous": false,
      "inputs": [
        {
          "indexed": true,
          "internalType": "address",
          "name": "user",
          "type": "address"
        },
        {
          "indexed": true,
          "internalType": "address",
          "name": "token",
          "type": "address"
        },
        {
          "indexed": false,
          "internalType": "uint256",
          "name": "amount",
          "type": "uint256"
        }
      ],
      "name": "CollateralDeposited",
      "type": "event"
    },
    {
      "anonymous": false,
      "inputs": [
        {
          "indexed": true,
          "internalType": "address",
          "name": "token",
          "type": "address"
        },
        {
          "indexed": false,
          "internalType": "bool",
          "name": "isAllowed",
          "type": "bool"
        }
      ],
      "name": "CollateralTokenStatusChanged",
      "type": "event"
    },
    {
      "anonymous": false,
      "inputs": [
        {
          "indexed": true,
          "internalType": "address",
          "name": "user",
          "type": "address"
        },
        {
          "indexed": true,
          "internalType": "address",
          "name": "token",
          "type": "address"
        },
        {
          "indexed": false,
          "internalType": "uint256",
          "name": "amount",
          "type": "uint256"
        }
      ],
      "name": "CollateralWithdrawn",
      "type": "event"
    },
    {
      "anonymous": false,
      "inputs": [
        {
          "indexed": true,
          "internalType": "address",
          "name": "user",
          "type": "address"
        },
        {
          "indexed": false,
          "internalType": "uint256",
          "name": "score",
          "type": "uint256"
        }
      ],
      "name": "CreditScoreAssigned",
      "type": "event"
    },
    {
      "anonymous": false,
      "inputs": [
        {
          "indexed": true,
          "internalType": "address",
          "name": "oldSystem",
          "type": "address"
        },
        {
          "indexed": true,
          "internalType": "address",
          "name": "newSystem",
          "type": "address"
        }
      ],
      "name": "CreditSystemUpdated",
      "type": "event"
    },
    {
      "anonymous": false,
      "inputs": [
        {
          "indexed": false,
          "internalType": "bool",
          "name": "isPaused",
          "type": "bool"
        }
      ],
      "name": "EmergencyPaused",
      "type": "event"
    },
    {
      "anonymous": false,
      "inputs": [
        {
          "indexed": true,
          "internalType": "address",
          "name": "user",
          "type": "address"
        },
        {
          "indexed": false,
          "internalType": "uint256",
          "name": "amount",
          "type": "uint256"
        },
        {
          "indexed": false,
          "internalType": "string",
          "name": "feeType",
          "type": "string"
        },
        {
          "indexed": false,
          "internalType": "uint256",
          "name": "tier",
          "type": "uint256"
        }
      ],
      "name": "FeeCollected",
      "type": "event"
    },
    {
      "anonymous": false,
      "inputs": [
        {
          "indexed": true,
          "internalType": "address",
          "name": "user",
          "type": "address"
        },
        {
          "indexed": false,
          "internalType": "uint256",
          "name": "newDeadline",
          "type": "uint256"
        }
      ],
      "name": "GracePeriodExtended",
      "type": "event"
    },
    {
      "anonymous": false,
      "inputs": [
        {
          "indexed": false,
          "internalType": "uint64",
          "name": "version",
          "type": "uint64"
        }
      ],
      "name": "Initialized",
      "type": "event"
    },
    {
      "anonymous": false,
      "inputs": [
        {
          "indexed": true,
          "internalType": "address",
          "name": "user",
          "type": "address"
        },
        {
          "indexed": true,
          "internalType": "address",
          "name": "liquidator",
          "type": "address"
        },
        {
          "indexed": false,
          "internalType": "uint256",
          "name": "amount",
          "type": "uint256"
        }
      ],
      "name": "LiquidationExecuted",
      "type": "event"
    },
    {
      "anonymous": false,
      "inputs": [
        {
          "indexed": true,
          "internalType": "address",
          "name": "user",
          "type": "address"
        }
      ],
      "name": "LiquidationStarted",
      "type": "event"
    },
    {
      "anonymous": false,
      "inputs": [
        {
          "indexed": true,
          "internalType": "address",
          "name": "applicant",
          "type": "address"
        },
        {
          "indexed": false,
          "internalType": "uint256",
          "name": "amount",
          "type": "uint256"
        },
        {
          "indexed": false,
          "internalType": "uint256",
          "name": "collateral",
          "type": "uint256"
        }
      ],
      "name": "LoanApplied",
      "type": "event"
    },
    {
      "anonymous": false,
      "inputs": [
        {
          "indexed": true,
          "internalType": "address",
          "name": "applicant",
          "type": "address"
        },
        {
          "indexed": false,
          "internalType": "uint256",
          "name": "amount",
          "type": "uint256"
        }
      ],
      "name": "LoanApproved",
      "type": "event"
    },
    {
      "anonymous": false,
      "inputs": [
        {
          "indexed": true,
          "internalType": "address",
          "name": "borrower",
          "type": "address"
        },
        {
          "indexed": false,
          "internalType": "uint256",
          "name": "amount",
          "type": "uint256"
        },
        {
          "indexed": false,
          "internalType": "uint256",
          "name": "rate",
          "type": "uint256"
        }
      ],
      "name": "LoanDisbursed",
      "type": "event"
    },
    {
      "anonymous": false,
      "inputs": [
        {
          "indexed": true,
          "internalType": "address",
          "name": "borrower",
          "type": "address"
        }
      ],
      "name": "LoanFullyRepaid",
      "type": "event"
    },
    {
      "anonymous": false,
      "inputs": [
        {
          "indexed": true,
          "internalType": "address",
          "name": "borrower",
          "type": "address"
        },
        {
          "indexed": false,
          "internalType": "uint256",
          "name": "amount",
          "type": "uint256"
        },
        {
          "indexed": false,
          "internalType": "uint256",
          "name": "remaining",
          "type": "uint256"
        }
      ],
      "name": "LoanInstallmentPaid",
      "type": "event"
    },
    {
      "anonymous": false,
      "inputs": [
        {
          "indexed": true,
          "internalType": "address",
          "name": "borrower",
          "type": "address"
        },
        {
          "indexed": false,
          "internalType": "uint256",
          "name": "penalty",
          "type": "uint256"
        }
      ],
      "name": "LoanLatePenaltyApplied",
      "type": "event"
    },
    {
      "anonymous": false,
      "inputs": [
        {
          "indexed": true,
          "internalType": "address",
          "name": "applicant",
          "type": "address"
        },
        {
          "indexed": false,
          "internalType": "uint256",
          "name": "amount",
          "type": "uint256"
        }
      ],
      "name": "LoanRejected",
      "type": "event"
    },
    {
      "anonymous": false,
      "inputs": [
        {
          "indexed": true,
          "internalType": "address",
          "name": "user",
          "type": "address"
        },
        {
          "indexed": true,
          "internalType": "address",
          "name": "liquidator",
          "type": "address"
        },
        {
          "indexed": true,
          "internalType": "address",
          "name": "collateralToken",
          "type": "address"
        },
        {
          "indexed": false,
          "internalType": "uint256",
          "name": "collateralSeized",
          "type": "uint256"
        },
        {
          "indexed": false,
          "internalType": "uint256",
          "name": "debtRepaid",
          "type": "uint256"
        }
      ],
      "name": "PartialLiquidation",
      "type": "event"
    },
    {
      "anonymous": false,
      "inputs": [
        {
          "indexed": true,
          "internalType": "address",
          "name": "user",
          "type": "address"
        },
        {
          "indexed": false,
          "internalType": "uint256",
          "name": "amount",
          "type": "uint256"
        }
      ],
      "name": "Repaid",
      "type": "event"
    },
    {
      "anonymous": false,
      "inputs": [
        {
          "indexed": true,
          "internalType": "address",
          "name": "newReserve",
          "type": "address"
        }
      ],
      "name": "ReserveAddressUpdated",
      "type": "event"
    },
    {
      "anonymous": false,
      "inputs": [
        {
          "indexed": true,
          "internalType": "bytes32",
          "name": "role",
          "type": "bytes32"
        },
        {
          "indexed": true,
          "internalType": "bytes32",
          "name": "previousAdminRole",
          "type": "bytes32"
        },
        {
          "indexed": true,
          "internalType": "bytes32",
          "name": "newAdminRole",
          "type": "bytes32"
        }
      ],
      "name": "RoleAdminChanged",
      "type": "event"
    },
    {
      "anonymous": false,
      "inputs": [
        {
          "indexed": true,
          "internalType": "bytes32",
          "name": "role",
          "type": "bytes32"
        },
        {
          "indexed": true,
          "internalType": "address",
          "name": "account",
          "type": "address"
        },
        {
          "indexed": true,
          "internalType": "address",
          "name": "sender",
          "type": "address"
        }
      ],
      "name": "RoleGranted",
      "type": "event"
    },
    {
      "anonymous": false,
      "inputs": [
        {
          "indexed": true,
          "internalType": "bytes32",
          "name": "role",
          "type": "bytes32"
        },
        {
          "indexed": true,
          "internalType": "address",
          "name": "account",
          "type": "address"
        },
        {
          "indexed": true,
          "internalType": "address",
          "name": "sender",
          "type": "address"
        }
      ],
      "name": "RoleRevoked",
      "type": "event"
    },
    {
      "anonymous": false,
      "inputs": [
        {
          "indexed": true,
          "internalType": "address",
          "name": "token",
          "type": "address"
        },
        {
          "indexed": false,
          "internalType": "uint256",
          "name": "updatedAt",
          "type": "uint256"
        },
        {
          "indexed": false,
          "internalType": "uint256",
          "name": "currentTime",
          "type": "uint256"
        }
      ],
      "name": "StaleOracleTriggered",
      "type": "event"
    },
    {
      "anonymous": false,
      "inputs": [
        {
          "indexed": true,
          "internalType": "uint256",
          "name": "tier",
          "type": "uint256"
        },
        {
          "indexed": false,
          "internalType": "uint256",
          "name": "originationFee",
          "type": "uint256"
        },
        {
          "indexed": false,
          "internalType": "uint256",
          "name": "lateFeeAPR",
          "type": "uint256"
        }
      ],
      "name": "TierFeeUpdated",
      "type": "event"
    },
    {
      "anonymous": false,
      "inputs": [
        {
          "indexed": true,
          "internalType": "address",
          "name": "user",
          "type": "address"
        },
        {
          "indexed": false,
          "internalType": "string",
          "name": "message",
          "type": "string"
        }
      ],
      "name": "UserError",
      "type": "event"
    },
    {
      "anonymous": false,
      "inputs": [
        {
          "indexed": false,
          "internalType": "bool",
          "name": "required",
          "type": "bool"
        }
      ],
      "name": "ZKProofRequirementToggled",
      "type": "event"
    },
    {
      "anonymous": false,
      "inputs": [
        {
          "indexed": true,
          "internalType": "address",
          "name": "user",
          "type": "address"
        },
        {
          "indexed": false,
          "internalType": "string",
          "name": "reason",
          "type": "string"
        }
      ],
      "name": "ZKProofValidationFailed",
      "type": "event"
    },
    {
      "inputs": [],
      "name": "ALLOW_COLLATERAL_PERMISSION",
      "outputs": [
        {
          "internalType": "bytes32",
          "name": "",
          "type": "bytes32"
        }
      ],
      "stateMutability": "view",
      "type": "function"
    },
    {
      "inputs": [],
      "name": "DEFAULT_ADMIN_ROLE",
      "outputs": [
        {
          "internalType": "bytes32",
          "name": "",
          "type": "bytes32"
        }
      ],
      "stateMutability": "view",
      "type": "function"
    },
    {
      "inputs": [],
      "name": "DEFAULT_LIQUIDATION_THRESHOLD",
      "outputs": [
        {
          "internalType": "uint256",
          "name": "",
          "type": "uint256"
        }
      ],
      "stateMutability": "view",
      "type": "function"
    },
    {
      "inputs": [],
      "name": "DEFAULT_STALENESS_STABLE",
      "outputs": [
        {
          "internalType": "uint256",
          "name": "",
          "type": "uint256"
        }
      ],
      "stateMutability": "view",
      "type": "function"
    },
    {
      "inputs": [],
      "name": "DEFAULT_STALENESS_VOLATILE",
      "outputs": [
        {
          "internalType": "uint256",
          "name": "",
          "type": "uint256"
        }
      ],
      "stateMutability": "view",
      "type": "function"
    },
    {
      "inputs": [],
      "name": "GRACE_PERIOD",
      "outputs": [
        {
          "internalType": "uint256",
          "name": "",
          "type": "uint256"
        }
      ],
      "stateMutability": "view",
      "type": "function"
    },
    {
      "inputs": [],
      "name": "LIQUIDATION_PENALTY",
      "outputs": [
        {
          "internalType": "uint256",
          "name": "",
          "type": "uint256"
        }
      ],
      "stateMutability": "view",
      "type": "function"
    },
    {
      "inputs": [],
      "name": "SAFETY_BUFFER",
      "outputs": [
        {
          "internalType": "uint256",
          "name": "",
          "type": "uint256"
        }
      ],
      "stateMutability": "view",
      "type": "function"
    },
    {
      "inputs": [],
      "name": "SET_ADMIN_PERMISSION",
      "outputs": [
        {
          "internalType": "bytes32",
          "name": "",
          "type": "bytes32"
        }
      ],
      "stateMutability": "view",
      "type": "function"
    },
    {
      "inputs": [],
      "name": "SET_CREDIT_SCORE_PERMISSION",
      "outputs": [
        {
          "internalType": "bytes32",
          "name": "",
          "type": "bytes32"
        }
      ],
      "stateMutability": "view",
      "type": "function"
    },
    {
      "inputs": [],
      "name": "SET_LENDING_MANAGER_PERMISSION",
      "outputs": [
        {
          "internalType": "bytes32",
          "name": "",
          "type": "bytes32"
        }
      ],
      "stateMutability": "view",
      "type": "function"
    },
    {
      "inputs": [],
      "name": "SET_MAX_PRICE_AGE_PERMISSION",
      "outputs": [
        {
          "internalType": "bytes32",
          "name": "",
          "type": "bytes32"
        }
      ],
      "stateMutability": "view",
      "type": "function"
    },
    {
      "inputs": [],
      "name": "SET_MIN_PARTIAL_LIQUIDATION_AMOUNT_PERMISSION",
      "outputs": [
        {
          "internalType": "bytes32",
          "name": "",
          "type": "bytes32"
        }
      ],
      "stateMutability": "view",
      "type": "function"
    },
    {
      "inputs": [],
      "name": "SET_PRICE_FEED_PERMISSION",
      "outputs": [
        {
          "internalType": "bytes32",
          "name": "",
          "type": "bytes32"
        }
      ],
      "stateMutability": "view",
      "type": "function"
    },
    {
      "inputs": [],
      "name": "SET_RESERVE_ADDRESS_PERMISSION",
      "outputs": [
        {
          "internalType": "bytes32",
          "name": "",
          "type": "bytes32"
        }
      ],
      "stateMutability": "view",
      "type": "function"
    },
    {
      "inputs": [],
      "name": "SET_TIER_FEE_PERMISSION",
      "outputs": [
        {
          "internalType": "bytes32",
          "name": "",
          "type": "bytes32"
        }
      ],
      "stateMutability": "view",
      "type": "function"
    },
    {
      "inputs": [],
      "name": "TOGGLE_PAUSE_PERMISSION",
      "outputs": [
        {
          "internalType": "bytes32",
          "name": "",
          "type": "bytes32"
        }
      ],
      "stateMutability": "view",
      "type": "function"
    },
    {
      "inputs": [],
      "name": "UPDATE_BORROW_TIER_PERMISSION",
      "outputs": [
        {
          "internalType": "bytes32",
          "name": "",
          "type": "bytes32"
        }
      ],
      "stateMutability": "view",
      "type": "function"
    },
    {
      "inputs": [],
      "name": "UPKEEP_COOLDOWN",
      "outputs": [
        {
          "internalType": "uint256",
          "name": "",
          "type": "uint256"
        }
      ],
      "stateMutability": "view",
      "type": "function"
    },
    {
      "inputs": [
        {
          "internalType": "uint256",
          "name": "amount",
          "type": "uint256"
        }
      ],
      "name": "borrow",
      "outputs": [],
      "stateMutability": "payable",
      "type": "function"
    },
    {
      "inputs": [
        {
          "internalType": "uint256",
          "name": "",
          "type": "uint256"
        }
      ],
      "name": "borrowTierConfigs",
      "outputs": [
        {
          "internalType": "uint256",
          "name": "minScore",
          "type": "uint256"
        },
        {
          "internalType": "uint256",
          "name": "maxScore",
          "type": "uint256"
        },
        {
          "internalType": "uint256",
          "name": "collateralRatio",
          "type": "uint256"
        },
        {
          "internalType": "int256",
          "name": "interestRateModifier",
          "type": "int256"
        },
        {
          "internalType": "uint256",
          "name": "maxLoanAmount",
          "type": "uint256"
        }
      ],
      "stateMutability": "view",
      "type": "function"
    },
    {
      "inputs": [
        {
          "internalType": "address",
          "name": "",
          "type": "address"
        }
      ],
      "name": "borrowTimestamp",
      "outputs": [
        {
          "internalType": "uint256",
          "name": "",
          "type": "uint256"
        }
      ],
      "stateMutability": "view",
      "type": "function"
    },
    {
      "inputs": [
        {
          "internalType": "enum LiquidityPool.RiskTier",
          "name": "",
          "type": "uint8"
        }
      ],
      "name": "borrowedAmountByRiskTier",
      "outputs": [
        {
          "internalType": "uint256",
          "name": "",
          "type": "uint256"
        }
      ],
      "stateMutability": "view",
      "type": "function"
    },
    {
      "inputs": [
        {
          "internalType": "address",
          "name": "user",
          "type": "address"
        }
      ],
      "name": "canLend",
      "outputs": [
        {
          "internalType": "bool",
          "name": "",
          "type": "bool"
        }
      ],
      "stateMutability": "view",
      "type": "function"
    },
    {
      "inputs": [],
      "name": "checkCircuitBreakers",
      "outputs": [],
      "stateMutability": "nonpayable",
      "type": "function"
    },
    {
      "inputs": [
        {
          "internalType": "address",
          "name": "user",
          "type": "address"
        }
      ],
      "name": "checkCollateralization",
      "outputs": [
        {
          "internalType": "bool",
          "name": "isHealthy",
          "type": "bool"
        },
        {
          "internalType": "uint256",
          "name": "ratio",
          "type": "uint256"
        }
      ],
      "stateMutability": "view",
      "type": "function"
    },
    {
      "inputs": [
        {
          "internalType": "bytes",
          "name": "",
          "type": "bytes"
        }
      ],
      "name": "checkUpkeep",
      "outputs": [
        {
          "internalType": "bool",
          "name": "upkeepNeeded",
          "type": "bool"
        },
        {
          "internalType": "bytes",
          "name": "performData",
          "type": "bytes"
        }
      ],
      "stateMutability": "view",
      "type": "function"
    },
    {
      "inputs": [
        {
          "internalType": "address",
          "name": "token",
          "type": "address"
        },
        {
          "internalType": "address",
          "name": "user",
          "type": "address"
        },
        {
          "internalType": "address",
          "name": "to",
          "type": "address"
        },
        {
          "internalType": "uint256",
          "name": "amount",
          "type": "uint256"
        }
      ],
      "name": "clearCollateral",
      "outputs": [],
      "stateMutability": "nonpayable",
      "type": "function"
    },
    {
      "inputs": [
        {
          "internalType": "address",
          "name": "user",
          "type": "address"
        },
        {
          "internalType": "uint256",
          "name": "amount",
          "type": "uint256"
        }
      ],
      "name": "clearDebt",
      "outputs": [],
      "stateMutability": "nonpayable",
      "type": "function"
    },
    {
      "inputs": [
        {
          "internalType": "address",
          "name": "",
          "type": "address"
        },
        {
          "internalType": "address",
          "name": "",
          "type": "address"
        }
      ],
      "name": "collateralBalance",
      "outputs": [
        {
          "internalType": "uint256",
          "name": "",
          "type": "uint256"
        }
      ],
      "stateMutability": "view",
      "type": "function"
    },
    {
      "inputs": [
        {
          "internalType": "uint256",
          "name": "",
          "type": "uint256"
        }
      ],
      "name": "collateralTokenList",
      "outputs": [
        {
          "internalType": "address",
          "name": "",
          "type": "address"
        }
      ],
      "stateMutability": "view",
      "type": "function"
    },
    {
      "inputs": [
        {
          "internalType": "address",
          "name": "",
          "type": "address"
        }
      ],
      "name": "creditScore",
      "outputs": [
        {
          "internalType": "uint256",
          "name": "",
          "type": "uint256"
        }
      ],
      "stateMutability": "view",
      "type": "function"
    },
    {
      "inputs": [],
      "name": "creditSystem",
      "outputs": [
        {
          "internalType": "contract IntegratedCreditSystem",
          "name": "",
          "type": "address"
        }
      ],
      "stateMutability": "view",
      "type": "function"
    },
    {
      "inputs": [
        {
          "internalType": "address",
          "name": "token",
          "type": "address"
        },
        {
          "internalType": "uint256",
          "name": "amount",
          "type": "uint256"
        }
      ],
      "name": "depositCollateral",
      "outputs": [],
      "stateMutability": "nonpayable",
      "type": "function"
    },
    {
      "inputs": [
        {
          "internalType": "uint256",
          "name": "amount",
          "type": "uint256"
        },
        {
          "internalType": "address payable",
          "name": "to",
          "type": "address"
        }
      ],
      "name": "extract",
      "outputs": [],
      "stateMutability": "nonpayable",
      "type": "function"
    },
    {
      "inputs": [],
      "name": "getAdmin",
      "outputs": [
        {
          "internalType": "address",
          "name": "",
          "type": "address"
        }
      ],
      "stateMutability": "view",
      "type": "function"
    },
    {
      "inputs": [],
      "name": "getAllUsers",
      "outputs": [
        {
          "internalType": "address[]",
          "name": "",
          "type": "address[]"
        }
      ],
      "stateMutability": "view",
      "type": "function"
    },
    {
      "inputs": [],
      "name": "getAllowedCollateralTokens",
      "outputs": [
        {
          "internalType": "address[]",
          "name": "",
          "type": "address[]"
        }
      ],
      "stateMutability": "view",
      "type": "function"
    },
    {
      "inputs": [],
      "name": "getBalance",
      "outputs": [
        {
          "internalType": "uint256",
          "name": "",
          "type": "uint256"
        }
      ],
      "stateMutability": "view",
      "type": "function"
    },
    {
      "inputs": [
        {
          "internalType": "address",
          "name": "user",
          "type": "address"
        }
      ],
      "name": "getBorrowTerms",
      "outputs": [
        {
          "internalType": "uint256",
          "name": "collateralRatio",
          "type": "uint256"
        },
        {
          "internalType": "int256",
          "name": "interestRateModifier",
          "type": "int256"
        },
        {
          "internalType": "uint256",
          "name": "maxLoanAmount",
          "type": "uint256"
        }
      ],
      "stateMutability": "view",
      "type": "function"
    },
    {
      "inputs": [
        {
          "internalType": "address",
          "name": "user",
          "type": "address"
        }
      ],
      "name": "getBorrowerRate",
      "outputs": [
        {
          "internalType": "uint256",
          "name": "",
          "type": "uint256"
        }
      ],
      "stateMutability": "view",
      "type": "function"
    },
    {
      "inputs": [
        {
          "internalType": "address",
          "name": "user",
          "type": "address"
        },
        {
          "internalType": "address",
          "name": "token",
          "type": "address"
        }
      ],
      "name": "getCollateral",
      "outputs": [
        {
          "internalType": "uint256",
          "name": "",
          "type": "uint256"
        }
      ],
      "stateMutability": "view",
      "type": "function"
    },
    {
      "inputs": [
        {
          "internalType": "address",
          "name": "user",
          "type": "address"
        }
      ],
      "name": "getCreditScore",
      "outputs": [
        {
          "internalType": "uint256",
          "name": "",
          "type": "uint256"
        }
      ],
      "stateMutability": "view",
      "type": "function"
    },
    {
      "inputs": [
        {
          "internalType": "address",
          "name": "user",
          "type": "address"
        }
      ],
      "name": "getLoan",
      "outputs": [
        {
          "components": [
            {
              "internalType": "uint256",
              "name": "principal",
              "type": "uint256"
            },
            {
              "internalType": "uint256",
              "name": "outstanding",
              "type": "uint256"
            },
            {
              "internalType": "uint256",
              "name": "interestRate",
              "type": "uint256"
            },
            {
              "internalType": "uint256",
              "name": "nextDueDate",
              "type": "uint256"
            },
            {
              "internalType": "uint256",
              "name": "installmentAmount",
              "type": "uint256"
            },
            {
              "internalType": "uint256",
              "name": "penaltyBps",
              "type": "uint256"
            },
            {
              "internalType": "bool",
              "name": "active",
              "type": "bool"
            }
          ],
          "internalType": "struct LiquidityPool.Loan",
          "name": "",
          "type": "tuple"
        }
      ],
      "stateMutability": "view",
      "type": "function"
    },
    {
      "inputs": [
        {
          "internalType": "address",
          "name": "user",
          "type": "address"
        }
      ],
      "name": "getLoanDetails",
      "outputs": [
        {
          "internalType": "uint256",
          "name": "principal",
          "type": "uint256"
        },
        {
          "internalType": "uint256",
          "name": "outstanding",
          "type": "uint256"
        },
        {
          "internalType": "uint256",
          "name": "interestRate",
          "type": "uint256"
        },
        {
          "internalType": "uint256",
          "name": "nextDueDate",
          "type": "uint256"
        },
        {
          "internalType": "uint256",
          "name": "installmentAmount",
          "type": "uint256"
        },
        {
          "internalType": "uint256",
          "name": "penaltyBps",
          "type": "uint256"
        },
        {
          "internalType": "bool",
          "name": "active",
          "type": "bool"
        },
        {
          "internalType": "uint256",
          "name": "daysUntilDue",
          "type": "uint256"
        },
        {
          "internalType": "uint256",
          "name": "latePenaltyIfPaidNow",
          "type": "uint256"
        },
        {
          "internalType": "uint256",
          "name": "totalInstallmentsRemaining",
          "type": "uint256"
        }
      ],
      "stateMutability": "view",
      "type": "function"
    },
    {
      "inputs": [],
      "name": "getMinCollateralRatio",
      "outputs": [
        {
          "internalType": "uint256",
          "name": "",
          "type": "uint256"
        }
      ],
      "stateMutability": "pure",
      "type": "function"
    },
    {
      "inputs": [],
      "name": "getMyDebt",
      "outputs": [
        {
          "internalType": "uint256",
          "name": "",
          "type": "uint256"
        }
      ],
      "stateMutability": "view",
      "type": "function"
    },
    {
      "inputs": [
        {
          "internalType": "address",
          "name": "token",
          "type": "address"
        }
      ],
      "name": "getPriceFeed",
      "outputs": [
        {
          "internalType": "address",
          "name": "",
          "type": "address"
        }
      ],
      "stateMutability": "view",
      "type": "function"
    },
    {
      "inputs": [
        {
          "internalType": "address",
          "name": "user",
          "type": "address"
        }
      ],
      "name": "getRiskTier",
      "outputs": [
        {
          "internalType": "enum LiquidityPool.RiskTier",
          "name": "",
          "type": "uint8"
        }
      ],
      "stateMutability": "view",
      "type": "function"
    },
    {
      "inputs": [
        {
          "internalType": "bytes32",
          "name": "role",
          "type": "bytes32"
        }
      ],
      "name": "getRoleAdmin",
      "outputs": [
        {
          "internalType": "bytes32",
          "name": "",
          "type": "bytes32"
        }
      ],
      "stateMutability": "view",
      "type": "function"
    },
    {
      "inputs": [
        {
          "internalType": "address",
          "name": "token",
          "type": "address"
        }
      ],
      "name": "getTokenValue",
      "outputs": [
        {
          "internalType": "uint256",
          "name": "",
          "type": "uint256"
        }
      ],
      "stateMutability": "view",
      "type": "function"
    },
    {
      "inputs": [
        {
          "internalType": "address",
          "name": "user",
          "type": "address"
        }
      ],
      "name": "getTotalCollateralValue",
      "outputs": [
        {
          "internalType": "uint256",
          "name": "",
          "type": "uint256"
        }
      ],
      "stateMutability": "view",
      "type": "function"
    },
    {
      "inputs": [
        {
          "internalType": "address",
          "name": "user",
          "type": "address"
        }
      ],
      "name": "getZKVerificationStatus",
      "outputs": [
        {
          "internalType": "bool",
          "name": "hasTradFi",
          "type": "bool"
        },
        {
          "internalType": "bool",
          "name": "hasAccount",
          "type": "bool"
        },
        {
          "internalType": "bool",
          "name": "hasNesting",
          "type": "bool"
        },
        {
          "internalType": "uint256",
          "name": "finalScore",
          "type": "uint256"
        },
        {
          "internalType": "bool",
          "name": "isEligible",
          "type": "bool"
        }
      ],
      "stateMutability": "view",
      "type": "function"
    },
    {
      "inputs": [
        {
          "internalType": "bytes32",
          "name": "role",
          "type": "bytes32"
        },
        {
          "internalType": "address",
          "name": "account",
          "type": "address"
        }
      ],
      "name": "grantRole",
      "outputs": [],
      "stateMutability": "nonpayable",
      "type": "function"
    },
    {
      "inputs": [
        {
          "internalType": "bytes32",
          "name": "role",
          "type": "bytes32"
        },
        {
          "internalType": "address",
          "name": "account",
          "type": "address"
        }
      ],
      "name": "hasRole",
      "outputs": [
        {
          "internalType": "bool",
          "name": "",
          "type": "bool"
        }
      ],
      "stateMutability": "view",
      "type": "function"
    },
    {
      "inputs": [
        {
          "internalType": "address",
          "name": "_timelock",
          "type": "address"
        },
        {
          "internalType": "address",
          "name": "_stablecoinManager",
          "type": "address"
        },
        {
          "internalType": "address",
          "name": "_lendingManager",
          "type": "address"
        },
        {
          "internalType": "address",
          "name": "_interestRateModel",
          "type": "address"
        },
        {
          "internalType": "address",
          "name": "_creditSystem",
          "type": "address"
        }
      ],
      "name": "initialize",
      "outputs": [],
      "stateMutability": "nonpayable",
      "type": "function"
    },
    {
      "inputs": [],
      "name": "interestRateModel",
      "outputs": [
        {
          "internalType": "contract InterestRateModel",
          "name": "",
          "type": "address"
        }
      ],
      "stateMutability": "view",
      "type": "function"
    },
    {
      "inputs": [
        {
          "internalType": "address",
          "name": "",
          "type": "address"
        }
      ],
      "name": "isAllowedCollateral",
      "outputs": [
        {
          "internalType": "bool",
          "name": "",
          "type": "bool"
        }
      ],
      "stateMutability": "view",
      "type": "function"
    },
    {
      "inputs": [
        {
          "internalType": "address",
          "name": "",
          "type": "address"
        }
      ],
      "name": "isKnownUser",
      "outputs": [
        {
          "internalType": "bool",
          "name": "",
          "type": "bool"
        }
      ],
      "stateMutability": "view",
      "type": "function"
    },
    {
      "inputs": [
        {
          "internalType": "address",
          "name": "",
          "type": "address"
        }
      ],
      "name": "isLiquidatable",
      "outputs": [
        {
          "internalType": "bool",
          "name": "",
          "type": "bool"
        }
      ],
      "stateMutability": "view",
      "type": "function"
    },
    {
      "inputs": [
        {
          "internalType": "address",
          "name": "token",
          "type": "address"
        }
      ],
      "name": "isOracleHealthy",
      "outputs": [
        {
          "internalType": "bool",
          "name": "",
          "type": "bool"
        }
      ],
      "stateMutability": "view",
      "type": "function"
    },
    {
      "inputs": [],
      "name": "isPaused",
      "outputs": [
        {
          "internalType": "bool",
          "name": "",
          "type": "bool"
        }
      ],
      "stateMutability": "view",
      "type": "function"
    },
    {
      "inputs": [],
      "name": "lastUpkeep",
      "outputs": [
        {
          "internalType": "uint256",
          "name": "",
          "type": "uint256"
        }
      ],
      "stateMutability": "view",
      "type": "function"
    },
    {
      "inputs": [],
      "name": "lendingManager",
      "outputs": [
        {
          "internalType": "contract LendingManager",
          "name": "",
          "type": "address"
        }
      ],
      "stateMutability": "view",
      "type": "function"
    },
    {
      "inputs": [
        {
          "internalType": "address",
          "name": "",
          "type": "address"
        }
      ],
      "name": "liquidationStartTime",
      "outputs": [
        {
          "internalType": "uint256",
          "name": "",
          "type": "uint256"
        }
      ],
      "stateMutability": "view",
      "type": "function"
    },
    {
      "inputs": [],
      "name": "liquidator",
      "outputs": [
        {
          "internalType": "address",
          "name": "",
          "type": "address"
        }
      ],
      "stateMutability": "view",
      "type": "function"
    },
    {
      "inputs": [
        {
          "internalType": "address",
          "name": "",
          "type": "address"
        }
      ],
      "name": "loans",
      "outputs": [
        {
          "internalType": "uint256",
          "name": "principal",
          "type": "uint256"
        },
        {
          "internalType": "uint256",
          "name": "outstanding",
          "type": "uint256"
        },
        {
          "internalType": "uint256",
          "name": "interestRate",
          "type": "uint256"
        },
        {
          "internalType": "uint256",
          "name": "nextDueDate",
          "type": "uint256"
        },
        {
          "internalType": "uint256",
          "name": "installmentAmount",
          "type": "uint256"
        },
        {
          "internalType": "uint256",
          "name": "penaltyBps",
          "type": "uint256"
        },
        {
          "internalType": "bool",
          "name": "active",
          "type": "bool"
        }
      ],
      "stateMutability": "view",
      "type": "function"
    },
    {
      "inputs": [],
      "name": "locked",
      "outputs": [
        {
          "internalType": "bool",
          "name": "",
          "type": "bool"
        }
      ],
      "stateMutability": "view",
      "type": "function"
    },
    {
      "inputs": [
        {
          "internalType": "address",
          "name": "",
          "type": "address"
        }
      ],
      "name": "maxPriceAge",
      "outputs": [
        {
          "internalType": "uint256",
          "name": "",
          "type": "uint256"
        }
      ],
      "stateMutability": "view",
      "type": "function"
    },
    {
      "inputs": [],
      "name": "minPartialLiquidationAmount",
      "outputs": [
        {
          "internalType": "uint256",
          "name": "",
          "type": "uint256"
        }
      ],
      "stateMutability": "view",
      "type": "function"
    },
    {
      "inputs": [],
      "name": "paused",
      "outputs": [
        {
          "internalType": "bool",
          "name": "",
          "type": "bool"
        }
      ],
      "stateMutability": "view",
      "type": "function"
    },
    {
      "inputs": [
        {
          "internalType": "bytes",
          "name": "performData",
          "type": "bytes"
        }
      ],
      "name": "performUpkeep",
      "outputs": [],
      "stateMutability": "nonpayable",
      "type": "function"
    },
    {
      "inputs": [
        {
          "internalType": "address",
          "name": "",
          "type": "address"
        }
      ],
      "name": "priceFeed",
      "outputs": [
        {
          "internalType": "address",
          "name": "",
          "type": "address"
        }
      ],
      "stateMutability": "view",
      "type": "function"
    },
    {
      "inputs": [
        {
          "internalType": "address",
          "name": "token",
          "type": "address"
        },
        {
          "internalType": "uint256",
          "name": "amount",
          "type": "uint256"
        }
      ],
      "name": "recoverFromLiquidation",
      "outputs": [],
      "stateMutability": "nonpayable",
      "type": "function"
    },
    {
      "inputs": [
        {
          "internalType": "bytes32",
          "name": "role",
          "type": "bytes32"
        },
        {
          "internalType": "address",
          "name": "callerConfirmation",
          "type": "address"
        }
      ],
      "name": "renounceRole",
      "outputs": [],
      "stateMutability": "nonpayable",
      "type": "function"
    },
    {
      "inputs": [],
      "name": "repay",
      "outputs": [],
      "stateMutability": "payable",
      "type": "function"
    },
    {
      "inputs": [],
      "name": "repayInstallment",
      "outputs": [],
      "stateMutability": "payable",
      "type": "function"
    },
    {
      "inputs": [],
      "name": "reserveAddress",
      "outputs": [
        {
          "internalType": "address",
          "name": "",
          "type": "address"
        }
      ],
      "stateMutability": "view",
      "type": "function"
    },
    {
      "inputs": [
        {
          "internalType": "bytes32",
          "name": "role",
          "type": "bytes32"
        },
        {
          "internalType": "address",
          "name": "account",
          "type": "address"
        }
      ],
      "name": "revokeRole",
      "outputs": [],
      "stateMutability": "nonpayable",
      "type": "function"
    },
    {
      "inputs": [
        {
          "internalType": "address",
          "name": "newAdmin",
          "type": "address"
        }
      ],
      "name": "setAdmin",
      "outputs": [],
      "stateMutability": "nonpayable",
      "type": "function"
    },
    {
      "inputs": [
        {
          "internalType": "address",
          "name": "token",
          "type": "address"
        },
        {
          "internalType": "bool",
          "name": "allowed",
          "type": "bool"
        }
      ],
      "name": "setAllowedCollateral",
      "outputs": [],
      "stateMutability": "nonpayable",
      "type": "function"
    },
    {
      "inputs": [
        {
          "internalType": "address",
          "name": "user",
          "type": "address"
        },
        {
          "internalType": "uint256",
          "name": "score",
          "type": "uint256"
        }
      ],
      "name": "setCreditScore",
      "outputs": [],
      "stateMutability": "nonpayable",
      "type": "function"
    },
    {
      "inputs": [
        {
          "internalType": "address",
          "name": "_creditSystem",
          "type": "address"
        }
      ],
      "name": "setCreditSystem",
      "outputs": [],
      "stateMutability": "nonpayable",
      "type": "function"
    },
    {
      "inputs": [
        {
          "internalType": "address",
          "name": "_lendingManager",
          "type": "address"
        }
      ],
      "name": "setLendingManager",
      "outputs": [],
      "stateMutability": "nonpayable",
      "type": "function"
    },
    {
      "inputs": [
        {
          "internalType": "address",
          "name": "_liquidator",
          "type": "address"
        }
      ],
      "name": "setLiquidator",
      "outputs": [],
      "stateMutability": "nonpayable",
      "type": "function"
    },
    {
      "inputs": [
        {
          "internalType": "address",
          "name": "token",
          "type": "address"
        },
        {
          "internalType": "uint256",
          "name": "age",
          "type": "uint256"
        }
      ],
      "name": "setMaxPriceAge",
      "outputs": [],
      "stateMutability": "nonpayable",
      "type": "function"
    },
    {
      "inputs": [
        {
          "internalType": "uint256",
          "name": "amount",
          "type": "uint256"
        }
      ],
      "name": "setMinPartialLiquidationAmount",
      "outputs": [],
      "stateMutability": "nonpayable",
      "type": "function"
    },
    {
      "inputs": [
        {
          "internalType": "address",
          "name": "token",
          "type": "address"
        },
        {
          "internalType": "address",
          "name": "feed",
          "type": "address"
        }
      ],
      "name": "setPriceFeed",
      "outputs": [],
      "stateMutability": "nonpayable",
      "type": "function"
    },
    {
      "inputs": [
        {
          "internalType": "address",
          "name": "_reserve",
          "type": "address"
        }
      ],
      "name": "setReserveAddress",
      "outputs": [],
      "stateMutability": "nonpayable",
      "type": "function"
    },
    {
      "inputs": [
        {
          "internalType": "uint256",
          "name": "tier",
          "type": "uint256"
        },
        {
          "internalType": "uint256",
          "name": "originationFee",
          "type": "uint256"
        },
        {
          "internalType": "uint256",
          "name": "lateFeeAPR",
          "type": "uint256"
        }
      ],
      "name": "setTierFee",
      "outputs": [],
      "stateMutability": "nonpayable",
      "type": "function"
    },
    {
      "inputs": [
        {
          "internalType": "bool",
          "name": "required",
          "type": "bool"
        }
      ],
      "name": "setZKProofRequirement",
      "outputs": [],
      "stateMutability": "nonpayable",
      "type": "function"
    },
    {
      "inputs": [],
      "name": "stablecoinManager",
      "outputs": [
        {
          "internalType": "contract StablecoinManager",
          "name": "",
          "type": "address"
        }
      ],
      "stateMutability": "view",
      "type": "function"
    },
    {
      "inputs": [
        {
          "internalType": "address",
          "name": "user",
          "type": "address"
        }
      ],
      "name": "startLiquidation",
      "outputs": [],
      "stateMutability": "nonpayable",
      "type": "function"
    },
    {
      "inputs": [
        {
          "internalType": "bytes4",
          "name": "interfaceId",
          "type": "bytes4"
        }
      ],
      "name": "supportsInterface",
      "outputs": [
        {
          "internalType": "bool",
          "name": "",
          "type": "bool"
        }
      ],
      "stateMutability": "view",
      "type": "function"
    },
    {
      "inputs": [
        {
          "internalType": "uint256",
          "name": "",
          "type": "uint256"
        }
      ],
      "name": "tierFees",
      "outputs": [
        {
          "internalType": "uint256",
          "name": "originationFee",
          "type": "uint256"
        },
        {
          "internalType": "uint256",
          "name": "lateFeeAPR",
          "type": "uint256"
        }
      ],
      "stateMutability": "view",
      "type": "function"
    },
    {
      "inputs": [],
      "name": "timelock",
      "outputs": [
        {
          "internalType": "address",
          "name": "",
          "type": "address"
        }
      ],
      "stateMutability": "view",
      "type": "function"
    },
    {
      "inputs": [],
      "name": "togglePause",
      "outputs": [],
      "stateMutability": "nonpayable",
      "type": "function"
    },
    {
      "inputs": [],
      "name": "totalBorrowedAllTime",
      "outputs": [
        {
          "internalType": "uint256",
          "name": "",
          "type": "uint256"
        }
      ],
      "stateMutability": "view",
      "type": "function"
    },
    {
      "inputs": [],
      "name": "totalFunds",
      "outputs": [
        {
          "internalType": "uint256",
          "name": "",
          "type": "uint256"
        }
      ],
      "stateMutability": "view",
      "type": "function"
    },
    {
      "inputs": [],
      "name": "totalRepaidAllTime",
      "outputs": [
        {
          "internalType": "uint256",
          "name": "",
          "type": "uint256"
        }
      ],
      "stateMutability": "view",
      "type": "function"
    },
    {
      "inputs": [
        {
          "internalType": "uint256",
          "name": "tierIndex",
          "type": "uint256"
        },
        {
          "internalType": "uint256",
          "name": "minScore",
          "type": "uint256"
        },
        {
          "internalType": "uint256",
          "name": "maxScore",
          "type": "uint256"
        },
        {
          "internalType": "uint256",
          "name": "collateralRatio",
          "type": "uint256"
        },
        {
          "internalType": "int256",
          "name": "interestRateModifier",
          "type": "int256"
        },
        {
          "internalType": "uint256",
          "name": "maxLoanAmount",
          "type": "uint256"
        }
      ],
      "name": "updateBorrowTier",
      "outputs": [],
      "stateMutability": "nonpayable",
      "type": "function"
    },
    {
      "inputs": [
        {
          "internalType": "address",
          "name": "user",
          "type": "address"
        },
        {
          "internalType": "uint256",
          "name": "score",
          "type": "uint256"
        }
      ],
      "name": "updateCreditScoreFromZK",
      "outputs": [],
      "stateMutability": "nonpayable",
      "type": "function"
    },
    {
      "inputs": [
        {
          "internalType": "address",
          "name": "",
          "type": "address"
        }
      ],
      "name": "userDebt",
      "outputs": [
        {
          "internalType": "uint256",
          "name": "",
          "type": "uint256"
        }
      ],
      "stateMutability": "view",
      "type": "function"
    },
    {
      "inputs": [
        {
          "internalType": "uint256",
          "name": "",
          "type": "uint256"
        }
      ],
      "name": "users",
      "outputs": [
        {
          "internalType": "address",
          "name": "",
          "type": "address"
        }
      ],
      "stateMutability": "view",
      "type": "function"
    },
    {
      "inputs": [
        {
          "internalType": "address",
          "name": "token",
          "type": "address"
        },
        {
          "internalType": "uint256",
          "name": "amount",
          "type": "uint256"
        }
      ],
      "name": "withdrawCollateral",
      "outputs": [],
      "stateMutability": "nonpayable",
      "type": "function"
    },
    {
      "inputs": [
        {
          "internalType": "uint256",
          "name": "amount",
          "type": "uint256"
        }
      ],
      "name": "withdrawForLendingManager",
      "outputs": [],
      "stateMutability": "nonpayable",
      "type": "function"
    },
    {
      "inputs": [],
      "name": "zkProofRequired",
      "outputs": [
        {
          "internalType": "bool",
          "name": "",
          "type": "bool"
        }
      ],
      "stateMutability": "view",
      "type": "function"
    },
    {
      "stateMutability": "payable",
      "type": "receive"
    }
  ],
  "bytecode": "0x6080806040523460155761542c908161001b8239f35b600080fdfe6080604052600436101561002a575b361561001957600080fd5b61002534600b546143b0565b600b55005b6000803560e01c806301c76f811461415557806301ffc9a7146140fe578063042e02cf146140bf578063080d9c2b14613f745780630b044c7914613f575780630ef7fb6714613f3b57806312065fe014613f1f5780631459457a14613be457806314673d3114613b2b5780631bfe426114613af05780631fd48b9a14613aaf57806320dfcae11461381857806323fe5a33146137ff578063248a9ca3146137e05780632f2ff15d146137ae57806330332f9f1461373257806333481fc914613644578063350c35e9146133dd578063357619a9146133a257806335f679811461337557806336568abe14613330578063365b98b21461330557806338053ef3146132ce5780633d7c5d3e146132b0578063402d888314612e8f5780634046ebae14612e62578063418eea3114612e27578063450a375a14612e005780634585e33b14612c5d578063488683cd14612c225780634c8f35ab146119165780634c95da6614612bd757806352226ef014612b8357806355f4d9e214612a305780635b66e7fc14612a135780635b6cca80146129bb5780635c44f10d1461299f5780635c975abb14611a1f5780636579b73e1461296657806368272ecc146128ed5780636c648fc4146128c95780636e04ff0d146126ad5780636e9960c314610f31578063704b6c021461262757806370ed11bc146125c657806372ed9f7b1461244a5780637346f4861461240b57806373b4086b1461238b57806376e112861461230757806378974cbb146122605780637a8ce68b14612225578063802937ac1461220757806383475f0c146121cc57806386d785e6146121805780638e6b53bc1461214e57806391d14854146120f55780639490a51e146120b6578063962a0da51461207b578063968ed6001461205d57806397ed81cf14611f4b5780639ac77e1b14611ed65780639b8621d514611eba5780639e3b77af14611e91578063a217fddf14611e75578063a5d5db0c14611b36578063a75b24c714611a6e578063a89ef5ca14611a45578063b187bd2614611a1f578063b3075fb7146119eb578063b3a5a0a2146119a7578063b69e5c771461196e578063b8cdf56114611950578063bc3d5a3e14611932578063c129d50414611916578063c1a287e2146118f8578063c23c69d5146118bf578063c39537e114611884578063c4ae316814611800578063c5ebeaec14611170578063c869d0ed146110cb578063c941f321146110a2578063cf17622514611086578063cf30901214611063578063d1f151c114610f93578063d29255f914610f5a578063d33219b414610f31578063d3dd2bdf14610f0d578063d547741f14610ed6578063ddac7f1b14610e52578063e19fb8f514610d3e578063e1c5010014610c2d578063e2842d7914610b9f578063e6ae357614610b64578063e7602b9d14610b10578063e84bae4514610add578063e884cf2314610ab7578063e8a7da8e1461087f578063e9ffb29114610844578063eb8d655114610809578063ebdcc164146107ce578063ef02401a146107a0578063f1c5d6c214610774578063f3fdb15a1461074b578063f79ed94b14610722578063f7e590ee146106e9578063feb50e52146105da5763ffd4aedb146104cf575061000e565b346105d75760803660031901126105d75761058060206104ed6141ab565b6104f56141c1565b6104fd6141d7565b6064359261051660018060a01b03600e54163314614a5d565b6001600160a01b03908116808852878652604080892094909216600090815293865292208054610547908590614414565b905560405163a9059cbb60e01b81526001600160a01b039091166004820152602481019290925290928391908290869082906044820190565b03925af180156105cc57610592575080f35b6020813d6020116105c4575b816105ab60209383614381565b810103126105c0576105bc906143a3565b5080f35b5080fd5b3d915061059e565b6040513d84823e3d90fd5b80fd5b50346105d75760403660031901126105d7576004356024356001600160a01b038116908190036106e5576010546001600160a01b031633036106d6578147106106b9578280809381935af13d156106b4573d67ffffffffffffffff81116106a05760405190610653601f8201601f191660200183614381565b81528260203d92013e5b156106655780f35b60405162461bcd60e51b8152602060048201526013602482015272115512081d1c985b9cd9995c8819985a5b1959606a1b6044820152606490fd5b634e487b7160e01b83526041600452602483fd5b61065d565b60405162461bcd60e51b8152806106d26004820161476b565b0390fd5b630925c89960e31b8352600483fd5b8280fd5b50346105d75760203660031901126105d7576020906040906001600160a01b036107116141ab565b168152600283522054604051908152f35b50346105d757806003193601126105d7576018546040516001600160a01b039091168152602090f35b50346105d757806003193601126105d757600f546040516001600160a01b039091168152602090f35b50346105d75760203660031901126105d75760206107986107936141ab565b614f0f565b604051908152f35b50346105d75760203660031901126105d75760206107c46107bf6141ab565b614e42565b6040519015158152f35b50346105d75760203660031901126105d7576020906040906001600160a01b036107f66141ab565b1681526002835220541515604051908152f35b50346105d757806003193601126105d75760206040517f742d8195bebb59905cedb6c02453745e9ef7090c163e7dea727ab0849b3dfc008152f35b50346105d757806003193601126105d75760206040517fa22cb6bd33c714cffaf72f196d1ebf87829cac5214f3ad84491fa8669ede7a6a8152f35b50346105d75760203660031901126105d7576108996141ab565b6001600160a01b0381168252601a6020526040808320905190916108bc82614365565b825492838352600181015492602081019184835260028101549283604084015260038201546060840194818652600484015492608086019084825260c060ff60066005890154988960a08c0152015416970196151596878152844210600014610ab0576201518061092d4287614414565b04985b8d9a815162093a808101809111610a9b57421180610a91575b6109ea575b5050511515806109e0575b156109d45751815161096a916143b0565b60001981019b908c116109c057506101409a610987915190614421565b975b604051998a5260208a015260408901526060880152608087015260a086015260c085015260e0840152610100830152610120820152f35b634e487b7160e01b81526011600452602490fd5b50506101409997610989565b5080511515610959565b6109f3906148b3565b6005811015610a7d5760408f60019281526019602052200154905162093a808101809111610a6957610a29620151809142614414565b049081151580610a60575b1561094e57612710929b5061016d91610a51610a56928651614441565b614441565b040498388061094e565b50801515610a34565b634e487b7160e01b8f52601160045260248ffd5b634e487b7160e01b8f52602160045260248ffd5b5082511515610949565b50634e487b7160e01b8f52601160045260248ffd5b8c98610930565b50346105d757806003193601126105d757602060ff60115460a01c166040519015158152f35b50346105d75760203660031901126105d7576004359060058210156105d7576020610b0783614304565b54604051908152f35b50346105d75760403660031901126105d7576040610b2c6141ab565b91610b356141c1565b9260018060a01b0316815280602052209060018060a01b03166000526020526020604060002054604051908152f35b50346105d757806003193601126105d75760206040517fb438992c2c4c65322b65fd8e2dacea9efd63443e69e5ed52f4a77ed6c78f7c2a8152f35b50346105d757806003193601126105d75760405180916020600954928381520191600982527f6e1540171b6c0c960b71a7020d9f60077f6af931a8bbf590da0223dacf75c7af915b818110610c0e57610c0a85610bfe81870382614381565b604051918291826142c1565b0390f35b82546001600160a01b0316845260209093019260019283019201610be7565b50346105d75760203660031901126105d757610c476141ab565b610c5081614ba4565b50610d03576001600160a01b03168082526005602052604082205460ff16610cbe57808252600560205260408220600160ff1982541617905580825260066020524260408320557f7f62ed89ea2c6fb057e4ea77729c1d3f18056339791fce29ac89760197b45b298280a280f35b60405162461bcd60e51b815260206004820152601b60248201527f4c69717569646174696f6e20616c7265616479207374617274656400000000006044820152606490fd5b60405162461bcd60e51b8152602060048201526013602482015272506f736974696f6e206973206865616c74687960681b6044820152606490fd5b50346105d75760203660031901126105d7576004356001600c54610d6560ff821615614c59565b60ff191617600c55600e546001600160a01b03163303610e0257478111610dbd578180808093818115610db4575b3390f115610da85760ff19600c5416600c5580f35b604051903d90823e3d90fd5b506108fc610d93565b60405162461bcd60e51b815260206004820152601d60248201527f496e73756666696369656e7420636f6e74726163742062616c616e63650000006044820152606490fd5b60405162461bcd60e51b815260206004820152602260248201527f4f6e6c79206c656e64696e67206d616e616765722063616e2063616c6c207468604482015261697360f01b6064820152608490fd5b50346105d75760403660031901126105d757610e6c6141ab565b60105460243591906001600160a01b031633036106d657620151808211610ea5576001600160a01b031682526016602052604082205580f35b60405162461bcd60e51b8152602060048201526009602482015268546f6f206c6172676560b81b6044820152606490fd5b50346105d75760403660031901126105d7576105bc600435610ef66141c1565b90610f08610f03826146c5565b615165565b615251565b50346105d75760203660031901126105d7576020610798610f2c6141ab565b614d5d565b50346105d757806003193601126105d7576010546040516001600160a01b039091168152602090f35b50346105d75760203660031901126105d7576020906040906001600160a01b03610f826141ab565b168152600483522054604051908152f35b50346105d75760603660031901126105d7576010546004359060243590604435906001600160a01b0316330361105457610fd060125484106146e6565b6040516040810181811067ffffffffffffffff82111761104057917f7543d68ffbde1802767cee31f14403e1b914f7249f14f2724e7398aa10de0923939160409384528281526001602082018381528789526019602052858920925183555191015582519182526020820152a280f35b634e487b7160e01b86526041600452602486fd5b630925c89960e31b8452600484fd5b50346105d757806003193601126105d757602060ff600c54166040519015158152f35b50346105d757806003193601126105d757610c0a610bfe614c95565b50346105d757806003193601126105d757600d546040516001600160a01b039091168152602090f35b50346105d75760203660031901126105d7576110e56141ab565b6010546001600160a01b03163303611161576001600160a01b0316801561111c576001600160601b0360a01b600e541617600e5580f35b60405162461bcd60e51b815260206004820152601f60248201527f496e76616c6964206c656e64696e67206d616e616765722061646472657373006044820152606490fd5b630925c89960e31b8252600482fd5b5060203660031901126105d7576004356001600c5461119560ff8260081c16156143d3565b6111a260ff821615614c59565b60ff191617600c55338252600360205260408220546117bb576111c4336148b3565b6005811015806117a7576004821461176b57600b5460011c831161170d576111eb336147ed565b91505083116116ba576111fd336147ed565b505061120833614983565b90606482029180830460641490151715611463576112269085614441565b11611667576018546001600160a01b0316908482611645575b8561124a8287614414565b93821580156115a8575b50505050600b549061126b60145460155490614414565b9186928161155d575b5050600f54604051634fd41dad60e11b81526004810193909352602090839060249082906001600160a01b03165afa918215611552578692611519575b506115055760036112c1846142a2565b50015481868212156114cb57506112d790614a4c565b6127100390612710821161146357612710916112f291614441565b04915b600c84106114775762278d004201804211611463578580936113c382946113a2849560066040519161132683614365565b8c83528b8d60208501928184526040860192835260608601908152600c608087019204825260a08601926101f4845260c087019460018652338d52601a60205260408d209751885551600188015551600287015551600386015551600485015551600584015551151591019060ff801983541691151516179055565b33845260036020528860408520553384526004602052426040852055614304565b6113ce8882546143b0565b90556113dc876014546143b0565b60145581811561145a575b3390f1156105cc576040519082825260208201527f5660f932172e1664b98577a703dd9484d374b28e3bf8c87b345bee97af61241260403392a26040519081527fac59582e5396aca512fa873a2047e7f4c80f8f55d4a06cb34a78a0187f62719f60203392a260ff19600c5416600c5580f35b506108fc6113e7565b634e487b7160e01b86526011600452602486fd5b60405162461bcd60e51b815260206004820152602660248201527f4c6f616e20616d6f756e7420746f6f20736d616c6c20666f7220616d6f7274696044820152653d30ba34b7b760d11b6064820152608490fd5b9391908681136114dd575b50506112f5565b909193506127100190816127101161146357612710916114fc91614441565b049138806114d6565b634e487b7160e01b85526021600452602485fd5b9091506020813d60201161154a575b8161153560209383614381565b81010312611545575190386112b1565b600080fd5b3d9150611528565b6040513d88823e3d90fd5b90919250670de0b6b3a7640000810290808204670de0b6b3a76400001490151715611594579061158c91614421565b903880611274565b634e487b7160e01b87526011600452602487fd5b828481938293839061163c575bf115611631578161161d5760405190815260606020820152600b60608201526a37b934b3b4b730ba34b7b760a91b60808201528360408201527f66aecc579aa1ef463c0ed1547c2cb6163370e6311a60cba815252acbb398f21360a03392a238858180611254565b634e487b7160e01b86526021600452602486fd5b6040513d87823e3d90fd5b506108fc6115b5565b5050838285526019602052612710611661604087205486614441565b0461123f565b60405162461bcd60e51b815260206004820152602560248201527f496e73756666696369656e7420636f6c6c61746572616c20666f722074686973604482015264103637b0b760d91b6064820152608490fd5b60405162461bcd60e51b815260206004820152602560248201527f426f72726f7720616d6f756e74206578636565647320796f75722074696572206044820152641b1a5b5a5d60da1b6064820152608490fd5b60405162461bcd60e51b815260206004820152603060248201527f426f72726f7720616d6f756e74206578636565647320617661696c61626c652060448201526f6c656e64696e6720636170616369747960801b6064820152608490fd5b60405162461bcd60e51b81526020600482015260146024820152734372656469742073636f726520746f6f206c6f7760601b6044820152606490fd5b634e487b7160e01b84526021600452602484fd5b60405162461bcd60e51b815260206004820152601e60248201527f526570617920796f7572206578697374696e67206465627420666972737400006044820152606490fd5b50346105d757806003193601126105d7576010546001600160a01b03163303611875577f228f455d7bc3d0b24a3a08d7847f391c3e78fc8aeb83acf226b7a96ee162b8ac6020600c5461ff0060ff8260081c161560081b169061ff0019161780600c5560ff6040519160081c1615158152a180f35b630925c89960e31b8152600490fd5b50346105d757806003193601126105d75760206040517facd38b7c4e04b2b78fc2ca994eae1a3eb206005ffa4c11fcf4a9d81c94684b2d8152f35b50346105d75760203660031901126105d7576020906040906001600160a01b036118e76141ab565b168152600683522054604051908152f35b50346105d757806003193601126105d75760206040516203f4808152f35b50346105d757806003193601126105d757602060405160828152f35b50346105d757806003193601126105d7576020601554604051908152f35b50346105d757806003193601126105d7576020601454604051908152f35b50346105d75760203660031901126105d7576020906040906001600160a01b036119966141ab565b168152600383522054604051908152f35b50346105d75760203660031901126105d757600435906008548210156105d75760206119d28361421e565b905460405160039290921b1c6001600160a01b03168152f35b50346105d75760203660031901126105d7576040809160043581526019602052206001815491015482519182526020820152f35b50346105d757806003193601126105d757602060ff600c5460081c166040519015158152f35b50346105d757806003193601126105d7576011546040516001600160a01b039091168152602090f35b50346105d75760403660031901126105d757611a886141ab565b60115460243591906001600160a01b03163303611af15760207f4afae6838a181695abc7978598380d73bc2144eb38580c130f86e4b1e6531e1591611ad06064851115614c18565b6001600160a01b03168085526002825260408086208590555193845292a280f35b60405162461bcd60e51b815260206004820152601d60248201527f4f6e6c79206372656469742073797374656d2063616e207570646174650000006044820152606490fd5b50346105d75760403660031901126105d757611b506141ab565b6001600160a01b0316808252600160205260408220546024359060ff1615611df4578015611d7157338352600560205260ff604084205416611ce057338352600a60205260ff60408420541615611c73575b6040516323b872dd60e01b81523360048201523060248201526044810182905260208160648187875af18015611c6857611c2d575b5081835260208381526040808520336000908152925290208054611bfc9083906143b0565b90556040519081527ff1c0dd7e9b98bbff859029005ef89b127af049cd18df1a8d79f0b7e019911e5660203392a380f35b6020813d602011611c60575b81611c4660209383614381565b81010312611c5c57611c57906143a3565b611bd7565b8380fd5b3d9150611c39565b6040513d86823e3d90fd5b338352600a60205260408320805460ff19166001179055600954600160401b811015611ccc57806001611cab92016009556009614239565b81546001600160a01b0360039290921b91821b19163390911b179055611ba2565b634e487b7160e01b84526041600452602484fd5b604051600080516020615397833981519152339180611d2d8160609060208152601960208201527820b1b1b7bab73a1034b99034b7103634b8bab4b230ba34b7b760391b60408201520190565b0390a260405162461bcd60e51b815260206004820152601960248201527820b1b1b7bab73a1034b99034b7103634b8bab4b230ba34b7b760391b6044820152606490fd5b604051600080516020615397833981519152339180611db7816060906020815260126020820152710416d6f756e74206d757374206265203e20360741b60408201520190565b0390a260405162461bcd60e51b81526020600482015260126024820152710416d6f756e74206d757374206265203e20360741b6044820152606490fd5b604051600080516020615397833981519152339180611e3981606090602081526011602082015270151bdad95b881b9bdd08185b1b1bddd959607a1b60408201520190565b0390a260405162461bcd60e51b8152602060048201526011602482015270151bdad95b881b9bdd08185b1b1bddd959607a1b6044820152606490fd5b50346105d757806003193601126105d757602090604051908152f35b50346105d757806003193601126105d757600e546040516001600160a01b039091168152602090f35b50346105d757806003193601126105d757602060405160058152f35b50346105d75760203660031901126105d757611ef06141ab565b6010546001600160a01b0316330361116157601180546001600160a01b039283166001600160a01b0319821681179092559091167f3637d79e8b0bd63fa3bcc41c2ab614b349b83626b91f73211bc80c6ec5ec4e958380a380f35b50346105d75760403660031901126105d757611f656141ab565b60105460243591906001600160a01b031633036106d6576001600160a01b031690811561201857308214611fdb57602081611fc460647f4afae6838a181695abc7978598380d73bc2144eb38580c130f86e4b1e6531e15941115614c18565b83855260028252806040862055604051908152a280f35b60405162461bcd60e51b815260206004820152601560248201527424b73b30b634b21030b2323932b9b99d1039b2b63360591b6044820152606490fd5b60405162461bcd60e51b815260206004820152601d60248201527f496e76616c696420616464726573733a207a65726f20616464726573730000006044820152606490fd5b50346105d757806003193601126105d7576020600b54604051908152f35b50346105d757806003193601126105d75760206040517f96737339a958f216173e690d06f324072e6dc3146e04c060bd723906d6b190768152f35b50346105d75760203660031901126105d75760209060ff906040906001600160a01b036120e16141ab565b168152600a84522054166040519015158152f35b50346105d75760403660031901126105d75760406121116141c1565b9160043581526000805160206153b7833981519152602052209060018060a01b0316600052602052602060ff604060002054166040519015158152f35b50346105d75760203660031901126105d757604061217261216d6141ab565b614ba4565b825191151582526020820152f35b50346105d75760203660031901126105d75760a06121a461219f6141ab565b614ae9565b9260409291925194151585521515602085015215156040840152606083015215156080820152f35b50346105d757806003193601126105d75760206040517fce802e42c93d0fbd61dfc706a0e806b78ac046397e07510da2f223464e4788e08152f35b50346105d757806003193601126105d7576020601754604051908152f35b50346105d757806003193601126105d75760206040517f0e0e24c52bc4f24612e3f568966757426acd82325205933a9270e1ce7c4d93c28152f35b50346105d75760403660031901126105d75761230161227d6141ab565b6122ec6122e76024359261229c60018060a01b03600e54163314614a5d565b60018060a01b0381168087526003602052866040812055808752600460205286604081205580875260056020526040872060ff198154169055865260066020528560408120556148b3565b614304565b6122f7828254614414565b90556015546143b0565b60155580f35b50346105d75760403660031901126105d7576123216141ab565b6123296141c1565b6010549091906001600160a01b031633036106d6576001600160a01b0316808352600160205260408320546123609060ff16614937565b825260076020526040822080546001600160a01b0319166001600160a01b0390921691909117905580f35b50346105d75760203660031901126105d75760e0906040906001600160a01b036123b36141ab565b168152601a602052208054906001810154906002810154600382015460048301549160ff600660058601549501541694604051968752602087015260408601526060850152608084015260a0830152151560c0820152f35b50346105d75760203660031901126105d75760209060ff906040906001600160a01b036124366141ab565b168152600184522054166040519015158152f35b50346105d75760203660031901126105d7576124646141ab565b600b5461247660145460155490614414565b81156125bd57670de0b6b3a7640000810290808204670de0b6b3a764000014901517156125a957906124a791614421565b905b600f54604051634fd41dad60e11b81526004810193909352602090839060249082906001600160a01b03165afa91821561259e578392612568575b506124ee906147ed565b508291508381121561252c57612505919250614a4c565b612710039161271083116109c0575061252360209261271092614441565b04604051908152f35b83811361253f575b505060209150610798565b909150612710019182612710116109c0575061256060209261271092614441565b043880612534565b9091506020813d602011612596575b8161258460209383614381565b810103126115455751906124ee6124e4565b3d9150612577565b6040513d85823e3d90fd5b634e487b7160e01b84526011600452602484fd5b505081906124a9565b50346105d75760203660031901126105d757600435906012548210156105d75760a06125f1836142a2565b50805490600181015490600281015460046003830154920154926040519485526020850152604084015260608301526080820152f35b50346105d75760203660031901126105d7576126416141ab565b601054906001600160a01b03821633036106d6576001600160a01b0316908115612676576001600160a01b0319161760105580f35b60405162461bcd60e51b815260206004820152600f60248201526e496e76616c6964206164647265737360881b6044820152606490fd5b50346105d7576126bc36614251565b50506060601b54603c81018091116128b5576126d990421161485c565b604051808160206009549283815201600986527f6e1540171b6c0c960b71a7020d9f60077f6af931a8bbf590da0223dacf75c7af92865b81811061289357505061272592500382614381565b61272f8151614a1a565b908390845b81518110156127c2576001600160a01b0361274f8284614454565b5116808752600560205260ff60408820541661276f575b50600101612734565b808752600660205260408720546203f48081018091116127ae57421061276657836127a7916127a16001949688614454565b52614468565b9290612766565b634e487b7160e01b88526011600452602488fd5b83868487811561288957506127d681614a1a565b92825b828110612861575050506127fb612809600193604051928391602083016142c1565b03601f198101835282614381565b90915b6040519283911515825260406020830152825192836040840152815b84811061284957505091606092838284010152601f80199101168101030190f35b60208282018101516060888401015286945001612828565b6001906001600160a01b036128768285614454565b51166128828288614454565b52016127d9565b919250508161280c565b84546001600160a01b0316835260019485019486945060209093019201612710565b634e487b7160e01b83526011600452602483fd5b50346105d75760203660031901126105d75760206107986128e86141ab565b614983565b50346105d75760203660031901126105d7576004358015158091036105c0576010546001600160a01b03163303611161576011805460ff60a01b191660a083901b60ff60a01b161790556040519081527f895b395338611f71448ee682a563b0c13233e238236eb6700d45720ec4bf444590602090a180f35b50346105d75760203660031901126105d7576020906040906001600160a01b0361298e6141ab565b168152601683522054604051908152f35b50346105d757806003193601126105d7576020604051603c8152f35b50346105d75760203660031901126105d7576020906001600160a01b036129e06141ab565b16808252600183526129f860ff604084205416614937565b815260078252604060018060a01b0391205416604051908152f35b50346105d757806003193601126105d75760206040516103848152f35b50346105d75760403660031901126105d757612a4a6141ab565b6024359081151590818303611c5c576010546001600160a01b03163303611054576001600160a01b0316808452600160205260408420805460ff191660ff85151516179055918384600854905b818110612b4e575b505081612b45575b50612adb575b60207f15f5cc64ca777db85f6c05fdba671568758b38329616d4d4b43bb8b092fe9a8d91604051908152a280f35b600854600160401b811015611ccc577f15f5cc64ca777db85f6c05fdba671568758b38329616d4d4b43bb8b092fe9a8d91612b20826001602094016008556008614239565b81546001600160a01b0360039290921b91821b19169086901b1790559150612aad9050565b90501538612aa7565b85612b588261421e565b905460039190911b1c6001600160a01b031614612b7757600101612a97565b50505060013880612a9f565b50346105d75760403660031901126105d7576040612b9f6141ab565b916001600160a01b03612bb06141c1565b16815280602052209060018060a01b03166000526020526020604060002054604051908152f35b50346105d75760203660031901126105d757612bf9612bf46141ab565b6148b3565b604051906005811015612c0e57602092508152f35b634e487b7160e01b83526021600452602483fd5b50346105d757806003193601126105d75760206040517f430b074324c1d9f1ce97c9e9efd8cc6b779c8a501b53808a5cafe19682f95dd58152f35b50346105d757612c6c36614251565b601b54603c81018091116125a957612c8590421161485c565b42601b558101906020818303126106e55780359067ffffffffffffffff8211611c5c57019080601f830112156106e557813590612cc18261489b565b92612ccf6040519485614381565b82845260208085019360051b820101918211612dfc57602001915b818310612dd857505050815b8151811015612dd4576001600160a01b03612d118284614454565b5116808452600560205260ff604085205416612d31575b50600101612cf6565b808452600660205260408420546203f4808101809111612dc057908491421015612d5c575b50612d28565b600e546001600160a01b0316803b156106e55760405163bcebb1d760e01b81523060048201526001600160a01b0392909216602483015282908290604490829084905af180156105cc5715612d565781612db591614381565b6106e5578238612d56565b634e487b7160e01b85526011600452602485fd5b8280f35b82356001600160a01b0381168103612df857815260209283019201612cea565b8580fd5b8480fd5b50346105d757806003193601126105d7576040602091338152600383522054604051908152f35b50346105d757806003193601126105d75760206040517f5fef09193e4e8110de1cc5ba269e889a5fb9093ba33c4df4b67dc2eaa1ca1fff8152f35b50346105d757806003193601126105d757600c5460405160109190911c6001600160a01b03168152602090f35b50806003193601126105d757612ead60ff600c5460081c16156143d3565b338152600360205260408120541561322b57341561319c5733815260036020526040812054341161310357612ee1336148b3565b612eea81614304565b612ef5348254614414565b9055338252600360205260408220612f0e348254614414565b9055612f1c346015546143b0565b60155533825260036020526040822054156130f0575b338252600560205260ff6040832054166130c9575b6018546001600160a01b03161515806130b4575b612f90575b506040513481527f0516911bcc3a0a7412a44601057c0a0a1ec628bde049a84284bc42886653448860203392a280f35b813383526004602052604083205462093a8081018091116125a9574211613085575b80612fbe575b50612f60565b3383526003602052604083205460058310156117a75761016d612ff98593610a51612710948787526019602052600160408820015490614441565b040480613007575b50612fb8565b60018060a01b03600e5416923383526003602052604083205491843b15611c5c578392608491604051968794859363e50649d160e01b8552336004860152602485015260448401528160648401525af1801561307857613068575b81613001565b61307191614381565b3881613062565b50604051903d90823e3d90fd5b503382526004602052604082205462093a8081018091116128b5576130ae620151809142614414565b04612fb2565b50338252600460205260408220541515612f5b565b33825260056020526040822060ff1981541690553382526006602052816040812055612f47565b3382526004602052816040812055612f32565b6040516000805160206153978339815191523391806131548160609060208152601c60208201527f52657061796d656e74206578636565647320746f74616c20646562740000000060408201520190565b0390a260405162461bcd60e51b815260206004820152601c60248201527f52657061796d656e74206578636565647320746f74616c2064656274000000006044820152606490fd5b6040516000805160206153978339815191523391806131e8816060906020815260186020820152774d7573742073656e642066756e647320746f20726570617960401b60408201520190565b0390a260405162461bcd60e51b81526020600482015260186024820152774d7573742073656e642066756e647320746f20726570617960401b6044820152606490fd5b60405160008051602061539783398151915233918061327281606090602081526013602082015272139bc81bdd5d1cdd185b991a5b99c81919589d606a1b60408201520190565b0390a260405162461bcd60e51b8152602060048201526013602482015272139bc81bdd5d1cdd185b991a5b99c81919589d606a1b6044820152606490fd5b50346105d757806003193601126105d7576020601b54604051908152f35b50346105d75760203660031901126105d75760606132f26132ed6141ab565b6147ed565b9060405192835260208301526040820152f35b50346105d75760203660031901126105d757600435906009548210156105d75760206119d2836141ed565b50346105d75760403660031901126105d75761334a6141c1565b336001600160a01b03821603613366576105bc90600435615251565b63334bd91960e11b8252600482fd5b50346105d75760203660031901126105d7576010546001600160a01b031633036118755760043560175580f35b50346105d757806003193601126105d75760206040517ffed613f2d4bec2209ff904769fa3c094c155ec5048c0bb2e17f16e523671ca2c8152f35b50346105d75760403660031901126105d7576133f76141ab565b6001600160a01b0381168083526001602052604083205490916024359160ff1615611df45782845260208481526040808620338752909152842054821161360a57338452600560205260ff604085205416611ce05761347b90670de0b6b3a764000061347461346e61346833614983565b93614f0f565b85614441565b0490614414565b6064810290808204606414901517156125a957338452600360205260246040852054602060018060a01b03600d541660405193848092631ee1b90b60e21b82528960048301525afa9081156115525786916135d4575b6134db9250614441565b1161359a578183526020838152604080852033865290915283208054613502908390614414565b905560405163a9059cbb60e01b81523360048201526024810182905260208160448187875af18015611c6857613563575b506040519081527f45892a46e6cef329bb642da6d69846d324db43d19008edc141ed82382eda1bee60203392a380f35b6020813d602011613592575b8161357c60209383614381565b81010312611c5c5761358d906143a3565b613533565b3d915061356f565b6040516000805160206153978339815191523391806135b88161479a565b0390a260405162461bcd60e51b8152806106d26004820161479a565b90506020823d602011613602575b816135ef60209383614381565b81010312612df8576134db9151906134d1565b3d91506135e2565b6040516000805160206153978339815191523391806136288161476b565b0390a260405162461bcd60e51b8152806106d26004820161476b565b50346105d75760203660031901126105d757604060e0916136636141ab565b8160c0845161367181614365565b82815282602082015282868201528260608201528260808201528260a0820152015260018060a01b03168152601a602052206040516136af81614365565b815491828252600181015460208301908152600282015460408401908152600383015490606085019182526004840154926080860193845260c060ff600660058801549760a08a01988952015416960195151586526040519687525160208701525160408601525160608501525160808401525160a083015251151560c0820152f35b50346105d75760c03660031901126105d757601054600435906001600160a01b03163303611161576137ab9061376b60125482106146e6565b6137a56040519161377b83614333565b602435835260443560208401526064356040840152608435606084015260a43560808401526142a2565b90614721565b80f35b50346105d75760403660031901126105d7576105bc6004356137ce6141c1565b906137db610f03826146c5565b6151af565b50346105d75760203660031901126105d75760206107986004356146c5565b50346105d757806003193601126105d7576137ab614477565b50806003193601126105d75761383660ff600c5460081c16156143d3565b338152601a60205260408120600681019060ff82541615613a79576004810190815491823410613a345760038201918254804210613a035762093a8081018091116115945780421161393c575b509060016138bc920193613898818654614414565b855533875260036020526138b160408820918254614414565b9055546015546143b0565b60155580549062278d008201809211612dc05755546040513481528160208201527fd3cf6d8c55fed98c7b9f9d18d95a51dbdb316503bb854fc1f676c8974cb10f4f60403392a21561390c575080f35b805460ff19169055337f59bd56f70adeefb0cd83dca0f34f066bed6ee442068f3d07b5fc974b944d5aa68280a280f35b613945336148b3565b60058110156139ef57916001916138bc949389526019602052620151806139738460408c2001549242614414565b04801515806139e6575b61398c575b5050919250613883565b6139b161271061016d6139a887870194610a5186549788614441565b040480936143b0565b90556040519081527fce0d6b567089a0bce35e0693cdb625006f0cf915f9f3686bb0343bc2c667c1b260203392a23880613982565b5081151561397d565b634e487b7160e01b88526021600452602488fd5b60405162461bcd60e51b8152602060048201526009602482015268546f6f206561726c7960b81b6044820152606490fd5b60405162461bcd60e51b815260206004820152601860248201527f496e73756666696369656e7420696e7374616c6c6d656e7400000000000000006044820152606490fd5b60405162461bcd60e51b815260206004820152600e60248201526d27379030b1ba34bb32903637b0b760911b6044820152606490fd5b50346105d75760203660031901126105d7576020906001600160a01b03613ad46141ab565b16815260078252604060018060a01b0391205416604051908152f35b50346105d757806003193601126105d75760206040517f8b473ac3e35dc431c1dba0191b7615ccaca6bfeb14f9573dcaae9e614fbe8b208152f35b50346105d75760203660031901126105d757613b456141ab565b6010546001600160a01b03163303611161576001600160a01b03168015613b9f57601880546001600160a01b031916821790557f279ea638680bba6a87fddd8bcdbc37d94eee92841e1dfec2ab0f79662c7093118280a280f35b60405162461bcd60e51b815260206004820152601760248201527f496e76616c6964207265736572766520616464726573730000000000000000006044820152606490fd5b50346105d75760a03660031901126105d757613bfe6141ab565b613c066141c1565b613c0e6141d7565b6064356001600160a01b0381169190829003612dfc576084356001600160a01b0381169390849003612df8576000805160206153d7833981519152549460ff8660401c16159567ffffffffffffffff811680159081613f17575b6001149081613f0d575b159081613f04575b50613ef55767ffffffffffffffff1981166001176000805160206153d78339815191525586613ec8575b5060ff6000805160206153d78339815191525460401c1615613eb95760018060a01b03166001600160601b0360a01b601054161760105560018060a01b03166001600160601b0360a01b600d541617600d5560018060a01b03166001600160601b0360a01b600e541617600e556001600160601b0360a01b600f541617600f5580613e9a575b50613d60604051613d3a81614333565b605a815260646020820152606e6040820152601819606082015260326080820152614fc3565b613d95604051613d6f81614333565b6050815260596020820152607d6040820152600919606082015260286080820152614fc3565b613dc8604051613da481614333565b60468152604f6020820152608c6040820152836060820152601e6080820152614fc3565b613dfc604051613dd781614333565b603c81526045602082015260a06040820152600f606082015260146080820152614fc3565b613e2e604051613e0b81614333565b838152603b602082015260c86040820152601e6060820152836080820152614fc3565b662386f26fc10000601755613e405780f35b68ff0000000000000000196000805160206153d783398151915254166000805160206153d7833981519152557fc7f505b2f371ae2175ee4913f4499e1f2633a7b5936321eed1cdaeb6115181d2602060405160018152a180f35b601180546001600160a81b031916909117600160a01b17905538613d2a565b631afcd79f60e31b8752600487fd5b68ffffffffffffffffff191668010000000000000001176000805160206153d78339815191525538613ca4565b63f92ee8a960e01b8852600488fd5b90501538613c7a565b303b159150613c72565b889150613c68565b50346105d757806003193601126105d757602047604051908152f35b50346105d757806003193601126105d7576020604051600a8152f35b50346105d757806003193601126105d7576020604051610e108152f35b50346105d75760403660031901126105d757613f8e6141ab565b60243590338352600560205260ff6040842054161561407a576040516323b872dd60e01b8152336004820152306024820152604481018390526001600160a01b03919091169060208160648187865af18015611c6857614043575b5082526020828152604080842033855290915282208054909161400b916143b0565b905561401633614ba4565b5061401e5780f35b33815260056020526040812060ff198154169055338152600660205280604081205580f35b6020813d602011614072575b8161405c60209383614381565b81010312611c5c5761406d906143a3565b613fe9565b3d915061404f565b60405162461bcd60e51b815260206004820152601a60248201527f4163636f756e74206e6f7420696e206c69717569646174696f6e0000000000006044820152606490fd5b50346105d75760203660031901126105d75760209060ff906040906001600160a01b036140ea6141ab565b168152600584522054166040519015158152f35b50346105d75760203660031901126105d75760043563ffffffff60e01b81168091036105c057602090637965db0b60e01b8114908115614144575b506040519015158152f35b6301ffc9a760e01b14905082614139565b50346105d75760203660031901126105d75761416f6141ab565b6010546001600160a01b0316330361116157600c805462010000600160b01b03191660109290921b62010000600160b01b031691909117905580f35b600435906001600160a01b038216820361154557565b602435906001600160a01b038216820361154557565b604435906001600160a01b038216820361154557565b60095481101561420857600960005260206000200190600090565b634e487b7160e01b600052603260045260246000fd5b60085481101561420857600860005260206000200190600090565b80548210156142085760005260206000200190600090565b9060206003198301126115455760043567ffffffffffffffff811161154557826023820112156115455780600401359267ffffffffffffffff84116115455760248483010111611545576024019190565b6012548110156142085760126000526005602060002091020190600090565b602060408183019282815284518094520192019060005b8181106142e55750505090565b82516001600160a01b03168452602093840193909201916001016142d8565b600581101561431d576000526013602052604060002090565b634e487b7160e01b600052602160045260246000fd5b60a0810190811067ffffffffffffffff82111761434f57604052565b634e487b7160e01b600052604160045260246000fd5b60e0810190811067ffffffffffffffff82111761434f57604052565b90601f8019910116810190811067ffffffffffffffff82111761434f57604052565b5190811515820361154557565b919082018092116143bd57565b634e487b7160e01b600052601160045260246000fd5b156143da57565b60405162461bcd60e51b815260206004820152601260248201527110dbdb9d1c9858dd081a5cc81c185d5cd95960721b6044820152606490fd5b919082039182116143bd57565b811561442b570490565b634e487b7160e01b600052601260045260246000fd5b818102929181159184041417156143bd57565b80518210156142085760209160051b010190565b60001981146143bd5760010190565b61447f614c95565b60005b8151811015614525576001600160a01b0361449d8284614454565b51166000818152600760205260409020546001600160a01b03166144c5575b50600101614482565b6144dc6144d4610e1092615017565b905042614414565b116144e757386144bc565b505061010061ff0019600c541617600c557f228f455d7bc3d0b24a3a08d7847f391c3e78fc8aeb83acf226b7a96ee162b8ac602060405160018152a1565b5050600b54801515908161468e575b5061456957600954600e54600091906001600160a01b0316825b8281106145cf57505080151591826145a5575b505061456957565b61010061ff0019600c541617600c557f228f455d7bc3d0b24a3a08d7847f391c3e78fc8aeb83acf226b7a96ee162b8ac602060405160018152a1565b9091506064810290808204606414901517156143bd576005916145c791614421565b113880614561565b61461360206145dd836141ed565b9054604051632cf5889360e01b815230600482015260039290921b1c6001600160a01b0316602482015291829081906044820190565b0381865afa90811561468257600091614649575b50614635575b60010161454e565b92614641600191614468565b93905061462d565b906020823d821161467a575b8161466260209383614381565b810103126105d75750614674906143a3565b38614627565b3d9150614655565b6040513d6000823e3d90fd5b905061469f60145460155490614414565b6064810290808204606414901517156143bd57605f916146be91614421565b1138614534565b6000526000805160206153b783398151915260205260016040600020015490565b156146ed57565b60405162461bcd60e51b815260206004820152600c60248201526b24b73b30b634b2103a34b2b960a11b6044820152606490fd5b9190614755576080816004925184556020810151600185015560408101516002850155606081015160038501550151910155565b634e487b7160e01b600052600060045260246000fd5b606090602081526014602082015273496e73756666696369656e742062616c616e636560601b60408201520190565b60809060208152603260208201527f5769746864726177616c20776f756c64206d616b6520706f736974696f6e20756040820152711b99195c98dbdb1b185d195c985b1a5e995960721b60608201520190565b6147f6906148b3565b600581101561431d57614808906142a2565b50906040519061481782614333565b825482526001830154602083015260646148556080600286015494856040820152600460038801549788606084015201549182910152600b54614441565b0491929190565b1561486357565b60405162461bcd60e51b815260206004820152601060248201526f155c1ad9595c081d1a1c9bdd1d1b195960821b6044820152606490fd5b67ffffffffffffffff811161434f5760051b60200190565b6001600160a01b0316600090815260026020526040812054601254915b8281106148f157505060001981019081116143bd57600581101561431d5790565b6148fa816142a2565b505482101580614920575b614911576001016148d0565b915050600581101561431d5790565b50600161492c826142a2565b500154821115614905565b1561493e57565b60405162461bcd60e51b815260206004820152601f60248201527f546f6b656e206e6f7420616c6c6f77656420617320636f6c6c61746572616c006044820152606490fd5b9060009161498f614c95565b9260005b8451811015614a14576001600160a01b036149ae8287614454565b51166000818152602081815260408083206001600160a01b038816845290915290205490816149e2575b5050600101614993565b92670de0b6b3a7640000614a05614a0c936149ff60019697614f0f565b90614441565b04906143b0565b9190386149d8565b50925050565b90614a248261489b565b614a316040519182614381565b8281528092614a42601f199161489b565b0190602036910137565b600160ff1b81146143bd5760000390565b15614a6457565b60405162461bcd60e51b815260206004820152601360248201527227b7363c902632b73234b733a6b0b730b3b2b960691b6044820152606490fd5b91908260c091031261154557614ab4826143a3565b91614ac1602082016143a3565b91614ace604083016143a3565b9160608101519160a0614ae3608084016143a3565b92015190565b6011546001600160a01b03169081614b0e575050600090600090600090600090600090565b6040516335856b7f60e11b81526001600160a01b0390911660048201529060c090829060249082905afa906000908192828181938293614b67575b50614b64575050505050600090600090600090600090600090565b94565b935094505050614b8f915060c03d60c011614b9d575b614b878183614381565b810190614a9f565b509294919390929138614b49565b503d614b7d565b90614bae82614983565b6001600160a01b038316600090815260036020526040902054928315614c0b578115614bff57614bdd906147ed565b505092606482029182046064036143bd57614bf791614421565b918210159190565b50509050600090600090565b5060019250600019919050565b15614c1f57565b60405162461bcd60e51b815260206004820152601260248201527153636f7265206f7574206f662072616e676560701b6044820152606490fd5b15614c6057565b60405162461bcd60e51b815260206004820152600d60248201526c4e6f207265656e7472616e637960981b6044820152606490fd5b6008546000805b828110614d135750614cad90614a1a565b906000805b828110614cbf5750505090565b614cc88161421e565b905460039190911b1c6001600160a01b031660008181526001602052604090205460ff16614cfa575b50600101614cb2565b82614d0c916127a16001949588614454565b9190614cf1565b614d1c8161421e565b60018060a01b0391549060031b1c16600052600160205260ff60406000205416614d49575b600101614c9c565b90614d55600191614468565b919050614d41565b6011546001600160a01b031680614d8b575b506001600160a01b031660009081526002602052604090205490565b6040516335856b7f60e11b81526001600160a01b03831660048201529060c090829060249082905afa60009181614dcf575b5015614d6f578015614d6f575b905090565b614de991925060c03d60c011614b9d57614b878183614381565b5050925050509038614dbd565b519069ffffffffffffffffffff8216820361154557565b908160a091031261154557614e2181614df6565b91602082015191604081015191614e3f608060608401519301614df6565b90565b6001600160a01b03818116600090815260076020526040902054168015614ec85760a060049160405192838092633fabe5a360e21b82525afa91821561468257600091600090600094614ecf575b50614e9e614ea49142614414565b916152f1565b10614ec85769ffffffffffffffffffff809116911610614ec357600190565b600090565b5050600090565b614ea49450614e9e9350614efb915060a03d60a011614f08575b614ef38183614381565b810190614e0d565b965092949150614e909050565b503d614ee9565b614f1881615017565b509060018060a01b031660005260076020526004602060018060a01b03604060002054166040519283809263313ce56760e01b82525afa90811561468257600091614f86575b5060ff1660120360ff81116143bd5760ff1690604d82116143bd57614e3f91600a0a90614441565b6020813d602011614fbb575b81614f9f60209383614381565b810103126105c057519060ff821682036105d7575060ff614f5e565b3d9150614f92565b9060125491600160401b83101561434f5760018301601255600092601254811015615003576000906005602086601261500197985220910201614721565b565b634e487b7160e01b84526032600452602484fd5b6001600160a01b03808216600090815260076020526040902054169190821561512b5760a060049360405194858092633fabe5a360e21b82525afa801561468257600080926000956000936150fe575b50615075614e9e8742614414565b106150cb5769ffffffffffffffffffff809116911610615093579190565b60405162461bcd60e51b815260206004820152601060248201526f5374616c6520726f756e64206461746160801b6044820152606490fd5b60405162461bcd60e51b815260206004820152600b60248201526a5374616c6520707269636560a81b6044820152606490fd5b925094505061511c915060a03d60a011614f0857614ef38183614381565b95929150929092949138615067565b60405162461bcd60e51b8152602060048201526012602482015271141c9a58d94819995959081b9bdd081cd95d60721b6044820152606490fd5b60008181526000805160206153b78339815191526020908152604080832033845290915290205460ff16156151975750565b63e2517d3f60e01b6000523360045260245260446000fd5b60008181526000805160206153b7833981519152602090815260408083206001600160a01b038616845290915290205460ff16614ec85760008181526000805160206153b7833981519152602090815260408083206001600160a01b0395909516808452949091528120805460ff19166001179055339291907f2f8788117e7eff1d82e926ec794901d17c78024a50270940304540a733656f0d9080a4600190565b60008181526000805160206153b7833981519152602090815260408083206001600160a01b038616845290915290205460ff1615614ec85760008181526000805160206153b7833981519152602090815260408083206001600160a01b0395909516808452949091528120805460ff19169055339291907ff6391f5c32d9c69d2a47ea670b442974b53935d1edc7fd64eb21e047a839171b9080a4600190565b6001600160a01b031660008181526016602052604090205480614dca5750600d54604051631a650cc760e01b81526004810192909252602090829060249082906001600160a01b03165afa9081156146825760009161535c575b506153565761038490565b610e1090565b90506020813d60201161538e575b8161537760209383614381565b8101031261154557615388906143a3565b3861534b565b3d915061536a56fe3c364b9decdac59fbe037e99687219ac0feed46572bfbcbd5284b6b8e67f402d02dd7bc7dec4dceedda775e58dd541e08a116c6c53815c0bd028192f7b626800f0c57e16840df040f15088dc2f81fe391c3923bec73e23a9662efc9c229c6a00a2646970667358221220921053097f5a5d403479315493be82edd6889396a65706f7fd8116833ff427ce64736f6c634300081c0033",
  "linkReferences": {},
  "deployedLinkReferences": {}
}