{
  "_format": "hh-sol-artifact-1",
  "contractName": "LiquidityPool",
  "sourceName": "backend/contracts/LiquidityPool.sol",
  "abi": [
    {
      "inputs": [],
      "name": "AccessControlBadConfirmation",
      "type": "error"
    },
    {
      "inputs": [
        {
          "internalType": "address",
          "name": "account",
          "type": "address"
        },
        {
          "internalType": "bytes32",
          "name": "neededRole",
          "type": "bytes32"
        }
      ],
      "name": "AccessControlUnauthorizedAccount",
      "type": "error"
    },
    {
      "inputs": [],
      "name": "InvalidInitialization",
      "type": "error"
    },
    {
      "inputs": [],
      "name": "NotInitializing",
      "type": "error"
    },
    {
      "inputs": [],
      "name": "OnlyTimelockLiquidityPool",
      "type": "error"
    },
    {
      "anonymous": false,
      "inputs": [
        {
          "indexed": true,
          "internalType": "address",
          "name": "user",
          "type": "address"
        },
        {
          "indexed": false,
          "internalType": "uint256",
          "name": "amount",
          "type": "uint256"
        }
      ],
      "name": "Borrowed",
      "type": "event"
    },
    {
      "anonymous": false,
      "inputs": [
        {
          "indexed": true,
          "internalType": "address",
          "name": "user",
          "type": "address"
        },
        {
          "indexed": true,
          "internalType": "address",
          "name": "token",
          "type": "address"
        },
        {
          "indexed": false,
          "internalType": "uint256",
          "name": "amount",
          "type": "uint256"
        }
      ],
      "name": "CollateralDeposited",
      "type": "event"
    },
    {
      "anonymous": false,
      "inputs": [
        {
          "indexed": true,
          "internalType": "address",
          "name": "token",
          "type": "address"
        },
        {
          "indexed": false,
          "internalType": "bool",
          "name": "isAllowed",
          "type": "bool"
        }
      ],
      "name": "CollateralTokenStatusChanged",
      "type": "event"
    },
    {
      "anonymous": false,
      "inputs": [
        {
          "indexed": true,
          "internalType": "address",
          "name": "user",
          "type": "address"
        },
        {
          "indexed": true,
          "internalType": "address",
          "name": "token",
          "type": "address"
        },
        {
          "indexed": false,
          "internalType": "uint256",
          "name": "amount",
          "type": "uint256"
        }
      ],
      "name": "CollateralWithdrawn",
      "type": "event"
    },
    {
      "anonymous": false,
      "inputs": [
        {
          "indexed": true,
          "internalType": "address",
          "name": "user",
          "type": "address"
        },
        {
          "indexed": false,
          "internalType": "uint256",
          "name": "score",
          "type": "uint256"
        }
      ],
      "name": "CreditScoreAssigned",
      "type": "event"
    },
    {
      "anonymous": false,
      "inputs": [
        {
          "indexed": false,
          "internalType": "bool",
          "name": "isPaused",
          "type": "bool"
        }
      ],
      "name": "EmergencyPaused",
      "type": "event"
    },
    {
      "anonymous": false,
      "inputs": [
        {
          "indexed": true,
          "internalType": "address",
          "name": "owner",
          "type": "address"
        },
        {
          "indexed": false,
          "internalType": "uint256",
          "name": "amount",
          "type": "uint256"
        }
      ],
      "name": "Extracted",
      "type": "event"
    },
    {
      "anonymous": false,
      "inputs": [
        {
          "indexed": true,
          "internalType": "address",
          "name": "user",
          "type": "address"
        },
        {
          "indexed": false,
          "internalType": "uint256",
          "name": "amount",
          "type": "uint256"
        },
        {
          "indexed": false,
          "internalType": "string",
          "name": "feeType",
          "type": "string"
        },
        {
          "indexed": false,
          "internalType": "uint256",
          "name": "tier",
          "type": "uint256"
        }
      ],
      "name": "FeeCollected",
      "type": "event"
    },
    {
      "anonymous": false,
      "inputs": [
        {
          "indexed": true,
          "internalType": "address",
          "name": "user",
          "type": "address"
        },
        {
          "indexed": false,
          "internalType": "uint256",
          "name": "newDeadline",
          "type": "uint256"
        }
      ],
      "name": "GracePeriodExtended",
      "type": "event"
    },
    {
      "anonymous": false,
      "inputs": [
        {
          "indexed": false,
          "internalType": "uint64",
          "name": "version",
          "type": "uint64"
        }
      ],
      "name": "Initialized",
      "type": "event"
    },
    {
      "anonymous": false,
      "inputs": [
        {
          "indexed": true,
          "internalType": "address",
          "name": "user",
          "type": "address"
        },
        {
          "indexed": true,
          "internalType": "address",
          "name": "liquidator",
          "type": "address"
        },
        {
          "indexed": false,
          "internalType": "uint256",
          "name": "amount",
          "type": "uint256"
        }
      ],
      "name": "LiquidationExecuted",
      "type": "event"
    },
    {
      "anonymous": false,
      "inputs": [
        {
          "indexed": true,
          "internalType": "address",
          "name": "user",
          "type": "address"
        }
      ],
      "name": "LiquidationStarted",
      "type": "event"
    },
    {
      "anonymous": false,
      "inputs": [
        {
          "indexed": true,
          "internalType": "address",
          "name": "applicant",
          "type": "address"
        },
        {
          "indexed": false,
          "internalType": "uint256",
          "name": "amount",
          "type": "uint256"
        },
        {
          "indexed": false,
          "internalType": "uint256",
          "name": "collateral",
          "type": "uint256"
        }
      ],
      "name": "LoanApplied",
      "type": "event"
    },
    {
      "anonymous": false,
      "inputs": [
        {
          "indexed": true,
          "internalType": "address",
          "name": "applicant",
          "type": "address"
        },
        {
          "indexed": false,
          "internalType": "uint256",
          "name": "amount",
          "type": "uint256"
        }
      ],
      "name": "LoanApproved",
      "type": "event"
    },
    {
      "anonymous": false,
      "inputs": [
        {
          "indexed": true,
          "internalType": "address",
          "name": "borrower",
          "type": "address"
        },
        {
          "indexed": false,
          "internalType": "uint256",
          "name": "amount",
          "type": "uint256"
        },
        {
          "indexed": false,
          "internalType": "uint256",
          "name": "rate",
          "type": "uint256"
        }
      ],
      "name": "LoanDisbursed",
      "type": "event"
    },
    {
      "anonymous": false,
      "inputs": [
        {
          "indexed": true,
          "internalType": "address",
          "name": "borrower",
          "type": "address"
        }
      ],
      "name": "LoanFullyRepaid",
      "type": "event"
    },
    {
      "anonymous": false,
      "inputs": [
        {
          "indexed": true,
          "internalType": "address",
          "name": "borrower",
          "type": "address"
        },
        {
          "indexed": false,
          "internalType": "uint256",
          "name": "amount",
          "type": "uint256"
        },
        {
          "indexed": false,
          "internalType": "uint256",
          "name": "remaining",
          "type": "uint256"
        }
      ],
      "name": "LoanInstallmentPaid",
      "type": "event"
    },
    {
      "anonymous": false,
      "inputs": [
        {
          "indexed": true,
          "internalType": "address",
          "name": "borrower",
          "type": "address"
        },
        {
          "indexed": false,
          "internalType": "uint256",
          "name": "penalty",
          "type": "uint256"
        }
      ],
      "name": "LoanLatePenaltyApplied",
      "type": "event"
    },
    {
      "anonymous": false,
      "inputs": [
        {
          "indexed": true,
          "internalType": "address",
          "name": "applicant",
          "type": "address"
        },
        {
          "indexed": false,
          "internalType": "uint256",
          "name": "amount",
          "type": "uint256"
        }
      ],
      "name": "LoanRejected",
      "type": "event"
    },
    {
      "anonymous": false,
      "inputs": [
        {
          "indexed": true,
          "internalType": "address",
          "name": "user",
          "type": "address"
        },
        {
          "indexed": true,
          "internalType": "address",
          "name": "liquidator",
          "type": "address"
        },
        {
          "indexed": true,
          "internalType": "address",
          "name": "collateralToken",
          "type": "address"
        },
        {
          "indexed": false,
          "internalType": "uint256",
          "name": "collateralSeized",
          "type": "uint256"
        },
        {
          "indexed": false,
          "internalType": "uint256",
          "name": "debtRepaid",
          "type": "uint256"
        }
      ],
      "name": "PartialLiquidation",
      "type": "event"
    },
    {
      "anonymous": false,
      "inputs": [
        {
          "indexed": true,
          "internalType": "address",
          "name": "user",
          "type": "address"
        },
        {
          "indexed": false,
          "internalType": "uint256",
          "name": "amount",
          "type": "uint256"
        }
      ],
      "name": "Repaid",
      "type": "event"
    },
    {
      "anonymous": false,
      "inputs": [
        {
          "indexed": true,
          "internalType": "address",
          "name": "newReserve",
          "type": "address"
        }
      ],
      "name": "ReserveAddressUpdated",
      "type": "event"
    },
    {
      "anonymous": false,
      "inputs": [
        {
          "indexed": true,
          "internalType": "bytes32",
          "name": "role",
          "type": "bytes32"
        },
        {
          "indexed": true,
          "internalType": "bytes32",
          "name": "previousAdminRole",
          "type": "bytes32"
        },
        {
          "indexed": true,
          "internalType": "bytes32",
          "name": "newAdminRole",
          "type": "bytes32"
        }
      ],
      "name": "RoleAdminChanged",
      "type": "event"
    },
    {
      "anonymous": false,
      "inputs": [
        {
          "indexed": true,
          "internalType": "bytes32",
          "name": "role",
          "type": "bytes32"
        },
        {
          "indexed": true,
          "internalType": "address",
          "name": "account",
          "type": "address"
        },
        {
          "indexed": true,
          "internalType": "address",
          "name": "sender",
          "type": "address"
        }
      ],
      "name": "RoleGranted",
      "type": "event"
    },
    {
      "anonymous": false,
      "inputs": [
        {
          "indexed": true,
          "internalType": "bytes32",
          "name": "role",
          "type": "bytes32"
        },
        {
          "indexed": true,
          "internalType": "address",
          "name": "account",
          "type": "address"
        },
        {
          "indexed": true,
          "internalType": "address",
          "name": "sender",
          "type": "address"
        }
      ],
      "name": "RoleRevoked",
      "type": "event"
    },
    {
      "anonymous": false,
      "inputs": [
        {
          "indexed": true,
          "internalType": "address",
          "name": "token",
          "type": "address"
        },
        {
          "indexed": false,
          "internalType": "uint256",
          "name": "updatedAt",
          "type": "uint256"
        },
        {
          "indexed": false,
          "internalType": "uint256",
          "name": "currentTime",
          "type": "uint256"
        }
      ],
      "name": "StaleOracleTriggered",
      "type": "event"
    },
    {
      "anonymous": false,
      "inputs": [
        {
          "indexed": true,
          "internalType": "uint256",
          "name": "tier",
          "type": "uint256"
        },
        {
          "indexed": false,
          "internalType": "uint256",
          "name": "originationFee",
          "type": "uint256"
        },
        {
          "indexed": false,
          "internalType": "uint256",
          "name": "lateFeeAPR",
          "type": "uint256"
        }
      ],
      "name": "TierFeeUpdated",
      "type": "event"
    },
    {
      "anonymous": false,
      "inputs": [
        {
          "indexed": true,
          "internalType": "address",
          "name": "user",
          "type": "address"
        },
        {
          "indexed": false,
          "internalType": "string",
          "name": "message",
          "type": "string"
        }
      ],
      "name": "UserError",
      "type": "event"
    },
    {
      "inputs": [],
      "name": "ALLOW_COLLATERAL_PERMISSION",
      "outputs": [
        {
          "internalType": "bytes32",
          "name": "",
          "type": "bytes32"
        }
      ],
      "stateMutability": "view",
      "type": "function"
    },
    {
      "inputs": [],
      "name": "DEFAULT_ADMIN_ROLE",
      "outputs": [
        {
          "internalType": "bytes32",
          "name": "",
          "type": "bytes32"
        }
      ],
      "stateMutability": "view",
      "type": "function"
    },
    {
      "inputs": [],
      "name": "DEFAULT_LIQUIDATION_THRESHOLD",
      "outputs": [
        {
          "internalType": "uint256",
          "name": "",
          "type": "uint256"
        }
      ],
      "stateMutability": "view",
      "type": "function"
    },
    {
      "inputs": [],
      "name": "DEFAULT_STALENESS_STABLE",
      "outputs": [
        {
          "internalType": "uint256",
          "name": "",
          "type": "uint256"
        }
      ],
      "stateMutability": "view",
      "type": "function"
    },
    {
      "inputs": [],
      "name": "DEFAULT_STALENESS_VOLATILE",
      "outputs": [
        {
          "internalType": "uint256",
          "name": "",
          "type": "uint256"
        }
      ],
      "stateMutability": "view",
      "type": "function"
    },
    {
      "inputs": [],
      "name": "EXTRACT_FUNDS_PERMISSION",
      "outputs": [
        {
          "internalType": "bytes32",
          "name": "",
          "type": "bytes32"
        }
      ],
      "stateMutability": "view",
      "type": "function"
    },
    {
      "inputs": [],
      "name": "GRACE_PERIOD",
      "outputs": [
        {
          "internalType": "uint256",
          "name": "",
          "type": "uint256"
        }
      ],
      "stateMutability": "view",
      "type": "function"
    },
    {
      "inputs": [],
      "name": "LIQUIDATION_PENALTY",
      "outputs": [
        {
          "internalType": "uint256",
          "name": "",
          "type": "uint256"
        }
      ],
      "stateMutability": "view",
      "type": "function"
    },
    {
      "inputs": [],
      "name": "SAFETY_BUFFER",
      "outputs": [
        {
          "internalType": "uint256",
          "name": "",
          "type": "uint256"
        }
      ],
      "stateMutability": "view",
      "type": "function"
    },
    {
      "inputs": [],
      "name": "SET_ADMIN_PERMISSION",
      "outputs": [
        {
          "internalType": "bytes32",
          "name": "",
          "type": "bytes32"
        }
      ],
      "stateMutability": "view",
      "type": "function"
    },
    {
      "inputs": [],
      "name": "SET_CREDIT_SCORE_PERMISSION",
      "outputs": [
        {
          "internalType": "bytes32",
          "name": "",
          "type": "bytes32"
        }
      ],
      "stateMutability": "view",
      "type": "function"
    },
    {
      "inputs": [],
      "name": "SET_LENDING_MANAGER_PERMISSION",
      "outputs": [
        {
          "internalType": "bytes32",
          "name": "",
          "type": "bytes32"
        }
      ],
      "stateMutability": "view",
      "type": "function"
    },
    {
      "inputs": [],
      "name": "SET_MAX_PRICE_AGE_PERMISSION",
      "outputs": [
        {
          "internalType": "bytes32",
          "name": "",
          "type": "bytes32"
        }
      ],
      "stateMutability": "view",
      "type": "function"
    },
    {
      "inputs": [],
      "name": "SET_MIN_PARTIAL_LIQUIDATION_AMOUNT_PERMISSION",
      "outputs": [
        {
          "internalType": "bytes32",
          "name": "",
          "type": "bytes32"
        }
      ],
      "stateMutability": "view",
      "type": "function"
    },
    {
      "inputs": [],
      "name": "SET_PRICE_FEED_PERMISSION",
      "outputs": [
        {
          "internalType": "bytes32",
          "name": "",
          "type": "bytes32"
        }
      ],
      "stateMutability": "view",
      "type": "function"
    },
    {
      "inputs": [],
      "name": "SET_RESERVE_ADDRESS_PERMISSION",
      "outputs": [
        {
          "internalType": "bytes32",
          "name": "",
          "type": "bytes32"
        }
      ],
      "stateMutability": "view",
      "type": "function"
    },
    {
      "inputs": [],
      "name": "SET_TIER_FEE_PERMISSION",
      "outputs": [
        {
          "internalType": "bytes32",
          "name": "",
          "type": "bytes32"
        }
      ],
      "stateMutability": "view",
      "type": "function"
    },
    {
      "inputs": [],
      "name": "TOGGLE_PAUSE_PERMISSION",
      "outputs": [
        {
          "internalType": "bytes32",
          "name": "",
          "type": "bytes32"
        }
      ],
      "stateMutability": "view",
      "type": "function"
    },
    {
      "inputs": [],
      "name": "UPDATE_BORROW_TIER_PERMISSION",
      "outputs": [
        {
          "internalType": "bytes32",
          "name": "",
          "type": "bytes32"
        }
      ],
      "stateMutability": "view",
      "type": "function"
    },
    {
      "inputs": [],
      "name": "UPKEEP_COOLDOWN",
      "outputs": [
        {
          "internalType": "uint256",
          "name": "",
          "type": "uint256"
        }
      ],
      "stateMutability": "view",
      "type": "function"
    },
    {
      "inputs": [
        {
          "internalType": "uint256",
          "name": "amount",
          "type": "uint256"
        }
      ],
      "name": "borrow",
      "outputs": [],
      "stateMutability": "payable",
      "type": "function"
    },
    {
      "inputs": [
        {
          "internalType": "uint256",
          "name": "",
          "type": "uint256"
        }
      ],
      "name": "borrowTierConfigs",
      "outputs": [
        {
          "internalType": "uint256",
          "name": "minScore",
          "type": "uint256"
        },
        {
          "internalType": "uint256",
          "name": "maxScore",
          "type": "uint256"
        },
        {
          "internalType": "uint256",
          "name": "collateralRatio",
          "type": "uint256"
        },
        {
          "internalType": "int256",
          "name": "interestRateModifier",
          "type": "int256"
        },
        {
          "internalType": "uint256",
          "name": "maxLoanAmount",
          "type": "uint256"
        }
      ],
      "stateMutability": "view",
      "type": "function"
    },
    {
      "inputs": [
        {
          "internalType": "address",
          "name": "",
          "type": "address"
        }
      ],
      "name": "borrowTimestamp",
      "outputs": [
        {
          "internalType": "uint256",
          "name": "",
          "type": "uint256"
        }
      ],
      "stateMutability": "view",
      "type": "function"
    },
    {
      "inputs": [
        {
          "internalType": "enum LiquidityPool.RiskTier",
          "name": "",
          "type": "uint8"
        }
      ],
      "name": "borrowedAmountByRiskTier",
      "outputs": [
        {
          "internalType": "uint256",
          "name": "",
          "type": "uint256"
        }
      ],
      "stateMutability": "view",
      "type": "function"
    },
    {
      "inputs": [
        {
          "internalType": "address",
          "name": "user",
          "type": "address"
        }
      ],
      "name": "canLend",
      "outputs": [
        {
          "internalType": "bool",
          "name": "",
          "type": "bool"
        }
      ],
      "stateMutability": "view",
      "type": "function"
    },
    {
      "inputs": [],
      "name": "checkCircuitBreakers",
      "outputs": [],
      "stateMutability": "nonpayable",
      "type": "function"
    },
    {
      "inputs": [
        {
          "internalType": "address",
          "name": "user",
          "type": "address"
        }
      ],
      "name": "checkCollateralization",
      "outputs": [
        {
          "internalType": "bool",
          "name": "isHealthy",
          "type": "bool"
        },
        {
          "internalType": "uint256",
          "name": "ratio",
          "type": "uint256"
        }
      ],
      "stateMutability": "view",
      "type": "function"
    },
    {
      "inputs": [
        {
          "internalType": "bytes",
          "name": "",
          "type": "bytes"
        }
      ],
      "name": "checkUpkeep",
      "outputs": [
        {
          "internalType": "bool",
          "name": "upkeepNeeded",
          "type": "bool"
        },
        {
          "internalType": "bytes",
          "name": "performData",
          "type": "bytes"
        }
      ],
      "stateMutability": "view",
      "type": "function"
    },
    {
      "inputs": [
        {
          "internalType": "address",
          "name": "token",
          "type": "address"
        },
        {
          "internalType": "address",
          "name": "user",
          "type": "address"
        },
        {
          "internalType": "address",
          "name": "to",
          "type": "address"
        },
        {
          "internalType": "uint256",
          "name": "amount",
          "type": "uint256"
        }
      ],
      "name": "clearCollateral",
      "outputs": [],
      "stateMutability": "nonpayable",
      "type": "function"
    },
    {
      "inputs": [
        {
          "internalType": "address",
          "name": "user",
          "type": "address"
        },
        {
          "internalType": "uint256",
          "name": "amount",
          "type": "uint256"
        }
      ],
      "name": "clearDebt",
      "outputs": [],
      "stateMutability": "nonpayable",
      "type": "function"
    },
    {
      "inputs": [
        {
          "internalType": "address",
          "name": "",
          "type": "address"
        },
        {
          "internalType": "address",
          "name": "",
          "type": "address"
        }
      ],
      "name": "collateralBalance",
      "outputs": [
        {
          "internalType": "uint256",
          "name": "",
          "type": "uint256"
        }
      ],
      "stateMutability": "view",
      "type": "function"
    },
    {
      "inputs": [
        {
          "internalType": "uint256",
          "name": "",
          "type": "uint256"
        }
      ],
      "name": "collateralTokenList",
      "outputs": [
        {
          "internalType": "address",
          "name": "",
          "type": "address"
        }
      ],
      "stateMutability": "view",
      "type": "function"
    },
    {
      "inputs": [
        {
          "internalType": "address",
          "name": "",
          "type": "address"
        }
      ],
      "name": "creditScore",
      "outputs": [
        {
          "internalType": "uint256",
          "name": "",
          "type": "uint256"
        }
      ],
      "stateMutability": "view",
      "type": "function"
    },
    {
      "inputs": [
        {
          "internalType": "address",
          "name": "token",
          "type": "address"
        },
        {
          "internalType": "uint256",
          "name": "amount",
          "type": "uint256"
        }
      ],
      "name": "depositCollateral",
      "outputs": [],
      "stateMutability": "nonpayable",
      "type": "function"
    },
    {
      "inputs": [
        {
          "internalType": "uint256",
          "name": "amount",
          "type": "uint256"
        }
      ],
      "name": "extract",
      "outputs": [],
      "stateMutability": "nonpayable",
      "type": "function"
    },
    {
      "inputs": [],
      "name": "getAdmin",
      "outputs": [
        {
          "internalType": "address",
          "name": "",
          "type": "address"
        }
      ],
      "stateMutability": "view",
      "type": "function"
    },
    {
      "inputs": [],
      "name": "getAllUsers",
      "outputs": [
        {
          "internalType": "address[]",
          "name": "",
          "type": "address[]"
        }
      ],
      "stateMutability": "view",
      "type": "function"
    },
    {
      "inputs": [],
      "name": "getAllowedCollateralTokens",
      "outputs": [
        {
          "internalType": "address[]",
          "name": "",
          "type": "address[]"
        }
      ],
      "stateMutability": "view",
      "type": "function"
    },
    {
      "inputs": [],
      "name": "getBalance",
      "outputs": [
        {
          "internalType": "uint256",
          "name": "",
          "type": "uint256"
        }
      ],
      "stateMutability": "view",
      "type": "function"
    },
    {
      "inputs": [
        {
          "internalType": "address",
          "name": "user",
          "type": "address"
        }
      ],
      "name": "getBorrowTerms",
      "outputs": [
        {
          "internalType": "uint256",
          "name": "collateralRatio",
          "type": "uint256"
        },
        {
          "internalType": "int256",
          "name": "interestRateModifier",
          "type": "int256"
        },
        {
          "internalType": "uint256",
          "name": "maxLoanAmount",
          "type": "uint256"
        }
      ],
      "stateMutability": "view",
      "type": "function"
    },
    {
      "inputs": [
        {
          "internalType": "address",
          "name": "user",
          "type": "address"
        }
      ],
      "name": "getBorrowerRate",
      "outputs": [
        {
          "internalType": "uint256",
          "name": "",
          "type": "uint256"
        }
      ],
      "stateMutability": "view",
      "type": "function"
    },
    {
      "inputs": [
        {
          "internalType": "address",
          "name": "user",
          "type": "address"
        },
        {
          "internalType": "address",
          "name": "token",
          "type": "address"
        }
      ],
      "name": "getCollateral",
      "outputs": [
        {
          "internalType": "uint256",
          "name": "",
          "type": "uint256"
        }
      ],
      "stateMutability": "view",
      "type": "function"
    },
    {
      "inputs": [
        {
          "internalType": "address",
          "name": "user",
          "type": "address"
        }
      ],
      "name": "getCreditScore",
      "outputs": [
        {
          "internalType": "uint256",
          "name": "",
          "type": "uint256"
        }
      ],
      "stateMutability": "view",
      "type": "function"
    },
    {
      "inputs": [
        {
          "internalType": "address",
          "name": "user",
          "type": "address"
        }
      ],
      "name": "getLoan",
      "outputs": [
        {
          "components": [
            {
              "internalType": "uint256",
              "name": "principal",
              "type": "uint256"
            },
            {
              "internalType": "uint256",
              "name": "outstanding",
              "type": "uint256"
            },
            {
              "internalType": "uint256",
              "name": "interestRate",
              "type": "uint256"
            },
            {
              "internalType": "uint256",
              "name": "nextDueDate",
              "type": "uint256"
            },
            {
              "internalType": "uint256",
              "name": "installmentAmount",
              "type": "uint256"
            },
            {
              "internalType": "uint256",
              "name": "penaltyBps",
              "type": "uint256"
            },
            {
              "internalType": "bool",
              "name": "active",
              "type": "bool"
            }
          ],
          "internalType": "struct LiquidityPool.Loan",
          "name": "",
          "type": "tuple"
        }
      ],
      "stateMutability": "view",
      "type": "function"
    },
    {
      "inputs": [
        {
          "internalType": "address",
          "name": "user",
          "type": "address"
        }
      ],
      "name": "getLoanDetails",
      "outputs": [
        {
          "internalType": "uint256",
          "name": "principal",
          "type": "uint256"
        },
        {
          "internalType": "uint256",
          "name": "outstanding",
          "type": "uint256"
        },
        {
          "internalType": "uint256",
          "name": "interestRate",
          "type": "uint256"
        },
        {
          "internalType": "uint256",
          "name": "nextDueDate",
          "type": "uint256"
        },
        {
          "internalType": "uint256",
          "name": "installmentAmount",
          "type": "uint256"
        },
        {
          "internalType": "uint256",
          "name": "penaltyBps",
          "type": "uint256"
        },
        {
          "internalType": "bool",
          "name": "active",
          "type": "bool"
        },
        {
          "internalType": "uint256",
          "name": "daysUntilDue",
          "type": "uint256"
        },
        {
          "internalType": "uint256",
          "name": "latePenaltyIfPaidNow",
          "type": "uint256"
        },
        {
          "internalType": "uint256",
          "name": "totalInstallmentsRemaining",
          "type": "uint256"
        }
      ],
      "stateMutability": "view",
      "type": "function"
    },
    {
      "inputs": [],
      "name": "getMinCollateralRatio",
      "outputs": [
        {
          "internalType": "uint256",
          "name": "",
          "type": "uint256"
        }
      ],
      "stateMutability": "pure",
      "type": "function"
    },
    {
      "inputs": [],
      "name": "getMyDebt",
      "outputs": [
        {
          "internalType": "uint256",
          "name": "",
          "type": "uint256"
        }
      ],
      "stateMutability": "view",
      "type": "function"
    },
    {
      "inputs": [
        {
          "internalType": "address",
          "name": "token",
          "type": "address"
        }
      ],
      "name": "getPriceFeed",
      "outputs": [
        {
          "internalType": "address",
          "name": "",
          "type": "address"
        }
      ],
      "stateMutability": "view",
      "type": "function"
    },
    {
      "inputs": [
        {
          "internalType": "address",
          "name": "user",
          "type": "address"
        }
      ],
      "name": "getRiskTier",
      "outputs": [
        {
          "internalType": "enum LiquidityPool.RiskTier",
          "name": "",
          "type": "uint8"
        }
      ],
      "stateMutability": "view",
      "type": "function"
    },
    {
      "inputs": [
        {
          "internalType": "bytes32",
          "name": "role",
          "type": "bytes32"
        }
      ],
      "name": "getRoleAdmin",
      "outputs": [
        {
          "internalType": "bytes32",
          "name": "",
          "type": "bytes32"
        }
      ],
      "stateMutability": "view",
      "type": "function"
    },
    {
      "inputs": [
        {
          "internalType": "address",
          "name": "token",
          "type": "address"
        }
      ],
      "name": "getTokenValue",
      "outputs": [
        {
          "internalType": "uint256",
          "name": "",
          "type": "uint256"
        }
      ],
      "stateMutability": "view",
      "type": "function"
    },
    {
      "inputs": [
        {
          "internalType": "address",
          "name": "user",
          "type": "address"
        }
      ],
      "name": "getTotalCollateralValue",
      "outputs": [
        {
          "internalType": "uint256",
          "name": "",
          "type": "uint256"
        }
      ],
      "stateMutability": "view",
      "type": "function"
    },
    {
      "inputs": [
        {
          "internalType": "bytes32",
          "name": "role",
          "type": "bytes32"
        },
        {
          "internalType": "address",
          "name": "account",
          "type": "address"
        }
      ],
      "name": "grantRole",
      "outputs": [],
      "stateMutability": "nonpayable",
      "type": "function"
    },
    {
      "inputs": [
        {
          "internalType": "bytes32",
          "name": "role",
          "type": "bytes32"
        },
        {
          "internalType": "address",
          "name": "account",
          "type": "address"
        }
      ],
      "name": "hasRole",
      "outputs": [
        {
          "internalType": "bool",
          "name": "",
          "type": "bool"
        }
      ],
      "stateMutability": "view",
      "type": "function"
    },
    {
      "inputs": [
        {
          "internalType": "address",
          "name": "_timelock",
          "type": "address"
        },
        {
          "internalType": "address",
          "name": "_stablecoinManager",
          "type": "address"
        },
        {
          "internalType": "address",
          "name": "_lendingManager",
          "type": "address"
        },
        {
          "internalType": "address",
          "name": "_interestRateModel",
          "type": "address"
        }
      ],
      "name": "initialize",
      "outputs": [],
      "stateMutability": "nonpayable",
      "type": "function"
    },
    {
      "inputs": [],
      "name": "interestRateModel",
      "outputs": [
        {
          "internalType": "contract InterestRateModel",
          "name": "",
          "type": "address"
        }
      ],
      "stateMutability": "view",
      "type": "function"
    },
    {
      "inputs": [
        {
          "internalType": "address",
          "name": "",
          "type": "address"
        }
      ],
      "name": "isAllowedCollateral",
      "outputs": [
        {
          "internalType": "bool",
          "name": "",
          "type": "bool"
        }
      ],
      "stateMutability": "view",
      "type": "function"
    },
    {
      "inputs": [
        {
          "internalType": "address",
          "name": "",
          "type": "address"
        }
      ],
      "name": "isKnownUser",
      "outputs": [
        {
          "internalType": "bool",
          "name": "",
          "type": "bool"
        }
      ],
      "stateMutability": "view",
      "type": "function"
    },
    {
      "inputs": [
        {
          "internalType": "address",
          "name": "",
          "type": "address"
        }
      ],
      "name": "isLiquidatable",
      "outputs": [
        {
          "internalType": "bool",
          "name": "",
          "type": "bool"
        }
      ],
      "stateMutability": "view",
      "type": "function"
    },
    {
      "inputs": [
        {
          "internalType": "address",
          "name": "token",
          "type": "address"
        }
      ],
      "name": "isOracleHealthy",
      "outputs": [
        {
          "internalType": "bool",
          "name": "",
          "type": "bool"
        }
      ],
      "stateMutability": "view",
      "type": "function"
    },
    {
      "inputs": [],
      "name": "isPaused",
      "outputs": [
        {
          "internalType": "bool",
          "name": "",
          "type": "bool"
        }
      ],
      "stateMutability": "view",
      "type": "function"
    },
    {
      "inputs": [],
      "name": "lastUpkeep",
      "outputs": [
        {
          "internalType": "uint256",
          "name": "",
          "type": "uint256"
        }
      ],
      "stateMutability": "view",
      "type": "function"
    },
    {
      "inputs": [],
      "name": "lendingManager",
      "outputs": [
        {
          "internalType": "contract LendingManager",
          "name": "",
          "type": "address"
        }
      ],
      "stateMutability": "view",
      "type": "function"
    },
    {
      "inputs": [
        {
          "internalType": "address",
          "name": "",
          "type": "address"
        }
      ],
      "name": "liquidationStartTime",
      "outputs": [
        {
          "internalType": "uint256",
          "name": "",
          "type": "uint256"
        }
      ],
      "stateMutability": "view",
      "type": "function"
    },
    {
      "inputs": [],
      "name": "liquidator",
      "outputs": [
        {
          "internalType": "address",
          "name": "",
          "type": "address"
        }
      ],
      "stateMutability": "view",
      "type": "function"
    },
    {
      "inputs": [
        {
          "internalType": "address",
          "name": "",
          "type": "address"
        }
      ],
      "name": "loans",
      "outputs": [
        {
          "internalType": "uint256",
          "name": "principal",
          "type": "uint256"
        },
        {
          "internalType": "uint256",
          "name": "outstanding",
          "type": "uint256"
        },
        {
          "internalType": "uint256",
          "name": "interestRate",
          "type": "uint256"
        },
        {
          "internalType": "uint256",
          "name": "nextDueDate",
          "type": "uint256"
        },
        {
          "internalType": "uint256",
          "name": "installmentAmount",
          "type": "uint256"
        },
        {
          "internalType": "uint256",
          "name": "penaltyBps",
          "type": "uint256"
        },
        {
          "internalType": "bool",
          "name": "active",
          "type": "bool"
        }
      ],
      "stateMutability": "view",
      "type": "function"
    },
    {
      "inputs": [],
      "name": "locked",
      "outputs": [
        {
          "internalType": "bool",
          "name": "",
          "type": "bool"
        }
      ],
      "stateMutability": "view",
      "type": "function"
    },
    {
      "inputs": [
        {
          "internalType": "address",
          "name": "",
          "type": "address"
        }
      ],
      "name": "maxPriceAge",
      "outputs": [
        {
          "internalType": "uint256",
          "name": "",
          "type": "uint256"
        }
      ],
      "stateMutability": "view",
      "type": "function"
    },
    {
      "inputs": [],
      "name": "minPartialLiquidationAmount",
      "outputs": [
        {
          "internalType": "uint256",
          "name": "",
          "type": "uint256"
        }
      ],
      "stateMutability": "view",
      "type": "function"
    },
    {
      "inputs": [],
      "name": "paused",
      "outputs": [
        {
          "internalType": "bool",
          "name": "",
          "type": "bool"
        }
      ],
      "stateMutability": "view",
      "type": "function"
    },
    {
      "inputs": [
        {
          "internalType": "bytes",
          "name": "performData",
          "type": "bytes"
        }
      ],
      "name": "performUpkeep",
      "outputs": [],
      "stateMutability": "nonpayable",
      "type": "function"
    },
    {
      "inputs": [
        {
          "internalType": "address",
          "name": "",
          "type": "address"
        }
      ],
      "name": "priceFeed",
      "outputs": [
        {
          "internalType": "address",
          "name": "",
          "type": "address"
        }
      ],
      "stateMutability": "view",
      "type": "function"
    },
    {
      "inputs": [
        {
          "internalType": "address",
          "name": "token",
          "type": "address"
        },
        {
          "internalType": "uint256",
          "name": "amount",
          "type": "uint256"
        }
      ],
      "name": "recoverFromLiquidation",
      "outputs": [],
      "stateMutability": "nonpayable",
      "type": "function"
    },
    {
      "inputs": [
        {
          "internalType": "bytes32",
          "name": "role",
          "type": "bytes32"
        },
        {
          "internalType": "address",
          "name": "callerConfirmation",
          "type": "address"
        }
      ],
      "name": "renounceRole",
      "outputs": [],
      "stateMutability": "nonpayable",
      "type": "function"
    },
    {
      "inputs": [],
      "name": "repay",
      "outputs": [],
      "stateMutability": "payable",
      "type": "function"
    },
    {
      "inputs": [],
      "name": "repayInstallment",
      "outputs": [],
      "stateMutability": "payable",
      "type": "function"
    },
    {
      "inputs": [],
      "name": "reserveAddress",
      "outputs": [
        {
          "internalType": "address",
          "name": "",
          "type": "address"
        }
      ],
      "stateMutability": "view",
      "type": "function"
    },
    {
      "inputs": [
        {
          "internalType": "bytes32",
          "name": "role",
          "type": "bytes32"
        },
        {
          "internalType": "address",
          "name": "account",
          "type": "address"
        }
      ],
      "name": "revokeRole",
      "outputs": [],
      "stateMutability": "nonpayable",
      "type": "function"
    },
    {
      "inputs": [
        {
          "internalType": "address",
          "name": "newAdmin",
          "type": "address"
        }
      ],
      "name": "setAdmin",
      "outputs": [],
      "stateMutability": "nonpayable",
      "type": "function"
    },
    {
      "inputs": [
        {
          "internalType": "address",
          "name": "token",
          "type": "address"
        },
        {
          "internalType": "bool",
          "name": "allowed",
          "type": "bool"
        }
      ],
      "name": "setAllowedCollateral",
      "outputs": [],
      "stateMutability": "nonpayable",
      "type": "function"
    },
    {
      "inputs": [
        {
          "internalType": "address",
          "name": "user",
          "type": "address"
        },
        {
          "internalType": "uint256",
          "name": "score",
          "type": "uint256"
        }
      ],
      "name": "setCreditScore",
      "outputs": [],
      "stateMutability": "nonpayable",
      "type": "function"
    },
    {
      "inputs": [
        {
          "internalType": "address",
          "name": "_lendingManager",
          "type": "address"
        }
      ],
      "name": "setLendingManager",
      "outputs": [],
      "stateMutability": "nonpayable",
      "type": "function"
    },
    {
      "inputs": [
        {
          "internalType": "address",
          "name": "_liquidator",
          "type": "address"
        }
      ],
      "name": "setLiquidator",
      "outputs": [],
      "stateMutability": "nonpayable",
      "type": "function"
    },
    {
      "inputs": [
        {
          "internalType": "address",
          "name": "token",
          "type": "address"
        },
        {
          "internalType": "uint256",
          "name": "age",
          "type": "uint256"
        }
      ],
      "name": "setMaxPriceAge",
      "outputs": [],
      "stateMutability": "nonpayable",
      "type": "function"
    },
    {
      "inputs": [
        {
          "internalType": "uint256",
          "name": "amount",
          "type": "uint256"
        }
      ],
      "name": "setMinPartialLiquidationAmount",
      "outputs": [],
      "stateMutability": "nonpayable",
      "type": "function"
    },
    {
      "inputs": [
        {
          "internalType": "address",
          "name": "token",
          "type": "address"
        },
        {
          "internalType": "address",
          "name": "feed",
          "type": "address"
        }
      ],
      "name": "setPriceFeed",
      "outputs": [],
      "stateMutability": "nonpayable",
      "type": "function"
    },
    {
      "inputs": [
        {
          "internalType": "address",
          "name": "_reserve",
          "type": "address"
        }
      ],
      "name": "setReserveAddress",
      "outputs": [],
      "stateMutability": "nonpayable",
      "type": "function"
    },
    {
      "inputs": [
        {
          "internalType": "uint256",
          "name": "tier",
          "type": "uint256"
        },
        {
          "internalType": "uint256",
          "name": "originationFee",
          "type": "uint256"
        },
        {
          "internalType": "uint256",
          "name": "lateFeeAPR",
          "type": "uint256"
        }
      ],
      "name": "setTierFee",
      "outputs": [],
      "stateMutability": "nonpayable",
      "type": "function"
    },
    {
      "inputs": [],
      "name": "stablecoinManager",
      "outputs": [
        {
          "internalType": "contract StablecoinManager",
          "name": "",
          "type": "address"
        }
      ],
      "stateMutability": "view",
      "type": "function"
    },
    {
      "inputs": [
        {
          "internalType": "address",
          "name": "user",
          "type": "address"
        }
      ],
      "name": "startLiquidation",
      "outputs": [],
      "stateMutability": "nonpayable",
      "type": "function"
    },
    {
      "inputs": [
        {
          "internalType": "bytes4",
          "name": "interfaceId",
          "type": "bytes4"
        }
      ],
      "name": "supportsInterface",
      "outputs": [
        {
          "internalType": "bool",
          "name": "",
          "type": "bool"
        }
      ],
      "stateMutability": "view",
      "type": "function"
    },
    {
      "inputs": [
        {
          "internalType": "uint256",
          "name": "",
          "type": "uint256"
        }
      ],
      "name": "tierFees",
      "outputs": [
        {
          "internalType": "uint256",
          "name": "originationFee",
          "type": "uint256"
        },
        {
          "internalType": "uint256",
          "name": "lateFeeAPR",
          "type": "uint256"
        }
      ],
      "stateMutability": "view",
      "type": "function"
    },
    {
      "inputs": [],
      "name": "timelock",
      "outputs": [
        {
          "internalType": "address",
          "name": "",
          "type": "address"
        }
      ],
      "stateMutability": "view",
      "type": "function"
    },
    {
      "inputs": [],
      "name": "togglePause",
      "outputs": [],
      "stateMutability": "nonpayable",
      "type": "function"
    },
    {
      "inputs": [],
      "name": "totalBorrowedAllTime",
      "outputs": [
        {
          "internalType": "uint256",
          "name": "",
          "type": "uint256"
        }
      ],
      "stateMutability": "view",
      "type": "function"
    },
    {
      "inputs": [],
      "name": "totalFunds",
      "outputs": [
        {
          "internalType": "uint256",
          "name": "",
          "type": "uint256"
        }
      ],
      "stateMutability": "view",
      "type": "function"
    },
    {
      "inputs": [],
      "name": "totalRepaidAllTime",
      "outputs": [
        {
          "internalType": "uint256",
          "name": "",
          "type": "uint256"
        }
      ],
      "stateMutability": "view",
      "type": "function"
    },
    {
      "inputs": [
        {
          "internalType": "uint256",
          "name": "tierIndex",
          "type": "uint256"
        },
        {
          "internalType": "uint256",
          "name": "minScore",
          "type": "uint256"
        },
        {
          "internalType": "uint256",
          "name": "maxScore",
          "type": "uint256"
        },
        {
          "internalType": "uint256",
          "name": "collateralRatio",
          "type": "uint256"
        },
        {
          "internalType": "int256",
          "name": "interestRateModifier",
          "type": "int256"
        },
        {
          "internalType": "uint256",
          "name": "maxLoanAmount",
          "type": "uint256"
        }
      ],
      "name": "updateBorrowTier",
      "outputs": [],
      "stateMutability": "nonpayable",
      "type": "function"
    },
    {
      "inputs": [
        {
          "internalType": "address",
          "name": "",
          "type": "address"
        }
      ],
      "name": "userDebt",
      "outputs": [
        {
          "internalType": "uint256",
          "name": "",
          "type": "uint256"
        }
      ],
      "stateMutability": "view",
      "type": "function"
    },
    {
      "inputs": [
        {
          "internalType": "uint256",
          "name": "",
          "type": "uint256"
        }
      ],
      "name": "users",
      "outputs": [
        {
          "internalType": "address",
          "name": "",
          "type": "address"
        }
      ],
      "stateMutability": "view",
      "type": "function"
    },
    {
      "inputs": [
        {
          "internalType": "address",
          "name": "token",
          "type": "address"
        },
        {
          "internalType": "uint256",
          "name": "amount",
          "type": "uint256"
        }
      ],
      "name": "withdrawCollateral",
      "outputs": [],
      "stateMutability": "nonpayable",
      "type": "function"
    },
    {
      "inputs": [
        {
          "internalType": "uint256",
          "name": "amount",
          "type": "uint256"
        }
      ],
      "name": "withdrawForLendingManager",
      "outputs": [],
      "stateMutability": "nonpayable",
      "type": "function"
    },
    {
      "stateMutability": "payable",
      "type": "receive"
    }
  ],
  "bytecode": "0x60808060405234601557614f33908161001b8239f35b600080fdfe6080604052600436101561002a575b361561001957600080fd5b61002534600b546140aa565b600b55005b6000803560e01c806301c76f8114613e4457806301ffc9a714613de9578063042e02cf14613daa578063080d9c2b14613c795780630b044c7914613c5c5780630ef7fb6714613c4057806312065fe014613c2457806314673d3114613b6b5780631bfe426114613b305780631fd48b9a14613aef57806320dfcae11461385857806323fe5a331461383f578063248a9ca3146138205780632f2ff15d146137ee5780632f51dd5d146137b357806330332f9f1461373757806333481fc914613649578063350c35e9146133af578063357619a91461337457806335f679811461334757806336568abe14613302578063365b98b2146132d757806338053ef3146132a05780633d7c5d3e14613282578063402d888314612e6e5780634046ebae14612e41578063418eea3114612e06578063450a375a14612ddf5780634585e33b14612c3c578063488683cd14612c015780634c8f35ab14611a4a5780634c95da6614612bb657806352226ef014612b6257806355f4d9e214612a0b5780635b66e7fc146129ee5780635b6cca80146129965780635c44f10d1461297a5780635c975abb14611b535780636579b73e146129415780636c648fc41461291d5780636e04ff0d146127015780636e9960c314611065578063704b6c021461267b57806370ed11bc1461261a57806372ed9f7b1461249e5780637346f4861461245f57806373b4086b146123df57806376e112861461235b57806378974cbb146122b45780637a8ce68b14612279578063802937ac1461225b57806383475f0c1461222057806385b397821461216a5780638e6b53bc1461213857806391d14854146120df5780639490a51e146120a0578063962a0da514612065578063968ed6001461204757806397ed81cf14611f005780639b8621d514611ee45780639e3b77af14611ebb578063a217fddf14611e9f578063a5d5db0c14611b79578063b187bd2614611b53578063b3075fb714611b1f578063b3a5a0a214611adb578063b69e5c7714611aa2578063b8cdf56114611a84578063bc3d5a3e14611a66578063c129d50414611a4a578063c1a287e214611a2c578063c23c69d5146119f3578063c39537e1146119b8578063c4ae316814611934578063c5ebeaec146112a4578063c869d0ed146111ff578063c941f321146111d6578063cf176225146111ba578063cf30901214611197578063d1f151c1146110c7578063d29255f91461108e578063d33219b414611065578063d3dd2bdf14610898578063d547741f1461102e578063ddac7f1b14610f9b578063e19fb8f514610ec7578063e1c5010014610db6578063e2842d7914610d28578063e6ae357614610ced578063e7602b9d14610c99578063e84bae4514610c66578063e8a7da8e14610a2e578063e9ffb291146109f3578063eb8d6551146109b8578063ebdcc1641461097d578063ef02401a1461094f578063f1c5d6c214610923578063f3fdb15a146108fa578063f79ed94b146108d1578063f7e590ee14610898578063f8c8765e146105955763ffd4aedb14610498575061000e565b346105925760803660031901126105925761054960206104b6613e9a565b6104be613eb0565b6104c6613ec6565b606435926104df60018060a01b03600e5416331461470d565b6001600160a01b0390811680885287865260408089209490921660009081529386529220805461051090859061410e565b905560405163a9059cbb60e01b81526001600160a01b039091166004820152602481019290925290928391908290869082906044820190565b03925af180156105875761055b575080f35b61057c9060203d602011610580575b6105748183614070565b810190614092565b5080f35b503d61056a565b6040513d84823e3d90fd5b80fd5b5034610592576080366003190112610592576105af613e9a565b6105b7613eb0565b6105bf613ec6565b6064356001600160a01b038116929083900361089457600080516020614ede833981519152549360ff8560401c16159467ffffffffffffffff81168015908161088c575b6001149081610882575b159081610879575b5061086a5767ffffffffffffffff198116600117600080516020614ede833981519152558561083d575b5060ff600080516020614ede8339815191525460401c161561082e5760018060a01b03166001600160601b0360a01b601054161760105560018060a01b03166001600160601b0360a01b600d541617600d5560018060a01b03166001600160601b0360a01b600e541617600e556001600160601b0360a01b600f541617600f556106f46040516106ce81614022565b605a815260646020820152606e6040820152601819606082015260326080820152614e49565b61072960405161070381614022565b6050815260596020820152607d6040820152600919606082015260286080820152614e49565b61075c60405161073881614022565b60468152604f6020820152608c6040820152836060820152601e6080820152614e49565b61079060405161076b81614022565b603c81526045602082015260a06040820152600f606082015260146080820152614e49565b6107c260405161079f81614022565b838152603b602082015260c86040820152601e6060820152836080820152614e49565b662386f26fc100006016556107d45780f35b68ff000000000000000019600080516020614ede8339815191525416600080516020614ede833981519152557fc7f505b2f371ae2175ee4913f4499e1f2633a7b5936321eed1cdaeb6115181d2602060405160018152a180f35b631afcd79f60e31b8652600486fd5b68ffffffffffffffffff19166801000000000000000117600080516020614ede833981519152553861063f565b63f92ee8a960e01b8752600487fd5b90501538610615565b303b15915061060d565b879150610603565b8480fd5b5034610592576020366003190112610592576020906040906001600160a01b036108c0613e9a565b168152600283522054604051908152f35b50346105925780600319360112610592576017546040516001600160a01b039091168152602090f35b5034610592578060031936011261059257600f546040516001600160a01b039091168152602090f35b5034610592576020366003190112610592576020610947610942613e9a565b614a2c565b604051908152f35b503461059257602036600319011261059257602061097361096e613e9a565b61495f565b6040519015158152f35b5034610592576020366003190112610592576020906040906001600160a01b036109a5613e9a565b1681526002835220541515604051908152f35b503461059257806003193601126105925760206040517f742d8195bebb59905cedb6c02453745e9ef7090c163e7dea727ab0849b3dfc008152f35b503461059257806003193601126105925760206040517fa22cb6bd33c714cffaf72f196d1ebf87829cac5214f3ad84491fa8669ede7a6a8152f35b503461059257602036600319011261059257610a48613e9a565b6001600160a01b03811682526019602052604080832090519091610a6b82614054565b825492838352600181015492602081019184835260028101549283604084015260038201546060840194818652600484015492608086019084825260c060ff60066005890154988960a08c0152015416970196151596878152844210600014610c5f5762015180610adc428761410e565b04985b8d9a815162093a808101809111610c4a57421180610c40575b610b99575b505051151580610b8f575b15610b8357518151610b19916140aa565b60001981019b908c11610b6f57506101409a610b3691519061411b565b975b604051998a5260208a015260408901526060880152608087015260a086015260c085015260e0840152610100830152610120820152f35b634e487b7160e01b81526011600452602490fd5b50506101409997610b38565b5080511515610b08565b610ba290614563565b6005811015610c2c5760408f60019281526018602052200154905162093a808101809111610c1857610bd862015180914261410e565b049081151580610c0f575b15610afd57612710929b5061016d91610c00610c0592865161413b565b61413b565b0404983880610afd565b50801515610be3565b634e487b7160e01b8f52601160045260248ffd5b634e487b7160e01b8f52602160045260248ffd5b5082511515610af8565b50634e487b7160e01b8f52601160045260248ffd5b8c98610adf565b503461059257602036600319011261059257600435906005821015610592576020610c9083613ff3565b54604051908152f35b5034610592576040366003190112610592576040610cb5613e9a565b91610cbe613eb0565b9260018060a01b0316815280602052209060018060a01b03166000526020526020604060002054604051908152f35b503461059257806003193601126105925760206040517fb438992c2c4c65322b65fd8e2dacea9efd63443e69e5ed52f4a77ed6c78f7c2a8152f35b503461059257806003193601126105925760405180916020600954928381520191600982527f6e1540171b6c0c960b71a7020d9f60077f6af931a8bbf590da0223dacf75c7af915b818110610d9757610d9385610d8781870382614070565b60405191829182613fb0565b0390f35b82546001600160a01b0316845260209093019260019283019201610d70565b503461059257602036600319011261059257610dd0613e9a565b610dd9816147d7565b50610e8c576001600160a01b03168082526005602052604082205460ff16610e4757808252600560205260408220600160ff1982541617905580825260066020524260408320557f7f62ed89ea2c6fb057e4ea77729c1d3f18056339791fce29ac89760197b45b298280a280f35b60405162461bcd60e51b815260206004820152601b60248201527f4c69717569646174696f6e20616c7265616479207374617274656400000000006044820152606490fd5b60405162461bcd60e51b8152602060048201526013602482015272506f736974696f6e206973206865616c74687960681b6044820152606490fd5b5034610592576020366003190112610592576004356001600c54610eee60ff82161561474f565b60ff191617600c55600e546001600160a01b03163303610f4b578180808093610f194782111561478b565b818115610f42575b3390f115610f365760ff19600c5416600c5580f35b604051903d90823e3d90fd5b506108fc610f21565b60405162461bcd60e51b815260206004820152602260248201527f4f6e6c79206c656e64696e67206d616e616765722063616e2063616c6c207468604482015261697360f01b6064820152608490fd5b503461059257604036600319011261059257610fb5613e9a565b60105460243591906001600160a01b0316330361101f57620151808211610fee576001600160a01b031682526015602052604082205580f35b60405162461bcd60e51b8152602060048201526009602482015268546f6f206c6172676560b81b6044820152606490fd5b630925c89960e31b8352600483fd5b50346105925760403660031901126105925761057c60043561104e613eb0565b9061106061105b826143a4565b614c2e565b614d1a565b50346105925780600319360112610592576010546040516001600160a01b039091168152602090f35b5034610592576020366003190112610592576020906040906001600160a01b036110b6613e9a565b168152600483522054604051908152f35b5034610592576060366003190112610592576010546004359060243590604435906001600160a01b031633036111885761110460115484106143c5565b6040516040810181811067ffffffffffffffff82111761117457917f7543d68ffbde1802767cee31f14403e1b914f7249f14f2724e7398aa10de0923939160409384528281526001602082018381528789526018602052858920925183555191015582519182526020820152a280f35b634e487b7160e01b86526041600452602486fd5b630925c89960e31b8452600484fd5b5034610592578060031936011261059257602060ff600c54166040519015158152f35b5034610592578060031936011261059257610d93610d8761484b565b5034610592578060031936011261059257600d546040516001600160a01b039091168152602090f35b503461059257602036600319011261059257611219613e9a565b6010546001600160a01b03163303611295576001600160a01b03168015611250576001600160601b0360a01b600e541617600e5580f35b60405162461bcd60e51b815260206004820152601f60248201527f496e76616c6964206c656e64696e67206d616e616765722061646472657373006044820152606490fd5b630925c89960e31b8252600482fd5b506020366003190112610592576004356001600c546112c960ff8260081c16156140cd565b6112d660ff82161561474f565b60ff191617600c55338252600360205260408220546118ef576112f833614563565b6005811015806118db576004821461189f57600b5460011c83116118415761131f3361449d565b91505083116117ee576113313361449d565b505061133c33614633565b906064820291808304606414901517156115975761135a908561413b565b1161179b576017546001600160a01b0316908482611779575b8561137e828761410e565b93821580156116dc575b50505050600b549061139f6013546014549061410e565b91869281611691575b5050600f54604051634fd41dad60e11b81526004810193909352602090839060249082906001600160a01b03165afa91821561168657869261164d575b506116395760036113f584613f91565b50015481868212156115ff575061140b906146fc565b6127100390612710821161159757612710916114269161413b565b04915b600c84106115ab5762278d004201804211611597578580936114f782946114d6849560066040519161145a83614054565b8c83528b8d60208501928184526040860192835260608601908152600c608087019204825260a08601926101f4845260c087019460018652338d52601960205260408d209751885551600188015551600287015551600386015551600485015551600584015551151591019060ff801983541691151516179055565b33845260036020528860408520553384526004602052426040852055613ff3565b6115028882546140aa565b9055611510876013546140aa565b60135581811561158e575b3390f115610587576040519082825260208201527f5660f932172e1664b98577a703dd9484d374b28e3bf8c87b345bee97af61241260403392a26040519081527fac59582e5396aca512fa873a2047e7f4c80f8f55d4a06cb34a78a0187f62719f60203392a260ff19600c5416600c5580f35b506108fc61151b565b634e487b7160e01b86526011600452602486fd5b60405162461bcd60e51b815260206004820152602660248201527f4c6f616e20616d6f756e7420746f6f20736d616c6c20666f7220616d6f7274696044820152653d30ba34b7b760d11b6064820152608490fd5b939190868113611611575b5050611429565b909193506127100190816127101161159757612710916116309161413b565b0491388061160a565b634e487b7160e01b85526021600452602485fd5b9091506020813d60201161167e575b8161166960209383614070565b81010312611679575190386113e5565b600080fd5b3d915061165c565b6040513d88823e3d90fd5b90919250670de0b6b3a7640000810290808204670de0b6b3a764000014901517156116c857906116c09161411b565b9038806113a8565b634e487b7160e01b87526011600452602487fd5b8284819382938390611770575bf11561176557816117515760405190815260606020820152600b60608201526a37b934b3b4b730ba34b7b760a91b60808201528360408201527f66aecc579aa1ef463c0ed1547c2cb6163370e6311a60cba815252acbb398f21360a03392a238858180611388565b634e487b7160e01b86526021600452602486fd5b6040513d87823e3d90fd5b506108fc6116e9565b505083828552601860205261271061179560408720548661413b565b04611373565b60405162461bcd60e51b815260206004820152602560248201527f496e73756666696369656e7420636f6c6c61746572616c20666f722074686973604482015264103637b0b760d91b6064820152608490fd5b60405162461bcd60e51b815260206004820152602560248201527f426f72726f7720616d6f756e74206578636565647320796f75722074696572206044820152641b1a5b5a5d60da1b6064820152608490fd5b60405162461bcd60e51b815260206004820152603060248201527f426f72726f7720616d6f756e74206578636565647320617661696c61626c652060448201526f6c656e64696e6720636170616369747960801b6064820152608490fd5b60405162461bcd60e51b81526020600482015260146024820152734372656469742073636f726520746f6f206c6f7760601b6044820152606490fd5b634e487b7160e01b84526021600452602484fd5b60405162461bcd60e51b815260206004820152601e60248201527f526570617920796f7572206578697374696e67206465627420666972737400006044820152606490fd5b50346105925780600319360112610592576010546001600160a01b031633036119a9577f228f455d7bc3d0b24a3a08d7847f391c3e78fc8aeb83acf226b7a96ee162b8ac6020600c5461ff0060ff8260081c161560081b169061ff0019161780600c5560ff6040519160081c1615158152a180f35b630925c89960e31b8152600490fd5b503461059257806003193601126105925760206040517facd38b7c4e04b2b78fc2ca994eae1a3eb206005ffa4c11fcf4a9d81c94684b2d8152f35b5034610592576020366003190112610592576020906040906001600160a01b03611a1b613e9a565b168152600683522054604051908152f35b503461059257806003193601126105925760206040516203f4808152f35b5034610592578060031936011261059257602060405160828152f35b50346105925780600319360112610592576020601454604051908152f35b50346105925780600319360112610592576020601354604051908152f35b5034610592576020366003190112610592576020906040906001600160a01b03611aca613e9a565b168152600383522054604051908152f35b50346105925760203660031901126105925760043590600854821015610592576020611b0683613f0d565b905460405160039290921b1c6001600160a01b03168152f35b5034610592576020366003190112610592576040809160043581526018602052206001815491015482519182526020820152f35b5034610592578060031936011261059257602060ff600c5460081c166040519015158152f35b503461059257604036600319011261059257611b93613e9a565b6001600160a01b0316808252600160205260408220546024359060ff1615611e1e578015611d9b57338352600560205260ff604084205416611d0557338352600a60205260ff60408420541615611c98575b6040516323b872dd60e01b81523360048201523060248201526044810182905260208160648187875af18015611c8d57611c70575b5081835260208381526040808520336000908152925290208054611c3f9083906140aa565b90556040519081527ff1c0dd7e9b98bbff859029005ef89b127af049cd18df1a8d79f0b7e019911e5660203392a380f35b611c889060203d602011610580576105748183614070565b611c1a565b6040513d86823e3d90fd5b338352600a60205260408320805460ff19166001179055600954600160401b811015611cf157806001611cd092016009556009613f28565b81546001600160a01b0360039290921b91821b19163390911b179055611be5565b634e487b7160e01b84526041600452602484fd5b604051600080516020614e9e833981519152339180611d528160609060208152601960208201527820b1b1b7bab73a1034b99034b7103634b8bab4b230ba34b7b760391b60408201520190565b0390a260405162461bcd60e51b815260206004820152601960248201527820b1b1b7bab73a1034b99034b7103634b8bab4b230ba34b7b760391b604482015280606481015b0390fd5b604051600080516020614e9e833981519152339180611de1816060906020815260126020820152710416d6f756e74206d757374206265203e20360741b60408201520190565b0390a260405162461bcd60e51b81526020600482015260126024820152710416d6f756e74206d757374206265203e20360741b6044820152606490fd5b604051600080516020614e9e833981519152339180611e6381606090602081526011602082015270151bdad95b881b9bdd08185b1b1bddd959607a1b60408201520190565b0390a260405162461bcd60e51b8152602060048201526011602482015270151bdad95b881b9bdd08185b1b1bddd959607a1b6044820152606490fd5b5034610592578060031936011261059257602090604051908152f35b5034610592578060031936011261059257600e546040516001600160a01b039091168152602090f35b5034610592578060031936011261059257602060405160058152f35b503461059257604036600319011261059257611f1a613e9a565b60105460243591906001600160a01b0316330361101f576001600160a01b031690811561200257308214611fc55760648111611f8b5760207f4afae6838a181695abc7978598380d73bc2144eb38580c130f86e4b1e6531e159183855260028252806040862055604051908152a280f35b60405162461bcd60e51b815260206004820152601260248201527153636f7265206f7574206f662072616e676560701b6044820152606490fd5b60405162461bcd60e51b815260206004820152601560248201527424b73b30b634b21030b2323932b9b99d1039b2b63360591b6044820152606490fd5b60405162461bcd60e51b815260206004820152601d60248201527f496e76616c696420616464726573733a207a65726f20616464726573730000006044820152606490fd5b50346105925780600319360112610592576020600b54604051908152f35b503461059257806003193601126105925760206040517f96737339a958f216173e690d06f324072e6dc3146e04c060bd723906d6b190768152f35b50346105925760203660031901126105925760209060ff906040906001600160a01b036120cb613e9a565b168152600a84522054166040519015158152f35b50346105925760403660031901126105925760406120fb613eb0565b916004358152600080516020614ebe833981519152602052209060018060a01b0316600052602052602060ff604060002054166040519015158152f35b503461059257602036600319011261059257604061215c612157613e9a565b6147d7565b825191151582526020820152f35b503461059257602036600319011261059257601054600435906001600160a01b03163303611295576001600c546121a460ff82161561474f565b60ff191617600c556121b84782111561478b565b8180828015612216575b8280929181923390f115612209576040519081527f69c169e5c85af54e1ca7e16608ccc812437821387924fb3353a7d053264ddaa060203392a260ff19600c5416600c5580f35b50604051903d90823e3d90fd5b6108fc91506121c2565b503461059257806003193601126105925760206040517fce802e42c93d0fbd61dfc706a0e806b78ac046397e07510da2f223464e4788e08152f35b50346105925780600319360112610592576020601654604051908152f35b503461059257806003193601126105925760206040517f0e0e24c52bc4f24612e3f568966757426acd82325205933a9270e1ce7c4d93c28152f35b5034610592576040366003190112610592576123556122d1613e9a565b61234061233b602435926122f060018060a01b03600e5416331461470d565b60018060a01b0381168087526003602052866040812055808752600460205286604081205580875260056020526040872060ff19815416905586526006602052856040812055614563565b613ff3565b61234b82825461410e565b90556014546140aa565b60145580f35b503461059257604036600319011261059257612375613e9a565b61237d613eb0565b6010549091906001600160a01b0316330361101f576001600160a01b0316808352600160205260408320546123b49060ff166145e7565b825260076020526040822080546001600160a01b0319166001600160a01b0390921691909117905580f35b50346105925760203660031901126105925760e0906040906001600160a01b03612407613e9a565b1681526019602052208054906001810154906002810154600382015460048301549160ff600660058601549501541694604051968752602087015260408601526060850152608084015260a0830152151560c0820152f35b50346105925760203660031901126105925760209060ff906040906001600160a01b0361248a613e9a565b168152600184522054166040519015158152f35b5034610592576020366003190112610592576124b8613e9a565b600b546124ca6013546014549061410e565b811561261157670de0b6b3a7640000810290808204670de0b6b3a764000014901517156125fd57906124fb9161411b565b905b600f54604051634fd41dad60e11b81526004810193909352602090839060249082906001600160a01b03165afa9182156125f25783926125bc575b506125429061449d565b5082915083811215612580576125599192506146fc565b61271003916127108311610b6f57506125776020926127109261413b565b04604051908152f35b838113612593575b505060209150610947565b90915061271001918261271011610b6f57506125b46020926127109261413b565b043880612588565b9091506020813d6020116125ea575b816125d860209383614070565b81010312611679575190612542612538565b3d91506125cb565b6040513d85823e3d90fd5b634e487b7160e01b84526011600452602484fd5b505081906124fd565b503461059257602036600319011261059257600435906011548210156105925760a061264583613f91565b50805490600181015490600281015460046003830154920154926040519485526020850152604084015260608301526080820152f35b503461059257602036600319011261059257612695613e9a565b601054906001600160a01b038216330361101f576001600160a01b03169081156126ca576001600160a01b0319161760105580f35b60405162461bcd60e51b815260206004820152600f60248201526e496e76616c6964206164647265737360881b6044820152606490fd5b50346105925761271036613f40565b50506060601a54603c81018091116129095761272d90421161450c565b604051808160206009549283815201600986527f6e1540171b6c0c960b71a7020d9f60077f6af931a8bbf590da0223dacf75c7af92865b8181106128e757505061277992500382614070565b61278381516146ca565b908390845b8151811015612816576001600160a01b036127a3828461414e565b5116808752600560205260ff6040882054166127c3575b50600101612788565b808752600660205260408720546203f48081018091116128025742106127ba57836127fb916127f5600194968861414e565b52614162565b92906127ba565b634e487b7160e01b88526011600452602488fd5b8386848781156128dd575061282a816146ca565b92825b8281106128b55750505061284f61285d60019360405192839160208301613fb0565b03601f198101835282614070565b90915b6040519283911515825260406020830152825192836040840152815b84811061289d57505091606092838284010152601f80199101168101030190f35b6020828201810151606088840101528694500161287c565b6001906001600160a01b036128ca828561414e565b51166128d6828861414e565b520161282d565b9192505081612860565b84546001600160a01b0316835260019485019486945060209093019201612764565b634e487b7160e01b83526011600452602483fd5b503461059257602036600319011261059257602061094761293c613e9a565b614633565b5034610592576020366003190112610592576020906040906001600160a01b03612969613e9a565b168152601583522054604051908152f35b50346105925780600319360112610592576020604051603c8152f35b5034610592576020366003190112610592576020906001600160a01b036129bb613e9a565b16808252600183526129d360ff6040842054166145e7565b815260078252604060018060a01b0391205416604051908152f35b503461059257806003193601126105925760206040516103848152f35b503461059257604036600319011261059257612a25613e9a565b6024359081151590818303612b5e576010546001600160a01b03163303611188576001600160a01b0316808452600160205260408420805460ff191660ff85151516179055918384600854905b818110612b29575b505081612b20575b50612ab6575b60207f15f5cc64ca777db85f6c05fdba671568758b38329616d4d4b43bb8b092fe9a8d91604051908152a280f35b600854600160401b811015611cf1577f15f5cc64ca777db85f6c05fdba671568758b38329616d4d4b43bb8b092fe9a8d91612afb826001602094016008556008613f28565b81546001600160a01b0360039290921b91821b19169086901b1790559150612a889050565b90501538612a82565b85612b3382613f0d565b905460039190911b1c6001600160a01b031614612b5257600101612a72565b50505060013880612a7a565b8380fd5b5034610592576040366003190112610592576040612b7e613e9a565b916001600160a01b03612b8f613eb0565b16815280602052209060018060a01b03166000526020526020604060002054604051908152f35b503461059257602036600319011261059257612bd8612bd3613e9a565b614563565b604051906005811015612bed57602092508152f35b634e487b7160e01b83526021600452602483fd5b503461059257806003193601126105925760206040517f430b074324c1d9f1ce97c9e9efd8cc6b779c8a501b53808a5cafe19682f95dd58152f35b503461059257612c4b36613f40565b601a54603c81018091116125fd57612c6490421161450c565b42601a55810190602081830312612d9f5780359067ffffffffffffffff8211612b5e57019080601f83011215612d9f57813590612ca08261454b565b92612cae6040519485614070565b82845260208085019360051b82010191821161089457602001915b818310612dbb57505050815b8151811015612db7576001600160a01b03612cf0828461414e565b5116808452600560205260ff604085205416612d10575b50600101612cd5565b808452600660205260408420546203f4808101809111612da357908491421015612d3b575b50612d07565b600e546001600160a01b0316803b15612d9f5760405163bcebb1d760e01b81523060048201526001600160a01b0392909216602483015282908290604490829084905af180156105875715612d355781612d9491614070565b612d9f578238612d35565b8280fd5b634e487b7160e01b85526011600452602485fd5b8280f35b82356001600160a01b0381168103612ddb57815260209283019201612cc9565b8580fd5b50346105925780600319360112610592576040602091338152600383522054604051908152f35b503461059257806003193601126105925760206040517f5fef09193e4e8110de1cc5ba269e889a5fb9093ba33c4df4b67dc2eaa1ca1fff8152f35b5034610592578060031936011261059257600c5460405160109190911c6001600160a01b03168152602090f35b508060031936011261059257612e8c60ff600c5460081c16156140cd565b33815260036020526040812054156131fd57341561316e573381526003602052604081205434116130d557612ec033614563565b612ec981613ff3565b612ed434825461410e565b9055338252600360205260408220612eed34825461410e565b9055612efb346014546140aa565b60145533825260036020526040822054156130c2575b338252600560205260ff60408320541661309b575b6017546001600160a01b0316151580613086575b612f6f575b506040513481527f0516911bcc3a0a7412a44601057c0a0a1ec628bde049a84284bc42886653448860203392a280f35b813383526004602052604083205462093a8081018091116125fd574211613057575b80612f9d575b50612f3f565b3383526003602052604083205460058310156118db5761016d612fd88593610c0061271094878752601860205260016040882001549061413b565b040480612fe6575b50612f97565b60018060a01b03600e5416923383526003602052604083205491843b15612b5e578392608491604051968794859363e50649d160e01b8552336004860152602485015260448401528160648401525af1801561220957613047575b81612fe0565b61305091614070565b3881613041565b503382526004602052604082205462093a8081018091116129095761308062015180914261410e565b04612f91565b50338252600460205260408220541515612f3a565b33825260056020526040822060ff1981541690553382526006602052816040812055612f26565b3382526004602052816040812055612f11565b604051600080516020614e9e8339815191523391806131268160609060208152601c60208201527f52657061796d656e74206578636565647320746f74616c20646562740000000060408201520190565b0390a260405162461bcd60e51b815260206004820152601c60248201527f52657061796d656e74206578636565647320746f74616c2064656274000000006044820152606490fd5b604051600080516020614e9e8339815191523391806131ba816060906020815260186020820152774d7573742073656e642066756e647320746f20726570617960401b60408201520190565b0390a260405162461bcd60e51b81526020600482015260186024820152774d7573742073656e642066756e647320746f20726570617960401b6044820152606490fd5b604051600080516020614e9e83398151915233918061324481606090602081526013602082015272139bc81bdd5d1cdd185b991a5b99c81919589d606a1b60408201520190565b0390a260405162461bcd60e51b8152602060048201526013602482015272139bc81bdd5d1cdd185b991a5b99c81919589d606a1b6044820152606490fd5b50346105925780600319360112610592576020601a54604051908152f35b50346105925760203660031901126105925760606132c46132bf613e9a565b61449d565b9060405192835260208301526040820152f35b50346105925760203660031901126105925760043590600954821015610592576020611b0683613edc565b50346105925760403660031901126105925761331c613eb0565b336001600160a01b038216036133385761057c90600435614d1a565b63334bd91960e11b8252600482fd5b5034610592576020366003190112610592576010546001600160a01b031633036119a95760043560165580f35b503461059257806003193601126105925760206040517ffed613f2d4bec2209ff904769fa3c094c155ec5048c0bb2e17f16e523671ca2c8152f35b5034610592576040366003190112610592576133c9613e9a565b6001600160a01b0381168083526001602052604083205490916024359160ff1615611e1e578284526020848152604080862033875290915284205482116135c257338452600560205260ff604085205416611d055761344d90670de0b6b3a764000061344661344061343a33614633565b93614a2c565b8561413b565b049061410e565b6064810290808204606414901517156125fd57338452600360205260246040852054602060018060a01b03600d541660405193848092631ee1b90b60e21b82528960048301525afa90811561168657869161358c575b6134ad925061413b565b116135525781835260208381526040808520338652909152832080546134d490839061410e565b905560405163a9059cbb60e01b81523360048201526024810182905260208160448187875af18015611c8d57613535575b506040519081527f45892a46e6cef329bb642da6d69846d324db43d19008edc141ed82382eda1bee60203392a380f35b61354d9060203d602011610580576105748183614070565b613505565b604051600080516020614e9e8339815191523391806135708161444a565b0390a260405162461bcd60e51b815280611d976004820161444a565b90506020823d6020116135ba575b816135a760209383614070565b81010312612ddb576134ad9151906134a3565b3d915061359a565b604051600080516020614e9e83398151915233918061360a81606090602081526014602082015273496e73756666696369656e742062616c616e636560601b60408201520190565b0390a260405162461bcd60e51b8152602060048201526014602482015273496e73756666696369656e742062616c616e636560601b6044820152606490fd5b503461059257602036600319011261059257604060e091613668613e9a565b8160c0845161367681614054565b82815282602082015282868201528260608201528260808201528260a0820152015260018060a01b031681526019602052206040516136b481614054565b815491828252600181015460208301908152600282015460408401908152600383015490606085019182526004840154926080860193845260c060ff600660058801549760a08a01988952015416960195151586526040519687525160208701525160408601525160608501525160808401525160a083015251151560c0820152f35b50346105925760c036600319011261059257601054600435906001600160a01b03163303611295576137b09061377060115482106143c5565b6137aa6040519161378083614022565b602435835260443560208401526064356040840152608435606084015260a4356080840152613f91565b90614400565b80f35b503461059257806003193601126105925760206040517fe8298770b4b1881dbab0a2ffbeecd45e51a5cb31019a645dcf3f364e5695944d8152f35b50346105925760403660031901126105925761057c60043561380e613eb0565b9061381b61105b826143a4565b614c78565b50346105925760203660031901126105925760206109476004356143a4565b50346105925780600319360112610592576137b0614171565b50806003193601126105925761387660ff600c5460081c16156140cd565b338152601960205260408120600681019060ff82541615613ab9576004810190815491823410613a745760038201918254804210613a435762093a8081018091116116c85780421161397c575b509060016138fc9201936138d881865461410e565b855533875260036020526138f16040882091825461410e565b9055546014546140aa565b60145580549062278d008201809211612da35755546040513481528160208201527fd3cf6d8c55fed98c7b9f9d18d95a51dbdb316503bb854fc1f676c8974cb10f4f60403392a21561394c575080f35b805460ff19169055337f59bd56f70adeefb0cd83dca0f34f066bed6ee442068f3d07b5fc974b944d5aa68280a280f35b61398533614563565b6005811015613a2f57916001916138fc949389526018602052620151806139b38460408c200154924261410e565b0480151580613a26575b6139cc575b50509192506138c3565b6139f161271061016d6139e887870194610c008654978861413b565b040480936140aa565b90556040519081527fce0d6b567089a0bce35e0693cdb625006f0cf915f9f3686bb0343bc2c667c1b260203392a238806139c2565b508115156139bd565b634e487b7160e01b88526021600452602488fd5b60405162461bcd60e51b8152602060048201526009602482015268546f6f206561726c7960b81b6044820152606490fd5b60405162461bcd60e51b815260206004820152601860248201527f496e73756666696369656e7420696e7374616c6c6d656e7400000000000000006044820152606490fd5b60405162461bcd60e51b815260206004820152600e60248201526d27379030b1ba34bb32903637b0b760911b6044820152606490fd5b5034610592576020366003190112610592576020906001600160a01b03613b14613e9a565b16815260078252604060018060a01b0391205416604051908152f35b503461059257806003193601126105925760206040517f8b473ac3e35dc431c1dba0191b7615ccaca6bfeb14f9573dcaae9e614fbe8b208152f35b503461059257602036600319011261059257613b85613e9a565b6010546001600160a01b03163303611295576001600160a01b03168015613bdf57601780546001600160a01b031916821790557f279ea638680bba6a87fddd8bcdbc37d94eee92841e1dfec2ab0f79662c7093118280a280f35b60405162461bcd60e51b815260206004820152601760248201527f496e76616c6964207265736572766520616464726573730000000000000000006044820152606490fd5b5034610592578060031936011261059257602047604051908152f35b50346105925780600319360112610592576020604051600a8152f35b50346105925780600319360112610592576020604051610e108152f35b503461059257604036600319011261059257613c93613e9a565b60243590338352600560205260ff60408420541615613d65576040516323b872dd60e01b8152336004820152306024820152604481018390526001600160a01b03919091169060208160648187865af18015611c8d57613d48575b50825260208281526040808420338552909152822080549091613d10916140aa565b9055613d1b336147d7565b50613d235780f35b33815260056020526040812060ff198154169055338152600660205280604081205580f35b613d609060203d602011610580576105748183614070565b613cee565b60405162461bcd60e51b815260206004820152601a60248201527f4163636f756e74206e6f7420696e206c69717569646174696f6e0000000000006044820152606490fd5b50346105925760203660031901126105925760209060ff906040906001600160a01b03613dd5613e9a565b168152600584522054166040519015158152f35b50346105925760203660031901126105925760043563ffffffff60e01b8116809103613e4057602090637965db0b60e01b8114908115613e2f575b506040519015158152f35b6301ffc9a760e01b14905082613e24565b5080fd5b503461059257602036600319011261059257613e5e613e9a565b6010546001600160a01b0316330361129557600c805462010000600160b01b03191660109290921b62010000600160b01b031691909117905580f35b600435906001600160a01b038216820361167957565b602435906001600160a01b038216820361167957565b604435906001600160a01b038216820361167957565b600954811015613ef757600960005260206000200190600090565b634e487b7160e01b600052603260045260246000fd5b600854811015613ef757600860005260206000200190600090565b8054821015613ef75760005260206000200190600090565b9060206003198301126116795760043567ffffffffffffffff811161167957826023820112156116795780600401359267ffffffffffffffff84116116795760248483010111611679576024019190565b601154811015613ef75760116000526005602060002091020190600090565b602060408183019282815284518094520192019060005b818110613fd45750505090565b82516001600160a01b0316845260209384019390920191600101613fc7565b600581101561400c576000526012602052604060002090565b634e487b7160e01b600052602160045260246000fd5b60a0810190811067ffffffffffffffff82111761403e57604052565b634e487b7160e01b600052604160045260246000fd5b60e0810190811067ffffffffffffffff82111761403e57604052565b90601f8019910116810190811067ffffffffffffffff82111761403e57604052565b90816020910312611679575180151581036116795790565b919082018092116140b757565b634e487b7160e01b600052601160045260246000fd5b156140d457565b60405162461bcd60e51b815260206004820152601260248201527110dbdb9d1c9858dd081a5cc81c185d5cd95960721b6044820152606490fd5b919082039182116140b757565b8115614125570490565b634e487b7160e01b600052601260045260246000fd5b818102929181159184041417156140b757565b8051821015613ef75760209160051b010190565b60001981146140b75760010190565b61417961484b565b60005b815181101561421f576001600160a01b03614197828461414e565b51166000818152600760205260409020546001600160a01b03166141bf575b5060010161417c565b6141d66141ce610e1092614ae0565b90504261410e565b116141e157386141b6565b505061010061ff0019600c541617600c557f228f455d7bc3d0b24a3a08d7847f391c3e78fc8aeb83acf226b7a96ee162b8ac602060405160018152a1565b5050600b54801515908161436d575b5061426357600954600e54600091906001600160a01b0316825b8281106142c9575050801515918261429f575b505061426357565b61010061ff0019600c541617600c557f228f455d7bc3d0b24a3a08d7847f391c3e78fc8aeb83acf226b7a96ee162b8ac602060405160018152a1565b9091506064810290808204606414901517156140b7576005916142c19161411b565b11388061425b565b61430d60206142d783613edc565b9054604051632cf5889360e01b815230600482015260039290921b1c6001600160a01b0316602482015291829081906044820190565b0381865afa90811561436157600091614343575b5061432f575b600101614248565b9261433b600191614162565b939050614327565b61435b915060203d8111610580576105748183614070565b38614321565b6040513d6000823e3d90fd5b905061437e6013546014549061410e565b6064810290808204606414901517156140b757605f9161439d9161411b565b113861422e565b600052600080516020614ebe83398151915260205260016040600020015490565b156143cc57565b60405162461bcd60e51b815260206004820152600c60248201526b24b73b30b634b2103a34b2b960a11b6044820152606490fd5b9190614434576080816004925184556020810151600185015560408101516002850155606081015160038501550151910155565b634e487b7160e01b600052600060045260246000fd5b60809060208152603260208201527f5769746864726177616c20776f756c64206d616b6520706f736974696f6e20756040820152711b99195c98dbdb1b185d195c985b1a5e995960721b60608201520190565b6144a690614563565b600581101561400c576144b890613f91565b5090604051906144c782614022565b825482526001830154602083015260646145056080600286015494856040820152600460038801549788606084015201549182910152600b5461413b565b0491929190565b1561451357565b60405162461bcd60e51b815260206004820152601060248201526f155c1ad9595c081d1a1c9bdd1d1b195960821b6044820152606490fd5b67ffffffffffffffff811161403e5760051b60200190565b6001600160a01b0316600090815260026020526040812054601154915b8281106145a157505060001981019081116140b757600581101561400c5790565b6145aa81613f91565b5054821015806145d0575b6145c157600101614580565b915050600581101561400c5790565b5060016145dc82613f91565b5001548211156145b5565b156145ee57565b60405162461bcd60e51b815260206004820152601f60248201527f546f6b656e206e6f7420616c6c6f77656420617320636f6c6c61746572616c006044820152606490fd5b9060009161463f61484b565b9260005b84518110156146c4576001600160a01b0361465e828761414e565b51166000818152602081815260408083206001600160a01b03881684529091529020549081614692575b5050600101614643565b92670de0b6b3a76400006146b56146bc936146af60019697614a2c565b9061413b565b04906140aa565b919038614688565b50925050565b906146d48261454b565b6146e16040519182614070565b82815280926146f2601f199161454b565b0190602036910137565b600160ff1b81146140b75760000390565b1561471457565b60405162461bcd60e51b815260206004820152601360248201527227b7363c902632b73234b733a6b0b730b3b2b960691b6044820152606490fd5b1561475657565b60405162461bcd60e51b815260206004820152600d60248201526c4e6f207265656e7472616e637960981b6044820152606490fd5b1561479257565b60405162461bcd60e51b815260206004820152601d60248201527f496e73756666696369656e7420636f6e74726163742062616c616e63650000006044820152606490fd5b906147e182614633565b6001600160a01b03831660009081526003602052604090205492831561483e578115614832576148109061449d565b505092606482029182046064036140b75761482a9161411b565b918210159190565b50509050600090600090565b5060019250600019919050565b6008546000805b8281106148c95750614863906146ca565b906000805b8281106148755750505090565b61487e81613f0d565b905460039190911b1c6001600160a01b031660008181526001602052604090205460ff166148b0575b50600101614868565b826148c2916127f5600194958861414e565b91906148a7565b6148d281613f0d565b60018060a01b0391549060031b1c16600052600160205260ff604060002054166148ff575b600101614852565b9061490b600191614162565b9190506148f7565b519069ffffffffffffffffffff8216820361167957565b908160a09103126116795761493e81614913565b9160208201519160408101519161495c608060608401519301614913565b90565b6001600160a01b038181166000908152600760205260409020541680156149e55760a060049160405192838092633fabe5a360e21b82525afa918215614361576000916000906000946149ec575b506149bb6149c1914261410e565b91614dba565b106149e55769ffffffffffffffffffff8091169116106149e057600190565b600090565b5050600090565b6149c194506149bb9350614a18915060a03d60a011614a25575b614a108183614070565b81019061492a565b9650929491506149ad9050565b503d614a06565b614a3581614ae0565b509060018060a01b031660005260076020526004602060018060a01b03604060002054166040519283809263313ce56760e01b82525afa90811561436157600091614aa3575b5060ff1660120360ff81116140b75760ff1690604d82116140b75761495c91600a0a9061413b565b6020813d602011614ad8575b81614abc60209383614070565b81010312613e4057519060ff82168203610592575060ff614a7b565b3d9150614aaf565b6001600160a01b038082166000908152600760205260409020541691908215614bf45760a060049360405194858092633fabe5a360e21b82525afa80156143615760008092600095600093614bc7575b50614b3e6149bb874261410e565b10614b945769ffffffffffffffffffff809116911610614b5c579190565b60405162461bcd60e51b815260206004820152601060248201526f5374616c6520726f756e64206461746160801b6044820152606490fd5b60405162461bcd60e51b815260206004820152600b60248201526a5374616c6520707269636560a81b6044820152606490fd5b9250945050614be5915060a03d60a011614a2557614a108183614070565b95929150929092949138614b30565b60405162461bcd60e51b8152602060048201526012602482015271141c9a58d94819995959081b9bdd081cd95d60721b6044820152606490fd5b6000818152600080516020614ebe8339815191526020908152604080832033845290915290205460ff1615614c605750565b63e2517d3f60e01b6000523360045260245260446000fd5b6000818152600080516020614ebe833981519152602090815260408083206001600160a01b038616845290915290205460ff166149e5576000818152600080516020614ebe833981519152602090815260408083206001600160a01b0395909516808452949091528120805460ff19166001179055339291907f2f8788117e7eff1d82e926ec794901d17c78024a50270940304540a733656f0d9080a4600190565b6000818152600080516020614ebe833981519152602090815260408083206001600160a01b038616845290915290205460ff16156149e5576000818152600080516020614ebe833981519152602090815260408083206001600160a01b0395909516808452949091528120805460ff19169055339291907ff6391f5c32d9c69d2a47ea670b442974b53935d1edc7fd64eb21e047a839171b9080a4600190565b6001600160a01b031660008181526015602052604090205480614e445750600d54604051631a650cc760e01b81526004810192909252602090829060249082906001600160a01b03165afa90811561436157600091614e25575b50614e1f5761038490565b610e1090565b614e3e915060203d602011610580576105748183614070565b38614e14565b905090565b9060115491600160401b83101561403e5760018301601155600092601154811015614e895760009060056020866011614e8797985220910201614400565b565b634e487b7160e01b84526032600452602484fdfe3c364b9decdac59fbe037e99687219ac0feed46572bfbcbd5284b6b8e67f402d02dd7bc7dec4dceedda775e58dd541e08a116c6c53815c0bd028192f7b626800f0c57e16840df040f15088dc2f81fe391c3923bec73e23a9662efc9c229c6a00a26469706673582212209a9cd60f94e4273546892d2507b54c7b974dc2e940f89bb52bb27bc3bb5686f164736f6c634300081c0033",
  "linkReferences": {},
  "deployedLinkReferences": {}
}