{
  "_format": "hh-sol-artifact-1",
  "contractName": "LiquidityPool",
  "sourceName": "contracts/LiquidityPool.sol",
  "abi": [
    {
      "inputs": [],
      "name": "OnlyTimelockLiquidityPool",
      "type": "error"
    },
    {
      "anonymous": false,
      "inputs": [
        {
          "indexed": true,
          "internalType": "address",
          "name": "user",
          "type": "address"
        },
        {
          "indexed": false,
          "internalType": "uint256",
          "name": "amount",
          "type": "uint256"
        },
        {
          "indexed": false,
          "internalType": "bytes32",
          "name": "nullifier",
          "type": "bytes32"
        }
      ],
      "name": "BorrowWithNullifier",
      "type": "event"
    },
    {
      "anonymous": false,
      "inputs": [
        {
          "indexed": true,
          "internalType": "address",
          "name": "user",
          "type": "address"
        },
        {
          "indexed": false,
          "internalType": "uint256",
          "name": "amount",
          "type": "uint256"
        }
      ],
      "name": "Borrowed",
      "type": "event"
    },
    {
      "anonymous": false,
      "inputs": [
        {
          "indexed": true,
          "internalType": "address",
          "name": "user",
          "type": "address"
        },
        {
          "indexed": true,
          "internalType": "address",
          "name": "token",
          "type": "address"
        },
        {
          "indexed": false,
          "internalType": "uint256",
          "name": "amount",
          "type": "uint256"
        }
      ],
      "name": "CollateralDeposited",
      "type": "event"
    },
    {
      "anonymous": false,
      "inputs": [
        {
          "indexed": true,
          "internalType": "address",
          "name": "token",
          "type": "address"
        },
        {
          "indexed": false,
          "internalType": "bool",
          "name": "isAllowed",
          "type": "bool"
        }
      ],
      "name": "CollateralTokenStatusChanged",
      "type": "event"
    },
    {
      "anonymous": false,
      "inputs": [
        {
          "indexed": true,
          "internalType": "address",
          "name": "user",
          "type": "address"
        },
        {
          "indexed": true,
          "internalType": "address",
          "name": "token",
          "type": "address"
        },
        {
          "indexed": false,
          "internalType": "uint256",
          "name": "amount",
          "type": "uint256"
        }
      ],
      "name": "CollateralWithdrawn",
      "type": "event"
    },
    {
      "anonymous": false,
      "inputs": [
        {
          "indexed": true,
          "internalType": "address",
          "name": "user",
          "type": "address"
        },
        {
          "indexed": false,
          "internalType": "uint256",
          "name": "score",
          "type": "uint256"
        }
      ],
      "name": "CreditScoreAssigned",
      "type": "event"
    },
    {
      "anonymous": false,
      "inputs": [
        {
          "indexed": true,
          "internalType": "address",
          "name": "oldContract",
          "type": "address"
        },
        {
          "indexed": true,
          "internalType": "address",
          "name": "newContract",
          "type": "address"
        }
      ],
      "name": "CreditScoreContractUpdated",
      "type": "event"
    },
    {
      "anonymous": false,
      "inputs": [
        {
          "indexed": true,
          "internalType": "address",
          "name": "user",
          "type": "address"
        },
        {
          "indexed": false,
          "internalType": "string",
          "name": "source",
          "type": "string"
        },
        {
          "indexed": false,
          "internalType": "uint256",
          "name": "score",
          "type": "uint256"
        },
        {
          "indexed": false,
          "internalType": "uint256",
          "name": "convertedScore",
          "type": "uint256"
        }
      ],
      "name": "CreditScoreSourceUsed",
      "type": "event"
    },
    {
      "anonymous": false,
      "inputs": [
        {
          "indexed": true,
          "internalType": "address",
          "name": "oldSystem",
          "type": "address"
        },
        {
          "indexed": true,
          "internalType": "address",
          "name": "newSystem",
          "type": "address"
        }
      ],
      "name": "CreditSystemUpdated",
      "type": "event"
    },
    {
      "anonymous": false,
      "inputs": [
        {
          "indexed": false,
          "internalType": "bool",
          "name": "isPaused",
          "type": "bool"
        }
      ],
      "name": "EmergencyPaused",
      "type": "event"
    },
    {
      "anonymous": false,
      "inputs": [
        {
          "indexed": true,
          "internalType": "address",
          "name": "user",
          "type": "address"
        },
        {
          "indexed": false,
          "internalType": "uint256",
          "name": "amount",
          "type": "uint256"
        },
        {
          "indexed": false,
          "internalType": "string",
          "name": "feeType",
          "type": "string"
        },
        {
          "indexed": false,
          "internalType": "uint256",
          "name": "tier",
          "type": "uint256"
        }
      ],
      "name": "FeeCollected",
      "type": "event"
    },
    {
      "anonymous": false,
      "inputs": [
        {
          "indexed": true,
          "internalType": "address",
          "name": "user",
          "type": "address"
        },
        {
          "indexed": false,
          "internalType": "uint256",
          "name": "newDeadline",
          "type": "uint256"
        }
      ],
      "name": "GracePeriodExtended",
      "type": "event"
    },
    {
      "anonymous": false,
      "inputs": [
        {
          "indexed": false,
          "internalType": "uint8",
          "name": "version",
          "type": "uint8"
        }
      ],
      "name": "Initialized",
      "type": "event"
    },
    {
      "anonymous": false,
      "inputs": [
        {
          "indexed": true,
          "internalType": "address",
          "name": "user",
          "type": "address"
        },
        {
          "indexed": true,
          "internalType": "address",
          "name": "liquidator",
          "type": "address"
        },
        {
          "indexed": false,
          "internalType": "uint256",
          "name": "amount",
          "type": "uint256"
        }
      ],
      "name": "LiquidationExecuted",
      "type": "event"
    },
    {
      "anonymous": false,
      "inputs": [
        {
          "indexed": true,
          "internalType": "address",
          "name": "user",
          "type": "address"
        }
      ],
      "name": "LiquidationStarted",
      "type": "event"
    },
    {
      "anonymous": false,
      "inputs": [
        {
          "indexed": true,
          "internalType": "address",
          "name": "applicant",
          "type": "address"
        },
        {
          "indexed": false,
          "internalType": "uint256",
          "name": "amount",
          "type": "uint256"
        },
        {
          "indexed": false,
          "internalType": "uint256",
          "name": "collateral",
          "type": "uint256"
        }
      ],
      "name": "LoanApplied",
      "type": "event"
    },
    {
      "anonymous": false,
      "inputs": [
        {
          "indexed": true,
          "internalType": "address",
          "name": "applicant",
          "type": "address"
        },
        {
          "indexed": false,
          "internalType": "uint256",
          "name": "amount",
          "type": "uint256"
        }
      ],
      "name": "LoanApproved",
      "type": "event"
    },
    {
      "anonymous": false,
      "inputs": [
        {
          "indexed": true,
          "internalType": "address",
          "name": "borrower",
          "type": "address"
        },
        {
          "indexed": false,
          "internalType": "uint256",
          "name": "amount",
          "type": "uint256"
        },
        {
          "indexed": false,
          "internalType": "uint256",
          "name": "rate",
          "type": "uint256"
        }
      ],
      "name": "LoanDisbursed",
      "type": "event"
    },
    {
      "anonymous": false,
      "inputs": [
        {
          "indexed": true,
          "internalType": "address",
          "name": "borrower",
          "type": "address"
        }
      ],
      "name": "LoanFullyRepaid",
      "type": "event"
    },
    {
      "anonymous": false,
      "inputs": [
        {
          "indexed": true,
          "internalType": "address",
          "name": "borrower",
          "type": "address"
        },
        {
          "indexed": false,
          "internalType": "uint256",
          "name": "amount",
          "type": "uint256"
        },
        {
          "indexed": false,
          "internalType": "uint256",
          "name": "remaining",
          "type": "uint256"
        }
      ],
      "name": "LoanInstallmentPaid",
      "type": "event"
    },
    {
      "anonymous": false,
      "inputs": [
        {
          "indexed": true,
          "internalType": "address",
          "name": "borrower",
          "type": "address"
        },
        {
          "indexed": false,
          "internalType": "uint256",
          "name": "penalty",
          "type": "uint256"
        }
      ],
      "name": "LoanLatePenaltyApplied",
      "type": "event"
    },
    {
      "anonymous": false,
      "inputs": [
        {
          "indexed": true,
          "internalType": "address",
          "name": "applicant",
          "type": "address"
        },
        {
          "indexed": false,
          "internalType": "uint256",
          "name": "amount",
          "type": "uint256"
        }
      ],
      "name": "LoanRejected",
      "type": "event"
    },
    {
      "anonymous": false,
      "inputs": [
        {
          "indexed": true,
          "internalType": "address",
          "name": "user",
          "type": "address"
        },
        {
          "indexed": true,
          "internalType": "address",
          "name": "liquidator",
          "type": "address"
        },
        {
          "indexed": true,
          "internalType": "address",
          "name": "collateralToken",
          "type": "address"
        },
        {
          "indexed": false,
          "internalType": "uint256",
          "name": "collateralSeized",
          "type": "uint256"
        },
        {
          "indexed": false,
          "internalType": "uint256",
          "name": "debtRepaid",
          "type": "uint256"
        }
      ],
      "name": "PartialLiquidation",
      "type": "event"
    },
    {
      "anonymous": false,
      "inputs": [
        {
          "indexed": false,
          "internalType": "bool",
          "name": "useRISC0",
          "type": "bool"
        }
      ],
      "name": "RISC0ScoreToggled",
      "type": "event"
    },
    {
      "anonymous": false,
      "inputs": [
        {
          "indexed": true,
          "internalType": "address",
          "name": "user",
          "type": "address"
        },
        {
          "indexed": false,
          "internalType": "uint256",
          "name": "amount",
          "type": "uint256"
        }
      ],
      "name": "Repaid",
      "type": "event"
    },
    {
      "anonymous": false,
      "inputs": [
        {
          "indexed": true,
          "internalType": "address",
          "name": "newReserve",
          "type": "address"
        }
      ],
      "name": "ReserveAddressUpdated",
      "type": "event"
    },
    {
      "anonymous": false,
      "inputs": [
        {
          "indexed": true,
          "internalType": "bytes32",
          "name": "role",
          "type": "bytes32"
        },
        {
          "indexed": true,
          "internalType": "bytes32",
          "name": "previousAdminRole",
          "type": "bytes32"
        },
        {
          "indexed": true,
          "internalType": "bytes32",
          "name": "newAdminRole",
          "type": "bytes32"
        }
      ],
      "name": "RoleAdminChanged",
      "type": "event"
    },
    {
      "anonymous": false,
      "inputs": [
        {
          "indexed": true,
          "internalType": "bytes32",
          "name": "role",
          "type": "bytes32"
        },
        {
          "indexed": true,
          "internalType": "address",
          "name": "account",
          "type": "address"
        },
        {
          "indexed": true,
          "internalType": "address",
          "name": "sender",
          "type": "address"
        }
      ],
      "name": "RoleGranted",
      "type": "event"
    },
    {
      "anonymous": false,
      "inputs": [
        {
          "indexed": true,
          "internalType": "bytes32",
          "name": "role",
          "type": "bytes32"
        },
        {
          "indexed": true,
          "internalType": "address",
          "name": "account",
          "type": "address"
        },
        {
          "indexed": true,
          "internalType": "address",
          "name": "sender",
          "type": "address"
        }
      ],
      "name": "RoleRevoked",
      "type": "event"
    },
    {
      "anonymous": false,
      "inputs": [
        {
          "indexed": true,
          "internalType": "address",
          "name": "token",
          "type": "address"
        },
        {
          "indexed": false,
          "internalType": "uint256",
          "name": "updatedAt",
          "type": "uint256"
        },
        {
          "indexed": false,
          "internalType": "uint256",
          "name": "currentTime",
          "type": "uint256"
        }
      ],
      "name": "StaleOracleTriggered",
      "type": "event"
    },
    {
      "anonymous": false,
      "inputs": [
        {
          "indexed": true,
          "internalType": "uint256",
          "name": "tier",
          "type": "uint256"
        },
        {
          "indexed": false,
          "internalType": "uint256",
          "name": "originationFee",
          "type": "uint256"
        },
        {
          "indexed": false,
          "internalType": "uint256",
          "name": "lateFeeAPR",
          "type": "uint256"
        }
      ],
      "name": "TierFeeUpdated",
      "type": "event"
    },
    {
      "anonymous": false,
      "inputs": [
        {
          "indexed": true,
          "internalType": "address",
          "name": "user",
          "type": "address"
        },
        {
          "indexed": false,
          "internalType": "string",
          "name": "message",
          "type": "string"
        }
      ],
      "name": "UserError",
      "type": "event"
    },
    {
      "anonymous": false,
      "inputs": [
        {
          "indexed": false,
          "internalType": "bool",
          "name": "required",
          "type": "bool"
        }
      ],
      "name": "ZKProofRequirementToggled",
      "type": "event"
    },
    {
      "anonymous": false,
      "inputs": [
        {
          "indexed": true,
          "internalType": "address",
          "name": "user",
          "type": "address"
        },
        {
          "indexed": false,
          "internalType": "string",
          "name": "reason",
          "type": "string"
        }
      ],
      "name": "ZKProofValidationFailed",
      "type": "event"
    },
    {
      "inputs": [],
      "name": "ALLOW_COLLATERAL_PERMISSION",
      "outputs": [
        {
          "internalType": "bytes32",
          "name": "",
          "type": "bytes32"
        }
      ],
      "stateMutability": "view",
      "type": "function"
    },
    {
      "inputs": [],
      "name": "DEFAULT_ADMIN_ROLE",
      "outputs": [
        {
          "internalType": "bytes32",
          "name": "",
          "type": "bytes32"
        }
      ],
      "stateMutability": "view",
      "type": "function"
    },
    {
      "inputs": [],
      "name": "DEFAULT_LIQUIDATION_THRESHOLD",
      "outputs": [
        {
          "internalType": "uint256",
          "name": "",
          "type": "uint256"
        }
      ],
      "stateMutability": "view",
      "type": "function"
    },
    {
      "inputs": [],
      "name": "DEFAULT_STALENESS_STABLE",
      "outputs": [
        {
          "internalType": "uint256",
          "name": "",
          "type": "uint256"
        }
      ],
      "stateMutability": "view",
      "type": "function"
    },
    {
      "inputs": [],
      "name": "DEFAULT_STALENESS_VOLATILE",
      "outputs": [
        {
          "internalType": "uint256",
          "name": "",
          "type": "uint256"
        }
      ],
      "stateMutability": "view",
      "type": "function"
    },
    {
      "inputs": [],
      "name": "GRACE_PERIOD",
      "outputs": [
        {
          "internalType": "uint256",
          "name": "",
          "type": "uint256"
        }
      ],
      "stateMutability": "view",
      "type": "function"
    },
    {
      "inputs": [],
      "name": "LIQUIDATION_PENALTY",
      "outputs": [
        {
          "internalType": "uint256",
          "name": "",
          "type": "uint256"
        }
      ],
      "stateMutability": "view",
      "type": "function"
    },
    {
      "inputs": [],
      "name": "SAFETY_BUFFER",
      "outputs": [
        {
          "internalType": "uint256",
          "name": "",
          "type": "uint256"
        }
      ],
      "stateMutability": "view",
      "type": "function"
    },
    {
      "inputs": [],
      "name": "SCORE_EXPIRY_PERIOD",
      "outputs": [
        {
          "internalType": "uint256",
          "name": "",
          "type": "uint256"
        }
      ],
      "stateMutability": "view",
      "type": "function"
    },
    {
      "inputs": [],
      "name": "SET_ADMIN_PERMISSION",
      "outputs": [
        {
          "internalType": "bytes32",
          "name": "",
          "type": "bytes32"
        }
      ],
      "stateMutability": "view",
      "type": "function"
    },
    {
      "inputs": [],
      "name": "SET_CREDIT_SCORE_PERMISSION",
      "outputs": [
        {
          "internalType": "bytes32",
          "name": "",
          "type": "bytes32"
        }
      ],
      "stateMutability": "view",
      "type": "function"
    },
    {
      "inputs": [],
      "name": "SET_LENDING_MANAGER_PERMISSION",
      "outputs": [
        {
          "internalType": "bytes32",
          "name": "",
          "type": "bytes32"
        }
      ],
      "stateMutability": "view",
      "type": "function"
    },
    {
      "inputs": [],
      "name": "SET_MAX_PRICE_AGE_PERMISSION",
      "outputs": [
        {
          "internalType": "bytes32",
          "name": "",
          "type": "bytes32"
        }
      ],
      "stateMutability": "view",
      "type": "function"
    },
    {
      "inputs": [],
      "name": "SET_MIN_PARTIAL_LIQUIDATION_AMOUNT_PERMISSION",
      "outputs": [
        {
          "internalType": "bytes32",
          "name": "",
          "type": "bytes32"
        }
      ],
      "stateMutability": "view",
      "type": "function"
    },
    {
      "inputs": [],
      "name": "SET_PRICE_FEED_PERMISSION",
      "outputs": [
        {
          "internalType": "bytes32",
          "name": "",
          "type": "bytes32"
        }
      ],
      "stateMutability": "view",
      "type": "function"
    },
    {
      "inputs": [],
      "name": "SET_RESERVE_ADDRESS_PERMISSION",
      "outputs": [
        {
          "internalType": "bytes32",
          "name": "",
          "type": "bytes32"
        }
      ],
      "stateMutability": "view",
      "type": "function"
    },
    {
      "inputs": [],
      "name": "SET_TIER_FEE_PERMISSION",
      "outputs": [
        {
          "internalType": "bytes32",
          "name": "",
          "type": "bytes32"
        }
      ],
      "stateMutability": "view",
      "type": "function"
    },
    {
      "inputs": [],
      "name": "TOGGLE_PAUSE_PERMISSION",
      "outputs": [
        {
          "internalType": "bytes32",
          "name": "",
          "type": "bytes32"
        }
      ],
      "stateMutability": "view",
      "type": "function"
    },
    {
      "inputs": [],
      "name": "UPDATE_BORROW_TIER_PERMISSION",
      "outputs": [
        {
          "internalType": "bytes32",
          "name": "",
          "type": "bytes32"
        }
      ],
      "stateMutability": "view",
      "type": "function"
    },
    {
      "inputs": [],
      "name": "UPKEEP_COOLDOWN",
      "outputs": [
        {
          "internalType": "uint256",
          "name": "",
          "type": "uint256"
        }
      ],
      "stateMutability": "view",
      "type": "function"
    },
    {
      "inputs": [
        {
          "internalType": "uint256",
          "name": "amount",
          "type": "uint256"
        },
        {
          "internalType": "bytes32",
          "name": "nullifier",
          "type": "bytes32"
        }
      ],
      "name": "borrow",
      "outputs": [],
      "stateMutability": "payable",
      "type": "function"
    },
    {
      "inputs": [
        {
          "internalType": "uint256",
          "name": "",
          "type": "uint256"
        }
      ],
      "name": "borrowTierConfigs",
      "outputs": [
        {
          "internalType": "uint256",
          "name": "minScore",
          "type": "uint256"
        },
        {
          "internalType": "uint256",
          "name": "maxScore",
          "type": "uint256"
        },
        {
          "internalType": "uint256",
          "name": "collateralRatio",
          "type": "uint256"
        },
        {
          "internalType": "int256",
          "name": "interestRateModifier",
          "type": "int256"
        },
        {
          "internalType": "uint256",
          "name": "maxLoanAmount",
          "type": "uint256"
        }
      ],
      "stateMutability": "view",
      "type": "function"
    },
    {
      "inputs": [
        {
          "internalType": "address",
          "name": "",
          "type": "address"
        }
      ],
      "name": "borrowTimestamp",
      "outputs": [
        {
          "internalType": "uint256",
          "name": "",
          "type": "uint256"
        }
      ],
      "stateMutability": "view",
      "type": "function"
    },
    {
      "inputs": [
        {
          "internalType": "enum LiquidityPool.RiskTier",
          "name": "",
          "type": "uint8"
        }
      ],
      "name": "borrowedAmountByRiskTier",
      "outputs": [
        {
          "internalType": "uint256",
          "name": "",
          "type": "uint256"
        }
      ],
      "stateMutability": "view",
      "type": "function"
    },
    {
      "inputs": [
        {
          "internalType": "address",
          "name": "user",
          "type": "address"
        }
      ],
      "name": "canLend",
      "outputs": [
        {
          "internalType": "bool",
          "name": "",
          "type": "bool"
        }
      ],
      "stateMutability": "view",
      "type": "function"
    },
    {
      "inputs": [],
      "name": "checkCircuitBreakers",
      "outputs": [],
      "stateMutability": "nonpayable",
      "type": "function"
    },
    {
      "inputs": [
        {
          "internalType": "address",
          "name": "user",
          "type": "address"
        }
      ],
      "name": "checkCollateralization",
      "outputs": [
        {
          "internalType": "bool",
          "name": "isHealthy",
          "type": "bool"
        },
        {
          "internalType": "uint256",
          "name": "ratio",
          "type": "uint256"
        }
      ],
      "stateMutability": "view",
      "type": "function"
    },
    {
      "inputs": [
        {
          "internalType": "bytes",
          "name": "",
          "type": "bytes"
        }
      ],
      "name": "checkUpkeep",
      "outputs": [
        {
          "internalType": "bool",
          "name": "upkeepNeeded",
          "type": "bool"
        },
        {
          "internalType": "bytes",
          "name": "performData",
          "type": "bytes"
        }
      ],
      "stateMutability": "view",
      "type": "function"
    },
    {
      "inputs": [
        {
          "internalType": "address",
          "name": "token",
          "type": "address"
        },
        {
          "internalType": "address",
          "name": "user",
          "type": "address"
        },
        {
          "internalType": "address",
          "name": "to",
          "type": "address"
        },
        {
          "internalType": "uint256",
          "name": "amount",
          "type": "uint256"
        }
      ],
      "name": "clearCollateral",
      "outputs": [],
      "stateMutability": "nonpayable",
      "type": "function"
    },
    {
      "inputs": [
        {
          "internalType": "address",
          "name": "user",
          "type": "address"
        },
        {
          "internalType": "uint256",
          "name": "amount",
          "type": "uint256"
        }
      ],
      "name": "clearDebt",
      "outputs": [],
      "stateMutability": "nonpayable",
      "type": "function"
    },
    {
      "inputs": [
        {
          "internalType": "address",
          "name": "",
          "type": "address"
        },
        {
          "internalType": "address",
          "name": "",
          "type": "address"
        }
      ],
      "name": "collateralBalance",
      "outputs": [
        {
          "internalType": "uint256",
          "name": "",
          "type": "uint256"
        }
      ],
      "stateMutability": "view",
      "type": "function"
    },
    {
      "inputs": [
        {
          "internalType": "uint256",
          "name": "",
          "type": "uint256"
        }
      ],
      "name": "collateralTokenList",
      "outputs": [
        {
          "internalType": "address",
          "name": "",
          "type": "address"
        }
      ],
      "stateMutability": "view",
      "type": "function"
    },
    {
      "inputs": [
        {
          "internalType": "uint64",
          "name": "ficoScore",
          "type": "uint64"
        }
      ],
      "name": "convertFICOToContractScore",
      "outputs": [
        {
          "internalType": "uint256",
          "name": "",
          "type": "uint256"
        }
      ],
      "stateMutability": "pure",
      "type": "function"
    },
    {
      "inputs": [
        {
          "internalType": "address",
          "name": "",
          "type": "address"
        }
      ],
      "name": "creditScore",
      "outputs": [
        {
          "internalType": "uint256",
          "name": "",
          "type": "uint256"
        }
      ],
      "stateMutability": "view",
      "type": "function"
    },
    {
      "inputs": [],
      "name": "creditScoreContract",
      "outputs": [
        {
          "internalType": "contract ICreditScore",
          "name": "",
          "type": "address"
        }
      ],
      "stateMutability": "view",
      "type": "function"
    },
    {
      "inputs": [],
      "name": "creditSystem",
      "outputs": [
        {
          "internalType": "contract IntegratedCreditSystem",
          "name": "",
          "type": "address"
        }
      ],
      "stateMutability": "view",
      "type": "function"
    },
    {
      "inputs": [
        {
          "internalType": "address",
          "name": "token",
          "type": "address"
        },
        {
          "internalType": "uint256",
          "name": "amount",
          "type": "uint256"
        }
      ],
      "name": "depositCollateral",
      "outputs": [],
      "stateMutability": "nonpayable",
      "type": "function"
    },
    {
      "inputs": [],
      "name": "depositETHCollateral",
      "outputs": [],
      "stateMutability": "payable",
      "type": "function"
    },
    {
      "inputs": [
        {
          "internalType": "address",
          "name": "",
          "type": "address"
        }
      ],
      "name": "ethCollateralBalance",
      "outputs": [
        {
          "internalType": "uint256",
          "name": "",
          "type": "uint256"
        }
      ],
      "stateMutability": "view",
      "type": "function"
    },
    {
      "inputs": [
        {
          "internalType": "uint256",
          "name": "amount",
          "type": "uint256"
        },
        {
          "internalType": "address payable",
          "name": "to",
          "type": "address"
        }
      ],
      "name": "extract",
      "outputs": [],
      "stateMutability": "nonpayable",
      "type": "function"
    },
    {
      "inputs": [],
      "name": "getAdmin",
      "outputs": [
        {
          "internalType": "address",
          "name": "",
          "type": "address"
        }
      ],
      "stateMutability": "view",
      "type": "function"
    },
    {
      "inputs": [],
      "name": "getAllUsers",
      "outputs": [
        {
          "internalType": "address[]",
          "name": "",
          "type": "address[]"
        }
      ],
      "stateMutability": "view",
      "type": "function"
    },
    {
      "inputs": [],
      "name": "getAllowedCollateralTokens",
      "outputs": [
        {
          "internalType": "address[]",
          "name": "",
          "type": "address[]"
        }
      ],
      "stateMutability": "view",
      "type": "function"
    },
    {
      "inputs": [],
      "name": "getBalance",
      "outputs": [
        {
          "internalType": "uint256",
          "name": "",
          "type": "uint256"
        }
      ],
      "stateMutability": "view",
      "type": "function"
    },
    {
      "inputs": [
        {
          "internalType": "address",
          "name": "user",
          "type": "address"
        }
      ],
      "name": "getBorrowTerms",
      "outputs": [
        {
          "internalType": "uint256",
          "name": "collateralRatio",
          "type": "uint256"
        },
        {
          "internalType": "int256",
          "name": "interestRateModifier",
          "type": "int256"
        },
        {
          "internalType": "uint256",
          "name": "maxLoanAmount",
          "type": "uint256"
        }
      ],
      "stateMutability": "view",
      "type": "function"
    },
    {
      "inputs": [
        {
          "internalType": "address",
          "name": "user",
          "type": "address"
        }
      ],
      "name": "getBorrowerRate",
      "outputs": [
        {
          "internalType": "uint256",
          "name": "",
          "type": "uint256"
        }
      ],
      "stateMutability": "view",
      "type": "function"
    },
    {
      "inputs": [
        {
          "internalType": "address",
          "name": "user",
          "type": "address"
        },
        {
          "internalType": "address",
          "name": "token",
          "type": "address"
        }
      ],
      "name": "getCollateral",
      "outputs": [
        {
          "internalType": "uint256",
          "name": "",
          "type": "uint256"
        }
      ],
      "stateMutability": "view",
      "type": "function"
    },
    {
      "inputs": [
        {
          "internalType": "address",
          "name": "user",
          "type": "address"
        }
      ],
      "name": "getCreditScore",
      "outputs": [
        {
          "internalType": "uint256",
          "name": "",
          "type": "uint256"
        }
      ],
      "stateMutability": "view",
      "type": "function"
    },
    {
      "inputs": [
        {
          "internalType": "address",
          "name": "user",
          "type": "address"
        }
      ],
      "name": "getCreditScoreWithSource",
      "outputs": [
        {
          "internalType": "uint256",
          "name": "score",
          "type": "uint256"
        },
        {
          "internalType": "string",
          "name": "source",
          "type": "string"
        },
        {
          "internalType": "bool",
          "name": "isVerified",
          "type": "bool"
        }
      ],
      "stateMutability": "view",
      "type": "function"
    },
    {
      "inputs": [
        {
          "internalType": "address",
          "name": "user",
          "type": "address"
        }
      ],
      "name": "getETHCollateral",
      "outputs": [
        {
          "internalType": "uint256",
          "name": "",
          "type": "uint256"
        }
      ],
      "stateMutability": "view",
      "type": "function"
    },
    {
      "inputs": [],
      "name": "getETHPrice",
      "outputs": [
        {
          "internalType": "uint256",
          "name": "",
          "type": "uint256"
        }
      ],
      "stateMutability": "view",
      "type": "function"
    },
    {
      "inputs": [
        {
          "internalType": "address",
          "name": "user",
          "type": "address"
        }
      ],
      "name": "getLoan",
      "outputs": [
        {
          "components": [
            {
              "internalType": "uint256",
              "name": "principal",
              "type": "uint256"
            },
            {
              "internalType": "uint256",
              "name": "outstanding",
              "type": "uint256"
            },
            {
              "internalType": "uint256",
              "name": "interestRate",
              "type": "uint256"
            },
            {
              "internalType": "uint256",
              "name": "nextDueDate",
              "type": "uint256"
            },
            {
              "internalType": "uint256",
              "name": "installmentAmount",
              "type": "uint256"
            },
            {
              "internalType": "uint256",
              "name": "penaltyBps",
              "type": "uint256"
            },
            {
              "internalType": "bool",
              "name": "active",
              "type": "bool"
            }
          ],
          "internalType": "struct LiquidityPool.Loan",
          "name": "",
          "type": "tuple"
        }
      ],
      "stateMutability": "view",
      "type": "function"
    },
    {
      "inputs": [],
      "name": "getMinCollateralRatio",
      "outputs": [
        {
          "internalType": "uint256",
          "name": "",
          "type": "uint256"
        }
      ],
      "stateMutability": "pure",
      "type": "function"
    },
    {
      "inputs": [],
      "name": "getMyDebt",
      "outputs": [
        {
          "internalType": "uint256",
          "name": "",
          "type": "uint256"
        }
      ],
      "stateMutability": "view",
      "type": "function"
    },
    {
      "inputs": [
        {
          "internalType": "address",
          "name": "token",
          "type": "address"
        }
      ],
      "name": "getPriceFeed",
      "outputs": [
        {
          "internalType": "address",
          "name": "",
          "type": "address"
        }
      ],
      "stateMutability": "view",
      "type": "function"
    },
    {
      "inputs": [
        {
          "internalType": "address",
          "name": "user",
          "type": "address"
        }
      ],
      "name": "getRiskTier",
      "outputs": [
        {
          "internalType": "enum LiquidityPool.RiskTier",
          "name": "",
          "type": "uint8"
        }
      ],
      "stateMutability": "view",
      "type": "function"
    },
    {
      "inputs": [
        {
          "internalType": "bytes32",
          "name": "role",
          "type": "bytes32"
        }
      ],
      "name": "getRoleAdmin",
      "outputs": [
        {
          "internalType": "bytes32",
          "name": "",
          "type": "bytes32"
        }
      ],
      "stateMutability": "view",
      "type": "function"
    },
    {
      "inputs": [
        {
          "internalType": "address",
          "name": "token",
          "type": "address"
        }
      ],
      "name": "getTokenValue",
      "outputs": [
        {
          "internalType": "uint256",
          "name": "",
          "type": "uint256"
        }
      ],
      "stateMutability": "view",
      "type": "function"
    },
    {
      "inputs": [
        {
          "internalType": "address",
          "name": "user",
          "type": "address"
        }
      ],
      "name": "getTotalCollateralValue",
      "outputs": [
        {
          "internalType": "uint256",
          "name": "",
          "type": "uint256"
        }
      ],
      "stateMutability": "view",
      "type": "function"
    },
    {
      "inputs": [
        {
          "internalType": "address",
          "name": "user",
          "type": "address"
        }
      ],
      "name": "getZKVerificationStatus",
      "outputs": [
        {
          "internalType": "bool",
          "name": "hasTradFi",
          "type": "bool"
        },
        {
          "internalType": "bool",
          "name": "hasAccount",
          "type": "bool"
        },
        {
          "internalType": "bool",
          "name": "hasNesting",
          "type": "bool"
        },
        {
          "internalType": "uint256",
          "name": "finalScore",
          "type": "uint256"
        },
        {
          "internalType": "bool",
          "name": "isEligible",
          "type": "bool"
        }
      ],
      "stateMutability": "view",
      "type": "function"
    },
    {
      "inputs": [
        {
          "internalType": "bytes32",
          "name": "role",
          "type": "bytes32"
        },
        {
          "internalType": "address",
          "name": "account",
          "type": "address"
        }
      ],
      "name": "grantRole",
      "outputs": [],
      "stateMutability": "nonpayable",
      "type": "function"
    },
    {
      "inputs": [
        {
          "internalType": "bytes32",
          "name": "role",
          "type": "bytes32"
        },
        {
          "internalType": "address",
          "name": "account",
          "type": "address"
        }
      ],
      "name": "hasRole",
      "outputs": [
        {
          "internalType": "bool",
          "name": "",
          "type": "bool"
        }
      ],
      "stateMutability": "view",
      "type": "function"
    },
    {
      "inputs": [
        {
          "internalType": "address",
          "name": "user",
          "type": "address"
        }
      ],
      "name": "hasValidRISC0Score",
      "outputs": [
        {
          "internalType": "bool",
          "name": "hasValidScore",
          "type": "bool"
        },
        {
          "internalType": "uint256",
          "name": "score",
          "type": "uint256"
        },
        {
          "internalType": "uint256",
          "name": "timestamp",
          "type": "uint256"
        }
      ],
      "stateMutability": "view",
      "type": "function"
    },
    {
      "inputs": [
        {
          "internalType": "address",
          "name": "_timelock",
          "type": "address"
        },
        {
          "internalType": "address",
          "name": "_stablecoinManager",
          "type": "address"
        },
        {
          "internalType": "address",
          "name": "_lendingManager",
          "type": "address"
        },
        {
          "internalType": "address",
          "name": "_interestRateModel",
          "type": "address"
        },
        {
          "internalType": "address",
          "name": "_creditSystem",
          "type": "address"
        },
        {
          "internalType": "address",
          "name": "_nullifierRegistry",
          "type": "address"
        }
      ],
      "name": "initialize",
      "outputs": [],
      "stateMutability": "nonpayable",
      "type": "function"
    },
    {
      "inputs": [],
      "name": "interestRateModel",
      "outputs": [
        {
          "internalType": "contract InterestRateModel",
          "name": "",
          "type": "address"
        }
      ],
      "stateMutability": "view",
      "type": "function"
    },
    {
      "inputs": [
        {
          "internalType": "address",
          "name": "",
          "type": "address"
        }
      ],
      "name": "isAllowedCollateral",
      "outputs": [
        {
          "internalType": "bool",
          "name": "",
          "type": "bool"
        }
      ],
      "stateMutability": "view",
      "type": "function"
    },
    {
      "inputs": [
        {
          "internalType": "address",
          "name": "",
          "type": "address"
        }
      ],
      "name": "isKnownUser",
      "outputs": [
        {
          "internalType": "bool",
          "name": "",
          "type": "bool"
        }
      ],
      "stateMutability": "view",
      "type": "function"
    },
    {
      "inputs": [
        {
          "internalType": "address",
          "name": "",
          "type": "address"
        }
      ],
      "name": "isLiquidatable",
      "outputs": [
        {
          "internalType": "bool",
          "name": "",
          "type": "bool"
        }
      ],
      "stateMutability": "view",
      "type": "function"
    },
    {
      "inputs": [],
      "name": "isPaused",
      "outputs": [
        {
          "internalType": "bool",
          "name": "",
          "type": "bool"
        }
      ],
      "stateMutability": "view",
      "type": "function"
    },
    {
      "inputs": [],
      "name": "lastUpkeep",
      "outputs": [
        {
          "internalType": "uint256",
          "name": "",
          "type": "uint256"
        }
      ],
      "stateMutability": "view",
      "type": "function"
    },
    {
      "inputs": [],
      "name": "lendingManager",
      "outputs": [
        {
          "internalType": "contract LendingManager",
          "name": "",
          "type": "address"
        }
      ],
      "stateMutability": "view",
      "type": "function"
    },
    {
      "inputs": [
        {
          "internalType": "address",
          "name": "",
          "type": "address"
        }
      ],
      "name": "liquidationStartTime",
      "outputs": [
        {
          "internalType": "uint256",
          "name": "",
          "type": "uint256"
        }
      ],
      "stateMutability": "view",
      "type": "function"
    },
    {
      "inputs": [],
      "name": "liquidator",
      "outputs": [
        {
          "internalType": "address",
          "name": "",
          "type": "address"
        }
      ],
      "stateMutability": "view",
      "type": "function"
    },
    {
      "inputs": [
        {
          "internalType": "address",
          "name": "",
          "type": "address"
        }
      ],
      "name": "loans",
      "outputs": [
        {
          "internalType": "uint256",
          "name": "principal",
          "type": "uint256"
        },
        {
          "internalType": "uint256",
          "name": "outstanding",
          "type": "uint256"
        },
        {
          "internalType": "uint256",
          "name": "interestRate",
          "type": "uint256"
        },
        {
          "internalType": "uint256",
          "name": "nextDueDate",
          "type": "uint256"
        },
        {
          "internalType": "uint256",
          "name": "installmentAmount",
          "type": "uint256"
        },
        {
          "internalType": "uint256",
          "name": "penaltyBps",
          "type": "uint256"
        },
        {
          "internalType": "bool",
          "name": "active",
          "type": "bool"
        }
      ],
      "stateMutability": "view",
      "type": "function"
    },
    {
      "inputs": [],
      "name": "locked",
      "outputs": [
        {
          "internalType": "bool",
          "name": "",
          "type": "bool"
        }
      ],
      "stateMutability": "view",
      "type": "function"
    },
    {
      "inputs": [
        {
          "internalType": "address",
          "name": "",
          "type": "address"
        }
      ],
      "name": "maxPriceAge",
      "outputs": [
        {
          "internalType": "uint256",
          "name": "",
          "type": "uint256"
        }
      ],
      "stateMutability": "view",
      "type": "function"
    },
    {
      "inputs": [],
      "name": "minPartialLiquidationAmount",
      "outputs": [
        {
          "internalType": "uint256",
          "name": "",
          "type": "uint256"
        }
      ],
      "stateMutability": "view",
      "type": "function"
    },
    {
      "inputs": [],
      "name": "nullifierRegistry",
      "outputs": [
        {
          "internalType": "contract NullifierRegistry",
          "name": "",
          "type": "address"
        }
      ],
      "stateMutability": "view",
      "type": "function"
    },
    {
      "inputs": [],
      "name": "paused",
      "outputs": [
        {
          "internalType": "bool",
          "name": "",
          "type": "bool"
        }
      ],
      "stateMutability": "view",
      "type": "function"
    },
    {
      "inputs": [
        {
          "internalType": "bytes",
          "name": "performData",
          "type": "bytes"
        }
      ],
      "name": "performUpkeep",
      "outputs": [],
      "stateMutability": "nonpayable",
      "type": "function"
    },
    {
      "inputs": [
        {
          "internalType": "address",
          "name": "",
          "type": "address"
        }
      ],
      "name": "priceFeed",
      "outputs": [
        {
          "internalType": "address",
          "name": "",
          "type": "address"
        }
      ],
      "stateMutability": "view",
      "type": "function"
    },
    {
      "inputs": [
        {
          "internalType": "address",
          "name": "token",
          "type": "address"
        },
        {
          "internalType": "uint256",
          "name": "amount",
          "type": "uint256"
        }
      ],
      "name": "recoverFromLiquidation",
      "outputs": [],
      "stateMutability": "nonpayable",
      "type": "function"
    },
    {
      "inputs": [
        {
          "internalType": "bytes32",
          "name": "role",
          "type": "bytes32"
        },
        {
          "internalType": "address",
          "name": "account",
          "type": "address"
        }
      ],
      "name": "renounceRole",
      "outputs": [],
      "stateMutability": "nonpayable",
      "type": "function"
    },
    {
      "inputs": [],
      "name": "repay",
      "outputs": [],
      "stateMutability": "payable",
      "type": "function"
    },
    {
      "inputs": [],
      "name": "repayInstallment",
      "outputs": [],
      "stateMutability": "payable",
      "type": "function"
    },
    {
      "inputs": [],
      "name": "reserveAddress",
      "outputs": [
        {
          "internalType": "address",
          "name": "",
          "type": "address"
        }
      ],
      "stateMutability": "view",
      "type": "function"
    },
    {
      "inputs": [
        {
          "internalType": "bytes32",
          "name": "role",
          "type": "bytes32"
        },
        {
          "internalType": "address",
          "name": "account",
          "type": "address"
        }
      ],
      "name": "revokeRole",
      "outputs": [],
      "stateMutability": "nonpayable",
      "type": "function"
    },
    {
      "inputs": [
        {
          "internalType": "address",
          "name": "newAdmin",
          "type": "address"
        }
      ],
      "name": "setAdmin",
      "outputs": [],
      "stateMutability": "nonpayable",
      "type": "function"
    },
    {
      "inputs": [
        {
          "internalType": "address",
          "name": "token",
          "type": "address"
        },
        {
          "internalType": "bool",
          "name": "allowed",
          "type": "bool"
        }
      ],
      "name": "setAllowedCollateral",
      "outputs": [],
      "stateMutability": "nonpayable",
      "type": "function"
    },
    {
      "inputs": [
        {
          "internalType": "address",
          "name": "user",
          "type": "address"
        },
        {
          "internalType": "uint256",
          "name": "score",
          "type": "uint256"
        }
      ],
      "name": "setCreditScore",
      "outputs": [],
      "stateMutability": "nonpayable",
      "type": "function"
    },
    {
      "inputs": [
        {
          "internalType": "address",
          "name": "_creditScoreContract",
          "type": "address"
        }
      ],
      "name": "setCreditScoreContract",
      "outputs": [],
      "stateMutability": "nonpayable",
      "type": "function"
    },
    {
      "inputs": [
        {
          "internalType": "address",
          "name": "_creditSystem",
          "type": "address"
        }
      ],
      "name": "setCreditSystem",
      "outputs": [],
      "stateMutability": "nonpayable",
      "type": "function"
    },
    {
      "inputs": [
        {
          "internalType": "address",
          "name": "_lendingManager",
          "type": "address"
        }
      ],
      "name": "setLendingManager",
      "outputs": [],
      "stateMutability": "nonpayable",
      "type": "function"
    },
    {
      "inputs": [
        {
          "internalType": "address",
          "name": "_liquidator",
          "type": "address"
        }
      ],
      "name": "setLiquidator",
      "outputs": [],
      "stateMutability": "nonpayable",
      "type": "function"
    },
    {
      "inputs": [
        {
          "internalType": "address",
          "name": "token",
          "type": "address"
        },
        {
          "internalType": "uint256",
          "name": "age",
          "type": "uint256"
        }
      ],
      "name": "setMaxPriceAge",
      "outputs": [],
      "stateMutability": "nonpayable",
      "type": "function"
    },
    {
      "inputs": [
        {
          "internalType": "uint256",
          "name": "amount",
          "type": "uint256"
        }
      ],
      "name": "setMinPartialLiquidationAmount",
      "outputs": [],
      "stateMutability": "nonpayable",
      "type": "function"
    },
    {
      "inputs": [
        {
          "internalType": "address",
          "name": "token",
          "type": "address"
        },
        {
          "internalType": "address",
          "name": "feed",
          "type": "address"
        }
      ],
      "name": "setPriceFeed",
      "outputs": [],
      "stateMutability": "nonpayable",
      "type": "function"
    },
    {
      "inputs": [
        {
          "internalType": "address",
          "name": "_reserve",
          "type": "address"
        }
      ],
      "name": "setReserveAddress",
      "outputs": [],
      "stateMutability": "nonpayable",
      "type": "function"
    },
    {
      "inputs": [
        {
          "internalType": "uint256",
          "name": "tier",
          "type": "uint256"
        },
        {
          "internalType": "uint256",
          "name": "originationFee",
          "type": "uint256"
        },
        {
          "internalType": "uint256",
          "name": "lateFeeAPR",
          "type": "uint256"
        }
      ],
      "name": "setTierFee",
      "outputs": [],
      "stateMutability": "nonpayable",
      "type": "function"
    },
    {
      "inputs": [
        {
          "internalType": "address",
          "name": "_votingToken",
          "type": "address"
        }
      ],
      "name": "setVotingToken",
      "outputs": [],
      "stateMutability": "nonpayable",
      "type": "function"
    },
    {
      "inputs": [
        {
          "internalType": "bool",
          "name": "required",
          "type": "bool"
        }
      ],
      "name": "setZKProofRequirement",
      "outputs": [],
      "stateMutability": "nonpayable",
      "type": "function"
    },
    {
      "inputs": [],
      "name": "stablecoinManager",
      "outputs": [
        {
          "internalType": "contract StablecoinManager",
          "name": "",
          "type": "address"
        }
      ],
      "stateMutability": "view",
      "type": "function"
    },
    {
      "inputs": [
        {
          "internalType": "address",
          "name": "user",
          "type": "address"
        }
      ],
      "name": "startLiquidation",
      "outputs": [],
      "stateMutability": "nonpayable",
      "type": "function"
    },
    {
      "inputs": [
        {
          "internalType": "bytes4",
          "name": "interfaceId",
          "type": "bytes4"
        }
      ],
      "name": "supportsInterface",
      "outputs": [
        {
          "internalType": "bool",
          "name": "",
          "type": "bool"
        }
      ],
      "stateMutability": "view",
      "type": "function"
    },
    {
      "inputs": [
        {
          "internalType": "uint256",
          "name": "",
          "type": "uint256"
        }
      ],
      "name": "tierFees",
      "outputs": [
        {
          "internalType": "uint256",
          "name": "originationFee",
          "type": "uint256"
        },
        {
          "internalType": "uint256",
          "name": "lateFeeAPR",
          "type": "uint256"
        }
      ],
      "stateMutability": "view",
      "type": "function"
    },
    {
      "inputs": [],
      "name": "timelock",
      "outputs": [
        {
          "internalType": "address",
          "name": "",
          "type": "address"
        }
      ],
      "stateMutability": "view",
      "type": "function"
    },
    {
      "inputs": [],
      "name": "togglePause",
      "outputs": [],
      "stateMutability": "nonpayable",
      "type": "function"
    },
    {
      "inputs": [
        {
          "internalType": "bool",
          "name": "_useRISC0",
          "type": "bool"
        }
      ],
      "name": "toggleRISC0CreditScores",
      "outputs": [],
      "stateMutability": "nonpayable",
      "type": "function"
    },
    {
      "inputs": [],
      "name": "totalBorrowedAllTime",
      "outputs": [
        {
          "internalType": "uint256",
          "name": "",
          "type": "uint256"
        }
      ],
      "stateMutability": "view",
      "type": "function"
    },
    {
      "inputs": [],
      "name": "totalFunds",
      "outputs": [
        {
          "internalType": "uint256",
          "name": "",
          "type": "uint256"
        }
      ],
      "stateMutability": "view",
      "type": "function"
    },
    {
      "inputs": [],
      "name": "totalRepaidAllTime",
      "outputs": [
        {
          "internalType": "uint256",
          "name": "",
          "type": "uint256"
        }
      ],
      "stateMutability": "view",
      "type": "function"
    },
    {
      "inputs": [
        {
          "internalType": "uint256",
          "name": "tierIndex",
          "type": "uint256"
        },
        {
          "internalType": "uint256",
          "name": "minScore",
          "type": "uint256"
        },
        {
          "internalType": "uint256",
          "name": "maxScore",
          "type": "uint256"
        },
        {
          "internalType": "uint256",
          "name": "collateralRatio",
          "type": "uint256"
        },
        {
          "internalType": "int256",
          "name": "interestRateModifier",
          "type": "int256"
        },
        {
          "internalType": "uint256",
          "name": "maxLoanAmount",
          "type": "uint256"
        }
      ],
      "name": "updateBorrowTier",
      "outputs": [],
      "stateMutability": "nonpayable",
      "type": "function"
    },
    {
      "inputs": [
        {
          "internalType": "address",
          "name": "user",
          "type": "address"
        },
        {
          "internalType": "uint256",
          "name": "score",
          "type": "uint256"
        }
      ],
      "name": "updateCreditScoreFromZK",
      "outputs": [],
      "stateMutability": "nonpayable",
      "type": "function"
    },
    {
      "inputs": [],
      "name": "useRISC0CreditScores",
      "outputs": [
        {
          "internalType": "bool",
          "name": "",
          "type": "bool"
        }
      ],
      "stateMutability": "view",
      "type": "function"
    },
    {
      "inputs": [
        {
          "internalType": "address",
          "name": "",
          "type": "address"
        }
      ],
      "name": "userDebt",
      "outputs": [
        {
          "internalType": "uint256",
          "name": "",
          "type": "uint256"
        }
      ],
      "stateMutability": "view",
      "type": "function"
    },
    {
      "inputs": [
        {
          "internalType": "uint256",
          "name": "",
          "type": "uint256"
        }
      ],
      "name": "users",
      "outputs": [
        {
          "internalType": "address",
          "name": "",
          "type": "address"
        }
      ],
      "stateMutability": "view",
      "type": "function"
    },
    {
      "inputs": [],
      "name": "votingToken",
      "outputs": [
        {
          "internalType": "contract VotingToken",
          "name": "",
          "type": "address"
        }
      ],
      "stateMutability": "view",
      "type": "function"
    },
    {
      "inputs": [
        {
          "internalType": "address",
          "name": "token",
          "type": "address"
        },
        {
          "internalType": "uint256",
          "name": "amount",
          "type": "uint256"
        }
      ],
      "name": "withdrawCollateral",
      "outputs": [],
      "stateMutability": "nonpayable",
      "type": "function"
    },
    {
      "inputs": [
        {
          "internalType": "uint256",
          "name": "amount",
          "type": "uint256"
        }
      ],
      "name": "withdrawETHCollateral",
      "outputs": [],
      "stateMutability": "nonpayable",
      "type": "function"
    },
    {
      "inputs": [
        {
          "internalType": "uint256",
          "name": "amount",
          "type": "uint256"
        }
      ],
      "name": "withdrawForLendingManager",
      "outputs": [],
      "stateMutability": "nonpayable",
      "type": "function"
    },
    {
      "inputs": [
        {
          "internalType": "address",
          "name": "token",
          "type": "address"
        },
        {
          "internalType": "uint256",
          "name": "amount",
          "type": "uint256"
        }
      ],
      "name": "withdrawPartialCollateral",
      "outputs": [],
      "stateMutability": "nonpayable",
      "type": "function"
    },
    {
      "inputs": [],
      "name": "zkProofRequired",
      "outputs": [
        {
          "internalType": "bool",
          "name": "",
          "type": "bool"
        }
      ],
      "stateMutability": "view",
      "type": "function"
    },
    {
      "stateMutability": "payable",
      "type": "receive"
    }
  ],
  "bytecode": "0x60808060405234610017576164c690816200001c8239f35b5f80fdfe608060409080825260049081361015610085575b50361561001e575f80fd5b816020608493519262461bcd60e51b845283015260248201527f557365206465706f736974455448436f6c6c61746572616c28292066756e637460448201527f696f6e20746f206465706f7369742045544820617320636f6c6c61746572616c6064820152fd5b5f905f3560e01c90816301c76f81146147825750806301ffc9a71461472e57806303a42b6f14614706578063042e02cf146146ca578063080d9c2b1461458b5780630b044c791461456f5780630c43db0d146145385780630ef7fb671461451d5780630f61b810146144a557806312065fe01461448b57806314673d31146143d75780631bfe42611461439d5780631fd48b9a1461436457806320dfcae1146140b157806323fe5a3314614099578063248a9ca31461406e5780632a7beafe1461403e5780632f2ff15d14613f9b57806330332f9f14613f2257806333481fc914613e37578063350c35e914613ba8578063357619a914613b6e57806335f6798114613b4257806336568abe14613aaf578063365b98b214613a8557806338053ef314613a4e5780633d7c5d3e14613a30578063402d8883146138015780634046ebae146137d4578063418eea3114613799578063450a375a146137735780634585e33b146135b9578063488683cd1461357e5780634c8f35ab14611f8b5780634c95da66146135345780635141df41146134fa57806352226ef0146134af57806355f4d9e21461334d57806359705bb31461332f5780635b66e7fc146133125780635b6cca80146132c15780635c44f10d146132a55780635c975abb146120bb5780636579b73e1461326d57806368272ecc146131f257806369ff0a0d146131cb5780636c648fc4146131a55780636e04ff0d14612fcc5780636e9960c3146118bf578063704b6c0214612f3957806370ed11bc14612edb57806372ed9f7b14612d585780637346f48614612d1a57806373b4086b14612c9d57806376e1128614612c1a57806378974cbb14612b865780637a8ce68b14612b4b578063802937ac14612b2c57806383475f0c14612af157806386d785e614612aa45780638e6b53bc14612a7257806391d1485414612a2d5780639490a51e146129ef578063962a0da5146129b4578063968ed6001461299557806397ed81cf146128805780639ac77e1b1461280a5780639b8621d5146127ee5780639e3b77af146127c5578063a217fddf146127aa578063a36e4ad614612528578063a4a070bd1461247d578063a5d5db0c1461225e578063a607a8d914612241578063a6f48e5d146121f5578063a75b24c714612134578063a89ef5ca1461210b578063b0340123146120e2578063b187bd26146120bb578063b3075fb714612088578063b3a5a0a214612046578063b69e5c771461200e578063b870676c14611fe5578063b8cdf56114611fc6578063bc3d5a3e14611fa7578063c129d50414611f8b578063c1a287e214611f6d578063c23c69d514611f35578063c39537e114611efa578063c4ae316814611e75578063c869d0ed14611dd1578063c8c5a3a514611d99578063c941f32114611d70578063cc2a9a5b14611a39578063cf17622514611a10578063cf309012146119ec578063d1f151c114611920578063d29255f9146118e8578063d33219b4146118bf578063d3dd2bdf1461189e578063d547741f14611863578063ddac7f1b146117da578063e19fb8f5146116c9578063e1c50100146115be578063e1f7c2c914611527578063e2842d7914611496578063e2d7462814611449578063e6ae35761461140e578063e7602b9d146113c1578063e84bae451461138b578063e884cf2314611364578063e9ffb29114611329578063eb8d6551146112ee578063ebdcc164146112bf578063ec9ab5991461096a578063f1c5d6c21461093d578063f3fdb15a14610914578063f79ed94b146108eb578063f7e590ee146108b3578063fbe7b15b14610754578063feb50e52146106cc5763ffd4aedb03610013579190346106c85760803660031901126106c857610674916105ea6147e2565b6105f26147f8565b926105fb61480e565b90606435918760018060a01b0380956106198260a65416331461537c565b169283825260209788966097885288842091165f528652865f2061063e868254614af0565b9055865163a9059cbb60e01b81526001600160a01b03909316908301908152602081019490945290968793849291839160400190565b03925af19081156106bf5750610688578280f35b81813d83116106b8575b61069c8183614a60565b810103126106b4576106ad90614a81565b505f808280f35b5080fd5b503d610692565b513d85823e3d90fd5b8280fd5b5091346106c857806003193601126106c8578135916024356001600160a01b0381811693918490036107505760aa541633036107435783471061072657846107238180808089895af161071d615ba0565b50615bcf565b80f35b5162461bcd60e51b81529150819061073f908201614e90565b0390fd5b51630925c89960e31b8152fd5b8580fd5b5090346106b4576020806003193601126106c8578135913384526098825282858520541061087257610787831515615589565b338452609d825261079e60ff8686205416156155a9565b6107ca670de0b6b3a76400006107bb6107b5615604565b86614b1b565b046107c533615278565b614af0565b338552609b83528585205480158015610825575b8680875f80516020616451833981519152888c33855260988252808520610806858254614af0565b905561081b8580808088335af161071d615ba0565b519283523392a380f35b60828202918204608214171561085f576064900411610846578080806107de565b845162461bcd60e51b815290819061073f908201614ef7565b634e487b7160e01b865260118352602486fd5b60649185519162461bcd60e51b8352820152601860248201527f496e73756666696369656e74204554482062616c616e636500000000000000006044820152fd5b5082346106b45760203660031901126106b45760209181906001600160a01b036108db6147e2565b168152609a845220549051908152f35b5082346106b457816003193601126106b45760b35490516001600160a01b039091168152602090f35b5082346106b457816003193601126106b45760a75490516001600160a01b039091168152602090f35b5082346106b45760203660031901126106b45760209061096361095e6147e2565b615b1f565b9051908152f35b5082806003193601126106b4578235602491823560a4549361099260ff8660081c1615614aaf565b61099f60ff861615614fb9565b600160ff198096161760a455338652602090609b82528387205461127e5760a95484516308b71ed360e21b8152808a018590526001600160a01b039182169991929190848184818e5afa908115611209578a91611249575b506112135785516345d92d7760e01b81523382820152848184818e5afa908115611209578a916111d4575b501561119c5789899a3b1561118e578990818851809263305ccc3960e01b8252898683015233878301528160449e8f925af180156111925761117a575b5050610a6a33616087565b865163a6f48e5d60e01b815233838201528b818581305afa8015611170578c918d916110b9575b507f0dda2aa47a3db5dda18a4f06501647c631e2c43e7e7876dbeaf21023b8266fb59192610ac98a519260608452606084019061491b565b9388830152898201528033930390a2610ae13361504b565b91600583101580610e36578284146110815760a35460011c891161102757610b0833614f4a565b9150508911610fd857610b1a33614f4a565b5050610b2533615278565b90606482029180830460641490151715610dee57610b43908b614b1b565b11610f89578b908682968060b35416978c8c8a610f60575b5081610b6691614af0565b9881158015610ec9575b50505060a354610b8560af5460b05490614af0565b81610e85575b505060a7541692848b5180958193634fd41dad60e11b8352898301525afa918215610e7b578d92610e48575b50610e36576003610bc785614940565b500154818d821215610e005750610bdd9061536c565b9061271091820390828211610dee5790610bf691614b1b565b04995b600c8910610d9f575062278d00420190814211610d8e57508a93610cbd8594610ca68a60068f898f99819a829a8f94875197610c3489614a17565b83895286890190848252808a0192835260608a01938452600c60808b019504855260a08a01966101f4885260b560c08c019960018b52338352522098518955516001890155516002880155516003870155519085015551600584015551151591019060ff801983541691151516179055565b609b88528a8a852055609c8852428a8520556149bd565b610cc88a8254614a8e565b9055610cd68960af54614a8e565b60af55818115610d85575b3390f115610d7b577f6a0741a9322a7aded3431ce697f586d89a196820acf4bd0430035d7b3dab74c0939495835190868252828201527f5660f932172e1664b98577a703dd9484d374b28e3bf8c87b345bee97af612412843392a282518581527fac59582e5396aca512fa873a2047e7f4c80f8f55d4a06cb34a78a0187f62719f823392a282519485528401523392a260a4541660a45580f35b82513d88823e3d90fd5b506108fc610ce1565b634e487b7160e01b8c52601183528bfd5b6084935060267f4c6f616e20616d6f756e7420746f6f20736d616c6c20666f7220616d6f72746992878a519562461bcd60e51b8752860152840152820152653d30ba34b7b760d11b6064820152fd5b634e487b7160e01b8e5260118552838efd5b9b918d8213610e11575b5050610bf9565b90919b5061271091820190818311610dee5790610e2d91614b1b565b04998c80610e0a565b50634e487b7160e01b8b52602182528afd5b9091508681813d8311610e74575b610e608183614a60565b81010312610e705751908d610bb7565b5f80fd5b503d610e56565b89513d8f823e3d90fd5b9194509150670de0b6b3a764000090818102918183041490151715610eb7578891610eaf91614afd565b928f80610b8b565b634e487b7160e01b8f5260118652848ffd5b8287949697939550839283928390610f57575bf115610e7b5782610f45578d929188918b51908152606083820152600b60608201526a37b934b3b4b730ba34b7b760a91b6080820152878c8201527f66aecc579aa1ef463c0ed1547c2cb6163370e6311a60cba815252acbb398f21360a03392a28f8080610b70565b634e487b7160e01b8e5260218552838efd5b506108fc610edc565b94509050610b66612710610f7f5f968b895260b4875288205484614b1b565b049190508c610b5b565b875162461bcd60e51b81528084018790526025818401527f496e73756666696369656e7420636f6c6c61746572616c20666f722074686973818d015264103637b0b760d91b6064820152608490fd5b875162461bcd60e51b81528084018790526025818401527f426f72726f7720616d6f756e74206578636565647320796f7572207469657220818d0152641b1a5b5a5d60da1b6064820152608490fd5b875162461bcd60e51b81528084018790526030818401527f426f72726f7720616d6f756e74206578636565647320617661696c61626c6520818d01526f6c656e64696e6720636170616369747960801b6064820152608490fd5b875162461bcd60e51b8152808401879052601481840152734372656469742073636f726520746f6f206c6f7760601b818d0152606490fd5b9150503d808d833e6110cb8183614a60565b81019160608284031261116c578151878301516001600160401b03811161116857830184601f820112156111685780516111048161585d565b956111118d519788614a60565b8187528a8284010111611164577f0dda2aa47a3db5dda18a4f06501647c631e2c43e7e7876dbeaf21023b8266fb5946111548d9261115a948d808b0191016148fa565b01614a81565b5092909291610a91565b8f80fd5b8e80fd5b8c80fd5b88513d8e823e3d90fd5b61118390614a32565b61118e57898b610a5f565b8980fd5b88513d84823e3d90fd5b60156064928588519362461bcd60e51b85528401528201527414d95b1958dd081858d8dbdd5b9d1cc8199a5c9cdd605a1b6044820152fd5b90508481813d8311611202575b6111eb8183614a60565b8101031261118e576111fc90614a81565b8b610a22565b503d6111e1565b87513d8c823e3d90fd5b60136064928588519362461bcd60e51b85528401528201527250726f6f6620616c726561647920757365642160681b6044820152fd5b90508481813d8311611277575b6112608183614a60565b8101031261118e5761127190614a81565b8b6109f7565b503d611256565b601e889160649386519362461bcd60e51b85528401528201527f526570617920796f7572206578697374696e67206465627420666972737400006044820152fd5b5082346106b45760203660031901126106b4576020906112e56112e06147e2565b616087565b15159051908152f35b5082346106b457816003193601126106b457602090517f742d8195bebb59905cedb6c02453745e9ef7090c163e7dea727ab0849b3dfc008152f35b5082346106b457816003193601126106b457602090517fa22cb6bd33c714cffaf72f196d1ebf87829cac5214f3ad84491fa8669ede7a6a8152f35b5082346106b457816003193601126106b45760209060ff60ab5460a01c1690519015158152f35b509190346106c85760203660031901126106c857359160058310156113be57506113b66020926149bd565b549051908152f35b80fd5b5082346106b457806003193601126106b4576020916113de6147e2565b826113e76147f8565b6001600160a01b03928316845260978652922091165f908152908352819020549051908152f35b5082346106b457816003193601126106b457602090517fb438992c2c4c65322b65fd8e2dacea9efd63443e69e5ed52f4a77ed6c78f7c2a8152f35b509190346106c85760203660031901126106c8576114656147e2565b60aa546001600160a01b03939192919084163303610743575050166001600160601b0360a01b60a854161760a85580f35b8382346113be57806003193601126113be57815191829160a15480855260208095019460a183527faadc37b8ba5645e62f4546802db221593a94729ccbfc5a97d01365a88f64987892905b8282106115075761150386866114f9828b0383614a60565b5191829182614979565b0390f35b83546001600160a01b0316875295860195600193840193909101906114e1565b5091346106c85760203660031901126106c8576115426147e2565b60aa5490926001600160a01b03929091831633036107435750508060ac54921691826001600160601b0360a01b82161760ac55826115a3575b167f7fc5e57c5215ef3b834df4680694bbed4808bf88ddc971b470cb8ef9365e63868380a380f35b6001600160a81b031981168317600160a01b1760ac5561157b565b5091346106c8576020806003193601126116c5576115da6147e2565b6115e3816154ab565b5061168d576001600160a01b0316808552609d82528285205490939060ff1661164c5750828452609d8152818420805460ff19166001179055609e905282204290557f7f62ed89ea2c6fb057e4ea77729c1d3f18056339791fce29ac89760197b45b298280a280f35b915162461bcd60e51b815291820152601b60248201527f4c69717569646174696f6e20616c7265616479207374617274656400000000006044820152606490fd5b50905162461bcd60e51b8152918201526013602482015272506f736974696f6e206973206865616c74687960681b6044820152606490fd5b8380fd5b5091346106c85760203660031901126106c857813560a454926116ef60ff851615614fb9565b60ff1993841660011760a45560a6546001600160a01b0316330361178c5747821161174957508380808093818115611740575b3390f115611735575060a4541660a45580f35b51913d9150823e3d90fd5b506108fc611722565b606490602084519162461bcd60e51b8352820152601d60248201527f496e73756666696369656e7420636f6e74726163742062616c616e63650000006044820152fd5b608490602084519162461bcd60e51b8352820152602260248201527f4f6e6c79206c656e64696e67206d616e616765722063616e2063616c6c207468604482015261697360f01b6064820152fd5b5091346106c857806003193601126106c8576117f46147e2565b60aa54602435936001600160a01b0392918316330361185557620151808511611826575016835260b160205282205580f35b606490602085519162461bcd60e51b83528201526009602482015268546f6f206c6172676560b81b6044820152fd5b8351630925c89960e31b8152fd5b5091346106c857806003193601126106c857610723913561189960016118876147f8565b93838752606560205286200154615da1565b616014565b5082346106b45760203660031901126106b4576020906109636112e06147e2565b5082346106b457816003193601126106b45760aa5490516001600160a01b039091168152602090f35b5082346106b45760203660031901126106b45760209181906001600160a01b036119106147e2565b168152609c845220549051908152f35b5082346106b45760603660031901126106b45760aa548335919060243590604435906001600160a01b031633036119dc5761195e60ad548510614de2565b82518381018181106001600160401b038211176119c9577f7543d68ffbde1802767cee31f14403e1b914f7249f14f2724e7398aa10de092395969750845282815260016020820183815287895260b4602052858920925183555191015582519182526020820152a280f35b604188634e487b7160e01b5f525260245ffd5b8251630925c89960e31b81528690fd5b5082346106b457816003193601126106b45760209060ff60a4541690519015158152f35b5082346106b457816003193601126106b45761150390611a2e615a5c565b905191829182614979565b509190346106c85760c03660031901126106c857611a556147e2565b611a5d6147f8565b611a6561480e565b916064356001600160a01b0381811691829003610e705760843594818616809603610e705760a43594828616809603610e705789549760ff8960081c16159889809a611d63575b8015611d4c575b15611cf25760ff1981166001178c5589611ce1575b5060ff8b5460081c1615611c8a57508290816001600160601b0360a01b96168660aa54161760aa55168460a554161760a555168260a654161760a6558160a754161760a75560a954161760a95580611c6b575b5060ac805460ff60a01b19169055815190611b35826149e8565b605a8252611b5f602092606484820152606e85820152601819606082015260326080820152616309565b611b918351611b6d816149e8565b60508152605984820152607d85820152600919606082015260286080820152616309565b611bc18351611b9f816149e8565b60468152604f84820152608c85820152856060820152601e6080820152616309565b611bf28351611bcf816149e8565b603c815260458482015260a085820152600f606082015260146080820152616309565b611c218351611c00816149e8565b858152603b8482015260c885820152601e6060820152856080820152616309565b662386f26fc1000060b255611c34578280f35b7f7f26b83ff96e1f2b6a682f133852f6798a09c465da95921460cefb38474024989161ff001984541684555160018152a15f808280f35b60ab80546001600160a81b031916909117600160a01b1790555f611b1b565b60849060208b519162461bcd60e51b8352820152602b60248201527f496e697469616c697a61626c653a20636f6e7472616374206973206e6f74206960448201526a6e697469616c697a696e6760a81b6064820152fd5b61ffff1916610101178b555f611ac8565b8a5162461bcd60e51b8152602081840152602e60248201527f496e697469616c697a61626c653a20636f6e747261637420697320616c72656160448201526d191e481a5b9a5d1a585b1a5e995960921b6064820152608490fd5b50303b158015611ab35750600160ff821614611ab3565b50600160ff821610611aac565b5082346106b457816003193601126106b45760a55490516001600160a01b039091168152602090f35b5082346106b45760203660031901126106b45760209181906001600160a01b03611dc16147e2565b1681526098845220549051908152f35b509190346106c85760203660031901126106c857611ded6147e2565b60aa546001600160a01b03919082163303611e655716918215611e225750506001600160601b0360a01b60a654161760a65580f35b906020606492519162461bcd60e51b8352820152601f60248201527f496e76616c6964206c656e64696e67206d616e616765722061646472657373006044820152fd5b8351630925c89960e31b81528390fd5b509190346106c857826003193601126106c85760aa546001600160a01b03163303611eec575060207f228f455d7bc3d0b24a3a08d7847f391c3e78fc8aeb83acf226b7a96ee162b8ac9160ff60a45461ff00828260081c161560081b169061ff00191617918260a455519160081c1615158152a180f35b9051630925c89960e31b8152fd5b5082346106b457816003193601126106b457602090517facd38b7c4e04b2b78fc2ca994eae1a3eb206005ffa4c11fcf4a9d81c94684b2d8152f35b5082346106b45760203660031901126106b45760209181906001600160a01b03611f5d6147e2565b168152609e845220549051908152f35b5082346106b457816003193601126106b457602090516203f4808152f35b5082346106b457816003193601126106b4576020905160828152f35b5082346106b457816003193601126106b45760209060b0549051908152f35b5082346106b457816003193601126106b45760209060af549051908152f35b5082346106b457816003193601126106b45760a95490516001600160a01b039091168152602090f35b5082346106b45760203660031901126106b45760209181906001600160a01b036120366147e2565b168152609b845220549051908152f35b509190346106c85760203660031901126106c857359160a0548310156113be575061207260209261487c565b905491519160018060a01b039160031b1c168152f35b509190346106c85760203660031901126106c85791819235815260b4602052206001815491015482519182526020820152f35b5082346106b457816003193601126106b45760209060ff60a45460081c1690519015158152f35b5082346106b457816003193601126106b45760a85490516001600160a01b039091168152602090f35b5082346106b457816003193601126106b45760ab5490516001600160a01b039091168152602090f35b509190346106c857816003193601126106c85761214f6147e2565b60ab54602435926001600160a01b039291831633036121b25750916020917f4afae6838a181695abc7978598380d73bc2144eb38580c130f86e4b1e6531e159361219c606484111561551b565b1693848652609a8352818187205551908152a280f35b606490602086519162461bcd60e51b8352820152601d60248201527f4f6e6c79206372656469742073797374656d2063616e207570646174650000006044820152fd5b8382346113be5760203660031901126113be57506122196122146147e2565b615878565b90926122368151948594855260606020860152606085019061491b565b911515908301520390f35b5082346106b457816003193601126106b457602090610963615604565b509190346106c857816003193601126106c8576122796147e2565b906024359160018060a01b0316928385526020916099835260ff82872054161561244657831561240f57338652609d835260ff82872054166123d857908284612304949333895260a28352838920805460ff8116156123bf575b505083516323b872dd60e01b8152339181019182523060208301526040820192909252909485918291606090910190565b038189895af180156123b557612361575b7ff1c0dd7e9b98bbff859029005ef89b127af049cd18df1a8d79f0b7e019911e56925084865260978252808620335f528252805f20612355858254614a8e565b9055519283523392a380f35b8183813d83116123ae575b6123768183614a60565b81010312610750576123a87ff1c0dd7e9b98bbff859029005ef89b127af049cd18df1a8d79f0b7e019911e5693614a81565b50612315565b503d61236c565b81513d88823e3d90fd5b60ff191660011790556123d1336151ef565b5f806122d3565b8161073f92515f805160206164718339815191523391806123f881614ebf565b0390a25162461bcd60e51b81529182918201614ebf565b8161073f92515f8051602061647183398151915233918061242f8161555c565b0390a25162461bcd60e51b8152918291820161555c565b8161073f92515f8051602061647183398151915233918061246681614e64565b0390a25162461bcd60e51b81529182918201614e64565b5080838160031936011261252557612496341515615589565b338252609d6020526124ae60ff8284205416156155a9565b33825260a2602052808220805460ff81161561250c575b505033825260986020528082206124dd348254614a8e565b9055513481527ff1c0dd7e9b98bbff859029005ef89b127af049cd18df1a8d79f0b7e019911e5660203392a380f35b60ff1916600117905561251e336151ef565b83806124c5565b50fd5b509190346106c857816003193601126106c8576125436147e2565b6024359060a4549361255b60ff8660081c1615614aaf565b61256860ff861615614fb9565b60ff1994851660011760a45561257f831515615589565b60018060a01b0382169384875260209260978452828820335f52845284835f20541061276857338852609b8452828820548592918161268c575b50509280929161260b94878a5260978352838a20335f528352835f206125e0838254614af0565b9055835163a9059cbb60e01b8152339181019182526020820192909252909485918291604090910190565b03818a895af180156126825761263d575b5f805160206164518339815191529250519283523392a360a4541660a45580f35b8183813d831161267b575b6126528183614a60565b81010312612677576126715f8051602061645183398151915293614a81565b5061261c565b8680fd5b503d612648565b81513d89823e3d90fd5b6126f3919293506126cb670de0b6b3a764000091898c5260978852868c20335f5288526126c56126bf8a895f2054614af0565b91615b1f565b90614b1b565b04916126d63361504b565b60646126ed6126e433614f4a565b50503394614b1b565b046161e8565b116127015783905f806125b9565b82608492519162461bcd60e51b8352820152603b60248201527f5769746864726177616c20776f756c642076696f6c61746520746965722d626160448201527f73656420636f6c6c61746572616c20726571756972656d656e747300000000006064820152fd5b5082606492519162461bcd60e51b8352820152601760248201527f496e73756666696369656e7420636f6c6c61746572616c0000000000000000006044820152fd5b5082346106b457816003193601126106b45751908152602090f35b5082346106b457816003193601126106b45760a65490516001600160a01b039091168152602090f35b5082346106b457816003193601126106b4576020905160058152f35b5091346106c85760203660031901126106c8576128256147e2565b60aa5490926001600160a01b03929091831633036107435750508060ab54921691826001600160601b0360a01b82161760ab55167f3637d79e8b0bd63fa3bcc41c2ab614b349b83626b91f73211bc80c6ec5ec4e958380a380f35b5091346106c857806003193601126106c85761289a6147e2565b60aa5460243592916001600160a01b0391821633036129855716928315612943573084146129095750816020916128f560647f4afae6838a181695abc7978598380d73bc2144eb38580c130f86e4b1e6531e1595111561551b565b848652609a8352818187205551908152a280f35b6020606492519162461bcd60e51b8352820152601560248201527424b73b30b634b21030b2323932b9b99d1039b2b63360591b6044820152fd5b6020606492519162461bcd60e51b8352820152601d60248201527f496e76616c696420616464726573733a207a65726f20616464726573730000006044820152fd5b8251630925c89960e31b81528590fd5b5082346106b457816003193601126106b45760209060a3549051908152f35b5082346106b457816003193601126106b457602090517f96737339a958f216173e690d06f324072e6dc3146e04c060bd723906d6b190768152f35b5082346106b45760203660031901126106b45760209160ff9082906001600160a01b03612a1a6147e2565b16815260a2855220541690519015158152f35b509190346106c857816003193601126106c85781602093612a4c6147f8565b9235815260658552209060018060a01b03165f52825260ff815f20541690519015158152f35b8382346113be5760203660031901126113be5750612a96612a916147e2565b6154ab565b825191151582526020820152f35b5082346106b45760203660031901126106b45760a090612aca612ac56147e2565b615402565b93949190928251951515865215156020860152151590840152606083015215156080820152f35b5082346106b457816003193601126106b457602090517fce802e42c93d0fbd61dfc706a0e806b78ac046397e07510da2f223464e4788e08152f35b5082346106b457816003193601126106b45760209060b2549051908152f35b5082346106b457816003193601126106b457602090517f0e0e24c52bc4f24612e3f568966757426acd82325205933a9270e1ce7c4d93c28152f35b5082346106b457806003193601126106b457612c1490612bff612bfa612baa6147e2565b856024359460018060a01b03612bc58160a65416331461537c565b83168252609b6020528181812055609c6020528181812055609d60205280822060ff198154169055609e60205281205561504b565b6149bd565b612c0a828254614af0565b905560b054614a8e565b60b05580f35b509190346106c857816003193601126106c857612c356147e2565b91612c3e6147f8565b60aa5490936001600160a01b0393909184163303612c8f575082168085526099602052612c7060ff838720541661522c565b8452609f602052832091166001600160601b0360a01b82541617905580f35b8251630925c89960e31b8152fd5b509190346106c85760203660031901126106c85760e09282906001600160a01b03612cc66147e2565b16815260b56020522080549260018201549260028301546003840154918401549260ff600660058701549601541695815197885260208801528601526060850152608084015260a0830152151560c0820152f35b5082346106b45760203660031901126106b45760209160ff9082906001600160a01b03612d456147e2565b1681526099855220541690519015158152f35b5091346106c857602092836003193601126113be57612d756147e2565b9260a354612d8860af5460b05490614af0565b8115612ed257670de0b6b3a764000090818102918183041490151715612ebf5790612db291614afd565b935b60a7548451634fd41dad60e11b8152838101969096528690869060249082906001600160a01b03165afa948515612eb5578395612e84575b50612df690614f4a565b5085915083811215612e4757612e1091929394955061536c565b9261271093840392848411612e3457505090612e2b91614b1b565b04905b51908152f35b634e487b7160e01b825260119052602490fd5b92808413612e59575b50505050612e2e565b90919293945061271093840192838511612e3457505090612e7991614b1b565b04905f808080612e50565b9094508581813d8311612eae575b612e9c8183614a60565b81010312610e70575193612df6612dec565b503d612e92565b84513d85823e3d90fd5b634e487b7160e01b845260118352602484fd5b50508193612db4565b5091346106c85760203660031901126106c85781359260ad548410156113be5750612f0760a093614940565b508054926001820154926002830154916003840154930154938151958652602086015284015260608301526080820152f35b509190346106c85760203660031901126106c857612f556147e2565b60aa5491906001600160a01b03908184163303612fbc5716928315612f875750506001600160a01b0319161760aa5580f35b906020606492519162461bcd60e51b8352820152600f60248201526e496e76616c6964206164647265737360881b6044820152fd5b8451630925c89960e31b81528390fd5b5082346106b457612fdc366148b1565b505060609160b654603c810180911161319257612ffa904211614ff5565b8151809160a15480835283602080940160a184527faadc37b8ba5645e62f4546802db221593a94729ccbfc5a97d01365a88f64987892845b868282106131735750505061304992500384614a60565b613053835161533a565b938193825b81518110156130de576001600160a01b036130738284614b2e565b5116808552609d865260ff8486205416613091575b50600101613058565b609e8652838520546203f48081018091116130cb57421061308857866130c4916130be600194998b614b2e565b52614b42565b9590613088565b634e487b7160e01b865260118b52602486fd5b508490508587821561316757506130f48261533a565b935b82811061313f575050506115039061311a6131286001948351928391888301614979565b03601f198101835282614a60565b905b8080519586951515865285015283019061491b565b6001906001600160a01b036131548285614b2e565b51166131608288614b2e565b52016130f6565b9150506115039161312a565b85546001600160a01b0316845260019586019589955093019201613032565b634e487b7160e01b825260118552602482fd5b5082346106b45760203660031901126106b4576020906109636131c66147e2565b615278565b5082346106b457816003193601126106b45760209060ff60ac5460a01c1690519015158152f35b509190346106c85760203660031901126106c85761320e614824565b60aa549091906001600160a01b03163303612c8f57507f895b395338611f71448ee682a563b0c13233e238236eb6700d45720ec4bf44459160209115159060ab5460ff60a01b8360a01b169060ff60a01b19161760ab5551908152a180f35b5082346106b45760203660031901126106b45760209181906001600160a01b036132956147e2565b16815260b1845220549051908152f35b5082346106b457816003193601126106b45760209051603c8152f35b5082346106b45760203660031901126106b4576020916001600160a01b03908290826132eb6147e2565b168082526099865261330260ff848420541661522c565b8152609f85522054169051908152f35b5082346106b457816003193601126106b457602090516103848152f35b5082346106b457816003193601126106b457602090516276a7008152f35b5091346106c857806003193601126106c8576133676147e2565b906024359182151592838103610e705760aa546001600160a01b0392908316330361349f5782169485875260996020526133af828589209060ff801983541691151516179055565b60a0549187805b848110613475575b508161346c575b506133fb575b5050507f15f5cc64ca777db85f6c05fdba671568758b38329616d4d4b43bb8b092fe9a8d9160209151908152a280f35b600160401b8210156134595750917f15f5cc64ca777db85f6c05fdba671568758b38329616d4d4b43bb8b092fe9a8d939161343e8460016020960160a05561487c565b819291549060031b9188831b921b19161790559181936133cb565b604190634e487b7160e01b5f525260245ffd5b9050155f6133c5565b88866134808361487c565b90549060031b1c1614613495576001016133b6565b505060015f6133be565b8351630925c89960e31b81528690fd5b5082346106b457806003193601126106b4576020916134cc6147e2565b906001600160a01b03908390826134e16147f8565b168152609786522091165f528252805f20549051908152f35b5082346106b45760203660031901126106b45760609061352061351b6147e2565b6150f2565b919290815193151584526020840152820152f35b5082346106b45760203660031901126106b4576135576135526147e2565b61504b565b905191600582101561356b57602083838152f35b634e487b7160e01b815260218452602490fd5b5082346106b457816003193601126106b457602090517f430b074324c1d9f1ce97c9e9efd8cc6b779c8a501b53808a5cafe19682f95dd58152f35b509190346106c8576135ca366148b1565b60b693919354603c8101809111613760576135e6904211614ff5565b4260b6558301926020908181860312610750578035906001600160401b03821161267757019380601f8601121561075057843561362281615034565b9561362f85519788614a60565b818752838088019260051b82010192831161375c578301905b82821061373d57505050845b8451811015613739576001600160a01b03806136708388614b2e565b511690818852609d845260ff8589205416613690575b5050600101613654565b609e8452848820546203f480810180911161372657908892914210156136b7575b50613686565b60a65416803b156106c857855163bcebb1d760e01b8152308882019081526001600160a01b039093166020840152918391839182908490829060400103925af1801561371c57613708575b806136b1565b61371190614a32565b61075057855f613702565b85513d84823e3d90fd5b634e487b7160e01b895260118752602489fd5b8580f35b81356001600160a01b0381168103610e70578152908301908301613648565b8780fd5b634e487b7160e01b865260118452602486fd5b5082346106b457816003193601126106b45780602092338152609b845220549051908152f35b5082346106b457816003193601126106b457602090517f5fef09193e4e8110de1cc5ba269e889a5fb9093ba33c4df4b67dc2eaa1ca1fff8152f35b5082346106b457816003193601126106b45760a454905160109190911c6001600160a01b03168152602090f35b5091905f366003190112610e705760a4549161382360ff8460081c1615614aaf565b61383060ff841615614fb9565b600160ff198094161760a455335f52602090609b8252805f205480156139fb5734156139c9578086913411805f146139c25781955b335f52609b8652845f2061387a888254614af0565b90556138888760b054614a8e565b60b055613897612bfa3361504b565b6138a2888254614af0565b9055335f52609d8652845f2088815460ff81166139ae575b505060a8546001600160a01b031690508061393a575b505061390d575b5050907f0516911bcc3a0a7412a44601057c0a0a1ec628bde049a84284bc42886653448891519283523392a260a4541660a45580f35b818061391a819334614af0565b818115613931575b3390f1156106bf57845f6138d7565b506108fc613922565b8091929394503b15610e705784516340c10f1960e01b815233928101928352662386f26fc1000088046020840152915f91839182908490829060400103925af180156139a45761398f575b90818893926138d0565b61399b91929750614a32565b5f95905f613985565b84513d5f823e3d90fd5b169055609e86525f858120555f88816138ba565b3495613865565b505162461bcd60e51b815291820152600d60248201526c09aeae6e840e6cadcc8408aa89609b1b604482015260649150fd5b505162461bcd60e51b815291820152601060248201526f4e6f206465627420746f20726570617960801b604482015260649150fd5b8334610e70575f366003190112610e705760209060b6549051908152f35b8334610e70576020366003190112610e7057606090613a73613a6e6147e2565b614f4a565b91929081519384526020840152820152f35b505034610e70576020366003190112610e7057359060a154821015610e7057612072602092614833565b505034610e705781600319360112610e7057613ac96147f8565b90336001600160a01b03831603613ae757613ae5925035616014565b005b608490602084519162461bcd60e51b8352820152602f60248201527f416363657373436f6e74726f6c3a2063616e206f6e6c792072656e6f756e636560448201526e103937b632b9903337b91039b2b63360891b6064820152fd5b828434610e70576020366003190112610e705760aa546001600160a01b0316330361074357503560b255005b8334610e70575f366003190112610e7057602090517ffed613f2d4bec2209ff904769fa3c094c155ec5048c0bb2e17f16e523671ca2c8152f35b828434610e705780600319360112610e7057613bc26147e2565b6024359160018060a01b039384831694855f526020936099855260ff845f20541615613e1657865f5260978552835f20335f52855285845f205410613dde57335f52609d855260ff845f205416613dbd57613c4290670de0b6b3a7640000613c3b613c35613c2f33615278565b93615b1f565b89614b1b565b0490614af0565b90606482029180830460641490151715613daa57602490335f52609b865285855f20549160a55416865193848092631ee1b90b60e21b82528c898301525afa908115613da0575f91613d6f575b613c999250614b1b565b11613d3857908284613cc39493875f5260978352835f20335f528352835f206125e0838254614af0565b03815f895af18015613d2e57613ced575b5f805160206164518339815191529250519283523392a3005b8183813d8311613d27575b613d028183614a60565b81010312610e7057613d215f8051602061645183398151915293614a81565b50613cd4565b503d613cf8565b50513d5f823e3d90fd5b8161073f92515f80516020616471833981519152339180613d5881614ef7565b0390a25162461bcd60e51b81529182918201614ef7565b90508582813d8311613d99575b613d868183614a60565b81010312610e7057613c99915190613c8f565b503d613d7c565b85513d5f823e3d90fd5b601183634e487b7160e01b5f525260245ffd5b61073f838580515f805160206164718339815191523391806123f881614ebf565b61073f838580515f80516020616471833981519152339180613dff81614e90565b0390a25162461bcd60e51b81529182918201614e90565b61073f838580515f8051602061647183398151915233918061246681614e64565b505034610e70576020366003190112610e705760e091613e556147e2565b5f60c08351613e6381614a17565b82815282602082015282858201528260608201528260808201528260a0820152015260018060a01b03165f5260b5602052805f20815191613ea383614a17565b81549384845260018301549160208501928352600284015481860190815260038501549260608701938452850154936080870194855260c060ff600660058901549860a08b01998a5201541697019615158752825197885251602088015251908601525160608501525160808401525160a083015251151560c0820152f35b828434610e705760c0366003190112610e705760aa54823592906001600160a01b03163303611eec5750613f95613ae592613f6060ad548210614de2565b825192613f6c846149e8565b6024358452604435602085015260643590840152608435606084015260a4356080840152614940565b90614e1d565b505034610e705781600319360112610e70573590613fb76147f8565b90825f526065602052613fcf6001825f200154615da1565b825f526065602052805f209160018060a01b031691825f5260205260ff815f20541615613ff857005b825f526065602052805f20825f526020525f20600160ff1982541617905533917f2f8788117e7eff1d82e926ec794901d17c78024a50270940304540a733656f0d5f80a4005b505034610e70576020366003190112610e705735906001600160401b0382168203610e7057610963602092614d92565b828434610e70576020366003190112610e7057602091355f52606582526001815f2001549051908152f35b34610e70575f366003190112610e7057613ae5614b50565b82845f366003190112610e70576140d060ff60a45460081c1615614aaf565b335f52602060b58152815f20600681019360ff8554161561433057808201918254928334106142ed57600382019182548042106142be5762093a8081018091116142ab578042116141e4575b50906001614153920194614131818754614af0565b8655335f52609b8752614148885f20918254614af0565b90555460b054614a8e565b60b05580549162278d0083018093116141d15750907fd3cf6d8c55fed98c7b9f9d18d95a51dbdb316503bb854fc1f676c8974cb10f4f9291555492838151933485528401523392a2156141a257005b805460ff19169055337f59bd56f70adeefb0cd83dca0f34f066bed6ee442068f3d07b5fc974b944d5aa65f80a2005b601190634e487b7160e01b5f525260245ffd5b6141ed3361504b565b6005811015614298579160019161415394935f5260b4895262015180614219848c5f2001549242614af0565b048015158061428f575b614232575b505091925061411c565b61425c61271061016d6142538787019461424e86549788614b1b565b614b1b565b04048093614a8e565b905589519081527fce0d6b567089a0bce35e0693cdb625006f0cf915f9f3686bb0343bc2c667c1b2893392a28a80614228565b50811515614223565b602186634e487b7160e01b5f525260245ffd5b601185634e487b7160e01b5f525260245ffd5b875162461bcd60e51b81528086018890526009602482015268546f6f206561726c7960b81b6044820152606490fd5b855162461bcd60e51b8152808401869052601860248201527f496e73756666696369656e7420696e7374616c6c6d656e7400000000000000006044820152606490fd5b835162461bcd60e51b8152908101839052600e60248201526d27379030b1ba34bb32903637b0b760911b6044820152606490fd5b8334610e70576020366003190112610e70576020906001600160a01b038061438a6147e2565b165f52609f8352815f2054169051908152f35b8334610e70575f366003190112610e7057602090517f8b473ac3e35dc431c1dba0191b7615ccaca6bfeb14f9573dcaae9e614fbe8b208152f35b505034610e70576020366003190112610e70576143f26147e2565b60aa546001600160a01b03919082163303611e6557169182156144485760b380546001600160a01b03191684179055827f279ea638680bba6a87fddd8bcdbc37d94eee92841e1dfec2ab0f79662c7093115f80a2005b906020606492519162461bcd60e51b8352820152601760248201527f496e76616c6964207265736572766520616464726573730000000000000000006044820152fd5b8334610e70575f366003190112610e705751478152602090f35b828434610e70576020366003190112610e70576144c0614824565b60aa549092906001600160a01b03163303611eec577fb01450010edba5be11857fe89630b2ff764d237a9f9f77ab651643effd8699886020838515159060ac5460ff60a01b8360a01b169060ff60a01b19161760ac5551908152a1005b8334610e70575f366003190112610e705760209051600a8152f35b8334610e70576020366003190112610e70576020906001600160a01b0361455d6147e2565b165f5260988252805f20549051908152f35b8334610e70575f366003190112610e705760209051610e108152f35b828434610e705780600319360112610e70576145a56147e2565b9160243590335f52602093609d855260ff845f205416156146875783516323b872dd60e01b815233928101928352306020840152604083018490526001600160a01b039091169185908290819060600103815f865af180156139a457614653575b505f5260978352815f20335f528352614623825f20918254614a8e565b905561462e336154ab565b5061463557005b335f908152609d8352818120805460ff19169055609e909252812055005b8481813d8311614680575b6146688183614a60565b81010312610e705761467990614a81565b5084614606565b503d61465e565b835162461bcd60e51b8152808301869052601a60248201527f4163636f756e74206e6f7420696e206c69717569646174696f6e0000000000006044820152606490fd5b8334610e70576020366003190112610e70576020906001600160a01b036146ef6147e2565b165f52609d825260ff815f20541690519015158152f35b8334610e70575f366003190112610e705760ac5490516001600160a01b039091168152602090f35b505034610e70576020366003190112610e70573563ffffffff60e01b8116809103610e7057602091637965db0b60e01b8214918215614771575b50519015158152f35b6301ffc9a760e01b1491505f614768565b8334610e70576020366003190112610e705761479c6147e2565b60aa549092906001600160a01b031633036147d65760a4805462010000600160b01b031916601085901b62010000600160b01b0316179055005b630925c89960e31b8152fd5b600435906001600160a01b0382168203610e7057565b602435906001600160a01b0382168203610e7057565b604435906001600160a01b0382168203610e7057565b600435908115158203610e7057565b60a1548110156148685760a15f527faadc37b8ba5645e62f4546802db221593a94729ccbfc5a97d01365a88f64987801905f90565b634e487b7160e01b5f52603260045260245ffd5b60a0548110156148685760a05f527f78fdc8d422c49ced035a9edf18d00d3c6a8d81df210f3e5e448e045e77b41e8801905f90565b906020600319830112610e70576004356001600160401b0392838211610e705780602383011215610e70578160040135938411610e705760248483010111610e70576024019190565b5f5b83811061490b5750505f910152565b81810151838201526020016148fc565b90602091614934815180928185528580860191016148fa565b601f01601f1916010190565b60ad548110156148685760059060ad5f52027f0440fd76b4e685d17019b0eef836cea9994650028b99dddfb48be06fa4240aa601905f90565b60209060206040818301928281528551809452019301915f5b8281106149a0575050505090565b83516001600160a01b031685529381019392810192600101614992565b60058110156149d4575f5260ae60205260405f2090565b634e487b7160e01b5f52602160045260245ffd5b60a081019081106001600160401b03821117614a0357604052565b634e487b7160e01b5f52604160045260245ffd5b60e081019081106001600160401b03821117614a0357604052565b6001600160401b038111614a0357604052565b604081019081106001600160401b03821117614a0357604052565b90601f801991011681019081106001600160401b03821117614a0357604052565b51908115158203610e7057565b91908201809211614a9b57565b634e487b7160e01b5f52601160045260245ffd5b15614ab657565b60405162461bcd60e51b815260206004820152601260248201527110dbdb9d1c9858dd081a5cc81c185d5cd95960721b6044820152606490fd5b91908203918211614a9b57565b8115614b07570490565b634e487b7160e01b5f52601260045260245ffd5b81810292918115918404141715614a9b57565b80518210156148685760209160051b010190565b5f198114614a9b5760010190565b614b58615a5c565b5f5b8151811015614bfa576001600160a01b0380614b768385614b2e565b511690815f52602091609f8352604091825f205416614b9b575b505050600101614b5a565b614bb2614baa610e1092615c28565b905042614af0565b11614bbd5780614b90565b60a4805461ff00191661010017905551600181527f228f455d7bc3d0b24a3a08d7847f391c3e78fc8aeb83acf226b7a96ee162b8ac9350909150a1565b505060a3548015159081614d5b575b50614c405760a15460a6545f91906001600160a01b03908116835b838110614ca6575050508015159182614c7c575b5050614c4057565b61010061ff001960a454161760a4557f228f455d7bc3d0b24a3a08d7847f391c3e78fc8aeb83acf226b7a96ee162b8ac602060405160018152a1565b909150606481029080820460641490151715614a9b57600591614c9e91614afd565b115f80614c38565b614caf81614833565b905460408051632cf5889360e01b815230600482015260039390931b9190911c85166001600160a01b031660248301529060208082604481885afa928315614d5257505f92614d1c575b5050614d08575b600101614c24565b93614d14600191614b42565b949050614d00565b90809250813d8311614d4b575b614d338183614a60565b81010312610e7057614d4490614a81565b5f80614cf9565b503d614d29565b513d5f823e3d90fd5b9050614d6c60af5460b05490614af0565b606481029080820460641490151715614a9b57605f91614d8b91614afd565b115f614c09565b6001600160401b0380911661012c811115614ddc57610352811015614dd55761012b1901818111614a9b578116606402808216908103614a9b5761022690041690565b5050606490565b50505f90565b15614de957565b60405162461bcd60e51b815260206004820152600c60248201526b24b73b30b634b2103a34b2b960a11b6044820152606490fd5b9190614e51576080816004925184556020810151600185015560408101516002850155606081015160038501550151910155565b634e487b7160e01b5f525f60045260245ffd5b606090602081526011602082015270151bdad95b881b9bdd08185b1b1bddd959607a1b60408201520190565b606090602081526014602082015273496e73756666696369656e742062616c616e636560601b60408201520190565b60609060208152601960208201527f4163636f756e7420697320696e206c69717569646174696f6e0000000000000060408201520190565b60809060208152603260208201527f5769746864726177616c20776f756c64206d616b6520706f736974696f6e20756040820152711b99195c98dbdb1b185d195c985b1a5e995960721b60608201520190565b614f539061504b565b60058110156149d457614f6590614940565b509060405190614f74826149e8565b82548252600183015460208301526064614fb2608060028601549485604082015260046003880154978860608401520154918291015260a354614b1b565b0491929190565b15614fc057565b60405162461bcd60e51b815260206004820152600d60248201526c4e6f207265656e7472616e637960981b6044820152606490fd5b15614ffc57565b60405162461bcd60e51b815260206004820152601060248201526f155c1ad9595c081d1a1c9bdd1d1b195960821b6044820152606490fd5b6001600160401b038111614a035760051b60200190565b61505490616087565b60ad54905f5b82811061507a5750505f198101908111614a9b5760058110156149d45790565b61508381614940565b5054821015806150a9575b61509a5760010161505a565b91505060058110156149d45790565b5060016150b582614940565b50015482111561508e565b90816060910312610e705780516001600160401b0381168103610e70579160406150ec60208401614a81565b92015190565b60ac549060ff8260a01c161580156151de575b6151d45760405163d3dd2bdf60e01b81526001600160a01b0391821660048201529160609183916024918391165afa5f9182918291816151a0575b50615151575b5050505f905f905f90565b8061518e575b80615178575b6151675780615146565b61517090614d92565b916001929190565b506276a7008201808311614a9b5742111561515d565b506001600160401b0381161515615157565b915092506151c6915060603d6060116151cd575b6151be8183614a60565b8101906150c0565b925f615140565b503d6151b4565b50505f905f905f90565b506001600160a01b03821615615105565b60a154600160401b811015614a035780600161520e920160a155614833565b60018060a09493941b038084549260031b9316831b921b1916179055565b1561523357565b60405162461bcd60e51b815260206004820152601f60248201527f546f6b656e206e6f7420616c6c6f77656420617320636f6c6c61746572616c006044820152606490fd5b905f60018060a01b0380931690815f52602091609860205260409060405f20548061531a575b506152a7615a5c565b955f5b875181101561531057816152be828a614b2e565b5116805f5260978752845f20845f528752845f205490816152e4575b50506001016152aa565b95670de0b6b3a7640000615301615308936126c56001969a615b1f565b0490614a8e565b94905f6152da565b5092955050505050565b670de0b6b3a7640000919350615332906126c5615604565b04915f61529e565b9061534482615034565b6153516040519182614a60565b8281528092615362601f1991615034565b0190602036910137565b600160ff1b8114614a9b575f0390565b1561538357565b60405162461bcd60e51b815260206004820152601360248201527227b7363c902632b73234b733a6b0b730b3b2b960691b6044820152606490fd5b91908260c0910312610e70576153d382614a81565b916153e060208201614a81565b916153ed60408301614a81565b9160608101519160a06150ec60808401614a81565b60ab546001600160a01b03908116919082615426575050505f905f905f905f905f90565b602460c09260405194859384926335856b7f60e11b84521660048301525afa5f9182918291829182918161546e575b5061546b5750505050505f905f905f905f905f90565b94565b935094505050615496915060c03d60c0116154a4575b61548e8183614a60565b8101906153be565b50929491939092915f615455565b503d615484565b906154b582615278565b6001600160a01b0383165f908152609b602052604090205492831561550f578115615505576154e390614f4a565b50509260648202918204606403614a9b576154fd91614afd565b918210159190565b505090505f905f90565b50600192505f19919050565b1561552257565b60405162461bcd60e51b815260206004820152601260248201527153636f7265206f7574206f662072616e676560701b6044820152606490fd5b6060906020815260126020820152710416d6f756e74206d757374206265203e20360741b60408201520190565b1561559057565b60405162461bcd60e51b81528061073f6004820161555c565b156155b057565b60405162461bcd60e51b81528061073f60048201614ebf565b90816020910312610e70575160ff81168103610e705790565b60ff166012039060ff8211614a9b57565b60ff16604d8111614a9b57600a0a90565b5f8052609f60209081527fa705961f203609058950cfd817eb7a7627c9e270651c936aad3abdfa253727ec546001600160a01b0390811692916040918415615821575f8052609f8252825f2054169384156157e95760a060049495845195868092633fabe5a360e21b82525afa80156157df575f80955f905f93615787575b5061568e9042614af0565b61569661632e565b106157555769ffffffffffffffffffff80911691161061571f57908060049284519384809263313ce56760e01b82525afa928315614d5257506156ef93926126c5926156ea925f926156f2575b50506155e2565b6155f3565b90565b6157119250803d10615718575b6157098183614a60565b8101906155c9565b5f806156e3565b503d6156ff565b50606491519062461bcd60e51b82526004820152601060248201526f5374616c6520726f756e64206461746160801b6044820152fd5b845162461bcd60e51b815260048101859052600b60248201526a5374616c6520707269636560a81b6044820152606490fd5b965050505060a0843d60a0116157d7575b816157a560a09383614a60565b81010312610e70576157b684615c11565b8285015161568e6157ce608060608901519801615c11565b92919690615683565b3d9150615798565b83513d5f823e3d90fd5b50606491519062461bcd60e51b825260048201526012602482015271141c9a58d94819995959081b9bdd081cd95d60721b6044820152fd5b50606491519062461bcd60e51b825260048201526016602482015275115512081c1c9a58d94819995959081b9bdd081cd95d60521b6044820152fd5b6001600160401b038111614a0357601f01601f191660200190565b60ac5460ff8160a01c1680615a4a575b61596b575b5060ab546001600160a01b0391908216806158dd575b50165f52609a60205260405f2054906040516158be81614a45565b600d81526c4c4f43414c5f53544f5241474560981b6020820152905f90565b60c0602491604051928380926335856b7f60e11b825287871660048301525afa5f9181615944575b50156158a35780156158a3579150509060405161592181614a45565b6011815270494e54454752415445445f53595354454d60781b6020820152905f90565b61595e91925060c03d60c0116154a45761548e8183614a60565b505092505050905f615905565b60405163d3dd2bdf60e01b81526001600160a01b038381166004830152909160609183916024918391165afa5f91815f915f93615a25575b506159b0575b505061588d565b80615a13575b6159c1575b806159a9565b6276a7008101809111614a9b574211156159db57806159bb565b6159e59150614d92565b906040516159f281614a45565b600e81526d149254d0cc17d59154925192515160921b602082015290600190565b506001600160401b03821615156159b6565b91509250615a42915060603d6060116151cd576151be8183614a60565b91925f6159a3565b506001600160a01b0381161515615888565b60a0545f805b828110615ad75750615a739061533a565b905f805b828110615a845750505090565b615a8d8161487c565b905460039190911b1c6001600160a01b03165f8181526099602052604090205460ff16615abe575b50600101615a77565b82615ad0916130be6001949588614b2e565b9190615ab5565b615ae08161487c565b60018060a01b0391549060031b1c165f52609960205260ff60405f205416615b0b575b600101615a62565b90615b17600191614b42565b919050615b03565b6004906020615b2d82615c28565b509160018060a01b038091165f52609f825260405f2054166040519384809263313ce56760e01b82525afa8015615b95576156ea6126c5916156ef945f91615b76575b506155e2565b615b8f915060203d602011615718576157098183614a60565b5f615b70565b6040513d5f823e3d90fd5b3d15615bca573d90615bb18261585d565b91615bbf6040519384614a60565b82523d5f602084013e565b606090565b15615bd657565b60405162461bcd60e51b8152602060048201526013602482015272115512081d1c985b9cd9995c8819985a5b1959606a1b6044820152606490fd5b519069ffffffffffffffffffff82168203610e7057565b9060018060a01b03918281165f52609f602052604092835f2054168015615d68579260a0600494825195868092633fabe5a360e21b82525afa8015613d2e575f80935f965f93615d0e575b50615c87615c818842614af0565b916163e3565b10615cdc5769ffffffffffffffffffff809116911610615ca657509190565b5162461bcd60e51b815260206004820152601060248201526f5374616c6520726f756e64206461746160801b6044820152606490fd5b825162461bcd60e51b815260206004820152600b60248201526a5374616c6520707269636560a81b6044820152606490fd5b94509550505060a0823d60a011615d60575b81615d2d60a09383614a60565b81010312610e7057615d3e82615c11565b936020830151615d55608060608601519501615c11565b95909395915f615c73565b3d9150615d20565b835162461bcd60e51b8152602060048201526012602482015271141c9a58d94819995959081b9bdd081cd95d60721b6044820152606490fd5b805f52602060658152604091825f20335f52825260ff835f20541615615dc657505050565b3383519160608301906001600160401b039184811083821117614a03578652602a84528484019086368337845115614868576030825384519360019460011015614868576078602187015360295b858111615fd35750615f91578651926080840190811184821017614a0357875260428352858301936060368637835115614868576030855383516001101561486857607860218501536041905b808211615f4e575050615f0c5761073f938693615ef093615ee1604894615eb89a519a8b957f416363657373436f6e74726f6c3a206163636f756e74200000000000000000008c88015251809260378801906148fa565b8401917001034b99036b4b9b9b4b733903937b6329607d1b6037840152518093868401906148fa565b01036028810187520185614a60565b5192839262461bcd60e51b84526004840152602483019061491b565b60648587519062461bcd60e51b825280600483015260248201527f537472696e67733a20686578206c656e67746820696e73756666696369656e746044820152fd5b9091600f81166010811015614868576f181899199a1a9b1b9c1cb0b131b232b360811b901a615f7d848761643f565b5360041c918015614a9b575f190190615e61565b60648688519062461bcd60e51b825280600483015260248201527f537472696e67733a20686578206c656e67746820696e73756666696369656e746044820152fd5b90600f81166010811015614868576f181899199a1a9b1b9c1cb0b131b232b360811b901a616001838961643f565b5360041c908015614a9b575f1901615e14565b90815f52606560205260405f209060018060a01b031690815f5260205260ff60405f205416616041575050565b815f52606560205260405f20815f5260205260405f2060ff19815416905533917ff6391f5c32d9c69d2a47ea670b442974b53935d1edc7fd64eb21e047a839171b5f80a4565b60ac5460ff8160a01c16806161d6575b616125575b5060ab546001600160a01b0391908216806160c3575b50165f52609a60205260405f205490565b60c0602491604051928380926335856b7f60e11b825287871660048301525afa5f91816160fe575b50156160b25780156160b2575b91505090565b61611891925060c03d60c0116154a45761548e8183614a60565b505092505050905f6160eb565b60405163d3dd2bdf60e01b81526001600160a01b038381166004830152909160609183916024918391165afa5f91815f915f936161b1575b5061616a575b505061609c565b8061619f575b61617b575b80616163565b6276a7008101809111614a9b574211156161955780616175565b6156ef9150614d92565b506001600160401b0382161515616170565b915092506161ce915060603d6060116151cd576151be8183614a60565b91925f61615d565b506001600160a01b0381161515616097565b916161f290616087565b9060058110156149d45761620581614940565b5050806162325750605f11156162185790565b605f810290808204605f1490151715614a9b576064900490565b6001810361626957506055811061625e5750605a810290808204605a1490151715614a9b576064900490565b605211156162185790565b600281036162b65750604b81106162955750605581029080820460551490151715614a9b576064900490565b6048116156ef57605c810290808204605c1490151715614a9b576064900490565b6003146162c1575090565b604181106162e45750605081029080820460501490151715614a9b576064900490565b603e11156162ef5790565b605a810290808204605a1490151715614a9b576064900490565b60ad5490600160401b821015614a0357613f9582600161632c940160ad55614940565b565b5f805260b16020527f8359e41dd58ddca52edd0887711297c9100b1c76786324582672540b24a0a3a854806156ef575060a554604051631a650cc760e01b81525f600482015290602090829060249082906001600160a01b03165afa908115615b95575f916163a9575b506163a35761038490565b610e1090565b90506020813d6020116163db575b816163c460209383614a60565b81010312610e70576163d590614a81565b5f616398565b3d91506163b7565b6001600160a01b039081165f81815260b16020526040902054909190806160f8575060209060a5541691602460405180948193631a650cc760e01b835260048301525afa908115615b95575f916163a957506163a35761038490565b90815181101561486857016020019056fe45892a46e6cef329bb642da6d69846d324db43d19008edc141ed82382eda1bee3c364b9decdac59fbe037e99687219ac0feed46572bfbcbd5284b6b8e67f402da2646970667358221220a22bffd9f9c472954b96a4a8b6eef6a5987c6922e57f15cb4ec482fa53c71d9564736f6c63430008180033",
  "linkReferences": {},
  "deployedLinkReferences": {}
}