{
  "_format": "hh-sol-artifact-1",
  "contractName": "LiquidityPoolCollateral",
  "sourceName": "contracts/LiquidityPoolCollateral.sol",
  "abi": [
    {
      "anonymous": false,
      "inputs": [
        {
          "indexed": true,
          "internalType": "address",
          "name": "token",
          "type": "address"
        },
        {
          "indexed": false,
          "internalType": "bool",
          "name": "isAllowed",
          "type": "bool"
        }
      ],
      "name": "CollateralTokenStatusChanged",
      "type": "event"
    },
    {
      "anonymous": false,
      "inputs": [
        {
          "indexed": false,
          "internalType": "uint8",
          "name": "version",
          "type": "uint8"
        }
      ],
      "name": "Initialized",
      "type": "event"
    },
    {
      "anonymous": false,
      "inputs": [
        {
          "indexed": true,
          "internalType": "bytes32",
          "name": "role",
          "type": "bytes32"
        },
        {
          "indexed": true,
          "internalType": "bytes32",
          "name": "previousAdminRole",
          "type": "bytes32"
        },
        {
          "indexed": true,
          "internalType": "bytes32",
          "name": "newAdminRole",
          "type": "bytes32"
        }
      ],
      "name": "RoleAdminChanged",
      "type": "event"
    },
    {
      "anonymous": false,
      "inputs": [
        {
          "indexed": true,
          "internalType": "bytes32",
          "name": "role",
          "type": "bytes32"
        },
        {
          "indexed": true,
          "internalType": "address",
          "name": "account",
          "type": "address"
        },
        {
          "indexed": true,
          "internalType": "address",
          "name": "sender",
          "type": "address"
        }
      ],
      "name": "RoleGranted",
      "type": "event"
    },
    {
      "anonymous": false,
      "inputs": [
        {
          "indexed": true,
          "internalType": "bytes32",
          "name": "role",
          "type": "bytes32"
        },
        {
          "indexed": true,
          "internalType": "address",
          "name": "account",
          "type": "address"
        },
        {
          "indexed": true,
          "internalType": "address",
          "name": "sender",
          "type": "address"
        }
      ],
      "name": "RoleRevoked",
      "type": "event"
    },
    {
      "anonymous": false,
      "inputs": [
        {
          "indexed": true,
          "internalType": "address",
          "name": "token",
          "type": "address"
        },
        {
          "indexed": false,
          "internalType": "uint256",
          "name": "updatedAt",
          "type": "uint256"
        },
        {
          "indexed": false,
          "internalType": "uint256",
          "name": "currentTime",
          "type": "uint256"
        }
      ],
      "name": "StaleOracleTriggered",
      "type": "event"
    },
    {
      "inputs": [],
      "name": "DEFAULT_ADMIN_ROLE",
      "outputs": [
        {
          "internalType": "bytes32",
          "name": "",
          "type": "bytes32"
        }
      ],
      "stateMutability": "view",
      "type": "function"
    },
    {
      "inputs": [],
      "name": "DEFAULT_STALENESS_STABLE",
      "outputs": [
        {
          "internalType": "uint256",
          "name": "",
          "type": "uint256"
        }
      ],
      "stateMutability": "view",
      "type": "function"
    },
    {
      "inputs": [],
      "name": "DEFAULT_STALENESS_VOLATILE",
      "outputs": [
        {
          "internalType": "uint256",
          "name": "",
          "type": "uint256"
        }
      ],
      "stateMutability": "view",
      "type": "function"
    },
    {
      "inputs": [
        {
          "internalType": "address",
          "name": "token",
          "type": "address"
        },
        {
          "internalType": "address",
          "name": "user",
          "type": "address"
        },
        {
          "internalType": "address",
          "name": "to",
          "type": "address"
        },
        {
          "internalType": "uint256",
          "name": "amount",
          "type": "uint256"
        }
      ],
      "name": "clearCollateral",
      "outputs": [],
      "stateMutability": "nonpayable",
      "type": "function"
    },
    {
      "inputs": [
        {
          "internalType": "address",
          "name": "",
          "type": "address"
        },
        {
          "internalType": "address",
          "name": "",
          "type": "address"
        }
      ],
      "name": "collateralBalance",
      "outputs": [
        {
          "internalType": "uint256",
          "name": "",
          "type": "uint256"
        }
      ],
      "stateMutability": "view",
      "type": "function"
    },
    {
      "inputs": [
        {
          "internalType": "uint256",
          "name": "",
          "type": "uint256"
        }
      ],
      "name": "collateralTokenList",
      "outputs": [
        {
          "internalType": "address",
          "name": "",
          "type": "address"
        }
      ],
      "stateMutability": "view",
      "type": "function"
    },
    {
      "inputs": [
        {
          "internalType": "address",
          "name": "token",
          "type": "address"
        },
        {
          "internalType": "uint256",
          "name": "amount",
          "type": "uint256"
        },
        {
          "internalType": "address",
          "name": "user",
          "type": "address"
        }
      ],
      "name": "depositCollateral",
      "outputs": [],
      "stateMutability": "nonpayable",
      "type": "function"
    },
    {
      "inputs": [
        {
          "internalType": "address",
          "name": "user",
          "type": "address"
        }
      ],
      "name": "depositETHCollateral",
      "outputs": [],
      "stateMutability": "payable",
      "type": "function"
    },
    {
      "inputs": [
        {
          "internalType": "address",
          "name": "",
          "type": "address"
        }
      ],
      "name": "ethCollateralBalance",
      "outputs": [
        {
          "internalType": "uint256",
          "name": "",
          "type": "uint256"
        }
      ],
      "stateMutability": "view",
      "type": "function"
    },
    {
      "inputs": [],
      "name": "getAllowedCollateralTokens",
      "outputs": [
        {
          "internalType": "address[]",
          "name": "",
          "type": "address[]"
        }
      ],
      "stateMutability": "view",
      "type": "function"
    },
    {
      "inputs": [
        {
          "internalType": "address",
          "name": "user",
          "type": "address"
        },
        {
          "internalType": "address",
          "name": "token",
          "type": "address"
        }
      ],
      "name": "getCollateral",
      "outputs": [
        {
          "internalType": "uint256",
          "name": "",
          "type": "uint256"
        }
      ],
      "stateMutability": "view",
      "type": "function"
    },
    {
      "inputs": [
        {
          "internalType": "address",
          "name": "user",
          "type": "address"
        }
      ],
      "name": "getETHCollateral",
      "outputs": [
        {
          "internalType": "uint256",
          "name": "",
          "type": "uint256"
        }
      ],
      "stateMutability": "view",
      "type": "function"
    },
    {
      "inputs": [],
      "name": "getETHPrice",
      "outputs": [
        {
          "internalType": "uint256",
          "name": "",
          "type": "uint256"
        }
      ],
      "stateMutability": "view",
      "type": "function"
    },
    {
      "inputs": [
        {
          "internalType": "address",
          "name": "token",
          "type": "address"
        }
      ],
      "name": "getPriceFeed",
      "outputs": [
        {
          "internalType": "address",
          "name": "",
          "type": "address"
        }
      ],
      "stateMutability": "view",
      "type": "function"
    },
    {
      "inputs": [
        {
          "internalType": "bytes32",
          "name": "role",
          "type": "bytes32"
        }
      ],
      "name": "getRoleAdmin",
      "outputs": [
        {
          "internalType": "bytes32",
          "name": "",
          "type": "bytes32"
        }
      ],
      "stateMutability": "view",
      "type": "function"
    },
    {
      "inputs": [
        {
          "internalType": "address",
          "name": "token",
          "type": "address"
        }
      ],
      "name": "getTokenValue",
      "outputs": [
        {
          "internalType": "uint256",
          "name": "",
          "type": "uint256"
        }
      ],
      "stateMutability": "view",
      "type": "function"
    },
    {
      "inputs": [
        {
          "internalType": "address",
          "name": "user",
          "type": "address"
        }
      ],
      "name": "getTotalCollateralValue",
      "outputs": [
        {
          "internalType": "uint256",
          "name": "",
          "type": "uint256"
        }
      ],
      "stateMutability": "view",
      "type": "function"
    },
    {
      "inputs": [
        {
          "internalType": "bytes32",
          "name": "role",
          "type": "bytes32"
        },
        {
          "internalType": "address",
          "name": "account",
          "type": "address"
        }
      ],
      "name": "grantRole",
      "outputs": [],
      "stateMutability": "nonpayable",
      "type": "function"
    },
    {
      "inputs": [
        {
          "internalType": "bytes32",
          "name": "role",
          "type": "bytes32"
        },
        {
          "internalType": "address",
          "name": "account",
          "type": "address"
        }
      ],
      "name": "hasRole",
      "outputs": [
        {
          "internalType": "bool",
          "name": "",
          "type": "bool"
        }
      ],
      "stateMutability": "view",
      "type": "function"
    },
    {
      "inputs": [
        {
          "internalType": "address",
          "name": "_timelock",
          "type": "address"
        },
        {
          "internalType": "address",
          "name": "_stablecoinManager",
          "type": "address"
        },
        {
          "internalType": "address",
          "name": "_liquidityPoolCore",
          "type": "address"
        }
      ],
      "name": "initialize",
      "outputs": [],
      "stateMutability": "nonpayable",
      "type": "function"
    },
    {
      "inputs": [
        {
          "internalType": "address",
          "name": "",
          "type": "address"
        }
      ],
      "name": "isAllowedCollateral",
      "outputs": [
        {
          "internalType": "bool",
          "name": "",
          "type": "bool"
        }
      ],
      "stateMutability": "view",
      "type": "function"
    },
    {
      "inputs": [
        {
          "internalType": "address",
          "name": "token",
          "type": "address"
        }
      ],
      "name": "isAllowedCollateralToken",
      "outputs": [
        {
          "internalType": "bool",
          "name": "",
          "type": "bool"
        }
      ],
      "stateMutability": "view",
      "type": "function"
    },
    {
      "inputs": [],
      "name": "liquidityPoolCore",
      "outputs": [
        {
          "internalType": "contract ILiquidityPoolCore",
          "name": "",
          "type": "address"
        }
      ],
      "stateMutability": "view",
      "type": "function"
    },
    {
      "inputs": [
        {
          "internalType": "address",
          "name": "",
          "type": "address"
        }
      ],
      "name": "maxPriceAge",
      "outputs": [
        {
          "internalType": "uint256",
          "name": "",
          "type": "uint256"
        }
      ],
      "stateMutability": "view",
      "type": "function"
    },
    {
      "inputs": [
        {
          "internalType": "address",
          "name": "",
          "type": "address"
        }
      ],
      "name": "priceFeed",
      "outputs": [
        {
          "internalType": "address",
          "name": "",
          "type": "address"
        }
      ],
      "stateMutability": "view",
      "type": "function"
    },
    {
      "inputs": [
        {
          "internalType": "address",
          "name": "token",
          "type": "address"
        },
        {
          "internalType": "uint256",
          "name": "amount",
          "type": "uint256"
        },
        {
          "internalType": "address",
          "name": "user",
          "type": "address"
        }
      ],
      "name": "recoverFromLiquidation",
      "outputs": [],
      "stateMutability": "nonpayable",
      "type": "function"
    },
    {
      "inputs": [
        {
          "internalType": "bytes32",
          "name": "role",
          "type": "bytes32"
        },
        {
          "internalType": "address",
          "name": "account",
          "type": "address"
        }
      ],
      "name": "renounceRole",
      "outputs": [],
      "stateMutability": "nonpayable",
      "type": "function"
    },
    {
      "inputs": [
        {
          "internalType": "bytes32",
          "name": "role",
          "type": "bytes32"
        },
        {
          "internalType": "address",
          "name": "account",
          "type": "address"
        }
      ],
      "name": "revokeRole",
      "outputs": [],
      "stateMutability": "nonpayable",
      "type": "function"
    },
    {
      "inputs": [
        {
          "internalType": "address",
          "name": "token",
          "type": "address"
        },
        {
          "internalType": "bool",
          "name": "allowed",
          "type": "bool"
        }
      ],
      "name": "setAllowedCollateral",
      "outputs": [],
      "stateMutability": "nonpayable",
      "type": "function"
    },
    {
      "inputs": [
        {
          "internalType": "address",
          "name": "_liquidityPoolCore",
          "type": "address"
        }
      ],
      "name": "setLiquidityPoolCore",
      "outputs": [],
      "stateMutability": "nonpayable",
      "type": "function"
    },
    {
      "inputs": [
        {
          "internalType": "address",
          "name": "token",
          "type": "address"
        },
        {
          "internalType": "uint256",
          "name": "age",
          "type": "uint256"
        }
      ],
      "name": "setMaxPriceAge",
      "outputs": [],
      "stateMutability": "nonpayable",
      "type": "function"
    },
    {
      "inputs": [
        {
          "internalType": "address",
          "name": "token",
          "type": "address"
        },
        {
          "internalType": "address",
          "name": "feed",
          "type": "address"
        }
      ],
      "name": "setPriceFeed",
      "outputs": [],
      "stateMutability": "nonpayable",
      "type": "function"
    },
    {
      "inputs": [],
      "name": "stablecoinManager",
      "outputs": [
        {
          "internalType": "contract StablecoinManager",
          "name": "",
          "type": "address"
        }
      ],
      "stateMutability": "view",
      "type": "function"
    },
    {
      "inputs": [
        {
          "internalType": "bytes4",
          "name": "interfaceId",
          "type": "bytes4"
        }
      ],
      "name": "supportsInterface",
      "outputs": [
        {
          "internalType": "bool",
          "name": "",
          "type": "bool"
        }
      ],
      "stateMutability": "view",
      "type": "function"
    },
    {
      "inputs": [],
      "name": "timelock",
      "outputs": [
        {
          "internalType": "address",
          "name": "",
          "type": "address"
        }
      ],
      "stateMutability": "view",
      "type": "function"
    },
    {
      "inputs": [
        {
          "internalType": "address",
          "name": "token",
          "type": "address"
        },
        {
          "internalType": "uint256",
          "name": "amount",
          "type": "uint256"
        },
        {
          "internalType": "address",
          "name": "user",
          "type": "address"
        }
      ],
      "name": "withdrawCollateral",
      "outputs": [],
      "stateMutability": "nonpayable",
      "type": "function"
    },
    {
      "inputs": [
        {
          "internalType": "uint256",
          "name": "amount",
          "type": "uint256"
        },
        {
          "internalType": "address",
          "name": "user",
          "type": "address"
        }
      ],
      "name": "withdrawETHCollateral",
      "outputs": [],
      "stateMutability": "nonpayable",
      "type": "function"
    },
    {
      "inputs": [
        {
          "internalType": "address",
          "name": "token",
          "type": "address"
        },
        {
          "internalType": "uint256",
          "name": "amount",
          "type": "uint256"
        },
        {
          "internalType": "address",
          "name": "user",
          "type": "address"
        }
      ],
      "name": "withdrawPartialCollateral",
      "outputs": [],
      "stateMutability": "nonpayable",
      "type": "function"
    },
    {
      "stateMutability": "payable",
      "type": "receive"
    }
  ],
  "bytecode": "0x6080806040523461001657612413908161001b8239f35b5f80fdfe608060409080825260049081361015610085575b50361561001e575f80fd5b816020608493519262461bcd60e51b845283015260248201527f557365206465706f736974455448436f6c6c61746572616c28292066756e637460448201527f696f6e20746f206465706f7369742045544820617320636f6c6c61746572616c6064820152fd5b5f3560e01c90816301ffc9a7146116e7575080630305daee1461143d5780630b044c79146114215780630c43db0d146106a55780631f1088a0146111d15780631f9d691114610f605780631fd48b9a14610b065780632242548014610e7b578063248a9ca314610e505780632f2ff15d14610dae57806336568abe14610d1e5780633751b5ef14610cf65780634329cc1d146109b757806352226ef014610cae57806355f4d9e214610b5b5780635b66e7fc14610b3f5780635b6cca8014610b065780636579b73e14610acf5780636c648fc4146109f35780637346f486146109b757806376e112861461095d57806391d1485414610918578063a217fddf146108fe578063a607a8d9146108e2578063b3a5a0a2146108a3578063c0c53b8b146106dc578063c8c5a3a5146106a5578063c941f3211461067d578063cd9887ef146105b7578063cf17622514610551578063d33219b414610529578063d547741f146104ee578063d93a363e14610469578063ddac7f1b146103e9578063e7602b9d146103a0578063f163d94e1461034d578063f1c5d6c2146103215763ffd4aedb14610233575f610013565b903461031d57608036600319011261031d5760206102d89261025361174f565b61025b611739565b915f610265611765565b916064359460018060a01b03809561028282609e541633146117f8565b1694858452609788528884209116835286528682206102a28682546118d8565b9055865163a9059cbb60e01b81526001600160a01b03909316908301908152602081019490945290958693849291839160400190565b03925af190811561031457506102ea57005b61030b9060203d60201161030d575b61030381836118a2565b8101906119a7565b005b503d6102f9565b513d5f823e3d90fd5b5f80fd5b823461031d57602036600319011261031d5760209061034661034161174f565b611dc8565b9051908152f35b82602036600319011261031d5761036261174f565b609e546001600160a01b03919061037c90831633146117f8565b61038734151561183a565b165f5260986020525f2061039c3482546119bf565b9055005b823461031d578060031936011261031d576020906103bc61174f565b6103c4611739565b9060018060a01b038091165f5260978452825f2091165f528252805f20549051908152f35b50903461031d578060031936011261031d5761040361174f565b609f54602435936001600160a01b03929161042190841633146119cc565b62015180851161043a5750165f908152609c6020522055005b606490602085519162461bcd60e51b83528201526009602482015268546f6f206c6172676560b81b6044820152fd5b503461031d57602036600319011261031d5761048361174f565b609f546001600160a01b03919061049d90831633146119cc565b169182156104b957609e80546001600160a01b03191684179055005b906020606492519162461bcd60e51b8352820152600f60248201526e496e76616c6964206164647265737360881b6044820152fd5b50903461031d578060031936011261031d5761030b91356105246001610512611739565b93835f5260656020525f200154611f8e565b61221a565b823461031d575f36600319011261031d57609f5490516001600160a01b039091168152602090f35b823461031d575f36600319011261031d5761056a611cd6565b908051918291602090602080850191818652845180935285019301915f5b82811061059757505050500390f35b83516001600160a01b031685528695509381019392810192600101610588565b503461031d57610621916105ca3661177b565b91909360208560018060a01b0380946105e882609e541633146117f8565b87516323b872dd60e01b81526001600160a01b038816958101958652306020870152604086019390935291989116928891829160600190565b03815f855af19586156106735761039c9596610654575b505f526097602052825f2091165f526020525f209182546119bf565b61066c9060203d60201161030d5761030381836118a2565b505f610638565b84513d5f823e3d90fd5b823461031d575f36600319011261031d57609d5490516001600160a01b039091168152602090f35b823461031d57602036600319011261031d576020906001600160a01b036106ca61174f565b165f5260988252805f20549051908152f35b503461031d57606036600319011261031d576106f661174f565b6106fe611739565b90610707611765565b915f549260ff8460081c161593848095610896575b801561087f575b156108255760ff1981166001175f5584610813575b505f549460ff8660081c16156107bc575060018060a01b038092816bffffffffffffffffffffffff60a01b951685609f541617609f551683609d541617609d551690609e541617609e5561078857005b61ff0019165f5551600181527f7f26b83ff96e1f2b6a682f133852f6798a09c465da95921460cefb384740249890602090a1005b608490602088519162461bcd60e51b8352820152602b60248201527f496e697469616c697a61626c653a20636f6e7472616374206973206e6f74206960448201526a6e697469616c697a696e6760a81b6064820152fd5b61ffff1916610101175f908155610738565b865162461bcd60e51b8152602081880152602e60248201527f496e697469616c697a61626c653a20636f6e747261637420697320616c72656160448201526d191e481a5b9a5d1a585b1a5e995960921b6064820152608490fd5b50303b1580156107235750600160ff821614610723565b50600160ff82161061071c565b503461031d57602036600319011261031d573590609b5482101561031d576108cc6020926117af565b905491519160018060a01b039160031b1c168152f35b823461031d575f36600319011261031d57602090610346611a57565b823461031d575f36600319011261031d57602090515f8152f35b50903461031d578060031936011261031d57602091610935611739565b90355f5260658352815f209060018060a01b03165f52825260ff815f20541690519015158152f35b823461031d578060031936011261031d5761097661174f565b61097e611739565b9160018060a01b03809261099782609f541633146119cc565b165f908152609a6020522080546001600160a01b03191691909216179055005b823461031d57602036600319011261031d576020906001600160a01b036109dc61174f565b165f526099825260ff815f20541690519015158152f35b823461031d5760208060031936011261031d57610a0e61174f565b905f60018060a01b0380931693845f526098602052805f205480610aaf575b50610a36611cd6565b945f5b8651811015610aa55785610a4d8289611a08565b5116805f5260978652835f20835f528652835f20549081610a73575b5050600101610a39565b94670de0b6b3a7640000610a96610a9d93610a9060019699611dc8565b9061187b565b04906119bf565b939088610a69565b6020848451908152f35b670de0b6b3a7640000919250610ac790610a90611a57565b049085610a2d565b823461031d57602036600319011261031d576020906001600160a01b03610af461174f565b165f52609c8252805f20549051908152f35b823461031d57602036600319011261031d576020906001600160a01b0380610b2c61174f565b165f52609a8352815f2054169051908152f35b823461031d575f36600319011261031d57602090516103848152f35b50903461031d578060031936011261031d57610b7561174f565b90602435918215159283810361031d57609f546001600160a01b03928391610ba090831633146119cc565b1694855f526099602052835f2060ff1981541660ff87161790555f915f92609b54935b848110610c84575b5081610c7b575b50610c05575b857f15f5cc64ca777db85f6c05fdba671568758b38329616d4d4b43bb8b092fe9a8d6020878751908152a2005b68010000000000000000821015610c685750917f15f5cc64ca777db85f6c05fdba671568758b38329616d4d4b43bb8b092fe9a8d9391610c4d84600160209601609b556117af565b819291549060031b9188831b921b1916179055918193610bd8565b604190634e487b7160e01b5f525260245ffd5b9050155f610bd2565b8886610c8f836117af565b90549060031b1c1614610ca457600101610bc3565b505060015f610bcb565b823461031d578060031936011261031d57602090610cca61174f565b6001600160a01b0380610cdb611739565b165f5260978452825f2091165f528252805f20549051908152f35b823461031d575f36600319011261031d57609e5490516001600160a01b039091168152602090f35b503461031d578160031936011261031d57610d37611739565b90336001600160a01b03831603610d535761030b92503561221a565b608490602084519162461bcd60e51b8352820152602f60248201527f416363657373436f6e74726f6c3a2063616e206f6e6c792072656e6f756e636560448201526e103937b632b9903337b91039b2b63360891b6064820152fd5b503461031d578160031936011261031d573590610dc9611739565b90825f526065602052610de16001825f200154611f8e565b825f526065602052805f209160018060a01b031691825f5260205260ff815f20541615610e0a57005b825f526065602052805f20825f526020525f20600160ff1982541617905533917f2f8788117e7eff1d82e926ec794901d17c78024a50270940304540a733656f0d5f80a4005b50903461031d57602036600319011261031d57602091355f52606582526001815f2001549051908152f35b503461031d57610f0991610e8e3661177b565b91819460018060a01b038092610ea982609e541633146117f8565b1690815f52602093849160998352610ec660ff895f20541661194c565b610ed182151561183a565b87516323b872dd60e01b81526001600160a01b0388169181019182523060208301526040820192909252909889918291606090910190565b03815f855af1968715610f565761039c9697610f39575b505f5260978252835f2092165f52525f209182546119bf565b610f4f90843d861161030d5761030381836118a2565b505f610f20565b85513d5f823e3d90fd5b50903461031d57610f703661177b565b609e546001600160a01b0390811694939190610f8d3387146117f8565b610f9884151561183a565b80831692835f5260209660978852865f2092841692835f52885285875f20541061118e57865163b69e5c7760e01b8152898101849052918883602481855afa928315611155575f9361115f575b508261103f575b505050905f8697849361101798969583526097875287832090835286528682206102a28682546118d8565b03925af1908115610314575061102957005b8161030b92903d1061030d5761030381836118a2565b611071670de0b6b3a764000091875f5260978b52895f20865f528b52610a9061106b8a8c5f20546118d8565b91611dc8565b049160608460248c8b5195869384926338053ef360e01b84528301525afa91821561115557916110ab916064935f92611122575b5061187b565b04116110b9575f8080610fec565b845162461bcd60e51b8152808801879052603b60248201527f5769746864726177616c20776f756c642076696f6c61746520746965722d626160448201527f73656420636f6c6c61746572616c20726571756972656d656e747300000000006064820152608490fd5b61114591925060603d60601161114e575b61113d81836118a2565b81019061198c565b5050905f6110a5565b503d611133565b88513d5f823e3d90fd5b9092508881813d8311611187575b61117781836118a2565b8101031261031d5751915f610fe5565b503d61116d565b865162461bcd60e51b8152808a01899052601760248201527f496e73756666696369656e7420636f6c6c61746572616c0000000000000000006044820152606490fd5b50903461031d576111e13661177b565b609e549293926001600160a01b0390811691906111ff3384146117f8565b80861692835f526020966099885261121c60ff885f20541661194c565b845f5260978852865f2092841692835f52885285875f2054106113e7578651631b1923f160e21b8152898101849052908882602481305afa918215611155575f926113b0575b5090670de0b6b3a764000061128261127c61128994611dc8565b8961187b565b04906118d8565b90865163b69e5c7760e01b8152838a8201528881602481855afa908115611155575f91611383575b50806112e257505050905f8697849361101798969583526097875287832090835286528682206102a28682546118d8565b60608460248c8b5195869384926338053ef360e01b84528301525afa918215611155575f92611360575b5060648302928084046064149015171561134d57926113405f936113398b9c946110179c9a99989761187b565b11156118e5565b9293949597819950610fec565b60118a634e487b7160e01b5f525260245ffd5b61137a91925060603d60601161114e5761113d81836118a2565b5050905f61130c565b90508881813d83116113a9575b61139a81836118a2565b8101031261031d57515f6112b1565b503d611390565b91508882813d83116113e0575b6113c781836118a2565b8101031261031d57905190670de0b6b3a7640000611262565b503d6113bd565b865162461bcd60e51b8152808a018990526014602482015273496e73756666696369656e742062616c616e636560601b6044820152606490fd5b823461031d575f36600319011261031d5760209051610e108152f35b503461031d578160031936011261031d578035611458611739565b609e546001600160a01b0390811692916114733385146117f8565b1690815f526020926098845281865f2054106116a35761149482151561183a565b670de0b6b3a76400006114ae6114a8611a57565b8461187b565b04865190631b1923f160e21b825284878301528582602481305afa8015611155575f90611674575b6114e092506118d8565b90865163b69e5c7760e01b815284878201528581602481855afa90811561115557879287915f93611642575b50826115c2575b50505050505f808093928382948352609887528883206115348382546118d8565b90555af13d156115bd573d67ffffffffffffffff81116115aa57845190611564601f8201601f19168501836118a2565b81525f833d92013e5b1561157457005b606492519162461bcd60e51b83528201526013602482015272115512081d1c985b9cd9995c8819985a5b1959606a1b6044820152fd5b604184634e487b7160e01b5f525260245ffd5b61156d565b895163304a754160e21b815293849182905afa918215611155575f92611611575b50925f9461160486959460646115fc889796889761187b565b0411156118e5565b945092869150855f611513565b939091508584813d831161163b575b61162a81836118a2565b8101031261031d579251905f6115e3565b503d611620565b9350915082813d831161166d575b61165a81836118a2565b8101031261031d5785879251915f61150c565b503d611650565b508582813d831161169c575b61168a81836118a2565b8101031261031d576114e091516114d6565b503d611680565b5050925162461bcd60e51b815291820152601860248201527f496e73756666696369656e74204554482062616c616e63650000000000000000604482015260649150fd5b823461031d57602036600319011261031d57359063ffffffff60e01b821680920361031d57602091637965db0b60e01b8114908115611728575b5015158152f35b6301ffc9a760e01b14905083611721565b602435906001600160a01b038216820361031d57565b600435906001600160a01b038216820361031d57565b604435906001600160a01b038216820361031d57565b606090600319011261031d576001600160a01b03600435818116810361031d579160243591604435908116810361031d5790565b609b548110156117e457609b5f527fbba9db4cdbea0a37c207bbb83e20f828cd4441c49891101dc94fd20dc8efc34901905f90565b634e487b7160e01b5f52603260045260245ffd5b156117ff57565b60405162461bcd60e51b815260206004820152601360248201527213db9b1e481b1a5c5d5a591a5d1e481c1bdbdb606a1b6044820152606490fd5b1561184157565b60405162461bcd60e51b81526020600482015260126024820152710416d6f756e74206d757374206265203e20360741b6044820152606490fd5b8181029291811591840414171561188e57565b634e487b7160e01b5f52601160045260245ffd5b90601f8019910116810190811067ffffffffffffffff8211176118c457604052565b634e487b7160e01b5f52604160045260245ffd5b9190820391821161188e57565b156118ec57565b60405162461bcd60e51b815260206004820152603260248201527f5769746864726177616c20776f756c64206d616b6520706f736974696f6e20756044820152711b99195c98dbdb1b185d195c985b1a5e995960721b6064820152608490fd5b1561195357565b60405162461bcd60e51b8152602060048201526011602482015270151bdad95b881b9bdd08185b1b1bddd959607a1b6044820152606490fd5b9081606091031261031d578051916040602083015192015190565b9081602091031261031d5751801515810361031d5790565b9190820180921161188e57565b156119d357565b60405162461bcd60e51b815260206004820152600d60248201526c4f6e6c792074696d656c6f636b60981b6044820152606490fd5b80518210156117e45760209160051b010190565b9081602091031261031d575160ff8116810361031d5790565b60ff166012039060ff821161188e57565b60ff16604d811161188e57600a0a90565b5f8052609a60209081527fbe6620bd3346e5d7f8387fbec0981aa0d6289d22efa7c935f9ef6841bf2a98c7546001600160a01b0390811692916040918415611c74575f8052609a8252825f205416938415611c3c5760a060049495845195868092633fabe5a360e21b82525afa8015611c32575f80955f905f93611bda575b50611ae190426118d8565b611ae96122c5565b10611ba85769ffffffffffffffffffff809116911610611b7257908060049284519384809263313ce56760e01b82525afa9283156103145750611b429392610a9092611b3d925f92611b45575b5050611a35565b611a46565b90565b611b649250803d10611b6b575b611b5c81836118a2565b810190611a1c565b5f80611b36565b503d611b52565b50606491519062461bcd60e51b82526004820152601060248201526f5374616c6520726f756e64206461746160801b6044820152fd5b845162461bcd60e51b815260048101859052600b60248201526a5374616c6520707269636560a81b6044820152606490fd5b965050505060a0843d60a011611c2a575b81611bf860a093836118a2565b8101031261031d57611c098461228d565b82850151611ae1611c2160806060890151980161228d565b92919690611ad6565b3d9150611beb565b83513d5f823e3d90fd5b50606491519062461bcd60e51b825260048201526012602482015271141c9a58d94819995959081b9bdd081cd95d60721b6044820152fd5b50606491519062461bcd60e51b825260048201526016602482015275115512081c1c9a58d94819995959081b9bdd081cd95d60521b6044820152fd5b5f19811461188e5760010190565b67ffffffffffffffff81116118c45760051b60200190565b5f80609b54905b818110611d805750611cee82611cbe565b91611d0a604091611d0260405195866118a2565b808552611cbe565b602090601f190136858301375f915f5b848110611d2957505050505090565b611d32816117af565b905460039190911b1c6001600160a01b03165f818152609985528390205460ff16611d61575b50600101611d1a565b84611d7991611d73600194978a611a08565b52611cb0565b9390611d58565b611d89816117af565b60018060a01b0391549060031b1c165f52609960205260ff60405f205416611db4575b600101611cdd565b91611dc0600191611cb0565b929050611dac565b9060018060a01b0380831690815f52602090609a825260409281845f205416958615611f555760a060049697865197888092633fabe5a360e21b82525afa908115610f56575f905f975f905f94611ef6575b50611e28611e2e91426118d8565b9161236a565b10611ec45769ffffffffffffffffffff809116911610611e8d579180916004935f52609a8252845f20541684519384809263313ce56760e01b82525afa9283156103145750611b429392610a9092611b3d925f92611b45575050611a35565b835162461bcd60e51b815260048101849052601060248201526f5374616c6520726f756e64206461746160801b6044820152606490fd5b855162461bcd60e51b815260048101869052600b60248201526a5374616c6520707269636560a81b6044820152606490fd5b98505091505060a0863d60a011611f4d575b81611f1560a093836118a2565b8101031261031d57611f268661228d565b908487015190611e2e611e28611f43608060608c01519b0161228d565b9493999150611e1a565b3d9150611f08565b845162461bcd60e51b8152600481018590526012602482015271141c9a58d94819995959081b9bdd081cd95d60721b6044820152606490fd5b805f526020606581526040805f20335f52825260ff815f20541615611fb257505050565b8051923367ffffffffffffffff60608601818111878210176118c4578452602a865284860192843685378651156117e45760308453865192600193600110156117e4576078602189015360295b8481116121d957506121975784519160808301908111838210176118c4578552604282528582019260603685378251156117e457603084538251600110156117e457607860218401536041905b80821161215457505061211257926120e060486120d19794612104946044989785519a8b936120a88b86019a7f416363657373436f6e74726f6c3a206163636f756e74200000000000000000008c5251809260378801906122a4565b8401917001034b99036b4b9b9b4b733903937b6329607d1b6037840152518093868401906122a4565b010360288101895201876118a2565b5194859362461bcd60e51b85526004850152518092816024860152858501906122a4565b601f01601f19168101030190fd5b60648585519062461bcd60e51b825280600483015260248201527f537472696e67733a20686578206c656e67746820696e73756666696369656e746044820152fd5b9091600f811660108110156117e4576f181899199a1a9b1b9c1cb0b131b232b360811b901a61218384866123cc565b5360041c91801561188e575f19019061204c565b60648686519062461bcd60e51b825280600483015260248201527f537472696e67733a20686578206c656e67746820696e73756666696369656e746044820152fd5b90600f811660108110156117e4576f181899199a1a9b1b9c1cb0b131b232b360811b901a612207838b6123cc565b5360041c90801561188e575f1901611fff565b90815f52606560205260405f209060018060a01b031690815f5260205260ff60405f205416612247575050565b815f52606560205260405f20815f5260205260405f2060ff19815416905533917ff6391f5c32d9c69d2a47ea670b442974b53935d1edc7fd64eb21e047a839171b5f80a4565b519069ffffffffffffffffffff8216820361031d57565b5f5b8381106122b55750505f910152565b81810151838201526020016122a6565b5f8052609c6020527f21d5695aeb71770b4b420e85352fe1a012fa06ae92de02f7ee513765e0afa0235480611b425750609d54604051631a650cc760e01b81525f600482015290602090829060249082906001600160a01b03165afa90811561235f575f91612340575b5061233a5761038490565b610e1090565b612359915060203d60201161030d5761030381836118a2565b5f61232f565b6040513d5f823e3d90fd5b6001600160a01b039081165f818152609c6020526040902054909190806123c65750602090609d541691602460405180948193631a650cc760e01b835260048301525afa90811561235f575f91612340575061233a5761038490565b91505090565b9081518110156117e457016020019056fea26469706673582212204a43bf20ba56d093fa3bfedf2cd0ac3a4a79c563658da058764f16af1db3685464736f6c63430008180033",
  "linkReferences": {},
  "deployedLinkReferences": {}
}