{
  "_format": "hh-sol-artifact-1",
  "contractName": "LiquidityPool",
  "sourceName": "backend/contracts/LiquidityPool.sol",
  "abi": [
    {
      "inputs": [],
      "name": "AccessControlBadConfirmation",
      "type": "error"
    },
    {
      "inputs": [
        {
          "internalType": "address",
          "name": "account",
          "type": "address"
        },
        {
          "internalType": "bytes32",
          "name": "neededRole",
          "type": "bytes32"
        }
      ],
      "name": "AccessControlUnauthorizedAccount",
      "type": "error"
    },
    {
      "inputs": [],
      "name": "InvalidInitialization",
      "type": "error"
    },
    {
      "inputs": [],
      "name": "NotInitializing",
      "type": "error"
    },
    {
      "inputs": [],
      "name": "OnlyTimelockLiquidityPool",
      "type": "error"
    },
    {
      "anonymous": false,
      "inputs": [
        {
          "indexed": true,
          "internalType": "address",
          "name": "user",
          "type": "address"
        },
        {
          "indexed": false,
          "internalType": "uint256",
          "name": "amount",
          "type": "uint256"
        }
      ],
      "name": "Borrowed",
      "type": "event"
    },
    {
      "anonymous": false,
      "inputs": [
        {
          "indexed": true,
          "internalType": "address",
          "name": "user",
          "type": "address"
        },
        {
          "indexed": true,
          "internalType": "address",
          "name": "token",
          "type": "address"
        },
        {
          "indexed": false,
          "internalType": "uint256",
          "name": "amount",
          "type": "uint256"
        }
      ],
      "name": "CollateralDeposited",
      "type": "event"
    },
    {
      "anonymous": false,
      "inputs": [
        {
          "indexed": true,
          "internalType": "address",
          "name": "token",
          "type": "address"
        },
        {
          "indexed": false,
          "internalType": "bool",
          "name": "isAllowed",
          "type": "bool"
        }
      ],
      "name": "CollateralTokenStatusChanged",
      "type": "event"
    },
    {
      "anonymous": false,
      "inputs": [
        {
          "indexed": true,
          "internalType": "address",
          "name": "user",
          "type": "address"
        },
        {
          "indexed": true,
          "internalType": "address",
          "name": "token",
          "type": "address"
        },
        {
          "indexed": false,
          "internalType": "uint256",
          "name": "amount",
          "type": "uint256"
        }
      ],
      "name": "CollateralWithdrawn",
      "type": "event"
    },
    {
      "anonymous": false,
      "inputs": [
        {
          "indexed": true,
          "internalType": "address",
          "name": "user",
          "type": "address"
        },
        {
          "indexed": false,
          "internalType": "uint256",
          "name": "score",
          "type": "uint256"
        }
      ],
      "name": "CreditScoreAssigned",
      "type": "event"
    },
    {
      "anonymous": false,
      "inputs": [
        {
          "indexed": true,
          "internalType": "address",
          "name": "oldSystem",
          "type": "address"
        },
        {
          "indexed": true,
          "internalType": "address",
          "name": "newSystem",
          "type": "address"
        }
      ],
      "name": "CreditSystemUpdated",
      "type": "event"
    },
    {
      "anonymous": false,
      "inputs": [
        {
          "indexed": false,
          "internalType": "bool",
          "name": "isPaused",
          "type": "bool"
        }
      ],
      "name": "EmergencyPaused",
      "type": "event"
    },
    {
      "anonymous": false,
      "inputs": [
        {
          "indexed": true,
          "internalType": "address",
          "name": "user",
          "type": "address"
        },
        {
          "indexed": false,
          "internalType": "uint256",
          "name": "amount",
          "type": "uint256"
        },
        {
          "indexed": false,
          "internalType": "string",
          "name": "feeType",
          "type": "string"
        },
        {
          "indexed": false,
          "internalType": "uint256",
          "name": "tier",
          "type": "uint256"
        }
      ],
      "name": "FeeCollected",
      "type": "event"
    },
    {
      "anonymous": false,
      "inputs": [
        {
          "indexed": true,
          "internalType": "address",
          "name": "user",
          "type": "address"
        },
        {
          "indexed": false,
          "internalType": "uint256",
          "name": "newDeadline",
          "type": "uint256"
        }
      ],
      "name": "GracePeriodExtended",
      "type": "event"
    },
    {
      "anonymous": false,
      "inputs": [
        {
          "indexed": false,
          "internalType": "uint64",
          "name": "version",
          "type": "uint64"
        }
      ],
      "name": "Initialized",
      "type": "event"
    },
    {
      "anonymous": false,
      "inputs": [
        {
          "indexed": true,
          "internalType": "address",
          "name": "user",
          "type": "address"
        },
        {
          "indexed": true,
          "internalType": "address",
          "name": "liquidator",
          "type": "address"
        },
        {
          "indexed": false,
          "internalType": "uint256",
          "name": "amount",
          "type": "uint256"
        }
      ],
      "name": "LiquidationExecuted",
      "type": "event"
    },
    {
      "anonymous": false,
      "inputs": [
        {
          "indexed": true,
          "internalType": "address",
          "name": "user",
          "type": "address"
        }
      ],
      "name": "LiquidationStarted",
      "type": "event"
    },
    {
      "anonymous": false,
      "inputs": [
        {
          "indexed": true,
          "internalType": "address",
          "name": "applicant",
          "type": "address"
        },
        {
          "indexed": false,
          "internalType": "uint256",
          "name": "amount",
          "type": "uint256"
        },
        {
          "indexed": false,
          "internalType": "uint256",
          "name": "collateral",
          "type": "uint256"
        }
      ],
      "name": "LoanApplied",
      "type": "event"
    },
    {
      "anonymous": false,
      "inputs": [
        {
          "indexed": true,
          "internalType": "address",
          "name": "applicant",
          "type": "address"
        },
        {
          "indexed": false,
          "internalType": "uint256",
          "name": "amount",
          "type": "uint256"
        }
      ],
      "name": "LoanApproved",
      "type": "event"
    },
    {
      "anonymous": false,
      "inputs": [
        {
          "indexed": true,
          "internalType": "address",
          "name": "borrower",
          "type": "address"
        },
        {
          "indexed": false,
          "internalType": "uint256",
          "name": "amount",
          "type": "uint256"
        },
        {
          "indexed": false,
          "internalType": "uint256",
          "name": "rate",
          "type": "uint256"
        }
      ],
      "name": "LoanDisbursed",
      "type": "event"
    },
    {
      "anonymous": false,
      "inputs": [
        {
          "indexed": true,
          "internalType": "address",
          "name": "borrower",
          "type": "address"
        }
      ],
      "name": "LoanFullyRepaid",
      "type": "event"
    },
    {
      "anonymous": false,
      "inputs": [
        {
          "indexed": true,
          "internalType": "address",
          "name": "borrower",
          "type": "address"
        },
        {
          "indexed": false,
          "internalType": "uint256",
          "name": "amount",
          "type": "uint256"
        },
        {
          "indexed": false,
          "internalType": "uint256",
          "name": "remaining",
          "type": "uint256"
        }
      ],
      "name": "LoanInstallmentPaid",
      "type": "event"
    },
    {
      "anonymous": false,
      "inputs": [
        {
          "indexed": true,
          "internalType": "address",
          "name": "borrower",
          "type": "address"
        },
        {
          "indexed": false,
          "internalType": "uint256",
          "name": "penalty",
          "type": "uint256"
        }
      ],
      "name": "LoanLatePenaltyApplied",
      "type": "event"
    },
    {
      "anonymous": false,
      "inputs": [
        {
          "indexed": true,
          "internalType": "address",
          "name": "applicant",
          "type": "address"
        },
        {
          "indexed": false,
          "internalType": "uint256",
          "name": "amount",
          "type": "uint256"
        }
      ],
      "name": "LoanRejected",
      "type": "event"
    },
    {
      "anonymous": false,
      "inputs": [
        {
          "indexed": true,
          "internalType": "address",
          "name": "user",
          "type": "address"
        },
        {
          "indexed": true,
          "internalType": "address",
          "name": "liquidator",
          "type": "address"
        },
        {
          "indexed": true,
          "internalType": "address",
          "name": "collateralToken",
          "type": "address"
        },
        {
          "indexed": false,
          "internalType": "uint256",
          "name": "collateralSeized",
          "type": "uint256"
        },
        {
          "indexed": false,
          "internalType": "uint256",
          "name": "debtRepaid",
          "type": "uint256"
        }
      ],
      "name": "PartialLiquidation",
      "type": "event"
    },
    {
      "anonymous": false,
      "inputs": [
        {
          "indexed": true,
          "internalType": "address",
          "name": "user",
          "type": "address"
        },
        {
          "indexed": false,
          "internalType": "uint256",
          "name": "amount",
          "type": "uint256"
        }
      ],
      "name": "Repaid",
      "type": "event"
    },
    {
      "anonymous": false,
      "inputs": [
        {
          "indexed": true,
          "internalType": "address",
          "name": "newReserve",
          "type": "address"
        }
      ],
      "name": "ReserveAddressUpdated",
      "type": "event"
    },
    {
      "anonymous": false,
      "inputs": [
        {
          "indexed": true,
          "internalType": "bytes32",
          "name": "role",
          "type": "bytes32"
        },
        {
          "indexed": true,
          "internalType": "bytes32",
          "name": "previousAdminRole",
          "type": "bytes32"
        },
        {
          "indexed": true,
          "internalType": "bytes32",
          "name": "newAdminRole",
          "type": "bytes32"
        }
      ],
      "name": "RoleAdminChanged",
      "type": "event"
    },
    {
      "anonymous": false,
      "inputs": [
        {
          "indexed": true,
          "internalType": "bytes32",
          "name": "role",
          "type": "bytes32"
        },
        {
          "indexed": true,
          "internalType": "address",
          "name": "account",
          "type": "address"
        },
        {
          "indexed": true,
          "internalType": "address",
          "name": "sender",
          "type": "address"
        }
      ],
      "name": "RoleGranted",
      "type": "event"
    },
    {
      "anonymous": false,
      "inputs": [
        {
          "indexed": true,
          "internalType": "bytes32",
          "name": "role",
          "type": "bytes32"
        },
        {
          "indexed": true,
          "internalType": "address",
          "name": "account",
          "type": "address"
        },
        {
          "indexed": true,
          "internalType": "address",
          "name": "sender",
          "type": "address"
        }
      ],
      "name": "RoleRevoked",
      "type": "event"
    },
    {
      "anonymous": false,
      "inputs": [
        {
          "indexed": true,
          "internalType": "address",
          "name": "token",
          "type": "address"
        },
        {
          "indexed": false,
          "internalType": "uint256",
          "name": "updatedAt",
          "type": "uint256"
        },
        {
          "indexed": false,
          "internalType": "uint256",
          "name": "currentTime",
          "type": "uint256"
        }
      ],
      "name": "StaleOracleTriggered",
      "type": "event"
    },
    {
      "anonymous": false,
      "inputs": [
        {
          "indexed": true,
          "internalType": "uint256",
          "name": "tier",
          "type": "uint256"
        },
        {
          "indexed": false,
          "internalType": "uint256",
          "name": "originationFee",
          "type": "uint256"
        },
        {
          "indexed": false,
          "internalType": "uint256",
          "name": "lateFeeAPR",
          "type": "uint256"
        }
      ],
      "name": "TierFeeUpdated",
      "type": "event"
    },
    {
      "anonymous": false,
      "inputs": [
        {
          "indexed": true,
          "internalType": "address",
          "name": "user",
          "type": "address"
        },
        {
          "indexed": false,
          "internalType": "string",
          "name": "message",
          "type": "string"
        }
      ],
      "name": "UserError",
      "type": "event"
    },
    {
      "anonymous": false,
      "inputs": [
        {
          "indexed": false,
          "internalType": "bool",
          "name": "required",
          "type": "bool"
        }
      ],
      "name": "ZKProofRequirementToggled",
      "type": "event"
    },
    {
      "anonymous": false,
      "inputs": [
        {
          "indexed": true,
          "internalType": "address",
          "name": "user",
          "type": "address"
        },
        {
          "indexed": false,
          "internalType": "string",
          "name": "reason",
          "type": "string"
        }
      ],
      "name": "ZKProofValidationFailed",
      "type": "event"
    },
    {
      "inputs": [],
      "name": "ALLOW_COLLATERAL_PERMISSION",
      "outputs": [
        {
          "internalType": "bytes32",
          "name": "",
          "type": "bytes32"
        }
      ],
      "stateMutability": "view",
      "type": "function"
    },
    {
      "inputs": [],
      "name": "DEFAULT_ADMIN_ROLE",
      "outputs": [
        {
          "internalType": "bytes32",
          "name": "",
          "type": "bytes32"
        }
      ],
      "stateMutability": "view",
      "type": "function"
    },
    {
      "inputs": [],
      "name": "DEFAULT_LIQUIDATION_THRESHOLD",
      "outputs": [
        {
          "internalType": "uint256",
          "name": "",
          "type": "uint256"
        }
      ],
      "stateMutability": "view",
      "type": "function"
    },
    {
      "inputs": [],
      "name": "DEFAULT_STALENESS_STABLE",
      "outputs": [
        {
          "internalType": "uint256",
          "name": "",
          "type": "uint256"
        }
      ],
      "stateMutability": "view",
      "type": "function"
    },
    {
      "inputs": [],
      "name": "DEFAULT_STALENESS_VOLATILE",
      "outputs": [
        {
          "internalType": "uint256",
          "name": "",
          "type": "uint256"
        }
      ],
      "stateMutability": "view",
      "type": "function"
    },
    {
      "inputs": [],
      "name": "GRACE_PERIOD",
      "outputs": [
        {
          "internalType": "uint256",
          "name": "",
          "type": "uint256"
        }
      ],
      "stateMutability": "view",
      "type": "function"
    },
    {
      "inputs": [],
      "name": "LIQUIDATION_PENALTY",
      "outputs": [
        {
          "internalType": "uint256",
          "name": "",
          "type": "uint256"
        }
      ],
      "stateMutability": "view",
      "type": "function"
    },
    {
      "inputs": [],
      "name": "SAFETY_BUFFER",
      "outputs": [
        {
          "internalType": "uint256",
          "name": "",
          "type": "uint256"
        }
      ],
      "stateMutability": "view",
      "type": "function"
    },
    {
      "inputs": [],
      "name": "SET_ADMIN_PERMISSION",
      "outputs": [
        {
          "internalType": "bytes32",
          "name": "",
          "type": "bytes32"
        }
      ],
      "stateMutability": "view",
      "type": "function"
    },
    {
      "inputs": [],
      "name": "SET_CREDIT_SCORE_PERMISSION",
      "outputs": [
        {
          "internalType": "bytes32",
          "name": "",
          "type": "bytes32"
        }
      ],
      "stateMutability": "view",
      "type": "function"
    },
    {
      "inputs": [],
      "name": "SET_LENDING_MANAGER_PERMISSION",
      "outputs": [
        {
          "internalType": "bytes32",
          "name": "",
          "type": "bytes32"
        }
      ],
      "stateMutability": "view",
      "type": "function"
    },
    {
      "inputs": [],
      "name": "SET_MAX_PRICE_AGE_PERMISSION",
      "outputs": [
        {
          "internalType": "bytes32",
          "name": "",
          "type": "bytes32"
        }
      ],
      "stateMutability": "view",
      "type": "function"
    },
    {
      "inputs": [],
      "name": "SET_MIN_PARTIAL_LIQUIDATION_AMOUNT_PERMISSION",
      "outputs": [
        {
          "internalType": "bytes32",
          "name": "",
          "type": "bytes32"
        }
      ],
      "stateMutability": "view",
      "type": "function"
    },
    {
      "inputs": [],
      "name": "SET_PRICE_FEED_PERMISSION",
      "outputs": [
        {
          "internalType": "bytes32",
          "name": "",
          "type": "bytes32"
        }
      ],
      "stateMutability": "view",
      "type": "function"
    },
    {
      "inputs": [],
      "name": "SET_RESERVE_ADDRESS_PERMISSION",
      "outputs": [
        {
          "internalType": "bytes32",
          "name": "",
          "type": "bytes32"
        }
      ],
      "stateMutability": "view",
      "type": "function"
    },
    {
      "inputs": [],
      "name": "SET_TIER_FEE_PERMISSION",
      "outputs": [
        {
          "internalType": "bytes32",
          "name": "",
          "type": "bytes32"
        }
      ],
      "stateMutability": "view",
      "type": "function"
    },
    {
      "inputs": [],
      "name": "TOGGLE_PAUSE_PERMISSION",
      "outputs": [
        {
          "internalType": "bytes32",
          "name": "",
          "type": "bytes32"
        }
      ],
      "stateMutability": "view",
      "type": "function"
    },
    {
      "inputs": [],
      "name": "UPDATE_BORROW_TIER_PERMISSION",
      "outputs": [
        {
          "internalType": "bytes32",
          "name": "",
          "type": "bytes32"
        }
      ],
      "stateMutability": "view",
      "type": "function"
    },
    {
      "inputs": [],
      "name": "UPKEEP_COOLDOWN",
      "outputs": [
        {
          "internalType": "uint256",
          "name": "",
          "type": "uint256"
        }
      ],
      "stateMutability": "view",
      "type": "function"
    },
    {
      "inputs": [
        {
          "internalType": "uint256",
          "name": "amount",
          "type": "uint256"
        }
      ],
      "name": "borrow",
      "outputs": [],
      "stateMutability": "payable",
      "type": "function"
    },
    {
      "inputs": [
        {
          "internalType": "uint256",
          "name": "",
          "type": "uint256"
        }
      ],
      "name": "borrowTierConfigs",
      "outputs": [
        {
          "internalType": "uint256",
          "name": "minScore",
          "type": "uint256"
        },
        {
          "internalType": "uint256",
          "name": "maxScore",
          "type": "uint256"
        },
        {
          "internalType": "uint256",
          "name": "collateralRatio",
          "type": "uint256"
        },
        {
          "internalType": "int256",
          "name": "interestRateModifier",
          "type": "int256"
        },
        {
          "internalType": "uint256",
          "name": "maxLoanAmount",
          "type": "uint256"
        }
      ],
      "stateMutability": "view",
      "type": "function"
    },
    {
      "inputs": [
        {
          "internalType": "address",
          "name": "",
          "type": "address"
        }
      ],
      "name": "borrowTimestamp",
      "outputs": [
        {
          "internalType": "uint256",
          "name": "",
          "type": "uint256"
        }
      ],
      "stateMutability": "view",
      "type": "function"
    },
    {
      "inputs": [
        {
          "internalType": "enum LiquidityPool.RiskTier",
          "name": "",
          "type": "uint8"
        }
      ],
      "name": "borrowedAmountByRiskTier",
      "outputs": [
        {
          "internalType": "uint256",
          "name": "",
          "type": "uint256"
        }
      ],
      "stateMutability": "view",
      "type": "function"
    },
    {
      "inputs": [
        {
          "internalType": "address",
          "name": "user",
          "type": "address"
        }
      ],
      "name": "canLend",
      "outputs": [
        {
          "internalType": "bool",
          "name": "",
          "type": "bool"
        }
      ],
      "stateMutability": "view",
      "type": "function"
    },
    {
      "inputs": [],
      "name": "checkCircuitBreakers",
      "outputs": [],
      "stateMutability": "nonpayable",
      "type": "function"
    },
    {
      "inputs": [
        {
          "internalType": "address",
          "name": "user",
          "type": "address"
        }
      ],
      "name": "checkCollateralization",
      "outputs": [
        {
          "internalType": "bool",
          "name": "isHealthy",
          "type": "bool"
        },
        {
          "internalType": "uint256",
          "name": "ratio",
          "type": "uint256"
        }
      ],
      "stateMutability": "view",
      "type": "function"
    },
    {
      "inputs": [
        {
          "internalType": "bytes",
          "name": "",
          "type": "bytes"
        }
      ],
      "name": "checkUpkeep",
      "outputs": [
        {
          "internalType": "bool",
          "name": "upkeepNeeded",
          "type": "bool"
        },
        {
          "internalType": "bytes",
          "name": "performData",
          "type": "bytes"
        }
      ],
      "stateMutability": "view",
      "type": "function"
    },
    {
      "inputs": [
        {
          "internalType": "address",
          "name": "token",
          "type": "address"
        },
        {
          "internalType": "address",
          "name": "user",
          "type": "address"
        },
        {
          "internalType": "address",
          "name": "to",
          "type": "address"
        },
        {
          "internalType": "uint256",
          "name": "amount",
          "type": "uint256"
        }
      ],
      "name": "clearCollateral",
      "outputs": [],
      "stateMutability": "nonpayable",
      "type": "function"
    },
    {
      "inputs": [
        {
          "internalType": "address",
          "name": "user",
          "type": "address"
        },
        {
          "internalType": "uint256",
          "name": "amount",
          "type": "uint256"
        }
      ],
      "name": "clearDebt",
      "outputs": [],
      "stateMutability": "nonpayable",
      "type": "function"
    },
    {
      "inputs": [
        {
          "internalType": "address",
          "name": "",
          "type": "address"
        },
        {
          "internalType": "address",
          "name": "",
          "type": "address"
        }
      ],
      "name": "collateralBalance",
      "outputs": [
        {
          "internalType": "uint256",
          "name": "",
          "type": "uint256"
        }
      ],
      "stateMutability": "view",
      "type": "function"
    },
    {
      "inputs": [
        {
          "internalType": "uint256",
          "name": "",
          "type": "uint256"
        }
      ],
      "name": "collateralTokenList",
      "outputs": [
        {
          "internalType": "address",
          "name": "",
          "type": "address"
        }
      ],
      "stateMutability": "view",
      "type": "function"
    },
    {
      "inputs": [
        {
          "internalType": "address",
          "name": "",
          "type": "address"
        }
      ],
      "name": "creditScore",
      "outputs": [
        {
          "internalType": "uint256",
          "name": "",
          "type": "uint256"
        }
      ],
      "stateMutability": "view",
      "type": "function"
    },
    {
      "inputs": [],
      "name": "creditSystem",
      "outputs": [
        {
          "internalType": "contract IntegratedCreditSystem",
          "name": "",
          "type": "address"
        }
      ],
      "stateMutability": "view",
      "type": "function"
    },
    {
      "inputs": [
        {
          "internalType": "address",
          "name": "token",
          "type": "address"
        },
        {
          "internalType": "uint256",
          "name": "amount",
          "type": "uint256"
        }
      ],
      "name": "depositCollateral",
      "outputs": [],
      "stateMutability": "nonpayable",
      "type": "function"
    },
    {
      "inputs": [
        {
          "internalType": "uint256",
          "name": "amount",
          "type": "uint256"
        },
        {
          "internalType": "address payable",
          "name": "to",
          "type": "address"
        }
      ],
      "name": "extract",
      "outputs": [],
      "stateMutability": "nonpayable",
      "type": "function"
    },
    {
      "inputs": [],
      "name": "getAdmin",
      "outputs": [
        {
          "internalType": "address",
          "name": "",
          "type": "address"
        }
      ],
      "stateMutability": "view",
      "type": "function"
    },
    {
      "inputs": [],
      "name": "getAllUsers",
      "outputs": [
        {
          "internalType": "address[]",
          "name": "",
          "type": "address[]"
        }
      ],
      "stateMutability": "view",
      "type": "function"
    },
    {
      "inputs": [],
      "name": "getAllowedCollateralTokens",
      "outputs": [
        {
          "internalType": "address[]",
          "name": "",
          "type": "address[]"
        }
      ],
      "stateMutability": "view",
      "type": "function"
    },
    {
      "inputs": [],
      "name": "getBalance",
      "outputs": [
        {
          "internalType": "uint256",
          "name": "",
          "type": "uint256"
        }
      ],
      "stateMutability": "view",
      "type": "function"
    },
    {
      "inputs": [
        {
          "internalType": "address",
          "name": "user",
          "type": "address"
        }
      ],
      "name": "getBorrowTerms",
      "outputs": [
        {
          "internalType": "uint256",
          "name": "collateralRatio",
          "type": "uint256"
        },
        {
          "internalType": "int256",
          "name": "interestRateModifier",
          "type": "int256"
        },
        {
          "internalType": "uint256",
          "name": "maxLoanAmount",
          "type": "uint256"
        }
      ],
      "stateMutability": "view",
      "type": "function"
    },
    {
      "inputs": [
        {
          "internalType": "address",
          "name": "user",
          "type": "address"
        }
      ],
      "name": "getBorrowerRate",
      "outputs": [
        {
          "internalType": "uint256",
          "name": "",
          "type": "uint256"
        }
      ],
      "stateMutability": "view",
      "type": "function"
    },
    {
      "inputs": [
        {
          "internalType": "address",
          "name": "user",
          "type": "address"
        },
        {
          "internalType": "address",
          "name": "token",
          "type": "address"
        }
      ],
      "name": "getCollateral",
      "outputs": [
        {
          "internalType": "uint256",
          "name": "",
          "type": "uint256"
        }
      ],
      "stateMutability": "view",
      "type": "function"
    },
    {
      "inputs": [
        {
          "internalType": "address",
          "name": "user",
          "type": "address"
        }
      ],
      "name": "getCreditScore",
      "outputs": [
        {
          "internalType": "uint256",
          "name": "",
          "type": "uint256"
        }
      ],
      "stateMutability": "view",
      "type": "function"
    },
    {
      "inputs": [
        {
          "internalType": "address",
          "name": "user",
          "type": "address"
        }
      ],
      "name": "getLoan",
      "outputs": [
        {
          "components": [
            {
              "internalType": "uint256",
              "name": "principal",
              "type": "uint256"
            },
            {
              "internalType": "uint256",
              "name": "outstanding",
              "type": "uint256"
            },
            {
              "internalType": "uint256",
              "name": "interestRate",
              "type": "uint256"
            },
            {
              "internalType": "uint256",
              "name": "nextDueDate",
              "type": "uint256"
            },
            {
              "internalType": "uint256",
              "name": "installmentAmount",
              "type": "uint256"
            },
            {
              "internalType": "uint256",
              "name": "penaltyBps",
              "type": "uint256"
            },
            {
              "internalType": "bool",
              "name": "active",
              "type": "bool"
            }
          ],
          "internalType": "struct LiquidityPool.Loan",
          "name": "",
          "type": "tuple"
        }
      ],
      "stateMutability": "view",
      "type": "function"
    },
    {
      "inputs": [
        {
          "internalType": "address",
          "name": "user",
          "type": "address"
        }
      ],
      "name": "getLoanDetails",
      "outputs": [
        {
          "internalType": "uint256",
          "name": "principal",
          "type": "uint256"
        },
        {
          "internalType": "uint256",
          "name": "outstanding",
          "type": "uint256"
        },
        {
          "internalType": "uint256",
          "name": "interestRate",
          "type": "uint256"
        },
        {
          "internalType": "uint256",
          "name": "nextDueDate",
          "type": "uint256"
        },
        {
          "internalType": "uint256",
          "name": "installmentAmount",
          "type": "uint256"
        },
        {
          "internalType": "uint256",
          "name": "penaltyBps",
          "type": "uint256"
        },
        {
          "internalType": "bool",
          "name": "active",
          "type": "bool"
        },
        {
          "internalType": "uint256",
          "name": "daysUntilDue",
          "type": "uint256"
        },
        {
          "internalType": "uint256",
          "name": "latePenaltyIfPaidNow",
          "type": "uint256"
        },
        {
          "internalType": "uint256",
          "name": "totalInstallmentsRemaining",
          "type": "uint256"
        }
      ],
      "stateMutability": "view",
      "type": "function"
    },
    {
      "inputs": [],
      "name": "getMinCollateralRatio",
      "outputs": [
        {
          "internalType": "uint256",
          "name": "",
          "type": "uint256"
        }
      ],
      "stateMutability": "pure",
      "type": "function"
    },
    {
      "inputs": [],
      "name": "getMyDebt",
      "outputs": [
        {
          "internalType": "uint256",
          "name": "",
          "type": "uint256"
        }
      ],
      "stateMutability": "view",
      "type": "function"
    },
    {
      "inputs": [
        {
          "internalType": "address",
          "name": "token",
          "type": "address"
        }
      ],
      "name": "getPriceFeed",
      "outputs": [
        {
          "internalType": "address",
          "name": "",
          "type": "address"
        }
      ],
      "stateMutability": "view",
      "type": "function"
    },
    {
      "inputs": [
        {
          "internalType": "address",
          "name": "user",
          "type": "address"
        }
      ],
      "name": "getRiskTier",
      "outputs": [
        {
          "internalType": "enum LiquidityPool.RiskTier",
          "name": "",
          "type": "uint8"
        }
      ],
      "stateMutability": "view",
      "type": "function"
    },
    {
      "inputs": [
        {
          "internalType": "bytes32",
          "name": "role",
          "type": "bytes32"
        }
      ],
      "name": "getRoleAdmin",
      "outputs": [
        {
          "internalType": "bytes32",
          "name": "",
          "type": "bytes32"
        }
      ],
      "stateMutability": "view",
      "type": "function"
    },
    {
      "inputs": [
        {
          "internalType": "address",
          "name": "token",
          "type": "address"
        }
      ],
      "name": "getTokenValue",
      "outputs": [
        {
          "internalType": "uint256",
          "name": "",
          "type": "uint256"
        }
      ],
      "stateMutability": "view",
      "type": "function"
    },
    {
      "inputs": [
        {
          "internalType": "address",
          "name": "user",
          "type": "address"
        }
      ],
      "name": "getTotalCollateralValue",
      "outputs": [
        {
          "internalType": "uint256",
          "name": "",
          "type": "uint256"
        }
      ],
      "stateMutability": "view",
      "type": "function"
    },
    {
      "inputs": [
        {
          "internalType": "address",
          "name": "user",
          "type": "address"
        }
      ],
      "name": "getZKVerificationStatus",
      "outputs": [
        {
          "internalType": "bool",
          "name": "hasTradFi",
          "type": "bool"
        },
        {
          "internalType": "bool",
          "name": "hasAccount",
          "type": "bool"
        },
        {
          "internalType": "bool",
          "name": "hasNesting",
          "type": "bool"
        },
        {
          "internalType": "uint256",
          "name": "finalScore",
          "type": "uint256"
        },
        {
          "internalType": "bool",
          "name": "isEligible",
          "type": "bool"
        }
      ],
      "stateMutability": "view",
      "type": "function"
    },
    {
      "inputs": [
        {
          "internalType": "bytes32",
          "name": "role",
          "type": "bytes32"
        },
        {
          "internalType": "address",
          "name": "account",
          "type": "address"
        }
      ],
      "name": "grantRole",
      "outputs": [],
      "stateMutability": "nonpayable",
      "type": "function"
    },
    {
      "inputs": [
        {
          "internalType": "bytes32",
          "name": "role",
          "type": "bytes32"
        },
        {
          "internalType": "address",
          "name": "account",
          "type": "address"
        }
      ],
      "name": "hasRole",
      "outputs": [
        {
          "internalType": "bool",
          "name": "",
          "type": "bool"
        }
      ],
      "stateMutability": "view",
      "type": "function"
    },
    {
      "inputs": [
        {
          "internalType": "address",
          "name": "_timelock",
          "type": "address"
        },
        {
          "internalType": "address",
          "name": "_stablecoinManager",
          "type": "address"
        },
        {
          "internalType": "address",
          "name": "_lendingManager",
          "type": "address"
        },
        {
          "internalType": "address",
          "name": "_interestRateModel",
          "type": "address"
        },
        {
          "internalType": "address",
          "name": "_creditSystem",
          "type": "address"
        }
      ],
      "name": "initialize",
      "outputs": [],
      "stateMutability": "nonpayable",
      "type": "function"
    },
    {
      "inputs": [],
      "name": "interestRateModel",
      "outputs": [
        {
          "internalType": "contract InterestRateModel",
          "name": "",
          "type": "address"
        }
      ],
      "stateMutability": "view",
      "type": "function"
    },
    {
      "inputs": [
        {
          "internalType": "address",
          "name": "",
          "type": "address"
        }
      ],
      "name": "isAllowedCollateral",
      "outputs": [
        {
          "internalType": "bool",
          "name": "",
          "type": "bool"
        }
      ],
      "stateMutability": "view",
      "type": "function"
    },
    {
      "inputs": [
        {
          "internalType": "address",
          "name": "",
          "type": "address"
        }
      ],
      "name": "isKnownUser",
      "outputs": [
        {
          "internalType": "bool",
          "name": "",
          "type": "bool"
        }
      ],
      "stateMutability": "view",
      "type": "function"
    },
    {
      "inputs": [
        {
          "internalType": "address",
          "name": "",
          "type": "address"
        }
      ],
      "name": "isLiquidatable",
      "outputs": [
        {
          "internalType": "bool",
          "name": "",
          "type": "bool"
        }
      ],
      "stateMutability": "view",
      "type": "function"
    },
    {
      "inputs": [
        {
          "internalType": "address",
          "name": "token",
          "type": "address"
        }
      ],
      "name": "isOracleHealthy",
      "outputs": [
        {
          "internalType": "bool",
          "name": "",
          "type": "bool"
        }
      ],
      "stateMutability": "view",
      "type": "function"
    },
    {
      "inputs": [],
      "name": "isPaused",
      "outputs": [
        {
          "internalType": "bool",
          "name": "",
          "type": "bool"
        }
      ],
      "stateMutability": "view",
      "type": "function"
    },
    {
      "inputs": [],
      "name": "lastUpkeep",
      "outputs": [
        {
          "internalType": "uint256",
          "name": "",
          "type": "uint256"
        }
      ],
      "stateMutability": "view",
      "type": "function"
    },
    {
      "inputs": [],
      "name": "lendingManager",
      "outputs": [
        {
          "internalType": "contract LendingManager",
          "name": "",
          "type": "address"
        }
      ],
      "stateMutability": "view",
      "type": "function"
    },
    {
      "inputs": [
        {
          "internalType": "address",
          "name": "",
          "type": "address"
        }
      ],
      "name": "liquidationStartTime",
      "outputs": [
        {
          "internalType": "uint256",
          "name": "",
          "type": "uint256"
        }
      ],
      "stateMutability": "view",
      "type": "function"
    },
    {
      "inputs": [],
      "name": "liquidator",
      "outputs": [
        {
          "internalType": "address",
          "name": "",
          "type": "address"
        }
      ],
      "stateMutability": "view",
      "type": "function"
    },
    {
      "inputs": [
        {
          "internalType": "address",
          "name": "",
          "type": "address"
        }
      ],
      "name": "loans",
      "outputs": [
        {
          "internalType": "uint256",
          "name": "principal",
          "type": "uint256"
        },
        {
          "internalType": "uint256",
          "name": "outstanding",
          "type": "uint256"
        },
        {
          "internalType": "uint256",
          "name": "interestRate",
          "type": "uint256"
        },
        {
          "internalType": "uint256",
          "name": "nextDueDate",
          "type": "uint256"
        },
        {
          "internalType": "uint256",
          "name": "installmentAmount",
          "type": "uint256"
        },
        {
          "internalType": "uint256",
          "name": "penaltyBps",
          "type": "uint256"
        },
        {
          "internalType": "bool",
          "name": "active",
          "type": "bool"
        }
      ],
      "stateMutability": "view",
      "type": "function"
    },
    {
      "inputs": [],
      "name": "locked",
      "outputs": [
        {
          "internalType": "bool",
          "name": "",
          "type": "bool"
        }
      ],
      "stateMutability": "view",
      "type": "function"
    },
    {
      "inputs": [
        {
          "internalType": "address",
          "name": "",
          "type": "address"
        }
      ],
      "name": "maxPriceAge",
      "outputs": [
        {
          "internalType": "uint256",
          "name": "",
          "type": "uint256"
        }
      ],
      "stateMutability": "view",
      "type": "function"
    },
    {
      "inputs": [],
      "name": "minPartialLiquidationAmount",
      "outputs": [
        {
          "internalType": "uint256",
          "name": "",
          "type": "uint256"
        }
      ],
      "stateMutability": "view",
      "type": "function"
    },
    {
      "inputs": [],
      "name": "paused",
      "outputs": [
        {
          "internalType": "bool",
          "name": "",
          "type": "bool"
        }
      ],
      "stateMutability": "view",
      "type": "function"
    },
    {
      "inputs": [
        {
          "internalType": "bytes",
          "name": "performData",
          "type": "bytes"
        }
      ],
      "name": "performUpkeep",
      "outputs": [],
      "stateMutability": "nonpayable",
      "type": "function"
    },
    {
      "inputs": [
        {
          "internalType": "address",
          "name": "",
          "type": "address"
        }
      ],
      "name": "priceFeed",
      "outputs": [
        {
          "internalType": "address",
          "name": "",
          "type": "address"
        }
      ],
      "stateMutability": "view",
      "type": "function"
    },
    {
      "inputs": [
        {
          "internalType": "address",
          "name": "token",
          "type": "address"
        },
        {
          "internalType": "uint256",
          "name": "amount",
          "type": "uint256"
        }
      ],
      "name": "recoverFromLiquidation",
      "outputs": [],
      "stateMutability": "nonpayable",
      "type": "function"
    },
    {
      "inputs": [
        {
          "internalType": "bytes32",
          "name": "role",
          "type": "bytes32"
        },
        {
          "internalType": "address",
          "name": "callerConfirmation",
          "type": "address"
        }
      ],
      "name": "renounceRole",
      "outputs": [],
      "stateMutability": "nonpayable",
      "type": "function"
    },
    {
      "inputs": [],
      "name": "repay",
      "outputs": [],
      "stateMutability": "payable",
      "type": "function"
    },
    {
      "inputs": [],
      "name": "repayInstallment",
      "outputs": [],
      "stateMutability": "payable",
      "type": "function"
    },
    {
      "inputs": [],
      "name": "reserveAddress",
      "outputs": [
        {
          "internalType": "address",
          "name": "",
          "type": "address"
        }
      ],
      "stateMutability": "view",
      "type": "function"
    },
    {
      "inputs": [
        {
          "internalType": "bytes32",
          "name": "role",
          "type": "bytes32"
        },
        {
          "internalType": "address",
          "name": "account",
          "type": "address"
        }
      ],
      "name": "revokeRole",
      "outputs": [],
      "stateMutability": "nonpayable",
      "type": "function"
    },
    {
      "inputs": [
        {
          "internalType": "address",
          "name": "newAdmin",
          "type": "address"
        }
      ],
      "name": "setAdmin",
      "outputs": [],
      "stateMutability": "nonpayable",
      "type": "function"
    },
    {
      "inputs": [
        {
          "internalType": "address",
          "name": "token",
          "type": "address"
        },
        {
          "internalType": "bool",
          "name": "allowed",
          "type": "bool"
        }
      ],
      "name": "setAllowedCollateral",
      "outputs": [],
      "stateMutability": "nonpayable",
      "type": "function"
    },
    {
      "inputs": [
        {
          "internalType": "address",
          "name": "user",
          "type": "address"
        },
        {
          "internalType": "uint256",
          "name": "score",
          "type": "uint256"
        }
      ],
      "name": "setCreditScore",
      "outputs": [],
      "stateMutability": "nonpayable",
      "type": "function"
    },
    {
      "inputs": [
        {
          "internalType": "address",
          "name": "_creditSystem",
          "type": "address"
        }
      ],
      "name": "setCreditSystem",
      "outputs": [],
      "stateMutability": "nonpayable",
      "type": "function"
    },
    {
      "inputs": [
        {
          "internalType": "address",
          "name": "_lendingManager",
          "type": "address"
        }
      ],
      "name": "setLendingManager",
      "outputs": [],
      "stateMutability": "nonpayable",
      "type": "function"
    },
    {
      "inputs": [
        {
          "internalType": "address",
          "name": "_liquidator",
          "type": "address"
        }
      ],
      "name": "setLiquidator",
      "outputs": [],
      "stateMutability": "nonpayable",
      "type": "function"
    },
    {
      "inputs": [
        {
          "internalType": "address",
          "name": "token",
          "type": "address"
        },
        {
          "internalType": "uint256",
          "name": "age",
          "type": "uint256"
        }
      ],
      "name": "setMaxPriceAge",
      "outputs": [],
      "stateMutability": "nonpayable",
      "type": "function"
    },
    {
      "inputs": [
        {
          "internalType": "uint256",
          "name": "amount",
          "type": "uint256"
        }
      ],
      "name": "setMinPartialLiquidationAmount",
      "outputs": [],
      "stateMutability": "nonpayable",
      "type": "function"
    },
    {
      "inputs": [
        {
          "internalType": "address",
          "name": "token",
          "type": "address"
        },
        {
          "internalType": "address",
          "name": "feed",
          "type": "address"
        }
      ],
      "name": "setPriceFeed",
      "outputs": [],
      "stateMutability": "nonpayable",
      "type": "function"
    },
    {
      "inputs": [
        {
          "internalType": "address",
          "name": "_reserve",
          "type": "address"
        }
      ],
      "name": "setReserveAddress",
      "outputs": [],
      "stateMutability": "nonpayable",
      "type": "function"
    },
    {
      "inputs": [
        {
          "internalType": "uint256",
          "name": "tier",
          "type": "uint256"
        },
        {
          "internalType": "uint256",
          "name": "originationFee",
          "type": "uint256"
        },
        {
          "internalType": "uint256",
          "name": "lateFeeAPR",
          "type": "uint256"
        }
      ],
      "name": "setTierFee",
      "outputs": [],
      "stateMutability": "nonpayable",
      "type": "function"
    },
    {
      "inputs": [
        {
          "internalType": "bool",
          "name": "required",
          "type": "bool"
        }
      ],
      "name": "setZKProofRequirement",
      "outputs": [],
      "stateMutability": "nonpayable",
      "type": "function"
    },
    {
      "inputs": [],
      "name": "stablecoinManager",
      "outputs": [
        {
          "internalType": "contract StablecoinManager",
          "name": "",
          "type": "address"
        }
      ],
      "stateMutability": "view",
      "type": "function"
    },
    {
      "inputs": [
        {
          "internalType": "address",
          "name": "user",
          "type": "address"
        }
      ],
      "name": "startLiquidation",
      "outputs": [],
      "stateMutability": "nonpayable",
      "type": "function"
    },
    {
      "inputs": [
        {
          "internalType": "bytes4",
          "name": "interfaceId",
          "type": "bytes4"
        }
      ],
      "name": "supportsInterface",
      "outputs": [
        {
          "internalType": "bool",
          "name": "",
          "type": "bool"
        }
      ],
      "stateMutability": "view",
      "type": "function"
    },
    {
      "inputs": [
        {
          "internalType": "uint256",
          "name": "",
          "type": "uint256"
        }
      ],
      "name": "tierFees",
      "outputs": [
        {
          "internalType": "uint256",
          "name": "originationFee",
          "type": "uint256"
        },
        {
          "internalType": "uint256",
          "name": "lateFeeAPR",
          "type": "uint256"
        }
      ],
      "stateMutability": "view",
      "type": "function"
    },
    {
      "inputs": [],
      "name": "timelock",
      "outputs": [
        {
          "internalType": "address",
          "name": "",
          "type": "address"
        }
      ],
      "stateMutability": "view",
      "type": "function"
    },
    {
      "inputs": [],
      "name": "togglePause",
      "outputs": [],
      "stateMutability": "nonpayable",
      "type": "function"
    },
    {
      "inputs": [],
      "name": "totalBorrowedAllTime",
      "outputs": [
        {
          "internalType": "uint256",
          "name": "",
          "type": "uint256"
        }
      ],
      "stateMutability": "view",
      "type": "function"
    },
    {
      "inputs": [],
      "name": "totalFunds",
      "outputs": [
        {
          "internalType": "uint256",
          "name": "",
          "type": "uint256"
        }
      ],
      "stateMutability": "view",
      "type": "function"
    },
    {
      "inputs": [],
      "name": "totalRepaidAllTime",
      "outputs": [
        {
          "internalType": "uint256",
          "name": "",
          "type": "uint256"
        }
      ],
      "stateMutability": "view",
      "type": "function"
    },
    {
      "inputs": [
        {
          "internalType": "uint256",
          "name": "tierIndex",
          "type": "uint256"
        },
        {
          "internalType": "uint256",
          "name": "minScore",
          "type": "uint256"
        },
        {
          "internalType": "uint256",
          "name": "maxScore",
          "type": "uint256"
        },
        {
          "internalType": "uint256",
          "name": "collateralRatio",
          "type": "uint256"
        },
        {
          "internalType": "int256",
          "name": "interestRateModifier",
          "type": "int256"
        },
        {
          "internalType": "uint256",
          "name": "maxLoanAmount",
          "type": "uint256"
        }
      ],
      "name": "updateBorrowTier",
      "outputs": [],
      "stateMutability": "nonpayable",
      "type": "function"
    },
    {
      "inputs": [
        {
          "internalType": "address",
          "name": "user",
          "type": "address"
        },
        {
          "internalType": "uint256",
          "name": "score",
          "type": "uint256"
        }
      ],
      "name": "updateCreditScoreFromZK",
      "outputs": [],
      "stateMutability": "nonpayable",
      "type": "function"
    },
    {
      "inputs": [
        {
          "internalType": "address",
          "name": "",
          "type": "address"
        }
      ],
      "name": "userDebt",
      "outputs": [
        {
          "internalType": "uint256",
          "name": "",
          "type": "uint256"
        }
      ],
      "stateMutability": "view",
      "type": "function"
    },
    {
      "inputs": [
        {
          "internalType": "uint256",
          "name": "",
          "type": "uint256"
        }
      ],
      "name": "users",
      "outputs": [
        {
          "internalType": "address",
          "name": "",
          "type": "address"
        }
      ],
      "stateMutability": "view",
      "type": "function"
    },
    {
      "inputs": [
        {
          "internalType": "address",
          "name": "token",
          "type": "address"
        },
        {
          "internalType": "uint256",
          "name": "amount",
          "type": "uint256"
        }
      ],
      "name": "withdrawCollateral",
      "outputs": [],
      "stateMutability": "nonpayable",
      "type": "function"
    },
    {
      "inputs": [
        {
          "internalType": "uint256",
          "name": "amount",
          "type": "uint256"
        }
      ],
      "name": "withdrawForLendingManager",
      "outputs": [],
      "stateMutability": "nonpayable",
      "type": "function"
    },
    {
      "inputs": [],
      "name": "zkProofRequired",
      "outputs": [
        {
          "internalType": "bool",
          "name": "",
          "type": "bool"
        }
      ],
      "stateMutability": "view",
      "type": "function"
    },
    {
      "stateMutability": "payable",
      "type": "receive"
    }
  ],
  "bytecode": "0x6080806040523460155761ad89908161001a8239f35b5f80fdfe6080806040526004361015610049575b50361561001a575f80fd5b61003860408051670cf8c25faccb1d2c602082015260208152618ae9565b61004434600b54618b18565b600b55005b5f905f3560e01c90816301c76f81146187db5750806301ffc9a714618785578063042e02cf14618748578063080d9c2b146184925780630b044c79146184765780630ef7fb671461845b57806312065fe0146184045780631459457a14617e5b57806314673d3114617c1c5780631bfe426114617be25780631fd48b9a14617ba257806320dfcae11461746157806323fe5a3314617449578063248a9ca3146174125780632f2ff15d146173c857806330332f9f146171e957806333481fc9146170be578063350c35e914616b16578063357619a914616adc57806335f679811461699457806336568abe1461694e578063365b98b21461692557806338053ef3146168f45780633d7c5d3e146168d7578063402d888314615e3b5780634046ebae14615e0e578063418eea3114615dd3578063450a375a14615d765780634585e33b146159ea578063488683cd146159af5780634c8f35ab146159575780634c95da661461591157806352226ef01461588657806355f4d9e2146154cb5780635b66e7fc146154ae5780635b6cca80146153c95780635c44f10d146153ad5780635c975abb146153875780636579b73e1461534e57806368272ecc146151b15780636c648fc41461518d5780636e04ff0d14614cc25780636e9960c314614c5d578063704b6c0214614a6c57806370ed11bc14614a0b57806372ed9f7b146146815780637346f4861461464257806373b4086b146145c257806376e11286146143d557806378974cbb1461420c5780637a8ce68b146141d1578063802937ac146141b357806383475f0c1461417857806386d785e61461412c5780638e6b53bc146140fa57806391d14854146140a45780639490a51e14614065578063962a0da51461402a578063968ed6001461400c57806397ed81cf14613c625780639ac77e1b14613a9a5780639b8621d514613a7e5780639e3b77af14613a55578063a217fddf14613a39578063a5d5db0c146134cb578063a75b24c7146132e0578063a89ef5ca146132b7578063b187bd2614613255578063b3075fb714613221578063b3a5a0a2146131dd578063b69e5c77146131a4578063b8cdf56114613186578063bc3d5a3e14613168578063c129d5041461314c578063c1a287e21461312e578063c23c69d5146130f5578063c39537e1146130ba578063c4ae316814612f2b578063c5ebeaec14611f1b578063c869d0ed14611d1a578063c941f32114611cf1578063cf17622514611cd5578063cf30901214611cb2578063d1f151c114611a6c578063d29255f914611a33578063d33219b414611a0a578063d3dd2bdf146119e6578063d547741f14611996578063ddac7f1b146117a8578063e19fb8f514611496578063e1c501001461123b578063e2842d791461120f578063e6ae3576146111d4578063e7602b9d14611182578063e84bae451461114f578063e884cf2314611129578063e8a7da8e14610b5c578063e9ffb29114610b21578063eb8d655114610ae6578063ebdcc16414610a76578063ef02401a14610a48578063f1c5d6c214610a1c578063f3fdb15a146109f3578063f79ed94b146109ca578063f7e590ee14610991578063feb50e521461069c5763ffd4aedb0361000f573461069957608036600319011261069957610642602061050861893c565b610510618952565b610518618968565b6064359261053860408051672c59dc8a02c7231788820152878152618ae9565b6105546040805167ae8ed35309de1bc488820152878152618ae9565b6105706040805167c87f51d89e07b06e88820152878152618ae9565b61058560018060a01b03600e5416331461982f565b6105a160408051674ad41f50fb9985f388820152878152618ae9565b6105bd604080516755e26891021378fb88820152878152618ae9565b6001600160a01b039081168088528786526040808920949092165f908152938652922080546105ed908590618b66565b905561060b6040805167ac8b14fa1d70474c87820152868152618ae9565b60405163a9059cbb60e01b81526001600160a01b039091166004820152602481019290925290928391908290869082906044820190565b03925af1801561068e57610654575080f35b6020813d602011610686575b8161066d60209383618ae9565b810103126106825761067e90618b0b565b5080f35b5080fd5b3d9150610660565b6040513d84823e3d90fd5b80fd5b5034610699576040366003190112610699576004356024356001600160a01b0381169081900361098d576106e460408051679c44c24e95045831602082015260208152618ae9565b6107026040805167d0ce8e35628285fd602082015260208152618ae9565b6107206040805167af48d42d11833f96602082015260208152618ae9565b6010546001600160a01b0316331461075f5760048361075360408051675dacdd1de8f9686c602082015260208152618ae9565b630925c89960e31b8152fd5b61077d604080516744441c5050947dcf602082015260208152618ae9565b61079b60408051673ab83ba07fd9ecfc602082015260208152618ae9565b6107b9604080516727fc7a9845a86cfd602082015260208152618ae9565b6107d76040805167549207108cddb756602082015260208152618ae9565b6107f56040805167cab3f58f04229905602082015260208152618ae9565b6108136040805167d34c182bb9ecd56d602082015260208152618ae9565b81471061094c5782808093819361083e604080516719b618370891235c602082015260208152618ae9565b61085c6040805167ee2cd4f00b390d19602082015260208152618ae9565b5af13d15610947573d67ffffffffffffffff8111610933576040519061088c601f8201601f191660200183618ae9565b81528260203d92013e5b6108b4604080516701bb843e8be9992d602082015260208152618ae9565b6108d26040805167fd12811b07320932602082015260208152618ae9565b156108f8576108f56040805167c823d7dcd77b2654602082015260208152618ae9565b80f35b60405162461bcd60e51b8152602060048201526013602482015272115512081d1c985b9cd9995c8819985a5b1959606a1b6044820152606490fd5b634e487b7160e01b83526041600452602483fd5b610896565b60405162461bcd60e51b8152602060048201526014602482015273496e73756666696369656e742062616c616e636560601b604482015280606481015b0390fd5b8280fd5b5034610699576020366003190112610699576020906040906001600160a01b036109b961893c565b168152600283522054604051908152f35b50346106995780600319360112610699576018546040516001600160a01b039091168152602090f35b5034610699578060031936011261069957600f546040516001600160a01b039091168152602090f35b5034610699576020366003190112610699576020610a40610a3b61893c565b61a4ee565b604051908152f35b5034610699576020366003190112610699576020610a6c610a6761893c565b61a286565b6040519015158152f35b5034610699576020366003190112610699576040602091610a9561893c565b610ab0838051679084463e52e7522e87820152868152618ae9565b610acb838051672a26c2946d774e4e87820152868152618ae9565b6001600160a01b031681526002835220546040519015158152f35b503461069957806003193601126106995760206040517f742d8195bebb59905cedb6c02453745e9ef7090c163e7dea727ab0849b3dfc008152f35b503461069957806003193601126106995760206040517fa22cb6bd33c714cffaf72f196d1ebf87829cac5214f3ad84491fa8669ede7a6a8152f35b503461069957602036600319011261069957610b7661893c565b610b946040805167c32cc93f9b3c1fac602082015260208152618ae9565b610bb26040805167737fe84ba4db3edd602082015260208152618ae9565b6001600160a01b0381168252601a60205260408083209051909190610bd681618acd565b8254815260018301546020820190815260028401549260408301938452600385015491606084019283526004860154956080850196875260ff600660058301549260a088019384520154169460c081019515158652610c49604080516799a299898aa32e1b602082015260208152618ae9565b5196610c69604080516777be5edb59cbea5f602082015260208152618ae9565b825196610c8a60408051677faebe4e43e54fe1602082015260208152618ae9565b51610ca96040805167ffff7837a29b3ff7602082015260208152618ae9565b855191610cca604080516797a28d8969d70f60602082015260208152618ae9565b805193610ceb60408051674e2c291b54f790b7602082015260208152618ae9565b5194610d0b604080516788f66cf208707f17602082015260208152618ae9565b8851151596610d2e60408051678b694a14b6a945e4602082015260208152618ae9565b88514210156110e657610d55604080516726c1d0df93e28db7602082015260208152618ae9565b610d736040805167c2b60134a3cce537602082015260208152618ae9565b62015180610d82428b51618b66565b04985b610da36040805167bae05127d11ed7eb602082015260208152618ae9565b8d91610dc3604080516724293759824ccfe1602082015260208152618ae9565b815162093a8081018091116110d1574211806110c7575b156110a657610e2490610e0160408051678352cd4ea61c4df7602082015260208152618ae9565b610e1f6040805167ad18671a23decaf9602082015260208152618ae9565b619453565b610e42604080516712403d69e44ca3ee602082015260208152618ae9565b60058110156110925760408f6001928152601960205220015490610e7a60408051679ea47ad849376f7a602082015260208152618ae9565b5162093a80810180911161107e57610e96620151809142618b66565b0491610eb66040805167785fca040368d512602082015260208152618ae9565b82151580611075575b1561104e5750610f1a61271092610f1561016d93610ef06040805166373d220e9ae9f0602082015260208152618ae9565b610f0e60408051671cd67c3bd75caf3d602082015260208152618ae9565b8651618b91565b618b91565b0404985b610f3c6040805167b9e3a03e08a0ca81602082015260208152618ae9565b51151580611044575b15610ffc57610f9390610f6c6040805167b93142c8d8c29c8d602082015260208152618ae9565b610f8a60408051676c9967d62bc60cb5602082015260208152618ae9565b51825190618b18565b5f1981019b908c11610fe857506101409a610faf915190618b73565b975b604051998a5260208a015260408901526060880152608087015260a086015260c085015260e0840152610100830152610120820152f35b634e487b7160e01b81526011600452602490fd5b505061014099611020604080516774837d585c5e69d3602082015260208152618ae9565b61103e6040805167cb87a61a2959a34e602082015260208152618ae9565b97610fb1565b5080511515610f45565b9a9150506110706040805167a161d3d2e166f4d2602082015260208152618ae9565b610f1e565b50811515610ebf565b634e487b7160e01b8f52601160045260248ffd5b634e487b7160e01b8f52602160045260248ffd5b505098611070604080516756042cc9a0970a9b602082015260208152618ae9565b508b511515610dda565b50634e487b7160e01b8f52601160045260248ffd5b61110460408051672e1fd86a11c9ac9d602082015260208152618ae9565b6111226040805167968ca75dc859acbe602082015260208152618ae9565b8c98610d85565b5034610699578060031936011261069957602060ff60115460a01c166040519015158152f35b50346106995760203660031901126106995760043590600582101561069957602061117983618a86565b54604051908152f35b503461069957604036600319011261069957604061119e61893c565b916111a7618952565b9260018060a01b0316815280602052209060018060a01b03165f52602052602060405f2054604051908152f35b503461069957806003193601126106995760206040517fb438992c2c4c65322b65fd8e2dacea9efd63443e69e5ed52f4a77ed6c78f7c2a8152f35b503461069957806003193601126106995761123761122b61a193565b60405191829182618a44565b0390f35b50346106995760203660031901126106995761125561893c565b6112736040805167bf31ab7163638279602082015260208152618ae9565b6112916040805167178dee0ccea70798602082015260208152618ae9565b61129a81619a5a565b506112b9604080516755c93c64794d369b602082015260208152618ae9565b6112d76040805167e79a8789970ce62e602082015260208152618ae9565b61145b576112f9604080516714ec08c0e526f0c3602082015260208152618ae9565b61131760408051671d524e1fa7fb19aa602082015260208152618ae9565b611335604080516710eb90dad888dff3602082015260208152618ae9565b6001600160a01b03168082526005602052604082205460ff166114165761137060408051676df30a1b840cb82c602082015260208152618ae9565b61138e6040805167dd9642fe9fbb16b5602082015260208152618ae9565b808252600560205260408220600160ff198254161790556113c36040805167401eb5ee5ff47d02602082015260208152618ae9565b80825260066020524260408320556113ef6040805167e439e318b3f82824602082015260208152618ae9565b7f7f62ed89ea2c6fb057e4ea77729c1d3f18056339791fce29ac89760197b45b298280a280f35b60405162461bcd60e51b815260206004820152601b60248201527f4c69717569646174696f6e20616c7265616479207374617274656400000000006044820152606490fd5b60405162461bcd60e51b8152602060048201526013602482015272506f736974696f6e206973206865616c74687960681b6044820152606490fd5b5034610699576020366003190112610699576004356114c96040805167db0caa3dfed93f8e602082015260208152618ae9565b6114e7604080516716c98d4f5e9464bc602082015260208152618ae9565b61150560408051670499e7acadc470e2602082015260208152618ae9565b6115236040805167ccbf762215247954602082015260208152618ae9565b6001600c5461153560ff821615619cc9565b61155360408051671473fa1f69c0f0d0602082015260208152618ae9565b6115716040805167a3db6a78b20001e6602082015260208152618ae9565b60ff191617600c556115976040805167c5a18bc88923dfa6602082015260208152618ae9565b6115b560408051677126761ab0ee52a0602082015260208152618ae9565b6115d3604080516782cb573c1073d152602082015260208152618ae9565b6115f1604080516731646aa4621858d4602082015260208152618ae9565b61160f6040805167fd8165796fc69fb2602082015260208152618ae9565b600e546001600160a01b031633036117585761163f60408051678272a2d661d61344602082015260208152618ae9565b61165d604080516755b86397721045da602082015260208152618ae9565b61167b60408051673b63749f98da79b2602082015260208152618ae9565b4781116117135781808080936116a560408051676d90e57f671ec150602082015260208152618ae9565b6116c3604080516737ae439d3d7c3d8b602082015260208152618ae9565b81811561170a575b3390f1156116fe576116f16040805167050dadff83cb96b5602082015260208152618ae9565b60ff19600c5416600c5580f35b604051903d90823e3d90fd5b506108fc6116cb565b60405162461bcd60e51b815260206004820152601d60248201527f496e73756666696369656e7420636f6e74726163742062616c616e63650000006044820152606490fd5b60405162461bcd60e51b815260206004820152602260248201527f4f6e6c79206c656e64696e67206d616e616765722063616e2063616c6c207468604482015261697360f01b6064820152608490fd5b5034610699576040366003190112610699576117c261893c565b602435906117e46040805167ee049c67e376e276602082015260208152618ae9565b6118026040805167d0ce8e35628285fd602082015260208152618ae9565b6118206040805167af48d42d11833f96602082015260208152618ae9565b6010546001600160a01b031633146118535760048361075360408051675dacdd1de8f9686c602082015260208152618ae9565b611871604080516744441c5050947dcf602082015260208152618ae9565b61188f60408051673ab83ba07fd9ecfc602082015260208152618ae9565b6118ad6040805167aadacfa2d258f76a602082015260208152618ae9565b6118cb604080516703b0ab44ccb81e58602082015260208152618ae9565b6118e96040805167256fc2f9b64dccd5602082015260208152618ae9565b611907604080516788d6142f0f574476602082015260208152618ae9565b6201518082116119655761192f6040805167c7b3c856c7220f9f602082015260208152618ae9565b61194d6040805167afb408c835a08c62602082015260208152618ae9565b6001600160a01b031682526016602052604082205580f35b60405162461bcd60e51b8152602060048201526009602482015268546f6f206c6172676560b81b6044820152606490fd5b50346106995760403660031901126106995761067e6004356119b6618952565b906119e16119dc825f525f51602061ad145f395f51905f52602052600160405f20015490565b61a97b565b61aa65565b5034610699576020366003190112610699576020610a40611a0561893c565b619fc6565b50346106995780600319360112610699576010546040516001600160a01b039091168152602090f35b5034610699576020366003190112610699576020906040906001600160a01b03611a5b61893c565b168152600483522054604051908152f35b503461069957606036600319011261069957600435602435604435611aa56040805167a4e5818876ef5696602082015260208152618ae9565b611ac36040805167d0ce8e35628285fd602082015260208152618ae9565b611ae16040805167af48d42d11833f96602082015260208152618ae9565b6010546001600160a01b03163314611b145760048461075360408051675dacdd1de8f9686c602082015260208152618ae9565b611b32604080516744441c5050947dcf602082015260208152618ae9565b611b5060408051673ab83ba07fd9ecfc602082015260208152618ae9565b611b6e60408051675d1cfaebf5f0e54e602082015260208152618ae9565b611b8c60408051673a04df2021c1c159602082015260208152618ae9565b611baa6040805167ba07d7a71992be30602082015260208152618ae9565b611bc860408051677480ec859af675fc602082015260208152618ae9565b611bd560125484106191da565b611bf3604080516768144b3724c41e60602082015260208152618ae9565b611c116040805167c605a7979e41cee0602082015260208152618ae9565b6040516040810181811067ffffffffffffffff821117611c9e57917f7543d68ffbde1802767cee31f14403e1b914f7249f14f2724e7398aa10de09239391604093845282815260016020820183815287895260196020528589209251835551910155611c90838051674c348e6129ecdbab602082015260208152618ae9565b82519182526020820152a280f35b634e487b7160e01b86526041600452602486fd5b5034610699578060031936011261069957602060ff600c54166040519015158152f35b503461069957806003193601126106995761123761122b619d05565b5034610699578060031936011261069957600d546040516001600160a01b039091168152602090f35b503461069957602036600319011261069957611d3461893c565b611d52604080516796d69542efdc4f97602082015260208152618ae9565b611d706040805167d0ce8e35628285fd602082015260208152618ae9565b611d8e6040805167af48d42d11833f96602082015260208152618ae9565b6010546001600160a01b03163314611dc15760048261075360408051675dacdd1de8f9686c602082015260208152618ae9565b611ddf604080516744441c5050947dcf602082015260208152618ae9565b611dfd60408051673ab83ba07fd9ecfc602082015260208152618ae9565b611e1b60408051675b671a3161d3243e602082015260208152618ae9565b611e396040805167ee1d52ce18f72c4c602082015260208152618ae9565b611e5760408051677f33d51205eff549602082015260208152618ae9565b611e75604080516753d33ffcc491311f602082015260208152618ae9565b6001600160a01b03168015611ed657611ea26040805167087408c91c95d3ec602082015260208152618ae9565b611ec0604080516785821d51d253716b602082015260208152618ae9565b6001600160601b0360a01b600e541617600e5580f35b60405162461bcd60e51b815260206004820152601f60248201527f496e76616c6964206c656e64696e67206d616e616765722061646472657373006044820152606490fd5b50602036600319011261069957600435611f496040805167f01bb220140d7fbb602082015260208152618ae9565b611f676040805167a4cb4b17c6228c8c602082015260208152618ae9565b611f856040805167c16727bf5183843b602082015260208152618ae9565b611fa360408051677c1a8e263655ff82602082015260208152618ae9565b6001600c54611fb860ff8260081c1615618b25565b611fd66040805167777490a767dbdb85602082015260208152618ae9565b611ff46040805167ab37fa967a390bb6602082015260208152618ae9565b6120126040805167c0c154e29963c4b7602082015260208152618ae9565b6120306040805167ce763932e43538f1602082015260208152618ae9565b61204e604080516716c98d4f5e9464bc602082015260208152618ae9565b61206c60408051670499e7acadc470e2602082015260208152618ae9565b61208a6040805167ccbf762215247954602082015260208152618ae9565b61209760ff821615619cc9565b6120b560408051671473fa1f69c0f0d0602082015260208152618ae9565b6120d36040805167a3db6a78b20001e6602082015260208152618ae9565b60ff191617600c556120f96040805167c5a18bc88923dfa6602082015260208152618ae9565b6121176040805167851984959e5361e0602082015260208152618ae9565b61213560408051679a74937aba7fc973602082015260208152618ae9565b61215360408051673e5560fcc97b48ea602082015260208152618ae9565b61217160408051672a6ec5e621dac88f602082015260208152618ae9565b33825260036020526040822054612ee6576121a06040805167503938f8e992d28e602082015260208152618ae9565b6121be6040805167a9097d2a46d34f75602082015260208152618ae9565b6121c733619453565b6121e56040805167f11b6196e005240b602082015260208152618ae9565b61220360408051679f05b3e4d00768b5602082015260208152618ae9565b600581101580612ed25760048214612e9657612233604080516770c7003f589ee357602082015260208152618ae9565b612251604080516789d3e5ac610ce691602082015260208152618ae9565b61226f60408051679800c370506b686b602082015260208152618ae9565b600b5460011c8311612e385761229960408051679997a2d827cbf4a0602082015260208152618ae9565b6122b760408051671ecbedd4375e66bc602082015260208152618ae9565b6122c033619313565b9150506122e16040805167547ebafa922cf8a5602082015260208152618ae9565b6122ff604080516785512aa562271936602082015260208152618ae9565b8311612de55761232360408051673936e1c47df57ee1602082015260208152618ae9565b6123416040805167c36136d5087844cb602082015260208152618ae9565b61234a33619313565b505061236a60408051674c468bbfd0358dbd602082015260208152618ae9565b61237333619614565b9061239260408051673cef62b791892aeb602082015260208152618ae9565b6123b0604080516728d7ab1ec51e0fe5602082015260208152618ae9565b606482029180830460641490151715612b7a576123cd9085618b91565b11612d92576123f06040805167f065015b657aaa8c602082015260208152618ae9565b61240e6040805167e85aa68c5a35c8dc602082015260208152618ae9565b839061242e604080516757708a29241dbe60602082015260208152618ae9565b6018546001600160a01b0316918215612d6f57505061246160408051671087515df99c789e602082015260208152618ae9565b61247f604080516713c49da2b6ee2b2f602082015260208152618ae9565b838285526019602052612710612499604087205486618b91565b045b6124b96040805167cf6dedc889397b70602082015260208152618ae9565b856124c48287618b66565b936124e3604080516768430f0938ec1b23602082015260208152618ae9565b821580612d485782848193829361250e604080516742527b0c4f74c01f602082015260208152618ae9565b61252c60408051678dd444a7cd06bd6d602082015260208152618ae9565b8390612d3f575bf115612d34578161255860408051672e9d66a119449bb2602082015260208152618ae9565b612d205760405190815260606020820152600b60608201526a37b934b3b4b730ba34b7b760a91b60808201528360408201527f66aecc579aa1ef463c0ed1547c2cb6163370e6311a60cba815252acbb398f21360a03392a25b6125cf60408051676cb06449a489796e602082015260208152618ae9565b6125ed60408051675e4068aa372955ba602082015260208152618ae9565b61260b6040805167bbe577b5d193b03b602082015260208152618ae9565b600b5461262c6040805167b640c5c015ad555c602082015260208152618ae9565b61263b60145460155490618b66565b6126596040805167941408f80fd58116602082015260208152618ae9565b8661267860408051679684eb6a4433db0f602082015260208152618ae9565b8215612cf9575061269d6040805167d217832bc35d5b47602082015260208152618ae9565b6126bb604080516714b3af311316d442602082015260208152618ae9565b670de0b6b3a7640000810290808204670de0b6b3a76400001490151715612ce557906126e691618b73565b905b6127066040805167613a1f695def96d2602082015260208152618ae9565b600f54604051634fd41dad60e11b81526004810193909352602090839060249082906001600160a01b03165afa918215612cda578692612ca2575b506127606040805167efb6358ed4da95b6602082015260208152618ae9565b612c8e57600361276f84618a28565b5001546127906040805167b1726f682096a8b5602082015260208152618ae9565b816127af6040805167fd7944d983c35050602082015260208152618ae9565b86821215612be257506127fd906127da60408051674ab33150ef2380c4602082015260208152618ae9565b6127f860408051676efb31c3b7d04366602082015260208152618ae9565b61981f565b61271003906127108211612b7a576127109161281891618b91565b04915b61283960408051674d241bd1a5076023602082015260208152618ae9565b6128576040805167e18c3eca0ac4b59c602082015260208152618ae9565b61287560408051677161e42d1ef1c458602082015260208152618ae9565b600c8410612b8e5761289b6040805167c6ac11a6232468a2602082015260208152618ae9565b6128b96040805167fc14d9bb5ed80fe4602082015260208152618ae9565b6128d7604080516703a3a599ee3cda46602082015260208152618ae9565b6128f560408051674ddd4143321b47c2602082015260208152618ae9565b61291360408051678b538dc859e7012e602082015260208152618ae9565b62278d004201804211612b7a57858093612a5182946129d6849561294b604080516719823126ac7b9047602082015260208152618ae9565b60066040519161295a83618acd565b8c83528b8d60208501928184526040860192835260608601908152600c608087019204825260a08601926101f4845260c087019460018652338d52601a60205260408d209751885551600188015551600287015551600386015551600485015551600584015551151591019060ff801983541691151516179055565b6129f46040805167d426c315a7fc7c01602082015260208152618ae9565b3384526003602052886040852055612a2060408051671dc5a74feb995daf602082015260208152618ae9565b3384526004602052426040852055612a4c60408051670804260105ac3229602082015260208152618ae9565b618a86565b612a5c888254618b18565b9055612a7c6040805167af1abf3849096174602082015260208152618ae9565b612a8887601454618b18565b601455612aa96040805167bd5bde171abad1f3602082015260208152618ae9565b818115612b71575b3390f11561068e57612ad760408051678a88aeb0e12a54cf602082015260208152618ae9565b6040519082825260208201527f5660f932172e1664b98577a703dd9484d374b28e3bf8c87b345bee97af61241260403392a2612b27604080516728e0d457bc96934e602082015260208152618ae9565b6040519081527fac59582e5396aca512fa873a2047e7f4c80f8f55d4a06cb34a78a0187f62719f60203392a26116f16040805167050dadff83cb96b5602082015260208152618ae9565b506108fc612ab1565b634e487b7160e01b86526011600452602486fd5b60405162461bcd60e51b815260206004820152602660248201527f4c6f616e20616d6f756e7420746f6f20736d616c6c20666f7220616d6f7274696044820152653d30ba34b7b760d11b6064820152608490fd5b612c00604080516756a906ced1d6c8ad602082015260208152618ae9565b86821315612c675750612c276040805167a5ce02629bf3fcc6602082015260208152618ae9565b612c456040805167163e08bab849e3fe602082015260208152618ae9565b61271001908161271011612b7a5761271091612c6091618b91565b049161281b565b93915050612c896040805167c66271323511a1fd602082015260208152618ae9565b61281b565b634e487b7160e01b85526021600452602485fd5b9091506020813d602011612cd2575b81612cbe60209383618ae9565b81010312612cce5751905f612741565b5f80fd5b3d9150612cb1565b6040513d88823e3d90fd5b634e487b7160e01b87526011600452602487fd5b92915050612d1b6040805167c67955269a7cf675602082015260208152618ae9565b6126e8565b634e487b7160e01b86526021600452602486fd5b6040513d87823e3d90fd5b506108fc612533565b50505050612d6a6040805167998be442dbdd11b8602082015260208152618ae9565b6125b1565b612d8d604080516787f4331a63b62788602082015260208152618ae9565b61249b565b60405162461bcd60e51b815260206004820152602560248201527f496e73756666696369656e7420636f6c6c61746572616c20666f722074686973604482015264103637b0b760d91b6064820152608490fd5b60405162461bcd60e51b815260206004820152602560248201527f426f72726f7720616d6f756e74206578636565647320796f75722074696572206044820152641b1a5b5a5d60da1b6064820152608490fd5b60405162461bcd60e51b815260206004820152603060248201527f426f72726f7720616d6f756e74206578636565647320617661696c61626c652060448201526f6c656e64696e6720636170616369747960801b6064820152608490fd5b60405162461bcd60e51b81526020600482015260146024820152734372656469742073636f726520746f6f206c6f7760601b6044820152606490fd5b634e487b7160e01b84526021600452602484fd5b60405162461bcd60e51b815260206004820152601e60248201527f526570617920796f7572206578697374696e67206465627420666972737400006044820152606490fd5b5034610699578060031936011261069957612f5a6040805167030153d746917039602082015260208152618ae9565b612f786040805167d0ce8e35628285fd602082015260208152618ae9565b612f966040805167af48d42d11833f96602082015260208152618ae9565b6010546001600160a01b03163314612fc95760049061075360408051675dacdd1de8f9686c602082015260208152618ae9565b612fe7604080516744441c5050947dcf602082015260208152618ae9565b61300560408051673ab83ba07fd9ecfc602082015260208152618ae9565b61302360408051673848bd271ef06017602082015260208152618ae9565b61304160408051678976d2eb8141a71b602082015260208152618ae9565b61305f6040805167eceb4443e6bc4ae6602082015260208152618ae9565b5f51602061acd45f395f51905f526020600c5461ff0060ff8260081c161560081b169061ff0019161780600c556130a8604080516742f09b081e5695c185820152848152618ae9565b60ff6040519160081c1615158152a180f35b503461069957806003193601126106995760206040517facd38b7c4e04b2b78fc2ca994eae1a3eb206005ffa4c11fcf4a9d81c94684b2d8152f35b5034610699576020366003190112610699576020906040906001600160a01b0361311d61893c565b168152600683522054604051908152f35b503461069957806003193601126106995760206040516203f4808152f35b5034610699578060031936011261069957602060405160828152f35b50346106995780600319360112610699576020601554604051908152f35b50346106995780600319360112610699576020601454604051908152f35b5034610699576020366003190112610699576020906040906001600160a01b036131cc61893c565b168152600383522054604051908152f35b50346106995760203660031901126106995760043590600854821015610699576020613208836189aa565b905460405160039290921b1c6001600160a01b03168152f35b5034610699576020366003190112610699576040809160043581526019602052206001815491015482519182526020820152f35b50346106995780600319360112610699576132846040805167ce07d296927c7788602082015260208152618ae9565b6132a2604080516749c8becc2ef0cc39602082015260208152618ae9565b602060ff600c5460081c166040519015158152f35b50346106995780600319360112610699576011546040516001600160a01b039091168152602090f35b5034610699576040366003190112610699576132fa61893c565b6024359061331c6040805167a89a7645fb85a909602082015260208152618ae9565b61333a604080516725860e528d6acb4c602082015260208152618ae9565b613358604080516766ecc71b30dc142b602082015260208152618ae9565b6011546001600160a01b031633036134865760207f4afae6838a181695abc7978598380d73bc2144eb38580c130f86e4b1e6531e15916133aa6040805167323d365675b74ad485820152848152618ae9565b6133c6604080516731c0da703c8fd1c685820152848152618ae9565b6133e26040805167fe66757b93d402b485820152848152618ae9565b6133ef6064851115619c88565b61340b604080516713632d0342cc07b885820152848152618ae9565b6134276040805167c636049ba928f0a385820152848152618ae9565b60018060a01b031692838552600282526134536040805167e7819a129f96e90185820152848152618ae9565b8385526002825280604086205561347c6040805167a715ada4c31aff6785820152848152618ae9565b604051908152a280f35b60405162461bcd60e51b815260206004820152601d60248201527f4f6e6c79206372656469742073797374656d2063616e207570646174650000006044820152606490fd5b5034610699576040366003190112610699576134e561893c565b6024359061350760408051673d2b74c5fe93633b602082015260208152618ae9565b6135256040805167135d04b25db0f0c0602082015260208152618ae9565b6001600160a01b03168083526001602052604083205490919060ff166135d857613563604080516763d81fd0682b9508602082015260208152618ae9565b61358160408051670696fa0062aad843602082015260208152618ae9565b6040515f51602061acf45f395f51905f5233918061359e8161925c565b0390a26135bf6040805167eb273465c305c9de602082015260208152618ae9565b60405162461bcd60e51b8152806109896004820161925c565b6135f66040805167a5fb897b64ff23f4602082015260208152618ae9565b6136146040805167fb3d5335cab937ef602082015260208152618ae9565b806136f5576136376040805167cd62e96ffd14996d602082015260208152618ae9565b613655604080516744e5021ca489c4d3602082015260208152618ae9565b6040515f51602061acf45f395f51905f5233918061369a816060906020815260126020820152710416d6f756e74206d757374206265203e20360741b60408201520190565b0390a26136bb6040805167a3c31e72fc7fe8aa602082015260208152618ae9565b60405162461bcd60e51b81526020600482015260126024820152710416d6f756e74206d757374206265203e20360741b6044820152606490fd5b6137136040805167e8a07f492da686e2602082015260208152618ae9565b613731604080516782a5b0b4d4ab7264602082015260208152618ae9565b3383526005602052604083205460ff16156137d957613764604080516798bef2f54395b92d602082015260208152618ae9565b61378260408051674f8f44f29fec8e75602082015260208152618ae9565b6040515f51602061acf45f395f51905f5233918061379f81619288565b0390a26137c060408051677aae72624c18b31e602082015260208152618ae9565b60405162461bcd60e51b81528061098960048201619288565b6137f7604080516788cec1c0199d8c20602082015260208152618ae9565b61381560408051678333ebe49b7273f3602082015260208152618ae9565b338352600a602052604083205460ff16613a16576138476040805167a697659515eaecf3602082015260208152618ae9565b61386560408051677459569ed5a759dd602082015260208152618ae9565b338352600a60205260408320600160ff1982541617905561389a60408051672285607f21b19d1b602082015260208152618ae9565b600954600160401b811015613a02578060016138bb920160095560096189c2565b81546001600160a01b0360039290921b91821b19163390911b1790555b6138f66040805167c76bf7d53bb5ac0f602082015260208152618ae9565b6040516323b872dd60e01b81523360048201523060248201526044810182905260208160648187875af180156139f7576139bc575b5061394a604080516702c3e3f7ccbf7008602082015260208152618ae9565b81835260208381526040808520335f90815292529020805461396d908390618b18565b905561398d60408051670f77c5cae5964958602082015260208152618ae9565b6040519081527ff1c0dd7e9b98bbff859029005ef89b127af049cd18df1a8d79f0b7e019911e5660203392a380f35b6020813d6020116139ef575b816139d560209383618ae9565b810103126139eb576139e690618b0b565b61392b565b8380fd5b3d91506139c8565b6040513d86823e3d90fd5b634e487b7160e01b84526041600452602484fd5b613a34604080516719e782453899ad86602082015260208152618ae9565b6138d8565b5034610699578060031936011261069957602090604051908152f35b5034610699578060031936011261069957600e546040516001600160a01b039091168152602090f35b5034610699578060031936011261069957602060405160058152f35b503461069957602036600319011261069957613ab461893c565b613ad260408051679a40d5ec79a52d0b602082015260208152618ae9565b613af06040805167d0ce8e35628285fd602082015260208152618ae9565b613b0e6040805167af48d42d11833f96602082015260208152618ae9565b6010546001600160a01b03163314613b415760048261075360408051675dacdd1de8f9686c602082015260208152618ae9565b613b5f604080516744441c5050947dcf602082015260208152618ae9565b613b7d60408051673ab83ba07fd9ecfc602082015260208152618ae9565b613b9b604080516702d8c181fc6f9a18602082015260208152618ae9565b613bb960408051676839fe142f21f1dd602082015260208152618ae9565b613bd760408051677e13df95d806eede602082015260208152618ae9565b60115490613bf960408051676351cb218bebb767602082015260208152618ae9565b60018060a01b031690816001600160601b0360a01b821617601155613c326040805167710111ce735897be602082015260208152618ae9565b6001600160a01b03167f3637d79e8b0bd63fa3bcc41c2ab614b349b83626b91f73211bc80c6ec5ec4e958380a380f35b503461069957604036600319011261069957613c7c61893c565b60243590613c9e6040805167a2f570f89e987ade602082015260208152618ae9565b613cbc6040805167d0ce8e35628285fd602082015260208152618ae9565b613cda6040805167af48d42d11833f96602082015260208152618ae9565b6010546001600160a01b03163314613d0d5760048361075360408051675dacdd1de8f9686c602082015260208152618ae9565b613d2b604080516744441c5050947dcf602082015260208152618ae9565b613d4960408051673ab83ba07fd9ecfc602082015260208152618ae9565b613d67604080516760feb15f4737eb93602082015260208152618ae9565b613d856040805167ea32c2b11f9afacc602082015260208152618ae9565b613da3604080516722edf90831d9c53a602082015260208152618ae9565b613dc160408051675adb086bba48e05a602082015260208152618ae9565b613ddf60408051678ea8aa6976746721602082015260208152618ae9565b6001600160a01b0316908115613fc757613e0d604080516772b45cda1acb686e602082015260208152618ae9565b613e2b604080516790fd4334c6eb1576602082015260208152618ae9565b613e4960408051674f3ff835784cad2e602082015260208152618ae9565b308214613f8a5760207f4afae6838a181695abc7978598380d73bc2144eb38580c130f86e4b1e6531e1591613e906040805167d6f3b53a2c8cc77185820152848152618ae9565b613eac6040805167cec5581a07d4252f85820152848152618ae9565b613ec86040805167e3cd631a89230e8485820152848152618ae9565b613ee460408051677dfa52a8108c5ad685820152848152618ae9565b613f0060408051679d4fa9b7d14640e085820152848152618ae9565b613f1c604080516719b654566fbbec0b85820152848152618ae9565b613f296064821115619c88565b613f456040805167137edf1174889b7385820152848152618ae9565b613f616040805167ab9798c56680e58d85820152848152618ae9565b8385526002825280604086205561347c60408051673900f175048f88b985820152848152618ae9565b60405162461bcd60e51b815260206004820152601560248201527424b73b30b634b21030b2323932b9b99d1039b2b63360591b6044820152606490fd5b60405162461bcd60e51b815260206004820152601d60248201527f496e76616c696420616464726573733a207a65726f20616464726573730000006044820152606490fd5b50346106995780600319360112610699576020600b54604051908152f35b503461069957806003193601126106995760206040517f96737339a958f216173e690d06f324072e6dc3146e04c060bd723906d6b190768152f35b50346106995760203660031901126106995760209060ff906040906001600160a01b0361409061893c565b168152600a84522054166040519015158152f35b50346106995760403660031901126106995760406140c0618952565b9160043581525f51602061ad145f395f51905f52602052209060018060a01b03165f52602052602060ff60405f2054166040519015158152f35b503461069957602036600319011261069957604061411e61411961893c565b619a5a565b825191151582526020820152f35b50346106995760203660031901126106995760a061415061414b61893c565b6198bb565b9260409291925194151585521515602085015215156040840152606083015215156080820152f35b503461069957806003193601126106995760206040517fce802e42c93d0fbd61dfc706a0e806b78ac046397e07510da2f223464e4788e08152f35b50346106995780600319360112610699576020601754604051908152f35b503461069957806003193601126106995760206040517f0e0e24c52bc4f24612e3f568966757426acd82325205933a9270e1ce7c4d93c28152f35b5034610699576040366003190112610699576143cf61422961893c565b61439c612a4c602435926142516040805167139a3adcd4c3ea06602082015260208152618ae9565b61426f60408051671d1ff9aae547c9b8602082015260208152618ae9565b61428d6040805167ceb588010e44ffaa602082015260208152618ae9565b6142a260018060a01b03600e5416331461982f565b6142c06040805167cdbbecdd6329fd7a602082015260208152618ae9565b6142de6040805167c40a3fad690bf056602082015260208152618ae9565b60018060a01b03811680875260036020528660408120556143136040805167fb4cb14b22e5c522602082015260208152618ae9565b808752600460205286604081205561433f6040805167ccafe179c26e403a602082015260208152618ae9565b80875260056020526040872060ff1981541690556143716040805167f6ce6a80fe84b62c602082015260208152618ae9565b86526006602052856040812055610e1f604080516766233f61ca713427602082015260208152618ae9565b6143a7828254618b66565b90556143c76040805167bb3b73d4f52b106b602082015260208152618ae9565b601554618b18565b60155580f35b5034610699576040366003190112610699576143ef61893c565b6143f7618952565b9061441660408051678d3e907c9507b2ef602082015260208152618ae9565b6144346040805167d0ce8e35628285fd602082015260208152618ae9565b6144526040805167af48d42d11833f96602082015260208152618ae9565b6010546001600160a01b031633146144855760048361075360408051675dacdd1de8f9686c602082015260208152618ae9565b6144a3604080516744441c5050947dcf602082015260208152618ae9565b6144c160408051673ab83ba07fd9ecfc602082015260208152618ae9565b6144df6040805167f31a275b05e46ba4602082015260208152618ae9565b6144fd604080516738ee95c4b0503b4e602082015260208152618ae9565b61451b60408051675e229586361d1d0d602082015260208152618ae9565b6145396040805167afab5706d86950d4602082015260208152618ae9565b6001600160a01b03168083526001602052604083205461455b9060ff166195c8565b61457960408051677779383d2f53db2e602082015260208152618ae9565b614597604080516749154278f55c425c602082015260208152618ae9565b825260076020526040822080546001600160a01b0319166001600160a01b0390921691909117905580f35b50346106995760203660031901126106995760e0906040906001600160a01b036145ea61893c565b168152601a602052208054906001810154906002810154600382015460048301549160ff600660058601549501541694604051968752602087015260408601526060850152608084015260a0830152151560c0820152f35b50346106995760203660031901126106995760209060ff906040906001600160a01b0361466d61893c565b168152600184522054166040519015158152f35b50346106995760203660031901126106995761469b61893c565b6146b960408051678e60610fd4d12e9b602082015260208152618ae9565b6146d76040805167ac8cac8fa27e977b602082015260208152618ae9565b600b546146f860408051676996c6a9d9693abe602082015260208152618ae9565b61470760145460155490618b66565b61472560408051676fc37da83250a95f602082015260208152618ae9565b81158015906149e3575b806149ba575b156149b157670de0b6b3a7640000810290808204670de0b6b3a7640000149015171561499d579061476591618b73565b905b614785604080516787f4237d2eb7597b602082015260208152618ae9565b600f54604051634fd41dad60e11b81526004810193909352602090839060249082906001600160a01b03165afa91821561499257839261495c575b506147e8906147e360408051679cbca7ac5865c9fe602082015260208152618ae9565b619313565b50905061480960408051675e29d321395c77a9602082015260208152618ae9565b8161482860408051676924dc3766d32ca2602082015260208152618ae9565b838212156148ad57506148719061485360408051674cdbdf1ea17468a0602082015260208152618ae9565b6127f86040805167427bfdf63411badc602082015260208152618ae9565b61271003916127108311610fe8575061488f60209261271092618b91565b045b610a406040805167137451301f9d4ea085820152848152618ae9565b6148cb604080516758f68ff8e2a3e9c9602082015260208152618ae9565b8382131561493457506148f2604080516782651f36ff779d4f602082015260208152618ae9565b6149106040805167420b687832504537602082015260208152618ae9565b61271001918261271011610fe8575061492e60209261271092618b91565b04614891565b915050602091506149576040805167b64219f9eaba9c0a85820152848152618ae9565b614891565b9091506020813d60201161498a575b8161497860209383618ae9565b81010312612cce5751906147e86147c0565b3d915061496b565b6040513d85823e3d90fd5b634e487b7160e01b84526011600452602484fd5b50508190614767565b506149dc60408051679fe90205127c8b1b60c01b602082015260208152618ae9565b6001614735565b50614a056040805167026285f4a4c0c13760c31b602082015260208152618ae9565b8361472f565b503461069957602036600319011261069957600435906012548210156106995760a0614a3683618a28565b50805490600181015490600281015460046003830154920154926040519485526020850152604084015260608301526080820152f35b503461069957602036600319011261069957614a8661893c565b614aa460408051676df065cfa31339a1602082015260208152618ae9565b614ac26040805167d0ce8e35628285fd602082015260208152618ae9565b614ae06040805167af48d42d11833f96602082015260208152618ae9565b60105490336001600160a01b03831614614b155760048361075360408051675dacdd1de8f9686c602082015260208152618ae9565b614b33604080516744441c5050947dcf602082015260208152618ae9565b614b5160408051673ab83ba07fd9ecfc602082015260208152618ae9565b614b6f6040805167dd67d806e7e24d6a602082015260208152618ae9565b614b8d6040805167a1c8c9772069feb7602082015260208152618ae9565b614bab60408051671edcf3e159c855e5602082015260208152618ae9565b614bc96040805167648fe47b94846a89602082015260208152618ae9565b6001600160a01b0316908115614c2657614bf76040805167072d450686ce9495602082015260208152618ae9565b614c156040805167bf796ddf0549d4a5602082015260208152618ae9565b6001600160a01b0319161760105580f35b60405162461bcd60e51b815260206004820152600f60248201526e496e76616c6964206164647265737360881b6044820152606490fd5b5034610699578060031936011261069957614c8c6040805167c2ad965c758567ed602082015260208152618ae9565b614caa6040805167fa4d9c4f31b35945602082015260208152618ae9565b6010546040516001600160a01b039091168152602090f35b503461069957614cd1366189d7565b50506060614cf360408051672e93f1ea6bf71a38602082015260208152618ae9565b614d1160408051672138c298e45564cd602082015260208152618ae9565b614d2f6040805167680f2f993730e2c7602082015260208152618ae9565b601b54603c810180911161517957614d489042116193fc565b614d6660408051679d3b68fde2f8453d602082015260208152618ae9565b614d84604080516788c2c9e135fb61af602082015260208152618ae9565b614d8c61a193565b614daa6040805167217e18a10c37b32c602082015260208152618ae9565b614db481516197ed565b90614dd360408051672b523c4a0a37726c602082015260208152618ae9565b8390614df36040805167de51be54a2595d2f602082015260208152618ae9565b84915b8151831015614fb757614e1d604080516773cd4f058498b086602082015260208152618ae9565b6001600160a01b03614e2f8484618ba4565b5116614e4f6040805167227a994385fe8fec602082015260208152618ae9565b8087526005602052604087205460ff1615614f9457614e82604080516737f6fbd66927a5a9602082015260208152618ae9565b614ea06040805167446b433408745f71602082015260208152618ae9565b808752600660205260408720546203f4808101809111614f8057614ed86040805167940bfee52ca3ab61602082015260208152618ae9565b4210614f5857600191614f4f91614f036040805167425eeee5365e0b37602082015260208152618ae9565b614f2160408051676cdc4e05e87fab5c602082015260208152618ae9565b614f2b8288618ba4565b52614f4a6040805167946856c1d92745e7602082015260208152618ae9565b618bb8565b925b0191614df6565b5091600190614f7b604080516772041a99d9e6c06c602082015260208152618ae9565b614f51565b634e487b7160e01b88526011600452602488fd5b5091600190614f7b6040805167752a9dfa04c5762c602082015260208152618ae9565b85849186614fd96040805167cef8be8445c85727602082015260208152618ae9565b811561512f5750614ffe6040805167f32138d5e1744241602082015260208152618ae9565b61501c60408051677e123cbf4ee9f926602082015260208152618ae9565b615025816197ed565b9061504460408051676731b6bf8a580fe9602082015260208152618ae9565b825b8181106150eb575050606091925061507260408051679260ec39abaae1ff602082015260208152618ae9565b60206150a76150b5600193615099604080516702d1d7f73304565a87820152868152618ae9565b604051928391858301618a44565b03601f198101835282618ae9565b935b604051948593151584526040838501528051928391826040870152018585015e828201840152601f01601f19168101030190f35b60019061510c6040805167ce9ecd62ebeb6866602082015260208152618ae9565b818060a01b0361511c8288618ba4565b51166151288286618ba4565b5201615046565b92505060609061515360408051674144d8998fcb2d22602082015260208152618ae9565b6151716040805167f6c942594a4c28c5602082015260208152618ae9565b6020816150b7565b634e487b7160e01b83526011600452602483fd5b5034610699576020366003190112610699576020610a406151ac61893c565b619614565b503461069957602036600319011261069957600435801515809103610682576151ee604080516706cc3f7e15628a74602082015260208152618ae9565b61520c6040805167d0ce8e35628285fd602082015260208152618ae9565b61522a6040805167af48d42d11833f96602082015260208152618ae9565b6010546001600160a01b0316331461525d5760048261075360408051675dacdd1de8f9686c602082015260208152618ae9565b60207f895b395338611f71448ee682a563b0c13233e238236eb6700d45720ec4bf44459161529d604080516744441c5050947dcf85820152848152618ae9565b6152b960408051673ab83ba07fd9ecfc85820152848152618ae9565b6152d560408051674bd32f80e804caa085820152848152618ae9565b6152f16040805167fe5acd7dc3c7c0ad85820152848152618ae9565b61530d6040805167d5525df1fd55a86e85820152848152618ae9565b6011805460ff60a01b191660a083901b60ff60a01b16179055604080516763b2b1e008a86286848201528381526153449190618ae9565b604051908152a180f35b5034610699576020366003190112610699576020906040906001600160a01b0361537661893c565b168152601683522054604051908152f35b5034610699578060031936011261069957602060ff600c5460081c166040519015158152f35b50346106995780600319360112610699576020604051603c8152f35b5034610699576020366003190112610699576020906153e661893c565b615402604080516793e2a9cd316bbff286820152858152618ae9565b61541e6040805167a45212427ee248ae86820152858152618ae9565b61543a6040805167c5fc0ea5dfdf99c186820152858152618ae9565b6001600160a01b031680825260018352604082205461545b9060ff166195c8565b61547760408051672c29c80b8e130f1886820152858152618ae9565b6154936040805167592ee884cebef58e86820152858152618ae9565b815260078252604060018060a01b0391205416604051908152f35b503461069957806003193601126106995760206040516103848152f35b5034610699576040366003190112610699576154e561893c565b60243590811515908183036139eb5761551260408051676d208898fcd4f0eb602082015260208152618ae9565b6155306040805167d0ce8e35628285fd602082015260208152618ae9565b61554e6040805167af48d42d11833f96602082015260208152618ae9565b6010546001600160a01b031633146155815760048461075360408051675dacdd1de8f9686c602082015260208152618ae9565b61559f604080516744441c5050947dcf602082015260208152618ae9565b6155bd60408051673ab83ba07fd9ecfc602082015260208152618ae9565b6155db604080516702fe964d34730b4e602082015260208152618ae9565b6155f960408051679a7f47a21725b483602082015260208152618ae9565b6156176040805167325094dc9033e701602082015260208152618ae9565b6001600160a01b0316808452600160205260408420805460ff191660ff851515161790559161565a6040805167f2adf8c2d1bdbfbe602082015260208152618ae9565b8361567960408051671c0fc3cf544e302e602082015260208152618ae9565b600854855b8181106157ba575b50506156a66040805167578ce98bcaa9666b602082015260208152618ae9565b816157b1575b501561576c576156d06040805167e368c86c8b021f3e602082015260208152618ae9565b6156ee60408051674fead74bcf7c84fb602082015260208152618ae9565b600854600160401b811015613a02577f15f5cc64ca777db85f6c05fdba671568758b38329616d4d4b43bb8b092fe9a8d916157338260016020940160085560086189c2565b81546001600160a01b0360039290921b91821b19169086901b1790555b61347c6040805167fee269e6079adbfd85820152848152618ae9565b60207f15f5cc64ca777db85f6c05fdba671568758b38329616d4d4b43bb8b092fe9a8d916157ac6040805167a6aabb9eb59721d185820152848152618ae9565b615750565b9050155f6156ac565b6157d8604080516790180a5290fbc7d0602082015260208152618ae9565b856157e2826189aa565b905460039190911b1c6001600160a01b03160361585f5750505061581a6040805167f533c04169097389602082015260208152618ae9565b6158386040805167b258b1af401908e9602082015260208152618ae9565b60016158586040805167da21ee9a7a1971e2602082015260208152618ae9565b5f80615686565b600190615880604080516708cf8d66373a7852602082015260208152618ae9565b0161567e565b50346106995760403660031901126106995760406158a261893c565b916158ab618952565b6158c8838051674fca2e88d65e9863602082015260208152618ae9565b6158e5838051670f99fe9516d54669602082015260208152618ae9565b60018060a01b0316815280602052209060018060a01b03165f52602052602060405f2054604051908152f35b50346106995760203660031901126106995761592e610e1f61893c565b60405190600581101561594357602092508152f35b634e487b7160e01b83526021600452602483fd5b50346106995780600319360112610699576159866040805167500ad3a2b740ca12602082015260208152618ae9565b6159a460408051671aa728cc0b4c7260602082015260208152618ae9565b602060405160828152f35b503461069957806003193601126106995760206040517f430b074324c1d9f1ce97c9e9efd8cc6b779c8a501b53808a5cafe19682f95dd58152f35b5034610699576159f9366189d7565b615a176040805167756ce0a06648dd37602082015260208152618ae9565b615a3560408051679f6f110572b3a078602082015260208152618ae9565b615a536040805167953eaee9a9a4da9b602082015260208152618ae9565b601b54603c810180911161499d57615a6c9042116193fc565b615a8a6040805167c8c071ae5afbef1e602082015260208152618ae9565b615aa8604080516743d47161d077ffd8602082015260208152618ae9565b42601b55615aca6040805167fea54c9d580ae4f4602082015260208152618ae9565b81019060208183031261098d5780359067ffffffffffffffff82116139eb57019080601f8301121561098d57813590615b028261943b565b92615b106040519485618ae9565b82845260208085019360051b820101918211615d7257602001915b818310615d4e57505050615b53604080516781c8f0dca190d485602082015260208152618ae9565b815b8151811015615d4a57615b7c604080516792e7591732194ee0602082015260208152618ae9565b6001600160a01b03615b8e8284618ba4565b5116615bae60408051677b454eb7b41247a6602082015260208152618ae9565b8084526005602052604084205460ff1615615d2857615be16040805167f28888e6dd161bab602082015260208152618ae9565b615bff60408051677cd03569e182a799602082015260208152618ae9565b808452600660205260408420546203f4808101809111615d1457908491615c3a6040805167e25c9b4c8a01f8f4602082015260208152618ae9565b4210615cec57615c5e604080516736b37dd52fd5511d602082015260208152618ae9565b615c7c6040805167036f84bb1ebb0395602082015260208152618ae9565b600e546001600160a01b0316803b1561098d5760405163bcebb1d760e01b81523060048201526001600160a01b0392909216602483015282908290604490829084905af1801561068e57615cd7575b50506001905b01615b55565b81615ce191618ae9565b61098d57825f615ccb565b5050600190615d0f6040805167a126c59a58898e65602082015260208152618ae9565b615cd1565b634e487b7160e01b85526011600452602485fd5b50600190615d0f6040805167389dc53dfb9bfe44602082015260208152618ae9565b8280f35b82356001600160a01b0381168103615d6e57815260209283019201615b2b565b8580fd5b8480fd5b50346106995780600319360112610699576040602091615da782805167b3bcbc50bcc7dba086820152858152618ae9565b615dc282805167e1489de91f08f25186820152858152618ae9565b338152600383522054604051908152f35b503461069957806003193601126106995760206040517f5fef09193e4e8110de1cc5ba269e889a5fb9093ba33c4df4b67dc2eaa1ca1fff8152f35b5034610699578060031936011261069957600c5460405160109190911c6001600160a01b03168152602090f35b505f366003190112612cce57615e656040805167af395a1c37a57266602082015260208152618ae9565b615e836040805167a4cb4b17c6228c8c602082015260208152618ae9565b615ea16040805167c16727bf5183843b602082015260208152618ae9565b615ebf60408051677c1a8e263655ff82602082015260208152618ae9565b615ed160ff600c5460081c1615618b25565b615eef6040805167777490a767dbdb85602082015260208152618ae9565b615f0d6040805167ab37fa967a390bb6602082015260208152618ae9565b615f2b604080516793ed3908a483d561602082015260208152618ae9565b615f496040805167757411ba7a6236f2602082015260208152618ae9565b615f676040805167bd73036a8818bf52602082015260208152618ae9565b335f52600360205260405f2054155f1461605957615f996040805167ae3083edadaf727a602082015260208152618ae9565b615fb76040805167a1a60b0fa902fa22602082015260208152618ae9565b6040515f51602061acf45f395f51905f52339180615ffd81606090602081526013602082015272139bc81bdd5d1cdd185b991a5b99c81919589d606a1b60408201520190565b0390a261601e604080516738dec04515fd3119602082015260208152618ae9565b60405162461bcd60e51b8152602060048201526013602482015272139bc81bdd5d1cdd185b991a5b99c81919589d606a1b6044820152606490fd5b6160776040805167ddf553e7ed9b8fc3602082015260208152618ae9565b6160956040805167872b36e57331b1c2602082015260208152618ae9565b34616182576160b86040805167018325d7352cde53602082015260208152618ae9565b6160d66040805167311c499b92ecb06a602082015260208152618ae9565b6040515f51602061acf45f395f51905f52339180616121816060906020815260186020820152774d7573742073656e642066756e647320746f20726570617960401b60408201520190565b0390a261614260408051674d96ff2ca1c0161b602082015260208152618ae9565b60405162461bcd60e51b81526020600482015260186024820152774d7573742073656e642066756e647320746f20726570617960401b6044820152606490fd5b6161a06040805167e915920cf4330d0a602082015260208152618ae9565b6161be6040805167b6b026da6528035a602082015260208152618ae9565b335f52600360205260405f205434115f146162c5576161f16040805167a869b07bd581847c602082015260208152618ae9565b61620f6040805167ae40821f5d21ac64602082015260208152618ae9565b6040515f51602061acf45f395f51905f5233918061625f8160609060208152601c60208201527f52657061796d656e74206578636565647320746f74616c20646562740000000060408201520190565b0390a2616280604080516745d384d3989f868b602082015260208152618ae9565b60405162461bcd60e51b815260206004820152601c60248201527f52657061796d656e74206578636565647320746f74616c2064656274000000006044820152606490fd5b6162e36040805167c6cf5270dacf28b4602082015260208152618ae9565b6163016040805167e5876d3870f5ae20602082015260208152618ae9565b61630a33619453565b616328604080516780a6dbd07efcceca602082015260208152618ae9565b61633181618a86565b61633c348254618b66565b905561635c6040805167d10e228d58caefb5602082015260208152618ae9565b335f52600360205260405f20616373348254618b66565b90556163936040805167f96180445331681a602082015260208152618ae9565b61639f34601554618b18565b6015556163c060408051678e7360eac52a4dfc602082015260208152618ae9565b335f52600360205260405f2054155f146168b4576163f26040805167e4c02a345cdc5d8a602082015260208152618ae9565b61641060408051676c3c9dc0654c43cd602082015260208152618ae9565b335f5260046020525f60408120555b61643d6040805167f78ebae792a11f5d602082015260208152618ae9565b335f52600560205260ff60405f2054165f146168915761647160408051677c2e01ae8d48310f602082015260208152618ae9565b61648f6040805167e10ff1a7422f1fae602082015260208152618ae9565b335f52600560205260405f2060ff1981541690556164c16040805167fd5a749a73038efd602082015260208152618ae9565b335f5260066020525f60408120555b6164ee604080516748e8aff85705cd6d602082015260208152618ae9565b61650c60408051677c5fc9020cb3c664602082015260208152618ae9565b6018546001600160a01b031615158061687c575b1561685d5761654360408051678e92947d7ffd2466602082015260208152618ae9565b616561604080516744d3dbe25ed09608602082015260208152618ae9565b5f6165806040805167b5c85dd4a577733b602082015260208152618ae9565b335f52600460205260405f205462093a8081018091116168265742111561683a57506165c060408051675d29cccce1e0c921602082015260208152618ae9565b6165de60408051673fa14b656d5d1203602082015260208152618ae9565b335f52600460205260405f205462093a80810180911161682657616606620151809142618b66565b045b6166266040805167ff2a2b05c2096170602082015260208152618ae9565b80156168065761664a60408051676c0ec56e94f560b9602082015260208152618ae9565b61666860408051672b8fc522eb3c2a98602082015260208152618ae9565b335f52600360205260405f20549060058310156167f2576166a361016d91610f1561271094865f526019602052600160405f20015490618b91565b04046166c3604080516755febc8f276dfab5602082015260208152618ae9565b80156167cd576166e76040805167c2127cba6add9437602082015260208152618ae9565b6167056040805167b3d27134b75c56c5602082015260208152618ae9565b60018060a01b03600e541691335f52600360205260405f205491833b15612cce575f92608491604051958694859363e50649d160e01b8552336004860152602485015260448401528160648401525af180156167c2576167af575b505b616780604080516732784b19e47f7e72602082015260208152618ae9565b6040513481527f0516911bcc3a0a7412a44601057c0a0a1ec628bde049a84284bc42886653448860203392a280f35b6167bb91505f90618ae9565b5f5f616760565b6040513d5f823e3d90fd5b50506167ed604080516738e79b99854e226e602082015260208152618ae9565b616762565b634e487b7160e01b5f52602160045260245ffd5b50506167ed6040805167fc63e1446712a449602082015260208152618ae9565b634e487b7160e01b5f52601160045260245ffd5b6168586040805167f954853cca7aa9aa602082015260208152618ae9565b616608565b506167ed6040805167f0f8f34361fd5d71602082015260208152618ae9565b50335f52600460205260405f20541515616520565b6168af604080516715529bee6592017f602082015260208152618ae9565b6164d0565b6168d260408051674f65f50bdaf8a27b602082015260208152618ae9565b61641f565b34612cce575f366003190112612cce576020601b54604051908152f35b34612cce576020366003190112612cce5760606169126147e361893c565b9060405192835260208301526040820152f35b34612cce576020366003190112612cce57600435600954811015612cce5761320860209161897e565b34612cce576040366003190112612cce57616967618952565b336001600160a01b03821603616985576169839060043561aa65565b005b63334bd91960e11b5f5260045ffd5b34612cce576020366003190112612cce576169c3604080516713ca8652a559a5e3602082015260208152618ae9565b6169e16040805167d0ce8e35628285fd602082015260208152618ae9565b6169ff6040805167af48d42d11833f96602082015260208152618ae9565b6010546001600160a01b03163314616a3e57616a2f60408051675dacdd1de8f9686c602082015260208152618ae9565b630925c89960e31b5f5260045ffd5b616a5c604080516744441c5050947dcf602082015260208152618ae9565b616a7a60408051673ab83ba07fd9ecfc602082015260208152618ae9565b616a9860408051673b2713a5ecb2566c602082015260208152618ae9565b616ab6604080516755c0ea93e17c7b81602082015260208152618ae9565b616ad460408051670acce9743a505cb6602082015260208152618ae9565b600435601755005b34612cce575f366003190112612cce5760206040517ffed613f2d4bec2209ff904769fa3c094c155ec5048c0bb2e17f16e523671ca2c8152f35b34612cce576040366003190112612cce57616b2f61893c565b602435616b5060408051672b8fff35cf08632c602082015260208152618ae9565b616b6e60408051676f8bda37597e94a0602082015260208152618ae9565b6001600160a01b0382165f8181526001602052604090205490929060ff16616c0a57616bae6040805167725eb474ada2e366602082015260208152618ae9565b616bcc60408051676ad6f318359c1af2602082015260208152618ae9565b6040515f51602061acf45f395f51905f52339180616be98161925c565b0390a26135bf6040805167a8244ef915959bd7602082015260208152618ae9565b616c28604080516755aa8c8f59bda9c6602082015260208152618ae9565b616c466040805167ee352ab46f8a2dc2602082015260208152618ae9565b5f83815260208181526040808320338452909152902054821115616d0857616c8260408051670f9a39125a5c9a31602082015260208152618ae9565b616ca0604080516776112b8141eb3659602082015260208152618ae9565b6040515f51602061acf45f395f51905f52339180616ce781606090602081526014602082015273496e73756666696369656e742062616c616e636560601b60408201520190565b0390a261094c6040805167bb9e0953f7f3b812602082015260208152618ae9565b616d266040805167f64d53d97c6c4db0602082015260208152618ae9565b616d44604080516797c69f0041581b3c602082015260208152618ae9565b335f52600560205260ff60405f2054165f14616dd457616d786040805167833ef49d934766d1602082015260208152618ae9565b616d966040805167c458a0cad2516166602082015260208152618ae9565b6040515f51602061acf45f395f51905f52339180616db381619288565b0390a26137c06040805167bd5b4fd0dea03f1f602082015260208152618ae9565b616e3f90616df66040805167306a0ac44df7b629602082015260208152618ae9565b616e1460408051678a88a7af10cefd6c602082015260208152618ae9565b670de0b6b3a7640000616e38616e32616e2c33619614565b9361a4ee565b85618b91565b0490618b66565b616e5d6040805167eb029c08d1156435602082015260208152618ae9565b60648102908082046064149015171561682657335f526003602052602460405f2054602060018060a01b03600d541660405193848092631ee1b90b60e21b82528960048301525afa9081156167c2575f91617088575b616ebd9250618b91565b1115616f5657616ee16040805167427fe56f0d20ee02602082015260208152618ae9565b616eff6040805167524aadc0d7721e13602082015260208152618ae9565b6040515f51602061acf45f395f51905f52339180616f1c816192c0565b0390a2616f3d6040805167b2dbd272832b6bdf602082015260208152618ae9565b60405162461bcd60e51b815280610989600482016192c0565b616f7460408051676d089a621c295e26602082015260208152618ae9565b616f926040805167bd92726ee8ec4394602082015260208152618ae9565b5f8281526020818152604080832033845290915290208054616fb5908390618b66565b9055616fd56040805167d91c4d8561f5d1c2602082015260208152618ae9565b60405163a9059cbb60e01b8152336004820152602481018290526020816044815f875af180156167c257617051575b5061702360408051671056383a73bd2aa2602082015260208152618ae9565b6040519081527f45892a46e6cef329bb642da6d69846d324db43d19008edc141ed82382eda1bee60203392a3005b6020813d602011617080575b8161706a60209383618ae9565b81010312612cce5761707b90618b0b565b617004565b3d915061705d565b90506020823d6020116170b6575b816170a360209383618ae9565b81010312612cce57616ebd915190616eb3565b3d9150617096565b34612cce576020366003190112612cce576170d761893c565b5f60c06040516170e681618acd565b8281528260208201528260408201528260608201528260808201528260a082015201526171276040805167e56b65cb50bf4a86602082015260208152618ae9565b61714560408051679f589518f52ecf5a602082015260208152618ae9565b60018060a01b03165f52601a60205260e060405f2060405161716681618acd565b815491828252600181015460208301908152600282015460408401908152600383015490606085019182526004840154926080860193845260c060ff600660058801549760a08a01988952015416960195151586526040519687525160208701525160408601525160608501525160808401525160a083015251151560c0820152f35b34612cce5760c0366003190112612cce5760043561721b604080516739679c04e802499f602082015260208152618ae9565b6172396040805167d0ce8e35628285fd602082015260208152618ae9565b6172576040805167af48d42d11833f96602082015260208152618ae9565b6010546001600160a01b0316331461728757616a2f60408051675dacdd1de8f9686c602082015260208152618ae9565b616983906172a9604080516744441c5050947dcf602082015260208152618ae9565b6172c760408051673ab83ba07fd9ecfc602082015260208152618ae9565b6172e5604080516770e3d8bae8690fb3602082015260208152618ae9565b617303604080516753cc67e3d4812bb2602082015260208152618ae9565b61732160408051671e87b151b22b69f9602082015260208152618ae9565b61733f60408051679b7b6af25b1e5644602082015260208152618ae9565b61734c60125482106191da565b61736a604080516762308de8ea915cb9602082015260208152618ae9565b6173886040805167acc3fa24975b068b602082015260208152618ae9565b6173c26040519161739883618a9d565b602435835260443560208401526064356040840152608435606084015260a4356080840152618a28565b90619215565b34612cce576040366003190112612cce576169836004356173e7618952565b9061740d6119dc825f525f51602061ad145f395f51905f52602052600160405f20015490565b61a9c1565b34612cce576020366003190112612cce576020610a406004355f525f51602061ad145f395f51905f52602052600160405f20015490565b34612cce575f366003190112612cce57616983618bc6565b5f366003190112612cce5761748a60408051671be13f907bde6537602082015260208152618ae9565b6174a86040805167a4cb4b17c6228c8c602082015260208152618ae9565b6174c66040805167c16727bf5183843b602082015260208152618ae9565b6174e460408051677c1a8e263655ff82602082015260208152618ae9565b6174f660ff600c5460081c1615618b25565b6175146040805167777490a767dbdb85602082015260208152618ae9565b6175326040805167ab37fa967a390bb6602082015260208152618ae9565b6175506040805167eb7ceb043b426f2f602082015260208152618ae9565b61756e6040805167d1401c962f6a46be602082015260208152618ae9565b61758c6040805167b9eabda5bcc3e6a5602082015260208152618ae9565b335f52601a60205260405f206175b66040805167e9d865bbc1033b01602082015260208152618ae9565b6175d4604080516713bbf1d2ace5d40e602082015260208152618ae9565b600681019060ff82541615617b6c576176016040805167b6394f026d50cd42602082015260208152618ae9565b61761f6040805167548c215047a376cc602082015260208152618ae9565b61763d6040805167a8a1b367c72d64a0602082015260208152618ae9565b6004810180543410617b275761766760408051675e3dffb427614a20602082015260208152618ae9565b6176856040805167eae50026fced83ca602082015260208152618ae9565b6176a3604080516734325dffb4fef908602082015260208152618ae9565b6003820190815490814210617af6576176d0604080516764ec5ae019fae16e602082015260208152618ae9565b6176ee6040805167dcf5b12f2dd18502602082015260208152618ae9565b61770c60408051670a5f5ec243247f60602082015260208152618ae9565b62093a808201809211616826578142115f14617ad35761774060408051676d471f270e4115d7602082015260208152618ae9565b61775e60408051672ee9b2fcbe155782602082015260208152618ae9565b61776733619453565b9161778660408051670e98fe6e24d40f18602082015260208152618ae9565b60058310156167f257617958925f526019602052620151806177ce600160405f200154926177c86040805167e04bc235fcfba4a8602082015260208152618ae9565b42618b66565b046177ed6040805167ddb73c67c9484105602082015260208152618ae9565b80151580617aca575b15617aa55761781960408051676366004e35bdd099602082015260208152618ae9565b6178376040805167defb9548ad8f135b602082015260208152618ae9565b61787b61271061016d61785460018a0194610f1586549788618b91565b040480936178766040805167f836438e478af9b3602082015260208152618ae9565b618b18565b905561789b604080516745d1e4f2f576cfe4602082015260208152618ae9565b6040519081527fce0d6b567089a0bce35e0693cdb625006f0cf915f9f3686bb0343bc2c667c1b260203392a25b6178e66040805167e3d68136df5a8c78602082015260208152618ae9565b600181549401936178f8818654618b66565b8555617918604080516786c7ae67c417f92b602082015260208152618ae9565b335f52600360205261792f60405f20918254618b66565b905561794f604080516771ca404fb14b19ec602082015260208152618ae9565b54601554618b18565b6015556179796040805167bf238fafb83179e4602082015260208152618ae9565b80549062278d00820180921161682657556179a8604080516729376ad14f8d16a1602082015260208152618ae9565b546040513481528160208201527fd3cf6d8c55fed98c7b9f9d18d95a51dbdb316503bb854fc1f676c8974cb10f4f60403392a26179f960408051678c95e991c2491edb602082015260208152618ae9565b617a8657617a1b6040805167d4ab4adeb2421b9b602082015260208152618ae9565b617a396040805167e25f29b61324006d602082015260208152618ae9565b60ff198154169055617a5f604080516703bfe3fa5a018873602082015260208152618ae9565b337f59bd56f70adeefb0cd83dca0f34f066bed6ee442068f3d07b5fc974b944d5aa65f80a2005b5061698360408051676ebbb10580d35cb1602082015260208152618ae9565b5050617ac5604080516723cda9d5995f5a5e602082015260208152618ae9565b6178c8565b508115156177f6565b6179589150617ac56040805167e5e667d510124be6602082015260208152618ae9565b60405162461bcd60e51b8152602060048201526009602482015268546f6f206561726c7960b81b6044820152606490fd5b60405162461bcd60e51b815260206004820152601860248201527f496e73756666696369656e7420696e7374616c6c6d656e7400000000000000006044820152606490fd5b60405162461bcd60e51b815260206004820152600e60248201526d27379030b1ba34bb32903637b0b760911b6044820152606490fd5b34612cce576020366003190112612cce576001600160a01b03617bc361893c565b165f526007602052602060018060a01b0360405f205416604051908152f35b34612cce575f366003190112612cce5760206040517f8b473ac3e35dc431c1dba0191b7615ccaca6bfeb14f9573dcaae9e614fbe8b208152f35b34612cce576020366003190112612cce57617c3561893c565b617c536040805167845581f45d2be203602082015260208152618ae9565b617c716040805167d0ce8e35628285fd602082015260208152618ae9565b617c8f6040805167af48d42d11833f96602082015260208152618ae9565b6010546001600160a01b03163314617cbf57616a2f60408051675dacdd1de8f9686c602082015260208152618ae9565b617cdd604080516744441c5050947dcf602082015260208152618ae9565b617cfb60408051673ab83ba07fd9ecfc602082015260208152618ae9565b617d19604080516753386a7423afa7e5602082015260208152618ae9565b617d376040805167b8f4330771f6303f602082015260208152618ae9565b617d556040805167795bbdb73b0805be602082015260208152618ae9565b617d7360408051671080559ec0614b63602082015260208152618ae9565b6001600160a01b03168015617e1657617da060408051674a1c09e5e721cbe5602082015260208152618ae9565b617dbe60408051676fa136a019520bae602082015260208152618ae9565b806001600160601b0360a01b6018541617601855617df060408051673802df0bcb54e582602082015260208152618ae9565b7f279ea638680bba6a87fddd8bcdbc37d94eee92841e1dfec2ab0f79662c7093115f80a2005b60405162461bcd60e51b815260206004820152601760248201527f496e76616c6964207265736572766520616464726573730000000000000000006044820152606490fd5b34612cce5760a0366003190112612cce57617e7461893c565b617e7c618952565b617e84618968565b6064356001600160a01b0381169190829003612cce576084356001600160a01b0381169390849003612cce57617ece60408051675ae8dce02dafa9cf602082015260208152618ae9565b5f51602061ad345f395f51905f52549460ff8660401c16159567ffffffffffffffff8116801590816183fc575b60011490816183f2575b1590816183e9575b506183da5767ffffffffffffffff1981166001175f51602061ad345f395f51905f5255866183ae575b50617f5560408051673cadccc15e0d82be602082015260208152618ae9565b617f7360408051671c86dc4e660262b4602082015260208152618ae9565b617f9160408051671e2f0f8261c9750f602082015260208152618ae9565b60ff5f51602061ad345f395f51905f525460401c161561839f57617fc9604080516768bfee5c86ea3f6c602082015260208152618ae9565b60018060a01b03166001600160601b0360a01b60105416176010556180026040805167e4bd2c828a936fd7602082015260208152618ae9565b60018060a01b03166001600160601b0360a01b600d541617600d5561803b6040805167dd40b4294144b1b6602082015260208152618ae9565b60018060a01b03166001600160601b0360a01b600e541617600e5561807460408051675b7dfaf8f7127a30602082015260208152618ae9565b6001600160601b0360a01b600f541617600f556180a560408051677154b2b9d77bc3ea602082015260208152618ae9565b801561837b576180c9604080516760a7009bb50dc224602082015260208152618ae9565b6180e760408051676d4d70dc0a6c43c1602082015260208152618ae9565b601154906181096040805167d6a67736a2fa8e67602082015260208152618ae9565b6001600160a81b031990911617600160a01b176011555b61813e60408051673df869c6eebd9007602082015260208152618ae9565b61815c6040805167c773c42edffb6e9d602082015260208152618ae9565b61817a6040805167b17348cf4239803a602082015260208152618ae9565b6181af60405161818981618a9d565b605a815260646020820152606e604082015260181960608201526032608082015261a616565b6181cd60408051678800df707cb3c30d602082015260208152618ae9565b6182026040516181dc81618a9d565b6050815260596020820152607d604082015260091960608201526028608082015261a616565b6182206040805167449cbb839bfb18df602082015260208152618ae9565b61825360405161822f81618a9d565b60468152604f6020820152608c60408201525f6060820152601e608082015261a616565b618271604080516761f6459c0cd6e7fa602082015260208152618ae9565b6182a560405161828081618a9d565b603c81526045602082015260a06040820152600f60608201526014608082015261a616565b6182c36040805167ee89288887ad23c3602082015260208152618ae9565b6182f56040516182d281618a9d565b5f8152603b602082015260c86040820152601e60608201525f608082015261a616565b61831360408051671c96368416a7464d602082015260208152618ae9565b662386f26fc1000060175561832457005b68ff0000000000000000195f51602061ad345f395f51905f5254165f51602061ad345f395f51905f52557fc7f505b2f371ae2175ee4913f4499e1f2633a7b5936321eed1cdaeb6115181d2602060405160018152a1005b5061839a60408051678a3164cec70e6e94602082015260208152618ae9565b618120565b631afcd79f60e31b5f5260045ffd5b68ffffffffffffffffff191668010000000000000001175f51602061ad345f395f51905f525586617f36565b63f92ee8a960e01b5f5260045ffd5b90501588617f0d565b303b159150617f05565b889150617efb565b34612cce575f366003190112612cce57618432604080516767342a539e5d1ec9602082015260208152618ae9565b6184506040805167cc6ea6230b08c983602082015260208152618ae9565b602047604051908152f35b34612cce575f366003190112612cce576020604051600a8152f35b34612cce575f366003190112612cce576020604051610e108152f35b34612cce576040366003190112612cce576184ab61893c565b602435906184cd6040805167d0432693d5e26bb5602082015260208152618ae9565b6184eb60408051673c4a31ed4a26aa2e602082015260208152618ae9565b618509604080516744051895ac9628ee602082015260208152618ae9565b335f52600560205260ff60405f205416156187035761853c604080516784f6b023c4e2c296602082015260208152618ae9565b61855a604080516723e8c56742ff53d8602082015260208152618ae9565b6040516323b872dd60e01b8152336004820152306024820152604481018390526001600160a01b0391909116906020816064815f865af180156167c2576186cc575b506185bb6040805167ca0fb04c4481fa99602082015260208152618ae9565b5f525f60205260405f2060018060a01b0333165f526020526185e260405f20918254618b18565b9055618602604080516731879da3ba3ab8ff602082015260208152618ae9565b61860b33619a5a565b5061862a6040805167ebdabac30a240ff2602082015260208152618ae9565b156186ae5761864d60408051671ef37b5c9ec4c9d4602082015260208152618ae9565b61866b60408051670bb362c32550beae602082015260208152618ae9565b335f52600560205260405f2060ff19815416905561869d6040805167079f0c9ffc773db3602082015260208152618ae9565b335f90815260066020526040812055005b616983604080516704c780409b8b7ef1602082015260208152618ae9565b6020813d6020116186fb575b816186e560209383618ae9565b81010312612cce576186f690618b0b565b61859c565b3d91506186d8565b60405162461bcd60e51b815260206004820152601a60248201527f4163636f756e74206e6f7420696e206c69717569646174696f6e0000000000006044820152606490fd5b34612cce576020366003190112612cce576001600160a01b0361876961893c565b165f526005602052602060ff60405f2054166040519015158152f35b34612cce576020366003190112612cce5760043563ffffffff60e01b8116809103612cce57602090637965db0b60e01b81149081156187ca575b506040519015158152f35b6301ffc9a760e01b149050826187bf565b34612cce576020366003190112612cce5761881160406187f961893c565b9267f391da57609eb5b4602082015260208152618ae9565b61882f6040805167d0ce8e35628285fd602082015260208152618ae9565b61884d6040805167af48d42d11833f96602082015260208152618ae9565b6010546001600160a01b0316331461887d57616a2f60408051675dacdd1de8f9686c602082015260208152618ae9565b61889b604080516744441c5050947dcf602082015260208152618ae9565b6188b960408051673ab83ba07fd9ecfc602082015260208152618ae9565b6188d7604080516773f773ddfb6e7e4d602082015260208152618ae9565b6188f5604080516740c7034ed4eadca2602082015260208152618ae9565b6189136040805167ee50db990925f65a602082015260208152618ae9565b600c805462010000600160b01b03191660109290921b62010000600160b01b0316919091179055005b600435906001600160a01b0382168203612cce57565b602435906001600160a01b0382168203612cce57565b604435906001600160a01b0382168203612cce57565b6009548110156189965760095f5260205f2001905f90565b634e487b7160e01b5f52603260045260245ffd5b6008548110156189965760085f5260205f2001905f90565b8054821015618996575f5260205f2001905f90565b906020600319830112612cce5760043567ffffffffffffffff8111612cce5782602382011215612cce5780600401359267ffffffffffffffff8411612cce5760248483010111612cce576024019190565b6012548110156189965760125f52600560205f20910201905f90565b60206040818301928281528451809452019201905f5b818110618a675750505090565b82516001600160a01b0316845260209384019390920191600101618a5a565b60058110156167f2575f52601360205260405f2090565b60a0810190811067ffffffffffffffff821117618ab957604052565b634e487b7160e01b5f52604160045260245ffd5b60e0810190811067ffffffffffffffff821117618ab957604052565b90601f8019910116810190811067ffffffffffffffff821117618ab957604052565b51908115158203612cce57565b9190820180921161682657565b15618b2c57565b60405162461bcd60e51b815260206004820152601260248201527110dbdb9d1c9858dd081a5cc81c185d5cd95960721b6044820152606490fd5b9190820391821161682657565b8115618b7d570490565b634e487b7160e01b5f52601260045260245ffd5b8181029291811591840414171561682657565b80518210156189965760209160051b010190565b5f1981146168265760010190565b618be46040805167ced425018efed690602082015260208152618ae9565b618c026040805167635cf55e10ec0f3a602082015260208152618ae9565b618c0a619d05565b618c286040805167910a6e9b847e44ae602082015260208152618ae9565b5f5b8151811015618e1d57618c516040805167ae5875f241390808602082015260208152618ae9565b6001600160a01b03618c638284618ba4565b5116618c836040805167744392fc59dc2e59602082015260208152618ae9565b805f52600760205260018060a01b0360405f205416618cb6604080516748ad1878be593711602082015260208152618ae9565b15618df657618d26618d06610e1092618ce3604080516778e140c23841fee3602082015260208152618ae9565b618d0160408051676d739b72b1b41038602082015260208152618ae9565b61a66b565b90506177c86040805167b01ec2e1644d0227602082015260208152618ae9565b1115618dcf575050618d4c6040805167ffc3851d1e2de857602082015260208152618ae9565b618d6a6040805167fb600ebb03726bf3602082015260208152618ae9565b61010061ff0019600c541617600c55618d976040805167a33f7bc99c9ae79b602082015260208152618ae9565b5f51602061acd45f395f51905f52602060405160018152a1618dcd60408051678aa11c7e2de86282602082015260208152618ae9565b565b600190618df060408051677ffa834104ac7a5f602082015260208152618ae9565b01618c2a565b50600190618e1860408051670f7df22679f8dac5602082015260208152618ae9565b618df0565b5050618e3d6040805167a1d5c1d68b70e027602082015260208152618ae9565b600b5480151590816191a3575b5015618eef57618e6e6040805167d7ca1a49a0d4e539602082015260208152618ae9565b618e8c6040805167e9fad372dc29345f602082015260208152618ae9565b61010061ff0019600c541617600c55618eb960408051678b32fb9d3f6e7ad1602082015260208152618ae9565b5f51602061acd45f395f51905f52602060405160018152a1618dcd60408051674cea3835b199dbc6602082015260208152618ae9565b618f0d60408051675ee49d543e3e6c07602082015260208152618ae9565b618f2b60408051677b425f2198b360af602082015260208152618ae9565b5f618f4a6040805167a437e95b319b1924602082015260208152618ae9565b600954600e545f906001600160a01b03165b82821061907b575050618f8360408051679b51daa9c3b744be602082015260208152618ae9565b8015159182619051575b50501561903357618fb260408051679efc6fe62df0b4ad602082015260208152618ae9565b618fd06040805167507556fc0609bb17602082015260208152618ae9565b61010061ff0019600c541617600c55618ffd6040805167c6e82418fafc09cb602082015260208152618ae9565b5f51602061acd45f395f51905f52602060405160018152a1618dcd60408051677d0895b8e8c5bd44602082015260208152618ae9565b618dcd604080516765a401c81ab366be602082015260208152618ae9565b9091506064810290808204606414901517156168265760059161907391618b73565b115f80618f8d565b909261909b6040805167b69527c84052f8b7602082015260208152618ae9565b6190df60206190a98661897e565b9054604051632cf5889360e01b815230600482015260039290921b1c6001600160a01b0316602482015291829081906044820190565b0381865afa9081156167c2575f9161916a575b50156191435761913a60019161911c60408051679fd1d4fa65d81345602082015260208152618ae9565b614f4a6040805167ce6a614f10aaa1c9602082015260208152618ae9565b935b0190618f5c565b926001906191656040805167b607fc46193ce0d5602082015260208152618ae9565b61913c565b90506020813d821161919b575b8161918460209383618ae9565b81010312612cce5761919590618b0b565b5f6190f2565b3d9150619177565b90506191b460145460155490618b66565b60648102908082046064149015171561682657605f916191d391618b73565b115f618e4a565b156191e157565b60405162461bcd60e51b815260206004820152600c60248201526b24b73b30b634b2103a34b2b960a11b6044820152606490fd5b9190619249576080816004925184556020810151600185015560408101516002850155606081015160038501550151910155565b634e487b7160e01b5f525f60045260245ffd5b606090602081526011602082015270151bdad95b881b9bdd08185b1b1bddd959607a1b60408201520190565b60609060208152601960208201527f4163636f756e7420697320696e206c69717569646174696f6e0000000000000060408201520190565b60809060208152603260208201527f5769746864726177616c20776f756c64206d616b6520706f736974696f6e20756040820152711b99195c98dbdb1b185d195c985b1a5e995960721b60608201520190565b619353906193356040805167a0dac2b32eb03ffe602082015260208152618ae9565b610e1f604080516762439d56237addec602082015260208152618ae9565b61937160408051673a9ae828543df317602082015260208152618ae9565b60058110156167f25761938390618a28565b506040519161939183618a9d565b815483526001820154602084015260646193f56002840154604086019081526080600460038701549660608901978852015496019586526193e66040805167daa09165458e2459602082015260208152618ae9565b51935194600b54905190618b91565b0491929190565b1561940357565b60405162461bcd60e51b815260206004820152601060248201526f155c1ad9595c081d1a1c9bdd1d1b195960821b6044820152606490fd5b67ffffffffffffffff8111618ab95760051b60200190565b61947160408051670bf85261487ba916602082015260208152618ae9565b61948f60408051677723ba64dbe40b34602082015260208152618ae9565b60018060a01b03165f52600260205260405f20546194c16040805167ddf01a3afc71d497602082015260208152618ae9565b6012545f915b818310619506575090506194ef604080516759b6bdc371eb3b92602082015260208152618ae9565b5f1981019081116168265760058110156167f25790565b61952460408051679a122bd90637c491602082015260208152618ae9565b61952d83618a28565b5054811015806195b1575b1561958757505061955d6040805167f1ad7f9c0016d081602082015260208152618ae9565b61957b604080516748203686f21f4096602082015260208152618ae9565b60058110156167f25790565b90916001906195a960408051669b4124f2e25720602082015260208152618ae9565b0191906194c7565b5060016195bd84618a28565b500154811115619538565b156195cf57565b60405162461bcd60e51b815260206004820152601f60248201527f546f6b656e206e6f7420616c6c6f77656420617320636f6c6c61746572616c006044820152606490fd5b6196326040805167152ac1957e093fe6602082015260208152618ae9565b619650604080516720b2db309a942d29602082015260208152618ae9565b5f906196706040805167b35932bffbd39612602082015260208152618ae9565b619678619d05565b916196976040805167b1a573b6b095b829602082015260208152618ae9565b5f905b83518210156197c8576196c16040805167c5a9b495c7b8dfef602082015260208152618ae9565b6001600160a01b036196d38386618ba4565b51166196f360408051672ae90f3b5765c839602082015260208152618ae9565b805f525f60205260405f2060018060a01b0385165f5260205260405f205490619730604080516788c6a8ca36f21346602082015260208152618ae9565b811561979f5791670de0b6b3a764000061978f6197969361978960019661976b604080516788416bdc786cff47602082015260208152618ae9565b610a3b6040805167fdee988e3040b865602082015260208152618ae9565b90618b91565b0490618b18565b915b019061969a565b5050906001906197c36040805167bc83d2a9b4604db7602082015260208152618ae9565b619798565b925050506197ea60408051670524d614fb4c01a0602082015260208152618ae9565b90565b906197f78261943b565b6198046040519182618ae9565b8281528092619815601f199161943b565b0190602036910137565b600160ff1b8114616826575f0390565b1561983657565b60405162461bcd60e51b815260206004820152601360248201527227b7363c902632b73234b733a6b0b730b3b2b960691b6044820152606490fd5b91908260c0910312612cce5761988682618b0b565b9161989360208201618b0b565b916198a060408301618b0b565b9160608101519160a06198b560808401618b0b565b92015190565b6198d960408051675d8aa1a6faf976cf602082015260208152618ae9565b6198f76040805167b418f9dd3a00f6d9602082015260208152618ae9565b6011546001600160a01b0316908115619a1c5760c09061992b6040805167768e16b422372282602082015260208152618ae9565b6199496040805167d9f46d6dc3ad080b602082015260208152618ae9565b6040516335856b7f60e11b81526001600160a01b03909116600482015291829060249082905afa5f918291829182918291816199df575b506199b45750505050506199a86040805167f0f6a336abbd2c25602082015260208152618ae9565b5f905f905f905f905f90565b6199d86040809793949596975167dcb97bdec042c784602082015260208152618ae9565b9493929190565b935094505050619a07915060c03d60c011619a15575b6199ff8183618ae9565b810190619871565b50929491939092915f619980565b503d6199f5565b5050619a3c6040805167ee7e39e132ba4e51602082015260208152618ae9565b6199a86040805167f5572cffe490bf7b602082015260208152618ae9565b90619a7960408051674c9d03ff22dfca69602082015260208152618ae9565b619a976040805167c4da8d038ca912bf602082015260208152618ae9565b619aa082619614565b619abe60408051676c3587da44f60ff1602082015260208152618ae9565b60018060a01b0383165f52600360205260405f2054619af160408051679cbcf91c361005d1602082015260208152618ae9565b80619b3e5750509050619b18604080516717d8e40950e42a6c602082015260208152618ae9565b619b366040805167787c1af930dadd1c602082015260208152618ae9565b6001905f1990565b619b5c6040805167664e8491f9326545602082015260208152618ae9565b619b7a60408051671c0b009bf533067a602082015260208152618ae9565b8115938415619bca575050509050619ba660408051671d1f6664ae8e3820602082015260208152618ae9565b619bc46040805167d708b15bd5d9bc2a602082015260208152618ae9565b5f905f90565b619c0a90619bec6040805167804b1ac2c50b40c7602082015260208152618ae9565b6147e36040805167236a4d463ee992e5602082015260208152618ae9565b505093619c2b60408051673d76c74fa72ddd45602082015260208152618ae9565b60648302928304606414171561682657619c4491618b73565b91619c636040805167c6ad13602d3e1517602082015260208152618ae9565b619c816040805167f7b5ab3b270a4eb9602082015260208152618ae9565b8210159190565b15619c8f57565b60405162461bcd60e51b815260206004820152601260248201527153636f7265206f7574206f662072616e676560701b6044820152606490fd5b15619cd057565b60405162461bcd60e51b815260206004820152600d60248201526c4e6f207265656e7472616e637960981b6044820152606490fd5b619d23604080516750c229067f71c54f602082015260208152618ae9565b619d416040805167964ea32027bd7306602082015260208152618ae9565b5f619d6060408051676716c5499c333499602082015260208152618ae9565b5f600854915b828210619f0557619d959150619d906040805167ce597033d846ff0d602082015260208152618ae9565b6197ed565b90619db460408051670fa8fb725d7982d8602082015260208152618ae9565b5f619dd36040805167096044d55b6795e2602082015260208152618ae9565b5f905b828210619dfe575050506197ea604080516778768ecb0d8de9a9602082015260208152618ae9565b619e1c60408051670c4f1d0ba6f9b4e2602082015260208152618ae9565b619e25826189aa565b60018060a01b0391549060031b1c16619e52604080516778ad19f438ea0b0b602082015260208152618ae9565b805f52600160205260ff60405f2054165f14619edd57600191619ed491619e8d60408051678794992f2c196ea3602082015260208152618ae9565b619eab604080516783453a7d2880ad81602082015260208152618ae9565b619eb58288618ba4565b52614f4a6040805167f815215a38b5eaf2602082015260208152618ae9565b915b0190619dd6565b5090600190619f0060408051677a7eb1d4f5d2793d602082015260208152618ae9565b619ed6565b619f23604080516718d459ea17249ba3602082015260208152618ae9565b619f2c826189aa565b905460039190911b1c6001600160a01b03165f9081526001602052604090205460ff1615619f9f57619f96600191619f786040805167e1d9d8a6ea867981602082015260208152618ae9565b614f4a604080516790dadcd92655aba8602082015260208152618ae9565b915b0190619d66565b90600190619fc16040805167e962018c13ddec77602082015260208152618ae9565b619f98565b619fe46040805167d49f004c38f6145e602082015260208152618ae9565b61a00260408051679352111ba4d2c046602082015260208152618ae9565b6011546001600160a01b0316801561a16f5760c060249161a03760408051674324be68c38eb38e602082015260208152618ae9565b61a05560408051671890be6f3a98ec80602082015260208152618ae9565b6040516335856b7f60e11b81526001600160a01b038516600482015292839182905afa5f918161a148575b5061a0c0575b505b61a0a66040805167f1f2492e6c09527b602082015260208152618ae9565b6001600160a01b03165f9081526002602052604090205490565b9061a0df6040805167369050f60488fcd8602082015260208152618ae9565b811561a122575061a1046040805167b75e239e132bf7e7602082015260208152618ae9565b6197ea60408051670cf6050cc0b6cfd5602082015260208152618ae9565b905061a1426040805167c4dbff512d1413f2602082015260208152618ae9565b5f61a086565b61a16291925060c03d60c011619a15576199ff8183618ae9565b505092505050905f61a080565b5061a18e6040805167c85450e81a847a74602082015260208152618ae9565b61a088565b61a1b160408051670820e3ba06a5e146602082015260208152618ae9565b61a1cf6040805167200c9b0f88043b9d602082015260208152618ae9565b60405180816020600954928381520160095f527f6e1540171b6c0c960b71a7020d9f60077f6af931a8bbf590da0223dacf75c7af925f5b81811061a21b5750506197ea92500382618ae9565b84546001600160a01b031683526001948501948694506020909301920161a206565b519069ffffffffffffffffffff82168203612cce57565b908160a0910312612cce5761a2688161a23d565b916020820151916040810151916197ea60806060840151930161a23d565b61a2a460408051674364c8cfbc1971da602082015260208152618ae9565b61a2c2604080516795c775d36cf71094602082015260208152618ae9565b60018060a01b0381165f52600760205260018060a01b0360405f20541661a2fd604080516748c5985a2b27eb0d602082015260208152618ae9565b8061a32657505061a3226040805167d56f7670cd3dbabb602082015260208152618ae9565b5f90565b60a060049161a3496040805167337f4dc21bd19015602082015260208152618ae9565b61a3676040805167e85bf2be05b9df6b602082015260208152618ae9565b61a3856040805167aff3f2bb897d32dc602082015260208152618ae9565b604051633fabe5a360e21b815292839182905afa9182156167c2575f915f905f9461a4ae575b5061a3d161a3d7916177c86040805167d2a3abb3723f356f602082015260208152618ae9565b9161ab01565b101561a3fd57505061a322604080516753a60cdd51a37e08602082015260208152618ae9565b69ffffffffffffffffffff809161a4286040805167865216e0090200ed602082015260208152618ae9565b61a446604080516794e32b2ace3d9276602082015260208152618ae9565b169116101561a46d5761a3226040805167b2c02e8d748cd7b0602082015260208152618ae9565b61a48b60408051678c2456eadb49bb57602082015260208152618ae9565b61a4a96040805167c9d475e4885d8f23602082015260208152618ae9565b600190565b61a3d7945061a3d1935061a4da915060a03d60a01161a4e7575b61a4d28183618ae9565b81019061a254565b96509294915061a3ab9050565b503d61a4c8565b61a50c604080516701b992bec39d5502602082015260208152618ae9565b61a52a6040805167c2bc8ce563c6e625602082015260208152618ae9565b61a5338161a66b565b509061a5536040805167faee812a6971075b602082015260208152618ae9565b60018060a01b03165f5260076020526004602060018060a01b0360405f20541661a58f6040805167654eb24f8bee266485820152848152618ae9565b60405163313ce56760e01b815292839182905afa80156167c2575f9061a5d9575b60ff91501660120360ff81116168265760ff1690604d8211616826576197ea91600a0a90618b91565b506020813d60201161a60e575b8161a5f360209383618ae9565b81010312612cce575160ff81168103612cce5760ff9061a5b0565b3d915061a5e6565b60125490600160401b821015618ab957600182016012556012548210156189965760125f908152618dcd926005027fbb8a6a4669ba250d26cd7a459eca9d215f8307e33aebe50379bc5a3617ec344401619215565b9061a68a6040805167adb59726b7463fb5602082015260208152618ae9565b61a6a860408051679761af03962edac8602082015260208152618ae9565b60018060a01b0382165f52600760205260018060a01b0360405f2054169161a6e46040805167589952be97f8a752602082015260208152618ae9565b61a7026040805167ba29ac7fd044e215602082015260208152618ae9565b821561a9415760a060049361a72b6040805167b20c70c3fcb28d9e602082015260208152618ae9565b61a749604080516781d3879fad3a04d9602082015260208152618ae9565b61a7676040805167ee38f6a4ccb600fc602082015260208152618ae9565b604051633fabe5a360e21b815294859182905afa80156167c2575f5f925f955f9361a914575b5061a7ac60408051677f5cb2f817d0cd9f602082015260208152618ae9565b61a7b961a3d18742618b66565b101561a82e5761a7dd6040805167510cedfd3c86f0c8602082015260208152618ae9565b61a7fb6040805167e809de6e5a592ce5602082015260208152618ae9565b60405162461bcd60e51b815260206004820152600b60248201526a5374616c6520707269636560a81b6044820152606490fd5b69ffffffffffffffffffff809161a85960408051673bdca8e9a56005f0602082015260208152618ae9565b61a8776040805167e1acc1054d28d3c8602082015260208152618ae9565b61a89460408051667431123fa082b4602082015260208152618ae9565b1691161061a8dc5761a8ba604080516713cbe6c36b1a7890602082015260208152618ae9565b61a8d86040805167d39c5457d38698df602082015260208152618ae9565b9190565b60405162461bcd60e51b815260206004820152601060248201526f5374616c6520726f756e64206461746160801b6044820152606490fd5b925094505061a932915060a03d60a01161a4e75761a4d28183618ae9565b9592915092909294915f61a78d565b60405162461bcd60e51b8152602060048201526012602482015271141c9a58d94819995959081b9bdd081cd95d60721b6044820152606490fd5b5f8181525f51602061ad145f395f51905f526020908152604080832033845290915290205460ff161561a9ab5750565b63e2517d3f60e01b5f523360045260245260445ffd5b5f8181525f51602061ad145f395f51905f52602090815260408083206001600160a01b038616845290915290205460ff1661aa5f575f8181525f51602061ad145f395f51905f52602090815260408083206001600160a01b0395909516808452949091528120805460ff19166001179055339291907f2f8788117e7eff1d82e926ec794901d17c78024a50270940304540a733656f0d9080a4600190565b50505f90565b5f8181525f51602061ad145f395f51905f52602090815260408083206001600160a01b038616845290915290205460ff161561aa5f575f8181525f51602061ad145f395f51905f52602090815260408083206001600160a01b0395909516808452949091528120805460ff19169055339291907ff6391f5c32d9c69d2a47ea670b442974b53935d1edc7fd64eb21e047a839171b9080a4600190565b61ab1f6040805167c08e8b928f5b2ca3602082015260208152618ae9565b61ab3d6040805167985bfbf1d614deff602082015260208152618ae9565b60018060a01b0316805f52601660205260405f20549061ab716040805167ba2f2b8e02ee39e0602082015260208152618ae9565b811561ab9657506197ea60408051676292b74a32388f91602082015260208152618ae9565b905061abb660408051674daa06460c2de354602082015260208152618ae9565b61abd46040805167da5e6db6a6a070ea602082015260208152618ae9565b600d54604051631a650cc760e01b81526004810192909252602090829060249082906001600160a01b03165afa9081156167c2575f9161ac99575b501561ac575761ac3360408051675409914ecafd207b602082015260208152618ae9565b61ac516040805167a7607540a8959444602082015260208152618ae9565b610e1090565b61ac756040805167603b9a7a224c4ecf602082015260208152618ae9565b61ac9360408051674ca5089d8c4cff82602082015260208152618ae9565b61038490565b90506020813d60201161accb575b8161acb460209383618ae9565b81010312612cce5761acc590618b0b565b5f61ac0f565b3d915061aca756fe228f455d7bc3d0b24a3a08d7847f391c3e78fc8aeb83acf226b7a96ee162b8ac3c364b9decdac59fbe037e99687219ac0feed46572bfbcbd5284b6b8e67f402d02dd7bc7dec4dceedda775e58dd541e08a116c6c53815c0bd028192f7b626800f0c57e16840df040f15088dc2f81fe391c3923bec73e23a9662efc9c229c6a00a2646970667358221220ed76502a893bfe878124933929a685826d30c7a6b9e67f25a389bab756b6815764736f6c634300081c0033",
  "linkReferences": {},
  "deployedLinkReferences": {}
}