{
  "_format": "hh-sol-artifact-1",
  "contractName": "LiquidityPool",
  "sourceName": "contracts/LiquidityPool.sol",
  "abi": [
    {
      "inputs": [],
      "name": "OnlyTimelockLiquidityPool",
      "type": "error"
    },
    {
      "anonymous": false,
      "inputs": [
        {
          "indexed": true,
          "internalType": "address",
          "name": "user",
          "type": "address"
        },
        {
          "indexed": false,
          "internalType": "uint256",
          "name": "amount",
          "type": "uint256"
        }
      ],
      "name": "Borrowed",
      "type": "event"
    },
    {
      "anonymous": false,
      "inputs": [
        {
          "indexed": true,
          "internalType": "address",
          "name": "user",
          "type": "address"
        },
        {
          "indexed": true,
          "internalType": "address",
          "name": "token",
          "type": "address"
        },
        {
          "indexed": false,
          "internalType": "uint256",
          "name": "amount",
          "type": "uint256"
        }
      ],
      "name": "CollateralDeposited",
      "type": "event"
    },
    {
      "anonymous": false,
      "inputs": [
        {
          "indexed": true,
          "internalType": "address",
          "name": "token",
          "type": "address"
        },
        {
          "indexed": false,
          "internalType": "bool",
          "name": "isAllowed",
          "type": "bool"
        }
      ],
      "name": "CollateralTokenStatusChanged",
      "type": "event"
    },
    {
      "anonymous": false,
      "inputs": [
        {
          "indexed": true,
          "internalType": "address",
          "name": "user",
          "type": "address"
        },
        {
          "indexed": true,
          "internalType": "address",
          "name": "token",
          "type": "address"
        },
        {
          "indexed": false,
          "internalType": "uint256",
          "name": "amount",
          "type": "uint256"
        }
      ],
      "name": "CollateralWithdrawn",
      "type": "event"
    },
    {
      "anonymous": false,
      "inputs": [
        {
          "indexed": true,
          "internalType": "address",
          "name": "user",
          "type": "address"
        },
        {
          "indexed": false,
          "internalType": "uint256",
          "name": "score",
          "type": "uint256"
        }
      ],
      "name": "CreditScoreAssigned",
      "type": "event"
    },
    {
      "anonymous": false,
      "inputs": [
        {
          "indexed": true,
          "internalType": "address",
          "name": "oldContract",
          "type": "address"
        },
        {
          "indexed": true,
          "internalType": "address",
          "name": "newContract",
          "type": "address"
        }
      ],
      "name": "CreditScoreContractUpdated",
      "type": "event"
    },
    {
      "anonymous": false,
      "inputs": [
        {
          "indexed": false,
          "internalType": "bool",
          "name": "isPaused",
          "type": "bool"
        }
      ],
      "name": "EmergencyPaused",
      "type": "event"
    },
    {
      "anonymous": false,
      "inputs": [
        {
          "indexed": true,
          "internalType": "address",
          "name": "user",
          "type": "address"
        },
        {
          "indexed": false,
          "internalType": "uint256",
          "name": "amount",
          "type": "uint256"
        },
        {
          "indexed": false,
          "internalType": "string",
          "name": "feeType",
          "type": "string"
        },
        {
          "indexed": false,
          "internalType": "uint256",
          "name": "tier",
          "type": "uint256"
        }
      ],
      "name": "FeeCollected",
      "type": "event"
    },
    {
      "anonymous": false,
      "inputs": [
        {
          "indexed": true,
          "internalType": "address",
          "name": "user",
          "type": "address"
        },
        {
          "indexed": false,
          "internalType": "uint256",
          "name": "newDeadline",
          "type": "uint256"
        }
      ],
      "name": "GracePeriodExtended",
      "type": "event"
    },
    {
      "anonymous": false,
      "inputs": [
        {
          "indexed": false,
          "internalType": "uint8",
          "name": "version",
          "type": "uint8"
        }
      ],
      "name": "Initialized",
      "type": "event"
    },
    {
      "anonymous": false,
      "inputs": [
        {
          "indexed": true,
          "internalType": "address",
          "name": "user",
          "type": "address"
        },
        {
          "indexed": true,
          "internalType": "address",
          "name": "liquidator",
          "type": "address"
        },
        {
          "indexed": false,
          "internalType": "uint256",
          "name": "amount",
          "type": "uint256"
        }
      ],
      "name": "LiquidationExecuted",
      "type": "event"
    },
    {
      "anonymous": false,
      "inputs": [
        {
          "indexed": true,
          "internalType": "address",
          "name": "user",
          "type": "address"
        }
      ],
      "name": "LiquidationStarted",
      "type": "event"
    },
    {
      "anonymous": false,
      "inputs": [
        {
          "indexed": true,
          "internalType": "address",
          "name": "applicant",
          "type": "address"
        },
        {
          "indexed": false,
          "internalType": "uint256",
          "name": "amount",
          "type": "uint256"
        },
        {
          "indexed": false,
          "internalType": "uint256",
          "name": "collateral",
          "type": "uint256"
        }
      ],
      "name": "LoanApplied",
      "type": "event"
    },
    {
      "anonymous": false,
      "inputs": [
        {
          "indexed": true,
          "internalType": "address",
          "name": "applicant",
          "type": "address"
        },
        {
          "indexed": false,
          "internalType": "uint256",
          "name": "amount",
          "type": "uint256"
        }
      ],
      "name": "LoanApproved",
      "type": "event"
    },
    {
      "anonymous": false,
      "inputs": [
        {
          "indexed": true,
          "internalType": "address",
          "name": "borrower",
          "type": "address"
        },
        {
          "indexed": false,
          "internalType": "uint256",
          "name": "amount",
          "type": "uint256"
        },
        {
          "indexed": false,
          "internalType": "uint256",
          "name": "rate",
          "type": "uint256"
        }
      ],
      "name": "LoanDisbursed",
      "type": "event"
    },
    {
      "anonymous": false,
      "inputs": [
        {
          "indexed": true,
          "internalType": "address",
          "name": "borrower",
          "type": "address"
        }
      ],
      "name": "LoanFullyRepaid",
      "type": "event"
    },
    {
      "anonymous": false,
      "inputs": [
        {
          "indexed": true,
          "internalType": "address",
          "name": "borrower",
          "type": "address"
        },
        {
          "indexed": false,
          "internalType": "uint256",
          "name": "amount",
          "type": "uint256"
        },
        {
          "indexed": false,
          "internalType": "uint256",
          "name": "remaining",
          "type": "uint256"
        }
      ],
      "name": "LoanInstallmentPaid",
      "type": "event"
    },
    {
      "anonymous": false,
      "inputs": [
        {
          "indexed": true,
          "internalType": "address",
          "name": "borrower",
          "type": "address"
        },
        {
          "indexed": false,
          "internalType": "uint256",
          "name": "penalty",
          "type": "uint256"
        }
      ],
      "name": "LoanLatePenaltyApplied",
      "type": "event"
    },
    {
      "anonymous": false,
      "inputs": [
        {
          "indexed": true,
          "internalType": "address",
          "name": "applicant",
          "type": "address"
        },
        {
          "indexed": false,
          "internalType": "uint256",
          "name": "amount",
          "type": "uint256"
        }
      ],
      "name": "LoanRejected",
      "type": "event"
    },
    {
      "anonymous": false,
      "inputs": [
        {
          "indexed": true,
          "internalType": "address",
          "name": "user",
          "type": "address"
        },
        {
          "indexed": true,
          "internalType": "address",
          "name": "liquidator",
          "type": "address"
        },
        {
          "indexed": true,
          "internalType": "address",
          "name": "collateralToken",
          "type": "address"
        },
        {
          "indexed": false,
          "internalType": "uint256",
          "name": "collateralSeized",
          "type": "uint256"
        },
        {
          "indexed": false,
          "internalType": "uint256",
          "name": "debtRepaid",
          "type": "uint256"
        }
      ],
      "name": "PartialLiquidation",
      "type": "event"
    },
    {
      "anonymous": false,
      "inputs": [
        {
          "indexed": false,
          "internalType": "bool",
          "name": "useRISC0",
          "type": "bool"
        }
      ],
      "name": "RISC0ScoreToggled",
      "type": "event"
    },
    {
      "anonymous": false,
      "inputs": [
        {
          "indexed": true,
          "internalType": "address",
          "name": "user",
          "type": "address"
        },
        {
          "indexed": false,
          "internalType": "uint256",
          "name": "amount",
          "type": "uint256"
        }
      ],
      "name": "Repaid",
      "type": "event"
    },
    {
      "anonymous": false,
      "inputs": [
        {
          "indexed": true,
          "internalType": "address",
          "name": "newReserve",
          "type": "address"
        }
      ],
      "name": "ReserveAddressUpdated",
      "type": "event"
    },
    {
      "anonymous": false,
      "inputs": [
        {
          "indexed": true,
          "internalType": "bytes32",
          "name": "role",
          "type": "bytes32"
        },
        {
          "indexed": true,
          "internalType": "bytes32",
          "name": "previousAdminRole",
          "type": "bytes32"
        },
        {
          "indexed": true,
          "internalType": "bytes32",
          "name": "newAdminRole",
          "type": "bytes32"
        }
      ],
      "name": "RoleAdminChanged",
      "type": "event"
    },
    {
      "anonymous": false,
      "inputs": [
        {
          "indexed": true,
          "internalType": "bytes32",
          "name": "role",
          "type": "bytes32"
        },
        {
          "indexed": true,
          "internalType": "address",
          "name": "account",
          "type": "address"
        },
        {
          "indexed": true,
          "internalType": "address",
          "name": "sender",
          "type": "address"
        }
      ],
      "name": "RoleGranted",
      "type": "event"
    },
    {
      "anonymous": false,
      "inputs": [
        {
          "indexed": true,
          "internalType": "bytes32",
          "name": "role",
          "type": "bytes32"
        },
        {
          "indexed": true,
          "internalType": "address",
          "name": "account",
          "type": "address"
        },
        {
          "indexed": true,
          "internalType": "address",
          "name": "sender",
          "type": "address"
        }
      ],
      "name": "RoleRevoked",
      "type": "event"
    },
    {
      "anonymous": false,
      "inputs": [
        {
          "indexed": true,
          "internalType": "address",
          "name": "token",
          "type": "address"
        },
        {
          "indexed": false,
          "internalType": "uint256",
          "name": "updatedAt",
          "type": "uint256"
        },
        {
          "indexed": false,
          "internalType": "uint256",
          "name": "currentTime",
          "type": "uint256"
        }
      ],
      "name": "StaleOracleTriggered",
      "type": "event"
    },
    {
      "anonymous": false,
      "inputs": [
        {
          "indexed": true,
          "internalType": "uint256",
          "name": "tier",
          "type": "uint256"
        },
        {
          "indexed": false,
          "internalType": "uint256",
          "name": "originationFee",
          "type": "uint256"
        },
        {
          "indexed": false,
          "internalType": "uint256",
          "name": "lateFeeAPR",
          "type": "uint256"
        }
      ],
      "name": "TierFeeUpdated",
      "type": "event"
    },
    {
      "anonymous": false,
      "inputs": [
        {
          "indexed": true,
          "internalType": "address",
          "name": "user",
          "type": "address"
        },
        {
          "indexed": false,
          "internalType": "string",
          "name": "message",
          "type": "string"
        }
      ],
      "name": "UserError",
      "type": "event"
    },
    {
      "inputs": [],
      "name": "ALLOW_COLLATERAL_PERMISSION",
      "outputs": [
        {
          "internalType": "bytes32",
          "name": "",
          "type": "bytes32"
        }
      ],
      "stateMutability": "view",
      "type": "function"
    },
    {
      "inputs": [],
      "name": "DEFAULT_ADMIN_ROLE",
      "outputs": [
        {
          "internalType": "bytes32",
          "name": "",
          "type": "bytes32"
        }
      ],
      "stateMutability": "view",
      "type": "function"
    },
    {
      "inputs": [],
      "name": "DEFAULT_LIQUIDATION_THRESHOLD",
      "outputs": [
        {
          "internalType": "uint256",
          "name": "",
          "type": "uint256"
        }
      ],
      "stateMutability": "view",
      "type": "function"
    },
    {
      "inputs": [],
      "name": "DEFAULT_STALENESS_STABLE",
      "outputs": [
        {
          "internalType": "uint256",
          "name": "",
          "type": "uint256"
        }
      ],
      "stateMutability": "view",
      "type": "function"
    },
    {
      "inputs": [],
      "name": "DEFAULT_STALENESS_VOLATILE",
      "outputs": [
        {
          "internalType": "uint256",
          "name": "",
          "type": "uint256"
        }
      ],
      "stateMutability": "view",
      "type": "function"
    },
    {
      "inputs": [],
      "name": "GRACE_PERIOD",
      "outputs": [
        {
          "internalType": "uint256",
          "name": "",
          "type": "uint256"
        }
      ],
      "stateMutability": "view",
      "type": "function"
    },
    {
      "inputs": [],
      "name": "LIQUIDATION_PENALTY",
      "outputs": [
        {
          "internalType": "uint256",
          "name": "",
          "type": "uint256"
        }
      ],
      "stateMutability": "view",
      "type": "function"
    },
    {
      "inputs": [],
      "name": "SAFETY_BUFFER",
      "outputs": [
        {
          "internalType": "uint256",
          "name": "",
          "type": "uint256"
        }
      ],
      "stateMutability": "view",
      "type": "function"
    },
    {
      "inputs": [],
      "name": "SCORE_EXPIRY_PERIOD",
      "outputs": [
        {
          "internalType": "uint256",
          "name": "",
          "type": "uint256"
        }
      ],
      "stateMutability": "view",
      "type": "function"
    },
    {
      "inputs": [],
      "name": "SET_ADMIN_PERMISSION",
      "outputs": [
        {
          "internalType": "bytes32",
          "name": "",
          "type": "bytes32"
        }
      ],
      "stateMutability": "view",
      "type": "function"
    },
    {
      "inputs": [],
      "name": "SET_CREDIT_SCORE_PERMISSION",
      "outputs": [
        {
          "internalType": "bytes32",
          "name": "",
          "type": "bytes32"
        }
      ],
      "stateMutability": "view",
      "type": "function"
    },
    {
      "inputs": [],
      "name": "SET_LENDING_MANAGER_PERMISSION",
      "outputs": [
        {
          "internalType": "bytes32",
          "name": "",
          "type": "bytes32"
        }
      ],
      "stateMutability": "view",
      "type": "function"
    },
    {
      "inputs": [],
      "name": "SET_MAX_PRICE_AGE_PERMISSION",
      "outputs": [
        {
          "internalType": "bytes32",
          "name": "",
          "type": "bytes32"
        }
      ],
      "stateMutability": "view",
      "type": "function"
    },
    {
      "inputs": [],
      "name": "SET_MIN_PARTIAL_LIQUIDATION_AMOUNT_PERMISSION",
      "outputs": [
        {
          "internalType": "bytes32",
          "name": "",
          "type": "bytes32"
        }
      ],
      "stateMutability": "view",
      "type": "function"
    },
    {
      "inputs": [],
      "name": "SET_PRICE_FEED_PERMISSION",
      "outputs": [
        {
          "internalType": "bytes32",
          "name": "",
          "type": "bytes32"
        }
      ],
      "stateMutability": "view",
      "type": "function"
    },
    {
      "inputs": [],
      "name": "SET_RESERVE_ADDRESS_PERMISSION",
      "outputs": [
        {
          "internalType": "bytes32",
          "name": "",
          "type": "bytes32"
        }
      ],
      "stateMutability": "view",
      "type": "function"
    },
    {
      "inputs": [],
      "name": "SET_TIER_FEE_PERMISSION",
      "outputs": [
        {
          "internalType": "bytes32",
          "name": "",
          "type": "bytes32"
        }
      ],
      "stateMutability": "view",
      "type": "function"
    },
    {
      "inputs": [],
      "name": "TOGGLE_PAUSE_PERMISSION",
      "outputs": [
        {
          "internalType": "bytes32",
          "name": "",
          "type": "bytes32"
        }
      ],
      "stateMutability": "view",
      "type": "function"
    },
    {
      "inputs": [],
      "name": "UPDATE_BORROW_TIER_PERMISSION",
      "outputs": [
        {
          "internalType": "bytes32",
          "name": "",
          "type": "bytes32"
        }
      ],
      "stateMutability": "view",
      "type": "function"
    },
    {
      "inputs": [],
      "name": "UPKEEP_COOLDOWN",
      "outputs": [
        {
          "internalType": "uint256",
          "name": "",
          "type": "uint256"
        }
      ],
      "stateMutability": "view",
      "type": "function"
    },
    {
      "inputs": [
        {
          "internalType": "address",
          "name": "token",
          "type": "address"
        }
      ],
      "name": "allowedCollateralTokens",
      "outputs": [
        {
          "internalType": "bool",
          "name": "",
          "type": "bool"
        }
      ],
      "stateMutability": "view",
      "type": "function"
    },
    {
      "inputs": [
        {
          "internalType": "uint256",
          "name": "amount",
          "type": "uint256"
        }
      ],
      "name": "borrow",
      "outputs": [],
      "stateMutability": "payable",
      "type": "function"
    },
    {
      "inputs": [
        {
          "internalType": "uint256",
          "name": "",
          "type": "uint256"
        }
      ],
      "name": "borrowTierConfigs",
      "outputs": [
        {
          "internalType": "uint256",
          "name": "minScore",
          "type": "uint256"
        },
        {
          "internalType": "uint256",
          "name": "maxScore",
          "type": "uint256"
        },
        {
          "internalType": "uint256",
          "name": "collateralRatio",
          "type": "uint256"
        },
        {
          "internalType": "int256",
          "name": "interestRateModifier",
          "type": "int256"
        },
        {
          "internalType": "uint256",
          "name": "maxLoanAmount",
          "type": "uint256"
        }
      ],
      "stateMutability": "view",
      "type": "function"
    },
    {
      "inputs": [
        {
          "internalType": "address",
          "name": "",
          "type": "address"
        }
      ],
      "name": "borrowTimestamp",
      "outputs": [
        {
          "internalType": "uint256",
          "name": "",
          "type": "uint256"
        }
      ],
      "stateMutability": "view",
      "type": "function"
    },
    {
      "inputs": [
        {
          "internalType": "enum LiquidityPool.RiskTier",
          "name": "",
          "type": "uint8"
        }
      ],
      "name": "borrowedAmountByRiskTier",
      "outputs": [
        {
          "internalType": "uint256",
          "name": "",
          "type": "uint256"
        }
      ],
      "stateMutability": "view",
      "type": "function"
    },
    {
      "inputs": [
        {
          "internalType": "address",
          "name": "user",
          "type": "address"
        }
      ],
      "name": "calculateBorrowCapacity",
      "outputs": [
        {
          "internalType": "uint256",
          "name": "",
          "type": "uint256"
        }
      ],
      "stateMutability": "view",
      "type": "function"
    },
    {
      "inputs": [
        {
          "internalType": "address",
          "name": "user",
          "type": "address"
        }
      ],
      "name": "calculateCollateralValue",
      "outputs": [
        {
          "internalType": "uint256",
          "name": "",
          "type": "uint256"
        }
      ],
      "stateMutability": "view",
      "type": "function"
    },
    {
      "inputs": [
        {
          "internalType": "address",
          "name": "user",
          "type": "address"
        }
      ],
      "name": "calculateHealthFactor",
      "outputs": [
        {
          "internalType": "uint256",
          "name": "",
          "type": "uint256"
        }
      ],
      "stateMutability": "view",
      "type": "function"
    },
    {
      "inputs": [
        {
          "internalType": "address",
          "name": "user",
          "type": "address"
        }
      ],
      "name": "calculateLiquidation",
      "outputs": [
        {
          "internalType": "uint256",
          "name": "",
          "type": "uint256"
        },
        {
          "internalType": "uint256",
          "name": "",
          "type": "uint256"
        }
      ],
      "stateMutability": "view",
      "type": "function"
    },
    {
      "inputs": [
        {
          "internalType": "address",
          "name": "user",
          "type": "address"
        }
      ],
      "name": "calculateUserDebt",
      "outputs": [
        {
          "internalType": "uint256",
          "name": "",
          "type": "uint256"
        }
      ],
      "stateMutability": "view",
      "type": "function"
    },
    {
      "inputs": [
        {
          "internalType": "address",
          "name": "user",
          "type": "address"
        }
      ],
      "name": "canLend",
      "outputs": [
        {
          "internalType": "bool",
          "name": "",
          "type": "bool"
        }
      ],
      "stateMutability": "view",
      "type": "function"
    },
    {
      "inputs": [],
      "name": "checkCircuitBreakers",
      "outputs": [],
      "stateMutability": "nonpayable",
      "type": "function"
    },
    {
      "inputs": [
        {
          "internalType": "address",
          "name": "user",
          "type": "address"
        }
      ],
      "name": "checkCollateralization",
      "outputs": [
        {
          "internalType": "bool",
          "name": "isHealthy",
          "type": "bool"
        },
        {
          "internalType": "uint256",
          "name": "ratio",
          "type": "uint256"
        }
      ],
      "stateMutability": "view",
      "type": "function"
    },
    {
      "inputs": [
        {
          "internalType": "bytes",
          "name": "",
          "type": "bytes"
        }
      ],
      "name": "checkUpkeep",
      "outputs": [
        {
          "internalType": "bool",
          "name": "upkeepNeeded",
          "type": "bool"
        },
        {
          "internalType": "bytes",
          "name": "performData",
          "type": "bytes"
        }
      ],
      "stateMutability": "view",
      "type": "function"
    },
    {
      "inputs": [
        {
          "internalType": "address",
          "name": "token",
          "type": "address"
        },
        {
          "internalType": "address",
          "name": "user",
          "type": "address"
        },
        {
          "internalType": "address",
          "name": "to",
          "type": "address"
        },
        {
          "internalType": "uint256",
          "name": "amount",
          "type": "uint256"
        }
      ],
      "name": "clearCollateral",
      "outputs": [],
      "stateMutability": "nonpayable",
      "type": "function"
    },
    {
      "inputs": [
        {
          "internalType": "address",
          "name": "user",
          "type": "address"
        },
        {
          "internalType": "uint256",
          "name": "amount",
          "type": "uint256"
        }
      ],
      "name": "clearDebt",
      "outputs": [],
      "stateMutability": "nonpayable",
      "type": "function"
    },
    {
      "inputs": [
        {
          "internalType": "address",
          "name": "",
          "type": "address"
        },
        {
          "internalType": "address",
          "name": "",
          "type": "address"
        }
      ],
      "name": "collateralBalance",
      "outputs": [
        {
          "internalType": "uint256",
          "name": "",
          "type": "uint256"
        }
      ],
      "stateMutability": "view",
      "type": "function"
    },
    {
      "inputs": [
        {
          "internalType": "uint256",
          "name": "",
          "type": "uint256"
        }
      ],
      "name": "collateralTokenList",
      "outputs": [
        {
          "internalType": "address",
          "name": "",
          "type": "address"
        }
      ],
      "stateMutability": "view",
      "type": "function"
    },
    {
      "inputs": [
        {
          "internalType": "uint64",
          "name": "ficoScore",
          "type": "uint64"
        }
      ],
      "name": "convertFICOToContractScore",
      "outputs": [
        {
          "internalType": "uint256",
          "name": "",
          "type": "uint256"
        }
      ],
      "stateMutability": "pure",
      "type": "function"
    },
    {
      "inputs": [
        {
          "internalType": "address",
          "name": "",
          "type": "address"
        }
      ],
      "name": "creditScore",
      "outputs": [
        {
          "internalType": "uint256",
          "name": "",
          "type": "uint256"
        }
      ],
      "stateMutability": "view",
      "type": "function"
    },
    {
      "inputs": [],
      "name": "creditScoreContract",
      "outputs": [
        {
          "internalType": "contract ICreditScore",
          "name": "",
          "type": "address"
        }
      ],
      "stateMutability": "view",
      "type": "function"
    },
    {
      "inputs": [
        {
          "internalType": "address",
          "name": "token",
          "type": "address"
        },
        {
          "internalType": "uint256",
          "name": "amount",
          "type": "uint256"
        }
      ],
      "name": "depositCollateral",
      "outputs": [],
      "stateMutability": "nonpayable",
      "type": "function"
    },
    {
      "inputs": [
        {
          "internalType": "uint256",
          "name": "amount",
          "type": "uint256"
        },
        {
          "internalType": "address payable",
          "name": "to",
          "type": "address"
        }
      ],
      "name": "extract",
      "outputs": [],
      "stateMutability": "nonpayable",
      "type": "function"
    },
    {
      "inputs": [],
      "name": "getAdmin",
      "outputs": [
        {
          "internalType": "address",
          "name": "",
          "type": "address"
        }
      ],
      "stateMutability": "view",
      "type": "function"
    },
    {
      "inputs": [],
      "name": "getAllCollateralTokens",
      "outputs": [
        {
          "internalType": "address[]",
          "name": "",
          "type": "address[]"
        }
      ],
      "stateMutability": "view",
      "type": "function"
    },
    {
      "inputs": [],
      "name": "getAllUsers",
      "outputs": [
        {
          "internalType": "address[]",
          "name": "",
          "type": "address[]"
        }
      ],
      "stateMutability": "view",
      "type": "function"
    },
    {
      "inputs": [],
      "name": "getAllowedCollateralTokens",
      "outputs": [
        {
          "internalType": "address[]",
          "name": "",
          "type": "address[]"
        }
      ],
      "stateMutability": "view",
      "type": "function"
    },
    {
      "inputs": [],
      "name": "getAvailableLiquidity",
      "outputs": [
        {
          "internalType": "uint256",
          "name": "",
          "type": "uint256"
        }
      ],
      "stateMutability": "view",
      "type": "function"
    },
    {
      "inputs": [],
      "name": "getBalance",
      "outputs": [
        {
          "internalType": "uint256",
          "name": "",
          "type": "uint256"
        }
      ],
      "stateMutability": "view",
      "type": "function"
    },
    {
      "inputs": [],
      "name": "getBorrowRate",
      "outputs": [
        {
          "internalType": "uint256",
          "name": "",
          "type": "uint256"
        }
      ],
      "stateMutability": "pure",
      "type": "function"
    },
    {
      "inputs": [
        {
          "internalType": "address",
          "name": "user",
          "type": "address"
        }
      ],
      "name": "getBorrowTerms",
      "outputs": [
        {
          "internalType": "uint256",
          "name": "collateralRatio",
          "type": "uint256"
        },
        {
          "internalType": "int256",
          "name": "interestRateModifier",
          "type": "int256"
        },
        {
          "internalType": "uint256",
          "name": "maxLoanAmount",
          "type": "uint256"
        }
      ],
      "stateMutability": "view",
      "type": "function"
    },
    {
      "inputs": [
        {
          "internalType": "address",
          "name": "user",
          "type": "address"
        }
      ],
      "name": "getBorrowerRate",
      "outputs": [
        {
          "internalType": "uint256",
          "name": "",
          "type": "uint256"
        }
      ],
      "stateMutability": "view",
      "type": "function"
    },
    {
      "inputs": [
        {
          "internalType": "address",
          "name": "user",
          "type": "address"
        },
        {
          "internalType": "address",
          "name": "token",
          "type": "address"
        }
      ],
      "name": "getCollateral",
      "outputs": [
        {
          "internalType": "uint256",
          "name": "",
          "type": "uint256"
        }
      ],
      "stateMutability": "view",
      "type": "function"
    },
    {
      "inputs": [
        {
          "internalType": "address",
          "name": "user",
          "type": "address"
        }
      ],
      "name": "getCollateralReductionInfo",
      "outputs": [
        {
          "internalType": "enum LiquidityPool.RiskTier",
          "name": "currentTier",
          "type": "uint8"
        },
        {
          "internalType": "uint256",
          "name": "currentCollateralRatio",
          "type": "uint256"
        },
        {
          "internalType": "uint256",
          "name": "adjustedCollateralRatio",
          "type": "uint256"
        },
        {
          "internalType": "uint256",
          "name": "potentialReductionPercent",
          "type": "uint256"
        }
      ],
      "stateMutability": "view",
      "type": "function"
    },
    {
      "inputs": [
        {
          "internalType": "address",
          "name": "user",
          "type": "address"
        }
      ],
      "name": "getCreditScore",
      "outputs": [
        {
          "internalType": "uint256",
          "name": "",
          "type": "uint256"
        }
      ],
      "stateMutability": "view",
      "type": "function"
    },
    {
      "inputs": [],
      "name": "getExchangeRate",
      "outputs": [
        {
          "internalType": "uint256",
          "name": "",
          "type": "uint256"
        }
      ],
      "stateMutability": "pure",
      "type": "function"
    },
    {
      "inputs": [],
      "name": "getGlobalRiskMultiplier",
      "outputs": [
        {
          "internalType": "uint256",
          "name": "",
          "type": "uint256"
        }
      ],
      "stateMutability": "pure",
      "type": "function"
    },
    {
      "inputs": [
        {
          "internalType": "address",
          "name": "token",
          "type": "address"
        }
      ],
      "name": "getLTV",
      "outputs": [
        {
          "internalType": "uint256",
          "name": "",
          "type": "uint256"
        }
      ],
      "stateMutability": "view",
      "type": "function"
    },
    {
      "inputs": [
        {
          "internalType": "address",
          "name": "user",
          "type": "address"
        }
      ],
      "name": "getLoan",
      "outputs": [
        {
          "components": [
            {
              "internalType": "uint256",
              "name": "principal",
              "type": "uint256"
            },
            {
              "internalType": "uint256",
              "name": "outstanding",
              "type": "uint256"
            },
            {
              "internalType": "uint256",
              "name": "interestRate",
              "type": "uint256"
            },
            {
              "internalType": "uint256",
              "name": "nextDueDate",
              "type": "uint256"
            },
            {
              "internalType": "uint256",
              "name": "installmentAmount",
              "type": "uint256"
            },
            {
              "internalType": "uint256",
              "name": "penaltyBps",
              "type": "uint256"
            },
            {
              "internalType": "bool",
              "name": "active",
              "type": "bool"
            }
          ],
          "internalType": "struct LiquidityPool.Loan",
          "name": "",
          "type": "tuple"
        }
      ],
      "stateMutability": "view",
      "type": "function"
    },
    {
      "inputs": [
        {
          "internalType": "address",
          "name": "user",
          "type": "address"
        }
      ],
      "name": "getLoanDetails",
      "outputs": [
        {
          "internalType": "uint256",
          "name": "principal",
          "type": "uint256"
        },
        {
          "internalType": "uint256",
          "name": "outstanding",
          "type": "uint256"
        },
        {
          "internalType": "uint256",
          "name": "interestRate",
          "type": "uint256"
        },
        {
          "internalType": "uint256",
          "name": "nextDueDate",
          "type": "uint256"
        },
        {
          "internalType": "uint256",
          "name": "installmentAmount",
          "type": "uint256"
        },
        {
          "internalType": "uint256",
          "name": "penaltyBps",
          "type": "uint256"
        },
        {
          "internalType": "bool",
          "name": "active",
          "type": "bool"
        },
        {
          "internalType": "uint256",
          "name": "daysUntilDue",
          "type": "uint256"
        },
        {
          "internalType": "uint256",
          "name": "latePenaltyIfPaidNow",
          "type": "uint256"
        },
        {
          "internalType": "uint256",
          "name": "totalInstallmentsRemaining",
          "type": "uint256"
        }
      ],
      "stateMutability": "view",
      "type": "function"
    },
    {
      "inputs": [
        {
          "internalType": "address",
          "name": "user",
          "type": "address"
        },
        {
          "internalType": "address",
          "name": "token",
          "type": "address"
        }
      ],
      "name": "getMaxWithdrawableCollateral",
      "outputs": [
        {
          "internalType": "uint256",
          "name": "maxWithdrawable",
          "type": "uint256"
        }
      ],
      "stateMutability": "view",
      "type": "function"
    },
    {
      "inputs": [],
      "name": "getMinCollateralRatio",
      "outputs": [
        {
          "internalType": "uint256",
          "name": "",
          "type": "uint256"
        }
      ],
      "stateMutability": "pure",
      "type": "function"
    },
    {
      "inputs": [],
      "name": "getMyDebt",
      "outputs": [
        {
          "internalType": "uint256",
          "name": "",
          "type": "uint256"
        }
      ],
      "stateMutability": "view",
      "type": "function"
    },
    {
      "inputs": [
        {
          "internalType": "address",
          "name": "token",
          "type": "address"
        }
      ],
      "name": "getPriceFeed",
      "outputs": [
        {
          "internalType": "address",
          "name": "",
          "type": "address"
        }
      ],
      "stateMutability": "view",
      "type": "function"
    },
    {
      "inputs": [],
      "name": "getProtocolReserves",
      "outputs": [
        {
          "internalType": "uint256",
          "name": "",
          "type": "uint256"
        }
      ],
      "stateMutability": "view",
      "type": "function"
    },
    {
      "inputs": [],
      "name": "getReserveFactor",
      "outputs": [
        {
          "internalType": "uint256",
          "name": "",
          "type": "uint256"
        }
      ],
      "stateMutability": "pure",
      "type": "function"
    },
    {
      "inputs": [
        {
          "internalType": "address",
          "name": "user",
          "type": "address"
        }
      ],
      "name": "getRiskTier",
      "outputs": [
        {
          "internalType": "enum LiquidityPool.RiskTier",
          "name": "",
          "type": "uint8"
        }
      ],
      "stateMutability": "view",
      "type": "function"
    },
    {
      "inputs": [
        {
          "internalType": "bytes32",
          "name": "role",
          "type": "bytes32"
        }
      ],
      "name": "getRoleAdmin",
      "outputs": [
        {
          "internalType": "bytes32",
          "name": "",
          "type": "bytes32"
        }
      ],
      "stateMutability": "view",
      "type": "function"
    },
    {
      "inputs": [],
      "name": "getSupplyRate",
      "outputs": [
        {
          "internalType": "uint256",
          "name": "",
          "type": "uint256"
        }
      ],
      "stateMutability": "pure",
      "type": "function"
    },
    {
      "inputs": [
        {
          "internalType": "address",
          "name": "token",
          "type": "address"
        }
      ],
      "name": "getTokenValue",
      "outputs": [
        {
          "internalType": "uint256",
          "name": "",
          "type": "uint256"
        }
      ],
      "stateMutability": "view",
      "type": "function"
    },
    {
      "inputs": [],
      "name": "getTotalBorrows",
      "outputs": [
        {
          "internalType": "uint256",
          "name": "",
          "type": "uint256"
        }
      ],
      "stateMutability": "view",
      "type": "function"
    },
    {
      "inputs": [
        {
          "internalType": "address",
          "name": "user",
          "type": "address"
        }
      ],
      "name": "getTotalCollateralValue",
      "outputs": [
        {
          "internalType": "uint256",
          "name": "",
          "type": "uint256"
        }
      ],
      "stateMutability": "view",
      "type": "function"
    },
    {
      "inputs": [],
      "name": "getTotalSupply",
      "outputs": [
        {
          "internalType": "uint256",
          "name": "",
          "type": "uint256"
        }
      ],
      "stateMutability": "view",
      "type": "function"
    },
    {
      "inputs": [],
      "name": "getUtilizationRate",
      "outputs": [
        {
          "internalType": "uint256",
          "name": "",
          "type": "uint256"
        }
      ],
      "stateMutability": "view",
      "type": "function"
    },
    {
      "inputs": [
        {
          "internalType": "bytes32",
          "name": "role",
          "type": "bytes32"
        },
        {
          "internalType": "address",
          "name": "account",
          "type": "address"
        }
      ],
      "name": "grantRole",
      "outputs": [],
      "stateMutability": "nonpayable",
      "type": "function"
    },
    {
      "inputs": [
        {
          "internalType": "bytes32",
          "name": "role",
          "type": "bytes32"
        },
        {
          "internalType": "address",
          "name": "account",
          "type": "address"
        }
      ],
      "name": "hasRole",
      "outputs": [
        {
          "internalType": "bool",
          "name": "",
          "type": "bool"
        }
      ],
      "stateMutability": "view",
      "type": "function"
    },
    {
      "inputs": [
        {
          "internalType": "address",
          "name": "user",
          "type": "address"
        }
      ],
      "name": "hasValidRISC0Score",
      "outputs": [
        {
          "internalType": "bool",
          "name": "hasValidScore",
          "type": "bool"
        },
        {
          "internalType": "uint256",
          "name": "score",
          "type": "uint256"
        },
        {
          "internalType": "uint256",
          "name": "timestamp",
          "type": "uint256"
        }
      ],
      "stateMutability": "view",
      "type": "function"
    },
    {
      "inputs": [
        {
          "internalType": "address",
          "name": "_timelock",
          "type": "address"
        },
        {
          "internalType": "address",
          "name": "_stablecoinManager",
          "type": "address"
        },
        {
          "internalType": "address",
          "name": "_lendingManager",
          "type": "address"
        },
        {
          "internalType": "address",
          "name": "_interestRateModel",
          "type": "address"
        }
      ],
      "name": "initialize",
      "outputs": [],
      "stateMutability": "nonpayable",
      "type": "function"
    },
    {
      "inputs": [],
      "name": "interestRateModel",
      "outputs": [
        {
          "internalType": "contract InterestRateModel",
          "name": "",
          "type": "address"
        }
      ],
      "stateMutability": "view",
      "type": "function"
    },
    {
      "inputs": [
        {
          "internalType": "address",
          "name": "",
          "type": "address"
        }
      ],
      "name": "isAllowedCollateral",
      "outputs": [
        {
          "internalType": "bool",
          "name": "",
          "type": "bool"
        }
      ],
      "stateMutability": "view",
      "type": "function"
    },
    {
      "inputs": [
        {
          "internalType": "address",
          "name": "",
          "type": "address"
        }
      ],
      "name": "isKnownUser",
      "outputs": [
        {
          "internalType": "bool",
          "name": "",
          "type": "bool"
        }
      ],
      "stateMutability": "view",
      "type": "function"
    },
    {
      "inputs": [
        {
          "internalType": "address",
          "name": "",
          "type": "address"
        }
      ],
      "name": "isLiquidatable",
      "outputs": [
        {
          "internalType": "bool",
          "name": "",
          "type": "bool"
        }
      ],
      "stateMutability": "view",
      "type": "function"
    },
    {
      "inputs": [],
      "name": "isPaused",
      "outputs": [
        {
          "internalType": "bool",
          "name": "",
          "type": "bool"
        }
      ],
      "stateMutability": "view",
      "type": "function"
    },
    {
      "inputs": [],
      "name": "lastUpkeep",
      "outputs": [
        {
          "internalType": "uint256",
          "name": "",
          "type": "uint256"
        }
      ],
      "stateMutability": "view",
      "type": "function"
    },
    {
      "inputs": [],
      "name": "lendingManager",
      "outputs": [
        {
          "internalType": "contract LendingManager",
          "name": "",
          "type": "address"
        }
      ],
      "stateMutability": "view",
      "type": "function"
    },
    {
      "inputs": [
        {
          "internalType": "address",
          "name": "user",
          "type": "address"
        }
      ],
      "name": "liquidationInfo",
      "outputs": [
        {
          "internalType": "bool",
          "name": "",
          "type": "bool"
        },
        {
          "internalType": "uint256",
          "name": "",
          "type": "uint256"
        },
        {
          "internalType": "uint256",
          "name": "",
          "type": "uint256"
        }
      ],
      "stateMutability": "view",
      "type": "function"
    },
    {
      "inputs": [
        {
          "internalType": "address",
          "name": "",
          "type": "address"
        }
      ],
      "name": "liquidationStartTime",
      "outputs": [
        {
          "internalType": "uint256",
          "name": "",
          "type": "uint256"
        }
      ],
      "stateMutability": "view",
      "type": "function"
    },
    {
      "inputs": [],
      "name": "liquidator",
      "outputs": [
        {
          "internalType": "address",
          "name": "",
          "type": "address"
        }
      ],
      "stateMutability": "view",
      "type": "function"
    },
    {
      "inputs": [
        {
          "internalType": "address",
          "name": "",
          "type": "address"
        }
      ],
      "name": "loans",
      "outputs": [
        {
          "internalType": "uint256",
          "name": "principal",
          "type": "uint256"
        },
        {
          "internalType": "uint256",
          "name": "outstanding",
          "type": "uint256"
        },
        {
          "internalType": "uint256",
          "name": "interestRate",
          "type": "uint256"
        },
        {
          "internalType": "uint256",
          "name": "nextDueDate",
          "type": "uint256"
        },
        {
          "internalType": "uint256",
          "name": "installmentAmount",
          "type": "uint256"
        },
        {
          "internalType": "uint256",
          "name": "penaltyBps",
          "type": "uint256"
        },
        {
          "internalType": "bool",
          "name": "active",
          "type": "bool"
        }
      ],
      "stateMutability": "view",
      "type": "function"
    },
    {
      "inputs": [],
      "name": "locked",
      "outputs": [
        {
          "internalType": "bool",
          "name": "",
          "type": "bool"
        }
      ],
      "stateMutability": "view",
      "type": "function"
    },
    {
      "inputs": [
        {
          "internalType": "address",
          "name": "",
          "type": "address"
        }
      ],
      "name": "maxPriceAge",
      "outputs": [
        {
          "internalType": "uint256",
          "name": "",
          "type": "uint256"
        }
      ],
      "stateMutability": "view",
      "type": "function"
    },
    {
      "inputs": [],
      "name": "minPartialLiquidationAmount",
      "outputs": [
        {
          "internalType": "uint256",
          "name": "",
          "type": "uint256"
        }
      ],
      "stateMutability": "view",
      "type": "function"
    },
    {
      "inputs": [],
      "name": "paused",
      "outputs": [
        {
          "internalType": "bool",
          "name": "",
          "type": "bool"
        }
      ],
      "stateMutability": "view",
      "type": "function"
    },
    {
      "inputs": [
        {
          "internalType": "bytes",
          "name": "performData",
          "type": "bytes"
        }
      ],
      "name": "performUpkeep",
      "outputs": [],
      "stateMutability": "nonpayable",
      "type": "function"
    },
    {
      "inputs": [
        {
          "internalType": "address",
          "name": "",
          "type": "address"
        }
      ],
      "name": "priceFeed",
      "outputs": [
        {
          "internalType": "address",
          "name": "",
          "type": "address"
        }
      ],
      "stateMutability": "view",
      "type": "function"
    },
    {
      "inputs": [
        {
          "internalType": "address",
          "name": "token",
          "type": "address"
        },
        {
          "internalType": "uint256",
          "name": "amount",
          "type": "uint256"
        }
      ],
      "name": "recoverFromLiquidation",
      "outputs": [],
      "stateMutability": "nonpayable",
      "type": "function"
    },
    {
      "inputs": [
        {
          "internalType": "bytes32",
          "name": "role",
          "type": "bytes32"
        },
        {
          "internalType": "address",
          "name": "account",
          "type": "address"
        }
      ],
      "name": "renounceRole",
      "outputs": [],
      "stateMutability": "nonpayable",
      "type": "function"
    },
    {
      "inputs": [],
      "name": "repay",
      "outputs": [],
      "stateMutability": "payable",
      "type": "function"
    },
    {
      "inputs": [],
      "name": "repayInstallment",
      "outputs": [],
      "stateMutability": "payable",
      "type": "function"
    },
    {
      "inputs": [],
      "name": "reserveAddress",
      "outputs": [
        {
          "internalType": "address",
          "name": "",
          "type": "address"
        }
      ],
      "stateMutability": "view",
      "type": "function"
    },
    {
      "inputs": [
        {
          "internalType": "bytes32",
          "name": "role",
          "type": "bytes32"
        },
        {
          "internalType": "address",
          "name": "account",
          "type": "address"
        }
      ],
      "name": "revokeRole",
      "outputs": [],
      "stateMutability": "nonpayable",
      "type": "function"
    },
    {
      "inputs": [
        {
          "internalType": "address",
          "name": "newAdmin",
          "type": "address"
        }
      ],
      "name": "setAdmin",
      "outputs": [],
      "stateMutability": "nonpayable",
      "type": "function"
    },
    {
      "inputs": [
        {
          "internalType": "address",
          "name": "token",
          "type": "address"
        },
        {
          "internalType": "bool",
          "name": "allowed",
          "type": "bool"
        }
      ],
      "name": "setAllowedCollateral",
      "outputs": [],
      "stateMutability": "nonpayable",
      "type": "function"
    },
    {
      "inputs": [
        {
          "internalType": "address",
          "name": "user",
          "type": "address"
        },
        {
          "internalType": "uint256",
          "name": "score",
          "type": "uint256"
        }
      ],
      "name": "setCreditScore",
      "outputs": [],
      "stateMutability": "nonpayable",
      "type": "function"
    },
    {
      "inputs": [
        {
          "internalType": "address",
          "name": "_creditScoreContract",
          "type": "address"
        }
      ],
      "name": "setCreditScoreContract",
      "outputs": [],
      "stateMutability": "nonpayable",
      "type": "function"
    },
    {
      "inputs": [
        {
          "internalType": "address",
          "name": "_lendingManager",
          "type": "address"
        }
      ],
      "name": "setLendingManager",
      "outputs": [],
      "stateMutability": "nonpayable",
      "type": "function"
    },
    {
      "inputs": [
        {
          "internalType": "address",
          "name": "_liquidator",
          "type": "address"
        }
      ],
      "name": "setLiquidator",
      "outputs": [],
      "stateMutability": "nonpayable",
      "type": "function"
    },
    {
      "inputs": [
        {
          "internalType": "address",
          "name": "token",
          "type": "address"
        },
        {
          "internalType": "uint256",
          "name": "age",
          "type": "uint256"
        }
      ],
      "name": "setMaxPriceAge",
      "outputs": [],
      "stateMutability": "nonpayable",
      "type": "function"
    },
    {
      "inputs": [
        {
          "internalType": "uint256",
          "name": "amount",
          "type": "uint256"
        }
      ],
      "name": "setMinPartialLiquidationAmount",
      "outputs": [],
      "stateMutability": "nonpayable",
      "type": "function"
    },
    {
      "inputs": [
        {
          "internalType": "address",
          "name": "token",
          "type": "address"
        },
        {
          "internalType": "address",
          "name": "feed",
          "type": "address"
        }
      ],
      "name": "setPriceFeed",
      "outputs": [],
      "stateMutability": "nonpayable",
      "type": "function"
    },
    {
      "inputs": [
        {
          "internalType": "address",
          "name": "_reserve",
          "type": "address"
        }
      ],
      "name": "setReserveAddress",
      "outputs": [],
      "stateMutability": "nonpayable",
      "type": "function"
    },
    {
      "inputs": [
        {
          "internalType": "uint256",
          "name": "tier",
          "type": "uint256"
        },
        {
          "internalType": "uint256",
          "name": "originationFee",
          "type": "uint256"
        },
        {
          "internalType": "uint256",
          "name": "lateFeeAPR",
          "type": "uint256"
        }
      ],
      "name": "setTierFee",
      "outputs": [],
      "stateMutability": "nonpayable",
      "type": "function"
    },
    {
      "inputs": [
        {
          "internalType": "address",
          "name": "_votingToken",
          "type": "address"
        }
      ],
      "name": "setVotingToken",
      "outputs": [],
      "stateMutability": "nonpayable",
      "type": "function"
    },
    {
      "inputs": [],
      "name": "stablecoinManager",
      "outputs": [
        {
          "internalType": "contract StablecoinManager",
          "name": "",
          "type": "address"
        }
      ],
      "stateMutability": "view",
      "type": "function"
    },
    {
      "inputs": [
        {
          "internalType": "address",
          "name": "user",
          "type": "address"
        }
      ],
      "name": "startLiquidation",
      "outputs": [],
      "stateMutability": "nonpayable",
      "type": "function"
    },
    {
      "inputs": [
        {
          "internalType": "bytes4",
          "name": "interfaceId",
          "type": "bytes4"
        }
      ],
      "name": "supportsInterface",
      "outputs": [
        {
          "internalType": "bool",
          "name": "",
          "type": "bool"
        }
      ],
      "stateMutability": "view",
      "type": "function"
    },
    {
      "inputs": [
        {
          "internalType": "uint256",
          "name": "",
          "type": "uint256"
        }
      ],
      "name": "tierFees",
      "outputs": [
        {
          "internalType": "uint256",
          "name": "originationFee",
          "type": "uint256"
        },
        {
          "internalType": "uint256",
          "name": "lateFeeAPR",
          "type": "uint256"
        }
      ],
      "stateMutability": "view",
      "type": "function"
    },
    {
      "inputs": [],
      "name": "timelock",
      "outputs": [
        {
          "internalType": "address",
          "name": "",
          "type": "address"
        }
      ],
      "stateMutability": "view",
      "type": "function"
    },
    {
      "inputs": [],
      "name": "togglePause",
      "outputs": [],
      "stateMutability": "nonpayable",
      "type": "function"
    },
    {
      "inputs": [
        {
          "internalType": "bool",
          "name": "_useRISC0",
          "type": "bool"
        }
      ],
      "name": "toggleRISC0CreditScores",
      "outputs": [],
      "stateMutability": "nonpayable",
      "type": "function"
    },
    {
      "inputs": [],
      "name": "totalBorrowedAllTime",
      "outputs": [
        {
          "internalType": "uint256",
          "name": "",
          "type": "uint256"
        }
      ],
      "stateMutability": "view",
      "type": "function"
    },
    {
      "inputs": [],
      "name": "totalFunds",
      "outputs": [
        {
          "internalType": "uint256",
          "name": "",
          "type": "uint256"
        }
      ],
      "stateMutability": "view",
      "type": "function"
    },
    {
      "inputs": [],
      "name": "totalRepaidAllTime",
      "outputs": [
        {
          "internalType": "uint256",
          "name": "",
          "type": "uint256"
        }
      ],
      "stateMutability": "view",
      "type": "function"
    },
    {
      "inputs": [
        {
          "internalType": "uint256",
          "name": "tierIndex",
          "type": "uint256"
        },
        {
          "internalType": "uint256",
          "name": "minScore",
          "type": "uint256"
        },
        {
          "internalType": "uint256",
          "name": "maxScore",
          "type": "uint256"
        },
        {
          "internalType": "uint256",
          "name": "collateralRatio",
          "type": "uint256"
        },
        {
          "internalType": "int256",
          "name": "interestRateModifier",
          "type": "int256"
        },
        {
          "internalType": "uint256",
          "name": "maxLoanAmount",
          "type": "uint256"
        }
      ],
      "name": "updateBorrowTier",
      "outputs": [],
      "stateMutability": "nonpayable",
      "type": "function"
    },
    {
      "inputs": [],
      "name": "useRISC0CreditScores",
      "outputs": [
        {
          "internalType": "bool",
          "name": "",
          "type": "bool"
        }
      ],
      "stateMutability": "view",
      "type": "function"
    },
    {
      "inputs": [
        {
          "internalType": "address",
          "name": "",
          "type": "address"
        }
      ],
      "name": "userDebt",
      "outputs": [
        {
          "internalType": "uint256",
          "name": "",
          "type": "uint256"
        }
      ],
      "stateMutability": "view",
      "type": "function"
    },
    {
      "inputs": [
        {
          "internalType": "address",
          "name": "user",
          "type": "address"
        }
      ],
      "name": "userPositions",
      "outputs": [
        {
          "internalType": "uint256",
          "name": "",
          "type": "uint256"
        },
        {
          "internalType": "uint256",
          "name": "",
          "type": "uint256"
        },
        {
          "internalType": "uint256",
          "name": "",
          "type": "uint256"
        }
      ],
      "stateMutability": "view",
      "type": "function"
    },
    {
      "inputs": [
        {
          "internalType": "uint256",
          "name": "",
          "type": "uint256"
        }
      ],
      "name": "users",
      "outputs": [
        {
          "internalType": "address",
          "name": "",
          "type": "address"
        }
      ],
      "stateMutability": "view",
      "type": "function"
    },
    {
      "inputs": [],
      "name": "votingToken",
      "outputs": [
        {
          "internalType": "contract VotingToken",
          "name": "",
          "type": "address"
        }
      ],
      "stateMutability": "view",
      "type": "function"
    },
    {
      "inputs": [
        {
          "internalType": "address",
          "name": "token",
          "type": "address"
        },
        {
          "internalType": "uint256",
          "name": "amount",
          "type": "uint256"
        }
      ],
      "name": "withdrawCollateral",
      "outputs": [],
      "stateMutability": "nonpayable",
      "type": "function"
    },
    {
      "inputs": [
        {
          "internalType": "uint256",
          "name": "amount",
          "type": "uint256"
        }
      ],
      "name": "withdrawForLendingManager",
      "outputs": [],
      "stateMutability": "nonpayable",
      "type": "function"
    },
    {
      "inputs": [
        {
          "internalType": "address",
          "name": "token",
          "type": "address"
        },
        {
          "internalType": "uint256",
          "name": "amount",
          "type": "uint256"
        }
      ],
      "name": "withdrawPartialCollateral",
      "outputs": [],
      "stateMutability": "nonpayable",
      "type": "function"
    },
    {
      "stateMutability": "payable",
      "type": "receive"
    }
  ],
  "bytecode": "0x6080806040523461001757615f0490816200001c8239f35b5f80fdfe6080604081815260048036101561002f575b505050361561001e575f80fd5b61002a3460a254614a24565b60a255005b5f925f3560e01c90816301c76f81146146a65750806301ffc9a71461465357806303a42b6f1461462b578063042e02cf146145ef57806305510b911461451d578063080d9c2b146143de5780630835e145146143be5780630b044c79146143a25780630ef7fb67146143875780630f61b8101461430f57806312065fe0146125c157806314673d311461425c5780631bfe4261146142225780631fd48b9a146141e957806320dfcae114613f3857806323fe5a3314613f20578063248a9ca314613ef55780632a28ec4414613e745780632a7beafe14613e455780632f2ff15d14613da357806330332f9f14613d2a57806333481fc914613c40578063350c35e9146139b1578063357619a91461397757806335f679811461394b57806336568abe146138b9578063365b98b21461389057806338053ef3146138585780633d7c5d3e1461383a578063402d88831461360a5780634046ebae146135dd578063418eea31146135a2578063450a375a1461357c5780634585e33b146133c4578063488683cd146133895780634a417a531461336c5780634c8f35ab14611e415780634c95da661461333a5780635141df411461330057806352226ef0146132b557806355f4d9e214613153578063594ad93f1461313557806359705bb3146131175780635a70348f14612af25780635b66e7fc146130fa5780635b6cca80146130a95780635c44f10d1461308d5780635c975abb14611f675780635f558e5314613071578063613cf420146130185780636579b73e14612fe057806369ff0a0d14612fb95780636c648fc414612f935780636e04ff0d14612db95780636e9960c314611428578063704b6c0214612d2857806370ed11bc14612cca57806372ed9f7b14612b305780637346f48614612af257806373b4086b14612a7757806376e11286146129f657806378974cbb1461295f5780637a8ce68b14612924578063802937ac1461290557806383475f0c146128ca57806383ae734514611ebe57806384bdc9a8146128a85780638e6b53bc1461287657806391d148541461283357806393a517a2146127b45780639490a51e1461277657806395eb0d1514612748578063962a0da51461270d578063968ed60014611d0e57806397ed81cf146125c65780639b745aec146125c15780639b8621d5146125a55780639ce625f71461257f5780639e3b77af14612556578063a217fddf1461253b578063a36e4ad61461229c578063a5d5db0c14612032578063a787572e14611fdd578063a8cf4b5214610fa3578063aca25f9a14611fb7578063b034012314611f8e578063b187bd2614611f67578063b3075fb714611f36578063b3a5a0a214611ef6578063b69e5c7714611ebe578063b8cdf56114611e9f578063ba1c5e8014611e7c578063bc3d5a3e14611e5d578063c129d50414611e41578063c1a287e214611e23578063c23c69d514611deb578063c39537e114611db0578063c4ae316814611d2d578063c4e41b2214611d0e578063c5ebeaec146116d0578063c869d0ed1461162e578063c941f32114611605578063cc484c5c146115a3578063cf1762251461157a578063cf30901214611556578063d1f151c114611489578063d29255f914611451578063d33219b414611428578063d3dd2bdf14611407578063d547741f146113c9578063ddac7f1b14611340578063e19fb8f51461122f578063e1c5010014611128578063e1f7c2c914611091578063e2842d7914611000578063e2d7462814610fa8578063e6aa216c14610fa3578063e6ae357614610f68578063e7602b9d14610f1b578063e84bae4514610eea578063e8a7da8e14610ca5578063e9ffb29114610c6a578063eb8d655114610c2f578063ebdcc16414610c00578063f1c5d6c214610bd3578063f3fdb15a14610baa578063f79ed94b14610b81578063f7e590ee14610b49578063f8c8765e14610857578063fbbff3d1146107e3578063feb50e52146106e25763ffd4aedb0361001157346106de5760803660031901126106de5761068a91610600614706565b61060861471c565b92610611614732565b90606435918760018060a01b03809561062f8260a5541633146151dc565b169283825260209788966097885288842091165f528652865f2061065486825461498c565b9055865163a9059cbb60e01b81526001600160a01b03909316908301908152602081019490945290968793849291839160400190565b03925af19081156106d5575061069e578280f35b81813d83116106ce575b6106b281836149f6565b810103126106ca576106c390614a17565b505f808280f35b5080fd5b503d6106a8565b513d85823e3d90fd5b8280fd5b5090346106de57806003193601126106de5781356024356001600160a01b03818116918290036107df5760a8541633036107d0578147106107b5578480809381935af13d156107b0573d6001600160401b03811161079d57825190610751601f8201601f1916602001836149f6565b81528460203d92013e5b15610764578280f35b906020606492519162461bcd60e51b83528201526013602482015272115512081d1c985b9cd9995c8819985a5b1959606a1b6044820152fd5b604184634e487b7160e01b5f525260245ffd5b61075b565b825162461bcd60e51b8152806107cc818701614dd4565b0390fd5b505051630925c89960e31b8152fd5b8580fd5b508290346106ca5760203660031901126106ca576107ff614706565b6001600160a01b0381168352609a60205283832054929061081f90615111565b9160058402938085046005149015171561084457505060648351920482526020820152f35b634e487b7160e01b825260119052602490fd5b50346106de5760809081600319360112610b4557610873614706565b61087b61471c565b90610884614732565b6064356001600160a01b0381811694909291859003610b415788549560ff8760081c161596878098610b34575b8015610b1d575b15610ac35760ff1981166001178b5587610ab2575b5060ff8a5460081c1615610a5b57508290816001600160601b0360a01b95168560a854161760a855168360a454161760a455168160a554161760a55560a654161760a65560ff60a01b1960a9541660a955610a1183519261092d84614999565b605a8452610956602094606486820152606e878201526018196060820152603283820152615db5565b610987855161096481614999565b60508152605986820152607d878201526009196060820152602883820152615db5565b6109b6855161099581614999565b60468152604f86820152608c87820152876060820152601e83820152615db5565b6109e685516109c481614999565b603c815260458682015260a087820152600f6060820152601483820152615db5565b858551916109f383614999565b818352603b8684015260c887840152601e6060840152820152615db5565b662386f26fc1000060af55610a24578280f35b7f7f26b83ff96e1f2b6a682f133852f6798a09c465da95921460cefb38474024989161ff001984541684555160018152a15f808280f35b60849060208a519162461bcd60e51b8352820152602b60248201527f496e697469616c697a61626c653a20636f6e7472616374206973206e6f74206960448201526a6e697469616c697a696e6760a81b6064820152fd5b61ffff1916610101178a555f6108cd565b895162461bcd60e51b8152602081840152602e60248201527f496e697469616c697a61626c653a20636f6e747261637420697320616c72656160448201526d191e481a5b9a5d1a585b1a5e995960921b6064820152608490fd5b50303b1580156108b85750600160ff8216146108b8565b50600160ff8216106108b1565b5f80fd5b8380fd5b5050346106ca5760203660031901126106ca5760209181906001600160a01b03610b71614706565b1681526099845220549051908152f35b5050346106ca57816003193601126106ca5760b05490516001600160a01b039091168152602090f35b5050346106ca57816003193601126106ca5760a65490516001600160a01b039091168152602090f35b5050346106ca5760203660031901126106ca57602090610bf9610bf4614706565b61549d565b9051908152f35b5050346106ca5760203660031901126106ca57602090610c26610c21614706565b615b50565b15159051908152f35b5050346106ca57816003193601126106ca57602090517f742d8195bebb59905cedb6c02453745e9ef7090c163e7dea727ab0849b3dfc008152f35b5050346106ca57816003193601126106ca57602090517fa22cb6bd33c714cffaf72f196d1ebf87829cac5214f3ad84491fa8669ede7a6a8152f35b509134610ee7576020366003190112610ee757610cc0614706565b6001600160a01b038116825260b26020528282208351610cdf816149c8565b60a08254958683526001840154956020840191878352600286015490818187015260038701549260608701978489528c8101549560c060ff600660808c01948a86528c60058201549c8d9101520154169901981515988981528642105f14610ee05762015180610d4f428961498c565b049a5b849c81519062093a8091828101809111610ec957421180610ebf575b610e0c575b50505051151580610e02575b15610df557518151610d9091614a24565b5f19810192908311610de25750516101409c50610dac9161496e565b985b81519a8b5260208b01528901526060880152608087015260a086015260c085015260e0840152610100830152610120820152f35b634e487b7160e01b815260118e52602490fd5b50506101409b5098610dae565b5080511515610d7f565b610e18610e1d91615b50565b615c43565b6005811015610ea957865260b1602052600187872001549151908101809111610e9457610e4e62015180914261498c565b049081151580610e8b575b610e64575b80610d73565b612710929d5061016d91610e7c610e81928651614947565b614947565b04049a5f80610e5e565b50801515610e59565b508f856011602492634e487b7160e01b835252fd5b50508f856021602492634e487b7160e01b835252fd5b5083511515610d6e565b5050508f856011602492634e487b7160e01b835252fd5b839a610d52565b80fd5b50346106de5760203660031901126106de5735916005831015610ee75750610f13602092614930565b549051908152f35b5050346106ca57806003193601126106ca57602091610f38614706565b82610f4161471c565b6001600160a01b03928316845260978652922091165f908152908352819020549051908152f35b5050346106ca57816003193601126106ca57602090517fb438992c2c4c65322b65fd8e2dacea9efd63443e69e5ed52f4a77ed6c78f7c2a8152f35b61490e565b50346106de5760203660031901126106de57610fc2614706565b60a8546001600160a01b03939192919084163303610ff3575050166001600160601b0360a01b60a754161760a75580f35b51630925c89960e31b8152fd5b828434610ee75780600319360112610ee757815191829160a05480855260208095019460a083527f78fdc8d422c49ced035a9edf18d00d3c6a8d81df210f3e5e448e045e77b41e8892905b8282106110715761106d8686611063828b03836149f6565b5191829182614784565b0390f35b83546001600160a01b03168752958601956001938401939091019061104b565b5090346106de5760203660031901126106de576110ac614706565b60a85490926001600160a01b0392909183163303610ff35750508060a954921691826001600160601b0360a01b82161760a9558261110d575b167f7fc5e57c5215ef3b834df4680694bbed4808bf88ddc971b470cb8ef9365e63868380a380f35b6001600160a81b031981168317600160a01b1760a9556110e5565b5090346106de57602080600319360112610b4557611144614706565b61114d8161521e565b506111f7576001600160a01b0316808552609c82528285205490939060ff166111b65750828452609c8152818420805460ff19166001179055609d905282204290557f7f62ed89ea2c6fb057e4ea77729c1d3f18056339791fce29ac89760197b45b298280a280f35b915162461bcd60e51b815291820152601b60248201527f4c69717569646174696f6e20616c7265616479207374617274656400000000006044820152606490fd5b50905162461bcd60e51b8152918201526013602482015272506f736974696f6e206973206865616c74687960681b6044820152606490fd5b5090346106de5760203660031901126106de57813560a3549261125560ff851615614e8e565b60ff1993841660011760a35560a5546001600160a01b031633036112f2574782116112af575083808080938181156112a6575b3390f11561129b575060a3541660a35580f35b51913d9150823e3d90fd5b506108fc611288565b606490602084519162461bcd60e51b8352820152601d60248201527f496e73756666696369656e7420636f6e74726163742062616c616e63650000006044820152fd5b608490602084519162461bcd60e51b8352820152602260248201527f4f6e6c79206c656e64696e67206d616e616765722063616e2063616c6c207468604482015261697360f01b6064820152fd5b5090346106de57806003193601126106de5761135a614706565b60a854602435936001600160a01b039291831633036113bb5762015180851161138c575016835260ae60205282205580f35b606490602085519162461bcd60e51b83528201526009602482015268546f6f206c6172676560b81b6044820152fd5b8351630925c89960e31b8152fd5b5090346106de57806003193601126106de5761140491356113ff60016113ed61471c565b93838752606560205286200154615804565b615a77565b80f35b5050346106ca5760203660031901126106ca57602090610bf9610c21614706565b5050346106ca57816003193601126106ca5760a85490516001600160a01b039091168152602090f35b5050346106ca5760203660031901126106ca5760209181906001600160a01b03611479614706565b168152609b845220549051908152f35b509190346106ca5760603660031901126106ca5760a8548335919060243590604435906001600160a01b03163303611546576114c860aa548510614d26565b82518381018181106001600160401b03821117611533577f7543d68ffbde1802767cee31f14403e1b914f7249f14f2724e7398aa10de092395969750845282815260016020820183815287895260b1602052858920925183555191015582519182526020820152a280f35b604188634e487b7160e01b5f525260245ffd5b8251630925c89960e31b81528690fd5b5050346106ca57816003193601126106ca5760209060ff60a3541690519015158152f35b5050346106ca57816003193601126106ca5761106d906115986153da565b905191829182614784565b5050346106ca57816003193601126106ca5781908260a0545b8082106115cd576020848451908152f35b90926115fd6001916115de866147c8565b848060a01b0391549060031b1c168752609a6020528487205490614a24565b9301906115bc565b5050346106ca57816003193601126106ca5760a45490516001600160a01b039091168152602090f35b50346106de5760203660031901126106de57611648614706565b60a8546001600160a01b039190821633036116c0571691821561167d5750506001600160601b0360a01b60a554161760a55580f35b906020606492519162461bcd60e51b8352820152601f60248201527f496e76616c6964206c656e64696e67206d616e616765722061646472657373006044820152fd5b8351630925c89960e31b81528390fd5b5090602080600319360112610b455782359160a354936116f660ff8660081c1615614a31565b61170360ff861615614e8e565b60ff1994851660011760a355338652609a835281862054611ccd5761173061172a33615caf565b50615c43565b60058110159081611cba57828114611c805760a25460011c8611611c245761175781615aea565b8892919211611bd35761176933615111565b90606482029180830460641490151715611a02576117879089614947565b11611b825760b0546001600160a01b03908116939091908a9085611b61575b8b6117b1838c61498c565b9683158015611ac9575b50505050508660a254926117d460ac5460ad549061498c565b938c9481611a84575b505060a65416926024885180958193634fd41dad60e11b83528a8301525afa918215611a7a578a92611a4b575b50818a821215611a15575061181e906151cc565b9061271091820390828211611a02579061183791614947565b04925b600c87106119b05762278d00420180421161199d5789936118fa85946118e38960068c898f99819a829a8f875197611871896149c8565b83895286890190848252808a0192835260608a01938452600c60808b019504855260a08a01966101f4885260b260c08c019960018b52338352522098518955516001890155516002880155516003870155519085015551600584015551151591019060ff801983541691151516179055565b609a8a528a89852055609b8a524289852055614930565b6119058a8254614a24565b90556119138960ac54614a24565b60ac55818115611994575b3390f11561198a57907fac59582e5396aca512fa873a2047e7f4c80f8f55d4a06cb34a78a0187f62719f9291815190858252838201527f5660f932172e1664b98577a703dd9484d374b28e3bf8c87b345bee97af612412823392a2519283523392a260a3541660a35580f35b81513d87823e3d90fd5b506108fc61191e565b634e487b7160e01b8a526011825260248afd5b845162461bcd60e51b8152908101869052602660248201527f4c6f616e20616d6f756e7420746f6f20736d616c6c20666f7220616d6f7274696044820152653d30ba34b7b760d11b6064820152608490fd5b634e487b7160e01b8b526011865260248bfd5b94918a8213611a26575b505061183a565b9091945061271091820190818311611a025790611a4291614947565b04925f80611a1f565b9091508681813d8311611a73575b611a6381836149f6565b81010312610b415751905f61180a565b503d611a59565b86513d8c823e3d90fd5b9194509150670de0b6b3a764000090818102918183041490151715611ab6578891611aae9161496e565b925f806117dd565b634e487b7160e01b8c526011875260248cfd5b8285819382938390611b58575bf115611b4e57611b3b578651908152606088820152600b60608201526a37b934b3b4b730ba34b7b760a91b608082015283878201527f66aecc579aa1ef463c0ed1547c2cb6163370e6311a60cba815252acbb398f21360a03392a25f808b81806117bb565b634e487b7160e01b8b526021865260248bfd5b87513d8d823e3d90fd5b506108fc611ad6565b50505f838b5260b18852612710611b7b888d20548b614947565b04906117a6565b845162461bcd60e51b8152808501879052602560248201527f496e73756666696369656e7420636f6c6c61746572616c20666f722074686973604482015264103637b0b760d91b6064820152608490fd5b855162461bcd60e51b8152808601889052602560248201527f426f72726f7720616d6f756e74206578636565647320796f75722074696572206044820152641b1a5b5a5d60da1b6064820152608490fd5b835162461bcd60e51b8152808401869052603060248201527f426f72726f7720616d6f756e74206578636565647320617661696c61626c652060448201526f6c656e64696e6720636170616369747960801b6064820152608490fd5b835162461bcd60e51b815280840186905260146024820152734372656469742073636f726520746f6f206c6f7760601b6044820152606490fd5b634e487b7160e01b885260218352602488fd5b82606492519162461bcd60e51b8352820152601e60248201527f526570617920796f7572206578697374696e67206465627420666972737400006044820152fd5b5050346106ca57816003193601126106ca5760209060a2549051908152f35b50346106de57826003193601126106de5760a8546001600160a01b03163303611da2575060207f228f455d7bc3d0b24a3a08d7847f391c3e78fc8aeb83acf226b7a96ee162b8ac9160ff60a35461ff00828260081c161560081b169061ff00191617918260a355519160081c1615158152a180f35b9051630925c89960e31b8152fd5b5050346106ca57816003193601126106ca57602090517facd38b7c4e04b2b78fc2ca994eae1a3eb206005ffa4c11fcf4a9d81c94684b2d8152f35b5050346106ca5760203660031901126106ca5760209181906001600160a01b03611e13614706565b168152609d845220549051908152f35b5050346106ca57816003193601126106ca57602090516203f4808152f35b5050346106ca57816003193601126106ca576020905160828152f35b5050346106ca57816003193601126106ca5760209060ad549051908152f35b5050346106ca57816003193601126106ca576020905167011c37937e0800008152f35b5050346106ca57816003193601126106ca5760209060ac549051908152f35b5050346106ca5760203660031901126106ca5760209181906001600160a01b03611ee6614706565b168152609a845220549051908152f35b50346106de5760203660031901126106de573591609f54831015610ee75750611f20602092614811565b905491519160018060a01b039160031b1c168152f35b50346106de5760203660031901126106de5791819235815260b1602052206001815491015482519182526020820152f35b5050346106ca57816003193601126106ca5760209060ff60a35460081c1690519015158152f35b5050346106ca57816003193601126106ca5760a75490516001600160a01b039091168152602090f35b5050346106ca5760203660031901126106ca57602090611fd5614706565b505160508152f35b5050346106ca5760203660031901126106ca57606091906203f480906001600160a01b03612009614706565b168352609c6020528060ff818520541693609d6020522054815193151584526020840152820152f35b5090346106de57806003193601126106de5761204c614706565b6024359160018060a01b03809216938486526020926098845260ff83882054161561226457841561222c57338752609c845260ff83882054166121f45790849133885260a18552838820805460ff81161561218f575b505083516323b872dd60e01b815233928101928352306020840152604083019390935250909291908290849081906060015b038189895af1801561218557612131575b7ff1c0dd7e9b98bbff859029005ef89b127af049cd18df1a8d79f0b7e019911e56925084865260978252808620335f528252805f20612125858254614a24565b9055519283523392a380f35b8183813d831161217e575b61214681836149f6565b810103126107df576121787ff1c0dd7e9b98bbff859029005ef89b127af049cd18df1a8d79f0b7e019911e5693614a17565b506120e5565b503d61213c565b81513d88823e3d90fd5b60ff1916600117905560a05491925090600160401b8110156121e1578493926120d495926121c48360018a950160a0556147c8565b819291549060031b9133831b921b191617905591948193946120a2565b604183634e487b7160e01b5f525260245ffd5b50816107cc92515f80516020615eaf83398151915233918061221581614e03565b0390a25162461bcd60e51b81529182918201614e03565b50816107cc92515f80516020615eaf83398151915233918061224d816153ad565b0390a25162461bcd60e51b815291829182016153ad565b50816107cc92515f80516020615eaf83398151915233918061228581614da8565b0390a25162461bcd60e51b81529182918201614da8565b50346106de57816003193601126106de576122b5614706565b6024359060a354936122cd60ff8660081c1615614a31565b6122da60ff861615614e8e565b60ff1994851660011760a35582156125255760018060a01b0382169384875260209260978452828820335f52845284835f2054106124e357338852609a845282882054859291816123f9575b50509280929161237894878a5260978352838a20335f528352835f2061234d83825461498c565b9055835163a9059cbb60e01b8152339181019182526020820192909252909485918291604090910190565b03818a895af180156123ef576123aa575b5f80516020615e8f8339815191529250519283523392a360a3541660a35580f35b8183813d83116123e8575b6123bf81836149f6565b810103126123e4576123de5f80516020615e8f83398151915293614a17565b50612389565b8680fd5b503d6123b5565b81513d89823e3d90fd5b61246e91929350612438670de0b6b3a764000091898c5260978852868c20335f52885261243261242c8a895f205461498c565b9161549d565b90614947565b0491612446610e1833615b50565b606461246861245f61245a610e1833615b50565b615aea565b50503394614947565b04615553565b1161247c5783905f80612326565b82608492519162461bcd60e51b8352820152603b60248201527f5769746864726177616c20776f756c642076696f6c61746520746965722d626160448201527f73656420636f6c6c61746572616c20726571756972656d656e747300000000006064820152fd5b5082606492519162461bcd60e51b8352820152601760248201527f496e73756666696369656e7420636f6c6c61746572616c0000000000000000006044820152fd5b5162461bcd60e51b8152806107cc8186016153ad565b5050346106ca57816003193601126106ca5751908152602090f35b5050346106ca57816003193601126106ca5760a55490516001600160a01b039091168152602090f35b5050346106ca5760203660031901126106ca57602090610bf96125a0614706565b615361565b5050346106ca57816003193601126106ca576020905160058152f35b614769565b5090346106de57806003193601126106de576125e0614706565b60a85460243592916001600160a01b0391821633036126fd57169283156126bb57308414612681576064831161264a57507f4afae6838a181695abc7978598380d73bc2144eb38580c130f86e4b1e6531e159160209184865260998352818187205551908152a280f35b6020606492519162461bcd60e51b8352820152601260248201527153636f7265206f7574206f662072616e676560701b6044820152fd5b6020606492519162461bcd60e51b8352820152601560248201527424b73b30b634b21030b2323932b9b99d1039b2b63360591b6044820152fd5b6020606492519162461bcd60e51b8352820152601d60248201527f496e76616c696420616464726573733a207a65726f20616464726573730000006044820152fd5b8251630925c89960e31b81528590fd5b5050346106ca57816003193601126106ca57602090517f96737339a958f216173e690d06f324072e6dc3146e04c060bd723906d6b190768152f35b5050346106ca57806003193601126106ca57602090610bf9612768614706565b61277061471c565b90615294565b5050346106ca5760203660031901126106ca5760209160ff9082906001600160a01b036127a1614706565b16815260a1855220541690519015158152f35b509134610ee7576020366003190112610ee7576127cf614706565b6127e761245a610e186127e184615111565b93615b50565b9260508082029350811591840414171590506128205760209450606490049150808210156128185750905b51908152f35b905090612812565b634e487b7160e01b835260118552602483fd5b50346106de57816003193601126106de578160209361285061471c565b9235815260658552209060018060a01b03165f52825260ff815f20541690519015158152f35b828434610ee7576020366003190112610ee7575061289a612895614706565b61521e565b825191151582526020820152f35b5050346106ca57816003193601126106ca576020905166b1a2bc2ec500008152f35b5050346106ca57816003193601126106ca57602090517fce802e42c93d0fbd61dfc706a0e806b78ac046397e07510da2f223464e4788e08152f35b5050346106ca57816003193601126106ca5760209060af549051908152f35b5050346106ca57816003193601126106ca57602090517f0e0e24c52bc4f24612e3f568966757426acd82325205933a9270e1ce7c4d93c28152f35b5050346106ca57806003193601126106ca576129f0906129db6129d6610e18612986614706565b866024359560018060a01b036129a18160a5541633146151dc565b83168252609a6020528181812055609b6020528181812055609c60205280822060ff198154169055609d602052812055615b50565b614930565b6129e682825461498c565b905560ad54614a24565b60ad5580f35b50346106de57816003193601126106de57612a0f614706565b91612a1861471c565b60a85490936001600160a01b0393909184163303612a69575082168085526098602052612a4a60ff83872054166150c5565b8452609e602052832091166001600160601b0360a01b82541617905580f35b8251630925c89960e31b8152fd5b50346106de5760203660031901126106de5760e09282906001600160a01b03612a9e614706565b16815260b26020522080549260018201549260028301546003840154918401549260ff600660058701549601541695815197885260208801528601526060850152608084015260a0830152151560c0820152f35b5050346106ca5760203660031901126106ca5760209160ff9082906001600160a01b03612b1d614706565b1681526098855220541690519015158152f35b5090346106de5760209283600319360112610ee757612b4d614706565b9260a254612b6060ac5460ad549061498c565b8115612cc157670de0b6b3a764000090818102918183041490151715612cae5790612b8a9161496e565b935b60a6548451634fd41dad60e11b8152838101969096528690869060249082906001600160a01b03165afa948515612ca4578395612c73575b50610e18612bd191615b50565b6005811015612c6057612be56003916148d5565b500154849083811215612c2357612c009192939495506151cc565b926127109384039284841161084457505090612c1b91614947565b049051908152f35b92808413612c35575b50505050612812565b9091929394506127109384019283851161084457505090612c5591614947565b04905f808080612c2c565b634e487b7160e01b835260218252602483fd5b9094508581813d8311612c9d575b612c8b81836149f6565b81010312610b41575193610e18612bc4565b503d612c81565b84513d85823e3d90fd5b634e487b7160e01b845260118352602484fd5b50508193612b8c565b5090346106de5760203660031901126106de5781359260aa54841015610ee75750612cf660a0936148d5565b508054926001820154926002830154916003840154930154938151958652602086015284015260608301526080820152f35b50346106de5760203660031901126106de57612d42614706565b60a85491906001600160a01b03908184163303612da95716928315612d745750506001600160a01b0319161760a85580f35b906020606492519162461bcd60e51b8352820152600f60248201526e496e76616c6964206164647265737360881b6044820152fd5b8451630925c89960e31b81528390fd5b509190346106ca57612dca36614846565b505060609160b354603c8101809111612f8057612de8904211614eca565b8151809160a05480835283602080940160a084527f78fdc8d422c49ced035a9edf18d00d3c6a8d81df210f3e5e448e045e77b41e8892845b86828210612f6157505050612e37925003846149f6565b612e41835161519a565b938193825b8151811015612ecc576001600160a01b03612e618284614a72565b5116808552609c865260ff8486205416612e7f575b50600101612e46565b609d8652838520546203f4808101809111612eb9574210612e765786612eb291612eac600194998b614a72565b52614a86565b9590612e76565b634e487b7160e01b865260118b52602486fd5b5084905085878215612f555750612ee28261519a565b935b828110612f2d5750505061106d90612f08612f166001948351928391888301614784565b03601f1981018352826149f6565b905b808051958695151586528501528301906148b0565b6001906001600160a01b03612f428285614a72565b5116612f4e8288614a72565b5201612ee4565b91505061106d91612f18565b85546001600160a01b0316845260019586019589955093019201612e20565b634e487b7160e01b825260118552602482fd5b5050346106ca5760203660031901126106ca57602090610bf9612fb4614706565b615111565b5050346106ca57816003193601126106ca5760209060ff60a95460a01c1690519015158152f35b5050346106ca5760203660031901126106ca5760209181906001600160a01b03613008614706565b16815260ae845220549051908152f35b5050346106ca5760203660031901126106ca57606091613036614706565b918060018060a01b03841692838152609a6020526130578282205495615111565b938152609b60205220549181519384526020840152820152f35b5050346106ca57816003193601126106ca5760209051600a8152f35b5050346106ca57816003193601126106ca5760209051603c8152f35b5050346106ca5760203660031901126106ca576020916001600160a01b03908290826130d3614706565b16808252609886526130ea60ff84842054166150c5565b8152609e85522054169051908152f35b5050346106ca57816003193601126106ca57602090516103848152f35b5050346106ca57816003193601126106ca57602090516276a7008152f35b5050346106ca57816003193601126106ca5751600a47048152602090f35b5090346106de57806003193601126106de5761316d614706565b906024359182151592838103610b415760a8546001600160a01b039290831633036132a55782169485875260986020526131b5828589209060ff801983541691151516179055565b609f549187805b84811061327b575b5081613272575b50613201575b5050507f15f5cc64ca777db85f6c05fdba671568758b38329616d4d4b43bb8b092fe9a8d9160209151908152a280f35b600160401b82101561325f5750917f15f5cc64ca777db85f6c05fdba671568758b38329616d4d4b43bb8b092fe9a8d939161324484600160209601609f55614811565b819291549060031b9188831b921b19161790559181936131d1565b604190634e487b7160e01b5f525260245ffd5b9050155f6131cb565b888661328683614811565b90549060031b1c161461329b576001016131bc565b505060015f6131c4565b8351630925c89960e31b81528690fd5b5050346106ca57806003193601126106ca576020916132d2614706565b906001600160a01b03908390826132e761471c565b168152609786522091165f528252805f20549051908152f35b5050346106ca5760203660031901126106ca57606090613326613321614706565b614fc8565b919290815193151584526020840152820152f35b5050346106ca5760203660031901126106ca5760209061336a613361610e18610c21614706565b91518092614748565bf35b5050346106ca57816003193601126106ca57602090610bf9614f20565b5050346106ca57816003193601126106ca57602090517f430b074324c1d9f1ce97c9e9efd8cc6b779c8a501b53808a5cafe19682f95dd58152f35b50346106de576133d336614846565b60b393919354603c8101809111613569576133ef904211614eca565b4260b35583019260209081818603126107df578035906001600160401b0382116123e457019380601f860112156107df57843561342b81614f09565b95613438855197886149f6565b818752838088019260051b820101928311613565578301905b82821061354657505050845b8451811015613542576001600160a01b03806134798388614a72565b511690818852609c845260ff8589205416613499575b505060010161345d565b609d8452848820546203f480810180911161352f57908892914210156134c0575b5061348f565b60a55416803b156106de57855163bcebb1d760e01b8152308882019081526001600160a01b039093166020840152918391839182908490829060400103925af1801561352557613511575b806134ba565b61351a906149e3565b6107df57855f61350b565b85513d84823e3d90fd5b634e487b7160e01b895260118752602489fd5b8580f35b81356001600160a01b0381168103610b41578152908301908301613451565b8780fd5b634e487b7160e01b865260118452602486fd5b5050346106ca57816003193601126106ca5780602092338152609a845220549051908152f35b5050346106ca57816003193601126106ca57602090517f5fef09193e4e8110de1cc5ba269e889a5fb9093ba33c4df4b67dc2eaa1ca1fff8152f35b5050346106ca57816003193601126106ca5760a354905160109190911c6001600160a01b03168152602090f35b505f366003190112610b415760a3549161362a60ff8460081c1615614a31565b61363760ff841615614e8e565b600160ff198094161760a355335f52602090609a8252805f205480156138055734156137d3578086913411805f146137cc5781955b335f52609a8652845f2061368188825461498c565b905561368f8760ad54614a24565b60ad556136a16129d6610e1833615b50565b6136ac88825461498c565b9055335f52609c8652845f2088815460ff81166137b8575b505060a7546001600160a01b0316905080613744575b5050613717575b5050907f0516911bcc3a0a7412a44601057c0a0a1ec628bde049a84284bc42886653448891519283523392a260a3541660a35580f35b818061372481933461498c565b81811561373b575b3390f1156106d557845f6136e1565b506108fc61372c565b8091929394503b15610b415784516340c10f1960e01b815233928101928352662386f26fc1000088046020840152915f91839182908490829060400103925af180156137ae57613799575b90818893926136da565b6137a5919297506149e3565b5f95905f61378f565b84513d5f823e3d90fd5b169055609d86525f858120555f88816136c4565b349561366c565b505162461bcd60e51b815291820152600d60248201526c09aeae6e840e6cadcc8408aa89609b1b604482015260649150fd5b505162461bcd60e51b815291820152601060248201526f4e6f206465627420746f20726570617960801b604482015260649150fd5b8234610b41575f366003190112610b415760209060b3549051908152f35b8234610b41576020366003190112610b415760609061387e61245a610e18610c21614706565b91929081519384526020840152820152f35b5034610b41576020366003190112610b4157359060a054821015610b4157611f206020926147c8565b5034610b415781600319360112610b41576138d261471c565b90336001600160a01b038316036138f0576138ee925035615a77565b005b608490602084519162461bcd60e51b8352820152602f60248201527f416363657373436f6e74726f6c3a2063616e206f6e6c792072656e6f756e636560448201526e103937b632b9903337b91039b2b63360891b6064820152fd5b509034610b41576020366003190112610b415760a8546001600160a01b03163303610ff357503560af55005b8234610b41575f366003190112610b4157602090517ffed613f2d4bec2209ff904769fa3c094c155ec5048c0bb2e17f16e523671ca2c8152f35b509034610b415780600319360112610b41576139cb614706565b6024359160018060a01b039384831694855f526020936098855260ff845f20541615613c1f57865f5260978552835f20335f52855285845f205410613be757335f52609c855260ff845f205416613bc657613a4b90670de0b6b3a7640000613a44613a3e613a3833615111565b9361549d565b89614947565b049061498c565b90606482029180830460641490151715613bb357602490335f52609a865285855f20549160a45416865193848092631ee1b90b60e21b82528c898301525afa908115613ba9575f91613b78575b613aa29250614947565b11613b4157908284613acc9493875f5260978352835f20335f528352835f2061234d83825461498c565b03815f895af18015613b3757613af6575b5f80516020615e8f8339815191529250519283523392a3005b8183813d8311613b30575b613b0b81836149f6565b81010312610b4157613b2a5f80516020615e8f83398151915293614a17565b50613add565b503d613b01565b50513d5f823e3d90fd5b816107cc92515f80516020615eaf833981519152339180613b6181614e3b565b0390a25162461bcd60e51b81529182918201614e3b565b90508582813d8311613ba2575b613b8f81836149f6565b81010312610b4157613aa2915190613a98565b503d613b85565b85513d5f823e3d90fd5b601183634e487b7160e01b5f525260245ffd5b6107cc838580515f80516020615eaf83398151915233918061221581614e03565b6107cc838580515f80516020615eaf833981519152339180613c0881614dd4565b0390a25162461bcd60e51b81529182918201614dd4565b6107cc838580515f80516020615eaf83398151915233918061228581614da8565b5034610b41576020366003190112610b415760e091613c5d614706565b5f60c08351613c6b816149c8565b82815282602082015282858201528260608201528260808201528260a0820152015260018060a01b03165f5260b2602052805f20815191613cab836149c8565b81549384845260018301549160208501928352600284015481860190815260038501549260608701938452850154936080870194855260c060ff600660058901549860a08b01998a5201541697019615158752825197885251602088015251908601525160608501525160808401525160a083015251151560c0820152f35b509034610b415760c0366003190112610b415760a854823592906001600160a01b03163303611da25750613d9d6138ee92613d6860aa548210614d26565b825192613d7484614999565b6024358452604435602085015260643590840152608435606084015260a43560808401526148d5565b90614d61565b5034610b415781600319360112610b41573590613dbe61471c565b90825f526065602052613dd66001825f200154615804565b825f526065602052805f209160018060a01b031691825f5260205260ff815f20541615613dff57005b825f526065602052805f20825f526020525f20600160ff1982541617905533917f2f8788117e7eff1d82e926ec794901d17c78024a50270940304540a733656f0d5f80a4005b5034610b41576020366003190112610b415735906001600160401b0382168203610b4157610bf9602092614cd6565b8234610b41575f366003190112610b41578051609f80548083525f918252602080840194927f0bc14066c33013fe88f66e314e4cf150b0b2d4d6451a1a51dbbd1c27cd11de2892915b828210613ed55761106d8686611063828b03836149f6565b83546001600160a01b031687529586019560019384019390910190613ebd565b509034610b41576020366003190112610b4157602091355f52606582526001815f2001549051908152f35b34610b41575f366003190112610b41576138ee614a94565b50905f366003190112610b4157613f5760ff60a35460081c1615614a31565b335f52602060b28152815f20600681019360ff855416156141b5578082019182549283341061417257600382019182548042106141435762093a8081018091116141305780421161406b575b50906001613fda920194613fb881875461498c565b8655335f52609a8752613fcf885f2091825461498c565b90555460ad54614a24565b60ad5580549162278d0083018093116140585750907fd3cf6d8c55fed98c7b9f9d18d95a51dbdb316503bb854fc1f676c8974cb10f4f9291555492838151933485528401523392a21561402957005b805460ff19169055337f59bd56f70adeefb0cd83dca0f34f066bed6ee442068f3d07b5fc974b944d5aa65f80a2005b601190634e487b7160e01b5f525260245ffd5b614077610e1833615b50565b600581101561411d5791600191613fda94935f5260b18952620151806140a3848c5f200154924261498c565b0480151580614114575b6140bc575b5050919250613fa3565b6140e161271061016d6140d887870194610e7c86549788614947565b04048093614a24565b905589519081527fce0d6b567089a0bce35e0693cdb625006f0cf915f9f3686bb0343bc2c667c1b2893392a28a806140b2565b508115156140ad565b602186634e487b7160e01b5f525260245ffd5b601185634e487b7160e01b5f525260245ffd5b875162461bcd60e51b81528086018890526009602482015268546f6f206561726c7960b81b6044820152606490fd5b855162461bcd60e51b8152808401869052601860248201527f496e73756666696369656e7420696e7374616c6c6d656e7400000000000000006044820152606490fd5b835162461bcd60e51b8152908101839052600e60248201526d27379030b1ba34bb32903637b0b760911b6044820152606490fd5b8234610b41576020366003190112610b41576020906001600160a01b038061420f614706565b165f52609e8352815f2054169051908152f35b8234610b41575f366003190112610b4157602090517f8b473ac3e35dc431c1dba0191b7615ccaca6bfeb14f9573dcaae9e614fbe8b208152f35b5034610b41576020366003190112610b4157614276614706565b60a8546001600160a01b039190821633036116c057169182156142cc5760b080546001600160a01b03191684179055827f279ea638680bba6a87fddd8bcdbc37d94eee92841e1dfec2ab0f79662c7093115f80a2005b906020606492519162461bcd60e51b8352820152601760248201527f496e76616c6964207265736572766520616464726573730000000000000000006044820152fd5b509034610b41576020366003190112610b4157813591821515809303610b415760a8546001600160a01b03163303611da25760a9805460ff60a01b191660a085901b60ff60a01b1617905581518381527fb01450010edba5be11857fe89630b2ff764d237a9f9f77ab651643effd86998890602090a1005b8234610b41575f366003190112610b415760209051600a8152f35b8234610b41575f366003190112610b415760209051610e108152f35b8234610b41576020366003190112610b4157602090610bf9612fb4614706565b509034610b415780600319360112610b41576143f8614706565b9160243590335f52602093609c855260ff845f205416156144da5783516323b872dd60e01b815233928101928352306020840152604083018490526001600160a01b039091169185908290819060600103815f865af180156137ae576144a6575b505f5260978352815f20335f528352614476825f20918254614a24565b90556144813361521e565b5061448857005b335f908152609c8352818120805460ff19169055609d909252812055005b8481813d83116144d3575b6144bb81836149f6565b81010312610b41576144cc90614a17565b5084614459565b503d6144b1565b835162461bcd60e51b8152808301869052601a60248201527f4163636f756e74206e6f7420696e206c69717569646174696f6e0000000000006044820152606490fd5b509034610b41576020366003190112610b4157614538614706565b91614545610e1884615b50565b9161455561245a610e1886615b50565b50506001600160a01b0385165f908152609a602052829020549490929085156145e05761458990856064612468878a614947565b9060648202918083046064149015171561405857506080946145aa9161496e565b90818311156145da576145bd828461498c565b925b6145cb82518096614748565b60208501528301526060820152f35b5f6145bd565b50506080935081905f926145bf565b8234610b41576020366003190112610b41576020906001600160a01b03614614614706565b165f52609c825260ff815f20541690519015158152f35b8234610b41575f366003190112610b415760a95490516001600160a01b039091168152602090f35b5034610b41576020366003190112610b41573563ffffffff60e01b8116809103610b4157602091637965db0b60e01b8214918215614695575b50519015158152f35b6301ffc9a760e01b1491508361468c565b8234610b41576020366003190112610b41576146c0614706565b60a8549092906001600160a01b031633036146fa5760a3805462010000600160b01b031916601085901b62010000600160b01b0316179055005b630925c89960e31b8152fd5b600435906001600160a01b0382168203610b4157565b602435906001600160a01b0382168203610b4157565b604435906001600160a01b0382168203610b4157565b9060058210156147555752565b634e487b7160e01b5f52602160045260245ffd5b34610b41575f366003190112610b4157602047604051908152f35b60209060206040818301928281528551809452019301915f5b8281106147ab575050505090565b83516001600160a01b03168552938101939281019260010161479d565b60a0548110156147fd5760a05f527f78fdc8d422c49ced035a9edf18d00d3c6a8d81df210f3e5e448e045e77b41e8801905f90565b634e487b7160e01b5f52603260045260245ffd5b609f548110156147fd57609f5f527f0bc14066c33013fe88f66e314e4cf150b0b2d4d6451a1a51dbbd1c27cd11de2801905f90565b906020600319830112610b41576004356001600160401b0392838211610b415780602383011215610b41578160040135938411610b415760248483010111610b41576024019190565b5f5b8381106148a05750505f910152565b8181015183820152602001614891565b906020916148c98151809281855285808601910161488f565b601f01601f1916010190565b60aa548110156147fd5760059060aa5f52027f550d3de95be0bd28a79c3eb4ea7f05692c60b0602e48b49461e703379b08a71a01905f90565b34610b41575f366003190112610b41576020604051670de0b6b3a76400008152f35b6005811015614755575f5260ab60205260405f2090565b8181029291811591840414171561495a57565b634e487b7160e01b5f52601160045260245ffd5b8115614978570490565b634e487b7160e01b5f52601260045260245ffd5b9190820391821161495a57565b60a081019081106001600160401b038211176149b457604052565b634e487b7160e01b5f52604160045260245ffd5b60e081019081106001600160401b038211176149b457604052565b6001600160401b0381116149b457604052565b90601f801991011681019081106001600160401b038211176149b457604052565b51908115158203610b4157565b9190820180921161495a57565b15614a3857565b60405162461bcd60e51b815260206004820152601260248201527110dbdb9d1c9858dd081a5cc81c185d5cd95960721b6044820152606490fd5b80518210156147fd5760209160051b010190565b5f19811461495a5760010190565b614a9c6153da565b5f5b8151811015614b3e576001600160a01b0380614aba8385614a72565b511690815f52602091609e8352604091825f205416614adf575b505050600101614a9e565b614af6614aee610e109261568b565b90504261498c565b11614b015780614ad4565b60a3805461ff00191661010017905551600181527f228f455d7bc3d0b24a3a08d7847f391c3e78fc8aeb83acf226b7a96ee162b8ac9350909150a1565b505060a2548015159081614c9f575b50614b845760a05460a5545f91906001600160a01b03908116835b838110614bea575050508015159182614bc0575b5050614b8457565b61010061ff001960a354161760a3557f228f455d7bc3d0b24a3a08d7847f391c3e78fc8aeb83acf226b7a96ee162b8ac602060405160018152a1565b90915060648102908082046064149015171561495a57600591614be29161496e565b115f80614b7c565b614bf3816147c8565b905460408051632cf5889360e01b815230600482015260039390931b9190911c85166001600160a01b031660248301529060208082604481885afa928315614c9657505f92614c60575b5050614c4c575b600101614b68565b93614c58600191614a86565b949050614c44565b90809250813d8311614c8f575b614c7781836149f6565b81010312610b4157614c8890614a17565b5f80614c3d565b503d614c6d565b513d5f823e3d90fd5b9050614cb060ac5460ad549061498c565b60648102908082046064149015171561495a57605f91614ccf9161496e565b115f614b4d565b6001600160401b0380911661012c811115614d2057610352811015614d195761012b190181811161495a57811660640280821690810361495a5761022690041690565b5050606490565b50505f90565b15614d2d57565b60405162461bcd60e51b815260206004820152600c60248201526b24b73b30b634b2103a34b2b960a11b6044820152606490fd5b9190614d95576080816004925184556020810151600185015560408101516002850155606081015160038501550151910155565b634e487b7160e01b5f525f60045260245ffd5b606090602081526011602082015270151bdad95b881b9bdd08185b1b1bddd959607a1b60408201520190565b606090602081526014602082015273496e73756666696369656e742062616c616e636560601b60408201520190565b60609060208152601960208201527f4163636f756e7420697320696e206c69717569646174696f6e0000000000000060408201520190565b60809060208152603260208201527f5769746864726177616c20776f756c64206d616b6520706f736974696f6e20756040820152711b99195c98dbdb1b185d195c985b1a5e995960721b60608201520190565b15614e9557565b60405162461bcd60e51b815260206004820152600d60248201526c4e6f207265656e7472616e637960981b6044820152606490fd5b15614ed157565b60405162461bcd60e51b815260206004820152601060248201526f155c1ad9595c081d1a1c9bdd1d1b195960821b6044820152606490fd5b6001600160401b0381116149b45760051b60200190565b60a2548015614f91575f905f60a0545b808210614f5857505060648202918083046064149015171561495a57614f559161496e565b90565b9092614f89600191614f69866147c8565b848060a01b0391549060031b1c165f52609a60205260405f205490614a24565b930190614f30565b505f90565b90816060910312610b415780516001600160401b0381168103610b4157916040614fc260208401614a17565b92015190565b60a9549060ff8260a01c161580156150b4575b6150aa5760405163d3dd2bdf60e01b81526001600160a01b0391821660048201529160609183916024918391165afa5f918291829181615076575b50615027575b5050505f905f905f90565b80615064575b8061504e575b61503d578061501c565b61504690614cd6565b916001929190565b506276a700820180831161495a57421115615033565b506001600160401b038116151561502d565b9150925061509c915060603d6060116150a3575b61509481836149f6565b810190614f96565b925f615016565b503d61508a565b50505f905f905f90565b506001600160a01b03821615614fdb565b156150cc57565b60405162461bcd60e51b815260206004820152601f60248201527f546f6b656e206e6f7420616c6c6f77656420617320636f6c6c61746572616c006044820152606490fd5b905f9161511c6153da565b925f5b8451811015615194576001600160a01b038061513b8388614a72565b511690815f5260209060978252604091825f209187165f52525f20549081615168575b505060010161511f565b92670de0b6b3a764000061518561518c936124326001969761549d565b0490614a24565b91905f61515e565b50925050565b906151a482614f09565b6151b160405191826149f6565b82815280926151c2601f1991614f09565b0190602036910137565b600160ff1b811461495a575f0390565b156151e357565b60405162461bcd60e51b815260206004820152601360248201527227b7363c902632b73234b733a6b0b730b3b2b960691b6044820152606490fd5b9061522882615111565b6001600160a01b0383165f908152609a602052604090205492831561528857811561527e5761245a610e1861525c92615b50565b5050926064820291820460640361495a576152769161496e565b918210159190565b505090505f905f90565b50600192505f19919050565b91909160018060a01b038084165f52609760205260405f209082165f5260205260405f205492609a60205260405f205490811561535c576152d49061549d565b90615318670de0b6b3a764000093846152ed8589614947565b04926064612468615300610e1885615b50565b9261531061245a610e1887615b50565b505090614947565b9081811115615353579061532b9161498c565b82810292818404149015171561495a576153449161496e565b9180831161534f5750565b9150565b505f9450505050565b505050565b6001600160a01b0381165f908152609a60205260409020549081156153a65761538990615111565b9060648202918083046064149015171561495a57614f559161496e565b50505f1990565b6060906020815260126020820152710416d6f756e74206d757374206265203e20360741b60408201520190565b609f545f805b82811061545557506153f19061519a565b905f805b8281106154025750505090565b61540b81614811565b905460039190911b1c6001600160a01b03165f8181526098602052604090205460ff1661543c575b506001016153f5565b8261544e91612eac6001949588614a72565b9190615433565b61545e81614811565b60018060a01b0391549060031b1c165f52609860205260ff60405f205416615489575b6001016153e0565b90615495600191614a86565b919050615481565b600460206154aa8361568b565b509260018060a01b038091165f52609e825260405f2054166040519283809263313ce56760e01b82525afa8015615548575f9061550b575b60ff91501660120360ff811161495a5760ff1690604d821161495a57614f5591600a0a90614947565b506020813d602011615540575b81615525602093836149f6565b81010312610b41575160ff81168103610b415760ff906154e2565b3d9150615518565b6040513d5f823e3d90fd5b9161555d90615b50565b90600581101561475557615570816148d5565b50508061559d5750605f11156155835790565b605f810290808204605f149015171561495a576064900490565b600181036155d45750605581106155c95750605a810290808204605a149015171561495a576064900490565b605211156155835790565b600281036156215750604b8110615600575060558102908082046055149015171561495a576064900490565b604811614f5557605c810290808204605c149015171561495a576064900490565b60031461562c575090565b6041811061564f575060508102908082046050149015171561495a576064900490565b603e111561565a5790565b605a810290808204605a149015171561495a576064900490565b519069ffffffffffffffffffff82168203610b4157565b9060018060a01b03918281165f52609e602052604092835f20541680156157cb579260a0600494825195868092633fabe5a360e21b82525afa8015613b37575f80935f965f93615771575b506156ea6156e4884261498c565b91615dda565b1061573f5769ffffffffffffffffffff80911691161061570957509190565b5162461bcd60e51b815260206004820152601060248201526f5374616c6520726f756e64206461746160801b6044820152606490fd5b825162461bcd60e51b815260206004820152600b60248201526a5374616c6520707269636560a81b6044820152606490fd5b94509550505060a0823d60a0116157c3575b8161579060a093836149f6565b81010312610b41576157a182615674565b9360208301516157b8608060608601519501615674565b95909395915f6156d6565b3d9150615783565b835162461bcd60e51b8152602060048201526012602482015271141c9a58d94819995959081b9bdd081cd95d60721b6044820152606490fd5b805f52602060658152604091825f20335f52825260ff835f2054161561582957505050565b3383519160608301906001600160401b0391848110838211176149b4578652602a845284840190863683378451156147fd5760308253845193600194600110156147fd576078602187015360295b858111615a3657506159f45786519260808401908111848210176149b4578752604283528583019360603686378351156147fd57603085538351600110156147fd57607860218501536041905b8082116159b157505061596f576107cc9386936159539361594460489461591b9a519a8b957f416363657373436f6e74726f6c3a206163636f756e74200000000000000000008c880152518092603788019061488f565b8401917001034b99036b4b9b9b4b733903937b6329607d1b60378401525180938684019061488f565b010360288101875201856149f6565b5192839262461bcd60e51b8452600484015260248301906148b0565b60648587519062461bcd60e51b825280600483015260248201527f537472696e67733a20686578206c656e67746820696e73756666696369656e746044820152fd5b9091600f811660108110156147fd576f181899199a1a9b1b9c1cb0b131b232b360811b901a6159e08487615e7d565b5360041c91801561495a575f1901906158c4565b60648688519062461bcd60e51b825280600483015260248201527f537472696e67733a20686578206c656e67746820696e73756666696369656e746044820152fd5b90600f811660108110156147fd576f181899199a1a9b1b9c1cb0b131b232b360811b901a615a648389615e7d565b5360041c90801561495a575f1901615877565b90815f52606560205260405f209060018060a01b031690815f5260205260ff60405f205416615aa4575050565b815f52606560205260405f20815f5260205260405f2060ff19815416905533917ff6391f5c32d9c69d2a47ea670b442974b53935d1edc7fd64eb21e047a839171b5f80a4565b600581101561475557615afc906148d5565b509060405190615b0b82614999565b82548252600183015460208301526064615b49608060028601549485604082015260046003880154978860608401520154918291015260a254614947565b0491929190565b60a95460ff8160a01c1680615c31575b615b80575b506001600160a01b03165f9081526099602052604090205490565b60405163d3dd2bdf60e01b81526001600160a01b038381166004830152909160609183916024918391165afa5f91815f915f93615c0c575b50615bc5575b5050615b65565b80615bfa575b615bd6575b80615bbe565b6276a700810180911161495a57421115615bf05780615bd0565b614f559150614cd6565b506001600160401b0382161515615bcb565b91509250615c29915060603d6060116150a35761509481836149f6565b91925f615bb8565b506001600160a01b0381161515615b60565b60aa54905f5b828110615c695750505f19810190811161495a5760058110156147555790565b615c72816148d5565b505482101580615c98575b615c8957600101615c49565b91505060058110156147555790565b506001615ca4826148d5565b500154821115615c7d565b60a95460ff8160a01c1680615da3575b615ce3575b506001600160a01b03165f908152609960205260409020549081151590565b60405163d3dd2bdf60e01b81526001600160a01b038381166004830152909160609183916024918391165afa5f918291829181615d7b575b50615d28575b5050615cc4565b81615d68575b81615d50575b50615d40578080615d21565b615d4a9150614cd6565b90600190565b90506276a700810180911161495a574211155f615d34565b6001600160401b03831615159150615d2e565b91509250615d98915060603d6060116150a35761509481836149f6565b91929091905f615d1b565b506001600160a01b0381161515615cbf565b60aa5490600160401b8210156149b457613d9d826001615dd8940160aa556148d5565b565b6001600160a01b039081165f81815260ae602052604090205490919080615e77575060209060a4541691602460405180948193631a650cc760e01b835260048301525afa908115615548575f91615e3d575b50615e375761038490565b610e1090565b90506020813d602011615e6f575b81615e58602093836149f6565b81010312610b4157615e6990614a17565b5f615e2c565b3d9150615e4b565b91505090565b9081518110156147fd57016020019056fe45892a46e6cef329bb642da6d69846d324db43d19008edc141ed82382eda1bee3c364b9decdac59fbe037e99687219ac0feed46572bfbcbd5284b6b8e67f402da2646970667358221220fb6dea78874217152c57d1c31f54a936dad18370b222418bb219961391b0eea664736f6c63430008180033",
  "linkReferences": {},
  "deployedLinkReferences": {}
}