{
  "_format": "hh-sol-artifact-1",
  "contractName": "MockRiscZeroVerifier",
  "sourceName": "backend/contracts/MockRiscZeroVerifier.sol",
  "abi": [
    {
      "anonymous": false,
      "inputs": [
        {
          "indexed": true,
          "internalType": "bytes32",
          "name": "imageId",
          "type": "bytes32"
        },
        {
          "indexed": true,
          "internalType": "bytes32",
          "name": "journalDigest",
          "type": "bytes32"
        },
        {
          "indexed": false,
          "internalType": "bool",
          "name": "success",
          "type": "bool"
        }
      ],
      "name": "ProofVerificationAttempted",
      "type": "event"
    },
    {
      "inputs": [],
      "name": "isMockVerifier",
      "outputs": [
        {
          "internalType": "bool",
          "name": "",
          "type": "bool"
        }
      ],
      "stateMutability": "pure",
      "type": "function"
    },
    {
      "inputs": [
        {
          "internalType": "bytes",
          "name": "seal",
          "type": "bytes"
        },
        {
          "internalType": "bytes32",
          "name": "imageId",
          "type": "bytes32"
        },
        {
          "internalType": "bytes32",
          "name": "journalDigest",
          "type": "bytes32"
        }
      ],
      "name": "verify",
      "outputs": [],
      "stateMutability": "nonpayable",
      "type": "function"
    },
    {
      "inputs": [
        {
          "internalType": "bytes",
          "name": "seal",
          "type": "bytes"
        },
        {
          "internalType": "bytes32",
          "name": "imageId",
          "type": "bytes32"
        },
        {
          "internalType": "bytes",
          "name": "journal",
          "type": "bytes"
        }
      ],
      "name": "verifyWithJournal",
      "outputs": [],
      "stateMutability": "nonpayable",
      "type": "function"
    },
    {
      "inputs": [],
      "name": "version",
      "outputs": [
        {
          "internalType": "string",
          "name": "",
          "type": "string"
        }
      ],
      "stateMutability": "pure",
      "type": "function"
    }
  ],
  "bytecode": "0x60808060405234601557610400908161001b8239f35b600080fdfe608080604052600436101561001357600080fd5b600090813560e01c908163092c15bc1461027c5750806354fd4d50146101c3578063ab750e751461006b5763b14c91391461004d57600080fd5b34610068578060031936011261006857602060405160018152f35b80fd5b50346100685760603660031901126100685760043567ffffffffffffffff81116101bf5761009d903690600401610397565b9050602435604435911561017a5780156101355781156100e5577f38a33cd0cc7b3ca4a471890d0f9bc791d372a50ef79caadd0383f8e49c2d87ab602060405160018152a380f35b60405162461bcd60e51b815260206004820152602260248201527f4d6f636b56657269666965723a20456d707479206a6f75726e616c20646967656044820152611cdd60f21b6064820152608490fd5b60405162461bcd60e51b815260206004820152601c60248201527f4d6f636b56657269666965723a20456d70747920696d616765204944000000006044820152606490fd5b60405162461bcd60e51b815260206004820152601860248201527f4d6f636b56657269666965723a20456d707479207365616c00000000000000006044820152606490fd5b5080fd5b50346100685780600319360112610068576040516040810181811067ffffffffffffffff82111761026857604052602081527f4d6f636b526973635a65726f56657269666965722d76312e302e302d64656d6f6020820152604051809260208252825192836020840152815b84811061025057505091604092838284010152601f80199101168101030190f35b6020828201810151604088840101528694500161022f565b634e487b7160e01b83526041600452602483fd5b9050346101bf5760603660031901126101bf578160043567ffffffffffffffff81116101bf576102b0903690600401610397565b909260443567ffffffffffffffff811161039357816020926102d786933690600401610397565b809183378101838152039060025afa1561038657815192303b156103825760849082604051958694859363ab750e7560e01b855260606004860152816064860152858501378584838501015260243560248401526044830152601f8019910116810103018183305af180156103775761034e575080f35b67ffffffffffffffff81116103635760405280f35b634e487b7160e01b82526041600452602482fd5b6040513d84823e3d90fd5b8280fd5b50604051903d90823e3d90fd5b8380fd5b9181601f840112156103c55782359167ffffffffffffffff83116103c557602083818601950101116103c557565b600080fdfea2646970667358221220127a43fff25f11ebbd4e6d19bcc43d2a535c8cfc9ee035e2ee5e612b4316ba0c64736f6c634300081c0033",
  "linkReferences": {},
  "deployedLinkReferences": {}
}