{
  "_format": "hh-sol-artifact-1",
  "contractName": "MockRiscZeroVerifier",
  "sourceName": "contracts/MockRiscZeroVerifier.sol",
  "abi": [
    {
      "anonymous": false,
      "inputs": [
        {
          "indexed": true,
          "internalType": "bytes32",
          "name": "imageId",
          "type": "bytes32"
        },
        {
          "indexed": true,
          "internalType": "bytes32",
          "name": "journalDigest",
          "type": "bytes32"
        },
        {
          "indexed": false,
          "internalType": "bool",
          "name": "success",
          "type": "bool"
        }
      ],
      "name": "ProofVerificationAttempted",
      "type": "event"
    },
    {
      "inputs": [],
      "name": "isMockVerifier",
      "outputs": [
        {
          "internalType": "bool",
          "name": "",
          "type": "bool"
        }
      ],
      "stateMutability": "pure",
      "type": "function"
    },
    {
      "inputs": [
        {
          "internalType": "bytes",
          "name": "seal",
          "type": "bytes"
        },
        {
          "internalType": "bytes",
          "name": "journalData",
          "type": "bytes"
        }
      ],
      "name": "testAccountProof",
      "outputs": [],
      "stateMutability": "nonpayable",
      "type": "function"
    },
    {
      "inputs": [
        {
          "internalType": "bytes",
          "name": "seal",
          "type": "bytes"
        },
        {
          "internalType": "bytes",
          "name": "journalData",
          "type": "bytes"
        }
      ],
      "name": "testTradFiProof",
      "outputs": [],
      "stateMutability": "nonpayable",
      "type": "function"
    },
    {
      "inputs": [
        {
          "internalType": "bytes",
          "name": "seal",
          "type": "bytes"
        },
        {
          "internalType": "bytes32",
          "name": "imageId",
          "type": "bytes32"
        },
        {
          "internalType": "bytes32",
          "name": "journalDigest",
          "type": "bytes32"
        }
      ],
      "name": "verify",
      "outputs": [],
      "stateMutability": "view",
      "type": "function"
    },
    {
      "inputs": [
        {
          "internalType": "bytes",
          "name": "seal",
          "type": "bytes"
        },
        {
          "internalType": "bytes32",
          "name": "imageId",
          "type": "bytes32"
        },
        {
          "internalType": "bytes",
          "name": "journal",
          "type": "bytes"
        }
      ],
      "name": "verifyWithJournal",
      "outputs": [],
      "stateMutability": "nonpayable",
      "type": "function"
    },
    {
      "inputs": [],
      "name": "version",
      "outputs": [
        {
          "internalType": "string",
          "name": "",
          "type": "string"
        }
      ],
      "stateMutability": "pure",
      "type": "function"
    }
  ],
  "bytecode": "0x6080806040523461001657610466908161001b8239f35b5f80fdfe6080604081815260049182361015610015575f80fd5b5f925f3560e01c918263092c15bc146101c257508163247ccb95146101bd5781634295e817146101bd57816354fd4d501461010a578163ab750e7514610082575063b14c913914610064575f80fd5b3461007e578160031936011261007e576020905160018152f35b5080fd5b9190503461010657606036600319011261010657813567ffffffffffffffff8111610102576100b490369084016102a4565b9050156100bf578280f35b906020606492519162461bcd60e51b8352820152601860248201527f4d6f636b56657269666965723a20456d707479207365616c00000000000000006044820152fd5b8380fd5b8280fd5b9050346101065782600319360112610106578151908282019082821067ffffffffffffffff8311176101aa575082526020908181527f4d6f636b526973635a65726f56657269666965722d76312e302e302d64656d6f8282015282519382859384528251928382860152825b84811061019457505050828201840152601f01601f19168101030190f35b8181018301518882018801528795508201610176565b604190634e487b7160e01b5f525260245ffd5b6102d2565b929150346102a05760603660031901126102a05767ffffffffffffffff81358181116102a0576101f590369084016102a4565b946044358381116102a057816020926102125f93369089016102a4565b809183378101838152039060025afa15610296575f5194303b156102a05760845f92828751988994859363ab750e7560e01b855260608a860152816064860152858501378584838501015260243560248401526044830152601f80199101168101030181305afa801561029657610287578480f35b909192809450116101aa575052005b83513d5f823e3d90fd5b5f80fd5b9181601f840112156102a05782359167ffffffffffffffff83116102a057602083818601950101116102a057565b346102a0576040806003193601126102a057600467ffffffffffffffff81358181116102a05761030590369084016102a4565b90506024358281116102a05761031e90369085016102a4565b929091156103f65782156103b3578083116103a057845193601f8401601f19908116603f01168501918211858310176101aa575084528183526020830136838301116102a0575f93846020857f38a33cd0cc7b3ca4a471890d0f9bc791d372a50ef79caadd0383f8e49c2d87ab968296863783010152519020935160018152a3005b604184634e487b7160e01b5f525260245ffd5b845162461bcd60e51b8152602081860152601c60248201527f4a6f75726e616c20646174612063616e6e6f7420626520656d707479000000006044820152606490fd5b845162461bcd60e51b815260208186015260146024820152735365616c2063616e6e6f7420626520656d70747960601b6044820152606490fdfea26469706673582212208ae1dfec62f27d7f140f909bece90cbcf3b1c5380fa8ef51500a99232d9f21f964736f6c63430008180033",
  "linkReferences": {},
  "deployedLinkReferences": {}
}