{
  "_format": "hh-sol-artifact-1",
  "contractName": "MockRiscZeroVerifier",
  "sourceName": "backend/contracts/MockRiscZeroVerifier.sol",
  "abi": [
    {
      "anonymous": false,
      "inputs": [
        {
          "indexed": true,
          "internalType": "bytes32",
          "name": "imageId",
          "type": "bytes32"
        },
        {
          "indexed": true,
          "internalType": "bytes32",
          "name": "journalDigest",
          "type": "bytes32"
        },
        {
          "indexed": false,
          "internalType": "bool",
          "name": "success",
          "type": "bool"
        }
      ],
      "name": "ProofVerificationAttempted",
      "type": "event"
    },
    {
      "inputs": [],
      "name": "isMockVerifier",
      "outputs": [
        {
          "internalType": "bool",
          "name": "",
          "type": "bool"
        }
      ],
      "stateMutability": "pure",
      "type": "function"
    },
    {
      "inputs": [
        {
          "internalType": "bytes",
          "name": "seal",
          "type": "bytes"
        },
        {
          "internalType": "bytes32",
          "name": "imageId",
          "type": "bytes32"
        },
        {
          "internalType": "bytes32",
          "name": "journalDigest",
          "type": "bytes32"
        }
      ],
      "name": "verify",
      "outputs": [],
      "stateMutability": "nonpayable",
      "type": "function"
    },
    {
      "inputs": [
        {
          "internalType": "bytes",
          "name": "seal",
          "type": "bytes"
        },
        {
          "internalType": "bytes32",
          "name": "imageId",
          "type": "bytes32"
        },
        {
          "internalType": "bytes",
          "name": "journal",
          "type": "bytes"
        }
      ],
      "name": "verifyWithJournal",
      "outputs": [],
      "stateMutability": "nonpayable",
      "type": "function"
    },
    {
      "inputs": [],
      "name": "version",
      "outputs": [
        {
          "internalType": "string",
          "name": "",
          "type": "string"
        }
      ],
      "stateMutability": "pure",
      "type": "function"
    }
  ],
  "bytecode": "0x60808060405234601557610600908161001a8239f35b5f80fdfe6080806040526004361015610012575f80fd5b5f905f3560e01c908163092c15bc1461041c5750806354fd4d5014610346578063ab750e75146100a45763b14c91391461004a575f80fd5b346100a157806003193601126100a15761007860408051678f3896e85e58a794602082015260208152610594565b61009660408051677bd32051bf362b55602082015260208152610594565b602060405160018152f35b80fd5b50346100a15760603660031901126100a15760043567ffffffffffffffff8111610342576100d6903690600401610566565b9050602435604435916100fd60408051670fbd63a8ff7780ff602082015260208152610594565b61011b60408051673b9bf4498c63f689602082015260208152610594565b61013960408051678791c6a962146617602082015260208152610594565b156102fd5761015c6040805167199d101861323814602082015260208152610594565b61017a6040805167c7b025ed5ac9701b602082015260208152610594565b61019860408051672a0041ea199e7e16602082015260208152610594565b80156102b8576101bc604080516767a161cd7a5afae2602082015260208152610594565b6101da6040805167faf722af1cb94898602082015260208152610594565b6101f86040805167c590ceb5b7ca4e5a602082015260208152610594565b81156102685761021c6040805167b518aeba654f646e602082015260208152610594565b61023a604080516746eb9b1d747d9ce8602082015260208152610594565b7f38a33cd0cc7b3ca4a471890d0f9bc791d372a50ef79caadd0383f8e49c2d87ab602060405160018152a380f35b60405162461bcd60e51b815260206004820152602260248201527f4d6f636b56657269666965723a20456d707479206a6f75726e616c20646967656044820152611cdd60f21b6064820152608490fd5b60405162461bcd60e51b815260206004820152601c60248201527f4d6f636b56657269666965723a20456d70747920696d616765204944000000006044820152606490fd5b60405162461bcd60e51b815260206004820152601860248201527f4d6f636b56657269666965723a20456d707479207365616c00000000000000006044820152606490fd5b5080fd5b50346100a157806003193601126100a15761037560408051672717c8c8c14b6b8a602082015260208152610594565b610393604080516753c3a8a1e27e84a4602082015260208152610594565b6040516040810181811067ffffffffffffffff8211176104085790604091825260208152602081017f4d6f636b526973635a65726f56657269666965722d76312e302e302d64656d6f81528251938492602084525180928160208601528585015e828201840152601f01601f19168101030190f35b634e487b7160e01b83526041600452602483fd5b9050346105625760603660031901126105625760043567ffffffffffffffff81116105625761044f903690600401610566565b916044359067ffffffffffffffff82116105625760405f9161049261047a6020953690600401610566565b939092671aa81a936481f0ed87820152868152610594565b6104ae6040805167f2a77303bc09bce487820152868152610594565b8160405192839283378101838152039060025afa15610557575f51916104e86040805167d1215db917e1ab9c602082015260208152610594565b303b156105625760845f9282604051958694859363ab750e7560e01b855260606004860152816064860152858501378584838501015260243560248401526044830152601f8019910116810103018183305af1801561055757610549575080f35b61055591505f90610594565b005b6040513d5f823e3d90fd5b5f80fd5b9181601f840112156105625782359167ffffffffffffffff8311610562576020838186019501011161056257565b90601f8019910116810190811067ffffffffffffffff8211176105b657604052565b634e487b7160e01b5f52604160045260245ffdfea26469706673582212204e7217d78e3c25f16113f8aa44e51e7042e0e1479296b0b461f449f085dbb22564736f6c634300081c0033",
  "linkReferences": {},
  "deployedLinkReferences": {}
}