{
  "_format": "hh-sol-artifact-1",
  "contractName": "NullifierRegistry",
  "sourceName": "contracts/NullifierRegistry.sol",
  "abi": [
    {
      "anonymous": false,
      "inputs": [
        {
          "indexed": true,
          "internalType": "address",
          "name": "user",
          "type": "address"
        },
        {
          "indexed": false,
          "internalType": "address[]",
          "name": "accounts",
          "type": "address[]"
        }
      ],
      "name": "AccountsSelected",
      "type": "event"
    },
    {
      "anonymous": false,
      "inputs": [
        {
          "indexed": false,
          "internalType": "uint8",
          "name": "version",
          "type": "uint8"
        }
      ],
      "name": "Initialized",
      "type": "event"
    },
    {
      "anonymous": false,
      "inputs": [
        {
          "indexed": true,
          "internalType": "address",
          "name": "user",
          "type": "address"
        },
        {
          "indexed": false,
          "internalType": "bytes32",
          "name": "nullifier",
          "type": "bytes32"
        },
        {
          "indexed": false,
          "internalType": "uint256",
          "name": "nonce",
          "type": "uint256"
        }
      ],
      "name": "NullifierGenerated",
      "type": "event"
    },
    {
      "anonymous": false,
      "inputs": [
        {
          "indexed": true,
          "internalType": "bytes32",
          "name": "nullifier",
          "type": "bytes32"
        },
        {
          "indexed": true,
          "internalType": "address",
          "name": "user",
          "type": "address"
        },
        {
          "indexed": false,
          "internalType": "uint256",
          "name": "timestamp",
          "type": "uint256"
        }
      ],
      "name": "NullifierUsed",
      "type": "event"
    },
    {
      "anonymous": false,
      "inputs": [
        {
          "indexed": true,
          "internalType": "bytes32",
          "name": "role",
          "type": "bytes32"
        },
        {
          "indexed": true,
          "internalType": "bytes32",
          "name": "previousAdminRole",
          "type": "bytes32"
        },
        {
          "indexed": true,
          "internalType": "bytes32",
          "name": "newAdminRole",
          "type": "bytes32"
        }
      ],
      "name": "RoleAdminChanged",
      "type": "event"
    },
    {
      "anonymous": false,
      "inputs": [
        {
          "indexed": true,
          "internalType": "bytes32",
          "name": "role",
          "type": "bytes32"
        },
        {
          "indexed": true,
          "internalType": "address",
          "name": "account",
          "type": "address"
        },
        {
          "indexed": true,
          "internalType": "address",
          "name": "sender",
          "type": "address"
        }
      ],
      "name": "RoleGranted",
      "type": "event"
    },
    {
      "anonymous": false,
      "inputs": [
        {
          "indexed": true,
          "internalType": "bytes32",
          "name": "role",
          "type": "bytes32"
        },
        {
          "indexed": true,
          "internalType": "address",
          "name": "account",
          "type": "address"
        },
        {
          "indexed": true,
          "internalType": "address",
          "name": "sender",
          "type": "address"
        }
      ],
      "name": "RoleRevoked",
      "type": "event"
    },
    {
      "inputs": [],
      "name": "DEFAULT_ADMIN_ROLE",
      "outputs": [
        {
          "internalType": "bytes32",
          "name": "",
          "type": "bytes32"
        }
      ],
      "stateMutability": "view",
      "type": "function"
    },
    {
      "inputs": [],
      "name": "NULLIFIER_CONSUMER_ROLE",
      "outputs": [
        {
          "internalType": "bytes32",
          "name": "",
          "type": "bytes32"
        }
      ],
      "stateMutability": "view",
      "type": "function"
    },
    {
      "inputs": [
        {
          "internalType": "address",
          "name": "user",
          "type": "address"
        },
        {
          "internalType": "uint256",
          "name": "loanAmount",
          "type": "uint256"
        },
        {
          "internalType": "uint256",
          "name": "timestamp",
          "type": "uint256"
        }
      ],
      "name": "generateNullifier",
      "outputs": [
        {
          "internalType": "bytes32",
          "name": "",
          "type": "bytes32"
        }
      ],
      "stateMutability": "view",
      "type": "function"
    },
    {
      "inputs": [
        {
          "internalType": "bytes32",
          "name": "role",
          "type": "bytes32"
        }
      ],
      "name": "getRoleAdmin",
      "outputs": [
        {
          "internalType": "bytes32",
          "name": "",
          "type": "bytes32"
        }
      ],
      "stateMutability": "view",
      "type": "function"
    },
    {
      "inputs": [
        {
          "internalType": "address",
          "name": "user",
          "type": "address"
        }
      ],
      "name": "getUserAccounts",
      "outputs": [
        {
          "internalType": "address[]",
          "name": "",
          "type": "address[]"
        }
      ],
      "stateMutability": "view",
      "type": "function"
    },
    {
      "inputs": [
        {
          "internalType": "bytes32",
          "name": "role",
          "type": "bytes32"
        },
        {
          "internalType": "address",
          "name": "account",
          "type": "address"
        }
      ],
      "name": "grantRole",
      "outputs": [],
      "stateMutability": "nonpayable",
      "type": "function"
    },
    {
      "inputs": [
        {
          "internalType": "bytes32",
          "name": "role",
          "type": "bytes32"
        },
        {
          "internalType": "address",
          "name": "account",
          "type": "address"
        }
      ],
      "name": "hasRole",
      "outputs": [
        {
          "internalType": "bool",
          "name": "",
          "type": "bool"
        }
      ],
      "stateMutability": "view",
      "type": "function"
    },
    {
      "inputs": [
        {
          "internalType": "address",
          "name": "",
          "type": "address"
        }
      ],
      "name": "hasSelectedAccounts",
      "outputs": [
        {
          "internalType": "bool",
          "name": "",
          "type": "bool"
        }
      ],
      "stateMutability": "view",
      "type": "function"
    },
    {
      "inputs": [
        {
          "internalType": "address",
          "name": "admin",
          "type": "address"
        }
      ],
      "name": "initialize",
      "outputs": [],
      "stateMutability": "nonpayable",
      "type": "function"
    },
    {
      "inputs": [
        {
          "internalType": "bytes32",
          "name": "nullifier",
          "type": "bytes32"
        }
      ],
      "name": "isNullifierUsed",
      "outputs": [
        {
          "internalType": "bool",
          "name": "",
          "type": "bool"
        }
      ],
      "stateMutability": "view",
      "type": "function"
    },
    {
      "inputs": [
        {
          "internalType": "bytes32",
          "name": "role",
          "type": "bytes32"
        },
        {
          "internalType": "address",
          "name": "account",
          "type": "address"
        }
      ],
      "name": "renounceRole",
      "outputs": [],
      "stateMutability": "nonpayable",
      "type": "function"
    },
    {
      "inputs": [
        {
          "internalType": "bytes32",
          "name": "role",
          "type": "bytes32"
        },
        {
          "internalType": "address",
          "name": "account",
          "type": "address"
        }
      ],
      "name": "revokeRole",
      "outputs": [],
      "stateMutability": "nonpayable",
      "type": "function"
    },
    {
      "inputs": [
        {
          "internalType": "address[]",
          "name": "accounts",
          "type": "address[]"
        }
      ],
      "name": "selectAccounts",
      "outputs": [],
      "stateMutability": "nonpayable",
      "type": "function"
    },
    {
      "inputs": [
        {
          "internalType": "bytes4",
          "name": "interfaceId",
          "type": "bytes4"
        }
      ],
      "name": "supportsInterface",
      "outputs": [
        {
          "internalType": "bool",
          "name": "",
          "type": "bool"
        }
      ],
      "stateMutability": "view",
      "type": "function"
    },
    {
      "inputs": [
        {
          "internalType": "bytes32",
          "name": "nullifier",
          "type": "bytes32"
        },
        {
          "internalType": "address",
          "name": "user",
          "type": "address"
        }
      ],
      "name": "useNullifier",
      "outputs": [],
      "stateMutability": "nonpayable",
      "type": "function"
    },
    {
      "inputs": [
        {
          "internalType": "bytes32",
          "name": "",
          "type": "bytes32"
        }
      ],
      "name": "usedNullifiers",
      "outputs": [
        {
          "internalType": "bool",
          "name": "",
          "type": "bool"
        }
      ],
      "stateMutability": "view",
      "type": "function"
    },
    {
      "inputs": [
        {
          "internalType": "address",
          "name": "",
          "type": "address"
        },
        {
          "internalType": "uint256",
          "name": "",
          "type": "uint256"
        }
      ],
      "name": "userSelectedAccounts",
      "outputs": [
        {
          "internalType": "address",
          "name": "",
          "type": "address"
        }
      ],
      "stateMutability": "view",
      "type": "function"
    },
    {
      "inputs": [
        {
          "internalType": "address",
          "name": "user",
          "type": "address"
        },
        {
          "internalType": "address[]",
          "name": "accounts",
          "type": "address[]"
        }
      ],
      "name": "verifyAccountSelection",
      "outputs": [
        {
          "internalType": "bool",
          "name": "",
          "type": "bool"
        }
      ],
      "stateMutability": "view",
      "type": "function"
    }
  ],
  "bytecode": "0x60808060405234610016576112af908161001b8239f35b5f80fdfe6080604081815260049182361015610015575f80fd5b5f3560e01c90816301ffc9a714610d6c575080630a8ee44214610d1e578063206137aa14610cf257806322dc7b4c14610cf2578063248a9ca314610cc85780632f2ff15d14610c25578063305ccc39146108ff57806336568abe1461086e5780633c6663e41461081857806345d92d77146107dc57806391d1485414610798578063a217fddf1461077e578063a691340614610507578063ab2cf9a7146103f9578063ad872a861461034f578063c404e8f714610315578063c4d66de8146101245763d547741f146100e5575f80fd5b3461012057806003193601126101205761011e91356101196001610107610dd4565b93835f5260656020525f200154610f63565b6110ef565b005b5f80fd5b509034610120576020908160031936011261012057610141610dbe565b5f5460ff8160081c161592838094610308575b80156102f1575b156102975760ff198281166001175f559184610285575b5060ff5f5460081c161561022e57505f808052606585528581206001600160a01b039093168082529285528590205460ff16156101e5575b50506101b257005b7f7f26b83ff96e1f2b6a682f133852f6798a09c465da95921460cefb38474024989161ff00195f54165f555160018152a1005b5f805260658452845f20825f5284526001855f209182541617905533905f7f2f8788117e7eff1d82e926ec794901d17c78024a50270940304540a733656f0d8180a45f806101aa565b855162461bcd60e51b8152908101859052602b60248201527f496e697469616c697a61626c653a20636f6e7472616374206973206e6f74206960448201526a6e697469616c697a696e6760a81b6064820152608490fd5b61ffff1916610101175f908155610172565b855162461bcd60e51b8152908101859052602e60248201527f496e697469616c697a61626c653a20636f6e747261637420697320616c72656160448201526d191e481a5b9a5d1a585b1a5e995960921b6064820152608490fd5b50303b15801561015b5750600160ff83161461015b565b50600160ff831610610154565b5034610120575f36600319011261012057602090517f73b05977f7ae980f06c4acdccf772c9a94862be00025bd3cc9f4cf25ebf226658152f35b50346101205760209081600319360112610120576001600160a01b039182610375610dbe565b165f5260988152815f209082518082845491828152019081945f52835f20905f5b8181106103e357505050816103ac910382610f41565b8351938285019183865251809252840192915f5b8281106103cd5785850386f35b83518716855293810193928101926001016103c0565b8254891684529285019260019283019201610396565b503461012057606036600319011261012057610413610dbe565b60018060a01b03808216805f526020946099865260ff855f205416156104c457505f5260988452825f20908351918291868301946bffffffffffffffffffffffff199060601b16855260348301825490925f52875f20915f905b898383106104a75789898861049d6060828b60243581526044358882015246878201520385810184520182610f41565b5190209051908152f35b84548216865287965090940193600193840193919091019061046d565b845162461bcd60e51b8152908101869052601f60248201527f55736572206d7573742073656c656374206163636f756e7473206669727374006044820152606490fd5b5034610120576020806003193601126101205767ffffffffffffffff8335818111610120576105399036908601610dea565b919094335f526099845260ff855f20541661073b5782151580610730575b156106ed575f5b8381106106815750335f5260988452845f2091831161066e5768010000000000000000831161066e57508054828255808310610649575b5084905f52825f20905f5b83811061062f57505050335f5260998252825f2090600191600160ff198254161790558351938184860185875252840194925f5b82811061060457337fbebeb42e8fef07a2e247ef86e166d436d7a23221dd22e91e26eaba870c0115c087890388a2005b909192939586359060018060a01b0382168092036101205790815282019582019392919083016105d4565b6001908561063c84610e54565b93019281850155016105a0565b815f5282845f2091820191015b8181106106635750610595565b5f8155600101610656565b604190634e487b7160e01b5f525260245ffd5b6001600160a01b0361069c61069783878b610e44565b610e54565b16156106aa5760010161055e565b855162461bcd60e51b8152808301869052601760248201527f496e76616c6964206163636f756e7420616464726573730000000000000000006044820152606490fd5b845162461bcd60e51b8152908101849052601a60248201527f496e76616c6964206e756d626572206f66206163636f756e74730000000000006044820152606490fd5b50600a831115610557565b845162461bcd60e51b8152908101849052601960248201527f4163636f756e747320616c72656164792073656c6563746564000000000000006044820152606490fd5b5034610120575f36600319011261012057602090515f8152f35b50346101205780600319360112610120576020916107b4610dd4565b90355f5260658352815f209060018060a01b03165f52825260ff815f20541690519015158152f35b5034610120576020366003190112610120576020906001600160a01b03610801610dbe565b165f526099825260ff815f20541690519015158152f35b5034610120578060031936011261012057610831610dbe565b906024359160018060a01b038091165f526098602052815f2080548410156101205760209361085f91610e1b565b92905490519260031b1c168152f35b509034610120578160031936011261012057610888610dd4565b90336001600160a01b038316036108a45761011e9250356110ef565b608490602084519162461bcd60e51b8352820152602f60248201527f416363657373436f6e74726f6c3a2063616e206f6e6c792072656e6f756e636560448201526e103937b632b9903337b91039b2b63360891b6064820152fd5b503461012057806003193601126101205781359061091b610dd4565b907f73b05977f7ae980f06c4acdccf772c9a94862be00025bd3cc9f4cf25ebf2266591825f5260209260658452825f20335f52845260ff835f20541615610a4c5750835f526097835260ff825f205416610a10576001600160a01b03165f818152609984528290205490949060ff16156109cf5750907fc8b7c9b2394d9099ac656f1e2845a7f53881c1deeb04adf87cb4babb794fc35091835f5260978252805f20600160ff1982541617905551428152a3005b82606492519162461bcd60e51b8352820152601d60248201527f5573657220686173206e6f2073656c6563746564206163636f756e74730000006044820152fd5b815162461bcd60e51b81528086018490526016602482015275139d5b1b1a599a595c88185b1c9958591e481d5cd95960521b6044820152606490fd5b85929150610a5933611194565b908251610a6581610f11565b60428152858101916060368437815115610c125760308353815160019060011015610bff57607860218401536041905b808211610b97575050610b565783610b2660488895610b4895610b179560449a9951968793610aee8b86019b76020b1b1b2b9b9a1b7b73a3937b61d1030b1b1b7bab73a1604d1b8d528251928391603789019101611162565b8401917001034b99036b4b9b9b4b733903937b6329607d1b603784015251809386840190611162565b01036028810185520183610f41565b5195869462461bcd60e51b865285015251809281602486015285850190611162565b601f01601f19168101030190fd5b606485878087519262461bcd60e51b845283015260248201527f537472696e67733a20686578206c656e67746820696e73756666696369656e746044820152fd5b9091600f81166010811015610bec576f181899199a1a9b1b9c1cb0b131b232b360811b901a610bc68486611183565b53871c918015610bd9575f190190610a95565b601188634e487b7160e01b5f525260245ffd5b603289634e487b7160e01b5f525260245ffd5b603287634e487b7160e01b5f525260245ffd5b603286634e487b7160e01b5f525260245ffd5b5090346101205781600319360112610120573590610c41610dd4565b90825f526065602052610c596001825f200154610f63565b825f526065602052805f209160018060a01b031691825f5260205260ff815f20541615610c8257005b825f526065602052805f20825f526020525f20600160ff1982541617905533917f2f8788117e7eff1d82e926ec794901d17c78024a50270940304540a733656f0d5f80a4005b503461012057602036600319011261012057602091355f52606582526001815f2001549051908152f35b503461012057602036600319011261012057602091355f526097825260ff815f20541690519015158152f35b5034610120578060031936011261012057610d37610dbe565b916024359267ffffffffffffffff841161012057610d5d610d6392602095369101610dea565b91610e68565b90519015158152f35b833461012057602036600319011261012057359063ffffffff60e01b821680920361012057602091637965db0b60e01b8114908115610dad575b5015158152f35b6301ffc9a760e01b14905083610da6565b600435906001600160a01b038216820361012057565b602435906001600160a01b038216820361012057565b9181601f840112156101205782359167ffffffffffffffff8311610120576020808501948460051b01011161012057565b8054821015610e30575f5260205f2001905f90565b634e487b7160e01b5f52603260045260245ffd5b9190811015610e305760051b0190565b356001600160a01b03811681036101205790565b60018060a01b0380911691825f52602090609960205260409460ff60405f20541615610f0757609895609860205260405f20548203610efc575f5b828110610eb7575050505050505050600190565b610ec5610697828587610e44565b875f528886528680610ed984865f20610e1b565b90549060031b1c16911603610ef057600101610ea3565b50505050505050505f90565b505050505050505f90565b5050505050505f90565b6080810190811067ffffffffffffffff821117610f2d57604052565b634e487b7160e01b5f52604160045260245ffd5b90601f8019910116810190811067ffffffffffffffff821117610f2d57604052565b805f5260209060658252604091825f20335f52815260ff835f20541615610f8957505050565b610f9233611194565b8351610f9d81610f11565b60428152828101936060368637815115610e305760308553815160019060011015610e3057607860218401536041905b80821161109857505061105657846110326048610b489360449798519889916110238984019876020b1b1b2b9b9a1b7b73a3937b61d1030b1b1b7bab73a1604d1b8a52610aee815180928d603789019101611162565b01036028810189520187610f41565b5194859362461bcd60e51b8552600485015251809281602486015285850190611162565b60648386519062461bcd60e51b825280600483015260248201527f537472696e67733a20686578206c656e67746820696e73756666696369656e746044820152fd5b9091600f81166010811015610e30576f181899199a1a9b1b9c1cb0b131b232b360811b901a6110c78486611183565b5360041c9180156110db575f190190610fcd565b634e487b7160e01b5f52601160045260245ffd5b90815f52606560205260405f209060018060a01b031690815f5260205260ff60405f20541661111c575050565b815f52606560205260405f20815f5260205260405f2060ff19815416905533917ff6391f5c32d9c69d2a47ea670b442974b53935d1edc7fd64eb21e047a839171b5f80a4565b5f5b8381106111735750505f910152565b8181015183820152602001611164565b908151811015610e30570160200190565b604051906060820182811067ffffffffffffffff821117610f2d57604052602a8252602082016040368237825115610e305760309053815160019060011015610e3057607860218401536029905b8082116112365750506111f25790565b606460405162461bcd60e51b815260206004820152602060248201527f537472696e67733a20686578206c656e67746820696e73756666696369656e746044820152fd5b9091600f81166010811015610e30576f181899199a1a9b1b9c1cb0b131b232b360811b901a6112658486611183565b5360041c9180156110db575f1901906111e256fea2646970667358221220a92004457711713216883a829742b6aa2462a047c43bd4a938d348f6cd71845464736f6c63430008180033",
  "linkReferences": {},
  "deployedLinkReferences": {}
}