{
  "_format": "hh-sol-artifact-1",
  "contractName": "OracleMock",
  "sourceName": "backend/contracts/mocks/OracleMock.sol",
  "abi": [
    {
      "inputs": [],
      "name": "answer",
      "outputs": [
        {
          "internalType": "int256",
          "name": "",
          "type": "int256"
        }
      ],
      "stateMutability": "view",
      "type": "function"
    },
    {
      "inputs": [],
      "name": "decimals",
      "outputs": [
        {
          "internalType": "uint8",
          "name": "",
          "type": "uint8"
        }
      ],
      "stateMutability": "view",
      "type": "function"
    },
    {
      "inputs": [],
      "name": "latestRoundData",
      "outputs": [
        {
          "internalType": "uint80",
          "name": "",
          "type": "uint80"
        },
        {
          "internalType": "int256",
          "name": "",
          "type": "int256"
        },
        {
          "internalType": "uint256",
          "name": "",
          "type": "uint256"
        },
        {
          "internalType": "uint256",
          "name": "",
          "type": "uint256"
        },
        {
          "internalType": "uint80",
          "name": "",
          "type": "uint80"
        }
      ],
      "stateMutability": "view",
      "type": "function"
    },
    {
      "inputs": [
        {
          "internalType": "int256",
          "name": "_answer",
          "type": "int256"
        },
        {
          "internalType": "uint256",
          "name": "_updatedAt",
          "type": "uint256"
        }
      ],
      "name": "setLatestRoundData",
      "outputs": [],
      "stateMutability": "nonpayable",
      "type": "function"
    },
    {
      "inputs": [],
      "name": "updatedAt",
      "outputs": [
        {
          "internalType": "uint256",
          "name": "",
          "type": "uint256"
        }
      ],
      "stateMutability": "view",
      "type": "function"
    }
  ],
  "bytecode": "0x60808060405234602257600860ff19600254161760025561020390816100278239f35b5f80fdfe6080806040526004361015610012575f80fd5b5f3560e01c908163313ce5671461017a575080637519ab501461015d57806385bb7d6914610141578063d191d7f1146100c95763feaf968c14610053575f80fd5b346100c5575f3660031901126100c557610081604080516789e2558436f9abfb602082015260208152610197565b61009f6040805167d3f27fa66cdd7e3b602082015260208152610197565b60a05f54600154604051915f835260208301525f604083015260608201525f6080820152f35b5f80fd5b346100c55760403660031901126100c5576100f86040805167d315a423433b4a92602082015260208152610197565b610116604080516773b213cad7745355602082015260208152610197565b6004355f556101396040805167973ce9e81c7ab9cd602082015260208152610197565b602435600155005b346100c5575f3660031901126100c55760205f54604051908152f35b346100c5575f3660031901126100c5576020600154604051908152f35b346100c5575f3660031901126100c55760209060ff600254168152f35b90601f8019910116810190811067ffffffffffffffff8211176101b957604052565b634e487b7160e01b5f52604160045260245ffdfea2646970667358221220994aace67bd4059918f5d1bc4f13af96a053564a67a4cb9995f266871d0cd34164736f6c634300081c0033",
  "linkReferences": {},
  "deployedLinkReferences": {}
}