{
  "_format": "hh-sol-artifact-1",
  "contractName": "OracleMock",
  "sourceName": "backend/contracts/mocks/OracleMock.sol",
  "abi": [
    {
      "inputs": [],
      "name": "answer",
      "outputs": [
        {
          "internalType": "int256",
          "name": "",
          "type": "int256"
        }
      ],
      "stateMutability": "view",
      "type": "function"
    },
    {
      "inputs": [],
      "name": "decimals",
      "outputs": [
        {
          "internalType": "uint8",
          "name": "",
          "type": "uint8"
        }
      ],
      "stateMutability": "view",
      "type": "function"
    },
    {
      "inputs": [],
      "name": "latestRoundData",
      "outputs": [
        {
          "internalType": "uint80",
          "name": "",
          "type": "uint80"
        },
        {
          "internalType": "int256",
          "name": "",
          "type": "int256"
        },
        {
          "internalType": "uint256",
          "name": "",
          "type": "uint256"
        },
        {
          "internalType": "uint256",
          "name": "",
          "type": "uint256"
        },
        {
          "internalType": "uint80",
          "name": "",
          "type": "uint80"
        }
      ],
      "stateMutability": "view",
      "type": "function"
    },
    {
      "inputs": [
        {
          "internalType": "int256",
          "name": "_answer",
          "type": "int256"
        },
        {
          "internalType": "uint256",
          "name": "_updatedAt",
          "type": "uint256"
        }
      ],
      "name": "setLatestRoundData",
      "outputs": [],
      "stateMutability": "nonpayable",
      "type": "function"
    },
    {
      "inputs": [],
      "name": "updatedAt",
      "outputs": [
        {
          "internalType": "uint256",
          "name": "",
          "type": "uint256"
        }
      ],
      "stateMutability": "view",
      "type": "function"
    }
  ],
  "bytecode": "0x60808060405234602257600860ff19600254161760025561014590816100288239f35b600080fdfe608080604052600436101561001357600080fd5b60003560e01c908163313ce567146100f1575080637519ab50146100d357806385bb7d69146100b5578063d191d7f1146100965763feaf968c1461005657600080fd5b346100915760003660031901126100915760a06000546001546040519160008352602083015260006040830152606082015260006080820152f35b600080fd5b3461009157604036600319011261009157600435600055602435600155005b34610091576000366003190112610091576020600054604051908152f35b34610091576000366003190112610091576020600154604051908152f35b346100915760003660031901126100915760209060ff600254168152f3fea26469706673582212206fc6141516a64cedef29947ded247acb761a65b51efeb9ee87286cc178821fb464736f6c634300081c0033",
  "linkReferences": {},
  "deployedLinkReferences": {}
}