{
  "_format": "hh-sol-artifact-1",
  "contractName": "ProtocolGovernor",
  "sourceName": "backend/contracts/ProtocolGovernor.sol",
  "abi": [
    {
      "inputs": [
        {
          "internalType": "address",
          "name": "_votingToken",
          "type": "address"
        },
        {
          "internalType": "contract TimelockController",
          "name": "_timelock",
          "type": "address"
        }
      ],
      "stateMutability": "nonpayable",
      "type": "constructor"
    },
    {
      "inputs": [],
      "name": "FailedCall",
      "type": "error"
    },
    {
      "inputs": [
        {
          "internalType": "address",
          "name": "voter",
          "type": "address"
        }
      ],
      "name": "GovernorAlreadyCastVote",
      "type": "error"
    },
    {
      "inputs": [
        {
          "internalType": "uint256",
          "name": "proposalId",
          "type": "uint256"
        }
      ],
      "name": "GovernorAlreadyQueuedProposal",
      "type": "error"
    },
    {
      "inputs": [],
      "name": "GovernorDisabledDeposit",
      "type": "error"
    },
    {
      "inputs": [
        {
          "internalType": "address",
          "name": "proposer",
          "type": "address"
        },
        {
          "internalType": "uint256",
          "name": "votes",
          "type": "uint256"
        },
        {
          "internalType": "uint256",
          "name": "threshold",
          "type": "uint256"
        }
      ],
      "name": "GovernorInsufficientProposerVotes",
      "type": "error"
    },
    {
      "inputs": [
        {
          "internalType": "uint256",
          "name": "targets",
          "type": "uint256"
        },
        {
          "internalType": "uint256",
          "name": "calldatas",
          "type": "uint256"
        },
        {
          "internalType": "uint256",
          "name": "values",
          "type": "uint256"
        }
      ],
      "name": "GovernorInvalidProposalLength",
      "type": "error"
    },
    {
      "inputs": [
        {
          "internalType": "address",
          "name": "voter",
          "type": "address"
        }
      ],
      "name": "GovernorInvalidSignature",
      "type": "error"
    },
    {
      "inputs": [],
      "name": "GovernorInvalidVoteParams",
      "type": "error"
    },
    {
      "inputs": [],
      "name": "GovernorInvalidVoteType",
      "type": "error"
    },
    {
      "inputs": [
        {
          "internalType": "uint256",
          "name": "votingPeriod",
          "type": "uint256"
        }
      ],
      "name": "GovernorInvalidVotingPeriod",
      "type": "error"
    },
    {
      "inputs": [
        {
          "internalType": "uint256",
          "name": "proposalId",
          "type": "uint256"
        }
      ],
      "name": "GovernorNonexistentProposal",
      "type": "error"
    },
    {
      "inputs": [
        {
          "internalType": "uint256",
          "name": "proposalId",
          "type": "uint256"
        }
      ],
      "name": "GovernorNotQueuedProposal",
      "type": "error"
    },
    {
      "inputs": [
        {
          "internalType": "address",
          "name": "account",
          "type": "address"
        }
      ],
      "name": "GovernorOnlyExecutor",
      "type": "error"
    },
    {
      "inputs": [],
      "name": "GovernorQueueNotImplemented",
      "type": "error"
    },
    {
      "inputs": [
        {
          "internalType": "address",
          "name": "proposer",
          "type": "address"
        }
      ],
      "name": "GovernorRestrictedProposer",
      "type": "error"
    },
    {
      "inputs": [
        {
          "internalType": "uint256",
          "name": "proposalId",
          "type": "uint256"
        },
        {
          "internalType": "address",
          "name": "account",
          "type": "address"
        }
      ],
      "name": "GovernorUnableToCancel",
      "type": "error"
    },
    {
      "inputs": [
        {
          "internalType": "uint256",
          "name": "proposalId",
          "type": "uint256"
        },
        {
          "internalType": "enum IGovernor.ProposalState",
          "name": "current",
          "type": "uint8"
        },
        {
          "internalType": "bytes32",
          "name": "expectedStates",
          "type": "bytes32"
        }
      ],
      "name": "GovernorUnexpectedProposalState",
      "type": "error"
    },
    {
      "inputs": [
        {
          "internalType": "address",
          "name": "account",
          "type": "address"
        },
        {
          "internalType": "uint256",
          "name": "currentNonce",
          "type": "uint256"
        }
      ],
      "name": "InvalidAccountNonce",
      "type": "error"
    },
    {
      "inputs": [],
      "name": "InvalidShortString",
      "type": "error"
    },
    {
      "inputs": [
        {
          "internalType": "uint8",
          "name": "bits",
          "type": "uint8"
        },
        {
          "internalType": "uint256",
          "name": "value",
          "type": "uint256"
        }
      ],
      "name": "SafeCastOverflowedUintDowncast",
      "type": "error"
    },
    {
      "inputs": [
        {
          "internalType": "string",
          "name": "str",
          "type": "string"
        }
      ],
      "name": "StringTooLong",
      "type": "error"
    },
    {
      "anonymous": false,
      "inputs": [
        {
          "indexed": true,
          "internalType": "uint256",
          "name": "proposalId",
          "type": "uint256"
        },
        {
          "indexed": true,
          "internalType": "address",
          "name": "proposer",
          "type": "address"
        },
        {
          "indexed": false,
          "internalType": "address",
          "name": "targetContract",
          "type": "address"
        },
        {
          "indexed": false,
          "internalType": "bytes4",
          "name": "functionSelector",
          "type": "bytes4"
        },
        {
          "indexed": false,
          "internalType": "bytes",
          "name": "encodedParams",
          "type": "bytes"
        },
        {
          "indexed": false,
          "internalType": "uint256",
          "name": "minVotesNeeded",
          "type": "uint256"
        },
        {
          "indexed": false,
          "internalType": "uint256",
          "name": "startTime",
          "type": "uint256"
        },
        {
          "indexed": false,
          "internalType": "uint256",
          "name": "endTime",
          "type": "uint256"
        },
        {
          "indexed": false,
          "internalType": "uint256",
          "name": "executeAfter",
          "type": "uint256"
        }
      ],
      "name": "AdvancedProposalCreated",
      "type": "event"
    },
    {
      "anonymous": false,
      "inputs": [
        {
          "indexed": true,
          "internalType": "uint256",
          "name": "proposalId",
          "type": "uint256"
        }
      ],
      "name": "AdvancedProposalExecuted",
      "type": "event"
    },
    {
      "anonymous": false,
      "inputs": [
        {
          "indexed": true,
          "internalType": "uint256",
          "name": "proposalId",
          "type": "uint256"
        },
        {
          "indexed": true,
          "internalType": "address",
          "name": "vetoer",
          "type": "address"
        },
        {
          "indexed": false,
          "internalType": "uint256",
          "name": "vetoCount",
          "type": "uint256"
        }
      ],
      "name": "AdvancedProposalVetoed",
      "type": "event"
    },
    {
      "anonymous": false,
      "inputs": [
        {
          "indexed": true,
          "internalType": "uint256",
          "name": "proposalId",
          "type": "uint256"
        },
        {
          "indexed": true,
          "internalType": "address",
          "name": "voter",
          "type": "address"
        },
        {
          "indexed": false,
          "internalType": "bool",
          "name": "support",
          "type": "bool"
        },
        {
          "indexed": false,
          "internalType": "uint256",
          "name": "votes",
          "type": "uint256"
        }
      ],
      "name": "AdvancedVoteCast",
      "type": "event"
    },
    {
      "anonymous": false,
      "inputs": [
        {
          "indexed": true,
          "internalType": "address",
          "name": "contractAddr",
          "type": "address"
        },
        {
          "indexed": false,
          "internalType": "bool",
          "name": "allowed",
          "type": "bool"
        }
      ],
      "name": "AllowedContractSet",
      "type": "event"
    },
    {
      "anonymous": false,
      "inputs": [],
      "name": "BootstrapModeDisabled",
      "type": "event"
    },
    {
      "anonymous": false,
      "inputs": [
        {
          "indexed": true,
          "internalType": "address",
          "name": "contractAddr",
          "type": "address"
        },
        {
          "indexed": false,
          "internalType": "bool",
          "name": "allowed",
          "type": "bool"
        }
      ],
      "name": "ContractWhitelisted",
      "type": "event"
    },
    {
      "anonymous": false,
      "inputs": [],
      "name": "EIP712DomainChanged",
      "type": "event"
    },
    {
      "anonymous": false,
      "inputs": [
        {
          "indexed": false,
          "internalType": "address[]",
          "name": "signers",
          "type": "address[]"
        }
      ],
      "name": "EmergencyMultisigSet",
      "type": "event"
    },
    {
      "anonymous": false,
      "inputs": [
        {
          "indexed": true,
          "internalType": "address",
          "name": "asset",
          "type": "address"
        },
        {
          "indexed": true,
          "internalType": "address",
          "name": "feed",
          "type": "address"
        }
      ],
      "name": "FallbackPriceFeedSet",
      "type": "event"
    },
    {
      "anonymous": false,
      "inputs": [
        {
          "indexed": false,
          "internalType": "uint256",
          "name": "lend",
          "type": "uint256"
        },
        {
          "indexed": false,
          "internalType": "uint256",
          "name": "borrow",
          "type": "uint256"
        },
        {
          "indexed": false,
          "internalType": "uint256",
          "name": "repay",
          "type": "uint256"
        }
      ],
      "name": "MultipliersUpdated",
      "type": "event"
    },
    {
      "anonymous": false,
      "inputs": [
        {
          "indexed": true,
          "internalType": "address",
          "name": "asset",
          "type": "address"
        },
        {
          "indexed": true,
          "internalType": "address",
          "name": "feed",
          "type": "address"
        }
      ],
      "name": "PriceFeedSet",
      "type": "event"
    },
    {
      "anonymous": false,
      "inputs": [
        {
          "indexed": false,
          "internalType": "uint256",
          "name": "proposalId",
          "type": "uint256"
        }
      ],
      "name": "ProposalCanceled",
      "type": "event"
    },
    {
      "anonymous": false,
      "inputs": [
        {
          "indexed": false,
          "internalType": "uint256",
          "name": "proposalId",
          "type": "uint256"
        },
        {
          "indexed": false,
          "internalType": "address",
          "name": "proposer",
          "type": "address"
        },
        {
          "indexed": false,
          "internalType": "address[]",
          "name": "targets",
          "type": "address[]"
        },
        {
          "indexed": false,
          "internalType": "uint256[]",
          "name": "values",
          "type": "uint256[]"
        },
        {
          "indexed": false,
          "internalType": "string[]",
          "name": "signatures",
          "type": "string[]"
        },
        {
          "indexed": false,
          "internalType": "bytes[]",
          "name": "calldatas",
          "type": "bytes[]"
        },
        {
          "indexed": false,
          "internalType": "uint256",
          "name": "voteStart",
          "type": "uint256"
        },
        {
          "indexed": false,
          "internalType": "uint256",
          "name": "voteEnd",
          "type": "uint256"
        },
        {
          "indexed": false,
          "internalType": "string",
          "name": "description",
          "type": "string"
        }
      ],
      "name": "ProposalCreated",
      "type": "event"
    },
    {
      "anonymous": false,
      "inputs": [
        {
          "indexed": false,
          "internalType": "uint256",
          "name": "proposalId",
          "type": "uint256"
        }
      ],
      "name": "ProposalExecuted",
      "type": "event"
    },
    {
      "anonymous": false,
      "inputs": [
        {
          "indexed": false,
          "internalType": "uint256",
          "name": "proposalId",
          "type": "uint256"
        },
        {
          "indexed": false,
          "internalType": "uint256",
          "name": "etaSeconds",
          "type": "uint256"
        }
      ],
      "name": "ProposalQueued",
      "type": "event"
    },
    {
      "anonymous": false,
      "inputs": [
        {
          "indexed": false,
          "internalType": "uint256",
          "name": "oldProposalThreshold",
          "type": "uint256"
        },
        {
          "indexed": false,
          "internalType": "uint256",
          "name": "newProposalThreshold",
          "type": "uint256"
        }
      ],
      "name": "ProposalThresholdSet",
      "type": "event"
    },
    {
      "anonymous": false,
      "inputs": [
        {
          "indexed": false,
          "internalType": "uint256",
          "name": "newBasisPoints",
          "type": "uint256"
        }
      ],
      "name": "QuorumPercentageChanged",
      "type": "event"
    },
    {
      "anonymous": false,
      "inputs": [
        {
          "indexed": true,
          "internalType": "address",
          "name": "user",
          "type": "address"
        },
        {
          "indexed": false,
          "internalType": "int256",
          "name": "newReputation",
          "type": "int256"
        },
        {
          "indexed": false,
          "internalType": "int256",
          "name": "delta",
          "type": "int256"
        }
      ],
      "name": "ReputationChanged",
      "type": "event"
    },
    {
      "anonymous": false,
      "inputs": [
        {
          "indexed": false,
          "internalType": "uint256",
          "name": "newBasisPoints",
          "type": "uint256"
        },
        {
          "indexed": false,
          "internalType": "address",
          "name": "sender",
          "type": "address"
        }
      ],
      "name": "SetQuorumAttempt",
      "type": "event"
    },
    {
      "anonymous": false,
      "inputs": [
        {
          "indexed": false,
          "internalType": "address",
          "name": "oldTimelock",
          "type": "address"
        },
        {
          "indexed": false,
          "internalType": "address",
          "name": "newTimelock",
          "type": "address"
        }
      ],
      "name": "TimelockChange",
      "type": "event"
    },
    {
      "anonymous": false,
      "inputs": [
        {
          "indexed": true,
          "internalType": "address",
          "name": "user",
          "type": "address"
        },
        {
          "indexed": false,
          "internalType": "uint256",
          "name": "tokens",
          "type": "uint256"
        },
        {
          "indexed": false,
          "internalType": "enum ProtocolGovernor.ActionType",
          "name": "action",
          "type": "uint8"
        },
        {
          "indexed": false,
          "internalType": "address",
          "name": "asset",
          "type": "address"
        },
        {
          "indexed": false,
          "internalType": "uint256",
          "name": "amount",
          "type": "uint256"
        },
        {
          "indexed": false,
          "internalType": "uint256",
          "name": "usdValue",
          "type": "uint256"
        }
      ],
      "name": "TokensGranted",
      "type": "event"
    },
    {
      "anonymous": false,
      "inputs": [
        {
          "indexed": true,
          "internalType": "address",
          "name": "voter",
          "type": "address"
        },
        {
          "indexed": false,
          "internalType": "uint256",
          "name": "proposalId",
          "type": "uint256"
        },
        {
          "indexed": false,
          "internalType": "uint8",
          "name": "support",
          "type": "uint8"
        },
        {
          "indexed": false,
          "internalType": "uint256",
          "name": "weight",
          "type": "uint256"
        },
        {
          "indexed": false,
          "internalType": "string",
          "name": "reason",
          "type": "string"
        }
      ],
      "name": "VoteCast",
      "type": "event"
    },
    {
      "anonymous": false,
      "inputs": [
        {
          "indexed": true,
          "internalType": "address",
          "name": "voter",
          "type": "address"
        },
        {
          "indexed": false,
          "internalType": "uint256",
          "name": "proposalId",
          "type": "uint256"
        },
        {
          "indexed": false,
          "internalType": "uint8",
          "name": "support",
          "type": "uint8"
        },
        {
          "indexed": false,
          "internalType": "uint256",
          "name": "weight",
          "type": "uint256"
        },
        {
          "indexed": false,
          "internalType": "string",
          "name": "reason",
          "type": "string"
        },
        {
          "indexed": false,
          "internalType": "bytes",
          "name": "params",
          "type": "bytes"
        }
      ],
      "name": "VoteCastWithParams",
      "type": "event"
    },
    {
      "anonymous": false,
      "inputs": [
        {
          "indexed": false,
          "internalType": "uint256",
          "name": "oldVotingDelay",
          "type": "uint256"
        },
        {
          "indexed": false,
          "internalType": "uint256",
          "name": "newVotingDelay",
          "type": "uint256"
        }
      ],
      "name": "VotingDelaySet",
      "type": "event"
    },
    {
      "anonymous": false,
      "inputs": [
        {
          "indexed": false,
          "internalType": "uint256",
          "name": "oldVotingPeriod",
          "type": "uint256"
        },
        {
          "indexed": false,
          "internalType": "uint256",
          "name": "newVotingPeriod",
          "type": "uint256"
        }
      ],
      "name": "VotingPeriodSet",
      "type": "event"
    },
    {
      "inputs": [],
      "name": "APPROVAL_THRESHOLD",
      "outputs": [
        {
          "internalType": "uint256",
          "name": "",
          "type": "uint256"
        }
      ],
      "stateMutability": "view",
      "type": "function"
    },
    {
      "inputs": [],
      "name": "BALLOT_TYPEHASH",
      "outputs": [
        {
          "internalType": "bytes32",
          "name": "",
          "type": "bytes32"
        }
      ],
      "stateMutability": "view",
      "type": "function"
    },
    {
      "inputs": [],
      "name": "CLOCK_MODE",
      "outputs": [
        {
          "internalType": "string",
          "name": "",
          "type": "string"
        }
      ],
      "stateMutability": "view",
      "type": "function"
    },
    {
      "inputs": [],
      "name": "COUNTING_MODE",
      "outputs": [
        {
          "internalType": "string",
          "name": "",
          "type": "string"
        }
      ],
      "stateMutability": "pure",
      "type": "function"
    },
    {
      "inputs": [],
      "name": "EXECUTION_DELAY",
      "outputs": [
        {
          "internalType": "uint256",
          "name": "",
          "type": "uint256"
        }
      ],
      "stateMutability": "view",
      "type": "function"
    },
    {
      "inputs": [],
      "name": "EXTENDED_BALLOT_TYPEHASH",
      "outputs": [
        {
          "internalType": "bytes32",
          "name": "",
          "type": "bytes32"
        }
      ],
      "stateMutability": "view",
      "type": "function"
    },
    {
      "inputs": [],
      "name": "QUORUM",
      "outputs": [
        {
          "internalType": "uint256",
          "name": "",
          "type": "uint256"
        }
      ],
      "stateMutability": "view",
      "type": "function"
    },
    {
      "inputs": [],
      "name": "VOTING_PERIOD",
      "outputs": [
        {
          "internalType": "uint256",
          "name": "",
          "type": "uint256"
        }
      ],
      "stateMutability": "view",
      "type": "function"
    },
    {
      "inputs": [
        {
          "internalType": "address",
          "name": "",
          "type": "address"
        }
      ],
      "name": "allowedContracts",
      "outputs": [
        {
          "internalType": "bool",
          "name": "",
          "type": "bool"
        }
      ],
      "stateMutability": "view",
      "type": "function"
    },
    {
      "inputs": [],
      "name": "bootstrapMode",
      "outputs": [
        {
          "internalType": "bool",
          "name": "",
          "type": "bool"
        }
      ],
      "stateMutability": "view",
      "type": "function"
    },
    {
      "inputs": [],
      "name": "bootstrapQuorum",
      "outputs": [
        {
          "internalType": "uint256",
          "name": "",
          "type": "uint256"
        }
      ],
      "stateMutability": "view",
      "type": "function"
    },
    {
      "inputs": [],
      "name": "borrowMultiplier",
      "outputs": [
        {
          "internalType": "uint256",
          "name": "",
          "type": "uint256"
        }
      ],
      "stateMutability": "view",
      "type": "function"
    },
    {
      "inputs": [
        {
          "internalType": "address[]",
          "name": "targets",
          "type": "address[]"
        },
        {
          "internalType": "uint256[]",
          "name": "values",
          "type": "uint256[]"
        },
        {
          "internalType": "bytes[]",
          "name": "calldatas",
          "type": "bytes[]"
        },
        {
          "internalType": "bytes32",
          "name": "descriptionHash",
          "type": "bytes32"
        }
      ],
      "name": "cancel",
      "outputs": [
        {
          "internalType": "uint256",
          "name": "",
          "type": "uint256"
        }
      ],
      "stateMutability": "nonpayable",
      "type": "function"
    },
    {
      "inputs": [
        {
          "internalType": "uint256",
          "name": "proposalId",
          "type": "uint256"
        },
        {
          "internalType": "uint8",
          "name": "support",
          "type": "uint8"
        }
      ],
      "name": "castVote",
      "outputs": [
        {
          "internalType": "uint256",
          "name": "",
          "type": "uint256"
        }
      ],
      "stateMutability": "nonpayable",
      "type": "function"
    },
    {
      "inputs": [
        {
          "internalType": "uint256",
          "name": "proposalId",
          "type": "uint256"
        },
        {
          "internalType": "uint8",
          "name": "support",
          "type": "uint8"
        },
        {
          "internalType": "address",
          "name": "voter",
          "type": "address"
        },
        {
          "internalType": "bytes",
          "name": "signature",
          "type": "bytes"
        }
      ],
      "name": "castVoteBySig",
      "outputs": [
        {
          "internalType": "uint256",
          "name": "",
          "type": "uint256"
        }
      ],
      "stateMutability": "nonpayable",
      "type": "function"
    },
    {
      "inputs": [
        {
          "internalType": "uint256",
          "name": "proposalId",
          "type": "uint256"
        },
        {
          "internalType": "uint8",
          "name": "support",
          "type": "uint8"
        },
        {
          "internalType": "string",
          "name": "reason",
          "type": "string"
        }
      ],
      "name": "castVoteWithReason",
      "outputs": [
        {
          "internalType": "uint256",
          "name": "",
          "type": "uint256"
        }
      ],
      "stateMutability": "nonpayable",
      "type": "function"
    },
    {
      "inputs": [
        {
          "internalType": "uint256",
          "name": "proposalId",
          "type": "uint256"
        },
        {
          "internalType": "uint8",
          "name": "support",
          "type": "uint8"
        },
        {
          "internalType": "string",
          "name": "reason",
          "type": "string"
        },
        {
          "internalType": "bytes",
          "name": "params",
          "type": "bytes"
        }
      ],
      "name": "castVoteWithReasonAndParams",
      "outputs": [
        {
          "internalType": "uint256",
          "name": "",
          "type": "uint256"
        }
      ],
      "stateMutability": "nonpayable",
      "type": "function"
    },
    {
      "inputs": [
        {
          "internalType": "uint256",
          "name": "proposalId",
          "type": "uint256"
        },
        {
          "internalType": "uint8",
          "name": "support",
          "type": "uint8"
        },
        {
          "internalType": "address",
          "name": "voter",
          "type": "address"
        },
        {
          "internalType": "string",
          "name": "reason",
          "type": "string"
        },
        {
          "internalType": "bytes",
          "name": "params",
          "type": "bytes"
        },
        {
          "internalType": "bytes",
          "name": "signature",
          "type": "bytes"
        }
      ],
      "name": "castVoteWithReasonAndParamsBySig",
      "outputs": [
        {
          "internalType": "uint256",
          "name": "",
          "type": "uint256"
        }
      ],
      "stateMutability": "nonpayable",
      "type": "function"
    },
    {
      "inputs": [],
      "name": "clock",
      "outputs": [
        {
          "internalType": "uint48",
          "name": "",
          "type": "uint48"
        }
      ],
      "stateMutability": "view",
      "type": "function"
    },
    {
      "inputs": [
        {
          "internalType": "address",
          "name": "",
          "type": "address"
        }
      ],
      "name": "contractWhitelist",
      "outputs": [
        {
          "internalType": "bool",
          "name": "",
          "type": "bool"
        }
      ],
      "stateMutability": "view",
      "type": "function"
    },
    {
      "inputs": [],
      "name": "disableBootstrapMode",
      "outputs": [],
      "stateMutability": "nonpayable",
      "type": "function"
    },
    {
      "inputs": [],
      "name": "eip712Domain",
      "outputs": [
        {
          "internalType": "bytes1",
          "name": "fields",
          "type": "bytes1"
        },
        {
          "internalType": "string",
          "name": "name",
          "type": "string"
        },
        {
          "internalType": "string",
          "name": "version",
          "type": "string"
        },
        {
          "internalType": "uint256",
          "name": "chainId",
          "type": "uint256"
        },
        {
          "internalType": "address",
          "name": "verifyingContract",
          "type": "address"
        },
        {
          "internalType": "bytes32",
          "name": "salt",
          "type": "bytes32"
        },
        {
          "internalType": "uint256[]",
          "name": "extensions",
          "type": "uint256[]"
        }
      ],
      "stateMutability": "view",
      "type": "function"
    },
    {
      "inputs": [
        {
          "internalType": "uint256",
          "name": "",
          "type": "uint256"
        }
      ],
      "name": "emergencyMultisig",
      "outputs": [
        {
          "internalType": "address",
          "name": "",
          "type": "address"
        }
      ],
      "stateMutability": "view",
      "type": "function"
    },
    {
      "inputs": [
        {
          "internalType": "address[]",
          "name": "targets",
          "type": "address[]"
        },
        {
          "internalType": "uint256[]",
          "name": "values",
          "type": "uint256[]"
        },
        {
          "internalType": "bytes[]",
          "name": "calldatas",
          "type": "bytes[]"
        },
        {
          "internalType": "bytes32",
          "name": "descriptionHash",
          "type": "bytes32"
        }
      ],
      "name": "execute",
      "outputs": [
        {
          "internalType": "uint256",
          "name": "",
          "type": "uint256"
        }
      ],
      "stateMutability": "payable",
      "type": "function"
    },
    {
      "inputs": [
        {
          "internalType": "uint256",
          "name": "proposalId",
          "type": "uint256"
        }
      ],
      "name": "executeAdvancedProposal",
      "outputs": [],
      "stateMutability": "nonpayable",
      "type": "function"
    },
    {
      "inputs": [
        {
          "internalType": "address",
          "name": "",
          "type": "address"
        }
      ],
      "name": "fallbackPriceFeeds",
      "outputs": [
        {
          "internalType": "address",
          "name": "",
          "type": "address"
        }
      ],
      "stateMutability": "view",
      "type": "function"
    },
    {
      "inputs": [
        {
          "internalType": "address[]",
          "name": "targets",
          "type": "address[]"
        },
        {
          "internalType": "uint256[]",
          "name": "values",
          "type": "uint256[]"
        },
        {
          "internalType": "bytes[]",
          "name": "calldatas",
          "type": "bytes[]"
        },
        {
          "internalType": "bytes32",
          "name": "descriptionHash",
          "type": "bytes32"
        }
      ],
      "name": "getProposalId",
      "outputs": [
        {
          "internalType": "uint256",
          "name": "",
          "type": "uint256"
        }
      ],
      "stateMutability": "view",
      "type": "function"
    },
    {
      "inputs": [
        {
          "internalType": "address",
          "name": "user",
          "type": "address"
        }
      ],
      "name": "getReputation",
      "outputs": [
        {
          "internalType": "int256",
          "name": "",
          "type": "int256"
        }
      ],
      "stateMutability": "view",
      "type": "function"
    },
    {
      "inputs": [
        {
          "internalType": "address",
          "name": "account",
          "type": "address"
        },
        {
          "internalType": "uint256",
          "name": "timepoint",
          "type": "uint256"
        }
      ],
      "name": "getVotes",
      "outputs": [
        {
          "internalType": "uint256",
          "name": "",
          "type": "uint256"
        }
      ],
      "stateMutability": "view",
      "type": "function"
    },
    {
      "inputs": [
        {
          "internalType": "address",
          "name": "account",
          "type": "address"
        },
        {
          "internalType": "uint256",
          "name": "timepoint",
          "type": "uint256"
        },
        {
          "internalType": "bytes",
          "name": "params",
          "type": "bytes"
        }
      ],
      "name": "getVotesWithParams",
      "outputs": [
        {
          "internalType": "uint256",
          "name": "",
          "type": "uint256"
        }
      ],
      "stateMutability": "view",
      "type": "function"
    },
    {
      "inputs": [
        {
          "internalType": "address",
          "name": "user",
          "type": "address"
        }
      ],
      "name": "getVotingPower",
      "outputs": [
        {
          "internalType": "uint256",
          "name": "",
          "type": "uint256"
        }
      ],
      "stateMutability": "view",
      "type": "function"
    },
    {
      "inputs": [
        {
          "internalType": "address",
          "name": "user",
          "type": "address"
        },
        {
          "internalType": "address",
          "name": "asset",
          "type": "address"
        },
        {
          "internalType": "uint256",
          "name": "amount",
          "type": "uint256"
        },
        {
          "internalType": "enum ProtocolGovernor.ActionType",
          "name": "action",
          "type": "uint8"
        }
      ],
      "name": "grantTokens",
      "outputs": [],
      "stateMutability": "nonpayable",
      "type": "function"
    },
    {
      "inputs": [
        {
          "internalType": "uint256",
          "name": "proposalId",
          "type": "uint256"
        },
        {
          "internalType": "address",
          "name": "account",
          "type": "address"
        }
      ],
      "name": "hasVoted",
      "outputs": [
        {
          "internalType": "bool",
          "name": "",
          "type": "bool"
        }
      ],
      "stateMutability": "view",
      "type": "function"
    },
    {
      "inputs": [
        {
          "internalType": "address[]",
          "name": "targets",
          "type": "address[]"
        },
        {
          "internalType": "uint256[]",
          "name": "values",
          "type": "uint256[]"
        },
        {
          "internalType": "bytes[]",
          "name": "calldatas",
          "type": "bytes[]"
        },
        {
          "internalType": "bytes32",
          "name": "descriptionHash",
          "type": "bytes32"
        }
      ],
      "name": "hashProposal",
      "outputs": [
        {
          "internalType": "uint256",
          "name": "",
          "type": "uint256"
        }
      ],
      "stateMutability": "pure",
      "type": "function"
    },
    {
      "inputs": [
        {
          "internalType": "address",
          "name": "signer",
          "type": "address"
        }
      ],
      "name": "isMultisig",
      "outputs": [
        {
          "internalType": "bool",
          "name": "",
          "type": "bool"
        }
      ],
      "stateMutability": "view",
      "type": "function"
    },
    {
      "inputs": [],
      "name": "lendMultiplier",
      "outputs": [
        {
          "internalType": "uint256",
          "name": "",
          "type": "uint256"
        }
      ],
      "stateMutability": "view",
      "type": "function"
    },
    {
      "inputs": [],
      "name": "name",
      "outputs": [
        {
          "internalType": "string",
          "name": "",
          "type": "string"
        }
      ],
      "stateMutability": "view",
      "type": "function"
    },
    {
      "inputs": [
        {
          "internalType": "address",
          "name": "owner",
          "type": "address"
        }
      ],
      "name": "nonces",
      "outputs": [
        {
          "internalType": "uint256",
          "name": "",
          "type": "uint256"
        }
      ],
      "stateMutability": "view",
      "type": "function"
    },
    {
      "inputs": [
        {
          "internalType": "address",
          "name": "",
          "type": "address"
        },
        {
          "internalType": "address",
          "name": "",
          "type": "address"
        },
        {
          "internalType": "uint256[]",
          "name": "",
          "type": "uint256[]"
        },
        {
          "internalType": "uint256[]",
          "name": "",
          "type": "uint256[]"
        },
        {
          "internalType": "bytes",
          "name": "",
          "type": "bytes"
        }
      ],
      "name": "onERC1155BatchReceived",
      "outputs": [
        {
          "internalType": "bytes4",
          "name": "",
          "type": "bytes4"
        }
      ],
      "stateMutability": "nonpayable",
      "type": "function"
    },
    {
      "inputs": [
        {
          "internalType": "address",
          "name": "",
          "type": "address"
        },
        {
          "internalType": "address",
          "name": "",
          "type": "address"
        },
        {
          "internalType": "uint256",
          "name": "",
          "type": "uint256"
        },
        {
          "internalType": "uint256",
          "name": "",
          "type": "uint256"
        },
        {
          "internalType": "bytes",
          "name": "",
          "type": "bytes"
        }
      ],
      "name": "onERC1155Received",
      "outputs": [
        {
          "internalType": "bytes4",
          "name": "",
          "type": "bytes4"
        }
      ],
      "stateMutability": "nonpayable",
      "type": "function"
    },
    {
      "inputs": [
        {
          "internalType": "address",
          "name": "",
          "type": "address"
        },
        {
          "internalType": "address",
          "name": "",
          "type": "address"
        },
        {
          "internalType": "uint256",
          "name": "",
          "type": "uint256"
        },
        {
          "internalType": "bytes",
          "name": "",
          "type": "bytes"
        }
      ],
      "name": "onERC721Received",
      "outputs": [
        {
          "internalType": "bytes4",
          "name": "",
          "type": "bytes4"
        }
      ],
      "stateMutability": "nonpayable",
      "type": "function"
    },
    {
      "inputs": [
        {
          "internalType": "address",
          "name": "user",
          "type": "address"
        },
        {
          "internalType": "int256",
          "name": "amount",
          "type": "int256"
        }
      ],
      "name": "penalizeReputation",
      "outputs": [],
      "stateMutability": "nonpayable",
      "type": "function"
    },
    {
      "inputs": [
        {
          "internalType": "address",
          "name": "",
          "type": "address"
        }
      ],
      "name": "priceFeeds",
      "outputs": [
        {
          "internalType": "address",
          "name": "",
          "type": "address"
        }
      ],
      "stateMutability": "view",
      "type": "function"
    },
    {
      "inputs": [],
      "name": "proposalCount",
      "outputs": [
        {
          "internalType": "uint256",
          "name": "",
          "type": "uint256"
        }
      ],
      "stateMutability": "view",
      "type": "function"
    },
    {
      "inputs": [
        {
          "internalType": "uint256",
          "name": "proposalId",
          "type": "uint256"
        }
      ],
      "name": "proposalDeadline",
      "outputs": [
        {
          "internalType": "uint256",
          "name": "",
          "type": "uint256"
        }
      ],
      "stateMutability": "view",
      "type": "function"
    },
    {
      "inputs": [
        {
          "internalType": "uint256",
          "name": "proposalId",
          "type": "uint256"
        }
      ],
      "name": "proposalEta",
      "outputs": [
        {
          "internalType": "uint256",
          "name": "",
          "type": "uint256"
        }
      ],
      "stateMutability": "view",
      "type": "function"
    },
    {
      "inputs": [
        {
          "internalType": "uint256",
          "name": "proposalId",
          "type": "uint256"
        }
      ],
      "name": "proposalNeedsQueuing",
      "outputs": [
        {
          "internalType": "bool",
          "name": "",
          "type": "bool"
        }
      ],
      "stateMutability": "view",
      "type": "function"
    },
    {
      "inputs": [
        {
          "internalType": "uint256",
          "name": "proposalId",
          "type": "uint256"
        }
      ],
      "name": "proposalProposer",
      "outputs": [
        {
          "internalType": "address",
          "name": "",
          "type": "address"
        }
      ],
      "stateMutability": "view",
      "type": "function"
    },
    {
      "inputs": [
        {
          "internalType": "uint256",
          "name": "proposalId",
          "type": "uint256"
        }
      ],
      "name": "proposalSnapshot",
      "outputs": [
        {
          "internalType": "uint256",
          "name": "",
          "type": "uint256"
        }
      ],
      "stateMutability": "view",
      "type": "function"
    },
    {
      "inputs": [],
      "name": "proposalThreshold",
      "outputs": [
        {
          "internalType": "uint256",
          "name": "",
          "type": "uint256"
        }
      ],
      "stateMutability": "view",
      "type": "function"
    },
    {
      "inputs": [
        {
          "internalType": "uint256",
          "name": "proposalId",
          "type": "uint256"
        }
      ],
      "name": "proposalVotes",
      "outputs": [
        {
          "internalType": "uint256",
          "name": "againstVotes",
          "type": "uint256"
        },
        {
          "internalType": "uint256",
          "name": "forVotes",
          "type": "uint256"
        },
        {
          "internalType": "uint256",
          "name": "abstainVotes",
          "type": "uint256"
        }
      ],
      "stateMutability": "view",
      "type": "function"
    },
    {
      "inputs": [
        {
          "internalType": "uint256",
          "name": "",
          "type": "uint256"
        }
      ],
      "name": "proposals",
      "outputs": [
        {
          "internalType": "address",
          "name": "targetContract",
          "type": "address"
        },
        {
          "internalType": "bytes4",
          "name": "functionSelector",
          "type": "bytes4"
        },
        {
          "internalType": "bytes",
          "name": "encodedParams",
          "type": "bytes"
        },
        {
          "internalType": "uint256",
          "name": "minVotesNeeded",
          "type": "uint256"
        },
        {
          "internalType": "uint256",
          "name": "startTime",
          "type": "uint256"
        },
        {
          "internalType": "uint256",
          "name": "endTime",
          "type": "uint256"
        },
        {
          "internalType": "uint256",
          "name": "executeAfter",
          "type": "uint256"
        },
        {
          "internalType": "bool",
          "name": "executed",
          "type": "bool"
        },
        {
          "internalType": "uint256",
          "name": "yesVotes",
          "type": "uint256"
        },
        {
          "internalType": "uint256",
          "name": "noVotes",
          "type": "uint256"
        },
        {
          "internalType": "bool",
          "name": "queued",
          "type": "bool"
        }
      ],
      "stateMutability": "view",
      "type": "function"
    },
    {
      "inputs": [
        {
          "internalType": "address[]",
          "name": "targets",
          "type": "address[]"
        },
        {
          "internalType": "uint256[]",
          "name": "values",
          "type": "uint256[]"
        },
        {
          "internalType": "bytes[]",
          "name": "calldatas",
          "type": "bytes[]"
        },
        {
          "internalType": "string",
          "name": "description",
          "type": "string"
        }
      ],
      "name": "propose",
      "outputs": [
        {
          "internalType": "uint256",
          "name": "",
          "type": "uint256"
        }
      ],
      "stateMutability": "nonpayable",
      "type": "function"
    },
    {
      "inputs": [
        {
          "internalType": "address",
          "name": "targetContract",
          "type": "address"
        },
        {
          "internalType": "bytes4",
          "name": "functionSelector",
          "type": "bytes4"
        },
        {
          "internalType": "bytes",
          "name": "encodedParams",
          "type": "bytes"
        },
        {
          "internalType": "uint256",
          "name": "minVotesNeeded",
          "type": "uint256"
        }
      ],
      "name": "proposeAdvanced",
      "outputs": [],
      "stateMutability": "nonpayable",
      "type": "function"
    },
    {
      "inputs": [
        {
          "internalType": "address[]",
          "name": "targets",
          "type": "address[]"
        },
        {
          "internalType": "uint256[]",
          "name": "values",
          "type": "uint256[]"
        },
        {
          "internalType": "bytes[]",
          "name": "calldatas",
          "type": "bytes[]"
        },
        {
          "internalType": "bytes32",
          "name": "descriptionHash",
          "type": "bytes32"
        }
      ],
      "name": "queue",
      "outputs": [
        {
          "internalType": "uint256",
          "name": "",
          "type": "uint256"
        }
      ],
      "stateMutability": "nonpayable",
      "type": "function"
    },
    {
      "inputs": [
        {
          "internalType": "uint256",
          "name": "proposalId",
          "type": "uint256"
        }
      ],
      "name": "queueAdvancedProposal",
      "outputs": [],
      "stateMutability": "nonpayable",
      "type": "function"
    },
    {
      "inputs": [
        {
          "internalType": "uint256",
          "name": "",
          "type": "uint256"
        }
      ],
      "name": "quorum",
      "outputs": [
        {
          "internalType": "uint256",
          "name": "",
          "type": "uint256"
        }
      ],
      "stateMutability": "view",
      "type": "function"
    },
    {
      "inputs": [],
      "name": "quorumPercentage",
      "outputs": [
        {
          "internalType": "uint256",
          "name": "",
          "type": "uint256"
        }
      ],
      "stateMutability": "view",
      "type": "function"
    },
    {
      "inputs": [
        {
          "internalType": "address",
          "name": "target",
          "type": "address"
        },
        {
          "internalType": "uint256",
          "name": "value",
          "type": "uint256"
        },
        {
          "internalType": "bytes",
          "name": "data",
          "type": "bytes"
        }
      ],
      "name": "relay",
      "outputs": [],
      "stateMutability": "payable",
      "type": "function"
    },
    {
      "inputs": [],
      "name": "repayMultiplier",
      "outputs": [
        {
          "internalType": "uint256",
          "name": "",
          "type": "uint256"
        }
      ],
      "stateMutability": "view",
      "type": "function"
    },
    {
      "inputs": [
        {
          "internalType": "address",
          "name": "",
          "type": "address"
        }
      ],
      "name": "reputation",
      "outputs": [
        {
          "internalType": "int256",
          "name": "",
          "type": "int256"
        }
      ],
      "stateMutability": "view",
      "type": "function"
    },
    {
      "inputs": [
        {
          "internalType": "address",
          "name": "contractAddr",
          "type": "address"
        },
        {
          "internalType": "bool",
          "name": "allowed",
          "type": "bool"
        }
      ],
      "name": "setAllowedContract",
      "outputs": [],
      "stateMutability": "nonpayable",
      "type": "function"
    },
    {
      "inputs": [
        {
          "internalType": "address",
          "name": "contractAddr",
          "type": "address"
        },
        {
          "internalType": "bool",
          "name": "allowed",
          "type": "bool"
        }
      ],
      "name": "setContractWhitelist",
      "outputs": [],
      "stateMutability": "nonpayable",
      "type": "function"
    },
    {
      "inputs": [
        {
          "internalType": "address[]",
          "name": "signers",
          "type": "address[]"
        }
      ],
      "name": "setEmergencyMultisig",
      "outputs": [],
      "stateMutability": "nonpayable",
      "type": "function"
    },
    {
      "inputs": [
        {
          "internalType": "address",
          "name": "asset",
          "type": "address"
        },
        {
          "internalType": "address",
          "name": "feed",
          "type": "address"
        }
      ],
      "name": "setFallbackPriceFeed",
      "outputs": [],
      "stateMutability": "nonpayable",
      "type": "function"
    },
    {
      "inputs": [
        {
          "internalType": "uint256",
          "name": "lend",
          "type": "uint256"
        },
        {
          "internalType": "uint256",
          "name": "borrow",
          "type": "uint256"
        },
        {
          "internalType": "uint256",
          "name": "repay",
          "type": "uint256"
        }
      ],
      "name": "setMultipliers",
      "outputs": [],
      "stateMutability": "nonpayable",
      "type": "function"
    },
    {
      "inputs": [
        {
          "internalType": "address",
          "name": "asset",
          "type": "address"
        },
        {
          "internalType": "address",
          "name": "feed",
          "type": "address"
        }
      ],
      "name": "setPriceFeed",
      "outputs": [],
      "stateMutability": "nonpayable",
      "type": "function"
    },
    {
      "inputs": [
        {
          "internalType": "uint256",
          "name": "newProposalThreshold",
          "type": "uint256"
        }
      ],
      "name": "setProposalThreshold",
      "outputs": [],
      "stateMutability": "nonpayable",
      "type": "function"
    },
    {
      "inputs": [
        {
          "internalType": "uint256",
          "name": "newBasisPoints",
          "type": "uint256"
        }
      ],
      "name": "setQuorumPercentage",
      "outputs": [],
      "stateMutability": "nonpayable",
      "type": "function"
    },
    {
      "inputs": [
        {
          "internalType": "uint48",
          "name": "newVotingDelay",
          "type": "uint48"
        }
      ],
      "name": "setVotingDelay",
      "outputs": [],
      "stateMutability": "nonpayable",
      "type": "function"
    },
    {
      "inputs": [
        {
          "internalType": "uint32",
          "name": "newVotingPeriod",
          "type": "uint32"
        }
      ],
      "name": "setVotingPeriod",
      "outputs": [],
      "stateMutability": "nonpayable",
      "type": "function"
    },
    {
      "inputs": [
        {
          "internalType": "uint256",
          "name": "proposalId",
          "type": "uint256"
        }
      ],
      "name": "state",
      "outputs": [
        {
          "internalType": "enum IGovernor.ProposalState",
          "name": "",
          "type": "uint8"
        }
      ],
      "stateMutability": "view",
      "type": "function"
    },
    {
      "inputs": [
        {
          "internalType": "bytes4",
          "name": "interfaceId",
          "type": "bytes4"
        }
      ],
      "name": "supportsInterface",
      "outputs": [
        {
          "internalType": "bool",
          "name": "",
          "type": "bool"
        }
      ],
      "stateMutability": "view",
      "type": "function"
    },
    {
      "inputs": [],
      "name": "timelock",
      "outputs": [
        {
          "internalType": "address",
          "name": "",
          "type": "address"
        }
      ],
      "stateMutability": "view",
      "type": "function"
    },
    {
      "inputs": [
        {
          "internalType": "contract TimelockController",
          "name": "newTimelock",
          "type": "address"
        }
      ],
      "name": "updateTimelock",
      "outputs": [],
      "stateMutability": "nonpayable",
      "type": "function"
    },
    {
      "inputs": [],
      "name": "version",
      "outputs": [
        {
          "internalType": "string",
          "name": "",
          "type": "string"
        }
      ],
      "stateMutability": "view",
      "type": "function"
    },
    {
      "inputs": [
        {
          "internalType": "uint256",
          "name": "proposalId",
          "type": "uint256"
        }
      ],
      "name": "vetoAdvanced",
      "outputs": [],
      "stateMutability": "nonpayable",
      "type": "function"
    },
    {
      "inputs": [
        {
          "internalType": "uint256",
          "name": "",
          "type": "uint256"
        }
      ],
      "name": "vetoSignatures",
      "outputs": [
        {
          "internalType": "uint256",
          "name": "",
          "type": "uint256"
        }
      ],
      "stateMutability": "view",
      "type": "function"
    },
    {
      "inputs": [
        {
          "internalType": "uint256",
          "name": "proposalId",
          "type": "uint256"
        },
        {
          "internalType": "bool",
          "name": "support",
          "type": "bool"
        }
      ],
      "name": "voteAdvanced",
      "outputs": [],
      "stateMutability": "nonpayable",
      "type": "function"
    },
    {
      "inputs": [],
      "name": "votingDelay",
      "outputs": [
        {
          "internalType": "uint256",
          "name": "",
          "type": "uint256"
        }
      ],
      "stateMutability": "view",
      "type": "function"
    },
    {
      "inputs": [],
      "name": "votingPeriod",
      "outputs": [
        {
          "internalType": "uint256",
          "name": "",
          "type": "uint256"
        }
      ],
      "stateMutability": "view",
      "type": "function"
    },
    {
      "inputs": [],
      "name": "votingToken",
      "outputs": [
        {
          "internalType": "contract VotingToken",
          "name": "",
          "type": "address"
        }
      ],
      "stateMutability": "view",
      "type": "function"
    },
    {
      "stateMutability": "payable",
      "type": "receive"
    }
  ],
  "bytecode": "0x610160806040523461046b576040816158d680380380916100208285610470565b83398101031261046b5780516001600160a01b038116919082900361046b57602001516001600160a01b038116919082900361046b5760405191610065604084610470565b60108352602083016f283937ba37b1b7b623b7bb32b93737b960811b815260405190610092604083610470565b600182526020820190603160f81b82526100ab86610493565b610120526100b88361063f565b6101405285519020918260e05251902080610100524660a0526040519060208201927f8b73c3c69bb8fe3d512ecc4cf759cc79239f7b179b0ffacaa9a75d522b39400f8452604083015260608201524660808201523060a082015260a0815261012260c082610470565b5190206080523060c05282516001600160401b03811161045557600354600181811c9116801561044b575b602082101461043557601f81116103d0575b506020601f8211600114610369578192939460009261035e575b50508160011b916000199060031b1c1916176003555b663c00000000003c6008547fc565b045403dc03c2eea82b81a0465edad9e2e7fc4d97e11421c209da93d7a936040805165ffffffffffff84168152603c6020820152a17f7e3f7f0708a84de9203036abaa450dccc85ad5ff52f78c170f3edb55cf5e88286040805163ffffffff603c65ffffffffffff1986161760301c168152603c6020820152a16001600160501b0319161760085560075460408051918252600060208301527fccb45da8d5717e6c4544694297c4ba5cf151d455c9bb0ed4fc7a38411bc0546191a16000600755600a54604080516001600160a01b0383168152602081018490527f08f74ea46ef7894f65eabfb5e6e695de773a000b47c529ab559178069b2264019190a160018060a01b03191617600a556001600d55600160ff19600e541617600e556064600f556714d1120d7b1600006011556709b6e64a8ec60000601255670de0b6b3a764000060135560018060a01b0319600c541617600c553060005260196020526040600020600160ff198254161790556040516150f890816107de823960805181614b1c015260a05181614bd3015260c05181614ae6015260e05181614b6b01526101005181614b91015261012051816110c0015261014051816110ea0152f35b015190503880610179565b601f198216906003600052806000209160005b8181106103b85750958360019596971061039f575b505050811b0160035561018f565b015160001960f88460031b161c19169055388080610391565b9192602060018192868b01518155019401920161037c565b60036000527fc2575a0e9e593c00f959f8c92f12db2869c3395a3b0502d05e2516446f71f85b601f830160051c8101916020841061042b575b601f0160051c01905b81811061041f575061015f565b60008155600101610412565b9091508190610409565b634e487b7160e01b600052602260045260246000fd5b90607f169061014d565b634e487b7160e01b600052604160045260246000fd5b600080fd5b601f909101601f19168101906001600160401b0382119082101761045557604052565b9081516020811060001461052b575090601f8151116104cf5760208151910151602082106104bf571790565b6000198260200360031b1b161790565b6040519063305a27a960e01b8252602060048301528181519182602483015260005b8381106105135750508160006044809484010152601f80199101168101030190fd5b602082820181015160448784010152859350016104f1565b6001600160401b03811161045557600054600181811c91168015610635575b602082101461043557601f8111610600575b50602092601f821160011461059c5792819293600092610591575b50508160011b916000199060031b1c19161760005560ff90565b015190503880610577565b601f1982169360008052806000209160005b8681106105e857508360019596106105cf575b505050811b0160005560ff90565b015160001960f88460031b161c191690553880806105c1565b919260206001819286850151815501940192016105ae565b60008052601f6020600020910160051c810190601f830160051c015b818110610629575061055c565b6000815560010161061c565b90607f169061054a565b908151602081106000146106c7575090601f81511161066b5760208151910151602082106104bf571790565b6040519063305a27a960e01b8252602060048301528181519182602483015260005b8381106106af5750508160006044809484010152601f80199101168101030190fd5b6020828201810151604487840101528593500161068d565b6001600160401b03811161045557600154600181811c911680156107d3575b602082101461043557601f811161079d575b50602092601f8211600114610738579281929360009261072d575b50508160011b916000199060031b1c19161760015560ff90565b015190503880610713565b601f198216936001600052806000209160005b868110610785575083600195961061076c575b505050811b0160015560ff90565b015160001960f88460031b161c1916905538808061075e565b9192602060018192868501518155019401920161074b565b6001600052601f6020600020910160051c810190601f830160051c015b8181106107c757506106f8565b600081556001016107ba565b90607f16906106e656fe6080806040526004361015610040575b50361561001b57600080fd5b600a546001600160a01b0316300361002f57005b637485328f60e11b60005260046000fd5b600090813560e01c908163013cf08b146133155750806301ffc9a71461328e57806302a251a3146132675780630478c63c1461323d57806306fdde031461315a57806307d4fca3146130495780630e88ec0b14612e26578063143489d014612df3578063150b7a0214612d8b578063160cbed714612ce5578063184de4c214612a8c5780632656227d14612a755780632d63f69314612a405780632e80d9b614612a245780632fa75faf146128ce5780632fe3e2611461289357806332f6a1dc1461274b57806337e417081461270157806337f135d7146126e35780633932abb1146126bd5780633ab34290146126a15780633e4f49e61461265b578063438596321461260f578063452115d61461249a57806345375ec0146124565780634bf5d7e9146124045780634c999f5e146123c55780634fa76ec9146123a757806351e0e26b14612368578063544ffc9c1461231c57806354fd4d50146122d757806355de1faf1461225d578063567813881461221e5780635b8d0e0d146120b75780635f398a141461204157806361a29fe71461202357806363222f2614612005578063668f6ace14611fd757806369e0490614611fb95780636ce46bc314611df55780636f97b07f14611dd75780637548cde514611c2d57806376e1128614611bab57806376e674df146117a5578063790518871461172e5780637b3c71d3146116ca5780637d5e81e2146112615780637ecebe0014611228578063839b0ee11461117357806384b0196e146110a35780638b113cf9146110625780638ff262e314610f3b57806391ddadf414610f185780639563ddb314610ef55780639a802a6d14610eaf5780639c89a0e214610c7d5780639dcb511a14610e6e578063a6d84b1614610dec578063a890c91014610d6e578063a8f8a66814610b22578063a9a9529414610d51578063ab58fb8e14610d1b578063b034012314610cf2578063b1610d7e14610cd4578063b58131b014610cb6578063b9f7945114610c7d578063bb4d443614610c59578063bc197c8114610bb1578063c01f9e3714610b92578063c28bc2fa14610b27578063c59057e414610b22578063d33219b414610af9578063da35c66414610adb578063dd4e2ba514610a78578063deaaa7cc14610a3d578063e540d01d14610992578063eb9019d41461095e578063ece40cc114610909578063f23a6e611461088e578063f8ce560a1461086a578063fd772ae6146107e85763fdc0b0e60361000f57346107e55760803660031901126107e5576103e8613529565b6024356001600160e01b03198116908181036107e3576044356001600160401b0381116107df5761041d903690600401613829565b93906064359161042c33613d83565b600c54604051631d5e528f60e21b815290602090829060049082906001600160a01b03165afa9081156107d457899161079d575b5060001981019081116106f2576103e8900411610758576001600160a01b03168087526019602052604087205490929060ff161561071a5762093a8042019081421161070657620bdd804201928383116106f257601754966104c188613d74565b601755878a5260186020526040808b20805463ffffffff60a01b1989166001600160c01b0319909116179890911c63ffffffff60a01b1697909717875560018701966001600160401b038a116106de57908a8a93926105208a54613477565b601f81116106a3575b5081601f861160011461060157907f95163a216cfd223fcfcefbee1958390d7f2c90e178d267fa2915d2c287bbdd969a8660089385916105f6575b508760011b906000198960031b1c19161790555b8660028201554260038201558760048201558860058201556006810160ff1981541690558260078201550155604051968752602087015260e060408701528160e0870152610100860137876101008886010152606084015242608084015260a083015260c0820152610100813395601f80199101168101030190a380f35b905086013538610564565b99601f1986168184526020842090845b8181106106715750907f95163a216cfd223fcfcefbee1958390d7f2c90e178d267fa2915d2c287bbdd969c88600895949310610657575b5050600187811b019055610578565b87013560001960038a901b60f8161c191690553880610648565b939698999a9b9c945091949650602060018192868b013581550194019201928d9694918f949c9b9a999896939c610611565b6106ce908b845260208420601f880160051c810191602089106106d4575b601f0160051c0190613d0a565b38610529565b90915081906106c1565b634e487b7160e01b8b52604160045260248bfd5b634e487b7160e01b89526011600452602489fd5b634e487b7160e01b88526011600452602488fd5b60405162461bcd60e51b815260206004820152601660248201527515185c99d95d081b9bdd081dda1a5d195b1a5cdd195960521b6044820152606490fd5b60405162461bcd60e51b815260206004820152601b60248201527f4e65656420302e312520746f6b656e7320746f2070726f706f736500000000006044820152606490fd5b90506020813d6020116107cc575b816107b8602093836134b1565b810103126107c7575138610460565b600080fd5b3d91506107ab565b6040513d8b823e3d90fd5b8480fd5b835b80fd5b50346107e55760403660031901126107e557610802613529565b7f46fe0810a41e3dbf985c77c9f30207ce6eda91dcba24d8de583b6ea30ac16f00602061082d6137b5565b92610839303314613c7b565b6001600160a01b03168085526019825260408520805460ff191660ff86151516179055925b6040519015158152a280f35b50346107e55760203660031901126107e5576020610886613f36565b604051908152f35b50346107e55760a03660031901126107e5576108a8613529565b506108b161353f565b506084356001600160401b038111610905576108d19036906004016135d1565b50600a546001600160a01b031630036108f65760405163f23a6e6160e01b8152602090f35b637485328f60e11b8152600490fd5b5080fd5b50346107e55760203660031901126107e5576004356109266142b3565b7fccb45da8d5717e6c4544694297c4ba5cf151d455c9bb0ed4fc7a38411bc0546160406007548151908152836020820152a160075580f35b50346107e55760403660031901126107e55761088660209161097e613529565b9060405161098c85826134b1565b52614847565b50346107e55760203660031901126107e55760043563ffffffff811690818103610a39576109be6142b3565b8115610a255769ffffffff000000000000907f7e3f7f0708a84de9203036abaa450dccc85ad5ff52f78c170f3edb55cf5e882860406008549481519063ffffffff8760301c1682526020820152a160301b169069ffffffff00000000000019161760085580f35b63f1cfbf0560e01b83526004839052602483fd5b8280fd5b50346107e557806003193601126107e55760206040517ff2aad550cf55f045cb27e9c559f9889fdfb6e6cdaa032301d6ea397784ae51d78152f35b50346107e557806003193601126107e557610ad76040805190610a9b81836134b1565b602082527f737570706f72743d627261766f2671756f72756d3d666f722c6162737461696e6020830152519182916020835260208301906134e8565b0390f35b50346107e557806003193601126107e5576020601754604051908152f35b50346107e557806003193601126107e557600a546040516001600160a01b039091168152602090f35b61388a565b5060603660031901126107e557610b3c613529565b816044356001600160401b03811161090557610b8e92610b6183923690600401613829565b90610b6a6142b3565b81604051928392833781018481520391602435905af1610b88613e09565b90614953565b5080f35b50346107e55760203660031901126107e5576020610886600435614908565b50346107e55760a03660031901126107e557610bcb613529565b50610bd461353f565b506044356001600160401b03811161090557610bf490369060040161366b565b506064356001600160401b03811161090557610c1490369060040161366b565b506084356001600160401b03811161090557610c349036906004016135d1565b50600a546001600160a01b031630036108f65760405163bc197c8160e01b8152602090f35b50346107e55760203660031901126107e5576020610886610c78613529565b613d83565b50346107e55760203660031901126107e5576020906040906001600160a01b03610ca5613529565b168152601083522054604051908152f35b50346107e557806003193601126107e5576020600754604051908152f35b50346107e557806003193601126107e557602060405162093a808152f35b50346107e557806003193601126107e557600c546040516001600160a01b039091168152602090f35b50346107e55760203660031901126107e5576020610886600435600052600460205265ffffffffffff6001604060002001541690565b50346107e55760203660031901126107e557602060405160018152f35b50346107e55760203660031901126107e5576004356001600160a01b0381169081900361090557610d9d6142b3565b600a54604080516001600160a01b0383168152602081018490527f08f74ea46ef7894f65eabfb5e6e695de773a000b47c529ab559178069b2264019190a16001600160a01b03191617600a5580f35b50346107e55760403660031901126107e557610e06613529565b610e0e61353f565b90610e1a303314613c7b565b6001600160a01b0390811680845260166020526040842080546001600160a01b031916939092169283179091557f53880ca2a010f722cbd03db1521650ed6252e78aef05632874de7c3c4b5ecf298380a380f35b50346107e55760203660031901126107e5576020906001600160a01b03610e93613529565b16815260158252604060018060a01b0391205416604051908152f35b50346107e55760603660031901126107e557610ec9613529565b90604435906001600160401b0382116107e557602061088684610eef36600487016135d1565b50614847565b50346107e557806003193601126107e557602060ff600e54166040519015158152f35b50346107e557806003193601126107e557602060405165ffffffffffff42168152f35b50346107e55760803660031901126107e557600435610f58613819565b91610f61613555565b916064356001600160401b038111610a3957610f819036906004016135d1565b9361101a610faa8560018060a01b03166000526002602052604060002080549060018201905590565b9561101460405160208101907ff2aad550cf55f045cb27e9c559f9889fdfb6e6cdaa032301d6ea397784ae51d7825286604082015260ff8616606082015260018060a01b038916998a608083015260a082015260a0815261100c60c0826134b1565b51902061451d565b86614543565b1561104e576108869394506020946040519261103687856134b1565b8484526040519461104788876134b1565b8552614600565b6394ab6c0760e01b83526004859052602483fd5b50346107e55760203660031901126107e5576020906001600160a01b03611087613529565b16815260168252604060018060a01b0391205416604051908152f35b50346107e557806003193601126107e55761114690610ad76110e47f0000000000000000000000000000000000000000000000000000000000000000614c82565b9161110e7f0000000000000000000000000000000000000000000000000000000000000000614ce6565b611154604051916111206020846134b1565b8383526000368137604051968796600f60f81b885260e0602089015260e08801906134e8565b9086820360408801526134e8565b9146606086015230608086015260a085015283820360c0850152613856565b50346107e55760203660031901126107e55760043561119133613cbf565b156111eb57808252601b602052604082206111ac8154613d74565b9055808252601b6020526040822054906040519182527f0fd1cd5610c526002022d4ad7e23129d4ad5536f07271d0d8db0756ecf3b0b1b60203393a380f35b60405162461bcd60e51b81526020600482015260156024820152742737ba10309036bab63a34b9b4b39039b4b3b732b960591b6044820152606490fd5b50346107e55760203660031901126107e5576020906040906001600160a01b03611250613529565b168152600283522054604051908152f35b50346107e55760803660031901126107e5576004356001600160401b03811161090557611292903690600401613606565b6024356001600160401b038111610a39576112b190369060040161366b565b906044356001600160401b0381116107e3576112d19036906004016136c8565b906064356001600160401b0381116107df57366023820112156107df5761130290369060248160040135910161359a565b916001600160a01b036113148361397f565b511692611351604094855161132987826134b1565b6016815275283937b837b9b4b733903bb4ba34103a30b933b2ba1d60511b60208201526143a3565b61138261135d8661397f565b51855161136a87826134b1565b60068152652b30b63ab29d60d11b6020820152614803565b6113be61138e8361397f565b5151855161139c87826134b1565b601081526f21b0b6363230ba30903632b733ba341d60811b6020820152614803565b6113c88133614c35565b156116b75760075480611652575b506113e981516020830120838786613ecf565b948351815190818114801590611647575b801561163f575b611622575050858752600460205265ffffffffffff8588205460a01c166115f95760085461143f65ffffffffffff821665ffffffffffff4216613929565b878952600460205286892080546001600160a01b031916331781559094603083901c63ffffffff169290919061147487614e3f565b9082549063ffffffff86116115e05769ffffffffffffffffffff60a01b1990911660a092831b65ffffffffffff60a01b1617911b63ffffffff60d01b161790558551986114c08a6135ef565b9988519a6114ce908c6134b1565b808b526114da906135ef565b60208b0193906114ee90601f1901856139a0565b6114f89087613929565b938851978a89523360208a01528989016101209052610120890161151b91613e39565b88810360608a015261152c91613856565b99878b03608089015251808b5260208b018160051b8c016020019492905b8282106115b3575060208b8b7f7d84a6263ae0d98d3329bd7b46bb4e8d6f98cd35a7adb45c274c8b7fd5ebd5e08c806115aa8e8e8e6115918f8f87820360a0890152613e76565b9260c086015260e08501528382036101008501526134e8565b0390a151908152f35b909192946020806115d28f93600194601f1990820301865289516134e8565b97019201920190929161154a565b6306dfcc6560e41b8d526020600452602486905260448dfd5b60648761161c8861160981614421565b906331b75e4d60e01b84526004526137c4565b80604452fd5b8451630447b05d60e41b8a52600491909152602452604452606487fd5b508015611401565b5084518114156113fa565b65ffffffffffff42811660001901116116a3578685516116736020826134b1565b5261167d33614847565b81811061168a57506113d6565b636121770b60e11b885233600452602452604452606486fd5b634e487b7160e01b87526011600452602487fd5b63d9b3955760e01b865233600452602486fd5b50346107e55760603660031901126107e5576116e4613819565b6044356001600160401b038111610a3957916108869161171461170d6020953690600401613829565b369161359a565b906040519261172386856134b1565b835233600435614600565b50346107e55760203660031901126107e55760043565ffffffffffff81168091036109055761175b6142b3565b6008547fc565b045403dc03c2eea82b81a0465edad9e2e7fc4d97e11421c209da93d7a936040805165ffffffffffff84168152846020820152a165ffffffffffff19161760085580f35b50346107e55760803660031901126107e5576117bf613529565b6117c761353f565b604435906064359060038210156107df57338552601460205260ff60408620541615611b78576001600160a01b0390811680865260156020526040862054909391168015611b3357604051633fabe5a360e21b815260a081600481855afa908115611a38578791611b0f575b508681131580611af1575b611a78575b86811315611a435760405163313ce56760e01b815291602090839060049082906001600160a01b03165afa918215611a385787926119f8575b5061188960ff918461394c565b9116604d81116116a357906118a191600a0a9061395f565b906118ab83613d6a565b826119bf57678ac7230489e800006118ce6011545b6118c9856147bc565b61394c565b04926103e884116119b5575b836118e3578680f35b600c546001600160a01b0316958790873b15610905578180916044604051809481936340c10f1960e01b835260018060a01b03169c8d60048401528b60248401525af180156119aa57611989575b5050907f49d65c9df54d630b6691b952e3d40db14da909c648872dc1b87771d20d969dea9460a094939260405194855261196a81613d6a565b6020850152604084015260608301526080820152a23880808080808680f35b816119989196959493966134b1565b6119a6579091928638611931565b8680fd5b6040513d84823e3d90fd5b6103e893506118da565b6119c883613d6a565b600183036119e457678ac7230489e800006118ce6012546118c0565b678ac7230489e800006118ce6013546118c0565b9091506020813d602011611a30575b81611a14602093836134b1565b810103126119a6575160ff811681036119a6579061188961187c565b3d9150611a07565b6040513d89823e3d90fd5b60405162461bcd60e51b815260206004820152600d60248201526c496e76616c696420707269636560981b6044820152606490fd5b505082855260166020526040808620549051633fabe5a360e21b81526001600160a01b039091169060a081600481855afa908115611a38578791611abd575b50611843565b611adf915060a03d60a011611aea575b611ad781836134b1565b810190613d38565b505050905038611ab7565b503d611acd565b50848752601660205260408720546001600160a01b0316151561183e565b611b28915060a03d60a011611aea57611ad781836134b1565b505050905038611833565b60405162461bcd60e51b815260206004820152601760248201527f4e6f207072696365206665656420666f722061737365740000000000000000006044820152606490fd5b60405162461bcd60e51b815260206004820152600b60248201526a139bdd08185b1b1bddd95960aa1b6044820152606490fd5b50346107e55760403660031901126107e557611bc5613529565b611bcd61353f565b90611bd9303314613c7b565b6001600160a01b0390811680845260156020526040842080546001600160a01b031916939092169283179091557fd2d8394cf7549a5ddbc2ba3dd7b2de8d53c891472d1f2907008ed6a10045fdae8380a380f35b50346107e55760203660031901126107e5576004356001600160401b0381116109055736602382011215610905578060040135906001600160401b038211610a39576024810190602436918460051b010111610a3957611c8e303314613c7b565b600160401b8211611dc357601a5482601a55808310611d6f575b50601a835282815b838210611d265750506040519180602084016020855252604083019190845b818110611d0057857f9405131eda2c6eb0a71f1710c6d9bb7d0174966eff351f730b19ce6a9deb0b3d86860387a180f35b909192602080600192838060a01b03611d188861356b565b168152019401929101611ccf565b8035916001600160a01b0383168303611d6b5760206001920192817f057c384a7d1c54f3a1b2e5e67b2617b8224fdfd1ea7234eea573a6ff665ff63e01550190611cb0565b8580fd5b611dbd907f057c384a7d1c54f3a1b2e5e67b2617b8224fdfd1ea7234eea573a6ff665ff63e01837f057c384a7d1c54f3a1b2e5e67b2617b8224fdfd1ea7234eea573a6ff665ff63e01613d0a565b38611ca8565b634e487b7160e01b83526041600452602483fd5b50346107e557806003193601126107e5576020600f54604051908152f35b50346107e55760603660031901126107e557604435602435600435611e1b333014613c7b565b671bc16d674ec8000081111580611fa7575b15611f6257670de0b6b3a764000082111580611f50575b15611f0b576714d1120d7b16000083111580611ef9575b15611eb457611eae7f2c2f7a9be334609d519b0dee56c07ba4c86f58b43c187d9c446a7d89aab401a893826011558360125580601355604051938493846040919493926060820195825260208201520152565b0390a180f35b60405162461bcd60e51b815260206004820152601e60248201527f5265706179206d756c7469706c696572206f7574206f6620626f756e647300006044820152606490fd5b506706f05b59d3b20000831015611e5b565b60405162461bcd60e51b815260206004820152601f60248201527f426f72726f77206d756c7469706c696572206f7574206f6620626f756e6473006044820152606490fd5b506706f05b59d3b20000821015611e44565b60405162461bcd60e51b815260206004820152601d60248201527f4c656e64206d756c7469706c696572206f7574206f6620626f756e64730000006044820152606490fd5b50670de0b6b3a7640000811015611e2d565b50346107e557806003193601126107e5576020601154604051908152f35b50346107e55760203660031901126107e5576020611ffb611ff6613529565b613cbf565b6040519015158152f35b50346107e557806003193601126107e5576020601254604051908152f35b50346107e557806003193601126107e5576020601354604051908152f35b50346107e55760803660031901126107e55761205b613819565b6044356001600160401b038111610a395761207a903690600401613829565b92606435906001600160401b0382116107e557602061088686866120ad876120a53660048a016135d1565b93369161359a565b9033600435614600565b50346107e55760c03660031901126107e5576004356120d4613819565b6120dc613555565b6064356001600160401b0381116107df576120fb903690600401613829565b6084356001600160401b0381116119a65761211a9036906004016135d1565b9560a4356001600160401b0381116109055761213a9036906004016135d1565b6001600160a01b03851660009081526002602052604090208054600181019091556121ec90916121e661216e36878961359a565b602081519101208b5160208d01206040519060208201927f3e83946653575f9a39005e1545185629e92736b7528ab20ca3816f315424a81184528d604084015260ff8d16606084015260018060a01b038c169788608085015260a084015260c083015260e082015260e0815261100c610100826134b1565b87614543565b1561220b57602061088689898989612205368a8c61359a565b92614600565b6394ab6c0760e01b825260045260249150fd5b50346107e55760403660031901126107e55761088661223b613819565b6040516020939161224c85836134b1565b8282526040519261172386856134b1565b50346107e55760403660031901126107e557612277613529565b7f0d9ebb65238904712a14ee7cbb13500ec600292b67da8c95eeb5aacade9e350560206122a26137b5565b926122ae303314613c7b565b6001600160a01b03168085526014825260408520805460ff191660ff861515161790559261085e565b50346107e557806003193601126107e55750610ad76040516122fa6040826134b1565b60018152603160f81b60208201526040519182916020835260208301906134e8565b50346107e55760203660031901126107e55760409060043581526009602052208054610ad760026001840154930154604051938493846040919493926060820195825260208201520152565b50346107e55760203660031901126107e55760209060ff906040906001600160a01b03612393613529565b168152601484522054166040519015158152f35b50346107e557806003193601126107e5576020600d54604051908152f35b50346107e55760203660031901126107e55760209060ff906040906001600160a01b036123f0613529565b168152601984522054166040519015158152f35b50346107e557806003193601126107e55750610ad76040516124276040826134b1565b600e81526d06d6f64653d74696d657374616d760941b60208201526040519182916020835260208301906134e8565b50346107e55760203660031901126107e55760043590601a548210156107e5576020612481836137e8565b905460405160039290921b1c6001600160a01b03168152f35b50346107e5576124a936613746565b916124b8838383879897613ecf565b946124c286614421565b60088110156125fb5715806125dd575b156125c5576124e2949550613ecf565b60406124ef603b8361426c565b508183526004602090815281842080546001600160f81b0316600160f81b17905581518381527f789cf55be980739dad1d0699b93b58e806b51c9d96619bfa8fe0a28abaa7b30c9190a1818352600b6020528083205480612555575b6020838351908152f35b600a548491906001600160a01b0316803b15610a3957602483928551978893849263c4d252f560e01b845260048401525af19384156125b957816020956125a9575b84915052600b8452818120553861254b565b6125b2916134b1565b3881612597565b509051903d90823e3d90fd5b638fe5d8a960e01b8552600486905233602452604485fd5b50858552600460205260408520546001600160a01b031633146124d2565b634e487b7160e01b86526021600452602486fd5b50346107e55760403660031901126107e55760ff604060209261263061353f565b6004358252600985528282206001600160a01b03909116825260030184522054604051911615158152f35b50346107e55760203660031901126107e557612678600435614421565b60405190600881101561268d57602092508152f35b634e487b7160e01b83526021600452602483fd5b50346107e557806003193601126107e5576020604051603c8152f35b50346107e557806003193601126107e557602065ffffffffffff60085416604051908152f35b50346107e557806003193601126107e55760206040516202a3008152f35b50346107e557806003193601126107e55761271a6142b3565b60ff19600e5416600e557f0bc7d58759550d20dd31390311ef5b2f5592ca1c6bfb4eb634c3a78db3f8795f8180a180f35b50346107e55760203660031901126107e5576004356127686142b3565b60406127aa815161277983826134b1565b601d81527f73657451756f72756d50657263656e746167652063616c6c6564206279000000602082015233906143a3565b7feb6aa7ed3d6a0f414a424bc284d6c5e118ea328d3c641cc829b1789d9143fdfe818051848152336020820152a1811561285b57612710821161281857816020917ff52eb210d0903b5d5451746f8ce16075afc0ed6842a576991ecb3bdbe3b645bb93600d5551908152a180f35b5162461bcd60e51b815260206004820152601760248201527f51756f72756d206d757374206265203c3d2031303030300000000000000000006044820152606490fd5b5162461bcd60e51b8152602060048201526012602482015271051756f72756d206d757374206265203e20360741b6044820152606490fd5b50346107e557806003193601126107e55760206040517f3e83946653575f9a39005e1545185629e92736b7528ab20ca3816f315424a8118152f35b50346107e55760403660031901126107e5576004356128eb6137b5565b90808352601860205260408320600381015442101580612a16575b156129e157338452600a81016020819052604085205460ff166129ac5761292c33613d83565b91841561299757600701612941838254613929565b90555b60018060a01b033316855260205260408420600160ff19825416179055604051921515835260208301527f52918a7195f9366c8404875b47578926acbf759095b011df841b1f556d55b40760403393a380f35b6008016129a5838254613929565b9055612944565b60405162461bcd60e51b815260206004820152600d60248201526c105b1c9958591e481d9bdd1959609a1b6044820152606490fd5b60405162461bcd60e51b815260206004820152600d60248201526c159bdd1a5b99c818db1bdcd959609a1b6044820152606490fd5b506004810154421115612906565b50346107e557806003193601126107e5576020604051600a8152f35b50346107e55760203660031901126107e55765ffffffffffff6040602092600435815260048452205460a01c16604051908152f35b6020610886612a8336613746565b92919091613a50565b50346107e55760203660031901126107e55760043580825260186020526040822060ff60098201541615612caa5760058101544210612c6e57600681019060ff825416612c3657828452601b602052600360408520541015612bfc57612bc9906040805191612afb82846134b1565b60018352601f1982019182366020860137815491600190612b95906001600160a01b038516612b298861397f565b52612b87845195612b3a86886134b1565b848752873660208901378c612b4e8861397f565b52612b6b865198612b5f888b6134b1565b868a5260208a016139a0565b85519485930190861b6001600160e01b031916602084016139bd565b03601f1981018352826134b1565b612b9e8461397f565b52612ba88361397f565b508051612bc0602082019289845260208352826134b1565b51902092613a50565b50805460ff191660011790557f54be43a7cd1a08d9780e16b698b9b3646cf793c6e9e4c8edfd4b2a607cd8bbbd8280a280f35b60405162461bcd60e51b81526020600482015260126024820152715665746f6564206279206d756c746973696760701b6044820152606490fd5b60405162461bcd60e51b815260206004820152601060248201526f105b1c9958591e48195e1958dd5d195960821b6044820152606490fd5b60405162461bcd60e51b8152602060048201526014602482015273151a5b595b1bd8dac81b9bdd08195e1c1a5c995960621b6044820152606490fd5b60405162461bcd60e51b8152602060048201526013602482015272141c9bdc1bdcd85b081b9bdd081c5d595d5959606a1b6044820152606490fd5b50346107e557612d2065ffffffffffff612cfe36613746565b91612d0d838383879997613ecf565b95612d1960108861426c565b5086613fce565b168015612d7c5760407f9a2e42fd6722813d69113e7d0079d3d940171428df7373df9c7f7617cfda2892916001828686602098526004885220018165ffffffffffff1982541617905581519084825285820152a1604051908152f35b634844252360e11b8352600483fd5b50346107e55760803660031901126107e557612da5613529565b50612dae61353f565b506064356001600160401b03811161090557612dce9036906004016135d1565b50600a546001600160a01b031630036108f657604051630a85bd0160e11b8152602090f35b50346107e55760203660031901126107e557602090600435815260048252604060018060a01b0391205416604051908152f35b50346107e55760203660031901126107e557600435808252601860205260408220906004820154421061301157600982019182549260ff8416612fdb576007820154612e76600884015482613929565b90612e7f613f36565b8210612fa5576064810290808204606414901517156116a357603c91612ea49161395f565b10612f69576001610b8e9460ff19161790556040908151612ec583826134b1565b60018152601f1983019283366020840137825492600190612f35906001600160a01b038616612ef38661397f565b52612b87845196612f0486896134b1565b848852883660208a01378b612f188961397f565b52612b6b865199612f29888c6134b1565b868b5260208b016139a0565b612f3e8561397f565b52612f488461397f565b508051612f60602082019287845260208352826134b1565b51902093613fce565b60405162461bcd60e51b81526020600482015260146024820152734e6f7420656e6f7567682079657320766f74657360601b6044820152606490fd5b60405162461bcd60e51b815260206004820152600e60248201526d145d5bdc9d5b481b9bdd081b595d60921b6044820152606490fd5b60405162461bcd60e51b815260206004820152600e60248201526d105b1c9958591e481c5d595d595960921b6044820152606490fd5b60405162461bcd60e51b815260206004820152601060248201526f159bdd1a5b99c81b9bdd08195b99195960821b6044820152606490fd5b50346107e55760403660031901126107e557613063613529565b600c5460243591906001600160a01b03163303613122576001600160a01b031680835260106020526040832080549192918281039190858412801582851316918412161761310e57558183526010602052604083205490600160ff1b81146130fa577ff3bf67aaa88988c347d216d35468e2afca6fc65ceb5bf94cd86358c62e25d04a91604091825191825285036020820152a280f35b634e487b7160e01b84526011600452602484fd5b634e487b7160e01b85526011600452602485fd5b60405162461bcd60e51b815260206004820152601060248201526f27b7363c902b37ba34b733aa37b5b2b760811b6044820152606490fd5b50346107e557806003193601126107e55760405190806003549061317d82613477565b808552916001811690811561321657506001146131b9575b610ad7846131a5818603826134b1565b6040519182916020835260208301906134e8565b600381527fc2575a0e9e593c00f959f8c92f12db2869c3395a3b0502d05e2516446f71f85b939250905b8082106131fc575090915081016020016131a582613195565b9192600181602092548385880101520191019092916131e3565b60ff191660208087019190915292151560051b850190920192506131a59150839050613195565b50346107e55760203660031901126107e55760406020916004358152601b83522054604051908152f35b50346107e557806003193601126107e557602063ffffffff60085460301c16604051908152f35b50346107e55760203660031901126107e55760043563ffffffff60e01b8116809103610905576020906366defe7760e11b8114908115613304575b81156132f3575b81156132e2575b506040519015158152f35b6301ffc9a760e01b149050826132d7565b630271189760e51b811491506132d0565b6332a2ad4360e11b811491506132c9565b82346107e55760203660031901126107e55760043581526018602052604081208054918360018301918083549361334b85613477565b80855294600181169081156134535750600114613411575b5050613371925003846134b1565b6002810154906003810154906004810154600582015460ff6006840154169060078401549260ff6009600887015496015416956133dd6040519a8b9a60018060a01b0381168c5263ffffffff60e01b9060401b1660208c015261016060408c01526101608b01906134e8565b9760608a0152608089015260a088015260c0870152151560e086015261010085015261012084015215156101408301520390f35b90809394925052602082205b818310613437575050906020613371928201018680613363565b6020919350806001915483858a0101520191019091859261341d565b9150506020925061337194915060ff191682840152151560051b8201018680613363565b90600182811c921680156134a7575b602083101461349157565b634e487b7160e01b600052602260045260246000fd5b91607f1691613486565b90601f801991011681019081106001600160401b038211176134d257604052565b634e487b7160e01b600052604160045260246000fd5b919082519283825260005b848110613514575050826000602080949584010152601f8019910116010190565b806020809284010151828286010152016134f3565b600435906001600160a01b03821682036107c757565b602435906001600160a01b03821682036107c757565b604435906001600160a01b03821682036107c757565b35906001600160a01b03821682036107c757565b6001600160401b0381116134d257601f01601f191660200190565b9291926135a68261357f565b916135b460405193846134b1565b8294818452818301116107c7578281602093846000960137010152565b9080601f830112156107c7578160206135ec9335910161359a565b90565b6001600160401b0381116134d25760051b60200190565b9080601f830112156107c757813561361d816135ef565b9261362b60405194856134b1565b81845260208085019260051b8201019283116107c757602001905b8282106136535750505090565b602080916136608461356b565b815201910190613646565b9080601f830112156107c7578135613682816135ef565b9261369060405194856134b1565b81845260208085019260051b8201019283116107c757602001905b8282106136b85750505090565b81358152602091820191016136ab565b9080601f830112156107c75781356136df816135ef565b926136ed60405194856134b1565b81845260208085019260051b820101918383116107c75760208201905b83821061371957505050505090565b81356001600160401b0381116107c75760209161373b878480948801016135d1565b81520191019061370a565b60806003198201126107c7576004356001600160401b0381116107c7578161377091600401613606565b916024356001600160401b0381116107c7578261378f9160040161366b565b91604435906001600160401b0382116107c7576137ae916004016136c8565b9060643590565b6024359081151582036107c757565b60088110156137d257602452565b634e487b7160e01b600052602160045260246000fd5b601a5481101561380357601a60005260206000200190600090565b634e487b7160e01b600052603260045260246000fd5b6024359060ff821682036107c757565b9181601f840112156107c7578235916001600160401b0383116107c757602083818601950101116107c757565b906020808351928381520192019060005b8181106138745750505090565b8251845260209384019390920191600101613867565b346107c757602061088661389d36613746565b92919091613ecf565b600092918154916138b683613477565b808352926001811690811561390c57506001146138d257505050565b60009081526020812093945091925b8383106138f2575060209250010190565b6001816020929493945483858701015201910191906138e1565b915050602093945060ff929192191683830152151560051b010190565b9190820180921161393657565b634e487b7160e01b600052601160045260246000fd5b8181029291811591840414171561393657565b8115613969570490565b634e487b7160e01b600052601260045260246000fd5b8051156138035760200190565b80518210156138035760209160051b010190565b60005b8281106139af57505050565b6060828201526020016139a3565b919063ffffffff60e01b1682526000918154916139d983613477565b9260018116908115613a3057506001146139f4575b50505090565b9091925060005260206000206000905b838210613a19575050016004013880806139ee565b600181602092546004858701015201910190613a04565b9150506004935060ff9291921916838301528015150201013880806139ee565b939290613a5f82848388613ecf565b92602092613a6e60308661426c565b5060008581526004855260408120805460ff60f01b1916600160f01b179055600a549093906001600160a01b03163003613b9b575b600a546001600160a01b031691823b156107df5760405163e38335e560e01b81529885948a949385938493613af3933060601b6bffffffffffffffffffffffff191690921892906004860161497d565b039134905af1948515613b8e57817f712ae1383f79ac853f8d882153778e0260ef8f03b504e2866e0593e04d2b291f949596613b7e575b85905250600b82526040812055600a546001600160a01b031630141580613b65575b613b5b575b604051838152a190565b6000600555613b51565b506005546001600160801b0381169060801c1415613b4c565b613b87916134b1565b3881613b2a565b50604051903d90823e3d90fd5b95919394908397935b8451811015613c6d57306001600160a01b03613bc0838861398c565b511614613bd0575b600101613ba4565b613bda818761398c565b51878151910120600554908160801c6001600160801b036001820193166001600160801b03841614613c5c5790613c2860019493926001600160801b03166000526006602052604060002090565b55600580546001600160801b031660809290921b6fffffffffffffffffffffffffffffffff19169190911790559050613bc8565b60418a634e487b718e52526024601cfd5b509094939195969296613aa3565b15613c8257565b60405162461bcd60e51b815260206004820152601560248201527413db9b1e48111053c81d9a58481c1c9bdc1bdcd85b605a1b6044820152606490fd5b601a549060005b828110613cd557505050600090565b613cde816137e8565b905460039190911b1c6001600160a01b0390811690831614613d0257600101613cc6565b505050600190565b818110613d15575050565b60008155600101613d0a565b519069ffffffffffffffffffff821682036107c757565b908160a09103126107c757613d4c81613d21565b916020820151916040810151916135ec608060608401519301613d21565b600311156137d257565b60001981146139365760010190565b600c546040516370a0823160e01b81526001600160a01b0392831660048201529160209183916024918391165afa8015613dfd57600090613dc9575b6135ec91506147bc565b506020813d602011613df5575b81613de3602093836134b1565b810103126107c7576135ec9051613dbf565b3d9150613dd6565b6040513d6000823e3d90fd5b3d15613e34573d90613e1a8261357f565b91613e2860405193846134b1565b82523d6000602084013e565b606090565b906020808351928381520192019060005b818110613e575750505090565b82516001600160a01b0316845260209384019390920191600101613e4a565b9080602083519182815201916020808360051b8301019401926000915b838310613ea257505050505090565b9091929394602080613ec0600193601f1986820301875289516134e8565b97019301930191939290613e93565b9290613f3091613f1c613f0a94604051958694613ef8602087019960808b5260a0880190613e39565b868103601f1901604088015290613856565b848103601f1901606086015290613e76565b90608083015203601f1981018352826134b1565b51902090565b60ff600e5416613fc857600c54604051631d5e528f60e21b815290602090829060049082906001600160a01b03165afa908115613dfd57600091613f96575b50600019810190811161393657613f9261271091600d549061394c565b0490565b906020823d602011613fc0575b81613fb0602093836134b1565b810103126107e557505138613f75565b3d9150613fa3565b600f5490565b9392906000948580612b8761404c604051613fea6060826134b1565b602b81527f5175657565696e67206f7065726174696f6e7320776974682054696d656c6f6360208201526a35a1b7b73a3937b63632b960a91b604082015260405192839163104c13eb60e21b60208401526020602484015260448301906134e8565b6020815191016a636f6e736f6c652e6c6f675afa50600a5460405163793d064960e11b8152956001600160a01b0390911690602087600481855afa96871561422d578897614238575b506bffffffffffffffffffffffff193060601b1618916020604051809363b1c5f42760e01b825281806140ce888b8d8c6004860161497d565b03915afa91821561422d5788926141f5575b508752600b6020526040872055600a546001600160a01b031692833b156119a65786614148959381959361415a61413694604051998a98899788966308f2a0bb60e41b885260c0600489015260c4880190613e39565b86810360031901602488015290613856565b84810360031901604486015290613e76565b9083606484015260848301528860a483015203925af180156141ea576141d0575b5061418961418e9142613929565b614e3f565b90506135ec6040516141a16040826134b1565b601381527229b1b432b23ab632b2103bb4ba341032ba309d60691b602082015265ffffffffffff831690614803565b826141e261418e9394614189936134b1565b92915061417b565b6040513d85823e3d90fd5b9091506020813d602011614225575b81614211602093836134b1565b81010312614221575190386140e0565b8780fd5b3d9150614204565b6040513d8a823e3d90fd5b9096506020813d602011614264575b81614254602093836134b1565b8101031261422157519538614095565b3d9150614247565b9061427682614421565b9160088310156137d25781600160ff85161b161561429357505090565b6331b75e4d60e01b6000526004526142aa826137c4565b60445260646000fd5b600a546001600160a01b031633810361438e5730036142ce57565b6142d73661357f565b6142e460405191826134b1565b368152602081019036600083376000602036830101525190205b6005546001600160801b0381169060801c811461437b57806001600160801b03600161433e85946001600160801b03166000526006602052604060002090565b5492600061435f826001600160801b03166000526006602052604060002090565b5501166001600160801b03196005541617600555036142fe5750565b634e487b7160005260316020526024601cfd5b6347096e4760e01b6000523360045260246000fd5b6143d36143f260009392849360405193849263319af33360e01b60208501526040602485015260648401906134e8565b6001600160a01b0391909116604483015203601f1981018352826134b1565b6020815191016a636f6e736f6c652e6c6f675afa50565b908160209103126107c7575180151581036107c75790565b61442a816149c3565b60088110156137d257600581036145185750600052600b60205260406000205460018060a01b03600a541690604051632c258a9f60e11b8152816004820152602081602481865afa908115613dfd576000916144f9575b501561448e575050600590565b602090602460405180948193632ab0f52960e01b835260048301525afa908115613dfd576000916144ca575b50156144c557600790565b600290565b6144ec915060203d6020116144f2575b6144e481836134b1565b810190614409565b386144ba565b503d6144da565b614512915060203d6020116144f2576144e481836134b1565b38614481565b905090565b604290614528614ae3565b906040519161190160f01b8352600283015260228201522090565b9190823b61457e579061455591614bf9565b5060048110156137d25715918261456b57505090565b6001600160a01b03918216911614919050565b91600092612b876145b585946040519283916020830195630b135d3f60e11b875260248401526040604484015260648301906134e8565b51915afa6145c1613e09565b816145f2575b816145d0575090565b80516020808301935090820191909103126107c75751630b135d3f60e11b1490565b9050602081511015906145c7565b9390929193600291614612838361426c565b5081600052600460205261462585614847565b958260005260096020526040600020906003820160018060a01b0388166000528060205260ff6040600020541661479d576001600160a01b038816600090815260209190915260409020805460ff1916600117905560ff169384614759575061468f878254613929565b90555b80516146f257506146ec7fb8e138887d0aa13bab447e82de9d5c1777041ecd21ca36ba824ff1e6c07ddda49394604051938493845260208401528660408401526080606084015260018060a01b03169460808301906134e8565b0390a290565b936146ec906147407fe2babfbac5889a709b63bb7f598b324e08bc5a4fb9ec647fb3cbc9ec07eb8712956040519586958652602086015288604086015260a0606086015260a08501906134e8565b83810360808501526001600160a01b03909116956134e8565b9060018503614779576001915001614772878254613929565b9055614692565b84820361478c5701614772878254613929565b6303599be160e11b60005260046000fd5b6371c6af4960e01b60009081526001600160a01b038916600452602490fd5b9081156147fd57600182018083116139365760011c825b8382106147de575050565b9092506147f4836147ef818461395f565b613929565b60011c906147d3565b60009150565b6148336143f2600093928493604051938492632d839cb360e21b60208501526040602485015260648401906134e8565b90604483015203601f1981018352826134b1565b600c546040516370a0823160e01b81526001600160a01b039283166004820181905292909160209183916024918391165afa8015613dfd576000906148d4575b6148919150614d1d565b90600052601060205260406000205460091981126000146148b3575060011c90565b601412156135ec576003810290808204600314901517156139365760011c90565b506020813d602011614900575b816148ee602093836134b1565b810103126107c7576148919051614887565b3d91506148e1565b80600052600460205265ffffffffffff60406000205460a01c1690600052600460205263ffffffff60406000205460d01c160165ffffffffffff81116139365765ffffffffffff1690565b90919061497b575080511561496a57805190602001fd5b63d6bda27560e01b60005260046000fd5b565b9493926149a960809361499b6149b79460a08a5260a08a0190613e39565b9088820360208a0152613856565b908682036040880152613e76565b93600060608201520152565b80600052600460205260406000205460ff8160f01c16614adc5760f81c614ad65780600052600460205265ffffffffffff60406000205460a01c168015614ac15765ffffffffffff421680911015614aba57614a1e82614908565b10614a295750600190565b8060005260096020526040600020816000526004602052614a5c614a4b613f36565b916002600182015491015490613929565b108015614a9d575b15614a6f5750600390565b614a8f90600052600460205265ffffffffffff6001604060002001541690565b614a9857600490565b600590565b508060005260096020526040600020600181015490541015614a64565b5050600090565b50636ad0607560e01b60005260045260246000fd5b50600290565b5050600790565b307f00000000000000000000000000000000000000000000000000000000000000006001600160a01b03161480614bd0575b15614b3e577f000000000000000000000000000000000000000000000000000000000000000090565b60405160208101907f8b73c3c69bb8fe3d512ecc4cf759cc79239f7b179b0ffacaa9a75d522b39400f82527f000000000000000000000000000000000000000000000000000000000000000060408201527f000000000000000000000000000000000000000000000000000000000000000060608201524660808201523060a082015260a08152613f3060c0826134b1565b507f00000000000000000000000000000000000000000000000000000000000000004614614b15565b8151919060418303614c2a57614c2392506020820151906060604084015193015160001a90614e70565b9192909190565b505060009160029190565b90805160348110613d025760131981830101516001600160b01b03191669dc8f8d908f908c9a8dc360b01b01613d0257614c7491602919820190614ef9565b901591821561456b57505090565b60ff8114614ccc5760ff811690601f8211614cbb576040805192614ca682856134b1565b6020808552840191601f190136833783525290565b632cd44ac360e21b60005260046000fd5b506040516135ec81614cdf8160006138a6565b03826134b1565b60ff8114614d0a5760ff811690601f8211614cbb576040805192614ca682856134b1565b506040516135ec81614cdf8160016138a6565b60018111156135ec57806001600160801b821015614e2e575b600482600160401b614de0941015614e21575b640100000000811015614e14575b62010000811015614e07575b610100811015614dfb575b6010811015614def575b1015614de7575b60030260011c614d8f818461395f565b0160011c614d9d818461395f565b0160011c614dab818461395f565b0160011c614db9818461395f565b0160011c614dc7818461395f565b0160011c614dd5818461395f565b0160011c809261395f565b8111900390565b60011b614d7f565b811c9160021b91614d78565b60081c91811b91614d6e565b60101c9160081b91614d63565b60201c9160101b91614d57565b60401c9160201b91614d49565b5050608081901c600160401b614d36565b65ffffffffffff8111614e575765ffffffffffff1690565b6306dfcc6560e41b600052603060045260245260446000fd5b91907f7fffffffffffffffffffffffffffffff5d576e7357a4501ddfe92f46681b20a08411614eed579160209360809260ff60009560405194855216868401526040830152606082015282805260015afa15613dfd576000516001600160a01b03811615614ee15790600090600090565b50600090600190600090565b50505060009160039190565b9190825182118015614f8d575b614f64576001810180821161393657821180614f6f575b158015908160011b91820460021417156139365760280180602811613936578183038381116139365703614f6457614f5492614f96565b90916001600160a01b0390911690565b505050600090600090565b50828101602001516001600160f01b03191661060f60f31b14614f1d565b50818111614f06565b9290926001840180851161393657831180615032575b158015908160011b918204600214171561393657614fd09060009492939495613929565b915b818310614fe25750505060019190565b9092919360ff614ffc8160f81b6020888601015116615050565b16600f8111615026578160041b918083046010149015171561393657600191019401919290614fd2565b50600094508493505050565b50808401602001516001600160f01b03191661060f60f31b14614fac565b60f81c602f8111806150b8575b1561506c57602f190160ff1690565b60608111806150ae575b15615085576056190160ff1690565b60408111806150a4575b1561509e576036190160ff1690565b5060ff90565b506047811061508f565b5060678110615076565b50603a811061505d56fea264697066735822122032a301b9ec05231645c0bd7a9f779382bb5acd04cfbceac001060b738bcfa79164736f6c634300081c0033",
  "linkReferences": {},
  "deployedLinkReferences": {}
}