{
  "_format": "hh-sol-artifact-1",
  "contractName": "ProtocolGovernor",
  "sourceName": "backend/contracts/ProtocolGovernor.sol",
  "abi": [
    {
      "inputs": [
        {
          "internalType": "address",
          "name": "_votingToken",
          "type": "address"
        },
        {
          "internalType": "contract TimelockController",
          "name": "_timelock",
          "type": "address"
        }
      ],
      "stateMutability": "nonpayable",
      "type": "constructor"
    },
    {
      "inputs": [],
      "name": "FailedCall",
      "type": "error"
    },
    {
      "inputs": [
        {
          "internalType": "address",
          "name": "voter",
          "type": "address"
        }
      ],
      "name": "GovernorAlreadyCastVote",
      "type": "error"
    },
    {
      "inputs": [
        {
          "internalType": "uint256",
          "name": "proposalId",
          "type": "uint256"
        }
      ],
      "name": "GovernorAlreadyQueuedProposal",
      "type": "error"
    },
    {
      "inputs": [],
      "name": "GovernorDisabledDeposit",
      "type": "error"
    },
    {
      "inputs": [
        {
          "internalType": "address",
          "name": "proposer",
          "type": "address"
        },
        {
          "internalType": "uint256",
          "name": "votes",
          "type": "uint256"
        },
        {
          "internalType": "uint256",
          "name": "threshold",
          "type": "uint256"
        }
      ],
      "name": "GovernorInsufficientProposerVotes",
      "type": "error"
    },
    {
      "inputs": [
        {
          "internalType": "uint256",
          "name": "targets",
          "type": "uint256"
        },
        {
          "internalType": "uint256",
          "name": "calldatas",
          "type": "uint256"
        },
        {
          "internalType": "uint256",
          "name": "values",
          "type": "uint256"
        }
      ],
      "name": "GovernorInvalidProposalLength",
      "type": "error"
    },
    {
      "inputs": [
        {
          "internalType": "address",
          "name": "voter",
          "type": "address"
        }
      ],
      "name": "GovernorInvalidSignature",
      "type": "error"
    },
    {
      "inputs": [],
      "name": "GovernorInvalidVoteParams",
      "type": "error"
    },
    {
      "inputs": [],
      "name": "GovernorInvalidVoteType",
      "type": "error"
    },
    {
      "inputs": [
        {
          "internalType": "uint256",
          "name": "votingPeriod",
          "type": "uint256"
        }
      ],
      "name": "GovernorInvalidVotingPeriod",
      "type": "error"
    },
    {
      "inputs": [
        {
          "internalType": "uint256",
          "name": "proposalId",
          "type": "uint256"
        }
      ],
      "name": "GovernorNonexistentProposal",
      "type": "error"
    },
    {
      "inputs": [
        {
          "internalType": "uint256",
          "name": "proposalId",
          "type": "uint256"
        }
      ],
      "name": "GovernorNotQueuedProposal",
      "type": "error"
    },
    {
      "inputs": [
        {
          "internalType": "address",
          "name": "account",
          "type": "address"
        }
      ],
      "name": "GovernorOnlyExecutor",
      "type": "error"
    },
    {
      "inputs": [],
      "name": "GovernorQueueNotImplemented",
      "type": "error"
    },
    {
      "inputs": [
        {
          "internalType": "address",
          "name": "proposer",
          "type": "address"
        }
      ],
      "name": "GovernorRestrictedProposer",
      "type": "error"
    },
    {
      "inputs": [
        {
          "internalType": "uint256",
          "name": "proposalId",
          "type": "uint256"
        },
        {
          "internalType": "address",
          "name": "account",
          "type": "address"
        }
      ],
      "name": "GovernorUnableToCancel",
      "type": "error"
    },
    {
      "inputs": [
        {
          "internalType": "uint256",
          "name": "proposalId",
          "type": "uint256"
        },
        {
          "internalType": "enum IGovernor.ProposalState",
          "name": "current",
          "type": "uint8"
        },
        {
          "internalType": "bytes32",
          "name": "expectedStates",
          "type": "bytes32"
        }
      ],
      "name": "GovernorUnexpectedProposalState",
      "type": "error"
    },
    {
      "inputs": [
        {
          "internalType": "address",
          "name": "account",
          "type": "address"
        },
        {
          "internalType": "uint256",
          "name": "currentNonce",
          "type": "uint256"
        }
      ],
      "name": "InvalidAccountNonce",
      "type": "error"
    },
    {
      "inputs": [],
      "name": "InvalidShortString",
      "type": "error"
    },
    {
      "inputs": [
        {
          "internalType": "uint8",
          "name": "bits",
          "type": "uint8"
        },
        {
          "internalType": "uint256",
          "name": "value",
          "type": "uint256"
        }
      ],
      "name": "SafeCastOverflowedUintDowncast",
      "type": "error"
    },
    {
      "inputs": [
        {
          "internalType": "string",
          "name": "str",
          "type": "string"
        }
      ],
      "name": "StringTooLong",
      "type": "error"
    },
    {
      "anonymous": false,
      "inputs": [
        {
          "indexed": true,
          "internalType": "uint256",
          "name": "proposalId",
          "type": "uint256"
        },
        {
          "indexed": true,
          "internalType": "address",
          "name": "proposer",
          "type": "address"
        },
        {
          "indexed": false,
          "internalType": "address",
          "name": "targetContract",
          "type": "address"
        },
        {
          "indexed": false,
          "internalType": "bytes4",
          "name": "functionSelector",
          "type": "bytes4"
        },
        {
          "indexed": false,
          "internalType": "bytes",
          "name": "encodedParams",
          "type": "bytes"
        },
        {
          "indexed": false,
          "internalType": "uint256",
          "name": "minVotesNeeded",
          "type": "uint256"
        },
        {
          "indexed": false,
          "internalType": "uint256",
          "name": "startTime",
          "type": "uint256"
        },
        {
          "indexed": false,
          "internalType": "uint256",
          "name": "endTime",
          "type": "uint256"
        },
        {
          "indexed": false,
          "internalType": "uint256",
          "name": "executeAfter",
          "type": "uint256"
        }
      ],
      "name": "AdvancedProposalCreated",
      "type": "event"
    },
    {
      "anonymous": false,
      "inputs": [
        {
          "indexed": true,
          "internalType": "uint256",
          "name": "proposalId",
          "type": "uint256"
        }
      ],
      "name": "AdvancedProposalExecuted",
      "type": "event"
    },
    {
      "anonymous": false,
      "inputs": [
        {
          "indexed": true,
          "internalType": "uint256",
          "name": "proposalId",
          "type": "uint256"
        },
        {
          "indexed": true,
          "internalType": "address",
          "name": "vetoer",
          "type": "address"
        },
        {
          "indexed": false,
          "internalType": "uint256",
          "name": "vetoCount",
          "type": "uint256"
        }
      ],
      "name": "AdvancedProposalVetoed",
      "type": "event"
    },
    {
      "anonymous": false,
      "inputs": [
        {
          "indexed": true,
          "internalType": "uint256",
          "name": "proposalId",
          "type": "uint256"
        },
        {
          "indexed": true,
          "internalType": "address",
          "name": "voter",
          "type": "address"
        },
        {
          "indexed": false,
          "internalType": "bool",
          "name": "support",
          "type": "bool"
        },
        {
          "indexed": false,
          "internalType": "uint256",
          "name": "votes",
          "type": "uint256"
        }
      ],
      "name": "AdvancedVoteCast",
      "type": "event"
    },
    {
      "anonymous": false,
      "inputs": [
        {
          "indexed": true,
          "internalType": "address",
          "name": "contractAddr",
          "type": "address"
        },
        {
          "indexed": false,
          "internalType": "bool",
          "name": "allowed",
          "type": "bool"
        }
      ],
      "name": "AllowedContractSet",
      "type": "event"
    },
    {
      "anonymous": false,
      "inputs": [],
      "name": "BootstrapModeDisabled",
      "type": "event"
    },
    {
      "anonymous": false,
      "inputs": [
        {
          "indexed": true,
          "internalType": "address",
          "name": "contractAddr",
          "type": "address"
        },
        {
          "indexed": false,
          "internalType": "bool",
          "name": "allowed",
          "type": "bool"
        }
      ],
      "name": "ContractWhitelisted",
      "type": "event"
    },
    {
      "anonymous": false,
      "inputs": [],
      "name": "EIP712DomainChanged",
      "type": "event"
    },
    {
      "anonymous": false,
      "inputs": [
        {
          "indexed": false,
          "internalType": "address[]",
          "name": "signers",
          "type": "address[]"
        }
      ],
      "name": "EmergencyMultisigSet",
      "type": "event"
    },
    {
      "anonymous": false,
      "inputs": [
        {
          "indexed": true,
          "internalType": "address",
          "name": "asset",
          "type": "address"
        },
        {
          "indexed": true,
          "internalType": "address",
          "name": "feed",
          "type": "address"
        }
      ],
      "name": "FallbackPriceFeedSet",
      "type": "event"
    },
    {
      "anonymous": false,
      "inputs": [
        {
          "indexed": false,
          "internalType": "uint256",
          "name": "lend",
          "type": "uint256"
        },
        {
          "indexed": false,
          "internalType": "uint256",
          "name": "borrow",
          "type": "uint256"
        },
        {
          "indexed": false,
          "internalType": "uint256",
          "name": "repay",
          "type": "uint256"
        }
      ],
      "name": "MultipliersUpdated",
      "type": "event"
    },
    {
      "anonymous": false,
      "inputs": [
        {
          "indexed": true,
          "internalType": "address",
          "name": "asset",
          "type": "address"
        },
        {
          "indexed": true,
          "internalType": "address",
          "name": "feed",
          "type": "address"
        }
      ],
      "name": "PriceFeedSet",
      "type": "event"
    },
    {
      "anonymous": false,
      "inputs": [
        {
          "indexed": false,
          "internalType": "uint256",
          "name": "proposalId",
          "type": "uint256"
        }
      ],
      "name": "ProposalCanceled",
      "type": "event"
    },
    {
      "anonymous": false,
      "inputs": [
        {
          "indexed": false,
          "internalType": "uint256",
          "name": "proposalId",
          "type": "uint256"
        },
        {
          "indexed": false,
          "internalType": "address",
          "name": "proposer",
          "type": "address"
        },
        {
          "indexed": false,
          "internalType": "address[]",
          "name": "targets",
          "type": "address[]"
        },
        {
          "indexed": false,
          "internalType": "uint256[]",
          "name": "values",
          "type": "uint256[]"
        },
        {
          "indexed": false,
          "internalType": "string[]",
          "name": "signatures",
          "type": "string[]"
        },
        {
          "indexed": false,
          "internalType": "bytes[]",
          "name": "calldatas",
          "type": "bytes[]"
        },
        {
          "indexed": false,
          "internalType": "uint256",
          "name": "voteStart",
          "type": "uint256"
        },
        {
          "indexed": false,
          "internalType": "uint256",
          "name": "voteEnd",
          "type": "uint256"
        },
        {
          "indexed": false,
          "internalType": "string",
          "name": "description",
          "type": "string"
        }
      ],
      "name": "ProposalCreated",
      "type": "event"
    },
    {
      "anonymous": false,
      "inputs": [
        {
          "indexed": false,
          "internalType": "uint256",
          "name": "proposalId",
          "type": "uint256"
        }
      ],
      "name": "ProposalExecuted",
      "type": "event"
    },
    {
      "anonymous": false,
      "inputs": [
        {
          "indexed": false,
          "internalType": "uint256",
          "name": "proposalId",
          "type": "uint256"
        },
        {
          "indexed": false,
          "internalType": "uint256",
          "name": "etaSeconds",
          "type": "uint256"
        }
      ],
      "name": "ProposalQueued",
      "type": "event"
    },
    {
      "anonymous": false,
      "inputs": [
        {
          "indexed": false,
          "internalType": "uint256",
          "name": "oldProposalThreshold",
          "type": "uint256"
        },
        {
          "indexed": false,
          "internalType": "uint256",
          "name": "newProposalThreshold",
          "type": "uint256"
        }
      ],
      "name": "ProposalThresholdSet",
      "type": "event"
    },
    {
      "anonymous": false,
      "inputs": [
        {
          "indexed": false,
          "internalType": "uint256",
          "name": "newBasisPoints",
          "type": "uint256"
        }
      ],
      "name": "QuorumPercentageChanged",
      "type": "event"
    },
    {
      "anonymous": false,
      "inputs": [
        {
          "indexed": true,
          "internalType": "address",
          "name": "user",
          "type": "address"
        },
        {
          "indexed": false,
          "internalType": "int256",
          "name": "newReputation",
          "type": "int256"
        },
        {
          "indexed": false,
          "internalType": "int256",
          "name": "delta",
          "type": "int256"
        }
      ],
      "name": "ReputationChanged",
      "type": "event"
    },
    {
      "anonymous": false,
      "inputs": [
        {
          "indexed": false,
          "internalType": "uint256",
          "name": "newBasisPoints",
          "type": "uint256"
        },
        {
          "indexed": false,
          "internalType": "address",
          "name": "sender",
          "type": "address"
        }
      ],
      "name": "SetQuorumAttempt",
      "type": "event"
    },
    {
      "anonymous": false,
      "inputs": [
        {
          "indexed": false,
          "internalType": "address",
          "name": "oldTimelock",
          "type": "address"
        },
        {
          "indexed": false,
          "internalType": "address",
          "name": "newTimelock",
          "type": "address"
        }
      ],
      "name": "TimelockChange",
      "type": "event"
    },
    {
      "anonymous": false,
      "inputs": [
        {
          "indexed": true,
          "internalType": "address",
          "name": "user",
          "type": "address"
        },
        {
          "indexed": false,
          "internalType": "uint256",
          "name": "tokens",
          "type": "uint256"
        },
        {
          "indexed": false,
          "internalType": "enum ProtocolGovernor.ActionType",
          "name": "action",
          "type": "uint8"
        },
        {
          "indexed": false,
          "internalType": "address",
          "name": "asset",
          "type": "address"
        },
        {
          "indexed": false,
          "internalType": "uint256",
          "name": "amount",
          "type": "uint256"
        },
        {
          "indexed": false,
          "internalType": "uint256",
          "name": "usdValue",
          "type": "uint256"
        }
      ],
      "name": "TokensGranted",
      "type": "event"
    },
    {
      "anonymous": false,
      "inputs": [
        {
          "indexed": true,
          "internalType": "address",
          "name": "voter",
          "type": "address"
        },
        {
          "indexed": false,
          "internalType": "uint256",
          "name": "proposalId",
          "type": "uint256"
        },
        {
          "indexed": false,
          "internalType": "uint8",
          "name": "support",
          "type": "uint8"
        },
        {
          "indexed": false,
          "internalType": "uint256",
          "name": "weight",
          "type": "uint256"
        },
        {
          "indexed": false,
          "internalType": "string",
          "name": "reason",
          "type": "string"
        }
      ],
      "name": "VoteCast",
      "type": "event"
    },
    {
      "anonymous": false,
      "inputs": [
        {
          "indexed": true,
          "internalType": "address",
          "name": "voter",
          "type": "address"
        },
        {
          "indexed": false,
          "internalType": "uint256",
          "name": "proposalId",
          "type": "uint256"
        },
        {
          "indexed": false,
          "internalType": "uint8",
          "name": "support",
          "type": "uint8"
        },
        {
          "indexed": false,
          "internalType": "uint256",
          "name": "weight",
          "type": "uint256"
        },
        {
          "indexed": false,
          "internalType": "string",
          "name": "reason",
          "type": "string"
        },
        {
          "indexed": false,
          "internalType": "bytes",
          "name": "params",
          "type": "bytes"
        }
      ],
      "name": "VoteCastWithParams",
      "type": "event"
    },
    {
      "anonymous": false,
      "inputs": [
        {
          "indexed": false,
          "internalType": "uint256",
          "name": "oldVotingDelay",
          "type": "uint256"
        },
        {
          "indexed": false,
          "internalType": "uint256",
          "name": "newVotingDelay",
          "type": "uint256"
        }
      ],
      "name": "VotingDelaySet",
      "type": "event"
    },
    {
      "anonymous": false,
      "inputs": [
        {
          "indexed": false,
          "internalType": "uint256",
          "name": "oldVotingPeriod",
          "type": "uint256"
        },
        {
          "indexed": false,
          "internalType": "uint256",
          "name": "newVotingPeriod",
          "type": "uint256"
        }
      ],
      "name": "VotingPeriodSet",
      "type": "event"
    },
    {
      "inputs": [],
      "name": "APPROVAL_THRESHOLD",
      "outputs": [
        {
          "internalType": "uint256",
          "name": "",
          "type": "uint256"
        }
      ],
      "stateMutability": "view",
      "type": "function"
    },
    {
      "inputs": [],
      "name": "BALLOT_TYPEHASH",
      "outputs": [
        {
          "internalType": "bytes32",
          "name": "",
          "type": "bytes32"
        }
      ],
      "stateMutability": "view",
      "type": "function"
    },
    {
      "inputs": [],
      "name": "CLOCK_MODE",
      "outputs": [
        {
          "internalType": "string",
          "name": "",
          "type": "string"
        }
      ],
      "stateMutability": "view",
      "type": "function"
    },
    {
      "inputs": [],
      "name": "COUNTING_MODE",
      "outputs": [
        {
          "internalType": "string",
          "name": "",
          "type": "string"
        }
      ],
      "stateMutability": "pure",
      "type": "function"
    },
    {
      "inputs": [],
      "name": "EXECUTION_DELAY",
      "outputs": [
        {
          "internalType": "uint256",
          "name": "",
          "type": "uint256"
        }
      ],
      "stateMutability": "view",
      "type": "function"
    },
    {
      "inputs": [],
      "name": "EXTENDED_BALLOT_TYPEHASH",
      "outputs": [
        {
          "internalType": "bytes32",
          "name": "",
          "type": "bytes32"
        }
      ],
      "stateMutability": "view",
      "type": "function"
    },
    {
      "inputs": [],
      "name": "QUORUM",
      "outputs": [
        {
          "internalType": "uint256",
          "name": "",
          "type": "uint256"
        }
      ],
      "stateMutability": "view",
      "type": "function"
    },
    {
      "inputs": [],
      "name": "VOTING_PERIOD",
      "outputs": [
        {
          "internalType": "uint256",
          "name": "",
          "type": "uint256"
        }
      ],
      "stateMutability": "view",
      "type": "function"
    },
    {
      "inputs": [
        {
          "internalType": "address",
          "name": "",
          "type": "address"
        }
      ],
      "name": "allowedContracts",
      "outputs": [
        {
          "internalType": "bool",
          "name": "",
          "type": "bool"
        }
      ],
      "stateMutability": "view",
      "type": "function"
    },
    {
      "inputs": [],
      "name": "bootstrapMode",
      "outputs": [
        {
          "internalType": "bool",
          "name": "",
          "type": "bool"
        }
      ],
      "stateMutability": "view",
      "type": "function"
    },
    {
      "inputs": [],
      "name": "bootstrapQuorum",
      "outputs": [
        {
          "internalType": "uint256",
          "name": "",
          "type": "uint256"
        }
      ],
      "stateMutability": "view",
      "type": "function"
    },
    {
      "inputs": [],
      "name": "borrowMultiplier",
      "outputs": [
        {
          "internalType": "uint256",
          "name": "",
          "type": "uint256"
        }
      ],
      "stateMutability": "view",
      "type": "function"
    },
    {
      "inputs": [
        {
          "internalType": "address[]",
          "name": "targets",
          "type": "address[]"
        },
        {
          "internalType": "uint256[]",
          "name": "values",
          "type": "uint256[]"
        },
        {
          "internalType": "bytes[]",
          "name": "calldatas",
          "type": "bytes[]"
        },
        {
          "internalType": "bytes32",
          "name": "descriptionHash",
          "type": "bytes32"
        }
      ],
      "name": "cancel",
      "outputs": [
        {
          "internalType": "uint256",
          "name": "",
          "type": "uint256"
        }
      ],
      "stateMutability": "nonpayable",
      "type": "function"
    },
    {
      "inputs": [
        {
          "internalType": "uint256",
          "name": "proposalId",
          "type": "uint256"
        },
        {
          "internalType": "uint8",
          "name": "support",
          "type": "uint8"
        }
      ],
      "name": "castVote",
      "outputs": [
        {
          "internalType": "uint256",
          "name": "",
          "type": "uint256"
        }
      ],
      "stateMutability": "nonpayable",
      "type": "function"
    },
    {
      "inputs": [
        {
          "internalType": "uint256",
          "name": "proposalId",
          "type": "uint256"
        },
        {
          "internalType": "uint8",
          "name": "support",
          "type": "uint8"
        },
        {
          "internalType": "address",
          "name": "voter",
          "type": "address"
        },
        {
          "internalType": "bytes",
          "name": "signature",
          "type": "bytes"
        }
      ],
      "name": "castVoteBySig",
      "outputs": [
        {
          "internalType": "uint256",
          "name": "",
          "type": "uint256"
        }
      ],
      "stateMutability": "nonpayable",
      "type": "function"
    },
    {
      "inputs": [
        {
          "internalType": "uint256",
          "name": "proposalId",
          "type": "uint256"
        },
        {
          "internalType": "uint8",
          "name": "support",
          "type": "uint8"
        },
        {
          "internalType": "string",
          "name": "reason",
          "type": "string"
        }
      ],
      "name": "castVoteWithReason",
      "outputs": [
        {
          "internalType": "uint256",
          "name": "",
          "type": "uint256"
        }
      ],
      "stateMutability": "nonpayable",
      "type": "function"
    },
    {
      "inputs": [
        {
          "internalType": "uint256",
          "name": "proposalId",
          "type": "uint256"
        },
        {
          "internalType": "uint8",
          "name": "support",
          "type": "uint8"
        },
        {
          "internalType": "string",
          "name": "reason",
          "type": "string"
        },
        {
          "internalType": "bytes",
          "name": "params",
          "type": "bytes"
        }
      ],
      "name": "castVoteWithReasonAndParams",
      "outputs": [
        {
          "internalType": "uint256",
          "name": "",
          "type": "uint256"
        }
      ],
      "stateMutability": "nonpayable",
      "type": "function"
    },
    {
      "inputs": [
        {
          "internalType": "uint256",
          "name": "proposalId",
          "type": "uint256"
        },
        {
          "internalType": "uint8",
          "name": "support",
          "type": "uint8"
        },
        {
          "internalType": "address",
          "name": "voter",
          "type": "address"
        },
        {
          "internalType": "string",
          "name": "reason",
          "type": "string"
        },
        {
          "internalType": "bytes",
          "name": "params",
          "type": "bytes"
        },
        {
          "internalType": "bytes",
          "name": "signature",
          "type": "bytes"
        }
      ],
      "name": "castVoteWithReasonAndParamsBySig",
      "outputs": [
        {
          "internalType": "uint256",
          "name": "",
          "type": "uint256"
        }
      ],
      "stateMutability": "nonpayable",
      "type": "function"
    },
    {
      "inputs": [],
      "name": "clock",
      "outputs": [
        {
          "internalType": "uint48",
          "name": "",
          "type": "uint48"
        }
      ],
      "stateMutability": "view",
      "type": "function"
    },
    {
      "inputs": [
        {
          "internalType": "address",
          "name": "",
          "type": "address"
        }
      ],
      "name": "contractWhitelist",
      "outputs": [
        {
          "internalType": "bool",
          "name": "",
          "type": "bool"
        }
      ],
      "stateMutability": "view",
      "type": "function"
    },
    {
      "inputs": [],
      "name": "disableBootstrapMode",
      "outputs": [],
      "stateMutability": "nonpayable",
      "type": "function"
    },
    {
      "inputs": [],
      "name": "eip712Domain",
      "outputs": [
        {
          "internalType": "bytes1",
          "name": "fields",
          "type": "bytes1"
        },
        {
          "internalType": "string",
          "name": "name",
          "type": "string"
        },
        {
          "internalType": "string",
          "name": "version",
          "type": "string"
        },
        {
          "internalType": "uint256",
          "name": "chainId",
          "type": "uint256"
        },
        {
          "internalType": "address",
          "name": "verifyingContract",
          "type": "address"
        },
        {
          "internalType": "bytes32",
          "name": "salt",
          "type": "bytes32"
        },
        {
          "internalType": "uint256[]",
          "name": "extensions",
          "type": "uint256[]"
        }
      ],
      "stateMutability": "view",
      "type": "function"
    },
    {
      "inputs": [
        {
          "internalType": "uint256",
          "name": "",
          "type": "uint256"
        }
      ],
      "name": "emergencyMultisig",
      "outputs": [
        {
          "internalType": "address",
          "name": "",
          "type": "address"
        }
      ],
      "stateMutability": "view",
      "type": "function"
    },
    {
      "inputs": [
        {
          "internalType": "address[]",
          "name": "targets",
          "type": "address[]"
        },
        {
          "internalType": "uint256[]",
          "name": "values",
          "type": "uint256[]"
        },
        {
          "internalType": "bytes[]",
          "name": "calldatas",
          "type": "bytes[]"
        },
        {
          "internalType": "bytes32",
          "name": "descriptionHash",
          "type": "bytes32"
        }
      ],
      "name": "execute",
      "outputs": [
        {
          "internalType": "uint256",
          "name": "",
          "type": "uint256"
        }
      ],
      "stateMutability": "payable",
      "type": "function"
    },
    {
      "inputs": [
        {
          "internalType": "uint256",
          "name": "proposalId",
          "type": "uint256"
        }
      ],
      "name": "executeAdvancedProposal",
      "outputs": [],
      "stateMutability": "nonpayable",
      "type": "function"
    },
    {
      "inputs": [
        {
          "internalType": "address",
          "name": "",
          "type": "address"
        }
      ],
      "name": "fallbackPriceFeeds",
      "outputs": [
        {
          "internalType": "address",
          "name": "",
          "type": "address"
        }
      ],
      "stateMutability": "view",
      "type": "function"
    },
    {
      "inputs": [
        {
          "internalType": "address[]",
          "name": "targets",
          "type": "address[]"
        },
        {
          "internalType": "uint256[]",
          "name": "values",
          "type": "uint256[]"
        },
        {
          "internalType": "bytes[]",
          "name": "calldatas",
          "type": "bytes[]"
        },
        {
          "internalType": "bytes32",
          "name": "descriptionHash",
          "type": "bytes32"
        }
      ],
      "name": "getProposalId",
      "outputs": [
        {
          "internalType": "uint256",
          "name": "",
          "type": "uint256"
        }
      ],
      "stateMutability": "view",
      "type": "function"
    },
    {
      "inputs": [
        {
          "internalType": "address",
          "name": "user",
          "type": "address"
        }
      ],
      "name": "getReputation",
      "outputs": [
        {
          "internalType": "int256",
          "name": "",
          "type": "int256"
        }
      ],
      "stateMutability": "view",
      "type": "function"
    },
    {
      "inputs": [
        {
          "internalType": "address",
          "name": "account",
          "type": "address"
        },
        {
          "internalType": "uint256",
          "name": "timepoint",
          "type": "uint256"
        }
      ],
      "name": "getVotes",
      "outputs": [
        {
          "internalType": "uint256",
          "name": "",
          "type": "uint256"
        }
      ],
      "stateMutability": "view",
      "type": "function"
    },
    {
      "inputs": [
        {
          "internalType": "address",
          "name": "account",
          "type": "address"
        },
        {
          "internalType": "uint256",
          "name": "timepoint",
          "type": "uint256"
        },
        {
          "internalType": "bytes",
          "name": "params",
          "type": "bytes"
        }
      ],
      "name": "getVotesWithParams",
      "outputs": [
        {
          "internalType": "uint256",
          "name": "",
          "type": "uint256"
        }
      ],
      "stateMutability": "view",
      "type": "function"
    },
    {
      "inputs": [
        {
          "internalType": "address",
          "name": "user",
          "type": "address"
        }
      ],
      "name": "getVotingPower",
      "outputs": [
        {
          "internalType": "uint256",
          "name": "",
          "type": "uint256"
        }
      ],
      "stateMutability": "view",
      "type": "function"
    },
    {
      "inputs": [
        {
          "internalType": "address",
          "name": "user",
          "type": "address"
        },
        {
          "internalType": "address",
          "name": "asset",
          "type": "address"
        },
        {
          "internalType": "uint256",
          "name": "amount",
          "type": "uint256"
        },
        {
          "internalType": "enum ProtocolGovernor.ActionType",
          "name": "action",
          "type": "uint8"
        }
      ],
      "name": "grantTokens",
      "outputs": [],
      "stateMutability": "nonpayable",
      "type": "function"
    },
    {
      "inputs": [
        {
          "internalType": "uint256",
          "name": "proposalId",
          "type": "uint256"
        },
        {
          "internalType": "address",
          "name": "account",
          "type": "address"
        }
      ],
      "name": "hasVoted",
      "outputs": [
        {
          "internalType": "bool",
          "name": "",
          "type": "bool"
        }
      ],
      "stateMutability": "view",
      "type": "function"
    },
    {
      "inputs": [
        {
          "internalType": "address[]",
          "name": "targets",
          "type": "address[]"
        },
        {
          "internalType": "uint256[]",
          "name": "values",
          "type": "uint256[]"
        },
        {
          "internalType": "bytes[]",
          "name": "calldatas",
          "type": "bytes[]"
        },
        {
          "internalType": "bytes32",
          "name": "descriptionHash",
          "type": "bytes32"
        }
      ],
      "name": "hashProposal",
      "outputs": [
        {
          "internalType": "uint256",
          "name": "",
          "type": "uint256"
        }
      ],
      "stateMutability": "pure",
      "type": "function"
    },
    {
      "inputs": [
        {
          "internalType": "address",
          "name": "signer",
          "type": "address"
        }
      ],
      "name": "isMultisig",
      "outputs": [
        {
          "internalType": "bool",
          "name": "",
          "type": "bool"
        }
      ],
      "stateMutability": "view",
      "type": "function"
    },
    {
      "inputs": [],
      "name": "lendMultiplier",
      "outputs": [
        {
          "internalType": "uint256",
          "name": "",
          "type": "uint256"
        }
      ],
      "stateMutability": "view",
      "type": "function"
    },
    {
      "inputs": [],
      "name": "name",
      "outputs": [
        {
          "internalType": "string",
          "name": "",
          "type": "string"
        }
      ],
      "stateMutability": "view",
      "type": "function"
    },
    {
      "inputs": [
        {
          "internalType": "address",
          "name": "owner",
          "type": "address"
        }
      ],
      "name": "nonces",
      "outputs": [
        {
          "internalType": "uint256",
          "name": "",
          "type": "uint256"
        }
      ],
      "stateMutability": "view",
      "type": "function"
    },
    {
      "inputs": [
        {
          "internalType": "address",
          "name": "",
          "type": "address"
        },
        {
          "internalType": "address",
          "name": "",
          "type": "address"
        },
        {
          "internalType": "uint256[]",
          "name": "",
          "type": "uint256[]"
        },
        {
          "internalType": "uint256[]",
          "name": "",
          "type": "uint256[]"
        },
        {
          "internalType": "bytes",
          "name": "",
          "type": "bytes"
        }
      ],
      "name": "onERC1155BatchReceived",
      "outputs": [
        {
          "internalType": "bytes4",
          "name": "",
          "type": "bytes4"
        }
      ],
      "stateMutability": "nonpayable",
      "type": "function"
    },
    {
      "inputs": [
        {
          "internalType": "address",
          "name": "",
          "type": "address"
        },
        {
          "internalType": "address",
          "name": "",
          "type": "address"
        },
        {
          "internalType": "uint256",
          "name": "",
          "type": "uint256"
        },
        {
          "internalType": "uint256",
          "name": "",
          "type": "uint256"
        },
        {
          "internalType": "bytes",
          "name": "",
          "type": "bytes"
        }
      ],
      "name": "onERC1155Received",
      "outputs": [
        {
          "internalType": "bytes4",
          "name": "",
          "type": "bytes4"
        }
      ],
      "stateMutability": "nonpayable",
      "type": "function"
    },
    {
      "inputs": [
        {
          "internalType": "address",
          "name": "",
          "type": "address"
        },
        {
          "internalType": "address",
          "name": "",
          "type": "address"
        },
        {
          "internalType": "uint256",
          "name": "",
          "type": "uint256"
        },
        {
          "internalType": "bytes",
          "name": "",
          "type": "bytes"
        }
      ],
      "name": "onERC721Received",
      "outputs": [
        {
          "internalType": "bytes4",
          "name": "",
          "type": "bytes4"
        }
      ],
      "stateMutability": "nonpayable",
      "type": "function"
    },
    {
      "inputs": [
        {
          "internalType": "address",
          "name": "user",
          "type": "address"
        },
        {
          "internalType": "int256",
          "name": "amount",
          "type": "int256"
        }
      ],
      "name": "penalizeReputation",
      "outputs": [],
      "stateMutability": "nonpayable",
      "type": "function"
    },
    {
      "inputs": [
        {
          "internalType": "address",
          "name": "",
          "type": "address"
        }
      ],
      "name": "priceFeeds",
      "outputs": [
        {
          "internalType": "address",
          "name": "",
          "type": "address"
        }
      ],
      "stateMutability": "view",
      "type": "function"
    },
    {
      "inputs": [],
      "name": "proposalCount",
      "outputs": [
        {
          "internalType": "uint256",
          "name": "",
          "type": "uint256"
        }
      ],
      "stateMutability": "view",
      "type": "function"
    },
    {
      "inputs": [
        {
          "internalType": "uint256",
          "name": "proposalId",
          "type": "uint256"
        }
      ],
      "name": "proposalDeadline",
      "outputs": [
        {
          "internalType": "uint256",
          "name": "",
          "type": "uint256"
        }
      ],
      "stateMutability": "view",
      "type": "function"
    },
    {
      "inputs": [
        {
          "internalType": "uint256",
          "name": "proposalId",
          "type": "uint256"
        }
      ],
      "name": "proposalEta",
      "outputs": [
        {
          "internalType": "uint256",
          "name": "",
          "type": "uint256"
        }
      ],
      "stateMutability": "view",
      "type": "function"
    },
    {
      "inputs": [
        {
          "internalType": "uint256",
          "name": "proposalId",
          "type": "uint256"
        }
      ],
      "name": "proposalNeedsQueuing",
      "outputs": [
        {
          "internalType": "bool",
          "name": "",
          "type": "bool"
        }
      ],
      "stateMutability": "view",
      "type": "function"
    },
    {
      "inputs": [
        {
          "internalType": "uint256",
          "name": "proposalId",
          "type": "uint256"
        }
      ],
      "name": "proposalProposer",
      "outputs": [
        {
          "internalType": "address",
          "name": "",
          "type": "address"
        }
      ],
      "stateMutability": "view",
      "type": "function"
    },
    {
      "inputs": [
        {
          "internalType": "uint256",
          "name": "proposalId",
          "type": "uint256"
        }
      ],
      "name": "proposalSnapshot",
      "outputs": [
        {
          "internalType": "uint256",
          "name": "",
          "type": "uint256"
        }
      ],
      "stateMutability": "view",
      "type": "function"
    },
    {
      "inputs": [],
      "name": "proposalThreshold",
      "outputs": [
        {
          "internalType": "uint256",
          "name": "",
          "type": "uint256"
        }
      ],
      "stateMutability": "view",
      "type": "function"
    },
    {
      "inputs": [
        {
          "internalType": "uint256",
          "name": "proposalId",
          "type": "uint256"
        }
      ],
      "name": "proposalVotes",
      "outputs": [
        {
          "internalType": "uint256",
          "name": "againstVotes",
          "type": "uint256"
        },
        {
          "internalType": "uint256",
          "name": "forVotes",
          "type": "uint256"
        },
        {
          "internalType": "uint256",
          "name": "abstainVotes",
          "type": "uint256"
        }
      ],
      "stateMutability": "view",
      "type": "function"
    },
    {
      "inputs": [
        {
          "internalType": "uint256",
          "name": "",
          "type": "uint256"
        }
      ],
      "name": "proposals",
      "outputs": [
        {
          "internalType": "address",
          "name": "targetContract",
          "type": "address"
        },
        {
          "internalType": "bytes4",
          "name": "functionSelector",
          "type": "bytes4"
        },
        {
          "internalType": "bytes",
          "name": "encodedParams",
          "type": "bytes"
        },
        {
          "internalType": "uint256",
          "name": "minVotesNeeded",
          "type": "uint256"
        },
        {
          "internalType": "uint256",
          "name": "startTime",
          "type": "uint256"
        },
        {
          "internalType": "uint256",
          "name": "endTime",
          "type": "uint256"
        },
        {
          "internalType": "uint256",
          "name": "executeAfter",
          "type": "uint256"
        },
        {
          "internalType": "bool",
          "name": "executed",
          "type": "bool"
        },
        {
          "internalType": "uint256",
          "name": "yesVotes",
          "type": "uint256"
        },
        {
          "internalType": "uint256",
          "name": "noVotes",
          "type": "uint256"
        }
      ],
      "stateMutability": "view",
      "type": "function"
    },
    {
      "inputs": [
        {
          "internalType": "address[]",
          "name": "targets",
          "type": "address[]"
        },
        {
          "internalType": "uint256[]",
          "name": "values",
          "type": "uint256[]"
        },
        {
          "internalType": "bytes[]",
          "name": "calldatas",
          "type": "bytes[]"
        },
        {
          "internalType": "string",
          "name": "description",
          "type": "string"
        }
      ],
      "name": "propose",
      "outputs": [
        {
          "internalType": "uint256",
          "name": "",
          "type": "uint256"
        }
      ],
      "stateMutability": "nonpayable",
      "type": "function"
    },
    {
      "inputs": [
        {
          "internalType": "address",
          "name": "targetContract",
          "type": "address"
        },
        {
          "internalType": "bytes4",
          "name": "functionSelector",
          "type": "bytes4"
        },
        {
          "internalType": "bytes",
          "name": "encodedParams",
          "type": "bytes"
        },
        {
          "internalType": "uint256",
          "name": "minVotesNeeded",
          "type": "uint256"
        }
      ],
      "name": "proposeAdvanced",
      "outputs": [],
      "stateMutability": "nonpayable",
      "type": "function"
    },
    {
      "inputs": [
        {
          "internalType": "address[]",
          "name": "targets",
          "type": "address[]"
        },
        {
          "internalType": "uint256[]",
          "name": "values",
          "type": "uint256[]"
        },
        {
          "internalType": "bytes[]",
          "name": "calldatas",
          "type": "bytes[]"
        },
        {
          "internalType": "bytes32",
          "name": "descriptionHash",
          "type": "bytes32"
        }
      ],
      "name": "queue",
      "outputs": [
        {
          "internalType": "uint256",
          "name": "",
          "type": "uint256"
        }
      ],
      "stateMutability": "nonpayable",
      "type": "function"
    },
    {
      "inputs": [
        {
          "internalType": "uint256",
          "name": "",
          "type": "uint256"
        }
      ],
      "name": "quorum",
      "outputs": [
        {
          "internalType": "uint256",
          "name": "",
          "type": "uint256"
        }
      ],
      "stateMutability": "view",
      "type": "function"
    },
    {
      "inputs": [],
      "name": "quorumPercentage",
      "outputs": [
        {
          "internalType": "uint256",
          "name": "",
          "type": "uint256"
        }
      ],
      "stateMutability": "view",
      "type": "function"
    },
    {
      "inputs": [
        {
          "internalType": "address",
          "name": "target",
          "type": "address"
        },
        {
          "internalType": "uint256",
          "name": "value",
          "type": "uint256"
        },
        {
          "internalType": "bytes",
          "name": "data",
          "type": "bytes"
        }
      ],
      "name": "relay",
      "outputs": [],
      "stateMutability": "payable",
      "type": "function"
    },
    {
      "inputs": [],
      "name": "repayMultiplier",
      "outputs": [
        {
          "internalType": "uint256",
          "name": "",
          "type": "uint256"
        }
      ],
      "stateMutability": "view",
      "type": "function"
    },
    {
      "inputs": [
        {
          "internalType": "address",
          "name": "",
          "type": "address"
        }
      ],
      "name": "reputation",
      "outputs": [
        {
          "internalType": "int256",
          "name": "",
          "type": "int256"
        }
      ],
      "stateMutability": "view",
      "type": "function"
    },
    {
      "inputs": [
        {
          "internalType": "address",
          "name": "contractAddr",
          "type": "address"
        },
        {
          "internalType": "bool",
          "name": "allowed",
          "type": "bool"
        }
      ],
      "name": "setAllowedContract",
      "outputs": [],
      "stateMutability": "nonpayable",
      "type": "function"
    },
    {
      "inputs": [
        {
          "internalType": "address",
          "name": "contractAddr",
          "type": "address"
        },
        {
          "internalType": "bool",
          "name": "allowed",
          "type": "bool"
        }
      ],
      "name": "setContractWhitelist",
      "outputs": [],
      "stateMutability": "nonpayable",
      "type": "function"
    },
    {
      "inputs": [
        {
          "internalType": "address[]",
          "name": "signers",
          "type": "address[]"
        }
      ],
      "name": "setEmergencyMultisig",
      "outputs": [],
      "stateMutability": "nonpayable",
      "type": "function"
    },
    {
      "inputs": [
        {
          "internalType": "address",
          "name": "asset",
          "type": "address"
        },
        {
          "internalType": "address",
          "name": "feed",
          "type": "address"
        }
      ],
      "name": "setFallbackPriceFeed",
      "outputs": [],
      "stateMutability": "nonpayable",
      "type": "function"
    },
    {
      "inputs": [
        {
          "internalType": "uint256",
          "name": "lend",
          "type": "uint256"
        },
        {
          "internalType": "uint256",
          "name": "borrow",
          "type": "uint256"
        },
        {
          "internalType": "uint256",
          "name": "repay",
          "type": "uint256"
        }
      ],
      "name": "setMultipliers",
      "outputs": [],
      "stateMutability": "nonpayable",
      "type": "function"
    },
    {
      "inputs": [
        {
          "internalType": "address",
          "name": "asset",
          "type": "address"
        },
        {
          "internalType": "address",
          "name": "feed",
          "type": "address"
        }
      ],
      "name": "setPriceFeed",
      "outputs": [],
      "stateMutability": "nonpayable",
      "type": "function"
    },
    {
      "inputs": [
        {
          "internalType": "uint256",
          "name": "newProposalThreshold",
          "type": "uint256"
        }
      ],
      "name": "setProposalThreshold",
      "outputs": [],
      "stateMutability": "nonpayable",
      "type": "function"
    },
    {
      "inputs": [
        {
          "internalType": "uint256",
          "name": "newBasisPoints",
          "type": "uint256"
        }
      ],
      "name": "setQuorumPercentage",
      "outputs": [],
      "stateMutability": "nonpayable",
      "type": "function"
    },
    {
      "inputs": [
        {
          "internalType": "uint48",
          "name": "newVotingDelay",
          "type": "uint48"
        }
      ],
      "name": "setVotingDelay",
      "outputs": [],
      "stateMutability": "nonpayable",
      "type": "function"
    },
    {
      "inputs": [
        {
          "internalType": "uint32",
          "name": "newVotingPeriod",
          "type": "uint32"
        }
      ],
      "name": "setVotingPeriod",
      "outputs": [],
      "stateMutability": "nonpayable",
      "type": "function"
    },
    {
      "inputs": [
        {
          "internalType": "uint256",
          "name": "proposalId",
          "type": "uint256"
        }
      ],
      "name": "state",
      "outputs": [
        {
          "internalType": "enum IGovernor.ProposalState",
          "name": "",
          "type": "uint8"
        }
      ],
      "stateMutability": "view",
      "type": "function"
    },
    {
      "inputs": [
        {
          "internalType": "bytes4",
          "name": "interfaceId",
          "type": "bytes4"
        }
      ],
      "name": "supportsInterface",
      "outputs": [
        {
          "internalType": "bool",
          "name": "",
          "type": "bool"
        }
      ],
      "stateMutability": "view",
      "type": "function"
    },
    {
      "inputs": [],
      "name": "timelock",
      "outputs": [
        {
          "internalType": "address",
          "name": "",
          "type": "address"
        }
      ],
      "stateMutability": "view",
      "type": "function"
    },
    {
      "inputs": [
        {
          "internalType": "contract TimelockController",
          "name": "newTimelock",
          "type": "address"
        }
      ],
      "name": "updateTimelock",
      "outputs": [],
      "stateMutability": "nonpayable",
      "type": "function"
    },
    {
      "inputs": [],
      "name": "version",
      "outputs": [
        {
          "internalType": "string",
          "name": "",
          "type": "string"
        }
      ],
      "stateMutability": "view",
      "type": "function"
    },
    {
      "inputs": [
        {
          "internalType": "uint256",
          "name": "proposalId",
          "type": "uint256"
        }
      ],
      "name": "vetoAdvanced",
      "outputs": [],
      "stateMutability": "nonpayable",
      "type": "function"
    },
    {
      "inputs": [
        {
          "internalType": "uint256",
          "name": "",
          "type": "uint256"
        }
      ],
      "name": "vetoSignatures",
      "outputs": [
        {
          "internalType": "uint256",
          "name": "",
          "type": "uint256"
        }
      ],
      "stateMutability": "view",
      "type": "function"
    },
    {
      "inputs": [
        {
          "internalType": "uint256",
          "name": "proposalId",
          "type": "uint256"
        },
        {
          "internalType": "bool",
          "name": "support",
          "type": "bool"
        }
      ],
      "name": "voteAdvanced",
      "outputs": [],
      "stateMutability": "nonpayable",
      "type": "function"
    },
    {
      "inputs": [],
      "name": "votingDelay",
      "outputs": [
        {
          "internalType": "uint256",
          "name": "",
          "type": "uint256"
        }
      ],
      "stateMutability": "view",
      "type": "function"
    },
    {
      "inputs": [],
      "name": "votingPeriod",
      "outputs": [
        {
          "internalType": "uint256",
          "name": "",
          "type": "uint256"
        }
      ],
      "stateMutability": "view",
      "type": "function"
    },
    {
      "inputs": [],
      "name": "votingToken",
      "outputs": [
        {
          "internalType": "contract VotingToken",
          "name": "",
          "type": "address"
        }
      ],
      "stateMutability": "view",
      "type": "function"
    },
    {
      "stateMutability": "payable",
      "type": "receive"
    }
  ],
  "bytecode": "0x610160806040523461046b5760408161580f80380380916100208285610470565b83398101031261046b5780516001600160a01b038116919082900361046b57602001516001600160a01b038116919082900361046b5760405191610065604084610470565b60108352602083016f283937ba37b1b7b623b7bb32b93737b960811b815260405190610092604083610470565b600182526020820190603160f81b82526100ab86610493565b610120526100b88361063f565b6101405285519020918260e05251902080610100524660a0526040519060208201927f8b73c3c69bb8fe3d512ecc4cf759cc79239f7b179b0ffacaa9a75d522b39400f8452604083015260608201524660808201523060a082015260a0815261012260c082610470565b5190206080523060c05282516001600160401b03811161045557600354600181811c9116801561044b575b602082101461043557601f81116103d0575b506020601f8211600114610369578192939460009261035e575b50508160011b916000199060031b1c1916176003555b663c00000000003c6008547fc565b045403dc03c2eea82b81a0465edad9e2e7fc4d97e11421c209da93d7a936040805165ffffffffffff84168152603c6020820152a17f7e3f7f0708a84de9203036abaa450dccc85ad5ff52f78c170f3edb55cf5e88286040805163ffffffff603c65ffffffffffff1986161760301c168152603c6020820152a16001600160501b0319161760085560075460408051918252600060208301527fccb45da8d5717e6c4544694297c4ba5cf151d455c9bb0ed4fc7a38411bc0546191a16000600755600a54604080516001600160a01b0383168152602081018490527f08f74ea46ef7894f65eabfb5e6e695de773a000b47c529ab559178069b2264019190a160018060a01b03191617600a556001600d55600160ff19600e541617600e556064600f556714d1120d7b1600006011556709b6e64a8ec60000601255670de0b6b3a764000060135560018060a01b0319600c541617600c553060005260196020526040600020600160ff1982541617905560405161503190816107de823960805181614a55015260a05181614b0c015260c05181614a1f015260e05181614aa401526101005181614aca015261012051816110b5015261014051816110df0152f35b015190503880610179565b601f198216906003600052806000209160005b8181106103b85750958360019596971061039f575b505050811b0160035561018f565b015160001960f88460031b161c19169055388080610391565b9192602060018192868b01518155019401920161037c565b60036000527fc2575a0e9e593c00f959f8c92f12db2869c3395a3b0502d05e2516446f71f85b601f830160051c8101916020841061042b575b601f0160051c01905b81811061041f575061015f565b60008155600101610412565b9091508190610409565b634e487b7160e01b600052602260045260246000fd5b90607f169061014d565b634e487b7160e01b600052604160045260246000fd5b600080fd5b601f909101601f19168101906001600160401b0382119082101761045557604052565b9081516020811060001461052b575090601f8151116104cf5760208151910151602082106104bf571790565b6000198260200360031b1b161790565b6040519063305a27a960e01b8252602060048301528181519182602483015260005b8381106105135750508160006044809484010152601f80199101168101030190fd5b602082820181015160448784010152859350016104f1565b6001600160401b03811161045557600054600181811c91168015610635575b602082101461043557601f8111610600575b50602092601f821160011461059c5792819293600092610591575b50508160011b916000199060031b1c19161760005560ff90565b015190503880610577565b601f1982169360008052806000209160005b8681106105e857508360019596106105cf575b505050811b0160005560ff90565b015160001960f88460031b161c191690553880806105c1565b919260206001819286850151815501940192016105ae565b60008052601f6020600020910160051c810190601f830160051c015b818110610629575061055c565b6000815560010161061c565b90607f169061054a565b908151602081106000146106c7575090601f81511161066b5760208151910151602082106104bf571790565b6040519063305a27a960e01b8252602060048301528181519182602483015260005b8381106106af5750508160006044809484010152601f80199101168101030190fd5b6020828201810151604487840101528593500161068d565b6001600160401b03811161045557600154600181811c911680156107d3575b602082101461043557601f811161079d575b50602092601f8211600114610738579281929360009261072d575b50508160011b916000199060031b1c19161760015560ff90565b015190503880610713565b601f198216936001600052806000209160005b868110610785575083600195961061076c575b505050811b0160015560ff90565b015160001960f88460031b161c1916905538808061075e565b9192602060018192868501518155019401920161074b565b6001600052601f6020600020910160051c810190601f830160051c015b8181106107c757506106f8565b600081556001016107ba565b90607f16906106e656fe6080806040526004361015610040575b50361561001b57600080fd5b600a546001600160a01b0316300361002f57005b637485328f60e11b60005260046000fd5b600090813560e01c908163013cf08b146137d85750806301ffc9a71461375157806302a251a31461372a5780630478c63c1461370057806306fdde031461361d57806307d4fca31461350c578063143489d0146134d9578063150b7a0214613471578063160cbed714613138578063184de4c214612cb15780632656227d14612a815780632d63f69314612a4c5780632e80d9b614612a305780632fa75faf146128d45780632fe3e2611461289957806332f6a1dc1461275157806337e417081461270757806337f135d7146126e95780633932abb1146126c35780633ab34290146126a75780633e4f49e6146126615780634385963214612612578063452115d61461249c57806345375ec0146124585780634bf5d7e9146124065780634c999f5e146123c75780634fa76ec9146123a957806351e0e26b1461236a578063544ffc9c1461231e57806354fd4d50146122d957806355de1faf1461225f57806356781388146122205780635b8d0e0d146120b95780635f398a141461204357806361a29fe71461202557806363222f2614612007578063668f6ace14611fd957806369e0490614611fbb5780636ce46bc314611df75780636f97b07f14611dd95780637548cde514611c2f57806376e1128614611bad57806376e674df146117a757806379051887146117305780637b3c71d3146116cc5780637d5e81e2146112565780637ecebe001461121d578063839b0ee11461116857806384b0196e146110985780638b113cf9146110575780638ff262e314610f3057806391ddadf414610f0d5780639563ddb314610eea5780639a802a6d14610ea45780639c89a0e214610c725780639dcb511a14610e63578063a6d84b1614610de1578063a890c91014610d63578063a8f8a66814610b17578063a9a9529414610d46578063ab58fb8e14610d10578063b034012314610ce7578063b1610d7e14610cc9578063b58131b014610cab578063b9f7945114610c72578063bb4d443614610c4e578063bc197c8114610ba6578063c01f9e3714610b87578063c28bc2fa14610b1c578063c59057e414610b17578063d33219b414610aee578063da35c66414610ad0578063dd4e2ba514610a6d578063deaaa7cc14610a32578063e540d01d14610987578063eb9019d414610953578063ece40cc1146108fe578063f23a6e6114610883578063f8ce560a1461085f578063fd772ae6146107dd5763fdc0b0e60361000f57346107da5760803660031901126107da576103dd6139db565b6024356001600160e01b03198116908181036107d8576044356001600160401b0381116107d457610412903690600401613cdb565b93906064359161042133613f8a565b600c54604051631d5e528f60e21b815290602090829060049082906001600160a01b03165afa9081156107c9578991610792575b5060001981019081116106e7576103e890041161074d576001600160a01b03168087526019602052604087205490929060ff161561070f5762093a804201908142116106fb57620bdd804201928383116106e757601754966104b688613f7b565b601755878a5260186020526040808b20805463ffffffff60a01b1989166001600160c01b0319909116179890911c63ffffffff60a01b1697909717875560018701966001600160401b038a116106d357908a8a93926105158a54613929565b601f8111610698575b5081601f86116001146105f657907f95163a216cfd223fcfcefbee1958390d7f2c90e178d267fa2915d2c287bbdd969a8660089385916105eb575b508760011b906000198960031b1c19161790555b8660028201554260038201558760048201558860058201556006810160ff1981541690558260078201550155604051968752602087015260e060408701528160e0870152610100860137876101008886010152606084015242608084015260a083015260c0820152610100813395601f80199101168101030190a380f35b905086013538610559565b99601f1986168184526020842090845b8181106106665750907f95163a216cfd223fcfcefbee1958390d7f2c90e178d267fa2915d2c287bbdd969c8860089594931061064c575b5050600187811b01905561056d565b87013560001960038a901b60f8161c19169055388061063d565b939698999a9b9c945091949650602060018192868b013581550194019201928d9694918f949c9b9a999896939c610606565b6106c3908b845260208420601f880160051c810191602089106106c9575b601f0160051c0190613f11565b3861051e565b90915081906106b6565b634e487b7160e01b8b52604160045260248bfd5b634e487b7160e01b89526011600452602489fd5b634e487b7160e01b88526011600452602488fd5b60405162461bcd60e51b815260206004820152601660248201527515185c99d95d081b9bdd081dda1a5d195b1a5cdd195960521b6044820152606490fd5b60405162461bcd60e51b815260206004820152601b60248201527f4e65656420302e312520746f6b656e7320746f2070726f706f736500000000006044820152606490fd5b90506020813d6020116107c1575b816107ad60209383613963565b810103126107bc575138610455565b600080fd5b3d91506107a0565b6040513d8b823e3d90fd5b8480fd5b835b80fd5b50346107da5760403660031901126107da576107f76139db565b7f46fe0810a41e3dbf985c77c9f30207ce6eda91dcba24d8de583b6ea30ac16f006020610822613c67565b9261082e303314613e82565b6001600160a01b03168085526019825260408520805460ff191660ff86151516179055925b6040519015158152a280f35b50346107da5760203660031901126107da57602061087b61410d565b604051908152f35b50346107da5760a03660031901126107da5761089d6139db565b506108a66139f1565b506084356001600160401b0381116108fa576108c6903690600401613a83565b50600a546001600160a01b031630036108eb5760405163f23a6e6160e01b8152602090f35b637485328f60e11b8152600490fd5b5080fd5b50346107da5760203660031901126107da5760043561091b6141ec565b7fccb45da8d5717e6c4544694297c4ba5cf151d455c9bb0ed4fc7a38411bc0546160406007548151908152836020820152a160075580f35b50346107da5760403660031901126107da5761087b6020916109736139db565b906040516109818582613963565b52614780565b50346107da5760203660031901126107da5760043563ffffffff811690818103610a2e576109b36141ec565b8115610a1a5769ffffffff000000000000907f7e3f7f0708a84de9203036abaa450dccc85ad5ff52f78c170f3edb55cf5e882860406008549481519063ffffffff8760301c1682526020820152a160301b169069ffffffff00000000000019161760085580f35b63f1cfbf0560e01b83526004839052602483fd5b8280fd5b50346107da57806003193601126107da5760206040517ff2aad550cf55f045cb27e9c559f9889fdfb6e6cdaa032301d6ea397784ae51d78152f35b50346107da57806003193601126107da57610acc6040805190610a908183613963565b602082527f737570706f72743d627261766f2671756f72756d3d666f722c6162737461696e60208301525191829160208352602083019061399a565b0390f35b50346107da57806003193601126107da576020601754604051908152f35b50346107da57806003193601126107da57600a546040516001600160a01b039091168152602090f35b613d3c565b5060603660031901126107da57610b316139db565b816044356001600160401b0381116108fa57610b8392610b5683923690600401613cdb565b90610b5f6141ec565b81604051928392833781018481520391602435905af1610b7d613e31565b9061488c565b5080f35b50346107da5760203660031901126107da57602061087b600435614841565b50346107da5760a03660031901126107da57610bc06139db565b50610bc96139f1565b506044356001600160401b0381116108fa57610be9903690600401613b1d565b506064356001600160401b0381116108fa57610c09903690600401613b1d565b506084356001600160401b0381116108fa57610c29903690600401613a83565b50600a546001600160a01b031630036108eb5760405163bc197c8160e01b8152602090f35b50346107da5760203660031901126107da57602061087b610c6d6139db565b613f8a565b50346107da5760203660031901126107da576020906040906001600160a01b03610c9a6139db565b168152601083522054604051908152f35b50346107da57806003193601126107da576020600754604051908152f35b50346107da57806003193601126107da57602060405162093a808152f35b50346107da57806003193601126107da57600c546040516001600160a01b039091168152602090f35b50346107da5760203660031901126107da57602061087b600435600052600460205265ffffffffffff6001604060002001541690565b50346107da5760203660031901126107da57602060405160018152f35b50346107da5760203660031901126107da576004356001600160a01b038116908190036108fa57610d926141ec565b600a54604080516001600160a01b0383168152602081018490527f08f74ea46ef7894f65eabfb5e6e695de773a000b47c529ab559178069b2264019190a16001600160a01b03191617600a5580f35b50346107da5760403660031901126107da57610dfb6139db565b610e036139f1565b90610e0f303314613e82565b6001600160a01b0390811680845260166020526040842080546001600160a01b031916939092169283179091557f53880ca2a010f722cbd03db1521650ed6252e78aef05632874de7c3c4b5ecf298380a380f35b50346107da5760203660031901126107da576020906001600160a01b03610e886139db565b16815260158252604060018060a01b0391205416604051908152f35b50346107da5760603660031901126107da57610ebe6139db565b90604435906001600160401b0382116107da57602061087b84610ee43660048701613a83565b50614780565b50346107da57806003193601126107da57602060ff600e54166040519015158152f35b50346107da57806003193601126107da57602060405165ffffffffffff42168152f35b50346107da5760803660031901126107da57600435610f4d613ccb565b91610f56613a07565b916064356001600160401b038111610a2e57610f76903690600401613a83565b9361100f610f9f8560018060a01b03166000526002602052604060002080549060018201905590565b9561100960405160208101907ff2aad550cf55f045cb27e9c559f9889fdfb6e6cdaa032301d6ea397784ae51d7825286604082015260ff8616606082015260018060a01b038916998a608083015260a082015260a0815261100160c082613963565b519020614456565b8661447c565b156110435761087b9394506020946040519261102b8785613963565b8484526040519461103c8887613963565b8552614539565b6394ab6c0760e01b83526004859052602483fd5b50346107da5760203660031901126107da576020906001600160a01b0361107c6139db565b16815260168252604060018060a01b0391205416604051908152f35b50346107da57806003193601126107da5761113b90610acc6110d97f0000000000000000000000000000000000000000000000000000000000000000614bbb565b916111037f0000000000000000000000000000000000000000000000000000000000000000614c1f565b61114960405191611115602084613963565b8383526000368137604051968796600f60f81b885260e0602089015260e088019061399a565b90868203604088015261399a565b9146606086015230608086015260a085015283820360c0850152613d08565b50346107da5760203660031901126107da5760043561118633613ec6565b156111e057808252601b602052604082206111a18154613f7b565b9055808252601b6020526040822054906040519182527f0fd1cd5610c526002022d4ad7e23129d4ad5536f07271d0d8db0756ecf3b0b1b60203393a380f35b60405162461bcd60e51b81526020600482015260156024820152742737ba10309036bab63a34b9b4b39039b4b3b732b960591b6044820152606490fd5b50346107da5760203660031901126107da576020906040906001600160a01b036112456139db565b168152600283522054604051908152f35b50346107da5760803660031901126107da576004356001600160401b0381116108fa57611287903690600401613ab8565b6024356001600160401b038111610a2e576112a6903690600401613b1d565b906044356001600160401b0381116107d8576112c6903690600401613b7a565b906064356001600160401b0381116107d457366023820112156107d4576112f7903690602481600401359101613a4c565b916001600160a01b0361130983613e61565b511692611346604094855161131e8782613963565b6016815275283937b837b9b4b733903bb4ba34103a30b933b2ba1d60511b60208201526142dc565b61137761135286613e61565b51855161135f8782613963565b60068152652b30b63ab29d60d11b602082015261473c565b6113b361138383613e61565b515185516113918782613963565b601081526f21b0b6363230ba30903632b733ba341d60811b602082015261473c565b6113bd8133614b6e565b156116b95760075480611654575b506113de815160208301208387866140a6565b948351815190818114801590611649575b8015611641575b611624575050858752600460205265ffffffffffff8588205460a01c166115fb5760085461143465ffffffffffff821665ffffffffffff4216613ddb565b878952600460205286892080546001600160a01b031916331781559094603083901c63ffffffff169290919061146987614d78565b9082549063ffffffff86116115e25769ffffffffffffffffffff60a01b1990911660a092831b65ffffffffffff60a01b1617911b63ffffffff60d01b161790558551916114b583613aa1565b926114c289519485613963565b8084526114d1601f1991613aa1565b018a5b8181106115d15750506114ea61151a9187613ddb565b9361150c8951988b8a523360208b01526101208b8b01526101208a0190614010565b9088820360608a0152613d08565b98868a0360808801528251808b5260208b016020808d8460051b0101950192905b8282106115a4575060208b8b7f7d84a6263ae0d98d3329bd7b46bb4e8d6f98cd35a7adb45c274c8b7fd5ebd5e08c8061159b8e8e8e6115828f8f87820360a089015261404d565b9260c086015260e085015283820361010085015261399a565b0390a151908152f35b909192946020806115c38f93600194601f19908203018652895161399a565b97019201920190929161153b565b8060606020809388010152016114d4565b6306dfcc6560e41b8d526020600452602486905260448dfd5b60648761161e8861160b8161435a565b906331b75e4d60e01b8452600452613c76565b80604452fd5b8451630447b05d60e41b8a52600491909152602452604452606487fd5b5080156113f6565b5084518114156113ef565b65ffffffffffff42811660001901116116a557868551611675602082613963565b5261167f33614780565b81811061168c57506113cb565b636121770b60e11b885233600452602452604452606486fd5b634e487b7160e01b87526011600452602487fd5b63d9b3955760e01b865233600452602486fd5b50346107da5760603660031901126107da576116e6613ccb565b6044356001600160401b038111610a2e579161087b9161171661170f6020953690600401613cdb565b3691613a4c565b90604051926117258685613963565b835233600435614539565b50346107da5760203660031901126107da5760043565ffffffffffff81168091036108fa5761175d6141ec565b6008547fc565b045403dc03c2eea82b81a0465edad9e2e7fc4d97e11421c209da93d7a936040805165ffffffffffff84168152846020820152a165ffffffffffff19161760085580f35b50346107da5760803660031901126107da576117c16139db565b6117c96139f1565b604435906064359060038210156107d457338552601460205260ff60408620541615611b7a576001600160a01b0390811680865260156020526040862054909391168015611b3557604051633fabe5a360e21b815260a081600481855afa908115611a3a578791611b11575b508681131580611af3575b611a7a575b86811315611a455760405163313ce56760e01b815291602090839060049082906001600160a01b03165afa918215611a3a5787926119fa575b5061188b60ff9184613dfe565b9116604d81116116a557906118a391600a0a90613e11565b906118ad83613f71565b826119c157678ac7230489e800006118d06011545b6118cb856146f5565b613dfe565b04926103e884116119b7575b836118e5578680f35b600c546001600160a01b0316958790873b156108fa578180916044604051809481936340c10f1960e01b835260018060a01b03169c8d60048401528b60248401525af180156119ac5761198b575b5050907f49d65c9df54d630b6691b952e3d40db14da909c648872dc1b87771d20d969dea9460a094939260405194855261196c81613f71565b6020850152604084015260608301526080820152a23880808080808680f35b8161199a919695949396613963565b6119a8579091928638611933565b8680fd5b6040513d84823e3d90fd5b6103e893506118dc565b6119ca83613f71565b600183036119e657678ac7230489e800006118d06012546118c2565b678ac7230489e800006118d06013546118c2565b9091506020813d602011611a32575b81611a1660209383613963565b810103126119a8575160ff811681036119a8579061188b61187e565b3d9150611a09565b6040513d89823e3d90fd5b60405162461bcd60e51b815260206004820152600d60248201526c496e76616c696420707269636560981b6044820152606490fd5b505082855260166020526040808620549051633fabe5a360e21b81526001600160a01b039091169060a081600481855afa908115611a3a578791611abf575b50611845565b611ae1915060a03d60a011611aec575b611ad98183613963565b810190613f3f565b505050905038611ab9565b503d611acf565b50848752601660205260408720546001600160a01b03161515611840565b611b2a915060a03d60a011611aec57611ad98183613963565b505050905038611835565b60405162461bcd60e51b815260206004820152601760248201527f4e6f207072696365206665656420666f722061737365740000000000000000006044820152606490fd5b60405162461bcd60e51b815260206004820152600b60248201526a139bdd08185b1b1bddd95960aa1b6044820152606490fd5b50346107da5760403660031901126107da57611bc76139db565b611bcf6139f1565b90611bdb303314613e82565b6001600160a01b0390811680845260156020526040842080546001600160a01b031916939092169283179091557fd2d8394cf7549a5ddbc2ba3dd7b2de8d53c891472d1f2907008ed6a10045fdae8380a380f35b50346107da5760203660031901126107da576004356001600160401b0381116108fa57366023820112156108fa578060040135906001600160401b038211610a2e576024810190602436918460051b010111610a2e57611c90303314613e82565b600160401b8211611dc557601a5482601a55808310611d71575b50601a835282815b838210611d285750506040519180602084016020855252604083019190845b818110611d0257857f9405131eda2c6eb0a71f1710c6d9bb7d0174966eff351f730b19ce6a9deb0b3d86860387a180f35b909192602080600192838060a01b03611d1a88613a1d565b168152019401929101611cd1565b8035916001600160a01b0383168303611d6d5760206001920192817f057c384a7d1c54f3a1b2e5e67b2617b8224fdfd1ea7234eea573a6ff665ff63e01550190611cb2565b8580fd5b611dbf907f057c384a7d1c54f3a1b2e5e67b2617b8224fdfd1ea7234eea573a6ff665ff63e01837f057c384a7d1c54f3a1b2e5e67b2617b8224fdfd1ea7234eea573a6ff665ff63e01613f11565b38611caa565b634e487b7160e01b83526041600452602483fd5b50346107da57806003193601126107da576020600f54604051908152f35b50346107da5760603660031901126107da57604435602435600435611e1d333014613e82565b671bc16d674ec8000081111580611fa9575b15611f6457670de0b6b3a764000082111580611f52575b15611f0d576714d1120d7b16000083111580611efb575b15611eb657611eb07f2c2f7a9be334609d519b0dee56c07ba4c86f58b43c187d9c446a7d89aab401a893826011558360125580601355604051938493846040919493926060820195825260208201520152565b0390a180f35b60405162461bcd60e51b815260206004820152601e60248201527f5265706179206d756c7469706c696572206f7574206f6620626f756e647300006044820152606490fd5b506706f05b59d3b20000831015611e5d565b60405162461bcd60e51b815260206004820152601f60248201527f426f72726f77206d756c7469706c696572206f7574206f6620626f756e6473006044820152606490fd5b506706f05b59d3b20000821015611e46565b60405162461bcd60e51b815260206004820152601d60248201527f4c656e64206d756c7469706c696572206f7574206f6620626f756e64730000006044820152606490fd5b50670de0b6b3a7640000811015611e2f565b50346107da57806003193601126107da576020601154604051908152f35b50346107da5760203660031901126107da576020611ffd611ff86139db565b613ec6565b6040519015158152f35b50346107da57806003193601126107da576020601254604051908152f35b50346107da57806003193601126107da576020601354604051908152f35b50346107da5760803660031901126107da5761205d613ccb565b6044356001600160401b038111610a2e5761207c903690600401613cdb565b92606435906001600160401b0382116107da57602061087b86866120af876120a73660048a01613a83565b933691613a4c565b9033600435614539565b50346107da5760c03660031901126107da576004356120d6613ccb565b6120de613a07565b6064356001600160401b0381116107d4576120fd903690600401613cdb565b6084356001600160401b0381116119a85761211c903690600401613a83565b9560a4356001600160401b0381116108fa5761213c903690600401613a83565b6001600160a01b03851660009081526002602052604090208054600181019091556121ee90916121e8612170368789613a4c565b602081519101208b5160208d01206040519060208201927f3e83946653575f9a39005e1545185629e92736b7528ab20ca3816f315424a81184528d604084015260ff8d16606084015260018060a01b038c169788608085015260a084015260c083015260e082015260e0815261100161010082613963565b8761447c565b1561220d57602061087b89898989612207368a8c613a4c565b92614539565b6394ab6c0760e01b825260045260249150fd5b50346107da5760403660031901126107da5761087b61223d613ccb565b6040516020939161224e8583613963565b828252604051926117258685613963565b50346107da5760403660031901126107da576122796139db565b7f0d9ebb65238904712a14ee7cbb13500ec600292b67da8c95eeb5aacade9e350560206122a4613c67565b926122b0303314613e82565b6001600160a01b03168085526014825260408520805460ff191660ff8615151617905592610853565b50346107da57806003193601126107da5750610acc6040516122fc604082613963565b60018152603160f81b602082015260405191829160208352602083019061399a565b50346107da5760203660031901126107da5760409060043581526009602052208054610acc60026001840154930154604051938493846040919493926060820195825260208201520152565b50346107da5760203660031901126107da5760209060ff906040906001600160a01b036123956139db565b168152601484522054166040519015158152f35b50346107da57806003193601126107da576020600d54604051908152f35b50346107da5760203660031901126107da5760209060ff906040906001600160a01b036123f26139db565b168152601984522054166040519015158152f35b50346107da57806003193601126107da5750610acc604051612429604082613963565b600e81526d06d6f64653d74696d657374616d760941b602082015260405191829160208352602083019061399a565b50346107da5760203660031901126107da5760043590601a548210156107da57602061248383613c9a565b905460405160039290921b1c6001600160a01b03168152f35b50346107da576124ab36613bf8565b916124ba8383838798976140a6565b946124c48661435a565b60088110156125fe5715806125e0575b156125c8576124e49495506140a6565b60406124f1603b836141a5565b508183526004602090815281842080546001600160f81b0316600160f81b17905581518381527f789cf55be980739dad1d0699b93b58e806b51c9d96619bfa8fe0a28abaa7b30c9190a1818352600b6020528083205480612557575b6020838351908152f35b600a548491906001600160a01b0316803b15610a2e57602483928551948593849263c4d252f560e01b845260048401525af180156125be576125a9575b50828260209452600b8452818120553861254d565b6125b4848092613963565b610a2e5738612594565b82513d86823e3d90fd5b638fe5d8a960e01b8552600486905233602452604485fd5b50858552600460205260408520546001600160a01b031633146124d4565b634e487b7160e01b86526021600452602486fd5b50346107da5760403660031901126107da57600360406126306139f1565b926004358152600960205220019060018060a01b0316600052602052602060ff604060002054166040519015158152f35b50346107da5760203660031901126107da5761267e60043561435a565b60405190600881101561269357602092508152f35b634e487b7160e01b83526021600452602483fd5b50346107da57806003193601126107da576020604051603c8152f35b50346107da57806003193601126107da57602065ffffffffffff60085416604051908152f35b50346107da57806003193601126107da5760206040516202a3008152f35b50346107da57806003193601126107da576127206141ec565b60ff19600e5416600e557f0bc7d58759550d20dd31390311ef5b2f5592ca1c6bfb4eb634c3a78db3f8795f8180a180f35b50346107da5760203660031901126107da5760043561276e6141ec565b60406127b0815161277f8382613963565b601d81527f73657451756f72756d50657263656e746167652063616c6c6564206279000000602082015233906142dc565b7feb6aa7ed3d6a0f414a424bc284d6c5e118ea328d3c641cc829b1789d9143fdfe818051848152336020820152a1811561286157612710821161281e57816020917ff52eb210d0903b5d5451746f8ce16075afc0ed6842a576991ecb3bdbe3b645bb93600d5551908152a180f35b5162461bcd60e51b815260206004820152601760248201527f51756f72756d206d757374206265203c3d2031303030300000000000000000006044820152606490fd5b5162461bcd60e51b8152602060048201526012602482015271051756f72756d206d757374206265203e20360741b6044820152606490fd5b50346107da57806003193601126107da5760206040517f3e83946653575f9a39005e1545185629e92736b7528ab20ca3816f315424a8118152f35b50346107da5760403660031901126107da576004356128f1613c67565b90808352601860205260408320600381015442101580612a22575b156129ed5733600090815260098201602081905260409091205460ff166129b85761293633613f8a565b9184156129a35760070161294b838254613ddb565b90555b60018060a01b0333166000526020526040600020600160ff19825416179055604051921515835260208301527f52918a7195f9366c8404875b47578926acbf759095b011df841b1f556d55b40760403393a380f35b6008016129b1838254613ddb565b905561294e565b60405162461bcd60e51b815260206004820152600d60248201526c105b1c9958591e481d9bdd1959609a1b6044820152606490fd5b60405162461bcd60e51b815260206004820152600d60248201526c159bdd1a5b99c818db1bdcd959609a1b6044820152606490fd5b50600481015442111561290c565b50346107da57806003193601126107da576020604051600a8152f35b50346107da5760203660031901126107da5765ffffffffffff6040602092600435815260048452205460a01c16604051908152f35b50612a8b36613bf8565b9290612a9c848285859896986140a6565b93602095612aad87601017876141a5565b508585526004875260408520805460ff60f01b1916600160f01b179055600a546001600160a01b03163003612bd1575b600a546001600160a01b031691823b15611d6d5760405163e38335e560e01b815294869486949385938493612b2d933060601b6bffffffffffffffffffffffff19169092189290600486016148b6565b039134905af180156119ac57908291612bbc575b50829052600b83526040812055600a546001600160a01b031630141580612ba3575b612b99575b7f712ae1383f79ac853f8d882153778e0260ef8f03b504e2866e0593e04d2b291f82604051838152a1604051908152f35b6000600555612b68565b506005546001600160801b0381169060801c1415612b63565b81612bc691613963565b6107da578038612b41565b94908496949392935b8351811015612ca357306001600160a01b03612bf68387613e6e565b511614612c06575b600101612bda565b612c108186613e6e565b51868151910120600554908160801c6001600160801b036001820193166001600160801b03841614612c925790612c5e60019493926001600160801b03166000526006602052604060002090565b55600580546001600160801b031660809290921b6fffffffffffffffffffffffffffffffff19169190911790559050612bfe565b604189634e487b718d52526024601cfd5b509094959395929192612add565b50346107da5760203660031901126107da57600435808252601860205260408220906005820154421061310057600682019060ff8254166130c85760078301908154906008850193612d04855484613ddb565b92612d0d61410d565b8410613092576064810290808204606414901517156106fb57612d3284603c92613e11565b1061305657818752601b60205260036040882054101561301c578554876001880191604051602081019063ffffffff60e01b8360401b168252838554612d7781613929565b9060018116908115612ff35750600114612fad575b5084955090612da581869303601f198101835282613963565b51926001600160a01b03165af1612dba613e31565b5015612f7557805460ff191660011790557f54be43a7cd1a08d9780e16b698b9b3646cf793c6e9e4c8edfd4b2a607cd8bbbd8680a28154606481029080820460641490151715612f6157603c91612e1391959395613e11565b10801591600901855b60648110612e28578680f35b6001600160a01b03811660008181526020849052604090205460ff16612e52575b50600101612e1c565b8480612f56575b80612f34575b8015612ef9575b15612ef15760025b818952601060205260408920805490828201918b8484129112908015821691151617612edd5760019493927ff3bf67aaa88988c347d216d35468e2afca6fc65ceb5bf94cd86358c62e25d04a9260409255838c526010602052818c20549082519182526020820152a290612e49565b634e487b7160e01b8b52601160045260248bfd5b600119612e6e565b508380612f29575b8015612e6657506001600160a01b03811660009081526020849052604090205460ff16612e66565b508554875410612f01565b506001600160a01b03811660009081526020849052604090205460ff16612e5f565b508654865410612e59565b634e487b7160e01b86526011600452602486fd5b60405162461bcd60e51b815260206004820152601060248201526f115e1958dd5d1a5bdb8819985a5b195960821b6044820152606490fd5b91929395905084526020842084905b828210612fd9575093948594509291908101602401612da5612d8c565b8054602483860101528d9550602090910190600101612fbc565b60ff1916602480860191909152969750879682151590920284019091019150612da59050612d8c565b60405162461bcd60e51b81526020600482015260126024820152715665746f6564206279206d756c746973696760701b6044820152606490fd5b60405162461bcd60e51b81526020600482015260146024820152734e6f7420656e6f7567682079657320766f74657360601b6044820152606490fd5b60405162461bcd60e51b815260206004820152600e60248201526d145d5bdc9d5b481b9bdd081b595d60921b6044820152606490fd5b60405162461bcd60e51b815260206004820152601060248201526f105b1c9958591e48195e1958dd5d195960821b6044820152606490fd5b60405162461bcd60e51b815260206004820152601060248201526f11195b185e481b9bdd081c185cdcd95960821b6044820152606490fd5b50346107da578061314836613bf8565b9291613159848383869895986140a6565b946131656010876141a5565b5082806131de6131ec60405161317c606082613963565b602b81527f5175657565696e67206f7065726174696f6e7320776974682054696d656c6f6360208201526a35a1b7b73a3937b63632b960a91b604082015260405192839163104c13eb60e21b602084015260206024840152604483019061399a565b03601f198101835282613963565b6020815191016a636f6e736f6c652e6c6f675afa50600a5460405163793d064960e11b8152956001600160a01b0390911690602087600481855afa96871561342f57859761343a575b5060405163b1c5f42760e01b81523060601b6bffffffffffffffffffffffff1916909118916020908290818061327187898b8e600486016148b6565b03915afa90811561342f5785916133fd575b50878552600b6020526040852055600a546001600160a01b031691823b156107d4576132e9956132d7926132fb8793604051998a98899788966308f2a0bb60e41b885260c0600489015260c4880190614010565b86810360031901602488015290613d08565b8481036003190160448601529061404d565b9083606484015260848301528860a483015203925af180156133f2576133d8575b5061332a61332f9142613ddb565b614d78565b60409061337165ffffffffffff8351926133498585613963565b601384527229b1b432b23ab632b2103bb4ba341032ba309d60691b602085015216809261473c565b80156133c957817f9a2e42fd6722813d69113e7d0079d3d940171428df7373df9c7f7617cfda2892916001828787602099526004895220018165ffffffffffff1982541617905581519085825286820152a151908152f35b634844252360e11b8452600484fd5b836133ea61332f939561332a93613963565b93915061331c565b6040513d86823e3d90fd5b90506020813d602011613427575b8161341860209383613963565b810103126107d4575138613283565b3d915061340b565b6040513d87823e3d90fd5b919096506020823d602011613469575b8161345760209383613963565b810103126107d4579051956020613235565b3d915061344a565b50346107da5760803660031901126107da5761348b6139db565b506134946139f1565b506064356001600160401b0381116108fa576134b4903690600401613a83565b50600a546001600160a01b031630036108eb57604051630a85bd0160e11b8152602090f35b50346107da5760203660031901126107da57602090600435815260048252604060018060a01b0391205416604051908152f35b50346107da5760403660031901126107da576135266139db565b600c5460243591906001600160a01b031633036135e5576001600160a01b03168083526010602052604083208054919291828103919085841280158285131691841216176135d157558183526010602052604083205490600160ff1b81146135bd577ff3bf67aaa88988c347d216d35468e2afca6fc65ceb5bf94cd86358c62e25d04a91604091825191825285036020820152a280f35b634e487b7160e01b84526011600452602484fd5b634e487b7160e01b85526011600452602485fd5b60405162461bcd60e51b815260206004820152601060248201526f27b7363c902b37ba34b733aa37b5b2b760811b6044820152606490fd5b50346107da57806003193601126107da5760405190806003549061364082613929565b80855291600181169081156136d9575060011461367c575b610acc8461366881860382613963565b60405191829160208352602083019061399a565b600381527fc2575a0e9e593c00f959f8c92f12db2869c3395a3b0502d05e2516446f71f85b939250905b8082106136bf5750909150810160200161366882613658565b9192600181602092548385880101520191019092916136a6565b60ff191660208087019190915292151560051b850190920192506136689150839050613658565b50346107da5760203660031901126107da5760406020916004358152601b83522054604051908152f35b50346107da57806003193601126107da57602063ffffffff60085460301c16604051908152f35b50346107da5760203660031901126107da5760043563ffffffff60e01b81168091036108fa576020906366defe7760e11b81149081156137c7575b81156137b6575b81156137a5575b506040519015158152f35b6301ffc9a760e01b1490508261379a565b630271189760e51b81149150613793565b6332a2ad4360e11b8114915061378c565b82346107da5760203660031901126107da5760043581526018602052604081208054918360018301918083549361380e85613929565b808552946001811690811561390557506001146138c3575b505061383492500384613963565b6002810154906003810154906004810154600582015460ff600684015416916008600785015494015494613897604051998a9960018060a01b0381168b5263ffffffff60e01b9060401b1660208b015261014060408b01526101408a019061399a565b966060890152608088015260a087015260c0860152151560e08501526101008401526101208301520390f35b90809394925052602082205b8183106138e9575050906020613834928201018680613826565b6020919350806001915483858a010152019101909185926138cf565b9150506020925061383494915060ff191682840152151560051b8201018680613826565b90600182811c92168015613959575b602083101461394357565b634e487b7160e01b600052602260045260246000fd5b91607f1691613938565b90601f801991011681019081106001600160401b0382111761398457604052565b634e487b7160e01b600052604160045260246000fd5b919082519283825260005b8481106139c6575050826000602080949584010152601f8019910116010190565b806020809284010151828286010152016139a5565b600435906001600160a01b03821682036107bc57565b602435906001600160a01b03821682036107bc57565b604435906001600160a01b03821682036107bc57565b35906001600160a01b03821682036107bc57565b6001600160401b03811161398457601f01601f191660200190565b929192613a5882613a31565b91613a666040519384613963565b8294818452818301116107bc578281602093846000960137010152565b9080601f830112156107bc57816020613a9e93359101613a4c565b90565b6001600160401b0381116139845760051b60200190565b9080601f830112156107bc578135613acf81613aa1565b92613add6040519485613963565b81845260208085019260051b8201019283116107bc57602001905b828210613b055750505090565b60208091613b1284613a1d565b815201910190613af8565b9080601f830112156107bc578135613b3481613aa1565b92613b426040519485613963565b81845260208085019260051b8201019283116107bc57602001905b828210613b6a5750505090565b8135815260209182019101613b5d565b9080601f830112156107bc578135613b9181613aa1565b92613b9f6040519485613963565b81845260208085019260051b820101918383116107bc5760208201905b838210613bcb57505050505090565b81356001600160401b0381116107bc57602091613bed87848094880101613a83565b815201910190613bbc565b60806003198201126107bc576004356001600160401b0381116107bc5781613c2291600401613ab8565b916024356001600160401b0381116107bc5782613c4191600401613b1d565b91604435906001600160401b0382116107bc57613c6091600401613b7a565b9060643590565b6024359081151582036107bc57565b6008811015613c8457602452565b634e487b7160e01b600052602160045260246000fd5b601a54811015613cb557601a60005260206000200190600090565b634e487b7160e01b600052603260045260246000fd5b6024359060ff821682036107bc57565b9181601f840112156107bc578235916001600160401b0383116107bc57602083818601950101116107bc57565b906020808351928381520192019060005b818110613d265750505090565b8251845260209384019390920191600101613d19565b346107bc57602061087b613d4f36613bf8565b929190916140a6565b60009291815491613d6883613929565b8083529260018116908115613dbe5750600114613d8457505050565b60009081526020812093945091925b838310613da4575060209250010190565b600181602092949394548385870101520191019190613d93565b915050602093945060ff929192191683830152151560051b010190565b91908201809211613de857565b634e487b7160e01b600052601160045260246000fd5b81810292918115918404141715613de857565b8115613e1b570490565b634e487b7160e01b600052601260045260246000fd5b3d15613e5c573d90613e4282613a31565b91613e506040519384613963565b82523d6000602084013e565b606090565b805115613cb55760200190565b8051821015613cb55760209160051b010190565b15613e8957565b60405162461bcd60e51b815260206004820152601560248201527413db9b1e48111053c81d9a58481c1c9bdc1bdcd85b605a1b6044820152606490fd5b601a549060005b828110613edc57505050600090565b613ee581613c9a565b905460039190911b1c6001600160a01b0390811690831614613f0957600101613ecd565b505050600190565b818110613f1c575050565b60008155600101613f11565b519069ffffffffffffffffffff821682036107bc57565b908160a09103126107bc57613f5381613f28565b91602082015191604081015191613a9e608060608401519301613f28565b60031115613c8457565b6000198114613de85760010190565b600c546040516370a0823160e01b81526001600160a01b0392831660048201529160209183916024918391165afa801561400457600090613fd0575b613a9e91506146f5565b506020813d602011613ffc575b81613fea60209383613963565b810103126107bc57613a9e9051613fc6565b3d9150613fdd565b6040513d6000823e3d90fd5b906020808351928381520192019060005b81811061402e5750505090565b82516001600160a01b0316845260209384019390920191600101614021565b9080602083519182815201916020808360051b8301019401926000915b83831061407957505050505090565b9091929394602080614097600193601f19868203018752895161399a565b9701930193019193929061406a565b9290614107916140f36140e1946040519586946140cf602087019960808b5260a0880190614010565b868103601f1901604088015290613d08565b848103601f190160608601529061404d565b90608083015203601f198101835282613963565b51902090565b60ff600e541661419f57600c54604051631d5e528f60e21b815290602090829060049082906001600160a01b03165afa9081156140045760009161416d575b506000198101908111613de85761416961271091600d5490613dfe565b0490565b906020823d602011614197575b8161418760209383613963565b810103126107da5750513861414c565b3d915061417a565b600f5490565b906141af8261435a565b916008831015613c845781600160ff85161b16156141cc57505090565b6331b75e4d60e01b6000526004526141e382613c76565b60445260646000fd5b600a546001600160a01b03163381036142c757300361420757565b61421036613a31565b61421d6040519182613963565b368152602081019036600083376000602036830101525190205b6005546001600160801b0381169060801c81146142b457806001600160801b03600161427785946001600160801b03166000526006602052604060002090565b54926000614298826001600160801b03166000526006602052604060002090565b5501166001600160801b03196005541617600555036142375750565b634e487b7160005260316020526024601cfd5b6347096e4760e01b6000523360045260246000fd5b61430c61432b60009392849360405193849263319af33360e01b602085015260406024850152606484019061399a565b6001600160a01b0391909116604483015203601f198101835282613963565b6020815191016a636f6e736f6c652e6c6f675afa50565b908160209103126107bc575180151581036107bc5790565b614363816148fc565b6008811015613c8457600581036144515750600052600b60205260406000205460018060a01b03600a541690604051632c258a9f60e11b8152816004820152602081602481865afa90811561400457600091614432575b50156143c7575050600590565b602090602460405180948193632ab0f52960e01b835260048301525afa90811561400457600091614403575b50156143fe57600790565b600290565b614425915060203d60201161442b575b61441d8183613963565b810190614342565b386143f3565b503d614413565b61444b915060203d60201161442b5761441d8183613963565b386143ba565b905090565b604290614461614a1c565b906040519161190160f01b8352600283015260228201522090565b9190823b6144b7579061448e91614b32565b506004811015613c84571591826144a457505090565b6001600160a01b03918216911614919050565b916000926131de6144ee85946040519283916020830195630b135d3f60e11b8752602484015260406044840152606483019061399a565b51915afa6144fa613e31565b8161452b575b81614509575090565b80516020808301935090820191909103126107bc5751630b135d3f60e11b1490565b905060208151101590614500565b939092919360029161454b83836141a5565b5081600052600460205261455e85614780565b958260005260096020526040600020906003820160018060a01b0388166000528060205260ff604060002054166146d6576001600160a01b038816600090815260209190915260409020805460ff1916600117905560ff16938461469257506145c8878254613ddb565b90555b805161462b57506146257fb8e138887d0aa13bab447e82de9d5c1777041ecd21ca36ba824ff1e6c07ddda49394604051938493845260208401528660408401526080606084015260018060a01b031694608083019061399a565b0390a290565b93614625906146797fe2babfbac5889a709b63bb7f598b324e08bc5a4fb9ec647fb3cbc9ec07eb8712956040519586958652602086015288604086015260a0606086015260a085019061399a565b83810360808501526001600160a01b039091169561399a565b90600185036146b25760019150016146ab878254613ddb565b90556145cb565b8482036146c557016146ab878254613ddb565b6303599be160e11b60005260046000fd5b6371c6af4960e01b60009081526001600160a01b038916600452602490fd5b9081156147365760018201808311613de85760011c825b838210614717575050565b90925061472d836147288184613e11565b613ddb565b60011c9061470c565b60009150565b61476c61432b600093928493604051938492632d839cb360e21b602085015260406024850152606484019061399a565b90604483015203601f198101835282613963565b600c546040516370a0823160e01b81526001600160a01b039283166004820181905292909160209183916024918391165afa80156140045760009061480d575b6147ca9150614c56565b90600052601060205260406000205460091981126000146147ec575060011c90565b60141215613a9e57600381029080820460031490151715613de85760011c90565b506020813d602011614839575b8161482760209383613963565b810103126107bc576147ca90516147c0565b3d915061481a565b80600052600460205265ffffffffffff60406000205460a01c1690600052600460205263ffffffff60406000205460d01c160165ffffffffffff8111613de85765ffffffffffff1690565b9091906148b457508051156148a357805190602001fd5b63d6bda27560e01b60005260046000fd5b565b9493926148e26080936148d46148f09460a08a5260a08a0190614010565b9088820360208a0152613d08565b90868203604088015261404d565b93600060608201520152565b80600052600460205260406000205460ff8160f01c16614a155760f81c614a0f5780600052600460205265ffffffffffff60406000205460a01c1680156149fa5765ffffffffffff4216809110156149f35761495782614841565b106149625750600190565b806000526009602052604060002081600052600460205261499561498461410d565b916002600182015491015490613ddb565b1080156149d6575b156149a85750600390565b6149c890600052600460205265ffffffffffff6001604060002001541690565b6149d157600490565b600590565b50806000526009602052604060002060018101549054101561499d565b5050600090565b50636ad0607560e01b60005260045260246000fd5b50600290565b5050600790565b307f00000000000000000000000000000000000000000000000000000000000000006001600160a01b03161480614b09575b15614a77577f000000000000000000000000000000000000000000000000000000000000000090565b60405160208101907f8b73c3c69bb8fe3d512ecc4cf759cc79239f7b179b0ffacaa9a75d522b39400f82527f000000000000000000000000000000000000000000000000000000000000000060408201527f000000000000000000000000000000000000000000000000000000000000000060608201524660808201523060a082015260a0815261410760c082613963565b507f00000000000000000000000000000000000000000000000000000000000000004614614a4e565b8151919060418303614b6357614b5c92506020820151906060604084015193015160001a90614da9565b9192909190565b505060009160029190565b90805160348110613f095760131981830101516001600160b01b03191669dc8f8d908f908c9a8dc360b01b01613f0957614bad91602919820190614e32565b90159182156144a457505090565b60ff8114614c055760ff811690601f8211614bf4576040805192614bdf8285613963565b6020808552840191601f190136833783525290565b632cd44ac360e21b60005260046000fd5b50604051613a9e81614c18816000613d58565b0382613963565b60ff8114614c435760ff811690601f8211614bf4576040805192614bdf8285613963565b50604051613a9e81614c18816001613d58565b6001811115613a9e57806001600160801b821015614d67575b600482600160401b614d19941015614d5a575b640100000000811015614d4d575b62010000811015614d40575b610100811015614d34575b6010811015614d28575b1015614d20575b60030260011c614cc88184613e11565b0160011c614cd68184613e11565b0160011c614ce48184613e11565b0160011c614cf28184613e11565b0160011c614d008184613e11565b0160011c614d0e8184613e11565b0160011c8092613e11565b8111900390565b60011b614cb8565b811c9160021b91614cb1565b60081c91811b91614ca7565b60101c9160081b91614c9c565b60201c9160101b91614c90565b60401c9160201b91614c82565b5050608081901c600160401b614c6f565b65ffffffffffff8111614d905765ffffffffffff1690565b6306dfcc6560e41b600052603060045260245260446000fd5b91907f7fffffffffffffffffffffffffffffff5d576e7357a4501ddfe92f46681b20a08411614e26579160209360809260ff60009560405194855216868401526040830152606082015282805260015afa15614004576000516001600160a01b03811615614e1a5790600090600090565b50600090600190600090565b50505060009160039190565b9190825182118015614ec6575b614e9d5760018101808211613de857821180614ea8575b158015908160011b9182046002141715613de85760280180602811613de857818303838111613de85703614e9d57614e8d92614ecf565b90916001600160a01b0390911690565b505050600090600090565b50828101602001516001600160f01b03191661060f60f31b14614e56565b50818111614e3f565b92909260018401808511613de857831180614f6b575b158015908160011b9182046002141715613de857614f099060009492939495613ddb565b915b818310614f1b5750505060019190565b9092919360ff614f358160f81b6020888601015116614f89565b16600f8111614f5f578160041b9180830460101490151715613de857600191019401919290614f0b565b50600094508493505050565b50808401602001516001600160f01b03191661060f60f31b14614ee5565b60f81c602f811180614ff1575b15614fa557602f190160ff1690565b6060811180614fe7575b15614fbe576056190160ff1690565b6040811180614fdd575b15614fd7576036190160ff1690565b5060ff90565b5060478110614fc8565b5060678110614faf565b50603a8110614f9656fea2646970667358221220cc599a35c3c5919305dba955324176ae75b724f351e7101062f35bed164cd60364736f6c634300081c0033",
  "linkReferences": {},
  "deployedLinkReferences": {}
}