{
  "_format": "hh-sol-artifact-1",
  "contractName": "ProtocolGovernor",
  "sourceName": "backend/contracts/ProtocolGovernor.sol",
  "abi": [
    {
      "inputs": [
        {
          "internalType": "address",
          "name": "_votingToken",
          "type": "address"
        },
        {
          "internalType": "contract TimelockController",
          "name": "_timelock",
          "type": "address"
        }
      ],
      "stateMutability": "nonpayable",
      "type": "constructor"
    },
    {
      "inputs": [],
      "name": "FailedCall",
      "type": "error"
    },
    {
      "inputs": [
        {
          "internalType": "address",
          "name": "voter",
          "type": "address"
        }
      ],
      "name": "GovernorAlreadyCastVote",
      "type": "error"
    },
    {
      "inputs": [
        {
          "internalType": "uint256",
          "name": "proposalId",
          "type": "uint256"
        }
      ],
      "name": "GovernorAlreadyQueuedProposal",
      "type": "error"
    },
    {
      "inputs": [],
      "name": "GovernorDisabledDeposit",
      "type": "error"
    },
    {
      "inputs": [
        {
          "internalType": "address",
          "name": "proposer",
          "type": "address"
        },
        {
          "internalType": "uint256",
          "name": "votes",
          "type": "uint256"
        },
        {
          "internalType": "uint256",
          "name": "threshold",
          "type": "uint256"
        }
      ],
      "name": "GovernorInsufficientProposerVotes",
      "type": "error"
    },
    {
      "inputs": [
        {
          "internalType": "uint256",
          "name": "targets",
          "type": "uint256"
        },
        {
          "internalType": "uint256",
          "name": "calldatas",
          "type": "uint256"
        },
        {
          "internalType": "uint256",
          "name": "values",
          "type": "uint256"
        }
      ],
      "name": "GovernorInvalidProposalLength",
      "type": "error"
    },
    {
      "inputs": [
        {
          "internalType": "address",
          "name": "voter",
          "type": "address"
        }
      ],
      "name": "GovernorInvalidSignature",
      "type": "error"
    },
    {
      "inputs": [],
      "name": "GovernorInvalidVoteParams",
      "type": "error"
    },
    {
      "inputs": [],
      "name": "GovernorInvalidVoteType",
      "type": "error"
    },
    {
      "inputs": [
        {
          "internalType": "uint256",
          "name": "votingPeriod",
          "type": "uint256"
        }
      ],
      "name": "GovernorInvalidVotingPeriod",
      "type": "error"
    },
    {
      "inputs": [
        {
          "internalType": "uint256",
          "name": "proposalId",
          "type": "uint256"
        }
      ],
      "name": "GovernorNonexistentProposal",
      "type": "error"
    },
    {
      "inputs": [
        {
          "internalType": "uint256",
          "name": "proposalId",
          "type": "uint256"
        }
      ],
      "name": "GovernorNotQueuedProposal",
      "type": "error"
    },
    {
      "inputs": [
        {
          "internalType": "address",
          "name": "account",
          "type": "address"
        }
      ],
      "name": "GovernorOnlyExecutor",
      "type": "error"
    },
    {
      "inputs": [],
      "name": "GovernorQueueNotImplemented",
      "type": "error"
    },
    {
      "inputs": [
        {
          "internalType": "address",
          "name": "proposer",
          "type": "address"
        }
      ],
      "name": "GovernorRestrictedProposer",
      "type": "error"
    },
    {
      "inputs": [
        {
          "internalType": "uint256",
          "name": "proposalId",
          "type": "uint256"
        },
        {
          "internalType": "address",
          "name": "account",
          "type": "address"
        }
      ],
      "name": "GovernorUnableToCancel",
      "type": "error"
    },
    {
      "inputs": [
        {
          "internalType": "uint256",
          "name": "proposalId",
          "type": "uint256"
        },
        {
          "internalType": "enum IGovernor.ProposalState",
          "name": "current",
          "type": "uint8"
        },
        {
          "internalType": "bytes32",
          "name": "expectedStates",
          "type": "bytes32"
        }
      ],
      "name": "GovernorUnexpectedProposalState",
      "type": "error"
    },
    {
      "inputs": [
        {
          "internalType": "address",
          "name": "account",
          "type": "address"
        },
        {
          "internalType": "uint256",
          "name": "currentNonce",
          "type": "uint256"
        }
      ],
      "name": "InvalidAccountNonce",
      "type": "error"
    },
    {
      "inputs": [],
      "name": "InvalidShortString",
      "type": "error"
    },
    {
      "inputs": [
        {
          "internalType": "uint8",
          "name": "bits",
          "type": "uint8"
        },
        {
          "internalType": "uint256",
          "name": "value",
          "type": "uint256"
        }
      ],
      "name": "SafeCastOverflowedUintDowncast",
      "type": "error"
    },
    {
      "inputs": [
        {
          "internalType": "string",
          "name": "str",
          "type": "string"
        }
      ],
      "name": "StringTooLong",
      "type": "error"
    },
    {
      "anonymous": false,
      "inputs": [
        {
          "indexed": true,
          "internalType": "uint256",
          "name": "proposalId",
          "type": "uint256"
        },
        {
          "indexed": true,
          "internalType": "address",
          "name": "proposer",
          "type": "address"
        },
        {
          "indexed": false,
          "internalType": "address",
          "name": "targetContract",
          "type": "address"
        },
        {
          "indexed": false,
          "internalType": "bytes4",
          "name": "functionSelector",
          "type": "bytes4"
        },
        {
          "indexed": false,
          "internalType": "bytes",
          "name": "encodedParams",
          "type": "bytes"
        },
        {
          "indexed": false,
          "internalType": "uint256",
          "name": "minVotesNeeded",
          "type": "uint256"
        },
        {
          "indexed": false,
          "internalType": "uint256",
          "name": "startTime",
          "type": "uint256"
        },
        {
          "indexed": false,
          "internalType": "uint256",
          "name": "endTime",
          "type": "uint256"
        },
        {
          "indexed": false,
          "internalType": "uint256",
          "name": "executeAfter",
          "type": "uint256"
        }
      ],
      "name": "AdvancedProposalCreated",
      "type": "event"
    },
    {
      "anonymous": false,
      "inputs": [
        {
          "indexed": true,
          "internalType": "uint256",
          "name": "proposalId",
          "type": "uint256"
        }
      ],
      "name": "AdvancedProposalExecuted",
      "type": "event"
    },
    {
      "anonymous": false,
      "inputs": [
        {
          "indexed": true,
          "internalType": "uint256",
          "name": "proposalId",
          "type": "uint256"
        },
        {
          "indexed": true,
          "internalType": "address",
          "name": "vetoer",
          "type": "address"
        },
        {
          "indexed": false,
          "internalType": "uint256",
          "name": "vetoCount",
          "type": "uint256"
        }
      ],
      "name": "AdvancedProposalVetoed",
      "type": "event"
    },
    {
      "anonymous": false,
      "inputs": [
        {
          "indexed": true,
          "internalType": "uint256",
          "name": "proposalId",
          "type": "uint256"
        },
        {
          "indexed": true,
          "internalType": "address",
          "name": "voter",
          "type": "address"
        },
        {
          "indexed": false,
          "internalType": "bool",
          "name": "support",
          "type": "bool"
        },
        {
          "indexed": false,
          "internalType": "uint256",
          "name": "votes",
          "type": "uint256"
        }
      ],
      "name": "AdvancedVoteCast",
      "type": "event"
    },
    {
      "anonymous": false,
      "inputs": [
        {
          "indexed": true,
          "internalType": "address",
          "name": "contractAddr",
          "type": "address"
        },
        {
          "indexed": false,
          "internalType": "bool",
          "name": "allowed",
          "type": "bool"
        }
      ],
      "name": "AllowedContractSet",
      "type": "event"
    },
    {
      "anonymous": false,
      "inputs": [],
      "name": "BootstrapModeDisabled",
      "type": "event"
    },
    {
      "anonymous": false,
      "inputs": [
        {
          "indexed": true,
          "internalType": "address",
          "name": "contractAddr",
          "type": "address"
        },
        {
          "indexed": false,
          "internalType": "bool",
          "name": "allowed",
          "type": "bool"
        }
      ],
      "name": "ContractWhitelisted",
      "type": "event"
    },
    {
      "anonymous": false,
      "inputs": [],
      "name": "EIP712DomainChanged",
      "type": "event"
    },
    {
      "anonymous": false,
      "inputs": [
        {
          "indexed": false,
          "internalType": "address[]",
          "name": "signers",
          "type": "address[]"
        }
      ],
      "name": "EmergencyMultisigSet",
      "type": "event"
    },
    {
      "anonymous": false,
      "inputs": [
        {
          "indexed": true,
          "internalType": "address",
          "name": "asset",
          "type": "address"
        },
        {
          "indexed": true,
          "internalType": "address",
          "name": "feed",
          "type": "address"
        }
      ],
      "name": "FallbackPriceFeedSet",
      "type": "event"
    },
    {
      "anonymous": false,
      "inputs": [
        {
          "indexed": false,
          "internalType": "uint256",
          "name": "lend",
          "type": "uint256"
        },
        {
          "indexed": false,
          "internalType": "uint256",
          "name": "borrow",
          "type": "uint256"
        },
        {
          "indexed": false,
          "internalType": "uint256",
          "name": "repay",
          "type": "uint256"
        }
      ],
      "name": "MultipliersUpdated",
      "type": "event"
    },
    {
      "anonymous": false,
      "inputs": [
        {
          "indexed": true,
          "internalType": "address",
          "name": "asset",
          "type": "address"
        },
        {
          "indexed": true,
          "internalType": "address",
          "name": "feed",
          "type": "address"
        }
      ],
      "name": "PriceFeedSet",
      "type": "event"
    },
    {
      "anonymous": false,
      "inputs": [
        {
          "indexed": false,
          "internalType": "uint256",
          "name": "proposalId",
          "type": "uint256"
        }
      ],
      "name": "ProposalCanceled",
      "type": "event"
    },
    {
      "anonymous": false,
      "inputs": [
        {
          "indexed": false,
          "internalType": "uint256",
          "name": "proposalId",
          "type": "uint256"
        },
        {
          "indexed": false,
          "internalType": "address",
          "name": "proposer",
          "type": "address"
        },
        {
          "indexed": false,
          "internalType": "address[]",
          "name": "targets",
          "type": "address[]"
        },
        {
          "indexed": false,
          "internalType": "uint256[]",
          "name": "values",
          "type": "uint256[]"
        },
        {
          "indexed": false,
          "internalType": "string[]",
          "name": "signatures",
          "type": "string[]"
        },
        {
          "indexed": false,
          "internalType": "bytes[]",
          "name": "calldatas",
          "type": "bytes[]"
        },
        {
          "indexed": false,
          "internalType": "uint256",
          "name": "voteStart",
          "type": "uint256"
        },
        {
          "indexed": false,
          "internalType": "uint256",
          "name": "voteEnd",
          "type": "uint256"
        },
        {
          "indexed": false,
          "internalType": "string",
          "name": "description",
          "type": "string"
        }
      ],
      "name": "ProposalCreated",
      "type": "event"
    },
    {
      "anonymous": false,
      "inputs": [
        {
          "indexed": false,
          "internalType": "uint256",
          "name": "proposalId",
          "type": "uint256"
        }
      ],
      "name": "ProposalExecuted",
      "type": "event"
    },
    {
      "anonymous": false,
      "inputs": [
        {
          "indexed": false,
          "internalType": "uint256",
          "name": "proposalId",
          "type": "uint256"
        },
        {
          "indexed": false,
          "internalType": "uint256",
          "name": "etaSeconds",
          "type": "uint256"
        }
      ],
      "name": "ProposalQueued",
      "type": "event"
    },
    {
      "anonymous": false,
      "inputs": [
        {
          "indexed": false,
          "internalType": "uint256",
          "name": "oldProposalThreshold",
          "type": "uint256"
        },
        {
          "indexed": false,
          "internalType": "uint256",
          "name": "newProposalThreshold",
          "type": "uint256"
        }
      ],
      "name": "ProposalThresholdSet",
      "type": "event"
    },
    {
      "anonymous": false,
      "inputs": [
        {
          "indexed": false,
          "internalType": "uint256",
          "name": "newBasisPoints",
          "type": "uint256"
        }
      ],
      "name": "QuorumPercentageChanged",
      "type": "event"
    },
    {
      "anonymous": false,
      "inputs": [
        {
          "indexed": true,
          "internalType": "address",
          "name": "user",
          "type": "address"
        },
        {
          "indexed": false,
          "internalType": "int256",
          "name": "newReputation",
          "type": "int256"
        },
        {
          "indexed": false,
          "internalType": "int256",
          "name": "delta",
          "type": "int256"
        }
      ],
      "name": "ReputationChanged",
      "type": "event"
    },
    {
      "anonymous": false,
      "inputs": [
        {
          "indexed": false,
          "internalType": "uint256",
          "name": "newBasisPoints",
          "type": "uint256"
        },
        {
          "indexed": false,
          "internalType": "address",
          "name": "sender",
          "type": "address"
        }
      ],
      "name": "SetQuorumAttempt",
      "type": "event"
    },
    {
      "anonymous": false,
      "inputs": [
        {
          "indexed": false,
          "internalType": "address",
          "name": "oldTimelock",
          "type": "address"
        },
        {
          "indexed": false,
          "internalType": "address",
          "name": "newTimelock",
          "type": "address"
        }
      ],
      "name": "TimelockChange",
      "type": "event"
    },
    {
      "anonymous": false,
      "inputs": [
        {
          "indexed": true,
          "internalType": "address",
          "name": "user",
          "type": "address"
        },
        {
          "indexed": false,
          "internalType": "uint256",
          "name": "tokens",
          "type": "uint256"
        },
        {
          "indexed": false,
          "internalType": "enum ProtocolGovernor.ActionType",
          "name": "action",
          "type": "uint8"
        },
        {
          "indexed": false,
          "internalType": "address",
          "name": "asset",
          "type": "address"
        },
        {
          "indexed": false,
          "internalType": "uint256",
          "name": "amount",
          "type": "uint256"
        },
        {
          "indexed": false,
          "internalType": "uint256",
          "name": "usdValue",
          "type": "uint256"
        }
      ],
      "name": "TokensGranted",
      "type": "event"
    },
    {
      "anonymous": false,
      "inputs": [
        {
          "indexed": true,
          "internalType": "address",
          "name": "voter",
          "type": "address"
        },
        {
          "indexed": false,
          "internalType": "uint256",
          "name": "proposalId",
          "type": "uint256"
        },
        {
          "indexed": false,
          "internalType": "uint8",
          "name": "support",
          "type": "uint8"
        },
        {
          "indexed": false,
          "internalType": "uint256",
          "name": "weight",
          "type": "uint256"
        },
        {
          "indexed": false,
          "internalType": "string",
          "name": "reason",
          "type": "string"
        }
      ],
      "name": "VoteCast",
      "type": "event"
    },
    {
      "anonymous": false,
      "inputs": [
        {
          "indexed": true,
          "internalType": "address",
          "name": "voter",
          "type": "address"
        },
        {
          "indexed": false,
          "internalType": "uint256",
          "name": "proposalId",
          "type": "uint256"
        },
        {
          "indexed": false,
          "internalType": "uint8",
          "name": "support",
          "type": "uint8"
        },
        {
          "indexed": false,
          "internalType": "uint256",
          "name": "weight",
          "type": "uint256"
        },
        {
          "indexed": false,
          "internalType": "string",
          "name": "reason",
          "type": "string"
        },
        {
          "indexed": false,
          "internalType": "bytes",
          "name": "params",
          "type": "bytes"
        }
      ],
      "name": "VoteCastWithParams",
      "type": "event"
    },
    {
      "anonymous": false,
      "inputs": [
        {
          "indexed": false,
          "internalType": "uint256",
          "name": "oldVotingDelay",
          "type": "uint256"
        },
        {
          "indexed": false,
          "internalType": "uint256",
          "name": "newVotingDelay",
          "type": "uint256"
        }
      ],
      "name": "VotingDelaySet",
      "type": "event"
    },
    {
      "anonymous": false,
      "inputs": [
        {
          "indexed": false,
          "internalType": "uint256",
          "name": "oldVotingPeriod",
          "type": "uint256"
        },
        {
          "indexed": false,
          "internalType": "uint256",
          "name": "newVotingPeriod",
          "type": "uint256"
        }
      ],
      "name": "VotingPeriodSet",
      "type": "event"
    },
    {
      "inputs": [],
      "name": "APPROVAL_THRESHOLD",
      "outputs": [
        {
          "internalType": "uint256",
          "name": "",
          "type": "uint256"
        }
      ],
      "stateMutability": "view",
      "type": "function"
    },
    {
      "inputs": [],
      "name": "BALLOT_TYPEHASH",
      "outputs": [
        {
          "internalType": "bytes32",
          "name": "",
          "type": "bytes32"
        }
      ],
      "stateMutability": "view",
      "type": "function"
    },
    {
      "inputs": [],
      "name": "CLOCK_MODE",
      "outputs": [
        {
          "internalType": "string",
          "name": "",
          "type": "string"
        }
      ],
      "stateMutability": "view",
      "type": "function"
    },
    {
      "inputs": [],
      "name": "COUNTING_MODE",
      "outputs": [
        {
          "internalType": "string",
          "name": "",
          "type": "string"
        }
      ],
      "stateMutability": "pure",
      "type": "function"
    },
    {
      "inputs": [],
      "name": "EXECUTION_DELAY",
      "outputs": [
        {
          "internalType": "uint256",
          "name": "",
          "type": "uint256"
        }
      ],
      "stateMutability": "view",
      "type": "function"
    },
    {
      "inputs": [],
      "name": "EXTENDED_BALLOT_TYPEHASH",
      "outputs": [
        {
          "internalType": "bytes32",
          "name": "",
          "type": "bytes32"
        }
      ],
      "stateMutability": "view",
      "type": "function"
    },
    {
      "inputs": [],
      "name": "QUORUM",
      "outputs": [
        {
          "internalType": "uint256",
          "name": "",
          "type": "uint256"
        }
      ],
      "stateMutability": "view",
      "type": "function"
    },
    {
      "inputs": [],
      "name": "VOTING_PERIOD",
      "outputs": [
        {
          "internalType": "uint256",
          "name": "",
          "type": "uint256"
        }
      ],
      "stateMutability": "view",
      "type": "function"
    },
    {
      "inputs": [
        {
          "internalType": "address",
          "name": "",
          "type": "address"
        }
      ],
      "name": "allowedContracts",
      "outputs": [
        {
          "internalType": "bool",
          "name": "",
          "type": "bool"
        }
      ],
      "stateMutability": "view",
      "type": "function"
    },
    {
      "inputs": [],
      "name": "bootstrapMode",
      "outputs": [
        {
          "internalType": "bool",
          "name": "",
          "type": "bool"
        }
      ],
      "stateMutability": "view",
      "type": "function"
    },
    {
      "inputs": [],
      "name": "bootstrapQuorum",
      "outputs": [
        {
          "internalType": "uint256",
          "name": "",
          "type": "uint256"
        }
      ],
      "stateMutability": "view",
      "type": "function"
    },
    {
      "inputs": [],
      "name": "borrowMultiplier",
      "outputs": [
        {
          "internalType": "uint256",
          "name": "",
          "type": "uint256"
        }
      ],
      "stateMutability": "view",
      "type": "function"
    },
    {
      "inputs": [
        {
          "internalType": "address[]",
          "name": "targets",
          "type": "address[]"
        },
        {
          "internalType": "uint256[]",
          "name": "values",
          "type": "uint256[]"
        },
        {
          "internalType": "bytes[]",
          "name": "calldatas",
          "type": "bytes[]"
        },
        {
          "internalType": "bytes32",
          "name": "descriptionHash",
          "type": "bytes32"
        }
      ],
      "name": "cancel",
      "outputs": [
        {
          "internalType": "uint256",
          "name": "",
          "type": "uint256"
        }
      ],
      "stateMutability": "nonpayable",
      "type": "function"
    },
    {
      "inputs": [
        {
          "internalType": "uint256",
          "name": "proposalId",
          "type": "uint256"
        },
        {
          "internalType": "uint8",
          "name": "support",
          "type": "uint8"
        }
      ],
      "name": "castVote",
      "outputs": [
        {
          "internalType": "uint256",
          "name": "",
          "type": "uint256"
        }
      ],
      "stateMutability": "nonpayable",
      "type": "function"
    },
    {
      "inputs": [
        {
          "internalType": "uint256",
          "name": "proposalId",
          "type": "uint256"
        },
        {
          "internalType": "uint8",
          "name": "support",
          "type": "uint8"
        },
        {
          "internalType": "address",
          "name": "voter",
          "type": "address"
        },
        {
          "internalType": "bytes",
          "name": "signature",
          "type": "bytes"
        }
      ],
      "name": "castVoteBySig",
      "outputs": [
        {
          "internalType": "uint256",
          "name": "",
          "type": "uint256"
        }
      ],
      "stateMutability": "nonpayable",
      "type": "function"
    },
    {
      "inputs": [
        {
          "internalType": "uint256",
          "name": "proposalId",
          "type": "uint256"
        },
        {
          "internalType": "uint8",
          "name": "support",
          "type": "uint8"
        },
        {
          "internalType": "string",
          "name": "reason",
          "type": "string"
        }
      ],
      "name": "castVoteWithReason",
      "outputs": [
        {
          "internalType": "uint256",
          "name": "",
          "type": "uint256"
        }
      ],
      "stateMutability": "nonpayable",
      "type": "function"
    },
    {
      "inputs": [
        {
          "internalType": "uint256",
          "name": "proposalId",
          "type": "uint256"
        },
        {
          "internalType": "uint8",
          "name": "support",
          "type": "uint8"
        },
        {
          "internalType": "string",
          "name": "reason",
          "type": "string"
        },
        {
          "internalType": "bytes",
          "name": "params",
          "type": "bytes"
        }
      ],
      "name": "castVoteWithReasonAndParams",
      "outputs": [
        {
          "internalType": "uint256",
          "name": "",
          "type": "uint256"
        }
      ],
      "stateMutability": "nonpayable",
      "type": "function"
    },
    {
      "inputs": [
        {
          "internalType": "uint256",
          "name": "proposalId",
          "type": "uint256"
        },
        {
          "internalType": "uint8",
          "name": "support",
          "type": "uint8"
        },
        {
          "internalType": "address",
          "name": "voter",
          "type": "address"
        },
        {
          "internalType": "string",
          "name": "reason",
          "type": "string"
        },
        {
          "internalType": "bytes",
          "name": "params",
          "type": "bytes"
        },
        {
          "internalType": "bytes",
          "name": "signature",
          "type": "bytes"
        }
      ],
      "name": "castVoteWithReasonAndParamsBySig",
      "outputs": [
        {
          "internalType": "uint256",
          "name": "",
          "type": "uint256"
        }
      ],
      "stateMutability": "nonpayable",
      "type": "function"
    },
    {
      "inputs": [],
      "name": "clock",
      "outputs": [
        {
          "internalType": "uint48",
          "name": "",
          "type": "uint48"
        }
      ],
      "stateMutability": "view",
      "type": "function"
    },
    {
      "inputs": [
        {
          "internalType": "address",
          "name": "",
          "type": "address"
        }
      ],
      "name": "contractWhitelist",
      "outputs": [
        {
          "internalType": "bool",
          "name": "",
          "type": "bool"
        }
      ],
      "stateMutability": "view",
      "type": "function"
    },
    {
      "inputs": [],
      "name": "disableBootstrapMode",
      "outputs": [],
      "stateMutability": "nonpayable",
      "type": "function"
    },
    {
      "inputs": [],
      "name": "eip712Domain",
      "outputs": [
        {
          "internalType": "bytes1",
          "name": "fields",
          "type": "bytes1"
        },
        {
          "internalType": "string",
          "name": "name",
          "type": "string"
        },
        {
          "internalType": "string",
          "name": "version",
          "type": "string"
        },
        {
          "internalType": "uint256",
          "name": "chainId",
          "type": "uint256"
        },
        {
          "internalType": "address",
          "name": "verifyingContract",
          "type": "address"
        },
        {
          "internalType": "bytes32",
          "name": "salt",
          "type": "bytes32"
        },
        {
          "internalType": "uint256[]",
          "name": "extensions",
          "type": "uint256[]"
        }
      ],
      "stateMutability": "view",
      "type": "function"
    },
    {
      "inputs": [
        {
          "internalType": "uint256",
          "name": "",
          "type": "uint256"
        }
      ],
      "name": "emergencyMultisig",
      "outputs": [
        {
          "internalType": "address",
          "name": "",
          "type": "address"
        }
      ],
      "stateMutability": "view",
      "type": "function"
    },
    {
      "inputs": [
        {
          "internalType": "address[]",
          "name": "targets",
          "type": "address[]"
        },
        {
          "internalType": "uint256[]",
          "name": "values",
          "type": "uint256[]"
        },
        {
          "internalType": "bytes[]",
          "name": "calldatas",
          "type": "bytes[]"
        },
        {
          "internalType": "bytes32",
          "name": "descriptionHash",
          "type": "bytes32"
        }
      ],
      "name": "execute",
      "outputs": [
        {
          "internalType": "uint256",
          "name": "",
          "type": "uint256"
        }
      ],
      "stateMutability": "payable",
      "type": "function"
    },
    {
      "inputs": [
        {
          "internalType": "uint256",
          "name": "proposalId",
          "type": "uint256"
        }
      ],
      "name": "executeAdvancedProposal",
      "outputs": [],
      "stateMutability": "nonpayable",
      "type": "function"
    },
    {
      "inputs": [
        {
          "internalType": "address",
          "name": "",
          "type": "address"
        }
      ],
      "name": "fallbackPriceFeeds",
      "outputs": [
        {
          "internalType": "address",
          "name": "",
          "type": "address"
        }
      ],
      "stateMutability": "view",
      "type": "function"
    },
    {
      "inputs": [
        {
          "internalType": "address[]",
          "name": "targets",
          "type": "address[]"
        },
        {
          "internalType": "uint256[]",
          "name": "values",
          "type": "uint256[]"
        },
        {
          "internalType": "bytes[]",
          "name": "calldatas",
          "type": "bytes[]"
        },
        {
          "internalType": "bytes32",
          "name": "descriptionHash",
          "type": "bytes32"
        }
      ],
      "name": "getProposalId",
      "outputs": [
        {
          "internalType": "uint256",
          "name": "",
          "type": "uint256"
        }
      ],
      "stateMutability": "view",
      "type": "function"
    },
    {
      "inputs": [
        {
          "internalType": "address",
          "name": "user",
          "type": "address"
        }
      ],
      "name": "getReputation",
      "outputs": [
        {
          "internalType": "int256",
          "name": "",
          "type": "int256"
        }
      ],
      "stateMutability": "view",
      "type": "function"
    },
    {
      "inputs": [
        {
          "internalType": "address",
          "name": "account",
          "type": "address"
        },
        {
          "internalType": "uint256",
          "name": "timepoint",
          "type": "uint256"
        }
      ],
      "name": "getVotes",
      "outputs": [
        {
          "internalType": "uint256",
          "name": "",
          "type": "uint256"
        }
      ],
      "stateMutability": "view",
      "type": "function"
    },
    {
      "inputs": [
        {
          "internalType": "address",
          "name": "account",
          "type": "address"
        },
        {
          "internalType": "uint256",
          "name": "timepoint",
          "type": "uint256"
        },
        {
          "internalType": "bytes",
          "name": "params",
          "type": "bytes"
        }
      ],
      "name": "getVotesWithParams",
      "outputs": [
        {
          "internalType": "uint256",
          "name": "",
          "type": "uint256"
        }
      ],
      "stateMutability": "view",
      "type": "function"
    },
    {
      "inputs": [
        {
          "internalType": "address",
          "name": "user",
          "type": "address"
        }
      ],
      "name": "getVotingPower",
      "outputs": [
        {
          "internalType": "uint256",
          "name": "",
          "type": "uint256"
        }
      ],
      "stateMutability": "view",
      "type": "function"
    },
    {
      "inputs": [
        {
          "internalType": "address",
          "name": "user",
          "type": "address"
        },
        {
          "internalType": "address",
          "name": "asset",
          "type": "address"
        },
        {
          "internalType": "uint256",
          "name": "amount",
          "type": "uint256"
        },
        {
          "internalType": "enum ProtocolGovernor.ActionType",
          "name": "action",
          "type": "uint8"
        }
      ],
      "name": "grantTokens",
      "outputs": [],
      "stateMutability": "nonpayable",
      "type": "function"
    },
    {
      "inputs": [
        {
          "internalType": "uint256",
          "name": "proposalId",
          "type": "uint256"
        },
        {
          "internalType": "address",
          "name": "account",
          "type": "address"
        }
      ],
      "name": "hasVoted",
      "outputs": [
        {
          "internalType": "bool",
          "name": "",
          "type": "bool"
        }
      ],
      "stateMutability": "view",
      "type": "function"
    },
    {
      "inputs": [
        {
          "internalType": "address[]",
          "name": "targets",
          "type": "address[]"
        },
        {
          "internalType": "uint256[]",
          "name": "values",
          "type": "uint256[]"
        },
        {
          "internalType": "bytes[]",
          "name": "calldatas",
          "type": "bytes[]"
        },
        {
          "internalType": "bytes32",
          "name": "descriptionHash",
          "type": "bytes32"
        }
      ],
      "name": "hashProposal",
      "outputs": [
        {
          "internalType": "uint256",
          "name": "",
          "type": "uint256"
        }
      ],
      "stateMutability": "pure",
      "type": "function"
    },
    {
      "inputs": [
        {
          "internalType": "address",
          "name": "signer",
          "type": "address"
        }
      ],
      "name": "isMultisig",
      "outputs": [
        {
          "internalType": "bool",
          "name": "",
          "type": "bool"
        }
      ],
      "stateMutability": "view",
      "type": "function"
    },
    {
      "inputs": [],
      "name": "lendMultiplier",
      "outputs": [
        {
          "internalType": "uint256",
          "name": "",
          "type": "uint256"
        }
      ],
      "stateMutability": "view",
      "type": "function"
    },
    {
      "inputs": [],
      "name": "name",
      "outputs": [
        {
          "internalType": "string",
          "name": "",
          "type": "string"
        }
      ],
      "stateMutability": "view",
      "type": "function"
    },
    {
      "inputs": [
        {
          "internalType": "address",
          "name": "owner",
          "type": "address"
        }
      ],
      "name": "nonces",
      "outputs": [
        {
          "internalType": "uint256",
          "name": "",
          "type": "uint256"
        }
      ],
      "stateMutability": "view",
      "type": "function"
    },
    {
      "inputs": [
        {
          "internalType": "address",
          "name": "",
          "type": "address"
        },
        {
          "internalType": "address",
          "name": "",
          "type": "address"
        },
        {
          "internalType": "uint256[]",
          "name": "",
          "type": "uint256[]"
        },
        {
          "internalType": "uint256[]",
          "name": "",
          "type": "uint256[]"
        },
        {
          "internalType": "bytes",
          "name": "",
          "type": "bytes"
        }
      ],
      "name": "onERC1155BatchReceived",
      "outputs": [
        {
          "internalType": "bytes4",
          "name": "",
          "type": "bytes4"
        }
      ],
      "stateMutability": "nonpayable",
      "type": "function"
    },
    {
      "inputs": [
        {
          "internalType": "address",
          "name": "",
          "type": "address"
        },
        {
          "internalType": "address",
          "name": "",
          "type": "address"
        },
        {
          "internalType": "uint256",
          "name": "",
          "type": "uint256"
        },
        {
          "internalType": "uint256",
          "name": "",
          "type": "uint256"
        },
        {
          "internalType": "bytes",
          "name": "",
          "type": "bytes"
        }
      ],
      "name": "onERC1155Received",
      "outputs": [
        {
          "internalType": "bytes4",
          "name": "",
          "type": "bytes4"
        }
      ],
      "stateMutability": "nonpayable",
      "type": "function"
    },
    {
      "inputs": [
        {
          "internalType": "address",
          "name": "",
          "type": "address"
        },
        {
          "internalType": "address",
          "name": "",
          "type": "address"
        },
        {
          "internalType": "uint256",
          "name": "",
          "type": "uint256"
        },
        {
          "internalType": "bytes",
          "name": "",
          "type": "bytes"
        }
      ],
      "name": "onERC721Received",
      "outputs": [
        {
          "internalType": "bytes4",
          "name": "",
          "type": "bytes4"
        }
      ],
      "stateMutability": "nonpayable",
      "type": "function"
    },
    {
      "inputs": [
        {
          "internalType": "address",
          "name": "user",
          "type": "address"
        },
        {
          "internalType": "int256",
          "name": "amount",
          "type": "int256"
        }
      ],
      "name": "penalizeReputation",
      "outputs": [],
      "stateMutability": "nonpayable",
      "type": "function"
    },
    {
      "inputs": [
        {
          "internalType": "address",
          "name": "",
          "type": "address"
        }
      ],
      "name": "priceFeeds",
      "outputs": [
        {
          "internalType": "address",
          "name": "",
          "type": "address"
        }
      ],
      "stateMutability": "view",
      "type": "function"
    },
    {
      "inputs": [],
      "name": "proposalCount",
      "outputs": [
        {
          "internalType": "uint256",
          "name": "",
          "type": "uint256"
        }
      ],
      "stateMutability": "view",
      "type": "function"
    },
    {
      "inputs": [
        {
          "internalType": "uint256",
          "name": "proposalId",
          "type": "uint256"
        }
      ],
      "name": "proposalDeadline",
      "outputs": [
        {
          "internalType": "uint256",
          "name": "",
          "type": "uint256"
        }
      ],
      "stateMutability": "view",
      "type": "function"
    },
    {
      "inputs": [
        {
          "internalType": "uint256",
          "name": "proposalId",
          "type": "uint256"
        }
      ],
      "name": "proposalEta",
      "outputs": [
        {
          "internalType": "uint256",
          "name": "",
          "type": "uint256"
        }
      ],
      "stateMutability": "view",
      "type": "function"
    },
    {
      "inputs": [
        {
          "internalType": "uint256",
          "name": "proposalId",
          "type": "uint256"
        }
      ],
      "name": "proposalNeedsQueuing",
      "outputs": [
        {
          "internalType": "bool",
          "name": "",
          "type": "bool"
        }
      ],
      "stateMutability": "view",
      "type": "function"
    },
    {
      "inputs": [
        {
          "internalType": "uint256",
          "name": "proposalId",
          "type": "uint256"
        }
      ],
      "name": "proposalProposer",
      "outputs": [
        {
          "internalType": "address",
          "name": "",
          "type": "address"
        }
      ],
      "stateMutability": "view",
      "type": "function"
    },
    {
      "inputs": [
        {
          "internalType": "uint256",
          "name": "proposalId",
          "type": "uint256"
        }
      ],
      "name": "proposalSnapshot",
      "outputs": [
        {
          "internalType": "uint256",
          "name": "",
          "type": "uint256"
        }
      ],
      "stateMutability": "view",
      "type": "function"
    },
    {
      "inputs": [],
      "name": "proposalThreshold",
      "outputs": [
        {
          "internalType": "uint256",
          "name": "",
          "type": "uint256"
        }
      ],
      "stateMutability": "view",
      "type": "function"
    },
    {
      "inputs": [
        {
          "internalType": "uint256",
          "name": "proposalId",
          "type": "uint256"
        }
      ],
      "name": "proposalVotes",
      "outputs": [
        {
          "internalType": "uint256",
          "name": "againstVotes",
          "type": "uint256"
        },
        {
          "internalType": "uint256",
          "name": "forVotes",
          "type": "uint256"
        },
        {
          "internalType": "uint256",
          "name": "abstainVotes",
          "type": "uint256"
        }
      ],
      "stateMutability": "view",
      "type": "function"
    },
    {
      "inputs": [
        {
          "internalType": "uint256",
          "name": "",
          "type": "uint256"
        }
      ],
      "name": "proposals",
      "outputs": [
        {
          "internalType": "address",
          "name": "targetContract",
          "type": "address"
        },
        {
          "internalType": "bytes4",
          "name": "functionSelector",
          "type": "bytes4"
        },
        {
          "internalType": "bytes",
          "name": "encodedParams",
          "type": "bytes"
        },
        {
          "internalType": "uint256",
          "name": "minVotesNeeded",
          "type": "uint256"
        },
        {
          "internalType": "uint256",
          "name": "startTime",
          "type": "uint256"
        },
        {
          "internalType": "uint256",
          "name": "endTime",
          "type": "uint256"
        },
        {
          "internalType": "uint256",
          "name": "executeAfter",
          "type": "uint256"
        },
        {
          "internalType": "bool",
          "name": "executed",
          "type": "bool"
        },
        {
          "internalType": "uint256",
          "name": "yesVotes",
          "type": "uint256"
        },
        {
          "internalType": "uint256",
          "name": "noVotes",
          "type": "uint256"
        },
        {
          "internalType": "bool",
          "name": "queued",
          "type": "bool"
        }
      ],
      "stateMutability": "view",
      "type": "function"
    },
    {
      "inputs": [
        {
          "internalType": "address[]",
          "name": "targets",
          "type": "address[]"
        },
        {
          "internalType": "uint256[]",
          "name": "values",
          "type": "uint256[]"
        },
        {
          "internalType": "bytes[]",
          "name": "calldatas",
          "type": "bytes[]"
        },
        {
          "internalType": "string",
          "name": "description",
          "type": "string"
        }
      ],
      "name": "propose",
      "outputs": [
        {
          "internalType": "uint256",
          "name": "",
          "type": "uint256"
        }
      ],
      "stateMutability": "nonpayable",
      "type": "function"
    },
    {
      "inputs": [
        {
          "internalType": "address",
          "name": "targetContract",
          "type": "address"
        },
        {
          "internalType": "bytes4",
          "name": "functionSelector",
          "type": "bytes4"
        },
        {
          "internalType": "bytes",
          "name": "encodedParams",
          "type": "bytes"
        },
        {
          "internalType": "uint256",
          "name": "minVotesNeeded",
          "type": "uint256"
        }
      ],
      "name": "proposeAdvanced",
      "outputs": [],
      "stateMutability": "nonpayable",
      "type": "function"
    },
    {
      "inputs": [
        {
          "internalType": "address[]",
          "name": "targets",
          "type": "address[]"
        },
        {
          "internalType": "uint256[]",
          "name": "values",
          "type": "uint256[]"
        },
        {
          "internalType": "bytes[]",
          "name": "calldatas",
          "type": "bytes[]"
        },
        {
          "internalType": "bytes32",
          "name": "descriptionHash",
          "type": "bytes32"
        }
      ],
      "name": "queue",
      "outputs": [
        {
          "internalType": "uint256",
          "name": "",
          "type": "uint256"
        }
      ],
      "stateMutability": "nonpayable",
      "type": "function"
    },
    {
      "inputs": [
        {
          "internalType": "uint256",
          "name": "proposalId",
          "type": "uint256"
        }
      ],
      "name": "queueAdvancedProposal",
      "outputs": [],
      "stateMutability": "nonpayable",
      "type": "function"
    },
    {
      "inputs": [
        {
          "internalType": "uint256",
          "name": "",
          "type": "uint256"
        }
      ],
      "name": "quorum",
      "outputs": [
        {
          "internalType": "uint256",
          "name": "",
          "type": "uint256"
        }
      ],
      "stateMutability": "view",
      "type": "function"
    },
    {
      "inputs": [],
      "name": "quorumPercentage",
      "outputs": [
        {
          "internalType": "uint256",
          "name": "",
          "type": "uint256"
        }
      ],
      "stateMutability": "view",
      "type": "function"
    },
    {
      "inputs": [
        {
          "internalType": "address",
          "name": "target",
          "type": "address"
        },
        {
          "internalType": "uint256",
          "name": "value",
          "type": "uint256"
        },
        {
          "internalType": "bytes",
          "name": "data",
          "type": "bytes"
        }
      ],
      "name": "relay",
      "outputs": [],
      "stateMutability": "payable",
      "type": "function"
    },
    {
      "inputs": [],
      "name": "repayMultiplier",
      "outputs": [
        {
          "internalType": "uint256",
          "name": "",
          "type": "uint256"
        }
      ],
      "stateMutability": "view",
      "type": "function"
    },
    {
      "inputs": [
        {
          "internalType": "address",
          "name": "",
          "type": "address"
        }
      ],
      "name": "reputation",
      "outputs": [
        {
          "internalType": "int256",
          "name": "",
          "type": "int256"
        }
      ],
      "stateMutability": "view",
      "type": "function"
    },
    {
      "inputs": [
        {
          "internalType": "address",
          "name": "contractAddr",
          "type": "address"
        },
        {
          "internalType": "bool",
          "name": "allowed",
          "type": "bool"
        }
      ],
      "name": "setAllowedContract",
      "outputs": [],
      "stateMutability": "nonpayable",
      "type": "function"
    },
    {
      "inputs": [
        {
          "internalType": "address",
          "name": "contractAddr",
          "type": "address"
        },
        {
          "internalType": "bool",
          "name": "allowed",
          "type": "bool"
        }
      ],
      "name": "setContractWhitelist",
      "outputs": [],
      "stateMutability": "nonpayable",
      "type": "function"
    },
    {
      "inputs": [
        {
          "internalType": "address[]",
          "name": "signers",
          "type": "address[]"
        }
      ],
      "name": "setEmergencyMultisig",
      "outputs": [],
      "stateMutability": "nonpayable",
      "type": "function"
    },
    {
      "inputs": [
        {
          "internalType": "address",
          "name": "asset",
          "type": "address"
        },
        {
          "internalType": "address",
          "name": "feed",
          "type": "address"
        }
      ],
      "name": "setFallbackPriceFeed",
      "outputs": [],
      "stateMutability": "nonpayable",
      "type": "function"
    },
    {
      "inputs": [
        {
          "internalType": "uint256",
          "name": "lend",
          "type": "uint256"
        },
        {
          "internalType": "uint256",
          "name": "borrow",
          "type": "uint256"
        },
        {
          "internalType": "uint256",
          "name": "repay",
          "type": "uint256"
        }
      ],
      "name": "setMultipliers",
      "outputs": [],
      "stateMutability": "nonpayable",
      "type": "function"
    },
    {
      "inputs": [
        {
          "internalType": "address",
          "name": "asset",
          "type": "address"
        },
        {
          "internalType": "address",
          "name": "feed",
          "type": "address"
        }
      ],
      "name": "setPriceFeed",
      "outputs": [],
      "stateMutability": "nonpayable",
      "type": "function"
    },
    {
      "inputs": [
        {
          "internalType": "uint256",
          "name": "newProposalThreshold",
          "type": "uint256"
        }
      ],
      "name": "setProposalThreshold",
      "outputs": [],
      "stateMutability": "nonpayable",
      "type": "function"
    },
    {
      "inputs": [
        {
          "internalType": "uint256",
          "name": "newBasisPoints",
          "type": "uint256"
        }
      ],
      "name": "setQuorumPercentage",
      "outputs": [],
      "stateMutability": "nonpayable",
      "type": "function"
    },
    {
      "inputs": [
        {
          "internalType": "uint48",
          "name": "newVotingDelay",
          "type": "uint48"
        }
      ],
      "name": "setVotingDelay",
      "outputs": [],
      "stateMutability": "nonpayable",
      "type": "function"
    },
    {
      "inputs": [
        {
          "internalType": "uint32",
          "name": "newVotingPeriod",
          "type": "uint32"
        }
      ],
      "name": "setVotingPeriod",
      "outputs": [],
      "stateMutability": "nonpayable",
      "type": "function"
    },
    {
      "inputs": [
        {
          "internalType": "uint256",
          "name": "proposalId",
          "type": "uint256"
        }
      ],
      "name": "state",
      "outputs": [
        {
          "internalType": "enum IGovernor.ProposalState",
          "name": "",
          "type": "uint8"
        }
      ],
      "stateMutability": "view",
      "type": "function"
    },
    {
      "inputs": [
        {
          "internalType": "bytes4",
          "name": "interfaceId",
          "type": "bytes4"
        }
      ],
      "name": "supportsInterface",
      "outputs": [
        {
          "internalType": "bool",
          "name": "",
          "type": "bool"
        }
      ],
      "stateMutability": "view",
      "type": "function"
    },
    {
      "inputs": [],
      "name": "timelock",
      "outputs": [
        {
          "internalType": "address",
          "name": "",
          "type": "address"
        }
      ],
      "stateMutability": "view",
      "type": "function"
    },
    {
      "inputs": [
        {
          "internalType": "contract TimelockController",
          "name": "newTimelock",
          "type": "address"
        }
      ],
      "name": "updateTimelock",
      "outputs": [],
      "stateMutability": "nonpayable",
      "type": "function"
    },
    {
      "inputs": [],
      "name": "version",
      "outputs": [
        {
          "internalType": "string",
          "name": "",
          "type": "string"
        }
      ],
      "stateMutability": "view",
      "type": "function"
    },
    {
      "inputs": [
        {
          "internalType": "uint256",
          "name": "proposalId",
          "type": "uint256"
        }
      ],
      "name": "vetoAdvanced",
      "outputs": [],
      "stateMutability": "nonpayable",
      "type": "function"
    },
    {
      "inputs": [
        {
          "internalType": "uint256",
          "name": "",
          "type": "uint256"
        }
      ],
      "name": "vetoSignatures",
      "outputs": [
        {
          "internalType": "uint256",
          "name": "",
          "type": "uint256"
        }
      ],
      "stateMutability": "view",
      "type": "function"
    },
    {
      "inputs": [
        {
          "internalType": "uint256",
          "name": "proposalId",
          "type": "uint256"
        },
        {
          "internalType": "bool",
          "name": "support",
          "type": "bool"
        }
      ],
      "name": "voteAdvanced",
      "outputs": [],
      "stateMutability": "nonpayable",
      "type": "function"
    },
    {
      "inputs": [],
      "name": "votingDelay",
      "outputs": [
        {
          "internalType": "uint256",
          "name": "",
          "type": "uint256"
        }
      ],
      "stateMutability": "view",
      "type": "function"
    },
    {
      "inputs": [],
      "name": "votingPeriod",
      "outputs": [
        {
          "internalType": "uint256",
          "name": "",
          "type": "uint256"
        }
      ],
      "stateMutability": "view",
      "type": "function"
    },
    {
      "inputs": [],
      "name": "votingToken",
      "outputs": [
        {
          "internalType": "contract VotingToken",
          "name": "",
          "type": "address"
        }
      ],
      "stateMutability": "view",
      "type": "function"
    },
    {
      "stateMutability": "payable",
      "type": "receive"
    }
  ],
  "bytecode": "0x610160806040523461046b57604081615cf680380380916100208285610470565b83398101031261046b5780516001600160a01b038116919082900361046b57602001516001600160a01b038116919082900361046b5760405191610065604084610470565b60108352602083016f283937ba37b1b7b623b7bb32b93737b960811b815260405190610092604083610470565b600182526020820190603160f81b82526100ab86610493565b610120526100b88361063f565b6101405285519020918260e05251902080610100524660a0526040519060208201927f8b73c3c69bb8fe3d512ecc4cf759cc79239f7b179b0ffacaa9a75d522b39400f8452604083015260608201524660808201523060a082015260a0815261012260c082610470565b5190206080523060c05282516001600160401b03811161045557600354600181811c9116801561044b575b602082101461043557601f81116103d0575b506020601f8211600114610369578192939460009261035e575b50508160011b916000199060031b1c1916176003555b663c00000000003c6008547fc565b045403dc03c2eea82b81a0465edad9e2e7fc4d97e11421c209da93d7a936040805165ffffffffffff84168152603c6020820152a17f7e3f7f0708a84de9203036abaa450dccc85ad5ff52f78c170f3edb55cf5e88286040805163ffffffff603c65ffffffffffff1986161760301c168152603c6020820152a16001600160501b0319161760085560075460408051918252600060208301527fccb45da8d5717e6c4544694297c4ba5cf151d455c9bb0ed4fc7a38411bc0546191a16000600755600a54604080516001600160a01b0383168152602081018490527f08f74ea46ef7894f65eabfb5e6e695de773a000b47c529ab559178069b2264019190a160018060a01b03191617600a556001600d55600160ff19600e541617600e556064600f556714d1120d7b1600006011556709b6e64a8ec60000601255670de0b6b3a764000060135560018060a01b0319600c541617600c553060005260196020526040600020600160ff1982541617905560405161551890816107de823960805181614f3c015260a05181614ff3015260c05181614f06015260e05181614f8b01526101005181614fb1015261012051816110f8015261014051816111220152f35b015190503880610179565b601f198216906003600052806000209160005b8181106103b85750958360019596971061039f575b505050811b0160035561018f565b015160001960f88460031b161c19169055388080610391565b9192602060018192868b01518155019401920161037c565b60036000527fc2575a0e9e593c00f959f8c92f12db2869c3395a3b0502d05e2516446f71f85b601f830160051c8101916020841061042b575b601f0160051c01905b81811061041f575061015f565b60008155600101610412565b9091508190610409565b634e487b7160e01b600052602260045260246000fd5b90607f169061014d565b634e487b7160e01b600052604160045260246000fd5b600080fd5b601f909101601f19168101906001600160401b0382119082101761045557604052565b9081516020811060001461052b575090601f8151116104cf5760208151910151602082106104bf571790565b6000198260200360031b1b161790565b6040519063305a27a960e01b8252602060048301528181519182602483015260005b8381106105135750508160006044809484010152601f80199101168101030190fd5b602082820181015160448784010152859350016104f1565b6001600160401b03811161045557600054600181811c91168015610635575b602082101461043557601f8111610600575b50602092601f821160011461059c5792819293600092610591575b50508160011b916000199060031b1c19161760005560ff90565b015190503880610577565b601f1982169360008052806000209160005b8681106105e857508360019596106105cf575b505050811b0160005560ff90565b015160001960f88460031b161c191690553880806105c1565b919260206001819286850151815501940192016105ae565b60008052601f6020600020910160051c810190601f830160051c015b818110610629575061055c565b6000815560010161061c565b90607f169061054a565b908151602081106000146106c7575090601f81511161066b5760208151910151602082106104bf571790565b6040519063305a27a960e01b8252602060048301528181519182602483015260005b8381106106af5750508160006044809484010152601f80199101168101030190fd5b6020828201810151604487840101528593500161068d565b6001600160401b03811161045557600154600181811c911680156107d3575b602082101461043557601f811161079d575b50602092601f8211600114610738579281929360009261072d575b50508160011b916000199060031b1c19161760015560ff90565b015190503880610713565b601f198216936001600052806000209160005b868110610785575083600195961061076c575b505050811b0160015560ff90565b015160001960f88460031b161c1916905538808061075e565b9192602060018192868501518155019401920161074b565b6001600052601f6020600020910160051c810190601f830160051c015b8181106107c757506106f8565b600081556001016107ba565b90607f16906106e656fe6080806040526004361015610040575b50361561001b57600080fd5b600a546001600160a01b0316300361002f57005b637485328f60e11b60005260046000fd5b600090813560e01c908163013cf08b14613bbf5750806301ffc9a714613b3857806302a251a314613b115780630478c63c14613ae757806306fdde0314613a0457806307d4fca3146138f35780630e88ec0b1461352f578063143489d0146134fc578063150b7a0214613494578063160cbed7146131b1578063184de4c214612d835780632656227d14612b535780632d63f69314612b1e5780632e80d9b614612b025780632fa75faf146129a65780632fe3e2611461296b57806332f6a1dc1461280457806337e41708146127ba57806337f135d71461279c5780633932abb1146127765780633ab342901461275a5780633e4f49e61461271457806343859632146126c5578063452115d61461254f57806345375ec01461250b5780634bf5d7e9146124b95780634c999f5e1461247a5780634fa76ec91461245c57806351e0e26b1461241d578063544ffc9c146123d157806354fd4d501461238c57806355de1faf146122f657806356781388146122b75780635b8d0e0d146121505780635f398a14146120da57806361a29fe7146120bc57806363222f261461209e578063668f6ace1461207057806369e04906146120525780636ce46bc314611e725780636f97b07f14611e545780637548cde514611c8e57806376e1128614611bf057806376e674df146117ea57806379051887146117735780637b3c71d31461170f5780637d5e81e2146112995780637ecebe0014611260578063839b0ee1146111ab57806384b0196e146110db5780638b113cf91461109a5780638ff262e314610f7357806391ddadf414610f505780639563ddb314610f2d5780639a802a6d14610ee75780639c89a0e214610c995780639dcb511a14610ea6578063a6d84b1614610e08578063a890c91014610d8a578063a8f8a66814610b3e578063a9a9529414610d6d578063ab58fb8e14610d37578063b034012314610d0e578063b1610d7e14610cf0578063b58131b014610cd2578063b9f7945114610c99578063bb4d443614610c75578063bc197c8114610bcd578063c01f9e3714610bae578063c28bc2fa14610b43578063c59057e414610b3e578063d33219b414610b15578063da35c66414610af7578063dd4e2ba514610a94578063deaaa7cc14610a59578063e540d01d146109ae578063eb9019d41461097a578063ece40cc114610925578063f23a6e61146108aa578063f8ce560a14610886578063fd772ae6146107e85763fdc0b0e60361000f57346107e55760803660031901126107e5576103e8613dd3565b6024356001600160e01b03198116908181036107e3576044356001600160401b0381116107df5761041d9036906004016140d3565b93906064359161042c33614447565b600c54604051631d5e528f60e21b815290602090829060049082906001600160a01b03165afa9081156107d457899161079d575b5060001981019081116106f2576103e8900411610758576001600160a01b03168087526019602052604087205490929060ff161561071a5762093a8042019081421161070657620bdd804201928383116106f257601754966104c188614438565b601755878a5260186020526040808b20805463ffffffff60a01b1989166001600160c01b0319909116179890911c63ffffffff60a01b1697909717875560018701966001600160401b038a116106de57908a8a93926105208a54613d21565b601f81116106a3575b5081601f861160011461060157907f95163a216cfd223fcfcefbee1958390d7f2c90e178d267fa2915d2c287bbdd969a8660089385916105f6575b508760011b906000198960031b1c19161790555b8660028201554260038201558760048201558860058201556006810160ff1981541690558260078201550155604051968752602087015260e060408701528160e0870152610100860137876101008886010152606084015242608084015260a083015260c0820152610100813395601f80199101168101030190a380f35b905086013538610564565b99601f1986168184526020842090845b8181106106715750907f95163a216cfd223fcfcefbee1958390d7f2c90e178d267fa2915d2c287bbdd969c88600895949310610657575b5050600187811b019055610578565b87013560001960038a901b60f8161c191690553880610648565b939698999a9b9c945091949650602060018192868b013581550194019201928d9694918f949c9b9a999896939c610611565b6106ce908b845260208420601f880160051c810191602089106106d4575b601f0160051c01906143ae565b38610529565b90915081906106c1565b634e487b7160e01b8b52604160045260248bfd5b634e487b7160e01b89526011600452602489fd5b634e487b7160e01b88526011600452602488fd5b60405162461bcd60e51b815260206004820152601660248201527515185c99d95d081b9bdd081dda1a5d195b1a5cdd195960521b6044820152606490fd5b60405162461bcd60e51b815260206004820152601b60248201527f4e65656420302e312520746f6b656e7320746f2070726f706f736500000000006044820152606490fd5b90506020813d6020116107cc575b816107b860209383613d5b565b810103126107c7575138610460565b600080fd5b3d91506107ab565b6040513d8b823e3d90fd5b8480fd5b835b80fd5b50346107e55760403660031901126107e557610802613dd3565b7f46fe0810a41e3dbf985c77c9f30207ce6eda91dcba24d8de583b6ea30ac16f00602061082d61405f565b923033148015610872575b610841906142fa565b6001600160a01b03168085526019825260408520805460ff191660ff86151516179055925b6040519015158152a280f35b50600a546001600160a01b03163314610838565b50346107e55760203660031901126107e55760206108a26145fa565b604051908152f35b50346107e55760a03660031901126107e5576108c4613dd3565b506108cd613de9565b506084356001600160401b038111610921576108ed903690600401613e7b565b50600a546001600160a01b031630036109125760405163f23a6e6160e01b8152602090f35b637485328f60e11b8152600490fd5b5080fd5b50346107e55760203660031901126107e5576004356109426147b1565b7fccb45da8d5717e6c4544694297c4ba5cf151d455c9bb0ed4fc7a38411bc0546160406007548151908152836020820152a160075580f35b50346107e55760403660031901126107e5576108a260209161099a613dd3565b906040516109a88582613d5b565b52614c73565b50346107e55760203660031901126107e55760043563ffffffff811690818103610a55576109da6147b1565b8115610a415769ffffffff000000000000907f7e3f7f0708a84de9203036abaa450dccc85ad5ff52f78c170f3edb55cf5e882860406008549481519063ffffffff8760301c1682526020820152a160301b169069ffffffff00000000000019161760085580f35b63f1cfbf0560e01b83526004839052602483fd5b8280fd5b50346107e557806003193601126107e55760206040517ff2aad550cf55f045cb27e9c559f9889fdfb6e6cdaa032301d6ea397784ae51d78152f35b50346107e557806003193601126107e557610af36040805190610ab78183613d5b565b602082527f737570706f72743d627261766f2671756f72756d3d666f722c6162737461696e602083015251918291602083526020830190613d92565b0390f35b50346107e557806003193601126107e5576020601754604051908152f35b50346107e557806003193601126107e557600a546040516001600160a01b039091168152602090f35b614134565b5060603660031901126107e557610b58613dd3565b816044356001600160401b03811161092157610baa92610b7d839236906004016140d3565b90610b866147b1565b81604051928392833781018481520391602435905af1610ba46144cd565b90614d7f565b5080f35b50346107e55760203660031901126107e55760206108a2600435614d34565b50346107e55760a03660031901126107e557610be7613dd3565b50610bf0613de9565b506044356001600160401b03811161092157610c10903690600401613f15565b506064356001600160401b03811161092157610c30903690600401613f15565b506084356001600160401b03811161092157610c50903690600401613e7b565b50600a546001600160a01b031630036109125760405163bc197c8160e01b8152602090f35b50346107e55760203660031901126107e55760206108a2610c94613dd3565b614447565b50346107e55760203660031901126107e5576020906040906001600160a01b03610cc1613dd3565b168152601083522054604051908152f35b50346107e557806003193601126107e5576020600754604051908152f35b50346107e557806003193601126107e557602060405162093a808152f35b50346107e557806003193601126107e557600c546040516001600160a01b039091168152602090f35b50346107e55760203660031901126107e55760206108a2600435600052600460205265ffffffffffff6001604060002001541690565b50346107e55760203660031901126107e557602060405160018152f35b50346107e55760203660031901126107e5576004356001600160a01b0381169081900361092157610db96147b1565b600a54604080516001600160a01b0383168152602081018490527f08f74ea46ef7894f65eabfb5e6e695de773a000b47c529ab559178069b2264019190a16001600160a01b03191617600a5580f35b50346107e55760403660031901126107e557610e22613dd3565b610e2a613de9565b903033148015610e92575b610e3e906142fa565b6001600160a01b0390811680845260166020526040842080546001600160a01b031916939092169283179091557f53880ca2a010f722cbd03db1521650ed6252e78aef05632874de7c3c4b5ecf298380a380f35b50600a546001600160a01b03163314610e35565b50346107e55760203660031901126107e5576020906001600160a01b03610ecb613dd3565b16815260158252604060018060a01b0391205416604051908152f35b50346107e55760603660031901126107e557610f01613dd3565b90604435906001600160401b0382116107e55760206108a284610f273660048701613e7b565b50614c73565b50346107e557806003193601126107e557602060ff600e54166040519015158152f35b50346107e557806003193601126107e557602060405165ffffffffffff42168152f35b50346107e55760803660031901126107e557600435610f906140c3565b91610f99613dff565b916064356001600160401b038111610a5557610fb9903690600401613e7b565b93611052610fe28560018060a01b03166000526002602052604060002080549060018201905590565b9561104c60405160208101907ff2aad550cf55f045cb27e9c559f9889fdfb6e6cdaa032301d6ea397784ae51d7825286604082015260ff8616606082015260018060a01b038916998a608083015260a082015260a0815261104460c082613d5b565b51902061498d565b866149b3565b15611086576108a29394506020946040519261106e8785613d5b565b8484526040519461107f8887613d5b565b8552614a70565b6394ab6c0760e01b83526004859052602483fd5b50346107e55760203660031901126107e5576020906001600160a01b036110bf613dd3565b16815260168252604060018060a01b0391205416604051908152f35b50346107e557806003193601126107e55761117e90610af361111c7f00000000000000000000000000000000000000000000000000000000000000006150a2565b916111467f0000000000000000000000000000000000000000000000000000000000000000615106565b61118c60405191611158602084613d5b565b8383526000368137604051968796600f60f81b885260e0602089015260e0880190613d92565b908682036040880152613d92565b9146606086015230608086015260a085015283820360c0850152614100565b50346107e55760203660031901126107e5576004356111c933614350565b1561122357808252601b602052604082206111e48154614438565b9055808252601b6020526040822054906040519182527f0fd1cd5610c526002022d4ad7e23129d4ad5536f07271d0d8db0756ecf3b0b1b60203393a380f35b60405162461bcd60e51b81526020600482015260156024820152742737ba10309036bab63a34b9b4b39039b4b3b732b960591b6044820152606490fd5b50346107e55760203660031901126107e5576020906040906001600160a01b03611288613dd3565b168152600283522054604051908152f35b50346107e55760803660031901126107e5576004356001600160401b038111610921576112ca903690600401613eb0565b6024356001600160401b038111610a55576112e9903690600401613f15565b906044356001600160401b0381116107e357611309903690600401613f72565b906064356001600160401b0381116107df57366023820112156107df5761133a903690602481600401359101613e44565b916001600160a01b0361134c836142d9565b51169261138960409485516113618782613d5b565b6016815275283937b837b9b4b733903bb4ba34103a30b933b2ba1d60511b6020820152614762565b6113ba611395866142d9565b5185516113a28782613d5b565b60068152652b30b63ab29d60d11b6020820152614692565b6113f66113c6836142d9565b515185516113d48782613d5b565b601081526f21b0b6363230ba30903632b733ba341d60811b6020820152614692565b6114008133615055565b156116fc5760075480611697575b5061142181516020830120838786614593565b94835181519081811480159061168c575b8015611684575b611667575050858752600460205265ffffffffffff8588205460a01c1661163e5760085461147765ffffffffffff821665ffffffffffff4216614266565b878952600460205286892080546001600160a01b031916331781559094603083901c63ffffffff16929091906114ac8761525f565b9082549063ffffffff86116116255769ffffffffffffffffffff60a01b1990911660a092831b65ffffffffffff60a01b1617911b63ffffffff60d01b161790558551916114f883613e99565b9261150589519485613d5b565b808452611514601f1991613e99565b018a5b81811061161457505061152d61155d9187614266565b9361154f8951988b8a523360208b01526101208b8b01526101208a01906144fd565b9088820360608a0152614100565b98868a0360808801528251808b5260208b016020808d8460051b0101950192905b8282106115e7575060208b8b7f7d84a6263ae0d98d3329bd7b46bb4e8d6f98cd35a7adb45c274c8b7fd5ebd5e08c806115de8e8e8e6115c58f8f87820360a089015261453a565b9260c086015260e0850152838203610100850152613d92565b0390a151908152f35b909192946020806116068f93600194601f199082030186528951613d92565b97019201920190929161157e565b806060602080938801015201611517565b6306dfcc6560e41b8d526020600452602486905260448dfd5b6064876116618861164e816148a1565b906331b75e4d60e01b845260045261406e565b80604452fd5b8451630447b05d60e41b8a52600491909152602452604452606487fd5b508015611439565b508451811415611432565b65ffffffffffff42811660001901116116e8578685516116b8602082613d5b565b526116c233614c73565b8181106116cf575061140e565b636121770b60e11b885233600452602452604452606486fd5b634e487b7160e01b87526011600452602487fd5b63d9b3955760e01b865233600452602486fd5b50346107e55760603660031901126107e5576117296140c3565b6044356001600160401b038111610a5557916108a29161175961175260209536906004016140d3565b3691613e44565b90604051926117688685613d5b565b835233600435614a70565b50346107e55760203660031901126107e55760043565ffffffffffff8116809103610921576117a06147b1565b6008547fc565b045403dc03c2eea82b81a0465edad9e2e7fc4d97e11421c209da93d7a936040805165ffffffffffff84168152846020820152a165ffffffffffff19161760085580f35b50346107e55760803660031901126107e557611804613dd3565b61180c613de9565b604435906064359060038210156107df57338552601460205260ff60408620541615611bbd576001600160a01b0390811680865260156020526040862054909391168015611b7857604051633fabe5a360e21b815260a081600481855afa908115611a7d578791611b54575b508681131580611b36575b611abd575b86811315611a885760405163313ce56760e01b815291602090839060049082906001600160a01b03165afa918215611a7d578792611a3d575b506118ce60ff918461439b565b9116604d81116116e857906118e691600a0a9061440e565b906118f08361442e565b82611a0457678ac7230489e800006119136011545b61190e85614c2c565b61439b565b04926103e884116119fa575b83611928578680f35b600c546001600160a01b0316958790873b15610921578180916044604051809481936340c10f1960e01b835260018060a01b03169c8d60048401528b60248401525af180156119ef576119ce575b5050907f49d65c9df54d630b6691b952e3d40db14da909c648872dc1b87771d20d969dea9460a09493926040519485526119af8161442e565b6020850152604084015260608301526080820152a23880808080808680f35b816119dd919695949396613d5b565b6119eb579091928638611976565b8680fd5b6040513d84823e3d90fd5b6103e8935061191f565b611a0d8361442e565b60018303611a2957678ac7230489e80000611913601254611905565b678ac7230489e80000611913601354611905565b9091506020813d602011611a75575b81611a5960209383613d5b565b810103126119eb575160ff811681036119eb57906118ce6118c1565b3d9150611a4c565b6040513d89823e3d90fd5b60405162461bcd60e51b815260206004820152600d60248201526c496e76616c696420707269636560981b6044820152606490fd5b505082855260166020526040808620549051633fabe5a360e21b81526001600160a01b039091169060a081600481855afa908115611a7d578791611b02575b50611888565b611b24915060a03d60a011611b2f575b611b1c8183613d5b565b8101906143dc565b505050905038611afc565b503d611b12565b50848752601660205260408720546001600160a01b03161515611883565b611b6d915060a03d60a011611b2f57611b1c8183613d5b565b505050905038611878565b60405162461bcd60e51b815260206004820152601760248201527f4e6f207072696365206665656420666f722061737365740000000000000000006044820152606490fd5b60405162461bcd60e51b815260206004820152600b60248201526a139bdd08185b1b1bddd95960aa1b6044820152606490fd5b50346107e55760403660031901126107e557611c0a613dd3565b611c12613de9565b903033148015611c7a575b611c26906142fa565b6001600160a01b0390811680845260156020526040842080546001600160a01b031916939092169283179091557fd2d8394cf7549a5ddbc2ba3dd7b2de8d53c891472d1f2907008ed6a10045fdae8380a380f35b50600a546001600160a01b03163314611c1d565b50346107e55760203660031901126107e5576004356001600160401b0381116109215736602382011215610921578060040135906001600160401b038211610a55576024810190602436918460051b010111610a55573033148015611e40575b611cf7906142fa565b600160401b8211611e2c57601a5482601a55808310611dd8575b50601a835282815b838210611d8f5750506040519180602084016020855252604083019190845b818110611d6957857f9405131eda2c6eb0a71f1710c6d9bb7d0174966eff351f730b19ce6a9deb0b3d86860387a180f35b909192602080600192838060a01b03611d8188613e15565b168152019401929101611d38565b8035916001600160a01b0383168303611dd45760206001920192817f057c384a7d1c54f3a1b2e5e67b2617b8224fdfd1ea7234eea573a6ff665ff63e01550190611d19565b8580fd5b611e26907f057c384a7d1c54f3a1b2e5e67b2617b8224fdfd1ea7234eea573a6ff665ff63e01837f057c384a7d1c54f3a1b2e5e67b2617b8224fdfd1ea7234eea573a6ff665ff63e016143ae565b38611d11565b634e487b7160e01b83526041600452602483fd5b50600a546001600160a01b03163314611cee565b50346107e557806003193601126107e5576020600f54604051908152f35b50346107e55760603660031901126107e557604435602435600435333014801561203e575b611ea0906142fa565b671bc16d674ec800008111158061202c575b15611fe757670de0b6b3a764000082111580611fd5575b15611f90576714d1120d7b16000083111580611f7e575b15611f3957611f337f2c2f7a9be334609d519b0dee56c07ba4c86f58b43c187d9c446a7d89aab401a893826011558360125580601355604051938493846040919493926060820195825260208201520152565b0390a180f35b60405162461bcd60e51b815260206004820152601e60248201527f5265706179206d756c7469706c696572206f7574206f6620626f756e647300006044820152606490fd5b506706f05b59d3b20000831015611ee0565b60405162461bcd60e51b815260206004820152601f60248201527f426f72726f77206d756c7469706c696572206f7574206f6620626f756e6473006044820152606490fd5b506706f05b59d3b20000821015611ec9565b60405162461bcd60e51b815260206004820152601d60248201527f4c656e64206d756c7469706c696572206f7574206f6620626f756e64730000006044820152606490fd5b50670de0b6b3a7640000811015611eb2565b50600a546001600160a01b03163314611e97565b50346107e557806003193601126107e5576020601154604051908152f35b50346107e55760203660031901126107e557602061209461208f613dd3565b614350565b6040519015158152f35b50346107e557806003193601126107e5576020601254604051908152f35b50346107e557806003193601126107e5576020601354604051908152f35b50346107e55760803660031901126107e5576120f46140c3565b6044356001600160401b038111610a55576121139036906004016140d3565b92606435906001600160401b0382116107e55760206108a286866121468761213e3660048a01613e7b565b933691613e44565b9033600435614a70565b50346107e55760c03660031901126107e55760043561216d6140c3565b612175613dff565b6064356001600160401b0381116107df576121949036906004016140d3565b6084356001600160401b0381116119eb576121b3903690600401613e7b565b9560a4356001600160401b038111610921576121d3903690600401613e7b565b6001600160a01b0385166000908152600260205260409020805460018101909155612285909161227f612207368789613e44565b602081519101208b5160208d01206040519060208201927f3e83946653575f9a39005e1545185629e92736b7528ab20ca3816f315424a81184528d604084015260ff8d16606084015260018060a01b038c169788608085015260a084015260c083015260e082015260e0815261104461010082613d5b565b876149b3565b156122a45760206108a28989898961229e368a8c613e44565b92614a70565b6394ab6c0760e01b825260045260249150fd5b50346107e55760403660031901126107e5576108a26122d46140c3565b604051602093916122e58583613d5b565b828252604051926117688685613d5b565b50346107e55760403660031901126107e557612310613dd3565b7f0d9ebb65238904712a14ee7cbb13500ec600292b67da8c95eeb5aacade9e3505602061233b61405f565b923033148015612378575b61234f906142fa565b6001600160a01b03168085526014825260408520805460ff191660ff8615151617905592610866565b50600a546001600160a01b03163314612346565b50346107e557806003193601126107e55750610af36040516123af604082613d5b565b60018152603160f81b6020820152604051918291602083526020830190613d92565b50346107e55760203660031901126107e55760409060043581526009602052208054610af360026001840154930154604051938493846040919493926060820195825260208201520152565b50346107e55760203660031901126107e55760209060ff906040906001600160a01b03612448613dd3565b168152601484522054166040519015158152f35b50346107e557806003193601126107e5576020600d54604051908152f35b50346107e55760203660031901126107e55760209060ff906040906001600160a01b036124a5613dd3565b168152601984522054166040519015158152f35b50346107e557806003193601126107e55750610af36040516124dc604082613d5b565b600e81526d06d6f64653d74696d657374616d760941b6020820152604051918291602083526020830190613d92565b50346107e55760203660031901126107e55760043590601a548210156107e557602061253683614092565b905460405160039290921b1c6001600160a01b03168152f35b50346107e55761255e36613ff0565b9161256d838383879897614593565b94612577866148a1565b60088110156126b1571580612693575b1561267b57612597949550614593565b60406125a4603b8361471b565b508183526004602090815281842080546001600160f81b0316600160f81b17905581518381527f789cf55be980739dad1d0699b93b58e806b51c9d96619bfa8fe0a28abaa7b30c9190a1818352600b602052808320548061260a575b6020838351908152f35b600a548491906001600160a01b0316803b15610a5557602483928551948593849263c4d252f560e01b845260048401525af180156126715761265c575b50828260209452600b84528181205538612600565b612667848092613d5b565b610a555738612647565b82513d86823e3d90fd5b638fe5d8a960e01b8552600486905233602452604485fd5b50858552600460205260408520546001600160a01b03163314612587565b634e487b7160e01b86526021600452602486fd5b50346107e55760403660031901126107e557600360406126e3613de9565b926004358152600960205220019060018060a01b0316600052602052602060ff604060002054166040519015158152f35b50346107e55760203660031901126107e5576127316004356148a1565b60405190600881101561274657602092508152f35b634e487b7160e01b83526021600452602483fd5b50346107e557806003193601126107e5576020604051603c8152f35b50346107e557806003193601126107e557602065ffffffffffff60085416604051908152f35b50346107e557806003193601126107e55760206040516202a3008152f35b50346107e557806003193601126107e5576127d36147b1565b60ff19600e5416600e557f0bc7d58759550d20dd31390311ef5b2f5592ca1c6bfb4eb634c3a78db3f8795f8180a180f35b50346107e55760203660031901126107e5576004353033148015612957575b61282c906142fa565b604061286e815161283d8382613d5b565b601d81527f73657451756f72756d50657263656e746167652063616c6c656420627900000060208201523390614762565b7feb6aa7ed3d6a0f414a424bc284d6c5e118ea328d3c641cc829b1789d9143fdfe818051848152336020820152a1811561291f5761271082116128dc57816020917ff52eb210d0903b5d5451746f8ce16075afc0ed6842a576991ecb3bdbe3b645bb93600d5551908152a180f35b5162461bcd60e51b815260206004820152601760248201527f51756f72756d206d757374206265203c3d2031303030300000000000000000006044820152606490fd5b5162461bcd60e51b8152602060048201526012602482015271051756f72756d206d757374206265203e20360741b6044820152606490fd5b50600a546001600160a01b03163314612823565b50346107e557806003193601126107e55760206040517f3e83946653575f9a39005e1545185629e92736b7528ab20ca3816f315424a8118152f35b50346107e55760403660031901126107e5576004356129c361405f565b90808352601860205260408320600381015442101580612af4575b15612abf57336000908152600a8201602081905260409091205460ff16612a8a57612a0833614447565b918415612a7557600701612a1d838254614266565b90555b60018060a01b0333166000526020526040600020600160ff19825416179055604051921515835260208301527f52918a7195f9366c8404875b47578926acbf759095b011df841b1f556d55b40760403393a380f35b600801612a83838254614266565b9055612a20565b60405162461bcd60e51b815260206004820152600d60248201526c105b1c9958591e481d9bdd1959609a1b6044820152606490fd5b60405162461bcd60e51b815260206004820152600d60248201526c159bdd1a5b99c818db1bdcd959609a1b6044820152606490fd5b5060048101544211156129de565b50346107e557806003193601126107e5576020604051600a8152f35b50346107e55760203660031901126107e55765ffffffffffff6040602092600435815260048452205460a01c16604051908152f35b50612b5d36613ff0565b9290612b6e84828585989698614593565b93602095612b7f876010178761471b565b508585526004875260408520805460ff60f01b1916600160f01b179055600a546001600160a01b03163003612ca3575b600a546001600160a01b031691823b15611dd45760405163e38335e560e01b815294869486949385938493612bff933060601b6bffffffffffffffffffffffff1916909218929060048601614da9565b039134905af180156119ef57908291612c8e575b50829052600b83526040812055600a546001600160a01b031630141580612c75575b612c6b575b7f712ae1383f79ac853f8d882153778e0260ef8f03b504e2866e0593e04d2b291f82604051838152a1604051908152f35b6000600555612c3a565b506005546001600160801b0381169060801c1415612c35565b81612c9891613d5b565b6107e5578038612c13565b94908496949392935b8351811015612d7557306001600160a01b03612cc883876142e6565b511614612cd8575b600101612cac565b612ce281866142e6565b51868151910120600554908160801c6001600160801b036001820193166001600160801b03841614612d645790612d3060019493926001600160801b03166000526006602052604060002090565b55600580546001600160801b031660809290921b6fffffffffffffffffffffffffffffffff19169190911790559050612cd0565b604189634e487b718d52526024601cfd5b509094959395929192612baf565b50346107e55760203660031901126107e55760043580825260186020526040822060ff60098201541615613176576005810154421061313a57600681019060ff82541661310257828452601b6020526003604085205410156130c857600190604090612e1a858351612df58582613d5b565b601381527222bc32b1baba34b73390383937b837b9b0b61d60691b6020820152614692565b8054612ee2848060a01b03821692612e5a848651612e388882613d5b565b601081526f2a30b933b2ba1031b7b73a3930b1ba1d60811b6020820152614762565b612e998551612e698782613d5b565b6012815271233ab731ba34b7b71039b2b632b1ba37b91d60711b602082015260a085901c63ffffffff1690614692565b612ed4855160208101908a825260208152612eb48882613d5b565b519020938651978893019063ffffffff60e01b90881b16602084016141d3565b03601f198101865285613d5b565b612f208351612ef18582613d5b565b601d81527f457865637574696e67207468726f7567682074696d656c6f636b2e2e2e00000060208201526146ed565b600a548351638065657f60e01b81526001600160a01b039091169060208180612f4e868a8960048501614289565b0381855afa90811561308c578991613096575b50845190629de4f960e51b82526004820152602081602481855afa90811561308c57899161305d575b501561302357908188959493923b15611dd457612fc09486809486519788958694859363134008d360e01b855260048501614289565b03925af190811561301a5750613005575b5050805460ff191660011790557f54be43a7cd1a08d9780e16b698b9b3646cf793c6e9e4c8edfd4b2a607cd8bbbd8280a280f35b8161300f91613d5b565b610a55578238612fd1565b513d84823e3d90fd5b835162461bcd60e51b81526020600482015260136024820152724f7065726174696f6e206e6f7420726561647960681b6044820152606490fd5b61307f915060203d602011613085575b6130778183613d5b565b8101906142c1565b38612f8a565b503d61306d565b85513d8b823e3d90fd5b90506020813d6020116130c0575b816130b160209383613d5b565b810103126107c7575138612f61565b3d91506130a4565b60405162461bcd60e51b81526020600482015260126024820152715665746f6564206279206d756c746973696760701b6044820152606490fd5b60405162461bcd60e51b815260206004820152601060248201526f105b1c9958591e48195e1958dd5d195960821b6044820152606490fd5b60405162461bcd60e51b8152602060048201526014602482015273151a5b595b1bd8dac81b9bdd08195e1c1a5c995960621b6044820152606490fd5b60405162461bcd60e51b8152602060048201526013602482015272141c9bdc1bdcd85b081b9bdd081c5d595d5959606a1b6044820152606490fd5b50346107e557806131c136613ff0565b926131d184838584989698614593565b946131dd60108761471b565b506132326040516131ef606082613d5b565b602b81527f5175657565696e67206f7065726174696f6e7320776974682054696d656c6f6360208201526a35a1b7b73a3937b63632b960a91b60408201526146ed565b600a5460405163793d064960e11b8152956001600160a01b0390911690602087600481855afa96871561345257869761345d575b506bffffffffffffffffffffffff193060601b1618906020604051809263b1c5f42760e01b8252818061329f878b8a8c60048601614da9565b03915afa90811561345257869161341d575b50878652600b6020526040862055600a546001600160a01b031690813b15611dd4578580946133069261332a61331898604051998a98899788966308f2a0bb60e41b885260c0600489015260c48801906144fd565b86810360031901602488015290614100565b8481036003190160448601529061453a565b9083606484015260848301528960a483015203925af180156119ef57613408575b505061335a61335f9142614266565b61525f565b6040906133a165ffffffffffff8351926133798585613d5b565b601384527229b1b432b23ab632b2103bb4ba341032ba309d60691b6020850152168092614692565b80156133f957817f9a2e42fd6722813d69113e7d0079d3d940171428df7373df9c7f7617cfda2892916001828787602099526004895220018165ffffffffffff1982541617905581519085825286820152a151908152f35b634844252360e11b8452600484fd5b8161341291613d5b565b610a5557823861334b565b9550506020853d60201161344a575b8161343960209383613d5b565b810103126107c757879451386132b1565b3d915061342c565b6040513d88823e3d90fd5b955095506020853d60201161348c575b8161347a60209383613d5b565b810103126107c7578794519538613266565b3d915061346d565b50346107e55760803660031901126107e5576134ae613dd3565b506134b7613de9565b506064356001600160401b038111610921576134d7903690600401613e7b565b50600a546001600160a01b0316300361091257604051630a85bd0160e11b8152602090f35b50346107e55760203660031901126107e557602090600435815260048252604060018060a01b0391205416604051908152f35b50346107e55760203660031901126107e5576004358082526018602052604082209060048201544211156138bb57600782015490600883015480831115613884576009840190815460ff811661384e5761360e6001926135e76040976135bf888a5161359b8c82613d5b565b601281527128bab2bab2b4b73390383937b837b9b0b61d60711b6020820152614692565b88516135cb8a82613d5b565b600a8152692cb2b9903b37ba32b99d60b11b6020820152614692565b86516135f38882613d5b565b60098152682737903b37ba32b99d60b91b6020820152614692565b60ff191617905581516020808201928352815261362b8382613d5b565b5190208383548351613661816136536001890163ffffffff60e01b868a1b16602084016141d3565b03601f198101835282613d5b565b61369f85516136708782613d5b565b601e81527f5363686564756c696e67207468726f7567682074696d656c6f636b2e2e2e000060208201526146ed565b600a54855163793d064960e11b8152946001600160a01b039091169190602086600481865afa958615613844578596613810575b50823b156107df57865162ea831560e11b81526001600160a01b0390941660048501526024840185905260c06044850152929485938492869284929161371d9060c4850190613d92565b91846064850152608484015260a483015203925af18015612671576137fc575b50600a54815163793d064960e11b815290602090829060049082906001600160a01b03165afa9081156126715784916137c6575b50906137c39261378360059342614266565b928391015561379481519182613d5b565b601b81527f5363686564756c656420666f7220657865637574696f6e2061743a00000000006020820152614692565b80f35b9190506020823d6020116137f4575b816137e260209383613d5b565b810103126107c75790516137c3613771565b3d91506137d5565b8361380991949294613d5b565b913861373d565b9095506020813d60201161383c575b8161382c60209383613d5b565b810103126107df575194386136d3565b3d915061381f565b87513d87823e3d90fd5b60405162461bcd60e51b815260206004820152600e60248201526d105b1c9958591e481c5d595d595960921b6044820152606490fd5b60405162461bcd60e51b815260206004820152600f60248201526e141c9bdc1bdcd85b0819985a5b1959608a1b6044820152606490fd5b60405162461bcd60e51b815260206004820152601060248201526f159bdd1a5b99c81b9bdd08195b99195960821b6044820152606490fd5b50346107e55760403660031901126107e55761390d613dd3565b600c5460243591906001600160a01b031633036139cc576001600160a01b03168083526010602052604083208054919291828103919085841280158285131691841216176139b857558183526010602052604083205490600160ff1b81146139a4577ff3bf67aaa88988c347d216d35468e2afca6fc65ceb5bf94cd86358c62e25d04a91604091825191825285036020820152a280f35b634e487b7160e01b84526011600452602484fd5b634e487b7160e01b85526011600452602485fd5b60405162461bcd60e51b815260206004820152601060248201526f27b7363c902b37ba34b733aa37b5b2b760811b6044820152606490fd5b50346107e557806003193601126107e557604051908060035490613a2782613d21565b8085529160018116908115613ac05750600114613a63575b610af384613a4f81860382613d5b565b604051918291602083526020830190613d92565b600381527fc2575a0e9e593c00f959f8c92f12db2869c3395a3b0502d05e2516446f71f85b939250905b808210613aa657509091508101602001613a4f82613a3f565b919260018160209254838588010152019101909291613a8d565b60ff191660208087019190915292151560051b85019092019250613a4f9150839050613a3f565b50346107e55760203660031901126107e55760406020916004358152601b83522054604051908152f35b50346107e557806003193601126107e557602063ffffffff60085460301c16604051908152f35b50346107e55760203660031901126107e55760043563ffffffff60e01b8116809103610921576020906366defe7760e11b8114908115613bae575b8115613b9d575b8115613b8c575b506040519015158152f35b6301ffc9a760e01b14905082613b81565b630271189760e51b81149150613b7a565b6332a2ad4360e11b81149150613b73565b82346107e55760203660031901126107e557600435815260186020526040812080549183600183019180835493613bf585613d21565b8085529460018116908115613cfd5750600114613cbb575b5050613c1b92500384613d5b565b6002810154906003810154906004810154600582015460ff6006840154169060078401549260ff600960088701549601541695613c876040519a8b9a60018060a01b0381168c5263ffffffff60e01b9060401b1660208c015261016060408c01526101608b0190613d92565b9760608a0152608089015260a088015260c0870152151560e086015261010085015261012084015215156101408301520390f35b90809394925052602082205b818310613ce1575050906020613c1b928201018680613c0d565b6020919350806001915483858a01015201910190918592613cc7565b91505060209250613c1b94915060ff191682840152151560051b8201018680613c0d565b90600182811c92168015613d51575b6020831014613d3b57565b634e487b7160e01b600052602260045260246000fd5b91607f1691613d30565b90601f801991011681019081106001600160401b03821117613d7c57604052565b634e487b7160e01b600052604160045260246000fd5b919082519283825260005b848110613dbe575050826000602080949584010152601f8019910116010190565b80602080928401015182828601015201613d9d565b600435906001600160a01b03821682036107c757565b602435906001600160a01b03821682036107c757565b604435906001600160a01b03821682036107c757565b35906001600160a01b03821682036107c757565b6001600160401b038111613d7c57601f01601f191660200190565b929192613e5082613e29565b91613e5e6040519384613d5b565b8294818452818301116107c7578281602093846000960137010152565b9080601f830112156107c757816020613e9693359101613e44565b90565b6001600160401b038111613d7c5760051b60200190565b9080601f830112156107c7578135613ec781613e99565b92613ed56040519485613d5b565b81845260208085019260051b8201019283116107c757602001905b828210613efd5750505090565b60208091613f0a84613e15565b815201910190613ef0565b9080601f830112156107c7578135613f2c81613e99565b92613f3a6040519485613d5b565b81845260208085019260051b8201019283116107c757602001905b828210613f625750505090565b8135815260209182019101613f55565b9080601f830112156107c7578135613f8981613e99565b92613f976040519485613d5b565b81845260208085019260051b820101918383116107c75760208201905b838210613fc357505050505090565b81356001600160401b0381116107c757602091613fe587848094880101613e7b565b815201910190613fb4565b60806003198201126107c7576004356001600160401b0381116107c7578161401a91600401613eb0565b916024356001600160401b0381116107c7578261403991600401613f15565b91604435906001600160401b0382116107c75761405891600401613f72565b9060643590565b6024359081151582036107c757565b600881101561407c57602452565b634e487b7160e01b600052602160045260246000fd5b601a548110156140ad57601a60005260206000200190600090565b634e487b7160e01b600052603260045260246000fd5b6024359060ff821682036107c757565b9181601f840112156107c7578235916001600160401b0383116107c757602083818601950101116107c757565b906020808351928381520192019060005b81811061411e5750505090565b8251845260209384019390920191600101614111565b346107c75760206108a261414736613ff0565b92919091614593565b6000929181549161416083613d21565b80835292600181169081156141b6575060011461417c57505050565b60009081526020812093945091925b83831061419c575060209250010190565b60018160209294939454838587010152019101919061418b565b915050602093945060ff929192191683830152151560051b010190565b919063ffffffff60e01b1682526000918154916141ef83613d21565b9260018116908115614246575060011461420a575b50505090565b9091925060005260206000206000905b83821061422f57505001600401388080614204565b60018160209254600485870101520191019061421a565b9150506004935060ff929192191683830152801515020101388080614204565b9190820180921161427357565b634e487b7160e01b600052601160045260246000fd5b9392916142b59060809260018060a01b031686526000602087015260a0604087015260a0860190613d92565b93600060608201520152565b908160209103126107c7575180151581036107c75790565b8051156140ad5760200190565b80518210156140ad5760209160051b010190565b1561430157565b60405162461bcd60e51b815260206004820152602160248201527f4f6e6c792044414f207669612070726f706f73616c206f722074696d656c6f636044820152606b60f81b6064820152608490fd5b601a549060005b82811061436657505050600090565b61436f81614092565b905460039190911b1c6001600160a01b039081169083161461439357600101614357565b505050600190565b8181029291811591840414171561427357565b8181106143b9575050565b600081556001016143ae565b519069ffffffffffffffffffff821682036107c757565b908160a09103126107c7576143f0816143c5565b91602082015191604081015191613e966080606084015193016143c5565b8115614418570490565b634e487b7160e01b600052601260045260246000fd5b6003111561407c57565b60001981146142735760010190565b600c546040516370a0823160e01b81526001600160a01b0392831660048201529160209183916024918391165afa80156144c15760009061448d575b613e969150614c2c565b506020813d6020116144b9575b816144a760209383613d5b565b810103126107c757613e969051614483565b3d915061449a565b6040513d6000823e3d90fd5b3d156144f8573d906144de82613e29565b916144ec6040519384613d5b565b82523d6000602084013e565b606090565b906020808351928381520192019060005b81811061451b5750505090565b82516001600160a01b031684526020938401939092019160010161450e565b9080602083519182815201916020808360051b8301019401926000915b83831061456657505050505090565b9091929394602080614584600193601f198682030187528951613d92565b97019301930191939290614557565b92906145f4916145e06145ce946040519586946145bc602087019960808b5260a08801906144fd565b868103601f1901604088015290614100565b848103601f190160608601529061453a565b90608083015203601f198101835282613d5b565b51902090565b60ff600e541661468c57600c54604051631d5e528f60e21b815290602090829060049082906001600160a01b03165afa9081156144c15760009161465a575b5060001981019081116142735761465661271091600d549061439b565b0490565b906020823d602011614684575b8161467460209383613d5b565b810103126107e557505138614639565b3d9150614667565b600f5490565b6146c26146d6600093928493604051938492632d839cb360e21b6020850152604060248501526064840190613d92565b90604483015203601f198101835282613d5b565b6020815191016a636f6e736f6c652e6c6f675afa50565b60006136536146d6829360405192839163104c13eb60e21b6020840152602060248401526044830190613d92565b90614725826148a1565b91600883101561407c5781600160ff85161b161561474257505090565b6331b75e4d60e01b6000526004526147598261406e565b60445260646000fd5b6147926146d660009392849360405193849263319af33360e01b6020850152604060248501526064840190613d92565b6001600160a01b0391909116604483015203601f198101835282613d5b565b600a546001600160a01b031633810361488c5730036147cc57565b6147d536613e29565b6147e26040519182613d5b565b368152602081019036600083376000602036830101525190205b6005546001600160801b0381169060801c811461487957806001600160801b03600161483c85946001600160801b03166000526006602052604060002090565b5492600061485d826001600160801b03166000526006602052604060002090565b5501166001600160801b03196005541617600555036147fc5750565b634e487b7160005260316020526024601cfd5b6347096e4760e01b6000523360045260246000fd5b6148aa81614de3565b600881101561407c57600581036149885750600052600b60205260406000205460018060a01b03600a541690604051632c258a9f60e11b8152816004820152602081602481865afa9081156144c157600091614969575b501561490e575050600590565b602090602460405180948193632ab0f52960e01b835260048301525afa9081156144c15760009161494a575b501561494557600790565b600290565b614963915060203d602011613085576130778183613d5b565b3861493a565b614982915060203d602011613085576130778183613d5b565b38614901565b905090565b604290614998614f03565b906040519161190160f01b8352600283015260228201522090565b9190823b6149ee57906149c591615019565b50600481101561407c571591826149db57505090565b6001600160a01b03918216911614919050565b91600092613653614a2585946040519283916020830195630b135d3f60e11b87526024840152604060448401526064830190613d92565b51915afa614a316144cd565b81614a62575b81614a40575090565b80516020808301935090820191909103126107c75751630b135d3f60e11b1490565b905060208151101590614a37565b9390929193600291614a82838361471b565b50816000526004602052614a9585614c73565b958260005260096020526040600020906003820160018060a01b0388166000528060205260ff60406000205416614c0d576001600160a01b038816600090815260209190915260409020805460ff1916600117905560ff169384614bc95750614aff878254614266565b90555b8051614b625750614b5c7fb8e138887d0aa13bab447e82de9d5c1777041ecd21ca36ba824ff1e6c07ddda49394604051938493845260208401528660408401526080606084015260018060a01b0316946080830190613d92565b0390a290565b93614b5c90614bb07fe2babfbac5889a709b63bb7f598b324e08bc5a4fb9ec647fb3cbc9ec07eb8712956040519586958652602086015288604086015260a0606086015260a0850190613d92565b83810360808501526001600160a01b0390911695613d92565b9060018503614be9576001915001614be2878254614266565b9055614b02565b848203614bfc5701614be2878254614266565b6303599be160e11b60005260046000fd5b6371c6af4960e01b60009081526001600160a01b038916600452602490fd5b908115614c6d57600182018083116142735760011c825b838210614c4e575050565b909250614c6483614c5f818461440e565b614266565b60011c90614c43565b60009150565b600c546040516370a0823160e01b81526001600160a01b039283166004820181905292909160209183916024918391165afa80156144c157600090614d00575b614cbd915061513d565b9060005260106020526040600020546009198112600014614cdf575060011c90565b60141215613e96576003810290808204600314901517156142735760011c90565b506020813d602011614d2c575b81614d1a60209383613d5b565b810103126107c757614cbd9051614cb3565b3d9150614d0d565b80600052600460205265ffffffffffff60406000205460a01c1690600052600460205263ffffffff60406000205460d01c160165ffffffffffff81116142735765ffffffffffff1690565b909190614da75750805115614d9657805190602001fd5b63d6bda27560e01b60005260046000fd5b565b949392614dd5608093614dc76142b59460a08a5260a08a01906144fd565b9088820360208a0152614100565b90868203604088015261453a565b80600052600460205260406000205460ff8160f01c16614efc5760f81c614ef65780600052600460205265ffffffffffff60406000205460a01c168015614ee15765ffffffffffff421680911015614eda57614e3e82614d34565b10614e495750600190565b8060005260096020526040600020816000526004602052614e7c614e6b6145fa565b916002600182015491015490614266565b108015614ebd575b15614e8f5750600390565b614eaf90600052600460205265ffffffffffff6001604060002001541690565b614eb857600490565b600590565b508060005260096020526040600020600181015490541015614e84565b5050600090565b50636ad0607560e01b60005260045260246000fd5b50600290565b5050600790565b307f00000000000000000000000000000000000000000000000000000000000000006001600160a01b03161480614ff0575b15614f5e577f000000000000000000000000000000000000000000000000000000000000000090565b60405160208101907f8b73c3c69bb8fe3d512ecc4cf759cc79239f7b179b0ffacaa9a75d522b39400f82527f000000000000000000000000000000000000000000000000000000000000000060408201527f000000000000000000000000000000000000000000000000000000000000000060608201524660808201523060a082015260a081526145f460c082613d5b565b507f00000000000000000000000000000000000000000000000000000000000000004614614f35565b815191906041830361504a5761504392506020820151906060604084015193015160001a90615290565b9192909190565b505060009160029190565b908051603481106143935760131981830101516001600160b01b03191669dc8f8d908f908c9a8dc360b01b016143935761509491602919820190615319565b90159182156149db57505090565b60ff81146150ec5760ff811690601f82116150db5760408051926150c68285613d5b565b6020808552840191601f190136833783525290565b632cd44ac360e21b60005260046000fd5b50604051613e96816150ff816000614150565b0382613d5b565b60ff811461512a5760ff811690601f82116150db5760408051926150c68285613d5b565b50604051613e96816150ff816001614150565b6001811115613e9657806001600160801b82101561524e575b600482600160401b615200941015615241575b640100000000811015615234575b62010000811015615227575b61010081101561521b575b601081101561520f575b1015615207575b60030260011c6151af818461440e565b0160011c6151bd818461440e565b0160011c6151cb818461440e565b0160011c6151d9818461440e565b0160011c6151e7818461440e565b0160011c6151f5818461440e565b0160011c809261440e565b8111900390565b60011b61519f565b811c9160021b91615198565b60081c91811b9161518e565b60101c9160081b91615183565b60201c9160101b91615177565b60401c9160201b91615169565b5050608081901c600160401b615156565b65ffffffffffff81116152775765ffffffffffff1690565b6306dfcc6560e41b600052603060045260245260446000fd5b91907f7fffffffffffffffffffffffffffffff5d576e7357a4501ddfe92f46681b20a0841161530d579160209360809260ff60009560405194855216868401526040830152606082015282805260015afa156144c1576000516001600160a01b038116156153015790600090600090565b50600090600190600090565b50505060009160039190565b91908251821180156153ad575b61538457600181018082116142735782118061538f575b158015908160011b9182046002141715614273576028018060281161427357818303838111614273570361538457615374926153b6565b90916001600160a01b0390911690565b505050600090600090565b50828101602001516001600160f01b03191661060f60f31b1461533d565b50818111615326565b9290926001840180851161427357831180615452575b158015908160011b9182046002141715614273576153f09060009492939495614266565b915b8183106154025750505060019190565b9092919360ff61541c8160f81b6020888601015116615470565b16600f8111615446578160041b9180830460101490151715614273576001910194019192906153f2565b50600094508493505050565b50808401602001516001600160f01b03191661060f60f31b146153cc565b60f81c602f8111806154d8575b1561548c57602f190160ff1690565b60608111806154ce575b156154a5576056190160ff1690565b60408111806154c4575b156154be576036190160ff1690565b5060ff90565b50604781106154af565b5060678110615496565b50603a811061547d56fea264697066735822122096a65df5cecf2d84f375451a878e1be84f02815c147fbd910a3058a52a28bf0b64736f6c634300081c0033",
  "linkReferences": {},
  "deployedLinkReferences": {}
}