{
  "_format": "hh-sol-artifact-1",
  "contractName": "ProtocolGovernor",
  "sourceName": "contracts/ProtocolGovernor.sol",
  "abi": [
    {
      "inputs": [
        {
          "internalType": "address",
          "name": "_votingToken",
          "type": "address"
        },
        {
          "internalType": "contract TimelockController",
          "name": "_timelock",
          "type": "address"
        }
      ],
      "stateMutability": "nonpayable",
      "type": "constructor"
    },
    {
      "inputs": [],
      "name": "Empty",
      "type": "error"
    },
    {
      "inputs": [],
      "name": "InvalidShortString",
      "type": "error"
    },
    {
      "inputs": [
        {
          "internalType": "string",
          "name": "str",
          "type": "string"
        }
      ],
      "name": "StringTooLong",
      "type": "error"
    },
    {
      "anonymous": false,
      "inputs": [
        {
          "indexed": true,
          "internalType": "uint256",
          "name": "proposalId",
          "type": "uint256"
        },
        {
          "indexed": true,
          "internalType": "address",
          "name": "proposer",
          "type": "address"
        },
        {
          "indexed": false,
          "internalType": "address",
          "name": "targetContract",
          "type": "address"
        },
        {
          "indexed": false,
          "internalType": "bytes4",
          "name": "functionSelector",
          "type": "bytes4"
        },
        {
          "indexed": false,
          "internalType": "bytes",
          "name": "encodedParams",
          "type": "bytes"
        },
        {
          "indexed": false,
          "internalType": "uint256",
          "name": "minVotesNeeded",
          "type": "uint256"
        },
        {
          "indexed": false,
          "internalType": "uint256",
          "name": "startTime",
          "type": "uint256"
        },
        {
          "indexed": false,
          "internalType": "uint256",
          "name": "endTime",
          "type": "uint256"
        },
        {
          "indexed": false,
          "internalType": "uint256",
          "name": "executeAfter",
          "type": "uint256"
        }
      ],
      "name": "AdvancedProposalCreated",
      "type": "event"
    },
    {
      "anonymous": false,
      "inputs": [
        {
          "indexed": true,
          "internalType": "uint256",
          "name": "proposalId",
          "type": "uint256"
        }
      ],
      "name": "AdvancedProposalExecuted",
      "type": "event"
    },
    {
      "anonymous": false,
      "inputs": [
        {
          "indexed": true,
          "internalType": "uint256",
          "name": "proposalId",
          "type": "uint256"
        },
        {
          "indexed": true,
          "internalType": "address",
          "name": "vetoer",
          "type": "address"
        },
        {
          "indexed": false,
          "internalType": "uint256",
          "name": "vetoCount",
          "type": "uint256"
        }
      ],
      "name": "AdvancedProposalVetoed",
      "type": "event"
    },
    {
      "anonymous": false,
      "inputs": [
        {
          "indexed": true,
          "internalType": "uint256",
          "name": "proposalId",
          "type": "uint256"
        },
        {
          "indexed": true,
          "internalType": "address",
          "name": "voter",
          "type": "address"
        },
        {
          "indexed": false,
          "internalType": "bool",
          "name": "support",
          "type": "bool"
        },
        {
          "indexed": false,
          "internalType": "uint256",
          "name": "votes",
          "type": "uint256"
        }
      ],
      "name": "AdvancedVoteCast",
      "type": "event"
    },
    {
      "anonymous": false,
      "inputs": [
        {
          "indexed": true,
          "internalType": "address",
          "name": "contractAddr",
          "type": "address"
        },
        {
          "indexed": false,
          "internalType": "bool",
          "name": "allowed",
          "type": "bool"
        }
      ],
      "name": "AllowedContractSet",
      "type": "event"
    },
    {
      "anonymous": false,
      "inputs": [],
      "name": "BootstrapModeDisabled",
      "type": "event"
    },
    {
      "anonymous": false,
      "inputs": [
        {
          "indexed": true,
          "internalType": "address",
          "name": "contractAddr",
          "type": "address"
        },
        {
          "indexed": false,
          "internalType": "bool",
          "name": "allowed",
          "type": "bool"
        }
      ],
      "name": "ContractWhitelisted",
      "type": "event"
    },
    {
      "anonymous": false,
      "inputs": [],
      "name": "EIP712DomainChanged",
      "type": "event"
    },
    {
      "anonymous": false,
      "inputs": [
        {
          "indexed": false,
          "internalType": "address[]",
          "name": "signers",
          "type": "address[]"
        }
      ],
      "name": "EmergencyMultisigSet",
      "type": "event"
    },
    {
      "anonymous": false,
      "inputs": [
        {
          "indexed": true,
          "internalType": "address",
          "name": "asset",
          "type": "address"
        },
        {
          "indexed": true,
          "internalType": "address",
          "name": "feed",
          "type": "address"
        }
      ],
      "name": "FallbackPriceFeedSet",
      "type": "event"
    },
    {
      "anonymous": false,
      "inputs": [
        {
          "indexed": false,
          "internalType": "uint256",
          "name": "lend",
          "type": "uint256"
        },
        {
          "indexed": false,
          "internalType": "uint256",
          "name": "borrow",
          "type": "uint256"
        },
        {
          "indexed": false,
          "internalType": "uint256",
          "name": "repay",
          "type": "uint256"
        }
      ],
      "name": "MultipliersUpdated",
      "type": "event"
    },
    {
      "anonymous": false,
      "inputs": [
        {
          "indexed": true,
          "internalType": "address",
          "name": "asset",
          "type": "address"
        },
        {
          "indexed": true,
          "internalType": "address",
          "name": "feed",
          "type": "address"
        }
      ],
      "name": "PriceFeedSet",
      "type": "event"
    },
    {
      "anonymous": false,
      "inputs": [
        {
          "indexed": false,
          "internalType": "uint256",
          "name": "proposalId",
          "type": "uint256"
        }
      ],
      "name": "ProposalCanceled",
      "type": "event"
    },
    {
      "anonymous": false,
      "inputs": [
        {
          "indexed": false,
          "internalType": "uint256",
          "name": "proposalId",
          "type": "uint256"
        },
        {
          "indexed": false,
          "internalType": "address",
          "name": "proposer",
          "type": "address"
        },
        {
          "indexed": false,
          "internalType": "address[]",
          "name": "targets",
          "type": "address[]"
        },
        {
          "indexed": false,
          "internalType": "uint256[]",
          "name": "values",
          "type": "uint256[]"
        },
        {
          "indexed": false,
          "internalType": "string[]",
          "name": "signatures",
          "type": "string[]"
        },
        {
          "indexed": false,
          "internalType": "bytes[]",
          "name": "calldatas",
          "type": "bytes[]"
        },
        {
          "indexed": false,
          "internalType": "uint256",
          "name": "voteStart",
          "type": "uint256"
        },
        {
          "indexed": false,
          "internalType": "uint256",
          "name": "voteEnd",
          "type": "uint256"
        },
        {
          "indexed": false,
          "internalType": "string",
          "name": "description",
          "type": "string"
        }
      ],
      "name": "ProposalCreated",
      "type": "event"
    },
    {
      "anonymous": false,
      "inputs": [
        {
          "indexed": false,
          "internalType": "uint256",
          "name": "proposalId",
          "type": "uint256"
        }
      ],
      "name": "ProposalExecuted",
      "type": "event"
    },
    {
      "anonymous": false,
      "inputs": [
        {
          "indexed": false,
          "internalType": "uint256",
          "name": "proposalId",
          "type": "uint256"
        },
        {
          "indexed": false,
          "internalType": "uint256",
          "name": "eta",
          "type": "uint256"
        }
      ],
      "name": "ProposalQueued",
      "type": "event"
    },
    {
      "anonymous": false,
      "inputs": [
        {
          "indexed": false,
          "internalType": "uint256",
          "name": "oldProposalThreshold",
          "type": "uint256"
        },
        {
          "indexed": false,
          "internalType": "uint256",
          "name": "newProposalThreshold",
          "type": "uint256"
        }
      ],
      "name": "ProposalThresholdSet",
      "type": "event"
    },
    {
      "anonymous": false,
      "inputs": [
        {
          "indexed": false,
          "internalType": "uint256",
          "name": "newBasisPoints",
          "type": "uint256"
        }
      ],
      "name": "QuorumPercentageChanged",
      "type": "event"
    },
    {
      "anonymous": false,
      "inputs": [
        {
          "indexed": true,
          "internalType": "address",
          "name": "user",
          "type": "address"
        },
        {
          "indexed": false,
          "internalType": "int256",
          "name": "newReputation",
          "type": "int256"
        },
        {
          "indexed": false,
          "internalType": "int256",
          "name": "delta",
          "type": "int256"
        }
      ],
      "name": "ReputationChanged",
      "type": "event"
    },
    {
      "anonymous": false,
      "inputs": [
        {
          "indexed": false,
          "internalType": "uint256",
          "name": "newBasisPoints",
          "type": "uint256"
        },
        {
          "indexed": false,
          "internalType": "address",
          "name": "sender",
          "type": "address"
        }
      ],
      "name": "SetQuorumAttempt",
      "type": "event"
    },
    {
      "anonymous": false,
      "inputs": [
        {
          "indexed": false,
          "internalType": "address",
          "name": "oldTimelock",
          "type": "address"
        },
        {
          "indexed": false,
          "internalType": "address",
          "name": "newTimelock",
          "type": "address"
        }
      ],
      "name": "TimelockChange",
      "type": "event"
    },
    {
      "anonymous": false,
      "inputs": [
        {
          "indexed": true,
          "internalType": "address",
          "name": "user",
          "type": "address"
        },
        {
          "indexed": false,
          "internalType": "uint256",
          "name": "tokens",
          "type": "uint256"
        },
        {
          "indexed": false,
          "internalType": "enum ProtocolGovernor.ActionType",
          "name": "action",
          "type": "uint8"
        },
        {
          "indexed": false,
          "internalType": "address",
          "name": "asset",
          "type": "address"
        },
        {
          "indexed": false,
          "internalType": "uint256",
          "name": "amount",
          "type": "uint256"
        },
        {
          "indexed": false,
          "internalType": "uint256",
          "name": "usdValue",
          "type": "uint256"
        }
      ],
      "name": "TokensGranted",
      "type": "event"
    },
    {
      "anonymous": false,
      "inputs": [
        {
          "indexed": true,
          "internalType": "address",
          "name": "voter",
          "type": "address"
        },
        {
          "indexed": false,
          "internalType": "uint256",
          "name": "proposalId",
          "type": "uint256"
        },
        {
          "indexed": false,
          "internalType": "uint8",
          "name": "support",
          "type": "uint8"
        },
        {
          "indexed": false,
          "internalType": "uint256",
          "name": "weight",
          "type": "uint256"
        },
        {
          "indexed": false,
          "internalType": "string",
          "name": "reason",
          "type": "string"
        }
      ],
      "name": "VoteCast",
      "type": "event"
    },
    {
      "anonymous": false,
      "inputs": [
        {
          "indexed": true,
          "internalType": "address",
          "name": "voter",
          "type": "address"
        },
        {
          "indexed": false,
          "internalType": "uint256",
          "name": "proposalId",
          "type": "uint256"
        },
        {
          "indexed": false,
          "internalType": "uint8",
          "name": "support",
          "type": "uint8"
        },
        {
          "indexed": false,
          "internalType": "uint256",
          "name": "weight",
          "type": "uint256"
        },
        {
          "indexed": false,
          "internalType": "string",
          "name": "reason",
          "type": "string"
        },
        {
          "indexed": false,
          "internalType": "bytes",
          "name": "params",
          "type": "bytes"
        }
      ],
      "name": "VoteCastWithParams",
      "type": "event"
    },
    {
      "anonymous": false,
      "inputs": [
        {
          "indexed": false,
          "internalType": "uint256",
          "name": "oldVotingDelay",
          "type": "uint256"
        },
        {
          "indexed": false,
          "internalType": "uint256",
          "name": "newVotingDelay",
          "type": "uint256"
        }
      ],
      "name": "VotingDelaySet",
      "type": "event"
    },
    {
      "anonymous": false,
      "inputs": [
        {
          "indexed": false,
          "internalType": "uint256",
          "name": "oldVotingPeriod",
          "type": "uint256"
        },
        {
          "indexed": false,
          "internalType": "uint256",
          "name": "newVotingPeriod",
          "type": "uint256"
        }
      ],
      "name": "VotingPeriodSet",
      "type": "event"
    },
    {
      "inputs": [],
      "name": "APPROVAL_THRESHOLD",
      "outputs": [
        {
          "internalType": "uint256",
          "name": "",
          "type": "uint256"
        }
      ],
      "stateMutability": "view",
      "type": "function"
    },
    {
      "inputs": [],
      "name": "BALLOT_TYPEHASH",
      "outputs": [
        {
          "internalType": "bytes32",
          "name": "",
          "type": "bytes32"
        }
      ],
      "stateMutability": "view",
      "type": "function"
    },
    {
      "inputs": [],
      "name": "CLOCK_MODE",
      "outputs": [
        {
          "internalType": "string",
          "name": "",
          "type": "string"
        }
      ],
      "stateMutability": "view",
      "type": "function"
    },
    {
      "inputs": [],
      "name": "COUNTING_MODE",
      "outputs": [
        {
          "internalType": "string",
          "name": "",
          "type": "string"
        }
      ],
      "stateMutability": "pure",
      "type": "function"
    },
    {
      "inputs": [],
      "name": "EXECUTION_DELAY",
      "outputs": [
        {
          "internalType": "uint256",
          "name": "",
          "type": "uint256"
        }
      ],
      "stateMutability": "view",
      "type": "function"
    },
    {
      "inputs": [],
      "name": "EXTENDED_BALLOT_TYPEHASH",
      "outputs": [
        {
          "internalType": "bytes32",
          "name": "",
          "type": "bytes32"
        }
      ],
      "stateMutability": "view",
      "type": "function"
    },
    {
      "inputs": [],
      "name": "QUORUM",
      "outputs": [
        {
          "internalType": "uint256",
          "name": "",
          "type": "uint256"
        }
      ],
      "stateMutability": "view",
      "type": "function"
    },
    {
      "inputs": [],
      "name": "VOTING_PERIOD",
      "outputs": [
        {
          "internalType": "uint256",
          "name": "",
          "type": "uint256"
        }
      ],
      "stateMutability": "view",
      "type": "function"
    },
    {
      "inputs": [
        {
          "internalType": "address",
          "name": "",
          "type": "address"
        }
      ],
      "name": "allowedContracts",
      "outputs": [
        {
          "internalType": "bool",
          "name": "",
          "type": "bool"
        }
      ],
      "stateMutability": "view",
      "type": "function"
    },
    {
      "inputs": [],
      "name": "bootstrapMode",
      "outputs": [
        {
          "internalType": "bool",
          "name": "",
          "type": "bool"
        }
      ],
      "stateMutability": "view",
      "type": "function"
    },
    {
      "inputs": [],
      "name": "bootstrapQuorum",
      "outputs": [
        {
          "internalType": "uint256",
          "name": "",
          "type": "uint256"
        }
      ],
      "stateMutability": "view",
      "type": "function"
    },
    {
      "inputs": [],
      "name": "borrowMultiplier",
      "outputs": [
        {
          "internalType": "uint256",
          "name": "",
          "type": "uint256"
        }
      ],
      "stateMutability": "view",
      "type": "function"
    },
    {
      "inputs": [
        {
          "internalType": "address[]",
          "name": "targets",
          "type": "address[]"
        },
        {
          "internalType": "uint256[]",
          "name": "values",
          "type": "uint256[]"
        },
        {
          "internalType": "bytes[]",
          "name": "calldatas",
          "type": "bytes[]"
        },
        {
          "internalType": "bytes32",
          "name": "descriptionHash",
          "type": "bytes32"
        }
      ],
      "name": "cancel",
      "outputs": [
        {
          "internalType": "uint256",
          "name": "",
          "type": "uint256"
        }
      ],
      "stateMutability": "nonpayable",
      "type": "function"
    },
    {
      "inputs": [
        {
          "internalType": "uint256",
          "name": "proposalId",
          "type": "uint256"
        },
        {
          "internalType": "uint8",
          "name": "support",
          "type": "uint8"
        }
      ],
      "name": "castVote",
      "outputs": [
        {
          "internalType": "uint256",
          "name": "",
          "type": "uint256"
        }
      ],
      "stateMutability": "nonpayable",
      "type": "function"
    },
    {
      "inputs": [
        {
          "internalType": "uint256",
          "name": "proposalId",
          "type": "uint256"
        },
        {
          "internalType": "uint8",
          "name": "support",
          "type": "uint8"
        },
        {
          "internalType": "uint8",
          "name": "v",
          "type": "uint8"
        },
        {
          "internalType": "bytes32",
          "name": "r",
          "type": "bytes32"
        },
        {
          "internalType": "bytes32",
          "name": "s",
          "type": "bytes32"
        }
      ],
      "name": "castVoteBySig",
      "outputs": [
        {
          "internalType": "uint256",
          "name": "",
          "type": "uint256"
        }
      ],
      "stateMutability": "nonpayable",
      "type": "function"
    },
    {
      "inputs": [
        {
          "internalType": "uint256",
          "name": "proposalId",
          "type": "uint256"
        },
        {
          "internalType": "uint8",
          "name": "support",
          "type": "uint8"
        },
        {
          "internalType": "string",
          "name": "reason",
          "type": "string"
        }
      ],
      "name": "castVoteWithReason",
      "outputs": [
        {
          "internalType": "uint256",
          "name": "",
          "type": "uint256"
        }
      ],
      "stateMutability": "nonpayable",
      "type": "function"
    },
    {
      "inputs": [
        {
          "internalType": "uint256",
          "name": "proposalId",
          "type": "uint256"
        },
        {
          "internalType": "uint8",
          "name": "support",
          "type": "uint8"
        },
        {
          "internalType": "string",
          "name": "reason",
          "type": "string"
        },
        {
          "internalType": "bytes",
          "name": "params",
          "type": "bytes"
        }
      ],
      "name": "castVoteWithReasonAndParams",
      "outputs": [
        {
          "internalType": "uint256",
          "name": "",
          "type": "uint256"
        }
      ],
      "stateMutability": "nonpayable",
      "type": "function"
    },
    {
      "inputs": [
        {
          "internalType": "uint256",
          "name": "proposalId",
          "type": "uint256"
        },
        {
          "internalType": "uint8",
          "name": "support",
          "type": "uint8"
        },
        {
          "internalType": "string",
          "name": "reason",
          "type": "string"
        },
        {
          "internalType": "bytes",
          "name": "params",
          "type": "bytes"
        },
        {
          "internalType": "uint8",
          "name": "v",
          "type": "uint8"
        },
        {
          "internalType": "bytes32",
          "name": "r",
          "type": "bytes32"
        },
        {
          "internalType": "bytes32",
          "name": "s",
          "type": "bytes32"
        }
      ],
      "name": "castVoteWithReasonAndParamsBySig",
      "outputs": [
        {
          "internalType": "uint256",
          "name": "",
          "type": "uint256"
        }
      ],
      "stateMutability": "nonpayable",
      "type": "function"
    },
    {
      "inputs": [],
      "name": "clock",
      "outputs": [
        {
          "internalType": "uint48",
          "name": "",
          "type": "uint48"
        }
      ],
      "stateMutability": "view",
      "type": "function"
    },
    {
      "inputs": [
        {
          "internalType": "address",
          "name": "",
          "type": "address"
        }
      ],
      "name": "contractWhitelist",
      "outputs": [
        {
          "internalType": "bool",
          "name": "",
          "type": "bool"
        }
      ],
      "stateMutability": "view",
      "type": "function"
    },
    {
      "inputs": [],
      "name": "disableBootstrapMode",
      "outputs": [],
      "stateMutability": "nonpayable",
      "type": "function"
    },
    {
      "inputs": [],
      "name": "eip712Domain",
      "outputs": [
        {
          "internalType": "bytes1",
          "name": "fields",
          "type": "bytes1"
        },
        {
          "internalType": "string",
          "name": "name",
          "type": "string"
        },
        {
          "internalType": "string",
          "name": "version",
          "type": "string"
        },
        {
          "internalType": "uint256",
          "name": "chainId",
          "type": "uint256"
        },
        {
          "internalType": "address",
          "name": "verifyingContract",
          "type": "address"
        },
        {
          "internalType": "bytes32",
          "name": "salt",
          "type": "bytes32"
        },
        {
          "internalType": "uint256[]",
          "name": "extensions",
          "type": "uint256[]"
        }
      ],
      "stateMutability": "view",
      "type": "function"
    },
    {
      "inputs": [
        {
          "internalType": "uint256",
          "name": "",
          "type": "uint256"
        }
      ],
      "name": "emergencyMultisig",
      "outputs": [
        {
          "internalType": "address",
          "name": "",
          "type": "address"
        }
      ],
      "stateMutability": "view",
      "type": "function"
    },
    {
      "inputs": [
        {
          "internalType": "address[]",
          "name": "targets",
          "type": "address[]"
        },
        {
          "internalType": "uint256[]",
          "name": "values",
          "type": "uint256[]"
        },
        {
          "internalType": "bytes[]",
          "name": "calldatas",
          "type": "bytes[]"
        },
        {
          "internalType": "bytes32",
          "name": "descriptionHash",
          "type": "bytes32"
        }
      ],
      "name": "execute",
      "outputs": [
        {
          "internalType": "uint256",
          "name": "",
          "type": "uint256"
        }
      ],
      "stateMutability": "payable",
      "type": "function"
    },
    {
      "inputs": [
        {
          "internalType": "uint256",
          "name": "proposalId",
          "type": "uint256"
        }
      ],
      "name": "executeAdvancedProposal",
      "outputs": [],
      "stateMutability": "nonpayable",
      "type": "function"
    },
    {
      "inputs": [
        {
          "internalType": "address",
          "name": "",
          "type": "address"
        }
      ],
      "name": "fallbackPriceFeeds",
      "outputs": [
        {
          "internalType": "address",
          "name": "",
          "type": "address"
        }
      ],
      "stateMutability": "view",
      "type": "function"
    },
    {
      "inputs": [
        {
          "internalType": "address",
          "name": "user",
          "type": "address"
        }
      ],
      "name": "getReputation",
      "outputs": [
        {
          "internalType": "int256",
          "name": "",
          "type": "int256"
        }
      ],
      "stateMutability": "view",
      "type": "function"
    },
    {
      "inputs": [
        {
          "internalType": "address",
          "name": "account",
          "type": "address"
        },
        {
          "internalType": "uint256",
          "name": "timepoint",
          "type": "uint256"
        }
      ],
      "name": "getVotes",
      "outputs": [
        {
          "internalType": "uint256",
          "name": "",
          "type": "uint256"
        }
      ],
      "stateMutability": "view",
      "type": "function"
    },
    {
      "inputs": [
        {
          "internalType": "address",
          "name": "account",
          "type": "address"
        },
        {
          "internalType": "uint256",
          "name": "timepoint",
          "type": "uint256"
        },
        {
          "internalType": "bytes",
          "name": "params",
          "type": "bytes"
        }
      ],
      "name": "getVotesWithParams",
      "outputs": [
        {
          "internalType": "uint256",
          "name": "",
          "type": "uint256"
        }
      ],
      "stateMutability": "view",
      "type": "function"
    },
    {
      "inputs": [
        {
          "internalType": "address",
          "name": "user",
          "type": "address"
        }
      ],
      "name": "getVotingPower",
      "outputs": [
        {
          "internalType": "uint256",
          "name": "",
          "type": "uint256"
        }
      ],
      "stateMutability": "view",
      "type": "function"
    },
    {
      "inputs": [
        {
          "internalType": "address",
          "name": "user",
          "type": "address"
        },
        {
          "internalType": "address",
          "name": "asset",
          "type": "address"
        },
        {
          "internalType": "uint256",
          "name": "amount",
          "type": "uint256"
        },
        {
          "internalType": "enum ProtocolGovernor.ActionType",
          "name": "action",
          "type": "uint8"
        }
      ],
      "name": "grantTokens",
      "outputs": [],
      "stateMutability": "nonpayable",
      "type": "function"
    },
    {
      "inputs": [
        {
          "internalType": "uint256",
          "name": "proposalId",
          "type": "uint256"
        },
        {
          "internalType": "address",
          "name": "account",
          "type": "address"
        }
      ],
      "name": "hasVoted",
      "outputs": [
        {
          "internalType": "bool",
          "name": "",
          "type": "bool"
        }
      ],
      "stateMutability": "view",
      "type": "function"
    },
    {
      "inputs": [
        {
          "internalType": "address[]",
          "name": "targets",
          "type": "address[]"
        },
        {
          "internalType": "uint256[]",
          "name": "values",
          "type": "uint256[]"
        },
        {
          "internalType": "bytes[]",
          "name": "calldatas",
          "type": "bytes[]"
        },
        {
          "internalType": "bytes32",
          "name": "descriptionHash",
          "type": "bytes32"
        }
      ],
      "name": "hashProposal",
      "outputs": [
        {
          "internalType": "uint256",
          "name": "",
          "type": "uint256"
        }
      ],
      "stateMutability": "pure",
      "type": "function"
    },
    {
      "inputs": [
        {
          "internalType": "address",
          "name": "signer",
          "type": "address"
        }
      ],
      "name": "isMultisig",
      "outputs": [
        {
          "internalType": "bool",
          "name": "",
          "type": "bool"
        }
      ],
      "stateMutability": "view",
      "type": "function"
    },
    {
      "inputs": [],
      "name": "lendMultiplier",
      "outputs": [
        {
          "internalType": "uint256",
          "name": "",
          "type": "uint256"
        }
      ],
      "stateMutability": "view",
      "type": "function"
    },
    {
      "inputs": [],
      "name": "name",
      "outputs": [
        {
          "internalType": "string",
          "name": "",
          "type": "string"
        }
      ],
      "stateMutability": "view",
      "type": "function"
    },
    {
      "inputs": [
        {
          "internalType": "address",
          "name": "",
          "type": "address"
        },
        {
          "internalType": "address",
          "name": "",
          "type": "address"
        },
        {
          "internalType": "uint256[]",
          "name": "",
          "type": "uint256[]"
        },
        {
          "internalType": "uint256[]",
          "name": "",
          "type": "uint256[]"
        },
        {
          "internalType": "bytes",
          "name": "",
          "type": "bytes"
        }
      ],
      "name": "onERC1155BatchReceived",
      "outputs": [
        {
          "internalType": "bytes4",
          "name": "",
          "type": "bytes4"
        }
      ],
      "stateMutability": "nonpayable",
      "type": "function"
    },
    {
      "inputs": [
        {
          "internalType": "address",
          "name": "",
          "type": "address"
        },
        {
          "internalType": "address",
          "name": "",
          "type": "address"
        },
        {
          "internalType": "uint256",
          "name": "",
          "type": "uint256"
        },
        {
          "internalType": "uint256",
          "name": "",
          "type": "uint256"
        },
        {
          "internalType": "bytes",
          "name": "",
          "type": "bytes"
        }
      ],
      "name": "onERC1155Received",
      "outputs": [
        {
          "internalType": "bytes4",
          "name": "",
          "type": "bytes4"
        }
      ],
      "stateMutability": "nonpayable",
      "type": "function"
    },
    {
      "inputs": [
        {
          "internalType": "address",
          "name": "",
          "type": "address"
        },
        {
          "internalType": "address",
          "name": "",
          "type": "address"
        },
        {
          "internalType": "uint256",
          "name": "",
          "type": "uint256"
        },
        {
          "internalType": "bytes",
          "name": "",
          "type": "bytes"
        }
      ],
      "name": "onERC721Received",
      "outputs": [
        {
          "internalType": "bytes4",
          "name": "",
          "type": "bytes4"
        }
      ],
      "stateMutability": "nonpayable",
      "type": "function"
    },
    {
      "inputs": [
        {
          "internalType": "address",
          "name": "user",
          "type": "address"
        },
        {
          "internalType": "int256",
          "name": "amount",
          "type": "int256"
        }
      ],
      "name": "penalizeReputation",
      "outputs": [],
      "stateMutability": "nonpayable",
      "type": "function"
    },
    {
      "inputs": [
        {
          "internalType": "address",
          "name": "",
          "type": "address"
        }
      ],
      "name": "priceFeeds",
      "outputs": [
        {
          "internalType": "address",
          "name": "",
          "type": "address"
        }
      ],
      "stateMutability": "view",
      "type": "function"
    },
    {
      "inputs": [],
      "name": "proposalCount",
      "outputs": [
        {
          "internalType": "uint256",
          "name": "",
          "type": "uint256"
        }
      ],
      "stateMutability": "view",
      "type": "function"
    },
    {
      "inputs": [
        {
          "internalType": "uint256",
          "name": "proposalId",
          "type": "uint256"
        }
      ],
      "name": "proposalDeadline",
      "outputs": [
        {
          "internalType": "uint256",
          "name": "",
          "type": "uint256"
        }
      ],
      "stateMutability": "view",
      "type": "function"
    },
    {
      "inputs": [
        {
          "internalType": "uint256",
          "name": "proposalId",
          "type": "uint256"
        }
      ],
      "name": "proposalEta",
      "outputs": [
        {
          "internalType": "uint256",
          "name": "",
          "type": "uint256"
        }
      ],
      "stateMutability": "view",
      "type": "function"
    },
    {
      "inputs": [
        {
          "internalType": "uint256",
          "name": "proposalId",
          "type": "uint256"
        }
      ],
      "name": "proposalProposer",
      "outputs": [
        {
          "internalType": "address",
          "name": "",
          "type": "address"
        }
      ],
      "stateMutability": "view",
      "type": "function"
    },
    {
      "inputs": [
        {
          "internalType": "uint256",
          "name": "proposalId",
          "type": "uint256"
        }
      ],
      "name": "proposalSnapshot",
      "outputs": [
        {
          "internalType": "uint256",
          "name": "",
          "type": "uint256"
        }
      ],
      "stateMutability": "view",
      "type": "function"
    },
    {
      "inputs": [],
      "name": "proposalThreshold",
      "outputs": [
        {
          "internalType": "uint256",
          "name": "",
          "type": "uint256"
        }
      ],
      "stateMutability": "view",
      "type": "function"
    },
    {
      "inputs": [
        {
          "internalType": "uint256",
          "name": "proposalId",
          "type": "uint256"
        }
      ],
      "name": "proposalVotes",
      "outputs": [
        {
          "internalType": "uint256",
          "name": "againstVotes",
          "type": "uint256"
        },
        {
          "internalType": "uint256",
          "name": "forVotes",
          "type": "uint256"
        },
        {
          "internalType": "uint256",
          "name": "abstainVotes",
          "type": "uint256"
        }
      ],
      "stateMutability": "view",
      "type": "function"
    },
    {
      "inputs": [
        {
          "internalType": "uint256",
          "name": "",
          "type": "uint256"
        }
      ],
      "name": "proposals",
      "outputs": [
        {
          "internalType": "address",
          "name": "targetContract",
          "type": "address"
        },
        {
          "internalType": "bytes4",
          "name": "functionSelector",
          "type": "bytes4"
        },
        {
          "internalType": "bytes",
          "name": "encodedParams",
          "type": "bytes"
        },
        {
          "internalType": "uint256",
          "name": "minVotesNeeded",
          "type": "uint256"
        },
        {
          "internalType": "uint256",
          "name": "startTime",
          "type": "uint256"
        },
        {
          "internalType": "uint256",
          "name": "endTime",
          "type": "uint256"
        },
        {
          "internalType": "uint256",
          "name": "executeAfter",
          "type": "uint256"
        },
        {
          "internalType": "bool",
          "name": "executed",
          "type": "bool"
        },
        {
          "internalType": "uint256",
          "name": "yesVotes",
          "type": "uint256"
        },
        {
          "internalType": "uint256",
          "name": "noVotes",
          "type": "uint256"
        },
        {
          "internalType": "bool",
          "name": "queued",
          "type": "bool"
        }
      ],
      "stateMutability": "view",
      "type": "function"
    },
    {
      "inputs": [
        {
          "internalType": "address[]",
          "name": "targets",
          "type": "address[]"
        },
        {
          "internalType": "uint256[]",
          "name": "values",
          "type": "uint256[]"
        },
        {
          "internalType": "bytes[]",
          "name": "calldatas",
          "type": "bytes[]"
        },
        {
          "internalType": "string",
          "name": "description",
          "type": "string"
        }
      ],
      "name": "propose",
      "outputs": [
        {
          "internalType": "uint256",
          "name": "",
          "type": "uint256"
        }
      ],
      "stateMutability": "nonpayable",
      "type": "function"
    },
    {
      "inputs": [
        {
          "internalType": "address",
          "name": "targetContract",
          "type": "address"
        },
        {
          "internalType": "bytes4",
          "name": "functionSelector",
          "type": "bytes4"
        },
        {
          "internalType": "bytes",
          "name": "encodedParams",
          "type": "bytes"
        },
        {
          "internalType": "uint256",
          "name": "minVotesNeeded",
          "type": "uint256"
        }
      ],
      "name": "proposeAdvanced",
      "outputs": [],
      "stateMutability": "nonpayable",
      "type": "function"
    },
    {
      "inputs": [
        {
          "internalType": "address[]",
          "name": "targets",
          "type": "address[]"
        },
        {
          "internalType": "uint256[]",
          "name": "values",
          "type": "uint256[]"
        },
        {
          "internalType": "bytes[]",
          "name": "calldatas",
          "type": "bytes[]"
        },
        {
          "internalType": "bytes32",
          "name": "descriptionHash",
          "type": "bytes32"
        }
      ],
      "name": "queue",
      "outputs": [
        {
          "internalType": "uint256",
          "name": "",
          "type": "uint256"
        }
      ],
      "stateMutability": "nonpayable",
      "type": "function"
    },
    {
      "inputs": [
        {
          "internalType": "uint256",
          "name": "proposalId",
          "type": "uint256"
        }
      ],
      "name": "queueAdvancedProposal",
      "outputs": [],
      "stateMutability": "nonpayable",
      "type": "function"
    },
    {
      "inputs": [
        {
          "internalType": "uint256",
          "name": "blockNumber",
          "type": "uint256"
        }
      ],
      "name": "quorum",
      "outputs": [
        {
          "internalType": "uint256",
          "name": "",
          "type": "uint256"
        }
      ],
      "stateMutability": "view",
      "type": "function"
    },
    {
      "inputs": [],
      "name": "quorumPercentage",
      "outputs": [
        {
          "internalType": "uint256",
          "name": "",
          "type": "uint256"
        }
      ],
      "stateMutability": "view",
      "type": "function"
    },
    {
      "inputs": [
        {
          "internalType": "address",
          "name": "target",
          "type": "address"
        },
        {
          "internalType": "uint256",
          "name": "value",
          "type": "uint256"
        },
        {
          "internalType": "bytes",
          "name": "data",
          "type": "bytes"
        }
      ],
      "name": "relay",
      "outputs": [],
      "stateMutability": "payable",
      "type": "function"
    },
    {
      "inputs": [],
      "name": "repayMultiplier",
      "outputs": [
        {
          "internalType": "uint256",
          "name": "",
          "type": "uint256"
        }
      ],
      "stateMutability": "view",
      "type": "function"
    },
    {
      "inputs": [
        {
          "internalType": "address",
          "name": "",
          "type": "address"
        }
      ],
      "name": "reputation",
      "outputs": [
        {
          "internalType": "int256",
          "name": "",
          "type": "int256"
        }
      ],
      "stateMutability": "view",
      "type": "function"
    },
    {
      "inputs": [
        {
          "internalType": "address",
          "name": "contractAddr",
          "type": "address"
        },
        {
          "internalType": "bool",
          "name": "allowed",
          "type": "bool"
        }
      ],
      "name": "setAllowedContract",
      "outputs": [],
      "stateMutability": "nonpayable",
      "type": "function"
    },
    {
      "inputs": [
        {
          "internalType": "address",
          "name": "contractAddr",
          "type": "address"
        },
        {
          "internalType": "bool",
          "name": "allowed",
          "type": "bool"
        }
      ],
      "name": "setContractWhitelist",
      "outputs": [],
      "stateMutability": "nonpayable",
      "type": "function"
    },
    {
      "inputs": [
        {
          "internalType": "address[]",
          "name": "signers",
          "type": "address[]"
        }
      ],
      "name": "setEmergencyMultisig",
      "outputs": [],
      "stateMutability": "nonpayable",
      "type": "function"
    },
    {
      "inputs": [
        {
          "internalType": "address",
          "name": "asset",
          "type": "address"
        },
        {
          "internalType": "address",
          "name": "feed",
          "type": "address"
        }
      ],
      "name": "setFallbackPriceFeed",
      "outputs": [],
      "stateMutability": "nonpayable",
      "type": "function"
    },
    {
      "inputs": [
        {
          "internalType": "uint256",
          "name": "lend",
          "type": "uint256"
        },
        {
          "internalType": "uint256",
          "name": "borrow",
          "type": "uint256"
        },
        {
          "internalType": "uint256",
          "name": "repay",
          "type": "uint256"
        }
      ],
      "name": "setMultipliers",
      "outputs": [],
      "stateMutability": "nonpayable",
      "type": "function"
    },
    {
      "inputs": [
        {
          "internalType": "address",
          "name": "asset",
          "type": "address"
        },
        {
          "internalType": "address",
          "name": "feed",
          "type": "address"
        }
      ],
      "name": "setPriceFeed",
      "outputs": [],
      "stateMutability": "nonpayable",
      "type": "function"
    },
    {
      "inputs": [
        {
          "internalType": "uint256",
          "name": "newProposalThreshold",
          "type": "uint256"
        }
      ],
      "name": "setProposalThreshold",
      "outputs": [],
      "stateMutability": "nonpayable",
      "type": "function"
    },
    {
      "inputs": [
        {
          "internalType": "uint256",
          "name": "newBasisPoints",
          "type": "uint256"
        }
      ],
      "name": "setQuorumPercentage",
      "outputs": [],
      "stateMutability": "nonpayable",
      "type": "function"
    },
    {
      "inputs": [
        {
          "internalType": "uint256",
          "name": "newVotingDelay",
          "type": "uint256"
        }
      ],
      "name": "setVotingDelay",
      "outputs": [],
      "stateMutability": "nonpayable",
      "type": "function"
    },
    {
      "inputs": [
        {
          "internalType": "uint256",
          "name": "newVotingPeriod",
          "type": "uint256"
        }
      ],
      "name": "setVotingPeriod",
      "outputs": [],
      "stateMutability": "nonpayable",
      "type": "function"
    },
    {
      "inputs": [
        {
          "internalType": "uint256",
          "name": "proposalId",
          "type": "uint256"
        }
      ],
      "name": "state",
      "outputs": [
        {
          "internalType": "enum IGovernor.ProposalState",
          "name": "",
          "type": "uint8"
        }
      ],
      "stateMutability": "view",
      "type": "function"
    },
    {
      "inputs": [
        {
          "internalType": "bytes4",
          "name": "interfaceId",
          "type": "bytes4"
        }
      ],
      "name": "supportsInterface",
      "outputs": [
        {
          "internalType": "bool",
          "name": "",
          "type": "bool"
        }
      ],
      "stateMutability": "view",
      "type": "function"
    },
    {
      "inputs": [],
      "name": "timelock",
      "outputs": [
        {
          "internalType": "address",
          "name": "",
          "type": "address"
        }
      ],
      "stateMutability": "view",
      "type": "function"
    },
    {
      "inputs": [
        {
          "internalType": "contract TimelockController",
          "name": "newTimelock",
          "type": "address"
        }
      ],
      "name": "updateTimelock",
      "outputs": [],
      "stateMutability": "nonpayable",
      "type": "function"
    },
    {
      "inputs": [],
      "name": "version",
      "outputs": [
        {
          "internalType": "string",
          "name": "",
          "type": "string"
        }
      ],
      "stateMutability": "view",
      "type": "function"
    },
    {
      "inputs": [
        {
          "internalType": "uint256",
          "name": "proposalId",
          "type": "uint256"
        }
      ],
      "name": "vetoAdvanced",
      "outputs": [],
      "stateMutability": "nonpayable",
      "type": "function"
    },
    {
      "inputs": [
        {
          "internalType": "uint256",
          "name": "",
          "type": "uint256"
        }
      ],
      "name": "vetoSignatures",
      "outputs": [
        {
          "internalType": "uint256",
          "name": "",
          "type": "uint256"
        }
      ],
      "stateMutability": "view",
      "type": "function"
    },
    {
      "inputs": [
        {
          "internalType": "uint256",
          "name": "proposalId",
          "type": "uint256"
        },
        {
          "internalType": "bool",
          "name": "support",
          "type": "bool"
        }
      ],
      "name": "voteAdvanced",
      "outputs": [],
      "stateMutability": "nonpayable",
      "type": "function"
    },
    {
      "inputs": [],
      "name": "votingDelay",
      "outputs": [
        {
          "internalType": "uint256",
          "name": "",
          "type": "uint256"
        }
      ],
      "stateMutability": "view",
      "type": "function"
    },
    {
      "inputs": [],
      "name": "votingPeriod",
      "outputs": [
        {
          "internalType": "uint256",
          "name": "",
          "type": "uint256"
        }
      ],
      "stateMutability": "view",
      "type": "function"
    },
    {
      "inputs": [],
      "name": "votingToken",
      "outputs": [
        {
          "internalType": "contract VotingToken",
          "name": "",
          "type": "address"
        }
      ],
      "stateMutability": "view",
      "type": "function"
    },
    {
      "stateMutability": "payable",
      "type": "receive"
    }
  ],
  "bytecode": "0x610160346200042057601f196001600160401b03620064a038819003601f81018416850190858210848311176200040c5780869160409485948552833981010312620004205783516001600160a01b0380821693909184900362000420576020809601519582871680970362000420578351906200007d8262000424565b60108252808201956f283937ba37b1b7b623b7bb32b93737b960811b8752855198620000a98a62000424565b600194858b52838b0199603160f81b8b52620000c58662000440565b9a6101209b8c52620000d78d620005f6565b9a6101409b8c52875190209c8d60e0525190209b8c6101009d8e524660a0528a5190878201927f8b73c3c69bb8fe3d512ecc4cf759cc79239f7b179b0ffacaa9a75d522b39400f84528c83015260608201524660808201523060a082015260a0815260c08101818110858211176200040c578b525190206080523060c05285519182116200040c576002548781811c9116801562000401575b86821014620003ed57601f8111620003a1575b508490601f83116001146200033b575081906019965f926200032f575b50505f19600383901b1c191690861b176002555b7fc565b045403dc03c2eea82b81a0465edad9e2e7fc4d97e11421c209da93d7a93876006548151908152603c86820152a1603c6006557f7e3f7f0708a84de9203036abaa450dccc85ad5ff52f78c170f3edb55cf5e8828876007548151908152603c86820152a1603c6007557fccb45da8d5717e6c4544694297c4ba5cf151d455c9bb0ed4fc7a38411bc054618760085481519081525f86820152a15f6008557f08f74ea46ef7894f65eabfb5e6e695de773a000b47c529ab559178069b22640187600a5497815190891681528386820152a160018060a01b031980961617600a5583600d5560ff19948486600e541617600e556064600f556714d1120d7b1600006011556709b6e64a8ec60000601255670de0b6b3a7640000601355600c541617600c55305f5252825f20918254161790555191615d0293846200079e853960805184615263015260a05184615318015260c0518461522d015260e051846152b2015251836152d8015251826129f401525181612a200152f35b015190505f80620001a0565b958291968893169660025f52865f20915f5b898110620003895750836019991062000370575b505050811b01600255620001b4565b01515f1960f88460031b161c191690555f808062000361565b8282015184558a95909301929188019188016200034d565b60025f52855f20601f840160051c810191878510620003e2575b601f0160051c019088905b828110620003d657505062000183565b5f8155018890620003c6565b9091508190620003bb565b634e487b7160e01b5f52602260045260245ffd5b90607f169062000170565b634e487b7160e01b5f52604160045260245ffd5b5f80fd5b604081019081106001600160401b038211176200040c57604052565b805160209081811015620004da5750601f8251116200047b57808251920151908083106200046d57501790565b825f19910360031b1b161790565b90604051809263305a27a960e01b82528060048301528251908160248401525f935b828510620004c0575050604492505f838284010152601f80199101168101030190fd5b84810182015186860160440152938101938593506200049d565b906001600160401b0382116200040c575f54926001938481811c91168015620005eb575b83821014620003ed57601f8111620005b5575b5081601f84116001146200054f57509282939183925f9462000543575b50501b915f199060031b1c1916175f5560ff90565b015192505f806200052e565b919083601f1981165f8052845f20945f905b888383106200059a575050501062000581575b505050811b015f5560ff90565b01515f1960f88460031b161c191690555f808062000574565b85870151885590960195948501948793509081019062000561565b5f805284601f845f20920160051c820191601f860160051c015b828110620005df57505062000511565b5f8155018590620005cf565b90607f1690620004fe565b805160209081811015620006825750601f8251116200062357808251920151908083106200046d57501790565b90604051809263305a27a960e01b82528060048301528251908160248401525f935b82851062000668575050604492505f838284010152601f80199101168101030190fd5b848101820151868601604401529381019385935062000645565b9192916001600160401b0381116200040c5760019182548381811c9116801562000792575b82821014620003ed57601f81116200075c575b5080601f8311600114620006f85750819293945f92620006ec575b50505f19600383901b1c191690821b17905560ff90565b015190505f80620006d5565b90601f19831695845f52825f20925f905b8882106200074457505083859697106200072b575b505050811b01905560ff90565b01515f1960f88460031b161c191690555f80806200071e565b80878596829496860151815501950193019062000709565b835f5283601f835f20920160051c820191601f850160051c015b82811062000786575050620006ba565b5f815501849062000776565b90607f1690620006a756fe60806040526004361015610022575b3615610018575f80fd5b6100206145c7565b005b5f3560e01c8063013cf08b1461050c57806301ffc9a71461050757806302a251a31461050257806303420181146104fd5780630478c63c146104f857806306fdde03146104f357806307d4fca3146104ee5780630e88ec0b146104e9578063143489d0146104e4578063150b7a02146104df578063160cbed7146104da578063184de4c2146104d55780632656227d146104d05780632d63f693146104cb5780632e80d9b6146104c65780632fa75faf146104c15780632fe3e261146104bc57806332f6a1dc146104b757806337e41708146104b257806337f135d7146104ad5780633932abb1146104a85780633ab34290146104a35780633bccf4fd1461049e5780633e4f49e6146104995780634385963214610494578063452115d61461048f57806345375ec01461048a5780634bf5d7e9146104855780634c999f5e146104805780634fa76ec91461047b57806351e0e26b14610476578063544ffc9c1461047157806354fd4d501461046c57806355de1faf1461046757806356781388146104625780635f398a141461045d57806361a29fe71461045857806363222f2614610453578063668f6ace1461044e57806369e04906146104495780636ce46bc3146104445780636f97b07f1461043f57806370b0f6601461043a5780637548cde51461043557806376e112861461043057806376e674df1461042b5780637b3c71d3146104265780637d5e81e214610421578063839b0ee11461041c57806384b0196e146104175780638b113cf91461041257806391ddadf41461040d5780639563ddb3146104085780639a802a6d146104035780639c89a0e2146103db5780639dcb511a146103fe578063a6d84b16146103f9578063a890c910146103f4578063ab58fb8e146103ef578063b0340123146103ea578063b1610d7e146103e5578063b58131b0146103e0578063b9f79451146103db578063bb4d4436146103d6578063bc197c81146103d1578063c01f9e37146103cc578063c28bc2fa146103c7578063c59057e4146103c2578063d33219b4146103bd578063da35c664146103b8578063dd4e2ba5146103b3578063deaaa7cc146103ae578063ea0217cf146103a9578063eb9019d4146103a4578063ece40cc11461039f578063f23a6e611461039a578063f8ce560a14610395578063fd772ae6146103905763fdc0b0e60361000e576133c7565b613343565b613328565b6132cf565b61323d565b613208565b61311b565b6130e1565b613084565b613067565b61303f565b613023565b612f0a565b612ed4565b612e48565b612e21565b612b6c565b612e04565b612de7565b612dbf565b612d19565b612c6d565b612be4565b612ba7565b612b24565b612b02565b612ae0565b612aa3565b6129dc565b6128ea565b612851565b6127f8565b61247d565b6123f4565b6122ae565b61221c565b6121ff565b612099565b61207c565b61204b565b61202e565b612011565b611f9e565b611f4c565b611ec1565b611e5b565b611e10565b611dd0565b611db3565b611d73565b611d23565b611cdc565b611c13565b611bbe565b611b8f565b611abd565b611aa2565b611a85565b611a68565b6119e4565b6118b9565b61187f565b611763565b61173e565b61170b565b6115a0565b61131a565b611158565b610f3d565b610f08565b610cb3565b610bb8565b610acb565b610a90565b610a06565b6108ef565b610827565b6106c7565b90600182811c9216801561053f575b602083101461052b57565b634e487b7160e01b5f52602260045260245ffd5b91607f1691610520565b634e487b7160e01b5f52604160045260245ffd5b6001600160401b03811161057057604052565b610549565b604081019081106001600160401b0382111761057057604052565b608081019081106001600160401b0382111761057057604052565b602081019081106001600160401b0382111761057057604052565b606081019081106001600160401b0382111761057057604052565b60c081019081106001600160401b0382111761057057604052565b90601f801991011681019081106001600160401b0382111761057057604052565b91908251928382525f5b848110610647575050825f602080949584010152601f8019910116010190565b602081830181015184830182015201610627565b9996939b9a97949192610698916101409a97946101609160018060a01b03168d5263ffffffff60e01b1660208d01528060408d01528b019061061d565b9a60608a0152608089015260a088015260c0870152151560e08601526101008501526101208401521515910152565b346107f5576020806003193601126107f5576004355f526018815260405f209081546001926001810192604051935f9581549161070383610511565b80885292600181169081156107d35750600114610797575b86866107938761072d848d03856105fc565b600281015490600381015460048201546005830154610750600685015460ff1690565b9160078501549361076a6009600888015497015460ff1690565b604080519b8c9b929992909181901b6001600160e01b031916906001600160a01b03168c61065b565b0390f35b5f908152838120939750925b8284106107c05750505083019093019261072d836107935f61071b565b80548785018901529287019281016107a3565b60ff191685890152505050151560051b840101935061072d836107935f61071b565b5f80fd5b600435906001600160e01b0319821682036107f557565b602435906001600160e01b0319821682036107f557565b346107f55760203660031901126107f5576107936001600160e01b031961084c6107f9565b16636e665ced60e01b8114908115610872575b5060405190151581529081906020820190565b63bf26d89760e01b8114915081156108d4575b81156108c3575b81156108b2575b81156108a1575b505f61085f565b6301ffc9a760e01b1490505f61089a565b630271189760e51b81149150610893565b63288ace0360e11b8114915061088c565b6379dd796f60e01b81149150610885565b5f9103126107f557565b346107f5575f3660031901126107f5576020600754604051908152f35b60ff8116036107f557565b9181601f840112156107f5578235916001600160401b0383116107f557602083818601950101116107f557565b6040519060e082018281106001600160401b0382111761057057604052565b6001600160401b03811161057057601f01601f191660200190565b91909161098a81610963565b61099760405191826105fc565b809382825282116107f55781815f9384602080950137010152565b9291926109be82610963565b916109cc60405193846105fc565b8294818452818301116107f5578281602093845f960137010152565b9080601f830112156107f557816020610a03933591016109b2565b90565b346107f55760e03660031901126107f557602435610a238161090c565b6001600160401b036044358181116107f557610a43903690600401610917565b926064359283116107f55761079393610a63610a809436906004016109e8565b60843591610a708361090c565b60c4359460a4359460043561359c565b6040519081529081906020820190565b346107f55760203660031901126107f5576004355f52601b602052602060405f2054604051908152f35b906020610a0392818152019061061d565b346107f5575f3660031901126107f5576040515f600254610aeb81610511565b80845290602090600190818116908115610b7d5750600114610b24575b61079385610b18818703826105fc565b60405191829182610aba565b60025f90815293507f405787fa12a823e0f2b7631cc41b3ba8828b3321ca811111fa75cd3aa3bb5ace5b838510610b6a57505050508101602001610b1882610793610b08565b8054868601840152938201938101610b4e565b86955061079396935060209250610b1894915060ff191682840152151560051b8201019293610b08565b6001600160a01b038116036107f557565b346107f55760403660031901126107f557600435610bd581610ba7565b600c5460243591906001600160a01b039081163303610c7b576001600160a01b0382165f9081526010602052604090207ff3bf67aaa88988c347d216d35468e2afca6fc65ceb5bf94cd86358c62e25d04a9290610c3385825461364b565b90556001600160a01b0381165f908152601060205260409020610c7690610c5b905495613668565b60405193849316958360209093929193604081019481520152565b0390a2005b60405162461bcd60e51b815260206004820152601060248201526f27b7363c902b37ba34b733aa37b5b2b760811b6044820152606490fd5b346107f5576020806003193601126107f557600435610cda815f52601860205260405f2090565b610ce960048201544211613678565b610d546007820154610d476008840154610d048184116136b7565b610d3f6009860193610d26610d21610d1d875460ff1690565b1590565b6136f5565b610d3788610d32613732565b6147b5565b610d32613760565b610d32613786565b805460ff19166001179055565b60408051848101938452909281602082010391610d79601f19938481018352826105fc565b51902090825490610dae85519182610da26001880163ffffffff60e01b878b1b168b84016137ab565b039081018352826105fc565b610dbe610db961384f565b6147fd565b600a546001600160a01b039190610de490610dd890841681565b6001600160a01b031690565b9086519163793d064960e11b948584528984600481855afa938415610ecb575f94610ee9575b50813b156107f5575f8591610e3682968c519a8b978896879562ea831560e11b875216600486016138a2565b03925af1908115610ecb57610dd8610dd8610e66928996600495610ed0575b50600a54166001600160a01b031690565b94518095819382525afa928315610ecb5761002093600593610e91925f92610e9e575b505042613901565b9182910155610d3261390e565b610ebd9250803d10610ec4575b610eb581836105fc565b810190613888565b5f80610e89565b503d610eab565b613897565b80610edd610ee39261055d565b806108e5565b5f610e55565b610f019194508a3d8c11610ec457610eb581836105fc565b925f610e0a565b346107f55760203660031901126107f5576004355f526003602052602060018060a01b0360405f205460401c16604051908152f35b346107f55760803660031901126107f557610f59600435610ba7565b610f64602435610ba7565b6064356001600160401b0381116107f557610f839036906004016109e8565b50604051630a85bd0160e11b8152602090f35b6001600160401b0381116105705760051b60200190565b9080601f830112156107f5576020908235610fc781610f96565b93610fd560405195866105fc565b81855260208086019260051b8201019283116107f557602001905b828210610ffe575050505090565b838091833561100c81610ba7565b815201910190610ff0565b9080601f830112156107f557602090823561103181610f96565b9361103f60405195866105fc565b81855260208086019260051b8201019283116107f557602001905b828210611068575050505090565b8135815290830190830161105a565b81601f820112156107f55780359160209161109184610f96565b9361109f60405195866105fc565b808552838086019160051b830101928084116107f557848301915b8483106110ca5750505050505090565b82356001600160401b0381116107f55786916110eb848480948901016109e8565b8152019201916110ba565b60806003198201126107f5576001600160401b03916004358381116107f5578261112291600401610fad565b926024358181116107f5578361113a91600401611017565b926044359182116107f55761115191600401611077565b9060643590565b346107f557611166366110f6565b92611176848385849695966142d8565b9261119460046111858661492b565b61118e81611b85565b14613947565b600a546111a9906001600160a01b0316610dd8565b60405163793d064960e11b815293906020908186600481845afa958615610ecb575f966112fb575b5081604051809263b1c5f42760e01b825281806111f48d8a8a8d60048601613a35565b03915afa918215610ecb575f926112de575b505061121a865f52600b60205260405f2090565b55600a54611230906001600160a01b0316610dd8565b90813b156107f5575f809461125c876040519a8b97889687956308f2a0bb60e41b875260048701613a7a565b03925af1928315610ecb576112a07f9a2e42fd6722813d69113e7d0079d3d940171428df7373df9c7f7617cfda2892926112b892610793966112cb575b5042613901565b60408051858152602081019290925290918291820190565b0390a16040519081529081906020820190565b80610edd6112d89261055d565b5f611299565b6112f49250803d10610ec457610eb581836105fc565b5f80611206565b611313919650823d8411610ec457610eb581836105fc565b945f6111d1565b346107f5576020806003193601126107f55761143760043591611345835f52601860205260405f2090565b61135b611356600983015460ff1690565b613ab7565b61136b6005820154421015613af9565b6006810191611386611381610d1d855460ff1690565b613b3c565b6113a4600361139d875f52601b60205260405f2090565b5410613b7b565b6113b085610d32613bbc565b815490600161145e610dd8610dd8838060a01b036114438b828916996113dd8b6113d8613beb565b614839565b60409c8a6113f88f9c63ffffffff9060a01c16610d32613c17565b8b518b8101948552808503808252601f1995919061141990602001826105fc565b5190209b80519a8b94019163ffffffff60e01b911b168b84016137ab565b039081018752866105fc565b61144e610db9613c45565b600a54166001600160a01b031690565b918651638065657f60e01b815281818061147d88878b60048501613c7e565b0381875afa908115610ecb576114b49183915f91611583575b50895180938192629de4f960e51b8352600483019190602083019252565b0381875afa908115610ecb576114d2925f92611556575b5050613cbe565b813b156107f5575f80946114fb97519788958694859363134008d360e01b855260048501613c7e565b03925af1918215610ecb5761151d92611543575b50805460ff19166001179055565b7f54be43a7cd1a08d9780e16b698b9b3646cf793c6e9e4c8edfd4b2a607cd8bbbd5f80a2005b80610edd6115509261055d565b5f61150f565b6115759250803d1061157c575b61156d81836105fc565b810190613ca9565b5f806114cb565b503d611563565b61159a9150823d8411610ec457610eb581836105fc565b5f611496565b6115a9366110f6565b906115b6828285876142d8565b926115c08461492b565b946008861015611706576115e2600496600481149081156116f2575b50613947565b61160760026115f9875f52600360205260405f2090565b01805460ff19166001179055565b604095604051968688527f712ae1383f79ac853f8d882153778e0260ef8f03b504e2866e0593e04d2b291f60208099a1600a546001600160a01b039081163003611664575b6107938861165c8989898961565b565b610a80614887565b91955f97919594975b84518110156116d85760019030856116858389614187565b511614611693575b0161166d565b61169d8188614187565b518b81519101206001600160801b038c8b54926005608094851d9283600f0b5f52528b5f20558b54928583199201901b16911617895561168d565b506107939850909690955092935061165c90505f8061164c565b600591506116ff81611b85565b145f6115dc565b611b71565b346107f55760203660031901126107f5576004355f52600360205260206001600160401b0360405f205416604051908152f35b346107f5575f3660031901126107f5576020604051600a8152f35b801515036107f557565b346107f55760403660031901126107f55760243560043561178382611759565b7f52918a7195f9366c8404875b47578926acbf759095b011df841b1f556d55b4076118576117b9835f52601860205260405f2090565b600381015442101580611871575b6117d090613d00565b61183c610d47600a8301611809611804610d1d6117fd33859060018060a01b03165f5260205260405f2090565b5460ff1690565b613d3c565b61181233614274565b93881561185c57600701611827858254613901565b90555b335f9081526020919091526040902090565b60408051951515865260208601919091523394918291820190565b0390a3005b60080161186a858254613901565b905561182a565b5060048101544211156117c7565b346107f5575f3660031901126107f55760206040517fb3b3f3b703cd84ce352197dcff232b1b5d3cfb2025ce47cf04742d0651f1af888152f35b346107f55760203660031901126107f55760043530331480156119d0575b6118e090613d78565b6119206040516118ef81610575565b601d81527f73657451756f72756d50657263656e746167652063616c6c656420627900000060208201523390614839565b7feb6aa7ed3d6a0f414a424bc284d6c5e118ea328d3c641cc829b1789d9143fdfe60408051838152336020820152a1801561199657611991816119886127107ff52eb210d0903b5d5451746f8ce16075afc0ed6842a576991ecb3bdbe3b645bb941115613dce565b610a8081600d55565b0390a1005b60405162461bcd60e51b8152602060048201526012602482015271051756f72756d206d757374206265203e20360741b6044820152606490fd5b50600a546001600160a01b031633146118d7565b346107f5575f3660031901126107f557600a546001600160a01b0316611a0b338214613e1a565b3003611a42575b60ff19600e5416600e557f0bc7d58759550d20dd31390311ef5b2f5592ca1c6bfb4eb634c3a78db3f8795f5f80a1005b611a4c363661097e565b602081519101205b80611a5d6148b6565b03611a545750611a12565b346107f5575f3660031901126107f55760206040516202a3008152f35b346107f5575f3660031901126107f5576020600654604051908152f35b346107f5575f3660031901126107f5576020604051603c8152f35b346107f55760a03660031901126107f557610793610a80600435602435611ae38161090c565b611b5c611b54604435611af58161090c565b60405160208101917f150214d74d59b7d1e90c73fc22ef3d991dd0a76b046543d4d80ab92d2a50328f835286604083015260ff8616606083015260608252611b3c82610590565b611b4f6084359360643593519020614620565b61533e565b9190916153c3565b60405192611b69846105ab565b5f8452614910565b634e487b7160e01b5f52602160045260245ffd5b6008111561170657565b346107f55760203660031901126107f557611bab60043561492b565b6040516008821015611706576020918152f35b346107f55760403660031901126107f557602060ff611c07602435611be281610ba7565b6004355f5260098452600360405f20019060018060a01b03165f5260205260405f2090565b54166040519015158152f35b346107f557611c21366110f6565b90611c2e828285876142d8565b92611c388461492b565b600881101561170657611c835761079394611c7e611c77610dd8611c67610a80985f52600360205260405f2090565b5460401c6001600160a01b031690565b3314613e66565b6157de565b60405162461bcd60e51b815260206004820152601c60248201527f476f7665726e6f723a20746f6f206c61746520746f2063616e63656c000000006044820152606490fd5b634e487b7160e01b5f52603260045260245ffd5b346107f55760203660031901126107f557600435601a548110156107f557601a5f525f80516020615cad83398151915201546040516001600160a01b039091168152602090f35b346107f5575f3660031901126107f557610793604051611d4281610575565b601081526f36b7b2329eb13637b1b5b73ab6b132b960811b602082015260405191829160208352602083019061061d565b346107f55760203660031901126107f557600435611d9081610ba7565b60018060a01b03165f526019602052602060ff60405f2054166040519015158152f35b346107f5575f3660031901126107f5576020600d54604051908152f35b346107f55760203660031901126107f557600435611ded81610ba7565b60018060a01b03165f526014602052602060ff60405f2054166040519015158152f35b346107f55760203660031901126107f5576004355f52600960205260405f20805461079360026001840154930154604051938493846040919493926060820195825260208201520152565b346107f5575f3660031901126107f557610793604051611e7a81610575565b60018152603160f81b602082015260405191829160208352602083019061061d565b60409060031901126107f557600435611eb481610ba7565b90602435610a0381611759565b346107f55760207f0d9ebb65238904712a14ee7cbb13500ec600292b67da8c95eeb5aacade9e3505611ef236611e9c565b92903033148015611f38575b611f0790613d78565b6001600160a01b03165f8181526014835260409020805460ff191660ff86151516179055925b6040519015158152a2005b50600a546001600160a01b03163314611efe565b346107f55760403660031901126107f5576020611f96602435611f6e8161090c565b604051611f7a816105ab565b5f815260405191611f8a836105ab565b5f8352336004356146a6565b604051908152f35b346107f55760803660031901126107f557602435611fbb8161090c565b6001600160401b03906044358281116107f557611fdc903690600401610917565b90916064359384116107f557612007611f9693611fff60209636906004016109e8565b9336916109b2565b90336004356146a6565b346107f5575f3660031901126107f5576020601354604051908152f35b346107f5575f3660031901126107f5576020601254604051908152f35b346107f55760203660031901126107f557602061207260043561206d81610ba7565b613ebd565b6040519015158152f35b346107f5575f3660031901126107f5576020601154604051908152f35b346107f55760603660031901126107f55760443560243560043533301480156121eb575b6120c690613d78565b671bc16d674ec80000811115806121d9575b15612194576119917f2c2f7a9be334609d519b0dee56c07ba4c86f58b43c187d9c446a7d89aab401a893670de0b6b3a764000084111580612182575b61211d90613f0c565b6714d1120d7b16000081111580612170575b61213890613f58565b61214183601155565b61214a84601255565b61215381601355565b604051938493846040919493926060820195825260208201520152565b506706f05b59d3b2000081101561212f565b506706f05b59d3b20000841015612114565b60405162461bcd60e51b815260206004820152601d60248201527f4c656e64206d756c7469706c696572206f7574206f6620626f756e64730000006044820152606490fd5b50670de0b6b3a76400008110156120d8565b50600a546001600160a01b031633146120bd565b346107f5575f3660031901126107f5576020600f54604051908152f35b346107f55760203660031901126107f557600a54600435906001600160a01b0316612248338214613e1a565b3003612288575b60065460408051918252602082018390527fc565b045403dc03c2eea82b81a0465edad9e2e7fc4d97e11421c209da93d7a9391a1600655005b612292363661097e565b602081519101205b806122a36148b6565b0361229a575061224f565b346107f5576020806003193601126107f5576001600160401b036004358181116107f557366023820112156107f55780600401359182116107f5576024810190602436918460051b0101116107f55730331480156123bb575b61231090613d78565b68010000000000000000821161057057601a5482601a55808310612398575b5080601a5f525f5b83811061236f576040517f9405131eda2c6eb0a71f1710c6d9bb7d0174966eff351f730b19ce6a9deb0b3d9080611991878783613fe3565b6001908583359361237f85610ba7565b0192815f80516020615cad833981519152015501612337565b6123b590835f80516020615cad8339815191529182019101613fcd565b5f61232f565b50600a546001600160a01b03163314612307565b60409060031901126107f5576004356123e781610ba7565b90602435610a0381610ba7565b346107f557612402366123cf565b903033148015612469575b61241690613d78565b6001600160a01b039081165f81815260156020526040902080546001600160a01b0319168484161790559116907fd2d8394cf7549a5ddbc2ba3dd7b2de8d53c891472d1f2907008ed6a10045fdae5f80a3005b50600a546001600160a01b0316331461240d565b346107f55760803660031901126107f557600480359061249c82610ba7565b602435916124a983610ba7565b604435906064359360038510156107f557335f52601460205260409060ff825f205416156127c7576001600160a01b0381165f9081526015602052604090206124fa905b546001600160a01b031690565b6001600160a01b039490858116612512811515614032565b8451918291633fabe5a360e21b90818452838b60a09586935afa928315610ecb5789945f946127a3575b505f84131580612777575b6126f4575b505060209061255c5f84136140c7565b8987518095819363313ce56760e01b8352165afa908115610ecb5761259c925f926126bb575b506125906125969185613fba565b91614118565b90614129565b916125a688614147565b8761268e576125d16125c36011545b6125be86614a34565b613fba565b678ac7230489e80000900490565b9760648911612685575b886125e257005b600c546125f7906001600160a01b0316610dd8565b803b156107f55785516340c10f1960e01b81526001600160a01b038816998101998a5260208a018b9052985f918a9182908490829060400103925af1948515610ecb577f49d65c9df54d630b6691b952e3d40db14da909c648872dc1b87771d20d969dea98610c7696612672575b5051968796169886614151565b80610edd61267f9261055d565b5f612665565b606498506125db565b61269788614147565b600188036126ad576125d16125c36012546125b5565b6125d16125c36013546125b5565b6125969192506126e56125909160203d6020116126ed575b6126dd81836105fc565b810190614103565b929150612582565b503d6126d3565b6001600160a01b0387165f908152601660205260409020919450925061271a91506124ed565b90855192835280838a818b86165afa8015610ecb5788936020925f92612745575b505091905f61254c565b6127649250803d10612770575b61275c81836105fc565b810190614095565b50505090505f8061273b565b503d612752565b506001600160a01b0387165f90815260166020526040902061279c90610dd8906124ed565b1515612547565b816127bb9295503d86116127705761275c81836105fc565b5050509050925f61253c565b815162461bcd60e51b8152602081870152600b60248201526a139bdd08185b1b1bddd95960aa1b6044820152606490fd5b346107f55760603660031901126107f5576024356128158161090c565b6044356001600160401b0381116107f55760209161284461283d611f96933690600401610917565b36916109b2565b60405191611f8a836105ab565b346107f55760803660031901126107f5576001600160401b036004358181116107f557612882903690600401610fad565b906024358181116107f55761289b903690600401611017565b916044358281116107f5576128b4903690600401611077565b6064359283116107f557366023840112156107f557610793936128e4610a809436906024816004013591016109b2565b926141a0565b346107f55760203660031901126107f55760043561290733613ebd565b1561296c57805f52601b60205260405f206129228154614266565b9055612936815f52601b60205260405f2090565b546040519081523391907f0fd1cd5610c526002022d4ad7e23129d4ad5536f07271d0d8db0756ecf3b0b1b908060208101611857565b60405162461bcd60e51b81526020600482015260156024820152742737ba10309036bab63a34b9b4b39039b4b3b732b960591b6044820152606490fd5b9081518082526020808093019301915f5b8281106129c8575050505090565b8351855293810193928101926001016129ba565b346107f5575f3660031901126107f557612a75612a187f0000000000000000000000000000000000000000000000000000000000000000614f6b565b610793612a447f0000000000000000000000000000000000000000000000000000000000000000615068565b612a8360405191612a54836105ab565b5f8352604051958695600f60f81b875260e0602088015260e087019061061d565b90858203604087015261061d565b904660608501523060808501525f60a085015283820360c08501526129a9565b346107f55760203660031901126107f5576020600435612ac281610ba7565b60018060a01b038091165f526016825260405f205416604051908152f35b346107f5575f3660031901126107f557602060405165ffffffffffff43168152f35b346107f5575f3660031901126107f557602060ff600e54166040519015158152f35b346107f55760603660031901126107f557600435612b4181610ba7565b6044356001600160401b0381116107f557602091612b66611f969236906004016109e8565b50615126565b346107f55760203660031901126107f557600435612b8981610ba7565b60018060a01b03165f526010602052602060405f2054604051908152f35b346107f55760203660031901126107f5576020600435612bc681610ba7565b60018060a01b038091165f526015825260405f205416604051908152f35b346107f557612bf2366123cf565b903033148015612c59575b612c0690613d78565b6001600160a01b039081165f81815260166020526040902080546001600160a01b0319168484161790559116907f53880ca2a010f722cbd03db1521650ed6252e78aef05632874de7c3c4b5ecf295f80a3005b50600a546001600160a01b03163314612bfd565b346107f55760203660031901126107f557600435612c8a81610ba7565b600a546001600160a01b0391908216612ca4338214613e1a565b3003612cf3575b7f08f74ea46ef7894f65eabfb5e6e695de773a000b47c529ab559178069b226401604083600a5493169381519084168152846020820152a16001600160a01b03191617600a55005b612cfd363661097e565b602081519101205b80612d0e6148b6565b03612d055750612cab565b346107f55760203660031901126107f557612d70602060018060a01b03600a5416612d4e6004355f52600b60205260405f2090565b5490604051808095819463d45c443560e01b8352600483019190602083019252565b03915afa908115610ecb575f91612da0575b5060018103612d9757506040515f8152602090f35b61079390610a80565b612db9915060203d602011610ec457610eb581836105fc565b5f612d82565b346107f5575f3660031901126107f557600c546040516001600160a01b039091168152602090f35b346107f5575f3660031901126107f557602060405162093a808152f35b346107f5575f3660031901126107f5576020600854604051908152f35b346107f55760203660031901126107f5576020611f96600435612e4381610ba7565b614274565b346107f55760a03660031901126107f557612e64600435610ba7565b612e6f602435610ba7565b6001600160401b036044358181116107f557612e8f903690600401611017565b506064358181116107f557612ea8903690600401611017565b506084359081116107f557612ec19036906004016109e8565b5060405163bc197c8160e01b8152602090f35b346107f55760203660031901126107f5576004355f52600360205260206001600160401b03600160405f20015416604051908152f35b60603660031901126107f557600435612f2281610ba7565b6044356001600160401b0381116107f557612f41903690600401610917565b600a549091906001600160a01b0316612f5b338214613e1a565b3003612ffd575b61002092825f93928493604051928392833781018481520391602435905af13d15612ff6573d612f9181610963565b90612f9f60405192836105fc565b81523d5f602083013e5b60405191612fb6836105c6565b602883527f476f7665726e6f723a2072656c617920726576657274656420776974686f7574602084015267206d65737361676560c01b60408401526151e6565b6060612fa9565b613007363661097e565b602081519101205b806130186148b6565b0361300f5750612f62565b346107f5576020611f96613036366110f6565b929190916142d8565b346107f5575f3660031901126107f557600a546040516001600160a01b039091168152602090f35b346107f5575f3660031901126107f5576020601754604051908152f35b346107f5575f3660031901126107f5576107936040516130a381610575565b602081527f737570706f72743d627261766f2671756f72756d3d666f722c6162737461696e602082015260405191829160208352602083019061061d565b346107f5575f3660031901126107f55760206040517f150214d74d59b7d1e90c73fc22ef3d991dd0a76b046543d4d80ab92d2a50328f8152f35b346107f55760203660031901126107f557600a54600435906001600160a01b0316613147338214613e1a565b30036131e2575b801561318d5760075460408051918252602082018390527f7e3f7f0708a84de9203036abaa450dccc85ad5ff52f78c170f3edb55cf5e882891a1600755005b60405162461bcd60e51b815260206004820152602760248201527f476f7665726e6f7253657474696e67733a20766f74696e6720706572696f6420604482015266746f6f206c6f7760c81b6064820152608490fd5b6131ec363661097e565b602081519101205b806131fd6148b6565b036131f4575061314e565b346107f55760403660031901126107f5576020611f9660043561322a81610ba7565b5f604051613237816105ab565b52615126565b346107f55760203660031901126107f557600a54600435906001600160a01b0316613269338214613e1a565b30036132a9575b60085460408051918252602082018390527fccb45da8d5717e6c4544694297c4ba5cf151d455c9bb0ed4fc7a38411bc0546191a1600855005b6132b3363661097e565b602081519101205b806132c46148b6565b036132bb5750613270565b346107f55760a03660031901126107f5576132eb600435610ba7565b6132f6602435610ba7565b6084356001600160401b0381116107f5576133159036906004016109e8565b5060405163f23a6e6160e01b8152602090f35b346107f55760203660031901126107f5576020611f9661436a565b346107f55760207f46fe0810a41e3dbf985c77c9f30207ce6eda91dcba24d8de583b6ea30ac16f0061337436611e9c565b929030331480156133b3575b61338990613d78565b6001600160a01b03165f8181526019835260409020805460ff191660ff8615151617905592611f2d565b50600a546001600160a01b03163314613380565b346107f55760803660031901126107f5576004356133e481610ba7565b6133ec610810565b906044356001600160401b0381116107f55761340c903690600401610917565b6064359291600461341c33614274565b600c54909490602090613437906001600160a01b0316610dd8565b604051631d5e528f60e21b815293849182905afa918215610ecb577f95163a216cfd223fcfcefbee1958390d7f2c90e178d267fa2915d2c287bbdd969561349761348f6118579561349e945f9161357d575b5061434d565b6103e8900490565b11156143ca565b6001600160a01b0381165f9081526019602052604090206134c7906134c2906117fd565b614416565b6134d0426138e1565b6134d9816138f1565b91601754976134ef6134ea8a614266565b601755565b5f60086135048b5f52601860205260405f2090565b805463ffffffff60a01b60408f901c166001600160c01b03199091166001600160a01b0387161717815561353c8a8a600184016144a0565b8360028201554260038201558560048201558660058201556135656006820160ff198154169055565b8260078201550155604051968796339b429489614568565b613596915060203d602011610ec457610eb581836105fc565b5f613489565b9492613629610a03986136319493969861283d96611b4f8a8a8d6135c1368a8c6109b2565b6020815191012090602081519101209060ff6040519360208501957fb3b3f3b703cd84ce352197dcff232b1b5d3cfb2025ce47cf04742d0651f1af8887526040860152166060840152608083015260a082015260a08152613621816105e1565b519020614620565b9490946153c3565b926146a6565b634e487b7160e01b5f52601160045260245ffd5b81810392915f13801582851316918412161761366357565b613637565b600160ff1b8114613663575f0390565b1561367f57565b60405162461bcd60e51b815260206004820152601060248201526f159bdd1a5b99c81b9bdd08195b99195960821b6044820152606490fd5b156136be57565b60405162461bcd60e51b815260206004820152600f60248201526e141c9bdc1bdcd85b0819985a5b1959608a1b6044820152606490fd5b156136fc57565b60405162461bcd60e51b815260206004820152600e60248201526d105b1c9958591e481c5d595d595960921b6044820152606490fd5b6040519061373f82610575565b601282527128bab2bab2b4b73390383937b837b9b0b61d60711b6020830152565b6040519061376d82610575565b600a8252692cb2b9903b37ba32b99d60b11b6020830152565b6040519061379382610575565b60098252682737903b37ba32b99d60b91b6020830152565b6001600160e01b0319909116815281545f92909160046137ca84610511565b926001946001811690815f1461382d57506001146137eb575b505050505090565b909192939594505f5260209460205f205f905b85821061381a5750505050600492935001015f808080806137e3565b80548583018501529087019082016137fe565b9395505050506004935060ff1916838301528015150201015f808080806137e3565b6040519061385c82610575565b601e82527f5363686564756c696e67207468726f7567682074696d656c6f636b2e2e2e00006020830152565b908160209103126107f5575190565b6040513d5f823e3d90fd5b6001600160a01b0390911681525f602082015260c0604082018190529294939260a0926138d19183019061061d565b945f606083015260808201520152565b9062093a80820180921161366357565b906202a300820180921161366357565b9190820180921161366357565b6040519061391b82610575565b601b82527f5363686564756c656420666f7220657865637574696f6e2061743a00000000006020830152565b1561394e57565b60405162461bcd60e51b815260206004820152602160248201527f476f7665726e6f723a2070726f706f73616c206e6f74207375636365737366756044820152601b60fa1b6064820152608490fd5b9081518082526020808093019301915f5b8281106139bc575050505090565b83516001600160a01b0316855293810193928101926001016139ae565b90808251908181526020809101926020808460051b8301019501935f915b848310613a075750505050505090565b9091929394958480613a25600193601f198682030187528a5161061d565b98019301930191949392906139f7565b949392613a61608093613a53613a6f9460a08a5260a08a019061399d565b9088820360208a01526129a9565b9086820360408801526139d9565b935f60608201520152565b9192613aa960a094613a9b6138d1949998979960c0875260c087019061399d565b9085820360208701526129a9565b9083820360408501526139d9565b15613abe57565b60405162461bcd60e51b8152602060048201526013602482015272141c9bdc1bdcd85b081b9bdd081c5d595d5959606a1b6044820152606490fd5b15613b0057565b60405162461bcd60e51b8152602060048201526014602482015273151a5b595b1bd8dac81b9bdd08195e1c1a5c995960621b6044820152606490fd5b15613b4357565b60405162461bcd60e51b815260206004820152601060248201526f105b1c9958591e48195e1958dd5d195960821b6044820152606490fd5b15613b8257565b60405162461bcd60e51b81526020600482015260126024820152715665746f6564206279206d756c746973696760701b6044820152606490fd5b60405190613bc982610575565b601382527222bc32b1baba34b73390383937b837b9b0b61d60691b6020830152565b60405190613bf882610575565b601082526f2a30b933b2ba1031b7b73a3930b1ba1d60811b6020830152565b60405190613c2482610575565b6012825271233ab731ba34b7b71039b2b632b1ba37b91d60711b6020830152565b60405190613c5282610575565b601d82527f457865637574696e67207468726f7567682074696d656c6f636b2e2e2e0000006020830152565b939291613a6f9060809260018060a01b031686525f602087015260a0604087015260a086019061061d565b908160209103126107f55751610a0381611759565b15613cc557565b60405162461bcd60e51b81526020600482015260136024820152724f7065726174696f6e206e6f7420726561647960681b6044820152606490fd5b15613d0757565b60405162461bcd60e51b815260206004820152600d60248201526c159bdd1a5b99c818db1bdcd959609a1b6044820152606490fd5b15613d4357565b60405162461bcd60e51b815260206004820152600d60248201526c105b1c9958591e481d9bdd1959609a1b6044820152606490fd5b15613d7f57565b60405162461bcd60e51b815260206004820152602160248201527f4f6e6c792044414f207669612070726f706f73616c206f722074696d656c6f636044820152606b60f81b6064820152608490fd5b15613dd557565b60405162461bcd60e51b815260206004820152601760248201527f51756f72756d206d757374206265203c3d2031303030300000000000000000006044820152606490fd5b15613e2157565b60405162461bcd60e51b815260206004820152601860248201527f476f7665726e6f723a206f6e6c79476f7665726e616e636500000000000000006044820152606490fd5b15613e6d57565b60405162461bcd60e51b815260206004820152602260248201527f476f7665726e6f723a206f6e6c792070726f706f7365722063616e2063616e63604482015261195b60f21b6064820152608490fd5b5f90601a8054925b838110613ed457505050505f90565b5f8290525f80516020615cad8339815191528101546001600160a01b03848116911614613f0357600101613ec5565b50505050600190565b15613f1357565b60405162461bcd60e51b815260206004820152601f60248201527f426f72726f77206d756c7469706c696572206f7574206f6620626f756e6473006044820152606490fd5b15613f5f57565b60405162461bcd60e51b815260206004820152601e60248201527f5265706179206d756c7469706c696572206f7574206f6620626f756e647300006044820152606490fd5b9060038202918083046003149015171561366357565b8181029291811591840414171561366357565b818110613fd8575050565b5f8155600101613fcd565b90916040602092826020820160208352520192915f5b828110614007575050505090565b909192938280600192873561401b81610ba7565b848060a01b03168152019501910192919092613ff9565b1561403957565b60405162461bcd60e51b815260206004820152601760248201527f4e6f207072696365206665656420666f722061737365740000000000000000006044820152606490fd5b519069ffffffffffffffffffff821682036107f557565b908160a09103126107f5576140a98161407e565b91602082015191604081015191610a0360806060840151930161407e565b156140ce57565b60405162461bcd60e51b815260206004820152600d60248201526c496e76616c696420707269636560981b6044820152606490fd5b908160209103126107f55751610a038161090c565b60ff16604d811161366357600a0a90565b8115614133570490565b634e487b7160e01b5f52601260045260245ffd5b6003111561170657565b9192608093969594919660a0840197845261416b81614147565b60208401526001600160a01b0316604083015260608201520152565b805182101561419b5760209160051b010190565b611cc8565b92919083511561419b576020936141ef60018060a01b0386830151166040516141c881610575565b6016815275283937b837b9b4b733903bb4ba34103a30b933b2ba1d60511b88820152614839565b81511561419b576142208583015160405161420981610575565b60068152652b30b63ab29d60d11b888201526147b5565b82511561419b5761426185610a039685015151906f21b0b6363230ba30903632b733ba341d60811b6040519161425583610575565b601083528201526147b5565b614dee565b5f1981146136635760010190565b600c546040516370a0823160e01b81526001600160a01b0392831660048201529160209183916024918391165afa8015610ecb57610a03915f916142b9575b50614a34565b6142d2915060203d602011610ec457610eb581836105fc565b5f6142b3565b92906143249261433692604051948592614314614301602086019960808b5260a087019061399d565b601f1996878783030160408801526129a9565b90858583030160608601526139d9565b906080830152039081018352826105fc565b51902090565b610a03905f604051613237816105ab565b5f1981019190821161366357565b60271981019190821161366357565b60ff600e54166143c457600c54604051631d5e528f60e21b815290602090829060049082906001600160a01b03165afa8015610ecb576143b76143c091612710935f9161357d575061434d565b600d5490613fba565b0490565b600f5490565b156143d157565b60405162461bcd60e51b815260206004820152601b60248201527f4e65656420302e312520746f6b656e7320746f2070726f706f736500000000006044820152606490fd5b1561441d57565b60405162461bcd60e51b815260206004820152601660248201527515185c99d95d081b9bdd081dda1a5d195b1a5cdd195960521b6044820152606490fd5b9190601f811161446a57505050565b614494925f5260205f20906020601f840160051c83019310614496575b601f0160051c0190613fcd565b565b9091508190614487565b9092916001600160401b038111610570576144c5816144bf8454610511565b8461445b565b5f601f82116001146145035781906144f49394955f926144f8575b50508160011b915f199060031b1c19161790565b9055565b013590505f806144e0565b601f19821694614516845f5260205f2090565b915f5b878110614550575083600195969710614537575b505050811b019055565b01355f19600384901b60f8161c191690555f808061452d565b90926020600181928686013581550194019101614519565b9498979693909160c096939260018060a01b0316865263ffffffff60e01b16602086015260e060408601528060e08601528061010092838701375f828287010152601f8019910116840101966060840152608083015260a08201520152565b600a546001600160a01b031630036145db57565b60405162461bcd60e51b815260206004820152601f60248201527f476f7665726e6f723a206d7573742073656e6420746f206578656375746f72006044820152606490fd5b60429061462b61522a565b906040519161190160f01b8352600283015260228201522090565b93909260ff61467293610a0397958752166020860152604085015260a0606085015260a084019061061d565b91608081840391015261061d565b909260ff608093610a03969584521660208301526040820152816060820152019061061d565b929190835f52600360205260016146bc8561492b565b6146c581611b85565b03614764576146d381615126565b946146e08684848861553f565b805161472857506147227fb8e138887d0aa13bab447e82de9d5c1777041ecd21ca36ba824ff1e6c07ddda4938660405194859460018060a01b03169785614680565b0390a290565b614722907fe2babfbac5889a709b63bb7f598b324e08bc5a4fb9ec647fb3cbc9ec07eb8712948760405195869560018060a01b03169886614646565b60405162461bcd60e51b815260206004820152602360248201527f476f7665726e6f723a20766f7465206e6f742063757272656e746c792061637460448201526269766560e81b6064820152608490fd5b6147f86147e49161449493604051938492632d839cb360e21b602085015260406024850152606484019061061d565b90604483015203601f1981018352826105fc565b615641565b61482b6147f86144949260405192839163104c13eb60e21b602084015260206024840152604483019061061d565b03601f1981018352826105fc565b6147f8614868916144949360405193849263319af33360e01b602085015260406024850152606484019061061d565b6001600160a01b0391909116604483015203601f1981018352826105fc565b600a546001600160a01b0316300361489b57565b60045480600f0b9060801d600f0b136148b057565b5f600455565b6004549081600f0b809260801d600f0b13156148fe57815f52600560205260405f20915f8354935560016001600160801b03196004541691016001600160801b031617600455565b604051631ed9509560e11b8152600490fd5b91610a03939160405193614923856105ab565b5f85526146a6565b614934816156ae565b9061493e82611b85565b60048203614a3057614958905f52600b60205260405f2090565b5480614962575090565b600a5490915061497a906001600160a01b0316610dd8565b604051632ab0f52960e01b81526004810183905260209291908381602481855afa908115610ecb575f91614a13575b50156149b757505050600790565b604051632c258a9f60e11b815260048101929092528290829060249082905afa918215610ecb575f926149f6575b5050156149f157600590565b600290565b614a0c9250803d1061157c5761156d81836105fc565b5f806149e5565b614a2a9150843d861161157c5761156d81836105fc565b5f6149a9565b5090565b908115614a7c5760018083018084116136635760011c9083905b848310614a5a57505050565b9193509083614a698184614129565b90810180911161366357811c9190614a4e565b5f9150565b15614a8857565b60405162461bcd60e51b815260206004820152601d60248201527f476f7665726e6f723a2070726f706f73657220726573747269637465640000006044820152606490fd5b15614ad457565b60405162461bcd60e51b815260206004820152603160248201527f476f7665726e6f723a2070726f706f73657220766f7465732062656c6f7720706044820152701c9bdc1bdcd85b081d1a1c995cda1bdb19607a1b6064820152608490fd5b15614b3a57565b60405162461bcd60e51b815260206004820152602160248201527f476f7665726e6f723a20696e76616c69642070726f706f73616c206c656e67746044820152600d60fb1b6064820152608490fd5b15614b9057565b60405162461bcd60e51b815260206004820152601860248201527f476f7665726e6f723a20656d7074792070726f706f73616c00000000000000006044820152606490fd5b15614bdc57565b60405162461bcd60e51b815260206004820152602160248201527f476f7665726e6f723a2070726f706f73616c20616c72656164792065786973746044820152607360f81b6064820152608490fd5b815160208301516040808501516001600160401b039384169290911b68010000000000000000600160e01b0316919091176001600160e01b03199091161782556060830151608084015167ffffffffffffffff191691161760018201556144949190614cc19060c09060020192614cba614ca860a0830151151590565b859060ff801983541691151516179055565b0151151590565b815461ff00191690151560081b61ff0016179055565b90614ce182610f96565b614cee60405191826105fc565b8281528092614cff601f1991610f96565b01905f5b828110614d0f57505050565b806060602080938501015201614d03565b9592614d5490614d62939b9a989996959261012090895260209c60018060a01b03168d8a01528060408a015288019061399d565b9086820360608801526129a9565b9784890360808601528251808a52818a019180808360051b8d01019501925f905b838210614dc0575050505050610a0396975090614da79184820360a08601526139d9565b9360c083015260e082015261010081840391015261061d565b90919293958380614ddf8f93600194601f199082030186528a5161061d565b98019201920190939291614d83565b614f657f7d84a6263ae0d98d3329bd7b46bb4e8d6f98cd35a7adb45c274c8b7fd5ebd5e09394614e26614e218233615943565b614a81565b65ffffffffffff431695614e398761434d565b50614e50614e463361433c565b6008541115614acd565b614ec9614e65835160208501208388886142d8565b97614e738651885114614b33565b614e808651845114614b33565b614e8c86511515614b89565b614ec06001600160401b03614eb9614eac8c5f52600360205260405f2090565b546001600160401b031690565b1615614bd5565b60065490613901565b614ed560075482613901565b91614f4d614ee2836159fb565b614f24614eee866159fb565b614f08614ef9610944565b6001600160401b039094168452565b3360208401525f60408401526001600160401b03166060830152565b5f60808201525f60a08201525f60c0820152614f488b5f52600360205260405f2090565b614c2b565b614f578651614cd7565b604051978897338c8a614d20565b0390a190565b60ff8114614fa95760ff811690601f8211614f975760405191614f8d83610575565b8252602082015290565b604051632cd44ac360e21b8152600490fd5b506040515f815f5491614fbb83610511565b808352926020906001908181169081156150445750600114614fe6575b5050610a03925003826105fc565b9150925f80527f290decd9548b62a8d60345a988386fc84ba6bc95484008f6362f93160ef3e563935f925b82841061502c5750610a039450505081016020015f80614fd8565b85548785018301529485019486945092810192615011565b91505060209250610a0394915060ff191682840152151560051b8201015f80614fd8565b60ff811461508a5760ff811690601f8211614f975760405191614f8d83610575565b506040515f8160019160015461509f81610511565b808452936020916001811690811561504457506001146150c7575050610a03925003826105fc565b91509260015f527fb10e2d527612073b26eecdfd717e6a320cf44b4afac2b0732d9fcbe2b7fa0cf6935f925b82841061510e5750610a039450505081016020015f80614fd8565b855487850183015294850194869450928101926150f3565b600c5461513b906001600160a01b0316610dd8565b6040516370a0823160e01b81526001600160a01b038316600482015290602090829060249082905afa908115610ecb5761519b91615180915f916151c7575b50615a63565b6001600160a01b039092165f90815260106020526040902090565b546009198112156151ad575060011c90565b60141215610a03576151c1610a0391613fa4565b60011c90565b6151e0915060203d602011610ec457610eb581836105fc565b5f61517a565b909190156151f2575090565b8151156152025750805190602001fd5b60405162461bcd60e51b81526020600482015290819061522690602483019061061d565b0390fd5b307f00000000000000000000000000000000000000000000000000000000000000006001600160a01b03161480615315575b15615285577f000000000000000000000000000000000000000000000000000000000000000090565b60405160208101907f8b73c3c69bb8fe3d512ecc4cf759cc79239f7b179b0ffacaa9a75d522b39400f82527f000000000000000000000000000000000000000000000000000000000000000060408201527f000000000000000000000000000000000000000000000000000000000000000060608201524660808201523060a082015260a08152614336816105e1565b507f0000000000000000000000000000000000000000000000000000000000000000461461525c565b7f7fffffffffffffffffffffffffffffff5d576e7357a4501ddfe92f46681b20a084116153ae576020935f9360ff60809460405194855216868401526040830152606082015282805260015afa15610ecb575f516001600160a01b038116156153a657905f90565b505f90600190565b505050505f90600390565b6005111561170657565b6153cc816153b9565b806153d45750565b6153dd816153b9565b6001810361542a5760405162461bcd60e51b815260206004820152601860248201527f45434453413a20696e76616c6964207369676e617475726500000000000000006044820152606490fd5b615433816153b9565b600281036154805760405162461bcd60e51b815260206004820152601f60248201527f45434453413a20696e76616c6964207369676e6174757265206c656e677468006044820152606490fd5b8061548c6003926153b9565b1461549357565b60405162461bcd60e51b815260206004820152602260248201527f45434453413a20696e76616c6964207369676e6174757265202773272076616c604482015261756560f01b6064820152608490fd5b156154ea57565b60405162461bcd60e51b815260206004820152602760248201527f476f7665726e6f72566f74696e6753696d706c653a20766f746520616c726561604482015266191e4818d85cdd60ca1b6064820152608490fd5b9161559d610d4761555b60ff94955f52600960205260405f2090565b9460038601615588615583610d1d6117fd85859060018060a01b03165f5260205260405f2090565b6154e3565b9060018060a01b03165f5260205260405f2090565b16806155b05750906144f4908254613901565b600181036155c8575060016144f49101918254613901565b6002036155de5760026144f49101918254613901565b60405162461bcd60e51b815260206004820152603560248201527f476f7665726e6f72566f74696e6753696d706c653a20696e76616c69642076616044820152746c756520666f7220656e756d20566f74655479706560581b6064820152608490fd5b5f80916020815191016a636f6e736f6c652e6c6f675afa50565b919060018060a01b03600a541690813b156107f5575f936156926040519687958694859463e38335e560e01b865260048601613a35565b039134905af18015610ecb576156a55750565b6144949061055d565b60026156c2825f52600360205260405f2090565b015460ff81166157d75760081c60ff166157d1576156fa6156ee614eac835f52600360205260405f2090565b6001600160401b031690565b801561578c5765ffffffffffff431680911015615786576157396156ee600161572b855f52600360205260405f2090565b01546001600160401b031690565b10156157805761574881615ba1565b908161575f575b501561575a57600490565b600390565b61577a91505f52600960205260405f20600181015490541090565b5f61574f565b50600190565b50505f90565b60405162461bcd60e51b815260206004820152601d60248201527f476f7665726e6f723a20756e6b6e6f776e2070726f706f73616c2069640000006044820152606490fd5b50600290565b5050600790565b906157ea9392916142d8565b6157f38161492b565b600881101561170657806002615818921415908161591c575b81615907575b50615bd1565b61583f600261582f835f52600360205260405f2090565b01805461ff001916610100179055565b6040518181527f789cf55be980739dad1d0699b93b58e806b51c9d96619bfa8fe0a28abaa7b30c90602090a161587d815f52600b60205260405f2090565b546158855790565b600a5461589a906001600160a01b0316610dd8565b6158ac825f52600b60205260405f2090565b5490803b156107f55760405163c4d252f560e01b815260048101929092525f908290602490829084905af18015610ecb576158f4575b505f818152600b602052604081205590565b80610edd6159019261055d565b5f6158e2565b6007915061591481611b85565b14155f615812565b905061592781611b85565b60068114159061580c565b90815181101561419b570160200190565b8151603481106159f35760131981840101516001600160a01b0319166b1b91f1b211f2119351b859f160a31b016159f357915f926159808161435b565b915b81831061599d575050506001600160a01b0391821691161490565b9091936159c36159be6159b08785615932565b516001600160f81b03191690565b615c1d565b9190156159e85760041b6010600160a01b031660ff9190911617936001019190615982565b505050505050600190565b505050600190565b6001600160401b0390818111615a0f571690565b60405162461bcd60e51b815260206004820152602660248201527f53616665436173743a2076616c756520646f65736e27742066697420696e203660448201526534206269747360d01b6064820152608490fd5b8015615b9c5780615b35615b2e615b24615b1a615b10615b06615afc615af26001610a039a5f908b60801c80615b90575b508060401c80615b83575b508060201c80615b76575b508060101c80615b69575b508060081c80615b5c575b508060041c80615b4f575b508060021c80615b42575b50821c615b3b575b811c1b615aeb818b614129565b0160011c90565b615aeb818a614129565b615aeb8189614129565b615aeb8188614129565b615aeb8187614129565b615aeb8186614129565b615aeb8185614129565b8092614129565b90615c9a565b8101615ade565b600291509101905f615ad6565b600491509101905f615acb565b600891509101905f615ac0565b601091509101905f615ab5565b602091509101905f615aaa565b604091509101905f615a9f565b9150506080905f615a94565b505f90565b5f52600960205260405f206003602052615bb961436a565b60026001830154920154820180921161366357111590565b15615bd857565b60405162461bcd60e51b815260206004820152601d60248201527f476f7665726e6f723a2070726f706f73616c206e6f74206163746976650000006044820152606490fd5b60f81c9081602f1080615c90575b15615c3d57600191602f190160ff1690565b8160401080615c86575b15615c59576001916036190160ff1690565b8160601080615c7c575b15615c75576001916056190160ff1690565b5f91508190565b5060678210615c63565b5060478210615c47565b50603a8210615c2b565b9080821015615ca7575090565b90509056fe057c384a7d1c54f3a1b2e5e67b2617b8224fdfd1ea7234eea573a6ff665ff63ea2646970667358221220420d3b7438dcbe5c231230e57263a1e034dfca9eba86c16e9b01aa77c25636cc64736f6c63430008180033",
  "linkReferences": {},
  "deployedLinkReferences": {}
}