{
  "_format": "hh-sol-artifact-1",
  "contractName": "SimpleRISC0Test",
  "sourceName": "backend/contracts/SimpleRISC0Test.sol",
  "abi": [
    {
      "inputs": [
        {
          "internalType": "contract IRiscZeroVerifier",
          "name": "_verifier",
          "type": "address"
        }
      ],
      "stateMutability": "nonpayable",
      "type": "constructor"
    },
    {
      "anonymous": false,
      "inputs": [
        {
          "indexed": true,
          "internalType": "address",
          "name": "user",
          "type": "address"
        },
        {
          "indexed": false,
          "internalType": "uint256",
          "name": "timestamp",
          "type": "uint256"
        }
      ],
      "name": "AccountProofVerified",
      "type": "event"
    },
    {
      "anonymous": false,
      "inputs": [
        {
          "indexed": false,
          "internalType": "bool",
          "name": "enabled",
          "type": "bool"
        }
      ],
      "name": "DemoModeToggled",
      "type": "event"
    },
    {
      "anonymous": false,
      "inputs": [
        {
          "indexed": true,
          "internalType": "address",
          "name": "user",
          "type": "address"
        },
        {
          "indexed": false,
          "internalType": "uint256",
          "name": "timestamp",
          "type": "uint256"
        }
      ],
      "name": "NestingProofVerified",
      "type": "event"
    },
    {
      "anonymous": false,
      "inputs": [
        {
          "indexed": true,
          "internalType": "address",
          "name": "user",
          "type": "address"
        },
        {
          "indexed": false,
          "internalType": "string",
          "name": "reason",
          "type": "string"
        }
      ],
      "name": "ProofVerificationFailed",
      "type": "event"
    },
    {
      "anonymous": false,
      "inputs": [
        {
          "indexed": true,
          "internalType": "address",
          "name": "user",
          "type": "address"
        },
        {
          "indexed": false,
          "internalType": "uint256",
          "name": "timestamp",
          "type": "uint256"
        }
      ],
      "name": "TradFiProofVerified",
      "type": "event"
    },
    {
      "inputs": [],
      "name": "ACCOUNT_MERKLE_IMAGE_ID",
      "outputs": [
        {
          "internalType": "bytes32",
          "name": "",
          "type": "bytes32"
        }
      ],
      "stateMutability": "view",
      "type": "function"
    },
    {
      "inputs": [],
      "name": "NESTING_PROOF_IMAGE_ID",
      "outputs": [
        {
          "internalType": "bytes32",
          "name": "",
          "type": "bytes32"
        }
      ],
      "stateMutability": "view",
      "type": "function"
    },
    {
      "inputs": [],
      "name": "TRADFI_SCORE_IMAGE_ID",
      "outputs": [
        {
          "internalType": "bytes32",
          "name": "",
          "type": "bytes32"
        }
      ],
      "stateMutability": "view",
      "type": "function"
    },
    {
      "inputs": [],
      "name": "demoMode",
      "outputs": [
        {
          "internalType": "bool",
          "name": "",
          "type": "bool"
        }
      ],
      "stateMutability": "view",
      "type": "function"
    },
    {
      "inputs": [
        {
          "internalType": "address",
          "name": "user",
          "type": "address"
        }
      ],
      "name": "getVerificationStatus",
      "outputs": [
        {
          "internalType": "bool",
          "name": "tradFiVerified",
          "type": "bool"
        },
        {
          "internalType": "bool",
          "name": "accountVerified",
          "type": "bool"
        },
        {
          "internalType": "bool",
          "name": "nestingVerified",
          "type": "bool"
        }
      ],
      "stateMutability": "view",
      "type": "function"
    },
    {
      "inputs": [],
      "name": "getVerifierAddress",
      "outputs": [
        {
          "internalType": "address",
          "name": "",
          "type": "address"
        }
      ],
      "stateMutability": "view",
      "type": "function"
    },
    {
      "inputs": [
        {
          "internalType": "address",
          "name": "",
          "type": "address"
        }
      ],
      "name": "hasVerifiedAccount",
      "outputs": [
        {
          "internalType": "bool",
          "name": "",
          "type": "bool"
        }
      ],
      "stateMutability": "view",
      "type": "function"
    },
    {
      "inputs": [
        {
          "internalType": "address",
          "name": "",
          "type": "address"
        }
      ],
      "name": "hasVerifiedNesting",
      "outputs": [
        {
          "internalType": "bool",
          "name": "",
          "type": "bool"
        }
      ],
      "stateMutability": "view",
      "type": "function"
    },
    {
      "inputs": [
        {
          "internalType": "address",
          "name": "",
          "type": "address"
        }
      ],
      "name": "hasVerifiedTradFi",
      "outputs": [
        {
          "internalType": "bool",
          "name": "",
          "type": "bool"
        }
      ],
      "stateMutability": "view",
      "type": "function"
    },
    {
      "inputs": [],
      "name": "isDemoMode",
      "outputs": [
        {
          "internalType": "bool",
          "name": "",
          "type": "bool"
        }
      ],
      "stateMutability": "view",
      "type": "function"
    },
    {
      "inputs": [
        {
          "internalType": "bytes",
          "name": "seal",
          "type": "bytes"
        },
        {
          "internalType": "string",
          "name": "prefix",
          "type": "string"
        }
      ],
      "name": "isMockProof",
      "outputs": [
        {
          "internalType": "bool",
          "name": "",
          "type": "bool"
        }
      ],
      "stateMutability": "pure",
      "type": "function"
    },
    {
      "inputs": [],
      "name": "owner",
      "outputs": [
        {
          "internalType": "address",
          "name": "",
          "type": "address"
        }
      ],
      "stateMutability": "view",
      "type": "function"
    },
    {
      "inputs": [],
      "name": "ping",
      "outputs": [
        {
          "internalType": "uint256",
          "name": "",
          "type": "uint256"
        }
      ],
      "stateMutability": "view",
      "type": "function"
    },
    {
      "inputs": [
        {
          "internalType": "bool",
          "name": "_demoMode",
          "type": "bool"
        }
      ],
      "name": "setDemoMode",
      "outputs": [],
      "stateMutability": "nonpayable",
      "type": "function"
    },
    {
      "inputs": [
        {
          "internalType": "bytes",
          "name": "seal",
          "type": "bytes"
        },
        {
          "internalType": "bytes",
          "name": "journalData",
          "type": "bytes"
        }
      ],
      "name": "testAccountProof",
      "outputs": [],
      "stateMutability": "nonpayable",
      "type": "function"
    },
    {
      "inputs": [
        {
          "internalType": "bytes",
          "name": "seal",
          "type": "bytes"
        },
        {
          "internalType": "bytes",
          "name": "journalData",
          "type": "bytes"
        }
      ],
      "name": "testNestingProof",
      "outputs": [],
      "stateMutability": "nonpayable",
      "type": "function"
    },
    {
      "inputs": [
        {
          "internalType": "bytes",
          "name": "seal",
          "type": "bytes"
        },
        {
          "internalType": "bytes",
          "name": "journalData",
          "type": "bytes"
        }
      ],
      "name": "testTradFiProof",
      "outputs": [],
      "stateMutability": "nonpayable",
      "type": "function"
    },
    {
      "inputs": [],
      "name": "verifier",
      "outputs": [
        {
          "internalType": "contract IRiscZeroVerifier",
          "name": "",
          "type": "address"
        }
      ],
      "stateMutability": "view",
      "type": "function"
    }
  ],
  "bytecode": "0x60a03461009e57601f61113438819003918201601f19168301916001600160401b038311848410176100a35780849260209460405283398101031261009e57516001600160a01b038116810361009e57608052600080546001600160a81b0319163360081b610100600160a81b031617905560405161107a90816100ba82396080518181816103170152818161071801528181610a1c0152610ce60152f35b600080fd5b634e487b7160e01b600052604160045260246000fdfe608080604052600436101561001357600080fd5b60003560e01c908163135d4635146104bd575080631d66d236146104435780631e191aec14610400578063247ccb95146103e65780632b7ac3f31461030157806341ab92a5146103a35780634295e8171461038957806344ba06d51461022e57806350cd57411461034657806353ae8717146103015780635c36b186146102e65780636103681a1461026d578063639289dc14610251578063697655581461022e5780637edadd541461018d5780638da5cb5b14610160578063e7f2465b146101255763f5315ce5146100e557600080fd5b346101205760003660031901126101205760206040517f6da21d5bc6a7534bc686b9294717f12994b13c67183c86668c62d01fcc4531518152f35b600080fd5b346101205760003660031901126101205760206040517fb083f461f1de589187ceac04a9eb2c0fd7c99b8c80f4ed3f3d45963c8b9606bf8152f35b346101205760003660031901126101205760005460405160089190911c6001600160a01b03168152602090f35b346101205760203660031901126101205760043580151580910361012057600054600881901c6001600160a01b031633036101fc5760ff191660ff8216176000556040519081527f0348a61a70edddff385f227f11a31f422f3286f343be56a9a2c39cc5f692a5ad90602090a1005b60405162461bcd60e51b815260206004820152600a60248201526927b7363c9037bbb732b960b11b6044820152606490fd5b3461012057600036600319011261012057602060ff600054166040519015158152f35b346101205761026b610262366105a3565b92919091610cd0565b005b34610120576020366003190112610120576004356001600160a01b038116908190036101205780606091600052600160205260ff604060002054169080600052600260205260ff6040600020541690600052600360205260ff604060002054169060405192151583521515602083015215156040820152f35b34610120576000366003190112610120576020604051428152f35b34610120576000366003190112610120576040517f00000000000000000000000000000000000000000000000000000000000000006001600160a01b03168152602090f35b34610120576020366003190112610120576004356001600160a01b03811690819003610120576000526001602052602060ff604060002054166040519015158152f35b346101205761026b61039a366105a3565b92919091610a06565b34610120576020366003190112610120576004356001600160a01b03811690819003610120576000526003602052602060ff604060002054166040519015158152f35b346101205761026b6103f7366105a3565b92919091610702565b34610120576020366003190112610120576004356001600160a01b03811690819003610120576000526002602052602060ff604060002054166040519015158152f35b346101205760403660031901126101205760043567ffffffffffffffff8111610120576104749036906004016104f6565b906024359067ffffffffffffffff82116101205736602383011215610120576020926104ad6104b393369060248160040135910161055c565b91610f9a565b6040519015158152f35b3461012057600036600319011261012057807f81c6f5d0702b3a373ce771febb63581ed62fbd6ff427e4182bb827144e4a4c4c60209252f35b9181601f840112156101205782359167ffffffffffffffff8311610120576020838186019501011161012057565b90601f8019910116810190811067ffffffffffffffff82111761054657604052565b634e487b7160e01b600052604160045260246000fd5b92919267ffffffffffffffff82116105465760405191610586601f8201601f191660200184610524565b829481845281830111610120578281602093846000960137010152565b60406003198201126101205760043567ffffffffffffffff811161012057816105ce916004016104f6565b929092916024359067ffffffffffffffff8211610120576105f1916004016104f6565b9091565b60009060033d1161060257565b905060046000803e60005160e01c90565b600060443d1061067a576040513d600319016004823e8051913d602484011167ffffffffffffffff841117610685578282019283519167ffffffffffffffff831161067d573d8401600319018584016020011161067d575061067a92910160200190610524565b90565b949350505050565b92915050565b60005b83811061069e5750506000910152565b818101518382015260200161068e565b604091602082526106ce815180928160208601526020868601910161068b565b601f01601f1916010190565b60609060208152600d60208201526c2ab735b737bbb71032b93937b960991b60408201520190565b9190916000938460ff81541661097c575b6040517f00000000000000000000000000000000000000000000000000000000000000006001600160a01b0316946020938291819083378101838152039060025afa15610971578351823b1561096d5791836080869593600497956040519889968795869463ab750e7560e01b86526060848701528160648701526084860137888583838701010152601f8019910116830101907f81c6f5d0702b3a373ce771febb63581ed62fbd6ff427e4182bb827144e4a4c4c602484015260448301520301915afa918261095d575b5090610918576107ec6105f5565b6308c379a01461086f575b604051600080516020611025833981519152339180610815816106da565b0390a260405162461bcd60e51b815260206004820152602960248201527f54726164466920766572696669636174696f6e206661696c65643a20556e6b6e60448201526837bbb71032b93937b960b91b6064820152608490fd5b610877610613565b8061088257506107f7565b610914906040516000805160206110258339815191523391806108a585826106ae565b0390a26108fc603c60405180937f54726164466920766572696669636174696f6e206661696c65643a200000000060208301526108eb815180926020868601910161068b565b81010301601f198101835282610524565b60405162461bcd60e51b8152918291600483016106ae565b0390fd5b604090338152600160205220600160ff198254161790556040514281527ff1a7f05fc0d25ae59adceb83e3e53da54f2de61439c5a19ac576cf2a946f077960203392a2565b8161096791610524565b386107de565b8480fd5b6040513d85823e3d90fd5b506109b360405161098e604082610524565b60118152704d4f434b5f5452414446495f5345414c5f60781b60208201528584610f9a565b6109bd5784610713565b50505050604090338152600160205220600160ff198254161790556040514281527ff1a7f05fc0d25ae59adceb83e3e53da54f2de61439c5a19ac576cf2a946f077960203392a2565b9190916000938460ff815416610c45575b6040517f00000000000000000000000000000000000000000000000000000000000000006001600160a01b0316946020938291819083378101838152039060025afa15610971578351823b1561096d5791836080869593600497956040519889968795869463ab750e7560e01b86526060848701528160648701526084860137888583838701010152601f8019910116830101907fb083f461f1de589187ceac04a9eb2c0fd7c99b8c80f4ed3f3d45963c8b9606bf602484015260448301520301915afa9182610c35575b5090610bf057610af06105f5565b6308c379a014610b74575b604051600080516020611025833981519152339180610b19816106da565b0390a260405162461bcd60e51b815260206004820152602a60248201527f4163636f756e7420766572696669636174696f6e206661696c65643a20556e6b6044820152693737bbb71032b93937b960b11b6064820152608490fd5b610b7c610613565b80610b875750610afb565b61091490604051600080516020611025833981519152339180610baa85826106ae565b0390a26108fc603d60405180937f4163636f756e7420766572696669636174696f6e206661696c65643a2000000060208301526108eb815180926020868601910161068b565b604090338152600260205220600160ff198254161790556040514281527ff9729b6d7a08a5815507b1c9ac0233625be06b13133cad723037669efeeb993d60203392a2565b81610c3f91610524565b38610ae2565b50610c7d604051610c57604082610524565b60128152714d4f434b5f4143434f554e545f5345414c5f60701b60208201528584610f9a565b610c875784610a17565b50505050604090338152600260205220600160ff198254161790556040514281527ff9729b6d7a08a5815507b1c9ac0233625be06b13133cad723037669efeeb993d60203392a2565b9190916000938460ff815416610f0f575b6040517f00000000000000000000000000000000000000000000000000000000000000006001600160a01b0316946020938291819083378101838152039060025afa15610971578351823b1561096d5791836080869593600497956040519889968795869463ab750e7560e01b86526060848701528160648701526084860137888583838701010152601f8019910116830101907f6da21d5bc6a7534bc686b9294717f12994b13c67183c86668c62d01fcc453151602484015260448301520301915afa9182610eff575b5090610eba57610dba6105f5565b6308c379a014610e3e575b604051600080516020611025833981519152339180610de3816106da565b0390a260405162461bcd60e51b815260206004820152602a60248201527f4e657374696e6720766572696669636174696f6e206661696c65643a20556e6b6044820152693737bbb71032b93937b960b11b6064820152608490fd5b610e46610613565b80610e515750610dc5565b61091490604051600080516020611025833981519152339180610e7485826106ae565b0390a26108fc603d60405180937f4e657374696e6720766572696669636174696f6e206661696c65643a2000000060208301526108eb815180926020868601910161068b565b604090338152600360205220600160ff198254161790556040514281527f088fec278efd6be93c0da6b2d606074c10b442ce8430edfaeb57d0f9b8a6b13660203392a2565b81610f0991610524565b38610dac565b50610f47604051610f21604082610524565b60128152714d4f434b5f4e455354494e475f5345414c5f60701b60208201528584610f9a565b610f515784610ce1565b50505050604090338152600360205220600160ff198254161790556040514281527f088fec278efd6be93c0da6b2d606074c10b442ce8430edfaeb57d0f9b8a6b13660203392a2565b90918051831061101c57610faf36848461055c565b5060005b81518110156110135783811015610ffd578151811015610ffd57818101602001516001600160f81b03199081168483013590911603610ff457600101610fb3565b50505050600090565b634e487b7160e01b600052603260045260246000fd5b50505050600190565b50505060009056feae1bcb15067169a5bcd8c845ffcd590c582cd45772a2d6f375b7a86d4d0b5368a26469706673582212203ae2a73cbfa373d7eaf02369911236679f9eeaf16acf8d63ccbc9a3c18607cc864736f6c634300081c0033",
  "linkReferences": {},
  "deployedLinkReferences": {}
}