{
  "_format": "hh-sol-artifact-1",
  "contractName": "SimpleRISC0Test",
  "sourceName": "backend/contracts/SimpleRISC0Test.sol",
  "abi": [
    {
      "inputs": [
        {
          "internalType": "contract IRiscZeroVerifier",
          "name": "_verifier",
          "type": "address"
        }
      ],
      "stateMutability": "nonpayable",
      "type": "constructor"
    },
    {
      "anonymous": false,
      "inputs": [
        {
          "indexed": true,
          "internalType": "address",
          "name": "user",
          "type": "address"
        },
        {
          "indexed": false,
          "internalType": "uint256",
          "name": "timestamp",
          "type": "uint256"
        }
      ],
      "name": "AccountProofVerified",
      "type": "event"
    },
    {
      "anonymous": false,
      "inputs": [
        {
          "indexed": false,
          "internalType": "bool",
          "name": "enabled",
          "type": "bool"
        }
      ],
      "name": "DemoModeToggled",
      "type": "event"
    },
    {
      "anonymous": false,
      "inputs": [
        {
          "indexed": true,
          "internalType": "address",
          "name": "user",
          "type": "address"
        },
        {
          "indexed": false,
          "internalType": "uint256",
          "name": "timestamp",
          "type": "uint256"
        }
      ],
      "name": "NestingProofVerified",
      "type": "event"
    },
    {
      "anonymous": false,
      "inputs": [
        {
          "indexed": true,
          "internalType": "address",
          "name": "user",
          "type": "address"
        },
        {
          "indexed": false,
          "internalType": "string",
          "name": "reason",
          "type": "string"
        }
      ],
      "name": "ProofVerificationFailed",
      "type": "event"
    },
    {
      "anonymous": false,
      "inputs": [
        {
          "indexed": true,
          "internalType": "address",
          "name": "user",
          "type": "address"
        },
        {
          "indexed": false,
          "internalType": "uint256",
          "name": "timestamp",
          "type": "uint256"
        }
      ],
      "name": "TradFiProofVerified",
      "type": "event"
    },
    {
      "inputs": [],
      "name": "ACCOUNT_MERKLE_IMAGE_ID",
      "outputs": [
        {
          "internalType": "bytes32",
          "name": "",
          "type": "bytes32"
        }
      ],
      "stateMutability": "view",
      "type": "function"
    },
    {
      "inputs": [],
      "name": "NESTING_PROOF_IMAGE_ID",
      "outputs": [
        {
          "internalType": "bytes32",
          "name": "",
          "type": "bytes32"
        }
      ],
      "stateMutability": "view",
      "type": "function"
    },
    {
      "inputs": [],
      "name": "TRADFI_SCORE_IMAGE_ID",
      "outputs": [
        {
          "internalType": "bytes32",
          "name": "",
          "type": "bytes32"
        }
      ],
      "stateMutability": "view",
      "type": "function"
    },
    {
      "inputs": [],
      "name": "demoMode",
      "outputs": [
        {
          "internalType": "bool",
          "name": "",
          "type": "bool"
        }
      ],
      "stateMutability": "view",
      "type": "function"
    },
    {
      "inputs": [
        {
          "internalType": "address",
          "name": "user",
          "type": "address"
        }
      ],
      "name": "getVerificationStatus",
      "outputs": [
        {
          "internalType": "bool",
          "name": "tradFiVerified",
          "type": "bool"
        },
        {
          "internalType": "bool",
          "name": "accountVerified",
          "type": "bool"
        },
        {
          "internalType": "bool",
          "name": "nestingVerified",
          "type": "bool"
        }
      ],
      "stateMutability": "view",
      "type": "function"
    },
    {
      "inputs": [],
      "name": "getVerifierAddress",
      "outputs": [
        {
          "internalType": "address",
          "name": "",
          "type": "address"
        }
      ],
      "stateMutability": "view",
      "type": "function"
    },
    {
      "inputs": [
        {
          "internalType": "address",
          "name": "",
          "type": "address"
        }
      ],
      "name": "hasVerifiedAccount",
      "outputs": [
        {
          "internalType": "bool",
          "name": "",
          "type": "bool"
        }
      ],
      "stateMutability": "view",
      "type": "function"
    },
    {
      "inputs": [
        {
          "internalType": "address",
          "name": "",
          "type": "address"
        }
      ],
      "name": "hasVerifiedNesting",
      "outputs": [
        {
          "internalType": "bool",
          "name": "",
          "type": "bool"
        }
      ],
      "stateMutability": "view",
      "type": "function"
    },
    {
      "inputs": [
        {
          "internalType": "address",
          "name": "",
          "type": "address"
        }
      ],
      "name": "hasVerifiedTradFi",
      "outputs": [
        {
          "internalType": "bool",
          "name": "",
          "type": "bool"
        }
      ],
      "stateMutability": "view",
      "type": "function"
    },
    {
      "inputs": [],
      "name": "isDemoMode",
      "outputs": [
        {
          "internalType": "bool",
          "name": "",
          "type": "bool"
        }
      ],
      "stateMutability": "view",
      "type": "function"
    },
    {
      "inputs": [
        {
          "internalType": "bytes",
          "name": "seal",
          "type": "bytes"
        },
        {
          "internalType": "string",
          "name": "prefix",
          "type": "string"
        }
      ],
      "name": "isMockProof",
      "outputs": [
        {
          "internalType": "bool",
          "name": "",
          "type": "bool"
        }
      ],
      "stateMutability": "pure",
      "type": "function"
    },
    {
      "inputs": [],
      "name": "owner",
      "outputs": [
        {
          "internalType": "address",
          "name": "",
          "type": "address"
        }
      ],
      "stateMutability": "view",
      "type": "function"
    },
    {
      "inputs": [],
      "name": "ping",
      "outputs": [
        {
          "internalType": "uint256",
          "name": "",
          "type": "uint256"
        }
      ],
      "stateMutability": "view",
      "type": "function"
    },
    {
      "inputs": [
        {
          "internalType": "bool",
          "name": "_demoMode",
          "type": "bool"
        }
      ],
      "name": "setDemoMode",
      "outputs": [],
      "stateMutability": "nonpayable",
      "type": "function"
    },
    {
      "inputs": [
        {
          "internalType": "bytes",
          "name": "seal",
          "type": "bytes"
        },
        {
          "internalType": "bytes",
          "name": "journalData",
          "type": "bytes"
        }
      ],
      "name": "testAccountProof",
      "outputs": [],
      "stateMutability": "nonpayable",
      "type": "function"
    },
    {
      "inputs": [
        {
          "internalType": "bytes",
          "name": "seal",
          "type": "bytes"
        },
        {
          "internalType": "bytes",
          "name": "journalData",
          "type": "bytes"
        }
      ],
      "name": "testNestingProof",
      "outputs": [],
      "stateMutability": "nonpayable",
      "type": "function"
    },
    {
      "inputs": [
        {
          "internalType": "bytes",
          "name": "seal",
          "type": "bytes"
        },
        {
          "internalType": "bytes",
          "name": "journalData",
          "type": "bytes"
        }
      ],
      "name": "testTradFiProof",
      "outputs": [],
      "stateMutability": "nonpayable",
      "type": "function"
    },
    {
      "inputs": [],
      "name": "verifier",
      "outputs": [
        {
          "internalType": "contract IRiscZeroVerifier",
          "name": "",
          "type": "address"
        }
      ],
      "stateMutability": "view",
      "type": "function"
    }
  ],
  "bytecode": "0x60a0806040523461010657602081611bb5803803809161001f828561010a565b83398101031261010657516001600160a01b038116810361010657610058604080516742b2acc56c7638c560208201526020815261010a565b61007660408051676891494bb0d26e3460208201526020815261010a565b60805261009760408051679f591812830b4c2960208201526020815261010a565b5f546100b76040805167453ab9030d4fc93f60208201526020815261010a565b6001600160a81b0319163360081b610100600160a81b0316175f55604051611a73908161014282396080518181816105500152818161065101528181610b6b01528181611068015261153f0152f35b5f80fd5b601f909101601f19168101906001600160401b0382119082101761012d57604052565b634e487b7160e01b5f52604160045260245ffdfe6080806040526004361015610012575f80fd5b5f3560e01c908163135d46351461078d575080631d66d236146106db5780631e191aec1461069a578063247ccb95146106805780632b7ac3f31461063c57806341ab92a5146105fb5780634295e817146105e157806344ba06d5146105c057806350cd57411461057f57806353ae8717146104ff5780635c36b186146104a95780636103681a146103be578063639289dc146103a257806369765558146103455780637edadd54146101855780638da5cb5b1461015a578063e7f2465b146101205763f5315ce5146100e2575f80fd5b3461011c575f36600319011261011c5760206040517f6da21d5bc6a7534bc686b9294717f12994b13c67183c86668c62d01fcc4531518152f35b5f80fd5b3461011c575f36600319011261011c5760206040517fb083f461f1de589187ceac04a9eb2c0fd7c99b8c80f4ed3f3d45963c8b9606bf8152f35b3461011c575f36600319011261011c575f5460405160089190911c6001600160a01b03168152602090f35b3461011c57602036600319011261011c5760043580151580910361011c576101c160408051675a3c41aecbe1769b6020820152602081526107f3565b6101df6040805167825b4c989677f2a36020820152602081526107f3565b6101fd6040805167e04974a5951a1c166020820152602081526107f3565b61021b60408051671c5eb24432b8afa26020820152602081526107f3565b5f54600881901c6001600160a01b03163303610313577f0348a61a70edddff385f227f11a31f422f3286f343be56a9a2c39cc5f692a5ad9160209161027260408051679ccc5951bf42772e868201528581526107f3565b61028e6040805167d0e74fe26e3efa35868201528581526107f3565b6102aa6040805167c0b31e488aa8c513868201528581526107f3565b6102c6604080516783e5ba4482d18f11868201528581526107f3565b6102e26040805167154e78c7c1706ed0868201528581526107f3565b60ff82169060ff1916175f5561030a604080516713860ca3c4844148858201528481526107f3565b604051908152a1005b60405162461bcd60e51b815260206004820152600a60248201526927b7363c9037bbb732b960b11b6044820152606490fd5b3461011c575f36600319011261011c57610373604080516788bb16a9b683e7e06020820152602081526107f3565b61039160408051676d8961952eaee39c6020820152602081526107f3565b602060ff5f54166040519015158152f35b3461011c576103bc6103b33661086f565b9291909161137a565b005b3461011c57602036600319011261011c576004356001600160a01b0381169081900361011c576060906104056040805167105af37b51d490e96020820152602081526107f3565b610423604080516757b8fae7c1362e846020820152602081526107f3565b805f52600160205260ff60405f205416906104526040805167572446d8cbdf6f3a6020820152602081526107f3565b805f52600260205260ff60405f20541690610481604080516706eb90c4718a960c6020820152602081526107f3565b5f52600360205260ff60405f2054169060405192151583521515602083015215156040820152f35b3461011c575f36600319011261011c576104d760408051675cf8c3ed51e423b76020820152602081526107f3565b6104f560408051671f78d3e57636ac516020820152602081526107f3565b6020604051428152f35b3461011c575f36600319011261011c5761052d6040805167970fa3c360af6fa06020820152602081526107f3565b61054b60408051670d12a90aa81c164d6020820152602081526107f3565b6040517f00000000000000000000000000000000000000000000000000000000000000006001600160a01b03168152602090f35b3461011c57602036600319011261011c576004356001600160a01b0381169081900361011c575f526001602052602060ff60405f2054166040519015158152f35b3461011c575f36600319011261011c57602060ff5f54166040519015158152f35b3461011c576103bc6105f23661086f565b92919091610ea3565b3461011c57602036600319011261011c576004356001600160a01b0381169081900361011c575f526003602052602060ff60405f2054166040519015158152f35b3461011c575f36600319011261011c576040517f00000000000000000000000000000000000000000000000000000000000000006001600160a01b03168152602090f35b3461011c576103bc6106913661086f565b929190916109a5565b3461011c57602036600319011261011c576004356001600160a01b0381169081900361011c575f526002602052602060ff60405f2054166040519015158152f35b3461011c57604036600319011261011c5760043567ffffffffffffffff811161011c5761070c9036906004016107c5565b906024359067ffffffffffffffff821161011c573660238301121561011c57602092610745610783933690602481600401359101610829565b9161076260408051675ea24b75231f05b0888201528781526107f3565b61077e6040805167c9d7a4a647cb2bba888201528781526107f3565b611851565b6040519015158152f35b3461011c575f36600319011261011c57807f81c6f5d0702b3a373ce771febb63581ed62fbd6ff427e4182bb827144e4a4c4c60209252f35b9181601f8401121561011c5782359167ffffffffffffffff831161011c576020838186019501011161011c57565b90601f8019910116810190811067ffffffffffffffff82111761081557604052565b634e487b7160e01b5f52604160045260245ffd5b92919267ffffffffffffffff82116108155760405191610853601f8201601f1916602001846107f3565b82948184528183011161011c578281602093845f960137010152565b604060031982011261011c5760043567ffffffffffffffff811161011c578161089a916004016107c5565b929092916024359067ffffffffffffffff821161011c576108bd916004016107c5565b9091565b5f9060033d116108cd57565b905060045f803e5f5160e01c90565b5f60443d10610942576040513d600319016004823e8051913d602484011167ffffffffffffffff84111761094d578282019283519167ffffffffffffffff8311610945573d840160031901858401602001116109455750610942929101602001906107f3565b90565b949350505050565b92915050565b602060409281835280519182918282860152018484015e5f828201840152601f01601f1916010190565b60609060208152600d60208201526c2ab735b737bbb71032b93937b960991b60408201520190565b90939291604051946109cb60405f9767ef8471ed2a404bbf6020820152602081526107f3565b6109e9604080516742e058008e54c3876020820152602081526107f3565b5f5460ff1615610e7b57610a116040805167540e18a37a5e67556020820152602081526107f3565b610a2f6040805167bf54ce57838dbb006020820152602081526107f3565b604093610a668551610a4187826107f3565b60118152704d4f434b5f5452414446495f5345414c5f60781b60208201528386611851565b15610b285750505050610b26919250610a92818051679784dde11745c96a6020820152602081526107f3565b610aaf81805167abe8aa308c19b1c76020820152602081526107f3565b335f526001602052805f20600160ff19825416179055610ae2818051671d7272e8f3937ba36020820152602081526107f3565b80514281527ff1a7f05fc0d25ae59adceb83e3e53da54f2de61439c5a19ac576cf2a946f077960203392a280516794e3f2feee789adb6020820152602081526107f3565b565b5f90610b4a8660209495969751678d88dac8c23a8d3d868201528581526107f3565b610b666040805167af956f4fe17b5f0d868201528581526107f3565b6040517f00000000000000000000000000000000000000000000000000000000000000006001600160a01b03169590918291819083378101838152039060025afa15610e70575f5191803b1561011c578160806004955f956040519788968795869463ab750e7560e01b86526060848701528160648701526084860137888583838701010152601f8019910116830101907f81c6f5d0702b3a373ce771febb63581ed62fbd6ff427e4182bb827144e4a4c4c602484015260448301520301915afa9081610e5b575b50610dda5750610c3c6108c1565b6308c379a014610cfa575b610c656040805167da628a60e7ebb2a16020820152602081526107f3565b6040515f516020611a1e5f395f51905f52339180610c828161097d565b0390a2610ca360408051675a9d796be8b7163f6020820152602081526107f3565b60405162461bcd60e51b815260206004820152602960248201527f54726164466920766572696669636174696f6e206661696c65643a20556e6b6e60448201526837bbb71032b93937b960b91b6064820152608490fd5b610d026108dc565b9081610d0e5750610c47565b610dbe603c610dd693602093610d366040805167168e36b8187c92b6888201528781526107f3565b6040515f516020611a1e5f395f51905f52339180610d548682610953565b0390a2610d736040805167fea23bff0a5a1b79888201528781526107f3565b6040519485927f54726164466920766572696669636174696f6e206661696c65643a2000000000828501528051918291018585015e820190838201520301601f1981018352826107f3565b60405162461bcd60e51b815291829160048301610953565b0390fd5b90604090610dfb82805167a3b51f99e8a8a68a6020820152602081526107f3565b338152600160205220600160ff19825416179055610e2d60408051671078efab7fe513506020820152602081526107f3565b6040514281527ff1a7f05fc0d25ae59adceb83e3e53da54f2de61439c5a19ac576cf2a946f077960203392a2565b610e689193505f906107f3565b5f915f610c2e565b6040513d5f823e3d90fd5b9091925f602091610e9e6040805167cfb30eadcc0cbfb1868201528581526107f3565b610b4a565b9093929160405194610ec960405f9767894dff772b72ea276020820152602081526107f3565b610ee760408051679c8c803c047636836020820152602081526107f3565b5f5460ff161561135257610f0f60408051677d65d9c785760f3c6020820152602081526107f3565b610f2d60408051678aa42bfa660a4acf6020820152602081526107f3565b604093610f658551610f3f87826107f3565b60128152714d4f434b5f4143434f554e545f5345414c5f60701b60208201528386611851565b156110255750505050610b26919250610f9181805167cb181a6f3715c04d6020820152602081526107f3565b610fae818051675f903bbbeac6dc806020820152602081526107f3565b335f526002602052805f20600160ff19825416179055610fe1818051678516873a85cf16966020820152602081526107f3565b80514281527ff9729b6d7a08a5815507b1c9ac0233625be06b13133cad723037669efeeb993d60203392a28051675a7c26a8abfd12526020820152602081526107f3565b5f9061104786602094959697516772652decb26010e0868201528581526107f3565b61106360408051677b87d28b168e8486868201528581526107f3565b6040517f00000000000000000000000000000000000000000000000000000000000000006001600160a01b03169590918291819083378101838152039060025afa15610e70575f5191803b1561011c578160806004955f956040519788968795869463ab750e7560e01b86526060848701528160648701526084860137888583838701010152601f8019910116830101907fb083f461f1de589187ceac04a9eb2c0fd7c99b8c80f4ed3f3d45963c8b9606bf602484015260448301520301915afa908161133d575b506112bc57506111396108c1565b6308c379a0146111f8575b6111626040805167e08c8518d39091936020820152602081526107f3565b6040515f516020611a1e5f395f51905f5233918061117f8161097d565b0390a26111a06040805167fe5b249313374e506020820152602081526107f3565b60405162461bcd60e51b815260206004820152602a60248201527f4163636f756e7420766572696669636174696f6e206661696c65643a20556e6b6044820152693737bbb71032b93937b960b11b6064820152608490fd5b6112006108dc565b908161120c5750611144565b610dbe603d610dd6936020936112346040805167f7b069fc5a89c2de888201528781526107f3565b6040515f516020611a1e5f395f51905f523391806112528682610953565b0390a26112716040805167ecbdb46cf85ee83a888201528781526107f3565b6040519485927f4163636f756e7420766572696669636174696f6e206661696c65643a20000000828501528051918291018585015e820190838201520301601f1981018352826107f3565b906040906112dd828051676c85272284cb22406020820152602081526107f3565b338152600260205220600160ff1982541617905561130f60408051674dba1f6c92150f746020820152602081526107f3565b6040514281527ff9729b6d7a08a5815507b1c9ac0233625be06b13133cad723037669efeeb993d60203392a2565b61134a9193505f906107f3565b5f915f61112b565b9091925f602091611375604080516719ff8e3cfa4fc81e868201528581526107f3565b611047565b90939291604051946113a060405f9767cc44536139019e696020820152602081526107f3565b6113be6040805167d9cb56b3543a39026020820152602081526107f3565b5f5460ff1615611829576113e660408051677912c8a4b23bd09f6020820152602081526107f3565b6114046040805167e361b550fbb793916020820152602081526107f3565b60409361143c855161141687826107f3565b60128152714d4f434b5f4e455354494e475f5345414c5f60701b60208201528386611851565b156114fc5750505050610b26919250611468818051672e5510103827d63f6020820152602081526107f3565b6114858180516717de1d23220a06d36020820152602081526107f3565b335f526003602052805f20600160ff198254161790556114b8818051677be7596a890813d66020820152602081526107f3565b80514281527f088fec278efd6be93c0da6b2d606074c10b442ce8430edfaeb57d0f9b8a6b13660203392a2805167d803d9b06dadf3e96020820152602081526107f3565b5f9061151e866020949596975167304c0ebd14a77fc7868201528581526107f3565b61153a60408051678581e66308cc3dd8868201528581526107f3565b6040517f00000000000000000000000000000000000000000000000000000000000000006001600160a01b03169590918291819083378101838152039060025afa15610e70575f5191803b1561011c578160806004955f956040519788968795869463ab750e7560e01b86526060848701528160648701526084860137888583838701010152601f8019910116830101907f6da21d5bc6a7534bc686b9294717f12994b13c67183c86668c62d01fcc453151602484015260448301520301915afa9081611814575b5061179357506116106108c1565b6308c379a0146116cf575b61163960408051677fb57c8ee64fdc4f6020820152602081526107f3565b6040515f516020611a1e5f395f51905f523391806116568161097d565b0390a26116776040805167c88a3ab07b699ad66020820152602081526107f3565b60405162461bcd60e51b815260206004820152602a60248201527f4e657374696e6720766572696669636174696f6e206661696c65643a20556e6b6044820152693737bbb71032b93937b960b11b6064820152608490fd5b6116d76108dc565b90816116e3575061161b565b610dbe603d610dd69360209361170b6040805167b7753e13ec259aaa888201528781526107f3565b6040515f516020611a1e5f395f51905f523391806117298682610953565b0390a261174860408051674e7f03d86d9e1480888201528781526107f3565b6040519485927f4e657374696e6720766572696669636174696f6e206661696c65643a20000000828501528051918291018585015e820190838201520301601f1981018352826107f3565b906040906117b482805167273feaea2e618eb26020820152602081526107f3565b338152600360205220600160ff198254161790556117e660408051676ead7955be13a27a6020820152602081526107f3565b6040514281527f088fec278efd6be93c0da6b2d606074c10b442ce8430edfaeb57d0f9b8a6b13660203392a2565b6118219193505f906107f3565b5f915f611602565b9091925f60209161184c60408051670cb4e4eceaeedecc868201528581526107f3565b61151e565b90916118716040805167c688f9c340a8eb4a6020820152602081526107f3565b61188f60408051675f7a6d49bf5469cf6020820152602081526107f3565b6118ad6040805167ba0caa846a9bec216020820152602081526107f3565b80518310156118db575050506118d760408051673a0acdd68fcc54126020820152602081526107f3565b5f90565b6118f960408051671a3838a5d783649e6020820152602081526107f3565b61191760408051677bc9fc653d05758e6020820152602081526107f3565b611922368484610829565b506119416040805167f0cd7822c677ab9f6020820152602081526107f3565b5f5b81518110156119f65761196a6040805167a74fd6a2400410496020820152602081526107f3565b838110156119e25781518110156119e25781810160200151838201356001600160f81b03199081169116146119bb57505050506118d760408051671ef384dc0a1e2e566020820152602081526107f3565b6001906119dc6040805167834f3807674138976020820152602081526107f3565b01611943565b634e487b7160e01b5f52603260045260245ffd5b50505050611a186040805167fb95916bc2ad22a96020820152602081526107f3565b60019056feae1bcb15067169a5bcd8c845ffcd590c582cd45772a2d6f375b7a86d4d0b5368a2646970667358221220789ff6c8a3430268d862acaa4d8fa57f38d1c0b794ad760b6a35025a6a90b10e64736f6c634300081c0033",
  "linkReferences": {},
  "deployedLinkReferences": {}
}