{
  "_format": "hh-sol-artifact-1",
  "contractName": "SimpleRISC0Test",
  "sourceName": "contracts/SimpleRISC0Test.sol",
  "abi": [
    {
      "inputs": [
        {
          "internalType": "contract IRiscZeroVerifier",
          "name": "_verifier",
          "type": "address"
        }
      ],
      "stateMutability": "nonpayable",
      "type": "constructor"
    },
    {
      "anonymous": false,
      "inputs": [
        {
          "indexed": true,
          "internalType": "address",
          "name": "user",
          "type": "address"
        },
        {
          "indexed": false,
          "internalType": "uint256",
          "name": "timestamp",
          "type": "uint256"
        }
      ],
      "name": "AccountProofVerified",
      "type": "event"
    },
    {
      "anonymous": false,
      "inputs": [
        {
          "indexed": true,
          "internalType": "address",
          "name": "user",
          "type": "address"
        },
        {
          "indexed": false,
          "internalType": "uint256",
          "name": "timestamp",
          "type": "uint256"
        }
      ],
      "name": "NestingProofVerified",
      "type": "event"
    },
    {
      "anonymous": false,
      "inputs": [
        {
          "indexed": true,
          "internalType": "address",
          "name": "user",
          "type": "address"
        },
        {
          "indexed": false,
          "internalType": "string",
          "name": "reason",
          "type": "string"
        }
      ],
      "name": "ProofVerificationFailed",
      "type": "event"
    },
    {
      "anonymous": false,
      "inputs": [
        {
          "indexed": true,
          "internalType": "address",
          "name": "user",
          "type": "address"
        },
        {
          "indexed": false,
          "internalType": "uint256",
          "name": "timestamp",
          "type": "uint256"
        }
      ],
      "name": "TradFiProofVerified",
      "type": "event"
    },
    {
      "inputs": [],
      "name": "ACCOUNT_MERKLE_IMAGE_ID",
      "outputs": [
        {
          "internalType": "bytes32",
          "name": "",
          "type": "bytes32"
        }
      ],
      "stateMutability": "view",
      "type": "function"
    },
    {
      "inputs": [],
      "name": "NESTING_PROOF_IMAGE_ID",
      "outputs": [
        {
          "internalType": "bytes32",
          "name": "",
          "type": "bytes32"
        }
      ],
      "stateMutability": "view",
      "type": "function"
    },
    {
      "inputs": [],
      "name": "TRADFI_SCORE_IMAGE_ID",
      "outputs": [
        {
          "internalType": "bytes32",
          "name": "",
          "type": "bytes32"
        }
      ],
      "stateMutability": "view",
      "type": "function"
    },
    {
      "inputs": [],
      "name": "demoMode",
      "outputs": [
        {
          "internalType": "bool",
          "name": "",
          "type": "bool"
        }
      ],
      "stateMutability": "view",
      "type": "function"
    },
    {
      "inputs": [
        {
          "internalType": "address",
          "name": "user",
          "type": "address"
        }
      ],
      "name": "getVerificationStatus",
      "outputs": [
        {
          "internalType": "bool",
          "name": "tradFiVerified",
          "type": "bool"
        },
        {
          "internalType": "bool",
          "name": "accountVerified",
          "type": "bool"
        },
        {
          "internalType": "bool",
          "name": "nestingVerified",
          "type": "bool"
        }
      ],
      "stateMutability": "view",
      "type": "function"
    },
    {
      "inputs": [],
      "name": "getVerifierAddress",
      "outputs": [
        {
          "internalType": "address",
          "name": "",
          "type": "address"
        }
      ],
      "stateMutability": "view",
      "type": "function"
    },
    {
      "inputs": [
        {
          "internalType": "address",
          "name": "",
          "type": "address"
        }
      ],
      "name": "hasVerifiedAccount",
      "outputs": [
        {
          "internalType": "bool",
          "name": "",
          "type": "bool"
        }
      ],
      "stateMutability": "view",
      "type": "function"
    },
    {
      "inputs": [
        {
          "internalType": "address",
          "name": "",
          "type": "address"
        }
      ],
      "name": "hasVerifiedNesting",
      "outputs": [
        {
          "internalType": "bool",
          "name": "",
          "type": "bool"
        }
      ],
      "stateMutability": "view",
      "type": "function"
    },
    {
      "inputs": [
        {
          "internalType": "address",
          "name": "",
          "type": "address"
        }
      ],
      "name": "hasVerifiedTradFi",
      "outputs": [
        {
          "internalType": "bool",
          "name": "",
          "type": "bool"
        }
      ],
      "stateMutability": "view",
      "type": "function"
    },
    {
      "inputs": [],
      "name": "ping",
      "outputs": [
        {
          "internalType": "uint256",
          "name": "",
          "type": "uint256"
        }
      ],
      "stateMutability": "view",
      "type": "function"
    },
    {
      "inputs": [
        {
          "internalType": "bool",
          "name": "_demoMode",
          "type": "bool"
        }
      ],
      "name": "setDemoMode",
      "outputs": [],
      "stateMutability": "nonpayable",
      "type": "function"
    },
    {
      "inputs": [
        {
          "internalType": "bytes",
          "name": "seal",
          "type": "bytes"
        },
        {
          "internalType": "bytes",
          "name": "journalData",
          "type": "bytes"
        }
      ],
      "name": "testAccountProof",
      "outputs": [],
      "stateMutability": "nonpayable",
      "type": "function"
    },
    {
      "inputs": [
        {
          "internalType": "bytes",
          "name": "seal",
          "type": "bytes"
        },
        {
          "internalType": "bytes",
          "name": "journalData",
          "type": "bytes"
        }
      ],
      "name": "testNestingProof",
      "outputs": [],
      "stateMutability": "nonpayable",
      "type": "function"
    },
    {
      "inputs": [
        {
          "internalType": "bytes",
          "name": "seal",
          "type": "bytes"
        },
        {
          "internalType": "bytes",
          "name": "journalData",
          "type": "bytes"
        }
      ],
      "name": "testTradFiProof",
      "outputs": [],
      "stateMutability": "nonpayable",
      "type": "function"
    },
    {
      "inputs": [],
      "name": "verifier",
      "outputs": [
        {
          "internalType": "contract IRiscZeroVerifier",
          "name": "",
          "type": "address"
        }
      ],
      "stateMutability": "view",
      "type": "function"
    }
  ],
  "bytecode": "0x60a03461007f57601f610ecb38819003918201601f19168301916001600160401b038311848410176100835780849260209460405283398101031261007f57516001600160a01b038116810361007f57608052604051610e339081610098823960805181818161021b01528181610606015281816108cc0152610b6a0152f35b5f80fd5b634e487b7160e01b5f52604160045260245ffdfe6080604090808252600480361015610015575f80fd5b5f3560e01c918263135d463514610360575081631e191aec14610320578163247ccb95146103065781632b7ac3f31461020757816341ab92a5146102c65781634295e817146102ac57816344ba06d51461028957816350cd57411461024a57816353ae8717146102075781635c36b186146101ed5781636103681a14610186578163639289dc1461016a5781637edadd541461013c57508063e7f2465b146101025763f5315ce5146100c5575f80fd5b346100fe575f3660031901126100fe57602090517f6da21d5bc6a7534bc686b9294717f12994b13c67183c86668c62d01fcc4531518152f35b5f80fd5b50346100fe575f3660031901126100fe57602090517fb083f461f1de589187ceac04a9eb2c0fd7c99b8c80f4ed3f3d45963c8b9606bf8152f35b346100fe5760203660031901126100fe57358015158091036100fe5760ff8019600354169116176003555f80f35b346100fe5761018461017b366103c6565b92919091610b4f565b005b9050346100fe5760203660031901126100fe57356001600160a01b03811691908290036100fe576060915f525f60205260ff815f20541690600160205260ff815f205416600260205260ff825f205416908251931515845215156020840152151590820152f35b82346100fe575f3660031901126100fe5760209051428152f35b82346100fe575f3660031901126100fe57517f00000000000000000000000000000000000000000000000000000000000000006001600160a01b03168152602090f35b9050346100fe5760203660031901126100fe57356001600160a01b03811691908290036100fe576020915f525f825260ff815f20541690519015158152f35b82346100fe575f3660031901126100fe5760209060ff6003541690519015158152f35b346100fe576101846102bd366103c6565b929190916108b1565b9050346100fe5760203660031901126100fe57356001600160a01b03811691908290036100fe576020915f526002825260ff815f20541690519015158152f35b346100fe57610184610317366103c6565b929190916105eb565b9050346100fe5760203660031901126100fe57356001600160a01b03811691908290036100fe576020915f526001825260ff815f20541690519015158152f35b346100fe575f3660031901126100fe57807f81c6f5d0702b3a373ce771febb63581ed62fbd6ff427e4182bb827144e4a4c4c60209252f35b9181601f840112156100fe5782359167ffffffffffffffff83116100fe57602083818601950101116100fe57565b60406003198201126100fe5767ffffffffffffffff916004358381116100fe57826103f391600401610398565b939093926024359182116100fe5761040d91600401610398565b9091565b1561041857565b60405162461bcd60e51b81526020600482015260146024820152735365616c2063616e6e6f7420626520656d70747960601b6044820152606490fd5b1561045b57565b60405162461bcd60e51b815260206004820152601c60248201527f4a6f75726e616c20646174612063616e6e6f7420626520656d707479000000006044820152606490fd5b67ffffffffffffffff81116104b457604052565b634e487b7160e01b5f52604160045260245ffd5b90601f8019910116810190811067ffffffffffffffff8211176104b457604052565b5f9060033d116104f657565b905060045f803e5f5160e01c90565b5f60443d1061056257604051600319913d83016004833e815167ffffffffffffffff918282113d6024840111176105655781840194855193841161056d573d850101602084870101116105655750610562929101602001906104c8565b90565b949350505050565b50949350505050565b5f5b8381106105875750505f910152565b8181015183820152602001610578565b604091602082526105b78151809281602086015260208686019101610576565b601f01601f1916010190565b60609060208152600d60208201526c2ab735b737bbb71032b93937b960991b60408201520190565b90939192936003549160ff5f93166108515760018060a01b037f00000000000000000000000000000000000000000000000000000000000000001660409680885197883786015f81525f876020988993039060025afa15610847575f5190803b156100fe578360845f948a519687958694859363ab750e7560e01b8552606060048601528160648601528585013782820184018890527f81c6f5d0702b3a373ce771febb63581ed62fbd6ff427e4182bb827144e4a4c4c60248401526044830152601f01601f191681010301915afa9081610834575b506107f35750506106d06104ea565b6308c379a01461074e575b81608492515f80516020610dde8339815191523391806106fa816105c3565b0390a2519062461bcd60e51b82526004820152602960248201527f54726164466920766572696669636174696f6e206661696c65643a20556e6b6e60448201526837bbb71032b93937b960b91b6064820152fd5b610756610505565b91826107635791506106db565b6107d9603c6107c9936107ef9584515f80516020610dde83398151915233918061078d8582610597565b0390a2845195827f54726164466920766572696669636174696f6e206661696c65643a2000000000889485015282519283918686019101610576565b810103601c8101855201836104c8565b5162461bcd60e51b815291829160048301610597565b0390fd5b92807ff1a7f05fc0d25ae59adceb83e3e53da54f2de61439c5a19ac576cf2a946f0779929433815280855220600160ff1982541617905551914283523392a2565b61083f9192506104a0565b5f905f6106c1565b86513d5f823e3d90fd5b5061086d935061086691509391931515610411565b1515610454565b335f525f60205260405f20600160ff198254161790556040514281527ff1a7f05fc0d25ae59adceb83e3e53da54f2de61439c5a19ac576cf2a946f077960203392a2565b90939192936003549160ff5f9316610af55760018060a01b037f00000000000000000000000000000000000000000000000000000000000000001660409680885197883786015f81525f876020988993039060025afa15610847575f5190803b156100fe578360845f948a519687958694859363ab750e7560e01b8552606060048601528160648601528585013782820184018890527fb083f461f1de589187ceac04a9eb2c0fd7c99b8c80f4ed3f3d45963c8b9606bf60248401526044830152601f01601f191681010301915afa9081610ae2575b50610aa05750506109966104ea565b6308c379a014610a15575b81608492515f80516020610dde8339815191523391806109c0816105c3565b0390a2519062461bcd60e51b82526004820152602a60248201527f4163636f756e7420766572696669636174696f6e206661696c65643a20556e6b6044820152693737bbb71032b93937b960b11b6064820152fd5b610a1d610505565b9182610a2a5791506109a1565b6107d9603d610a90936107ef9584515f80516020610dde833981519152339180610a548582610597565b0390a2845195827f4163636f756e7420766572696669636174696f6e206661696c65643a20000000889485015282519283918686019101610576565b810103601d8101855201836104c8565b92807ff9729b6d7a08a5815507b1c9ac0233625be06b13133cad723037669efeeb993d92943381526001855220600160ff1982541617905551914283523392a2565b610aed9192506104a0565b5f905f610987565b50610b0a935061086691509391931515610411565b335f52600160205260405f20600160ff198254161790556040514281527ff9729b6d7a08a5815507b1c9ac0233625be06b13133cad723037669efeeb993d60203392a2565b90939192936003549160ff5f9316610d835760018060a01b037f00000000000000000000000000000000000000000000000000000000000000001660409680885197883786015f81525f876020988993039060025afa15610847575f5190803b156100fe578360845f948a519687958694859363ab750e7560e01b8552606060048601528160648601528585013782820184018890527f6da21d5bc6a7534bc686b9294717f12994b13c67183c86668c62d01fcc45315160248401526044830152601f01601f191681010301915afa9081610d70575b50610d2e575050610c346104ea565b6308c379a014610cb3575b81608492515f80516020610dde833981519152339180610c5e816105c3565b0390a2519062461bcd60e51b82526004820152602a60248201527f4e657374696e6720766572696669636174696f6e206661696c65643a20556e6b6044820152693737bbb71032b93937b960b11b6064820152fd5b610cbb610505565b9182610cc8579150610c3f565b6107d9603d610a90936107ef9584515f80516020610dde833981519152339180610cf28582610597565b0390a2845195827f4e657374696e6720766572696669636174696f6e206661696c65643a20000000889485015282519283918686019101610576565b92807f088fec278efd6be93c0da6b2d606074c10b442ce8430edfaeb57d0f9b8a6b13692943381526002855220600160ff1982541617905551914283523392a2565b610d7b9192506104a0565b5f905f610c25565b50610d98935061086691509391931515610411565b335f52600260205260405f20600160ff198254161790556040514281527f088fec278efd6be93c0da6b2d606074c10b442ce8430edfaeb57d0f9b8a6b13660203392a256feae1bcb15067169a5bcd8c845ffcd590c582cd45772a2d6f375b7a86d4d0b5368a2646970667358221220fe38d52fbc34001788757f637d95dec0034209da76e90c81eda5d8b0fb0294fc64736f6c63430008180033",
  "linkReferences": {},
  "deployedLinkReferences": {}
}