{
  "_format": "hh-sol-artifact-1",
  "contractName": "StablecoinManager",
  "sourceName": "backend/contracts/StablecoinManager.sol",
  "abi": [
    {
      "inputs": [
        {
          "internalType": "address",
          "name": "_timelock",
          "type": "address"
        }
      ],
      "stateMutability": "nonpayable",
      "type": "constructor"
    },
    {
      "inputs": [],
      "name": "InvalidAddress",
      "type": "error"
    },
    {
      "inputs": [],
      "name": "LTVTooHigh",
      "type": "error"
    },
    {
      "inputs": [],
      "name": "NotStablecoin",
      "type": "error"
    },
    {
      "inputs": [],
      "name": "OnlyTimelockStablecoinManager",
      "type": "error"
    },
    {
      "inputs": [],
      "name": "ThresholdTooLow",
      "type": "error"
    },
    {
      "anonymous": false,
      "inputs": [
        {
          "indexed": true,
          "internalType": "address",
          "name": "token",
          "type": "address"
        },
        {
          "indexed": false,
          "internalType": "bool",
          "name": "isStable",
          "type": "bool"
        },
        {
          "indexed": false,
          "internalType": "uint256",
          "name": "ltv",
          "type": "uint256"
        },
        {
          "indexed": false,
          "internalType": "uint256",
          "name": "liquidationThreshold",
          "type": "uint256"
        }
      ],
      "name": "StablecoinParamsSet",
      "type": "event"
    },
    {
      "inputs": [],
      "name": "DEFAULT_STABLECOIN_LIQUIDATION_THRESHOLD",
      "outputs": [
        {
          "internalType": "uint256",
          "name": "",
          "type": "uint256"
        }
      ],
      "stateMutability": "view",
      "type": "function"
    },
    {
      "inputs": [],
      "name": "DEFAULT_STABLECOIN_LTV",
      "outputs": [
        {
          "internalType": "uint256",
          "name": "",
          "type": "uint256"
        }
      ],
      "stateMutability": "view",
      "type": "function"
    },
    {
      "inputs": [],
      "name": "DEFAULT_VOLATILE_LTV",
      "outputs": [
        {
          "internalType": "uint256",
          "name": "",
          "type": "uint256"
        }
      ],
      "stateMutability": "view",
      "type": "function"
    },
    {
      "inputs": [],
      "name": "MAX_STABLECOIN_LTV",
      "outputs": [
        {
          "internalType": "uint256",
          "name": "",
          "type": "uint256"
        }
      ],
      "stateMutability": "view",
      "type": "function"
    },
    {
      "inputs": [],
      "name": "MAX_VOLATILE_LTV",
      "outputs": [
        {
          "internalType": "uint256",
          "name": "",
          "type": "uint256"
        }
      ],
      "stateMutability": "view",
      "type": "function"
    },
    {
      "inputs": [],
      "name": "SET_STABLECOIN_PARAMS_PERMISSION",
      "outputs": [
        {
          "internalType": "bytes32",
          "name": "",
          "type": "bytes32"
        }
      ],
      "stateMutability": "view",
      "type": "function"
    },
    {
      "inputs": [
        {
          "internalType": "address",
          "name": "token",
          "type": "address"
        }
      ],
      "name": "getLTV",
      "outputs": [
        {
          "internalType": "uint256",
          "name": "",
          "type": "uint256"
        }
      ],
      "stateMutability": "view",
      "type": "function"
    },
    {
      "inputs": [
        {
          "internalType": "address",
          "name": "token",
          "type": "address"
        }
      ],
      "name": "getLiquidationThreshold",
      "outputs": [
        {
          "internalType": "uint256",
          "name": "",
          "type": "uint256"
        }
      ],
      "stateMutability": "view",
      "type": "function"
    },
    {
      "inputs": [
        {
          "internalType": "address",
          "name": "token",
          "type": "address"
        }
      ],
      "name": "getParams",
      "outputs": [
        {
          "internalType": "bool",
          "name": "",
          "type": "bool"
        },
        {
          "internalType": "uint256",
          "name": "",
          "type": "uint256"
        },
        {
          "internalType": "uint256",
          "name": "",
          "type": "uint256"
        }
      ],
      "stateMutability": "view",
      "type": "function"
    },
    {
      "inputs": [
        {
          "internalType": "address",
          "name": "token",
          "type": "address"
        }
      ],
      "name": "getStablecoinParams",
      "outputs": [
        {
          "internalType": "bool",
          "name": "",
          "type": "bool"
        },
        {
          "internalType": "uint256",
          "name": "",
          "type": "uint256"
        },
        {
          "internalType": "uint256",
          "name": "",
          "type": "uint256"
        }
      ],
      "stateMutability": "view",
      "type": "function"
    },
    {
      "inputs": [
        {
          "internalType": "address",
          "name": "",
          "type": "address"
        }
      ],
      "name": "isStablecoin",
      "outputs": [
        {
          "internalType": "bool",
          "name": "",
          "type": "bool"
        }
      ],
      "stateMutability": "view",
      "type": "function"
    },
    {
      "inputs": [
        {
          "internalType": "address",
          "name": "token",
          "type": "address"
        }
      ],
      "name": "isTokenStablecoin",
      "outputs": [
        {
          "internalType": "bool",
          "name": "",
          "type": "bool"
        }
      ],
      "stateMutability": "view",
      "type": "function"
    },
    {
      "inputs": [
        {
          "internalType": "address",
          "name": "token",
          "type": "address"
        },
        {
          "internalType": "bool",
          "name": "allowed",
          "type": "bool"
        },
        {
          "internalType": "uint256",
          "name": "ltv",
          "type": "uint256"
        },
        {
          "internalType": "uint256",
          "name": "requiredRatio",
          "type": "uint256"
        }
      ],
      "name": "setParams",
      "outputs": [],
      "stateMutability": "nonpayable",
      "type": "function"
    },
    {
      "inputs": [
        {
          "internalType": "address",
          "name": "token",
          "type": "address"
        },
        {
          "internalType": "bool",
          "name": "isStable",
          "type": "bool"
        },
        {
          "internalType": "uint256",
          "name": "ltv",
          "type": "uint256"
        },
        {
          "internalType": "uint256",
          "name": "newThreshold",
          "type": "uint256"
        }
      ],
      "name": "setStablecoinParams",
      "outputs": [],
      "stateMutability": "nonpayable",
      "type": "function"
    },
    {
      "inputs": [
        {
          "internalType": "address",
          "name": "",
          "type": "address"
        }
      ],
      "name": "stablecoinLTV",
      "outputs": [
        {
          "internalType": "uint256",
          "name": "",
          "type": "uint256"
        }
      ],
      "stateMutability": "view",
      "type": "function"
    },
    {
      "inputs": [
        {
          "internalType": "address",
          "name": "",
          "type": "address"
        }
      ],
      "name": "stablecoinLiquidationThreshold",
      "outputs": [
        {
          "internalType": "uint256",
          "name": "",
          "type": "uint256"
        }
      ],
      "stateMutability": "view",
      "type": "function"
    },
    {
      "inputs": [],
      "name": "timelock",
      "outputs": [
        {
          "internalType": "address",
          "name": "",
          "type": "address"
        }
      ],
      "stateMutability": "view",
      "type": "function"
    }
  ],
  "bytecode": "0x608034607057601f6107cd38819003918201601f19168301916001600160401b03831184841017607557808492602094604052833981010312607057516001600160a01b03811690819003607057600080546001600160a01b031916919091179055604051610741908161008c8239f35b600080fd5b634e487b7160e01b600052604160045260246000fdfe608080604052600436101561001357600080fd5b60003560e01c90816316498e0c146104cb575080631a650cc71461048c5780633cf8da831461048757806348b4313b1461048757806377094fcb1461044c5780637b86e42c146104295780637f20ca9f1461040d578063804aacd4146103f157806395bbd494146103d5578063964d9382146103b9578063aca25f9a1461038e578063b41b933314610354578063be4313801461030f578063c80a782114610238578063d25308f714610124578063d33219b4146100fb5763fc0d21c3146100da57600080fd5b346100f65760003660031901126100f6576020604051604b8152f35b600080fd5b346100f65760003660031901126100f6576000546040516001600160a01b039091168152602090f35b346100f657610132366105e0565b600054929390926001600160a01b03163303610227576001600160a01b031692831561021657605a821161020557606e83106101f4576101ef7f4c72d6ac36d59875706a9fa173ac571a5ed7ee21d90777c9e9b8c7f426a7ef63938560005260016020526101b08360406000209060ff801983541691151516179055565b85600052600260205283604060002055856000526003602052806040600020556040519384938460409194939260608201951515825260208201520152565b0390a2005b631cc767c560e11b60005260046000fd5b6317988f8f60e31b60005260046000fd5b63e6c4247b60e01b60005260046000fd5b636c50506960e01b60005260046000fd5b346100f657610246366105e0565b600054929390926001600160a01b03163303610227576001600160a01b03169283156102165781156102ca57605a821161020557606e83106101f4576101ef7f4c72d6ac36d59875706a9fa173ac571a5ed7ee21d90777c9e9b8c7f426a7ef63938560005260016020526101b08360406000209060ff801983541691151516179055565b60405162461bcd60e51b815260206004820152601d60248201527f4c5456206d7573742062652067726561746572207468616e207a65726f0000006044820152606490fd5b346100f65760203660031901126100f6576001600160a01b03610330610501565b168015610216576000526001602052602060ff604060002054166040519015158152f35b346100f65760203660031901126100f6576001600160a01b03610375610501565b1660005260026020526020604060002054604051908152f35b346100f65760203660031901126100f65760206103b16103ac610501565b610691565b604051908152f35b346100f65760003660031901126100f6576020604051606e8152f35b346100f65760003660031901126100f6576020604051605a8152f35b346100f65760003660031901126100f6576020604051604d8152f35b346100f65760003660031901126100f657602060405160558152f35b346100f65760203660031901126100f65760206103b1610447610501565b610617565b346100f65760003660031901126100f65760206040517f964f33913e8f32908d8cad1901c301410b0f8834b9578f08a1cb05727ca41e298152f35b610517565b346100f65760203660031901126100f6576001600160a01b036104ad610501565b166000526001602052602060ff604060002054166040519015158152f35b346100f65760203660031901126100f6576020906001600160a01b036104ef610501565b16600052600382526040600020548152f35b600435906001600160a01b03821682036100f657565b346100f65760203660031901126100f657610530610501565b6001600160a01b0316600081156105d157818152600160205260ff604082205416908281526002602052604081205415156000146105c95782815260026020526040812054925b80825260036020526040822054156105bd57816040916105b99352600360205220545b6040519384938460409194939260608201951515825260208201520152565b0390f35b50506105b9606e61059a565b605592610577565b63e6c4247b60e01b8152600490fd5b60809060031901126100f6576004356001600160a01b03811681036100f6579060243580151581036100f657906044359060643590565b6001600160a01b031680156102165780600052600160205260ff60406000205416610666578060005260036020526040600020546106555750600090565b600052600360205260406000205490565b6000818152600360205260409020541561068b57600052600360205260406000205490565b50606e90565b6001600160a01b031680156102165780600052600160205260ff604060002054166106e0578060005260026020526040600020546106cf5750604b90565b600052600260205260406000205490565b6000818152600260205260409020541561070557600052600260205260406000205490565b5060559056fea264697066735822122073dca396d70cf9f9a6a7e485aef4e9f7698eb4c19323689ab1485675856dbf5564736f6c634300081c0033",
  "linkReferences": {},
  "deployedLinkReferences": {}
}