{
  "_format": "hh-sol-artifact-1",
  "contractName": "StablecoinManager",
  "sourceName": "backend/contracts/StablecoinManager.sol",
  "abi": [
    {
      "inputs": [
        {
          "internalType": "address",
          "name": "_timelock",
          "type": "address"
        }
      ],
      "stateMutability": "nonpayable",
      "type": "constructor"
    },
    {
      "inputs": [],
      "name": "InvalidAddress",
      "type": "error"
    },
    {
      "inputs": [],
      "name": "LTVTooHigh",
      "type": "error"
    },
    {
      "inputs": [],
      "name": "NotStablecoin",
      "type": "error"
    },
    {
      "inputs": [],
      "name": "OnlyTimelockStablecoinManager",
      "type": "error"
    },
    {
      "inputs": [],
      "name": "ThresholdTooLow",
      "type": "error"
    },
    {
      "anonymous": false,
      "inputs": [
        {
          "indexed": true,
          "internalType": "address",
          "name": "token",
          "type": "address"
        },
        {
          "indexed": false,
          "internalType": "bool",
          "name": "isStable",
          "type": "bool"
        },
        {
          "indexed": false,
          "internalType": "uint256",
          "name": "ltv",
          "type": "uint256"
        },
        {
          "indexed": false,
          "internalType": "uint256",
          "name": "liquidationThreshold",
          "type": "uint256"
        }
      ],
      "name": "StablecoinParamsSet",
      "type": "event"
    },
    {
      "inputs": [],
      "name": "DEFAULT_STABLECOIN_LIQUIDATION_THRESHOLD",
      "outputs": [
        {
          "internalType": "uint256",
          "name": "",
          "type": "uint256"
        }
      ],
      "stateMutability": "view",
      "type": "function"
    },
    {
      "inputs": [],
      "name": "DEFAULT_STABLECOIN_LTV",
      "outputs": [
        {
          "internalType": "uint256",
          "name": "",
          "type": "uint256"
        }
      ],
      "stateMutability": "view",
      "type": "function"
    },
    {
      "inputs": [],
      "name": "DEFAULT_VOLATILE_LTV",
      "outputs": [
        {
          "internalType": "uint256",
          "name": "",
          "type": "uint256"
        }
      ],
      "stateMutability": "view",
      "type": "function"
    },
    {
      "inputs": [],
      "name": "MAX_STABLECOIN_LTV",
      "outputs": [
        {
          "internalType": "uint256",
          "name": "",
          "type": "uint256"
        }
      ],
      "stateMutability": "view",
      "type": "function"
    },
    {
      "inputs": [],
      "name": "MAX_VOLATILE_LTV",
      "outputs": [
        {
          "internalType": "uint256",
          "name": "",
          "type": "uint256"
        }
      ],
      "stateMutability": "view",
      "type": "function"
    },
    {
      "inputs": [],
      "name": "SET_STABLECOIN_PARAMS_PERMISSION",
      "outputs": [
        {
          "internalType": "bytes32",
          "name": "",
          "type": "bytes32"
        }
      ],
      "stateMutability": "view",
      "type": "function"
    },
    {
      "inputs": [
        {
          "internalType": "address",
          "name": "token",
          "type": "address"
        }
      ],
      "name": "getLTV",
      "outputs": [
        {
          "internalType": "uint256",
          "name": "",
          "type": "uint256"
        }
      ],
      "stateMutability": "view",
      "type": "function"
    },
    {
      "inputs": [
        {
          "internalType": "address",
          "name": "token",
          "type": "address"
        }
      ],
      "name": "getLiquidationThreshold",
      "outputs": [
        {
          "internalType": "uint256",
          "name": "",
          "type": "uint256"
        }
      ],
      "stateMutability": "view",
      "type": "function"
    },
    {
      "inputs": [
        {
          "internalType": "address",
          "name": "token",
          "type": "address"
        }
      ],
      "name": "getParams",
      "outputs": [
        {
          "internalType": "bool",
          "name": "",
          "type": "bool"
        },
        {
          "internalType": "uint256",
          "name": "",
          "type": "uint256"
        },
        {
          "internalType": "uint256",
          "name": "",
          "type": "uint256"
        }
      ],
      "stateMutability": "view",
      "type": "function"
    },
    {
      "inputs": [
        {
          "internalType": "address",
          "name": "token",
          "type": "address"
        }
      ],
      "name": "getStablecoinParams",
      "outputs": [
        {
          "internalType": "bool",
          "name": "",
          "type": "bool"
        },
        {
          "internalType": "uint256",
          "name": "",
          "type": "uint256"
        },
        {
          "internalType": "uint256",
          "name": "",
          "type": "uint256"
        }
      ],
      "stateMutability": "view",
      "type": "function"
    },
    {
      "inputs": [
        {
          "internalType": "address",
          "name": "",
          "type": "address"
        }
      ],
      "name": "isStablecoin",
      "outputs": [
        {
          "internalType": "bool",
          "name": "",
          "type": "bool"
        }
      ],
      "stateMutability": "view",
      "type": "function"
    },
    {
      "inputs": [
        {
          "internalType": "address",
          "name": "token",
          "type": "address"
        }
      ],
      "name": "isTokenStablecoin",
      "outputs": [
        {
          "internalType": "bool",
          "name": "",
          "type": "bool"
        }
      ],
      "stateMutability": "view",
      "type": "function"
    },
    {
      "inputs": [
        {
          "internalType": "address",
          "name": "token",
          "type": "address"
        },
        {
          "internalType": "bool",
          "name": "allowed",
          "type": "bool"
        },
        {
          "internalType": "uint256",
          "name": "ltv",
          "type": "uint256"
        },
        {
          "internalType": "uint256",
          "name": "requiredRatio",
          "type": "uint256"
        }
      ],
      "name": "setParams",
      "outputs": [],
      "stateMutability": "nonpayable",
      "type": "function"
    },
    {
      "inputs": [
        {
          "internalType": "address",
          "name": "token",
          "type": "address"
        },
        {
          "internalType": "bool",
          "name": "isStable",
          "type": "bool"
        },
        {
          "internalType": "uint256",
          "name": "ltv",
          "type": "uint256"
        },
        {
          "internalType": "uint256",
          "name": "newThreshold",
          "type": "uint256"
        }
      ],
      "name": "setStablecoinParams",
      "outputs": [],
      "stateMutability": "nonpayable",
      "type": "function"
    },
    {
      "inputs": [
        {
          "internalType": "address",
          "name": "",
          "type": "address"
        }
      ],
      "name": "stablecoinLTV",
      "outputs": [
        {
          "internalType": "uint256",
          "name": "",
          "type": "uint256"
        }
      ],
      "stateMutability": "view",
      "type": "function"
    },
    {
      "inputs": [
        {
          "internalType": "address",
          "name": "",
          "type": "address"
        }
      ],
      "name": "stablecoinLiquidationThreshold",
      "outputs": [
        {
          "internalType": "uint256",
          "name": "",
          "type": "uint256"
        }
      ],
      "stateMutability": "view",
      "type": "function"
    },
    {
      "inputs": [],
      "name": "timelock",
      "outputs": [
        {
          "internalType": "address",
          "name": "",
          "type": "address"
        }
      ],
      "stateMutability": "view",
      "type": "function"
    }
  ],
  "bytecode": "0x6080806040523460915760208161152f8038038091601c82856095565b833981010312609157516001600160a01b0381169081900360915760536040805167a36bfd50887d694b6020820152602081526095565b606f6040805167b3d61fc3fa5272a96020820152602081526095565b5f80546001600160a01b03191691909117905560405161146390816100cc8239f35b5f80fd5b601f909101601f19168101906001600160401b0382119082101760b757604052565b634e487b7160e01b5f52604160045260245ffdfe6080806040526004361015610012575f80fd5b5f3560e01c90816316498e0c14610ec6575080631a650cc714610e895780633cf8da8314610c9b57806348b4313b14610a9657806377094fcb14610a5c5780637b86e42c14610a395780637f20ca9f14610a1e578063804aacd414610a0357806395bbd494146109e8578063964d9382146109cd578063aca25f9a146109a2578063b41b93331461096a578063be43138014610892578063c80a7821146104b5578063d25308f71461011d578063d33219b4146100f65763fc0d21c3146100d7575f80fd5b346100f2575f3660031901126100f2576020604051604b8152f35b5f80fd5b346100f2575f3660031901126100f2575f546040516001600160a01b039091168152602090f35b346100f25761012b36610f10565b919261014b6040805167b65f16919b4042d8602082015260208152610f47565b6101696040805167c38140770284d2bc602082015260208152610f47565b6101876040805167b7b8aa449f3a1cd3602082015260208152610f47565b5f546001600160a01b031633146101c5576101b66040805167e0ccfb3fd4a9562c602082015260208152610f47565b636c50506960e01b5f5260045ffd5b6101e36040805167bbf7b82e9d8e28f4602082015260208152610f47565b61020160408051672cdecf9269d78a52602082015260208152610f47565b61021f604080516799166c7e8132817c602082015260208152610f47565b61023d604080516751937b40fc4b2272602082015260208152610f47565b61025b6040805167b836f26ffeb61e01602082015260208152610f47565b6001600160a01b031692836102975761028860408051674f1da765b51ed27a602082015260208152610f47565b63e6c4247b60e01b5f5260045ffd5b6102b560408051679164017bbcd16fc2602082015260208152610f47565b6102d3604080516745028f6297602095602082015260208152610f47565b605a821115610309576102fa6040805167c72b36c7467bcf92602082015260208152610f47565b6317988f8f60e31b5f5260045ffd5b61032760408051677b4afc62e08650f5602082015260208152610f47565b6103456040805167b0a4ba292c038af8602082015260208152610f47565b606e8310156103995761036c604080516791eea49b6b5d927c602082015260208152610f47565b61038a6040805167d0929f64d2ed3c56602082015260208152610f47565b631cc767c560e11b5f5260045ffd5b6104b07f4c72d6ac36d59875706a9fa173ac571a5ed7ee21d90777c9e9b8c7f426a7ef63936103dc6040805167274e1d2bc8cf4ef1602082015260208152610f47565b6103fa6040805167ee70ea5d41522ca9602082015260208152610f47565b855f52600160205261041b8360405f209060ff801983541691151516179055565b61043960408051674644d29c5b1d3a18602082015260208152610f47565b855f5260026020528360405f2055610465604080516791f7cc4992b50696602082015260208152610f47565b855f5260036020528060405f20556104916040805167bb017d852b49926c602082015260208152610f47565b6040519384938460409194939260608201951515825260208201520152565b0390a2005b346100f2576104c336610f10565b91926104e36040805167f3ad50df4e994c25602082015260208152610f47565b6105016040805167c38140770284d2bc602082015260208152610f47565b61051f6040805167b7b8aa449f3a1cd3602082015260208152610f47565b5f546001600160a01b0316331461054e576101b66040805167e0ccfb3fd4a9562c602082015260208152610f47565b61056c6040805167bbf7b82e9d8e28f4602082015260208152610f47565b61058a60408051672cdecf9269d78a52602082015260208152610f47565b6105a8604080516767dcc7e34aa5b967602082015260208152610f47565b6105c66040805167d13416921d2bc200602082015260208152610f47565b6105e4604080516722018a91af5a34c0602082015260208152610f47565b6001600160a01b03169283610611576102886040805167e94ed6d1a54614fb602082015260208152610f47565b61062f6040805167ce4e56072b459d93602082015260208152610f47565b61064d60408051673b3f04b5d4a4f32b602082015260208152610f47565b61066b60408051670da97954a891a1a9602082015260208152610f47565b811561084d5761068f6040805167ab94782f981c99b5602082015260208152610f47565b6106ad604080516765da9ac26d109d04602082015260208152610f47565b605a8211156106d4576102fa60408051671045c2a23299e553602082015260208152610f47565b6106f26040805167564c5244ecd6be4b602082015260208152610f47565b610710604080516744bb74ac1ef55aac602082015260208152610f47565b606e8310156107555761073760408051679c02ef31b0cb0739602082015260208152610f47565b61038a6040805167280388963fad9e58602082015260208152610f47565b6104b07f4c72d6ac36d59875706a9fa173ac571a5ed7ee21d90777c9e9b8c7f426a7ef63936107986040805167d3adabd73d50349f602082015260208152610f47565b6107b6604080516721ee4db5a89c1af8602082015260208152610f47565b855f5260016020526107d78360405f209060ff801983541691151516179055565b6107f56040805167e3bdf91fb97c4cdc602082015260208152610f47565b855f5260026020528360405f205561082160408051671e9ace0a77f7efb6602082015260208152610f47565b855f5260036020528060405f20556104916040805167d1011bbfcfe3ba1f602082015260208152610f47565b60405162461bcd60e51b815260206004820152601d60248201527f4c5456206d7573742062652067726561746572207468616e207a65726f0000006044820152606490fd5b346100f25760203660031901126100f2576108ab610efa565b6108c96040805167646525294e34fc58602082015260208152610f47565b6108e76040805167e3c204873f845644602082015260208152610f47565b6001600160a01b031680610913576102886040805167f416e5264a487562602082015260208152610f47565b6109316040805167d4296e3c0007e747602082015260208152610f47565b61094f6040805167a259921026466a15602082015260208152610f47565b5f526001602052602060ff60405f2054166040519015158152f35b346100f25760203660031901126100f2576001600160a01b0361098b610efa565b165f526002602052602060405f2054604051908152f35b346100f25760203660031901126100f25760206109c56109c0610efa565b6111d4565b604051908152f35b346100f2575f3660031901126100f2576020604051606e8152f35b346100f2575f3660031901126100f2576020604051605a8152f35b346100f2575f3660031901126100f2576020604051604d8152f35b346100f2575f3660031901126100f257602060405160558152f35b346100f25760203660031901126100f25760206109c5610a57610efa565b610f7d565b346100f2575f3660031901126100f25760206040517f964f33913e8f32908d8cad1901c301410b0f8834b9578f08a1cb05727ca41e298152f35b346100f25760203660031901126100f257610aaf610efa565b610acd60408051672762fc36a589f1f8602082015260208152610f47565b610aeb604080516799f9351116c19293602082015260208152610f47565b6001600160a01b031680610b17576102886040805167946cc9a99bbbde32602082015260208152610f47565b610b356040805167dc7dc3bfe6de665d602082015260208152610f47565b610b536040805167ef3e2553501bcaec602082015260208152610f47565b805f52600160205260ff60405f205416815f52600260205260405f205415801590610c73575b80610c4a575b15610c4257815f52600260205260405f2054915b805f52600360205260405f205415801590610c1a575b80610bf1575b15610be6575f526003602052610be260405f20546040519384938460409194939260608201951515825260208201520152565b0390f35b50610be2606e610491565b50610c13604080516746d6a95ff364513760c11b602082015260208152610f47565b6001610baf565b50610c3c60408051672f77e1ca1522e24f60c11b602082015260208152610f47565b5f610ba9565b605591610b93565b50610c6c604080516731d2c153634c7ff560c01b602082015260208152610f47565b6001610b7f565b50610c956040805167402a31ceaa89b05d60c01b602082015260208152610f47565b5f610b79565b346100f25760203660031901126100f257610cb4610efa565b610cd26040805167bfd3dc82aad2cd52602082015260208152610f47565b610cf06040805167c1becd11af8c4c16602082015260208152610f47565b6001600160a01b031680610d1c57610288604080516772093a33eb27a6e5602082015260208152610f47565b610d3a6040805167dfa952822b810ac5602082015260208152610f47565b610d586040805167d920c760dacb0f41602082015260208152610f47565b805f52600160205260ff60405f205416815f52600260205260405f205415801590610e61575b80610e38575b15610e3057815f52600260205260405f2054915b805f52600360205260405f205415801590610e08575b80610de65715610be6575f526003602052610be260405f20546040519384938460409194939260608201951515825260208201520152565b50610c136040805167fde772253e1b3f2560c01b602082015260208152610f47565b50610e2a604080516706f3df987d0426c360c01b602082015260208152610f47565b5f610dae565b605591610d98565b50610e5a6040805167ddd63517a2e5a12160c01b602082015260208152610f47565b6001610d84565b50610e836040805167a6c349b5b5d46c7160c01b602082015260208152610f47565b5f610d7e565b346100f25760203660031901126100f2576001600160a01b03610eaa610efa565b165f526001602052602060ff60405f2054166040519015158152f35b346100f25760203660031901126100f2576020906001600160a01b03610eea610efa565b165f526003825260405f20548152f35b600435906001600160a01b03821682036100f257565b60809060031901126100f2576004356001600160a01b03811681036100f2579060243580151581036100f257906044359060643590565b90601f8019910116810190811067ffffffffffffffff821117610f6957604052565b634e487b7160e01b5f52604160045260245ffd5b610f9b6040805167ec4a17310d6d3212602082015260208152610f47565b610fb9604080516791fe106143b5c2a6602082015260208152610f47565b6001600160a01b031680610fe5576102886040805167d65b150c091cfa23602082015260208152610f47565b61100360408051672c900c7a235f8efb602082015260208152610f47565b6110216040805167afbd91ffc3eeae3b602082015260208152610f47565b805f52600160205260ff60405f2054165f146110f9576110556040805167789657e8af8b0868602082015260208152610f47565b6110736040805167a422b072bb857cab602082015260208152610f47565b805f52600360205260405f2054158015906110d1575b806110a9575b156110a3575f52600360205260405f205490565b50606e90565b506110ca6040805166c76984ecef1a3760c11b602082015260208152610f47565b600161108f565b506110f360408051673f92e089b917d32b60c11b602082015260208152610f47565b5f611089565b611117604080516782b8b518383d90bd602082015260208152610f47565b611135604080516717cc1fd3a9618930602082015260208152610f47565b5f818152600360205260409020541561119357611166604080516707c5fc8d6a6dc13f602082015260208152610f47565b611184604080516718c150cf7a3d29ae602082015260208152610f47565b5f52600360205260405f205490565b506111b26040805167b39b2485d8c34294602082015260208152610f47565b6111d06040805167c6447881bf738c38602082015260208152610f47565b5f90565b6111f2604080516793ce5af6dcd5413d602082015260208152610f47565b6112106040805167167c65bd20d40ef4602082015260208152610f47565b6001600160a01b03168061123c57610288604080516750844f22d648422f602082015260208152610f47565b61125a60408051678b46f31b74912df5602082015260208152610f47565b611278604080516796cc29f6b986910f602082015260208152610f47565b805f52600160205260ff60405f2054165f14611351576112ac604080516731ef9ea01726d03f602082015260208152610f47565b6112ca60408051674e6eb7c59b8b5188602082015260208152610f47565b805f52600260205260405f205415801590611329575b80611300575b156112fa575f52600260205260405f205490565b50605590565b5061132260408051670af2c639c10fa1c160c21b602082015260208152610f47565b60016112e6565b5061134b60408051676d5bd4f93f3c4b5760c11b602082015260208152610f47565b5f6112e0565b61136f604080516712babda35abb09d8602082015260208152610f47565b61138d604080516714edcf89ac967ab0602082015260208152610f47565b5f81815260026020526040902054156113eb576113be60408051677dcb05602ad3abd5602082015260208152610f47565b6113dc604080516740fc715d97c69580602082015260208152610f47565b5f52600260205260405f205490565b5061140a6040805167d0c03e118614e938602082015260208152610f47565b6114286040805167718ff737f3f1419b602082015260208152610f47565b604b9056fea26469706673582212206de7b499ba46738f4b199542f343cc66bea13f7c5715b018b9ab473271bb500964736f6c634300081c0033",
  "linkReferences": {},
  "deployedLinkReferences": {}
}