{
  "_format": "hh-sol-artifact-1",
  "contractName": "VotingToken",
  "sourceName": "backend/contracts/VotingToken.sol",
  "abi": [
    {
      "inputs": [
        {
          "internalType": "address",
          "name": "_dao",
          "type": "address"
        }
      ],
      "stateMutability": "nonpayable",
      "type": "constructor"
    },
    {
      "inputs": [],
      "name": "AccessControlBadConfirmation",
      "type": "error"
    },
    {
      "inputs": [
        {
          "internalType": "address",
          "name": "account",
          "type": "address"
        },
        {
          "internalType": "bytes32",
          "name": "neededRole",
          "type": "bytes32"
        }
      ],
      "name": "AccessControlUnauthorizedAccount",
      "type": "error"
    },
    {
      "inputs": [
        {
          "internalType": "address",
          "name": "sender",
          "type": "address"
        },
        {
          "internalType": "uint256",
          "name": "tokenId",
          "type": "uint256"
        },
        {
          "internalType": "address",
          "name": "owner",
          "type": "address"
        }
      ],
      "name": "ERC721IncorrectOwner",
      "type": "error"
    },
    {
      "inputs": [
        {
          "internalType": "address",
          "name": "operator",
          "type": "address"
        },
        {
          "internalType": "uint256",
          "name": "tokenId",
          "type": "uint256"
        }
      ],
      "name": "ERC721InsufficientApproval",
      "type": "error"
    },
    {
      "inputs": [
        {
          "internalType": "address",
          "name": "approver",
          "type": "address"
        }
      ],
      "name": "ERC721InvalidApprover",
      "type": "error"
    },
    {
      "inputs": [
        {
          "internalType": "address",
          "name": "operator",
          "type": "address"
        }
      ],
      "name": "ERC721InvalidOperator",
      "type": "error"
    },
    {
      "inputs": [
        {
          "internalType": "address",
          "name": "owner",
          "type": "address"
        }
      ],
      "name": "ERC721InvalidOwner",
      "type": "error"
    },
    {
      "inputs": [
        {
          "internalType": "address",
          "name": "receiver",
          "type": "address"
        }
      ],
      "name": "ERC721InvalidReceiver",
      "type": "error"
    },
    {
      "inputs": [
        {
          "internalType": "address",
          "name": "sender",
          "type": "address"
        }
      ],
      "name": "ERC721InvalidSender",
      "type": "error"
    },
    {
      "inputs": [
        {
          "internalType": "uint256",
          "name": "tokenId",
          "type": "uint256"
        }
      ],
      "name": "ERC721NonexistentToken",
      "type": "error"
    },
    {
      "anonymous": false,
      "inputs": [
        {
          "indexed": true,
          "internalType": "address",
          "name": "owner",
          "type": "address"
        },
        {
          "indexed": true,
          "internalType": "address",
          "name": "approved",
          "type": "address"
        },
        {
          "indexed": true,
          "internalType": "uint256",
          "name": "tokenId",
          "type": "uint256"
        }
      ],
      "name": "Approval",
      "type": "event"
    },
    {
      "anonymous": false,
      "inputs": [
        {
          "indexed": true,
          "internalType": "address",
          "name": "owner",
          "type": "address"
        },
        {
          "indexed": true,
          "internalType": "address",
          "name": "operator",
          "type": "address"
        },
        {
          "indexed": false,
          "internalType": "bool",
          "name": "approved",
          "type": "bool"
        }
      ],
      "name": "ApprovalForAll",
      "type": "event"
    },
    {
      "anonymous": false,
      "inputs": [
        {
          "indexed": true,
          "internalType": "address",
          "name": "newDAO",
          "type": "address"
        }
      ],
      "name": "DAOSet",
      "type": "event"
    },
    {
      "anonymous": false,
      "inputs": [
        {
          "indexed": true,
          "internalType": "bytes32",
          "name": "role",
          "type": "bytes32"
        },
        {
          "indexed": true,
          "internalType": "bytes32",
          "name": "previousAdminRole",
          "type": "bytes32"
        },
        {
          "indexed": true,
          "internalType": "bytes32",
          "name": "newAdminRole",
          "type": "bytes32"
        }
      ],
      "name": "RoleAdminChanged",
      "type": "event"
    },
    {
      "anonymous": false,
      "inputs": [
        {
          "indexed": true,
          "internalType": "bytes32",
          "name": "role",
          "type": "bytes32"
        },
        {
          "indexed": true,
          "internalType": "address",
          "name": "account",
          "type": "address"
        },
        {
          "indexed": true,
          "internalType": "address",
          "name": "sender",
          "type": "address"
        }
      ],
      "name": "RoleGranted",
      "type": "event"
    },
    {
      "anonymous": false,
      "inputs": [
        {
          "indexed": true,
          "internalType": "bytes32",
          "name": "role",
          "type": "bytes32"
        },
        {
          "indexed": true,
          "internalType": "address",
          "name": "account",
          "type": "address"
        },
        {
          "indexed": true,
          "internalType": "address",
          "name": "sender",
          "type": "address"
        }
      ],
      "name": "RoleRevoked",
      "type": "event"
    },
    {
      "anonymous": false,
      "inputs": [
        {
          "indexed": true,
          "internalType": "address",
          "name": "to",
          "type": "address"
        },
        {
          "indexed": true,
          "internalType": "uint256",
          "name": "tokenId",
          "type": "uint256"
        }
      ],
      "name": "TokenMinted",
      "type": "event"
    },
    {
      "anonymous": false,
      "inputs": [
        {
          "indexed": true,
          "internalType": "address",
          "name": "voter",
          "type": "address"
        },
        {
          "indexed": false,
          "internalType": "uint256",
          "name": "amount",
          "type": "uint256"
        }
      ],
      "name": "TokenSlashed",
      "type": "event"
    },
    {
      "anonymous": false,
      "inputs": [
        {
          "indexed": true,
          "internalType": "address",
          "name": "from",
          "type": "address"
        },
        {
          "indexed": true,
          "internalType": "address",
          "name": "to",
          "type": "address"
        },
        {
          "indexed": true,
          "internalType": "uint256",
          "name": "tokenId",
          "type": "uint256"
        }
      ],
      "name": "Transfer",
      "type": "event"
    },
    {
      "inputs": [],
      "name": "DEFAULT_ADMIN_ROLE",
      "outputs": [
        {
          "internalType": "bytes32",
          "name": "",
          "type": "bytes32"
        }
      ],
      "stateMutability": "view",
      "type": "function"
    },
    {
      "inputs": [],
      "name": "MINTER_ROLE",
      "outputs": [
        {
          "internalType": "bytes32",
          "name": "",
          "type": "bytes32"
        }
      ],
      "stateMutability": "view",
      "type": "function"
    },
    {
      "inputs": [
        {
          "internalType": "address",
          "name": "to",
          "type": "address"
        },
        {
          "internalType": "uint256",
          "name": "tokenId",
          "type": "uint256"
        }
      ],
      "name": "approve",
      "outputs": [],
      "stateMutability": "nonpayable",
      "type": "function"
    },
    {
      "inputs": [
        {
          "internalType": "address",
          "name": "owner",
          "type": "address"
        }
      ],
      "name": "balanceOf",
      "outputs": [
        {
          "internalType": "uint256",
          "name": "",
          "type": "uint256"
        }
      ],
      "stateMutability": "view",
      "type": "function"
    },
    {
      "inputs": [],
      "name": "dao",
      "outputs": [
        {
          "internalType": "address",
          "name": "",
          "type": "address"
        }
      ],
      "stateMutability": "view",
      "type": "function"
    },
    {
      "inputs": [
        {
          "internalType": "uint256",
          "name": "tokenId",
          "type": "uint256"
        }
      ],
      "name": "getApproved",
      "outputs": [
        {
          "internalType": "address",
          "name": "",
          "type": "address"
        }
      ],
      "stateMutability": "view",
      "type": "function"
    },
    {
      "inputs": [
        {
          "internalType": "bytes32",
          "name": "role",
          "type": "bytes32"
        }
      ],
      "name": "getRoleAdmin",
      "outputs": [
        {
          "internalType": "bytes32",
          "name": "",
          "type": "bytes32"
        }
      ],
      "stateMutability": "view",
      "type": "function"
    },
    {
      "inputs": [
        {
          "internalType": "address",
          "name": "user",
          "type": "address"
        }
      ],
      "name": "getVotes",
      "outputs": [
        {
          "internalType": "uint256",
          "name": "",
          "type": "uint256"
        }
      ],
      "stateMutability": "view",
      "type": "function"
    },
    {
      "inputs": [
        {
          "internalType": "bytes32",
          "name": "role",
          "type": "bytes32"
        },
        {
          "internalType": "address",
          "name": "account",
          "type": "address"
        }
      ],
      "name": "grantRole",
      "outputs": [],
      "stateMutability": "nonpayable",
      "type": "function"
    },
    {
      "inputs": [
        {
          "internalType": "bytes32",
          "name": "role",
          "type": "bytes32"
        },
        {
          "internalType": "address",
          "name": "account",
          "type": "address"
        }
      ],
      "name": "hasRole",
      "outputs": [
        {
          "internalType": "bool",
          "name": "",
          "type": "bool"
        }
      ],
      "stateMutability": "view",
      "type": "function"
    },
    {
      "inputs": [
        {
          "internalType": "address",
          "name": "owner",
          "type": "address"
        },
        {
          "internalType": "address",
          "name": "operator",
          "type": "address"
        }
      ],
      "name": "isApprovedForAll",
      "outputs": [
        {
          "internalType": "bool",
          "name": "",
          "type": "bool"
        }
      ],
      "stateMutability": "view",
      "type": "function"
    },
    {
      "inputs": [
        {
          "internalType": "address",
          "name": "to",
          "type": "address"
        },
        {
          "internalType": "uint256",
          "name": "amount",
          "type": "uint256"
        }
      ],
      "name": "mint",
      "outputs": [],
      "stateMutability": "nonpayable",
      "type": "function"
    },
    {
      "inputs": [],
      "name": "name",
      "outputs": [
        {
          "internalType": "string",
          "name": "",
          "type": "string"
        }
      ],
      "stateMutability": "view",
      "type": "function"
    },
    {
      "inputs": [],
      "name": "nextTokenId",
      "outputs": [
        {
          "internalType": "uint256",
          "name": "",
          "type": "uint256"
        }
      ],
      "stateMutability": "view",
      "type": "function"
    },
    {
      "inputs": [
        {
          "internalType": "uint256",
          "name": "tokenId",
          "type": "uint256"
        }
      ],
      "name": "ownerOf",
      "outputs": [
        {
          "internalType": "address",
          "name": "",
          "type": "address"
        }
      ],
      "stateMutability": "view",
      "type": "function"
    },
    {
      "inputs": [
        {
          "internalType": "bytes32",
          "name": "role",
          "type": "bytes32"
        },
        {
          "internalType": "address",
          "name": "callerConfirmation",
          "type": "address"
        }
      ],
      "name": "renounceRole",
      "outputs": [],
      "stateMutability": "nonpayable",
      "type": "function"
    },
    {
      "inputs": [
        {
          "internalType": "bytes32",
          "name": "role",
          "type": "bytes32"
        },
        {
          "internalType": "address",
          "name": "account",
          "type": "address"
        }
      ],
      "name": "revokeRole",
      "outputs": [],
      "stateMutability": "nonpayable",
      "type": "function"
    },
    {
      "inputs": [
        {
          "internalType": "address",
          "name": "from",
          "type": "address"
        },
        {
          "internalType": "address",
          "name": "to",
          "type": "address"
        },
        {
          "internalType": "uint256",
          "name": "tokenId",
          "type": "uint256"
        }
      ],
      "name": "safeTransferFrom",
      "outputs": [],
      "stateMutability": "nonpayable",
      "type": "function"
    },
    {
      "inputs": [
        {
          "internalType": "address",
          "name": "from",
          "type": "address"
        },
        {
          "internalType": "address",
          "name": "to",
          "type": "address"
        },
        {
          "internalType": "uint256",
          "name": "tokenId",
          "type": "uint256"
        },
        {
          "internalType": "bytes",
          "name": "data",
          "type": "bytes"
        }
      ],
      "name": "safeTransferFrom",
      "outputs": [],
      "stateMutability": "nonpayable",
      "type": "function"
    },
    {
      "inputs": [
        {
          "internalType": "address",
          "name": "operator",
          "type": "address"
        },
        {
          "internalType": "bool",
          "name": "approved",
          "type": "bool"
        }
      ],
      "name": "setApprovalForAll",
      "outputs": [],
      "stateMutability": "nonpayable",
      "type": "function"
    },
    {
      "inputs": [
        {
          "internalType": "address",
          "name": "newDAO",
          "type": "address"
        }
      ],
      "name": "setDAO",
      "outputs": [],
      "stateMutability": "nonpayable",
      "type": "function"
    },
    {
      "inputs": [
        {
          "internalType": "address",
          "name": "voter",
          "type": "address"
        },
        {
          "internalType": "uint256",
          "name": "amount",
          "type": "uint256"
        }
      ],
      "name": "slash",
      "outputs": [],
      "stateMutability": "nonpayable",
      "type": "function"
    },
    {
      "inputs": [
        {
          "internalType": "bytes4",
          "name": "interfaceId",
          "type": "bytes4"
        }
      ],
      "name": "supportsInterface",
      "outputs": [
        {
          "internalType": "bool",
          "name": "",
          "type": "bool"
        }
      ],
      "stateMutability": "view",
      "type": "function"
    },
    {
      "inputs": [],
      "name": "symbol",
      "outputs": [
        {
          "internalType": "string",
          "name": "",
          "type": "string"
        }
      ],
      "stateMutability": "view",
      "type": "function"
    },
    {
      "inputs": [
        {
          "internalType": "uint256",
          "name": "tokenId",
          "type": "uint256"
        }
      ],
      "name": "tokenURI",
      "outputs": [
        {
          "internalType": "string",
          "name": "",
          "type": "string"
        }
      ],
      "stateMutability": "view",
      "type": "function"
    },
    {
      "inputs": [
        {
          "internalType": "address",
          "name": "from",
          "type": "address"
        },
        {
          "internalType": "address",
          "name": "to",
          "type": "address"
        },
        {
          "internalType": "uint256",
          "name": "tokenId",
          "type": "uint256"
        }
      ],
      "name": "transferFrom",
      "outputs": [],
      "stateMutability": "nonpayable",
      "type": "function"
    }
  ],
  "bytecode": "0x6080604052346103b9576119226020813803918261001c816103be565b9384928339810103126103b957516001600160a01b038116908190036103b95761004660406103be565b90601082526f23b7bb32b93730b731b2902a37b5b2b760811b602083015261006e60406103be565b600381526223a7ab60e91b602082015282519091906001600160401b0381116102c457600054600181811c911680156103af575b60208210146102a457601f811161034b575b506020601f82116001146102e557819293946000926102da575b50508160011b916000199060031b1c1916176000555b81516001600160401b0381116102c457600154600181811c911680156102ba575b60208210146102a457601f811161023f575b50602092601f82116001146101da57928192936000926101cf575b50508160011b916000199060031b1c1916176001555b801561018a57600880546001600160a01b0319169190911790556001600755610170336103e3565b5061017a3361045f565b506040516113c6908161051c8239f35b60405162461bcd60e51b815260206004820152601460248201527f44414f20616464726573732072657175697265640000000000000000000000006044820152606490fd5b015190503880610132565b601f198216936001600052806000209160005b868110610227575083600195961061020e575b505050811b01600155610148565b015160001960f88460031b161c19169055388080610200565b919260206001819286850151815501940192016101ed565b60016000527fb10e2d527612073b26eecdfd717e6a320cf44b4afac2b0732d9fcbe2b7fa0cf6601f830160051c8101916020841061029a575b601f0160051c01905b81811061028e5750610117565b60008155600101610281565b9091508190610278565b634e487b7160e01b600052602260045260246000fd5b90607f1690610105565b634e487b7160e01b600052604160045260246000fd5b0151905038806100ce565b601f1982169060008052806000209160005b8181106103335750958360019596971061031a575b505050811b016000556100e4565b015160001960f88460031b161c1916905538808061030c565b9192602060018192868b0151815501940192016102f7565b600080527f290decd9548b62a8d60345a988386fc84ba6bc95484008f6362f93160ef3e563601f830160051c810191602084106103a5575b601f0160051c01905b81811061039957506100b4565b6000815560010161038c565b9091508190610383565b90607f16906100a2565b600080fd5b6040519190601f01601f191682016001600160401b038111838210176102c457604052565b6001600160a01b0381166000908152600080516020611902833981519152602052604090205460ff16610459576001600160a01b0316600081815260008051602061190283398151915260205260408120805460ff191660011790553391906000805160206118e28339815191528180a4600190565b50600090565b6001600160a01b03811660009081527f3195c024b2ddd6d9b8f6c836aa52f67fe69376c8903d009b80229b3ce4425f51602052604090205460ff16610459576001600160a01b031660008181527f3195c024b2ddd6d9b8f6c836aa52f67fe69376c8903d009b80229b3ce4425f5160205260408120805460ff191660011790553391907f9f2df0fed2c77648de5860a4cc508cd0818c85b8b8a1ab4ceeef8d981c8956a6906000805160206118e28339815191529080a460019056fe608080604052600436101561001357600080fd5b600090813560e01c90816301ffc9a714610f7a5750806302fb4d8514610d0657806306fdde0314610c4b578063081812fc14610c0e578063095ea7b314610b2457806323b872dd14610acd578063248a9ca314610a9f5780632f2ff15d14610a5e57806336568abe14610a1957806340c10f191461075f5780634162169f1461073657806342842e0e146106d05780636352211e1461069f57806370a082311461050457806375794a3c1461068157806391d148541461063557806395d89b41146105305780639ab24eb014610504578063a217fddf146104e8578063a22cb46514610444578063b88d4fde1461035a578063c87b56dd14610306578063d5391393146102cb578063d547741f14610281578063e73a914c1461019b5763e985e9c51461013f57600080fd5b3461019857604036600319011261019857604061015a611001565b9161016361101c565b9260018060a01b031681526005602052209060018060a01b0316600052602052602060ff604060002054166040519015158152f35b80fd5b5034610198576020366003190112610198576101b5611001565b3360009081527f54cdd369e4e8a8515e52ca72ec816c2101831ad1f18bf44102ed171459c9b4f8602052604090205460ff1615610267576001600160a01b0316801561023457600880546001600160a01b031916821790557f8aad84fcad50e723fa3bcf0fb32c5bea4c71078b77b9aedfa638f146f3a3f7b98280a280f35b60405162461bcd60e51b815260206004820152600b60248201526a496e76616c69642044414f60a81b6044820152606490fd5b63e2517d3f60e01b60005233600452600060245260446000fd5b5034610198576040366003190112610198576102c76004356102a161101c565b906102c26102bd82600052600660205260016040600020015490565b6111bd565b611289565b5080f35b503461019857806003193601126101985760206040517f9f2df0fed2c77648de5860a4cc508cd0818c85b8b8a1ab4ceeef8d981c8956a68152f35b503461019857602036600319011261019857610323600435611186565b50806040516103336020826110b5565b52506103566040516103466020826110b5565b6000815260405191829182611032565b0390f35b503461019857608036600319011261019857610374611001565b5061037d61101c565b5060643567ffffffffffffffff8111610440573660238201121561044057806004013567ffffffffffffffff811161042c576040516103c6601f8301601f1916602001826110b5565b818152366024838501011161042857816024602094018483013701015260405162461bcd60e51b815260206004820152601b60248201527f536f756c626f756e643a206e6f6e2d7472616e7366657261626c6500000000006044820152606490fd5b8380fd5b634e487b7160e01b83526041600452602483fd5b5080fd5b50346101985760403660031901126101985761045e611001565b602435908115158092036104e4576001600160a01b03169081156104d05733835260056020526040832082600052602052604060002060ff1981541660ff83161790556040519081527f17307eab39ab6107e8899845ad3d59bd9653f200f220920489ca2b5937696c3160203392a380f35b630b61174360e31b83526004829052602483fd5b8280fd5b5034610198578060031936011261019857602090604051908152f35b5034610198576020366003190112610198576020610528610523611001565b611150565b604051908152f35b50346101985780600319360112610198576040519080600154908160011c9160018116801561062b575b602084108114610617578386529081156105f05750600114610593575b61035684610587818603826110b5565b60405191829182611032565b600181527fb10e2d527612073b26eecdfd717e6a320cf44b4afac2b0732d9fcbe2b7fa0cf6939250905b8082106105d65750909150810160200161058782610577565b9192600181602092548385880101520191019092916105bd565b60ff191660208087019190915292151560051b850190920192506105879150839050610577565b634e487b7160e01b83526022600452602483fd5b92607f169261055a565b503461019857604036600319011261019857604061065161101c565b9160043581526006602052209060018060a01b0316600052602052602060ff604060002054166040519015158152f35b50346101985780600319360112610198576020600754604051908152f35b50346101985760203660031901126101985760206106be600435611186565b6040516001600160a01b039091168152f35b5034610198576106df3661107b565b5050506040516106f06020826110b5565b5260405162461bcd60e51b815260206004820152601b60248201527f536f756c626f756e643a206e6f6e2d7472616e7366657261626c6500000000006044820152606490fd5b50346101985780600319360112610198576008546040516001600160a01b039091168152602090f35b503461019857604036600319011261019857610779611001565b7f9f2df0fed2c77648de5860a4cc508cd0818c85b8b8a1ab4ceeef8d981c8956a682526006602090815260408084203360009081529252902054602435919060ff16156109e2576001600160a01b0381168015918215906107d9826110ed565b61084e60409161081d83516107ee85826110b5565b601a81527f566f74696e67546f6b656e2e6d696e742063616c6c6564206279000000000000602082015261130f565b6108263361135a565b610849835161083585826110b5565b6002815261746f60f01b602082015261130f565b61135a565b610875815161085d83826110b5565b6006815265185b5bdd5b9d60d21b602082015261130f565b600080825163f82c50f160e01b60208201528760248201526024815261089c6044826110b5565b6020815191016a636f6e736f6c652e6c6f675afa50855b8581106108be578680f35b600754856108cb8261112b565b6007556109ce578088526002602052828820546001600160a01b0316801515908582610998575b610981575b828a526002602052848a2080546001600160a01b031916881790558287827fddf252ad1be2c89b69c2b068fc378daa952ba7f163c4a11628f55a4df523b3ef8d80a45061096d5790600191857fb9144c96c86541f6fa89c9f2f02495cccf4b08cd6643e26d34ee00aa586558a88a80a3016108b3565b6339e3563760e11b88526004889052602488fd5b868a526003602052848a20600181540190556108f7565b50600083815260046020526040902080546001600160a01b0319169055808a526003602052848a208054600019019055856108f2565b633250574960e11b88526004889052602488fd5b63e2517d3f60e01b8352336004527f9f2df0fed2c77648de5860a4cc508cd0818c85b8b8a1ab4ceeef8d981c8956a6602452604483fd5b503461019857604036600319011261019857610a3361101c565b336001600160a01b03821603610a4f576102c790600435611289565b63334bd91960e11b8252600482fd5b5034610198576040366003190112610198576102c7600435610a7e61101c565b90610a9a6102bd82600052600660205260016040600020015490565b6111fa565b5034610198576020366003190112610198576020610528600435600052600660205260016040600020015490565b503461019857610adc3661107b565b505060405162461bcd60e51b815260206004820152601b60248201527f536f756c626f756e643a206e6f6e2d7472616e7366657261626c650000000000604482015260649150fd5b503461019857604036600319011261019857610b3e611001565b602435610b4a81611186565b33151580610bfb575b80610bce575b610bbb5781906001600160a01b0384811691167f8c5be1e5ebec7d5bd14f71427d1e84f3dd0314c0f7b2291e5b200ac8c7c3b9258680a4825260046020526040822080546001600160a01b0319166001600160a01b0390921691909117905580f35b63a9fbf51f60e01b845233600452602484fd5b506001600160a01b0381168452600560209081526040808620336000908152925290205460ff1615610b59565b506001600160a01b038116331415610b53565b503461019857602036600319011261019857602090600435610c2f81611186565b50815260048252604060018060a01b0391205416604051908152f35b503461019857806003193601126101985760405190808054908160011c91600181168015610cfc575b602084108114610617578386529081156105f05750600114610ca05761035684610587818603826110b5565b8080527f290decd9548b62a8d60345a988386fc84ba6bc95484008f6362f93160ef3e563939250905b808210610ce25750909150810160200161058782610577565b919260018160209254838588010152019101909291610cc9565b92607f1692610c74565b503461019857604036600319011261019857610d20611001565b600854909190602435906001600160a01b03163303610f40576001600160a01b03831692610d53906105238515156110ed565b908115610f065781811115610efe5750905b809260015b600754811080610ef5575b15610e6757816001600160a01b03610d8c83611186565b1614610da1575b610d9c9061112b565b610d6a565b808352600260205260408320549094906001600160a01b03168015908115610e32575b86855260026020526040852080546001600160a01b03191690558685827fddf252ad1be2c89b69c2b068fc378daa952ba7f163c4a11628f55a4df523b3ef8280a450610e1e57610e16610d9c9161112b565b949050610d93565b637e27328960e01b83526004859052602483fd5b600087815260046020526040902080546001600160a01b03191690558085526003602052604085208054600019019055610dc4565b50818491807ff07fe48984adf7cd00d608ef62ee09ccf9774ff0085bfca0af5cd8ff76c01a026020604051868152a26008546001600160a01b031692833b156104e457604483928360405196879485936307d4fca360e01b8552600485015260248401525af18015610ee857610eda5780f35b610ee3916110b5565b818180f35b50604051903d90823e3d90fd5b50838510610d75565b905090610d65565b60405162461bcd60e51b815260206004820152601260248201527109cde40e8ded6cadce640e8de40e6d8c2e6d60731b6044820152606490fd5b60405162461bcd60e51b815260206004820152601260248201527109edcd8f24088829e40c6c2dc40e6d8c2e6d60731b6044820152606490fd5b9050346104405760203660031901126104405760043563ffffffff60e01b81168091036104e45760209250637965db0b60e01b8114908115610fbe575b5015158152f35b6380ac58cd60e01b811491508115610ff0575b8115610fdf575b5038610fb7565b6301ffc9a760e01b14905038610fd8565b635b5e139f60e01b81149150610fd1565b600435906001600160a01b038216820361101757565b600080fd5b602435906001600160a01b038216820361101757565b91909160208152825180602083015260005b818110611065575060409293506000838284010152601f8019910116010190565b8060208092870101516040828601015201611044565b6060906003190112611017576004356001600160a01b038116810361101757906024356001600160a01b0381168103611017579060443590565b90601f8019910116810190811067ffffffffffffffff8211176110d757604052565b634e487b7160e01b600052604160045260246000fd5b156110f457565b60405162461bcd60e51b815260206004820152600f60248201526e496e76616c6964206164647265737360881b6044820152606490fd5b600019811461113a5760010190565b634e487b7160e01b600052601160045260246000fd5b6001600160a01b0316801561117057600052600360205260406000205490565b6322718ad960e21b600052600060045260246000fd5b6000818152600260205260409020546001600160a01b03169081156111a9575090565b637e27328960e01b60005260045260246000fd5b600081815260066020908152604080832033845290915290205460ff16156111e25750565b63e2517d3f60e01b6000523360045260245260446000fd5b60008181526006602090815260408083206001600160a01b038616845290915290205460ff166112825760008181526006602090815260408083206001600160a01b0395909516808452949091528120805460ff19166001179055339291907f2f8788117e7eff1d82e926ec794901d17c78024a50270940304540a733656f0d9080a4600190565b5050600090565b60008181526006602090815260408083206001600160a01b038616845290915290205460ff16156112825760008181526006602090815260408083206001600160a01b0395909516808452949091528120805460ff19169055339291907ff6391f5c32d9c69d2a47ea670b442974b53935d1edc7fd64eb21e047a839171b9080a4600190565b6000611335611343829360405192839163104c13eb60e21b602084015260248301611032565b03601f1981018352826110b5565b6020815191016a636f6e736f6c652e6c6f675afa50565b60405163161765e160e11b60208201526001600160a01b03909116602480830191909152815260009081906113436044826110b556fea2646970667358221220a267a46ea7fea45c97331f415100963a2f93c83ee12c01ecc622c17d65206aa464736f6c634300081c00332f8788117e7eff1d82e926ec794901d17c78024a50270940304540a733656f0d54cdd369e4e8a8515e52ca72ec816c2101831ad1f18bf44102ed171459c9b4f8",
  "linkReferences": {},
  "deployedLinkReferences": {}
}