{
  "_format": "hh-sol-artifact-1",
  "contractName": "VotingToken",
  "sourceName": "contracts/VotingToken.sol",
  "abi": [
    {
      "inputs": [
        {
          "internalType": "address",
          "name": "_dao",
          "type": "address"
        }
      ],
      "stateMutability": "nonpayable",
      "type": "constructor"
    },
    {
      "anonymous": false,
      "inputs": [
        {
          "indexed": true,
          "internalType": "address",
          "name": "owner",
          "type": "address"
        },
        {
          "indexed": true,
          "internalType": "address",
          "name": "approved",
          "type": "address"
        },
        {
          "indexed": true,
          "internalType": "uint256",
          "name": "tokenId",
          "type": "uint256"
        }
      ],
      "name": "Approval",
      "type": "event"
    },
    {
      "anonymous": false,
      "inputs": [
        {
          "indexed": true,
          "internalType": "address",
          "name": "owner",
          "type": "address"
        },
        {
          "indexed": true,
          "internalType": "address",
          "name": "operator",
          "type": "address"
        },
        {
          "indexed": false,
          "internalType": "bool",
          "name": "approved",
          "type": "bool"
        }
      ],
      "name": "ApprovalForAll",
      "type": "event"
    },
    {
      "anonymous": false,
      "inputs": [
        {
          "indexed": true,
          "internalType": "address",
          "name": "newDAO",
          "type": "address"
        }
      ],
      "name": "DAOSet",
      "type": "event"
    },
    {
      "anonymous": false,
      "inputs": [
        {
          "indexed": true,
          "internalType": "address",
          "name": "delegator",
          "type": "address"
        },
        {
          "indexed": true,
          "internalType": "address",
          "name": "delegatee",
          "type": "address"
        }
      ],
      "name": "DelegateChanged",
      "type": "event"
    },
    {
      "anonymous": false,
      "inputs": [
        {
          "indexed": true,
          "internalType": "address",
          "name": "newPool",
          "type": "address"
        }
      ],
      "name": "LiquidityPoolUpdated",
      "type": "event"
    },
    {
      "anonymous": false,
      "inputs": [
        {
          "indexed": true,
          "internalType": "address",
          "name": "newGovernor",
          "type": "address"
        }
      ],
      "name": "ProtocolGovernorUpdated",
      "type": "event"
    },
    {
      "anonymous": false,
      "inputs": [
        {
          "indexed": true,
          "internalType": "address",
          "name": "user",
          "type": "address"
        },
        {
          "indexed": false,
          "internalType": "uint256",
          "name": "amount",
          "type": "uint256"
        }
      ],
      "name": "ReputationPenalized",
      "type": "event"
    },
    {
      "anonymous": false,
      "inputs": [
        {
          "indexed": true,
          "internalType": "bytes32",
          "name": "role",
          "type": "bytes32"
        },
        {
          "indexed": true,
          "internalType": "bytes32",
          "name": "previousAdminRole",
          "type": "bytes32"
        },
        {
          "indexed": true,
          "internalType": "bytes32",
          "name": "newAdminRole",
          "type": "bytes32"
        }
      ],
      "name": "RoleAdminChanged",
      "type": "event"
    },
    {
      "anonymous": false,
      "inputs": [
        {
          "indexed": true,
          "internalType": "bytes32",
          "name": "role",
          "type": "bytes32"
        },
        {
          "indexed": true,
          "internalType": "address",
          "name": "account",
          "type": "address"
        },
        {
          "indexed": true,
          "internalType": "address",
          "name": "sender",
          "type": "address"
        }
      ],
      "name": "RoleGranted",
      "type": "event"
    },
    {
      "anonymous": false,
      "inputs": [
        {
          "indexed": true,
          "internalType": "bytes32",
          "name": "role",
          "type": "bytes32"
        },
        {
          "indexed": true,
          "internalType": "address",
          "name": "account",
          "type": "address"
        },
        {
          "indexed": true,
          "internalType": "address",
          "name": "sender",
          "type": "address"
        }
      ],
      "name": "RoleRevoked",
      "type": "event"
    },
    {
      "anonymous": false,
      "inputs": [
        {
          "indexed": true,
          "internalType": "address",
          "name": "to",
          "type": "address"
        },
        {
          "indexed": true,
          "internalType": "uint256",
          "name": "tokenId",
          "type": "uint256"
        }
      ],
      "name": "TokenMinted",
      "type": "event"
    },
    {
      "anonymous": false,
      "inputs": [
        {
          "indexed": true,
          "internalType": "address",
          "name": "voter",
          "type": "address"
        },
        {
          "indexed": false,
          "internalType": "uint256",
          "name": "amount",
          "type": "uint256"
        }
      ],
      "name": "TokenSlashed",
      "type": "event"
    },
    {
      "anonymous": false,
      "inputs": [
        {
          "indexed": true,
          "internalType": "address",
          "name": "from",
          "type": "address"
        },
        {
          "indexed": true,
          "internalType": "address",
          "name": "to",
          "type": "address"
        },
        {
          "indexed": true,
          "internalType": "uint256",
          "name": "tokenId",
          "type": "uint256"
        }
      ],
      "name": "Transfer",
      "type": "event"
    },
    {
      "anonymous": false,
      "inputs": [
        {
          "indexed": true,
          "internalType": "address",
          "name": "account",
          "type": "address"
        },
        {
          "indexed": false,
          "internalType": "uint256",
          "name": "newVotes",
          "type": "uint256"
        }
      ],
      "name": "VotesChanged",
      "type": "event"
    },
    {
      "inputs": [],
      "name": "DEFAULT_ADMIN_ROLE",
      "outputs": [
        {
          "internalType": "bytes32",
          "name": "",
          "type": "bytes32"
        }
      ],
      "stateMutability": "view",
      "type": "function"
    },
    {
      "inputs": [],
      "name": "MINTER_ROLE",
      "outputs": [
        {
          "internalType": "bytes32",
          "name": "",
          "type": "bytes32"
        }
      ],
      "stateMutability": "view",
      "type": "function"
    },
    {
      "inputs": [
        {
          "internalType": "address",
          "name": "to",
          "type": "address"
        },
        {
          "internalType": "uint256",
          "name": "tokenId",
          "type": "uint256"
        }
      ],
      "name": "approve",
      "outputs": [],
      "stateMutability": "nonpayable",
      "type": "function"
    },
    {
      "inputs": [
        {
          "internalType": "address",
          "name": "owner",
          "type": "address"
        }
      ],
      "name": "balanceOf",
      "outputs": [
        {
          "internalType": "uint256",
          "name": "",
          "type": "uint256"
        }
      ],
      "stateMutability": "view",
      "type": "function"
    },
    {
      "inputs": [
        {
          "internalType": "uint256",
          "name": "tokenId",
          "type": "uint256"
        }
      ],
      "name": "burn",
      "outputs": [],
      "stateMutability": "nonpayable",
      "type": "function"
    },
    {
      "inputs": [
        {
          "internalType": "address",
          "name": "account",
          "type": "address"
        },
        {
          "internalType": "uint256",
          "name": "tokenId",
          "type": "uint256"
        }
      ],
      "name": "burnFrom",
      "outputs": [],
      "stateMutability": "nonpayable",
      "type": "function"
    },
    {
      "inputs": [
        {
          "internalType": "address",
          "name": "",
          "type": "address"
        },
        {
          "internalType": "uint256",
          "name": "",
          "type": "uint256"
        }
      ],
      "name": "checkpoints",
      "outputs": [
        {
          "internalType": "uint32",
          "name": "fromBlock",
          "type": "uint32"
        },
        {
          "internalType": "uint256",
          "name": "votes",
          "type": "uint256"
        }
      ],
      "stateMutability": "view",
      "type": "function"
    },
    {
      "inputs": [],
      "name": "dao",
      "outputs": [
        {
          "internalType": "address",
          "name": "",
          "type": "address"
        }
      ],
      "stateMutability": "view",
      "type": "function"
    },
    {
      "inputs": [
        {
          "internalType": "address",
          "name": "delegatee",
          "type": "address"
        }
      ],
      "name": "delegate",
      "outputs": [],
      "stateMutability": "nonpayable",
      "type": "function"
    },
    {
      "inputs": [
        {
          "internalType": "address",
          "name": "account",
          "type": "address"
        }
      ],
      "name": "delegates",
      "outputs": [
        {
          "internalType": "address",
          "name": "",
          "type": "address"
        }
      ],
      "stateMutability": "view",
      "type": "function"
    },
    {
      "inputs": [
        {
          "internalType": "uint256",
          "name": "tokenId",
          "type": "uint256"
        }
      ],
      "name": "getApproved",
      "outputs": [
        {
          "internalType": "address",
          "name": "",
          "type": "address"
        }
      ],
      "stateMutability": "view",
      "type": "function"
    },
    {
      "inputs": [
        {
          "internalType": "address",
          "name": "account",
          "type": "address"
        },
        {
          "internalType": "uint256",
          "name": "blockNumber",
          "type": "uint256"
        }
      ],
      "name": "getPastVotes",
      "outputs": [
        {
          "internalType": "uint256",
          "name": "",
          "type": "uint256"
        }
      ],
      "stateMutability": "view",
      "type": "function"
    },
    {
      "inputs": [
        {
          "internalType": "bytes32",
          "name": "role",
          "type": "bytes32"
        }
      ],
      "name": "getRoleAdmin",
      "outputs": [
        {
          "internalType": "bytes32",
          "name": "",
          "type": "bytes32"
        }
      ],
      "stateMutability": "view",
      "type": "function"
    },
    {
      "inputs": [
        {
          "internalType": "address",
          "name": "user",
          "type": "address"
        }
      ],
      "name": "getVotes",
      "outputs": [
        {
          "internalType": "uint256",
          "name": "",
          "type": "uint256"
        }
      ],
      "stateMutability": "view",
      "type": "function"
    },
    {
      "inputs": [
        {
          "internalType": "bytes32",
          "name": "role",
          "type": "bytes32"
        },
        {
          "internalType": "address",
          "name": "account",
          "type": "address"
        }
      ],
      "name": "grantRole",
      "outputs": [],
      "stateMutability": "nonpayable",
      "type": "function"
    },
    {
      "inputs": [
        {
          "internalType": "bytes32",
          "name": "role",
          "type": "bytes32"
        },
        {
          "internalType": "address",
          "name": "account",
          "type": "address"
        }
      ],
      "name": "hasRole",
      "outputs": [
        {
          "internalType": "bool",
          "name": "",
          "type": "bool"
        }
      ],
      "stateMutability": "view",
      "type": "function"
    },
    {
      "inputs": [
        {
          "internalType": "address",
          "name": "owner",
          "type": "address"
        },
        {
          "internalType": "address",
          "name": "operator",
          "type": "address"
        }
      ],
      "name": "isApprovedForAll",
      "outputs": [
        {
          "internalType": "bool",
          "name": "",
          "type": "bool"
        }
      ],
      "stateMutability": "view",
      "type": "function"
    },
    {
      "inputs": [],
      "name": "liquidityPool",
      "outputs": [
        {
          "internalType": "address",
          "name": "",
          "type": "address"
        }
      ],
      "stateMutability": "view",
      "type": "function"
    },
    {
      "inputs": [
        {
          "internalType": "address",
          "name": "to",
          "type": "address"
        },
        {
          "internalType": "uint256",
          "name": "amount",
          "type": "uint256"
        }
      ],
      "name": "mint",
      "outputs": [],
      "stateMutability": "nonpayable",
      "type": "function"
    },
    {
      "inputs": [
        {
          "internalType": "address",
          "name": "to",
          "type": "address"
        }
      ],
      "name": "mintSingle",
      "outputs": [],
      "stateMutability": "nonpayable",
      "type": "function"
    },
    {
      "inputs": [],
      "name": "name",
      "outputs": [
        {
          "internalType": "string",
          "name": "",
          "type": "string"
        }
      ],
      "stateMutability": "view",
      "type": "function"
    },
    {
      "inputs": [],
      "name": "nextTokenId",
      "outputs": [
        {
          "internalType": "uint256",
          "name": "",
          "type": "uint256"
        }
      ],
      "stateMutability": "view",
      "type": "function"
    },
    {
      "inputs": [
        {
          "internalType": "uint256",
          "name": "tokenId",
          "type": "uint256"
        }
      ],
      "name": "ownerOf",
      "outputs": [
        {
          "internalType": "address",
          "name": "",
          "type": "address"
        }
      ],
      "stateMutability": "view",
      "type": "function"
    },
    {
      "inputs": [
        {
          "internalType": "address",
          "name": "user",
          "type": "address"
        },
        {
          "internalType": "uint256",
          "name": "amount",
          "type": "uint256"
        }
      ],
      "name": "penalizeReputation",
      "outputs": [],
      "stateMutability": "nonpayable",
      "type": "function"
    },
    {
      "inputs": [],
      "name": "protocolGovernor",
      "outputs": [
        {
          "internalType": "address",
          "name": "",
          "type": "address"
        }
      ],
      "stateMutability": "view",
      "type": "function"
    },
    {
      "inputs": [
        {
          "internalType": "bytes32",
          "name": "role",
          "type": "bytes32"
        },
        {
          "internalType": "address",
          "name": "account",
          "type": "address"
        }
      ],
      "name": "renounceRole",
      "outputs": [],
      "stateMutability": "nonpayable",
      "type": "function"
    },
    {
      "inputs": [
        {
          "internalType": "address",
          "name": "",
          "type": "address"
        }
      ],
      "name": "reputation",
      "outputs": [
        {
          "internalType": "int256",
          "name": "",
          "type": "int256"
        }
      ],
      "stateMutability": "view",
      "type": "function"
    },
    {
      "inputs": [
        {
          "internalType": "bytes32",
          "name": "role",
          "type": "bytes32"
        },
        {
          "internalType": "address",
          "name": "account",
          "type": "address"
        }
      ],
      "name": "revokeRole",
      "outputs": [],
      "stateMutability": "nonpayable",
      "type": "function"
    },
    {
      "inputs": [
        {
          "internalType": "address",
          "name": "from",
          "type": "address"
        },
        {
          "internalType": "address",
          "name": "to",
          "type": "address"
        },
        {
          "internalType": "uint256",
          "name": "tokenId",
          "type": "uint256"
        }
      ],
      "name": "safeTransferFrom",
      "outputs": [],
      "stateMutability": "nonpayable",
      "type": "function"
    },
    {
      "inputs": [
        {
          "internalType": "address",
          "name": "from",
          "type": "address"
        },
        {
          "internalType": "address",
          "name": "to",
          "type": "address"
        },
        {
          "internalType": "uint256",
          "name": "tokenId",
          "type": "uint256"
        },
        {
          "internalType": "bytes",
          "name": "data",
          "type": "bytes"
        }
      ],
      "name": "safeTransferFrom",
      "outputs": [],
      "stateMutability": "nonpayable",
      "type": "function"
    },
    {
      "inputs": [
        {
          "internalType": "address",
          "name": "operator",
          "type": "address"
        },
        {
          "internalType": "bool",
          "name": "approved",
          "type": "bool"
        }
      ],
      "name": "setApprovalForAll",
      "outputs": [],
      "stateMutability": "nonpayable",
      "type": "function"
    },
    {
      "inputs": [
        {
          "internalType": "address",
          "name": "newDAO",
          "type": "address"
        }
      ],
      "name": "setDAO",
      "outputs": [],
      "stateMutability": "nonpayable",
      "type": "function"
    },
    {
      "inputs": [
        {
          "internalType": "address",
          "name": "_pool",
          "type": "address"
        }
      ],
      "name": "setLiquidityPool",
      "outputs": [],
      "stateMutability": "nonpayable",
      "type": "function"
    },
    {
      "inputs": [
        {
          "internalType": "address",
          "name": "_governor",
          "type": "address"
        }
      ],
      "name": "setProtocolGovernor",
      "outputs": [],
      "stateMutability": "nonpayable",
      "type": "function"
    },
    {
      "inputs": [
        {
          "internalType": "address",
          "name": "voter",
          "type": "address"
        },
        {
          "internalType": "uint256",
          "name": "amount",
          "type": "uint256"
        }
      ],
      "name": "slash",
      "outputs": [],
      "stateMutability": "nonpayable",
      "type": "function"
    },
    {
      "inputs": [
        {
          "internalType": "bytes4",
          "name": "interfaceId",
          "type": "bytes4"
        }
      ],
      "name": "supportsInterface",
      "outputs": [
        {
          "internalType": "bool",
          "name": "",
          "type": "bool"
        }
      ],
      "stateMutability": "view",
      "type": "function"
    },
    {
      "inputs": [],
      "name": "symbol",
      "outputs": [
        {
          "internalType": "string",
          "name": "",
          "type": "string"
        }
      ],
      "stateMutability": "view",
      "type": "function"
    },
    {
      "inputs": [
        {
          "internalType": "uint256",
          "name": "tokenId",
          "type": "uint256"
        }
      ],
      "name": "tokenURI",
      "outputs": [
        {
          "internalType": "string",
          "name": "",
          "type": "string"
        }
      ],
      "stateMutability": "view",
      "type": "function"
    },
    {
      "inputs": [],
      "name": "totalSupply",
      "outputs": [
        {
          "internalType": "uint256",
          "name": "",
          "type": "uint256"
        }
      ],
      "stateMutability": "view",
      "type": "function"
    },
    {
      "inputs": [
        {
          "internalType": "address",
          "name": "from",
          "type": "address"
        },
        {
          "internalType": "address",
          "name": "to",
          "type": "address"
        },
        {
          "internalType": "uint256",
          "name": "tokenId",
          "type": "uint256"
        }
      ],
      "name": "transferFrom",
      "outputs": [],
      "stateMutability": "nonpayable",
      "type": "function"
    }
  ],
  "bytecode": "0x6080346200044d576200305390813803601f19601f91818382011684019460018060401b0391858710838811176200036f57808692604098895283396020958691810103126200044d57516001600160a01b03811692908390036200044d576200006862000451565b93601085526f23b7bb32b93730b731b2902a37b5b2b760811b868601526200008f62000451565b600381526223a7ab60e91b8782015285518481116200036f575f546001978882811c9216801562000442575b8a83101462000350578185849311620003ef575b5089908583116001146200038f575f9262000383575b50505f19600383901b1c191690871b175f555b80519384116200036f578554928684811c9416801562000364575b8885101462000350578383869511620002f9575b50879284116001146200029857505f926200028c575b50505f19600383901b1c191690831b1782555b8015620002485760018060a01b03196008541617600855806007555f805260068252825f20335f52825260ff835f2054161562000211575b7f9f2df0fed2c77648de5860a4cc508cd0818c85b8b8a1ab4ceeef8d981c8956a691825f5260068152835f20335f52815260ff845f20541615620001d6575b8351612bc19081620004728239f35b825f5260068152835f2090335f5252825f209060ff19825416179055339033905f80516020620030338339815191525f80a45f8080620001c7565b5f805260068252825f20335f528252825f208160ff1982541617905533335f5f80516020620030338339815191528180a462000188565b835162461bcd60e51b815260048101849052601460248201527f44414f20616464726573732072657175697265640000000000000000000000006044820152606490fd5b015190505f806200013d565b86949291921691845f52875f20925f5b89828210620002e25750508411620002c9575b505050811b01825562000150565b01515f1960f88460031b161c191690555f8080620002bb565b8385015186558997909501949384019301620002a8565b9091929350865f52875f208480870160051c8201928a881062000346575b9187968a92969594930160051c01915b8281106200033757505062000127565b5f815587965089910162000327565b9250819262000317565b634e487b7160e01b5f52602260045260245ffd5b93607f169362000113565b634e487b7160e01b5f52604160045260245ffd5b015190505f80620000e5565b90868a9416915f80528b5f20925f5b8d828210620003d85750508411620003bf575b505050811b015f55620000f8565b01515f1960f88460031b161c191690555f8080620003b1565b8385015186558d979095019493840193016200039e565b9091505f8052895f208580850160051c8201928c861062000438575b918b91869594930160051c01915b82811062000429575050620000cf565b5f81558594508b910162000419565b925081926200040b565b91607f1691620000bb565b5f80fd5b60408051919082016001600160401b038111838210176200036f5760405256fe60406080815260049081361015610014575f80fd5b5f915f3560e01c908163018770201461155a57816301ffc9a7146114d157816302fb4d85146112ff57816306fdde0314611233578163081812fc14611213578163095ea7b3146110a55781630cdfebfa1461104657816318160ddd1461100857816323b872dd14610fb1578163248a9ca314610f865781632a240ef014610f0f5781632f2ff15d14610e6557816336568abe14610dd35781633a46b1a814610daa57816340c10f1914610cc25781634162169f14610c9957816342842e0e14610c7057816342966c6814610c46578163587cde1e14610c0b5781635c19a95c14610ad95781636352211e14610aa8578163665a11ca14610a7f57816370a0823114610a5257816370d67e49146109a157816375794a3c1461098257816379cc6790146108f757816391d14854146108b357816395d89b41146107a95781639ab24eb014610771578163a217fddf14610756578163a22cb46514610686578163b88d4fde146105ff578163b9f79451146105c7578163c87b56dd14610394578163d539139314610359578163d547741f1461031d578163e73a914c1461027a57508063e7cf536c14610250578063e985e9c5146102035763fd1e77f6146101d8575f80fd5b346101ff57816003193601126101ff57600d5490516001600160a01b039091168152602090f35b5080fd5b50346101ff57806003193601126101ff5760209161021f611600565b82610228611616565b9260018060a01b038093168152600586522091165f52825260ff815f20541690519015158152f35b50346101ff573660031901126102775761027461026b611600565b60243590611d6f565b80f35b80fd5b90503461031957602036600319011261031957610295611600565b61029d611eaa565b6001600160a01b03169182156102e8575050600880546001600160a01b031916821790557f8aad84fcad50e723fa3bcf0fb32c5bea4c71078b77b9aedfa638f146f3a3f7b98280a280f35b906020606492519162461bcd60e51b8352820152600b60248201526a496e76616c69642044414f60a81b6044820152fd5b8280fd5b9190503461031957806003193601126103195761027491356103546001610342611616565b93838752600660205286200154612195565b6126b5565b5050346101ff57816003193601126101ff57602090517f9f2df0fed2c77648de5860a4cc508cd0818c85b8b8a1ab4ceeef8d981c8956a68152f35b90503461031957602090816003193601126105c35781929381356103d36103ce825f52600260205260018060a01b0360405f205416151590565b6119e9565b8551926103df84611704565b82845282156105a75781829184937a184f03e93ff9f4daa797ed6e38ed64bf6a1f010000000000000000908181101561059a575b5050866d04ee2d6d415b85acef81000000008085101561058c575b5050662386f26fc100008084101561057d575b506305f5e1008084101561056e575b5061271080841015610560575b50506064821015610550575b600a80921015610546575b6021908893600192816104a2600186940161049a6104918261175e565b9951998a61173c565b80895261175e565b878b019890601f1901368a3750860101905b610511575b50505050926104f0926104fc9261050d95885195836104e1889551809288808901910161162c565b8401915180938684019061162c565b0103808452018261173c565b925b5192828493845283019061164d565b0390f35b5f19019083906f181899199a1a9b1b9c1cb0b131b232b360811b8282061a835304918215610541579190826104b4565b6104b9565b9160010191610474565b9190606460029104910191610469565b930192909104905f8061045d565b6008919493049201925f610450565b6010919493049201925f610441565b94019390920491865f61042e565b8a95500492505f80610413565b505050505061050d82516105ba81611704565b5f8152926104fe565b8380fd5b5050346101ff5760203660031901126101ff5760209181906001600160a01b036105ef611600565b168152600e845220549051908152f35b919050346103195760803660031901126103195761061b611600565b610623611616565b846064359467ffffffffffffffff86116101ff57366023870112156101ff578501359461065b6106528761175e565b9551958661173c565b85855236602487830101116101ff578561027496602460209301838801378501015260443591611acf565b919050346103195780600319360112610319576106a1611600565b9060243591821515809303610752576001600160a01b03169233841461071057503384526005602052808420835f52602052805f2060ff1981541660ff8416179055519081527f17307eab39ab6107e8899845ad3d59bd9653f200f220920489ca2b5937696c3160203392a380f35b6020606492519162461bcd60e51b8352820152601960248201527f4552433732313a20617070726f766520746f2063616c6c6572000000000000006044820152fd5b8480fd5b5050346101ff57816003193601126101ff5751908152602090f35b5050346101ff5760203660031901126101ff5760209181906001600160a01b03610799611600565b168152600c845220549051908152f35b82843461027757806003193601126102775781519181600192600154938460011c91600186169586156108a9575b6020968785108114610896578899509688969785829a5291825f1461086f575050600114610813575b50505061050d92916104fe91038561173c565b9190869350600183527fb10e2d527612073b26eecdfd717e6a320cf44b4afac2b0732d9fcbe2b7fa0cf65b82841061085757505050820101816104fe61050d610800565b8054848a01860152889550879490930192810161083e565b60ff19168782015293151560051b860190930193508492506104fe915061050d9050610800565b634e487b7160e01b835260228a52602483fd5b92607f16926107d7565b905034610319578160031936011261031957816020936108d1611616565b9235815260068552209060018060a01b03165f52825260ff815f20541690519015158152f35b905034610319578160031936011261031957610911611600565b91602435926109286109238533612728565b6119a4565b61093184611a35565b6001600160a01b0391821691160361094d578361027484612295565b906020606492519162461bcd60e51b8352820152600f60248201526e2737ba103a37b5b2b71037bbb732b960891b6044820152fd5b5050346101ff57816003193601126101ff576020906007549051908152f35b905034610319576020366003190112610319576109bc611600565b6109c4611eaa565b6001600160a01b0316918215610a0f575050600d80546001600160a01b031916821790557f31c0d2e7bb2330a753e0c4913170a15eab2d8f7b2607caf71356e5b3f24b99698280a280f35b906020606492519162461bcd60e51b8352820152601860248201527f496e76616c696420676f7665726e6f72206164647265737300000000000000006044820152fd5b5050346101ff5760203660031901126101ff57602090610a78610a73611600565b611a5a565b9051908152f35b5050346101ff57816003193601126101ff57600b5490516001600160a01b039091168152602090f35b8284346102775760203660031901126102775750610ac860209235611a35565b90516001600160a01b039091168152f35b91905034610319576020806003193601126105c357610af6611600565b6001600160a01b0390811693908415610bc957338652600f8352838620541690610b1f33611a5a565b918015610bac578652600c8352838620610b3a8382546117da565b90555b848652600c8352838620908154928301809311610b9957505533808552600f90915290832080546001600160a01b031916831790557fef9fc1dee6010109e6e3b21e51d44028e246dbad8a5a71ea192a30b19e1f457f8380a380f35b601190634e487b7160e01b5f525260245ffd5b50338652600c8352838620610bc28382546117da565b9055610b3d565b50915162461bcd60e51b815291820152601f60248201527f43616e6e6f742064656c656761746520746f207a65726f2061646472657373006044820152606490fd5b5050346101ff5760203660031901126101ff576020916001600160a01b0390829082610c35611600565b168152600f85522054169051908152f35b8390346101ff5760203660031901126101ff576102749035610c6b6109238233612728565b612295565b5050346101ff5761027490610c843661169f565b91925192610c9184611704565b858452611acf565b5050346101ff57816003193601126101ff5760085490516001600160a01b039091168152602090f35b91905034610319578060031936011261031957610cdd611600565b9060243592610cea612059565b6001600160a01b03831691610d0083151561177a565b84151580610d9f575b15610d65575050835b838110610d1d578480f35b6001906007805490610d2e82611838565b9055610d3a81866124a3565b837fb9144c96c86541f6fa89c9f2f02495cccf4b08cd6643e26d34ee00aa586558a88880a301610d12565b906020606492519162461bcd60e51b835282015260146024820152730416d6f756e74206d75737420626520312d3130360641b6044820152fd5b506064851115610d09565b5050346101ff57806003193601126101ff57602090610a78610dca611600565b60243590611846565b839150346101ff57826003193601126101ff57610dee611616565b90336001600160a01b03831603610e0a579061027491356126b5565b608490602085519162461bcd60e51b8352820152602f60248201527f416363657373436f6e74726f6c3a2063616e206f6e6c792072656e6f756e636560448201526e103937b632b9903337b91039b2b63360891b6064820152fd5b9050346103195781600319360112610319573590610e81611616565b908284526006602052610e9960018286200154612195565b82845260066020528084209160018060a01b031691825f5260205260ff815f20541615610ec4578380f35b8284526006602052808420825f526020525f20600160ff1982541617905533917f2f8788117e7eff1d82e926ec794901d17c78024a50270940304540a733656f0d8480a45f80808380f35b833461027757602036600319011261027757610f29611600565b610f31612059565b6001600160a01b038116610f4681151561177a565b610f5f6007548093610f5782611838565b6007556124a3565b7fb9144c96c86541f6fa89c9f2f02495cccf4b08cd6643e26d34ee00aa586558a88380a380f35b9050346103195760203660031901126103195781602093600192358152600685522001549051908152f35b9050823461027757506020606492610fc83661169f565b505050519162461bcd60e51b8352820152601b60248201527f536f756c626f756e643a206e6f6e2d7472616e7366657261626c6500000000006044820152fd5b8383346101ff57816003193601126101ff576007545f19810192908311611033576020838351908152f35b634e487b7160e01b815260118452602490fd5b5050346101ff57806003193601126101ff57611060611600565b6001600160a01b031682526010602052808220805460243591908210156105c3579061108b91611672565b50600163ffffffff82541691015482519182526020820152f35b9050346103195781600319360112610319576110bf611600565b6024359290916001600160a01b03919082806110da87611a35565b169416938085146111c6578033149081156111a7575b501561113f57848652602052842080546001600160a01b0319168317905561111783611a35565b167f8c5be1e5ebec7d5bd14f71427d1e84f3dd0314c0f7b2291e5b200ac8c7c3b9258480a480f35b6020608492519162461bcd60e51b8352820152603d60248201527f4552433732313a20617070726f76652063616c6c6572206973206e6f7420746f60448201527f6b656e206f776e6572206f7220617070726f76656420666f7220616c6c0000006064820152fd5b905086526005602052818620335f5260205260ff825f2054165f6110f0565b506020608492519162461bcd60e51b8352820152602160248201527f4552433732313a20617070726f76616c20746f2063757272656e74206f776e656044820152603960f91b6064820152fd5b8284346102775760203660031901126102775750610ac8602092356117fc565b8284346102775780600319360112610277578151918182549260018460011c91600186169586156112f5575b6020968785108114610896578899509688969785829a5291825f1461086f57505060011461129a5750505061050d92916104fe91038561173c565b91908693508280527f290decd9548b62a8d60345a988386fc84ba6bc95484008f6362f93160ef3e5635b8284106112dd57505050820101816104fe61050d610800565b8054848a0186015288955087949093019281016112c4565b92607f169261125f565b9190503461140d578060031936011261140d5761131a611600565b9160249081359360018060a01b03908160085416331480156114c4575b156114915781169061134a82151561177a565b815f526009602052845f2095865490811561145a57818111156114525750955b5f5b878110611411575050817ff07fe48984adf7cd00d608ef62ee09ccf9774ff0085bfca0af5cd8ff76c01a0260208751898152a26008541694853b1561140d5760445f9283875198899485936307d4fca360e01b855288850152888401525af18015611403576113d9578480f35b909192935067ffffffffffffffff84116113f257505052005b604190634e487b7160e01b5f52525ffd5b83513d5f823e3d90fd5b5f80fd5b81545f198101908111611440579061143a61142e600193856117e7565b90549060031b1c612295565b0161136c565b86601187634e487b7160e01b5f52525ffd5b90509561136a565b865162461bcd60e51b81526020818701526012818801527109cde40e8ded6cadce640e8de40e6d8c2e6d60731b6044820152606490fd5b845162461bcd60e51b8152602081850152600e818601526d139bdd08185d5d1a1bdc9a5e995960921b6044820152606490fd5b5081600b54163314611337565b90503461140d57602036600319011261140d573563ffffffff60e01b811680910361140d57602091637965db0b60e01b8214918215611514575b50519015158152f35b9091506380ac58cd60e01b8114908115611549575b8115611538575b50908361150b565b6301ffc9a760e01b14905083611530565b635b5e139f60e01b81149150611529565b90503461140d57602036600319011261140d57611575611600565b61157d611eaa565b6001600160a01b03169182156115c657600b80546001600160a01b03191684179055827fedf1a035d265f6321083031b40acf4e5e06cd3e2e2025192fd308409b13b44c65f80a2005b906020606492519162461bcd60e51b83528201526014602482015273496e76616c696420706f6f6c206164647265737360601b6044820152fd5b600435906001600160a01b038216820361140d57565b602435906001600160a01b038216820361140d57565b5f5b83811061163d5750505f910152565b818101518382015260200161162e565b906020916116668151809281855285808601910161162c565b601f01601f1916010190565b805482101561168b575f5260205f209060011b01905f90565b634e487b7160e01b5f52603260045260245ffd5b606090600319011261140d576001600160a01b0390600435828116810361140d5791602435908116810361140d579060443590565b6040810190811067ffffffffffffffff8211176116f057604052565b634e487b7160e01b5f52604160045260245ffd5b6020810190811067ffffffffffffffff8211176116f057604052565b6080810190811067ffffffffffffffff8211176116f057604052565b90601f8019910116810190811067ffffffffffffffff8211176116f057604052565b67ffffffffffffffff81116116f057601f01601f191660200190565b1561178157565b60405162461bcd60e51b815260206004820152600f60248201526e496e76616c6964206164647265737360881b6044820152606490fd5b5f198101919082116117c657565b634e487b7160e01b5f52601160045260245ffd5b919082039182116117c657565b805482101561168b575f5260205f2001905f90565b5f8181526002602052604090205461181e906001600160a01b031615156119e9565b5f908152600460205260409020546001600160a01b031690565b5f1981146117c65760010190565b438210156119695760018060a01b03165f5260209060106020526040805f2091825490811561196057835f5263ffffffff92818460205f20541611611956575f955f19938085019081116117c65794939291905b8786116118b9575050505050506001916118b391611672565b50015490565b6118c5888798976117da565b976118d46001998a1c896117da565b906118df8289611672565b508385519b8c926118ef846116d4565b8a81541680945201549b019a8b528581145f1461191457505050505050505050505190565b85969798999a50949091929394105f146119355750965b949392919061189a565b97508481019081111561192b57634e487b7160e01b5f52601160045260245ffd5b5050505050505f90565b50505050505f90565b60405162461bcd60e51b8152602060048201526013602482015272109b1bd8dac81b9bdd081e595d081b5a5b9959606a1b6044820152606490fd5b156119ab57565b60405162461bcd60e51b8152602060048201526016602482015275139bdd081bdddb995c881b9bdc88185c1c1c9bdd995960521b6044820152606490fd5b156119f057565b60405162461bcd60e51b815260206004820152601860248201527f4552433732313a20696e76616c696420746f6b656e20494400000000000000006044820152606490fd5b5f908152600260205260409020546001600160a01b0316611a578115156119e9565b90565b6001600160a01b03168015611a78575f52600360205260405f205490565b60405162461bcd60e51b815260206004820152602960248201527f4552433732313a2061646472657373207a65726f206973206e6f7420612076616044820152683634b21037bbb732b960b91b6064820152608490fd5b91929092611add8133612728565b15611d1457611b0793611aef82611a35565b6001600160a01b038086169690959186168714612831565b84821680159586611cc357611bb996611b2b8983611b2489611a35565b1614612831565b855f52602090600482526040998a5f206001600160601b0360a01b90818154169055815f52600384528b5f205f198154019055855f528b5f2060018154019055885f5260028452858c5f20918254161790558785827fddf252ad1be2c89b69c2b068fc378daa952ba7f163c4a11628f55a4df523b3ef5f80a480611c50575b5015611bdc575b50505061288b565b15611bc15750565b5162461bcd60e51b815280611bd860048201612792565b0390fd5b5f838152600f8252899020545f80516020612b6c83398151915292168015611c37575f52600c8152885f20611c118154612495565b90555b825f52600c8152885f2054611c298187612a97565b8951908152a25f8080611bb1565b50600c8152885f20611c498154612495565b9055611c14565b5f818152600f84528b90205484168015611caa575f52600c83528a5f20611c7781546117b8565b90555b805f52600c83525f80516020612b6c833981519152838c5f2054611c9e818a612a97565b8d51908152a25f611baa565b50600c83528a5f20611cbc81546117b8565b9055611c7a565b60405162461bcd60e51b8152602060048201526024808201527f4552433732313a207472616e7366657220746f20746865207a65726f206164646044820152637265737360e01b6064820152608490fd5b60405162461bcd60e51b815260206004820152602d60248201527f4552433732313a2063616c6c6572206973206e6f7420746f6b656e206f776e6560448201526c1c881bdc88185c1c1c9bdd9959609a1b6064820152608490fd5b600d546001600160a01b03919082163303611e6d571690611d9182151561177a565b815f52600960205260405f20908154908115611e675781811115611e5f5750905b5f5b828110611e3c575050815f52600e60205260405f20805491808303925f82128185128116918513901516176117c6577fa0a163b56c3710dfa2d077bafcafb81afa10a94a4a6b2182768ac405824a09949260209255837ff07fe48984adf7cd00d608ef62ee09ccf9774ff0085bfca0af5cd8ff76c01a0283604051848152a2604051908152a2565b81545f198101919082116117c657611e5961142e600193856117e7565b01611db4565b905090611db2565b50505050565b60405162461bcd60e51b815260206004820152601560248201527427b7363c90283937ba37b1b7b623b7bb32b93737b960591b6044820152606490fd5b335f9081527f54cdd369e4e8a8515e52ca72ec816c2101831ad1f18bf44102ed171459c9b4f860209081526040918290205460ff1615611ee8575050565b611ef1336129b2565b5f8351611efd81611720565b6042815283810191606036843781511561168b576030835381516001906001101561168b57607860218401536041905b808211612016575050611fd4576048611bd8938693611fb893611fa9985198899376020b1b1b2b9b9a1b7b73a3937b61d1030b1b1b7bab73a1604d1b8a860152611f80815180928c60378901910161162c565b8401917001034b99036b4b9b9b4b733903937b6329607d1b60378401525180938684019061162c565b0103602881018752018561173c565b5192839262461bcd60e51b84526004840152602483019061164d565b60648486519062461bcd60e51b825280600483015260248201527f537472696e67733a20686578206c656e67746820696e73756666696369656e746044820152fd5b9091600f8116601081101561168b576f181899199a1a9b1b9c1cb0b131b232b360811b901a61204584866129a1565b5360041c9180156117c6575f190190611f2d565b335f9081527f3195c024b2ddd6d9b8f6c836aa52f67fe69376c8903d009b80229b3ce4425f516020908152604091829020547f9f2df0fed2c77648de5860a4cc508cd0818c85b8b8a1ab4ceeef8d981c8956a69060ff16156120ba57505050565b6120c3336129b2565b9083516120cf81611720565b6042815283810191606036843781511561168b576030835381516001906001101561168b57607860218401536041905b808211612152575050611fd4576048611bd8938693611fb893611fa9985198899376020b1b1b2b9b9a1b7b73a3937b61d1030b1b1b7bab73a1604d1b8a860152611f80815180928c60378901910161162c565b9091600f8116601081101561168b576f181899199a1a9b1b9c1cb0b131b232b360811b901a61218184866129a1565b5360041c9180156117c6575f1901906120ff565b805f52602060068152604091825f20335f52825260ff835f205416156121ba57505050565b6121c3336129b2565b9083516121cf81611720565b6042815283810191606036843781511561168b576030835381516001906001101561168b57607860218401536041905b808211612252575050611fd4576048611bd8938693611fb893611fa9985198899376020b1b1b2b9b9a1b7b73a3937b61d1030b1b1b7bab73a1604d1b8a860152611f80815180928c60378901910161162c565b9091600f8116601081101561168b576f181899199a1a9b1b9c1cb0b131b232b360811b901a61228184866129a1565b5360041c9180156117c6575f1901906121ff565b6001600160a01b03806122a783611a35565b1691825f52602090600982526040805f2094825f52600a8452815f2054958054965f19978881019081116117c65780820361244d575b505080548015612439578701906122f482826117e7565b8982549160031b1b1916905555825f52600a84525f828120555f52600f835283815f2054168061241c575b5061232982611a35565b5061233382611a35565b91805f5260048452815f206001600160601b0360a01b9081815416905585841696875f5260038652835f20908154019055815f5260028552825f209081541690555f867fddf252ad1be2c89b69c2b068fc378daa952ba7f163c4a11628f55a4df523b3ef8280a4846123a7575b5050505050565b5f858152600f8452819020545f80516020612b6c83398151915294168015612403575f52600c8352805f206123dc81546117b8565b90555b845f52600c83526123f4815f20548093612a97565b51908152a25f808080806123a0565b50600c8352805f2061241581546117b8565b90556123df565b5f52600c8352805f208054908682019182116117c657555f61231f565b634e487b7160e01b5f52603160045260245ffd5b61245790836117e7565b90549060031b1c6124848161246c84866117e7565b90919082549060031b91821b915f19901b1916179055565b5f52600a8652835f20555f806122dd565b90600182018092116117c657565b906001600160a01b0380831680159081612671575f848152600260205260409020546124db906001600160a01b031615155b156127e5565b5f848152600260205260409020546124fd906001600160a01b031615156124d5565b805f526020926003845281604096875f2060018154019055865f526002865285885f20956001600160601b0360a01b96848882541617905588845f7fddf252ad1be2c89b69c2b068fc378daa952ba7f163c4a11628f55a4df523b3ef8180a4156125fb575b50505f5260098452855f2054855f52600a8552865f2055815f5260098452855f2094855490600160401b8210156116f05761246c82600c9860016125a8950181556117e7565b815f52600f8452855f20541680155f146125e25750805f52600f8352845f2091825416179055525f20805490600182018092116117c65755565b9150505f52525f20805490600182018092116117c65755565b5f838152600f8252899020545f80516020612b6c833981519152929085168015612658575f52600c8252895f206126328154612495565b90555b835f52600c825261264a8a5f20548092612a97565b8951908152a2815f85612562565b50600c8252895f2061266a8154612495565b9055612635565b606460405162461bcd60e51b815260206004820152602060248201527f4552433732313a206d696e7420746f20746865207a65726f20616464726573736044820152fd5b90815f52600660205260405f209060018060a01b031690815f5260205260ff60405f2054166126e2575050565b815f52600660205260405f20815f5260205260405f2060ff19815416905533917ff6391f5c32d9c69d2a47ea670b442974b53935d1edc7fd64eb21e047a839171b5f80a4565b906001600160a01b03808061273c84611a35565b1693169183831493841561276f575b508315612759575b50505090565b612765919293506117fc565b16145f8080612753565b9093505f52600560205260405f20825f5260205260ff60405f205416925f61274b565b60809060208152603260208201527f4552433732313a207472616e7366657220746f206e6f6e20455243373231526560408201527131b2b4bb32b91034b6b83632b6b2b73a32b960711b60608201520190565b156127ec57565b60405162461bcd60e51b815260206004820152601c60248201527f4552433732313a20746f6b656e20616c7265616479206d696e746564000000006044820152606490fd5b1561283857565b60405162461bcd60e51b815260206004820152602560248201527f4552433732313a207472616e736665722066726f6d20696e636f72726563742060448201526437bbb732b960d91b6064820152608490fd5b9293929190803b1561299857935f916128e49560018060a01b039160405194838694928593630a85bd0160e11b998a86523360048701521660248501526044840152608060648401528260209a8b97608483019061164d565b0393165af15f9181612958575b5061294957833d15612942573d6129078161175e565b90612915604051928361173c565b81523d5f8383013e5b8051918261293f5760405162461bcd60e51b815280611bd860048201612792565b01fd5b606061291e565b6001600160e01b031916149150565b9091508481813d8311612991575b612970818361173c565b8101031261140d57516001600160e01b03198116810361140d57905f6128f1565b503d612966565b50600193505050565b90815181101561168b570160200190565b604051906060820182811067ffffffffffffffff8211176116f057604052602a825260208201604036823782511561168b576030905381516001906001101561168b57607860218401536029905b808211612a54575050612a105790565b606460405162461bcd60e51b815260206004820152602060248201527f537472696e67733a20686578206c656e67746820696e73756666696369656e746044820152fd5b9091600f8116601081101561168b576f181899199a1a9b1b9c1cb0b131b232b360811b901a612a8384866129a1565b5360041c9180156117c6575f190190612a00565b6001600160a01b03165f90815260106020526040902080549081151580612b46575b15612ada575f1982019182116117c657600191612ad591611672565b500155565b9163ffffffff9260405192612aee846116d4565b844316845260208401928352600160401b8110156116f057612b1591600182018155611672565b939093612b3357600192511663ffffffff1984541617835551910155565b634e487b7160e01b5f525f60045260245ffd5b505f1982018281116117c657612b6163ffffffff9183611672565b5054164314612ab956fe53d6e2c1f35d5cea97b59287efe0616fb8ce40967ef5eb1b3e4fb4fb3039e083a2646970667358221220e16d8706364b74e19a356029d1922d11e86e3b4cc8a8734e1db03e20a037055c64736f6c634300081800332f8788117e7eff1d82e926ec794901d17c78024a50270940304540a733656f0d",
  "linkReferences": {},
  "deployedLinkReferences": {}
}