{
  "_format": "hh-sol-artifact-1",
  "contractName": "VotingToken",
  "sourceName": "backend/contracts/VotingToken.sol",
  "abi": [
    {
      "inputs": [
        {
          "internalType": "address",
          "name": "_dao",
          "type": "address"
        }
      ],
      "stateMutability": "nonpayable",
      "type": "constructor"
    },
    {
      "inputs": [],
      "name": "AccessControlBadConfirmation",
      "type": "error"
    },
    {
      "inputs": [
        {
          "internalType": "address",
          "name": "account",
          "type": "address"
        },
        {
          "internalType": "bytes32",
          "name": "neededRole",
          "type": "bytes32"
        }
      ],
      "name": "AccessControlUnauthorizedAccount",
      "type": "error"
    },
    {
      "inputs": [
        {
          "internalType": "address",
          "name": "sender",
          "type": "address"
        },
        {
          "internalType": "uint256",
          "name": "tokenId",
          "type": "uint256"
        },
        {
          "internalType": "address",
          "name": "owner",
          "type": "address"
        }
      ],
      "name": "ERC721IncorrectOwner",
      "type": "error"
    },
    {
      "inputs": [
        {
          "internalType": "address",
          "name": "operator",
          "type": "address"
        },
        {
          "internalType": "uint256",
          "name": "tokenId",
          "type": "uint256"
        }
      ],
      "name": "ERC721InsufficientApproval",
      "type": "error"
    },
    {
      "inputs": [
        {
          "internalType": "address",
          "name": "approver",
          "type": "address"
        }
      ],
      "name": "ERC721InvalidApprover",
      "type": "error"
    },
    {
      "inputs": [
        {
          "internalType": "address",
          "name": "operator",
          "type": "address"
        }
      ],
      "name": "ERC721InvalidOperator",
      "type": "error"
    },
    {
      "inputs": [
        {
          "internalType": "address",
          "name": "owner",
          "type": "address"
        }
      ],
      "name": "ERC721InvalidOwner",
      "type": "error"
    },
    {
      "inputs": [
        {
          "internalType": "address",
          "name": "receiver",
          "type": "address"
        }
      ],
      "name": "ERC721InvalidReceiver",
      "type": "error"
    },
    {
      "inputs": [
        {
          "internalType": "address",
          "name": "sender",
          "type": "address"
        }
      ],
      "name": "ERC721InvalidSender",
      "type": "error"
    },
    {
      "inputs": [
        {
          "internalType": "uint256",
          "name": "tokenId",
          "type": "uint256"
        }
      ],
      "name": "ERC721NonexistentToken",
      "type": "error"
    },
    {
      "anonymous": false,
      "inputs": [
        {
          "indexed": true,
          "internalType": "address",
          "name": "owner",
          "type": "address"
        },
        {
          "indexed": true,
          "internalType": "address",
          "name": "approved",
          "type": "address"
        },
        {
          "indexed": true,
          "internalType": "uint256",
          "name": "tokenId",
          "type": "uint256"
        }
      ],
      "name": "Approval",
      "type": "event"
    },
    {
      "anonymous": false,
      "inputs": [
        {
          "indexed": true,
          "internalType": "address",
          "name": "owner",
          "type": "address"
        },
        {
          "indexed": true,
          "internalType": "address",
          "name": "operator",
          "type": "address"
        },
        {
          "indexed": false,
          "internalType": "bool",
          "name": "approved",
          "type": "bool"
        }
      ],
      "name": "ApprovalForAll",
      "type": "event"
    },
    {
      "anonymous": false,
      "inputs": [
        {
          "indexed": true,
          "internalType": "address",
          "name": "newDAO",
          "type": "address"
        }
      ],
      "name": "DAOSet",
      "type": "event"
    },
    {
      "anonymous": false,
      "inputs": [
        {
          "indexed": true,
          "internalType": "bytes32",
          "name": "role",
          "type": "bytes32"
        },
        {
          "indexed": true,
          "internalType": "bytes32",
          "name": "previousAdminRole",
          "type": "bytes32"
        },
        {
          "indexed": true,
          "internalType": "bytes32",
          "name": "newAdminRole",
          "type": "bytes32"
        }
      ],
      "name": "RoleAdminChanged",
      "type": "event"
    },
    {
      "anonymous": false,
      "inputs": [
        {
          "indexed": true,
          "internalType": "bytes32",
          "name": "role",
          "type": "bytes32"
        },
        {
          "indexed": true,
          "internalType": "address",
          "name": "account",
          "type": "address"
        },
        {
          "indexed": true,
          "internalType": "address",
          "name": "sender",
          "type": "address"
        }
      ],
      "name": "RoleGranted",
      "type": "event"
    },
    {
      "anonymous": false,
      "inputs": [
        {
          "indexed": true,
          "internalType": "bytes32",
          "name": "role",
          "type": "bytes32"
        },
        {
          "indexed": true,
          "internalType": "address",
          "name": "account",
          "type": "address"
        },
        {
          "indexed": true,
          "internalType": "address",
          "name": "sender",
          "type": "address"
        }
      ],
      "name": "RoleRevoked",
      "type": "event"
    },
    {
      "anonymous": false,
      "inputs": [
        {
          "indexed": true,
          "internalType": "address",
          "name": "to",
          "type": "address"
        },
        {
          "indexed": true,
          "internalType": "uint256",
          "name": "tokenId",
          "type": "uint256"
        }
      ],
      "name": "TokenMinted",
      "type": "event"
    },
    {
      "anonymous": false,
      "inputs": [
        {
          "indexed": true,
          "internalType": "address",
          "name": "voter",
          "type": "address"
        },
        {
          "indexed": false,
          "internalType": "uint256",
          "name": "amount",
          "type": "uint256"
        }
      ],
      "name": "TokenSlashed",
      "type": "event"
    },
    {
      "anonymous": false,
      "inputs": [
        {
          "indexed": true,
          "internalType": "address",
          "name": "from",
          "type": "address"
        },
        {
          "indexed": true,
          "internalType": "address",
          "name": "to",
          "type": "address"
        },
        {
          "indexed": true,
          "internalType": "uint256",
          "name": "tokenId",
          "type": "uint256"
        }
      ],
      "name": "Transfer",
      "type": "event"
    },
    {
      "inputs": [],
      "name": "DEFAULT_ADMIN_ROLE",
      "outputs": [
        {
          "internalType": "bytes32",
          "name": "",
          "type": "bytes32"
        }
      ],
      "stateMutability": "view",
      "type": "function"
    },
    {
      "inputs": [],
      "name": "MINTER_ROLE",
      "outputs": [
        {
          "internalType": "bytes32",
          "name": "",
          "type": "bytes32"
        }
      ],
      "stateMutability": "view",
      "type": "function"
    },
    {
      "inputs": [
        {
          "internalType": "address",
          "name": "to",
          "type": "address"
        },
        {
          "internalType": "uint256",
          "name": "tokenId",
          "type": "uint256"
        }
      ],
      "name": "approve",
      "outputs": [],
      "stateMutability": "nonpayable",
      "type": "function"
    },
    {
      "inputs": [
        {
          "internalType": "address",
          "name": "owner",
          "type": "address"
        }
      ],
      "name": "balanceOf",
      "outputs": [
        {
          "internalType": "uint256",
          "name": "",
          "type": "uint256"
        }
      ],
      "stateMutability": "view",
      "type": "function"
    },
    {
      "inputs": [],
      "name": "dao",
      "outputs": [
        {
          "internalType": "address",
          "name": "",
          "type": "address"
        }
      ],
      "stateMutability": "view",
      "type": "function"
    },
    {
      "inputs": [
        {
          "internalType": "uint256",
          "name": "tokenId",
          "type": "uint256"
        }
      ],
      "name": "getApproved",
      "outputs": [
        {
          "internalType": "address",
          "name": "",
          "type": "address"
        }
      ],
      "stateMutability": "view",
      "type": "function"
    },
    {
      "inputs": [
        {
          "internalType": "bytes32",
          "name": "role",
          "type": "bytes32"
        }
      ],
      "name": "getRoleAdmin",
      "outputs": [
        {
          "internalType": "bytes32",
          "name": "",
          "type": "bytes32"
        }
      ],
      "stateMutability": "view",
      "type": "function"
    },
    {
      "inputs": [
        {
          "internalType": "address",
          "name": "user",
          "type": "address"
        }
      ],
      "name": "getVotes",
      "outputs": [
        {
          "internalType": "uint256",
          "name": "",
          "type": "uint256"
        }
      ],
      "stateMutability": "view",
      "type": "function"
    },
    {
      "inputs": [
        {
          "internalType": "bytes32",
          "name": "role",
          "type": "bytes32"
        },
        {
          "internalType": "address",
          "name": "account",
          "type": "address"
        }
      ],
      "name": "grantRole",
      "outputs": [],
      "stateMutability": "nonpayable",
      "type": "function"
    },
    {
      "inputs": [
        {
          "internalType": "bytes32",
          "name": "role",
          "type": "bytes32"
        },
        {
          "internalType": "address",
          "name": "account",
          "type": "address"
        }
      ],
      "name": "hasRole",
      "outputs": [
        {
          "internalType": "bool",
          "name": "",
          "type": "bool"
        }
      ],
      "stateMutability": "view",
      "type": "function"
    },
    {
      "inputs": [
        {
          "internalType": "address",
          "name": "owner",
          "type": "address"
        },
        {
          "internalType": "address",
          "name": "operator",
          "type": "address"
        }
      ],
      "name": "isApprovedForAll",
      "outputs": [
        {
          "internalType": "bool",
          "name": "",
          "type": "bool"
        }
      ],
      "stateMutability": "view",
      "type": "function"
    },
    {
      "inputs": [
        {
          "internalType": "address",
          "name": "to",
          "type": "address"
        },
        {
          "internalType": "uint256",
          "name": "amount",
          "type": "uint256"
        }
      ],
      "name": "mint",
      "outputs": [],
      "stateMutability": "nonpayable",
      "type": "function"
    },
    {
      "inputs": [
        {
          "internalType": "address",
          "name": "to",
          "type": "address"
        }
      ],
      "name": "mintSingle",
      "outputs": [],
      "stateMutability": "nonpayable",
      "type": "function"
    },
    {
      "inputs": [],
      "name": "name",
      "outputs": [
        {
          "internalType": "string",
          "name": "",
          "type": "string"
        }
      ],
      "stateMutability": "view",
      "type": "function"
    },
    {
      "inputs": [],
      "name": "nextTokenId",
      "outputs": [
        {
          "internalType": "uint256",
          "name": "",
          "type": "uint256"
        }
      ],
      "stateMutability": "view",
      "type": "function"
    },
    {
      "inputs": [
        {
          "internalType": "uint256",
          "name": "tokenId",
          "type": "uint256"
        }
      ],
      "name": "ownerOf",
      "outputs": [
        {
          "internalType": "address",
          "name": "",
          "type": "address"
        }
      ],
      "stateMutability": "view",
      "type": "function"
    },
    {
      "inputs": [
        {
          "internalType": "bytes32",
          "name": "role",
          "type": "bytes32"
        },
        {
          "internalType": "address",
          "name": "callerConfirmation",
          "type": "address"
        }
      ],
      "name": "renounceRole",
      "outputs": [],
      "stateMutability": "nonpayable",
      "type": "function"
    },
    {
      "inputs": [
        {
          "internalType": "bytes32",
          "name": "role",
          "type": "bytes32"
        },
        {
          "internalType": "address",
          "name": "account",
          "type": "address"
        }
      ],
      "name": "revokeRole",
      "outputs": [],
      "stateMutability": "nonpayable",
      "type": "function"
    },
    {
      "inputs": [
        {
          "internalType": "address",
          "name": "from",
          "type": "address"
        },
        {
          "internalType": "address",
          "name": "to",
          "type": "address"
        },
        {
          "internalType": "uint256",
          "name": "tokenId",
          "type": "uint256"
        }
      ],
      "name": "safeTransferFrom",
      "outputs": [],
      "stateMutability": "nonpayable",
      "type": "function"
    },
    {
      "inputs": [
        {
          "internalType": "address",
          "name": "from",
          "type": "address"
        },
        {
          "internalType": "address",
          "name": "to",
          "type": "address"
        },
        {
          "internalType": "uint256",
          "name": "tokenId",
          "type": "uint256"
        },
        {
          "internalType": "bytes",
          "name": "data",
          "type": "bytes"
        }
      ],
      "name": "safeTransferFrom",
      "outputs": [],
      "stateMutability": "nonpayable",
      "type": "function"
    },
    {
      "inputs": [
        {
          "internalType": "address",
          "name": "operator",
          "type": "address"
        },
        {
          "internalType": "bool",
          "name": "approved",
          "type": "bool"
        }
      ],
      "name": "setApprovalForAll",
      "outputs": [],
      "stateMutability": "nonpayable",
      "type": "function"
    },
    {
      "inputs": [
        {
          "internalType": "address",
          "name": "newDAO",
          "type": "address"
        }
      ],
      "name": "setDAO",
      "outputs": [],
      "stateMutability": "nonpayable",
      "type": "function"
    },
    {
      "inputs": [
        {
          "internalType": "address",
          "name": "voter",
          "type": "address"
        },
        {
          "internalType": "uint256",
          "name": "amount",
          "type": "uint256"
        }
      ],
      "name": "slash",
      "outputs": [],
      "stateMutability": "nonpayable",
      "type": "function"
    },
    {
      "inputs": [
        {
          "internalType": "bytes4",
          "name": "interfaceId",
          "type": "bytes4"
        }
      ],
      "name": "supportsInterface",
      "outputs": [
        {
          "internalType": "bool",
          "name": "",
          "type": "bool"
        }
      ],
      "stateMutability": "view",
      "type": "function"
    },
    {
      "inputs": [],
      "name": "symbol",
      "outputs": [
        {
          "internalType": "string",
          "name": "",
          "type": "string"
        }
      ],
      "stateMutability": "view",
      "type": "function"
    },
    {
      "inputs": [
        {
          "internalType": "uint256",
          "name": "tokenId",
          "type": "uint256"
        }
      ],
      "name": "tokenURI",
      "outputs": [
        {
          "internalType": "string",
          "name": "",
          "type": "string"
        }
      ],
      "stateMutability": "view",
      "type": "function"
    },
    {
      "inputs": [
        {
          "internalType": "address",
          "name": "from",
          "type": "address"
        },
        {
          "internalType": "address",
          "name": "to",
          "type": "address"
        },
        {
          "internalType": "uint256",
          "name": "tokenId",
          "type": "uint256"
        }
      ],
      "name": "transferFrom",
      "outputs": [],
      "stateMutability": "nonpayable",
      "type": "function"
    }
  ],
  "bytecode": "0x6080806040523461049457602081612055803803809161001f8285610498565b83398101031261049457516001600160a01b03811690819003610494576040519061004b604083610498565b601082526f23b7bb32b93730b731b2902a37b5b2b760811b602083015260405190610077604083610498565b600382526223a7ab60e91b602083015282516001600160401b0381116103a8575f54600181811c9116801561048a575b602082101461038a57601f8111610428575b506020601f82116001146103c757819293945f926103bc575b50508160011b915f199060031b1c1916175f555b81516001600160401b0381116103a857600154600181811c9116801561039e575b602082101461038a57601f8111610327575b50602092601f82116001146102c657928192935f926102bb575b50508160011b915f199060031b1c1916176001555b6101666040805167fbcb64988d48d31d602082015260208152610498565b610184604080516706dc755f72ad336f602082015260208152610498565b6101a2604080516715dd4bab09564813602082015260208152610498565b8015610276576101c66040805167410ce4522204b957602082015260208152610498565b6101e460408051673424ece71cd5eb92602082015260208152610498565b60018060a01b031960085416176008556102126040805167673388c666c3c8d4602082015260208152610498565b600160075561023560408051670752617f1ffda80b602082015260208152610498565b61023e336104bb565b5061025d6040805167963addfcc0b79f0d602082015260208152610498565b61026633610531565b50604051611a3090816105c58239f35b60405162461bcd60e51b815260206004820152601460248201527f44414f20616464726573732072657175697265640000000000000000000000006044820152606490fd5b015190505f80610133565b601f1982169360015f52805f20915f5b86811061030f57508360019596106102f7575b505050811b01600155610148565b01515f1960f88460031b161c191690555f80806102e9565b919260206001819286850151815501940192016102d6565b60015f527fb10e2d527612073b26eecdfd717e6a320cf44b4afac2b0732d9fcbe2b7fa0cf6601f830160051c81019160208410610380575b601f0160051c01905b8181106103755750610119565b5f8155600101610368565b909150819061035f565b634e487b7160e01b5f52602260045260245ffd5b90607f1690610107565b634e487b7160e01b5f52604160045260245ffd5b015190505f806100d2565b601f198216905f8052805f20915f5b818110610410575095836001959697106103f8575b505050811b015f556100e6565b01515f1960f88460031b161c191690555f80806103eb565b9192602060018192868b0151815501940192016103d6565b5f80527f290decd9548b62a8d60345a988386fc84ba6bc95484008f6362f93160ef3e563601f830160051c81019160208410610480575b601f0160051c01905b81811061047557506100b9565b5f8155600101610468565b909150819061045f565b90607f16906100a7565b5f80fd5b601f909101601f19168101906001600160401b038211908210176103a857604052565b6001600160a01b0381165f9081525f5160206120355f395f51905f52602052604090205460ff1661052c576001600160a01b03165f8181525f5160206120355f395f51905f5260205260408120805460ff191660011790553391905f516020611ff55f395f51905f528180a4600190565b505f90565b6001600160a01b0381165f9081525f5160206120155f395f51905f52602052604090205460ff1661052c576001600160a01b03165f8181525f5160206120155f395f51905f5260205260408120805460ff191660011790553391907f9f2df0fed2c77648de5860a4cc508cd0818c85b8b8a1ab4ceeef8d981c8956a6905f516020611ff55f395f51905f529080a460019056fe6080806040526004361015610012575f80fd5b5f905f3560e01c90816301ffc9a7146115095750806302fb4d8514610fcd57806306fdde0314610f12578063081812fc14610ed5578063095ea7b314610dec57806323b872dd14610dbc578063248a9ca314610d905780632a240ef014610c0b5780632f2ff15d14610bcc57806336568abe14610b8757806340c10f191461091d5780634162169f146108f457806342842e0e146108555780636352211e1461082457806370a082311461080557806375794a3c146107e757806391d148541461079d57806395d89b41146106985780639ab24eb014610634578063a217fddf14610618578063a22cb46514610576578063b88d4fde14610450578063c87b56dd146103fd578063d5391393146103c2578063d547741f1461037a578063e73a914c146101a15763e985e9c514610147575f80fd5b3461019e57604036600319011261019e5760406101626115c7565b9161016b6115dd565b9260018060a01b031681526005602052209060018060a01b03165f52602052602060ff60405f2054166040519015158152f35b80fd5b503461019e57602036600319011261019e576101bb6115c7565b6101d9604080516727ccc503c330d8cd602082015260208152611657565b335f9081527f54cdd369e4e8a8515e52ca72ec816c2101831ad1f18bf44102ed171459c9b4f8602052604090205460ff16156103635761022d6040805167a3b4f49d11aed952602082015260208152611657565b61024b604080516765368f3ad8b6b23e602082015260208152611657565b6102696040805167ee9de65e129733d7602082015260208152611657565b6102876040805167ef84ed3da9fceb99602082015260208152611657565b6001600160a01b03168015610330576102b460408051673dda467cb8229e83602082015260208152611657565b6102d26040805167ebfbf17d007a4cff602082015260208152611657565b806bffffffffffffffffffffffff60a01b6008541617600855610309604080516729f1d46646835326602082015260208152611657565b7f8aad84fcad50e723fa3bcf0fb32c5bea4c71078b77b9aedfa638f146f3a3f7b98280a280f35b60405162461bcd60e51b815260206004820152600b60248201526a496e76616c69642044414f60a81b6044820152606490fd5b63e2517d3f60e01b5f52336004525f60245260445ffd5b503461019e57604036600319011261019e576103be60043561039a6115dd565b906103b96103b4825f526006602052600160405f20015490565b6117c1565b611976565b5080f35b503461019e578060031936011261019e5760206040517f9f2df0fed2c77648de5860a4cc508cd0818c85b8b8a1ab4ceeef8d981c8956a68152f35b503461019e57602036600319011261019e5761041a60043561171e565b508060405161042a602082611657565b525061044c60405161043d602082611657565b5f8152604051918291826115f3565b0390f35b503461019e57608036600319011261019e5761046a6115c7565b506104736115dd565b5060643567ffffffffffffffff8111610572573660238201121561057257806004013567ffffffffffffffff811161055e576040516104bc601f8301601f191660200182611657565b818152366024838501011161055a5781602460209401848301370101526104f760408051670fe9d6d5f472825c602082015260208152611657565b6105156040805167d9d646e42bde3d74602082015260208152611657565b60405162461bcd60e51b815260206004820152601b60248201527f536f756c626f756e643a206e6f6e2d7472616e7366657261626c6500000000006044820152606490fd5b8380fd5b634e487b7160e01b83526041600452602483fd5b5080fd5b503461019e57604036600319011261019e576105906115c7565b60243590811515809203610614576001600160a01b031690811561060057338352600560205260408320825f5260205260405f2060ff1981541660ff83161790556040519081527f17307eab39ab6107e8899845ad3d59bd9653f200f220920489ca2b5937696c3160203392a380f35b630b61174360e31b83526004829052602483fd5b8280fd5b503461019e578060031936011261019e57602090604051908152f35b503461019e57602036600319011261019e5760206106906106536115c7565b61066f6040805167fe0951526be031b286820152858152611657565b61068b604080516792fb2b72cd45d59b86820152858152611657565b6116ed565b604051908152f35b503461019e578060031936011261019e576040519080600154908160011c91600181168015610793575b60208410811461077f5783865290811561075857506001146106fb575b61044c846106ef81860382611657565b604051918291826115f3565b600181527fb10e2d527612073b26eecdfd717e6a320cf44b4afac2b0732d9fcbe2b7fa0cf6939250905b80821061073e575090915081016020016106ef826106df565b919260018160209254838588010152019101909291610725565b60ff191660208087019190915292151560051b850190920192506106ef91508390506106df565b634e487b7160e01b83526022600452602483fd5b92607f16926106c2565b503461019e57604036600319011261019e5760406107b96115dd565b9160043581526006602052209060018060a01b03165f52602052602060ff60405f2054166040519015158152f35b503461019e578060031936011261019e576020600754604051908152f35b503461019e57602036600319011261019e57602061069061068b6115c7565b503461019e57602036600319011261019e57602061084360043561171e565b6040516001600160a01b039091168152f35b503461019e576064906108673661161d565b50505060209060405161087a8382611657565b5261089760408051670fe9d6d5f472825c84820152838152611657565b6108b36040805167d9d646e42bde3d7484820152838152611657565b6040519062461bcd60e51b82526004820152601b60248201527f536f756c626f756e643a206e6f6e2d7472616e7366657261626c6500000000006044820152fd5b503461019e578060031936011261019e576008546040516001600160a01b039091168152602090f35b503461019e57604036600319011261019e576109376115c7565b6024359061095960408051676edb2e9ed687eb66602082015260208152611657565b610961611752565b61097f60408051678c30f1bbc562a732602082015260208152611657565b61099d60408051674455d5314ef2a0f7602082015260208152611657565b6109bb60408051679a00d2952ad1b92c602082015260208152611657565b6109d96040805167b4cde73281703ad3602082015260208152611657565b6001600160a01b0381166109ee81151561168d565b610a0c60408051676b8f503c6f764035602082015260208152611657565b610a2a604080516765acb18dabf1dc64602082015260208152611657565b610a486040805167e783b6768ffa0b71602082015260208152611657565b82151580610b7c575b15610b4057610a7460408051675fe39b1654b077d5602082015260208152611657565b610a926040805167eb4acdceba5eb994602082015260208152611657565b835b838110610a9f578480f35b600190610ac06040805167108cb4cc686aabe8602082015260208152611657565b600754610acc816116cb565b600755610aed60408051678d604383d6d248b6602082015260208152611657565b610af781866117fb565b610b156040805167fcc754b6a393d1a0602082015260208152611657565b837fb9144c96c86541f6fa89c9f2f02495cccf4b08cd6643e26d34ee00aa586558a88880a301610a94565b60405162461bcd60e51b81526020600482015260146024820152730416d6f756e74206d75737420626520312d3130360641b6044820152606490fd5b506064831115610a51565b503461019e57604036600319011261019e57610ba16115dd565b336001600160a01b03821603610bbd576103be90600435611976565b63334bd91960e11b8252600482fd5b503461019e57604036600319011261019e576103be600435610bec6115dd565b90610c066103b4825f526006602052600160405f20015490565b6118ea565b503461019e57602036600319011261019e57610c256115c7565b610c436040805167f729ed7e96b6435c602082015260208152611657565b610c4b611752565b610c69604080516713e810b402d659b4602082015260208152611657565b610c8760408051678dbd92480141248f602082015260208152611657565b610ca56040805167bfda47d283179b21602082015260208152611657565b610cc3604080516761445cacaad1ab50602082015260208152611657565b6001600160a01b038116610cd881151561168d565b610cf660408051672bd9a09cb040f6ca602082015260208152611657565b610d146040805167af37df8432ac38b5602082015260208152611657565b610d4b6007548093610d25826116cb565b600755610d4660408051675bee04b4b0925415602082015260208152611657565b6117fb565b610d6960408051678710c82f87af9271602082015260208152611657565b7fb9144c96c86541f6fa89c9f2f02495cccf4b08cd6643e26d34ee00aa586558a88380a380f35b503461019e57602036600319011261019e5760206106906004355f526006602052600160405f20015490565b503461019e57610dcb3661161d565b5050506104f760408051670fe9d6d5f472825c602082015260208152611657565b503461019e57604036600319011261019e57610e066115c7565b602435610e128161171e565b33151580610ec2575b80610e96575b610e835781906001600160a01b0384811691167f8c5be1e5ebec7d5bd14f71427d1e84f3dd0314c0f7b2291e5b200ac8c7c3b9258680a4825260046020526040822080546001600160a01b0319166001600160a01b0390921691909117905580f35b63a9fbf51f60e01b845233600452602484fd5b506001600160a01b0381168452600560209081526040808620335f908152925290205460ff1615610e21565b506001600160a01b038116331415610e1b565b503461019e57602036600319011261019e57602090600435610ef68161171e565b50815260048252604060018060a01b0391205416604051908152f35b503461019e578060031936011261019e5760405190808054908160011c91600181168015610fc3575b60208410811461077f578386529081156107585750600114610f675761044c846106ef81860382611657565b8080527f290decd9548b62a8d60345a988386fc84ba6bc95484008f6362f93160ef3e563939250905b808210610fa9575090915081016020016106ef826106df565b919260018160209254838588010152019101909291610f90565b92607f1692610f3b565b503461142f57604036600319011261142f57610fe76115c7565b906024356110096040805167391b83d6b64b919d602082015260208152611657565b6110276040805167d5bc22ac5d2df6b8602082015260208152611657565b61104560408051676c90ef17ede64173602082015260208152611657565b6008546001600160a01b031633036114cf576110756040805167ed587f06614edb65602082015260208152611657565b611093604080516726e46d857136f91b602082015260208152611657565b6110b16040805167c8e81c5f4b5d3093602082015260208152611657565b6001600160a01b03831692611107906110cb85151561168d565b6110e96040805167c4593ed053fd78c1602082015260208152611657565b61068b6040805167b59bbc75b5c602bf602082015260208152611657565b906111266040805167582c51f2337d9625602082015260208152611657565b61114460408051679bfe427facc71a1b602082015260208152611657565b8115611495576111686040805167d6944928f18b02c7602082015260208152611657565b6111866040805167fbfa848ebebd3c34602082015260208152611657565b818111801561146d575b80611444575b1561143c5750915b6111bc6040805167aae4d427f2e4593d602082015260208152611657565b5f916111dc60408051678fe1f617c2e4776b602082015260208152611657565b6001925b600754841080611433575b156113695761120e60408051678fd006d30724ffc4602082015260208152611657565b826001600160a01b036112208661171e565b1603611346576112446040805167fca3452a8e16400a602082015260208152611657565b61126260408051674141431a38376684602082015260208152611657565b5f848152600260205260409020546001600160a01b03168015908115611313575b5f86815260026020526040812080546001600160a01b03191690558690827fddf252ad1be2c89b69c2b068fc378daa952ba7f163c4a11628f55a4df523b3ef8280a450611300576112f46112fa916112ef6040805167c7b7e4057719b06b602082015260208152611657565b6116cb565b936116cb565b926111e0565b83637e27328960e01b5f5260045260245ffd5b5f86815260046020526040902080546001600160a01b0319169055805f52600360205260405f205f198154019055611283565b926112fa906112ef6040805167ad2f8d4994c81dec602082015260208152611657565b82611388604080516718f54e03e940898f602082015260208152611657565b807ff07fe48984adf7cd00d608ef62ee09ccf9774ff0085bfca0af5cd8ff76c01a026020604051858152a26113d1604080516757619e0a829fc1c8602082015260208152611657565b6008546001600160a01b031691823b1561142f5760445f928360405195869485936307d4fca360e01b8552600485015260248401525af1801561142457611416575080f35b61142291505f90611657565b005b6040513d5f823e3d90fd5b5f80fd5b508481106111eb565b90509161119e565b506114666040805167d73a70d590d460fb60c01b602082015260208152611657565b6001611196565b5061148f60408051673d9fdd7fd728fb8d60c11b602082015260208152611657565b5f611190565b60405162461bcd60e51b815260206004820152601260248201527109cde40e8ded6cadce640e8de40e6d8c2e6d60731b6044820152606490fd5b60405162461bcd60e51b815260206004820152601260248201527109edcd8f24088829e40c6c2dc40e6d8c2e6d60731b6044820152606490fd5b3461142f57602036600319011261142f5760043563ffffffff60e01b811680910361142f5761154b60408367fd973034b9a2fa7d602080960152848152611657565b61156760408051671ca039213aa8bb6d85820152848152611657565b637965db0b60e01b8114908115611584575b506040519015158152f35b6380ac58cd60e01b8114915081156115b6575b81156115a5575b5082611579565b6301ffc9a760e01b1490508261159e565b635b5e139f60e01b81149150611597565b600435906001600160a01b038216820361142f57565b602435906001600160a01b038216820361142f57565b602060409281835280519182918282860152018484015e5f828201840152601f01601f1916010190565b606090600319011261142f576004356001600160a01b038116810361142f57906024356001600160a01b038116810361142f579060443590565b90601f8019910116810190811067ffffffffffffffff82111761167957604052565b634e487b7160e01b5f52604160045260245ffd5b1561169457565b60405162461bcd60e51b815260206004820152600f60248201526e496e76616c6964206164647265737360881b6044820152606490fd5b5f1981146116d95760010190565b634e487b7160e01b5f52601160045260245ffd5b6001600160a01b0316801561170b575f52600360205260405f205490565b6322718ad960e21b5f525f60045260245ffd5b5f818152600260205260409020546001600160a01b0316908115611740575090565b637e27328960e01b5f5260045260245ffd5b335f9081527f3195c024b2ddd6d9b8f6c836aa52f67fe69376c8903d009b80229b3ce4425f51602052604090205460ff161561178a57565b63e2517d3f60e01b5f52336004527f9f2df0fed2c77648de5860a4cc508cd0818c85b8b8a1ab4ceeef8d981c8956a660245260445ffd5b5f81815260066020908152604080832033845290915290205460ff16156117e55750565b63e2517d3f60e01b5f523360045260245260445ffd5b6001600160a01b03169081156118d7575f818152600260205260409020546001600160a01b031680151592909190836118a4575b805f52600360205260405f2060018154019055815f52600260205260405f20816bffffffffffffffffffffffff60a01b825416179055827fddf252ad1be2c89b69c2b068fc378daa952ba7f163c4a11628f55a4df523b3ef5f80a45061189157565b6339e3563760e11b5f525f60045260245ffd5b5f82815260046020526040902080546001600160a01b0319169055825f52600360205260405f205f19815401905561182f565b633250574960e11b5f525f60045260245ffd5b5f8181526006602090815260408083206001600160a01b038616845290915290205460ff16611970575f8181526006602090815260408083206001600160a01b0395909516808452949091528120805460ff19166001179055339291907f2f8788117e7eff1d82e926ec794901d17c78024a50270940304540a733656f0d9080a4600190565b50505f90565b5f8181526006602090815260408083206001600160a01b038616845290915290205460ff1615611970575f8181526006602090815260408083206001600160a01b0395909516808452949091528120805460ff19169055339291907ff6391f5c32d9c69d2a47ea670b442974b53935d1edc7fd64eb21e047a839171b9080a460019056fea2646970667358221220ad2fb4cee1bd92a7c989cd02661754c39ebb34b7cc1ca3e4fe08ceeee8c7a83164736f6c634300081c00332f8788117e7eff1d82e926ec794901d17c78024a50270940304540a733656f0d3195c024b2ddd6d9b8f6c836aa52f67fe69376c8903d009b80229b3ce4425f5154cdd369e4e8a8515e52ca72ec816c2101831ad1f18bf44102ed171459c9b4f8",
  "linkReferences": {},
  "deployedLinkReferences": {}
}