{
  "_format": "hh-sol-artifact-1",
  "contractName": "VotingToken",
  "sourceName": "backend/contracts/VotingToken.sol",
  "abi": [
    {
      "inputs": [
        {
          "internalType": "address",
          "name": "_dao",
          "type": "address"
        }
      ],
      "stateMutability": "nonpayable",
      "type": "constructor"
    },
    {
      "inputs": [],
      "name": "AccessControlBadConfirmation",
      "type": "error"
    },
    {
      "inputs": [
        {
          "internalType": "address",
          "name": "account",
          "type": "address"
        },
        {
          "internalType": "bytes32",
          "name": "neededRole",
          "type": "bytes32"
        }
      ],
      "name": "AccessControlUnauthorizedAccount",
      "type": "error"
    },
    {
      "inputs": [
        {
          "internalType": "address",
          "name": "sender",
          "type": "address"
        },
        {
          "internalType": "uint256",
          "name": "tokenId",
          "type": "uint256"
        },
        {
          "internalType": "address",
          "name": "owner",
          "type": "address"
        }
      ],
      "name": "ERC721IncorrectOwner",
      "type": "error"
    },
    {
      "inputs": [
        {
          "internalType": "address",
          "name": "operator",
          "type": "address"
        },
        {
          "internalType": "uint256",
          "name": "tokenId",
          "type": "uint256"
        }
      ],
      "name": "ERC721InsufficientApproval",
      "type": "error"
    },
    {
      "inputs": [
        {
          "internalType": "address",
          "name": "approver",
          "type": "address"
        }
      ],
      "name": "ERC721InvalidApprover",
      "type": "error"
    },
    {
      "inputs": [
        {
          "internalType": "address",
          "name": "operator",
          "type": "address"
        }
      ],
      "name": "ERC721InvalidOperator",
      "type": "error"
    },
    {
      "inputs": [
        {
          "internalType": "address",
          "name": "owner",
          "type": "address"
        }
      ],
      "name": "ERC721InvalidOwner",
      "type": "error"
    },
    {
      "inputs": [
        {
          "internalType": "address",
          "name": "receiver",
          "type": "address"
        }
      ],
      "name": "ERC721InvalidReceiver",
      "type": "error"
    },
    {
      "inputs": [
        {
          "internalType": "address",
          "name": "sender",
          "type": "address"
        }
      ],
      "name": "ERC721InvalidSender",
      "type": "error"
    },
    {
      "inputs": [
        {
          "internalType": "uint256",
          "name": "tokenId",
          "type": "uint256"
        }
      ],
      "name": "ERC721NonexistentToken",
      "type": "error"
    },
    {
      "anonymous": false,
      "inputs": [
        {
          "indexed": true,
          "internalType": "address",
          "name": "owner",
          "type": "address"
        },
        {
          "indexed": true,
          "internalType": "address",
          "name": "approved",
          "type": "address"
        },
        {
          "indexed": true,
          "internalType": "uint256",
          "name": "tokenId",
          "type": "uint256"
        }
      ],
      "name": "Approval",
      "type": "event"
    },
    {
      "anonymous": false,
      "inputs": [
        {
          "indexed": true,
          "internalType": "address",
          "name": "owner",
          "type": "address"
        },
        {
          "indexed": true,
          "internalType": "address",
          "name": "operator",
          "type": "address"
        },
        {
          "indexed": false,
          "internalType": "bool",
          "name": "approved",
          "type": "bool"
        }
      ],
      "name": "ApprovalForAll",
      "type": "event"
    },
    {
      "anonymous": false,
      "inputs": [
        {
          "indexed": true,
          "internalType": "address",
          "name": "newDAO",
          "type": "address"
        }
      ],
      "name": "DAOSet",
      "type": "event"
    },
    {
      "anonymous": false,
      "inputs": [
        {
          "indexed": true,
          "internalType": "bytes32",
          "name": "role",
          "type": "bytes32"
        },
        {
          "indexed": true,
          "internalType": "bytes32",
          "name": "previousAdminRole",
          "type": "bytes32"
        },
        {
          "indexed": true,
          "internalType": "bytes32",
          "name": "newAdminRole",
          "type": "bytes32"
        }
      ],
      "name": "RoleAdminChanged",
      "type": "event"
    },
    {
      "anonymous": false,
      "inputs": [
        {
          "indexed": true,
          "internalType": "bytes32",
          "name": "role",
          "type": "bytes32"
        },
        {
          "indexed": true,
          "internalType": "address",
          "name": "account",
          "type": "address"
        },
        {
          "indexed": true,
          "internalType": "address",
          "name": "sender",
          "type": "address"
        }
      ],
      "name": "RoleGranted",
      "type": "event"
    },
    {
      "anonymous": false,
      "inputs": [
        {
          "indexed": true,
          "internalType": "bytes32",
          "name": "role",
          "type": "bytes32"
        },
        {
          "indexed": true,
          "internalType": "address",
          "name": "account",
          "type": "address"
        },
        {
          "indexed": true,
          "internalType": "address",
          "name": "sender",
          "type": "address"
        }
      ],
      "name": "RoleRevoked",
      "type": "event"
    },
    {
      "anonymous": false,
      "inputs": [
        {
          "indexed": true,
          "internalType": "address",
          "name": "to",
          "type": "address"
        },
        {
          "indexed": true,
          "internalType": "uint256",
          "name": "tokenId",
          "type": "uint256"
        }
      ],
      "name": "TokenMinted",
      "type": "event"
    },
    {
      "anonymous": false,
      "inputs": [
        {
          "indexed": true,
          "internalType": "address",
          "name": "voter",
          "type": "address"
        },
        {
          "indexed": false,
          "internalType": "uint256",
          "name": "amount",
          "type": "uint256"
        }
      ],
      "name": "TokenSlashed",
      "type": "event"
    },
    {
      "anonymous": false,
      "inputs": [
        {
          "indexed": true,
          "internalType": "address",
          "name": "from",
          "type": "address"
        },
        {
          "indexed": true,
          "internalType": "address",
          "name": "to",
          "type": "address"
        },
        {
          "indexed": true,
          "internalType": "uint256",
          "name": "tokenId",
          "type": "uint256"
        }
      ],
      "name": "Transfer",
      "type": "event"
    },
    {
      "inputs": [],
      "name": "DEFAULT_ADMIN_ROLE",
      "outputs": [
        {
          "internalType": "bytes32",
          "name": "",
          "type": "bytes32"
        }
      ],
      "stateMutability": "view",
      "type": "function"
    },
    {
      "inputs": [],
      "name": "MINTER_ROLE",
      "outputs": [
        {
          "internalType": "bytes32",
          "name": "",
          "type": "bytes32"
        }
      ],
      "stateMutability": "view",
      "type": "function"
    },
    {
      "inputs": [
        {
          "internalType": "address",
          "name": "to",
          "type": "address"
        },
        {
          "internalType": "uint256",
          "name": "tokenId",
          "type": "uint256"
        }
      ],
      "name": "approve",
      "outputs": [],
      "stateMutability": "nonpayable",
      "type": "function"
    },
    {
      "inputs": [
        {
          "internalType": "address",
          "name": "owner",
          "type": "address"
        }
      ],
      "name": "balanceOf",
      "outputs": [
        {
          "internalType": "uint256",
          "name": "",
          "type": "uint256"
        }
      ],
      "stateMutability": "view",
      "type": "function"
    },
    {
      "inputs": [],
      "name": "dao",
      "outputs": [
        {
          "internalType": "address",
          "name": "",
          "type": "address"
        }
      ],
      "stateMutability": "view",
      "type": "function"
    },
    {
      "inputs": [
        {
          "internalType": "uint256",
          "name": "tokenId",
          "type": "uint256"
        }
      ],
      "name": "getApproved",
      "outputs": [
        {
          "internalType": "address",
          "name": "",
          "type": "address"
        }
      ],
      "stateMutability": "view",
      "type": "function"
    },
    {
      "inputs": [
        {
          "internalType": "bytes32",
          "name": "role",
          "type": "bytes32"
        }
      ],
      "name": "getRoleAdmin",
      "outputs": [
        {
          "internalType": "bytes32",
          "name": "",
          "type": "bytes32"
        }
      ],
      "stateMutability": "view",
      "type": "function"
    },
    {
      "inputs": [
        {
          "internalType": "address",
          "name": "user",
          "type": "address"
        }
      ],
      "name": "getVotes",
      "outputs": [
        {
          "internalType": "uint256",
          "name": "",
          "type": "uint256"
        }
      ],
      "stateMutability": "view",
      "type": "function"
    },
    {
      "inputs": [
        {
          "internalType": "bytes32",
          "name": "role",
          "type": "bytes32"
        },
        {
          "internalType": "address",
          "name": "account",
          "type": "address"
        }
      ],
      "name": "grantRole",
      "outputs": [],
      "stateMutability": "nonpayable",
      "type": "function"
    },
    {
      "inputs": [
        {
          "internalType": "bytes32",
          "name": "role",
          "type": "bytes32"
        },
        {
          "internalType": "address",
          "name": "account",
          "type": "address"
        }
      ],
      "name": "hasRole",
      "outputs": [
        {
          "internalType": "bool",
          "name": "",
          "type": "bool"
        }
      ],
      "stateMutability": "view",
      "type": "function"
    },
    {
      "inputs": [
        {
          "internalType": "address",
          "name": "owner",
          "type": "address"
        },
        {
          "internalType": "address",
          "name": "operator",
          "type": "address"
        }
      ],
      "name": "isApprovedForAll",
      "outputs": [
        {
          "internalType": "bool",
          "name": "",
          "type": "bool"
        }
      ],
      "stateMutability": "view",
      "type": "function"
    },
    {
      "inputs": [
        {
          "internalType": "address",
          "name": "to",
          "type": "address"
        },
        {
          "internalType": "uint256",
          "name": "amount",
          "type": "uint256"
        }
      ],
      "name": "mint",
      "outputs": [],
      "stateMutability": "nonpayable",
      "type": "function"
    },
    {
      "inputs": [
        {
          "internalType": "address",
          "name": "to",
          "type": "address"
        }
      ],
      "name": "mintSingle",
      "outputs": [],
      "stateMutability": "nonpayable",
      "type": "function"
    },
    {
      "inputs": [],
      "name": "name",
      "outputs": [
        {
          "internalType": "string",
          "name": "",
          "type": "string"
        }
      ],
      "stateMutability": "view",
      "type": "function"
    },
    {
      "inputs": [],
      "name": "nextTokenId",
      "outputs": [
        {
          "internalType": "uint256",
          "name": "",
          "type": "uint256"
        }
      ],
      "stateMutability": "view",
      "type": "function"
    },
    {
      "inputs": [
        {
          "internalType": "uint256",
          "name": "tokenId",
          "type": "uint256"
        }
      ],
      "name": "ownerOf",
      "outputs": [
        {
          "internalType": "address",
          "name": "",
          "type": "address"
        }
      ],
      "stateMutability": "view",
      "type": "function"
    },
    {
      "inputs": [
        {
          "internalType": "bytes32",
          "name": "role",
          "type": "bytes32"
        },
        {
          "internalType": "address",
          "name": "callerConfirmation",
          "type": "address"
        }
      ],
      "name": "renounceRole",
      "outputs": [],
      "stateMutability": "nonpayable",
      "type": "function"
    },
    {
      "inputs": [
        {
          "internalType": "bytes32",
          "name": "role",
          "type": "bytes32"
        },
        {
          "internalType": "address",
          "name": "account",
          "type": "address"
        }
      ],
      "name": "revokeRole",
      "outputs": [],
      "stateMutability": "nonpayable",
      "type": "function"
    },
    {
      "inputs": [
        {
          "internalType": "address",
          "name": "from",
          "type": "address"
        },
        {
          "internalType": "address",
          "name": "to",
          "type": "address"
        },
        {
          "internalType": "uint256",
          "name": "tokenId",
          "type": "uint256"
        }
      ],
      "name": "safeTransferFrom",
      "outputs": [],
      "stateMutability": "nonpayable",
      "type": "function"
    },
    {
      "inputs": [
        {
          "internalType": "address",
          "name": "from",
          "type": "address"
        },
        {
          "internalType": "address",
          "name": "to",
          "type": "address"
        },
        {
          "internalType": "uint256",
          "name": "tokenId",
          "type": "uint256"
        },
        {
          "internalType": "bytes",
          "name": "data",
          "type": "bytes"
        }
      ],
      "name": "safeTransferFrom",
      "outputs": [],
      "stateMutability": "nonpayable",
      "type": "function"
    },
    {
      "inputs": [
        {
          "internalType": "address",
          "name": "operator",
          "type": "address"
        },
        {
          "internalType": "bool",
          "name": "approved",
          "type": "bool"
        }
      ],
      "name": "setApprovalForAll",
      "outputs": [],
      "stateMutability": "nonpayable",
      "type": "function"
    },
    {
      "inputs": [
        {
          "internalType": "address",
          "name": "newDAO",
          "type": "address"
        }
      ],
      "name": "setDAO",
      "outputs": [],
      "stateMutability": "nonpayable",
      "type": "function"
    },
    {
      "inputs": [
        {
          "internalType": "address",
          "name": "voter",
          "type": "address"
        },
        {
          "internalType": "uint256",
          "name": "amount",
          "type": "uint256"
        }
      ],
      "name": "slash",
      "outputs": [],
      "stateMutability": "nonpayable",
      "type": "function"
    },
    {
      "inputs": [
        {
          "internalType": "bytes4",
          "name": "interfaceId",
          "type": "bytes4"
        }
      ],
      "name": "supportsInterface",
      "outputs": [
        {
          "internalType": "bool",
          "name": "",
          "type": "bool"
        }
      ],
      "stateMutability": "view",
      "type": "function"
    },
    {
      "inputs": [],
      "name": "symbol",
      "outputs": [
        {
          "internalType": "string",
          "name": "",
          "type": "string"
        }
      ],
      "stateMutability": "view",
      "type": "function"
    },
    {
      "inputs": [
        {
          "internalType": "uint256",
          "name": "tokenId",
          "type": "uint256"
        }
      ],
      "name": "tokenURI",
      "outputs": [
        {
          "internalType": "string",
          "name": "",
          "type": "string"
        }
      ],
      "stateMutability": "view",
      "type": "function"
    },
    {
      "inputs": [
        {
          "internalType": "address",
          "name": "from",
          "type": "address"
        },
        {
          "internalType": "address",
          "name": "to",
          "type": "address"
        },
        {
          "internalType": "uint256",
          "name": "tokenId",
          "type": "uint256"
        }
      ],
      "name": "transferFrom",
      "outputs": [],
      "stateMutability": "nonpayable",
      "type": "function"
    }
  ],
  "bytecode": "0x6080604052346103b9576118b36020813803918261001c816103be565b9384928339810103126103b957516001600160a01b038116908190036103b95761004660406103be565b90601082526f23b7bb32b93730b731b2902a37b5b2b760811b602083015261006e60406103be565b600381526223a7ab60e91b602082015282519091906001600160401b0381116102c457600054600181811c911680156103af575b60208210146102a457601f811161034b575b506020601f82116001146102e557819293946000926102da575b50508160011b916000199060031b1c1916176000555b81516001600160401b0381116102c457600154600181811c911680156102ba575b60208210146102a457601f811161023f575b50602092601f82116001146101da57928192936000926101cf575b50508160011b916000199060031b1c1916176001555b801561018a57600880546001600160a01b0319169190911790556001600755610170336103e3565b5061017a3361045f565b50604051611357908161051c8239f35b60405162461bcd60e51b815260206004820152601460248201527f44414f20616464726573732072657175697265640000000000000000000000006044820152606490fd5b015190503880610132565b601f198216936001600052806000209160005b868110610227575083600195961061020e575b505050811b01600155610148565b015160001960f88460031b161c19169055388080610200565b919260206001819286850151815501940192016101ed565b60016000527fb10e2d527612073b26eecdfd717e6a320cf44b4afac2b0732d9fcbe2b7fa0cf6601f830160051c8101916020841061029a575b601f0160051c01905b81811061028e5750610117565b60008155600101610281565b9091508190610278565b634e487b7160e01b600052602260045260246000fd5b90607f1690610105565b634e487b7160e01b600052604160045260246000fd5b0151905038806100ce565b601f1982169060008052806000209160005b8181106103335750958360019596971061031a575b505050811b016000556100e4565b015160001960f88460031b161c1916905538808061030c565b9192602060018192868b0151815501940192016102f7565b600080527f290decd9548b62a8d60345a988386fc84ba6bc95484008f6362f93160ef3e563601f830160051c810191602084106103a5575b601f0160051c01905b81811061039957506100b4565b6000815560010161038c565b9091508190610383565b90607f16906100a2565b600080fd5b6040519190601f01601f191682016001600160401b038111838210176102c457604052565b6001600160a01b0381166000908152600080516020611893833981519152602052604090205460ff16610459576001600160a01b0316600081815260008051602061189383398151915260205260408120805460ff191660011790553391906000805160206118738339815191528180a4600190565b50600090565b6001600160a01b03811660009081527f3195c024b2ddd6d9b8f6c836aa52f67fe69376c8903d009b80229b3ce4425f51602052604090205460ff16610459576001600160a01b031660008181527f3195c024b2ddd6d9b8f6c836aa52f67fe69376c8903d009b80229b3ce4425f5160205260408120805460ff191660011790553391907f9f2df0fed2c77648de5860a4cc508cd0818c85b8b8a1ab4ceeef8d981c8956a6906000805160206118738339815191529080a460019056fe608080604052600436101561001357600080fd5b600090813560e01c90816301ffc9a714610e265750806302fb4d8514610bb257806306fdde0314610af7578063081812fc14610aba578063095ea7b3146109d057806323b872dd14610979578063248a9ca31461094b5780632a240ef0146108d45780632f2ff15d1461089357806336568abe1461084e57806340c10f191461076a5780634162169f1461074157806342842e0e146106db5780636352211e146106aa57806370a082311461050f57806375794a3c1461068c57806391d148541461064057806395d89b411461053b5780639ab24eb01461050f578063a217fddf146104f3578063a22cb4651461044f578063b88d4fde14610365578063c87b56dd14610311578063d5391393146102d6578063d547741f1461028c578063e73a914c146101a65763e985e9c51461014a57600080fd5b346101a35760403660031901126101a3576040610165610ead565b9161016e610ec8565b9260018060a01b031681526005602052209060018060a01b0316600052602052602060ff604060002054166040519015158152f35b80fd5b50346101a35760203660031901126101a3576101c0610ead565b3360009081527f54cdd369e4e8a8515e52ca72ec816c2101831ad1f18bf44102ed171459c9b4f8602052604090205460ff1615610272576001600160a01b0316801561023f57600880546001600160a01b031916821790557f8aad84fcad50e723fa3bcf0fb32c5bea4c71078b77b9aedfa638f146f3a3f7b98280a280f35b60405162461bcd60e51b815260206004820152600b60248201526a496e76616c69642044414f60a81b6044820152606490fd5b63e2517d3f60e01b60005233600452600060245260446000fd5b50346101a35760403660031901126101a3576102d26004356102ac610ec8565b906102cd6102c882600052600660205260016040600020015490565b6110db565b61129b565b5080f35b50346101a357806003193601126101a35760206040517f9f2df0fed2c77648de5860a4cc508cd0818c85b8b8a1ab4ceeef8d981c8956a68152f35b50346101a35760203660031901126101a35761032e600435611032565b508060405161033e602082610f61565b5250610361604051610351602082610f61565b6000815260405191829182610ede565b0390f35b50346101a35760803660031901126101a35761037f610ead565b50610388610ec8565b5060643567ffffffffffffffff811161044b573660238201121561044b57806004013567ffffffffffffffff8111610437576040516103d1601f8301601f191660200182610f61565b818152366024838501011161043357816024602094018483013701015260405162461bcd60e51b815260206004820152601b60248201527f536f756c626f756e643a206e6f6e2d7472616e7366657261626c6500000000006044820152606490fd5b8380fd5b634e487b7160e01b83526041600452602483fd5b5080fd5b50346101a35760403660031901126101a357610469610ead565b602435908115158092036104ef576001600160a01b03169081156104db5733835260056020526040832082600052602052604060002060ff1981541660ff83161790556040519081527f17307eab39ab6107e8899845ad3d59bd9653f200f220920489ca2b5937696c3160203392a380f35b630b61174360e31b83526004829052602483fd5b8280fd5b50346101a357806003193601126101a357602090604051908152f35b50346101a35760203660031901126101a357602061053361052e610ead565b610ffc565b604051908152f35b50346101a357806003193601126101a3576040519080600154908160011c91600181168015610636575b602084108114610622578386529081156105fb575060011461059e575b6103618461059281860382610f61565b60405191829182610ede565b600181527fb10e2d527612073b26eecdfd717e6a320cf44b4afac2b0732d9fcbe2b7fa0cf6939250905b8082106105e15750909150810160200161059282610582565b9192600181602092548385880101520191019092916105c8565b60ff191660208087019190915292151560051b850190920192506105929150839050610582565b634e487b7160e01b83526022600452602483fd5b92607f1692610565565b50346101a35760403660031901126101a357604061065c610ec8565b9160043581526006602052209060018060a01b0316600052602052602060ff604060002054166040519015158152f35b50346101a357806003193601126101a3576020600754604051908152f35b50346101a35760203660031901126101a35760206106c9600435611032565b6040516001600160a01b039091168152f35b50346101a3576106ea36610f27565b5050506040516106fb602082610f61565b5260405162461bcd60e51b815260206004820152601b60248201527f536f756c626f756e643a206e6f6e2d7472616e7366657261626c6500000000006044820152606490fd5b50346101a357806003193601126101a3576008546040516001600160a01b039091168152602090f35b50346101a35760403660031901126101a357610784610ead565b60243590610790611069565b6001600160a01b0381166107a5811515610f99565b82151580610843575b1561080757835b8381106107c0578480f35b6001906007546107cf81610fd7565b6007556107dc8186611118565b837fb9144c96c86541f6fa89c9f2f02495cccf4b08cd6643e26d34ee00aa586558a88880a3016107b5565b60405162461bcd60e51b81526020600482015260146024820152730416d6f756e74206d75737420626520312d3130360641b6044820152606490fd5b5060648311156107ae565b50346101a35760403660031901126101a357610868610ec8565b336001600160a01b03821603610884576102d29060043561129b565b63334bd91960e11b8252600482fd5b50346101a35760403660031901126101a3576102d26004356108b3610ec8565b906108cf6102c882600052600660205260016040600020015490565b61120c565b50346101a35760203660031901126101a3576108ee610ead565b6108f6611069565b6001600160a01b03811661090b811515610f99565b610924600754809361091c82610fd7565b600755611118565b7fb9144c96c86541f6fa89c9f2f02495cccf4b08cd6643e26d34ee00aa586558a88380a380f35b50346101a35760203660031901126101a3576020610533600435600052600660205260016040600020015490565b50346101a35761098836610f27565b505060405162461bcd60e51b815260206004820152601b60248201527f536f756c626f756e643a206e6f6e2d7472616e7366657261626c650000000000604482015260649150fd5b50346101a35760403660031901126101a3576109ea610ead565b6024356109f681611032565b33151580610aa7575b80610a7a575b610a675781906001600160a01b0384811691167f8c5be1e5ebec7d5bd14f71427d1e84f3dd0314c0f7b2291e5b200ac8c7c3b9258680a4825260046020526040822080546001600160a01b0319166001600160a01b0390921691909117905580f35b63a9fbf51f60e01b845233600452602484fd5b506001600160a01b0381168452600560209081526040808620336000908152925290205460ff1615610a05565b506001600160a01b0381163314156109ff565b50346101a35760203660031901126101a357602090600435610adb81611032565b50815260048252604060018060a01b0391205416604051908152f35b50346101a357806003193601126101a35760405190808054908160011c91600181168015610ba8575b602084108114610622578386529081156105fb5750600114610b4c576103618461059281860382610f61565b8080527f290decd9548b62a8d60345a988386fc84ba6bc95484008f6362f93160ef3e563939250905b808210610b8e5750909150810160200161059282610582565b919260018160209254838588010152019101909291610b75565b92607f1692610b20565b50346101a35760403660031901126101a357610bcc610ead565b600854909190602435906001600160a01b03163303610dec576001600160a01b03831692610bff9061052e851515610f99565b908115610db25781811115610daa5750905b809260015b600754811080610da1575b15610d1357816001600160a01b03610c3883611032565b1614610c4d575b610c4890610fd7565b610c16565b808352600260205260408320549094906001600160a01b03168015908115610cde575b86855260026020526040852080546001600160a01b03191690558685827fddf252ad1be2c89b69c2b068fc378daa952ba7f163c4a11628f55a4df523b3ef8280a450610cca57610cc2610c4891610fd7565b949050610c3f565b637e27328960e01b83526004859052602483fd5b600087815260046020526040902080546001600160a01b03191690558085526003602052604085208054600019019055610c70565b50818491807ff07fe48984adf7cd00d608ef62ee09ccf9774ff0085bfca0af5cd8ff76c01a026020604051868152a26008546001600160a01b031692833b156104ef57604483928360405196879485936307d4fca360e01b8552600485015260248401525af18015610d9457610d865780f35b610d8f91610f61565b818180f35b50604051903d90823e3d90fd5b50838510610c21565b905090610c11565b60405162461bcd60e51b815260206004820152601260248201527109cde40e8ded6cadce640e8de40e6d8c2e6d60731b6044820152606490fd5b60405162461bcd60e51b815260206004820152601260248201527109edcd8f24088829e40c6c2dc40e6d8c2e6d60731b6044820152606490fd5b90503461044b57602036600319011261044b5760043563ffffffff60e01b81168091036104ef5760209250637965db0b60e01b8114908115610e6a575b5015158152f35b6380ac58cd60e01b811491508115610e9c575b8115610e8b575b5038610e63565b6301ffc9a760e01b14905038610e84565b635b5e139f60e01b81149150610e7d565b600435906001600160a01b0382168203610ec357565b600080fd5b602435906001600160a01b0382168203610ec357565b91909160208152825180602083015260005b818110610f11575060409293506000838284010152601f8019910116010190565b8060208092870101516040828601015201610ef0565b6060906003190112610ec3576004356001600160a01b0381168103610ec357906024356001600160a01b0381168103610ec3579060443590565b90601f8019910116810190811067ffffffffffffffff821117610f8357604052565b634e487b7160e01b600052604160045260246000fd5b15610fa057565b60405162461bcd60e51b815260206004820152600f60248201526e496e76616c6964206164647265737360881b6044820152606490fd5b6000198114610fe65760010190565b634e487b7160e01b600052601160045260246000fd5b6001600160a01b0316801561101c57600052600360205260406000205490565b6322718ad960e21b600052600060045260246000fd5b6000818152600260205260409020546001600160a01b0316908115611055575090565b637e27328960e01b60005260045260246000fd5b3360009081527f3195c024b2ddd6d9b8f6c836aa52f67fe69376c8903d009b80229b3ce4425f51602052604090205460ff16156110a257565b63e2517d3f60e01b600052336004527f9f2df0fed2c77648de5860a4cc508cd0818c85b8b8a1ab4ceeef8d981c8956a660245260446000fd5b600081815260066020908152604080832033845290915290205460ff16156111005750565b63e2517d3f60e01b6000523360045260245260446000fd5b6001600160a01b031680156111f657600091808352600260205260018060a01b0360408420541691827fddf252ad1be2c89b69c2b068fc378daa952ba7f163c4a11628f55a4df523b3ef81151595866111c1575b83815260036020526040812060018154019055848152600260205260408120846bffffffffffffffffffffffff60a01b82541617905580a4506111ab57565b6339e3563760e11b600052600060045260246000fd5b600085815260046020526040902080546001600160a01b0319169055828152600360205260408120805460001901905561116c565b633250574960e11b600052600060045260246000fd5b60008181526006602090815260408083206001600160a01b038616845290915290205460ff166112945760008181526006602090815260408083206001600160a01b0395909516808452949091528120805460ff19166001179055339291907f2f8788117e7eff1d82e926ec794901d17c78024a50270940304540a733656f0d9080a4600190565b5050600090565b60008181526006602090815260408083206001600160a01b038616845290915290205460ff16156112945760008181526006602090815260408083206001600160a01b0395909516808452949091528120805460ff19169055339291907ff6391f5c32d9c69d2a47ea670b442974b53935d1edc7fd64eb21e047a839171b9080a460019056fea2646970667358221220c7df58d9e35f4f8e36fd3135f6726fa99d06b10b1266f7d758338833c0dac90864736f6c634300081c00332f8788117e7eff1d82e926ec794901d17c78024a50270940304540a733656f0d54cdd369e4e8a8515e52ca72ec816c2101831ad1f18bf44102ed171459c9b4f8",
  "linkReferences": {},
  "deployedLinkReferences": {}
}